{
    "abi": [
        {
            "inputs": [
                {
                    "internalType": "string",
                    "name": "name_",
                    "type": "string"
                },
                {
                    "internalType": "string",
                    "name": "symbol_",
                    "type": "string"
                },
                {
                    "internalType": "uint8",
                    "name": "decimals_",
                    "type": "uint8"
                },
                {
                    "internalType": "uint256",
                    "name": "totalSupply_",
                    "type": "uint256"
                },
                {
                    "internalType": "uint256",
                    "name": "cap_",
                    "type": "uint256"
                },
                {
                    "internalType": "address",
                    "name": "serviceFeeReceiver_",
                    "type": "address"
                },
                {
                    "internalType": "uint256",
                    "name": "serviceFee_",
                    "type": "uint256"
                }
            ],
            "stateMutability": "payable",
            "type": "constructor"
        },
        {
            "inputs": [
                {
                    "internalType": "address",
                    "name": "spender",
                    "type": "address"
                },
                {
                    "internalType": "uint256",
                    "name": "allowance",
                    "type": "uint256"
                },
                {
                    "internalType": "uint256",
                    "name": "needed",
                    "type": "uint256"
                }
            ],
            "name": "ERC20InsufficientAllowance",
            "type": "error"
        },
        {
            "inputs": [
                {
                    "internalType": "address",
                    "name": "sender",
                    "type": "address"
                },
                {
                    "internalType": "uint256",
                    "name": "balance",
                    "type": "uint256"
                },
                {
                    "internalType": "uint256",
                    "name": "needed",
                    "type": "uint256"
                }
            ],
            "name": "ERC20InsufficientBalance",
            "type": "error"
        },
        {
            "inputs": [
                {
                    "internalType": "address",
                    "name": "approver",
                    "type": "address"
                }
            ],
            "name": "ERC20InvalidApprover",
            "type": "error"
        },
        {
            "inputs": [
                {
                    "internalType": "address",
                    "name": "receiver",
                    "type": "address"
                }
            ],
            "name": "ERC20InvalidReceiver",
            "type": "error"
        },
        {
            "inputs": [
                {
                    "internalType": "address",
                    "name": "sender",
                    "type": "address"
                }
            ],
            "name": "ERC20InvalidSender",
            "type": "error"
        },
        {
            "inputs": [
                {
                    "internalType": "address",
                    "name": "spender",
                    "type": "address"
                }
            ],
            "name": "ERC20InvalidSpender",
            "type": "error"
        },
        {
            "inputs": [],
            "name": "EnforcedPause",
            "type": "error"
        },
        {
            "inputs": [],
            "name": "ExpectedPause",
            "type": "error"
        },
        {
            "inputs": [
                {
                    "internalType": "address",
                    "name": "owner",
                    "type": "address"
                }
            ],
            "name": "OwnableInvalidOwner",
            "type": "error"
        },
        {
            "inputs": [
                {
                    "internalType": "address",
                    "name": "account",
                    "type": "address"
                }
            ],
            "name": "OwnableUnauthorizedAccount",
            "type": "error"
        },
        {
            "anonymous": false,
            "inputs": [
                {
                    "indexed": true,
                    "internalType": "address",
                    "name": "owner",
                    "type": "address"
                },
                {
                    "indexed": true,
                    "internalType": "address",
                    "name": "spender",
                    "type": "address"
                },
                {
                    "indexed": false,
                    "internalType": "uint256",
                    "name": "value",
                    "type": "uint256"
                }
            ],
            "name": "Approval",
            "type": "event"
        },
        {
            "anonymous": false,
            "inputs": [
                {
                    "indexed": true,
                    "internalType": "address",
                    "name": "previousOwner",
                    "type": "address"
                },
                {
                    "indexed": true,
                    "internalType": "address",
                    "name": "newOwner",
                    "type": "address"
                }
            ],
            "name": "OwnershipTransferred",
            "type": "event"
        },
        {
            "anonymous": false,
            "inputs": [
                {
                    "indexed": false,
                    "internalType": "address",
                    "name": "account",
                    "type": "address"
                }
            ],
            "name": "Paused",
            "type": "event"
        },
        {
            "anonymous": false,
            "inputs": [
                {
                    "indexed": true,
                    "internalType": "address",
                    "name": "from",
                    "type": "address"
                },
                {
                    "indexed": true,
                    "internalType": "address",
                    "name": "to",
                    "type": "address"
                },
                {
                    "indexed": false,
                    "internalType": "uint256",
                    "name": "value",
                    "type": "uint256"
                }
            ],
            "name": "Transfer",
            "type": "event"
        },
        {
            "anonymous": false,
            "inputs": [
                {
                    "indexed": false,
                    "internalType": "address",
                    "name": "account",
                    "type": "address"
                }
            ],
            "name": "Unpaused",
            "type": "event"
        },
        {
            "inputs": [
                {
                    "internalType": "address",
                    "name": "owner",
                    "type": "address"
                },
                {
                    "internalType": "address",
                    "name": "spender",
                    "type": "address"
                }
            ],
            "name": "allowance",
            "outputs": [
                {
                    "internalType": "uint256",
                    "name": "",
                    "type": "uint256"
                }
            ],
            "stateMutability": "view",
            "type": "function"
        },
        {
            "inputs": [
                {
                    "internalType": "address",
                    "name": "spender",
                    "type": "address"
                },
                {
                    "internalType": "uint256",
                    "name": "value",
                    "type": "uint256"
                }
            ],
            "name": "approve",
            "outputs": [
                {
                    "internalType": "bool",
                    "name": "",
                    "type": "bool"
                }
            ],
            "stateMutability": "nonpayable",
            "type": "function"
        },
        {
            "inputs": [
                {
                    "internalType": "address",
                    "name": "account",
                    "type": "address"
                }
            ],
            "name": "balanceOf",
            "outputs": [
                {
                    "internalType": "uint256",
                    "name": "",
                    "type": "uint256"
                }
            ],
            "stateMutability": "view",
            "type": "function"
        },
        {
            "inputs": [
                {
                    "internalType": "uint256",
                    "name": "value",
                    "type": "uint256"
                }
            ],
            "name": "burn",
            "outputs": [],
            "stateMutability": "nonpayable",
            "type": "function"
        },
        {
            "inputs": [
                {
                    "internalType": "address",
                    "name": "account",
                    "type": "address"
                },
                {
                    "internalType": "uint256",
                    "name": "value",
                    "type": "uint256"
                }
            ],
            "name": "burnFrom",
            "outputs": [],
            "stateMutability": "nonpayable",
            "type": "function"
        },
        {
            "inputs": [],
            "name": "cap",
            "outputs": [
                {
                    "internalType": "uint256",
                    "name": "",
                    "type": "uint256"
                }
            ],
            "stateMutability": "view",
            "type": "function"
        },
        {
            "inputs": [],
            "name": "decimals",
            "outputs": [
                {
                    "internalType": "uint8",
                    "name": "",
                    "type": "uint8"
                }
            ],
            "stateMutability": "view",
            "type": "function"
        },
        {
            "inputs": [
                {
                    "internalType": "address",
                    "name": "to",
                    "type": "address"
                },
                {
                    "internalType": "uint256",
                    "name": "amount",
                    "type": "uint256"
                }
            ],
            "name": "mint",
            "outputs": [],
            "stateMutability": "nonpayable",
            "type": "function"
        },
        {
            "inputs": [],
            "name": "name",
            "outputs": [
                {
                    "internalType": "string",
                    "name": "",
                    "type": "string"
                }
            ],
            "stateMutability": "view",
            "type": "function"
        },
        {
            "inputs": [],
            "name": "owner",
            "outputs": [
                {
                    "internalType": "address",
                    "name": "",
                    "type": "address"
                }
            ],
            "stateMutability": "view",
            "type": "function"
        },
        {
            "inputs": [],
            "name": "pause",
            "outputs": [],
            "stateMutability": "nonpayable",
            "type": "function"
        },
        {
            "inputs": [],
            "name": "paused",
            "outputs": [
                {
                    "internalType": "bool",
                    "name": "",
                    "type": "bool"
                }
            ],
            "stateMutability": "view",
            "type": "function"
        },
        {
            "inputs": [],
            "name": "renounceOwnership",
            "outputs": [],
            "stateMutability": "nonpayable",
            "type": "function"
        },
        {
            "inputs": [],
            "name": "symbol",
            "outputs": [
                {
                    "internalType": "string",
                    "name": "",
                    "type": "string"
                }
            ],
            "stateMutability": "view",
            "type": "function"
        },
        {
            "inputs": [],
            "name": "totalSupply",
            "outputs": [
                {
                    "internalType": "uint256",
                    "name": "",
                    "type": "uint256"
                }
            ],
            "stateMutability": "view",
            "type": "function"
        },
        {
            "inputs": [
                {
                    "internalType": "address",
                    "name": "to",
                    "type": "address"
                },
                {
                    "internalType": "uint256",
                    "name": "value",
                    "type": "uint256"
                }
            ],
            "name": "transfer",
            "outputs": [
                {
                    "internalType": "bool",
                    "name": "",
                    "type": "bool"
                }
            ],
            "stateMutability": "nonpayable",
            "type": "function"
        },
        {
            "inputs": [
                {
                    "internalType": "address",
                    "name": "from",
                    "type": "address"
                },
                {
                    "internalType": "address",
                    "name": "to",
                    "type": "address"
                },
                {
                    "internalType": "uint256",
                    "name": "value",
                    "type": "uint256"
                }
            ],
            "name": "transferFrom",
            "outputs": [
                {
                    "internalType": "bool",
                    "name": "",
                    "type": "bool"
                }
            ],
            "stateMutability": "nonpayable",
            "type": "function"
        },
        {
            "inputs": [
                {
                    "internalType": "address",
                    "name": "newOwner",
                    "type": "address"
                }
            ],
            "name": "transferOwnership",
            "outputs": [],
            "stateMutability": "nonpayable",
            "type": "function"
        },
        {
            "inputs": [],
            "name": "unpause",
            "outputs": [],
            "stateMutability": "nonpayable",
            "type": "function"
        }
    ],
    "bytecode": {
        "object": "0x608060405260405161154a38038061154a833981016040819052610022916105eb565b338061004857604051631e4fbdf760e01b81525f60048201526024015b60405180910390fd5b610051816102cc565b505f805460ff60a01b19169055600461006a888261071c565b506005610077878261071c565b506006805460ff191660ff8716179055826100d45760405162461bcd60e51b815260206004820152601c60248201527f4361702073686f756c642062652067726561746572207468616e203000000000604482015260640161003f565b600783905560065460ff166100ea90600a6108cf565b6007546100f791906108e4565b8411156101465760405162461bcd60e51b815260206004820152601960248201527f45524332304361707065643a2063617020657863656564656400000000000000604482015260640161003f565b803410156101965760405162461bcd60e51b815260206004820152601c60248201527f496e73756666696369656e742066656520616d6f756e742073656e7400000000604482015260640161003f565b6001600160a01b0382166101ec5760405162461bcd60e51b815260206004820152601c60248201527f496e76616c696420666565207265636569766572206164647265737300000000604482015260640161003f565b5f826001600160a01b0316826040515f6040518083038185875af1925050503d805f8114610235576040519150601f19603f3d011682016040523d82523d5f602084013e61023a565b606091505b505090508061028b5760405162461bcd60e51b815260206004820152601360248201527f466565207472616e73666572206661696c656400000000000000000000000000604482015260640161003f565b6102bf61029f5f546001600160a01b031690565b60065460ff166102b090600a6108cf565b6102ba90886108e4565b61031b565b505050505050505061090e565b5f80546001600160a01b038381166001600160a01b0319831681178455604051919092169283917f8be0079c531659141344cd1fd0a4f28419497f9722a3daafe3b4186f6b6457e09190a35050565b60065460ff1661032c90600a6108cf565b60075461033991906108e4565b8161034360035490565b61034d91906108fb565b111561039b5760405162461bcd60e51b815260206004820152601960248201527f45524332304361707065643a2063617020657863656564656400000000000000604482015260640161003f565b6001600160a01b0382166103c45760405163ec442f0560e01b81525f600482015260240161003f565b6103cf5f83836103d3565b5050565b6103db610501565b6001600160a01b038316610405578060035f8282546103fa91906108fb565b909155506104759050565b6001600160a01b0383165f90815260016020526040902054818110156104575760405163391434e360e21b81526001600160a01b0385166004820152602481018290526044810183905260640161003f565b6001600160a01b0384165f9081526001602052604090209082900390555b6001600160a01b038216610491576003805482900390556104af565b6001600160a01b0382165f9081526001602052604090208054820190555b816001600160a01b0316836001600160a01b03167fddf252ad1be2c89b69c2b068fc378daa952ba7f163c4a11628f55a4df523b3ef836040516104f491815260200190565b60405180910390a3505050565b6105135f54600160a01b900460ff1690565b156105315760405163d93c066560e01b815260040160405180910390fd5b565b634e487b7160e01b5f52604160045260245ffd5b5f82601f830112610556575f80fd5b81516001600160401b0381111561056f5761056f610533565b604051601f8201601f19908116603f011681016001600160401b038111828210171561059d5761059d610533565b6040528181528382016020018510156105b4575f80fd5b8160208501602083015e5f918101602001919091529392505050565b80516001600160a01b03811681146105e6575f80fd5b919050565b5f805f805f805f60e0888a031215610601575f80fd5b87516001600160401b03811115610616575f80fd5b6106228a828b01610547565b60208a015190985090506001600160401b0381111561063f575f80fd5b61064b8a828b01610547565b965050604088015160ff81168114610661575f80fd5b606089015160808a01519196509450925061067e60a089016105d0565b91505f60c089015190508091505092959891949750929550565b600181811c908216806106ac57607f821691505b6020821081036106ca57634e487b7160e01b5f52602260045260245ffd5b50919050565b601f82111561071757805f5260205f20601f840160051c810160208510156106f55750805b601f840160051c820191505b81811015610714575f8155600101610701565b50505b505050565b81516001600160401b0381111561073557610735610533565b610749816107438454610698565b846106d0565b6020601f82116001811461077b575f83156107645750848201515b5f19600385901b1c1916600184901b178455610714565b5f84815260208120601f198516915b828110156107aa578785015182556020948501946001909201910161078a565b50848210156107c757868401515f19600387901b60f8161c191681555b50505050600190811b01905550565b634e487b7160e01b5f52601160045260245ffd5b6001815b600184111561082557808504811115610809576108096107d6565b600184161561081757908102905b60019390931c9280026107ee565b935093915050565b5f8261083b575060016108c9565b8161084757505f6108c9565b816001811461085d576002811461086757610883565b60019150506108c9565b60ff841115610878576108786107d6565b50506001821b6108c9565b5060208310610133831016604e8410600b84101617156108a6575081810a6108c9565b6108b25f1984846107ea565b805f19048211156108c5576108c56107d6565b0290505b92915050565b5f6108dd60ff84168361082d565b9392505050565b80820281158282048414176108c9576108c96107d6565b808201808211156108c9576108c96107d6565b610c2f8061091b5f395ff3fe608060405234801561000f575f80fd5b506004361061011c575f3560e01c80635c975abb116100a95780638da5cb5b1161006e5780638da5cb5b1461022f57806395d89b4114610249578063a9059cbb14610251578063dd62ed3e14610264578063f2fde38b1461029c575f80fd5b80635c975abb146101d357806370a08231146101e4578063715018a61461020c57806379cc6790146102145780638456cb5914610227575f80fd5b8063313ce567116100ef578063313ce56714610186578063355274ea1461019b5780633f4ba83a146101a357806340c10f19146101ad57806342966c68146101c0575f80fd5b806306fdde0314610120578063095ea7b31461013e57806318160ddd1461016157806323b872dd14610173575b5f80fd5b6101286102af565b6040516101359190610978565b60405180910390f35b61015161014c3660046109c8565b61033f565b6040519015158152602001610135565b6003545b604051908152602001610135565b6101516101813660046109f0565b610358565b60065460405160ff9091168152602001610135565b600754610165565b6101ab61037b565b005b6101ab6101bb3660046109c8565b61038d565b6101ab6101ce366004610a2a565b6103a3565b5f54600160a01b900460ff16610151565b6101656101f2366004610a41565b6001600160a01b03165f9081526001602052604090205490565b6101ab6103b0565b6101ab6102223660046109c8565b6103c1565b6101ab6103d6565b5f546040516001600160a01b039091168152602001610135565b6101286103e6565b61015161025f3660046109c8565b6103f5565b610165610272366004610a61565b6001600160a01b039182165f90815260026020908152604080832093909416825291909152205490565b6101ab6102aa366004610a41565b610402565b6060600480546102be90610a92565b80601f01602080910402602001604051908101604052809291908181526020018280546102ea90610a92565b80156103355780601f1061030c57610100808354040283529160200191610335565b820191905f5260205f20905b81548152906001019060200180831161031857829003601f168201915b5050505050905090565b5f3361034c818585610441565b60019150505b92915050565b5f33610365858285610453565b6103708585856104cf565b506001949350505050565b61038361052c565b61038b610558565b565b61039561052c565b61039f82826105ac565b5050565b6103ad3382610660565b50565b6103b861052c565b61038b5f610694565b6103cc823383610453565b61039f8282610660565b6103de61052c565b61038b6106e3565b6060600580546102be90610a92565b5f3361034c8185856104cf565b61040a61052c565b6001600160a01b03811661043857604051631e4fbdf760e01b81525f60048201526024015b60405180910390fd5b6103ad81610694565b61044e8383836001610725565b505050565b6001600160a01b038381165f908152600260209081526040808320938616835292905220545f198110156104c957818110156104bb57604051637dc7a0d960e11b81526001600160a01b0384166004820152602481018290526044810183905260640161042f565b6104c984848484035f610725565b50505050565b6001600160a01b0383166104f857604051634b637e8f60e11b81525f600482015260240161042f565b6001600160a01b0382166105215760405163ec442f0560e01b81525f600482015260240161042f565b61044e8383836107f7565b5f546001600160a01b0316331461038b5760405163118cdaa760e01b815233600482015260240161042f565b610560610925565b5f805460ff60a01b191690557f5db9ee0a495bf2e6ff9c91a7834c1ba4fdd244a5e8aa4e537bd38aeae4b073aa335b6040516001600160a01b03909116815260200160405180910390a1565b60065460ff166105bd90600a610bc1565b6007546105ca9190610bcf565b816105d460035490565b6105de9190610be6565b111561062c5760405162461bcd60e51b815260206004820152601960248201527f45524332304361707065643a2063617020657863656564656400000000000000604482015260640161042f565b6001600160a01b0382166106555760405163ec442f0560e01b81525f600482015260240161042f565b61039f5f83836107f7565b6001600160a01b03821661068957604051634b637e8f60e11b81525f600482015260240161042f565b61039f825f836107f7565b5f80546001600160a01b038381166001600160a01b0319831681178455604051919092169283917f8be0079c531659141344cd1fd0a4f28419497f9722a3daafe3b4186f6b6457e09190a35050565b6106eb61094e565b5f805460ff60a01b1916600160a01b1790557f62e78cea01bee320cd4e420270b5ea74000d11b0c9f74754ebdbfc544b05a25861058f3390565b6001600160a01b03841661074e5760405163e602df0560e01b81525f600482015260240161042f565b6001600160a01b03831661077757604051634a1406b160e11b81525f600482015260240161042f565b6001600160a01b038085165f90815260026020908152604080832093871683529290522082905580156104c957826001600160a01b0316846001600160a01b03167f8c5be1e5ebec7d5bd14f71427d1e84f3dd0314c0f7b2291e5b200ac8c7c3b925846040516107e991815260200190565b60405180910390a350505050565b6107ff61094e565b6001600160a01b038316610829578060035f82825461081e9190610be6565b909155506108999050565b6001600160a01b0383165f908152600160205260409020548181101561087b5760405163391434e360e21b81526001600160a01b0385166004820152602481018290526044810183905260640161042f565b6001600160a01b0384165f9081526001602052604090209082900390555b6001600160a01b0382166108b5576003805482900390556108d3565b6001600160a01b0382165f9081526001602052604090208054820190555b816001600160a01b0316836001600160a01b03167fddf252ad1be2c89b69c2b068fc378daa952ba7f163c4a11628f55a4df523b3ef8360405161091891815260200190565b60405180910390a3505050565b5f54600160a01b900460ff1661038b57604051638dfc202b60e01b815260040160405180910390fd5b5f54600160a01b900460ff161561038b5760405163d93c066560e01b815260040160405180910390fd5b602081525f82518060208401528060208501604085015e5f604082850101526040601f19601f83011684010191505092915050565b80356001600160a01b03811681146109c3575f80fd5b919050565b5f80604083850312156109d9575f80fd5b6109e2836109ad565b946020939093013593505050565b5f805f60608486031215610a02575f80fd5b610a0b846109ad565b9250610a19602085016109ad565b929592945050506040919091013590565b5f60208284031215610a3a575f80fd5b5035919050565b5f60208284031215610a51575f80fd5b610a5a826109ad565b9392505050565b5f8060408385031215610a72575f80fd5b610a7b836109ad565b9150610a89602084016109ad565b90509250929050565b600181811c90821680610aa657607f821691505b602082108103610ac457634e487b7160e01b5f52602260045260245ffd5b50919050565b634e487b7160e01b5f52601160045260245ffd5b6001815b6001841115610b1957808504811115610afd57610afd610aca565b6001841615610b0b57908102905b60019390931c928002610ae2565b935093915050565b5f82610b2f57506001610352565b81610b3b57505f610352565b8160018114610b515760028114610b5b57610b77565b6001915050610352565b60ff841115610b6c57610b6c610aca565b50506001821b610352565b5060208310610133831016604e8410600b8410161715610b9a575081810a610352565b610ba65f198484610ade565b805f1904821115610bb957610bb9610aca565b029392505050565b5f610a5a60ff841683610b21565b808202811582820484141761035257610352610aca565b8082018082111561035257610352610aca56fea264697066735822122067cae57c65812df8036ba5f5b5ef49c3c4f89a1274dcaf372399232a9b6b3f6364736f6c634300081a0033",
        "linkReferences": {}
    },
    "deployedBytecode": {
        "object": "0x608060405234801561001057600080fd5b50600436106101215760003560e01c80635c975abb116100ad5780638da5cb5b116100715780638da5cb5b1461023757806395d89b4114610252578063a9059cbb1461025a578063dd62ed3e1461026d578063f2fde38b146102a657600080fd5b80635c975abb146101d957806370a08231146101eb578063715018a61461021457806379cc67901461021c5780638456cb591461022f57600080fd5b8063313ce567116100f4578063313ce5671461018c578063355274ea146101a15780633f4ba83a146101a957806340c10f19146101b357806342966c68146101c657600080fd5b806306fdde0314610126578063095ea7b31461014457806318160ddd1461016757806323b872dd14610179575b600080fd5b61012e6102b9565b60405161013b919061099f565b60405180910390f35b610157610152366004610a0a565b61034b565b604051901515815260200161013b565b6003545b60405190815260200161013b565b610157610187366004610a34565b610365565b60065460405160ff909116815260200161013b565b60075461016b565b6101b1610389565b005b6101b16101c1366004610a0a565b61039b565b6101b16101d4366004610a70565b6103b1565b600054600160a01b900460ff16610157565b61016b6101f9366004610a89565b6001600160a01b031660009081526001602052604090205490565b6101b16103be565b6101b161022a366004610a0a565b6103d0565b6101b16103e5565b6000546040516001600160a01b03909116815260200161013b565b61012e6103f5565b610157610268366004610a0a565b610404565b61016b61027b366004610aab565b6001600160a01b03918216600090815260026020908152604080832093909416825291909152205490565b6101b16102b4366004610a89565b610412565b6060600480546102c890610ade565b80601f01602080910402602001604051908101604052809291908181526020018280546102f490610ade565b80156103415780601f1061031657610100808354040283529160200191610341565b820191906000526020600020905b81548152906001019060200180831161032457829003601f168201915b5050505050905090565b600033610359818585610452565b60019150505b92915050565b600033610373858285610464565b61037e8585856104e3565b506001949350505050565b610391610542565b61039961056f565b565b6103a3610542565b6103ad82826105c4565b5050565b6103bb338261067a565b50565b6103c6610542565b61039960006106b0565b6103db823383610464565b6103ad828261067a565b6103ed610542565b610399610700565b6060600580546102c890610ade565b6000336103598185856104e3565b61041a610542565b6001600160a01b03811661044957604051631e4fbdf760e01b8152600060048201526024015b60405180910390fd5b6103bb816106b0565b61045f8383836001610743565b505050565b6001600160a01b038381166000908152600260209081526040808320938616835292905220546000198110156104dd57818110156104ce57604051637dc7a0d960e11b81526001600160a01b03841660048201526024810182905260448101839052606401610440565b6104dd84848484036000610743565b50505050565b6001600160a01b03831661050d57604051634b637e8f60e11b815260006004820152602401610440565b6001600160a01b0382166105375760405163ec442f0560e01b815260006004820152602401610440565b61045f838383610818565b6000546001600160a01b031633146103995760405163118cdaa760e01b8152336004820152602401610440565b61057761094a565b6000805460ff60a01b191690557f5db9ee0a495bf2e6ff9c91a7834c1ba4fdd244a5e8aa4e537bd38aeae4b073aa335b6040516001600160a01b03909116815260200160405180910390a1565b60065460ff166105d590600a610c12565b6007546105e29190610c21565b816105ec60035490565b6105f69190610c38565b11156106445760405162461bcd60e51b815260206004820152601960248201527f45524332304361707065643a20636170206578636565646564000000000000006044820152606401610440565b6001600160a01b03821661066e5760405163ec442f0560e01b815260006004820152602401610440565b6103ad60008383610818565b6001600160a01b0382166106a457604051634b637e8f60e11b815260006004820152602401610440565b6103ad82600083610818565b600080546001600160a01b038381166001600160a01b0319831681178455604051919092169283917f8be0079c531659141344cd1fd0a4f28419497f9722a3daafe3b4186f6b6457e09190a35050565b610708610974565b6000805460ff60a01b1916600160a01b1790557f62e78cea01bee320cd4e420270b5ea74000d11b0c9f74754ebdbfc544b05a2586105a73390565b6001600160a01b03841661076d5760405163e602df0560e01b815260006004820152602401610440565b6001600160a01b03831661079757604051634a1406b160e11b815260006004820152602401610440565b6001600160a01b03808516600090815260026020908152604080832093871683529290522082905580156104dd57826001600160a01b0316846001600160a01b03167f8c5be1e5ebec7d5bd14f71427d1e84f3dd0314c0f7b2291e5b200ac8c7c3b9258460405161080a91815260200190565b60405180910390a350505050565b610820610974565b6001600160a01b03831661084b5780600360008282546108409190610c38565b909155506108bd9050565b6001600160a01b0383166000908152600160205260409020548181101561089e5760405163391434e360e21b81526001600160a01b03851660048201526024810182905260448101839052606401610440565b6001600160a01b03841660009081526001602052604090209082900390555b6001600160a01b0382166108d9576003805482900390556108f8565b6001600160a01b03821660009081526001602052604090208054820190555b816001600160a01b0316836001600160a01b03167fddf252ad1be2c89b69c2b068fc378daa952ba7f163c4a11628f55a4df523b3ef8360405161093d91815260200190565b60405180910390a3505050565b600054600160a01b900460ff1661039957604051638dfc202b60e01b815260040160405180910390fd5b600054600160a01b900460ff16156103995760405163d93c066560e01b815260040160405180910390fd5b60006020808352835180602085015260005b818110156109cd578581018301518582016040015282016109b1565b506000604082860101526040601f19601f8301168501019250505092915050565b80356001600160a01b0381168114610a0557600080fd5b919050565b60008060408385031215610a1d57600080fd5b610a26836109ee565b946020939093013593505050565b600080600060608486031215610a4957600080fd5b610a52846109ee565b9250610a60602085016109ee565b9150604084013590509250925092565b600060208284031215610a8257600080fd5b5035919050565b600060208284031215610a9b57600080fd5b610aa4826109ee565b9392505050565b60008060408385031215610abe57600080fd5b610ac7836109ee565b9150610ad5602084016109ee565b90509250929050565b600181811c90821680610af257607f821691505b602082108103610b1257634e487b7160e01b600052602260045260246000fd5b50919050565b634e487b7160e01b600052601160045260246000fd5b600181815b80851115610b69578160001904821115610b4f57610b4f610b18565b80851615610b5c57918102915b93841c9390800290610b33565b509250929050565b600082610b805750600161035f565b81610b8d5750600061035f565b8160018114610ba35760028114610bad57610bc9565b600191505061035f565b60ff841115610bbe57610bbe610b18565b50506001821b61035f565b5060208310610133831016604e8410600b8410161715610bec575081810a61035f565b610bf68383610b2e565b8060001904821115610c0a57610c0a610b18565b029392505050565b6000610aa460ff841683610b71565b808202811582820484141761035f5761035f610b18565b8082018082111561035f5761035f610b1856fea2646970667358221220555531c2dd21d6e445d6acc860d1cc3f541470d1c60ade8a22e5b8747cf7aca264736f6c63430008170033",
        "linkReferences": {}
    },
    "methodIdentifiers": {
        "allowance(address,address)": "dd62ed3e",
        "approve(address,uint256)": "095ea7b3",
        "balanceOf(address)": "70a08231",
        "burn(uint256)": "42966c68",
        "burnFrom(address,uint256)": "79cc6790",
        "cap()": "355274ea",
        "decimals()": "313ce567",
        "mint(address,uint256)": "40c10f19",
        "name()": "06fdde03",
        "owner()": "8da5cb5b",
        "pause()": "8456cb59",
        "paused()": "5c975abb",
        "renounceOwnership()": "715018a6",
        "symbol()": "95d89b41",
        "totalSupply()": "18160ddd",
        "transfer(address,uint256)": "a9059cbb",
        "transferFrom(address,address,uint256)": "23b872dd",
        "transferOwnership(address)": "f2fde38b",
        "unpause()": "3f4ba83a"
    },
    "id": 2
}