{"abi":[{"type":"constructor","inputs":[{"name":"name_","type":"string","internalType":"string"},{"name":"symbol_","type":"string","internalType":"string"},{"name":"decimals_","type":"uint8","internalType":"uint8"},{"name":"totalSupply_","type":"uint256","internalType":"uint256"},{"name":"serviceFeeReceiver_","type":"address","internalType":"address"},{"name":"serviceFee_","type":"uint256","internalType":"uint256"},{"name":"transferTaxBps_","type":"uint256","internalType":"uint256"},{"name":"taxFeeRecipient_","type":"address","internalType":"address"}],"stateMutability":"payable"},{"type":"function","name":"allowance","inputs":[{"name":"owner","type":"address","internalType":"address"},{"name":"spender","type":"address","internalType":"address"}],"outputs":[{"name":"","type":"uint256","internalType":"uint256"}],"stateMutability":"view"},{"type":"function","name":"approve","inputs":[{"name":"spender","type":"address","internalType":"address"},{"name":"value","type":"uint256","internalType":"uint256"}],"outputs":[{"name":"","type":"bool","internalType":"bool"}],"stateMutability":"nonpayable"},{"type":"function","name":"balanceOf","inputs":[{"name":"account","type":"address","internalType":"address"}],"outputs":[{"name":"","type":"uint256","internalType":"uint256"}],"stateMutability":"view"},{"type":"function","name":"burn","inputs":[{"name":"value","type":"uint256","internalType":"uint256"}],"outputs":[],"stateMutability":"nonpayable"},{"type":"function","name":"burnFrom","inputs":[{"name":"account","type":"address","internalType":"address"},{"name":"value","type":"uint256","internalType":"uint256"}],"outputs":[],"stateMutability":"nonpayable"},{"type":"function","name":"decimals","inputs":[],"outputs":[{"name":"","type":"uint8","internalType":"uint8"}],"stateMutability":"view"},{"type":"function","name":"getTaxFeeRecipient","inputs":[],"outputs":[{"name":"","type":"address","internalType":"address"}],"stateMutability":"view"},{"type":"function","name":"getTransferTaxBps","inputs":[],"outputs":[{"name":"","type":"uint256","internalType":"uint256"}],"stateMutability":"view"},{"type":"function","name":"mint","inputs":[{"name":"to","type":"address","internalType":"address"},{"name":"amount","type":"uint256","internalType":"uint256"}],"outputs":[],"stateMutability":"nonpayable"},{"type":"function","name":"name","inputs":[],"outputs":[{"name":"","type":"string","internalType":"string"}],"stateMutability":"view"},{"type":"function","name":"owner","inputs":[],"outputs":[{"name":"","type":"address","internalType":"address"}],"stateMutability":"view"},{"type":"function","name":"pause","inputs":[],"outputs":[],"stateMutability":"nonpayable"},{"type":"function","name":"paused","inputs":[],"outputs":[{"name":"","type":"bool","internalType":"bool"}],"stateMutability":"view"},{"type":"function","name":"renounceOwnership","inputs":[],"outputs":[],"stateMutability":"nonpayable"},{"type":"function","name":"symbol","inputs":[],"outputs":[{"name":"","type":"string","internalType":"string"}],"stateMutability":"view"},{"type":"function","name":"totalSupply","inputs":[],"outputs":[{"name":"","type":"uint256","internalType":"uint256"}],"stateMutability":"view"},{"type":"function","name":"transfer","inputs":[{"name":"to","type":"address","internalType":"address"},{"name":"value","type":"uint256","internalType":"uint256"}],"outputs":[{"name":"","type":"bool","internalType":"bool"}],"stateMutability":"nonpayable"},{"type":"function","name":"transferFrom","inputs":[{"name":"from","type":"address","internalType":"address"},{"name":"to","type":"address","internalType":"address"},{"name":"value","type":"uint256","internalType":"uint256"}],"outputs":[{"name":"","type":"bool","internalType":"bool"}],"stateMutability":"nonpayable"},{"type":"function","name":"transferOwnership","inputs":[{"name":"newOwner","type":"address","internalType":"address"}],"outputs":[],"stateMutability":"nonpayable"},{"type":"function","name":"unpause","inputs":[],"outputs":[],"stateMutability":"nonpayable"},{"type":"function","name":"updateTaxFeeRecipient","inputs":[{"name":"newTaxFeeRecipient","type":"address","internalType":"address"}],"outputs":[],"stateMutability":"nonpayable"},{"type":"event","name":"Approval","inputs":[{"name":"owner","type":"address","indexed":true,"internalType":"address"},{"name":"spender","type":"address","indexed":true,"internalType":"address"},{"name":"value","type":"uint256","indexed":false,"internalType":"uint256"}],"anonymous":false},{"type":"event","name":"OwnershipTransferred","inputs":[{"name":"previousOwner","type":"address","indexed":true,"internalType":"address"},{"name":"newOwner","type":"address","indexed":true,"internalType":"address"}],"anonymous":false},{"type":"event","name":"Paused","inputs":[{"name":"account","type":"address","indexed":false,"internalType":"address"}],"anonymous":false},{"type":"event","name":"TaxFeeRecipientUpdated","inputs":[{"name":"newTaxFeeRecipient","type":"address","indexed":false,"internalType":"address"}],"anonymous":false},{"type":"event","name":"Transfer","inputs":[{"name":"from","type":"address","indexed":true,"internalType":"address"},{"name":"to","type":"address","indexed":true,"internalType":"address"},{"name":"value","type":"uint256","indexed":false,"internalType":"uint256"}],"anonymous":false},{"type":"event","name":"Unpaused","inputs":[{"name":"account","type":"address","indexed":false,"internalType":"address"}],"anonymous":false},{"type":"error","name":"ERC20InsufficientAllowance","inputs":[{"name":"spender","type":"address","internalType":"address"},{"name":"allowance","type":"uint256","internalType":"uint256"},{"name":"needed","type":"uint256","internalType":"uint256"}]},{"type":"error","name":"ERC20InsufficientBalance","inputs":[{"name":"sender","type":"address","internalType":"address"},{"name":"balance","type":"uint256","internalType":"uint256"},{"name":"needed","type":"uint256","internalType":"uint256"}]},{"type":"error","name":"ERC20InvalidApprover","inputs":[{"name":"approver","type":"address","internalType":"address"}]},{"type":"error","name":"ERC20InvalidReceiver","inputs":[{"name":"receiver","type":"address","internalType":"address"}]},{"type":"error","name":"ERC20InvalidSender","inputs":[{"name":"sender","type":"address","internalType":"address"}]},{"type":"error","name":"ERC20InvalidSpender","inputs":[{"name":"spender","type":"address","internalType":"address"}]},{"type":"error","name":"EnforcedPause","inputs":[]},{"type":"error","name":"ExpectedPause","inputs":[]},{"type":"error","name":"OwnableInvalidOwner","inputs":[{"name":"owner","type":"address","internalType":"address"}]},{"type":"error","name":"OwnableUnauthorizedAccount","inputs":[{"name":"account","type":"address","internalType":"address"}]}],"bytecode":{"object":"0x6080604052604051612a70380380612a7083398181016040528101906100259190610900565b335f73ffffffffffffffffffffffffffffffffffffffff168173ffffffffffffffffffffffffffffffffffffffff1603610096575f6040517f1e4fbdf700000000000000000000000000000000000000000000000000000000815260040161008d91906109f8565b60405180910390fd5b6100a5816102e860201b60201c565b505f5f60146101000a81548160ff02191690831515021790555087600490816100ce9190610c18565b5086600590816100de9190610c18565b508560065f6101000a81548160ff021916908360ff160217905550816007819055508060085f6101000a81548173ffffffffffffffffffffffffffffffffffffffff021916908373ffffffffffffffffffffffffffffffffffffffff16021790555082341015610183576040517f08c379a000000000000000000000000000000000000000000000000000000000815260040161017a90610d41565b60405180910390fd5b5f73ffffffffffffffffffffffffffffffffffffffff168473ffffffffffffffffffffffffffffffffffffffff16036101f1576040517f08c379a00000000000000000000000000000000000000000000000000000000081526004016101e890610da9565b60405180910390fd5b5f8473ffffffffffffffffffffffffffffffffffffffff168460405161021690610df4565b5f6040518083038185875af1925050503d805f8114610250576040519150601f19603f3d011682016040523d82523d5f602084013e610255565b606091505b5050905080610299576040517f08c379a000000000000000000000000000000000000000000000000000000000815260040161029090610e52565b60405180910390fd5b6102da6102aa6103a960201b60201c565b6102b86103d060201b60201c565b600a6102c49190610fcc565b886102cf9190611016565b6103e560201b60201c565b5050505050505050506110e7565b5f5f5f9054906101000a900473ffffffffffffffffffffffffffffffffffffffff169050815f5f6101000a81548173ffffffffffffffffffffffffffffffffffffffff021916908373ffffffffffffffffffffffffffffffffffffffff1602179055508173ffffffffffffffffffffffffffffffffffffffff168173ffffffffffffffffffffffffffffffffffffffff167f8be0079c531659141344cd1fd0a4f28419497f9722a3daafe3b4186f6b6457e060405160405180910390a35050565b5f5f5f9054906101000a900473ffffffffffffffffffffffffffffffffffffffff16905090565b5f60065f9054906101000a900460ff16905090565b5f73ffffffffffffffffffffffffffffffffffffffff168273ffffffffffffffffffffffffffffffffffffffff1603610455575f6040517fec442f0500000000000000000000000000000000000000000000000000000000815260040161044c91906109f8565b60405180910390fd5b6104665f838361046a60201b60201c565b5050565b61047861069460201b60201c565b5f73ffffffffffffffffffffffffffffffffffffffff168373ffffffffffffffffffffffffffffffffffffffff16036104c8578060035f8282546104bc9190611057565b92505081905550610598565b5f60015f8573ffffffffffffffffffffffffffffffffffffffff1673ffffffffffffffffffffffffffffffffffffffff1681526020019081526020015f2054905081811015610552578381836040517fe450d38c00000000000000000000000000000000000000000000000000000000815260040161054993929190611099565b60405180910390fd5b81810360015f8673ffffffffffffffffffffffffffffffffffffffff1673ffffffffffffffffffffffffffffffffffffffff1681526020019081526020015f2081905550505b5f73ffffffffffffffffffffffffffffffffffffffff168273ffffffffffffffffffffffffffffffffffffffff16036105df578060035f828254039250508190555061062a565b8060015f8473ffffffffffffffffffffffffffffffffffffffff1673ffffffffffffffffffffffffffffffffffffffff1681526020019081526020015f205f82825401925050819055505b8173ffffffffffffffffffffffffffffffffffffffff168373ffffffffffffffffffffffffffffffffffffffff167fddf252ad1be2c89b69c2b068fc378daa952ba7f163c4a11628f55a4df523b3ef8360405161068791906110ce565b60405180910390a3505050565b6106a26106db60201b60201c565b156106d9576040517fd93c066500000000000000000000000000000000000000000000000000000000815260040160405180910390fd5b565b5f5f60149054906101000a900460ff16905090565b5f604051905090565b5f5ffd5b5f5ffd5b5f5ffd5b5f5ffd5b5f601f19601f8301169050919050565b7f4e487b71000000000000000000000000000000000000000000000000000000005f52604160045260245ffd5b61074f82610709565b810181811067ffffffffffffffff8211171561076e5761076d610719565b5b80604052505050565b5f6107806106f0565b905061078c8282610746565b919050565b5f67ffffffffffffffff8211156107ab576107aa610719565b5b6107b482610709565b9050602081019050919050565b8281835e5f83830152505050565b5f6107e16107dc84610791565b610777565b9050828152602081018484840111156107fd576107fc610705565b5b6108088482856107c1565b509392505050565b5f82601f83011261082457610823610701565b5b81516108348482602086016107cf565b91505092915050565b5f60ff82169050919050565b6108528161083d565b811461085c575f5ffd5b50565b5f8151905061086d81610849565b92915050565b5f819050919050565b61088581610873565b811461088f575f5ffd5b50565b5f815190506108a08161087c565b92915050565b5f73ffffffffffffffffffffffffffffffffffffffff82169050919050565b5f6108cf826108a6565b9050919050565b6108df816108c5565b81146108e9575f5ffd5b50565b5f815190506108fa816108d6565b92915050565b5f5f5f5f5f5f5f5f610100898b03121561091d5761091c6106f9565b5b5f89015167ffffffffffffffff81111561093a576109396106fd565b5b6109468b828c01610810565b985050602089015167ffffffffffffffff811115610967576109666106fd565b5b6109738b828c01610810565b97505060406109848b828c0161085f565b96505060606109958b828c01610892565b95505060806109a68b828c016108ec565b94505060a06109b78b828c01610892565b93505060c06109c88b828c01610892565b92505060e06109d98b828c016108ec565b9150509295985092959890939650565b6109f2816108c5565b82525050565b5f602082019050610a0b5f8301846109e9565b92915050565b5f81519050919050565b7f4e487b71000000000000000000000000000000000000000000000000000000005f52602260045260245ffd5b5f6002820490506001821680610a5f57607f821691505b602082108103610a7257610a71610a1b565b5b50919050565b5f819050815f5260205f209050919050565b5f6020601f8301049050919050565b5f82821b905092915050565b5f60088302610ad47fffffffffffffffffffffffffffffffffffffffffffffffffffffffffffffffff82610a99565b610ade8683610a99565b95508019841693508086168417925050509392505050565b5f819050919050565b5f610b19610b14610b0f84610873565b610af6565b610873565b9050919050565b5f819050919050565b610b3283610aff565b610b46610b3e82610b20565b848454610aa5565b825550505050565b5f5f905090565b610b5d610b4e565b610b68818484610b29565b505050565b5b81811015610b8b57610b805f82610b55565b600181019050610b6e565b5050565b601f821115610bd057610ba181610a78565b610baa84610a8a565b81016020851015610bb9578190505b610bcd610bc585610a8a565b830182610b6d565b50505b505050565b5f82821c905092915050565b5f610bf05f1984600802610bd5565b1980831691505092915050565b5f610c088383610be1565b9150826002028217905092915050565b610c2182610a11565b67ffffffffffffffff811115610c3a57610c39610719565b5b610c448254610a48565b610c4f828285610b8f565b5f60209050601f831160018114610c80575f8415610c6e578287015190505b610c788582610bfd565b865550610cdf565b601f198416610c8e86610a78565b5f5b82811015610cb557848901518255600182019150602085019450602081019050610c90565b86831015610cd25784890151610cce601f891682610be1565b8355505b6001600288020188555050505b505050505050565b5f82825260208201905092915050565b7f496e73756666696369656e742066656520616d6f756e742073656e74000000005f82015250565b5f610d2b601c83610ce7565b9150610d3682610cf7565b602082019050919050565b5f6020820190508181035f830152610d5881610d1f565b9050919050565b7f496e76616c6964206665652072656365697665722061646472657373000000005f82015250565b5f610d93601c83610ce7565b9150610d9e82610d5f565b602082019050919050565b5f6020820190508181035f830152610dc081610d87565b9050919050565b5f81905092915050565b50565b5f610ddf5f83610dc7565b9150610dea82610dd1565b5f82019050919050565b5f610dfe82610dd4565b9150819050919050565b7f466565207472616e73666572206661696c6564000000000000000000000000005f82015250565b5f610e3c601383610ce7565b9150610e4782610e08565b602082019050919050565b5f6020820190508181035f830152610e6981610e30565b9050919050565b7f4e487b71000000000000000000000000000000000000000000000000000000005f52601160045260245ffd5b5f8160011c9050919050565b5f5f8291508390505b6001851115610ef257808604811115610ece57610ecd610e70565b5b6001851615610edd5780820291505b8081029050610eeb85610e9d565b9450610eb2565b94509492505050565b5f82610f0a5760019050610fc5565b81610f17575f9050610fc5565b8160018114610f2d5760028114610f3757610f66565b6001915050610fc5565b60ff841115610f4957610f48610e70565b5b8360020a915084821115610f6057610f5f610e70565b5b50610fc5565b5060208310610133831016604e8410600b8410161715610f9b5782820a905083811115610f9657610f95610e70565b5b610fc5565b610fa88484846001610ea9565b92509050818404811115610fbf57610fbe610e70565b5b81810290505b9392505050565b5f610fd682610873565b9150610fe18361083d565b925061100e7fffffffffffffffffffffffffffffffffffffffffffffffffffffffffffffffff8484610efb565b905092915050565b5f61102082610873565b915061102b83610873565b925082820261103981610873565b915082820484148315176110505761104f610e70565b5b5092915050565b5f61106182610873565b915061106c83610873565b925082820190508082111561108457611083610e70565b5b92915050565b61109381610873565b82525050565b5f6060820190506110ac5f8301866109e9565b6110b9602083018561108a565b6110c6604083018461108a565b949350505050565b5f6020820190506110e15f83018461108a565b92915050565b61197c806110f45f395ff3fe608060405234801561000f575f5ffd5b5060043610610135575f3560e01c806370a08231116100b65780638baace251161007a5780638baace25146102ef5780638da5cb5b1461030b57806395d89b4114610329578063a9059cbb14610347578063dd62ed3e14610377578063f2fde38b146103a757610135565b806370a0823114610271578063715018a6146102a1578063743bfe70146102ab57806379cc6790146102c95780638456cb59146102e557610135565b8063313ce567116100fd578063313ce567146101f35780633f4ba83a1461021157806340c10f191461021b57806342966c68146102375780635c975abb1461025357610135565b806303073dfc1461013957806306fdde0314610157578063095ea7b31461017557806318160ddd146101a557806323b872dd146101c3575b5f5ffd5b6101416103c3565b60405161014e91906114c8565b60405180910390f35b61015f6103eb565b60405161016c9190611551565b60405180910390f35b61018f600480360381019061018a91906115d2565b61047b565b60405161019c919061162a565b60405180910390f35b6101ad61049d565b6040516101ba9190611652565b60405180910390f35b6101dd60048036038101906101d8919061166b565b6104a6565b6040516101ea919061162a565b60405180910390f35b6101fb6104d4565b60405161020891906116d6565b60405180910390f35b6102196104e9565b005b610235600480360381019061023091906115d2565b6104fb565b005b610251600480360381019061024c91906116ef565b610511565b005b61025b610525565b604051610268919061162a565b60405180910390f35b61028b6004803603810190610286919061171a565b61053a565b6040516102989190611652565b60405180910390f35b6102a9610580565b005b6102b3610593565b6040516102c09190611652565b60405180910390f35b6102e360048036038101906102de91906115d2565b61059c565b005b6102ed6105bc565b005b6103096004803603810190610304919061171a565b6105ce565b005b610313610650565b60405161032091906114c8565b60405180910390f35b610331610677565b60405161033e9190611551565b60405180910390f35b610361600480360381019061035c91906115d2565b610707565b60405161036e919061162a565b60405180910390f35b610391600480360381019061038c9190611745565b610a6a565b60405161039e9190611652565b60405180910390f35b6103c160048036038101906103bc919061171a565b610aec565b005b5f60085f9054906101000a900473ffffffffffffffffffffffffffffffffffffffff16905090565b6060600480546103fa906117b0565b80601f0160208091040260200160405190810160405280929190818152602001828054610426906117b0565b80156104715780601f1061044857610100808354040283529160200191610471565b820191905f5260205f20905b81548152906001019060200180831161045457829003601f168201915b5050505050905090565b5f5f610485610b70565b9050610492818585610b77565b600191505092915050565b5f600354905090565b5f5f6104b0610b70565b90506104bd858285610b89565b6104c8858585610c1c565b60019150509392505050565b5f60065f9054906101000a900460ff16905090565b6104f1610d0c565b6104f9610d93565b565b610503610d0c565b61050d8282610df4565b5050565b61052261051c610b70565b82610e73565b50565b5f5f60149054906101000a900460ff16905090565b5f60015f8373ffffffffffffffffffffffffffffffffffffffff1673ffffffffffffffffffffffffffffffffffffffff1681526020019081526020015f20549050919050565b610588610d0c565b6105915f610ef2565b565b5f600754905090565b6105ae826105a8610b70565b83610b89565b6105b88282610e73565b5050565b6105c4610d0c565b6105cc610fb3565b565b6105d6610d0c565b8060085f6101000a81548173ffffffffffffffffffffffffffffffffffffffff021916908373ffffffffffffffffffffffffffffffffffffffff1602179055507f3ca9233bd3849737ab1049144180bc625db2d51ca2c5ce949e7209eb32faa3a28160405161064591906114c8565b60405180910390a150565b5f5f5f9054906101000a900473ffffffffffffffffffffffffffffffffffffffff16905090565b606060058054610686906117b0565b80601f01602080910402602001604051908101604052809291908181526020018280546106b2906117b0565b80156106fd5780601f106106d4576101008083540402835291602001916106fd565b820191905f5260205f20905b8154815290600101906020018083116106e057829003601f168201915b5050505050905090565b5f5f610711610b70565b90505f61271060075485610725919061180d565b61072f919061187b565b90505f818561073e91906118ab565b90508460015f8573ffffffffffffffffffffffffffffffffffffffff1673ffffffffffffffffffffffffffffffffffffffff1681526020019081526020015f20541015610803578260015f8573ffffffffffffffffffffffffffffffffffffffff1673ffffffffffffffffffffffffffffffffffffffff1681526020019081526020015f2054866040517fe450d38c0000000000000000000000000000000000000000000000000000000081526004016107fa939291906118de565b60405180910390fd5b8460015f8573ffffffffffffffffffffffffffffffffffffffff1673ffffffffffffffffffffffffffffffffffffffff1681526020019081526020015f205f82825461084f91906118ab565b925050819055508060015f8873ffffffffffffffffffffffffffffffffffffffff1673ffffffffffffffffffffffffffffffffffffffff1681526020019081526020015f205f8282546108a29190611913565b925050819055505f73ffffffffffffffffffffffffffffffffffffffff1660085f9054906101000a900473ffffffffffffffffffffffffffffffffffffffff1673ffffffffffffffffffffffffffffffffffffffff1614610972578160015f60085f9054906101000a900473ffffffffffffffffffffffffffffffffffffffff1673ffffffffffffffffffffffffffffffffffffffff1673ffffffffffffffffffffffffffffffffffffffff1681526020019081526020015f205f82825461096a9190611913565b925050819055505b8573ffffffffffffffffffffffffffffffffffffffff168373ffffffffffffffffffffffffffffffffffffffff167fddf252ad1be2c89b69c2b068fc378daa952ba7f163c4a11628f55a4df523b3ef836040516109cf9190611652565b60405180910390a360085f9054906101000a900473ffffffffffffffffffffffffffffffffffffffff1673ffffffffffffffffffffffffffffffffffffffff168373ffffffffffffffffffffffffffffffffffffffff167fddf252ad1be2c89b69c2b068fc378daa952ba7f163c4a11628f55a4df523b3ef84604051610a559190611652565b60405180910390a36001935050505092915050565b5f60025f8473ffffffffffffffffffffffffffffffffffffffff1673ffffffffffffffffffffffffffffffffffffffff1681526020019081526020015f205f8373ffffffffffffffffffffffffffffffffffffffff1673ffffffffffffffffffffffffffffffffffffffff1681526020019081526020015f2054905092915050565b610af4610d0c565b5f73ffffffffffffffffffffffffffffffffffffffff168173ffffffffffffffffffffffffffffffffffffffff1603610b64575f6040517f1e4fbdf7000000000000000000000000000000000000000000000000000000008152600401610b5b91906114c8565b60405180910390fd5b610b6d81610ef2565b50565b5f33905090565b610b848383836001611015565b505050565b5f610b948484610a6a565b90507fffffffffffffffffffffffffffffffffffffffffffffffffffffffffffffffff811015610c165781811015610c07578281836040517ffb8f41b2000000000000000000000000000000000000000000000000000000008152600401610bfe939291906118de565b60405180910390fd5b610c1584848484035f611015565b5b50505050565b5f73ffffffffffffffffffffffffffffffffffffffff168373ffffffffffffffffffffffffffffffffffffffff1603610c8c575f6040517f96c6fd1e000000000000000000000000000000000000000000000000000000008152600401610c8391906114c8565b60405180910390fd5b5f73ffffffffffffffffffffffffffffffffffffffff168273ffffffffffffffffffffffffffffffffffffffff1603610cfc575f6040517fec442f05000000000000000000000000000000000000000000000000000000008152600401610cf391906114c8565b60405180910390fd5b610d078383836111e4565b505050565b610d14610b70565b73ffffffffffffffffffffffffffffffffffffffff16610d32610650565b73ffffffffffffffffffffffffffffffffffffffff1614610d9157610d55610b70565b6040517f118cdaa7000000000000000000000000000000000000000000000000000000008152600401610d8891906114c8565b60405180910390fd5b565b610d9b611408565b5f5f60146101000a81548160ff0219169083151502179055507f5db9ee0a495bf2e6ff9c91a7834c1ba4fdd244a5e8aa4e537bd38aeae4b073aa610ddd610b70565b604051610dea91906114c8565b60405180910390a1565b5f73ffffffffffffffffffffffffffffffffffffffff168273ffffffffffffffffffffffffffffffffffffffff1603610e64575f6040517fec442f05000000000000000000000000000000000000000000000000000000008152600401610e5b91906114c8565b60405180910390fd5b610e6f5f83836111e4565b5050565b5f73ffffffffffffffffffffffffffffffffffffffff168273ffffffffffffffffffffffffffffffffffffffff1603610ee3575f6040517f96c6fd1e000000000000000000000000000000000000000000000000000000008152600401610eda91906114c8565b60405180910390fd5b610eee825f836111e4565b5050565b5f5f5f9054906101000a900473ffffffffffffffffffffffffffffffffffffffff169050815f5f6101000a81548173ffffffffffffffffffffffffffffffffffffffff021916908373ffffffffffffffffffffffffffffffffffffffff1602179055508173ffffffffffffffffffffffffffffffffffffffff168173ffffffffffffffffffffffffffffffffffffffff167f8be0079c531659141344cd1fd0a4f28419497f9722a3daafe3b4186f6b6457e060405160405180910390a35050565b610fbb611448565b60015f60146101000a81548160ff0219169083151502179055507f62e78cea01bee320cd4e420270b5ea74000d11b0c9f74754ebdbfc544b05a258610ffe610b70565b60405161100b91906114c8565b60405180910390a1565b5f73ffffffffffffffffffffffffffffffffffffffff168473ffffffffffffffffffffffffffffffffffffffff1603611085575f6040517fe602df0500000000000000000000000000000000000000000000000000000000815260040161107c91906114c8565b60405180910390fd5b5f73ffffffffffffffffffffffffffffffffffffffff168373ffffffffffffffffffffffffffffffffffffffff16036110f5575f6040517f94280d620000000000000000000000000000000000000000000000000000000081526004016110ec91906114c8565b60405180910390fd5b8160025f8673ffffffffffffffffffffffffffffffffffffffff1673ffffffffffffffffffffffffffffffffffffffff1681526020019081526020015f205f8573ffffffffffffffffffffffffffffffffffffffff1673ffffffffffffffffffffffffffffffffffffffff1681526020019081526020015f208190555080156111de578273ffffffffffffffffffffffffffffffffffffffff168473ffffffffffffffffffffffffffffffffffffffff167f8c5be1e5ebec7d5bd14f71427d1e84f3dd0314c0f7b2291e5b200ac8c7c3b925846040516111d59190611652565b60405180910390a35b50505050565b6111ec611448565b5f73ffffffffffffffffffffffffffffffffffffffff168373ffffffffffffffffffffffffffffffffffffffff160361123c578060035f8282546112309190611913565b9250508190555061130c565b5f60015f8573ffffffffffffffffffffffffffffffffffffffff1673ffffffffffffffffffffffffffffffffffffffff1681526020019081526020015f20549050818110156112c6578381836040517fe450d38c0000000000000000000000000000000000000000000000000000000081526004016112bd939291906118de565b60405180910390fd5b81810360015f8673ffffffffffffffffffffffffffffffffffffffff1673ffffffffffffffffffffffffffffffffffffffff1681526020019081526020015f2081905550505b5f73ffffffffffffffffffffffffffffffffffffffff168273ffffffffffffffffffffffffffffffffffffffff1603611353578060035f828254039250508190555061139e565b8060015f8473ffffffffffffffffffffffffffffffffffffffff1673ffffffffffffffffffffffffffffffffffffffff1681526020019081526020015f205f82825401925050819055505b8173ffffffffffffffffffffffffffffffffffffffff168373ffffffffffffffffffffffffffffffffffffffff167fddf252ad1be2c89b69c2b068fc378daa952ba7f163c4a11628f55a4df523b3ef836040516113fb9190611652565b60405180910390a3505050565b611410610525565b611446576040517f8dfc202b00000000000000000000000000000000000000000000000000000000815260040160405180910390fd5b565b611450610525565b15611487576040517fd93c066500000000000000000000000000000000000000000000000000000000815260040160405180910390fd5b565b5f73ffffffffffffffffffffffffffffffffffffffff82169050919050565b5f6114b282611489565b9050919050565b6114c2816114a8565b82525050565b5f6020820190506114db5f8301846114b9565b92915050565b5f81519050919050565b5f82825260208201905092915050565b8281835e5f83830152505050565b5f601f19601f8301169050919050565b5f611523826114e1565b61152d81856114eb565b935061153d8185602086016114fb565b61154681611509565b840191505092915050565b5f6020820190508181035f8301526115698184611519565b905092915050565b5f5ffd5b61157e816114a8565b8114611588575f5ffd5b50565b5f8135905061159981611575565b92915050565b5f819050919050565b6115b18161159f565b81146115bb575f5ffd5b50565b5f813590506115cc816115a8565b92915050565b5f5f604083850312156115e8576115e7611571565b5b5f6115f58582860161158b565b9250506020611606858286016115be565b9150509250929050565b5f8115159050919050565b61162481611610565b82525050565b5f60208201905061163d5f83018461161b565b92915050565b61164c8161159f565b82525050565b5f6020820190506116655f830184611643565b92915050565b5f5f5f6060848603121561168257611681611571565b5b5f61168f8682870161158b565b93505060206116a08682870161158b565b92505060406116b1868287016115be565b9150509250925092565b5f60ff82169050919050565b6116d0816116bb565b82525050565b5f6020820190506116e95f8301846116c7565b92915050565b5f6020828403121561170457611703611571565b5b5f611711848285016115be565b91505092915050565b5f6020828403121561172f5761172e611571565b5b5f61173c8482850161158b565b91505092915050565b5f5f6040838503121561175b5761175a611571565b5b5f6117688582860161158b565b92505060206117798582860161158b565b9150509250929050565b7f4e487b71000000000000000000000000000000000000000000000000000000005f52602260045260245ffd5b5f60028204905060018216806117c757607f821691505b6020821081036117da576117d9611783565b5b50919050565b7f4e487b71000000000000000000000000000000000000000000000000000000005f52601160045260245ffd5b5f6118178261159f565b91506118228361159f565b92508282026118308161159f565b91508282048414831517611847576118466117e0565b5b5092915050565b7f4e487b71000000000000000000000000000000000000000000000000000000005f52601260045260245ffd5b5f6118858261159f565b91506118908361159f565b9250826118a05761189f61184e565b5b828204905092915050565b5f6118b58261159f565b91506118c08361159f565b92508282039050818111156118d8576118d76117e0565b5b92915050565b5f6060820190506118f15f8301866114b9565b6118fe6020830185611643565b61190b6040830184611643565b949350505050565b5f61191d8261159f565b91506119288361159f565b92508282019050808211156119405761193f6117e0565b5b9291505056fea264697066735822122046ff1354ee47f59ebbdba6d8301d8c646ad5698f87bf7c06857a0068ed4f1e3864736f6c634300081c0033","linkReferences":{}},"methodIdentifiers":{"allowance(address,address)":"dd62ed3e","approve(address,uint256)":"095ea7b3","balanceOf(address)":"70a08231","burn(uint256)":"42966c68","burnFrom(address,uint256)":"79cc6790","decimals()":"313ce567","getTaxFeeRecipient()":"03073dfc","getTransferTaxBps()":"743bfe70","mint(address,uint256)":"40c10f19","name()":"06fdde03","owner()":"8da5cb5b","pause()":"8456cb59","paused()":"5c975abb","renounceOwnership()":"715018a6","symbol()":"95d89b41","totalSupply()":"18160ddd","transfer(address,uint256)":"a9059cbb","transferFrom(address,address,uint256)":"23b872dd","transferOwnership(address)":"f2fde38b","unpause()":"3f4ba83a","updateTaxFeeRecipient(address)":"8baace25"},"id":39}