{
    "abi": [
        {
            "inputs": [
                {
                    "internalType": "string",
                    "name": "name_",
                    "type": "string"
                },
                {
                    "internalType": "string",
                    "name": "symbol_",
                    "type": "string"
                },
                {
                    "internalType": "uint8",
                    "name": "decimals_",
                    "type": "uint8"
                },
                {
                    "internalType": "uint256",
                    "name": "totalSupply_",
                    "type": "uint256"
                },
                {
                    "internalType": "address",
                    "name": "serviceFeeReceiver_",
                    "type": "address"
                },
                {
                    "internalType": "uint256",
                    "name": "serviceFee_",
                    "type": "uint256"
                }
            ],
            "stateMutability": "payable",
            "type": "constructor"
        },
        {
            "inputs": [
                {
                    "internalType": "address",
                    "name": "spender",
                    "type": "address"
                },
                {
                    "internalType": "uint256",
                    "name": "allowance",
                    "type": "uint256"
                },
                {
                    "internalType": "uint256",
                    "name": "needed",
                    "type": "uint256"
                }
            ],
            "name": "ERC20InsufficientAllowance",
            "type": "error"
        },
        {
            "inputs": [
                {
                    "internalType": "address",
                    "name": "sender",
                    "type": "address"
                },
                {
                    "internalType": "uint256",
                    "name": "balance",
                    "type": "uint256"
                },
                {
                    "internalType": "uint256",
                    "name": "needed",
                    "type": "uint256"
                }
            ],
            "name": "ERC20InsufficientBalance",
            "type": "error"
        },
        {
            "inputs": [
                {
                    "internalType": "address",
                    "name": "approver",
                    "type": "address"
                }
            ],
            "name": "ERC20InvalidApprover",
            "type": "error"
        },
        {
            "inputs": [
                {
                    "internalType": "address",
                    "name": "receiver",
                    "type": "address"
                }
            ],
            "name": "ERC20InvalidReceiver",
            "type": "error"
        },
        {
            "inputs": [
                {
                    "internalType": "address",
                    "name": "sender",
                    "type": "address"
                }
            ],
            "name": "ERC20InvalidSender",
            "type": "error"
        },
        {
            "inputs": [
                {
                    "internalType": "address",
                    "name": "spender",
                    "type": "address"
                }
            ],
            "name": "ERC20InvalidSpender",
            "type": "error"
        },
        {
            "inputs": [],
            "name": "EnforcedPause",
            "type": "error"
        },
        {
            "inputs": [],
            "name": "ExpectedPause",
            "type": "error"
        },
        {
            "inputs": [
                {
                    "internalType": "address",
                    "name": "owner",
                    "type": "address"
                }
            ],
            "name": "OwnableInvalidOwner",
            "type": "error"
        },
        {
            "inputs": [
                {
                    "internalType": "address",
                    "name": "account",
                    "type": "address"
                }
            ],
            "name": "OwnableUnauthorizedAccount",
            "type": "error"
        },
        {
            "anonymous": false,
            "inputs": [
                {
                    "indexed": true,
                    "internalType": "address",
                    "name": "owner",
                    "type": "address"
                },
                {
                    "indexed": true,
                    "internalType": "address",
                    "name": "spender",
                    "type": "address"
                },
                {
                    "indexed": false,
                    "internalType": "uint256",
                    "name": "value",
                    "type": "uint256"
                }
            ],
            "name": "Approval",
            "type": "event"
        },
        {
            "anonymous": false,
            "inputs": [
                {
                    "indexed": true,
                    "internalType": "address",
                    "name": "previousOwner",
                    "type": "address"
                },
                {
                    "indexed": true,
                    "internalType": "address",
                    "name": "newOwner",
                    "type": "address"
                }
            ],
            "name": "OwnershipTransferred",
            "type": "event"
        },
        {
            "anonymous": false,
            "inputs": [
                {
                    "indexed": false,
                    "internalType": "address",
                    "name": "account",
                    "type": "address"
                }
            ],
            "name": "Paused",
            "type": "event"
        },
        {
            "anonymous": false,
            "inputs": [
                {
                    "indexed": true,
                    "internalType": "address",
                    "name": "from",
                    "type": "address"
                },
                {
                    "indexed": true,
                    "internalType": "address",
                    "name": "to",
                    "type": "address"
                },
                {
                    "indexed": false,
                    "internalType": "uint256",
                    "name": "value",
                    "type": "uint256"
                }
            ],
            "name": "Transfer",
            "type": "event"
        },
        {
            "anonymous": false,
            "inputs": [
                {
                    "indexed": false,
                    "internalType": "address",
                    "name": "account",
                    "type": "address"
                }
            ],
            "name": "Unpaused",
            "type": "event"
        },
        {
            "inputs": [
                {
                    "internalType": "address",
                    "name": "owner",
                    "type": "address"
                },
                {
                    "internalType": "address",
                    "name": "spender",
                    "type": "address"
                }
            ],
            "name": "allowance",
            "outputs": [
                {
                    "internalType": "uint256",
                    "name": "",
                    "type": "uint256"
                }
            ],
            "stateMutability": "view",
            "type": "function"
        },
        {
            "inputs": [
                {
                    "internalType": "address",
                    "name": "spender",
                    "type": "address"
                },
                {
                    "internalType": "uint256",
                    "name": "value",
                    "type": "uint256"
                }
            ],
            "name": "approve",
            "outputs": [
                {
                    "internalType": "bool",
                    "name": "",
                    "type": "bool"
                }
            ],
            "stateMutability": "nonpayable",
            "type": "function"
        },
        {
            "inputs": [
                {
                    "internalType": "address",
                    "name": "account",
                    "type": "address"
                }
            ],
            "name": "balanceOf",
            "outputs": [
                {
                    "internalType": "uint256",
                    "name": "",
                    "type": "uint256"
                }
            ],
            "stateMutability": "view",
            "type": "function"
        },
        {
            "inputs": [],
            "name": "decimals",
            "outputs": [
                {
                    "internalType": "uint8",
                    "name": "",
                    "type": "uint8"
                }
            ],
            "stateMutability": "view",
            "type": "function"
        },
        {
            "inputs": [
                {
                    "internalType": "address",
                    "name": "to",
                    "type": "address"
                },
                {
                    "internalType": "uint256",
                    "name": "amount",
                    "type": "uint256"
                }
            ],
            "name": "mint",
            "outputs": [],
            "stateMutability": "nonpayable",
            "type": "function"
        },
        {
            "inputs": [],
            "name": "name",
            "outputs": [
                {
                    "internalType": "string",
                    "name": "",
                    "type": "string"
                }
            ],
            "stateMutability": "view",
            "type": "function"
        },
        {
            "inputs": [],
            "name": "owner",
            "outputs": [
                {
                    "internalType": "address",
                    "name": "",
                    "type": "address"
                }
            ],
            "stateMutability": "view",
            "type": "function"
        },
        {
            "inputs": [],
            "name": "pause",
            "outputs": [],
            "stateMutability": "nonpayable",
            "type": "function"
        },
        {
            "inputs": [],
            "name": "paused",
            "outputs": [
                {
                    "internalType": "bool",
                    "name": "",
                    "type": "bool"
                }
            ],
            "stateMutability": "view",
            "type": "function"
        },
        {
            "inputs": [],
            "name": "renounceOwnership",
            "outputs": [],
            "stateMutability": "nonpayable",
            "type": "function"
        },
        {
            "inputs": [],
            "name": "symbol",
            "outputs": [
                {
                    "internalType": "string",
                    "name": "",
                    "type": "string"
                }
            ],
            "stateMutability": "view",
            "type": "function"
        },
        {
            "inputs": [],
            "name": "totalSupply",
            "outputs": [
                {
                    "internalType": "uint256",
                    "name": "",
                    "type": "uint256"
                }
            ],
            "stateMutability": "view",
            "type": "function"
        },
        {
            "inputs": [
                {
                    "internalType": "address",
                    "name": "to",
                    "type": "address"
                },
                {
                    "internalType": "uint256",
                    "name": "value",
                    "type": "uint256"
                }
            ],
            "name": "transfer",
            "outputs": [
                {
                    "internalType": "bool",
                    "name": "",
                    "type": "bool"
                }
            ],
            "stateMutability": "nonpayable",
            "type": "function"
        },
        {
            "inputs": [
                {
                    "internalType": "address",
                    "name": "from",
                    "type": "address"
                },
                {
                    "internalType": "address",
                    "name": "to",
                    "type": "address"
                },
                {
                    "internalType": "uint256",
                    "name": "value",
                    "type": "uint256"
                }
            ],
            "name": "transferFrom",
            "outputs": [
                {
                    "internalType": "bool",
                    "name": "",
                    "type": "bool"
                }
            ],
            "stateMutability": "nonpayable",
            "type": "function"
        },
        {
            "inputs": [
                {
                    "internalType": "address",
                    "name": "newOwner",
                    "type": "address"
                }
            ],
            "name": "transferOwnership",
            "outputs": [],
            "stateMutability": "nonpayable",
            "type": "function"
        },
        {
            "inputs": [],
            "name": "unpause",
            "outputs": [],
            "stateMutability": "nonpayable",
            "type": "function"
        }
    ],
    "bytecode": {
        "object": "0x60806040526040516111a93803806111a983398101604081905261002291610490565b338061004857604051631e4fbdf760e01b81525f60048201526024015b60405180910390fd5b6100518161020c565b505f805460ff60a01b19169055600461006a87826105c4565b50600561007786826105c4565b506006805460ff191660ff8616179055348111156100d75760405162461bcd60e51b815260206004820152601c60248201527f496e73756666696369656e742066656520616d6f756e742073656e7400000000604482015260640161003f565b6001600160a01b03821661012d5760405162461bcd60e51b815260206004820152601c60248201527f496e76616c696420666565207265636569766572206164647265737300000000604482015260640161003f565b5f826001600160a01b0316826040515f6040518083038185875af1925050503d805f8114610176576040519150601f19603f3d011682016040523d82523d5f602084013e61017b565b606091505b50509050806101cc5760405162461bcd60e51b815260206004820152601360248201527f466565207472616e73666572206661696c656400000000000000000000000000604482015260640161003f565b6102006101e05f546001600160a01b031690565b60065460ff166101f190600a610777565b6101fb908761078c565b61025b565b505050505050506107b6565b5f80546001600160a01b038381166001600160a01b0319831681178455604051919092169283917f8be0079c531659141344cd1fd0a4f28419497f9722a3daafe3b4186f6b6457e09190a35050565b6001600160a01b0382166102845760405163ec442f0560e01b81525f600482015260240161003f565b61028f5f8383610293565b5050565b61029b6103c1565b6001600160a01b0383166102c5578060035f8282546102ba91906107a3565b909155506103359050565b6001600160a01b0383165f90815260016020526040902054818110156103175760405163391434e360e21b81526001600160a01b0385166004820152602481018290526044810183905260640161003f565b6001600160a01b0384165f9081526001602052604090209082900390555b6001600160a01b0382166103515760038054829003905561036f565b6001600160a01b0382165f9081526001602052604090208054820190555b816001600160a01b0316836001600160a01b03167fddf252ad1be2c89b69c2b068fc378daa952ba7f163c4a11628f55a4df523b3ef836040516103b491815260200190565b60405180910390a3505050565b6103d35f54600160a01b900460ff1690565b156103f15760405163d93c066560e01b815260040160405180910390fd5b565b634e487b7160e01b5f52604160045260245ffd5b5f82601f830112610416575f80fd5b81516001600160401b0381111561042f5761042f6103f3565b604051601f8201601f19908116603f011681016001600160401b038111828210171561045d5761045d6103f3565b604052818152838201602001851015610474575f80fd5b8160208501602083015e5f918101602001919091529392505050565b5f805f805f8060c087890312156104a5575f80fd5b86516001600160401b038111156104ba575f80fd5b6104c689828a01610407565b602089015190975090506001600160401b038111156104e3575f80fd5b6104ef89828a01610407565b955050604087015160ff81168114610505575f80fd5b6060880151608089015191955093506001600160a01b0381168114610528575f80fd5b60a09790970151959894975092959194919391925050565b600181811c9082168061055457607f821691505b60208210810361057257634e487b7160e01b5f52602260045260245ffd5b50919050565b601f8211156105bf57805f5260205f20601f840160051c8101602085101561059d5750805b601f840160051c820191505b818110156105bc575f81556001016105a9565b50505b505050565b81516001600160401b038111156105dd576105dd6103f3565b6105f1816105eb8454610540565b84610578565b6020601f821160018114610623575f831561060c5750848201515b5f19600385901b1c1916600184901b1784556105bc565b5f84815260208120601f198516915b828110156106525787850151825560209485019460019092019101610632565b508482101561066f57868401515f19600387901b60f8161c191681555b50505050600190811b01905550565b634e487b7160e01b5f52601160045260245ffd5b6001815b60018411156106cd578085048111156106b1576106b161067e565b60018416156106bf57908102905b60019390931c928002610696565b935093915050565b5f826106e357506001610771565b816106ef57505f610771565b8160018114610705576002811461070f5761072b565b6001915050610771565b60ff8411156107205761072061067e565b50506001821b610771565b5060208310610133831016604e8410600b841016171561074e575081810a610771565b61075a5f198484610692565b805f190482111561076d5761076d61067e565b0290505b92915050565b5f61078560ff8416836106d5565b9392505050565b80820281158282048414176107715761077161067e565b808201808211156107715761077161067e565b6109e6806107c35f395ff3fe608060405234801561000f575f80fd5b50600436106100fb575f3560e01c806370a082311161009357806395d89b411161006357806395d89b41146101fa578063a9059cbb14610202578063dd62ed3e14610215578063f2fde38b1461024d575f80fd5b806370a08231146101a8578063715018a6146101d05780638456cb59146101d85780638da5cb5b146101e0575f80fd5b8063313ce567116100ce578063313ce567146101655780633f4ba83a1461017a57806340c10f19146101845780635c975abb14610197575f80fd5b806306fdde03146100ff578063095ea7b31461011d57806318160ddd1461014057806323b872dd14610152575b5f80fd5b610107610260565b6040516101149190610856565b60405180910390f35b61013061012b3660046108a6565b6102f0565b6040519015158152602001610114565b6003545b604051908152602001610114565b6101306101603660046108ce565b610309565b60065460405160ff9091168152602001610114565b61018261032c565b005b6101826101923660046108a6565b61033e565b5f54600160a01b900460ff16610130565b6101446101b6366004610908565b6001600160a01b03165f9081526001602052604090205490565b610182610354565b610182610365565b5f546040516001600160a01b039091168152602001610114565b610107610375565b6101306102103660046108a6565b610384565b610144610223366004610928565b6001600160a01b039182165f90815260026020908152604080832093909416825291909152205490565b61018261025b366004610908565b610391565b60606004805461026f90610959565b80601f016020809104026020016040519081016040528092919081815260200182805461029b90610959565b80156102e65780601f106102bd576101008083540402835291602001916102e6565b820191905f5260205f20905b8154815290600101906020018083116102c957829003601f168201915b5050505050905090565b5f336102fd8185856103d3565b60019150505b92915050565b5f336103168582856103e5565b610321858585610461565b506001949350505050565b6103346104be565b61033c6104ea565b565b6103466104be565b610350828261053e565b5050565b61035c6104be565b61033c5f610572565b61036d6104be565b61033c6105c1565b60606005805461026f90610959565b5f336102fd818585610461565b6103996104be565b6001600160a01b0381166103c757604051631e4fbdf760e01b81525f60048201526024015b60405180910390fd5b6103d081610572565b50565b6103e08383836001610603565b505050565b6001600160a01b038381165f908152600260209081526040808320938616835292905220545f1981101561045b578181101561044d57604051637dc7a0d960e11b81526001600160a01b038416600482015260248101829052604481018390526064016103be565b61045b84848484035f610603565b50505050565b6001600160a01b03831661048a57604051634b637e8f60e11b81525f60048201526024016103be565b6001600160a01b0382166104b35760405163ec442f0560e01b81525f60048201526024016103be565b6103e08383836106d5565b5f546001600160a01b0316331461033c5760405163118cdaa760e01b81523360048201526024016103be565b6104f2610803565b5f805460ff60a01b191690557f5db9ee0a495bf2e6ff9c91a7834c1ba4fdd244a5e8aa4e537bd38aeae4b073aa335b6040516001600160a01b03909116815260200160405180910390a1565b6001600160a01b0382166105675760405163ec442f0560e01b81525f60048201526024016103be565b6103505f83836106d5565b5f80546001600160a01b038381166001600160a01b0319831681178455604051919092169283917f8be0079c531659141344cd1fd0a4f28419497f9722a3daafe3b4186f6b6457e09190a35050565b6105c961082c565b5f805460ff60a01b1916600160a01b1790557f62e78cea01bee320cd4e420270b5ea74000d11b0c9f74754ebdbfc544b05a2586105213390565b6001600160a01b03841661062c5760405163e602df0560e01b81525f60048201526024016103be565b6001600160a01b03831661065557604051634a1406b160e11b81525f60048201526024016103be565b6001600160a01b038085165f908152600260209081526040808320938716835292905220829055801561045b57826001600160a01b0316846001600160a01b03167f8c5be1e5ebec7d5bd14f71427d1e84f3dd0314c0f7b2291e5b200ac8c7c3b925846040516106c791815260200190565b60405180910390a350505050565b6106dd61082c565b6001600160a01b038316610707578060035f8282546106fc9190610991565b909155506107779050565b6001600160a01b0383165f90815260016020526040902054818110156107595760405163391434e360e21b81526001600160a01b038516600482015260248101829052604481018390526064016103be565b6001600160a01b0384165f9081526001602052604090209082900390555b6001600160a01b038216610793576003805482900390556107b1565b6001600160a01b0382165f9081526001602052604090208054820190555b816001600160a01b0316836001600160a01b03167fddf252ad1be2c89b69c2b068fc378daa952ba7f163c4a11628f55a4df523b3ef836040516107f691815260200190565b60405180910390a3505050565b5f54600160a01b900460ff1661033c57604051638dfc202b60e01b815260040160405180910390fd5b5f54600160a01b900460ff161561033c5760405163d93c066560e01b815260040160405180910390fd5b602081525f82518060208401528060208501604085015e5f604082850101526040601f19601f83011684010191505092915050565b80356001600160a01b03811681146108a1575f80fd5b919050565b5f80604083850312156108b7575f80fd5b6108c08361088b565b946020939093013593505050565b5f805f606084860312156108e0575f80fd5b6108e98461088b565b92506108f76020850161088b565b929592945050506040919091013590565b5f60208284031215610918575f80fd5b6109218261088b565b9392505050565b5f8060408385031215610939575f80fd5b6109428361088b565b91506109506020840161088b565b90509250929050565b600181811c9082168061096d57607f821691505b60208210810361098b57634e487b7160e01b5f52602260045260245ffd5b50919050565b8082018082111561030357634e487b7160e01b5f52601160045260245ffdfea2646970667358221220d33435a50a093fda5328b749f7034bcf74cf88a6d512c2230a7c3b8f40f1c8f364736f6c634300081a0033",
        "linkReferences": {}
    },
    "deployedBytecode": {
        "object": "0x608060405234801561001057600080fd5b50600436106101005760003560e01c806370a082311161009757806395d89b411161006657806395d89b4114610203578063a9059cbb1461020b578063dd62ed3e1461021e578063f2fde38b1461025757600080fd5b806370a08231146101af578063715018a6146101d85780638456cb59146101e05780638da5cb5b146101e857600080fd5b8063313ce567116100d3578063313ce5671461016b5780633f4ba83a1461018057806340c10f191461018a5780635c975abb1461019d57600080fd5b806306fdde0314610105578063095ea7b31461012357806318160ddd1461014657806323b872dd14610158575b600080fd5b61010d61026a565b60405161011a919061087b565b60405180910390f35b6101366101313660046108e6565b6102fc565b604051901515815260200161011a565b6003545b60405190815260200161011a565b610136610166366004610910565b610316565b60065460405160ff909116815260200161011a565b61018861033a565b005b6101886101983660046108e6565b61034c565b600054600160a01b900460ff16610136565b61014a6101bd36600461094c565b6001600160a01b031660009081526001602052604090205490565b610188610362565b610188610374565b6000546040516001600160a01b03909116815260200161011a565b61010d610384565b6101366102193660046108e6565b610393565b61014a61022c36600461096e565b6001600160a01b03918216600090815260026020908152604080832093909416825291909152205490565b61018861026536600461094c565b6103a1565b606060048054610279906109a1565b80601f01602080910402602001604051908101604052809291908181526020018280546102a5906109a1565b80156102f25780601f106102c7576101008083540402835291602001916102f2565b820191906000526020600020905b8154815290600101906020018083116102d557829003601f168201915b5050505050905090565b60003361030a8185856103e4565b60019150505b92915050565b6000336103248582856103f6565b61032f858585610475565b506001949350505050565b6103426104d4565b61034a610501565b565b6103546104d4565b61035e8282610556565b5050565b61036a6104d4565b61034a600061058c565b61037c6104d4565b61034a6105dc565b606060058054610279906109a1565b60003361030a818585610475565b6103a96104d4565b6001600160a01b0381166103d857604051631e4fbdf760e01b8152600060048201526024015b60405180910390fd5b6103e18161058c565b50565b6103f1838383600161061f565b505050565b6001600160a01b0383811660009081526002602090815260408083209386168352929052205460001981101561046f578181101561046057604051637dc7a0d960e11b81526001600160a01b038416600482015260248101829052604481018390526064016103cf565b61046f8484848403600061061f565b50505050565b6001600160a01b03831661049f57604051634b637e8f60e11b8152600060048201526024016103cf565b6001600160a01b0382166104c95760405163ec442f0560e01b8152600060048201526024016103cf565b6103f18383836106f4565b6000546001600160a01b0316331461034a5760405163118cdaa760e01b81523360048201526024016103cf565b610509610826565b6000805460ff60a01b191690557f5db9ee0a495bf2e6ff9c91a7834c1ba4fdd244a5e8aa4e537bd38aeae4b073aa335b6040516001600160a01b03909116815260200160405180910390a1565b6001600160a01b0382166105805760405163ec442f0560e01b8152600060048201526024016103cf565b61035e600083836106f4565b600080546001600160a01b038381166001600160a01b0319831681178455604051919092169283917f8be0079c531659141344cd1fd0a4f28419497f9722a3daafe3b4186f6b6457e09190a35050565b6105e4610850565b6000805460ff60a01b1916600160a01b1790557f62e78cea01bee320cd4e420270b5ea74000d11b0c9f74754ebdbfc544b05a2586105393390565b6001600160a01b0384166106495760405163e602df0560e01b8152600060048201526024016103cf565b6001600160a01b03831661067357604051634a1406b160e11b8152600060048201526024016103cf565b6001600160a01b038085166000908152600260209081526040808320938716835292905220829055801561046f57826001600160a01b0316846001600160a01b03167f8c5be1e5ebec7d5bd14f71427d1e84f3dd0314c0f7b2291e5b200ac8c7c3b925846040516106e691815260200190565b60405180910390a350505050565b6106fc610850565b6001600160a01b03831661072757806003600082825461071c91906109db565b909155506107999050565b6001600160a01b0383166000908152600160205260409020548181101561077a5760405163391434e360e21b81526001600160a01b038516600482015260248101829052604481018390526064016103cf565b6001600160a01b03841660009081526001602052604090209082900390555b6001600160a01b0382166107b5576003805482900390556107d4565b6001600160a01b03821660009081526001602052604090208054820190555b816001600160a01b0316836001600160a01b03167fddf252ad1be2c89b69c2b068fc378daa952ba7f163c4a11628f55a4df523b3ef8360405161081991815260200190565b60405180910390a3505050565b600054600160a01b900460ff1661034a57604051638dfc202b60e01b815260040160405180910390fd5b600054600160a01b900460ff161561034a5760405163d93c066560e01b815260040160405180910390fd5b60006020808352835180602085015260005b818110156108a95785810183015185820160400152820161088d565b506000604082860101526040601f19601f8301168501019250505092915050565b80356001600160a01b03811681146108e157600080fd5b919050565b600080604083850312156108f957600080fd5b610902836108ca565b946020939093013593505050565b60008060006060848603121561092557600080fd5b61092e846108ca565b925061093c602085016108ca565b9150604084013590509250925092565b60006020828403121561095e57600080fd5b610967826108ca565b9392505050565b6000806040838503121561098157600080fd5b61098a836108ca565b9150610998602084016108ca565b90509250929050565b600181811c908216806109b557607f821691505b6020821081036109d557634e487b7160e01b600052602260045260246000fd5b50919050565b8082018082111561031057634e487b7160e01b600052601160045260246000fdfea2646970667358221220c530b5742e8795f72e08cea1b0e0e60d73d008c6c89b3d168dc82a16bae51feb64736f6c63430008170033",
        "linkReferences": {}
    },
    "methodIdentifiers": {
        "allowance(address,address)": "dd62ed3e",
        "approve(address,uint256)": "095ea7b3",
        "balanceOf(address)": "70a08231",
        "decimals()": "313ce567",
        "mint(address,uint256)": "40c10f19",
        "name()": "06fdde03",
        "owner()": "8da5cb5b",
        "pause()": "8456cb59",
        "paused()": "5c975abb",
        "renounceOwnership()": "715018a6",
        "symbol()": "95d89b41",
        "totalSupply()": "18160ddd",
        "transfer(address,uint256)": "a9059cbb",
        "transferFrom(address,address,uint256)": "23b872dd",
        "transferOwnership(address)": "f2fde38b",
        "unpause()": "3f4ba83a"
    },
    "id": 25
}