{"abi":[{"type":"constructor","inputs":[{"name":"name_","type":"string","internalType":"string"},{"name":"symbol_","type":"string","internalType":"string"},{"name":"decimals_","type":"uint8","internalType":"uint8"},{"name":"totalSupply_","type":"uint256","internalType":"uint256"},{"name":"cap_","type":"uint256","internalType":"uint256"},{"name":"serviceFeeReceiver_","type":"address","internalType":"address"},{"name":"serviceFee_","type":"uint256","internalType":"uint256"},{"name":"transferTaxBps_","type":"uint256","internalType":"uint256"},{"name":"taxFeeRecipient_","type":"address","internalType":"address"}],"stateMutability":"payable"},{"type":"function","name":"allowance","inputs":[{"name":"owner","type":"address","internalType":"address"},{"name":"spender","type":"address","internalType":"address"}],"outputs":[{"name":"","type":"uint256","internalType":"uint256"}],"stateMutability":"view"},{"type":"function","name":"approve","inputs":[{"name":"spender","type":"address","internalType":"address"},{"name":"value","type":"uint256","internalType":"uint256"}],"outputs":[{"name":"","type":"bool","internalType":"bool"}],"stateMutability":"nonpayable"},{"type":"function","name":"balanceOf","inputs":[{"name":"account","type":"address","internalType":"address"}],"outputs":[{"name":"","type":"uint256","internalType":"uint256"}],"stateMutability":"view"},{"type":"function","name":"blacklist","inputs":[{"name":"account","type":"address","internalType":"address"}],"outputs":[],"stateMutability":"nonpayable"},{"type":"function","name":"cap","inputs":[],"outputs":[{"name":"","type":"uint256","internalType":"uint256"}],"stateMutability":"view"},{"type":"function","name":"decimals","inputs":[],"outputs":[{"name":"","type":"uint8","internalType":"uint8"}],"stateMutability":"view"},{"type":"function","name":"getTaxFeeRecipient","inputs":[],"outputs":[{"name":"","type":"address","internalType":"address"}],"stateMutability":"view"},{"type":"function","name":"getTransferTaxBps","inputs":[],"outputs":[{"name":"","type":"uint256","internalType":"uint256"}],"stateMutability":"view"},{"type":"function","name":"isBlacklisted","inputs":[{"name":"account","type":"address","internalType":"address"}],"outputs":[{"name":"","type":"bool","internalType":"bool"}],"stateMutability":"view"},{"type":"function","name":"mint","inputs":[{"name":"to","type":"address","internalType":"address"},{"name":"amount","type":"uint256","internalType":"uint256"}],"outputs":[],"stateMutability":"nonpayable"},{"type":"function","name":"name","inputs":[],"outputs":[{"name":"","type":"string","internalType":"string"}],"stateMutability":"view"},{"type":"function","name":"owner","inputs":[],"outputs":[{"name":"","type":"address","internalType":"address"}],"stateMutability":"view"},{"type":"function","name":"pause","inputs":[],"outputs":[],"stateMutability":"nonpayable"},{"type":"function","name":"paused","inputs":[],"outputs":[{"name":"","type":"bool","internalType":"bool"}],"stateMutability":"view"},{"type":"function","name":"renounceOwnership","inputs":[],"outputs":[],"stateMutability":"nonpayable"},{"type":"function","name":"symbol","inputs":[],"outputs":[{"name":"","type":"string","internalType":"string"}],"stateMutability":"view"},{"type":"function","name":"totalSupply","inputs":[],"outputs":[{"name":"","type":"uint256","internalType":"uint256"}],"stateMutability":"view"},{"type":"function","name":"transfer","inputs":[{"name":"to","type":"address","internalType":"address"},{"name":"value","type":"uint256","internalType":"uint256"}],"outputs":[{"name":"","type":"bool","internalType":"bool"}],"stateMutability":"nonpayable"},{"type":"function","name":"transferFrom","inputs":[{"name":"from","type":"address","internalType":"address"},{"name":"to","type":"address","internalType":"address"},{"name":"value","type":"uint256","internalType":"uint256"}],"outputs":[{"name":"","type":"bool","internalType":"bool"}],"stateMutability":"nonpayable"},{"type":"function","name":"transferOwnership","inputs":[{"name":"newOwner","type":"address","internalType":"address"}],"outputs":[],"stateMutability":"nonpayable"},{"type":"function","name":"unblacklist","inputs":[{"name":"account","type":"address","internalType":"address"}],"outputs":[],"stateMutability":"nonpayable"},{"type":"function","name":"unpause","inputs":[],"outputs":[],"stateMutability":"nonpayable"},{"type":"function","name":"updateTaxFeeRecipient","inputs":[{"name":"newTaxFeeRecipient","type":"address","internalType":"address"}],"outputs":[],"stateMutability":"nonpayable"},{"type":"event","name":"Approval","inputs":[{"name":"owner","type":"address","indexed":true,"internalType":"address"},{"name":"spender","type":"address","indexed":true,"internalType":"address"},{"name":"value","type":"uint256","indexed":false,"internalType":"uint256"}],"anonymous":false},{"type":"event","name":"Blacklisted","inputs":[{"name":"account","type":"address","indexed":true,"internalType":"address"}],"anonymous":false},{"type":"event","name":"OwnershipTransferred","inputs":[{"name":"previousOwner","type":"address","indexed":true,"internalType":"address"},{"name":"newOwner","type":"address","indexed":true,"internalType":"address"}],"anonymous":false},{"type":"event","name":"Paused","inputs":[{"name":"account","type":"address","indexed":false,"internalType":"address"}],"anonymous":false},{"type":"event","name":"TaxFeeRecipientUpdated","inputs":[{"name":"newTaxFeeRecipient","type":"address","indexed":false,"internalType":"address"}],"anonymous":false},{"type":"event","name":"Transfer","inputs":[{"name":"from","type":"address","indexed":true,"internalType":"address"},{"name":"to","type":"address","indexed":true,"internalType":"address"},{"name":"value","type":"uint256","indexed":false,"internalType":"uint256"}],"anonymous":false},{"type":"event","name":"Unblacklisted","inputs":[{"name":"account","type":"address","indexed":true,"internalType":"address"}],"anonymous":false},{"type":"event","name":"Unpaused","inputs":[{"name":"account","type":"address","indexed":false,"internalType":"address"}],"anonymous":false},{"type":"error","name":"ERC20InsufficientAllowance","inputs":[{"name":"spender","type":"address","internalType":"address"},{"name":"allowance","type":"uint256","internalType":"uint256"},{"name":"needed","type":"uint256","internalType":"uint256"}]},{"type":"error","name":"ERC20InsufficientBalance","inputs":[{"name":"sender","type":"address","internalType":"address"},{"name":"balance","type":"uint256","internalType":"uint256"},{"name":"needed","type":"uint256","internalType":"uint256"}]},{"type":"error","name":"ERC20InvalidApprover","inputs":[{"name":"approver","type":"address","internalType":"address"}]},{"type":"error","name":"ERC20InvalidReceiver","inputs":[{"name":"receiver","type":"address","internalType":"address"}]},{"type":"error","name":"ERC20InvalidSender","inputs":[{"name":"sender","type":"address","internalType":"address"}]},{"type":"error","name":"ERC20InvalidSpender","inputs":[{"name":"spender","type":"address","internalType":"address"}]},{"type":"error","name":"EnforcedPause","inputs":[]},{"type":"error","name":"ExpectedPause","inputs":[]},{"type":"error","name":"OwnableInvalidOwner","inputs":[{"name":"owner","type":"address","internalType":"address"}]},{"type":"error","name":"OwnableUnauthorizedAccount","inputs":[{"name":"account","type":"address","internalType":"address"}]}],"bytecode":{"object":"0x60806040526040516200374b3803806200374b833981810160405281019062000029919062000afc565b335f73ffffffffffffffffffffffffffffffffffffffff168173ffffffffffffffffffffffffffffffffffffffff16036200009d575f6040517f1e4fbdf700000000000000000000000000000000000000000000000000000000815260040162000094919062000c24565b60405180910390fd5b620000ae81620003d960201b60201c565b505f8060146101000a81548160ff0219169083151502179055508860059081620000d9919062000e6d565b508760069081620000eb919062000e6d565b508660075f6101000a81548160ff021916908360ff1602179055508160098190555080600a5f6101000a81548173ffffffffffffffffffffffffffffffffffffffff021916908373ffffffffffffffffffffffffffffffffffffffff1602179055505f851162000192576040517f08c379a0000000000000000000000000000000000000000000000000000000008152600401620001899062000faf565b60405180910390fd5b84600881905550620001a96200049a60201b60201c565b600a620001b791906200114c565b620001c7620004af60201b60201c565b620001d391906200119c565b86111562000218576040517f08c379a00000000000000000000000000000000000000000000000000000000081526004016200020f9062001234565b60405180910390fd5b823410156200025e576040517f08c379a00000000000000000000000000000000000000000000000000000000081526004016200025590620012a2565b60405180910390fd5b5f73ffffffffffffffffffffffffffffffffffffffff168473ffffffffffffffffffffffffffffffffffffffff1603620002cf576040517f08c379a0000000000000000000000000000000000000000000000000000000008152600401620002c69062001310565b60405180910390fd5b5f8473ffffffffffffffffffffffffffffffffffffffff1684604051620002f69062001361565b5f6040518083038185875af1925050503d805f811462000332576040519150601f19603f3d011682016040523d82523d5f602084013e62000337565b606091505b50509050806200037e576040517f08c379a00000000000000000000000000000000000000000000000000000000081526004016200037590620013c5565b60405180910390fd5b620003c962000392620004b860201b60201c565b620003a26200049a60201b60201c565b600a620003b091906200114c565b89620003bd91906200119c565b620004df60201b60201c565b5050505050505050505062001486565b5f805f9054906101000a900473ffffffffffffffffffffffffffffffffffffffff169050815f806101000a81548173ffffffffffffffffffffffffffffffffffffffff021916908373ffffffffffffffffffffffffffffffffffffffff1602179055508173ffffffffffffffffffffffffffffffffffffffff168173ffffffffffffffffffffffffffffffffffffffff167f8be0079c531659141344cd1fd0a4f28419497f9722a3daafe3b4186f6b6457e060405160405180910390a35050565b5f60075f9054906101000a900460ff16905090565b5f600854905090565b5f805f9054906101000a900473ffffffffffffffffffffffffffffffffffffffff16905090565b620004ef6200049a60201b60201c565b600a620004fd91906200114c565b6200050d620004af60201b60201c565b6200051991906200119c565b816200052a6200060460201b60201c565b620005369190620013e5565b11156200057a576040517f08c379a0000000000000000000000000000000000000000000000000000000008152600401620005719062001234565b60405180910390fd5b5f73ffffffffffffffffffffffffffffffffffffffff168273ffffffffffffffffffffffffffffffffffffffff1603620005ed575f6040517fec442f05000000000000000000000000000000000000000000000000000000008152600401620005e4919062000c24565b60405180910390fd5b620006005f83836200060d60201b60201c565b5050565b5f600454905090565b6200061d6200084460201b60201c565b5f73ffffffffffffffffffffffffffffffffffffffff168373ffffffffffffffffffffffffffffffffffffffff160362000671578060045f828254620006649190620013e5565b9250508190555062000744565b5f60015f8573ffffffffffffffffffffffffffffffffffffffff1673ffffffffffffffffffffffffffffffffffffffff1681526020019081526020015f2054905081811015620006fe578381836040517fe450d38c000000000000000000000000000000000000000000000000000000008152600401620006f59392919062001430565b60405180910390fd5b81810360015f8673ffffffffffffffffffffffffffffffffffffffff1673ffffffffffffffffffffffffffffffffffffffff1681526020019081526020015f2081905550505b5f73ffffffffffffffffffffffffffffffffffffffff168273ffffffffffffffffffffffffffffffffffffffff16036200078d578060045f8282540392505081905550620007d8565b8060015f8473ffffffffffffffffffffffffffffffffffffffff1673ffffffffffffffffffffffffffffffffffffffff1681526020019081526020015f205f82825401925050819055505b8173ffffffffffffffffffffffffffffffffffffffff168373ffffffffffffffffffffffffffffffffffffffff167fddf252ad1be2c89b69c2b068fc378daa952ba7f163c4a11628f55a4df523b3ef836040516200083791906200146b565b60405180910390a3505050565b620008546200088e60201b60201c565b156200088c576040517fd93c066500000000000000000000000000000000000000000000000000000000815260040160405180910390fd5b565b5f8060149054906101000a900460ff16905090565b5f604051905090565b5f80fd5b5f80fd5b5f80fd5b5f80fd5b5f601f19601f8301169050919050565b7f4e487b71000000000000000000000000000000000000000000000000000000005f52604160045260245ffd5b6200090482620008bc565b810181811067ffffffffffffffff82111715620009265762000925620008cc565b5b80604052505050565b5f6200093a620008a3565b9050620009488282620008f9565b919050565b5f67ffffffffffffffff8211156200096a5762000969620008cc565b5b6200097582620008bc565b9050602081019050919050565b5f5b83811015620009a157808201518184015260208101905062000984565b5f8484015250505050565b5f620009c2620009bc846200094d565b6200092f565b905082815260208101848484011115620009e157620009e0620008b8565b5b620009ee84828562000982565b509392505050565b5f82601f83011262000a0d5762000a0c620008b4565b5b815162000a1f848260208601620009ac565b91505092915050565b5f60ff82169050919050565b62000a3f8162000a28565b811462000a4a575f80fd5b50565b5f8151905062000a5d8162000a34565b92915050565b5f819050919050565b62000a778162000a63565b811462000a82575f80fd5b50565b5f8151905062000a958162000a6c565b92915050565b5f73ffffffffffffffffffffffffffffffffffffffff82169050919050565b5f62000ac68262000a9b565b9050919050565b62000ad88162000aba565b811462000ae3575f80fd5b50565b5f8151905062000af68162000acd565b92915050565b5f805f805f805f805f6101208a8c03121562000b1d5762000b1c620008ac565b5b5f8a015167ffffffffffffffff81111562000b3d5762000b3c620008b0565b5b62000b4b8c828d01620009f6565b99505060208a015167ffffffffffffffff81111562000b6f5762000b6e620008b0565b5b62000b7d8c828d01620009f6565b985050604062000b908c828d0162000a4d565b975050606062000ba38c828d0162000a85565b965050608062000bb68c828d0162000a85565b95505060a062000bc98c828d0162000ae6565b94505060c062000bdc8c828d0162000a85565b93505060e062000bef8c828d0162000a85565b92505061010062000c038c828d0162000ae6565b9150509295985092959850929598565b62000c1e8162000aba565b82525050565b5f60208201905062000c395f83018462000c13565b92915050565b5f81519050919050565b7f4e487b71000000000000000000000000000000000000000000000000000000005f52602260045260245ffd5b5f600282049050600182168062000c8e57607f821691505b60208210810362000ca45762000ca362000c49565b5b50919050565b5f819050815f5260205f209050919050565b5f6020601f8301049050919050565b5f82821b905092915050565b5f6008830262000d087fffffffffffffffffffffffffffffffffffffffffffffffffffffffffffffffff8262000ccb565b62000d14868362000ccb565b95508019841693508086168417925050509392505050565b5f819050919050565b5f62000d5562000d4f62000d498462000a63565b62000d2c565b62000a63565b9050919050565b5f819050919050565b62000d708362000d35565b62000d8862000d7f8262000d5c565b84845462000cd7565b825550505050565b5f90565b62000d9e62000d90565b62000dab81848462000d65565b505050565b5b8181101562000dd25762000dc65f8262000d94565b60018101905062000db1565b5050565b601f82111562000e215762000deb8162000caa565b62000df68462000cbc565b8101602085101562000e06578190505b62000e1e62000e158562000cbc565b83018262000db0565b50505b505050565b5f82821c905092915050565b5f62000e435f198460080262000e26565b1980831691505092915050565b5f62000e5d838362000e32565b9150826002028217905092915050565b62000e788262000c3f565b67ffffffffffffffff81111562000e945762000e93620008cc565b5b62000ea0825462000c76565b62000ead82828562000dd6565b5f60209050601f83116001811462000ee3575f841562000ece578287015190505b62000eda858262000e50565b86555062000f49565b601f19841662000ef38662000caa565b5f5b8281101562000f1c5784890151825560018201915060208501945060208101905062000ef5565b8683101562000f3c578489015162000f38601f89168262000e32565b8355505b6001600288020188555050505b505050505050565b5f82825260208201905092915050565b7f4361702073686f756c642062652067726561746572207468616e2030000000005f82015250565b5f62000f97601c8362000f51565b915062000fa48262000f61565b602082019050919050565b5f6020820190508181035f83015262000fc88162000f89565b9050919050565b7f4e487b71000000000000000000000000000000000000000000000000000000005f52601160045260245ffd5b5f8160011c9050919050565b5f808291508390505b6001851115620010595780860481111562001031576200103062000fcf565b5b6001851615620010415780820291505b8081029050620010518562000ffc565b945062001011565b94509492505050565b5f8262001073576001905062001145565b8162001082575f905062001145565b81600181146200109b5760028114620010a657620010dc565b600191505062001145565b60ff841115620010bb57620010ba62000fcf565b5b8360020a915084821115620010d557620010d462000fcf565b5b5062001145565b5060208310610133831016604e8410600b8410161715620011165782820a90508381111562001110576200110f62000fcf565b5b62001145565b62001125848484600162001008565b925090508184048111156200113f576200113e62000fcf565b5b81810290505b9392505050565b5f620011588262000a63565b9150620011658362000a28565b9250620011947fffffffffffffffffffffffffffffffffffffffffffffffffffffffffffffffff848462001062565b905092915050565b5f620011a88262000a63565b9150620011b58362000a63565b9250828202620011c58162000a63565b91508282048414831517620011df57620011de62000fcf565b5b5092915050565b7f45524332304361707065643a20636170206578636565646564000000000000005f82015250565b5f6200121c60198362000f51565b91506200122982620011e6565b602082019050919050565b5f6020820190508181035f8301526200124d816200120e565b9050919050565b7f496e73756666696369656e742066656520616d6f756e742073656e74000000005f82015250565b5f6200128a601c8362000f51565b9150620012978262001254565b602082019050919050565b5f6020820190508181035f830152620012bb816200127c565b9050919050565b7f496e76616c6964206665652072656365697665722061646472657373000000005f82015250565b5f620012f8601c8362000f51565b91506200130582620012c2565b602082019050919050565b5f6020820190508181035f8301526200132981620012ea565b9050919050565b5f81905092915050565b50565b5f6200134a5f8362001330565b915062001357826200133a565b5f82019050919050565b5f6200136d826200133d565b9150819050919050565b7f466565207472616e73666572206661696c6564000000000000000000000000005f82015250565b5f620013ad60138362000f51565b9150620013ba8262001377565b602082019050919050565b5f6020820190508181035f830152620013de816200139f565b9050919050565b5f620013f18262000a63565b9150620013fe8362000a63565b925082820190508082111562001419576200141862000fcf565b5b92915050565b6200142a8162000a63565b82525050565b5f606082019050620014455f83018662000c13565b6200145460208301856200141f565b6200146360408301846200141f565b949350505050565b5f602082019050620014805f8301846200141f565b92915050565b6122b780620014945f395ff3fe608060405234801561000f575f80fd5b506004361061014b575f3560e01c8063715018a6116100c157806395d89b411161007a57806395d89b4114610341578063a9059cbb1461035f578063dd62ed3e1461038f578063f2fde38b146103bf578063f9f92be4146103db578063fe575a87146103f75761014b565b8063715018a6146102b9578063743bfe70146102c357806375e3661e146102e15780638456cb59146102fd5780638baace25146103075780638da5cb5b146103235761014b565b8063313ce56711610113578063313ce56714610209578063355274ea146102275780633f4ba83a1461024557806340c10f191461024f5780635c975abb1461026b57806370a08231146102895761014b565b806303073dfc1461014f57806306fdde031461016d578063095ea7b31461018b57806318160ddd146101bb57806323b872dd146101d9575b5f80fd5b610157610427565b6040516101649190611afb565b60405180910390f35b61017561044f565b6040516101829190611b9e565b60405180910390f35b6101a560048036038101906101a09190611c1f565b6104df565b6040516101b29190611c77565b60405180910390f35b6101c3610619565b6040516101d09190611c9f565b60405180910390f35b6101f360048036038101906101ee9190611cb8565b610622565b6040516102009190611c77565b60405180910390f35b610211610768565b60405161021e9190611d23565b60405180910390f35b61022f61077d565b60405161023c9190611c9f565b60405180910390f35b61024d610786565b005b61026960048036038101906102649190611c1f565b610798565b005b6102736107ae565b6040516102809190611c77565b60405180910390f35b6102a3600480360381019061029e9190611d3c565b6107c3565b6040516102b09190611c9f565b60405180910390f35b6102c1610809565b005b6102cb61081c565b6040516102d89190611c9f565b60405180910390f35b6102fb60048036038101906102f69190611d3c565b610825565b005b610305610950565b005b610321600480360381019061031c9190611d3c565b610962565b005b61032b6109e4565b6040516103389190611afb565b60405180910390f35b610349610a0b565b6040516103569190611b9e565b60405180910390f35b61037960048036038101906103749190611c1f565b610a9b565b6040516103869190611c77565b60405180910390f35b6103a960048036038101906103a49190611d67565b610f23565b6040516103b69190611c9f565b60405180910390f35b6103d960048036038101906103d49190611d3c565b610fa5565b005b6103f560048036038101906103f09190611d3c565b611029565b005b610411600480360381019061040c9190611d3c565b611156565b60405161041e9190611c77565b60405180910390f35b5f600a5f9054906101000a900473ffffffffffffffffffffffffffffffffffffffff16905090565b60606005805461045e90611dd2565b80601f016020809104026020016040519081016040528092919081815260200182805461048a90611dd2565b80156104d55780601f106104ac576101008083540402835291602001916104d5565b820191905f5260205f20905b8154815290600101906020018083116104b857829003601f168201915b5050505050905090565b5f3360035f8273ffffffffffffffffffffffffffffffffffffffff1673ffffffffffffffffffffffffffffffffffffffff1681526020019081526020015f205f9054906101000a900460ff161561056b576040517f08c379a000000000000000000000000000000000000000000000000000000000815260040161056290611e4c565b60405180910390fd5b8360035f8273ffffffffffffffffffffffffffffffffffffffff1673ffffffffffffffffffffffffffffffffffffffff1681526020019081526020015f205f9054906101000a900460ff16156105f6576040517f08c379a00000000000000000000000000000000000000000000000000000000081526004016105ed90611e4c565b60405180910390fd5b5f6105ff6111a8565b905061060c8187876111af565b6001935050505092915050565b5f600454905090565b5f8360035f8273ffffffffffffffffffffffffffffffffffffffff1673ffffffffffffffffffffffffffffffffffffffff1681526020019081526020015f205f9054906101000a900460ff16156106ae576040517f08c379a00000000000000000000000000000000000000000000000000000000081526004016106a590611e4c565b60405180910390fd5b8360035f8273ffffffffffffffffffffffffffffffffffffffff1673ffffffffffffffffffffffffffffffffffffffff1681526020019081526020015f205f9054906101000a900460ff1615610739576040517f08c379a000000000000000000000000000000000000000000000000000000000815260040161073090611e4c565b60405180910390fd5b5f6107426111a8565b905061074f8782876111c1565b61075a878787611254565b600193505050509392505050565b5f60075f9054906101000a900460ff16905090565b5f600854905090565b61078e611344565b6107966113cb565b565b6107a0611344565b6107aa828261142c565b5050565b5f8060149054906101000a900460ff16905090565b5f60015f8373ffffffffffffffffffffffffffffffffffffffff1673ffffffffffffffffffffffffffffffffffffffff1681526020019081526020015f20549050919050565b610811611344565b61081a5f611525565b565b5f600954905090565b61082d611344565b60035f8273ffffffffffffffffffffffffffffffffffffffff1673ffffffffffffffffffffffffffffffffffffffff1681526020019081526020015f205f9054906101000a900460ff166108b6576040517f08c379a00000000000000000000000000000000000000000000000000000000081526004016108ad90611eb4565b60405180910390fd5b5f60035f8373ffffffffffffffffffffffffffffffffffffffff1673ffffffffffffffffffffffffffffffffffffffff1681526020019081526020015f205f6101000a81548160ff0219169083151502179055508073ffffffffffffffffffffffffffffffffffffffff167f7534c63860313c46c473e4e98328f37017e9674e2162faf1a3ad7a96236c3b7b60405160405180910390a250565b610958611344565b6109606115e6565b565b61096a611344565b80600a5f6101000a81548173ffffffffffffffffffffffffffffffffffffffff021916908373ffffffffffffffffffffffffffffffffffffffff1602179055507f3ca9233bd3849737ab1049144180bc625db2d51ca2c5ce949e7209eb32faa3a2816040516109d99190611afb565b60405180910390a150565b5f805f9054906101000a900473ffffffffffffffffffffffffffffffffffffffff16905090565b606060068054610a1a90611dd2565b80601f0160208091040260200160405190810160405280929190818152602001828054610a4690611dd2565b8015610a915780601f10610a6857610100808354040283529160200191610a91565b820191905f5260205f20905b815481529060010190602001808311610a7457829003601f168201915b5050505050905090565b5f3360035f8273ffffffffffffffffffffffffffffffffffffffff1673ffffffffffffffffffffffffffffffffffffffff1681526020019081526020015f205f9054906101000a900460ff1615610b27576040517f08c379a0000000000000000000000000000000000000000000000000000000008152600401610b1e90611e4c565b60405180910390fd5b8360035f8273ffffffffffffffffffffffffffffffffffffffff1673ffffffffffffffffffffffffffffffffffffffff1681526020019081526020015f205f9054906101000a900460ff1615610bb2576040517f08c379a0000000000000000000000000000000000000000000000000000000008152600401610ba990611e4c565b60405180910390fd5b5f610bbb6111a8565b90505f61271060095487610bcf9190611eff565b610bd99190611f6d565b90505f8187610be89190611f9d565b90508660015f8573ffffffffffffffffffffffffffffffffffffffff1673ffffffffffffffffffffffffffffffffffffffff1681526020019081526020015f20541015610cad578260015f8573ffffffffffffffffffffffffffffffffffffffff1673ffffffffffffffffffffffffffffffffffffffff1681526020019081526020015f2054886040517fe450d38c000000000000000000000000000000000000000000000000000000008152600401610ca493929190611fd0565b60405180910390fd5b8660015f8573ffffffffffffffffffffffffffffffffffffffff1673ffffffffffffffffffffffffffffffffffffffff1681526020019081526020015f205f828254610cf99190611f9d565b925050819055508060015f8a73ffffffffffffffffffffffffffffffffffffffff1673ffffffffffffffffffffffffffffffffffffffff1681526020019081526020015f205f828254610d4c9190612005565b925050819055505f73ffffffffffffffffffffffffffffffffffffffff16600a5f9054906101000a900473ffffffffffffffffffffffffffffffffffffffff1673ffffffffffffffffffffffffffffffffffffffff1614158015610daf57505f82115b15610eaf578160015f600a5f9054906101000a900473ffffffffffffffffffffffffffffffffffffffff1673ffffffffffffffffffffffffffffffffffffffff1673ffffffffffffffffffffffffffffffffffffffff1681526020019081526020015f205f828254610e219190612005565b92505081905550600a5f9054906101000a900473ffffffffffffffffffffffffffffffffffffffff1673ffffffffffffffffffffffffffffffffffffffff168373ffffffffffffffffffffffffffffffffffffffff167fddf252ad1be2c89b69c2b068fc378daa952ba7f163c4a11628f55a4df523b3ef84604051610ea69190611c9f565b60405180910390a35b8773ffffffffffffffffffffffffffffffffffffffff168373ffffffffffffffffffffffffffffffffffffffff167fddf252ad1be2c89b69c2b068fc378daa952ba7f163c4a11628f55a4df523b3ef83604051610f0c9190611c9f565b60405180910390a360019550505050505092915050565b5f60025f8473ffffffffffffffffffffffffffffffffffffffff1673ffffffffffffffffffffffffffffffffffffffff1681526020019081526020015f205f8373ffffffffffffffffffffffffffffffffffffffff1673ffffffffffffffffffffffffffffffffffffffff1681526020019081526020015f2054905092915050565b610fad611344565b5f73ffffffffffffffffffffffffffffffffffffffff168173ffffffffffffffffffffffffffffffffffffffff160361101d575f6040517f1e4fbdf70000000000000000000000000000000000000000000000000000000081526004016110149190611afb565b60405180910390fd5b61102681611525565b50565b611031611344565b60035f8273ffffffffffffffffffffffffffffffffffffffff1673ffffffffffffffffffffffffffffffffffffffff1681526020019081526020015f205f9054906101000a900460ff16156110bb576040517f08c379a00000000000000000000000000000000000000000000000000000000081526004016110b290612082565b60405180910390fd5b600160035f8373ffffffffffffffffffffffffffffffffffffffff1673ffffffffffffffffffffffffffffffffffffffff1681526020019081526020015f205f6101000a81548160ff0219169083151502179055508073ffffffffffffffffffffffffffffffffffffffff167fffa4e6181777692565cf28528fc88fd1516ea86b56da075235fa575af6a4b85560405160405180910390a250565b5f60035f8373ffffffffffffffffffffffffffffffffffffffff1673ffffffffffffffffffffffffffffffffffffffff1681526020019081526020015f205f9054906101000a900460ff169050919050565b5f33905090565b6111bc8383836001611648565b505050565b5f6111cc8484610f23565b90507fffffffffffffffffffffffffffffffffffffffffffffffffffffffffffffffff81101561124e578181101561123f578281836040517ffb8f41b200000000000000000000000000000000000000000000000000000000815260040161123693929190611fd0565b60405180910390fd5b61124d84848484035f611648565b5b50505050565b5f73ffffffffffffffffffffffffffffffffffffffff168373ffffffffffffffffffffffffffffffffffffffff16036112c4575f6040517f96c6fd1e0000000000000000000000000000000000000000000000000000000081526004016112bb9190611afb565b60405180910390fd5b5f73ffffffffffffffffffffffffffffffffffffffff168273ffffffffffffffffffffffffffffffffffffffff1603611334575f6040517fec442f0500000000000000000000000000000000000000000000000000000000815260040161132b9190611afb565b60405180910390fd5b61133f838383611817565b505050565b61134c6111a8565b73ffffffffffffffffffffffffffffffffffffffff1661136a6109e4565b73ffffffffffffffffffffffffffffffffffffffff16146113c95761138d6111a8565b6040517f118cdaa70000000000000000000000000000000000000000000000000000000081526004016113c09190611afb565b60405180910390fd5b565b6113d3611a3b565b5f8060146101000a81548160ff0219169083151502179055507f5db9ee0a495bf2e6ff9c91a7834c1ba4fdd244a5e8aa4e537bd38aeae4b073aa6114156111a8565b6040516114229190611afb565b60405180910390a1565b611434610768565b600a61144091906121cf565b61144861077d565b6114529190611eff565b8161145b610619565b6114659190612005565b11156114a6576040517f08c379a000000000000000000000000000000000000000000000000000000000815260040161149d90612263565b60405180910390fd5b5f73ffffffffffffffffffffffffffffffffffffffff168273ffffffffffffffffffffffffffffffffffffffff1603611516575f6040517fec442f0500000000000000000000000000000000000000000000000000000000815260040161150d9190611afb565b60405180910390fd5b6115215f8383611817565b5050565b5f805f9054906101000a900473ffffffffffffffffffffffffffffffffffffffff169050815f806101000a81548173ffffffffffffffffffffffffffffffffffffffff021916908373ffffffffffffffffffffffffffffffffffffffff1602179055508173ffffffffffffffffffffffffffffffffffffffff168173ffffffffffffffffffffffffffffffffffffffff167f8be0079c531659141344cd1fd0a4f28419497f9722a3daafe3b4186f6b6457e060405160405180910390a35050565b6115ee611a7b565b60015f60146101000a81548160ff0219169083151502179055507f62e78cea01bee320cd4e420270b5ea74000d11b0c9f74754ebdbfc544b05a2586116316111a8565b60405161163e9190611afb565b60405180910390a1565b5f73ffffffffffffffffffffffffffffffffffffffff168473ffffffffffffffffffffffffffffffffffffffff16036116b8575f6040517fe602df050000000000000000000000000000000000000000000000000000000081526004016116af9190611afb565b60405180910390fd5b5f73ffffffffffffffffffffffffffffffffffffffff168373ffffffffffffffffffffffffffffffffffffffff1603611728575f6040517f94280d6200000000000000000000000000000000000000000000000000000000815260040161171f9190611afb565b60405180910390fd5b8160025f8673ffffffffffffffffffffffffffffffffffffffff1673ffffffffffffffffffffffffffffffffffffffff1681526020019081526020015f205f8573ffffffffffffffffffffffffffffffffffffffff1673ffffffffffffffffffffffffffffffffffffffff1681526020019081526020015f20819055508015611811578273ffffffffffffffffffffffffffffffffffffffff168473ffffffffffffffffffffffffffffffffffffffff167f8c5be1e5ebec7d5bd14f71427d1e84f3dd0314c0f7b2291e5b200ac8c7c3b925846040516118089190611c9f565b60405180910390a35b50505050565b61181f611a7b565b5f73ffffffffffffffffffffffffffffffffffffffff168373ffffffffffffffffffffffffffffffffffffffff160361186f578060045f8282546118639190612005565b9250508190555061193f565b5f60015f8573ffffffffffffffffffffffffffffffffffffffff1673ffffffffffffffffffffffffffffffffffffffff1681526020019081526020015f20549050818110156118f9578381836040517fe450d38c0000000000000000000000000000000000000000000000000000000081526004016118f093929190611fd0565b60405180910390fd5b81810360015f8673ffffffffffffffffffffffffffffffffffffffff1673ffffffffffffffffffffffffffffffffffffffff1681526020019081526020015f2081905550505b5f73ffffffffffffffffffffffffffffffffffffffff168273ffffffffffffffffffffffffffffffffffffffff1603611986578060045f82825403925050819055506119d1565b8060015f8473ffffffffffffffffffffffffffffffffffffffff1673ffffffffffffffffffffffffffffffffffffffff1681526020019081526020015f205f82825401925050819055505b8173ffffffffffffffffffffffffffffffffffffffff168373ffffffffffffffffffffffffffffffffffffffff167fddf252ad1be2c89b69c2b068fc378daa952ba7f163c4a11628f55a4df523b3ef83604051611a2e9190611c9f565b60405180910390a3505050565b611a436107ae565b611a79576040517f8dfc202b00000000000000000000000000000000000000000000000000000000815260040160405180910390fd5b565b611a836107ae565b15611aba576040517fd93c066500000000000000000000000000000000000000000000000000000000815260040160405180910390fd5b565b5f73ffffffffffffffffffffffffffffffffffffffff82169050919050565b5f611ae582611abc565b9050919050565b611af581611adb565b82525050565b5f602082019050611b0e5f830184611aec565b92915050565b5f81519050919050565b5f82825260208201905092915050565b5f5b83811015611b4b578082015181840152602081019050611b30565b5f8484015250505050565b5f601f19601f8301169050919050565b5f611b7082611b14565b611b7a8185611b1e565b9350611b8a818560208601611b2e565b611b9381611b56565b840191505092915050565b5f6020820190508181035f830152611bb68184611b66565b905092915050565b5f80fd5b611bcb81611adb565b8114611bd5575f80fd5b50565b5f81359050611be681611bc2565b92915050565b5f819050919050565b611bfe81611bec565b8114611c08575f80fd5b50565b5f81359050611c1981611bf5565b92915050565b5f8060408385031215611c3557611c34611bbe565b5b5f611c4285828601611bd8565b9250506020611c5385828601611c0b565b9150509250929050565b5f8115159050919050565b611c7181611c5d565b82525050565b5f602082019050611c8a5f830184611c68565b92915050565b611c9981611bec565b82525050565b5f602082019050611cb25f830184611c90565b92915050565b5f805f60608486031215611ccf57611cce611bbe565b5b5f611cdc86828701611bd8565b9350506020611ced86828701611bd8565b9250506040611cfe86828701611c0b565b9150509250925092565b5f60ff82169050919050565b611d1d81611d08565b82525050565b5f602082019050611d365f830184611d14565b92915050565b5f60208284031215611d5157611d50611bbe565b5b5f611d5e84828501611bd8565b91505092915050565b5f8060408385031215611d7d57611d7c611bbe565b5b5f611d8a85828601611bd8565b9250506020611d9b85828601611bd8565b9150509250929050565b7f4e487b71000000000000000000000000000000000000000000000000000000005f52602260045260245ffd5b5f6002820490506001821680611de957607f821691505b602082108103611dfc57611dfb611da5565b5b50919050565b7f4164647265737320697320626c61636b6c6973746564000000000000000000005f82015250565b5f611e36601683611b1e565b9150611e4182611e02565b602082019050919050565b5f6020820190508181035f830152611e6381611e2a565b9050919050565b7f41646472657373206973206e6f7420626c61636b6c69737465640000000000005f82015250565b5f611e9e601a83611b1e565b9150611ea982611e6a565b602082019050919050565b5f6020820190508181035f830152611ecb81611e92565b9050919050565b7f4e487b71000000000000000000000000000000000000000000000000000000005f52601160045260245ffd5b5f611f0982611bec565b9150611f1483611bec565b9250828202611f2281611bec565b91508282048414831517611f3957611f38611ed2565b5b5092915050565b7f4e487b71000000000000000000000000000000000000000000000000000000005f52601260045260245ffd5b5f611f7782611bec565b9150611f8283611bec565b925082611f9257611f91611f40565b5b828204905092915050565b5f611fa782611bec565b9150611fb283611bec565b9250828203905081811115611fca57611fc9611ed2565b5b92915050565b5f606082019050611fe35f830186611aec565b611ff06020830185611c90565b611ffd6040830184611c90565b949350505050565b5f61200f82611bec565b915061201a83611bec565b925082820190508082111561203257612031611ed2565b5b92915050565b7f4164647265737320697320616c726561647920626c61636b6c697374656400005f82015250565b5f61206c601e83611b1e565b915061207782612038565b602082019050919050565b5f6020820190508181035f83015261209981612060565b9050919050565b5f8160011c9050919050565b5f808291508390505b60018511156120f5578086048111156120d1576120d0611ed2565b5b60018516156120e05780820291505b80810290506120ee856120a0565b94506120b5565b94509492505050565b5f8261210d57600190506121c8565b8161211a575f90506121c8565b8160018114612130576002811461213a57612169565b60019150506121c8565b60ff84111561214c5761214b611ed2565b5b8360020a91508482111561216357612162611ed2565b5b506121c8565b5060208310610133831016604e8410600b841016171561219e5782820a90508381111561219957612198611ed2565b5b6121c8565b6121ab84848460016120ac565b925090508184048111156121c2576121c1611ed2565b5b81810290505b9392505050565b5f6121d982611bec565b91506121e483611d08565b92506122117fffffffffffffffffffffffffffffffffffffffffffffffffffffffffffffffff84846120fe565b905092915050565b7f45524332304361707065643a20636170206578636565646564000000000000005f82015250565b5f61224d601983611b1e565b915061225882612219565b602082019050919050565b5f6020820190508181035f83015261227a81612241565b905091905056fea26469706673582212201875850ac6e84d02fa12d4a104c50c52c6dce4a2630055c3eeca8256d1f52bcb64736f6c63430008170033","linkReferences":{}},"methodIdentifiers":{"allowance(address,address)":"dd62ed3e","approve(address,uint256)":"095ea7b3","balanceOf(address)":"70a08231","blacklist(address)":"f9f92be4","cap()":"355274ea","decimals()":"313ce567","getTaxFeeRecipient()":"03073dfc","getTransferTaxBps()":"743bfe70","isBlacklisted(address)":"fe575a87","mint(address,uint256)":"40c10f19","name()":"06fdde03","owner()":"8da5cb5b","pause()":"8456cb59","paused()":"5c975abb","renounceOwnership()":"715018a6","symbol()":"95d89b41","totalSupply()":"18160ddd","transfer(address,uint256)":"a9059cbb","transferFrom(address,address,uint256)":"23b872dd","transferOwnership(address)":"f2fde38b","unblacklist(address)":"75e3661e","unpause()":"3f4ba83a","updateTaxFeeRecipient(address)":"8baace25"},"id":42}