{"abi":[{"type":"constructor","inputs":[{"name":"name_","type":"string","internalType":"string"},{"name":"symbol_","type":"string","internalType":"string"},{"name":"decimals_","type":"uint8","internalType":"uint8"},{"name":"totalSupply_","type":"uint256","internalType":"uint256"},{"name":"cap_","type":"uint256","internalType":"uint256"},{"name":"serviceFeeReceiver_","type":"address","internalType":"address"},{"name":"serviceFee_","type":"uint256","internalType":"uint256"},{"name":"transferTaxBps_","type":"uint256","internalType":"uint256"},{"name":"taxFeeRecipient_","type":"address","internalType":"address"}],"stateMutability":"payable"},{"type":"function","name":"allowance","inputs":[{"name":"owner","type":"address","internalType":"address"},{"name":"spender","type":"address","internalType":"address"}],"outputs":[{"name":"","type":"uint256","internalType":"uint256"}],"stateMutability":"view"},{"type":"function","name":"approve","inputs":[{"name":"spender","type":"address","internalType":"address"},{"name":"value","type":"uint256","internalType":"uint256"}],"outputs":[{"name":"","type":"bool","internalType":"bool"}],"stateMutability":"nonpayable"},{"type":"function","name":"balanceOf","inputs":[{"name":"account","type":"address","internalType":"address"}],"outputs":[{"name":"","type":"uint256","internalType":"uint256"}],"stateMutability":"view"},{"type":"function","name":"burn","inputs":[{"name":"value","type":"uint256","internalType":"uint256"}],"outputs":[],"stateMutability":"nonpayable"},{"type":"function","name":"burnFrom","inputs":[{"name":"account","type":"address","internalType":"address"},{"name":"value","type":"uint256","internalType":"uint256"}],"outputs":[],"stateMutability":"nonpayable"},{"type":"function","name":"cap","inputs":[],"outputs":[{"name":"","type":"uint256","internalType":"uint256"}],"stateMutability":"view"},{"type":"function","name":"decimals","inputs":[],"outputs":[{"name":"","type":"uint8","internalType":"uint8"}],"stateMutability":"view"},{"type":"function","name":"getTaxFeeRecipient","inputs":[],"outputs":[{"name":"","type":"address","internalType":"address"}],"stateMutability":"view"},{"type":"function","name":"getTransferTaxBps","inputs":[],"outputs":[{"name":"","type":"uint256","internalType":"uint256"}],"stateMutability":"view"},{"type":"function","name":"mint","inputs":[{"name":"to","type":"address","internalType":"address"},{"name":"amount","type":"uint256","internalType":"uint256"}],"outputs":[],"stateMutability":"nonpayable"},{"type":"function","name":"name","inputs":[],"outputs":[{"name":"","type":"string","internalType":"string"}],"stateMutability":"view"},{"type":"function","name":"owner","inputs":[],"outputs":[{"name":"","type":"address","internalType":"address"}],"stateMutability":"view"},{"type":"function","name":"pause","inputs":[],"outputs":[],"stateMutability":"nonpayable"},{"type":"function","name":"paused","inputs":[],"outputs":[{"name":"","type":"bool","internalType":"bool"}],"stateMutability":"view"},{"type":"function","name":"renounceOwnership","inputs":[],"outputs":[],"stateMutability":"nonpayable"},{"type":"function","name":"symbol","inputs":[],"outputs":[{"name":"","type":"string","internalType":"string"}],"stateMutability":"view"},{"type":"function","name":"totalSupply","inputs":[],"outputs":[{"name":"","type":"uint256","internalType":"uint256"}],"stateMutability":"view"},{"type":"function","name":"transfer","inputs":[{"name":"to","type":"address","internalType":"address"},{"name":"value","type":"uint256","internalType":"uint256"}],"outputs":[{"name":"","type":"bool","internalType":"bool"}],"stateMutability":"nonpayable"},{"type":"function","name":"transferFrom","inputs":[{"name":"from","type":"address","internalType":"address"},{"name":"to","type":"address","internalType":"address"},{"name":"value","type":"uint256","internalType":"uint256"}],"outputs":[{"name":"","type":"bool","internalType":"bool"}],"stateMutability":"nonpayable"},{"type":"function","name":"transferOwnership","inputs":[{"name":"newOwner","type":"address","internalType":"address"}],"outputs":[],"stateMutability":"nonpayable"},{"type":"function","name":"unpause","inputs":[],"outputs":[],"stateMutability":"nonpayable"},{"type":"function","name":"updateTaxFeeRecipient","inputs":[{"name":"newTaxFeeRecipient","type":"address","internalType":"address"}],"outputs":[],"stateMutability":"nonpayable"},{"type":"event","name":"Approval","inputs":[{"name":"owner","type":"address","indexed":true,"internalType":"address"},{"name":"spender","type":"address","indexed":true,"internalType":"address"},{"name":"value","type":"uint256","indexed":false,"internalType":"uint256"}],"anonymous":false},{"type":"event","name":"OwnershipTransferred","inputs":[{"name":"previousOwner","type":"address","indexed":true,"internalType":"address"},{"name":"newOwner","type":"address","indexed":true,"internalType":"address"}],"anonymous":false},{"type":"event","name":"Paused","inputs":[{"name":"account","type":"address","indexed":false,"internalType":"address"}],"anonymous":false},{"type":"event","name":"TaxFeeRecipientUpdated","inputs":[{"name":"newTaxFeeRecipient","type":"address","indexed":false,"internalType":"address"}],"anonymous":false},{"type":"event","name":"Transfer","inputs":[{"name":"from","type":"address","indexed":true,"internalType":"address"},{"name":"to","type":"address","indexed":true,"internalType":"address"},{"name":"value","type":"uint256","indexed":false,"internalType":"uint256"}],"anonymous":false},{"type":"event","name":"Unpaused","inputs":[{"name":"account","type":"address","indexed":false,"internalType":"address"}],"anonymous":false},{"type":"error","name":"ERC20InsufficientAllowance","inputs":[{"name":"spender","type":"address","internalType":"address"},{"name":"allowance","type":"uint256","internalType":"uint256"},{"name":"needed","type":"uint256","internalType":"uint256"}]},{"type":"error","name":"ERC20InsufficientBalance","inputs":[{"name":"sender","type":"address","internalType":"address"},{"name":"balance","type":"uint256","internalType":"uint256"},{"name":"needed","type":"uint256","internalType":"uint256"}]},{"type":"error","name":"ERC20InvalidApprover","inputs":[{"name":"approver","type":"address","internalType":"address"}]},{"type":"error","name":"ERC20InvalidReceiver","inputs":[{"name":"receiver","type":"address","internalType":"address"}]},{"type":"error","name":"ERC20InvalidSender","inputs":[{"name":"sender","type":"address","internalType":"address"}]},{"type":"error","name":"ERC20InvalidSpender","inputs":[{"name":"spender","type":"address","internalType":"address"}]},{"type":"error","name":"EnforcedPause","inputs":[]},{"type":"error","name":"ExpectedPause","inputs":[]},{"type":"error","name":"OwnableInvalidOwner","inputs":[{"name":"owner","type":"address","internalType":"address"}]},{"type":"error","name":"OwnableUnauthorizedAccount","inputs":[{"name":"account","type":"address","internalType":"address"}]}],"bytecode":{"object":"0x6080604052604051620030b7380380620030b7833981810160405281019062000029919062000afc565b335f73ffffffffffffffffffffffffffffffffffffffff168173ffffffffffffffffffffffffffffffffffffffff16036200009d575f6040517f1e4fbdf700000000000000000000000000000000000000000000000000000000815260040162000094919062000c24565b60405180910390fd5b620000ae81620003d960201b60201c565b505f8060146101000a81548160ff0219169083151502179055508860049081620000d9919062000e6d565b508760059081620000eb919062000e6d565b508660065f6101000a81548160ff021916908360ff160217905550816008819055508060095f6101000a81548173ffffffffffffffffffffffffffffffffffffffff021916908373ffffffffffffffffffffffffffffffffffffffff1602179055505f851162000192576040517f08c379a0000000000000000000000000000000000000000000000000000000008152600401620001899062000faf565b60405180910390fd5b84600781905550620001a96200049a60201b60201c565b600a620001b791906200114c565b620001c7620004af60201b60201c565b620001d391906200119c565b86111562000218576040517f08c379a00000000000000000000000000000000000000000000000000000000081526004016200020f9062001234565b60405180910390fd5b823410156200025e576040517f08c379a00000000000000000000000000000000000000000000000000000000081526004016200025590620012a2565b60405180910390fd5b5f73ffffffffffffffffffffffffffffffffffffffff168473ffffffffffffffffffffffffffffffffffffffff1603620002cf576040517f08c379a0000000000000000000000000000000000000000000000000000000008152600401620002c69062001310565b60405180910390fd5b5f8473ffffffffffffffffffffffffffffffffffffffff1684604051620002f69062001361565b5f6040518083038185875af1925050503d805f811462000332576040519150601f19603f3d011682016040523d82523d5f602084013e62000337565b606091505b50509050806200037e576040517f08c379a00000000000000000000000000000000000000000000000000000000081526004016200037590620013c5565b60405180910390fd5b620003c962000392620004b860201b60201c565b620003a26200049a60201b60201c565b600a620003b091906200114c565b89620003bd91906200119c565b620004df60201b60201c565b5050505050505050505062001486565b5f805f9054906101000a900473ffffffffffffffffffffffffffffffffffffffff169050815f806101000a81548173ffffffffffffffffffffffffffffffffffffffff021916908373ffffffffffffffffffffffffffffffffffffffff1602179055508173ffffffffffffffffffffffffffffffffffffffff168173ffffffffffffffffffffffffffffffffffffffff167f8be0079c531659141344cd1fd0a4f28419497f9722a3daafe3b4186f6b6457e060405160405180910390a35050565b5f60065f9054906101000a900460ff16905090565b5f600754905090565b5f805f9054906101000a900473ffffffffffffffffffffffffffffffffffffffff16905090565b620004ef6200049a60201b60201c565b600a620004fd91906200114c565b6200050d620004af60201b60201c565b6200051991906200119c565b816200052a6200060460201b60201c565b620005369190620013e5565b11156200057a576040517f08c379a0000000000000000000000000000000000000000000000000000000008152600401620005719062001234565b60405180910390fd5b5f73ffffffffffffffffffffffffffffffffffffffff168273ffffffffffffffffffffffffffffffffffffffff1603620005ed575f6040517fec442f05000000000000000000000000000000000000000000000000000000008152600401620005e4919062000c24565b60405180910390fd5b620006005f83836200060d60201b60201c565b5050565b5f600354905090565b6200061d6200084460201b60201c565b5f73ffffffffffffffffffffffffffffffffffffffff168373ffffffffffffffffffffffffffffffffffffffff160362000671578060035f828254620006649190620013e5565b9250508190555062000744565b5f60015f8573ffffffffffffffffffffffffffffffffffffffff1673ffffffffffffffffffffffffffffffffffffffff1681526020019081526020015f2054905081811015620006fe578381836040517fe450d38c000000000000000000000000000000000000000000000000000000008152600401620006f59392919062001430565b60405180910390fd5b81810360015f8673ffffffffffffffffffffffffffffffffffffffff1673ffffffffffffffffffffffffffffffffffffffff1681526020019081526020015f2081905550505b5f73ffffffffffffffffffffffffffffffffffffffff168273ffffffffffffffffffffffffffffffffffffffff16036200078d578060035f8282540392505081905550620007d8565b8060015f8473ffffffffffffffffffffffffffffffffffffffff1673ffffffffffffffffffffffffffffffffffffffff1681526020019081526020015f205f82825401925050819055505b8173ffffffffffffffffffffffffffffffffffffffff168373ffffffffffffffffffffffffffffffffffffffff167fddf252ad1be2c89b69c2b068fc378daa952ba7f163c4a11628f55a4df523b3ef836040516200083791906200146b565b60405180910390a3505050565b620008546200088e60201b60201c565b156200088c576040517fd93c066500000000000000000000000000000000000000000000000000000000815260040160405180910390fd5b565b5f8060149054906101000a900460ff16905090565b5f604051905090565b5f80fd5b5f80fd5b5f80fd5b5f80fd5b5f601f19601f8301169050919050565b7f4e487b71000000000000000000000000000000000000000000000000000000005f52604160045260245ffd5b6200090482620008bc565b810181811067ffffffffffffffff82111715620009265762000925620008cc565b5b80604052505050565b5f6200093a620008a3565b9050620009488282620008f9565b919050565b5f67ffffffffffffffff8211156200096a5762000969620008cc565b5b6200097582620008bc565b9050602081019050919050565b5f5b83811015620009a157808201518184015260208101905062000984565b5f8484015250505050565b5f620009c2620009bc846200094d565b6200092f565b905082815260208101848484011115620009e157620009e0620008b8565b5b620009ee84828562000982565b509392505050565b5f82601f83011262000a0d5762000a0c620008b4565b5b815162000a1f848260208601620009ac565b91505092915050565b5f60ff82169050919050565b62000a3f8162000a28565b811462000a4a575f80fd5b50565b5f8151905062000a5d8162000a34565b92915050565b5f819050919050565b62000a778162000a63565b811462000a82575f80fd5b50565b5f8151905062000a958162000a6c565b92915050565b5f73ffffffffffffffffffffffffffffffffffffffff82169050919050565b5f62000ac68262000a9b565b9050919050565b62000ad88162000aba565b811462000ae3575f80fd5b50565b5f8151905062000af68162000acd565b92915050565b5f805f805f805f805f6101208a8c03121562000b1d5762000b1c620008ac565b5b5f8a015167ffffffffffffffff81111562000b3d5762000b3c620008b0565b5b62000b4b8c828d01620009f6565b99505060208a015167ffffffffffffffff81111562000b6f5762000b6e620008b0565b5b62000b7d8c828d01620009f6565b985050604062000b908c828d0162000a4d565b975050606062000ba38c828d0162000a85565b965050608062000bb68c828d0162000a85565b95505060a062000bc98c828d0162000ae6565b94505060c062000bdc8c828d0162000a85565b93505060e062000bef8c828d0162000a85565b92505061010062000c038c828d0162000ae6565b9150509295985092959850929598565b62000c1e8162000aba565b82525050565b5f60208201905062000c395f83018462000c13565b92915050565b5f81519050919050565b7f4e487b71000000000000000000000000000000000000000000000000000000005f52602260045260245ffd5b5f600282049050600182168062000c8e57607f821691505b60208210810362000ca45762000ca362000c49565b5b50919050565b5f819050815f5260205f209050919050565b5f6020601f8301049050919050565b5f82821b905092915050565b5f6008830262000d087fffffffffffffffffffffffffffffffffffffffffffffffffffffffffffffffff8262000ccb565b62000d14868362000ccb565b95508019841693508086168417925050509392505050565b5f819050919050565b5f62000d5562000d4f62000d498462000a63565b62000d2c565b62000a63565b9050919050565b5f819050919050565b62000d708362000d35565b62000d8862000d7f8262000d5c565b84845462000cd7565b825550505050565b5f90565b62000d9e62000d90565b62000dab81848462000d65565b505050565b5b8181101562000dd25762000dc65f8262000d94565b60018101905062000db1565b5050565b601f82111562000e215762000deb8162000caa565b62000df68462000cbc565b8101602085101562000e06578190505b62000e1e62000e158562000cbc565b83018262000db0565b50505b505050565b5f82821c905092915050565b5f62000e435f198460080262000e26565b1980831691505092915050565b5f62000e5d838362000e32565b9150826002028217905092915050565b62000e788262000c3f565b67ffffffffffffffff81111562000e945762000e93620008cc565b5b62000ea0825462000c76565b62000ead82828562000dd6565b5f60209050601f83116001811462000ee3575f841562000ece578287015190505b62000eda858262000e50565b86555062000f49565b601f19841662000ef38662000caa565b5f5b8281101562000f1c5784890151825560018201915060208501945060208101905062000ef5565b8683101562000f3c578489015162000f38601f89168262000e32565b8355505b6001600288020188555050505b505050505050565b5f82825260208201905092915050565b7f4361702073686f756c642062652067726561746572207468616e2030000000005f82015250565b5f62000f97601c8362000f51565b915062000fa48262000f61565b602082019050919050565b5f6020820190508181035f83015262000fc88162000f89565b9050919050565b7f4e487b71000000000000000000000000000000000000000000000000000000005f52601160045260245ffd5b5f8160011c9050919050565b5f808291508390505b6001851115620010595780860481111562001031576200103062000fcf565b5b6001851615620010415780820291505b8081029050620010518562000ffc565b945062001011565b94509492505050565b5f8262001073576001905062001145565b8162001082575f905062001145565b81600181146200109b5760028114620010a657620010dc565b600191505062001145565b60ff841115620010bb57620010ba62000fcf565b5b8360020a915084821115620010d557620010d462000fcf565b5b5062001145565b5060208310610133831016604e8410600b8410161715620011165782820a90508381111562001110576200110f62000fcf565b5b62001145565b62001125848484600162001008565b925090508184048111156200113f576200113e62000fcf565b5b81810290505b9392505050565b5f620011588262000a63565b9150620011658362000a28565b9250620011947fffffffffffffffffffffffffffffffffffffffffffffffffffffffffffffffff848462001062565b905092915050565b5f620011a88262000a63565b9150620011b58362000a63565b9250828202620011c58162000a63565b91508282048414831517620011df57620011de62000fcf565b5b5092915050565b7f45524332304361707065643a20636170206578636565646564000000000000005f82015250565b5f6200121c60198362000f51565b91506200122982620011e6565b602082019050919050565b5f6020820190508181035f8301526200124d816200120e565b9050919050565b7f496e73756666696369656e742066656520616d6f756e742073656e74000000005f82015250565b5f6200128a601c8362000f51565b9150620012978262001254565b602082019050919050565b5f6020820190508181035f830152620012bb816200127c565b9050919050565b7f496e76616c6964206665652072656365697665722061646472657373000000005f82015250565b5f620012f8601c8362000f51565b91506200130582620012c2565b602082019050919050565b5f6020820190508181035f8301526200132981620012ea565b9050919050565b5f81905092915050565b50565b5f6200134a5f8362001330565b915062001357826200133a565b5f82019050919050565b5f6200136d826200133d565b9150819050919050565b7f466565207472616e73666572206661696c6564000000000000000000000000005f82015250565b5f620013ad60138362000f51565b9150620013ba8262001377565b602082019050919050565b5f6020820190508181035f830152620013de816200139f565b9050919050565b5f620013f18262000a63565b9150620013fe8362000a63565b925082820190508082111562001419576200141862000fcf565b5b92915050565b6200142a8162000a63565b82525050565b5f606082019050620014455f83018662000c13565b6200145460208301856200141f565b6200146360408301846200141f565b949350505050565b5f602082019050620014805f8301846200141f565b92915050565b611c2380620014945f395ff3fe608060405234801561000f575f80fd5b5060043610610140575f3560e01c806370a08231116100b65780638baace251161007a5780638baace25146103185780638da5cb5b1461033457806395d89b4114610352578063a9059cbb14610370578063dd62ed3e146103a0578063f2fde38b146103d057610140565b806370a082311461029a578063715018a6146102ca578063743bfe70146102d457806379cc6790146102f25780638456cb591461030e57610140565b8063313ce56711610108578063313ce567146101fe578063355274ea1461021c5780633f4ba83a1461023a57806340c10f191461024457806342966c68146102605780635c975abb1461027c57610140565b806303073dfc1461014457806306fdde0314610162578063095ea7b31461018057806318160ddd146101b057806323b872dd146101ce575b5f80fd5b61014c6103ec565b6040516101599190611574565b60405180910390f35b61016a610414565b6040516101779190611617565b60405180910390f35b61019a60048036038101906101959190611698565b6104a4565b6040516101a791906116f0565b60405180910390f35b6101b86104c6565b6040516101c59190611718565b60405180910390f35b6101e860048036038101906101e39190611731565b6104cf565b6040516101f591906116f0565b60405180910390f35b6102066104fd565b604051610213919061179c565b60405180910390f35b610224610512565b6040516102319190611718565b60405180910390f35b61024261051b565b005b61025e60048036038101906102599190611698565b61052d565b005b61027a600480360381019061027591906117b5565b610543565b005b610284610557565b60405161029191906116f0565b60405180910390f35b6102b460048036038101906102af91906117e0565b61056c565b6040516102c19190611718565b60405180910390f35b6102d26105b2565b005b6102dc6105c5565b6040516102e99190611718565b60405180910390f35b61030c60048036038101906103079190611698565b6105ce565b005b6103166105ee565b005b610332600480360381019061032d91906117e0565b610600565b005b61033c610682565b6040516103499190611574565b60405180910390f35b61035a6106a9565b6040516103679190611617565b60405180910390f35b61038a60048036038101906103859190611698565b610739565b60405161039791906116f0565b60405180910390f35b6103ba60048036038101906103b5919061180b565b610a9c565b6040516103c79190611718565b60405180910390f35b6103ea60048036038101906103e591906117e0565b610b1e565b005b5f60095f9054906101000a900473ffffffffffffffffffffffffffffffffffffffff16905090565b60606004805461042390611876565b80601f016020809104026020016040519081016040528092919081815260200182805461044f90611876565b801561049a5780601f106104715761010080835404028352916020019161049a565b820191905f5260205f20905b81548152906001019060200180831161047d57829003601f168201915b5050505050905090565b5f806104ae610ba2565b90506104bb818585610ba9565b600191505092915050565b5f600354905090565b5f806104d9610ba2565b90506104e6858285610bbb565b6104f1858585610c4e565b60019150509392505050565b5f60065f9054906101000a900460ff16905090565b5f600754905090565b610523610d3e565b61052b610dc5565b565b610535610d3e565b61053f8282610e26565b5050565b61055461054e610ba2565b82610f1f565b50565b5f8060149054906101000a900460ff16905090565b5f60015f8373ffffffffffffffffffffffffffffffffffffffff1673ffffffffffffffffffffffffffffffffffffffff1681526020019081526020015f20549050919050565b6105ba610d3e565b6105c35f610f9e565b565b5f600854905090565b6105e0826105da610ba2565b83610bbb565b6105ea8282610f1f565b5050565b6105f6610d3e565b6105fe61105f565b565b610608610d3e565b8060095f6101000a81548173ffffffffffffffffffffffffffffffffffffffff021916908373ffffffffffffffffffffffffffffffffffffffff1602179055507f3ca9233bd3849737ab1049144180bc625db2d51ca2c5ce949e7209eb32faa3a2816040516106779190611574565b60405180910390a150565b5f805f9054906101000a900473ffffffffffffffffffffffffffffffffffffffff16905090565b6060600580546106b890611876565b80601f01602080910402602001604051908101604052809291908181526020018280546106e490611876565b801561072f5780601f106107065761010080835404028352916020019161072f565b820191905f5260205f20905b81548152906001019060200180831161071257829003601f168201915b5050505050905090565b5f80610743610ba2565b90505f6127106008548561075791906118d3565b6107619190611941565b90505f81856107709190611971565b90508460015f8573ffffffffffffffffffffffffffffffffffffffff1673ffffffffffffffffffffffffffffffffffffffff1681526020019081526020015f20541015610835578260015f8573ffffffffffffffffffffffffffffffffffffffff1673ffffffffffffffffffffffffffffffffffffffff1681526020019081526020015f2054866040517fe450d38c00000000000000000000000000000000000000000000000000000000815260040161082c939291906119a4565b60405180910390fd5b8460015f8573ffffffffffffffffffffffffffffffffffffffff1673ffffffffffffffffffffffffffffffffffffffff1681526020019081526020015f205f8282546108819190611971565b925050819055508060015f8873ffffffffffffffffffffffffffffffffffffffff1673ffffffffffffffffffffffffffffffffffffffff1681526020019081526020015f205f8282546108d491906119d9565b925050819055505f73ffffffffffffffffffffffffffffffffffffffff1660095f9054906101000a900473ffffffffffffffffffffffffffffffffffffffff1673ffffffffffffffffffffffffffffffffffffffff16146109a4578160015f60095f9054906101000a900473ffffffffffffffffffffffffffffffffffffffff1673ffffffffffffffffffffffffffffffffffffffff1673ffffffffffffffffffffffffffffffffffffffff1681526020019081526020015f205f82825461099c91906119d9565b925050819055505b8573ffffffffffffffffffffffffffffffffffffffff168373ffffffffffffffffffffffffffffffffffffffff167fddf252ad1be2c89b69c2b068fc378daa952ba7f163c4a11628f55a4df523b3ef83604051610a019190611718565b60405180910390a360095f9054906101000a900473ffffffffffffffffffffffffffffffffffffffff1673ffffffffffffffffffffffffffffffffffffffff168373ffffffffffffffffffffffffffffffffffffffff167fddf252ad1be2c89b69c2b068fc378daa952ba7f163c4a11628f55a4df523b3ef84604051610a879190611718565b60405180910390a36001935050505092915050565b5f60025f8473ffffffffffffffffffffffffffffffffffffffff1673ffffffffffffffffffffffffffffffffffffffff1681526020019081526020015f205f8373ffffffffffffffffffffffffffffffffffffffff1673ffffffffffffffffffffffffffffffffffffffff1681526020019081526020015f2054905092915050565b610b26610d3e565b5f73ffffffffffffffffffffffffffffffffffffffff168173ffffffffffffffffffffffffffffffffffffffff1603610b96575f6040517f1e4fbdf7000000000000000000000000000000000000000000000000000000008152600401610b8d9190611574565b60405180910390fd5b610b9f81610f9e565b50565b5f33905090565b610bb683838360016110c1565b505050565b5f610bc68484610a9c565b90507fffffffffffffffffffffffffffffffffffffffffffffffffffffffffffffffff811015610c485781811015610c39578281836040517ffb8f41b2000000000000000000000000000000000000000000000000000000008152600401610c30939291906119a4565b60405180910390fd5b610c4784848484035f6110c1565b5b50505050565b5f73ffffffffffffffffffffffffffffffffffffffff168373ffffffffffffffffffffffffffffffffffffffff1603610cbe575f6040517f96c6fd1e000000000000000000000000000000000000000000000000000000008152600401610cb59190611574565b60405180910390fd5b5f73ffffffffffffffffffffffffffffffffffffffff168273ffffffffffffffffffffffffffffffffffffffff1603610d2e575f6040517fec442f05000000000000000000000000000000000000000000000000000000008152600401610d259190611574565b60405180910390fd5b610d39838383611290565b505050565b610d46610ba2565b73ffffffffffffffffffffffffffffffffffffffff16610d64610682565b73ffffffffffffffffffffffffffffffffffffffff1614610dc357610d87610ba2565b6040517f118cdaa7000000000000000000000000000000000000000000000000000000008152600401610dba9190611574565b60405180910390fd5b565b610dcd6114b4565b5f8060146101000a81548160ff0219169083151502179055507f5db9ee0a495bf2e6ff9c91a7834c1ba4fdd244a5e8aa4e537bd38aeae4b073aa610e0f610ba2565b604051610e1c9190611574565b60405180910390a1565b610e2e6104fd565b600a610e3a9190611b3b565b610e42610512565b610e4c91906118d3565b81610e556104c6565b610e5f91906119d9565b1115610ea0576040517f08c379a0000000000000000000000000000000000000000000000000000000008152600401610e9790611bcf565b60405180910390fd5b5f73ffffffffffffffffffffffffffffffffffffffff168273ffffffffffffffffffffffffffffffffffffffff1603610f10575f6040517fec442f05000000000000000000000000000000000000000000000000000000008152600401610f079190611574565b60405180910390fd5b610f1b5f8383611290565b5050565b5f73ffffffffffffffffffffffffffffffffffffffff168273ffffffffffffffffffffffffffffffffffffffff1603610f8f575f6040517f96c6fd1e000000000000000000000000000000000000000000000000000000008152600401610f869190611574565b60405180910390fd5b610f9a825f83611290565b5050565b5f805f9054906101000a900473ffffffffffffffffffffffffffffffffffffffff169050815f806101000a81548173ffffffffffffffffffffffffffffffffffffffff021916908373ffffffffffffffffffffffffffffffffffffffff1602179055508173ffffffffffffffffffffffffffffffffffffffff168173ffffffffffffffffffffffffffffffffffffffff167f8be0079c531659141344cd1fd0a4f28419497f9722a3daafe3b4186f6b6457e060405160405180910390a35050565b6110676114f4565b60015f60146101000a81548160ff0219169083151502179055507f62e78cea01bee320cd4e420270b5ea74000d11b0c9f74754ebdbfc544b05a2586110aa610ba2565b6040516110b79190611574565b60405180910390a1565b5f73ffffffffffffffffffffffffffffffffffffffff168473ffffffffffffffffffffffffffffffffffffffff1603611131575f6040517fe602df050000000000000000000000000000000000000000000000000000000081526004016111289190611574565b60405180910390fd5b5f73ffffffffffffffffffffffffffffffffffffffff168373ffffffffffffffffffffffffffffffffffffffff16036111a1575f6040517f94280d620000000000000000000000000000000000000000000000000000000081526004016111989190611574565b60405180910390fd5b8160025f8673ffffffffffffffffffffffffffffffffffffffff1673ffffffffffffffffffffffffffffffffffffffff1681526020019081526020015f205f8573ffffffffffffffffffffffffffffffffffffffff1673ffffffffffffffffffffffffffffffffffffffff1681526020019081526020015f2081905550801561128a578273ffffffffffffffffffffffffffffffffffffffff168473ffffffffffffffffffffffffffffffffffffffff167f8c5be1e5ebec7d5bd14f71427d1e84f3dd0314c0f7b2291e5b200ac8c7c3b925846040516112819190611718565b60405180910390a35b50505050565b6112986114f4565b5f73ffffffffffffffffffffffffffffffffffffffff168373ffffffffffffffffffffffffffffffffffffffff16036112e8578060035f8282546112dc91906119d9565b925050819055506113b8565b5f60015f8573ffffffffffffffffffffffffffffffffffffffff1673ffffffffffffffffffffffffffffffffffffffff1681526020019081526020015f2054905081811015611372578381836040517fe450d38c000000000000000000000000000000000000000000000000000000008152600401611369939291906119a4565b60405180910390fd5b81810360015f8673ffffffffffffffffffffffffffffffffffffffff1673ffffffffffffffffffffffffffffffffffffffff1681526020019081526020015f2081905550505b5f73ffffffffffffffffffffffffffffffffffffffff168273ffffffffffffffffffffffffffffffffffffffff16036113ff578060035f828254039250508190555061144a565b8060015f8473ffffffffffffffffffffffffffffffffffffffff1673ffffffffffffffffffffffffffffffffffffffff1681526020019081526020015f205f82825401925050819055505b8173ffffffffffffffffffffffffffffffffffffffff168373ffffffffffffffffffffffffffffffffffffffff167fddf252ad1be2c89b69c2b068fc378daa952ba7f163c4a11628f55a4df523b3ef836040516114a79190611718565b60405180910390a3505050565b6114bc610557565b6114f2576040517f8dfc202b00000000000000000000000000000000000000000000000000000000815260040160405180910390fd5b565b6114fc610557565b15611533576040517fd93c066500000000000000000000000000000000000000000000000000000000815260040160405180910390fd5b565b5f73ffffffffffffffffffffffffffffffffffffffff82169050919050565b5f61155e82611535565b9050919050565b61156e81611554565b82525050565b5f6020820190506115875f830184611565565b92915050565b5f81519050919050565b5f82825260208201905092915050565b5f5b838110156115c45780820151818401526020810190506115a9565b5f8484015250505050565b5f601f19601f8301169050919050565b5f6115e98261158d565b6115f38185611597565b93506116038185602086016115a7565b61160c816115cf565b840191505092915050565b5f6020820190508181035f83015261162f81846115df565b905092915050565b5f80fd5b61164481611554565b811461164e575f80fd5b50565b5f8135905061165f8161163b565b92915050565b5f819050919050565b61167781611665565b8114611681575f80fd5b50565b5f813590506116928161166e565b92915050565b5f80604083850312156116ae576116ad611637565b5b5f6116bb85828601611651565b92505060206116cc85828601611684565b9150509250929050565b5f8115159050919050565b6116ea816116d6565b82525050565b5f6020820190506117035f8301846116e1565b92915050565b61171281611665565b82525050565b5f60208201905061172b5f830184611709565b92915050565b5f805f6060848603121561174857611747611637565b5b5f61175586828701611651565b935050602061176686828701611651565b925050604061177786828701611684565b9150509250925092565b5f60ff82169050919050565b61179681611781565b82525050565b5f6020820190506117af5f83018461178d565b92915050565b5f602082840312156117ca576117c9611637565b5b5f6117d784828501611684565b91505092915050565b5f602082840312156117f5576117f4611637565b5b5f61180284828501611651565b91505092915050565b5f806040838503121561182157611820611637565b5b5f61182e85828601611651565b925050602061183f85828601611651565b9150509250929050565b7f4e487b71000000000000000000000000000000000000000000000000000000005f52602260045260245ffd5b5f600282049050600182168061188d57607f821691505b6020821081036118a05761189f611849565b5b50919050565b7f4e487b71000000000000000000000000000000000000000000000000000000005f52601160045260245ffd5b5f6118dd82611665565b91506118e883611665565b92508282026118f681611665565b9150828204841483151761190d5761190c6118a6565b5b5092915050565b7f4e487b71000000000000000000000000000000000000000000000000000000005f52601260045260245ffd5b5f61194b82611665565b915061195683611665565b92508261196657611965611914565b5b828204905092915050565b5f61197b82611665565b915061198683611665565b925082820390508181111561199e5761199d6118a6565b5b92915050565b5f6060820190506119b75f830186611565565b6119c46020830185611709565b6119d16040830184611709565b949350505050565b5f6119e382611665565b91506119ee83611665565b9250828201905080821115611a0657611a056118a6565b5b92915050565b5f8160011c9050919050565b5f808291508390505b6001851115611a6157808604811115611a3d57611a3c6118a6565b5b6001851615611a4c5780820291505b8081029050611a5a85611a0c565b9450611a21565b94509492505050565b5f82611a795760019050611b34565b81611a86575f9050611b34565b8160018114611a9c5760028114611aa657611ad5565b6001915050611b34565b60ff841115611ab857611ab76118a6565b5b8360020a915084821115611acf57611ace6118a6565b5b50611b34565b5060208310610133831016604e8410600b8410161715611b0a5782820a905083811115611b0557611b046118a6565b5b611b34565b611b178484846001611a18565b92509050818404811115611b2e57611b2d6118a6565b5b81810290505b9392505050565b5f611b4582611665565b9150611b5083611781565b9250611b7d7fffffffffffffffffffffffffffffffffffffffffffffffffffffffffffffffff8484611a6a565b905092915050565b7f45524332304361707065643a20636170206578636565646564000000000000005f82015250565b5f611bb9601983611597565b9150611bc482611b85565b602082019050919050565b5f6020820190508181035f830152611be681611bad565b905091905056fea2646970667358221220e254c47ce73e7c3f32df563f55a3bb4b7f3f0cd719e777486807e3beb4768e3264736f6c63430008170033","linkReferences":{}},"methodIdentifiers":{"allowance(address,address)":"dd62ed3e","approve(address,uint256)":"095ea7b3","balanceOf(address)":"70a08231","burn(uint256)":"42966c68","burnFrom(address,uint256)":"79cc6790","cap()":"355274ea","decimals()":"313ce567","getTaxFeeRecipient()":"03073dfc","getTransferTaxBps()":"743bfe70","mint(address,uint256)":"40c10f19","name()":"06fdde03","owner()":"8da5cb5b","pause()":"8456cb59","paused()":"5c975abb","renounceOwnership()":"715018a6","symbol()":"95d89b41","totalSupply()":"18160ddd","transfer(address,uint256)":"a9059cbb","transferFrom(address,address,uint256)":"23b872dd","transferOwnership(address)":"f2fde38b","unpause()":"3f4ba83a","updateTaxFeeRecipient(address)":"8baace25"},"id":38}