{"abi":[{"type":"constructor","inputs":[{"name":"name_","type":"string","internalType":"string"},{"name":"symbol_","type":"string","internalType":"string"},{"name":"decimals_","type":"uint8","internalType":"uint8"},{"name":"totalSupply_","type":"uint256","internalType":"uint256"},{"name":"cap_","type":"uint256","internalType":"uint256"},{"name":"serviceFeeReceiver_","type":"address","internalType":"address"},{"name":"serviceFee_","type":"uint256","internalType":"uint256"},{"name":"transferTaxBps_","type":"uint256","internalType":"uint256"},{"name":"taxFeeRecipient_","type":"address","internalType":"address"}],"stateMutability":"payable"},{"type":"function","name":"allowance","inputs":[{"name":"owner","type":"address","internalType":"address"},{"name":"spender","type":"address","internalType":"address"}],"outputs":[{"name":"","type":"uint256","internalType":"uint256"}],"stateMutability":"view"},{"type":"function","name":"approve","inputs":[{"name":"spender","type":"address","internalType":"address"},{"name":"value","type":"uint256","internalType":"uint256"}],"outputs":[{"name":"","type":"bool","internalType":"bool"}],"stateMutability":"nonpayable"},{"type":"function","name":"balanceOf","inputs":[{"name":"account","type":"address","internalType":"address"}],"outputs":[{"name":"","type":"uint256","internalType":"uint256"}],"stateMutability":"view"},{"type":"function","name":"burn","inputs":[{"name":"value","type":"uint256","internalType":"uint256"}],"outputs":[],"stateMutability":"nonpayable"},{"type":"function","name":"burnFrom","inputs":[{"name":"account","type":"address","internalType":"address"},{"name":"value","type":"uint256","internalType":"uint256"}],"outputs":[],"stateMutability":"nonpayable"},{"type":"function","name":"cap","inputs":[],"outputs":[{"name":"","type":"uint256","internalType":"uint256"}],"stateMutability":"view"},{"type":"function","name":"decimals","inputs":[],"outputs":[{"name":"","type":"uint8","internalType":"uint8"}],"stateMutability":"view"},{"type":"function","name":"getTaxFeeRecipient","inputs":[],"outputs":[{"name":"","type":"address","internalType":"address"}],"stateMutability":"view"},{"type":"function","name":"getTransferTaxBps","inputs":[],"outputs":[{"name":"","type":"uint256","internalType":"uint256"}],"stateMutability":"view"},{"type":"function","name":"mint","inputs":[{"name":"to","type":"address","internalType":"address"},{"name":"amount","type":"uint256","internalType":"uint256"}],"outputs":[],"stateMutability":"nonpayable"},{"type":"function","name":"name","inputs":[],"outputs":[{"name":"","type":"string","internalType":"string"}],"stateMutability":"view"},{"type":"function","name":"owner","inputs":[],"outputs":[{"name":"","type":"address","internalType":"address"}],"stateMutability":"view"},{"type":"function","name":"pause","inputs":[],"outputs":[],"stateMutability":"nonpayable"},{"type":"function","name":"paused","inputs":[],"outputs":[{"name":"","type":"bool","internalType":"bool"}],"stateMutability":"view"},{"type":"function","name":"renounceOwnership","inputs":[],"outputs":[],"stateMutability":"nonpayable"},{"type":"function","name":"symbol","inputs":[],"outputs":[{"name":"","type":"string","internalType":"string"}],"stateMutability":"view"},{"type":"function","name":"totalSupply","inputs":[],"outputs":[{"name":"","type":"uint256","internalType":"uint256"}],"stateMutability":"view"},{"type":"function","name":"transfer","inputs":[{"name":"to","type":"address","internalType":"address"},{"name":"value","type":"uint256","internalType":"uint256"}],"outputs":[{"name":"","type":"bool","internalType":"bool"}],"stateMutability":"nonpayable"},{"type":"function","name":"transferFrom","inputs":[{"name":"from","type":"address","internalType":"address"},{"name":"to","type":"address","internalType":"address"},{"name":"value","type":"uint256","internalType":"uint256"}],"outputs":[{"name":"","type":"bool","internalType":"bool"}],"stateMutability":"nonpayable"},{"type":"function","name":"transferOwnership","inputs":[{"name":"newOwner","type":"address","internalType":"address"}],"outputs":[],"stateMutability":"nonpayable"},{"type":"function","name":"unpause","inputs":[],"outputs":[],"stateMutability":"nonpayable"},{"type":"function","name":"updateTaxFeeRecipient","inputs":[{"name":"newTaxFeeRecipient","type":"address","internalType":"address"}],"outputs":[],"stateMutability":"nonpayable"},{"type":"event","name":"Approval","inputs":[{"name":"owner","type":"address","indexed":true,"internalType":"address"},{"name":"spender","type":"address","indexed":true,"internalType":"address"},{"name":"value","type":"uint256","indexed":false,"internalType":"uint256"}],"anonymous":false},{"type":"event","name":"OwnershipTransferred","inputs":[{"name":"previousOwner","type":"address","indexed":true,"internalType":"address"},{"name":"newOwner","type":"address","indexed":true,"internalType":"address"}],"anonymous":false},{"type":"event","name":"Paused","inputs":[{"name":"account","type":"address","indexed":false,"internalType":"address"}],"anonymous":false},{"type":"event","name":"TaxFeeRecipientUpdated","inputs":[{"name":"newTaxFeeRecipient","type":"address","indexed":false,"internalType":"address"}],"anonymous":false},{"type":"event","name":"Transfer","inputs":[{"name":"from","type":"address","indexed":true,"internalType":"address"},{"name":"to","type":"address","indexed":true,"internalType":"address"},{"name":"value","type":"uint256","indexed":false,"internalType":"uint256"}],"anonymous":false},{"type":"event","name":"Unpaused","inputs":[{"name":"account","type":"address","indexed":false,"internalType":"address"}],"anonymous":false},{"type":"error","name":"ERC20InsufficientAllowance","inputs":[{"name":"spender","type":"address","internalType":"address"},{"name":"allowance","type":"uint256","internalType":"uint256"},{"name":"needed","type":"uint256","internalType":"uint256"}]},{"type":"error","name":"ERC20InsufficientBalance","inputs":[{"name":"sender","type":"address","internalType":"address"},{"name":"balance","type":"uint256","internalType":"uint256"},{"name":"needed","type":"uint256","internalType":"uint256"}]},{"type":"error","name":"ERC20InvalidApprover","inputs":[{"name":"approver","type":"address","internalType":"address"}]},{"type":"error","name":"ERC20InvalidReceiver","inputs":[{"name":"receiver","type":"address","internalType":"address"}]},{"type":"error","name":"ERC20InvalidSender","inputs":[{"name":"sender","type":"address","internalType":"address"}]},{"type":"error","name":"ERC20InvalidSpender","inputs":[{"name":"spender","type":"address","internalType":"address"}]},{"type":"error","name":"EnforcedPause","inputs":[]},{"type":"error","name":"ExpectedPause","inputs":[]},{"type":"error","name":"OwnableInvalidOwner","inputs":[{"name":"owner","type":"address","internalType":"address"}]},{"type":"error","name":"OwnableUnauthorizedAccount","inputs":[{"name":"account","type":"address","internalType":"address"}]}],"bytecode":{"object":"0x6080604052604051612f3c380380612f3c83398181016040528101906100259190610a5c565b335f73ffffffffffffffffffffffffffffffffffffffff168173ffffffffffffffffffffffffffffffffffffffff1603610096575f6040517f1e4fbdf700000000000000000000000000000000000000000000000000000000815260040161008d9190610b67565b60405180910390fd5b6100a5816103a660201b60201c565b505f5f60146101000a81548160ff02191690831515021790555088600490816100ce9190610d87565b5087600590816100de9190610d87565b508660065f6101000a81548160ff021916908360ff160217905550816008819055508060095f6101000a81548173ffffffffffffffffffffffffffffffffffffffff021916908373ffffffffffffffffffffffffffffffffffffffff1602179055505f8511610182576040517f08c379a000000000000000000000000000000000000000000000000000000000815260040161017990610eb0565b60405180910390fd5b8460078190555061019761046760201b60201c565b600a6101a3919061102a565b6101b161047c60201b60201c565b6101bb9190611074565b8611156101fd576040517f08c379a00000000000000000000000000000000000000000000000000000000081526004016101f4906110ff565b60405180910390fd5b82341015610240576040517f08c379a000000000000000000000000000000000000000000000000000000000815260040161023790611167565b60405180910390fd5b5f73ffffffffffffffffffffffffffffffffffffffff168473ffffffffffffffffffffffffffffffffffffffff16036102ae576040517f08c379a00000000000000000000000000000000000000000000000000000000081526004016102a5906111cf565b60405180910390fd5b5f8473ffffffffffffffffffffffffffffffffffffffff16846040516102d39061121a565b5f6040518083038185875af1925050503d805f811461030d576040519150601f19603f3d011682016040523d82523d5f602084013e610312565b606091505b5050905080610356576040517f08c379a000000000000000000000000000000000000000000000000000000000815260040161034d90611278565b60405180910390fd5b61039761036761048560201b60201c565b61037561046760201b60201c565b600a610381919061102a565b8961038c9190611074565b6104ac60201b60201c565b50505050505050505050611326565b5f5f5f9054906101000a900473ffffffffffffffffffffffffffffffffffffffff169050815f5f6101000a81548173ffffffffffffffffffffffffffffffffffffffff021916908373ffffffffffffffffffffffffffffffffffffffff1602179055508173ffffffffffffffffffffffffffffffffffffffff168173ffffffffffffffffffffffffffffffffffffffff167f8be0079c531659141344cd1fd0a4f28419497f9722a3daafe3b4186f6b6457e060405160405180910390a35050565b5f60065f9054906101000a900460ff16905090565b5f600754905090565b5f5f5f9054906101000a900473ffffffffffffffffffffffffffffffffffffffff16905090565b6104ba61046760201b60201c565b600a6104c6919061102a565b6104d461047c60201b60201c565b6104de9190611074565b816104ed6105bd60201b60201c565b6104f79190611296565b1115610538576040517f08c379a000000000000000000000000000000000000000000000000000000000815260040161052f906110ff565b60405180910390fd5b5f73ffffffffffffffffffffffffffffffffffffffff168273ffffffffffffffffffffffffffffffffffffffff16036105a8575f6040517fec442f0500000000000000000000000000000000000000000000000000000000815260040161059f9190610b67565b60405180910390fd5b6105b95f83836105c660201b60201c565b5050565b5f600354905090565b6105d46107f060201b60201c565b5f73ffffffffffffffffffffffffffffffffffffffff168373ffffffffffffffffffffffffffffffffffffffff1603610624578060035f8282546106189190611296565b925050819055506106f4565b5f60015f8573ffffffffffffffffffffffffffffffffffffffff1673ffffffffffffffffffffffffffffffffffffffff1681526020019081526020015f20549050818110156106ae578381836040517fe450d38c0000000000000000000000000000000000000000000000000000000081526004016106a5939291906112d8565b60405180910390fd5b81810360015f8673ffffffffffffffffffffffffffffffffffffffff1673ffffffffffffffffffffffffffffffffffffffff1681526020019081526020015f2081905550505b5f73ffffffffffffffffffffffffffffffffffffffff168273ffffffffffffffffffffffffffffffffffffffff160361073b578060035f8282540392505081905550610786565b8060015f8473ffffffffffffffffffffffffffffffffffffffff1673ffffffffffffffffffffffffffffffffffffffff1681526020019081526020015f205f82825401925050819055505b8173ffffffffffffffffffffffffffffffffffffffff168373ffffffffffffffffffffffffffffffffffffffff167fddf252ad1be2c89b69c2b068fc378daa952ba7f163c4a11628f55a4df523b3ef836040516107e3919061130d565b60405180910390a3505050565b6107fe61083760201b60201c565b15610835576040517fd93c066500000000000000000000000000000000000000000000000000000000815260040160405180910390fd5b565b5f5f60149054906101000a900460ff16905090565b5f604051905090565b5f5ffd5b5f5ffd5b5f5ffd5b5f5ffd5b5f601f19601f8301169050919050565b7f4e487b71000000000000000000000000000000000000000000000000000000005f52604160045260245ffd5b6108ab82610865565b810181811067ffffffffffffffff821117156108ca576108c9610875565b5b80604052505050565b5f6108dc61084c565b90506108e882826108a2565b919050565b5f67ffffffffffffffff82111561090757610906610875565b5b61091082610865565b9050602081019050919050565b8281835e5f83830152505050565b5f61093d610938846108ed565b6108d3565b90508281526020810184848401111561095957610958610861565b5b61096484828561091d565b509392505050565b5f82601f8301126109805761097f61085d565b5b815161099084826020860161092b565b91505092915050565b5f60ff82169050919050565b6109ae81610999565b81146109b8575f5ffd5b50565b5f815190506109c9816109a5565b92915050565b5f819050919050565b6109e1816109cf565b81146109eb575f5ffd5b50565b5f815190506109fc816109d8565b92915050565b5f73ffffffffffffffffffffffffffffffffffffffff82169050919050565b5f610a2b82610a02565b9050919050565b610a3b81610a21565b8114610a45575f5ffd5b50565b5f81519050610a5681610a32565b92915050565b5f5f5f5f5f5f5f5f5f6101208a8c031215610a7a57610a79610855565b5b5f8a015167ffffffffffffffff811115610a9757610a96610859565b5b610aa38c828d0161096c565b99505060208a015167ffffffffffffffff811115610ac457610ac3610859565b5b610ad08c828d0161096c565b9850506040610ae18c828d016109bb565b9750506060610af28c828d016109ee565b9650506080610b038c828d016109ee565b95505060a0610b148c828d01610a48565b94505060c0610b258c828d016109ee565b93505060e0610b368c828d016109ee565b925050610100610b488c828d01610a48565b9150509295985092959850929598565b610b6181610a21565b82525050565b5f602082019050610b7a5f830184610b58565b92915050565b5f81519050919050565b7f4e487b71000000000000000000000000000000000000000000000000000000005f52602260045260245ffd5b5f6002820490506001821680610bce57607f821691505b602082108103610be157610be0610b8a565b5b50919050565b5f819050815f5260205f209050919050565b5f6020601f8301049050919050565b5f82821b905092915050565b5f60088302610c437fffffffffffffffffffffffffffffffffffffffffffffffffffffffffffffffff82610c08565b610c4d8683610c08565b95508019841693508086168417925050509392505050565b5f819050919050565b5f610c88610c83610c7e846109cf565b610c65565b6109cf565b9050919050565b5f819050919050565b610ca183610c6e565b610cb5610cad82610c8f565b848454610c14565b825550505050565b5f5f905090565b610ccc610cbd565b610cd7818484610c98565b505050565b5b81811015610cfa57610cef5f82610cc4565b600181019050610cdd565b5050565b601f821115610d3f57610d1081610be7565b610d1984610bf9565b81016020851015610d28578190505b610d3c610d3485610bf9565b830182610cdc565b50505b505050565b5f82821c905092915050565b5f610d5f5f1984600802610d44565b1980831691505092915050565b5f610d778383610d50565b9150826002028217905092915050565b610d9082610b80565b67ffffffffffffffff811115610da957610da8610875565b5b610db38254610bb7565b610dbe828285610cfe565b5f60209050601f831160018114610def575f8415610ddd578287015190505b610de78582610d6c565b865550610e4e565b601f198416610dfd86610be7565b5f5b82811015610e2457848901518255600182019150602085019450602081019050610dff565b86831015610e415784890151610e3d601f891682610d50565b8355505b6001600288020188555050505b505050505050565b5f82825260208201905092915050565b7f4361702073686f756c642062652067726561746572207468616e2030000000005f82015250565b5f610e9a601c83610e56565b9150610ea582610e66565b602082019050919050565b5f6020820190508181035f830152610ec781610e8e565b9050919050565b7f4e487b71000000000000000000000000000000000000000000000000000000005f52601160045260245ffd5b5f8160011c9050919050565b5f5f8291508390505b6001851115610f5057808604811115610f2c57610f2b610ece565b5b6001851615610f3b5780820291505b8081029050610f4985610efb565b9450610f10565b94509492505050565b5f82610f685760019050611023565b81610f75575f9050611023565b8160018114610f8b5760028114610f9557610fc4565b6001915050611023565b60ff841115610fa757610fa6610ece565b5b8360020a915084821115610fbe57610fbd610ece565b5b50611023565b5060208310610133831016604e8410600b8410161715610ff95782820a905083811115610ff457610ff3610ece565b5b611023565b6110068484846001610f07565b9250905081840481111561101d5761101c610ece565b5b81810290505b9392505050565b5f611034826109cf565b915061103f83610999565b925061106c7fffffffffffffffffffffffffffffffffffffffffffffffffffffffffffffffff8484610f59565b905092915050565b5f61107e826109cf565b9150611089836109cf565b9250828202611097816109cf565b915082820484148315176110ae576110ad610ece565b5b5092915050565b7f45524332304361707065643a20636170206578636565646564000000000000005f82015250565b5f6110e9601983610e56565b91506110f4826110b5565b602082019050919050565b5f6020820190508181035f830152611116816110dd565b9050919050565b7f496e73756666696369656e742066656520616d6f756e742073656e74000000005f82015250565b5f611151601c83610e56565b915061115c8261111d565b602082019050919050565b5f6020820190508181035f83015261117e81611145565b9050919050565b7f496e76616c6964206665652072656365697665722061646472657373000000005f82015250565b5f6111b9601c83610e56565b91506111c482611185565b602082019050919050565b5f6020820190508181035f8301526111e6816111ad565b9050919050565b5f81905092915050565b50565b5f6112055f836111ed565b9150611210826111f7565b5f82019050919050565b5f611224826111fa565b9150819050919050565b7f466565207472616e73666572206661696c6564000000000000000000000000005f82015250565b5f611262601383610e56565b915061126d8261122e565b602082019050919050565b5f6020820190508181035f83015261128f81611256565b9050919050565b5f6112a0826109cf565b91506112ab836109cf565b92508282019050808211156112c3576112c2610ece565b5b92915050565b6112d2816109cf565b82525050565b5f6060820190506112eb5f830186610b58565b6112f860208301856112c9565b61130560408301846112c9565b949350505050565b5f6020820190506113205f8301846112c9565b92915050565b611c09806113335f395ff3fe608060405234801561000f575f5ffd5b5060043610610140575f3560e01c806370a08231116100b65780638baace251161007a5780638baace25146103185780638da5cb5b1461033457806395d89b4114610352578063a9059cbb14610370578063dd62ed3e146103a0578063f2fde38b146103d057610140565b806370a082311461029a578063715018a6146102ca578063743bfe70146102d457806379cc6790146102f25780638456cb591461030e57610140565b8063313ce56711610108578063313ce567146101fe578063355274ea1461021c5780633f4ba83a1461023a57806340c10f191461024457806342966c68146102605780635c975abb1461027c57610140565b806303073dfc1461014457806306fdde0314610162578063095ea7b31461018057806318160ddd146101b057806323b872dd146101ce575b5f5ffd5b61014c6103ec565b6040516101599190611574565b60405180910390f35b61016a610414565b60405161017791906115fd565b60405180910390f35b61019a6004803603810190610195919061167e565b6104a4565b6040516101a791906116d6565b60405180910390f35b6101b86104c6565b6040516101c591906116fe565b60405180910390f35b6101e860048036038101906101e39190611717565b6104cf565b6040516101f591906116d6565b60405180910390f35b6102066104fd565b6040516102139190611782565b60405180910390f35b610224610512565b60405161023191906116fe565b60405180910390f35b61024261051b565b005b61025e6004803603810190610259919061167e565b61052d565b005b61027a6004803603810190610275919061179b565b610543565b005b610284610557565b60405161029191906116d6565b60405180910390f35b6102b460048036038101906102af91906117c6565b61056c565b6040516102c191906116fe565b60405180910390f35b6102d26105b2565b005b6102dc6105c5565b6040516102e991906116fe565b60405180910390f35b61030c6004803603810190610307919061167e565b6105ce565b005b6103166105ee565b005b610332600480360381019061032d91906117c6565b610600565b005b61033c610682565b6040516103499190611574565b60405180910390f35b61035a6106a9565b60405161036791906115fd565b60405180910390f35b61038a6004803603810190610385919061167e565b610739565b60405161039791906116d6565b60405180910390f35b6103ba60048036038101906103b591906117f1565b610a9c565b6040516103c791906116fe565b60405180910390f35b6103ea60048036038101906103e591906117c6565b610b1e565b005b5f60095f9054906101000a900473ffffffffffffffffffffffffffffffffffffffff16905090565b6060600480546104239061185c565b80601f016020809104026020016040519081016040528092919081815260200182805461044f9061185c565b801561049a5780601f106104715761010080835404028352916020019161049a565b820191905f5260205f20905b81548152906001019060200180831161047d57829003601f168201915b5050505050905090565b5f5f6104ae610ba2565b90506104bb818585610ba9565b600191505092915050565b5f600354905090565b5f5f6104d9610ba2565b90506104e6858285610bbb565b6104f1858585610c4e565b60019150509392505050565b5f60065f9054906101000a900460ff16905090565b5f600754905090565b610523610d3e565b61052b610dc5565b565b610535610d3e565b61053f8282610e26565b5050565b61055461054e610ba2565b82610f1f565b50565b5f5f60149054906101000a900460ff16905090565b5f60015f8373ffffffffffffffffffffffffffffffffffffffff1673ffffffffffffffffffffffffffffffffffffffff1681526020019081526020015f20549050919050565b6105ba610d3e565b6105c35f610f9e565b565b5f600854905090565b6105e0826105da610ba2565b83610bbb565b6105ea8282610f1f565b5050565b6105f6610d3e565b6105fe61105f565b565b610608610d3e565b8060095f6101000a81548173ffffffffffffffffffffffffffffffffffffffff021916908373ffffffffffffffffffffffffffffffffffffffff1602179055507f3ca9233bd3849737ab1049144180bc625db2d51ca2c5ce949e7209eb32faa3a2816040516106779190611574565b60405180910390a150565b5f5f5f9054906101000a900473ffffffffffffffffffffffffffffffffffffffff16905090565b6060600580546106b89061185c565b80601f01602080910402602001604051908101604052809291908181526020018280546106e49061185c565b801561072f5780601f106107065761010080835404028352916020019161072f565b820191905f5260205f20905b81548152906001019060200180831161071257829003601f168201915b5050505050905090565b5f5f610743610ba2565b90505f6127106008548561075791906118b9565b6107619190611927565b90505f81856107709190611957565b90508460015f8573ffffffffffffffffffffffffffffffffffffffff1673ffffffffffffffffffffffffffffffffffffffff1681526020019081526020015f20541015610835578260015f8573ffffffffffffffffffffffffffffffffffffffff1673ffffffffffffffffffffffffffffffffffffffff1681526020019081526020015f2054866040517fe450d38c00000000000000000000000000000000000000000000000000000000815260040161082c9392919061198a565b60405180910390fd5b8460015f8573ffffffffffffffffffffffffffffffffffffffff1673ffffffffffffffffffffffffffffffffffffffff1681526020019081526020015f205f8282546108819190611957565b925050819055508060015f8873ffffffffffffffffffffffffffffffffffffffff1673ffffffffffffffffffffffffffffffffffffffff1681526020019081526020015f205f8282546108d491906119bf565b925050819055505f73ffffffffffffffffffffffffffffffffffffffff1660095f9054906101000a900473ffffffffffffffffffffffffffffffffffffffff1673ffffffffffffffffffffffffffffffffffffffff16146109a4578160015f60095f9054906101000a900473ffffffffffffffffffffffffffffffffffffffff1673ffffffffffffffffffffffffffffffffffffffff1673ffffffffffffffffffffffffffffffffffffffff1681526020019081526020015f205f82825461099c91906119bf565b925050819055505b8573ffffffffffffffffffffffffffffffffffffffff168373ffffffffffffffffffffffffffffffffffffffff167fddf252ad1be2c89b69c2b068fc378daa952ba7f163c4a11628f55a4df523b3ef83604051610a0191906116fe565b60405180910390a360095f9054906101000a900473ffffffffffffffffffffffffffffffffffffffff1673ffffffffffffffffffffffffffffffffffffffff168373ffffffffffffffffffffffffffffffffffffffff167fddf252ad1be2c89b69c2b068fc378daa952ba7f163c4a11628f55a4df523b3ef84604051610a8791906116fe565b60405180910390a36001935050505092915050565b5f60025f8473ffffffffffffffffffffffffffffffffffffffff1673ffffffffffffffffffffffffffffffffffffffff1681526020019081526020015f205f8373ffffffffffffffffffffffffffffffffffffffff1673ffffffffffffffffffffffffffffffffffffffff1681526020019081526020015f2054905092915050565b610b26610d3e565b5f73ffffffffffffffffffffffffffffffffffffffff168173ffffffffffffffffffffffffffffffffffffffff1603610b96575f6040517f1e4fbdf7000000000000000000000000000000000000000000000000000000008152600401610b8d9190611574565b60405180910390fd5b610b9f81610f9e565b50565b5f33905090565b610bb683838360016110c1565b505050565b5f610bc68484610a9c565b90507fffffffffffffffffffffffffffffffffffffffffffffffffffffffffffffffff811015610c485781811015610c39578281836040517ffb8f41b2000000000000000000000000000000000000000000000000000000008152600401610c309392919061198a565b60405180910390fd5b610c4784848484035f6110c1565b5b50505050565b5f73ffffffffffffffffffffffffffffffffffffffff168373ffffffffffffffffffffffffffffffffffffffff1603610cbe575f6040517f96c6fd1e000000000000000000000000000000000000000000000000000000008152600401610cb59190611574565b60405180910390fd5b5f73ffffffffffffffffffffffffffffffffffffffff168273ffffffffffffffffffffffffffffffffffffffff1603610d2e575f6040517fec442f05000000000000000000000000000000000000000000000000000000008152600401610d259190611574565b60405180910390fd5b610d39838383611290565b505050565b610d46610ba2565b73ffffffffffffffffffffffffffffffffffffffff16610d64610682565b73ffffffffffffffffffffffffffffffffffffffff1614610dc357610d87610ba2565b6040517f118cdaa7000000000000000000000000000000000000000000000000000000008152600401610dba9190611574565b60405180910390fd5b565b610dcd6114b4565b5f5f60146101000a81548160ff0219169083151502179055507f5db9ee0a495bf2e6ff9c91a7834c1ba4fdd244a5e8aa4e537bd38aeae4b073aa610e0f610ba2565b604051610e1c9190611574565b60405180910390a1565b610e2e6104fd565b600a610e3a9190611b21565b610e42610512565b610e4c91906118b9565b81610e556104c6565b610e5f91906119bf565b1115610ea0576040517f08c379a0000000000000000000000000000000000000000000000000000000008152600401610e9790611bb5565b60405180910390fd5b5f73ffffffffffffffffffffffffffffffffffffffff168273ffffffffffffffffffffffffffffffffffffffff1603610f10575f6040517fec442f05000000000000000000000000000000000000000000000000000000008152600401610f079190611574565b60405180910390fd5b610f1b5f8383611290565b5050565b5f73ffffffffffffffffffffffffffffffffffffffff168273ffffffffffffffffffffffffffffffffffffffff1603610f8f575f6040517f96c6fd1e000000000000000000000000000000000000000000000000000000008152600401610f869190611574565b60405180910390fd5b610f9a825f83611290565b5050565b5f5f5f9054906101000a900473ffffffffffffffffffffffffffffffffffffffff169050815f5f6101000a81548173ffffffffffffffffffffffffffffffffffffffff021916908373ffffffffffffffffffffffffffffffffffffffff1602179055508173ffffffffffffffffffffffffffffffffffffffff168173ffffffffffffffffffffffffffffffffffffffff167f8be0079c531659141344cd1fd0a4f28419497f9722a3daafe3b4186f6b6457e060405160405180910390a35050565b6110676114f4565b60015f60146101000a81548160ff0219169083151502179055507f62e78cea01bee320cd4e420270b5ea74000d11b0c9f74754ebdbfc544b05a2586110aa610ba2565b6040516110b79190611574565b60405180910390a1565b5f73ffffffffffffffffffffffffffffffffffffffff168473ffffffffffffffffffffffffffffffffffffffff1603611131575f6040517fe602df050000000000000000000000000000000000000000000000000000000081526004016111289190611574565b60405180910390fd5b5f73ffffffffffffffffffffffffffffffffffffffff168373ffffffffffffffffffffffffffffffffffffffff16036111a1575f6040517f94280d620000000000000000000000000000000000000000000000000000000081526004016111989190611574565b60405180910390fd5b8160025f8673ffffffffffffffffffffffffffffffffffffffff1673ffffffffffffffffffffffffffffffffffffffff1681526020019081526020015f205f8573ffffffffffffffffffffffffffffffffffffffff1673ffffffffffffffffffffffffffffffffffffffff1681526020019081526020015f2081905550801561128a578273ffffffffffffffffffffffffffffffffffffffff168473ffffffffffffffffffffffffffffffffffffffff167f8c5be1e5ebec7d5bd14f71427d1e84f3dd0314c0f7b2291e5b200ac8c7c3b9258460405161128191906116fe565b60405180910390a35b50505050565b6112986114f4565b5f73ffffffffffffffffffffffffffffffffffffffff168373ffffffffffffffffffffffffffffffffffffffff16036112e8578060035f8282546112dc91906119bf565b925050819055506113b8565b5f60015f8573ffffffffffffffffffffffffffffffffffffffff1673ffffffffffffffffffffffffffffffffffffffff1681526020019081526020015f2054905081811015611372578381836040517fe450d38c0000000000000000000000000000000000000000000000000000000081526004016113699392919061198a565b60405180910390fd5b81810360015f8673ffffffffffffffffffffffffffffffffffffffff1673ffffffffffffffffffffffffffffffffffffffff1681526020019081526020015f2081905550505b5f73ffffffffffffffffffffffffffffffffffffffff168273ffffffffffffffffffffffffffffffffffffffff16036113ff578060035f828254039250508190555061144a565b8060015f8473ffffffffffffffffffffffffffffffffffffffff1673ffffffffffffffffffffffffffffffffffffffff1681526020019081526020015f205f82825401925050819055505b8173ffffffffffffffffffffffffffffffffffffffff168373ffffffffffffffffffffffffffffffffffffffff167fddf252ad1be2c89b69c2b068fc378daa952ba7f163c4a11628f55a4df523b3ef836040516114a791906116fe565b60405180910390a3505050565b6114bc610557565b6114f2576040517f8dfc202b00000000000000000000000000000000000000000000000000000000815260040160405180910390fd5b565b6114fc610557565b15611533576040517fd93c066500000000000000000000000000000000000000000000000000000000815260040160405180910390fd5b565b5f73ffffffffffffffffffffffffffffffffffffffff82169050919050565b5f61155e82611535565b9050919050565b61156e81611554565b82525050565b5f6020820190506115875f830184611565565b92915050565b5f81519050919050565b5f82825260208201905092915050565b8281835e5f83830152505050565b5f601f19601f8301169050919050565b5f6115cf8261158d565b6115d98185611597565b93506115e98185602086016115a7565b6115f2816115b5565b840191505092915050565b5f6020820190508181035f83015261161581846115c5565b905092915050565b5f5ffd5b61162a81611554565b8114611634575f5ffd5b50565b5f8135905061164581611621565b92915050565b5f819050919050565b61165d8161164b565b8114611667575f5ffd5b50565b5f8135905061167881611654565b92915050565b5f5f604083850312156116945761169361161d565b5b5f6116a185828601611637565b92505060206116b28582860161166a565b9150509250929050565b5f8115159050919050565b6116d0816116bc565b82525050565b5f6020820190506116e95f8301846116c7565b92915050565b6116f88161164b565b82525050565b5f6020820190506117115f8301846116ef565b92915050565b5f5f5f6060848603121561172e5761172d61161d565b5b5f61173b86828701611637565b935050602061174c86828701611637565b925050604061175d8682870161166a565b9150509250925092565b5f60ff82169050919050565b61177c81611767565b82525050565b5f6020820190506117955f830184611773565b92915050565b5f602082840312156117b0576117af61161d565b5b5f6117bd8482850161166a565b91505092915050565b5f602082840312156117db576117da61161d565b5b5f6117e884828501611637565b91505092915050565b5f5f604083850312156118075761180661161d565b5b5f61181485828601611637565b925050602061182585828601611637565b9150509250929050565b7f4e487b71000000000000000000000000000000000000000000000000000000005f52602260045260245ffd5b5f600282049050600182168061187357607f821691505b6020821081036118865761188561182f565b5b50919050565b7f4e487b71000000000000000000000000000000000000000000000000000000005f52601160045260245ffd5b5f6118c38261164b565b91506118ce8361164b565b92508282026118dc8161164b565b915082820484148315176118f3576118f261188c565b5b5092915050565b7f4e487b71000000000000000000000000000000000000000000000000000000005f52601260045260245ffd5b5f6119318261164b565b915061193c8361164b565b92508261194c5761194b6118fa565b5b828204905092915050565b5f6119618261164b565b915061196c8361164b565b92508282039050818111156119845761198361188c565b5b92915050565b5f60608201905061199d5f830186611565565b6119aa60208301856116ef565b6119b760408301846116ef565b949350505050565b5f6119c98261164b565b91506119d48361164b565b92508282019050808211156119ec576119eb61188c565b5b92915050565b5f8160011c9050919050565b5f5f8291508390505b6001851115611a4757808604811115611a2357611a2261188c565b5b6001851615611a325780820291505b8081029050611a40856119f2565b9450611a07565b94509492505050565b5f82611a5f5760019050611b1a565b81611a6c575f9050611b1a565b8160018114611a825760028114611a8c57611abb565b6001915050611b1a565b60ff841115611a9e57611a9d61188c565b5b8360020a915084821115611ab557611ab461188c565b5b50611b1a565b5060208310610133831016604e8410600b8410161715611af05782820a905083811115611aeb57611aea61188c565b5b611b1a565b611afd84848460016119fe565b92509050818404811115611b1457611b1361188c565b5b81810290505b9392505050565b5f611b2b8261164b565b9150611b3683611767565b9250611b637fffffffffffffffffffffffffffffffffffffffffffffffffffffffffffffffff8484611a50565b905092915050565b7f45524332304361707065643a20636170206578636565646564000000000000005f82015250565b5f611b9f601983611597565b9150611baa82611b6b565b602082019050919050565b5f6020820190508181035f830152611bcc81611b93565b905091905056fea264697066735822122063ced926b86be6345ec7aa6489a3f12b199bad99c5dcecc09997a2cf35163ae864736f6c634300081c0033","linkReferences":{}},"methodIdentifiers":{"allowance(address,address)":"dd62ed3e","approve(address,uint256)":"095ea7b3","balanceOf(address)":"70a08231","burn(uint256)":"42966c68","burnFrom(address,uint256)":"79cc6790","cap()":"355274ea","decimals()":"313ce567","getTaxFeeRecipient()":"03073dfc","getTransferTaxBps()":"743bfe70","mint(address,uint256)":"40c10f19","name()":"06fdde03","owner()":"8da5cb5b","pause()":"8456cb59","paused()":"5c975abb","renounceOwnership()":"715018a6","symbol()":"95d89b41","totalSupply()":"18160ddd","transfer(address,uint256)":"a9059cbb","transferFrom(address,address,uint256)":"23b872dd","transferOwnership(address)":"f2fde38b","unpause()":"3f4ba83a","updateTaxFeeRecipient(address)":"8baace25"},"id":38}