{"abi":[{"type":"constructor","inputs":[{"name":"name_","type":"string","internalType":"string"},{"name":"symbol_","type":"string","internalType":"string"},{"name":"decimals_","type":"uint8","internalType":"uint8"},{"name":"totalSupply_","type":"uint256","internalType":"uint256"},{"name":"serviceFeeReceiver_","type":"address","internalType":"address"},{"name":"serviceFee_","type":"uint256","internalType":"uint256"},{"name":"transferTaxBps_","type":"uint256","internalType":"uint256"},{"name":"taxFeeRecipient_","type":"address","internalType":"address"}],"stateMutability":"payable"},{"type":"function","name":"allowance","inputs":[{"name":"owner","type":"address","internalType":"address"},{"name":"spender","type":"address","internalType":"address"}],"outputs":[{"name":"","type":"uint256","internalType":"uint256"}],"stateMutability":"view"},{"type":"function","name":"approve","inputs":[{"name":"spender","type":"address","internalType":"address"},{"name":"value","type":"uint256","internalType":"uint256"}],"outputs":[{"name":"","type":"bool","internalType":"bool"}],"stateMutability":"nonpayable"},{"type":"function","name":"balanceOf","inputs":[{"name":"account","type":"address","internalType":"address"}],"outputs":[{"name":"","type":"uint256","internalType":"uint256"}],"stateMutability":"view"},{"type":"function","name":"blacklist","inputs":[{"name":"account","type":"address","internalType":"address"}],"outputs":[],"stateMutability":"nonpayable"},{"type":"function","name":"decimals","inputs":[],"outputs":[{"name":"","type":"uint8","internalType":"uint8"}],"stateMutability":"view"},{"type":"function","name":"getTaxFeeRecipient","inputs":[],"outputs":[{"name":"","type":"address","internalType":"address"}],"stateMutability":"view"},{"type":"function","name":"getTransferTaxBps","inputs":[],"outputs":[{"name":"","type":"uint256","internalType":"uint256"}],"stateMutability":"view"},{"type":"function","name":"isBlacklisted","inputs":[{"name":"account","type":"address","internalType":"address"}],"outputs":[{"name":"","type":"bool","internalType":"bool"}],"stateMutability":"view"},{"type":"function","name":"mint","inputs":[{"name":"to","type":"address","internalType":"address"},{"name":"amount","type":"uint256","internalType":"uint256"}],"outputs":[],"stateMutability":"nonpayable"},{"type":"function","name":"name","inputs":[],"outputs":[{"name":"","type":"string","internalType":"string"}],"stateMutability":"view"},{"type":"function","name":"owner","inputs":[],"outputs":[{"name":"","type":"address","internalType":"address"}],"stateMutability":"view"},{"type":"function","name":"pause","inputs":[],"outputs":[],"stateMutability":"nonpayable"},{"type":"function","name":"paused","inputs":[],"outputs":[{"name":"","type":"bool","internalType":"bool"}],"stateMutability":"view"},{"type":"function","name":"renounceOwnership","inputs":[],"outputs":[],"stateMutability":"nonpayable"},{"type":"function","name":"symbol","inputs":[],"outputs":[{"name":"","type":"string","internalType":"string"}],"stateMutability":"view"},{"type":"function","name":"totalSupply","inputs":[],"outputs":[{"name":"","type":"uint256","internalType":"uint256"}],"stateMutability":"view"},{"type":"function","name":"transfer","inputs":[{"name":"to","type":"address","internalType":"address"},{"name":"value","type":"uint256","internalType":"uint256"}],"outputs":[{"name":"","type":"bool","internalType":"bool"}],"stateMutability":"nonpayable"},{"type":"function","name":"transferFrom","inputs":[{"name":"from","type":"address","internalType":"address"},{"name":"to","type":"address","internalType":"address"},{"name":"value","type":"uint256","internalType":"uint256"}],"outputs":[{"name":"","type":"bool","internalType":"bool"}],"stateMutability":"nonpayable"},{"type":"function","name":"transferOwnership","inputs":[{"name":"newOwner","type":"address","internalType":"address"}],"outputs":[],"stateMutability":"nonpayable"},{"type":"function","name":"unblacklist","inputs":[{"name":"account","type":"address","internalType":"address"}],"outputs":[],"stateMutability":"nonpayable"},{"type":"function","name":"unpause","inputs":[],"outputs":[],"stateMutability":"nonpayable"},{"type":"function","name":"updateTaxFeeRecipient","inputs":[{"name":"newTaxFeeRecipient","type":"address","internalType":"address"}],"outputs":[],"stateMutability":"nonpayable"},{"type":"event","name":"Approval","inputs":[{"name":"owner","type":"address","indexed":true,"internalType":"address"},{"name":"spender","type":"address","indexed":true,"internalType":"address"},{"name":"value","type":"uint256","indexed":false,"internalType":"uint256"}],"anonymous":false},{"type":"event","name":"Blacklisted","inputs":[{"name":"account","type":"address","indexed":true,"internalType":"address"}],"anonymous":false},{"type":"event","name":"OwnershipTransferred","inputs":[{"name":"previousOwner","type":"address","indexed":true,"internalType":"address"},{"name":"newOwner","type":"address","indexed":true,"internalType":"address"}],"anonymous":false},{"type":"event","name":"Paused","inputs":[{"name":"account","type":"address","indexed":false,"internalType":"address"}],"anonymous":false},{"type":"event","name":"TaxFeeRecipientUpdated","inputs":[{"name":"newTaxFeeRecipient","type":"address","indexed":false,"internalType":"address"}],"anonymous":false},{"type":"event","name":"Transfer","inputs":[{"name":"from","type":"address","indexed":true,"internalType":"address"},{"name":"to","type":"address","indexed":true,"internalType":"address"},{"name":"value","type":"uint256","indexed":false,"internalType":"uint256"}],"anonymous":false},{"type":"event","name":"Unblacklisted","inputs":[{"name":"account","type":"address","indexed":true,"internalType":"address"}],"anonymous":false},{"type":"event","name":"Unpaused","inputs":[{"name":"account","type":"address","indexed":false,"internalType":"address"}],"anonymous":false},{"type":"error","name":"ERC20InsufficientAllowance","inputs":[{"name":"spender","type":"address","internalType":"address"},{"name":"allowance","type":"uint256","internalType":"uint256"},{"name":"needed","type":"uint256","internalType":"uint256"}]},{"type":"error","name":"ERC20InsufficientBalance","inputs":[{"name":"sender","type":"address","internalType":"address"},{"name":"balance","type":"uint256","internalType":"uint256"},{"name":"needed","type":"uint256","internalType":"uint256"}]},{"type":"error","name":"ERC20InvalidApprover","inputs":[{"name":"approver","type":"address","internalType":"address"}]},{"type":"error","name":"ERC20InvalidReceiver","inputs":[{"name":"receiver","type":"address","internalType":"address"}]},{"type":"error","name":"ERC20InvalidSender","inputs":[{"name":"sender","type":"address","internalType":"address"}]},{"type":"error","name":"ERC20InvalidSpender","inputs":[{"name":"spender","type":"address","internalType":"address"}]},{"type":"error","name":"EnforcedPause","inputs":[]},{"type":"error","name":"ExpectedPause","inputs":[]},{"type":"error","name":"OwnableInvalidOwner","inputs":[{"name":"owner","type":"address","internalType":"address"}]},{"type":"error","name":"OwnableUnauthorizedAccount","inputs":[{"name":"account","type":"address","internalType":"address"}]}],"bytecode":{"object":"0x608060405260405161320738038061320783398181016040528101906100259190610a5f565b335f73ffffffffffffffffffffffffffffffffffffffff168173ffffffffffffffffffffffffffffffffffffffff1603610096575f6040517f1e4fbdf700000000000000000000000000000000000000000000000000000000815260040161008d9190610b57565b60405180910390fd5b6100a58161032f60201b60201c565b505f5f60146101000a81548160ff02191690831515021790555087600590816100ce9190610d77565b5086600690816100de9190610d77565b508560075f6101000a81548160ff021916908360ff160217905550816008819055508060095f6101000a81548173ffffffffffffffffffffffffffffffffffffffff021916908373ffffffffffffffffffffffffffffffffffffffff160217905550816008819055508060095f6101000a81548173ffffffffffffffffffffffffffffffffffffffff021916908373ffffffffffffffffffffffffffffffffffffffff160217905550823410156101ca576040517f08c379a00000000000000000000000000000000000000000000000000000000081526004016101c190610ea0565b60405180910390fd5b5f73ffffffffffffffffffffffffffffffffffffffff168473ffffffffffffffffffffffffffffffffffffffff1603610238576040517f08c379a000000000000000000000000000000000000000000000000000000000815260040161022f90610f08565b60405180910390fd5b5f8473ffffffffffffffffffffffffffffffffffffffff168460405161025d90610f53565b5f6040518083038185875af1925050503d805f8114610297576040519150601f19603f3d011682016040523d82523d5f602084013e61029c565b606091505b50509050806102e0576040517f08c379a00000000000000000000000000000000000000000000000000000000081526004016102d790610fb1565b60405180910390fd5b6103216102f16103f060201b60201c565b6102ff61041760201b60201c565b600a61030b919061112b565b886103169190611175565b61042c60201b60201c565b5050505050505050506112ae565b5f5f5f9054906101000a900473ffffffffffffffffffffffffffffffffffffffff169050815f5f6101000a81548173ffffffffffffffffffffffffffffffffffffffff021916908373ffffffffffffffffffffffffffffffffffffffff1602179055508173ffffffffffffffffffffffffffffffffffffffff168173ffffffffffffffffffffffffffffffffffffffff167f8be0079c531659141344cd1fd0a4f28419497f9722a3daafe3b4186f6b6457e060405160405180910390a35050565b5f5f5f9054906101000a900473ffffffffffffffffffffffffffffffffffffffff16905090565b5f60075f9054906101000a900460ff16905090565b5f73ffffffffffffffffffffffffffffffffffffffff168273ffffffffffffffffffffffffffffffffffffffff160361049c575f6040517fec442f050000000000000000000000000000000000000000000000000000000081526004016104939190610b57565b60405180910390fd5b6104ad5f83836104b160201b60201c565b5050565b6104bf6107f360201b60201c565b8260035f8273ffffffffffffffffffffffffffffffffffffffff1673ffffffffffffffffffffffffffffffffffffffff1681526020019081526020015f205f9054906101000a900460ff161561054a576040517f08c379a000000000000000000000000000000000000000000000000000000000815260040161054190611200565b60405180910390fd5b8260035f8273ffffffffffffffffffffffffffffffffffffffff1673ffffffffffffffffffffffffffffffffffffffff1681526020019081526020015f205f9054906101000a900460ff16156105d5576040517f08c379a00000000000000000000000000000000000000000000000000000000081526004016105cc90611200565b60405180910390fd5b5f73ffffffffffffffffffffffffffffffffffffffff168573ffffffffffffffffffffffffffffffffffffffff1603610625578260045f828254610619919061121e565b925050819055506106f5565b5f60015f8773ffffffffffffffffffffffffffffffffffffffff1673ffffffffffffffffffffffffffffffffffffffff1681526020019081526020015f20549050838110156106af578581856040517fe450d38c0000000000000000000000000000000000000000000000000000000081526004016106a693929190611260565b60405180910390fd5b83810360015f8873ffffffffffffffffffffffffffffffffffffffff1673ffffffffffffffffffffffffffffffffffffffff1681526020019081526020015f2081905550505b5f73ffffffffffffffffffffffffffffffffffffffff168473ffffffffffffffffffffffffffffffffffffffff160361073c578260045f8282540392505081905550610787565b8260015f8673ffffffffffffffffffffffffffffffffffffffff1673ffffffffffffffffffffffffffffffffffffffff1681526020019081526020015f205f82825401925050819055505b8373ffffffffffffffffffffffffffffffffffffffff168573ffffffffffffffffffffffffffffffffffffffff167fddf252ad1be2c89b69c2b068fc378daa952ba7f163c4a11628f55a4df523b3ef856040516107e49190611295565b60405180910390a35050505050565b61080161083a60201b60201c565b15610838576040517fd93c066500000000000000000000000000000000000000000000000000000000815260040160405180910390fd5b565b5f5f60149054906101000a900460ff16905090565b5f604051905090565b5f5ffd5b5f5ffd5b5f5ffd5b5f5ffd5b5f601f19601f8301169050919050565b7f4e487b71000000000000000000000000000000000000000000000000000000005f52604160045260245ffd5b6108ae82610868565b810181811067ffffffffffffffff821117156108cd576108cc610878565b5b80604052505050565b5f6108df61084f565b90506108eb82826108a5565b919050565b5f67ffffffffffffffff82111561090a57610909610878565b5b61091382610868565b9050602081019050919050565b8281835e5f83830152505050565b5f61094061093b846108f0565b6108d6565b90508281526020810184848401111561095c5761095b610864565b5b610967848285610920565b509392505050565b5f82601f83011261098357610982610860565b5b815161099384826020860161092e565b91505092915050565b5f60ff82169050919050565b6109b18161099c565b81146109bb575f5ffd5b50565b5f815190506109cc816109a8565b92915050565b5f819050919050565b6109e4816109d2565b81146109ee575f5ffd5b50565b5f815190506109ff816109db565b92915050565b5f73ffffffffffffffffffffffffffffffffffffffff82169050919050565b5f610a2e82610a05565b9050919050565b610a3e81610a24565b8114610a48575f5ffd5b50565b5f81519050610a5981610a35565b92915050565b5f5f5f5f5f5f5f5f610100898b031215610a7c57610a7b610858565b5b5f89015167ffffffffffffffff811115610a9957610a9861085c565b5b610aa58b828c0161096f565b985050602089015167ffffffffffffffff811115610ac657610ac561085c565b5b610ad28b828c0161096f565b9750506040610ae38b828c016109be565b9650506060610af48b828c016109f1565b9550506080610b058b828c01610a4b565b94505060a0610b168b828c016109f1565b93505060c0610b278b828c016109f1565b92505060e0610b388b828c01610a4b565b9150509295985092959890939650565b610b5181610a24565b82525050565b5f602082019050610b6a5f830184610b48565b92915050565b5f81519050919050565b7f4e487b71000000000000000000000000000000000000000000000000000000005f52602260045260245ffd5b5f6002820490506001821680610bbe57607f821691505b602082108103610bd157610bd0610b7a565b5b50919050565b5f819050815f5260205f209050919050565b5f6020601f8301049050919050565b5f82821b905092915050565b5f60088302610c337fffffffffffffffffffffffffffffffffffffffffffffffffffffffffffffffff82610bf8565b610c3d8683610bf8565b95508019841693508086168417925050509392505050565b5f819050919050565b5f610c78610c73610c6e846109d2565b610c55565b6109d2565b9050919050565b5f819050919050565b610c9183610c5e565b610ca5610c9d82610c7f565b848454610c04565b825550505050565b5f5f905090565b610cbc610cad565b610cc7818484610c88565b505050565b5b81811015610cea57610cdf5f82610cb4565b600181019050610ccd565b5050565b601f821115610d2f57610d0081610bd7565b610d0984610be9565b81016020851015610d18578190505b610d2c610d2485610be9565b830182610ccc565b50505b505050565b5f82821c905092915050565b5f610d4f5f1984600802610d34565b1980831691505092915050565b5f610d678383610d40565b9150826002028217905092915050565b610d8082610b70565b67ffffffffffffffff811115610d9957610d98610878565b5b610da38254610ba7565b610dae828285610cee565b5f60209050601f831160018114610ddf575f8415610dcd578287015190505b610dd78582610d5c565b865550610e3e565b601f198416610ded86610bd7565b5f5b82811015610e1457848901518255600182019150602085019450602081019050610def565b86831015610e315784890151610e2d601f891682610d40565b8355505b6001600288020188555050505b505050505050565b5f82825260208201905092915050565b7f496e73756666696369656e742066656520616d6f756e742073656e74000000005f82015250565b5f610e8a601c83610e46565b9150610e9582610e56565b602082019050919050565b5f6020820190508181035f830152610eb781610e7e565b9050919050565b7f496e76616c6964206665652072656365697665722061646472657373000000005f82015250565b5f610ef2601c83610e46565b9150610efd82610ebe565b602082019050919050565b5f6020820190508181035f830152610f1f81610ee6565b9050919050565b5f81905092915050565b50565b5f610f3e5f83610f26565b9150610f4982610f30565b5f82019050919050565b5f610f5d82610f33565b9150819050919050565b7f466565207472616e73666572206661696c6564000000000000000000000000005f82015250565b5f610f9b601383610e46565b9150610fa682610f67565b602082019050919050565b5f6020820190508181035f830152610fc881610f8f565b9050919050565b7f4e487b71000000000000000000000000000000000000000000000000000000005f52601160045260245ffd5b5f8160011c9050919050565b5f5f8291508390505b60018511156110515780860481111561102d5761102c610fcf565b5b600185161561103c5780820291505b808102905061104a85610ffc565b9450611011565b94509492505050565b5f826110695760019050611124565b81611076575f9050611124565b816001811461108c5760028114611096576110c5565b6001915050611124565b60ff8411156110a8576110a7610fcf565b5b8360020a9150848211156110bf576110be610fcf565b5b50611124565b5060208310610133831016604e8410600b84101617156110fa5782820a9050838111156110f5576110f4610fcf565b5b611124565b6111078484846001611008565b9250905081840481111561111e5761111d610fcf565b5b81810290505b9392505050565b5f611135826109d2565b91506111408361099c565b925061116d7fffffffffffffffffffffffffffffffffffffffffffffffffffffffffffffffff848461105a565b905092915050565b5f61117f826109d2565b915061118a836109d2565b9250828202611198816109d2565b915082820484148315176111af576111ae610fcf565b5b5092915050565b7f4164647265737320697320626c61636b6c6973746564000000000000000000005f82015250565b5f6111ea601683610e46565b91506111f5826111b6565b602082019050919050565b5f6020820190508181035f830152611217816111de565b9050919050565b5f611228826109d2565b9150611233836109d2565b925082820190508082111561124b5761124a610fcf565b5b92915050565b61125a816109d2565b82525050565b5f6060820190506112735f830186610b48565b6112806020830185611251565b61128d6040830184611251565b949350505050565b5f6020820190506112a85f830184611251565b92915050565b611f4c806112bb5f395ff3fe608060405234801561000f575f5ffd5b5060043610610140575f3560e01c8063743bfe70116100b657806395d89b411161007a57806395d89b4114610318578063a9059cbb14610336578063dd62ed3e14610366578063f2fde38b14610396578063f9f92be4146103b2578063fe575a87146103ce57610140565b8063743bfe701461029a57806375e3661e146102b85780638456cb59146102d45780638baace25146102de5780638da5cb5b146102fa57610140565b8063313ce56711610108578063313ce567146101fe5780633f4ba83a1461021c57806340c10f19146102265780635c975abb1461024257806370a0823114610260578063715018a61461029057610140565b806303073dfc1461014457806306fdde0314610162578063095ea7b31461018057806318160ddd146101b057806323b872dd146101ce575b5f5ffd5b61014c6103fe565b6040516101599190611a5b565b60405180910390f35b61016a610426565b6040516101779190611ae4565b60405180910390f35b61019a60048036038101906101959190611b65565b6104b6565b6040516101a79190611bbd565b60405180910390f35b6101b86105f7565b6040516101c59190611be5565b60405180910390f35b6101e860048036038101906101e39190611bfe565b610600565b6040516101f59190611bbd565b60405180910390f35b610206610746565b6040516102139190611c69565b60405180910390f35b61022461075b565b005b610240600480360381019061023b9190611b65565b61076d565b005b61024a610783565b6040516102579190611bbd565b60405180910390f35b61027a60048036038101906102759190611c82565b610798565b6040516102879190611be5565b60405180910390f35b6102986107de565b005b6102a26107f1565b6040516102af9190611be5565b60405180910390f35b6102d260048036038101906102cd9190611c82565b6107fa565b005b6102dc61089c565b005b6102f860048036038101906102f39190611c82565b6108ae565b005b610302610930565b60405161030f9190611a5b565b60405180910390f35b610320610957565b60405161032d9190611ae4565b60405180910390f35b610350600480360381019061034b9190611b65565b6109e7565b60405161035d9190611bbd565b60405180910390f35b610380600480360381019061037b9190611cad565b610e6f565b60405161038d9190611be5565b60405180910390f35b6103b060048036038101906103ab9190611c82565b610ef1565b005b6103cc60048036038101906103c79190611c82565b610f75565b005b6103e860048036038101906103e39190611c82565b611018565b6040516103f59190611bbd565b60405180910390f35b5f60095f9054906101000a900473ffffffffffffffffffffffffffffffffffffffff16905090565b60606005805461043590611d18565b80601f016020809104026020016040519081016040528092919081815260200182805461046190611d18565b80156104ac5780601f10610483576101008083540402835291602001916104ac565b820191905f5260205f20905b81548152906001019060200180831161048f57829003601f168201915b5050505050905090565b5f6104bf61106a565b60035f8273ffffffffffffffffffffffffffffffffffffffff1673ffffffffffffffffffffffffffffffffffffffff1681526020019081526020015f205f9054906101000a900460ff1615610549576040517f08c379a000000000000000000000000000000000000000000000000000000000815260040161054090611d92565b60405180910390fd5b8360035f8273ffffffffffffffffffffffffffffffffffffffff1673ffffffffffffffffffffffffffffffffffffffff1681526020019081526020015f205f9054906101000a900460ff16156105d4576040517f08c379a00000000000000000000000000000000000000000000000000000000081526004016105cb90611d92565b60405180910390fd5b5f6105dd61106a565b90506105ea818787611071565b6001935050505092915050565b5f600454905090565b5f8360035f8273ffffffffffffffffffffffffffffffffffffffff1673ffffffffffffffffffffffffffffffffffffffff1681526020019081526020015f205f9054906101000a900460ff161561068c576040517f08c379a000000000000000000000000000000000000000000000000000000000815260040161068390611d92565b60405180910390fd5b8360035f8273ffffffffffffffffffffffffffffffffffffffff1673ffffffffffffffffffffffffffffffffffffffff1681526020019081526020015f205f9054906101000a900460ff1615610717576040517f08c379a000000000000000000000000000000000000000000000000000000000815260040161070e90611d92565b60405180910390fd5b5f61072061106a565b905061072d878287611083565b610738878787611116565b600193505050509392505050565b5f60075f9054906101000a900460ff16905090565b610763611206565b61076b61128d565b565b610775611206565b61077f82826112ee565b5050565b5f5f60149054906101000a900460ff16905090565b5f60015f8373ffffffffffffffffffffffffffffffffffffffff1673ffffffffffffffffffffffffffffffffffffffff1681526020019081526020015f20549050919050565b6107e6611206565b6107ef5f61136d565b565b5f600854905090565b610802611206565b5f60035f8373ffffffffffffffffffffffffffffffffffffffff1673ffffffffffffffffffffffffffffffffffffffff1681526020019081526020015f205f6101000a81548160ff0219169083151502179055508073ffffffffffffffffffffffffffffffffffffffff167f7534c63860313c46c473e4e98328f37017e9674e2162faf1a3ad7a96236c3b7b60405160405180910390a250565b6108a4611206565b6108ac61142e565b565b6108b6611206565b8060095f6101000a81548173ffffffffffffffffffffffffffffffffffffffff021916908373ffffffffffffffffffffffffffffffffffffffff1602179055507f3ca9233bd3849737ab1049144180bc625db2d51ca2c5ce949e7209eb32faa3a2816040516109259190611a5b565b60405180910390a150565b5f5f5f9054906101000a900473ffffffffffffffffffffffffffffffffffffffff16905090565b60606006805461096690611d18565b80601f016020809104026020016040519081016040528092919081815260200182805461099290611d18565b80156109dd5780601f106109b4576101008083540402835291602001916109dd565b820191905f5260205f20905b8154815290600101906020018083116109c057829003601f168201915b5050505050905090565b5f3360035f8273ffffffffffffffffffffffffffffffffffffffff1673ffffffffffffffffffffffffffffffffffffffff1681526020019081526020015f205f9054906101000a900460ff1615610a73576040517f08c379a0000000000000000000000000000000000000000000000000000000008152600401610a6a90611d92565b60405180910390fd5b8360035f8273ffffffffffffffffffffffffffffffffffffffff1673ffffffffffffffffffffffffffffffffffffffff1681526020019081526020015f205f9054906101000a900460ff1615610afe576040517f08c379a0000000000000000000000000000000000000000000000000000000008152600401610af590611d92565b60405180910390fd5b5f610b0761106a565b90505f61271060085487610b1b9190611ddd565b610b259190611e4b565b90505f8187610b349190611e7b565b90508660015f8573ffffffffffffffffffffffffffffffffffffffff1673ffffffffffffffffffffffffffffffffffffffff1681526020019081526020015f20541015610bf9578260015f8573ffffffffffffffffffffffffffffffffffffffff1673ffffffffffffffffffffffffffffffffffffffff1681526020019081526020015f2054886040517fe450d38c000000000000000000000000000000000000000000000000000000008152600401610bf093929190611eae565b60405180910390fd5b8660015f8573ffffffffffffffffffffffffffffffffffffffff1673ffffffffffffffffffffffffffffffffffffffff1681526020019081526020015f205f828254610c459190611e7b565b925050819055508060015f8a73ffffffffffffffffffffffffffffffffffffffff1673ffffffffffffffffffffffffffffffffffffffff1681526020019081526020015f205f828254610c989190611ee3565b925050819055505f73ffffffffffffffffffffffffffffffffffffffff1660095f9054906101000a900473ffffffffffffffffffffffffffffffffffffffff1673ffffffffffffffffffffffffffffffffffffffff1614158015610cfb57505f82115b15610dfb578160015f60095f9054906101000a900473ffffffffffffffffffffffffffffffffffffffff1673ffffffffffffffffffffffffffffffffffffffff1673ffffffffffffffffffffffffffffffffffffffff1681526020019081526020015f205f828254610d6d9190611ee3565b9250508190555060095f9054906101000a900473ffffffffffffffffffffffffffffffffffffffff1673ffffffffffffffffffffffffffffffffffffffff168373ffffffffffffffffffffffffffffffffffffffff167fddf252ad1be2c89b69c2b068fc378daa952ba7f163c4a11628f55a4df523b3ef84604051610df29190611be5565b60405180910390a35b8773ffffffffffffffffffffffffffffffffffffffff168373ffffffffffffffffffffffffffffffffffffffff167fddf252ad1be2c89b69c2b068fc378daa952ba7f163c4a11628f55a4df523b3ef83604051610e589190611be5565b60405180910390a360019550505050505092915050565b5f60025f8473ffffffffffffffffffffffffffffffffffffffff1673ffffffffffffffffffffffffffffffffffffffff1681526020019081526020015f205f8373ffffffffffffffffffffffffffffffffffffffff1673ffffffffffffffffffffffffffffffffffffffff1681526020019081526020015f2054905092915050565b610ef9611206565b5f73ffffffffffffffffffffffffffffffffffffffff168173ffffffffffffffffffffffffffffffffffffffff1603610f69575f6040517f1e4fbdf7000000000000000000000000000000000000000000000000000000008152600401610f609190611a5b565b60405180910390fd5b610f728161136d565b50565b610f7d611206565b600160035f8373ffffffffffffffffffffffffffffffffffffffff1673ffffffffffffffffffffffffffffffffffffffff1681526020019081526020015f205f6101000a81548160ff0219169083151502179055508073ffffffffffffffffffffffffffffffffffffffff167fffa4e6181777692565cf28528fc88fd1516ea86b56da075235fa575af6a4b85560405160405180910390a250565b5f60035f8373ffffffffffffffffffffffffffffffffffffffff1673ffffffffffffffffffffffffffffffffffffffff1681526020019081526020015f205f9054906101000a900460ff169050919050565b5f33905090565b61107e8383836001611490565b505050565b5f61108e8484610e6f565b90507fffffffffffffffffffffffffffffffffffffffffffffffffffffffffffffffff8110156111105781811015611101578281836040517ffb8f41b20000000000000000000000000000000000000000000000000000000081526004016110f893929190611eae565b60405180910390fd5b61110f84848484035f611490565b5b50505050565b5f73ffffffffffffffffffffffffffffffffffffffff168373ffffffffffffffffffffffffffffffffffffffff1603611186575f6040517f96c6fd1e00000000000000000000000000000000000000000000000000000000815260040161117d9190611a5b565b60405180910390fd5b5f73ffffffffffffffffffffffffffffffffffffffff168273ffffffffffffffffffffffffffffffffffffffff16036111f6575f6040517fec442f050000000000000000000000000000000000000000000000000000000081526004016111ed9190611a5b565b60405180910390fd5b61120183838361165f565b505050565b61120e61106a565b73ffffffffffffffffffffffffffffffffffffffff1661122c610930565b73ffffffffffffffffffffffffffffffffffffffff161461128b5761124f61106a565b6040517f118cdaa70000000000000000000000000000000000000000000000000000000081526004016112829190611a5b565b60405180910390fd5b565b61129561199b565b5f5f60146101000a81548160ff0219169083151502179055507f5db9ee0a495bf2e6ff9c91a7834c1ba4fdd244a5e8aa4e537bd38aeae4b073aa6112d761106a565b6040516112e49190611a5b565b60405180910390a1565b5f73ffffffffffffffffffffffffffffffffffffffff168273ffffffffffffffffffffffffffffffffffffffff160361135e575f6040517fec442f050000000000000000000000000000000000000000000000000000000081526004016113559190611a5b565b60405180910390fd5b6113695f838361165f565b5050565b5f5f5f9054906101000a900473ffffffffffffffffffffffffffffffffffffffff169050815f5f6101000a81548173ffffffffffffffffffffffffffffffffffffffff021916908373ffffffffffffffffffffffffffffffffffffffff1602179055508173ffffffffffffffffffffffffffffffffffffffff168173ffffffffffffffffffffffffffffffffffffffff167f8be0079c531659141344cd1fd0a4f28419497f9722a3daafe3b4186f6b6457e060405160405180910390a35050565b6114366119db565b60015f60146101000a81548160ff0219169083151502179055507f62e78cea01bee320cd4e420270b5ea74000d11b0c9f74754ebdbfc544b05a25861147961106a565b6040516114869190611a5b565b60405180910390a1565b5f73ffffffffffffffffffffffffffffffffffffffff168473ffffffffffffffffffffffffffffffffffffffff1603611500575f6040517fe602df050000000000000000000000000000000000000000000000000000000081526004016114f79190611a5b565b60405180910390fd5b5f73ffffffffffffffffffffffffffffffffffffffff168373ffffffffffffffffffffffffffffffffffffffff1603611570575f6040517f94280d620000000000000000000000000000000000000000000000000000000081526004016115679190611a5b565b60405180910390fd5b8160025f8673ffffffffffffffffffffffffffffffffffffffff1673ffffffffffffffffffffffffffffffffffffffff1681526020019081526020015f205f8573ffffffffffffffffffffffffffffffffffffffff1673ffffffffffffffffffffffffffffffffffffffff1681526020019081526020015f20819055508015611659578273ffffffffffffffffffffffffffffffffffffffff168473ffffffffffffffffffffffffffffffffffffffff167f8c5be1e5ebec7d5bd14f71427d1e84f3dd0314c0f7b2291e5b200ac8c7c3b925846040516116509190611be5565b60405180910390a35b50505050565b6116676119db565b8260035f8273ffffffffffffffffffffffffffffffffffffffff1673ffffffffffffffffffffffffffffffffffffffff1681526020019081526020015f205f9054906101000a900460ff16156116f2576040517f08c379a00000000000000000000000000000000000000000000000000000000081526004016116e990611d92565b60405180910390fd5b8260035f8273ffffffffffffffffffffffffffffffffffffffff1673ffffffffffffffffffffffffffffffffffffffff1681526020019081526020015f205f9054906101000a900460ff161561177d576040517f08c379a000000000000000000000000000000000000000000000000000000000815260040161177490611d92565b60405180910390fd5b5f73ffffffffffffffffffffffffffffffffffffffff168573ffffffffffffffffffffffffffffffffffffffff16036117cd578260045f8282546117c19190611ee3565b9250508190555061189d565b5f60015f8773ffffffffffffffffffffffffffffffffffffffff1673ffffffffffffffffffffffffffffffffffffffff1681526020019081526020015f2054905083811015611857578581856040517fe450d38c00000000000000000000000000000000000000000000000000000000815260040161184e93929190611eae565b60405180910390fd5b83810360015f8873ffffffffffffffffffffffffffffffffffffffff1673ffffffffffffffffffffffffffffffffffffffff1681526020019081526020015f2081905550505b5f73ffffffffffffffffffffffffffffffffffffffff168473ffffffffffffffffffffffffffffffffffffffff16036118e4578260045f828254039250508190555061192f565b8260015f8673ffffffffffffffffffffffffffffffffffffffff1673ffffffffffffffffffffffffffffffffffffffff1681526020019081526020015f205f82825401925050819055505b8373ffffffffffffffffffffffffffffffffffffffff168573ffffffffffffffffffffffffffffffffffffffff167fddf252ad1be2c89b69c2b068fc378daa952ba7f163c4a11628f55a4df523b3ef8560405161198c9190611be5565b60405180910390a35050505050565b6119a3610783565b6119d9576040517f8dfc202b00000000000000000000000000000000000000000000000000000000815260040160405180910390fd5b565b6119e3610783565b15611a1a576040517fd93c066500000000000000000000000000000000000000000000000000000000815260040160405180910390fd5b565b5f73ffffffffffffffffffffffffffffffffffffffff82169050919050565b5f611a4582611a1c565b9050919050565b611a5581611a3b565b82525050565b5f602082019050611a6e5f830184611a4c565b92915050565b5f81519050919050565b5f82825260208201905092915050565b8281835e5f83830152505050565b5f601f19601f8301169050919050565b5f611ab682611a74565b611ac08185611a7e565b9350611ad0818560208601611a8e565b611ad981611a9c565b840191505092915050565b5f6020820190508181035f830152611afc8184611aac565b905092915050565b5f5ffd5b611b1181611a3b565b8114611b1b575f5ffd5b50565b5f81359050611b2c81611b08565b92915050565b5f819050919050565b611b4481611b32565b8114611b4e575f5ffd5b50565b5f81359050611b5f81611b3b565b92915050565b5f5f60408385031215611b7b57611b7a611b04565b5b5f611b8885828601611b1e565b9250506020611b9985828601611b51565b9150509250929050565b5f8115159050919050565b611bb781611ba3565b82525050565b5f602082019050611bd05f830184611bae565b92915050565b611bdf81611b32565b82525050565b5f602082019050611bf85f830184611bd6565b92915050565b5f5f5f60608486031215611c1557611c14611b04565b5b5f611c2286828701611b1e565b9350506020611c3386828701611b1e565b9250506040611c4486828701611b51565b9150509250925092565b5f60ff82169050919050565b611c6381611c4e565b82525050565b5f602082019050611c7c5f830184611c5a565b92915050565b5f60208284031215611c9757611c96611b04565b5b5f611ca484828501611b1e565b91505092915050565b5f5f60408385031215611cc357611cc2611b04565b5b5f611cd085828601611b1e565b9250506020611ce185828601611b1e565b9150509250929050565b7f4e487b71000000000000000000000000000000000000000000000000000000005f52602260045260245ffd5b5f6002820490506001821680611d2f57607f821691505b602082108103611d4257611d41611ceb565b5b50919050565b7f4164647265737320697320626c61636b6c6973746564000000000000000000005f82015250565b5f611d7c601683611a7e565b9150611d8782611d48565b602082019050919050565b5f6020820190508181035f830152611da981611d70565b9050919050565b7f4e487b71000000000000000000000000000000000000000000000000000000005f52601160045260245ffd5b5f611de782611b32565b9150611df283611b32565b9250828202611e0081611b32565b91508282048414831517611e1757611e16611db0565b5b5092915050565b7f4e487b71000000000000000000000000000000000000000000000000000000005f52601260045260245ffd5b5f611e5582611b32565b9150611e6083611b32565b925082611e7057611e6f611e1e565b5b828204905092915050565b5f611e8582611b32565b9150611e9083611b32565b9250828203905081811115611ea857611ea7611db0565b5b92915050565b5f606082019050611ec15f830186611a4c565b611ece6020830185611bd6565b611edb6040830184611bd6565b949350505050565b5f611eed82611b32565b9150611ef883611b32565b9250828201905080821115611f1057611f0f611db0565b5b9291505056fea26469706673582212208c72d740b77a9dcda955a8219a3b7084cc85d51674bd1c0bca7dd5123c4d058e64736f6c634300081c0033","linkReferences":{}},"methodIdentifiers":{"allowance(address,address)":"dd62ed3e","approve(address,uint256)":"095ea7b3","balanceOf(address)":"70a08231","blacklist(address)":"f9f92be4","decimals()":"313ce567","getTaxFeeRecipient()":"03073dfc","getTransferTaxBps()":"743bfe70","isBlacklisted(address)":"fe575a87","mint(address,uint256)":"40c10f19","name()":"06fdde03","owner()":"8da5cb5b","pause()":"8456cb59","paused()":"5c975abb","renounceOwnership()":"715018a6","symbol()":"95d89b41","totalSupply()":"18160ddd","transfer(address,uint256)":"a9059cbb","transferFrom(address,address,uint256)":"23b872dd","transferOwnership(address)":"f2fde38b","unblacklist(address)":"75e3661e","unpause()":"3f4ba83a","updateTaxFeeRecipient(address)":"8baace25"},"id":31}