{"abi":[{"type":"constructor","inputs":[{"name":"name_","type":"string","internalType":"string"},{"name":"symbol_","type":"string","internalType":"string"},{"name":"decimals_","type":"uint8","internalType":"uint8"},{"name":"totalSupply_","type":"uint256","internalType":"uint256"},{"name":"serviceFeeReceiver_","type":"address","internalType":"address"},{"name":"serviceFee_","type":"uint256","internalType":"uint256"}],"stateMutability":"payable"},{"type":"function","name":"allowance","inputs":[{"name":"owner","type":"address","internalType":"address"},{"name":"spender","type":"address","internalType":"address"}],"outputs":[{"name":"","type":"uint256","internalType":"uint256"}],"stateMutability":"view"},{"type":"function","name":"approve","inputs":[{"name":"spender","type":"address","internalType":"address"},{"name":"value","type":"uint256","internalType":"uint256"}],"outputs":[{"name":"","type":"bool","internalType":"bool"}],"stateMutability":"nonpayable"},{"type":"function","name":"balanceOf","inputs":[{"name":"account","type":"address","internalType":"address"}],"outputs":[{"name":"","type":"uint256","internalType":"uint256"}],"stateMutability":"view"},{"type":"function","name":"burn","inputs":[{"name":"value","type":"uint256","internalType":"uint256"}],"outputs":[],"stateMutability":"nonpayable"},{"type":"function","name":"burnFrom","inputs":[{"name":"account","type":"address","internalType":"address"},{"name":"value","type":"uint256","internalType":"uint256"}],"outputs":[],"stateMutability":"nonpayable"},{"type":"function","name":"decimals","inputs":[],"outputs":[{"name":"","type":"uint8","internalType":"uint8"}],"stateMutability":"view"},{"type":"function","name":"name","inputs":[],"outputs":[{"name":"","type":"string","internalType":"string"}],"stateMutability":"view"},{"type":"function","name":"owner","inputs":[],"outputs":[{"name":"","type":"address","internalType":"address"}],"stateMutability":"view"},{"type":"function","name":"renounceOwnership","inputs":[],"outputs":[],"stateMutability":"nonpayable"},{"type":"function","name":"symbol","inputs":[],"outputs":[{"name":"","type":"string","internalType":"string"}],"stateMutability":"view"},{"type":"function","name":"totalSupply","inputs":[],"outputs":[{"name":"","type":"uint256","internalType":"uint256"}],"stateMutability":"view"},{"type":"function","name":"transfer","inputs":[{"name":"to","type":"address","internalType":"address"},{"name":"value","type":"uint256","internalType":"uint256"}],"outputs":[{"name":"","type":"bool","internalType":"bool"}],"stateMutability":"nonpayable"},{"type":"function","name":"transferFrom","inputs":[{"name":"from","type":"address","internalType":"address"},{"name":"to","type":"address","internalType":"address"},{"name":"value","type":"uint256","internalType":"uint256"}],"outputs":[{"name":"","type":"bool","internalType":"bool"}],"stateMutability":"nonpayable"},{"type":"function","name":"transferOwnership","inputs":[{"name":"newOwner","type":"address","internalType":"address"}],"outputs":[],"stateMutability":"nonpayable"},{"type":"event","name":"Approval","inputs":[{"name":"owner","type":"address","indexed":true,"internalType":"address"},{"name":"spender","type":"address","indexed":true,"internalType":"address"},{"name":"value","type":"uint256","indexed":false,"internalType":"uint256"}],"anonymous":false},{"type":"event","name":"OwnershipTransferred","inputs":[{"name":"previousOwner","type":"address","indexed":true,"internalType":"address"},{"name":"newOwner","type":"address","indexed":true,"internalType":"address"}],"anonymous":false},{"type":"event","name":"Transfer","inputs":[{"name":"from","type":"address","indexed":true,"internalType":"address"},{"name":"to","type":"address","indexed":true,"internalType":"address"},{"name":"value","type":"uint256","indexed":false,"internalType":"uint256"}],"anonymous":false},{"type":"error","name":"ERC20InsufficientAllowance","inputs":[{"name":"spender","type":"address","internalType":"address"},{"name":"allowance","type":"uint256","internalType":"uint256"},{"name":"needed","type":"uint256","internalType":"uint256"}]},{"type":"error","name":"ERC20InsufficientBalance","inputs":[{"name":"sender","type":"address","internalType":"address"},{"name":"balance","type":"uint256","internalType":"uint256"},{"name":"needed","type":"uint256","internalType":"uint256"}]},{"type":"error","name":"ERC20InvalidApprover","inputs":[{"name":"approver","type":"address","internalType":"address"}]},{"type":"error","name":"ERC20InvalidReceiver","inputs":[{"name":"receiver","type":"address","internalType":"address"}]},{"type":"error","name":"ERC20InvalidSender","inputs":[{"name":"sender","type":"address","internalType":"address"}]},{"type":"error","name":"ERC20InvalidSpender","inputs":[{"name":"spender","type":"address","internalType":"address"}]},{"type":"error","name":"OwnableInvalidOwner","inputs":[{"name":"owner","type":"address","internalType":"address"}]},{"type":"error","name":"OwnableUnauthorizedAccount","inputs":[{"name":"account","type":"address","internalType":"address"}]}],"bytecode":{"object":"0x60806040526040516121aa3803806121aa83398181016040528101906100259190610834565b335f73ffffffffffffffffffffffffffffffffffffffff168173ffffffffffffffffffffffffffffffffffffffff1603610096575f6040517f1e4fbdf700000000000000000000000000000000000000000000000000000000815260040161008d9190610904565b60405180910390fd5b6100a58161028660201b60201c565b5085600490816100b59190610b24565b5084600590816100c59190610b24565b508360065f6101000a81548160ff021916908360ff16021790555080341015610123576040517f08c379a000000000000000000000000000000000000000000000000000000000815260040161011a90610c4d565b60405180910390fd5b5f73ffffffffffffffffffffffffffffffffffffffff168273ffffffffffffffffffffffffffffffffffffffff1603610191576040517f08c379a000000000000000000000000000000000000000000000000000000000815260040161018890610cb5565b60405180910390fd5b5f8273ffffffffffffffffffffffffffffffffffffffff16826040516101b690610d00565b5f6040518083038185875af1925050503d805f81146101f0576040519150601f19603f3d011682016040523d82523d5f602084013e6101f5565b606091505b5050905080610239576040517f08c379a000000000000000000000000000000000000000000000000000000000815260040161023090610d5e565b60405180910390fd5b61027a61024a61034760201b60201c565b61025861036e60201b60201c565b600a6102649190610ed8565b8661026f9190610f22565b61038360201b60201c565b50505050505050610ff3565b5f5f5f9054906101000a900473ffffffffffffffffffffffffffffffffffffffff169050815f5f6101000a81548173ffffffffffffffffffffffffffffffffffffffff021916908373ffffffffffffffffffffffffffffffffffffffff1602179055508173ffffffffffffffffffffffffffffffffffffffff168173ffffffffffffffffffffffffffffffffffffffff167f8be0079c531659141344cd1fd0a4f28419497f9722a3daafe3b4186f6b6457e060405160405180910390a35050565b5f5f5f9054906101000a900473ffffffffffffffffffffffffffffffffffffffff16905090565b5f60065f9054906101000a900460ff16905090565b5f73ffffffffffffffffffffffffffffffffffffffff168273ffffffffffffffffffffffffffffffffffffffff16036103f3575f6040517fec442f050000000000000000000000000000000000000000000000000000000081526004016103ea9190610904565b60405180910390fd5b6104045f838361040860201b60201c565b5050565b5f73ffffffffffffffffffffffffffffffffffffffff168373ffffffffffffffffffffffffffffffffffffffff1603610458578060035f82825461044c9190610f63565b92505081905550610528565b5f60015f8573ffffffffffffffffffffffffffffffffffffffff1673ffffffffffffffffffffffffffffffffffffffff1681526020019081526020015f20549050818110156104e2578381836040517fe450d38c0000000000000000000000000000000000000000000000000000000081526004016104d993929190610fa5565b60405180910390fd5b81810360015f8673ffffffffffffffffffffffffffffffffffffffff1673ffffffffffffffffffffffffffffffffffffffff1681526020019081526020015f2081905550505b5f73ffffffffffffffffffffffffffffffffffffffff168273ffffffffffffffffffffffffffffffffffffffff160361056f578060035f82825403925050819055506105ba565b8060015f8473ffffffffffffffffffffffffffffffffffffffff1673ffffffffffffffffffffffffffffffffffffffff1681526020019081526020015f205f82825401925050819055505b8173ffffffffffffffffffffffffffffffffffffffff168373ffffffffffffffffffffffffffffffffffffffff167fddf252ad1be2c89b69c2b068fc378daa952ba7f163c4a11628f55a4df523b3ef836040516106179190610fda565b60405180910390a3505050565b5f604051905090565b5f5ffd5b5f5ffd5b5f5ffd5b5f5ffd5b5f601f19601f8301169050919050565b7f4e487b71000000000000000000000000000000000000000000000000000000005f52604160045260245ffd5b6106838261063d565b810181811067ffffffffffffffff821117156106a2576106a161064d565b5b80604052505050565b5f6106b4610624565b90506106c0828261067a565b919050565b5f67ffffffffffffffff8211156106df576106de61064d565b5b6106e88261063d565b9050602081019050919050565b8281835e5f83830152505050565b5f610715610710846106c5565b6106ab565b90508281526020810184848401111561073157610730610639565b5b61073c8482856106f5565b509392505050565b5f82601f83011261075857610757610635565b5b8151610768848260208601610703565b91505092915050565b5f60ff82169050919050565b61078681610771565b8114610790575f5ffd5b50565b5f815190506107a18161077d565b92915050565b5f819050919050565b6107b9816107a7565b81146107c3575f5ffd5b50565b5f815190506107d4816107b0565b92915050565b5f73ffffffffffffffffffffffffffffffffffffffff82169050919050565b5f610803826107da565b9050919050565b610813816107f9565b811461081d575f5ffd5b50565b5f8151905061082e8161080a565b92915050565b5f5f5f5f5f5f60c0878903121561084e5761084d61062d565b5b5f87015167ffffffffffffffff81111561086b5761086a610631565b5b61087789828a01610744565b965050602087015167ffffffffffffffff81111561089857610897610631565b5b6108a489828a01610744565b95505060406108b589828a01610793565b94505060606108c689828a016107c6565b93505060806108d789828a01610820565b92505060a06108e889828a016107c6565b9150509295509295509295565b6108fe816107f9565b82525050565b5f6020820190506109175f8301846108f5565b92915050565b5f81519050919050565b7f4e487b71000000000000000000000000000000000000000000000000000000005f52602260045260245ffd5b5f600282049050600182168061096b57607f821691505b60208210810361097e5761097d610927565b5b50919050565b5f819050815f5260205f209050919050565b5f6020601f8301049050919050565b5f82821b905092915050565b5f600883026109e07fffffffffffffffffffffffffffffffffffffffffffffffffffffffffffffffff826109a5565b6109ea86836109a5565b95508019841693508086168417925050509392505050565b5f819050919050565b5f610a25610a20610a1b846107a7565b610a02565b6107a7565b9050919050565b5f819050919050565b610a3e83610a0b565b610a52610a4a82610a2c565b8484546109b1565b825550505050565b5f5f905090565b610a69610a5a565b610a74818484610a35565b505050565b5b81811015610a9757610a8c5f82610a61565b600181019050610a7a565b5050565b601f821115610adc57610aad81610984565b610ab684610996565b81016020851015610ac5578190505b610ad9610ad185610996565b830182610a79565b50505b505050565b5f82821c905092915050565b5f610afc5f1984600802610ae1565b1980831691505092915050565b5f610b148383610aed565b9150826002028217905092915050565b610b2d8261091d565b67ffffffffffffffff811115610b4657610b4561064d565b5b610b508254610954565b610b5b828285610a9b565b5f60209050601f831160018114610b8c575f8415610b7a578287015190505b610b848582610b09565b865550610beb565b601f198416610b9a86610984565b5f5b82811015610bc157848901518255600182019150602085019450602081019050610b9c565b86831015610bde5784890151610bda601f891682610aed565b8355505b6001600288020188555050505b505050505050565b5f82825260208201905092915050565b7f496e73756666696369656e742066656520616d6f756e742073656e74000000005f82015250565b5f610c37601c83610bf3565b9150610c4282610c03565b602082019050919050565b5f6020820190508181035f830152610c6481610c2b565b9050919050565b7f496e76616c6964206665652072656365697665722061646472657373000000005f82015250565b5f610c9f601c83610bf3565b9150610caa82610c6b565b602082019050919050565b5f6020820190508181035f830152610ccc81610c93565b9050919050565b5f81905092915050565b50565b5f610ceb5f83610cd3565b9150610cf682610cdd565b5f82019050919050565b5f610d0a82610ce0565b9150819050919050565b7f466565207472616e73666572206661696c6564000000000000000000000000005f82015250565b5f610d48601383610bf3565b9150610d5382610d14565b602082019050919050565b5f6020820190508181035f830152610d7581610d3c565b9050919050565b7f4e487b71000000000000000000000000000000000000000000000000000000005f52601160045260245ffd5b5f8160011c9050919050565b5f5f8291508390505b6001851115610dfe57808604811115610dda57610dd9610d7c565b5b6001851615610de95780820291505b8081029050610df785610da9565b9450610dbe565b94509492505050565b5f82610e165760019050610ed1565b81610e23575f9050610ed1565b8160018114610e395760028114610e4357610e72565b6001915050610ed1565b60ff841115610e5557610e54610d7c565b5b8360020a915084821115610e6c57610e6b610d7c565b5b50610ed1565b5060208310610133831016604e8410600b8410161715610ea75782820a905083811115610ea257610ea1610d7c565b5b610ed1565b610eb48484846001610db5565b92509050818404811115610ecb57610eca610d7c565b5b81810290505b9392505050565b5f610ee2826107a7565b9150610eed83610771565b9250610f1a7fffffffffffffffffffffffffffffffffffffffffffffffffffffffffffffffff8484610e07565b905092915050565b5f610f2c826107a7565b9150610f37836107a7565b9250828202610f45816107a7565b91508282048414831517610f5c57610f5b610d7c565b5b5092915050565b5f610f6d826107a7565b9150610f78836107a7565b9250828201905080821115610f9057610f8f610d7c565b5b92915050565b610f9f816107a7565b82525050565b5f606082019050610fb85f8301866108f5565b610fc56020830185610f96565b610fd26040830184610f96565b949350505050565b5f602082019050610fed5f830184610f96565b92915050565b6111aa806110005f395ff3fe608060405234801561000f575f5ffd5b50600436106100e8575f3560e01c8063715018a61161008a57806395d89b411161006457806395d89b4114610236578063a9059cbb14610254578063dd62ed3e14610284578063f2fde38b146102b4576100e8565b8063715018a6146101f257806379cc6790146101fc5780638da5cb5b14610218576100e8565b806323b872dd116100c657806323b872dd14610158578063313ce5671461018857806342966c68146101a657806370a08231146101c2576100e8565b806306fdde03146100ec578063095ea7b31461010a57806318160ddd1461013a575b5f5ffd5b6100f46102d0565b6040516101019190610df8565b60405180910390f35b610124600480360381019061011f9190610ea9565b610360565b6040516101319190610f01565b60405180910390f35b610142610382565b60405161014f9190610f29565b60405180910390f35b610172600480360381019061016d9190610f42565b61038b565b60405161017f9190610f01565b60405180910390f35b6101906103b9565b60405161019d9190610fad565b60405180910390f35b6101c060048036038101906101bb9190610fc6565b6103ce565b005b6101dc60048036038101906101d79190610ff1565b6103e2565b6040516101e99190610f29565b60405180910390f35b6101fa610428565b005b61021660048036038101906102119190610ea9565b61043b565b005b61022061045b565b60405161022d919061102b565b60405180910390f35b61023e610482565b60405161024b9190610df8565b60405180910390f35b61026e60048036038101906102699190610ea9565b610512565b60405161027b9190610f01565b60405180910390f35b61029e60048036038101906102999190611044565b610534565b6040516102ab9190610f29565b60405180910390f35b6102ce60048036038101906102c99190610ff1565b6105b6565b005b6060600480546102df906110af565b80601f016020809104026020016040519081016040528092919081815260200182805461030b906110af565b80156103565780601f1061032d57610100808354040283529160200191610356565b820191905f5260205f20905b81548152906001019060200180831161033957829003601f168201915b5050505050905090565b5f5f61036a61063a565b9050610377818585610641565b600191505092915050565b5f600354905090565b5f5f61039561063a565b90506103a2858285610653565b6103ad8585856106e6565b60019150509392505050565b5f60065f9054906101000a900460ff16905090565b6103df6103d961063a565b826107d6565b50565b5f60015f8373ffffffffffffffffffffffffffffffffffffffff1673ffffffffffffffffffffffffffffffffffffffff1681526020019081526020015f20549050919050565b610430610855565b6104395f6108dc565b565b61044d8261044761063a565b83610653565b61045782826107d6565b5050565b5f5f5f9054906101000a900473ffffffffffffffffffffffffffffffffffffffff16905090565b606060058054610491906110af565b80601f01602080910402602001604051908101604052809291908181526020018280546104bd906110af565b80156105085780601f106104df57610100808354040283529160200191610508565b820191905f5260205f20905b8154815290600101906020018083116104eb57829003601f168201915b5050505050905090565b5f5f61051c61063a565b90506105298185856106e6565b600191505092915050565b5f60025f8473ffffffffffffffffffffffffffffffffffffffff1673ffffffffffffffffffffffffffffffffffffffff1681526020019081526020015f205f8373ffffffffffffffffffffffffffffffffffffffff1673ffffffffffffffffffffffffffffffffffffffff1681526020019081526020015f2054905092915050565b6105be610855565b5f73ffffffffffffffffffffffffffffffffffffffff168173ffffffffffffffffffffffffffffffffffffffff160361062e575f6040517f1e4fbdf7000000000000000000000000000000000000000000000000000000008152600401610625919061102b565b60405180910390fd5b610637816108dc565b50565b5f33905090565b61064e838383600161099d565b505050565b5f61065e8484610534565b90507fffffffffffffffffffffffffffffffffffffffffffffffffffffffffffffffff8110156106e057818110156106d1578281836040517ffb8f41b20000000000000000000000000000000000000000000000000000000081526004016106c8939291906110df565b60405180910390fd5b6106df84848484035f61099d565b5b50505050565b5f73ffffffffffffffffffffffffffffffffffffffff168373ffffffffffffffffffffffffffffffffffffffff1603610756575f6040517f96c6fd1e00000000000000000000000000000000000000000000000000000000815260040161074d919061102b565b60405180910390fd5b5f73ffffffffffffffffffffffffffffffffffffffff168273ffffffffffffffffffffffffffffffffffffffff16036107c6575f6040517fec442f050000000000000000000000000000000000000000000000000000000081526004016107bd919061102b565b60405180910390fd5b6107d1838383610b6c565b505050565b5f73ffffffffffffffffffffffffffffffffffffffff168273ffffffffffffffffffffffffffffffffffffffff1603610846575f6040517f96c6fd1e00000000000000000000000000000000000000000000000000000000815260040161083d919061102b565b60405180910390fd5b610851825f83610b6c565b5050565b61085d61063a565b73ffffffffffffffffffffffffffffffffffffffff1661087b61045b565b73ffffffffffffffffffffffffffffffffffffffff16146108da5761089e61063a565b6040517f118cdaa70000000000000000000000000000000000000000000000000000000081526004016108d1919061102b565b60405180910390fd5b565b5f5f5f9054906101000a900473ffffffffffffffffffffffffffffffffffffffff169050815f5f6101000a81548173ffffffffffffffffffffffffffffffffffffffff021916908373ffffffffffffffffffffffffffffffffffffffff1602179055508173ffffffffffffffffffffffffffffffffffffffff168173ffffffffffffffffffffffffffffffffffffffff167f8be0079c531659141344cd1fd0a4f28419497f9722a3daafe3b4186f6b6457e060405160405180910390a35050565b5f73ffffffffffffffffffffffffffffffffffffffff168473ffffffffffffffffffffffffffffffffffffffff1603610a0d575f6040517fe602df05000000000000000000000000000000000000000000000000000000008152600401610a04919061102b565b60405180910390fd5b5f73ffffffffffffffffffffffffffffffffffffffff168373ffffffffffffffffffffffffffffffffffffffff1603610a7d575f6040517f94280d62000000000000000000000000000000000000000000000000000000008152600401610a74919061102b565b60405180910390fd5b8160025f8673ffffffffffffffffffffffffffffffffffffffff1673ffffffffffffffffffffffffffffffffffffffff1681526020019081526020015f205f8573ffffffffffffffffffffffffffffffffffffffff1673ffffffffffffffffffffffffffffffffffffffff1681526020019081526020015f20819055508015610b66578273ffffffffffffffffffffffffffffffffffffffff168473ffffffffffffffffffffffffffffffffffffffff167f8c5be1e5ebec7d5bd14f71427d1e84f3dd0314c0f7b2291e5b200ac8c7c3b92584604051610b5d9190610f29565b60405180910390a35b50505050565b5f73ffffffffffffffffffffffffffffffffffffffff168373ffffffffffffffffffffffffffffffffffffffff1603610bbc578060035f828254610bb09190611141565b92505081905550610c8c565b5f60015f8573ffffffffffffffffffffffffffffffffffffffff1673ffffffffffffffffffffffffffffffffffffffff1681526020019081526020015f2054905081811015610c46578381836040517fe450d38c000000000000000000000000000000000000000000000000000000008152600401610c3d939291906110df565b60405180910390fd5b81810360015f8673ffffffffffffffffffffffffffffffffffffffff1673ffffffffffffffffffffffffffffffffffffffff1681526020019081526020015f2081905550505b5f73ffffffffffffffffffffffffffffffffffffffff168273ffffffffffffffffffffffffffffffffffffffff1603610cd3578060035f8282540392505081905550610d1e565b8060015f8473ffffffffffffffffffffffffffffffffffffffff1673ffffffffffffffffffffffffffffffffffffffff1681526020019081526020015f205f82825401925050819055505b8173ffffffffffffffffffffffffffffffffffffffff168373ffffffffffffffffffffffffffffffffffffffff167fddf252ad1be2c89b69c2b068fc378daa952ba7f163c4a11628f55a4df523b3ef83604051610d7b9190610f29565b60405180910390a3505050565b5f81519050919050565b5f82825260208201905092915050565b8281835e5f83830152505050565b5f601f19601f8301169050919050565b5f610dca82610d88565b610dd48185610d92565b9350610de4818560208601610da2565b610ded81610db0565b840191505092915050565b5f6020820190508181035f830152610e108184610dc0565b905092915050565b5f5ffd5b5f73ffffffffffffffffffffffffffffffffffffffff82169050919050565b5f610e4582610e1c565b9050919050565b610e5581610e3b565b8114610e5f575f5ffd5b50565b5f81359050610e7081610e4c565b92915050565b5f819050919050565b610e8881610e76565b8114610e92575f5ffd5b50565b5f81359050610ea381610e7f565b92915050565b5f5f60408385031215610ebf57610ebe610e18565b5b5f610ecc85828601610e62565b9250506020610edd85828601610e95565b9150509250929050565b5f8115159050919050565b610efb81610ee7565b82525050565b5f602082019050610f145f830184610ef2565b92915050565b610f2381610e76565b82525050565b5f602082019050610f3c5f830184610f1a565b92915050565b5f5f5f60608486031215610f5957610f58610e18565b5b5f610f6686828701610e62565b9350506020610f7786828701610e62565b9250506040610f8886828701610e95565b9150509250925092565b5f60ff82169050919050565b610fa781610f92565b82525050565b5f602082019050610fc05f830184610f9e565b92915050565b5f60208284031215610fdb57610fda610e18565b5b5f610fe884828501610e95565b91505092915050565b5f6020828403121561100657611005610e18565b5b5f61101384828501610e62565b91505092915050565b61102581610e3b565b82525050565b5f60208201905061103e5f83018461101c565b92915050565b5f5f6040838503121561105a57611059610e18565b5b5f61106785828601610e62565b925050602061107885828601610e62565b9150509250929050565b7f4e487b71000000000000000000000000000000000000000000000000000000005f52602260045260245ffd5b5f60028204905060018216806110c657607f821691505b6020821081036110d9576110d8611082565b5b50919050565b5f6060820190506110f25f83018661101c565b6110ff6020830185610f1a565b61110c6040830184610f1a565b949350505050565b7f4e487b71000000000000000000000000000000000000000000000000000000005f52601160045260245ffd5b5f61114b82610e76565b915061115683610e76565b925082820190508082111561116e5761116d611114565b5b9291505056fea26469706673582212200a94385be2144978abaefb35978c951ffb9713dc7c8d46a6850ef3de73af944f64736f6c634300081c0033","linkReferences":{}},"methodIdentifiers":{"allowance(address,address)":"dd62ed3e","approve(address,uint256)":"095ea7b3","balanceOf(address)":"70a08231","burn(uint256)":"42966c68","burnFrom(address,uint256)":"79cc6790","decimals()":"313ce567","name()":"06fdde03","owner()":"8da5cb5b","renounceOwnership()":"715018a6","symbol()":"95d89b41","totalSupply()":"18160ddd","transfer(address,uint256)":"a9059cbb","transferFrom(address,address,uint256)":"23b872dd","transferOwnership(address)":"f2fde38b"},"id":2}