{"abi":[{"type":"constructor","inputs":[{"name":"name_","type":"string","internalType":"string"},{"name":"symbol_","type":"string","internalType":"string"},{"name":"decimals_","type":"uint8","internalType":"uint8"},{"name":"totalSupply_","type":"uint256","internalType":"uint256"},{"name":"cap_","type":"uint256","internalType":"uint256"},{"name":"serviceFeeReceiver_","type":"address","internalType":"address"},{"name":"serviceFee_","type":"uint256","internalType":"uint256"},{"name":"transferTaxBps_","type":"uint256","internalType":"uint256"},{"name":"taxFeeRecipient_","type":"address","internalType":"address"}],"stateMutability":"payable"},{"type":"function","name":"allowance","inputs":[{"name":"owner","type":"address","internalType":"address"},{"name":"spender","type":"address","internalType":"address"}],"outputs":[{"name":"","type":"uint256","internalType":"uint256"}],"stateMutability":"view"},{"type":"function","name":"approve","inputs":[{"name":"spender","type":"address","internalType":"address"},{"name":"value","type":"uint256","internalType":"uint256"}],"outputs":[{"name":"","type":"bool","internalType":"bool"}],"stateMutability":"nonpayable"},{"type":"function","name":"balanceOf","inputs":[{"name":"account","type":"address","internalType":"address"}],"outputs":[{"name":"","type":"uint256","internalType":"uint256"}],"stateMutability":"view"},{"type":"function","name":"blacklist","inputs":[{"name":"account","type":"address","internalType":"address"}],"outputs":[],"stateMutability":"nonpayable"},{"type":"function","name":"cap","inputs":[],"outputs":[{"name":"","type":"uint256","internalType":"uint256"}],"stateMutability":"view"},{"type":"function","name":"decimals","inputs":[],"outputs":[{"name":"","type":"uint8","internalType":"uint8"}],"stateMutability":"view"},{"type":"function","name":"getTaxFeeRecipient","inputs":[],"outputs":[{"name":"","type":"address","internalType":"address"}],"stateMutability":"view"},{"type":"function","name":"getTransferTaxBps","inputs":[],"outputs":[{"name":"","type":"uint256","internalType":"uint256"}],"stateMutability":"view"},{"type":"function","name":"isBlacklisted","inputs":[{"name":"account","type":"address","internalType":"address"}],"outputs":[{"name":"","type":"bool","internalType":"bool"}],"stateMutability":"view"},{"type":"function","name":"mint","inputs":[{"name":"to","type":"address","internalType":"address"},{"name":"amount","type":"uint256","internalType":"uint256"}],"outputs":[],"stateMutability":"nonpayable"},{"type":"function","name":"name","inputs":[],"outputs":[{"name":"","type":"string","internalType":"string"}],"stateMutability":"view"},{"type":"function","name":"owner","inputs":[],"outputs":[{"name":"","type":"address","internalType":"address"}],"stateMutability":"view"},{"type":"function","name":"pause","inputs":[],"outputs":[],"stateMutability":"nonpayable"},{"type":"function","name":"paused","inputs":[],"outputs":[{"name":"","type":"bool","internalType":"bool"}],"stateMutability":"view"},{"type":"function","name":"renounceOwnership","inputs":[],"outputs":[],"stateMutability":"nonpayable"},{"type":"function","name":"symbol","inputs":[],"outputs":[{"name":"","type":"string","internalType":"string"}],"stateMutability":"view"},{"type":"function","name":"totalSupply","inputs":[],"outputs":[{"name":"","type":"uint256","internalType":"uint256"}],"stateMutability":"view"},{"type":"function","name":"transfer","inputs":[{"name":"to","type":"address","internalType":"address"},{"name":"value","type":"uint256","internalType":"uint256"}],"outputs":[{"name":"","type":"bool","internalType":"bool"}],"stateMutability":"nonpayable"},{"type":"function","name":"transferFrom","inputs":[{"name":"from","type":"address","internalType":"address"},{"name":"to","type":"address","internalType":"address"},{"name":"value","type":"uint256","internalType":"uint256"}],"outputs":[{"name":"","type":"bool","internalType":"bool"}],"stateMutability":"nonpayable"},{"type":"function","name":"transferOwnership","inputs":[{"name":"newOwner","type":"address","internalType":"address"}],"outputs":[],"stateMutability":"nonpayable"},{"type":"function","name":"unblacklist","inputs":[{"name":"account","type":"address","internalType":"address"}],"outputs":[],"stateMutability":"nonpayable"},{"type":"function","name":"unpause","inputs":[],"outputs":[],"stateMutability":"nonpayable"},{"type":"function","name":"updateTaxFeeRecipient","inputs":[{"name":"newTaxFeeRecipient","type":"address","internalType":"address"}],"outputs":[],"stateMutability":"nonpayable"},{"type":"event","name":"Approval","inputs":[{"name":"owner","type":"address","indexed":true,"internalType":"address"},{"name":"spender","type":"address","indexed":true,"internalType":"address"},{"name":"value","type":"uint256","indexed":false,"internalType":"uint256"}],"anonymous":false},{"type":"event","name":"Blacklisted","inputs":[{"name":"account","type":"address","indexed":true,"internalType":"address"}],"anonymous":false},{"type":"event","name":"OwnershipTransferred","inputs":[{"name":"previousOwner","type":"address","indexed":true,"internalType":"address"},{"name":"newOwner","type":"address","indexed":true,"internalType":"address"}],"anonymous":false},{"type":"event","name":"Paused","inputs":[{"name":"account","type":"address","indexed":false,"internalType":"address"}],"anonymous":false},{"type":"event","name":"TaxFeeRecipientUpdated","inputs":[{"name":"newTaxFeeRecipient","type":"address","indexed":false,"internalType":"address"}],"anonymous":false},{"type":"event","name":"Transfer","inputs":[{"name":"from","type":"address","indexed":true,"internalType":"address"},{"name":"to","type":"address","indexed":true,"internalType":"address"},{"name":"value","type":"uint256","indexed":false,"internalType":"uint256"}],"anonymous":false},{"type":"event","name":"Unblacklisted","inputs":[{"name":"account","type":"address","indexed":true,"internalType":"address"}],"anonymous":false},{"type":"event","name":"Unpaused","inputs":[{"name":"account","type":"address","indexed":false,"internalType":"address"}],"anonymous":false},{"type":"error","name":"ERC20InsufficientAllowance","inputs":[{"name":"spender","type":"address","internalType":"address"},{"name":"allowance","type":"uint256","internalType":"uint256"},{"name":"needed","type":"uint256","internalType":"uint256"}]},{"type":"error","name":"ERC20InsufficientBalance","inputs":[{"name":"sender","type":"address","internalType":"address"},{"name":"balance","type":"uint256","internalType":"uint256"},{"name":"needed","type":"uint256","internalType":"uint256"}]},{"type":"error","name":"ERC20InvalidApprover","inputs":[{"name":"approver","type":"address","internalType":"address"}]},{"type":"error","name":"ERC20InvalidReceiver","inputs":[{"name":"receiver","type":"address","internalType":"address"}]},{"type":"error","name":"ERC20InvalidSender","inputs":[{"name":"sender","type":"address","internalType":"address"}]},{"type":"error","name":"ERC20InvalidSpender","inputs":[{"name":"spender","type":"address","internalType":"address"}]},{"type":"error","name":"EnforcedPause","inputs":[]},{"type":"error","name":"ExpectedPause","inputs":[]},{"type":"error","name":"OwnableInvalidOwner","inputs":[{"name":"owner","type":"address","internalType":"address"}]},{"type":"error","name":"OwnableUnauthorizedAccount","inputs":[{"name":"account","type":"address","internalType":"address"}]}],"bytecode":{"object":"0x60806040526040516135d03803806135d083398181016040528101906100259190610a5c565b335f73ffffffffffffffffffffffffffffffffffffffff168173ffffffffffffffffffffffffffffffffffffffff1603610096575f6040517f1e4fbdf700000000000000000000000000000000000000000000000000000000815260040161008d9190610b67565b60405180910390fd5b6100a5816103a660201b60201c565b505f5f60146101000a81548160ff02191690831515021790555088600590816100ce9190610d87565b5087600690816100de9190610d87565b508660075f6101000a81548160ff021916908360ff1602179055508160098190555080600a5f6101000a81548173ffffffffffffffffffffffffffffffffffffffff021916908373ffffffffffffffffffffffffffffffffffffffff1602179055505f8511610182576040517f08c379a000000000000000000000000000000000000000000000000000000000815260040161017990610eb0565b60405180910390fd5b8460088190555061019761046760201b60201c565b600a6101a3919061102a565b6101b161047c60201b60201c565b6101bb9190611074565b8611156101fd576040517f08c379a00000000000000000000000000000000000000000000000000000000081526004016101f4906110ff565b60405180910390fd5b82341015610240576040517f08c379a000000000000000000000000000000000000000000000000000000000815260040161023790611167565b60405180910390fd5b5f73ffffffffffffffffffffffffffffffffffffffff168473ffffffffffffffffffffffffffffffffffffffff16036102ae576040517f08c379a00000000000000000000000000000000000000000000000000000000081526004016102a5906111cf565b60405180910390fd5b5f8473ffffffffffffffffffffffffffffffffffffffff16846040516102d39061121a565b5f6040518083038185875af1925050503d805f811461030d576040519150601f19603f3d011682016040523d82523d5f602084013e610312565b606091505b5050905080610356576040517f08c379a000000000000000000000000000000000000000000000000000000000815260040161034d90611278565b60405180910390fd5b61039761036761048560201b60201c565b61037561046760201b60201c565b600a610381919061102a565b8961038c9190611074565b6104ac60201b60201c565b50505050505050505050611326565b5f5f5f9054906101000a900473ffffffffffffffffffffffffffffffffffffffff169050815f5f6101000a81548173ffffffffffffffffffffffffffffffffffffffff021916908373ffffffffffffffffffffffffffffffffffffffff1602179055508173ffffffffffffffffffffffffffffffffffffffff168173ffffffffffffffffffffffffffffffffffffffff167f8be0079c531659141344cd1fd0a4f28419497f9722a3daafe3b4186f6b6457e060405160405180910390a35050565b5f60075f9054906101000a900460ff16905090565b5f600854905090565b5f5f5f9054906101000a900473ffffffffffffffffffffffffffffffffffffffff16905090565b6104ba61046760201b60201c565b600a6104c6919061102a565b6104d461047c60201b60201c565b6104de9190611074565b816104ed6105bd60201b60201c565b6104f79190611296565b1115610538576040517f08c379a000000000000000000000000000000000000000000000000000000000815260040161052f906110ff565b60405180910390fd5b5f73ffffffffffffffffffffffffffffffffffffffff168273ffffffffffffffffffffffffffffffffffffffff16036105a8575f6040517fec442f0500000000000000000000000000000000000000000000000000000000815260040161059f9190610b67565b60405180910390fd5b6105b95f83836105c660201b60201c565b5050565b5f600454905090565b6105d46107f060201b60201c565b5f73ffffffffffffffffffffffffffffffffffffffff168373ffffffffffffffffffffffffffffffffffffffff1603610624578060045f8282546106189190611296565b925050819055506106f4565b5f60015f8573ffffffffffffffffffffffffffffffffffffffff1673ffffffffffffffffffffffffffffffffffffffff1681526020019081526020015f20549050818110156106ae578381836040517fe450d38c0000000000000000000000000000000000000000000000000000000081526004016106a5939291906112d8565b60405180910390fd5b81810360015f8673ffffffffffffffffffffffffffffffffffffffff1673ffffffffffffffffffffffffffffffffffffffff1681526020019081526020015f2081905550505b5f73ffffffffffffffffffffffffffffffffffffffff168273ffffffffffffffffffffffffffffffffffffffff160361073b578060045f8282540392505081905550610786565b8060015f8473ffffffffffffffffffffffffffffffffffffffff1673ffffffffffffffffffffffffffffffffffffffff1681526020019081526020015f205f82825401925050819055505b8173ffffffffffffffffffffffffffffffffffffffff168373ffffffffffffffffffffffffffffffffffffffff167fddf252ad1be2c89b69c2b068fc378daa952ba7f163c4a11628f55a4df523b3ef836040516107e3919061130d565b60405180910390a3505050565b6107fe61083760201b60201c565b15610835576040517fd93c066500000000000000000000000000000000000000000000000000000000815260040160405180910390fd5b565b5f5f60149054906101000a900460ff16905090565b5f604051905090565b5f5ffd5b5f5ffd5b5f5ffd5b5f5ffd5b5f601f19601f8301169050919050565b7f4e487b71000000000000000000000000000000000000000000000000000000005f52604160045260245ffd5b6108ab82610865565b810181811067ffffffffffffffff821117156108ca576108c9610875565b5b80604052505050565b5f6108dc61084c565b90506108e882826108a2565b919050565b5f67ffffffffffffffff82111561090757610906610875565b5b61091082610865565b9050602081019050919050565b8281835e5f83830152505050565b5f61093d610938846108ed565b6108d3565b90508281526020810184848401111561095957610958610861565b5b61096484828561091d565b509392505050565b5f82601f8301126109805761097f61085d565b5b815161099084826020860161092b565b91505092915050565b5f60ff82169050919050565b6109ae81610999565b81146109b8575f5ffd5b50565b5f815190506109c9816109a5565b92915050565b5f819050919050565b6109e1816109cf565b81146109eb575f5ffd5b50565b5f815190506109fc816109d8565b92915050565b5f73ffffffffffffffffffffffffffffffffffffffff82169050919050565b5f610a2b82610a02565b9050919050565b610a3b81610a21565b8114610a45575f5ffd5b50565b5f81519050610a5681610a32565b92915050565b5f5f5f5f5f5f5f5f5f6101208a8c031215610a7a57610a79610855565b5b5f8a015167ffffffffffffffff811115610a9757610a96610859565b5b610aa38c828d0161096c565b99505060208a015167ffffffffffffffff811115610ac457610ac3610859565b5b610ad08c828d0161096c565b9850506040610ae18c828d016109bb565b9750506060610af28c828d016109ee565b9650506080610b038c828d016109ee565b95505060a0610b148c828d01610a48565b94505060c0610b258c828d016109ee565b93505060e0610b368c828d016109ee565b925050610100610b488c828d01610a48565b9150509295985092959850929598565b610b6181610a21565b82525050565b5f602082019050610b7a5f830184610b58565b92915050565b5f81519050919050565b7f4e487b71000000000000000000000000000000000000000000000000000000005f52602260045260245ffd5b5f6002820490506001821680610bce57607f821691505b602082108103610be157610be0610b8a565b5b50919050565b5f819050815f5260205f209050919050565b5f6020601f8301049050919050565b5f82821b905092915050565b5f60088302610c437fffffffffffffffffffffffffffffffffffffffffffffffffffffffffffffffff82610c08565b610c4d8683610c08565b95508019841693508086168417925050509392505050565b5f819050919050565b5f610c88610c83610c7e846109cf565b610c65565b6109cf565b9050919050565b5f819050919050565b610ca183610c6e565b610cb5610cad82610c8f565b848454610c14565b825550505050565b5f5f905090565b610ccc610cbd565b610cd7818484610c98565b505050565b5b81811015610cfa57610cef5f82610cc4565b600181019050610cdd565b5050565b601f821115610d3f57610d1081610be7565b610d1984610bf9565b81016020851015610d28578190505b610d3c610d3485610bf9565b830182610cdc565b50505b505050565b5f82821c905092915050565b5f610d5f5f1984600802610d44565b1980831691505092915050565b5f610d778383610d50565b9150826002028217905092915050565b610d9082610b80565b67ffffffffffffffff811115610da957610da8610875565b5b610db38254610bb7565b610dbe828285610cfe565b5f60209050601f831160018114610def575f8415610ddd578287015190505b610de78582610d6c565b865550610e4e565b601f198416610dfd86610be7565b5f5b82811015610e2457848901518255600182019150602085019450602081019050610dff565b86831015610e415784890151610e3d601f891682610d50565b8355505b6001600288020188555050505b505050505050565b5f82825260208201905092915050565b7f4361702073686f756c642062652067726561746572207468616e2030000000005f82015250565b5f610e9a601c83610e56565b9150610ea582610e66565b602082019050919050565b5f6020820190508181035f830152610ec781610e8e565b9050919050565b7f4e487b71000000000000000000000000000000000000000000000000000000005f52601160045260245ffd5b5f8160011c9050919050565b5f5f8291508390505b6001851115610f5057808604811115610f2c57610f2b610ece565b5b6001851615610f3b5780820291505b8081029050610f4985610efb565b9450610f10565b94509492505050565b5f82610f685760019050611023565b81610f75575f9050611023565b8160018114610f8b5760028114610f9557610fc4565b6001915050611023565b60ff841115610fa757610fa6610ece565b5b8360020a915084821115610fbe57610fbd610ece565b5b50611023565b5060208310610133831016604e8410600b8410161715610ff95782820a905083811115610ff457610ff3610ece565b5b611023565b6110068484846001610f07565b9250905081840481111561101d5761101c610ece565b5b81810290505b9392505050565b5f611034826109cf565b915061103f83610999565b925061106c7fffffffffffffffffffffffffffffffffffffffffffffffffffffffffffffffff8484610f59565b905092915050565b5f61107e826109cf565b9150611089836109cf565b9250828202611097816109cf565b915082820484148315176110ae576110ad610ece565b5b5092915050565b7f45524332304361707065643a20636170206578636565646564000000000000005f82015250565b5f6110e9601983610e56565b91506110f4826110b5565b602082019050919050565b5f6020820190508181035f830152611116816110dd565b9050919050565b7f496e73756666696369656e742066656520616d6f756e742073656e74000000005f82015250565b5f611151601c83610e56565b915061115c8261111d565b602082019050919050565b5f6020820190508181035f83015261117e81611145565b9050919050565b7f496e76616c6964206665652072656365697665722061646472657373000000005f82015250565b5f6111b9601c83610e56565b91506111c482611185565b602082019050919050565b5f6020820190508181035f8301526111e6816111ad565b9050919050565b5f81905092915050565b50565b5f6112055f836111ed565b9150611210826111f7565b5f82019050919050565b5f611224826111fa565b9150819050919050565b7f466565207472616e73666572206661696c6564000000000000000000000000005f82015250565b5f611262601383610e56565b915061126d8261122e565b602082019050919050565b5f6020820190508181035f83015261128f81611256565b9050919050565b5f6112a0826109cf565b91506112ab836109cf565b92508282019050808211156112c3576112c2610ece565b5b92915050565b6112d2816109cf565b82525050565b5f6060820190506112eb5f830186610b58565b6112f860208301856112c9565b61130560408301846112c9565b949350505050565b5f6020820190506113205f8301846112c9565b92915050565b61229d806113335f395ff3fe608060405234801561000f575f5ffd5b506004361061014b575f3560e01c8063715018a6116100c157806395d89b411161007a57806395d89b4114610341578063a9059cbb1461035f578063dd62ed3e1461038f578063f2fde38b146103bf578063f9f92be4146103db578063fe575a87146103f75761014b565b8063715018a6146102b9578063743bfe70146102c357806375e3661e146102e15780638456cb59146102fd5780638baace25146103075780638da5cb5b146103235761014b565b8063313ce56711610113578063313ce56714610209578063355274ea146102275780633f4ba83a1461024557806340c10f191461024f5780635c975abb1461026b57806370a08231146102895761014b565b806303073dfc1461014f57806306fdde031461016d578063095ea7b31461018b57806318160ddd146101bb57806323b872dd146101d9575b5f5ffd5b610157610427565b6040516101649190611afb565b60405180910390f35b61017561044f565b6040516101829190611b84565b60405180910390f35b6101a560048036038101906101a09190611c05565b6104df565b6040516101b29190611c5d565b60405180910390f35b6101c3610619565b6040516101d09190611c85565b60405180910390f35b6101f360048036038101906101ee9190611c9e565b610622565b6040516102009190611c5d565b60405180910390f35b610211610768565b60405161021e9190611d09565b60405180910390f35b61022f61077d565b60405161023c9190611c85565b60405180910390f35b61024d610786565b005b61026960048036038101906102649190611c05565b610798565b005b6102736107ae565b6040516102809190611c5d565b60405180910390f35b6102a3600480360381019061029e9190611d22565b6107c3565b6040516102b09190611c85565b60405180910390f35b6102c1610809565b005b6102cb61081c565b6040516102d89190611c85565b60405180910390f35b6102fb60048036038101906102f69190611d22565b610825565b005b610305610950565b005b610321600480360381019061031c9190611d22565b610962565b005b61032b6109e4565b6040516103389190611afb565b60405180910390f35b610349610a0b565b6040516103569190611b84565b60405180910390f35b61037960048036038101906103749190611c05565b610a9b565b6040516103869190611c5d565b60405180910390f35b6103a960048036038101906103a49190611d4d565b610f23565b6040516103b69190611c85565b60405180910390f35b6103d960048036038101906103d49190611d22565b610fa5565b005b6103f560048036038101906103f09190611d22565b611029565b005b610411600480360381019061040c9190611d22565b611156565b60405161041e9190611c5d565b60405180910390f35b5f600a5f9054906101000a900473ffffffffffffffffffffffffffffffffffffffff16905090565b60606005805461045e90611db8565b80601f016020809104026020016040519081016040528092919081815260200182805461048a90611db8565b80156104d55780601f106104ac576101008083540402835291602001916104d5565b820191905f5260205f20905b8154815290600101906020018083116104b857829003601f168201915b5050505050905090565b5f3360035f8273ffffffffffffffffffffffffffffffffffffffff1673ffffffffffffffffffffffffffffffffffffffff1681526020019081526020015f205f9054906101000a900460ff161561056b576040517f08c379a000000000000000000000000000000000000000000000000000000000815260040161056290611e32565b60405180910390fd5b8360035f8273ffffffffffffffffffffffffffffffffffffffff1673ffffffffffffffffffffffffffffffffffffffff1681526020019081526020015f205f9054906101000a900460ff16156105f6576040517f08c379a00000000000000000000000000000000000000000000000000000000081526004016105ed90611e32565b60405180910390fd5b5f6105ff6111a8565b905061060c8187876111af565b6001935050505092915050565b5f600454905090565b5f8360035f8273ffffffffffffffffffffffffffffffffffffffff1673ffffffffffffffffffffffffffffffffffffffff1681526020019081526020015f205f9054906101000a900460ff16156106ae576040517f08c379a00000000000000000000000000000000000000000000000000000000081526004016106a590611e32565b60405180910390fd5b8360035f8273ffffffffffffffffffffffffffffffffffffffff1673ffffffffffffffffffffffffffffffffffffffff1681526020019081526020015f205f9054906101000a900460ff1615610739576040517f08c379a000000000000000000000000000000000000000000000000000000000815260040161073090611e32565b60405180910390fd5b5f6107426111a8565b905061074f8782876111c1565b61075a878787611254565b600193505050509392505050565b5f60075f9054906101000a900460ff16905090565b5f600854905090565b61078e611344565b6107966113cb565b565b6107a0611344565b6107aa828261142c565b5050565b5f5f60149054906101000a900460ff16905090565b5f60015f8373ffffffffffffffffffffffffffffffffffffffff1673ffffffffffffffffffffffffffffffffffffffff1681526020019081526020015f20549050919050565b610811611344565b61081a5f611525565b565b5f600954905090565b61082d611344565b60035f8273ffffffffffffffffffffffffffffffffffffffff1673ffffffffffffffffffffffffffffffffffffffff1681526020019081526020015f205f9054906101000a900460ff166108b6576040517f08c379a00000000000000000000000000000000000000000000000000000000081526004016108ad90611e9a565b60405180910390fd5b5f60035f8373ffffffffffffffffffffffffffffffffffffffff1673ffffffffffffffffffffffffffffffffffffffff1681526020019081526020015f205f6101000a81548160ff0219169083151502179055508073ffffffffffffffffffffffffffffffffffffffff167f7534c63860313c46c473e4e98328f37017e9674e2162faf1a3ad7a96236c3b7b60405160405180910390a250565b610958611344565b6109606115e6565b565b61096a611344565b80600a5f6101000a81548173ffffffffffffffffffffffffffffffffffffffff021916908373ffffffffffffffffffffffffffffffffffffffff1602179055507f3ca9233bd3849737ab1049144180bc625db2d51ca2c5ce949e7209eb32faa3a2816040516109d99190611afb565b60405180910390a150565b5f5f5f9054906101000a900473ffffffffffffffffffffffffffffffffffffffff16905090565b606060068054610a1a90611db8565b80601f0160208091040260200160405190810160405280929190818152602001828054610a4690611db8565b8015610a915780601f10610a6857610100808354040283529160200191610a91565b820191905f5260205f20905b815481529060010190602001808311610a7457829003601f168201915b5050505050905090565b5f3360035f8273ffffffffffffffffffffffffffffffffffffffff1673ffffffffffffffffffffffffffffffffffffffff1681526020019081526020015f205f9054906101000a900460ff1615610b27576040517f08c379a0000000000000000000000000000000000000000000000000000000008152600401610b1e90611e32565b60405180910390fd5b8360035f8273ffffffffffffffffffffffffffffffffffffffff1673ffffffffffffffffffffffffffffffffffffffff1681526020019081526020015f205f9054906101000a900460ff1615610bb2576040517f08c379a0000000000000000000000000000000000000000000000000000000008152600401610ba990611e32565b60405180910390fd5b5f610bbb6111a8565b90505f61271060095487610bcf9190611ee5565b610bd99190611f53565b90505f8187610be89190611f83565b90508660015f8573ffffffffffffffffffffffffffffffffffffffff1673ffffffffffffffffffffffffffffffffffffffff1681526020019081526020015f20541015610cad578260015f8573ffffffffffffffffffffffffffffffffffffffff1673ffffffffffffffffffffffffffffffffffffffff1681526020019081526020015f2054886040517fe450d38c000000000000000000000000000000000000000000000000000000008152600401610ca493929190611fb6565b60405180910390fd5b8660015f8573ffffffffffffffffffffffffffffffffffffffff1673ffffffffffffffffffffffffffffffffffffffff1681526020019081526020015f205f828254610cf99190611f83565b925050819055508060015f8a73ffffffffffffffffffffffffffffffffffffffff1673ffffffffffffffffffffffffffffffffffffffff1681526020019081526020015f205f828254610d4c9190611feb565b925050819055505f73ffffffffffffffffffffffffffffffffffffffff16600a5f9054906101000a900473ffffffffffffffffffffffffffffffffffffffff1673ffffffffffffffffffffffffffffffffffffffff1614158015610daf57505f82115b15610eaf578160015f600a5f9054906101000a900473ffffffffffffffffffffffffffffffffffffffff1673ffffffffffffffffffffffffffffffffffffffff1673ffffffffffffffffffffffffffffffffffffffff1681526020019081526020015f205f828254610e219190611feb565b92505081905550600a5f9054906101000a900473ffffffffffffffffffffffffffffffffffffffff1673ffffffffffffffffffffffffffffffffffffffff168373ffffffffffffffffffffffffffffffffffffffff167fddf252ad1be2c89b69c2b068fc378daa952ba7f163c4a11628f55a4df523b3ef84604051610ea69190611c85565b60405180910390a35b8773ffffffffffffffffffffffffffffffffffffffff168373ffffffffffffffffffffffffffffffffffffffff167fddf252ad1be2c89b69c2b068fc378daa952ba7f163c4a11628f55a4df523b3ef83604051610f0c9190611c85565b60405180910390a360019550505050505092915050565b5f60025f8473ffffffffffffffffffffffffffffffffffffffff1673ffffffffffffffffffffffffffffffffffffffff1681526020019081526020015f205f8373ffffffffffffffffffffffffffffffffffffffff1673ffffffffffffffffffffffffffffffffffffffff1681526020019081526020015f2054905092915050565b610fad611344565b5f73ffffffffffffffffffffffffffffffffffffffff168173ffffffffffffffffffffffffffffffffffffffff160361101d575f6040517f1e4fbdf70000000000000000000000000000000000000000000000000000000081526004016110149190611afb565b60405180910390fd5b61102681611525565b50565b611031611344565b60035f8273ffffffffffffffffffffffffffffffffffffffff1673ffffffffffffffffffffffffffffffffffffffff1681526020019081526020015f205f9054906101000a900460ff16156110bb576040517f08c379a00000000000000000000000000000000000000000000000000000000081526004016110b290612068565b60405180910390fd5b600160035f8373ffffffffffffffffffffffffffffffffffffffff1673ffffffffffffffffffffffffffffffffffffffff1681526020019081526020015f205f6101000a81548160ff0219169083151502179055508073ffffffffffffffffffffffffffffffffffffffff167fffa4e6181777692565cf28528fc88fd1516ea86b56da075235fa575af6a4b85560405160405180910390a250565b5f60035f8373ffffffffffffffffffffffffffffffffffffffff1673ffffffffffffffffffffffffffffffffffffffff1681526020019081526020015f205f9054906101000a900460ff169050919050565b5f33905090565b6111bc8383836001611648565b505050565b5f6111cc8484610f23565b90507fffffffffffffffffffffffffffffffffffffffffffffffffffffffffffffffff81101561124e578181101561123f578281836040517ffb8f41b200000000000000000000000000000000000000000000000000000000815260040161123693929190611fb6565b60405180910390fd5b61124d84848484035f611648565b5b50505050565b5f73ffffffffffffffffffffffffffffffffffffffff168373ffffffffffffffffffffffffffffffffffffffff16036112c4575f6040517f96c6fd1e0000000000000000000000000000000000000000000000000000000081526004016112bb9190611afb565b60405180910390fd5b5f73ffffffffffffffffffffffffffffffffffffffff168273ffffffffffffffffffffffffffffffffffffffff1603611334575f6040517fec442f0500000000000000000000000000000000000000000000000000000000815260040161132b9190611afb565b60405180910390fd5b61133f838383611817565b505050565b61134c6111a8565b73ffffffffffffffffffffffffffffffffffffffff1661136a6109e4565b73ffffffffffffffffffffffffffffffffffffffff16146113c95761138d6111a8565b6040517f118cdaa70000000000000000000000000000000000000000000000000000000081526004016113c09190611afb565b60405180910390fd5b565b6113d3611a3b565b5f5f60146101000a81548160ff0219169083151502179055507f5db9ee0a495bf2e6ff9c91a7834c1ba4fdd244a5e8aa4e537bd38aeae4b073aa6114156111a8565b6040516114229190611afb565b60405180910390a1565b611434610768565b600a61144091906121b5565b61144861077d565b6114529190611ee5565b8161145b610619565b6114659190611feb565b11156114a6576040517f08c379a000000000000000000000000000000000000000000000000000000000815260040161149d90612249565b60405180910390fd5b5f73ffffffffffffffffffffffffffffffffffffffff168273ffffffffffffffffffffffffffffffffffffffff1603611516575f6040517fec442f0500000000000000000000000000000000000000000000000000000000815260040161150d9190611afb565b60405180910390fd5b6115215f8383611817565b5050565b5f5f5f9054906101000a900473ffffffffffffffffffffffffffffffffffffffff169050815f5f6101000a81548173ffffffffffffffffffffffffffffffffffffffff021916908373ffffffffffffffffffffffffffffffffffffffff1602179055508173ffffffffffffffffffffffffffffffffffffffff168173ffffffffffffffffffffffffffffffffffffffff167f8be0079c531659141344cd1fd0a4f28419497f9722a3daafe3b4186f6b6457e060405160405180910390a35050565b6115ee611a7b565b60015f60146101000a81548160ff0219169083151502179055507f62e78cea01bee320cd4e420270b5ea74000d11b0c9f74754ebdbfc544b05a2586116316111a8565b60405161163e9190611afb565b60405180910390a1565b5f73ffffffffffffffffffffffffffffffffffffffff168473ffffffffffffffffffffffffffffffffffffffff16036116b8575f6040517fe602df050000000000000000000000000000000000000000000000000000000081526004016116af9190611afb565b60405180910390fd5b5f73ffffffffffffffffffffffffffffffffffffffff168373ffffffffffffffffffffffffffffffffffffffff1603611728575f6040517f94280d6200000000000000000000000000000000000000000000000000000000815260040161171f9190611afb565b60405180910390fd5b8160025f8673ffffffffffffffffffffffffffffffffffffffff1673ffffffffffffffffffffffffffffffffffffffff1681526020019081526020015f205f8573ffffffffffffffffffffffffffffffffffffffff1673ffffffffffffffffffffffffffffffffffffffff1681526020019081526020015f20819055508015611811578273ffffffffffffffffffffffffffffffffffffffff168473ffffffffffffffffffffffffffffffffffffffff167f8c5be1e5ebec7d5bd14f71427d1e84f3dd0314c0f7b2291e5b200ac8c7c3b925846040516118089190611c85565b60405180910390a35b50505050565b61181f611a7b565b5f73ffffffffffffffffffffffffffffffffffffffff168373ffffffffffffffffffffffffffffffffffffffff160361186f578060045f8282546118639190611feb565b9250508190555061193f565b5f60015f8573ffffffffffffffffffffffffffffffffffffffff1673ffffffffffffffffffffffffffffffffffffffff1681526020019081526020015f20549050818110156118f9578381836040517fe450d38c0000000000000000000000000000000000000000000000000000000081526004016118f093929190611fb6565b60405180910390fd5b81810360015f8673ffffffffffffffffffffffffffffffffffffffff1673ffffffffffffffffffffffffffffffffffffffff1681526020019081526020015f2081905550505b5f73ffffffffffffffffffffffffffffffffffffffff168273ffffffffffffffffffffffffffffffffffffffff1603611986578060045f82825403925050819055506119d1565b8060015f8473ffffffffffffffffffffffffffffffffffffffff1673ffffffffffffffffffffffffffffffffffffffff1681526020019081526020015f205f82825401925050819055505b8173ffffffffffffffffffffffffffffffffffffffff168373ffffffffffffffffffffffffffffffffffffffff167fddf252ad1be2c89b69c2b068fc378daa952ba7f163c4a11628f55a4df523b3ef83604051611a2e9190611c85565b60405180910390a3505050565b611a436107ae565b611a79576040517f8dfc202b00000000000000000000000000000000000000000000000000000000815260040160405180910390fd5b565b611a836107ae565b15611aba576040517fd93c066500000000000000000000000000000000000000000000000000000000815260040160405180910390fd5b565b5f73ffffffffffffffffffffffffffffffffffffffff82169050919050565b5f611ae582611abc565b9050919050565b611af581611adb565b82525050565b5f602082019050611b0e5f830184611aec565b92915050565b5f81519050919050565b5f82825260208201905092915050565b8281835e5f83830152505050565b5f601f19601f8301169050919050565b5f611b5682611b14565b611b608185611b1e565b9350611b70818560208601611b2e565b611b7981611b3c565b840191505092915050565b5f6020820190508181035f830152611b9c8184611b4c565b905092915050565b5f5ffd5b611bb181611adb565b8114611bbb575f5ffd5b50565b5f81359050611bcc81611ba8565b92915050565b5f819050919050565b611be481611bd2565b8114611bee575f5ffd5b50565b5f81359050611bff81611bdb565b92915050565b5f5f60408385031215611c1b57611c1a611ba4565b5b5f611c2885828601611bbe565b9250506020611c3985828601611bf1565b9150509250929050565b5f8115159050919050565b611c5781611c43565b82525050565b5f602082019050611c705f830184611c4e565b92915050565b611c7f81611bd2565b82525050565b5f602082019050611c985f830184611c76565b92915050565b5f5f5f60608486031215611cb557611cb4611ba4565b5b5f611cc286828701611bbe565b9350506020611cd386828701611bbe565b9250506040611ce486828701611bf1565b9150509250925092565b5f60ff82169050919050565b611d0381611cee565b82525050565b5f602082019050611d1c5f830184611cfa565b92915050565b5f60208284031215611d3757611d36611ba4565b5b5f611d4484828501611bbe565b91505092915050565b5f5f60408385031215611d6357611d62611ba4565b5b5f611d7085828601611bbe565b9250506020611d8185828601611bbe565b9150509250929050565b7f4e487b71000000000000000000000000000000000000000000000000000000005f52602260045260245ffd5b5f6002820490506001821680611dcf57607f821691505b602082108103611de257611de1611d8b565b5b50919050565b7f4164647265737320697320626c61636b6c6973746564000000000000000000005f82015250565b5f611e1c601683611b1e565b9150611e2782611de8565b602082019050919050565b5f6020820190508181035f830152611e4981611e10565b9050919050565b7f41646472657373206973206e6f7420626c61636b6c69737465640000000000005f82015250565b5f611e84601a83611b1e565b9150611e8f82611e50565b602082019050919050565b5f6020820190508181035f830152611eb181611e78565b9050919050565b7f4e487b71000000000000000000000000000000000000000000000000000000005f52601160045260245ffd5b5f611eef82611bd2565b9150611efa83611bd2565b9250828202611f0881611bd2565b91508282048414831517611f1f57611f1e611eb8565b5b5092915050565b7f4e487b71000000000000000000000000000000000000000000000000000000005f52601260045260245ffd5b5f611f5d82611bd2565b9150611f6883611bd2565b925082611f7857611f77611f26565b5b828204905092915050565b5f611f8d82611bd2565b9150611f9883611bd2565b9250828203905081811115611fb057611faf611eb8565b5b92915050565b5f606082019050611fc95f830186611aec565b611fd66020830185611c76565b611fe36040830184611c76565b949350505050565b5f611ff582611bd2565b915061200083611bd2565b925082820190508082111561201857612017611eb8565b5b92915050565b7f4164647265737320697320616c726561647920626c61636b6c697374656400005f82015250565b5f612052601e83611b1e565b915061205d8261201e565b602082019050919050565b5f6020820190508181035f83015261207f81612046565b9050919050565b5f8160011c9050919050565b5f5f8291508390505b60018511156120db578086048111156120b7576120b6611eb8565b5b60018516156120c65780820291505b80810290506120d485612086565b945061209b565b94509492505050565b5f826120f357600190506121ae565b81612100575f90506121ae565b816001811461211657600281146121205761214f565b60019150506121ae565b60ff84111561213257612131611eb8565b5b8360020a91508482111561214957612148611eb8565b5b506121ae565b5060208310610133831016604e8410600b84101617156121845782820a90508381111561217f5761217e611eb8565b5b6121ae565b6121918484846001612092565b925090508184048111156121a8576121a7611eb8565b5b81810290505b9392505050565b5f6121bf82611bd2565b91506121ca83611cee565b92506121f77fffffffffffffffffffffffffffffffffffffffffffffffffffffffffffffffff84846120e4565b905092915050565b7f45524332304361707065643a20636170206578636565646564000000000000005f82015250565b5f612233601983611b1e565b915061223e826121ff565b602082019050919050565b5f6020820190508181035f83015261226081612227565b905091905056fea2646970667358221220dda7d5ba5f57ebb7ccc45de769896352ad5622d3cc11a6f32907a99ec4c29f0964736f6c634300081c0033","linkReferences":{}},"methodIdentifiers":{"allowance(address,address)":"dd62ed3e","approve(address,uint256)":"095ea7b3","balanceOf(address)":"70a08231","blacklist(address)":"f9f92be4","cap()":"355274ea","decimals()":"313ce567","getTaxFeeRecipient()":"03073dfc","getTransferTaxBps()":"743bfe70","isBlacklisted(address)":"fe575a87","mint(address,uint256)":"40c10f19","name()":"06fdde03","owner()":"8da5cb5b","pause()":"8456cb59","paused()":"5c975abb","renounceOwnership()":"715018a6","symbol()":"95d89b41","totalSupply()":"18160ddd","transfer(address,uint256)":"a9059cbb","transferFrom(address,address,uint256)":"23b872dd","transferOwnership(address)":"f2fde38b","unblacklist(address)":"75e3661e","unpause()":"3f4ba83a","updateTaxFeeRecipient(address)":"8baace25"},"id":42}