{"abi":[{"type":"constructor","inputs":[{"name":"name_","type":"string","internalType":"string"},{"name":"symbol_","type":"string","internalType":"string"},{"name":"decimals_","type":"uint8","internalType":"uint8"},{"name":"totalSupply_","type":"uint256","internalType":"uint256"},{"name":"serviceFeeReceiver_","type":"address","internalType":"address"},{"name":"serviceFee_","type":"uint256","internalType":"uint256"}],"stateMutability":"payable"},{"type":"function","name":"allowance","inputs":[{"name":"owner","type":"address","internalType":"address"},{"name":"spender","type":"address","internalType":"address"}],"outputs":[{"name":"","type":"uint256","internalType":"uint256"}],"stateMutability":"view"},{"type":"function","name":"approve","inputs":[{"name":"spender","type":"address","internalType":"address"},{"name":"value","type":"uint256","internalType":"uint256"}],"outputs":[{"name":"","type":"bool","internalType":"bool"}],"stateMutability":"nonpayable"},{"type":"function","name":"balanceOf","inputs":[{"name":"account","type":"address","internalType":"address"}],"outputs":[{"name":"","type":"uint256","internalType":"uint256"}],"stateMutability":"view"},{"type":"function","name":"blacklist","inputs":[{"name":"account","type":"address","internalType":"address"}],"outputs":[],"stateMutability":"nonpayable"},{"type":"function","name":"burn","inputs":[{"name":"value","type":"uint256","internalType":"uint256"}],"outputs":[],"stateMutability":"nonpayable"},{"type":"function","name":"burnFrom","inputs":[{"name":"account","type":"address","internalType":"address"},{"name":"value","type":"uint256","internalType":"uint256"}],"outputs":[],"stateMutability":"nonpayable"},{"type":"function","name":"decimals","inputs":[],"outputs":[{"name":"","type":"uint8","internalType":"uint8"}],"stateMutability":"view"},{"type":"function","name":"isBlacklisted","inputs":[{"name":"account","type":"address","internalType":"address"}],"outputs":[{"name":"","type":"bool","internalType":"bool"}],"stateMutability":"view"},{"type":"function","name":"mint","inputs":[{"name":"to","type":"address","internalType":"address"},{"name":"amount","type":"uint256","internalType":"uint256"}],"outputs":[],"stateMutability":"nonpayable"},{"type":"function","name":"name","inputs":[],"outputs":[{"name":"","type":"string","internalType":"string"}],"stateMutability":"view"},{"type":"function","name":"owner","inputs":[],"outputs":[{"name":"","type":"address","internalType":"address"}],"stateMutability":"view"},{"type":"function","name":"pause","inputs":[],"outputs":[],"stateMutability":"nonpayable"},{"type":"function","name":"paused","inputs":[],"outputs":[{"name":"","type":"bool","internalType":"bool"}],"stateMutability":"view"},{"type":"function","name":"renounceOwnership","inputs":[],"outputs":[],"stateMutability":"nonpayable"},{"type":"function","name":"symbol","inputs":[],"outputs":[{"name":"","type":"string","internalType":"string"}],"stateMutability":"view"},{"type":"function","name":"totalSupply","inputs":[],"outputs":[{"name":"","type":"uint256","internalType":"uint256"}],"stateMutability":"view"},{"type":"function","name":"transfer","inputs":[{"name":"to","type":"address","internalType":"address"},{"name":"value","type":"uint256","internalType":"uint256"}],"outputs":[{"name":"","type":"bool","internalType":"bool"}],"stateMutability":"nonpayable"},{"type":"function","name":"transferFrom","inputs":[{"name":"from","type":"address","internalType":"address"},{"name":"to","type":"address","internalType":"address"},{"name":"value","type":"uint256","internalType":"uint256"}],"outputs":[{"name":"","type":"bool","internalType":"bool"}],"stateMutability":"nonpayable"},{"type":"function","name":"transferOwnership","inputs":[{"name":"newOwner","type":"address","internalType":"address"}],"outputs":[],"stateMutability":"nonpayable"},{"type":"function","name":"unblacklist","inputs":[{"name":"account","type":"address","internalType":"address"}],"outputs":[],"stateMutability":"nonpayable"},{"type":"function","name":"unpause","inputs":[],"outputs":[],"stateMutability":"nonpayable"},{"type":"event","name":"Approval","inputs":[{"name":"owner","type":"address","indexed":true,"internalType":"address"},{"name":"spender","type":"address","indexed":true,"internalType":"address"},{"name":"value","type":"uint256","indexed":false,"internalType":"uint256"}],"anonymous":false},{"type":"event","name":"Blacklisted","inputs":[{"name":"account","type":"address","indexed":true,"internalType":"address"}],"anonymous":false},{"type":"event","name":"OwnershipTransferred","inputs":[{"name":"previousOwner","type":"address","indexed":true,"internalType":"address"},{"name":"newOwner","type":"address","indexed":true,"internalType":"address"}],"anonymous":false},{"type":"event","name":"Paused","inputs":[{"name":"account","type":"address","indexed":false,"internalType":"address"}],"anonymous":false},{"type":"event","name":"Transfer","inputs":[{"name":"from","type":"address","indexed":true,"internalType":"address"},{"name":"to","type":"address","indexed":true,"internalType":"address"},{"name":"value","type":"uint256","indexed":false,"internalType":"uint256"}],"anonymous":false},{"type":"event","name":"Unblacklisted","inputs":[{"name":"account","type":"address","indexed":true,"internalType":"address"}],"anonymous":false},{"type":"event","name":"Unpaused","inputs":[{"name":"account","type":"address","indexed":false,"internalType":"address"}],"anonymous":false},{"type":"error","name":"EnforcedPause","inputs":[]},{"type":"error","name":"ExpectedPause","inputs":[]},{"type":"error","name":"OwnableInvalidOwner","inputs":[{"name":"owner","type":"address","internalType":"address"}]},{"type":"error","name":"OwnableUnauthorizedAccount","inputs":[{"name":"account","type":"address","internalType":"address"}]}],"bytecode":{"object":"0x60806040526040516131363803806131368339818101604052810190610025919061093b565b335f73ffffffffffffffffffffffffffffffffffffffff168173ffffffffffffffffffffffffffffffffffffffff1603610096575f6040517f1e4fbdf700000000000000000000000000000000000000000000000000000000815260040161008d9190610a0b565b60405180910390fd5b6100a58161029f60201b60201c565b505f5f60146101000a81548160ff02191690831515021790555085600590816100ce9190610c2b565b5084600690816100de9190610c2b565b508360075f6101000a81548160ff021916908360ff1602179055508034101561013c576040517f08c379a000000000000000000000000000000000000000000000000000000000815260040161013390610d54565b60405180910390fd5b5f73ffffffffffffffffffffffffffffffffffffffff168273ffffffffffffffffffffffffffffffffffffffff16036101aa576040517f08c379a00000000000000000000000000000000000000000000000000000000081526004016101a190610dbc565b60405180910390fd5b5f8273ffffffffffffffffffffffffffffffffffffffff16826040516101cf90610e07565b5f6040518083038185875af1925050503d805f8114610209576040519150601f19603f3d011682016040523d82523d5f602084013e61020e565b606091505b5050905080610252576040517f08c379a000000000000000000000000000000000000000000000000000000000815260040161024990610e65565b60405180910390fd5b61029361026361036060201b60201c565b61027161038760201b60201c565b600a61027d9190610fdf565b866102889190611029565b61039c60201b60201c565b505050505050506111fd565b5f5f5f9054906101000a900473ffffffffffffffffffffffffffffffffffffffff169050815f5f6101000a81548173ffffffffffffffffffffffffffffffffffffffff021916908373ffffffffffffffffffffffffffffffffffffffff1602179055508173ffffffffffffffffffffffffffffffffffffffff168173ffffffffffffffffffffffffffffffffffffffff167f8be0079c531659141344cd1fd0a4f28419497f9722a3daafe3b4186f6b6457e060405160405180910390a35050565b5f5f5f9054906101000a900473ffffffffffffffffffffffffffffffffffffffff16905090565b5f60075f9054906101000a900460ff16905090565b8160035f8273ffffffffffffffffffffffffffffffffffffffff1673ffffffffffffffffffffffffffffffffffffffff1681526020019081526020015f205f9054906101000a900460ff1615610427576040517f08c379a000000000000000000000000000000000000000000000000000000000815260040161041e906110b4565b60405180910390fd5b5f73ffffffffffffffffffffffffffffffffffffffff168373ffffffffffffffffffffffffffffffffffffffff1603610495576040517f08c379a000000000000000000000000000000000000000000000000000000000815260040161048c9061111c565b60405180910390fd5b6104a65f84846104ab60201b60201c565b505050565b6104b96106cf60201b60201c565b5f73ffffffffffffffffffffffffffffffffffffffff168373ffffffffffffffffffffffffffffffffffffffff1603610509578060045f8282546104fd919061113a565b925050819055506105d3565b5f60015f8573ffffffffffffffffffffffffffffffffffffffff1673ffffffffffffffffffffffffffffffffffffffff1681526020019081526020015f205490508181101561058d576040517f08c379a0000000000000000000000000000000000000000000000000000000008152600401610584906111b7565b60405180910390fd5b81810360015f8673ffffffffffffffffffffffffffffffffffffffff1673ffffffffffffffffffffffffffffffffffffffff1681526020019081526020015f2081905550505b5f73ffffffffffffffffffffffffffffffffffffffff168273ffffffffffffffffffffffffffffffffffffffff160361061a578060045f8282540392505081905550610665565b8060015f8473ffffffffffffffffffffffffffffffffffffffff1673ffffffffffffffffffffffffffffffffffffffff1681526020019081526020015f205f82825401925050819055505b8173ffffffffffffffffffffffffffffffffffffffff168373ffffffffffffffffffffffffffffffffffffffff167fddf252ad1be2c89b69c2b068fc378daa952ba7f163c4a11628f55a4df523b3ef836040516106c291906111e4565b60405180910390a3505050565b6106dd61071660201b60201c565b15610714576040517fd93c066500000000000000000000000000000000000000000000000000000000815260040160405180910390fd5b565b5f5f60149054906101000a900460ff16905090565b5f604051905090565b5f5ffd5b5f5ffd5b5f5ffd5b5f5ffd5b5f601f19601f8301169050919050565b7f4e487b71000000000000000000000000000000000000000000000000000000005f52604160045260245ffd5b61078a82610744565b810181811067ffffffffffffffff821117156107a9576107a8610754565b5b80604052505050565b5f6107bb61072b565b90506107c78282610781565b919050565b5f67ffffffffffffffff8211156107e6576107e5610754565b5b6107ef82610744565b9050602081019050919050565b8281835e5f83830152505050565b5f61081c610817846107cc565b6107b2565b90508281526020810184848401111561083857610837610740565b5b6108438482856107fc565b509392505050565b5f82601f83011261085f5761085e61073c565b5b815161086f84826020860161080a565b91505092915050565b5f60ff82169050919050565b61088d81610878565b8114610897575f5ffd5b50565b5f815190506108a881610884565b92915050565b5f819050919050565b6108c0816108ae565b81146108ca575f5ffd5b50565b5f815190506108db816108b7565b92915050565b5f73ffffffffffffffffffffffffffffffffffffffff82169050919050565b5f61090a826108e1565b9050919050565b61091a81610900565b8114610924575f5ffd5b50565b5f8151905061093581610911565b92915050565b5f5f5f5f5f5f60c0878903121561095557610954610734565b5b5f87015167ffffffffffffffff81111561097257610971610738565b5b61097e89828a0161084b565b965050602087015167ffffffffffffffff81111561099f5761099e610738565b5b6109ab89828a0161084b565b95505060406109bc89828a0161089a565b94505060606109cd89828a016108cd565b93505060806109de89828a01610927565b92505060a06109ef89828a016108cd565b9150509295509295509295565b610a0581610900565b82525050565b5f602082019050610a1e5f8301846109fc565b92915050565b5f81519050919050565b7f4e487b71000000000000000000000000000000000000000000000000000000005f52602260045260245ffd5b5f6002820490506001821680610a7257607f821691505b602082108103610a8557610a84610a2e565b5b50919050565b5f819050815f5260205f209050919050565b5f6020601f8301049050919050565b5f82821b905092915050565b5f60088302610ae77fffffffffffffffffffffffffffffffffffffffffffffffffffffffffffffffff82610aac565b610af18683610aac565b95508019841693508086168417925050509392505050565b5f819050919050565b5f610b2c610b27610b22846108ae565b610b09565b6108ae565b9050919050565b5f819050919050565b610b4583610b12565b610b59610b5182610b33565b848454610ab8565b825550505050565b5f5f905090565b610b70610b61565b610b7b818484610b3c565b505050565b5b81811015610b9e57610b935f82610b68565b600181019050610b81565b5050565b601f821115610be357610bb481610a8b565b610bbd84610a9d565b81016020851015610bcc578190505b610be0610bd885610a9d565b830182610b80565b50505b505050565b5f82821c905092915050565b5f610c035f1984600802610be8565b1980831691505092915050565b5f610c1b8383610bf4565b9150826002028217905092915050565b610c3482610a24565b67ffffffffffffffff811115610c4d57610c4c610754565b5b610c578254610a5b565b610c62828285610ba2565b5f60209050601f831160018114610c93575f8415610c81578287015190505b610c8b8582610c10565b865550610cf2565b601f198416610ca186610a8b565b5f5b82811015610cc857848901518255600182019150602085019450602081019050610ca3565b86831015610ce55784890151610ce1601f891682610bf4565b8355505b6001600288020188555050505b505050505050565b5f82825260208201905092915050565b7f496e73756666696369656e742066656520616d6f756e742073656e74000000005f82015250565b5f610d3e601c83610cfa565b9150610d4982610d0a565b602082019050919050565b5f6020820190508181035f830152610d6b81610d32565b9050919050565b7f496e76616c6964206665652072656365697665722061646472657373000000005f82015250565b5f610da6601c83610cfa565b9150610db182610d72565b602082019050919050565b5f6020820190508181035f830152610dd381610d9a565b9050919050565b5f81905092915050565b50565b5f610df25f83610dda565b9150610dfd82610de4565b5f82019050919050565b5f610e1182610de7565b9150819050919050565b7f466565207472616e73666572206661696c6564000000000000000000000000005f82015250565b5f610e4f601383610cfa565b9150610e5a82610e1b565b602082019050919050565b5f6020820190508181035f830152610e7c81610e43565b9050919050565b7f4e487b71000000000000000000000000000000000000000000000000000000005f52601160045260245ffd5b5f8160011c9050919050565b5f5f8291508390505b6001851115610f0557808604811115610ee157610ee0610e83565b5b6001851615610ef05780820291505b8081029050610efe85610eb0565b9450610ec5565b94509492505050565b5f82610f1d5760019050610fd8565b81610f2a575f9050610fd8565b8160018114610f405760028114610f4a57610f79565b6001915050610fd8565b60ff841115610f5c57610f5b610e83565b5b8360020a915084821115610f7357610f72610e83565b5b50610fd8565b5060208310610133831016604e8410600b8410161715610fae5782820a905083811115610fa957610fa8610e83565b5b610fd8565b610fbb8484846001610ebc565b92509050818404811115610fd257610fd1610e83565b5b81810290505b9392505050565b5f610fe9826108ae565b9150610ff483610878565b92506110217fffffffffffffffffffffffffffffffffffffffffffffffffffffffffffffffff8484610f0e565b905092915050565b5f611033826108ae565b915061103e836108ae565b925082820261104c816108ae565b9150828204841483151761106357611062610e83565b5b5092915050565b7f4164647265737320697320626c61636b6c6973746564000000000000000000005f82015250565b5f61109e601683610cfa565b91506110a98261106a565b602082019050919050565b5f6020820190508181035f8301526110cb81611092565b9050919050565b7f43616e6e6f74206d696e7420746f207a65726f206164647265737300000000005f82015250565b5f611106601b83610cfa565b9150611111826110d2565b602082019050919050565b5f6020820190508181035f830152611133816110fa565b9050919050565b5f611144826108ae565b915061114f836108ae565b925082820190508082111561116757611166610e83565b5b92915050565b7f496e73756666696369656e742062616c616e63650000000000000000000000005f82015250565b5f6111a1601483610cfa565b91506111ac8261116d565b602082019050919050565b5f6020820190508181035f8301526111ce81611195565b9050919050565b6111de816108ae565b82525050565b5f6020820190506111f75f8301846111d5565b92915050565b611f2c8061120a5f395ff3fe608060405234801561000f575f5ffd5b5060043610610135575f3560e01c8063715018a6116100b657806395d89b411161007a57806395d89b41146102ed578063a9059cbb1461030b578063dd62ed3e1461033b578063f2fde38b1461036b578063f9f92be414610387578063fe575a87146103a357610135565b8063715018a61461028357806375e3661e1461028d57806379cc6790146102a95780638456cb59146102c55780638da5cb5b146102cf57610135565b80633f4ba83a116100fd5780633f4ba83a146101f357806340c10f19146101fd57806342966c68146102195780635c975abb1461023557806370a082311461025357610135565b806306fdde0314610139578063095ea7b31461015757806318160ddd1461018757806323b872dd146101a5578063313ce567146101d5575b5f5ffd5b6101416103d3565b60405161014e919061179f565b60405180910390f35b610171600480360381019061016c9190611850565b610463565b60405161017e91906118a8565b60405180910390f35b61018f610591565b60405161019c91906118d0565b60405180910390f35b6101bf60048036038101906101ba91906118e9565b61059a565b6040516101cc91906118a8565b60405180910390f35b6101dd6106d4565b6040516101ea9190611954565b60405180910390f35b6101fb6106e9565b005b61021760048036038101906102129190611850565b6106fb565b005b610233600480360381019061022e919061196d565b610711565b005b61023d61071e565b60405161024a91906118a8565b60405180910390f35b61026d60048036038101906102689190611998565b610733565b60405161027a91906118d0565b60405180910390f35b61028b610779565b005b6102a760048036038101906102a29190611998565b61078c565b005b6102c360048036038101906102be9190611850565b61082e565b005b6102cd610847565b005b6102d7610859565b6040516102e491906119d2565b60405180910390f35b6102f5610880565b604051610302919061179f565b60405180910390f35b61032560048036038101906103209190611850565b610910565b60405161033291906118a8565b60405180910390f35b610355600480360381019061035091906119eb565b610a3e565b60405161036291906118d0565b60405180910390f35b61038560048036038101906103809190611998565b610ac0565b005b6103a1600480360381019061039c9190611998565b610b44565b005b6103bd60048036038101906103b89190611998565b610be7565b6040516103ca91906118a8565b60405180910390f35b6060600580546103e290611a56565b80601f016020809104026020016040519081016040528092919081815260200182805461040e90611a56565b80156104595780601f1061043057610100808354040283529160200191610459565b820191905f5260205f20905b81548152906001019060200180831161043c57829003601f168201915b5050505050905090565b5f3360035f8273ffffffffffffffffffffffffffffffffffffffff1673ffffffffffffffffffffffffffffffffffffffff1681526020019081526020015f205f9054906101000a900460ff16156104ef576040517f08c379a00000000000000000000000000000000000000000000000000000000081526004016104e690611ad0565b60405180910390fd5b8360035f8273ffffffffffffffffffffffffffffffffffffffff1673ffffffffffffffffffffffffffffffffffffffff1681526020019081526020015f205f9054906101000a900460ff161561057a576040517f08c379a000000000000000000000000000000000000000000000000000000000815260040161057190611ad0565b60405180910390fd5b610585338686610c39565b60019250505092915050565b5f600454905090565b5f8360035f8273ffffffffffffffffffffffffffffffffffffffff1673ffffffffffffffffffffffffffffffffffffffff1681526020019081526020015f205f9054906101000a900460ff1615610626576040517f08c379a000000000000000000000000000000000000000000000000000000000815260040161061d90611ad0565b60405180910390fd5b8360035f8273ffffffffffffffffffffffffffffffffffffffff1673ffffffffffffffffffffffffffffffffffffffff1681526020019081526020015f205f9054906101000a900460ff16156106b1576040517f08c379a00000000000000000000000000000000000000000000000000000000081526004016106a890611ad0565b60405180910390fd5b6106bc863386610c4b565b6106c7868686610cd8565b6001925050509392505050565b5f60075f9054906101000a900460ff16905090565b6106f1610ea1565b6106f9610f28565b565b610703610ea1565b61070d8282610f89565b5050565b61071b3382611092565b50565b5f5f60149054906101000a900460ff16905090565b5f60015f8373ffffffffffffffffffffffffffffffffffffffff1673ffffffffffffffffffffffffffffffffffffffff1681526020019081526020015f20549050919050565b610781610ea1565b61078a5f61119b565b565b610794610ea1565b5f60035f8373ffffffffffffffffffffffffffffffffffffffff1673ffffffffffffffffffffffffffffffffffffffff1681526020019081526020015f205f6101000a81548160ff0219169083151502179055508073ffffffffffffffffffffffffffffffffffffffff167f7534c63860313c46c473e4e98328f37017e9674e2162faf1a3ad7a96236c3b7b60405160405180910390a250565b610839823383610c4b565b6108438282611092565b5050565b61084f610ea1565b61085761125c565b565b5f5f5f9054906101000a900473ffffffffffffffffffffffffffffffffffffffff16905090565b60606006805461088f90611a56565b80601f01602080910402602001604051908101604052809291908181526020018280546108bb90611a56565b80156109065780601f106108dd57610100808354040283529160200191610906565b820191905f5260205f20905b8154815290600101906020018083116108e957829003601f168201915b5050505050905090565b5f3360035f8273ffffffffffffffffffffffffffffffffffffffff1673ffffffffffffffffffffffffffffffffffffffff1681526020019081526020015f205f9054906101000a900460ff161561099c576040517f08c379a000000000000000000000000000000000000000000000000000000000815260040161099390611ad0565b60405180910390fd5b8360035f8273ffffffffffffffffffffffffffffffffffffffff1673ffffffffffffffffffffffffffffffffffffffff1681526020019081526020015f205f9054906101000a900460ff1615610a27576040517f08c379a0000000000000000000000000000000000000000000000000000000008152600401610a1e90611ad0565b60405180910390fd5b610a32338686610cd8565b60019250505092915050565b5f60025f8473ffffffffffffffffffffffffffffffffffffffff1673ffffffffffffffffffffffffffffffffffffffff1681526020019081526020015f205f8373ffffffffffffffffffffffffffffffffffffffff1673ffffffffffffffffffffffffffffffffffffffff1681526020019081526020015f2054905092915050565b610ac8610ea1565b5f73ffffffffffffffffffffffffffffffffffffffff168173ffffffffffffffffffffffffffffffffffffffff1603610b38575f6040517f1e4fbdf7000000000000000000000000000000000000000000000000000000008152600401610b2f91906119d2565b60405180910390fd5b610b418161119b565b50565b610b4c610ea1565b600160035f8373ffffffffffffffffffffffffffffffffffffffff1673ffffffffffffffffffffffffffffffffffffffff1681526020019081526020015f205f6101000a81548160ff0219169083151502179055508073ffffffffffffffffffffffffffffffffffffffff167fffa4e6181777692565cf28528fc88fd1516ea86b56da075235fa575af6a4b85560405160405180910390a250565b5f60035f8373ffffffffffffffffffffffffffffffffffffffff1673ffffffffffffffffffffffffffffffffffffffff1681526020019081526020015f205f9054906101000a900460ff169050919050565b610c4683838360016112be565b505050565b5f610c568484610a3e565b905081811015610c9b576040517f08c379a0000000000000000000000000000000000000000000000000000000008152600401610c9290611b38565b60405180910390fd5b7fffffffffffffffffffffffffffffffffffffffffffffffffffffffffffffffff811015610cd257610cd184848484035f6112be565b5b50505050565b60035f8473ffffffffffffffffffffffffffffffffffffffff1673ffffffffffffffffffffffffffffffffffffffff1681526020019081526020015f205f9054906101000a900460ff16158015610d76575060035f8373ffffffffffffffffffffffffffffffffffffffff1673ffffffffffffffffffffffffffffffffffffffff1681526020019081526020015f205f9054906101000a900460ff16155b610db5576040517f08c379a0000000000000000000000000000000000000000000000000000000008152600401610dac90611ba0565b60405180910390fd5b5f73ffffffffffffffffffffffffffffffffffffffff168373ffffffffffffffffffffffffffffffffffffffff1603610e23576040517f08c379a0000000000000000000000000000000000000000000000000000000008152600401610e1a90611c08565b60405180910390fd5b5f73ffffffffffffffffffffffffffffffffffffffff168273ffffffffffffffffffffffffffffffffffffffff1603610e91576040517f08c379a0000000000000000000000000000000000000000000000000000000008152600401610e8890611c70565b60405180910390fd5b610e9c838383611489565b505050565b610ea96116a7565b73ffffffffffffffffffffffffffffffffffffffff16610ec7610859565b73ffffffffffffffffffffffffffffffffffffffff1614610f2657610eea6116a7565b6040517f118cdaa7000000000000000000000000000000000000000000000000000000008152600401610f1d91906119d2565b60405180910390fd5b565b610f306116ae565b5f5f60146101000a81548160ff0219169083151502179055507f5db9ee0a495bf2e6ff9c91a7834c1ba4fdd244a5e8aa4e537bd38aeae4b073aa610f726116a7565b604051610f7f91906119d2565b60405180910390a1565b8160035f8273ffffffffffffffffffffffffffffffffffffffff1673ffffffffffffffffffffffffffffffffffffffff1681526020019081526020015f205f9054906101000a900460ff1615611014576040517f08c379a000000000000000000000000000000000000000000000000000000000815260040161100b90611ad0565b60405180910390fd5b5f73ffffffffffffffffffffffffffffffffffffffff168373ffffffffffffffffffffffffffffffffffffffff1603611082576040517f08c379a000000000000000000000000000000000000000000000000000000000815260040161107990611cd8565b60405180910390fd5b61108d5f8484611489565b505050565b8160035f8273ffffffffffffffffffffffffffffffffffffffff1673ffffffffffffffffffffffffffffffffffffffff1681526020019081526020015f205f9054906101000a900460ff161561111d576040517f08c379a000000000000000000000000000000000000000000000000000000000815260040161111490611ad0565b60405180910390fd5b5f73ffffffffffffffffffffffffffffffffffffffff168373ffffffffffffffffffffffffffffffffffffffff160361118b576040517f08c379a000000000000000000000000000000000000000000000000000000000815260040161118290611d40565b60405180910390fd5b611196835f84611489565b505050565b5f5f5f9054906101000a900473ffffffffffffffffffffffffffffffffffffffff169050815f5f6101000a81548173ffffffffffffffffffffffffffffffffffffffff021916908373ffffffffffffffffffffffffffffffffffffffff1602179055508173ffffffffffffffffffffffffffffffffffffffff168173ffffffffffffffffffffffffffffffffffffffff167f8be0079c531659141344cd1fd0a4f28419497f9722a3daafe3b4186f6b6457e060405160405180910390a35050565b6112646116ee565b60015f60146101000a81548160ff0219169083151502179055507f62e78cea01bee320cd4e420270b5ea74000d11b0c9f74754ebdbfc544b05a2586112a76116a7565b6040516112b491906119d2565b60405180910390a1565b5f73ffffffffffffffffffffffffffffffffffffffff168473ffffffffffffffffffffffffffffffffffffffff160361132c576040517f08c379a000000000000000000000000000000000000000000000000000000000815260040161132390611da8565b60405180910390fd5b5f73ffffffffffffffffffffffffffffffffffffffff168373ffffffffffffffffffffffffffffffffffffffff160361139a576040517f08c379a000000000000000000000000000000000000000000000000000000000815260040161139190611e10565b60405180910390fd5b8160025f8673ffffffffffffffffffffffffffffffffffffffff1673ffffffffffffffffffffffffffffffffffffffff1681526020019081526020015f205f8573ffffffffffffffffffffffffffffffffffffffff1673ffffffffffffffffffffffffffffffffffffffff1681526020019081526020015f20819055508015611483578273ffffffffffffffffffffffffffffffffffffffff168473ffffffffffffffffffffffffffffffffffffffff167f8c5be1e5ebec7d5bd14f71427d1e84f3dd0314c0f7b2291e5b200ac8c7c3b9258460405161147a91906118d0565b60405180910390a35b50505050565b6114916116ee565b5f73ffffffffffffffffffffffffffffffffffffffff168373ffffffffffffffffffffffffffffffffffffffff16036114e1578060045f8282546114d59190611e5b565b925050819055506115ab565b5f60015f8573ffffffffffffffffffffffffffffffffffffffff1673ffffffffffffffffffffffffffffffffffffffff1681526020019081526020015f2054905081811015611565576040517f08c379a000000000000000000000000000000000000000000000000000000000815260040161155c90611ed8565b60405180910390fd5b81810360015f8673ffffffffffffffffffffffffffffffffffffffff1673ffffffffffffffffffffffffffffffffffffffff1681526020019081526020015f2081905550505b5f73ffffffffffffffffffffffffffffffffffffffff168273ffffffffffffffffffffffffffffffffffffffff16036115f2578060045f828254039250508190555061163d565b8060015f8473ffffffffffffffffffffffffffffffffffffffff1673ffffffffffffffffffffffffffffffffffffffff1681526020019081526020015f205f82825401925050819055505b8173ffffffffffffffffffffffffffffffffffffffff168373ffffffffffffffffffffffffffffffffffffffff167fddf252ad1be2c89b69c2b068fc378daa952ba7f163c4a11628f55a4df523b3ef8360405161169a91906118d0565b60405180910390a3505050565b5f33905090565b6116b661071e565b6116ec576040517f8dfc202b00000000000000000000000000000000000000000000000000000000815260040160405180910390fd5b565b6116f661071e565b1561172d576040517fd93c066500000000000000000000000000000000000000000000000000000000815260040160405180910390fd5b565b5f81519050919050565b5f82825260208201905092915050565b8281835e5f83830152505050565b5f601f19601f8301169050919050565b5f6117718261172f565b61177b8185611739565b935061178b818560208601611749565b61179481611757565b840191505092915050565b5f6020820190508181035f8301526117b78184611767565b905092915050565b5f5ffd5b5f73ffffffffffffffffffffffffffffffffffffffff82169050919050565b5f6117ec826117c3565b9050919050565b6117fc816117e2565b8114611806575f5ffd5b50565b5f81359050611817816117f3565b92915050565b5f819050919050565b61182f8161181d565b8114611839575f5ffd5b50565b5f8135905061184a81611826565b92915050565b5f5f60408385031215611866576118656117bf565b5b5f61187385828601611809565b92505060206118848582860161183c565b9150509250929050565b5f8115159050919050565b6118a28161188e565b82525050565b5f6020820190506118bb5f830184611899565b92915050565b6118ca8161181d565b82525050565b5f6020820190506118e35f8301846118c1565b92915050565b5f5f5f60608486031215611900576118ff6117bf565b5b5f61190d86828701611809565b935050602061191e86828701611809565b925050604061192f8682870161183c565b9150509250925092565b5f60ff82169050919050565b61194e81611939565b82525050565b5f6020820190506119675f830184611945565b92915050565b5f60208284031215611982576119816117bf565b5b5f61198f8482850161183c565b91505092915050565b5f602082840312156119ad576119ac6117bf565b5b5f6119ba84828501611809565b91505092915050565b6119cc816117e2565b82525050565b5f6020820190506119e55f8301846119c3565b92915050565b5f5f60408385031215611a0157611a006117bf565b5b5f611a0e85828601611809565b9250506020611a1f85828601611809565b9150509250929050565b7f4e487b71000000000000000000000000000000000000000000000000000000005f52602260045260245ffd5b5f6002820490506001821680611a6d57607f821691505b602082108103611a8057611a7f611a29565b5b50919050565b7f4164647265737320697320626c61636b6c6973746564000000000000000000005f82015250565b5f611aba601683611739565b9150611ac582611a86565b602082019050919050565b5f6020820190508181035f830152611ae781611aae565b9050919050565b7f496e73756666696369656e7420616c6c6f77616e6365000000000000000000005f82015250565b5f611b22601683611739565b9150611b2d82611aee565b602082019050919050565b5f6020820190508181035f830152611b4f81611b16565b9050919050565b7f426c61636b6c6973746564206164647265737320696e766f6c766564000000005f82015250565b5f611b8a601c83611739565b9150611b9582611b56565b602082019050919050565b5f6020820190508181035f830152611bb781611b7e565b9050919050565b7f496e76616c69642073656e6465723a207a65726f2061646472657373000000005f82015250565b5f611bf2601c83611739565b9150611bfd82611bbe565b602082019050919050565b5f6020820190508181035f830152611c1f81611be6565b9050919050565b7f496e76616c69642072656365697665723a207a65726f206164647265737300005f82015250565b5f611c5a601e83611739565b9150611c6582611c26565b602082019050919050565b5f6020820190508181035f830152611c8781611c4e565b9050919050565b7f43616e6e6f74206d696e7420746f207a65726f206164647265737300000000005f82015250565b5f611cc2601b83611739565b9150611ccd82611c8e565b602082019050919050565b5f6020820190508181035f830152611cef81611cb6565b9050919050565b7f43616e6e6f74206275726e2066726f6d207a65726f20616464726573730000005f82015250565b5f611d2a601d83611739565b9150611d3582611cf6565b602082019050919050565b5f6020820190508181035f830152611d5781611d1e565b9050919050565b7f496e76616c696420617070726f766572000000000000000000000000000000005f82015250565b5f611d92601083611739565b9150611d9d82611d5e565b602082019050919050565b5f6020820190508181035f830152611dbf81611d86565b9050919050565b7f496e76616c6964207370656e64657200000000000000000000000000000000005f82015250565b5f611dfa600f83611739565b9150611e0582611dc6565b602082019050919050565b5f6020820190508181035f830152611e2781611dee565b9050919050565b7f4e487b71000000000000000000000000000000000000000000000000000000005f52601160045260245ffd5b5f611e658261181d565b9150611e708361181d565b9250828201905080821115611e8857611e87611e2e565b5b92915050565b7f496e73756666696369656e742062616c616e63650000000000000000000000005f82015250565b5f611ec2601483611739565b9150611ecd82611e8e565b602082019050919050565b5f6020820190508181035f830152611eef81611eb6565b905091905056fea26469706673582212200bee33bbd0b5ee05240e1f310aba3917367d71c116857aca175d2ae99085b9be64736f6c634300081c0033","linkReferences":{}},"methodIdentifiers":{"allowance(address,address)":"dd62ed3e","approve(address,uint256)":"095ea7b3","balanceOf(address)":"70a08231","blacklist(address)":"f9f92be4","burn(uint256)":"42966c68","burnFrom(address,uint256)":"79cc6790","decimals()":"313ce567","isBlacklisted(address)":"fe575a87","mint(address,uint256)":"40c10f19","name()":"06fdde03","owner()":"8da5cb5b","pause()":"8456cb59","paused()":"5c975abb","renounceOwnership()":"715018a6","symbol()":"95d89b41","totalSupply()":"18160ddd","transfer(address,uint256)":"a9059cbb","transferFrom(address,address,uint256)":"23b872dd","transferOwnership(address)":"f2fde38b","unblacklist(address)":"75e3661e","unpause()":"3f4ba83a"},"id":33}