{"abi":[{"type":"constructor","inputs":[{"name":"name_","type":"string","internalType":"string"},{"name":"symbol_","type":"string","internalType":"string"},{"name":"decimals_","type":"uint8","internalType":"uint8"},{"name":"totalSupply_","type":"uint256","internalType":"uint256"},{"name":"serviceFeeReceiver_","type":"address","internalType":"address"},{"name":"serviceFee_","type":"uint256","internalType":"uint256"}],"stateMutability":"payable"},{"type":"function","name":"allowance","inputs":[{"name":"owner","type":"address","internalType":"address"},{"name":"spender","type":"address","internalType":"address"}],"outputs":[{"name":"","type":"uint256","internalType":"uint256"}],"stateMutability":"view"},{"type":"function","name":"approve","inputs":[{"name":"spender","type":"address","internalType":"address"},{"name":"value","type":"uint256","internalType":"uint256"}],"outputs":[{"name":"","type":"bool","internalType":"bool"}],"stateMutability":"nonpayable"},{"type":"function","name":"balanceOf","inputs":[{"name":"account","type":"address","internalType":"address"}],"outputs":[{"name":"","type":"uint256","internalType":"uint256"}],"stateMutability":"view"},{"type":"function","name":"blacklist","inputs":[{"name":"account","type":"address","internalType":"address"}],"outputs":[],"stateMutability":"nonpayable"},{"type":"function","name":"burn","inputs":[{"name":"value","type":"uint256","internalType":"uint256"}],"outputs":[],"stateMutability":"nonpayable"},{"type":"function","name":"burnFrom","inputs":[{"name":"account","type":"address","internalType":"address"},{"name":"value","type":"uint256","internalType":"uint256"}],"outputs":[],"stateMutability":"nonpayable"},{"type":"function","name":"decimals","inputs":[],"outputs":[{"name":"","type":"uint8","internalType":"uint8"}],"stateMutability":"view"},{"type":"function","name":"isBlacklisted","inputs":[{"name":"account","type":"address","internalType":"address"}],"outputs":[{"name":"","type":"bool","internalType":"bool"}],"stateMutability":"view"},{"type":"function","name":"mint","inputs":[{"name":"to","type":"address","internalType":"address"},{"name":"amount","type":"uint256","internalType":"uint256"}],"outputs":[],"stateMutability":"nonpayable"},{"type":"function","name":"name","inputs":[],"outputs":[{"name":"","type":"string","internalType":"string"}],"stateMutability":"view"},{"type":"function","name":"owner","inputs":[],"outputs":[{"name":"","type":"address","internalType":"address"}],"stateMutability":"view"},{"type":"function","name":"pause","inputs":[],"outputs":[],"stateMutability":"nonpayable"},{"type":"function","name":"paused","inputs":[],"outputs":[{"name":"","type":"bool","internalType":"bool"}],"stateMutability":"view"},{"type":"function","name":"renounceOwnership","inputs":[],"outputs":[],"stateMutability":"nonpayable"},{"type":"function","name":"symbol","inputs":[],"outputs":[{"name":"","type":"string","internalType":"string"}],"stateMutability":"view"},{"type":"function","name":"totalSupply","inputs":[],"outputs":[{"name":"","type":"uint256","internalType":"uint256"}],"stateMutability":"view"},{"type":"function","name":"transfer","inputs":[{"name":"to","type":"address","internalType":"address"},{"name":"value","type":"uint256","internalType":"uint256"}],"outputs":[{"name":"","type":"bool","internalType":"bool"}],"stateMutability":"nonpayable"},{"type":"function","name":"transferFrom","inputs":[{"name":"from","type":"address","internalType":"address"},{"name":"to","type":"address","internalType":"address"},{"name":"value","type":"uint256","internalType":"uint256"}],"outputs":[{"name":"","type":"bool","internalType":"bool"}],"stateMutability":"nonpayable"},{"type":"function","name":"transferOwnership","inputs":[{"name":"newOwner","type":"address","internalType":"address"}],"outputs":[],"stateMutability":"nonpayable"},{"type":"function","name":"unblacklist","inputs":[{"name":"account","type":"address","internalType":"address"}],"outputs":[],"stateMutability":"nonpayable"},{"type":"function","name":"unpause","inputs":[],"outputs":[],"stateMutability":"nonpayable"},{"type":"event","name":"Approval","inputs":[{"name":"owner","type":"address","indexed":true,"internalType":"address"},{"name":"spender","type":"address","indexed":true,"internalType":"address"},{"name":"value","type":"uint256","indexed":false,"internalType":"uint256"}],"anonymous":false},{"type":"event","name":"Blacklisted","inputs":[{"name":"account","type":"address","indexed":true,"internalType":"address"}],"anonymous":false},{"type":"event","name":"OwnershipTransferred","inputs":[{"name":"previousOwner","type":"address","indexed":true,"internalType":"address"},{"name":"newOwner","type":"address","indexed":true,"internalType":"address"}],"anonymous":false},{"type":"event","name":"Paused","inputs":[{"name":"account","type":"address","indexed":false,"internalType":"address"}],"anonymous":false},{"type":"event","name":"Transfer","inputs":[{"name":"from","type":"address","indexed":true,"internalType":"address"},{"name":"to","type":"address","indexed":true,"internalType":"address"},{"name":"value","type":"uint256","indexed":false,"internalType":"uint256"}],"anonymous":false},{"type":"event","name":"Unblacklisted","inputs":[{"name":"account","type":"address","indexed":true,"internalType":"address"}],"anonymous":false},{"type":"event","name":"Unpaused","inputs":[{"name":"account","type":"address","indexed":false,"internalType":"address"}],"anonymous":false},{"type":"error","name":"EnforcedPause","inputs":[]},{"type":"error","name":"ExpectedPause","inputs":[]},{"type":"error","name":"OwnableInvalidOwner","inputs":[{"name":"owner","type":"address","internalType":"address"}]},{"type":"error","name":"OwnableUnauthorizedAccount","inputs":[{"name":"account","type":"address","internalType":"address"}]}],"bytecode":{"object":"0x608060405260405162003291380380620032918339818101604052810190620000299190620009c1565b335f73ffffffffffffffffffffffffffffffffffffffff168173ffffffffffffffffffffffffffffffffffffffff16036200009d575f6040517f1e4fbdf700000000000000000000000000000000000000000000000000000000815260040162000094919062000aa8565b60405180910390fd5b620000ae81620002c460201b60201c565b505f8060146101000a81548160ff0219169083151502179055508560059081620000d9919062000cf1565b508460069081620000eb919062000cf1565b508360075f6101000a81548160ff021916908360ff160217905550803410156200014c576040517f08c379a0000000000000000000000000000000000000000000000000000000008152600401620001439062000e33565b60405180910390fd5b5f73ffffffffffffffffffffffffffffffffffffffff168273ffffffffffffffffffffffffffffffffffffffff1603620001bd576040517f08c379a0000000000000000000000000000000000000000000000000000000008152600401620001b49062000ea1565b60405180910390fd5b5f8273ffffffffffffffffffffffffffffffffffffffff1682604051620001e49062000ef2565b5f6040518083038185875af1925050503d805f811462000220576040519150601f19603f3d011682016040523d82523d5f602084013e62000225565b606091505b50509050806200026c576040517f08c379a0000000000000000000000000000000000000000000000000000000008152600401620002639062000f56565b60405180910390fd5b620002b7620002806200038560201b60201c565b62000290620003ac60201b60201c565b600a6200029e9190620010f3565b86620002ab919062001143565b620003c160201b60201c565b505050505050506200133d565b5f805f9054906101000a900473ffffffffffffffffffffffffffffffffffffffff169050815f806101000a81548173ffffffffffffffffffffffffffffffffffffffff021916908373ffffffffffffffffffffffffffffffffffffffff1602179055508173ffffffffffffffffffffffffffffffffffffffff168173ffffffffffffffffffffffffffffffffffffffff167f8be0079c531659141344cd1fd0a4f28419497f9722a3daafe3b4186f6b6457e060405160405180910390a35050565b5f805f9054906101000a900473ffffffffffffffffffffffffffffffffffffffff16905090565b5f60075f9054906101000a900460ff16905090565b8160035f8273ffffffffffffffffffffffffffffffffffffffff1673ffffffffffffffffffffffffffffffffffffffff1681526020019081526020015f205f9054906101000a900460ff16156200044f576040517f08c379a00000000000000000000000000000000000000000000000000000000081526004016200044690620011db565b60405180910390fd5b5f73ffffffffffffffffffffffffffffffffffffffff168373ffffffffffffffffffffffffffffffffffffffff1603620004c0576040517f08c379a0000000000000000000000000000000000000000000000000000000008152600401620004b79062001249565b60405180910390fd5b620004d35f8484620004d860201b60201c565b505050565b620004e86200070960201b60201c565b5f73ffffffffffffffffffffffffffffffffffffffff168373ffffffffffffffffffffffffffffffffffffffff16036200053c578060045f8282546200052f919062001269565b9250508190555062000609565b5f60015f8573ffffffffffffffffffffffffffffffffffffffff1673ffffffffffffffffffffffffffffffffffffffff1681526020019081526020015f2054905081811015620005c3576040517f08c379a0000000000000000000000000000000000000000000000000000000008152600401620005ba90620012f1565b60405180910390fd5b81810360015f8673ffffffffffffffffffffffffffffffffffffffff1673ffffffffffffffffffffffffffffffffffffffff1681526020019081526020015f2081905550505b5f73ffffffffffffffffffffffffffffffffffffffff168273ffffffffffffffffffffffffffffffffffffffff160362000652578060045f82825403925050819055506200069d565b8060015f8473ffffffffffffffffffffffffffffffffffffffff1673ffffffffffffffffffffffffffffffffffffffff1681526020019081526020015f205f82825401925050819055505b8173ffffffffffffffffffffffffffffffffffffffff168373ffffffffffffffffffffffffffffffffffffffff167fddf252ad1be2c89b69c2b068fc378daa952ba7f163c4a11628f55a4df523b3ef83604051620006fc919062001322565b60405180910390a3505050565b620007196200075360201b60201c565b1562000751576040517fd93c066500000000000000000000000000000000000000000000000000000000815260040160405180910390fd5b565b5f8060149054906101000a900460ff16905090565b5f604051905090565b5f80fd5b5f80fd5b5f80fd5b5f80fd5b5f601f19601f8301169050919050565b7f4e487b71000000000000000000000000000000000000000000000000000000005f52604160045260245ffd5b620007c98262000781565b810181811067ffffffffffffffff82111715620007eb57620007ea62000791565b5b80604052505050565b5f620007ff62000768565b90506200080d8282620007be565b919050565b5f67ffffffffffffffff8211156200082f576200082e62000791565b5b6200083a8262000781565b9050602081019050919050565b5f5b838110156200086657808201518184015260208101905062000849565b5f8484015250505050565b5f62000887620008818462000812565b620007f4565b905082815260208101848484011115620008a657620008a56200077d565b5b620008b384828562000847565b509392505050565b5f82601f830112620008d257620008d162000779565b5b8151620008e484826020860162000871565b91505092915050565b5f60ff82169050919050565b6200090481620008ed565b81146200090f575f80fd5b50565b5f815190506200092281620008f9565b92915050565b5f819050919050565b6200093c8162000928565b811462000947575f80fd5b50565b5f815190506200095a8162000931565b92915050565b5f73ffffffffffffffffffffffffffffffffffffffff82169050919050565b5f6200098b8262000960565b9050919050565b6200099d816200097f565b8114620009a8575f80fd5b50565b5f81519050620009bb8162000992565b92915050565b5f805f805f8060c08789031215620009de57620009dd62000771565b5b5f87015167ffffffffffffffff811115620009fe57620009fd62000775565b5b62000a0c89828a01620008bb565b965050602087015167ffffffffffffffff81111562000a305762000a2f62000775565b5b62000a3e89828a01620008bb565b955050604062000a5189828a0162000912565b945050606062000a6489828a016200094a565b935050608062000a7789828a01620009ab565b92505060a062000a8a89828a016200094a565b9150509295509295509295565b62000aa2816200097f565b82525050565b5f60208201905062000abd5f83018462000a97565b92915050565b5f81519050919050565b7f4e487b71000000000000000000000000000000000000000000000000000000005f52602260045260245ffd5b5f600282049050600182168062000b1257607f821691505b60208210810362000b285762000b2762000acd565b5b50919050565b5f819050815f5260205f209050919050565b5f6020601f8301049050919050565b5f82821b905092915050565b5f6008830262000b8c7fffffffffffffffffffffffffffffffffffffffffffffffffffffffffffffffff8262000b4f565b62000b98868362000b4f565b95508019841693508086168417925050509392505050565b5f819050919050565b5f62000bd962000bd362000bcd8462000928565b62000bb0565b62000928565b9050919050565b5f819050919050565b62000bf48362000bb9565b62000c0c62000c038262000be0565b84845462000b5b565b825550505050565b5f90565b62000c2262000c14565b62000c2f81848462000be9565b505050565b5b8181101562000c565762000c4a5f8262000c18565b60018101905062000c35565b5050565b601f82111562000ca55762000c6f8162000b2e565b62000c7a8462000b40565b8101602085101562000c8a578190505b62000ca262000c998562000b40565b83018262000c34565b50505b505050565b5f82821c905092915050565b5f62000cc75f198460080262000caa565b1980831691505092915050565b5f62000ce1838362000cb6565b9150826002028217905092915050565b62000cfc8262000ac3565b67ffffffffffffffff81111562000d185762000d1762000791565b5b62000d24825462000afa565b62000d3182828562000c5a565b5f60209050601f83116001811462000d67575f841562000d52578287015190505b62000d5e858262000cd4565b86555062000dcd565b601f19841662000d778662000b2e565b5f5b8281101562000da05784890151825560018201915060208501945060208101905062000d79565b8683101562000dc0578489015162000dbc601f89168262000cb6565b8355505b6001600288020188555050505b505050505050565b5f82825260208201905092915050565b7f496e73756666696369656e742066656520616d6f756e742073656e74000000005f82015250565b5f62000e1b601c8362000dd5565b915062000e288262000de5565b602082019050919050565b5f6020820190508181035f83015262000e4c8162000e0d565b9050919050565b7f496e76616c6964206665652072656365697665722061646472657373000000005f82015250565b5f62000e89601c8362000dd5565b915062000e968262000e53565b602082019050919050565b5f6020820190508181035f83015262000eba8162000e7b565b9050919050565b5f81905092915050565b50565b5f62000edb5f8362000ec1565b915062000ee88262000ecb565b5f82019050919050565b5f62000efe8262000ece565b9150819050919050565b7f466565207472616e73666572206661696c6564000000000000000000000000005f82015250565b5f62000f3e60138362000dd5565b915062000f4b8262000f08565b602082019050919050565b5f6020820190508181035f83015262000f6f8162000f30565b9050919050565b7f4e487b71000000000000000000000000000000000000000000000000000000005f52601160045260245ffd5b5f8160011c9050919050565b5f808291508390505b6001851115620010005780860481111562000fd85762000fd762000f76565b5b600185161562000fe85780820291505b808102905062000ff88562000fa3565b945062000fb8565b94509492505050565b5f826200101a5760019050620010ec565b8162001029575f9050620010ec565b81600181146200104257600281146200104d5762001083565b6001915050620010ec565b60ff84111562001062576200106162000f76565b5b8360020a9150848211156200107c576200107b62000f76565b5b50620010ec565b5060208310610133831016604e8410600b8410161715620010bd5782820a905083811115620010b757620010b662000f76565b5b620010ec565b620010cc848484600162000faf565b92509050818404811115620010e657620010e562000f76565b5b81810290505b9392505050565b5f620010ff8262000928565b91506200110c83620008ed565b92506200113b7fffffffffffffffffffffffffffffffffffffffffffffffffffffffffffffffff848462001009565b905092915050565b5f6200114f8262000928565b91506200115c8362000928565b92508282026200116c8162000928565b9150828204841483151762001186576200118562000f76565b5b5092915050565b7f4164647265737320697320626c61636b6c6973746564000000000000000000005f82015250565b5f620011c360168362000dd5565b9150620011d0826200118d565b602082019050919050565b5f6020820190508181035f830152620011f481620011b5565b9050919050565b7f43616e6e6f74206d696e7420746f207a65726f206164647265737300000000005f82015250565b5f62001231601b8362000dd5565b91506200123e82620011fb565b602082019050919050565b5f6020820190508181035f830152620012628162001223565b9050919050565b5f620012758262000928565b9150620012828362000928565b92508282019050808211156200129d576200129c62000f76565b5b92915050565b7f496e73756666696369656e742062616c616e63650000000000000000000000005f82015250565b5f620012d960148362000dd5565b9150620012e682620012a3565b602082019050919050565b5f6020820190508181035f8301526200130a81620012cb565b9050919050565b6200131c8162000928565b82525050565b5f602082019050620013375f83018462001311565b92915050565b611f46806200134b5f395ff3fe608060405234801561000f575f80fd5b5060043610610135575f3560e01c8063715018a6116100b657806395d89b411161007a57806395d89b41146102ed578063a9059cbb1461030b578063dd62ed3e1461033b578063f2fde38b1461036b578063f9f92be414610387578063fe575a87146103a357610135565b8063715018a61461028357806375e3661e1461028d57806379cc6790146102a95780638456cb59146102c55780638da5cb5b146102cf57610135565b80633f4ba83a116100fd5780633f4ba83a146101f357806340c10f19146101fd57806342966c68146102195780635c975abb1461023557806370a082311461025357610135565b806306fdde0314610139578063095ea7b31461015757806318160ddd1461018757806323b872dd146101a5578063313ce567146101d5575b5f80fd5b6101416103d3565b60405161014e91906117b9565b60405180910390f35b610171600480360381019061016c919061186a565b610463565b60405161017e91906118c2565b60405180910390f35b61018f610591565b60405161019c91906118ea565b60405180910390f35b6101bf60048036038101906101ba9190611903565b61059a565b6040516101cc91906118c2565b60405180910390f35b6101dd6106d4565b6040516101ea919061196e565b60405180910390f35b6101fb6106e9565b005b6102176004803603810190610212919061186a565b6106fb565b005b610233600480360381019061022e9190611987565b610711565b005b61023d61071e565b60405161024a91906118c2565b60405180910390f35b61026d600480360381019061026891906119b2565b610733565b60405161027a91906118ea565b60405180910390f35b61028b610779565b005b6102a760048036038101906102a291906119b2565b61078c565b005b6102c360048036038101906102be919061186a565b61082e565b005b6102cd610847565b005b6102d7610859565b6040516102e491906119ec565b60405180910390f35b6102f5610880565b60405161030291906117b9565b60405180910390f35b6103256004803603810190610320919061186a565b610910565b60405161033291906118c2565b60405180910390f35b61035560048036038101906103509190611a05565b610a3e565b60405161036291906118ea565b60405180910390f35b610385600480360381019061038091906119b2565b610ac0565b005b6103a1600480360381019061039c91906119b2565b610b44565b005b6103bd60048036038101906103b891906119b2565b610be7565b6040516103ca91906118c2565b60405180910390f35b6060600580546103e290611a70565b80601f016020809104026020016040519081016040528092919081815260200182805461040e90611a70565b80156104595780601f1061043057610100808354040283529160200191610459565b820191905f5260205f20905b81548152906001019060200180831161043c57829003601f168201915b5050505050905090565b5f3360035f8273ffffffffffffffffffffffffffffffffffffffff1673ffffffffffffffffffffffffffffffffffffffff1681526020019081526020015f205f9054906101000a900460ff16156104ef576040517f08c379a00000000000000000000000000000000000000000000000000000000081526004016104e690611aea565b60405180910390fd5b8360035f8273ffffffffffffffffffffffffffffffffffffffff1673ffffffffffffffffffffffffffffffffffffffff1681526020019081526020015f205f9054906101000a900460ff161561057a576040517f08c379a000000000000000000000000000000000000000000000000000000000815260040161057190611aea565b60405180910390fd5b610585338686610c39565b60019250505092915050565b5f600454905090565b5f8360035f8273ffffffffffffffffffffffffffffffffffffffff1673ffffffffffffffffffffffffffffffffffffffff1681526020019081526020015f205f9054906101000a900460ff1615610626576040517f08c379a000000000000000000000000000000000000000000000000000000000815260040161061d90611aea565b60405180910390fd5b8360035f8273ffffffffffffffffffffffffffffffffffffffff1673ffffffffffffffffffffffffffffffffffffffff1681526020019081526020015f205f9054906101000a900460ff16156106b1576040517f08c379a00000000000000000000000000000000000000000000000000000000081526004016106a890611aea565b60405180910390fd5b6106bc863386610c4b565b6106c7868686610cd8565b6001925050509392505050565b5f60075f9054906101000a900460ff16905090565b6106f1610ea1565b6106f9610f28565b565b610703610ea1565b61070d8282610f89565b5050565b61071b3382611092565b50565b5f8060149054906101000a900460ff16905090565b5f60015f8373ffffffffffffffffffffffffffffffffffffffff1673ffffffffffffffffffffffffffffffffffffffff1681526020019081526020015f20549050919050565b610781610ea1565b61078a5f61119b565b565b610794610ea1565b5f60035f8373ffffffffffffffffffffffffffffffffffffffff1673ffffffffffffffffffffffffffffffffffffffff1681526020019081526020015f205f6101000a81548160ff0219169083151502179055508073ffffffffffffffffffffffffffffffffffffffff167f7534c63860313c46c473e4e98328f37017e9674e2162faf1a3ad7a96236c3b7b60405160405180910390a250565b610839823383610c4b565b6108438282611092565b5050565b61084f610ea1565b61085761125c565b565b5f805f9054906101000a900473ffffffffffffffffffffffffffffffffffffffff16905090565b60606006805461088f90611a70565b80601f01602080910402602001604051908101604052809291908181526020018280546108bb90611a70565b80156109065780601f106108dd57610100808354040283529160200191610906565b820191905f5260205f20905b8154815290600101906020018083116108e957829003601f168201915b5050505050905090565b5f3360035f8273ffffffffffffffffffffffffffffffffffffffff1673ffffffffffffffffffffffffffffffffffffffff1681526020019081526020015f205f9054906101000a900460ff161561099c576040517f08c379a000000000000000000000000000000000000000000000000000000000815260040161099390611aea565b60405180910390fd5b8360035f8273ffffffffffffffffffffffffffffffffffffffff1673ffffffffffffffffffffffffffffffffffffffff1681526020019081526020015f205f9054906101000a900460ff1615610a27576040517f08c379a0000000000000000000000000000000000000000000000000000000008152600401610a1e90611aea565b60405180910390fd5b610a32338686610cd8565b60019250505092915050565b5f60025f8473ffffffffffffffffffffffffffffffffffffffff1673ffffffffffffffffffffffffffffffffffffffff1681526020019081526020015f205f8373ffffffffffffffffffffffffffffffffffffffff1673ffffffffffffffffffffffffffffffffffffffff1681526020019081526020015f2054905092915050565b610ac8610ea1565b5f73ffffffffffffffffffffffffffffffffffffffff168173ffffffffffffffffffffffffffffffffffffffff1603610b38575f6040517f1e4fbdf7000000000000000000000000000000000000000000000000000000008152600401610b2f91906119ec565b60405180910390fd5b610b418161119b565b50565b610b4c610ea1565b600160035f8373ffffffffffffffffffffffffffffffffffffffff1673ffffffffffffffffffffffffffffffffffffffff1681526020019081526020015f205f6101000a81548160ff0219169083151502179055508073ffffffffffffffffffffffffffffffffffffffff167fffa4e6181777692565cf28528fc88fd1516ea86b56da075235fa575af6a4b85560405160405180910390a250565b5f60035f8373ffffffffffffffffffffffffffffffffffffffff1673ffffffffffffffffffffffffffffffffffffffff1681526020019081526020015f205f9054906101000a900460ff169050919050565b610c4683838360016112be565b505050565b5f610c568484610a3e565b905081811015610c9b576040517f08c379a0000000000000000000000000000000000000000000000000000000008152600401610c9290611b52565b60405180910390fd5b7fffffffffffffffffffffffffffffffffffffffffffffffffffffffffffffffff811015610cd257610cd184848484035f6112be565b5b50505050565b60035f8473ffffffffffffffffffffffffffffffffffffffff1673ffffffffffffffffffffffffffffffffffffffff1681526020019081526020015f205f9054906101000a900460ff16158015610d76575060035f8373ffffffffffffffffffffffffffffffffffffffff1673ffffffffffffffffffffffffffffffffffffffff1681526020019081526020015f205f9054906101000a900460ff16155b610db5576040517f08c379a0000000000000000000000000000000000000000000000000000000008152600401610dac90611bba565b60405180910390fd5b5f73ffffffffffffffffffffffffffffffffffffffff168373ffffffffffffffffffffffffffffffffffffffff1603610e23576040517f08c379a0000000000000000000000000000000000000000000000000000000008152600401610e1a90611c22565b60405180910390fd5b5f73ffffffffffffffffffffffffffffffffffffffff168273ffffffffffffffffffffffffffffffffffffffff1603610e91576040517f08c379a0000000000000000000000000000000000000000000000000000000008152600401610e8890611c8a565b60405180910390fd5b610e9c838383611489565b505050565b610ea96116a7565b73ffffffffffffffffffffffffffffffffffffffff16610ec7610859565b73ffffffffffffffffffffffffffffffffffffffff1614610f2657610eea6116a7565b6040517f118cdaa7000000000000000000000000000000000000000000000000000000008152600401610f1d91906119ec565b60405180910390fd5b565b610f306116ae565b5f8060146101000a81548160ff0219169083151502179055507f5db9ee0a495bf2e6ff9c91a7834c1ba4fdd244a5e8aa4e537bd38aeae4b073aa610f726116a7565b604051610f7f91906119ec565b60405180910390a1565b8160035f8273ffffffffffffffffffffffffffffffffffffffff1673ffffffffffffffffffffffffffffffffffffffff1681526020019081526020015f205f9054906101000a900460ff1615611014576040517f08c379a000000000000000000000000000000000000000000000000000000000815260040161100b90611aea565b60405180910390fd5b5f73ffffffffffffffffffffffffffffffffffffffff168373ffffffffffffffffffffffffffffffffffffffff1603611082576040517f08c379a000000000000000000000000000000000000000000000000000000000815260040161107990611cf2565b60405180910390fd5b61108d5f8484611489565b505050565b8160035f8273ffffffffffffffffffffffffffffffffffffffff1673ffffffffffffffffffffffffffffffffffffffff1681526020019081526020015f205f9054906101000a900460ff161561111d576040517f08c379a000000000000000000000000000000000000000000000000000000000815260040161111490611aea565b60405180910390fd5b5f73ffffffffffffffffffffffffffffffffffffffff168373ffffffffffffffffffffffffffffffffffffffff160361118b576040517f08c379a000000000000000000000000000000000000000000000000000000000815260040161118290611d5a565b60405180910390fd5b611196835f84611489565b505050565b5f805f9054906101000a900473ffffffffffffffffffffffffffffffffffffffff169050815f806101000a81548173ffffffffffffffffffffffffffffffffffffffff021916908373ffffffffffffffffffffffffffffffffffffffff1602179055508173ffffffffffffffffffffffffffffffffffffffff168173ffffffffffffffffffffffffffffffffffffffff167f8be0079c531659141344cd1fd0a4f28419497f9722a3daafe3b4186f6b6457e060405160405180910390a35050565b6112646116ee565b60015f60146101000a81548160ff0219169083151502179055507f62e78cea01bee320cd4e420270b5ea74000d11b0c9f74754ebdbfc544b05a2586112a76116a7565b6040516112b491906119ec565b60405180910390a1565b5f73ffffffffffffffffffffffffffffffffffffffff168473ffffffffffffffffffffffffffffffffffffffff160361132c576040517f08c379a000000000000000000000000000000000000000000000000000000000815260040161132390611dc2565b60405180910390fd5b5f73ffffffffffffffffffffffffffffffffffffffff168373ffffffffffffffffffffffffffffffffffffffff160361139a576040517f08c379a000000000000000000000000000000000000000000000000000000000815260040161139190611e2a565b60405180910390fd5b8160025f8673ffffffffffffffffffffffffffffffffffffffff1673ffffffffffffffffffffffffffffffffffffffff1681526020019081526020015f205f8573ffffffffffffffffffffffffffffffffffffffff1673ffffffffffffffffffffffffffffffffffffffff1681526020019081526020015f20819055508015611483578273ffffffffffffffffffffffffffffffffffffffff168473ffffffffffffffffffffffffffffffffffffffff167f8c5be1e5ebec7d5bd14f71427d1e84f3dd0314c0f7b2291e5b200ac8c7c3b9258460405161147a91906118ea565b60405180910390a35b50505050565b6114916116ee565b5f73ffffffffffffffffffffffffffffffffffffffff168373ffffffffffffffffffffffffffffffffffffffff16036114e1578060045f8282546114d59190611e75565b925050819055506115ab565b5f60015f8573ffffffffffffffffffffffffffffffffffffffff1673ffffffffffffffffffffffffffffffffffffffff1681526020019081526020015f2054905081811015611565576040517f08c379a000000000000000000000000000000000000000000000000000000000815260040161155c90611ef2565b60405180910390fd5b81810360015f8673ffffffffffffffffffffffffffffffffffffffff1673ffffffffffffffffffffffffffffffffffffffff1681526020019081526020015f2081905550505b5f73ffffffffffffffffffffffffffffffffffffffff168273ffffffffffffffffffffffffffffffffffffffff16036115f2578060045f828254039250508190555061163d565b8060015f8473ffffffffffffffffffffffffffffffffffffffff1673ffffffffffffffffffffffffffffffffffffffff1681526020019081526020015f205f82825401925050819055505b8173ffffffffffffffffffffffffffffffffffffffff168373ffffffffffffffffffffffffffffffffffffffff167fddf252ad1be2c89b69c2b068fc378daa952ba7f163c4a11628f55a4df523b3ef8360405161169a91906118ea565b60405180910390a3505050565b5f33905090565b6116b661071e565b6116ec576040517f8dfc202b00000000000000000000000000000000000000000000000000000000815260040160405180910390fd5b565b6116f661071e565b1561172d576040517fd93c066500000000000000000000000000000000000000000000000000000000815260040160405180910390fd5b565b5f81519050919050565b5f82825260208201905092915050565b5f5b8381101561176657808201518184015260208101905061174b565b5f8484015250505050565b5f601f19601f8301169050919050565b5f61178b8261172f565b6117958185611739565b93506117a5818560208601611749565b6117ae81611771565b840191505092915050565b5f6020820190508181035f8301526117d18184611781565b905092915050565b5f80fd5b5f73ffffffffffffffffffffffffffffffffffffffff82169050919050565b5f611806826117dd565b9050919050565b611816816117fc565b8114611820575f80fd5b50565b5f813590506118318161180d565b92915050565b5f819050919050565b61184981611837565b8114611853575f80fd5b50565b5f8135905061186481611840565b92915050565b5f80604083850312156118805761187f6117d9565b5b5f61188d85828601611823565b925050602061189e85828601611856565b9150509250929050565b5f8115159050919050565b6118bc816118a8565b82525050565b5f6020820190506118d55f8301846118b3565b92915050565b6118e481611837565b82525050565b5f6020820190506118fd5f8301846118db565b92915050565b5f805f6060848603121561191a576119196117d9565b5b5f61192786828701611823565b935050602061193886828701611823565b925050604061194986828701611856565b9150509250925092565b5f60ff82169050919050565b61196881611953565b82525050565b5f6020820190506119815f83018461195f565b92915050565b5f6020828403121561199c5761199b6117d9565b5b5f6119a984828501611856565b91505092915050565b5f602082840312156119c7576119c66117d9565b5b5f6119d484828501611823565b91505092915050565b6119e6816117fc565b82525050565b5f6020820190506119ff5f8301846119dd565b92915050565b5f8060408385031215611a1b57611a1a6117d9565b5b5f611a2885828601611823565b9250506020611a3985828601611823565b9150509250929050565b7f4e487b71000000000000000000000000000000000000000000000000000000005f52602260045260245ffd5b5f6002820490506001821680611a8757607f821691505b602082108103611a9a57611a99611a43565b5b50919050565b7f4164647265737320697320626c61636b6c6973746564000000000000000000005f82015250565b5f611ad4601683611739565b9150611adf82611aa0565b602082019050919050565b5f6020820190508181035f830152611b0181611ac8565b9050919050565b7f496e73756666696369656e7420616c6c6f77616e6365000000000000000000005f82015250565b5f611b3c601683611739565b9150611b4782611b08565b602082019050919050565b5f6020820190508181035f830152611b6981611b30565b9050919050565b7f426c61636b6c6973746564206164647265737320696e766f6c766564000000005f82015250565b5f611ba4601c83611739565b9150611baf82611b70565b602082019050919050565b5f6020820190508181035f830152611bd181611b98565b9050919050565b7f496e76616c69642073656e6465723a207a65726f2061646472657373000000005f82015250565b5f611c0c601c83611739565b9150611c1782611bd8565b602082019050919050565b5f6020820190508181035f830152611c3981611c00565b9050919050565b7f496e76616c69642072656365697665723a207a65726f206164647265737300005f82015250565b5f611c74601e83611739565b9150611c7f82611c40565b602082019050919050565b5f6020820190508181035f830152611ca181611c68565b9050919050565b7f43616e6e6f74206d696e7420746f207a65726f206164647265737300000000005f82015250565b5f611cdc601b83611739565b9150611ce782611ca8565b602082019050919050565b5f6020820190508181035f830152611d0981611cd0565b9050919050565b7f43616e6e6f74206275726e2066726f6d207a65726f20616464726573730000005f82015250565b5f611d44601d83611739565b9150611d4f82611d10565b602082019050919050565b5f6020820190508181035f830152611d7181611d38565b9050919050565b7f496e76616c696420617070726f766572000000000000000000000000000000005f82015250565b5f611dac601083611739565b9150611db782611d78565b602082019050919050565b5f6020820190508181035f830152611dd981611da0565b9050919050565b7f496e76616c6964207370656e64657200000000000000000000000000000000005f82015250565b5f611e14600f83611739565b9150611e1f82611de0565b602082019050919050565b5f6020820190508181035f830152611e4181611e08565b9050919050565b7f4e487b71000000000000000000000000000000000000000000000000000000005f52601160045260245ffd5b5f611e7f82611837565b9150611e8a83611837565b9250828201905080821115611ea257611ea1611e48565b5b92915050565b7f496e73756666696369656e742062616c616e63650000000000000000000000005f82015250565b5f611edc601483611739565b9150611ee782611ea8565b602082019050919050565b5f6020820190508181035f830152611f0981611ed0565b905091905056fea264697066735822122033cdbf397b16b0240bcf19397d7017d3bd7997a984668e2bd30645f6efbe586e64736f6c63430008170033","linkReferences":{}},"methodIdentifiers":{"allowance(address,address)":"dd62ed3e","approve(address,uint256)":"095ea7b3","balanceOf(address)":"70a08231","blacklist(address)":"f9f92be4","burn(uint256)":"42966c68","burnFrom(address,uint256)":"79cc6790","decimals()":"313ce567","isBlacklisted(address)":"fe575a87","mint(address,uint256)":"40c10f19","name()":"06fdde03","owner()":"8da5cb5b","pause()":"8456cb59","paused()":"5c975abb","renounceOwnership()":"715018a6","symbol()":"95d89b41","totalSupply()":"18160ddd","transfer(address,uint256)":"a9059cbb","transferFrom(address,address,uint256)":"23b872dd","transferOwnership(address)":"f2fde38b","unblacklist(address)":"75e3661e","unpause()":"3f4ba83a"},"id":33}