{"abi":[{"type":"constructor","inputs":[{"name":"name_","type":"string","internalType":"string"},{"name":"symbol_","type":"string","internalType":"string"},{"name":"decimals_","type":"uint8","internalType":"uint8"},{"name":"totalSupply_","type":"uint256","internalType":"uint256"},{"name":"serviceFeeReceiver_","type":"address","internalType":"address"},{"name":"serviceFee_","type":"uint256","internalType":"uint256"}],"stateMutability":"payable"},{"type":"function","name":"allowance","inputs":[{"name":"owner","type":"address","internalType":"address"},{"name":"spender","type":"address","internalType":"address"}],"outputs":[{"name":"","type":"uint256","internalType":"uint256"}],"stateMutability":"view"},{"type":"function","name":"approve","inputs":[{"name":"spender","type":"address","internalType":"address"},{"name":"value","type":"uint256","internalType":"uint256"}],"outputs":[{"name":"","type":"bool","internalType":"bool"}],"stateMutability":"nonpayable"},{"type":"function","name":"balanceOf","inputs":[{"name":"account","type":"address","internalType":"address"}],"outputs":[{"name":"","type":"uint256","internalType":"uint256"}],"stateMutability":"view"},{"type":"function","name":"blacklist","inputs":[{"name":"account","type":"address","internalType":"address"}],"outputs":[],"stateMutability":"nonpayable"},{"type":"function","name":"decimals","inputs":[],"outputs":[{"name":"","type":"uint8","internalType":"uint8"}],"stateMutability":"view"},{"type":"function","name":"isBlacklisted","inputs":[{"name":"account","type":"address","internalType":"address"}],"outputs":[{"name":"","type":"bool","internalType":"bool"}],"stateMutability":"view"},{"type":"function","name":"name","inputs":[],"outputs":[{"name":"","type":"string","internalType":"string"}],"stateMutability":"view"},{"type":"function","name":"owner","inputs":[],"outputs":[{"name":"","type":"address","internalType":"address"}],"stateMutability":"view"},{"type":"function","name":"pause","inputs":[],"outputs":[],"stateMutability":"nonpayable"},{"type":"function","name":"paused","inputs":[],"outputs":[{"name":"","type":"bool","internalType":"bool"}],"stateMutability":"view"},{"type":"function","name":"renounceOwnership","inputs":[],"outputs":[],"stateMutability":"nonpayable"},{"type":"function","name":"symbol","inputs":[],"outputs":[{"name":"","type":"string","internalType":"string"}],"stateMutability":"view"},{"type":"function","name":"totalSupply","inputs":[],"outputs":[{"name":"","type":"uint256","internalType":"uint256"}],"stateMutability":"view"},{"type":"function","name":"transfer","inputs":[{"name":"to","type":"address","internalType":"address"},{"name":"value","type":"uint256","internalType":"uint256"}],"outputs":[{"name":"","type":"bool","internalType":"bool"}],"stateMutability":"nonpayable"},{"type":"function","name":"transferFrom","inputs":[{"name":"from","type":"address","internalType":"address"},{"name":"to","type":"address","internalType":"address"},{"name":"value","type":"uint256","internalType":"uint256"}],"outputs":[{"name":"","type":"bool","internalType":"bool"}],"stateMutability":"nonpayable"},{"type":"function","name":"transferOwnership","inputs":[{"name":"newOwner","type":"address","internalType":"address"}],"outputs":[],"stateMutability":"nonpayable"},{"type":"function","name":"unblacklist","inputs":[{"name":"account","type":"address","internalType":"address"}],"outputs":[],"stateMutability":"nonpayable"},{"type":"function","name":"unpause","inputs":[],"outputs":[],"stateMutability":"nonpayable"},{"type":"event","name":"Approval","inputs":[{"name":"owner","type":"address","indexed":true,"internalType":"address"},{"name":"spender","type":"address","indexed":true,"internalType":"address"},{"name":"value","type":"uint256","indexed":false,"internalType":"uint256"}],"anonymous":false},{"type":"event","name":"Blacklisted","inputs":[{"name":"account","type":"address","indexed":true,"internalType":"address"}],"anonymous":false},{"type":"event","name":"OwnershipTransferred","inputs":[{"name":"previousOwner","type":"address","indexed":true,"internalType":"address"},{"name":"newOwner","type":"address","indexed":true,"internalType":"address"}],"anonymous":false},{"type":"event","name":"Paused","inputs":[{"name":"account","type":"address","indexed":false,"internalType":"address"}],"anonymous":false},{"type":"event","name":"Transfer","inputs":[{"name":"from","type":"address","indexed":true,"internalType":"address"},{"name":"to","type":"address","indexed":true,"internalType":"address"},{"name":"value","type":"uint256","indexed":false,"internalType":"uint256"}],"anonymous":false},{"type":"event","name":"Unblacklisted","inputs":[{"name":"account","type":"address","indexed":true,"internalType":"address"}],"anonymous":false},{"type":"event","name":"Unpaused","inputs":[{"name":"account","type":"address","indexed":false,"internalType":"address"}],"anonymous":false},{"type":"error","name":"EnforcedPause","inputs":[]},{"type":"error","name":"ExpectedPause","inputs":[]},{"type":"error","name":"OwnableInvalidOwner","inputs":[{"name":"owner","type":"address","internalType":"address"}]},{"type":"error","name":"OwnableUnauthorizedAccount","inputs":[{"name":"account","type":"address","internalType":"address"}]}],"bytecode":{"object":"0x6080604052604051612bbd380380612bbd833981810160405281019061002591906108af565b335f73ffffffffffffffffffffffffffffffffffffffff168173ffffffffffffffffffffffffffffffffffffffff1603610096575f6040517f1e4fbdf700000000000000000000000000000000000000000000000000000000815260040161008d919061097f565b60405180910390fd5b6100a58161029f60201b60201c565b505f5f60146101000a81548160ff02191690831515021790555085600590816100ce9190610b9f565b5084600690816100de9190610b9f565b508360075f6101000a81548160ff021916908360ff1602179055508034101561013c576040517f08c379a000000000000000000000000000000000000000000000000000000000815260040161013390610cc8565b60405180910390fd5b5f73ffffffffffffffffffffffffffffffffffffffff168273ffffffffffffffffffffffffffffffffffffffff16036101aa576040517f08c379a00000000000000000000000000000000000000000000000000000000081526004016101a190610d30565b60405180910390fd5b5f8273ffffffffffffffffffffffffffffffffffffffff16826040516101cf90610d7b565b5f6040518083038185875af1925050503d805f8114610209576040519150601f19603f3d011682016040523d82523d5f602084013e61020e565b606091505b5050905080610252576040517f08c379a000000000000000000000000000000000000000000000000000000000815260040161024990610dd9565b60405180910390fd5b61029361026361036060201b60201c565b61027161038760201b60201c565b600a61027d9190610f53565b866102889190610f9d565b61039c60201b60201c565b50505050505050611109565b5f5f5f9054906101000a900473ffffffffffffffffffffffffffffffffffffffff169050815f5f6101000a81548173ffffffffffffffffffffffffffffffffffffffff021916908373ffffffffffffffffffffffffffffffffffffffff1602179055508173ffffffffffffffffffffffffffffffffffffffff168173ffffffffffffffffffffffffffffffffffffffff167f8be0079c531659141344cd1fd0a4f28419497f9722a3daafe3b4186f6b6457e060405160405180910390a35050565b5f5f5f9054906101000a900473ffffffffffffffffffffffffffffffffffffffff16905090565b5f60075f9054906101000a900460ff16905090565b5f73ffffffffffffffffffffffffffffffffffffffff168273ffffffffffffffffffffffffffffffffffffffff160361040a576040517f08c379a000000000000000000000000000000000000000000000000000000000815260040161040190611028565b60405180910390fd5b61041b5f838361041f60201b60201c565b5050565b61042d61064360201b60201c565b5f73ffffffffffffffffffffffffffffffffffffffff168373ffffffffffffffffffffffffffffffffffffffff160361047d578060045f8282546104719190611046565b92505081905550610547565b5f60015f8573ffffffffffffffffffffffffffffffffffffffff1673ffffffffffffffffffffffffffffffffffffffff1681526020019081526020015f2054905081811015610501576040517f08c379a00000000000000000000000000000000000000000000000000000000081526004016104f8906110c3565b60405180910390fd5b81810360015f8673ffffffffffffffffffffffffffffffffffffffff1673ffffffffffffffffffffffffffffffffffffffff1681526020019081526020015f2081905550505b5f73ffffffffffffffffffffffffffffffffffffffff168273ffffffffffffffffffffffffffffffffffffffff160361058e578060045f82825403925050819055506105d9565b8060015f8473ffffffffffffffffffffffffffffffffffffffff1673ffffffffffffffffffffffffffffffffffffffff1681526020019081526020015f205f82825401925050819055505b8173ffffffffffffffffffffffffffffffffffffffff168373ffffffffffffffffffffffffffffffffffffffff167fddf252ad1be2c89b69c2b068fc378daa952ba7f163c4a11628f55a4df523b3ef8360405161063691906110f0565b60405180910390a3505050565b61065161068a60201b60201c565b15610688576040517fd93c066500000000000000000000000000000000000000000000000000000000815260040160405180910390fd5b565b5f5f60149054906101000a900460ff16905090565b5f604051905090565b5f5ffd5b5f5ffd5b5f5ffd5b5f5ffd5b5f601f19601f8301169050919050565b7f4e487b71000000000000000000000000000000000000000000000000000000005f52604160045260245ffd5b6106fe826106b8565b810181811067ffffffffffffffff8211171561071d5761071c6106c8565b5b80604052505050565b5f61072f61069f565b905061073b82826106f5565b919050565b5f67ffffffffffffffff82111561075a576107596106c8565b5b610763826106b8565b9050602081019050919050565b8281835e5f83830152505050565b5f61079061078b84610740565b610726565b9050828152602081018484840111156107ac576107ab6106b4565b5b6107b7848285610770565b509392505050565b5f82601f8301126107d3576107d26106b0565b5b81516107e384826020860161077e565b91505092915050565b5f60ff82169050919050565b610801816107ec565b811461080b575f5ffd5b50565b5f8151905061081c816107f8565b92915050565b5f819050919050565b61083481610822565b811461083e575f5ffd5b50565b5f8151905061084f8161082b565b92915050565b5f73ffffffffffffffffffffffffffffffffffffffff82169050919050565b5f61087e82610855565b9050919050565b61088e81610874565b8114610898575f5ffd5b50565b5f815190506108a981610885565b92915050565b5f5f5f5f5f5f60c087890312156108c9576108c86106a8565b5b5f87015167ffffffffffffffff8111156108e6576108e56106ac565b5b6108f289828a016107bf565b965050602087015167ffffffffffffffff811115610913576109126106ac565b5b61091f89828a016107bf565b955050604061093089828a0161080e565b945050606061094189828a01610841565b935050608061095289828a0161089b565b92505060a061096389828a01610841565b9150509295509295509295565b61097981610874565b82525050565b5f6020820190506109925f830184610970565b92915050565b5f81519050919050565b7f4e487b71000000000000000000000000000000000000000000000000000000005f52602260045260245ffd5b5f60028204905060018216806109e657607f821691505b6020821081036109f9576109f86109a2565b5b50919050565b5f819050815f5260205f209050919050565b5f6020601f8301049050919050565b5f82821b905092915050565b5f60088302610a5b7fffffffffffffffffffffffffffffffffffffffffffffffffffffffffffffffff82610a20565b610a658683610a20565b95508019841693508086168417925050509392505050565b5f819050919050565b5f610aa0610a9b610a9684610822565b610a7d565b610822565b9050919050565b5f819050919050565b610ab983610a86565b610acd610ac582610aa7565b848454610a2c565b825550505050565b5f5f905090565b610ae4610ad5565b610aef818484610ab0565b505050565b5b81811015610b1257610b075f82610adc565b600181019050610af5565b5050565b601f821115610b5757610b28816109ff565b610b3184610a11565b81016020851015610b40578190505b610b54610b4c85610a11565b830182610af4565b50505b505050565b5f82821c905092915050565b5f610b775f1984600802610b5c565b1980831691505092915050565b5f610b8f8383610b68565b9150826002028217905092915050565b610ba882610998565b67ffffffffffffffff811115610bc157610bc06106c8565b5b610bcb82546109cf565b610bd6828285610b16565b5f60209050601f831160018114610c07575f8415610bf5578287015190505b610bff8582610b84565b865550610c66565b601f198416610c15866109ff565b5f5b82811015610c3c57848901518255600182019150602085019450602081019050610c17565b86831015610c595784890151610c55601f891682610b68565b8355505b6001600288020188555050505b505050505050565b5f82825260208201905092915050565b7f496e73756666696369656e742066656520616d6f756e742073656e74000000005f82015250565b5f610cb2601c83610c6e565b9150610cbd82610c7e565b602082019050919050565b5f6020820190508181035f830152610cdf81610ca6565b9050919050565b7f496e76616c6964206665652072656365697665720000000000000000000000005f82015250565b5f610d1a601483610c6e565b9150610d2582610ce6565b602082019050919050565b5f6020820190508181035f830152610d4781610d0e565b9050919050565b5f81905092915050565b50565b5f610d665f83610d4e565b9150610d7182610d58565b5f82019050919050565b5f610d8582610d5b565b9150819050919050565b7f466565207472616e73666572206661696c6564000000000000000000000000005f82015250565b5f610dc3601383610c6e565b9150610dce82610d8f565b602082019050919050565b5f6020820190508181035f830152610df081610db7565b9050919050565b7f4e487b71000000000000000000000000000000000000000000000000000000005f52601160045260245ffd5b5f8160011c9050919050565b5f5f8291508390505b6001851115610e7957808604811115610e5557610e54610df7565b5b6001851615610e645780820291505b8081029050610e7285610e24565b9450610e39565b94509492505050565b5f82610e915760019050610f4c565b81610e9e575f9050610f4c565b8160018114610eb45760028114610ebe57610eed565b6001915050610f4c565b60ff841115610ed057610ecf610df7565b5b8360020a915084821115610ee757610ee6610df7565b5b50610f4c565b5060208310610133831016604e8410600b8410161715610f225782820a905083811115610f1d57610f1c610df7565b5b610f4c565b610f2f8484846001610e30565b92509050818404811115610f4657610f45610df7565b5b81810290505b9392505050565b5f610f5d82610822565b9150610f68836107ec565b9250610f957fffffffffffffffffffffffffffffffffffffffffffffffffffffffffffffffff8484610e82565b905092915050565b5f610fa782610822565b9150610fb283610822565b9250828202610fc081610822565b91508282048414831517610fd757610fd6610df7565b5b5092915050565b7f496e76616c6964207265636569766572000000000000000000000000000000005f82015250565b5f611012601083610c6e565b915061101d82610fde565b602082019050919050565b5f6020820190508181035f83015261103f81611006565b9050919050565b5f61105082610822565b915061105b83610822565b925082820190508082111561107357611072610df7565b5b92915050565b7f496e73756666696369656e742062616c616e63650000000000000000000000005f82015250565b5f6110ad601483610c6e565b91506110b882611079565b602082019050919050565b5f6020820190508181035f8301526110da816110a1565b9050919050565b6110ea81610822565b82525050565b5f6020820190506111035f8301846110e1565b92915050565b611aa7806111165f395ff3fe608060405234801561000f575f5ffd5b5060043610610114575f3560e01c806375e3661e116100a0578063a9059cbb1161006f578063a9059cbb14610296578063dd62ed3e146102c6578063f2fde38b146102f6578063f9f92be414610312578063fe575a871461032e57610114565b806375e3661e146102345780638456cb59146102505780638da5cb5b1461025a57806395d89b411461027857610114565b8063313ce567116100e7578063313ce567146101b45780633f4ba83a146101d25780635c975abb146101dc57806370a08231146101fa578063715018a61461022a57610114565b806306fdde0314610118578063095ea7b31461013657806318160ddd1461016657806323b872dd14610184575b5f5ffd5b61012061035e565b60405161012d91906114e5565b60405180910390f35b610150600480360381019061014b9190611596565b6103ee565b60405161015d91906115ee565b60405180910390f35b61016e61052a565b60405161017b9190611616565b60405180910390f35b61019e6004803603810190610199919061162f565b610533565b6040516101ab91906115ee565b60405180910390f35b6101bc610674565b6040516101c9919061169a565b60405180910390f35b6101da610689565b005b6101e461069b565b6040516101f191906115ee565b60405180910390f35b610214600480360381019061020f91906116b3565b6106b0565b6040516102219190611616565b60405180910390f35b6102326106f6565b005b61024e600480360381019061024991906116b3565b610709565b005b6102586107ab565b005b6102626107bd565b60405161026f91906116ed565b60405180910390f35b6102806107e4565b60405161028d91906114e5565b60405180910390f35b6102b060048036038101906102ab9190611596565b610874565b6040516102bd91906115ee565b60405180910390f35b6102e060048036038101906102db9190611706565b6109b0565b6040516102ed9190611616565b60405180910390f35b610310600480360381019061030b91906116b3565b610a32565b005b61032c600480360381019061032791906116b3565b610ab6565b005b610348600480360381019061034391906116b3565b610b59565b60405161035591906115ee565b60405180910390f35b60606005805461036d90611771565b80601f016020809104026020016040519081016040528092919081815260200182805461039990611771565b80156103e45780601f106103bb576101008083540402835291602001916103e4565b820191905f5260205f20905b8154815290600101906020018083116103c757829003601f168201915b5050505050905090565b5f6103f7610bab565b60035f8273ffffffffffffffffffffffffffffffffffffffff1673ffffffffffffffffffffffffffffffffffffffff1681526020019081526020015f205f9054906101000a900460ff1615610481576040517f08c379a0000000000000000000000000000000000000000000000000000000008152600401610478906117eb565b60405180910390fd5b8360035f8273ffffffffffffffffffffffffffffffffffffffff1673ffffffffffffffffffffffffffffffffffffffff1681526020019081526020015f205f9054906101000a900460ff161561050c576040517f08c379a0000000000000000000000000000000000000000000000000000000008152600401610503906117eb565b60405180910390fd5b61051e610517610bab565b8686610bb2565b60019250505092915050565b5f600454905090565b5f8360035f8273ffffffffffffffffffffffffffffffffffffffff1673ffffffffffffffffffffffffffffffffffffffff1681526020019081526020015f205f9054906101000a900460ff16156105bf576040517f08c379a00000000000000000000000000000000000000000000000000000000081526004016105b6906117eb565b60405180910390fd5b8360035f8273ffffffffffffffffffffffffffffffffffffffff1673ffffffffffffffffffffffffffffffffffffffff1681526020019081526020015f205f9054906101000a900460ff161561064a576040517f08c379a0000000000000000000000000000000000000000000000000000000008152600401610641906117eb565b60405180910390fd5b61065c86610656610bab565b86610d76565b610667868686610e02565b6001925050509392505050565b5f60075f9054906101000a900460ff16905090565b610691610fcb565b610699611052565b565b5f5f60149054906101000a900460ff16905090565b5f60015f8373ffffffffffffffffffffffffffffffffffffffff1673ffffffffffffffffffffffffffffffffffffffff1681526020019081526020015f20549050919050565b6106fe610fcb565b6107075f6110b3565b565b610711610fcb565b5f60035f8373ffffffffffffffffffffffffffffffffffffffff1673ffffffffffffffffffffffffffffffffffffffff1681526020019081526020015f205f6101000a81548160ff0219169083151502179055508073ffffffffffffffffffffffffffffffffffffffff167f7534c63860313c46c473e4e98328f37017e9674e2162faf1a3ad7a96236c3b7b60405160405180910390a250565b6107b3610fcb565b6107bb611174565b565b5f5f5f9054906101000a900473ffffffffffffffffffffffffffffffffffffffff16905090565b6060600680546107f390611771565b80601f016020809104026020016040519081016040528092919081815260200182805461081f90611771565b801561086a5780601f106108415761010080835404028352916020019161086a565b820191905f5260205f20905b81548152906001019060200180831161084d57829003601f168201915b5050505050905090565b5f61087d610bab565b60035f8273ffffffffffffffffffffffffffffffffffffffff1673ffffffffffffffffffffffffffffffffffffffff1681526020019081526020015f205f9054906101000a900460ff1615610907576040517f08c379a00000000000000000000000000000000000000000000000000000000081526004016108fe906117eb565b60405180910390fd5b8360035f8273ffffffffffffffffffffffffffffffffffffffff1673ffffffffffffffffffffffffffffffffffffffff1681526020019081526020015f205f9054906101000a900460ff1615610992576040517f08c379a0000000000000000000000000000000000000000000000000000000008152600401610989906117eb565b60405180910390fd5b6109a461099d610bab565b8686610e02565b60019250505092915050565b5f60025f8473ffffffffffffffffffffffffffffffffffffffff1673ffffffffffffffffffffffffffffffffffffffff1681526020019081526020015f205f8373ffffffffffffffffffffffffffffffffffffffff1673ffffffffffffffffffffffffffffffffffffffff1681526020019081526020015f2054905092915050565b610a3a610fcb565b5f73ffffffffffffffffffffffffffffffffffffffff168173ffffffffffffffffffffffffffffffffffffffff1603610aaa575f6040517f1e4fbdf7000000000000000000000000000000000000000000000000000000008152600401610aa191906116ed565b60405180910390fd5b610ab3816110b3565b50565b610abe610fcb565b600160035f8373ffffffffffffffffffffffffffffffffffffffff1673ffffffffffffffffffffffffffffffffffffffff1681526020019081526020015f205f6101000a81548160ff0219169083151502179055508073ffffffffffffffffffffffffffffffffffffffff167fffa4e6181777692565cf28528fc88fd1516ea86b56da075235fa575af6a4b85560405160405180910390a250565b5f60035f8373ffffffffffffffffffffffffffffffffffffffff1673ffffffffffffffffffffffffffffffffffffffff1681526020019081526020015f205f9054906101000a900460ff169050919050565b5f33905090565b60035f8473ffffffffffffffffffffffffffffffffffffffff1673ffffffffffffffffffffffffffffffffffffffff1681526020019081526020015f205f9054906101000a900460ff16158015610c50575060035f8373ffffffffffffffffffffffffffffffffffffffff1673ffffffffffffffffffffffffffffffffffffffff1681526020019081526020015f205f9054906101000a900460ff16155b610c8f576040517f08c379a0000000000000000000000000000000000000000000000000000000008152600401610c8690611853565b60405180910390fd5b8060025f8573ffffffffffffffffffffffffffffffffffffffff1673ffffffffffffffffffffffffffffffffffffffff1681526020019081526020015f205f8473ffffffffffffffffffffffffffffffffffffffff1673ffffffffffffffffffffffffffffffffffffffff1681526020019081526020015f20819055508173ffffffffffffffffffffffffffffffffffffffff168373ffffffffffffffffffffffffffffffffffffffff167f8c5be1e5ebec7d5bd14f71427d1e84f3dd0314c0f7b2291e5b200ac8c7c3b92583604051610d699190611616565b60405180910390a3505050565b5f610d8184846109b0565b90507fffffffffffffffffffffffffffffffffffffffffffffffffffffffffffffffff811015610dfc5781811015610dee576040517f08c379a0000000000000000000000000000000000000000000000000000000008152600401610de5906118bb565b60405180910390fd5b610dfb8484848403610bb2565b5b50505050565b60035f8473ffffffffffffffffffffffffffffffffffffffff1673ffffffffffffffffffffffffffffffffffffffff1681526020019081526020015f205f9054906101000a900460ff16158015610ea0575060035f8373ffffffffffffffffffffffffffffffffffffffff1673ffffffffffffffffffffffffffffffffffffffff1681526020019081526020015f205f9054906101000a900460ff16155b610edf576040517f08c379a0000000000000000000000000000000000000000000000000000000008152600401610ed690611853565b60405180910390fd5b5f73ffffffffffffffffffffffffffffffffffffffff168373ffffffffffffffffffffffffffffffffffffffff1603610f4d576040517f08c379a0000000000000000000000000000000000000000000000000000000008152600401610f4490611923565b60405180910390fd5b5f73ffffffffffffffffffffffffffffffffffffffff168273ffffffffffffffffffffffffffffffffffffffff1603610fbb576040517f08c379a0000000000000000000000000000000000000000000000000000000008152600401610fb29061198b565b60405180910390fd5b610fc68383836111d6565b505050565b610fd3610bab565b73ffffffffffffffffffffffffffffffffffffffff16610ff16107bd565b73ffffffffffffffffffffffffffffffffffffffff161461105057611014610bab565b6040517f118cdaa700000000000000000000000000000000000000000000000000000000815260040161104791906116ed565b60405180910390fd5b565b61105a6113f4565b5f5f60146101000a81548160ff0219169083151502179055507f5db9ee0a495bf2e6ff9c91a7834c1ba4fdd244a5e8aa4e537bd38aeae4b073aa61109c610bab565b6040516110a991906116ed565b60405180910390a1565b5f5f5f9054906101000a900473ffffffffffffffffffffffffffffffffffffffff169050815f5f6101000a81548173ffffffffffffffffffffffffffffffffffffffff021916908373ffffffffffffffffffffffffffffffffffffffff1602179055508173ffffffffffffffffffffffffffffffffffffffff168173ffffffffffffffffffffffffffffffffffffffff167f8be0079c531659141344cd1fd0a4f28419497f9722a3daafe3b4186f6b6457e060405160405180910390a35050565b61117c611434565b60015f60146101000a81548160ff0219169083151502179055507f62e78cea01bee320cd4e420270b5ea74000d11b0c9f74754ebdbfc544b05a2586111bf610bab565b6040516111cc91906116ed565b60405180910390a1565b6111de611434565b5f73ffffffffffffffffffffffffffffffffffffffff168373ffffffffffffffffffffffffffffffffffffffff160361122e578060045f82825461122291906119d6565b925050819055506112f8565b5f60015f8573ffffffffffffffffffffffffffffffffffffffff1673ffffffffffffffffffffffffffffffffffffffff1681526020019081526020015f20549050818110156112b2576040517f08c379a00000000000000000000000000000000000000000000000000000000081526004016112a990611a53565b60405180910390fd5b81810360015f8673ffffffffffffffffffffffffffffffffffffffff1673ffffffffffffffffffffffffffffffffffffffff1681526020019081526020015f2081905550505b5f73ffffffffffffffffffffffffffffffffffffffff168273ffffffffffffffffffffffffffffffffffffffff160361133f578060045f828254039250508190555061138a565b8060015f8473ffffffffffffffffffffffffffffffffffffffff1673ffffffffffffffffffffffffffffffffffffffff1681526020019081526020015f205f82825401925050819055505b8173ffffffffffffffffffffffffffffffffffffffff168373ffffffffffffffffffffffffffffffffffffffff167fddf252ad1be2c89b69c2b068fc378daa952ba7f163c4a11628f55a4df523b3ef836040516113e79190611616565b60405180910390a3505050565b6113fc61069b565b611432576040517f8dfc202b00000000000000000000000000000000000000000000000000000000815260040160405180910390fd5b565b61143c61069b565b15611473576040517fd93c066500000000000000000000000000000000000000000000000000000000815260040160405180910390fd5b565b5f81519050919050565b5f82825260208201905092915050565b8281835e5f83830152505050565b5f601f19601f8301169050919050565b5f6114b782611475565b6114c1818561147f565b93506114d181856020860161148f565b6114da8161149d565b840191505092915050565b5f6020820190508181035f8301526114fd81846114ad565b905092915050565b5f5ffd5b5f73ffffffffffffffffffffffffffffffffffffffff82169050919050565b5f61153282611509565b9050919050565b61154281611528565b811461154c575f5ffd5b50565b5f8135905061155d81611539565b92915050565b5f819050919050565b61157581611563565b811461157f575f5ffd5b50565b5f813590506115908161156c565b92915050565b5f5f604083850312156115ac576115ab611505565b5b5f6115b98582860161154f565b92505060206115ca85828601611582565b9150509250929050565b5f8115159050919050565b6115e8816115d4565b82525050565b5f6020820190506116015f8301846115df565b92915050565b61161081611563565b82525050565b5f6020820190506116295f830184611607565b92915050565b5f5f5f6060848603121561164657611645611505565b5b5f6116538682870161154f565b93505060206116648682870161154f565b925050604061167586828701611582565b9150509250925092565b5f60ff82169050919050565b6116948161167f565b82525050565b5f6020820190506116ad5f83018461168b565b92915050565b5f602082840312156116c8576116c7611505565b5b5f6116d58482850161154f565b91505092915050565b6116e781611528565b82525050565b5f6020820190506117005f8301846116de565b92915050565b5f5f6040838503121561171c5761171b611505565b5b5f6117298582860161154f565b925050602061173a8582860161154f565b9150509250929050565b7f4e487b71000000000000000000000000000000000000000000000000000000005f52602260045260245ffd5b5f600282049050600182168061178857607f821691505b60208210810361179b5761179a611744565b5b50919050565b7f4164647265737320697320626c61636b6c6973746564000000000000000000005f82015250565b5f6117d560168361147f565b91506117e0826117a1565b602082019050919050565b5f6020820190508181035f830152611802816117c9565b9050919050565b7f426c61636b6c69737465642061646472657373000000000000000000000000005f82015250565b5f61183d60138361147f565b915061184882611809565b602082019050919050565b5f6020820190508181035f83015261186a81611831565b9050919050565b7f496e73756666696369656e7420616c6c6f77616e6365000000000000000000005f82015250565b5f6118a560168361147f565b91506118b082611871565b602082019050919050565b5f6020820190508181035f8301526118d281611899565b9050919050565b7f496e76616c69642073656e6465720000000000000000000000000000000000005f82015250565b5f61190d600e8361147f565b9150611918826118d9565b602082019050919050565b5f6020820190508181035f83015261193a81611901565b9050919050565b7f496e76616c6964207265636569766572000000000000000000000000000000005f82015250565b5f61197560108361147f565b915061198082611941565b602082019050919050565b5f6020820190508181035f8301526119a281611969565b9050919050565b7f4e487b71000000000000000000000000000000000000000000000000000000005f52601160045260245ffd5b5f6119e082611563565b91506119eb83611563565b9250828201905080821115611a0357611a026119a9565b5b92915050565b7f496e73756666696369656e742062616c616e63650000000000000000000000005f82015250565b5f611a3d60148361147f565b9150611a4882611a09565b602082019050919050565b5f6020820190508181035f830152611a6a81611a31565b905091905056fea2646970667358221220fa9cb764a720b96b4610f17327fe3375474492c606efd91d92748f901ae4daa164736f6c634300081c0033","linkReferences":{}},"methodIdentifiers":{"allowance(address,address)":"dd62ed3e","approve(address,uint256)":"095ea7b3","balanceOf(address)":"70a08231","blacklist(address)":"f9f92be4","decimals()":"313ce567","isBlacklisted(address)":"fe575a87","name()":"06fdde03","owner()":"8da5cb5b","pause()":"8456cb59","paused()":"5c975abb","renounceOwnership()":"715018a6","symbol()":"95d89b41","totalSupply()":"18160ddd","transfer(address,uint256)":"a9059cbb","transferFrom(address,address,uint256)":"23b872dd","transferOwnership(address)":"f2fde38b","unblacklist(address)":"75e3661e","unpause()":"3f4ba83a"},"id":23}