{
    "abi": [
        {
            "inputs": [
                {
                    "internalType": "string",
                    "name": "name_",
                    "type": "string"
                },
                {
                    "internalType": "string",
                    "name": "symbol_",
                    "type": "string"
                },
                {
                    "internalType": "uint8",
                    "name": "decimals_",
                    "type": "uint8"
                },
                {
                    "internalType": "uint256",
                    "name": "totalSupply_",
                    "type": "uint256"
                },
                {
                    "internalType": "address",
                    "name": "serviceFeeReceiver_",
                    "type": "address"
                },
                {
                    "internalType": "uint256",
                    "name": "serviceFee_",
                    "type": "uint256"
                }
            ],
            "stateMutability": "payable",
            "type": "constructor"
        },
        {
            "inputs": [
                {
                    "internalType": "address",
                    "name": "spender",
                    "type": "address"
                },
                {
                    "internalType": "uint256",
                    "name": "allowance",
                    "type": "uint256"
                },
                {
                    "internalType": "uint256",
                    "name": "needed",
                    "type": "uint256"
                }
            ],
            "name": "ERC20InsufficientAllowance",
            "type": "error"
        },
        {
            "inputs": [
                {
                    "internalType": "address",
                    "name": "sender",
                    "type": "address"
                },
                {
                    "internalType": "uint256",
                    "name": "balance",
                    "type": "uint256"
                },
                {
                    "internalType": "uint256",
                    "name": "needed",
                    "type": "uint256"
                }
            ],
            "name": "ERC20InsufficientBalance",
            "type": "error"
        },
        {
            "inputs": [
                {
                    "internalType": "address",
                    "name": "approver",
                    "type": "address"
                }
            ],
            "name": "ERC20InvalidApprover",
            "type": "error"
        },
        {
            "inputs": [
                {
                    "internalType": "address",
                    "name": "receiver",
                    "type": "address"
                }
            ],
            "name": "ERC20InvalidReceiver",
            "type": "error"
        },
        {
            "inputs": [
                {
                    "internalType": "address",
                    "name": "sender",
                    "type": "address"
                }
            ],
            "name": "ERC20InvalidSender",
            "type": "error"
        },
        {
            "inputs": [
                {
                    "internalType": "address",
                    "name": "spender",
                    "type": "address"
                }
            ],
            "name": "ERC20InvalidSpender",
            "type": "error"
        },
        {
            "inputs": [],
            "name": "EnforcedPause",
            "type": "error"
        },
        {
            "inputs": [],
            "name": "ExpectedPause",
            "type": "error"
        },
        {
            "inputs": [
                {
                    "internalType": "address",
                    "name": "owner",
                    "type": "address"
                }
            ],
            "name": "OwnableInvalidOwner",
            "type": "error"
        },
        {
            "inputs": [
                {
                    "internalType": "address",
                    "name": "account",
                    "type": "address"
                }
            ],
            "name": "OwnableUnauthorizedAccount",
            "type": "error"
        },
        {
            "anonymous": false,
            "inputs": [
                {
                    "indexed": true,
                    "internalType": "address",
                    "name": "owner",
                    "type": "address"
                },
                {
                    "indexed": true,
                    "internalType": "address",
                    "name": "spender",
                    "type": "address"
                },
                {
                    "indexed": false,
                    "internalType": "uint256",
                    "name": "value",
                    "type": "uint256"
                }
            ],
            "name": "Approval",
            "type": "event"
        },
        {
            "anonymous": false,
            "inputs": [
                {
                    "indexed": true,
                    "internalType": "address",
                    "name": "previousOwner",
                    "type": "address"
                },
                {
                    "indexed": true,
                    "internalType": "address",
                    "name": "newOwner",
                    "type": "address"
                }
            ],
            "name": "OwnershipTransferred",
            "type": "event"
        },
        {
            "anonymous": false,
            "inputs": [
                {
                    "indexed": false,
                    "internalType": "address",
                    "name": "account",
                    "type": "address"
                }
            ],
            "name": "Paused",
            "type": "event"
        },
        {
            "anonymous": false,
            "inputs": [
                {
                    "indexed": true,
                    "internalType": "address",
                    "name": "from",
                    "type": "address"
                },
                {
                    "indexed": true,
                    "internalType": "address",
                    "name": "to",
                    "type": "address"
                },
                {
                    "indexed": false,
                    "internalType": "uint256",
                    "name": "value",
                    "type": "uint256"
                }
            ],
            "name": "Transfer",
            "type": "event"
        },
        {
            "anonymous": false,
            "inputs": [
                {
                    "indexed": false,
                    "internalType": "address",
                    "name": "account",
                    "type": "address"
                }
            ],
            "name": "Unpaused",
            "type": "event"
        },
        {
            "inputs": [
                {
                    "internalType": "address",
                    "name": "owner",
                    "type": "address"
                },
                {
                    "internalType": "address",
                    "name": "spender",
                    "type": "address"
                }
            ],
            "name": "allowance",
            "outputs": [
                {
                    "internalType": "uint256",
                    "name": "",
                    "type": "uint256"
                }
            ],
            "stateMutability": "view",
            "type": "function"
        },
        {
            "inputs": [
                {
                    "internalType": "address",
                    "name": "spender",
                    "type": "address"
                },
                {
                    "internalType": "uint256",
                    "name": "value",
                    "type": "uint256"
                }
            ],
            "name": "approve",
            "outputs": [
                {
                    "internalType": "bool",
                    "name": "",
                    "type": "bool"
                }
            ],
            "stateMutability": "nonpayable",
            "type": "function"
        },
        {
            "inputs": [
                {
                    "internalType": "address",
                    "name": "account",
                    "type": "address"
                }
            ],
            "name": "balanceOf",
            "outputs": [
                {
                    "internalType": "uint256",
                    "name": "",
                    "type": "uint256"
                }
            ],
            "stateMutability": "view",
            "type": "function"
        },
        {
            "inputs": [],
            "name": "decimals",
            "outputs": [
                {
                    "internalType": "uint8",
                    "name": "",
                    "type": "uint8"
                }
            ],
            "stateMutability": "view",
            "type": "function"
        },
        {
            "inputs": [],
            "name": "name",
            "outputs": [
                {
                    "internalType": "string",
                    "name": "",
                    "type": "string"
                }
            ],
            "stateMutability": "view",
            "type": "function"
        },
        {
            "inputs": [],
            "name": "owner",
            "outputs": [
                {
                    "internalType": "address",
                    "name": "",
                    "type": "address"
                }
            ],
            "stateMutability": "view",
            "type": "function"
        },
        {
            "inputs": [],
            "name": "pause",
            "outputs": [],
            "stateMutability": "nonpayable",
            "type": "function"
        },
        {
            "inputs": [],
            "name": "paused",
            "outputs": [
                {
                    "internalType": "bool",
                    "name": "",
                    "type": "bool"
                }
            ],
            "stateMutability": "view",
            "type": "function"
        },
        {
            "inputs": [],
            "name": "renounceOwnership",
            "outputs": [],
            "stateMutability": "nonpayable",
            "type": "function"
        },
        {
            "inputs": [],
            "name": "symbol",
            "outputs": [
                {
                    "internalType": "string",
                    "name": "",
                    "type": "string"
                }
            ],
            "stateMutability": "view",
            "type": "function"
        },
        {
            "inputs": [],
            "name": "totalSupply",
            "outputs": [
                {
                    "internalType": "uint256",
                    "name": "",
                    "type": "uint256"
                }
            ],
            "stateMutability": "view",
            "type": "function"
        },
        {
            "inputs": [
                {
                    "internalType": "address",
                    "name": "to",
                    "type": "address"
                },
                {
                    "internalType": "uint256",
                    "name": "value",
                    "type": "uint256"
                }
            ],
            "name": "transfer",
            "outputs": [
                {
                    "internalType": "bool",
                    "name": "",
                    "type": "bool"
                }
            ],
            "stateMutability": "nonpayable",
            "type": "function"
        },
        {
            "inputs": [
                {
                    "internalType": "address",
                    "name": "from",
                    "type": "address"
                },
                {
                    "internalType": "address",
                    "name": "to",
                    "type": "address"
                },
                {
                    "internalType": "uint256",
                    "name": "value",
                    "type": "uint256"
                }
            ],
            "name": "transferFrom",
            "outputs": [
                {
                    "internalType": "bool",
                    "name": "",
                    "type": "bool"
                }
            ],
            "stateMutability": "nonpayable",
            "type": "function"
        },
        {
            "inputs": [
                {
                    "internalType": "address",
                    "name": "newOwner",
                    "type": "address"
                }
            ],
            "name": "transferOwnership",
            "outputs": [],
            "stateMutability": "nonpayable",
            "type": "function"
        },
        {
            "inputs": [],
            "name": "unpause",
            "outputs": [],
            "stateMutability": "nonpayable",
            "type": "function"
        }
    ],
    "bytecode": {
        "object": "0x608060405260405161114138038061114183398101604081905261002291610490565b338061004857604051631e4fbdf760e01b81525f60048201526024015b60405180910390fd5b6100518161020c565b505f805460ff60a01b19169055600461006a87826105c4565b50600561007786826105c4565b506006805460ff191660ff8616179055348111156100d75760405162461bcd60e51b815260206004820152601c60248201527f496e73756666696369656e742066656520616d6f756e742073656e7400000000604482015260640161003f565b6001600160a01b03821661012d5760405162461bcd60e51b815260206004820152601c60248201527f496e76616c696420666565207265636569766572206164647265737300000000604482015260640161003f565b5f826001600160a01b0316826040515f6040518083038185875af1925050503d805f8114610176576040519150601f19603f3d011682016040523d82523d5f602084013e61017b565b606091505b50509050806101cc5760405162461bcd60e51b815260206004820152601360248201527f466565207472616e73666572206661696c656400000000000000000000000000604482015260640161003f565b6102006101e05f546001600160a01b031690565b60065460ff166101f190600a610777565b6101fb908761078c565b61025b565b505050505050506107b6565b5f80546001600160a01b038381166001600160a01b0319831681178455604051919092169283917f8be0079c531659141344cd1fd0a4f28419497f9722a3daafe3b4186f6b6457e09190a35050565b6001600160a01b0382166102845760405163ec442f0560e01b81525f600482015260240161003f565b61028f5f8383610293565b5050565b61029b6103c1565b6001600160a01b0383166102c5578060035f8282546102ba91906107a3565b909155506103359050565b6001600160a01b0383165f90815260016020526040902054818110156103175760405163391434e360e21b81526001600160a01b0385166004820152602481018290526044810183905260640161003f565b6001600160a01b0384165f9081526001602052604090209082900390555b6001600160a01b0382166103515760038054829003905561036f565b6001600160a01b0382165f9081526001602052604090208054820190555b816001600160a01b0316836001600160a01b03167fddf252ad1be2c89b69c2b068fc378daa952ba7f163c4a11628f55a4df523b3ef836040516103b491815260200190565b60405180910390a3505050565b6103d35f54600160a01b900460ff1690565b156103f15760405163d93c066560e01b815260040160405180910390fd5b565b634e487b7160e01b5f52604160045260245ffd5b5f82601f830112610416575f80fd5b81516001600160401b0381111561042f5761042f6103f3565b604051601f8201601f19908116603f011681016001600160401b038111828210171561045d5761045d6103f3565b604052818152838201602001851015610474575f80fd5b8160208501602083015e5f918101602001919091529392505050565b5f805f805f8060c087890312156104a5575f80fd5b86516001600160401b038111156104ba575f80fd5b6104c689828a01610407565b602089015190975090506001600160401b038111156104e3575f80fd5b6104ef89828a01610407565b955050604087015160ff81168114610505575f80fd5b6060880151608089015191955093506001600160a01b0381168114610528575f80fd5b60a09790970151959894975092959194919391925050565b600181811c9082168061055457607f821691505b60208210810361057257634e487b7160e01b5f52602260045260245ffd5b50919050565b601f8211156105bf57805f5260205f20601f840160051c8101602085101561059d5750805b601f840160051c820191505b818110156105bc575f81556001016105a9565b50505b505050565b81516001600160401b038111156105dd576105dd6103f3565b6105f1816105eb8454610540565b84610578565b6020601f821160018114610623575f831561060c5750848201515b5f19600385901b1c1916600184901b1784556105bc565b5f84815260208120601f198516915b828110156106525787850151825560209485019460019092019101610632565b508482101561066f57868401515f19600387901b60f8161c191681555b50505050600190811b01905550565b634e487b7160e01b5f52601160045260245ffd5b6001815b60018411156106cd578085048111156106b1576106b161067e565b60018416156106bf57908102905b60019390931c928002610696565b935093915050565b5f826106e357506001610771565b816106ef57505f610771565b8160018114610705576002811461070f5761072b565b6001915050610771565b60ff8411156107205761072061067e565b50506001821b610771565b5060208310610133831016604e8410600b841016171561074e575081810a610771565b61075a5f198484610692565b805f190482111561076d5761076d61067e565b0290505b92915050565b5f61078560ff8416836106d5565b9392505050565b80820281158282048414176107715761077161067e565b808201808211156107715761077161067e565b61097e806107c35f395ff3fe608060405234801561000f575f80fd5b50600436106100f0575f3560e01c806370a082311161009357806395d89b411161006357806395d89b41146101dc578063a9059cbb146101e4578063dd62ed3e146101f7578063f2fde38b1461022f575f80fd5b806370a082311461018a578063715018a6146101b25780638456cb59146101ba5780638da5cb5b146101c2575f80fd5b806323b872dd116100ce57806323b872dd14610147578063313ce5671461015a5780633f4ba83a1461016f5780635c975abb14610179575f80fd5b806306fdde03146100f4578063095ea7b31461011257806318160ddd14610135575b5f80fd5b6100fc610242565b60405161010991906107ee565b60405180910390f35b61012561012036600461083e565b6102d2565b6040519015158152602001610109565b6003545b604051908152602001610109565b610125610155366004610866565b6102eb565b60065460405160ff9091168152602001610109565b61017761030e565b005b5f54600160a01b900460ff16610125565b6101396101983660046108a0565b6001600160a01b03165f9081526001602052604090205490565b610177610320565b610177610331565b5f546040516001600160a01b039091168152602001610109565b6100fc610341565b6101256101f236600461083e565b610350565b6101396102053660046108c0565b6001600160a01b039182165f90815260026020908152604080832093909416825291909152205490565b61017761023d3660046108a0565b61035d565b606060048054610251906108f1565b80601f016020809104026020016040519081016040528092919081815260200182805461027d906108f1565b80156102c85780601f1061029f576101008083540402835291602001916102c8565b820191905f5260205f20905b8154815290600101906020018083116102ab57829003601f168201915b5050505050905090565b5f336102df81858561039f565b60019150505b92915050565b5f336102f88582856103b1565b61030385858561042d565b506001949350505050565b61031661048a565b61031e6104b6565b565b61032861048a565b61031e5f61050a565b61033961048a565b61031e610559565b606060058054610251906108f1565b5f336102df81858561042d565b61036561048a565b6001600160a01b03811661039357604051631e4fbdf760e01b81525f60048201526024015b60405180910390fd5b61039c8161050a565b50565b6103ac838383600161059b565b505050565b6001600160a01b038381165f908152600260209081526040808320938616835292905220545f19811015610427578181101561041957604051637dc7a0d960e11b81526001600160a01b0384166004820152602481018290526044810183905260640161038a565b61042784848484035f61059b565b50505050565b6001600160a01b03831661045657604051634b637e8f60e11b81525f600482015260240161038a565b6001600160a01b03821661047f5760405163ec442f0560e01b81525f600482015260240161038a565b6103ac83838361066d565b5f546001600160a01b0316331461031e5760405163118cdaa760e01b815233600482015260240161038a565b6104be61079b565b5f805460ff60a01b191690557f5db9ee0a495bf2e6ff9c91a7834c1ba4fdd244a5e8aa4e537bd38aeae4b073aa335b6040516001600160a01b03909116815260200160405180910390a1565b5f80546001600160a01b038381166001600160a01b0319831681178455604051919092169283917f8be0079c531659141344cd1fd0a4f28419497f9722a3daafe3b4186f6b6457e09190a35050565b6105616107c4565b5f805460ff60a01b1916600160a01b1790557f62e78cea01bee320cd4e420270b5ea74000d11b0c9f74754ebdbfc544b05a2586104ed3390565b6001600160a01b0384166105c45760405163e602df0560e01b81525f600482015260240161038a565b6001600160a01b0383166105ed57604051634a1406b160e11b81525f600482015260240161038a565b6001600160a01b038085165f908152600260209081526040808320938716835292905220829055801561042757826001600160a01b0316846001600160a01b03167f8c5be1e5ebec7d5bd14f71427d1e84f3dd0314c0f7b2291e5b200ac8c7c3b9258460405161065f91815260200190565b60405180910390a350505050565b6106756107c4565b6001600160a01b03831661069f578060035f8282546106949190610929565b9091555061070f9050565b6001600160a01b0383165f90815260016020526040902054818110156106f15760405163391434e360e21b81526001600160a01b0385166004820152602481018290526044810183905260640161038a565b6001600160a01b0384165f9081526001602052604090209082900390555b6001600160a01b03821661072b57600380548290039055610749565b6001600160a01b0382165f9081526001602052604090208054820190555b816001600160a01b0316836001600160a01b03167fddf252ad1be2c89b69c2b068fc378daa952ba7f163c4a11628f55a4df523b3ef8360405161078e91815260200190565b60405180910390a3505050565b5f54600160a01b900460ff1661031e57604051638dfc202b60e01b815260040160405180910390fd5b5f54600160a01b900460ff161561031e5760405163d93c066560e01b815260040160405180910390fd5b602081525f82518060208401528060208501604085015e5f604082850101526040601f19601f83011684010191505092915050565b80356001600160a01b0381168114610839575f80fd5b919050565b5f806040838503121561084f575f80fd5b61085883610823565b946020939093013593505050565b5f805f60608486031215610878575f80fd5b61088184610823565b925061088f60208501610823565b929592945050506040919091013590565b5f602082840312156108b0575f80fd5b6108b982610823565b9392505050565b5f80604083850312156108d1575f80fd5b6108da83610823565b91506108e860208401610823565b90509250929050565b600181811c9082168061090557607f821691505b60208210810361092357634e487b7160e01b5f52602260045260245ffd5b50919050565b808201808211156102e557634e487b7160e01b5f52601160045260245ffdfea264697066735822122070fcc9d01e748e89b0ad07b5ad9e99caa79a2cb69ca4ddb42fd2e6da0033370b64736f6c634300081a0033",
        "linkReferences": {}
    },
    "deployedBytecode": {
        "object": "0x608060405234801561001057600080fd5b50600436106100f55760003560e01c806370a082311161009757806395d89b411161006657806395d89b41146101e5578063a9059cbb146101ed578063dd62ed3e14610200578063f2fde38b1461023957600080fd5b806370a0823114610191578063715018a6146101ba5780638456cb59146101c25780638da5cb5b146101ca57600080fd5b806323b872dd116100d357806323b872dd1461014d578063313ce567146101605780633f4ba83a146101755780635c975abb1461017f57600080fd5b806306fdde03146100fa578063095ea7b31461011857806318160ddd1461013b575b600080fd5b61010261024c565b60405161010f9190610811565b60405180910390f35b61012b61012636600461087c565b6102de565b604051901515815260200161010f565b6003545b60405190815260200161010f565b61012b61015b3660046108a6565b6102f8565b60065460405160ff909116815260200161010f565b61017d61031c565b005b600054600160a01b900460ff1661012b565b61013f61019f3660046108e2565b6001600160a01b031660009081526001602052604090205490565b61017d61032e565b61017d610340565b6000546040516001600160a01b03909116815260200161010f565b610102610350565b61012b6101fb36600461087c565b61035f565b61013f61020e366004610904565b6001600160a01b03918216600090815260026020908152604080832093909416825291909152205490565b61017d6102473660046108e2565b61036d565b60606004805461025b90610937565b80601f016020809104026020016040519081016040528092919081815260200182805461028790610937565b80156102d45780601f106102a9576101008083540402835291602001916102d4565b820191906000526020600020905b8154815290600101906020018083116102b757829003601f168201915b5050505050905090565b6000336102ec8185856103b0565b60019150505b92915050565b6000336103068582856103c2565b610311858585610441565b506001949350505050565b6103246104a0565b61032c6104cd565b565b6103366104a0565b61032c6000610522565b6103486104a0565b61032c610572565b60606005805461025b90610937565b6000336102ec818585610441565b6103756104a0565b6001600160a01b0381166103a457604051631e4fbdf760e01b8152600060048201526024015b60405180910390fd5b6103ad81610522565b50565b6103bd83838360016105b5565b505050565b6001600160a01b0383811660009081526002602090815260408083209386168352929052205460001981101561043b578181101561042c57604051637dc7a0d960e11b81526001600160a01b0384166004820152602481018290526044810183905260640161039b565b61043b848484840360006105b5565b50505050565b6001600160a01b03831661046b57604051634b637e8f60e11b81526000600482015260240161039b565b6001600160a01b0382166104955760405163ec442f0560e01b81526000600482015260240161039b565b6103bd83838361068a565b6000546001600160a01b0316331461032c5760405163118cdaa760e01b815233600482015260240161039b565b6104d56107bc565b6000805460ff60a01b191690557f5db9ee0a495bf2e6ff9c91a7834c1ba4fdd244a5e8aa4e537bd38aeae4b073aa335b6040516001600160a01b03909116815260200160405180910390a1565b600080546001600160a01b038381166001600160a01b0319831681178455604051919092169283917f8be0079c531659141344cd1fd0a4f28419497f9722a3daafe3b4186f6b6457e09190a35050565b61057a6107e6565b6000805460ff60a01b1916600160a01b1790557f62e78cea01bee320cd4e420270b5ea74000d11b0c9f74754ebdbfc544b05a2586105053390565b6001600160a01b0384166105df5760405163e602df0560e01b81526000600482015260240161039b565b6001600160a01b03831661060957604051634a1406b160e11b81526000600482015260240161039b565b6001600160a01b038085166000908152600260209081526040808320938716835292905220829055801561043b57826001600160a01b0316846001600160a01b03167f8c5be1e5ebec7d5bd14f71427d1e84f3dd0314c0f7b2291e5b200ac8c7c3b9258460405161067c91815260200190565b60405180910390a350505050565b6106926107e6565b6001600160a01b0383166106bd5780600360008282546106b29190610971565b9091555061072f9050565b6001600160a01b038316600090815260016020526040902054818110156107105760405163391434e360e21b81526001600160a01b0385166004820152602481018290526044810183905260640161039b565b6001600160a01b03841660009081526001602052604090209082900390555b6001600160a01b03821661074b5760038054829003905561076a565b6001600160a01b03821660009081526001602052604090208054820190555b816001600160a01b0316836001600160a01b03167fddf252ad1be2c89b69c2b068fc378daa952ba7f163c4a11628f55a4df523b3ef836040516107af91815260200190565b60405180910390a3505050565b600054600160a01b900460ff1661032c57604051638dfc202b60e01b815260040160405180910390fd5b600054600160a01b900460ff161561032c5760405163d93c066560e01b815260040160405180910390fd5b60006020808352835180602085015260005b8181101561083f57858101830151858201604001528201610823565b506000604082860101526040601f19601f8301168501019250505092915050565b80356001600160a01b038116811461087757600080fd5b919050565b6000806040838503121561088f57600080fd5b61089883610860565b946020939093013593505050565b6000806000606084860312156108bb57600080fd5b6108c484610860565b92506108d260208501610860565b9150604084013590509250925092565b6000602082840312156108f457600080fd5b6108fd82610860565b9392505050565b6000806040838503121561091757600080fd5b61092083610860565b915061092e60208401610860565b90509250929050565b600181811c9082168061094b57607f821691505b60208210810361096b57634e487b7160e01b600052602260045260246000fd5b50919050565b808201808211156102f257634e487b7160e01b600052601160045260246000fdfea2646970667358221220480cd4145a13f67bde37330a9801eb00923616ed9d0212065cfd38e31f847c9364736f6c63430008170033",
        "linkReferences": {}
    },
    "methodIdentifiers": {
        "allowance(address,address)": "dd62ed3e",
        "approve(address,uint256)": "095ea7b3",
        "balanceOf(address)": "70a08231",
        "decimals()": "313ce567",
        "name()": "06fdde03",
        "owner()": "8da5cb5b",
        "pause()": "8456cb59",
        "paused()": "5c975abb",
        "renounceOwnership()": "715018a6",
        "symbol()": "95d89b41",
        "totalSupply()": "18160ddd",
        "transfer(address,uint256)": "a9059cbb",
        "transferFrom(address,address,uint256)": "23b872dd",
        "transferOwnership(address)": "f2fde38b",
        "unpause()": "3f4ba83a"
    },
    "id": 23
}