{"abi":[{"type":"constructor","inputs":[{"name":"name_","type":"string","internalType":"string"},{"name":"symbol_","type":"string","internalType":"string"},{"name":"decimals_","type":"uint8","internalType":"uint8"},{"name":"totalSupply_","type":"uint256","internalType":"uint256"},{"name":"serviceFeeReceiver_","type":"address","internalType":"address"},{"name":"serviceFee_","type":"uint256","internalType":"uint256"}],"stateMutability":"payable"},{"type":"function","name":"allowance","inputs":[{"name":"owner","type":"address","internalType":"address"},{"name":"spender","type":"address","internalType":"address"}],"outputs":[{"name":"","type":"uint256","internalType":"uint256"}],"stateMutability":"view"},{"type":"function","name":"approve","inputs":[{"name":"spender","type":"address","internalType":"address"},{"name":"value","type":"uint256","internalType":"uint256"}],"outputs":[{"name":"","type":"bool","internalType":"bool"}],"stateMutability":"nonpayable"},{"type":"function","name":"balanceOf","inputs":[{"name":"account","type":"address","internalType":"address"}],"outputs":[{"name":"","type":"uint256","internalType":"uint256"}],"stateMutability":"view"},{"type":"function","name":"blacklist","inputs":[{"name":"account","type":"address","internalType":"address"}],"outputs":[],"stateMutability":"nonpayable"},{"type":"function","name":"decimals","inputs":[],"outputs":[{"name":"","type":"uint8","internalType":"uint8"}],"stateMutability":"view"},{"type":"function","name":"isBlacklisted","inputs":[{"name":"account","type":"address","internalType":"address"}],"outputs":[{"name":"","type":"bool","internalType":"bool"}],"stateMutability":"view"},{"type":"function","name":"mint","inputs":[{"name":"to","type":"address","internalType":"address"},{"name":"amount","type":"uint256","internalType":"uint256"}],"outputs":[],"stateMutability":"nonpayable"},{"type":"function","name":"name","inputs":[],"outputs":[{"name":"","type":"string","internalType":"string"}],"stateMutability":"view"},{"type":"function","name":"owner","inputs":[],"outputs":[{"name":"","type":"address","internalType":"address"}],"stateMutability":"view"},{"type":"function","name":"renounceOwnership","inputs":[],"outputs":[],"stateMutability":"nonpayable"},{"type":"function","name":"symbol","inputs":[],"outputs":[{"name":"","type":"string","internalType":"string"}],"stateMutability":"view"},{"type":"function","name":"totalSupply","inputs":[],"outputs":[{"name":"","type":"uint256","internalType":"uint256"}],"stateMutability":"view"},{"type":"function","name":"transfer","inputs":[{"name":"to","type":"address","internalType":"address"},{"name":"value","type":"uint256","internalType":"uint256"}],"outputs":[{"name":"","type":"bool","internalType":"bool"}],"stateMutability":"nonpayable"},{"type":"function","name":"transferFrom","inputs":[{"name":"from","type":"address","internalType":"address"},{"name":"to","type":"address","internalType":"address"},{"name":"value","type":"uint256","internalType":"uint256"}],"outputs":[{"name":"","type":"bool","internalType":"bool"}],"stateMutability":"nonpayable"},{"type":"function","name":"transferOwnership","inputs":[{"name":"newOwner","type":"address","internalType":"address"}],"outputs":[],"stateMutability":"nonpayable"},{"type":"function","name":"unblacklist","inputs":[{"name":"account","type":"address","internalType":"address"}],"outputs":[],"stateMutability":"nonpayable"},{"type":"event","name":"Approval","inputs":[{"name":"owner","type":"address","indexed":true,"internalType":"address"},{"name":"spender","type":"address","indexed":true,"internalType":"address"},{"name":"value","type":"uint256","indexed":false,"internalType":"uint256"}],"anonymous":false},{"type":"event","name":"Blacklisted","inputs":[{"name":"account","type":"address","indexed":true,"internalType":"address"}],"anonymous":false},{"type":"event","name":"OwnershipTransferred","inputs":[{"name":"previousOwner","type":"address","indexed":true,"internalType":"address"},{"name":"newOwner","type":"address","indexed":true,"internalType":"address"}],"anonymous":false},{"type":"event","name":"Transfer","inputs":[{"name":"from","type":"address","indexed":true,"internalType":"address"},{"name":"to","type":"address","indexed":true,"internalType":"address"},{"name":"value","type":"uint256","indexed":false,"internalType":"uint256"}],"anonymous":false},{"type":"event","name":"Unblacklisted","inputs":[{"name":"account","type":"address","indexed":true,"internalType":"address"}],"anonymous":false},{"type":"error","name":"OwnableInvalidOwner","inputs":[{"name":"owner","type":"address","internalType":"address"}]},{"type":"error","name":"OwnableUnauthorizedAccount","inputs":[{"name":"account","type":"address","internalType":"address"}]}],"bytecode":{"object":"0x608060405260405162002c9a38038062002c9a8339818101604052810190620000299190620008a2565b335f73ffffffffffffffffffffffffffffffffffffffff168173ffffffffffffffffffffffffffffffffffffffff16036200009d575f6040517f1e4fbdf700000000000000000000000000000000000000000000000000000000815260040162000094919062000989565b60405180910390fd5b620000ae816200029c60201b60201c565b508560059081620000c0919062000bd2565b508460069081620000d2919062000bd2565b508360075f6101000a81548160ff021916908360ff1602179055508034101562000133576040517f08c379a00000000000000000000000000000000000000000000000000000000081526004016200012a9062000d14565b60405180910390fd5b5f73ffffffffffffffffffffffffffffffffffffffff168273ffffffffffffffffffffffffffffffffffffffff1603620001a4576040517f08c379a00000000000000000000000000000000000000000000000000000000081526004016200019b9062000d82565b60405180910390fd5b5f8273ffffffffffffffffffffffffffffffffffffffff1682604051620001cb9062000dd3565b5f6040518083038185875af1925050503d805f811462000207576040519150601f19603f3d011682016040523d82523d5f602084013e6200020c565b606091505b505090508062000253576040517f08c379a00000000000000000000000000000000000000000000000000000000081526004016200024a9062000e37565b60405180910390fd5b6200028f620002676200035d60201b60201c565b86600a62000276919062000fd4565b8662000283919062001024565b6200038460201b60201c565b50505050505050620011d6565b5f805f9054906101000a900473ffffffffffffffffffffffffffffffffffffffff169050815f806101000a81548173ffffffffffffffffffffffffffffffffffffffff021916908373ffffffffffffffffffffffffffffffffffffffff1602179055508173ffffffffffffffffffffffffffffffffffffffff168173ffffffffffffffffffffffffffffffffffffffff167f8be0079c531659141344cd1fd0a4f28419497f9722a3daafe3b4186f6b6457e060405160405180910390a35050565b5f805f9054906101000a900473ffffffffffffffffffffffffffffffffffffffff16905090565b60035f8373ffffffffffffffffffffffffffffffffffffffff1673ffffffffffffffffffffffffffffffffffffffff1681526020019081526020015f205f9054906101000a900460ff161562000411576040517f08c379a00000000000000000000000000000000000000000000000000000000081526004016200040890620010e2565b60405180910390fd5b620004245f83836200042860201b60201c565b5050565b5f73ffffffffffffffffffffffffffffffffffffffff168373ffffffffffffffffffffffffffffffffffffffff16036200047c578060045f8282546200046f919062001102565b9250508190555062000549565b5f60015f8573ffffffffffffffffffffffffffffffffffffffff1673ffffffffffffffffffffffffffffffffffffffff1681526020019081526020015f205490508181101562000503576040517f08c379a0000000000000000000000000000000000000000000000000000000008152600401620004fa906200118a565b60405180910390fd5b81810360015f8673ffffffffffffffffffffffffffffffffffffffff1673ffffffffffffffffffffffffffffffffffffffff1681526020019081526020015f2081905550505b5f73ffffffffffffffffffffffffffffffffffffffff168273ffffffffffffffffffffffffffffffffffffffff160362000592578060045f8282540392505081905550620005dd565b8060015f8473ffffffffffffffffffffffffffffffffffffffff1673ffffffffffffffffffffffffffffffffffffffff1681526020019081526020015f205f82825401925050819055505b8173ffffffffffffffffffffffffffffffffffffffff168373ffffffffffffffffffffffffffffffffffffffff167fddf252ad1be2c89b69c2b068fc378daa952ba7f163c4a11628f55a4df523b3ef836040516200063c9190620011bb565b60405180910390a3505050565b5f604051905090565b5f80fd5b5f80fd5b5f80fd5b5f80fd5b5f601f19601f8301169050919050565b7f4e487b71000000000000000000000000000000000000000000000000000000005f52604160045260245ffd5b620006aa8262000662565b810181811067ffffffffffffffff82111715620006cc57620006cb62000672565b5b80604052505050565b5f620006e062000649565b9050620006ee82826200069f565b919050565b5f67ffffffffffffffff82111562000710576200070f62000672565b5b6200071b8262000662565b9050602081019050919050565b5f5b83811015620007475780820151818401526020810190506200072a565b5f8484015250505050565b5f620007686200076284620006f3565b620006d5565b9050828152602081018484840111156200078757620007866200065e565b5b6200079484828562000728565b509392505050565b5f82601f830112620007b357620007b26200065a565b5b8151620007c584826020860162000752565b91505092915050565b5f60ff82169050919050565b620007e581620007ce565b8114620007f0575f80fd5b50565b5f815190506200080381620007da565b92915050565b5f819050919050565b6200081d8162000809565b811462000828575f80fd5b50565b5f815190506200083b8162000812565b92915050565b5f73ffffffffffffffffffffffffffffffffffffffff82169050919050565b5f6200086c8262000841565b9050919050565b6200087e8162000860565b811462000889575f80fd5b50565b5f815190506200089c8162000873565b92915050565b5f805f805f8060c08789031215620008bf57620008be62000652565b5b5f87015167ffffffffffffffff811115620008df57620008de62000656565b5b620008ed89828a016200079c565b965050602087015167ffffffffffffffff81111562000911576200091062000656565b5b6200091f89828a016200079c565b95505060406200093289828a01620007f3565b94505060606200094589828a016200082b565b93505060806200095889828a016200088c565b92505060a06200096b89828a016200082b565b9150509295509295509295565b620009838162000860565b82525050565b5f6020820190506200099e5f83018462000978565b92915050565b5f81519050919050565b7f4e487b71000000000000000000000000000000000000000000000000000000005f52602260045260245ffd5b5f6002820490506001821680620009f357607f821691505b60208210810362000a095762000a08620009ae565b5b50919050565b5f819050815f5260205f209050919050565b5f6020601f8301049050919050565b5f82821b905092915050565b5f6008830262000a6d7fffffffffffffffffffffffffffffffffffffffffffffffffffffffffffffffff8262000a30565b62000a79868362000a30565b95508019841693508086168417925050509392505050565b5f819050919050565b5f62000aba62000ab462000aae8462000809565b62000a91565b62000809565b9050919050565b5f819050919050565b62000ad58362000a9a565b62000aed62000ae48262000ac1565b84845462000a3c565b825550505050565b5f90565b62000b0362000af5565b62000b1081848462000aca565b505050565b5b8181101562000b375762000b2b5f8262000af9565b60018101905062000b16565b5050565b601f82111562000b865762000b508162000a0f565b62000b5b8462000a21565b8101602085101562000b6b578190505b62000b8362000b7a8562000a21565b83018262000b15565b50505b505050565b5f82821c905092915050565b5f62000ba85f198460080262000b8b565b1980831691505092915050565b5f62000bc2838362000b97565b9150826002028217905092915050565b62000bdd82620009a4565b67ffffffffffffffff81111562000bf95762000bf862000672565b5b62000c058254620009db565b62000c1282828562000b3b565b5f60209050601f83116001811462000c48575f841562000c33578287015190505b62000c3f858262000bb5565b86555062000cae565b601f19841662000c588662000a0f565b5f5b8281101562000c815784890151825560018201915060208501945060208101905062000c5a565b8683101562000ca1578489015162000c9d601f89168262000b97565b8355505b6001600288020188555050505b505050505050565b5f82825260208201905092915050565b7f496e73756666696369656e742066656520616d6f756e742073656e74000000005f82015250565b5f62000cfc601c8362000cb6565b915062000d098262000cc6565b602082019050919050565b5f6020820190508181035f83015262000d2d8162000cee565b9050919050565b7f496e76616c6964206665652072656365697665722061646472657373000000005f82015250565b5f62000d6a601c8362000cb6565b915062000d778262000d34565b602082019050919050565b5f6020820190508181035f83015262000d9b8162000d5c565b9050919050565b5f81905092915050565b50565b5f62000dbc5f8362000da2565b915062000dc98262000dac565b5f82019050919050565b5f62000ddf8262000daf565b9150819050919050565b7f466565207472616e73666572206661696c6564000000000000000000000000005f82015250565b5f62000e1f60138362000cb6565b915062000e2c8262000de9565b602082019050919050565b5f6020820190508181035f83015262000e508162000e11565b9050919050565b7f4e487b71000000000000000000000000000000000000000000000000000000005f52601160045260245ffd5b5f8160011c9050919050565b5f808291508390505b600185111562000ee15780860481111562000eb95762000eb862000e57565b5b600185161562000ec95780820291505b808102905062000ed98562000e84565b945062000e99565b94509492505050565b5f8262000efb576001905062000fcd565b8162000f0a575f905062000fcd565b816001811462000f23576002811462000f2e5762000f64565b600191505062000fcd565b60ff84111562000f435762000f4262000e57565b5b8360020a91508482111562000f5d5762000f5c62000e57565b5b5062000fcd565b5060208310610133831016604e8410600b841016171562000f9e5782820a90508381111562000f985762000f9762000e57565b5b62000fcd565b62000fad848484600162000e90565b9250905081840481111562000fc75762000fc662000e57565b5b81810290505b9392505050565b5f62000fe08262000809565b915062000fed83620007ce565b92506200101c7fffffffffffffffffffffffffffffffffffffffffffffffffffffffffffffffff848462000eea565b905092915050565b5f620010308262000809565b91506200103d8362000809565b92508282026200104d8162000809565b9150828204841483151762001067576200106662000e57565b5b5092915050565b7f426c61636b6c697374656420616464726573732063616e6e6f742072656365695f8201527f766520746f6b656e730000000000000000000000000000000000000000000000602082015250565b5f620010ca60298362000cb6565b9150620010d7826200106e565b604082019050919050565b5f6020820190508181035f830152620010fb81620010bc565b9050919050565b5f6200110e8262000809565b91506200111b8362000809565b925082820190508082111562001136576200113562000e57565b5b92915050565b7f496e73756666696369656e742062616c616e63650000000000000000000000005f82015250565b5f6200117260148362000cb6565b91506200117f826200113c565b602082019050919050565b5f6020820190508181035f830152620011a38162001164565b9050919050565b620011b58162000809565b82525050565b5f602082019050620011d05f830184620011aa565b92915050565b611ab680620011e45f395ff3fe608060405234801561000f575f80fd5b50600436106100fe575f3560e01c806375e3661e11610095578063dd62ed3e11610064578063dd62ed3e1461029a578063f2fde38b146102ca578063f9f92be4146102e6578063fe575a8714610302576100fe565b806375e3661e146102125780638da5cb5b1461022e57806395d89b411461024c578063a9059cbb1461026a576100fe565b8063313ce567116100d1578063313ce5671461019e57806340c10f19146101bc57806370a08231146101d8578063715018a614610208576100fe565b806306fdde0314610102578063095ea7b31461012057806318160ddd1461015057806323b872dd1461016e575b5f80fd5b61010a610332565b6040516101179190611466565b60405180910390f35b61013a60048036038101906101359190611517565b6103c2565b604051610147919061156f565b60405180910390f35b6101586104f0565b6040516101659190611597565b60405180910390f35b610188600480360381019061018391906115b0565b6104f9565b604051610195919061156f565b60405180910390f35b6101a6610633565b6040516101b3919061161b565b60405180910390f35b6101d660048036038101906101d19190611517565b610648565b005b6101f260048036038101906101ed9190611634565b6106ea565b6040516101ff9190611597565b60405180910390f35b610210610730565b005b61022c60048036038101906102279190611634565b610743565b005b6102366107e5565b604051610243919061166e565b60405180910390f35b61025461080c565b6040516102619190611466565b60405180910390f35b610284600480360381019061027f9190611517565b61089c565b604051610291919061156f565b60405180910390f35b6102b460048036038101906102af9190611687565b6109ca565b6040516102c19190611597565b60405180910390f35b6102e460048036038101906102df9190611634565b610a4c565b005b61030060048036038101906102fb9190611634565b610ad0565b005b61031c60048036038101906103179190611634565b610b73565b604051610329919061156f565b60405180910390f35b606060058054610341906116f2565b80601f016020809104026020016040519081016040528092919081815260200182805461036d906116f2565b80156103b85780601f1061038f576101008083540402835291602001916103b8565b820191905f5260205f20905b81548152906001019060200180831161039b57829003601f168201915b5050505050905090565b5f3360035f8273ffffffffffffffffffffffffffffffffffffffff1673ffffffffffffffffffffffffffffffffffffffff1681526020019081526020015f205f9054906101000a900460ff161561044e576040517f08c379a00000000000000000000000000000000000000000000000000000000081526004016104459061176c565b60405180910390fd5b8360035f8273ffffffffffffffffffffffffffffffffffffffff1673ffffffffffffffffffffffffffffffffffffffff1681526020019081526020015f205f9054906101000a900460ff16156104d9576040517f08c379a00000000000000000000000000000000000000000000000000000000081526004016104d09061176c565b60405180910390fd5b6104e4338686610bc5565b60019250505092915050565b5f600454905090565b5f8360035f8273ffffffffffffffffffffffffffffffffffffffff1673ffffffffffffffffffffffffffffffffffffffff1681526020019081526020015f205f9054906101000a900460ff1615610585576040517f08c379a000000000000000000000000000000000000000000000000000000000815260040161057c9061176c565b60405180910390fd5b8360035f8273ffffffffffffffffffffffffffffffffffffffff1673ffffffffffffffffffffffffffffffffffffffff1681526020019081526020015f205f9054906101000a900460ff1615610610576040517f08c379a00000000000000000000000000000000000000000000000000000000081526004016106079061176c565b60405180910390fd5b61061b863386610d89565b610626868686610e15565b6001925050509392505050565b5f60075f9054906101000a900460ff16905090565b610650610fde565b8160035f8273ffffffffffffffffffffffffffffffffffffffff1673ffffffffffffffffffffffffffffffffffffffff1681526020019081526020015f205f9054906101000a900460ff16156106db576040517f08c379a00000000000000000000000000000000000000000000000000000000081526004016106d29061176c565b60405180910390fd5b6106e58383611065565b505050565b5f60015f8373ffffffffffffffffffffffffffffffffffffffff1673ffffffffffffffffffffffffffffffffffffffff1681526020019081526020015f20549050919050565b610738610fde565b6107415f6110fe565b565b61074b610fde565b5f60035f8373ffffffffffffffffffffffffffffffffffffffff1673ffffffffffffffffffffffffffffffffffffffff1681526020019081526020015f205f6101000a81548160ff0219169083151502179055508073ffffffffffffffffffffffffffffffffffffffff167f7534c63860313c46c473e4e98328f37017e9674e2162faf1a3ad7a96236c3b7b60405160405180910390a250565b5f805f9054906101000a900473ffffffffffffffffffffffffffffffffffffffff16905090565b60606006805461081b906116f2565b80601f0160208091040260200160405190810160405280929190818152602001828054610847906116f2565b80156108925780601f1061086957610100808354040283529160200191610892565b820191905f5260205f20905b81548152906001019060200180831161087557829003601f168201915b5050505050905090565b5f3360035f8273ffffffffffffffffffffffffffffffffffffffff1673ffffffffffffffffffffffffffffffffffffffff1681526020019081526020015f205f9054906101000a900460ff1615610928576040517f08c379a000000000000000000000000000000000000000000000000000000000815260040161091f9061176c565b60405180910390fd5b8360035f8273ffffffffffffffffffffffffffffffffffffffff1673ffffffffffffffffffffffffffffffffffffffff1681526020019081526020015f205f9054906101000a900460ff16156109b3576040517f08c379a00000000000000000000000000000000000000000000000000000000081526004016109aa9061176c565b60405180910390fd5b6109be338686610e15565b60019250505092915050565b5f60025f8473ffffffffffffffffffffffffffffffffffffffff1673ffffffffffffffffffffffffffffffffffffffff1681526020019081526020015f205f8373ffffffffffffffffffffffffffffffffffffffff1673ffffffffffffffffffffffffffffffffffffffff1681526020019081526020015f2054905092915050565b610a54610fde565b5f73ffffffffffffffffffffffffffffffffffffffff168173ffffffffffffffffffffffffffffffffffffffff1603610ac4575f6040517f1e4fbdf7000000000000000000000000000000000000000000000000000000008152600401610abb919061166e565b60405180910390fd5b610acd816110fe565b50565b610ad8610fde565b600160035f8373ffffffffffffffffffffffffffffffffffffffff1673ffffffffffffffffffffffffffffffffffffffff1681526020019081526020015f205f6101000a81548160ff0219169083151502179055508073ffffffffffffffffffffffffffffffffffffffff167fffa4e6181777692565cf28528fc88fd1516ea86b56da075235fa575af6a4b85560405160405180910390a250565b5f60035f8373ffffffffffffffffffffffffffffffffffffffff1673ffffffffffffffffffffffffffffffffffffffff1681526020019081526020015f205f9054906101000a900460ff169050919050565b60035f8473ffffffffffffffffffffffffffffffffffffffff1673ffffffffffffffffffffffffffffffffffffffff1681526020019081526020015f205f9054906101000a900460ff16158015610c63575060035f8373ffffffffffffffffffffffffffffffffffffffff1673ffffffffffffffffffffffffffffffffffffffff1681526020019081526020015f205f9054906101000a900460ff16155b610ca2576040517f08c379a0000000000000000000000000000000000000000000000000000000008152600401610c99906117d4565b60405180910390fd5b8060025f8573ffffffffffffffffffffffffffffffffffffffff1673ffffffffffffffffffffffffffffffffffffffff1681526020019081526020015f205f8473ffffffffffffffffffffffffffffffffffffffff1673ffffffffffffffffffffffffffffffffffffffff1681526020019081526020015f20819055508173ffffffffffffffffffffffffffffffffffffffff168373ffffffffffffffffffffffffffffffffffffffff167f8c5be1e5ebec7d5bd14f71427d1e84f3dd0314c0f7b2291e5b200ac8c7c3b92583604051610d7c9190611597565b60405180910390a3505050565b5f610d9484846109ca565b90507fffffffffffffffffffffffffffffffffffffffffffffffffffffffffffffffff811015610e0f5781811015610e01576040517f08c379a0000000000000000000000000000000000000000000000000000000008152600401610df89061183c565b60405180910390fd5b610e0e8484848403610bc5565b5b50505050565b60035f8473ffffffffffffffffffffffffffffffffffffffff1673ffffffffffffffffffffffffffffffffffffffff1681526020019081526020015f205f9054906101000a900460ff16158015610eb3575060035f8373ffffffffffffffffffffffffffffffffffffffff1673ffffffffffffffffffffffffffffffffffffffff1681526020019081526020015f205f9054906101000a900460ff16155b610ef2576040517f08c379a0000000000000000000000000000000000000000000000000000000008152600401610ee9906117d4565b60405180910390fd5b5f73ffffffffffffffffffffffffffffffffffffffff168373ffffffffffffffffffffffffffffffffffffffff1603610f60576040517f08c379a0000000000000000000000000000000000000000000000000000000008152600401610f57906118a4565b60405180910390fd5b5f73ffffffffffffffffffffffffffffffffffffffff168273ffffffffffffffffffffffffffffffffffffffff1603610fce576040517f08c379a0000000000000000000000000000000000000000000000000000000008152600401610fc59061190c565b60405180910390fd5b610fd98383836111bf565b505050565b610fe66113d5565b73ffffffffffffffffffffffffffffffffffffffff166110046107e5565b73ffffffffffffffffffffffffffffffffffffffff1614611063576110276113d5565b6040517f118cdaa700000000000000000000000000000000000000000000000000000000815260040161105a919061166e565b60405180910390fd5b565b60035f8373ffffffffffffffffffffffffffffffffffffffff1673ffffffffffffffffffffffffffffffffffffffff1681526020019081526020015f205f9054906101000a900460ff16156110ef576040517f08c379a00000000000000000000000000000000000000000000000000000000081526004016110e69061199a565b60405180910390fd5b6110fa5f83836111bf565b5050565b5f805f9054906101000a900473ffffffffffffffffffffffffffffffffffffffff169050815f806101000a81548173ffffffffffffffffffffffffffffffffffffffff021916908373ffffffffffffffffffffffffffffffffffffffff1602179055508173ffffffffffffffffffffffffffffffffffffffff168173ffffffffffffffffffffffffffffffffffffffff167f8be0079c531659141344cd1fd0a4f28419497f9722a3daafe3b4186f6b6457e060405160405180910390a35050565b5f73ffffffffffffffffffffffffffffffffffffffff168373ffffffffffffffffffffffffffffffffffffffff160361120f578060045f82825461120391906119e5565b925050819055506112d9565b5f60015f8573ffffffffffffffffffffffffffffffffffffffff1673ffffffffffffffffffffffffffffffffffffffff1681526020019081526020015f2054905081811015611293576040517f08c379a000000000000000000000000000000000000000000000000000000000815260040161128a90611a62565b60405180910390fd5b81810360015f8673ffffffffffffffffffffffffffffffffffffffff1673ffffffffffffffffffffffffffffffffffffffff1681526020019081526020015f2081905550505b5f73ffffffffffffffffffffffffffffffffffffffff168273ffffffffffffffffffffffffffffffffffffffff1603611320578060045f828254039250508190555061136b565b8060015f8473ffffffffffffffffffffffffffffffffffffffff1673ffffffffffffffffffffffffffffffffffffffff1681526020019081526020015f205f82825401925050819055505b8173ffffffffffffffffffffffffffffffffffffffff168373ffffffffffffffffffffffffffffffffffffffff167fddf252ad1be2c89b69c2b068fc378daa952ba7f163c4a11628f55a4df523b3ef836040516113c89190611597565b60405180910390a3505050565b5f33905090565b5f81519050919050565b5f82825260208201905092915050565b5f5b838110156114135780820151818401526020810190506113f8565b5f8484015250505050565b5f601f19601f8301169050919050565b5f611438826113dc565b61144281856113e6565b93506114528185602086016113f6565b61145b8161141e565b840191505092915050565b5f6020820190508181035f83015261147e818461142e565b905092915050565b5f80fd5b5f73ffffffffffffffffffffffffffffffffffffffff82169050919050565b5f6114b38261148a565b9050919050565b6114c3816114a9565b81146114cd575f80fd5b50565b5f813590506114de816114ba565b92915050565b5f819050919050565b6114f6816114e4565b8114611500575f80fd5b50565b5f81359050611511816114ed565b92915050565b5f806040838503121561152d5761152c611486565b5b5f61153a858286016114d0565b925050602061154b85828601611503565b9150509250929050565b5f8115159050919050565b61156981611555565b82525050565b5f6020820190506115825f830184611560565b92915050565b611591816114e4565b82525050565b5f6020820190506115aa5f830184611588565b92915050565b5f805f606084860312156115c7576115c6611486565b5b5f6115d4868287016114d0565b93505060206115e5868287016114d0565b92505060406115f686828701611503565b9150509250925092565b5f60ff82169050919050565b61161581611600565b82525050565b5f60208201905061162e5f83018461160c565b92915050565b5f6020828403121561164957611648611486565b5b5f611656848285016114d0565b91505092915050565b611668816114a9565b82525050565b5f6020820190506116815f83018461165f565b92915050565b5f806040838503121561169d5761169c611486565b5b5f6116aa858286016114d0565b92505060206116bb858286016114d0565b9150509250929050565b7f4e487b71000000000000000000000000000000000000000000000000000000005f52602260045260245ffd5b5f600282049050600182168061170957607f821691505b60208210810361171c5761171b6116c5565b5b50919050565b7f4164647265737320697320626c61636b6c6973746564000000000000000000005f82015250565b5f6117566016836113e6565b915061176182611722565b602082019050919050565b5f6020820190508181035f8301526117838161174a565b9050919050565b7f426c61636b6c6973746564206164647265737320696e766f6c766564000000005f82015250565b5f6117be601c836113e6565b91506117c98261178a565b602082019050919050565b5f6020820190508181035f8301526117eb816117b2565b9050919050565b7f496e73756666696369656e7420616c6c6f77616e6365000000000000000000005f82015250565b5f6118266016836113e6565b9150611831826117f2565b602082019050919050565b5f6020820190508181035f8301526118538161181a565b9050919050565b7f496e76616c69642073656e6465720000000000000000000000000000000000005f82015250565b5f61188e600e836113e6565b91506118998261185a565b602082019050919050565b5f6020820190508181035f8301526118bb81611882565b9050919050565b7f496e76616c6964207265636569766572000000000000000000000000000000005f82015250565b5f6118f66010836113e6565b9150611901826118c2565b602082019050919050565b5f6020820190508181035f830152611923816118ea565b9050919050565b7f426c61636b6c697374656420616464726573732063616e6e6f742072656365695f8201527f766520746f6b656e730000000000000000000000000000000000000000000000602082015250565b5f6119846029836113e6565b915061198f8261192a565b604082019050919050565b5f6020820190508181035f8301526119b181611978565b9050919050565b7f4e487b71000000000000000000000000000000000000000000000000000000005f52601160045260245ffd5b5f6119ef826114e4565b91506119fa836114e4565b9250828201905080821115611a1257611a116119b8565b5b92915050565b7f496e73756666696369656e742062616c616e63650000000000000000000000005f82015250565b5f611a4c6014836113e6565b9150611a5782611a18565b602082019050919050565b5f6020820190508181035f830152611a7981611a40565b905091905056fea2646970667358221220ed08a88d6303e83ea42717fd634341dc669cd4f699b708dc815c8d87e884a4c364736f6c63430008170033","linkReferences":{}},"methodIdentifiers":{"allowance(address,address)":"dd62ed3e","approve(address,uint256)":"095ea7b3","balanceOf(address)":"70a08231","blacklist(address)":"f9f92be4","decimals()":"313ce567","isBlacklisted(address)":"fe575a87","mint(address,uint256)":"40c10f19","name()":"06fdde03","owner()":"8da5cb5b","renounceOwnership()":"715018a6","symbol()":"95d89b41","totalSupply()":"18160ddd","transfer(address,uint256)":"a9059cbb","transferFrom(address,address,uint256)":"23b872dd","transferOwnership(address)":"f2fde38b","unblacklist(address)":"75e3661e"},"id":15}