{"abi":[{"type":"constructor","inputs":[{"name":"name_","type":"string","internalType":"string"},{"name":"symbol_","type":"string","internalType":"string"},{"name":"decimals_","type":"uint8","internalType":"uint8"},{"name":"totalSupply_","type":"uint256","internalType":"uint256"},{"name":"serviceFeeReceiver_","type":"address","internalType":"address"},{"name":"serviceFee_","type":"uint256","internalType":"uint256"}],"stateMutability":"payable"},{"type":"function","name":"allowance","inputs":[{"name":"owner","type":"address","internalType":"address"},{"name":"spender","type":"address","internalType":"address"}],"outputs":[{"name":"","type":"uint256","internalType":"uint256"}],"stateMutability":"view"},{"type":"function","name":"approve","inputs":[{"name":"spender","type":"address","internalType":"address"},{"name":"value","type":"uint256","internalType":"uint256"}],"outputs":[{"name":"","type":"bool","internalType":"bool"}],"stateMutability":"nonpayable"},{"type":"function","name":"balanceOf","inputs":[{"name":"account","type":"address","internalType":"address"}],"outputs":[{"name":"","type":"uint256","internalType":"uint256"}],"stateMutability":"view"},{"type":"function","name":"blacklist","inputs":[{"name":"account","type":"address","internalType":"address"}],"outputs":[],"stateMutability":"nonpayable"},{"type":"function","name":"decimals","inputs":[],"outputs":[{"name":"","type":"uint8","internalType":"uint8"}],"stateMutability":"view"},{"type":"function","name":"isBlacklisted","inputs":[{"name":"account","type":"address","internalType":"address"}],"outputs":[{"name":"","type":"bool","internalType":"bool"}],"stateMutability":"view"},{"type":"function","name":"mint","inputs":[{"name":"to","type":"address","internalType":"address"},{"name":"amount","type":"uint256","internalType":"uint256"}],"outputs":[],"stateMutability":"nonpayable"},{"type":"function","name":"name","inputs":[],"outputs":[{"name":"","type":"string","internalType":"string"}],"stateMutability":"view"},{"type":"function","name":"owner","inputs":[],"outputs":[{"name":"","type":"address","internalType":"address"}],"stateMutability":"view"},{"type":"function","name":"renounceOwnership","inputs":[],"outputs":[],"stateMutability":"nonpayable"},{"type":"function","name":"symbol","inputs":[],"outputs":[{"name":"","type":"string","internalType":"string"}],"stateMutability":"view"},{"type":"function","name":"totalSupply","inputs":[],"outputs":[{"name":"","type":"uint256","internalType":"uint256"}],"stateMutability":"view"},{"type":"function","name":"transfer","inputs":[{"name":"to","type":"address","internalType":"address"},{"name":"value","type":"uint256","internalType":"uint256"}],"outputs":[{"name":"","type":"bool","internalType":"bool"}],"stateMutability":"nonpayable"},{"type":"function","name":"transferFrom","inputs":[{"name":"from","type":"address","internalType":"address"},{"name":"to","type":"address","internalType":"address"},{"name":"value","type":"uint256","internalType":"uint256"}],"outputs":[{"name":"","type":"bool","internalType":"bool"}],"stateMutability":"nonpayable"},{"type":"function","name":"transferOwnership","inputs":[{"name":"newOwner","type":"address","internalType":"address"}],"outputs":[],"stateMutability":"nonpayable"},{"type":"function","name":"unblacklist","inputs":[{"name":"account","type":"address","internalType":"address"}],"outputs":[],"stateMutability":"nonpayable"},{"type":"event","name":"Approval","inputs":[{"name":"owner","type":"address","indexed":true,"internalType":"address"},{"name":"spender","type":"address","indexed":true,"internalType":"address"},{"name":"value","type":"uint256","indexed":false,"internalType":"uint256"}],"anonymous":false},{"type":"event","name":"Blacklisted","inputs":[{"name":"account","type":"address","indexed":true,"internalType":"address"}],"anonymous":false},{"type":"event","name":"OwnershipTransferred","inputs":[{"name":"previousOwner","type":"address","indexed":true,"internalType":"address"},{"name":"newOwner","type":"address","indexed":true,"internalType":"address"}],"anonymous":false},{"type":"event","name":"Transfer","inputs":[{"name":"from","type":"address","indexed":true,"internalType":"address"},{"name":"to","type":"address","indexed":true,"internalType":"address"},{"name":"value","type":"uint256","indexed":false,"internalType":"uint256"}],"anonymous":false},{"type":"event","name":"Unblacklisted","inputs":[{"name":"account","type":"address","indexed":true,"internalType":"address"}],"anonymous":false},{"type":"error","name":"OwnableInvalidOwner","inputs":[{"name":"owner","type":"address","internalType":"address"}]},{"type":"error","name":"OwnableUnauthorizedAccount","inputs":[{"name":"account","type":"address","internalType":"address"}]}],"bytecode":{"object":"0x6080604052604051612b4f380380612b4f83398181016040528101906100259190610826565b335f73ffffffffffffffffffffffffffffffffffffffff168173ffffffffffffffffffffffffffffffffffffffff1603610096575f6040517f1e4fbdf700000000000000000000000000000000000000000000000000000000815260040161008d91906108f6565b60405180910390fd5b6100a58161027960201b60201c565b5085600590816100b59190610b16565b5084600690816100c59190610b16565b508360075f6101000a81548160ff021916908360ff16021790555080341015610123576040517f08c379a000000000000000000000000000000000000000000000000000000000815260040161011a90610c3f565b60405180910390fd5b5f73ffffffffffffffffffffffffffffffffffffffff168273ffffffffffffffffffffffffffffffffffffffff1603610191576040517f08c379a000000000000000000000000000000000000000000000000000000000815260040161018890610ca7565b60405180910390fd5b5f8273ffffffffffffffffffffffffffffffffffffffff16826040516101b690610cf2565b5f6040518083038185875af1925050503d805f81146101f0576040519150601f19603f3d011682016040523d82523d5f602084013e6101f5565b606091505b5050905080610239576040517f08c379a000000000000000000000000000000000000000000000000000000000815260040161023090610d50565b60405180910390fd5b61026d61024a61033a60201b60201c565b86600a6102579190610eca565b866102629190610f14565b61036160201b60201c565b505050505050506110a6565b5f5f5f9054906101000a900473ffffffffffffffffffffffffffffffffffffffff169050815f5f6101000a81548173ffffffffffffffffffffffffffffffffffffffff021916908373ffffffffffffffffffffffffffffffffffffffff1602179055508173ffffffffffffffffffffffffffffffffffffffff168173ffffffffffffffffffffffffffffffffffffffff167f8be0079c531659141344cd1fd0a4f28419497f9722a3daafe3b4186f6b6457e060405160405180910390a35050565b5f5f5f9054906101000a900473ffffffffffffffffffffffffffffffffffffffff16905090565b60035f8373ffffffffffffffffffffffffffffffffffffffff1673ffffffffffffffffffffffffffffffffffffffff1681526020019081526020015f205f9054906101000a900460ff16156103eb576040517f08c379a00000000000000000000000000000000000000000000000000000000081526004016103e290610fc5565b60405180910390fd5b6103fc5f838361040060201b60201c565b5050565b5f73ffffffffffffffffffffffffffffffffffffffff168373ffffffffffffffffffffffffffffffffffffffff1603610450578060045f8282546104449190610fe3565b9250508190555061051a565b5f60015f8573ffffffffffffffffffffffffffffffffffffffff1673ffffffffffffffffffffffffffffffffffffffff1681526020019081526020015f20549050818110156104d4576040517f08c379a00000000000000000000000000000000000000000000000000000000081526004016104cb90611060565b60405180910390fd5b81810360015f8673ffffffffffffffffffffffffffffffffffffffff1673ffffffffffffffffffffffffffffffffffffffff1681526020019081526020015f2081905550505b5f73ffffffffffffffffffffffffffffffffffffffff168273ffffffffffffffffffffffffffffffffffffffff1603610561578060045f82825403925050819055506105ac565b8060015f8473ffffffffffffffffffffffffffffffffffffffff1673ffffffffffffffffffffffffffffffffffffffff1681526020019081526020015f205f82825401925050819055505b8173ffffffffffffffffffffffffffffffffffffffff168373ffffffffffffffffffffffffffffffffffffffff167fddf252ad1be2c89b69c2b068fc378daa952ba7f163c4a11628f55a4df523b3ef83604051610609919061108d565b60405180910390a3505050565b5f604051905090565b5f5ffd5b5f5ffd5b5f5ffd5b5f5ffd5b5f601f19601f8301169050919050565b7f4e487b71000000000000000000000000000000000000000000000000000000005f52604160045260245ffd5b6106758261062f565b810181811067ffffffffffffffff821117156106945761069361063f565b5b80604052505050565b5f6106a6610616565b90506106b2828261066c565b919050565b5f67ffffffffffffffff8211156106d1576106d061063f565b5b6106da8261062f565b9050602081019050919050565b8281835e5f83830152505050565b5f610707610702846106b7565b61069d565b9050828152602081018484840111156107235761072261062b565b5b61072e8482856106e7565b509392505050565b5f82601f83011261074a57610749610627565b5b815161075a8482602086016106f5565b91505092915050565b5f60ff82169050919050565b61077881610763565b8114610782575f5ffd5b50565b5f815190506107938161076f565b92915050565b5f819050919050565b6107ab81610799565b81146107b5575f5ffd5b50565b5f815190506107c6816107a2565b92915050565b5f73ffffffffffffffffffffffffffffffffffffffff82169050919050565b5f6107f5826107cc565b9050919050565b610805816107eb565b811461080f575f5ffd5b50565b5f81519050610820816107fc565b92915050565b5f5f5f5f5f5f60c087890312156108405761083f61061f565b5b5f87015167ffffffffffffffff81111561085d5761085c610623565b5b61086989828a01610736565b965050602087015167ffffffffffffffff81111561088a57610889610623565b5b61089689828a01610736565b95505060406108a789828a01610785565b94505060606108b889828a016107b8565b93505060806108c989828a01610812565b92505060a06108da89828a016107b8565b9150509295509295509295565b6108f0816107eb565b82525050565b5f6020820190506109095f8301846108e7565b92915050565b5f81519050919050565b7f4e487b71000000000000000000000000000000000000000000000000000000005f52602260045260245ffd5b5f600282049050600182168061095d57607f821691505b6020821081036109705761096f610919565b5b50919050565b5f819050815f5260205f209050919050565b5f6020601f8301049050919050565b5f82821b905092915050565b5f600883026109d27fffffffffffffffffffffffffffffffffffffffffffffffffffffffffffffffff82610997565b6109dc8683610997565b95508019841693508086168417925050509392505050565b5f819050919050565b5f610a17610a12610a0d84610799565b6109f4565b610799565b9050919050565b5f819050919050565b610a30836109fd565b610a44610a3c82610a1e565b8484546109a3565b825550505050565b5f5f905090565b610a5b610a4c565b610a66818484610a27565b505050565b5b81811015610a8957610a7e5f82610a53565b600181019050610a6c565b5050565b601f821115610ace57610a9f81610976565b610aa884610988565b81016020851015610ab7578190505b610acb610ac385610988565b830182610a6b565b50505b505050565b5f82821c905092915050565b5f610aee5f1984600802610ad3565b1980831691505092915050565b5f610b068383610adf565b9150826002028217905092915050565b610b1f8261090f565b67ffffffffffffffff811115610b3857610b3761063f565b5b610b428254610946565b610b4d828285610a8d565b5f60209050601f831160018114610b7e575f8415610b6c578287015190505b610b768582610afb565b865550610bdd565b601f198416610b8c86610976565b5f5b82811015610bb357848901518255600182019150602085019450602081019050610b8e565b86831015610bd05784890151610bcc601f891682610adf565b8355505b6001600288020188555050505b505050505050565b5f82825260208201905092915050565b7f496e73756666696369656e742066656520616d6f756e742073656e74000000005f82015250565b5f610c29601c83610be5565b9150610c3482610bf5565b602082019050919050565b5f6020820190508181035f830152610c5681610c1d565b9050919050565b7f496e76616c6964206665652072656365697665722061646472657373000000005f82015250565b5f610c91601c83610be5565b9150610c9c82610c5d565b602082019050919050565b5f6020820190508181035f830152610cbe81610c85565b9050919050565b5f81905092915050565b50565b5f610cdd5f83610cc5565b9150610ce882610ccf565b5f82019050919050565b5f610cfc82610cd2565b9150819050919050565b7f466565207472616e73666572206661696c6564000000000000000000000000005f82015250565b5f610d3a601383610be5565b9150610d4582610d06565b602082019050919050565b5f6020820190508181035f830152610d6781610d2e565b9050919050565b7f4e487b71000000000000000000000000000000000000000000000000000000005f52601160045260245ffd5b5f8160011c9050919050565b5f5f8291508390505b6001851115610df057808604811115610dcc57610dcb610d6e565b5b6001851615610ddb5780820291505b8081029050610de985610d9b565b9450610db0565b94509492505050565b5f82610e085760019050610ec3565b81610e15575f9050610ec3565b8160018114610e2b5760028114610e3557610e64565b6001915050610ec3565b60ff841115610e4757610e46610d6e565b5b8360020a915084821115610e5e57610e5d610d6e565b5b50610ec3565b5060208310610133831016604e8410600b8410161715610e995782820a905083811115610e9457610e93610d6e565b5b610ec3565b610ea68484846001610da7565b92509050818404811115610ebd57610ebc610d6e565b5b81810290505b9392505050565b5f610ed482610799565b9150610edf83610763565b9250610f0c7fffffffffffffffffffffffffffffffffffffffffffffffffffffffffffffffff8484610df9565b905092915050565b5f610f1e82610799565b9150610f2983610799565b9250828202610f3781610799565b91508282048414831517610f4e57610f4d610d6e565b5b5092915050565b7f426c61636b6c697374656420616464726573732063616e6e6f742072656365695f8201527f766520746f6b656e730000000000000000000000000000000000000000000000602082015250565b5f610faf602983610be5565b9150610fba82610f55565b604082019050919050565b5f6020820190508181035f830152610fdc81610fa3565b9050919050565b5f610fed82610799565b9150610ff883610799565b92508282019050808211156110105761100f610d6e565b5b92915050565b7f496e73756666696369656e742062616c616e63650000000000000000000000005f82015250565b5f61104a601483610be5565b915061105582611016565b602082019050919050565b5f6020820190508181035f8301526110778161103e565b9050919050565b61108781610799565b82525050565b5f6020820190506110a05f83018461107e565b92915050565b611a9c806110b35f395ff3fe608060405234801561000f575f5ffd5b50600436106100fe575f3560e01c806375e3661e11610095578063dd62ed3e11610064578063dd62ed3e1461029a578063f2fde38b146102ca578063f9f92be4146102e6578063fe575a8714610302576100fe565b806375e3661e146102125780638da5cb5b1461022e57806395d89b411461024c578063a9059cbb1461026a576100fe565b8063313ce567116100d1578063313ce5671461019e57806340c10f19146101bc57806370a08231146101d8578063715018a614610208576100fe565b806306fdde0314610102578063095ea7b31461012057806318160ddd1461015057806323b872dd1461016e575b5f5ffd5b61010a610332565b604051610117919061144c565b60405180910390f35b61013a600480360381019061013591906114fd565b6103c2565b6040516101479190611555565b60405180910390f35b6101586104f0565b604051610165919061157d565b60405180910390f35b61018860048036038101906101839190611596565b6104f9565b6040516101959190611555565b60405180910390f35b6101a6610633565b6040516101b39190611601565b60405180910390f35b6101d660048036038101906101d191906114fd565b610648565b005b6101f260048036038101906101ed919061161a565b6106ea565b6040516101ff919061157d565b60405180910390f35b610210610730565b005b61022c6004803603810190610227919061161a565b610743565b005b6102366107e5565b6040516102439190611654565b60405180910390f35b61025461080c565b604051610261919061144c565b60405180910390f35b610284600480360381019061027f91906114fd565b61089c565b6040516102919190611555565b60405180910390f35b6102b460048036038101906102af919061166d565b6109ca565b6040516102c1919061157d565b60405180910390f35b6102e460048036038101906102df919061161a565b610a4c565b005b61030060048036038101906102fb919061161a565b610ad0565b005b61031c6004803603810190610317919061161a565b610b73565b6040516103299190611555565b60405180910390f35b606060058054610341906116d8565b80601f016020809104026020016040519081016040528092919081815260200182805461036d906116d8565b80156103b85780601f1061038f576101008083540402835291602001916103b8565b820191905f5260205f20905b81548152906001019060200180831161039b57829003601f168201915b5050505050905090565b5f3360035f8273ffffffffffffffffffffffffffffffffffffffff1673ffffffffffffffffffffffffffffffffffffffff1681526020019081526020015f205f9054906101000a900460ff161561044e576040517f08c379a000000000000000000000000000000000000000000000000000000000815260040161044590611752565b60405180910390fd5b8360035f8273ffffffffffffffffffffffffffffffffffffffff1673ffffffffffffffffffffffffffffffffffffffff1681526020019081526020015f205f9054906101000a900460ff16156104d9576040517f08c379a00000000000000000000000000000000000000000000000000000000081526004016104d090611752565b60405180910390fd5b6104e4338686610bc5565b60019250505092915050565b5f600454905090565b5f8360035f8273ffffffffffffffffffffffffffffffffffffffff1673ffffffffffffffffffffffffffffffffffffffff1681526020019081526020015f205f9054906101000a900460ff1615610585576040517f08c379a000000000000000000000000000000000000000000000000000000000815260040161057c90611752565b60405180910390fd5b8360035f8273ffffffffffffffffffffffffffffffffffffffff1673ffffffffffffffffffffffffffffffffffffffff1681526020019081526020015f205f9054906101000a900460ff1615610610576040517f08c379a000000000000000000000000000000000000000000000000000000000815260040161060790611752565b60405180910390fd5b61061b863386610d89565b610626868686610e15565b6001925050509392505050565b5f60075f9054906101000a900460ff16905090565b610650610fde565b8160035f8273ffffffffffffffffffffffffffffffffffffffff1673ffffffffffffffffffffffffffffffffffffffff1681526020019081526020015f205f9054906101000a900460ff16156106db576040517f08c379a00000000000000000000000000000000000000000000000000000000081526004016106d290611752565b60405180910390fd5b6106e58383611065565b505050565b5f60015f8373ffffffffffffffffffffffffffffffffffffffff1673ffffffffffffffffffffffffffffffffffffffff1681526020019081526020015f20549050919050565b610738610fde565b6107415f6110fe565b565b61074b610fde565b5f60035f8373ffffffffffffffffffffffffffffffffffffffff1673ffffffffffffffffffffffffffffffffffffffff1681526020019081526020015f205f6101000a81548160ff0219169083151502179055508073ffffffffffffffffffffffffffffffffffffffff167f7534c63860313c46c473e4e98328f37017e9674e2162faf1a3ad7a96236c3b7b60405160405180910390a250565b5f5f5f9054906101000a900473ffffffffffffffffffffffffffffffffffffffff16905090565b60606006805461081b906116d8565b80601f0160208091040260200160405190810160405280929190818152602001828054610847906116d8565b80156108925780601f1061086957610100808354040283529160200191610892565b820191905f5260205f20905b81548152906001019060200180831161087557829003601f168201915b5050505050905090565b5f3360035f8273ffffffffffffffffffffffffffffffffffffffff1673ffffffffffffffffffffffffffffffffffffffff1681526020019081526020015f205f9054906101000a900460ff1615610928576040517f08c379a000000000000000000000000000000000000000000000000000000000815260040161091f90611752565b60405180910390fd5b8360035f8273ffffffffffffffffffffffffffffffffffffffff1673ffffffffffffffffffffffffffffffffffffffff1681526020019081526020015f205f9054906101000a900460ff16156109b3576040517f08c379a00000000000000000000000000000000000000000000000000000000081526004016109aa90611752565b60405180910390fd5b6109be338686610e15565b60019250505092915050565b5f60025f8473ffffffffffffffffffffffffffffffffffffffff1673ffffffffffffffffffffffffffffffffffffffff1681526020019081526020015f205f8373ffffffffffffffffffffffffffffffffffffffff1673ffffffffffffffffffffffffffffffffffffffff1681526020019081526020015f2054905092915050565b610a54610fde565b5f73ffffffffffffffffffffffffffffffffffffffff168173ffffffffffffffffffffffffffffffffffffffff1603610ac4575f6040517f1e4fbdf7000000000000000000000000000000000000000000000000000000008152600401610abb9190611654565b60405180910390fd5b610acd816110fe565b50565b610ad8610fde565b600160035f8373ffffffffffffffffffffffffffffffffffffffff1673ffffffffffffffffffffffffffffffffffffffff1681526020019081526020015f205f6101000a81548160ff0219169083151502179055508073ffffffffffffffffffffffffffffffffffffffff167fffa4e6181777692565cf28528fc88fd1516ea86b56da075235fa575af6a4b85560405160405180910390a250565b5f60035f8373ffffffffffffffffffffffffffffffffffffffff1673ffffffffffffffffffffffffffffffffffffffff1681526020019081526020015f205f9054906101000a900460ff169050919050565b60035f8473ffffffffffffffffffffffffffffffffffffffff1673ffffffffffffffffffffffffffffffffffffffff1681526020019081526020015f205f9054906101000a900460ff16158015610c63575060035f8373ffffffffffffffffffffffffffffffffffffffff1673ffffffffffffffffffffffffffffffffffffffff1681526020019081526020015f205f9054906101000a900460ff16155b610ca2576040517f08c379a0000000000000000000000000000000000000000000000000000000008152600401610c99906117ba565b60405180910390fd5b8060025f8573ffffffffffffffffffffffffffffffffffffffff1673ffffffffffffffffffffffffffffffffffffffff1681526020019081526020015f205f8473ffffffffffffffffffffffffffffffffffffffff1673ffffffffffffffffffffffffffffffffffffffff1681526020019081526020015f20819055508173ffffffffffffffffffffffffffffffffffffffff168373ffffffffffffffffffffffffffffffffffffffff167f8c5be1e5ebec7d5bd14f71427d1e84f3dd0314c0f7b2291e5b200ac8c7c3b92583604051610d7c919061157d565b60405180910390a3505050565b5f610d9484846109ca565b90507fffffffffffffffffffffffffffffffffffffffffffffffffffffffffffffffff811015610e0f5781811015610e01576040517f08c379a0000000000000000000000000000000000000000000000000000000008152600401610df890611822565b60405180910390fd5b610e0e8484848403610bc5565b5b50505050565b60035f8473ffffffffffffffffffffffffffffffffffffffff1673ffffffffffffffffffffffffffffffffffffffff1681526020019081526020015f205f9054906101000a900460ff16158015610eb3575060035f8373ffffffffffffffffffffffffffffffffffffffff1673ffffffffffffffffffffffffffffffffffffffff1681526020019081526020015f205f9054906101000a900460ff16155b610ef2576040517f08c379a0000000000000000000000000000000000000000000000000000000008152600401610ee9906117ba565b60405180910390fd5b5f73ffffffffffffffffffffffffffffffffffffffff168373ffffffffffffffffffffffffffffffffffffffff1603610f60576040517f08c379a0000000000000000000000000000000000000000000000000000000008152600401610f579061188a565b60405180910390fd5b5f73ffffffffffffffffffffffffffffffffffffffff168273ffffffffffffffffffffffffffffffffffffffff1603610fce576040517f08c379a0000000000000000000000000000000000000000000000000000000008152600401610fc5906118f2565b60405180910390fd5b610fd98383836111bf565b505050565b610fe66113d5565b73ffffffffffffffffffffffffffffffffffffffff166110046107e5565b73ffffffffffffffffffffffffffffffffffffffff1614611063576110276113d5565b6040517f118cdaa700000000000000000000000000000000000000000000000000000000815260040161105a9190611654565b60405180910390fd5b565b60035f8373ffffffffffffffffffffffffffffffffffffffff1673ffffffffffffffffffffffffffffffffffffffff1681526020019081526020015f205f9054906101000a900460ff16156110ef576040517f08c379a00000000000000000000000000000000000000000000000000000000081526004016110e690611980565b60405180910390fd5b6110fa5f83836111bf565b5050565b5f5f5f9054906101000a900473ffffffffffffffffffffffffffffffffffffffff169050815f5f6101000a81548173ffffffffffffffffffffffffffffffffffffffff021916908373ffffffffffffffffffffffffffffffffffffffff1602179055508173ffffffffffffffffffffffffffffffffffffffff168173ffffffffffffffffffffffffffffffffffffffff167f8be0079c531659141344cd1fd0a4f28419497f9722a3daafe3b4186f6b6457e060405160405180910390a35050565b5f73ffffffffffffffffffffffffffffffffffffffff168373ffffffffffffffffffffffffffffffffffffffff160361120f578060045f82825461120391906119cb565b925050819055506112d9565b5f60015f8573ffffffffffffffffffffffffffffffffffffffff1673ffffffffffffffffffffffffffffffffffffffff1681526020019081526020015f2054905081811015611293576040517f08c379a000000000000000000000000000000000000000000000000000000000815260040161128a90611a48565b60405180910390fd5b81810360015f8673ffffffffffffffffffffffffffffffffffffffff1673ffffffffffffffffffffffffffffffffffffffff1681526020019081526020015f2081905550505b5f73ffffffffffffffffffffffffffffffffffffffff168273ffffffffffffffffffffffffffffffffffffffff1603611320578060045f828254039250508190555061136b565b8060015f8473ffffffffffffffffffffffffffffffffffffffff1673ffffffffffffffffffffffffffffffffffffffff1681526020019081526020015f205f82825401925050819055505b8173ffffffffffffffffffffffffffffffffffffffff168373ffffffffffffffffffffffffffffffffffffffff167fddf252ad1be2c89b69c2b068fc378daa952ba7f163c4a11628f55a4df523b3ef836040516113c8919061157d565b60405180910390a3505050565b5f33905090565b5f81519050919050565b5f82825260208201905092915050565b8281835e5f83830152505050565b5f601f19601f8301169050919050565b5f61141e826113dc565b61142881856113e6565b93506114388185602086016113f6565b61144181611404565b840191505092915050565b5f6020820190508181035f8301526114648184611414565b905092915050565b5f5ffd5b5f73ffffffffffffffffffffffffffffffffffffffff82169050919050565b5f61149982611470565b9050919050565b6114a98161148f565b81146114b3575f5ffd5b50565b5f813590506114c4816114a0565b92915050565b5f819050919050565b6114dc816114ca565b81146114e6575f5ffd5b50565b5f813590506114f7816114d3565b92915050565b5f5f604083850312156115135761151261146c565b5b5f611520858286016114b6565b9250506020611531858286016114e9565b9150509250929050565b5f8115159050919050565b61154f8161153b565b82525050565b5f6020820190506115685f830184611546565b92915050565b611577816114ca565b82525050565b5f6020820190506115905f83018461156e565b92915050565b5f5f5f606084860312156115ad576115ac61146c565b5b5f6115ba868287016114b6565b93505060206115cb868287016114b6565b92505060406115dc868287016114e9565b9150509250925092565b5f60ff82169050919050565b6115fb816115e6565b82525050565b5f6020820190506116145f8301846115f2565b92915050565b5f6020828403121561162f5761162e61146c565b5b5f61163c848285016114b6565b91505092915050565b61164e8161148f565b82525050565b5f6020820190506116675f830184611645565b92915050565b5f5f604083850312156116835761168261146c565b5b5f611690858286016114b6565b92505060206116a1858286016114b6565b9150509250929050565b7f4e487b71000000000000000000000000000000000000000000000000000000005f52602260045260245ffd5b5f60028204905060018216806116ef57607f821691505b602082108103611702576117016116ab565b5b50919050565b7f4164647265737320697320626c61636b6c6973746564000000000000000000005f82015250565b5f61173c6016836113e6565b915061174782611708565b602082019050919050565b5f6020820190508181035f83015261176981611730565b9050919050565b7f426c61636b6c6973746564206164647265737320696e766f6c766564000000005f82015250565b5f6117a4601c836113e6565b91506117af82611770565b602082019050919050565b5f6020820190508181035f8301526117d181611798565b9050919050565b7f496e73756666696369656e7420616c6c6f77616e6365000000000000000000005f82015250565b5f61180c6016836113e6565b9150611817826117d8565b602082019050919050565b5f6020820190508181035f83015261183981611800565b9050919050565b7f496e76616c69642073656e6465720000000000000000000000000000000000005f82015250565b5f611874600e836113e6565b915061187f82611840565b602082019050919050565b5f6020820190508181035f8301526118a181611868565b9050919050565b7f496e76616c6964207265636569766572000000000000000000000000000000005f82015250565b5f6118dc6010836113e6565b91506118e7826118a8565b602082019050919050565b5f6020820190508181035f830152611909816118d0565b9050919050565b7f426c61636b6c697374656420616464726573732063616e6e6f742072656365695f8201527f766520746f6b656e730000000000000000000000000000000000000000000000602082015250565b5f61196a6029836113e6565b915061197582611910565b604082019050919050565b5f6020820190508181035f8301526119978161195e565b9050919050565b7f4e487b71000000000000000000000000000000000000000000000000000000005f52601160045260245ffd5b5f6119d5826114ca565b91506119e0836114ca565b92508282019050808211156119f8576119f761199e565b5b92915050565b7f496e73756666696369656e742062616c616e63650000000000000000000000005f82015250565b5f611a326014836113e6565b9150611a3d826119fe565b602082019050919050565b5f6020820190508181035f830152611a5f81611a26565b905091905056fea2646970667358221220711a079f45ddf27604f25d84ebba14ce6a3c0ed560ddc1af79c2a33d5d7281a864736f6c634300081c0033","linkReferences":{}},"methodIdentifiers":{"allowance(address,address)":"dd62ed3e","approve(address,uint256)":"095ea7b3","balanceOf(address)":"70a08231","blacklist(address)":"f9f92be4","decimals()":"313ce567","isBlacklisted(address)":"fe575a87","mint(address,uint256)":"40c10f19","name()":"06fdde03","owner()":"8da5cb5b","renounceOwnership()":"715018a6","symbol()":"95d89b41","totalSupply()":"18160ddd","transfer(address,uint256)":"a9059cbb","transferFrom(address,address,uint256)":"23b872dd","transferOwnership(address)":"f2fde38b","unblacklist(address)":"75e3661e"},"id":15}