{"abi":[{"type":"constructor","inputs":[{"name":"name_","type":"string","internalType":"string"},{"name":"symbol_","type":"string","internalType":"string"},{"name":"decimals_","type":"uint8","internalType":"uint8"},{"name":"totalSupply_","type":"uint256","internalType":"uint256"},{"name":"serviceFeeReceiver_","type":"address","internalType":"address"},{"name":"serviceFee_","type":"uint256","internalType":"uint256"},{"name":"transferTaxBps_","type":"uint256","internalType":"uint256"},{"name":"taxFeeRecipient_","type":"address","internalType":"address"}],"stateMutability":"payable"},{"type":"function","name":"allowance","inputs":[{"name":"owner","type":"address","internalType":"address"},{"name":"spender","type":"address","internalType":"address"}],"outputs":[{"name":"","type":"uint256","internalType":"uint256"}],"stateMutability":"view"},{"type":"function","name":"approve","inputs":[{"name":"spender","type":"address","internalType":"address"},{"name":"value","type":"uint256","internalType":"uint256"}],"outputs":[{"name":"","type":"bool","internalType":"bool"}],"stateMutability":"nonpayable"},{"type":"function","name":"balanceOf","inputs":[{"name":"account","type":"address","internalType":"address"}],"outputs":[{"name":"","type":"uint256","internalType":"uint256"}],"stateMutability":"view"},{"type":"function","name":"decimals","inputs":[],"outputs":[{"name":"","type":"uint8","internalType":"uint8"}],"stateMutability":"view"},{"type":"function","name":"getTaxFeeRecipient","inputs":[],"outputs":[{"name":"","type":"address","internalType":"address"}],"stateMutability":"view"},{"type":"function","name":"getTransferTaxBps","inputs":[],"outputs":[{"name":"","type":"uint256","internalType":"uint256"}],"stateMutability":"view"},{"type":"function","name":"mint","inputs":[{"name":"to","type":"address","internalType":"address"},{"name":"amount","type":"uint256","internalType":"uint256"}],"outputs":[],"stateMutability":"nonpayable"},{"type":"function","name":"name","inputs":[],"outputs":[{"name":"","type":"string","internalType":"string"}],"stateMutability":"view"},{"type":"function","name":"owner","inputs":[],"outputs":[{"name":"","type":"address","internalType":"address"}],"stateMutability":"view"},{"type":"function","name":"renounceOwnership","inputs":[],"outputs":[],"stateMutability":"nonpayable"},{"type":"function","name":"symbol","inputs":[],"outputs":[{"name":"","type":"string","internalType":"string"}],"stateMutability":"view"},{"type":"function","name":"totalSupply","inputs":[],"outputs":[{"name":"","type":"uint256","internalType":"uint256"}],"stateMutability":"view"},{"type":"function","name":"transfer","inputs":[{"name":"to","type":"address","internalType":"address"},{"name":"value","type":"uint256","internalType":"uint256"}],"outputs":[{"name":"","type":"bool","internalType":"bool"}],"stateMutability":"nonpayable"},{"type":"function","name":"transferFrom","inputs":[{"name":"from","type":"address","internalType":"address"},{"name":"to","type":"address","internalType":"address"},{"name":"value","type":"uint256","internalType":"uint256"}],"outputs":[{"name":"","type":"bool","internalType":"bool"}],"stateMutability":"nonpayable"},{"type":"function","name":"transferOwnership","inputs":[{"name":"newOwner","type":"address","internalType":"address"}],"outputs":[],"stateMutability":"nonpayable"},{"type":"function","name":"updateTaxFeeRecipient","inputs":[{"name":"newTaxFeeRecipient","type":"address","internalType":"address"}],"outputs":[],"stateMutability":"nonpayable"},{"type":"event","name":"Approval","inputs":[{"name":"owner","type":"address","indexed":true,"internalType":"address"},{"name":"spender","type":"address","indexed":true,"internalType":"address"},{"name":"value","type":"uint256","indexed":false,"internalType":"uint256"}],"anonymous":false},{"type":"event","name":"OwnershipTransferred","inputs":[{"name":"previousOwner","type":"address","indexed":true,"internalType":"address"},{"name":"newOwner","type":"address","indexed":true,"internalType":"address"}],"anonymous":false},{"type":"event","name":"TaxFeeRecipientUpdated","inputs":[{"name":"newTaxFeeRecipient","type":"address","indexed":false,"internalType":"address"}],"anonymous":false},{"type":"event","name":"Transfer","inputs":[{"name":"from","type":"address","indexed":true,"internalType":"address"},{"name":"to","type":"address","indexed":true,"internalType":"address"},{"name":"value","type":"uint256","indexed":false,"internalType":"uint256"}],"anonymous":false},{"type":"error","name":"ERC20InsufficientAllowance","inputs":[{"name":"spender","type":"address","internalType":"address"},{"name":"allowance","type":"uint256","internalType":"uint256"},{"name":"needed","type":"uint256","internalType":"uint256"}]},{"type":"error","name":"ERC20InsufficientBalance","inputs":[{"name":"sender","type":"address","internalType":"address"},{"name":"balance","type":"uint256","internalType":"uint256"},{"name":"needed","type":"uint256","internalType":"uint256"}]},{"type":"error","name":"ERC20InvalidApprover","inputs":[{"name":"approver","type":"address","internalType":"address"}]},{"type":"error","name":"ERC20InvalidReceiver","inputs":[{"name":"receiver","type":"address","internalType":"address"}]},{"type":"error","name":"ERC20InvalidSender","inputs":[{"name":"sender","type":"address","internalType":"address"}]},{"type":"error","name":"ERC20InvalidSpender","inputs":[{"name":"spender","type":"address","internalType":"address"}]},{"type":"error","name":"OwnableInvalidOwner","inputs":[{"name":"owner","type":"address","internalType":"address"}]},{"type":"error","name":"OwnableUnauthorizedAccount","inputs":[{"name":"account","type":"address","internalType":"address"}]}],"bytecode":{"object":"0x608060405260405162002834380380620028348339818101604052810190620000299190620008fb565b335f73ffffffffffffffffffffffffffffffffffffffff168173ffffffffffffffffffffffffffffffffffffffff16036200009d575f6040517f1e4fbdf700000000000000000000000000000000000000000000000000000000815260040162000094919062000a0e565b60405180910390fd5b620000ae81620002f460201b60201c565b508760049081620000c0919062000c57565b508660059081620000d2919062000c57565b508560065f6101000a81548160ff021916908360ff160217905550816007819055508060085f6101000a81548173ffffffffffffffffffffffffffffffffffffffff021916908373ffffffffffffffffffffffffffffffffffffffff160217905550823410156200017a576040517f08c379a0000000000000000000000000000000000000000000000000000000008152600401620001719062000d99565b60405180910390fd5b5f73ffffffffffffffffffffffffffffffffffffffff168473ffffffffffffffffffffffffffffffffffffffff1603620001eb576040517f08c379a0000000000000000000000000000000000000000000000000000000008152600401620001e29062000e07565b60405180910390fd5b5f8473ffffffffffffffffffffffffffffffffffffffff1684604051620002129062000e58565b5f6040518083038185875af1925050503d805f81146200024e576040519150601f19603f3d011682016040523d82523d5f602084013e62000253565b606091505b50509050806200029a576040517f08c379a0000000000000000000000000000000000000000000000000000000008152600401620002919062000ebc565b60405180910390fd5b620002e5620002ae620003b560201b60201c565b620002be620003dc60201b60201c565b600a620002cc919062001059565b88620002d99190620010a9565b620003f160201b60201c565b50505050505050505062001194565b5f805f9054906101000a900473ffffffffffffffffffffffffffffffffffffffff169050815f806101000a81548173ffffffffffffffffffffffffffffffffffffffff021916908373ffffffffffffffffffffffffffffffffffffffff1602179055508173ffffffffffffffffffffffffffffffffffffffff168173ffffffffffffffffffffffffffffffffffffffff167f8be0079c531659141344cd1fd0a4f28419497f9722a3daafe3b4186f6b6457e060405160405180910390a35050565b5f805f9054906101000a900473ffffffffffffffffffffffffffffffffffffffff16905090565b5f60065f9054906101000a900460ff16905090565b5f73ffffffffffffffffffffffffffffffffffffffff168273ffffffffffffffffffffffffffffffffffffffff160362000464575f6040517fec442f050000000000000000000000000000000000000000000000000000000081526004016200045b919062000a0e565b60405180910390fd5b620004775f83836200047b60201b60201c565b5050565b5f73ffffffffffffffffffffffffffffffffffffffff168373ffffffffffffffffffffffffffffffffffffffff1603620004cf578060035f828254620004c29190620010f3565b92505081905550620005a2565b5f60015f8573ffffffffffffffffffffffffffffffffffffffff1673ffffffffffffffffffffffffffffffffffffffff1681526020019081526020015f20549050818110156200055c578381836040517fe450d38c00000000000000000000000000000000000000000000000000000000815260040162000553939291906200113e565b60405180910390fd5b81810360015f8673ffffffffffffffffffffffffffffffffffffffff1673ffffffffffffffffffffffffffffffffffffffff1681526020019081526020015f2081905550505b5f73ffffffffffffffffffffffffffffffffffffffff168273ffffffffffffffffffffffffffffffffffffffff1603620005eb578060035f828254039250508190555062000636565b8060015f8473ffffffffffffffffffffffffffffffffffffffff1673ffffffffffffffffffffffffffffffffffffffff1681526020019081526020015f205f82825401925050819055505b8173ffffffffffffffffffffffffffffffffffffffff168373ffffffffffffffffffffffffffffffffffffffff167fddf252ad1be2c89b69c2b068fc378daa952ba7f163c4a11628f55a4df523b3ef8360405162000695919062001179565b60405180910390a3505050565b5f604051905090565b5f80fd5b5f80fd5b5f80fd5b5f80fd5b5f601f19601f8301169050919050565b7f4e487b71000000000000000000000000000000000000000000000000000000005f52604160045260245ffd5b6200070382620006bb565b810181811067ffffffffffffffff82111715620007255762000724620006cb565b5b80604052505050565b5f62000739620006a2565b9050620007478282620006f8565b919050565b5f67ffffffffffffffff821115620007695762000768620006cb565b5b6200077482620006bb565b9050602081019050919050565b5f5b83811015620007a057808201518184015260208101905062000783565b5f8484015250505050565b5f620007c1620007bb846200074c565b6200072e565b905082815260208101848484011115620007e057620007df620006b7565b5b620007ed84828562000781565b509392505050565b5f82601f8301126200080c576200080b620006b3565b5b81516200081e848260208601620007ab565b91505092915050565b5f60ff82169050919050565b6200083e8162000827565b811462000849575f80fd5b50565b5f815190506200085c8162000833565b92915050565b5f819050919050565b620008768162000862565b811462000881575f80fd5b50565b5f8151905062000894816200086b565b92915050565b5f73ffffffffffffffffffffffffffffffffffffffff82169050919050565b5f620008c5826200089a565b9050919050565b620008d781620008b9565b8114620008e2575f80fd5b50565b5f81519050620008f581620008cc565b92915050565b5f805f805f805f80610100898b0312156200091b576200091a620006ab565b5b5f89015167ffffffffffffffff8111156200093b576200093a620006af565b5b620009498b828c01620007f5565b985050602089015167ffffffffffffffff8111156200096d576200096c620006af565b5b6200097b8b828c01620007f5565b97505060406200098e8b828c016200084c565b9650506060620009a18b828c0162000884565b9550506080620009b48b828c01620008e5565b94505060a0620009c78b828c0162000884565b93505060c0620009da8b828c0162000884565b92505060e0620009ed8b828c01620008e5565b9150509295985092959890939650565b62000a0881620008b9565b82525050565b5f60208201905062000a235f830184620009fd565b92915050565b5f81519050919050565b7f4e487b71000000000000000000000000000000000000000000000000000000005f52602260045260245ffd5b5f600282049050600182168062000a7857607f821691505b60208210810362000a8e5762000a8d62000a33565b5b50919050565b5f819050815f5260205f209050919050565b5f6020601f8301049050919050565b5f82821b905092915050565b5f6008830262000af27fffffffffffffffffffffffffffffffffffffffffffffffffffffffffffffffff8262000ab5565b62000afe868362000ab5565b95508019841693508086168417925050509392505050565b5f819050919050565b5f62000b3f62000b3962000b338462000862565b62000b16565b62000862565b9050919050565b5f819050919050565b62000b5a8362000b1f565b62000b7262000b698262000b46565b84845462000ac1565b825550505050565b5f90565b62000b8862000b7a565b62000b9581848462000b4f565b505050565b5b8181101562000bbc5762000bb05f8262000b7e565b60018101905062000b9b565b5050565b601f82111562000c0b5762000bd58162000a94565b62000be08462000aa6565b8101602085101562000bf0578190505b62000c0862000bff8562000aa6565b83018262000b9a565b50505b505050565b5f82821c905092915050565b5f62000c2d5f198460080262000c10565b1980831691505092915050565b5f62000c47838362000c1c565b9150826002028217905092915050565b62000c628262000a29565b67ffffffffffffffff81111562000c7e5762000c7d620006cb565b5b62000c8a825462000a60565b62000c9782828562000bc0565b5f60209050601f83116001811462000ccd575f841562000cb8578287015190505b62000cc4858262000c3a565b86555062000d33565b601f19841662000cdd8662000a94565b5f5b8281101562000d065784890151825560018201915060208501945060208101905062000cdf565b8683101562000d26578489015162000d22601f89168262000c1c565b8355505b6001600288020188555050505b505050505050565b5f82825260208201905092915050565b7f496e73756666696369656e742066656520616d6f756e742073656e74000000005f82015250565b5f62000d81601c8362000d3b565b915062000d8e8262000d4b565b602082019050919050565b5f6020820190508181035f83015262000db28162000d73565b9050919050565b7f496e76616c6964206665652072656365697665722061646472657373000000005f82015250565b5f62000def601c8362000d3b565b915062000dfc8262000db9565b602082019050919050565b5f6020820190508181035f83015262000e208162000de1565b9050919050565b5f81905092915050565b50565b5f62000e415f8362000e27565b915062000e4e8262000e31565b5f82019050919050565b5f62000e648262000e34565b9150819050919050565b7f466565207472616e73666572206661696c6564000000000000000000000000005f82015250565b5f62000ea460138362000d3b565b915062000eb18262000e6e565b602082019050919050565b5f6020820190508181035f83015262000ed58162000e96565b9050919050565b7f4e487b71000000000000000000000000000000000000000000000000000000005f52601160045260245ffd5b5f8160011c9050919050565b5f808291508390505b600185111562000f665780860481111562000f3e5762000f3d62000edc565b5b600185161562000f4e5780820291505b808102905062000f5e8562000f09565b945062000f1e565b94509492505050565b5f8262000f80576001905062001052565b8162000f8f575f905062001052565b816001811462000fa8576002811462000fb35762000fe9565b600191505062001052565b60ff84111562000fc85762000fc762000edc565b5b8360020a91508482111562000fe25762000fe162000edc565b5b5062001052565b5060208310610133831016604e8410600b8410161715620010235782820a9050838111156200101d576200101c62000edc565b5b62001052565b62001032848484600162000f15565b925090508184048111156200104c576200104b62000edc565b5b81810290505b9392505050565b5f620010658262000862565b9150620010728362000827565b9250620010a17fffffffffffffffffffffffffffffffffffffffffffffffffffffffffffffffff848462000f6f565b905092915050565b5f620010b58262000862565b9150620010c28362000862565b9250828202620010d28162000862565b91508282048414831517620010ec57620010eb62000edc565b5b5092915050565b5f620010ff8262000862565b91506200110c8362000862565b925082820190508082111562001127576200112662000edc565b5b92915050565b620011388162000862565b82525050565b5f606082019050620011535f830186620009fd565b6200116260208301856200112d565b6200117160408301846200112d565b949350505050565b5f6020820190506200118e5f8301846200112d565b92915050565b61169280620011a25f395ff3fe608060405234801561000f575f80fd5b50600436106100fe575f3560e01c8063715018a61161009557806395d89b411161006457806395d89b4114610288578063a9059cbb146102a6578063dd62ed3e146102d6578063f2fde38b14610306576100fe565b8063715018a614610226578063743bfe70146102305780638baace251461024e5780638da5cb5b1461026a576100fe565b806323b872dd116100d157806323b872dd1461018c578063313ce567146101bc57806340c10f19146101da57806370a08231146101f6576100fe565b806303073dfc1461010257806306fdde0314610120578063095ea7b31461013e57806318160ddd1461016e575b5f80fd5b61010a610322565b60405161011791906111ef565b60405180910390f35b61012861034a565b6040516101359190611292565b60405180910390f35b61015860048036038101906101539190611313565b6103da565b604051610165919061136b565b60405180910390f35b6101766103fc565b6040516101839190611393565b60405180910390f35b6101a660048036038101906101a191906113ac565b610405565b6040516101b3919061136b565b60405180910390f35b6101c4610433565b6040516101d19190611417565b60405180910390f35b6101f460048036038101906101ef9190611313565b610448565b005b610210600480360381019061020b9190611430565b61045e565b60405161021d9190611393565b60405180910390f35b61022e6104a4565b005b6102386104b7565b6040516102459190611393565b60405180910390f35b61026860048036038101906102639190611430565b6104c0565b005b610272610542565b60405161027f91906111ef565b60405180910390f35b610290610569565b60405161029d9190611292565b60405180910390f35b6102c060048036038101906102bb9190611313565b6105f9565b6040516102cd919061136b565b60405180910390f35b6102f060048036038101906102eb919061145b565b61095c565b6040516102fd9190611393565b60405180910390f35b610320600480360381019061031b9190611430565b6109de565b005b5f60085f9054906101000a900473ffffffffffffffffffffffffffffffffffffffff16905090565b606060048054610359906114c6565b80601f0160208091040260200160405190810160405280929190818152602001828054610385906114c6565b80156103d05780601f106103a7576101008083540402835291602001916103d0565b820191905f5260205f20905b8154815290600101906020018083116103b357829003601f168201915b5050505050905090565b5f806103e4610a62565b90506103f1818585610a69565b600191505092915050565b5f600354905090565b5f8061040f610a62565b905061041c858285610a7b565b610427858585610b0e565b60019150509392505050565b5f60065f9054906101000a900460ff16905090565b610450610bfe565b61045a8282610c85565b5050565b5f60015f8373ffffffffffffffffffffffffffffffffffffffff1673ffffffffffffffffffffffffffffffffffffffff1681526020019081526020015f20549050919050565b6104ac610bfe565b6104b55f610d04565b565b5f600754905090565b6104c8610bfe565b8060085f6101000a81548173ffffffffffffffffffffffffffffffffffffffff021916908373ffffffffffffffffffffffffffffffffffffffff1602179055507f3ca9233bd3849737ab1049144180bc625db2d51ca2c5ce949e7209eb32faa3a28160405161053791906111ef565b60405180910390a150565b5f805f9054906101000a900473ffffffffffffffffffffffffffffffffffffffff16905090565b606060058054610578906114c6565b80601f01602080910402602001604051908101604052809291908181526020018280546105a4906114c6565b80156105ef5780601f106105c6576101008083540402835291602001916105ef565b820191905f5260205f20905b8154815290600101906020018083116105d257829003601f168201915b5050505050905090565b5f80610603610a62565b90505f612710600754856106179190611523565b6106219190611591565b90505f818561063091906115c1565b90508460015f8573ffffffffffffffffffffffffffffffffffffffff1673ffffffffffffffffffffffffffffffffffffffff1681526020019081526020015f205410156106f5578260015f8573ffffffffffffffffffffffffffffffffffffffff1673ffffffffffffffffffffffffffffffffffffffff1681526020019081526020015f2054866040517fe450d38c0000000000000000000000000000000000000000000000000000000081526004016106ec939291906115f4565b60405180910390fd5b8460015f8573ffffffffffffffffffffffffffffffffffffffff1673ffffffffffffffffffffffffffffffffffffffff1681526020019081526020015f205f82825461074191906115c1565b925050819055508060015f8873ffffffffffffffffffffffffffffffffffffffff1673ffffffffffffffffffffffffffffffffffffffff1681526020019081526020015f205f8282546107949190611629565b925050819055505f73ffffffffffffffffffffffffffffffffffffffff1660085f9054906101000a900473ffffffffffffffffffffffffffffffffffffffff1673ffffffffffffffffffffffffffffffffffffffff1614610864578160015f60085f9054906101000a900473ffffffffffffffffffffffffffffffffffffffff1673ffffffffffffffffffffffffffffffffffffffff1673ffffffffffffffffffffffffffffffffffffffff1681526020019081526020015f205f82825461085c9190611629565b925050819055505b8573ffffffffffffffffffffffffffffffffffffffff168373ffffffffffffffffffffffffffffffffffffffff167fddf252ad1be2c89b69c2b068fc378daa952ba7f163c4a11628f55a4df523b3ef836040516108c19190611393565b60405180910390a360085f9054906101000a900473ffffffffffffffffffffffffffffffffffffffff1673ffffffffffffffffffffffffffffffffffffffff168373ffffffffffffffffffffffffffffffffffffffff167fddf252ad1be2c89b69c2b068fc378daa952ba7f163c4a11628f55a4df523b3ef846040516109479190611393565b60405180910390a36001935050505092915050565b5f60025f8473ffffffffffffffffffffffffffffffffffffffff1673ffffffffffffffffffffffffffffffffffffffff1681526020019081526020015f205f8373ffffffffffffffffffffffffffffffffffffffff1673ffffffffffffffffffffffffffffffffffffffff1681526020019081526020015f2054905092915050565b6109e6610bfe565b5f73ffffffffffffffffffffffffffffffffffffffff168173ffffffffffffffffffffffffffffffffffffffff1603610a56575f6040517f1e4fbdf7000000000000000000000000000000000000000000000000000000008152600401610a4d91906111ef565b60405180910390fd5b610a5f81610d04565b50565b5f33905090565b610a768383836001610dc5565b505050565b5f610a86848461095c565b90507fffffffffffffffffffffffffffffffffffffffffffffffffffffffffffffffff811015610b085781811015610af9578281836040517ffb8f41b2000000000000000000000000000000000000000000000000000000008152600401610af0939291906115f4565b60405180910390fd5b610b0784848484035f610dc5565b5b50505050565b5f73ffffffffffffffffffffffffffffffffffffffff168373ffffffffffffffffffffffffffffffffffffffff1603610b7e575f6040517f96c6fd1e000000000000000000000000000000000000000000000000000000008152600401610b7591906111ef565b60405180910390fd5b5f73ffffffffffffffffffffffffffffffffffffffff168273ffffffffffffffffffffffffffffffffffffffff1603610bee575f6040517fec442f05000000000000000000000000000000000000000000000000000000008152600401610be591906111ef565b60405180910390fd5b610bf9838383610f94565b505050565b610c06610a62565b73ffffffffffffffffffffffffffffffffffffffff16610c24610542565b73ffffffffffffffffffffffffffffffffffffffff1614610c8357610c47610a62565b6040517f118cdaa7000000000000000000000000000000000000000000000000000000008152600401610c7a91906111ef565b60405180910390fd5b565b5f73ffffffffffffffffffffffffffffffffffffffff168273ffffffffffffffffffffffffffffffffffffffff1603610cf5575f6040517fec442f05000000000000000000000000000000000000000000000000000000008152600401610cec91906111ef565b60405180910390fd5b610d005f8383610f94565b5050565b5f805f9054906101000a900473ffffffffffffffffffffffffffffffffffffffff169050815f806101000a81548173ffffffffffffffffffffffffffffffffffffffff021916908373ffffffffffffffffffffffffffffffffffffffff1602179055508173ffffffffffffffffffffffffffffffffffffffff168173ffffffffffffffffffffffffffffffffffffffff167f8be0079c531659141344cd1fd0a4f28419497f9722a3daafe3b4186f6b6457e060405160405180910390a35050565b5f73ffffffffffffffffffffffffffffffffffffffff168473ffffffffffffffffffffffffffffffffffffffff1603610e35575f6040517fe602df05000000000000000000000000000000000000000000000000000000008152600401610e2c91906111ef565b60405180910390fd5b5f73ffffffffffffffffffffffffffffffffffffffff168373ffffffffffffffffffffffffffffffffffffffff1603610ea5575f6040517f94280d62000000000000000000000000000000000000000000000000000000008152600401610e9c91906111ef565b60405180910390fd5b8160025f8673ffffffffffffffffffffffffffffffffffffffff1673ffffffffffffffffffffffffffffffffffffffff1681526020019081526020015f205f8573ffffffffffffffffffffffffffffffffffffffff1673ffffffffffffffffffffffffffffffffffffffff1681526020019081526020015f20819055508015610f8e578273ffffffffffffffffffffffffffffffffffffffff168473ffffffffffffffffffffffffffffffffffffffff167f8c5be1e5ebec7d5bd14f71427d1e84f3dd0314c0f7b2291e5b200ac8c7c3b92584604051610f859190611393565b60405180910390a35b50505050565b5f73ffffffffffffffffffffffffffffffffffffffff168373ffffffffffffffffffffffffffffffffffffffff1603610fe4578060035f828254610fd89190611629565b925050819055506110b4565b5f60015f8573ffffffffffffffffffffffffffffffffffffffff1673ffffffffffffffffffffffffffffffffffffffff1681526020019081526020015f205490508181101561106e578381836040517fe450d38c000000000000000000000000000000000000000000000000000000008152600401611065939291906115f4565b60405180910390fd5b81810360015f8673ffffffffffffffffffffffffffffffffffffffff1673ffffffffffffffffffffffffffffffffffffffff1681526020019081526020015f2081905550505b5f73ffffffffffffffffffffffffffffffffffffffff168273ffffffffffffffffffffffffffffffffffffffff16036110fb578060035f8282540392505081905550611146565b8060015f8473ffffffffffffffffffffffffffffffffffffffff1673ffffffffffffffffffffffffffffffffffffffff1681526020019081526020015f205f82825401925050819055505b8173ffffffffffffffffffffffffffffffffffffffff168373ffffffffffffffffffffffffffffffffffffffff167fddf252ad1be2c89b69c2b068fc378daa952ba7f163c4a11628f55a4df523b3ef836040516111a39190611393565b60405180910390a3505050565b5f73ffffffffffffffffffffffffffffffffffffffff82169050919050565b5f6111d9826111b0565b9050919050565b6111e9816111cf565b82525050565b5f6020820190506112025f8301846111e0565b92915050565b5f81519050919050565b5f82825260208201905092915050565b5f5b8381101561123f578082015181840152602081019050611224565b5f8484015250505050565b5f601f19601f8301169050919050565b5f61126482611208565b61126e8185611212565b935061127e818560208601611222565b6112878161124a565b840191505092915050565b5f6020820190508181035f8301526112aa818461125a565b905092915050565b5f80fd5b6112bf816111cf565b81146112c9575f80fd5b50565b5f813590506112da816112b6565b92915050565b5f819050919050565b6112f2816112e0565b81146112fc575f80fd5b50565b5f8135905061130d816112e9565b92915050565b5f8060408385031215611329576113286112b2565b5b5f611336858286016112cc565b9250506020611347858286016112ff565b9150509250929050565b5f8115159050919050565b61136581611351565b82525050565b5f60208201905061137e5f83018461135c565b92915050565b61138d816112e0565b82525050565b5f6020820190506113a65f830184611384565b92915050565b5f805f606084860312156113c3576113c26112b2565b5b5f6113d0868287016112cc565b93505060206113e1868287016112cc565b92505060406113f2868287016112ff565b9150509250925092565b5f60ff82169050919050565b611411816113fc565b82525050565b5f60208201905061142a5f830184611408565b92915050565b5f60208284031215611445576114446112b2565b5b5f611452848285016112cc565b91505092915050565b5f8060408385031215611471576114706112b2565b5b5f61147e858286016112cc565b925050602061148f858286016112cc565b9150509250929050565b7f4e487b71000000000000000000000000000000000000000000000000000000005f52602260045260245ffd5b5f60028204905060018216806114dd57607f821691505b6020821081036114f0576114ef611499565b5b50919050565b7f4e487b71000000000000000000000000000000000000000000000000000000005f52601160045260245ffd5b5f61152d826112e0565b9150611538836112e0565b9250828202611546816112e0565b9150828204841483151761155d5761155c6114f6565b5b5092915050565b7f4e487b71000000000000000000000000000000000000000000000000000000005f52601260045260245ffd5b5f61159b826112e0565b91506115a6836112e0565b9250826115b6576115b5611564565b5b828204905092915050565b5f6115cb826112e0565b91506115d6836112e0565b92508282039050818111156115ee576115ed6114f6565b5b92915050565b5f6060820190506116075f8301866111e0565b6116146020830185611384565b6116216040830184611384565b949350505050565b5f611633826112e0565b915061163e836112e0565b9250828201905080821115611656576116556114f6565b5b9291505056fea26469706673582212203f4979298a935d6dd02dc222747bcda650228ac78fd47eb4899ceed7ec95d2e664736f6c63430008170033","linkReferences":{}},"methodIdentifiers":{"allowance(address,address)":"dd62ed3e","approve(address,uint256)":"095ea7b3","balanceOf(address)":"70a08231","decimals()":"313ce567","getTaxFeeRecipient()":"03073dfc","getTransferTaxBps()":"743bfe70","mint(address,uint256)":"40c10f19","name()":"06fdde03","owner()":"8da5cb5b","renounceOwnership()":"715018a6","symbol()":"95d89b41","totalSupply()":"18160ddd","transfer(address,uint256)":"a9059cbb","transferFrom(address,address,uint256)":"23b872dd","transferOwnership(address)":"f2fde38b","updateTaxFeeRecipient(address)":"8baace25"},"id":21}