{
    "abi": [
        {
            "inputs": [
                {
                    "internalType": "string",
                    "name": "name_",
                    "type": "string"
                },
                {
                    "internalType": "string",
                    "name": "symbol_",
                    "type": "string"
                },
                {
                    "internalType": "uint8",
                    "name": "decimals_",
                    "type": "uint8"
                },
                {
                    "internalType": "uint256",
                    "name": "totalSupply_",
                    "type": "uint256"
                },
                {
                    "internalType": "uint256",
                    "name": "cap_",
                    "type": "uint256"
                },
                {
                    "internalType": "address",
                    "name": "serviceFeeReceiver_",
                    "type": "address"
                },
                {
                    "internalType": "uint256",
                    "name": "serviceFee_",
                    "type": "uint256"
                }
            ],
            "stateMutability": "payable",
            "type": "constructor"
        },
        {
            "inputs": [
                {
                    "internalType": "address",
                    "name": "spender",
                    "type": "address"
                },
                {
                    "internalType": "uint256",
                    "name": "allowance",
                    "type": "uint256"
                },
                {
                    "internalType": "uint256",
                    "name": "needed",
                    "type": "uint256"
                }
            ],
            "name": "ERC20InsufficientAllowance",
            "type": "error"
        },
        {
            "inputs": [
                {
                    "internalType": "address",
                    "name": "sender",
                    "type": "address"
                },
                {
                    "internalType": "uint256",
                    "name": "balance",
                    "type": "uint256"
                },
                {
                    "internalType": "uint256",
                    "name": "needed",
                    "type": "uint256"
                }
            ],
            "name": "ERC20InsufficientBalance",
            "type": "error"
        },
        {
            "inputs": [
                {
                    "internalType": "address",
                    "name": "approver",
                    "type": "address"
                }
            ],
            "name": "ERC20InvalidApprover",
            "type": "error"
        },
        {
            "inputs": [
                {
                    "internalType": "address",
                    "name": "receiver",
                    "type": "address"
                }
            ],
            "name": "ERC20InvalidReceiver",
            "type": "error"
        },
        {
            "inputs": [
                {
                    "internalType": "address",
                    "name": "sender",
                    "type": "address"
                }
            ],
            "name": "ERC20InvalidSender",
            "type": "error"
        },
        {
            "inputs": [
                {
                    "internalType": "address",
                    "name": "spender",
                    "type": "address"
                }
            ],
            "name": "ERC20InvalidSpender",
            "type": "error"
        },
        {
            "inputs": [
                {
                    "internalType": "address",
                    "name": "owner",
                    "type": "address"
                }
            ],
            "name": "OwnableInvalidOwner",
            "type": "error"
        },
        {
            "inputs": [
                {
                    "internalType": "address",
                    "name": "account",
                    "type": "address"
                }
            ],
            "name": "OwnableUnauthorizedAccount",
            "type": "error"
        },
        {
            "anonymous": false,
            "inputs": [
                {
                    "indexed": true,
                    "internalType": "address",
                    "name": "owner",
                    "type": "address"
                },
                {
                    "indexed": true,
                    "internalType": "address",
                    "name": "spender",
                    "type": "address"
                },
                {
                    "indexed": false,
                    "internalType": "uint256",
                    "name": "value",
                    "type": "uint256"
                }
            ],
            "name": "Approval",
            "type": "event"
        },
        {
            "anonymous": false,
            "inputs": [
                {
                    "indexed": true,
                    "internalType": "address",
                    "name": "previousOwner",
                    "type": "address"
                },
                {
                    "indexed": true,
                    "internalType": "address",
                    "name": "newOwner",
                    "type": "address"
                }
            ],
            "name": "OwnershipTransferred",
            "type": "event"
        },
        {
            "anonymous": false,
            "inputs": [
                {
                    "indexed": true,
                    "internalType": "address",
                    "name": "from",
                    "type": "address"
                },
                {
                    "indexed": true,
                    "internalType": "address",
                    "name": "to",
                    "type": "address"
                },
                {
                    "indexed": false,
                    "internalType": "uint256",
                    "name": "value",
                    "type": "uint256"
                }
            ],
            "name": "Transfer",
            "type": "event"
        },
        {
            "inputs": [
                {
                    "internalType": "address",
                    "name": "owner",
                    "type": "address"
                },
                {
                    "internalType": "address",
                    "name": "spender",
                    "type": "address"
                }
            ],
            "name": "allowance",
            "outputs": [
                {
                    "internalType": "uint256",
                    "name": "",
                    "type": "uint256"
                }
            ],
            "stateMutability": "view",
            "type": "function"
        },
        {
            "inputs": [
                {
                    "internalType": "address",
                    "name": "spender",
                    "type": "address"
                },
                {
                    "internalType": "uint256",
                    "name": "value",
                    "type": "uint256"
                }
            ],
            "name": "approve",
            "outputs": [
                {
                    "internalType": "bool",
                    "name": "",
                    "type": "bool"
                }
            ],
            "stateMutability": "nonpayable",
            "type": "function"
        },
        {
            "inputs": [
                {
                    "internalType": "address",
                    "name": "account",
                    "type": "address"
                }
            ],
            "name": "balanceOf",
            "outputs": [
                {
                    "internalType": "uint256",
                    "name": "",
                    "type": "uint256"
                }
            ],
            "stateMutability": "view",
            "type": "function"
        },
        {
            "inputs": [
                {
                    "internalType": "uint256",
                    "name": "value",
                    "type": "uint256"
                }
            ],
            "name": "burn",
            "outputs": [],
            "stateMutability": "nonpayable",
            "type": "function"
        },
        {
            "inputs": [
                {
                    "internalType": "address",
                    "name": "account",
                    "type": "address"
                },
                {
                    "internalType": "uint256",
                    "name": "value",
                    "type": "uint256"
                }
            ],
            "name": "burnFrom",
            "outputs": [],
            "stateMutability": "nonpayable",
            "type": "function"
        },
        {
            "inputs": [],
            "name": "cap",
            "outputs": [
                {
                    "internalType": "uint256",
                    "name": "",
                    "type": "uint256"
                }
            ],
            "stateMutability": "view",
            "type": "function"
        },
        {
            "inputs": [],
            "name": "decimals",
            "outputs": [
                {
                    "internalType": "uint8",
                    "name": "",
                    "type": "uint8"
                }
            ],
            "stateMutability": "view",
            "type": "function"
        },
        {
            "inputs": [
                {
                    "internalType": "address",
                    "name": "to",
                    "type": "address"
                },
                {
                    "internalType": "uint256",
                    "name": "amount",
                    "type": "uint256"
                }
            ],
            "name": "mint",
            "outputs": [],
            "stateMutability": "nonpayable",
            "type": "function"
        },
        {
            "inputs": [],
            "name": "name",
            "outputs": [
                {
                    "internalType": "string",
                    "name": "",
                    "type": "string"
                }
            ],
            "stateMutability": "view",
            "type": "function"
        },
        {
            "inputs": [],
            "name": "owner",
            "outputs": [
                {
                    "internalType": "address",
                    "name": "",
                    "type": "address"
                }
            ],
            "stateMutability": "view",
            "type": "function"
        },
        {
            "inputs": [],
            "name": "renounceOwnership",
            "outputs": [],
            "stateMutability": "nonpayable",
            "type": "function"
        },
        {
            "inputs": [],
            "name": "symbol",
            "outputs": [
                {
                    "internalType": "string",
                    "name": "",
                    "type": "string"
                }
            ],
            "stateMutability": "view",
            "type": "function"
        },
        {
            "inputs": [],
            "name": "totalSupply",
            "outputs": [
                {
                    "internalType": "uint256",
                    "name": "",
                    "type": "uint256"
                }
            ],
            "stateMutability": "view",
            "type": "function"
        },
        {
            "inputs": [
                {
                    "internalType": "address",
                    "name": "to",
                    "type": "address"
                },
                {
                    "internalType": "uint256",
                    "name": "value",
                    "type": "uint256"
                }
            ],
            "name": "transfer",
            "outputs": [
                {
                    "internalType": "bool",
                    "name": "",
                    "type": "bool"
                }
            ],
            "stateMutability": "nonpayable",
            "type": "function"
        },
        {
            "inputs": [
                {
                    "internalType": "address",
                    "name": "from",
                    "type": "address"
                },
                {
                    "internalType": "address",
                    "name": "to",
                    "type": "address"
                },
                {
                    "internalType": "uint256",
                    "name": "value",
                    "type": "uint256"
                }
            ],
            "name": "transferFrom",
            "outputs": [
                {
                    "internalType": "bool",
                    "name": "",
                    "type": "bool"
                }
            ],
            "stateMutability": "nonpayable",
            "type": "function"
        },
        {
            "inputs": [
                {
                    "internalType": "address",
                    "name": "newOwner",
                    "type": "address"
                }
            ],
            "name": "transferOwnership",
            "outputs": [],
            "stateMutability": "nonpayable",
            "type": "function"
        }
    ],
    "bytecode": {
        "object": "0x60806040526040516113b13803806113b1833981016040819052610022916105a5565b338061004857604051631e4fbdf760e01b81525f60048201526024015b60405180910390fd5b610051816102c0565b50600461005e88826106d6565b50600561006b87826106d6565b506006805460ff191660ff8716179055826100c85760405162461bcd60e51b815260206004820152601c60248201527f4361702073686f756c642062652067726561746572207468616e203000000000604482015260640161003f565b600783905560065460ff166100de90600a610889565b6007546100eb919061089e565b84111561013a5760405162461bcd60e51b815260206004820152601960248201527f45524332304361707065643a2063617020657863656564656400000000000000604482015260640161003f565b8034101561018a5760405162461bcd60e51b815260206004820152601c60248201527f496e73756666696369656e742066656520616d6f756e742073656e7400000000604482015260640161003f565b6001600160a01b0382166101e05760405162461bcd60e51b815260206004820152601c60248201527f496e76616c696420666565207265636569766572206164647265737300000000604482015260640161003f565b5f826001600160a01b0316826040515f6040518083038185875af1925050503d805f8114610229576040519150601f19603f3d011682016040523d82523d5f602084013e61022e565b606091505b505090508061027f5760405162461bcd60e51b815260206004820152601360248201527f466565207472616e73666572206661696c656400000000000000000000000000604482015260640161003f565b6102b36102935f546001600160a01b031690565b60065460ff166102a490600a610889565b6102ae908861089e565b61030f565b50505050505050506108c8565b5f80546001600160a01b038381166001600160a01b0319831681178455604051919092169283917f8be0079c531659141344cd1fd0a4f28419497f9722a3daafe3b4186f6b6457e09190a35050565b60065460ff1661032090600a610889565b60075461032d919061089e565b8161033760035490565b61034191906108b5565b111561038f5760405162461bcd60e51b815260206004820152601960248201527f45524332304361707065643a2063617020657863656564656400000000000000604482015260640161003f565b6001600160a01b0382166103b85760405163ec442f0560e01b81525f600482015260240161003f565b6103c35f83836103c7565b5050565b6001600160a01b0383166103f1578060035f8282546103e691906108b5565b909155506104619050565b6001600160a01b0383165f90815260016020526040902054818110156104435760405163391434e360e21b81526001600160a01b0385166004820152602481018290526044810183905260640161003f565b6001600160a01b0384165f9081526001602052604090209082900390555b6001600160a01b03821661047d5760038054829003905561049b565b6001600160a01b0382165f9081526001602052604090208054820190555b816001600160a01b0316836001600160a01b03167fddf252ad1be2c89b69c2b068fc378daa952ba7f163c4a11628f55a4df523b3ef836040516104e091815260200190565b60405180910390a3505050565b634e487b7160e01b5f52604160045260245ffd5b5f82601f830112610510575f80fd5b81516001600160401b03811115610529576105296104ed565b604051601f8201601f19908116603f011681016001600160401b0381118282101715610557576105576104ed565b60405281815283820160200185101561056e575f80fd5b8160208501602083015e5f918101602001919091529392505050565b80516001600160a01b03811681146105a0575f80fd5b919050565b5f805f805f805f60e0888a0312156105bb575f80fd5b87516001600160401b038111156105d0575f80fd5b6105dc8a828b01610501565b60208a015190985090506001600160401b038111156105f9575f80fd5b6106058a828b01610501565b965050604088015160ff8116811461061b575f80fd5b606089015160808a01519196509450925061063860a0890161058a565b91505f60c089015190508091505092959891949750929550565b600181811c9082168061066657607f821691505b60208210810361068457634e487b7160e01b5f52602260045260245ffd5b50919050565b601f8211156106d157805f5260205f20601f840160051c810160208510156106af5750805b601f840160051c820191505b818110156106ce575f81556001016106bb565b50505b505050565b81516001600160401b038111156106ef576106ef6104ed565b610703816106fd8454610652565b8461068a565b6020601f821160018114610735575f831561071e5750848201515b5f19600385901b1c1916600184901b1784556106ce565b5f84815260208120601f198516915b828110156107645787850151825560209485019460019092019101610744565b508482101561078157868401515f19600387901b60f8161c191681555b50505050600190811b01905550565b634e487b7160e01b5f52601160045260245ffd5b6001815b60018411156107df578085048111156107c3576107c3610790565b60018416156107d157908102905b60019390931c9280026107a8565b935093915050565b5f826107f557506001610883565b8161080157505f610883565b816001811461081757600281146108215761083d565b6001915050610883565b60ff84111561083257610832610790565b50506001821b610883565b5060208310610133831016604e8410600b8410161715610860575081810a610883565b61086c5f1984846107a4565b805f190482111561087f5761087f610790565b0290505b92915050565b5f61089760ff8416836107e7565b9392505050565b808202811582820484141761088357610883610790565b8082018082111561088357610883610790565b610adc806108d55f395ff3fe608060405234801561000f575f80fd5b50600436106100fb575f3560e01c806370a082311161009357806395d89b411161006357806395d89b4114610207578063a9059cbb1461020f578063dd62ed3e14610222578063f2fde38b1461025a575f80fd5b806370a08231146101aa578063715018a6146101d257806379cc6790146101da5780638da5cb5b146101ed575f80fd5b8063313ce567116100ce578063313ce56714610165578063355274ea1461017a57806340c10f191461018257806342966c6814610197575f80fd5b806306fdde03146100ff578063095ea7b31461011d57806318160ddd1461014057806323b872dd14610152575b5f80fd5b61010761026d565b6040516101149190610825565b60405180910390f35b61013061012b366004610875565b6102fd565b6040519015158152602001610114565b6003545b604051908152602001610114565b61013061016036600461089d565b610316565b60065460405160ff9091168152602001610114565b600754610144565b610195610190366004610875565b610339565b005b6101956101a53660046108d7565b61034f565b6101446101b83660046108ee565b6001600160a01b03165f9081526001602052604090205490565b61019561035c565b6101956101e8366004610875565b61036f565b5f546040516001600160a01b039091168152602001610114565b610107610384565b61013061021d366004610875565b610393565b61014461023036600461090e565b6001600160a01b039182165f90815260026020908152604080832093909416825291909152205490565b6101956102683660046108ee565b6103a0565b60606004805461027c9061093f565b80601f01602080910402602001604051908101604052809291908181526020018280546102a89061093f565b80156102f35780601f106102ca576101008083540402835291602001916102f3565b820191905f5260205f20905b8154815290600101906020018083116102d657829003601f168201915b5050505050905090565b5f3361030a8185856103df565b60019150505b92915050565b5f336103238582856103f1565b61032e85858561046d565b506001949350505050565b6103416104ca565b61034b82826104f6565b5050565b61035933826105aa565b50565b6103646104ca565b61036d5f6105de565b565b61037a8233836103f1565b61034b82826105aa565b60606005805461027c9061093f565b5f3361030a81858561046d565b6103a86104ca565b6001600160a01b0381166103d657604051631e4fbdf760e01b81525f60048201526024015b60405180910390fd5b610359816105de565b6103ec838383600161062d565b505050565b6001600160a01b038381165f908152600260209081526040808320938616835292905220545f19811015610467578181101561045957604051637dc7a0d960e11b81526001600160a01b038416600482015260248101829052604481018390526064016103cd565b61046784848484035f61062d565b50505050565b6001600160a01b03831661049657604051634b637e8f60e11b81525f60048201526024016103cd565b6001600160a01b0382166104bf5760405163ec442f0560e01b81525f60048201526024016103cd565b6103ec8383836106ff565b5f546001600160a01b0316331461036d5760405163118cdaa760e01b81523360048201526024016103cd565b60065460ff1661050790600a610a6e565b6007546105149190610a7c565b8161051e60035490565b6105289190610a93565b11156105765760405162461bcd60e51b815260206004820152601960248201527f45524332304361707065643a206361702065786365656465640000000000000060448201526064016103cd565b6001600160a01b03821661059f5760405163ec442f0560e01b81525f60048201526024016103cd565b61034b5f83836106ff565b6001600160a01b0382166105d357604051634b637e8f60e11b81525f60048201526024016103cd565b61034b825f836106ff565b5f80546001600160a01b038381166001600160a01b0319831681178455604051919092169283917f8be0079c531659141344cd1fd0a4f28419497f9722a3daafe3b4186f6b6457e09190a35050565b6001600160a01b0384166106565760405163e602df0560e01b81525f60048201526024016103cd565b6001600160a01b03831661067f57604051634a1406b160e11b81525f60048201526024016103cd565b6001600160a01b038085165f908152600260209081526040808320938716835292905220829055801561046757826001600160a01b0316846001600160a01b03167f8c5be1e5ebec7d5bd14f71427d1e84f3dd0314c0f7b2291e5b200ac8c7c3b925846040516106f191815260200190565b60405180910390a350505050565b6001600160a01b038316610729578060035f82825461071e9190610a93565b909155506107999050565b6001600160a01b0383165f908152600160205260409020548181101561077b5760405163391434e360e21b81526001600160a01b038516600482015260248101829052604481018390526064016103cd565b6001600160a01b0384165f9081526001602052604090209082900390555b6001600160a01b0382166107b5576003805482900390556107d3565b6001600160a01b0382165f9081526001602052604090208054820190555b816001600160a01b0316836001600160a01b03167fddf252ad1be2c89b69c2b068fc378daa952ba7f163c4a11628f55a4df523b3ef8360405161081891815260200190565b60405180910390a3505050565b602081525f82518060208401528060208501604085015e5f604082850101526040601f19601f83011684010191505092915050565b80356001600160a01b0381168114610870575f80fd5b919050565b5f8060408385031215610886575f80fd5b61088f8361085a565b946020939093013593505050565b5f805f606084860312156108af575f80fd5b6108b88461085a565b92506108c66020850161085a565b929592945050506040919091013590565b5f602082840312156108e7575f80fd5b5035919050565b5f602082840312156108fe575f80fd5b6109078261085a565b9392505050565b5f806040838503121561091f575f80fd5b6109288361085a565b91506109366020840161085a565b90509250929050565b600181811c9082168061095357607f821691505b60208210810361097157634e487b7160e01b5f52602260045260245ffd5b50919050565b634e487b7160e01b5f52601160045260245ffd5b6001815b60018411156109c6578085048111156109aa576109aa610977565b60018416156109b857908102905b60019390931c92800261098f565b935093915050565b5f826109dc57506001610310565b816109e857505f610310565b81600181146109fe5760028114610a0857610a24565b6001915050610310565b60ff841115610a1957610a19610977565b50506001821b610310565b5060208310610133831016604e8410600b8410161715610a47575081810a610310565b610a535f19848461098b565b805f1904821115610a6657610a66610977565b029392505050565b5f61090760ff8416836109ce565b808202811582820484141761031057610310610977565b808201808211156103105761031061097756fea2646970667358221220db84d0ad6bc8a127ca4c12647f067702acd583f00b6caf0087b734623e59360764736f6c634300081a0033",
        "linkReferences": {}
    },
    "deployedBytecode": {
        "object": "0x608060405234801561001057600080fd5b50600436106101005760003560e01c806370a082311161009757806395d89b411161006657806395d89b411461020f578063a9059cbb14610217578063dd62ed3e1461022a578063f2fde38b1461026357600080fd5b806370a08231146101b0578063715018a6146101d957806379cc6790146101e15780638da5cb5b146101f457600080fd5b8063313ce567116100d3578063313ce5671461016b578063355274ea1461018057806340c10f191461018857806342966c681461019d57600080fd5b806306fdde0314610105578063095ea7b31461012357806318160ddd1461014657806323b872dd14610158575b600080fd5b61010d610276565b60405161011a9190610847565b60405180910390f35b6101366101313660046108b2565b610308565b604051901515815260200161011a565b6003545b60405190815260200161011a565b6101366101663660046108dc565b610322565b60065460405160ff909116815260200161011a565b60075461014a565b61019b6101963660046108b2565b610346565b005b61019b6101ab366004610918565b61035c565b61014a6101be366004610931565b6001600160a01b031660009081526001602052604090205490565b61019b610369565b61019b6101ef3660046108b2565b61037d565b6000546040516001600160a01b03909116815260200161011a565b61010d610392565b6101366102253660046108b2565b6103a1565b61014a610238366004610953565b6001600160a01b03918216600090815260026020908152604080832093909416825291909152205490565b61019b610271366004610931565b6103af565b60606004805461028590610986565b80601f01602080910402602001604051908101604052809291908181526020018280546102b190610986565b80156102fe5780601f106102d3576101008083540402835291602001916102fe565b820191906000526020600020905b8154815290600101906020018083116102e157829003601f168201915b5050505050905090565b6000336103168185856103ef565b60019150505b92915050565b600033610330858285610401565b61033b858585610480565b506001949350505050565b61034e6104df565b610358828261050c565b5050565b61036633826105c2565b50565b6103716104df565b61037b60006105f8565b565b610388823383610401565b61035882826105c2565b60606005805461028590610986565b600033610316818585610480565b6103b76104df565b6001600160a01b0381166103e657604051631e4fbdf760e01b8152600060048201526024015b60405180910390fd5b610366816105f8565b6103fc8383836001610648565b505050565b6001600160a01b0383811660009081526002602090815260408083209386168352929052205460001981101561047a578181101561046b57604051637dc7a0d960e11b81526001600160a01b038416600482015260248101829052604481018390526064016103dd565b61047a84848484036000610648565b50505050565b6001600160a01b0383166104aa57604051634b637e8f60e11b8152600060048201526024016103dd565b6001600160a01b0382166104d45760405163ec442f0560e01b8152600060048201526024016103dd565b6103fc83838361071d565b6000546001600160a01b0316331461037b5760405163118cdaa760e01b81523360048201526024016103dd565b60065460ff1661051d90600a610aba565b60075461052a9190610ac9565b8161053460035490565b61053e9190610ae0565b111561058c5760405162461bcd60e51b815260206004820152601960248201527f45524332304361707065643a206361702065786365656465640000000000000060448201526064016103dd565b6001600160a01b0382166105b65760405163ec442f0560e01b8152600060048201526024016103dd565b6103586000838361071d565b6001600160a01b0382166105ec57604051634b637e8f60e11b8152600060048201526024016103dd565b6103588260008361071d565b600080546001600160a01b038381166001600160a01b0319831681178455604051919092169283917f8be0079c531659141344cd1fd0a4f28419497f9722a3daafe3b4186f6b6457e09190a35050565b6001600160a01b0384166106725760405163e602df0560e01b8152600060048201526024016103dd565b6001600160a01b03831661069c57604051634a1406b160e11b8152600060048201526024016103dd565b6001600160a01b038085166000908152600260209081526040808320938716835292905220829055801561047a57826001600160a01b0316846001600160a01b03167f8c5be1e5ebec7d5bd14f71427d1e84f3dd0314c0f7b2291e5b200ac8c7c3b9258460405161070f91815260200190565b60405180910390a350505050565b6001600160a01b03831661074857806003600082825461073d9190610ae0565b909155506107ba9050565b6001600160a01b0383166000908152600160205260409020548181101561079b5760405163391434e360e21b81526001600160a01b038516600482015260248101829052604481018390526064016103dd565b6001600160a01b03841660009081526001602052604090209082900390555b6001600160a01b0382166107d6576003805482900390556107f5565b6001600160a01b03821660009081526001602052604090208054820190555b816001600160a01b0316836001600160a01b03167fddf252ad1be2c89b69c2b068fc378daa952ba7f163c4a11628f55a4df523b3ef8360405161083a91815260200190565b60405180910390a3505050565b60006020808352835180602085015260005b8181101561087557858101830151858201604001528201610859565b506000604082860101526040601f19601f8301168501019250505092915050565b80356001600160a01b03811681146108ad57600080fd5b919050565b600080604083850312156108c557600080fd5b6108ce83610896565b946020939093013593505050565b6000806000606084860312156108f157600080fd5b6108fa84610896565b925061090860208501610896565b9150604084013590509250925092565b60006020828403121561092a57600080fd5b5035919050565b60006020828403121561094357600080fd5b61094c82610896565b9392505050565b6000806040838503121561096657600080fd5b61096f83610896565b915061097d60208401610896565b90509250929050565b600181811c9082168061099a57607f821691505b6020821081036109ba57634e487b7160e01b600052602260045260246000fd5b50919050565b634e487b7160e01b600052601160045260246000fd5b600181815b80851115610a115781600019048211156109f7576109f76109c0565b80851615610a0457918102915b93841c93908002906109db565b509250929050565b600082610a285750600161031c565b81610a355750600061031c565b8160018114610a4b5760028114610a5557610a71565b600191505061031c565b60ff841115610a6657610a666109c0565b50506001821b61031c565b5060208310610133831016604e8410600b8410161715610a94575081810a61031c565b610a9e83836109d6565b8060001904821115610ab257610ab26109c0565b029392505050565b600061094c60ff841683610a19565b808202811582820484141761031c5761031c6109c0565b8082018082111561031c5761031c6109c056fea2646970667358221220bd3de6de6c16d55c3464aabb8c9ad93cd055c45c423a4b59b5b31f9e81931bb964736f6c63430008170033",
        "linkReferences": {}
    },
    "methodIdentifiers": {
        "allowance(address,address)": "dd62ed3e",
        "approve(address,uint256)": "095ea7b3",
        "balanceOf(address)": "70a08231",
        "burn(uint256)": "42966c68",
        "burnFrom(address,uint256)": "79cc6790",
        "cap()": "355274ea",
        "decimals()": "313ce567",
        "mint(address,uint256)": "40c10f19",
        "name()": "06fdde03",
        "owner()": "8da5cb5b",
        "renounceOwnership()": "715018a6",
        "symbol()": "95d89b41",
        "totalSupply()": "18160ddd",
        "transfer(address,uint256)": "a9059cbb",
        "transferFrom(address,address,uint256)": "23b872dd",
        "transferOwnership(address)": "f2fde38b"
    },
    "id": 0
}