{"abi":[{"type":"constructor","inputs":[{"name":"name_","type":"string","internalType":"string"},{"name":"symbol_","type":"string","internalType":"string"},{"name":"decimals_","type":"uint8","internalType":"uint8"},{"name":"totalSupply_","type":"uint256","internalType":"uint256"},{"name":"cap_","type":"uint256","internalType":"uint256"},{"name":"serviceFeeReceiver_","type":"address","internalType":"address"},{"name":"serviceFee_","type":"uint256","internalType":"uint256"},{"name":"transferTaxBps_","type":"uint256","internalType":"uint256"},{"name":"taxFeeRecipient_","type":"address","internalType":"address"}],"stateMutability":"payable"},{"type":"function","name":"allowance","inputs":[{"name":"owner","type":"address","internalType":"address"},{"name":"spender","type":"address","internalType":"address"}],"outputs":[{"name":"","type":"uint256","internalType":"uint256"}],"stateMutability":"view"},{"type":"function","name":"approve","inputs":[{"name":"spender","type":"address","internalType":"address"},{"name":"value","type":"uint256","internalType":"uint256"}],"outputs":[{"name":"","type":"bool","internalType":"bool"}],"stateMutability":"nonpayable"},{"type":"function","name":"balanceOf","inputs":[{"name":"account","type":"address","internalType":"address"}],"outputs":[{"name":"","type":"uint256","internalType":"uint256"}],"stateMutability":"view"},{"type":"function","name":"blacklist","inputs":[{"name":"account","type":"address","internalType":"address"}],"outputs":[],"stateMutability":"nonpayable"},{"type":"function","name":"cap","inputs":[],"outputs":[{"name":"","type":"uint256","internalType":"uint256"}],"stateMutability":"view"},{"type":"function","name":"decimals","inputs":[],"outputs":[{"name":"","type":"uint8","internalType":"uint8"}],"stateMutability":"view"},{"type":"function","name":"getTaxFeeRecipient","inputs":[],"outputs":[{"name":"","type":"address","internalType":"address"}],"stateMutability":"view"},{"type":"function","name":"getTransferTaxBps","inputs":[],"outputs":[{"name":"","type":"uint256","internalType":"uint256"}],"stateMutability":"view"},{"type":"function","name":"isBlacklisted","inputs":[{"name":"account","type":"address","internalType":"address"}],"outputs":[{"name":"","type":"bool","internalType":"bool"}],"stateMutability":"view"},{"type":"function","name":"mint","inputs":[{"name":"to","type":"address","internalType":"address"},{"name":"amount","type":"uint256","internalType":"uint256"}],"outputs":[],"stateMutability":"nonpayable"},{"type":"function","name":"name","inputs":[],"outputs":[{"name":"","type":"string","internalType":"string"}],"stateMutability":"view"},{"type":"function","name":"owner","inputs":[],"outputs":[{"name":"","type":"address","internalType":"address"}],"stateMutability":"view"},{"type":"function","name":"renounceOwnership","inputs":[],"outputs":[],"stateMutability":"nonpayable"},{"type":"function","name":"symbol","inputs":[],"outputs":[{"name":"","type":"string","internalType":"string"}],"stateMutability":"view"},{"type":"function","name":"totalSupply","inputs":[],"outputs":[{"name":"","type":"uint256","internalType":"uint256"}],"stateMutability":"view"},{"type":"function","name":"transfer","inputs":[{"name":"to","type":"address","internalType":"address"},{"name":"value","type":"uint256","internalType":"uint256"}],"outputs":[{"name":"","type":"bool","internalType":"bool"}],"stateMutability":"nonpayable"},{"type":"function","name":"transferFrom","inputs":[{"name":"from","type":"address","internalType":"address"},{"name":"to","type":"address","internalType":"address"},{"name":"value","type":"uint256","internalType":"uint256"}],"outputs":[{"name":"","type":"bool","internalType":"bool"}],"stateMutability":"nonpayable"},{"type":"function","name":"transferOwnership","inputs":[{"name":"newOwner","type":"address","internalType":"address"}],"outputs":[],"stateMutability":"nonpayable"},{"type":"function","name":"unblacklist","inputs":[{"name":"account","type":"address","internalType":"address"}],"outputs":[],"stateMutability":"nonpayable"},{"type":"function","name":"updateTaxFeeRecipient","inputs":[{"name":"newTaxFeeRecipient","type":"address","internalType":"address"}],"outputs":[],"stateMutability":"nonpayable"},{"type":"event","name":"Approval","inputs":[{"name":"owner","type":"address","indexed":true,"internalType":"address"},{"name":"spender","type":"address","indexed":true,"internalType":"address"},{"name":"value","type":"uint256","indexed":false,"internalType":"uint256"}],"anonymous":false},{"type":"event","name":"Blacklisted","inputs":[{"name":"account","type":"address","indexed":true,"internalType":"address"}],"anonymous":false},{"type":"event","name":"OwnershipTransferred","inputs":[{"name":"previousOwner","type":"address","indexed":true,"internalType":"address"},{"name":"newOwner","type":"address","indexed":true,"internalType":"address"}],"anonymous":false},{"type":"event","name":"TaxFeeRecipientUpdated","inputs":[{"name":"newTaxFeeRecipient","type":"address","indexed":false,"internalType":"address"}],"anonymous":false},{"type":"event","name":"Transfer","inputs":[{"name":"from","type":"address","indexed":true,"internalType":"address"},{"name":"to","type":"address","indexed":true,"internalType":"address"},{"name":"value","type":"uint256","indexed":false,"internalType":"uint256"}],"anonymous":false},{"type":"event","name":"Unblacklisted","inputs":[{"name":"account","type":"address","indexed":true,"internalType":"address"}],"anonymous":false},{"type":"error","name":"ERC20InsufficientAllowance","inputs":[{"name":"spender","type":"address","internalType":"address"},{"name":"allowance","type":"uint256","internalType":"uint256"},{"name":"needed","type":"uint256","internalType":"uint256"}]},{"type":"error","name":"ERC20InsufficientBalance","inputs":[{"name":"sender","type":"address","internalType":"address"},{"name":"balance","type":"uint256","internalType":"uint256"},{"name":"needed","type":"uint256","internalType":"uint256"}]},{"type":"error","name":"ERC20InvalidApprover","inputs":[{"name":"approver","type":"address","internalType":"address"}]},{"type":"error","name":"ERC20InvalidReceiver","inputs":[{"name":"receiver","type":"address","internalType":"address"}]},{"type":"error","name":"ERC20InvalidSender","inputs":[{"name":"sender","type":"address","internalType":"address"}]},{"type":"error","name":"ERC20InvalidSpender","inputs":[{"name":"spender","type":"address","internalType":"address"}]},{"type":"error","name":"OwnableInvalidOwner","inputs":[{"name":"owner","type":"address","internalType":"address"}]},{"type":"error","name":"OwnableUnauthorizedAccount","inputs":[{"name":"account","type":"address","internalType":"address"}]}],"bytecode":{"object":"0x6080604052604051620038a1380380620038a1833981810160405281019062000029919062000b01565b335f73ffffffffffffffffffffffffffffffffffffffff168173ffffffffffffffffffffffffffffffffffffffff16036200009d575f6040517f1e4fbdf700000000000000000000000000000000000000000000000000000000815260040162000094919062000c29565b60405180910390fd5b620000ae81620003c060201b60201c565b508860059081620000c0919062000e72565b508760069081620000d2919062000e72565b508660075f6101000a81548160ff021916908360ff1602179055505f851162000132576040517f08c379a0000000000000000000000000000000000000000000000000000000008152600401620001299062000fb4565b60405180910390fd5b846008819055508160098190555080600a5f6101000a81548173ffffffffffffffffffffffffffffffffffffffff021916908373ffffffffffffffffffffffffffffffffffffffff160217905550620001906200048160201b60201c565b600a6200019e919062001151565b620001ae6200049660201b60201c565b620001ba9190620011a1565b861115620001ff576040517f08c379a0000000000000000000000000000000000000000000000000000000008152600401620001f69062001239565b60405180910390fd5b8234101562000245576040517f08c379a00000000000000000000000000000000000000000000000000000000081526004016200023c90620012a7565b60405180910390fd5b5f73ffffffffffffffffffffffffffffffffffffffff168473ffffffffffffffffffffffffffffffffffffffff1603620002b6576040517f08c379a0000000000000000000000000000000000000000000000000000000008152600401620002ad9062001315565b60405180910390fd5b5f8473ffffffffffffffffffffffffffffffffffffffff1684604051620002dd9062001366565b5f6040518083038185875af1925050503d805f811462000319576040519150601f19603f3d011682016040523d82523d5f602084013e6200031e565b606091505b505090508062000365576040517f08c379a00000000000000000000000000000000000000000000000000000000081526004016200035c90620013ca565b60405180910390fd5b620003b0620003796200049f60201b60201c565b620003896200048160201b60201c565b600a62000397919062001151565b89620003a49190620011a1565b620004c660201b60201c565b505050505050505050506200151f565b5f805f9054906101000a900473ffffffffffffffffffffffffffffffffffffffff169050815f806101000a81548173ffffffffffffffffffffffffffffffffffffffff021916908373ffffffffffffffffffffffffffffffffffffffff1602179055508173ffffffffffffffffffffffffffffffffffffffff168173ffffffffffffffffffffffffffffffffffffffff167f8be0079c531659141344cd1fd0a4f28419497f9722a3daafe3b4186f6b6457e060405160405180910390a35050565b5f60075f9054906101000a900460ff16905090565b5f600854905090565b5f805f9054906101000a900473ffffffffffffffffffffffffffffffffffffffff16905090565b60035f8373ffffffffffffffffffffffffffffffffffffffff1673ffffffffffffffffffffffffffffffffffffffff1681526020019081526020015f205f9054906101000a900460ff161562000553576040517f08c379a00000000000000000000000000000000000000000000000000000000081526004016200054a906200145e565b60405180910390fd5b620005636200048160201b60201c565b600a62000571919062001151565b620005816200049660201b60201c565b6200058d9190620011a1565b816200059e6200067860201b60201c565b620005aa91906200147e565b1115620005ee576040517f08c379a0000000000000000000000000000000000000000000000000000000008152600401620005e59062001239565b60405180910390fd5b5f73ffffffffffffffffffffffffffffffffffffffff168273ffffffffffffffffffffffffffffffffffffffff160362000661575f6040517fec442f0500000000000000000000000000000000000000000000000000000000815260040162000658919062000c29565b60405180910390fd5b620006745f83836200068160201b60201c565b5050565b5f600454905090565b5f73ffffffffffffffffffffffffffffffffffffffff168373ffffffffffffffffffffffffffffffffffffffff1603620006d5578060045f828254620006c891906200147e565b92505081905550620007a8565b5f60015f8573ffffffffffffffffffffffffffffffffffffffff1673ffffffffffffffffffffffffffffffffffffffff1681526020019081526020015f205490508181101562000762578381836040517fe450d38c0000000000000000000000000000000000000000000000000000000081526004016200075993929190620014c9565b60405180910390fd5b81810360015f8673ffffffffffffffffffffffffffffffffffffffff1673ffffffffffffffffffffffffffffffffffffffff1681526020019081526020015f2081905550505b5f73ffffffffffffffffffffffffffffffffffffffff168273ffffffffffffffffffffffffffffffffffffffff1603620007f1578060045f82825403925050819055506200083c565b8060015f8473ffffffffffffffffffffffffffffffffffffffff1673ffffffffffffffffffffffffffffffffffffffff1681526020019081526020015f205f82825401925050819055505b8173ffffffffffffffffffffffffffffffffffffffff168373ffffffffffffffffffffffffffffffffffffffff167fddf252ad1be2c89b69c2b068fc378daa952ba7f163c4a11628f55a4df523b3ef836040516200089b919062001504565b60405180910390a3505050565b5f604051905090565b5f80fd5b5f80fd5b5f80fd5b5f80fd5b5f601f19601f8301169050919050565b7f4e487b71000000000000000000000000000000000000000000000000000000005f52604160045260245ffd5b6200090982620008c1565b810181811067ffffffffffffffff821117156200092b576200092a620008d1565b5b80604052505050565b5f6200093f620008a8565b90506200094d8282620008fe565b919050565b5f67ffffffffffffffff8211156200096f576200096e620008d1565b5b6200097a82620008c1565b9050602081019050919050565b5f5b83811015620009a657808201518184015260208101905062000989565b5f8484015250505050565b5f620009c7620009c18462000952565b62000934565b905082815260208101848484011115620009e657620009e5620008bd565b5b620009f384828562000987565b509392505050565b5f82601f83011262000a125762000a11620008b9565b5b815162000a24848260208601620009b1565b91505092915050565b5f60ff82169050919050565b62000a448162000a2d565b811462000a4f575f80fd5b50565b5f8151905062000a628162000a39565b92915050565b5f819050919050565b62000a7c8162000a68565b811462000a87575f80fd5b50565b5f8151905062000a9a8162000a71565b92915050565b5f73ffffffffffffffffffffffffffffffffffffffff82169050919050565b5f62000acb8262000aa0565b9050919050565b62000add8162000abf565b811462000ae8575f80fd5b50565b5f8151905062000afb8162000ad2565b92915050565b5f805f805f805f805f6101208a8c03121562000b225762000b21620008b1565b5b5f8a015167ffffffffffffffff81111562000b425762000b41620008b5565b5b62000b508c828d01620009fb565b99505060208a015167ffffffffffffffff81111562000b745762000b73620008b5565b5b62000b828c828d01620009fb565b985050604062000b958c828d0162000a52565b975050606062000ba88c828d0162000a8a565b965050608062000bbb8c828d0162000a8a565b95505060a062000bce8c828d0162000aeb565b94505060c062000be18c828d0162000a8a565b93505060e062000bf48c828d0162000a8a565b92505061010062000c088c828d0162000aeb565b9150509295985092959850929598565b62000c238162000abf565b82525050565b5f60208201905062000c3e5f83018462000c18565b92915050565b5f81519050919050565b7f4e487b71000000000000000000000000000000000000000000000000000000005f52602260045260245ffd5b5f600282049050600182168062000c9357607f821691505b60208210810362000ca95762000ca862000c4e565b5b50919050565b5f819050815f5260205f209050919050565b5f6020601f8301049050919050565b5f82821b905092915050565b5f6008830262000d0d7fffffffffffffffffffffffffffffffffffffffffffffffffffffffffffffffff8262000cd0565b62000d19868362000cd0565b95508019841693508086168417925050509392505050565b5f819050919050565b5f62000d5a62000d5462000d4e8462000a68565b62000d31565b62000a68565b9050919050565b5f819050919050565b62000d758362000d3a565b62000d8d62000d848262000d61565b84845462000cdc565b825550505050565b5f90565b62000da362000d95565b62000db081848462000d6a565b505050565b5b8181101562000dd75762000dcb5f8262000d99565b60018101905062000db6565b5050565b601f82111562000e265762000df08162000caf565b62000dfb8462000cc1565b8101602085101562000e0b578190505b62000e2362000e1a8562000cc1565b83018262000db5565b50505b505050565b5f82821c905092915050565b5f62000e485f198460080262000e2b565b1980831691505092915050565b5f62000e62838362000e37565b9150826002028217905092915050565b62000e7d8262000c44565b67ffffffffffffffff81111562000e995762000e98620008d1565b5b62000ea5825462000c7b565b62000eb282828562000ddb565b5f60209050601f83116001811462000ee8575f841562000ed3578287015190505b62000edf858262000e55565b86555062000f4e565b601f19841662000ef88662000caf565b5f5b8281101562000f215784890151825560018201915060208501945060208101905062000efa565b8683101562000f41578489015162000f3d601f89168262000e37565b8355505b6001600288020188555050505b505050505050565b5f82825260208201905092915050565b7f4361702073686f756c642062652067726561746572207468616e2030000000005f82015250565b5f62000f9c601c8362000f56565b915062000fa98262000f66565b602082019050919050565b5f6020820190508181035f83015262000fcd8162000f8e565b9050919050565b7f4e487b71000000000000000000000000000000000000000000000000000000005f52601160045260245ffd5b5f8160011c9050919050565b5f808291508390505b60018511156200105e5780860481111562001036576200103562000fd4565b5b6001851615620010465780820291505b8081029050620010568562001001565b945062001016565b94509492505050565b5f826200107857600190506200114a565b8162001087575f90506200114a565b8160018114620010a05760028114620010ab57620010e1565b60019150506200114a565b60ff841115620010c057620010bf62000fd4565b5b8360020a915084821115620010da57620010d962000fd4565b5b506200114a565b5060208310610133831016604e8410600b84101617156200111b5782820a90508381111562001115576200111462000fd4565b5b6200114a565b6200112a84848460016200100d565b9250905081840481111562001144576200114362000fd4565b5b81810290505b9392505050565b5f6200115d8262000a68565b91506200116a8362000a2d565b9250620011997fffffffffffffffffffffffffffffffffffffffffffffffffffffffffffffffff848462001067565b905092915050565b5f620011ad8262000a68565b9150620011ba8362000a68565b9250828202620011ca8162000a68565b91508282048414831517620011e457620011e362000fd4565b5b5092915050565b7f45524332304361707065643a20636170206578636565646564000000000000005f82015250565b5f6200122160198362000f56565b91506200122e82620011eb565b602082019050919050565b5f6020820190508181035f830152620012528162001213565b9050919050565b7f496e73756666696369656e742066656520616d6f756e742073656e74000000005f82015250565b5f6200128f601c8362000f56565b91506200129c8262001259565b602082019050919050565b5f6020820190508181035f830152620012c08162001281565b9050919050565b7f496e76616c6964206665652072656365697665722061646472657373000000005f82015250565b5f620012fd601c8362000f56565b91506200130a82620012c7565b602082019050919050565b5f6020820190508181035f8301526200132e81620012ef565b9050919050565b5f81905092915050565b50565b5f6200134f5f8362001335565b91506200135c826200133f565b5f82019050919050565b5f620013728262001342565b9150819050919050565b7f466565207472616e73666572206661696c6564000000000000000000000000005f82015250565b5f620013b260138362000f56565b9150620013bf826200137c565b602082019050919050565b5f6020820190508181035f830152620013e381620013a4565b9050919050565b7f426c61636b6c697374656420616464726573732063616e6e6f742072656365695f8201527f766520746f6b656e730000000000000000000000000000000000000000000000602082015250565b5f6200144660298362000f56565b91506200145382620013ea565b604082019050919050565b5f6020820190508181035f830152620014778162001438565b9050919050565b5f6200148a8262000a68565b9150620014978362000a68565b9250828201905080821115620014b257620014b162000fd4565b5b92915050565b620014c38162000a68565b82525050565b5f606082019050620014de5f83018662000c18565b620014ed6020830185620014b8565b620014fc6040830184620014b8565b949350505050565b5f602082019050620015195f830184620014b8565b92915050565b612374806200152d5f395ff3fe608060405234801561000f575f80fd5b506004361061012a575f3560e01c8063743bfe70116100ab578063a9059cbb1161006f578063a9059cbb1461030c578063dd62ed3e1461033c578063f2fde38b1461036c578063f9f92be414610388578063fe575a87146103a45761012a565b8063743bfe701461027a57806375e3661e146102985780638baace25146102b45780638da5cb5b146102d057806395d89b41146102ee5761012a565b8063313ce567116100f2578063313ce567146101e8578063355274ea1461020657806340c10f191461022457806370a0823114610240578063715018a6146102705761012a565b806303073dfc1461012e57806306fdde031461014c578063095ea7b31461016a57806318160ddd1461019a57806323b872dd146101b8575b5f80fd5b6101366103d4565b6040516101439190611ade565b60405180910390f35b6101546103fc565b6040516101619190611b81565b60405180910390f35b610184600480360381019061017f9190611c02565b61048c565b6040516101919190611c5a565b60405180910390f35b6101a26105c6565b6040516101af9190611c82565b60405180910390f35b6101d260048036038101906101cd9190611c9b565b6105cf565b6040516101df9190611c5a565b60405180910390f35b6101f0610715565b6040516101fd9190611d06565b60405180910390f35b61020e61072a565b60405161021b9190611c82565b60405180910390f35b61023e60048036038101906102399190611c02565b610733565b005b61025a60048036038101906102559190611d1f565b6107d3565b6040516102679190611c82565b60405180910390f35b610278610819565b005b61028261082c565b60405161028f9190611c82565b60405180910390f35b6102b260048036038101906102ad9190611d1f565b610835565b005b6102ce60048036038101906102c99190611d1f565b6108d7565b005b6102d8610959565b6040516102e59190611ade565b60405180910390f35b6102f6610980565b6040516103039190611b81565b60405180910390f35b61032660048036038101906103219190611c02565b610a10565b6040516103339190611c5a565b60405180910390f35b61035660048036038101906103519190611d4a565b610e98565b6040516103639190611c82565b60405180910390f35b61038660048036038101906103819190611d1f565b610f1a565b005b6103a2600480360381019061039d9190611d1f565b610f9e565b005b6103be60048036038101906103b99190611d1f565b611041565b6040516103cb9190611c5a565b60405180910390f35b5f600a5f9054906101000a900473ffffffffffffffffffffffffffffffffffffffff16905090565b60606005805461040b90611db5565b80601f016020809104026020016040519081016040528092919081815260200182805461043790611db5565b80156104825780601f1061045957610100808354040283529160200191610482565b820191905f5260205f20905b81548152906001019060200180831161046557829003601f168201915b5050505050905090565b5f3360035f8273ffffffffffffffffffffffffffffffffffffffff1673ffffffffffffffffffffffffffffffffffffffff1681526020019081526020015f205f9054906101000a900460ff1615610518576040517f08c379a000000000000000000000000000000000000000000000000000000000815260040161050f90611e2f565b60405180910390fd5b8360035f8273ffffffffffffffffffffffffffffffffffffffff1673ffffffffffffffffffffffffffffffffffffffff1681526020019081526020015f205f9054906101000a900460ff16156105a3576040517f08c379a000000000000000000000000000000000000000000000000000000000815260040161059a90611e2f565b60405180910390fd5b5f6105ac611093565b90506105b981878761109a565b6001935050505092915050565b5f600454905090565b5f8360035f8273ffffffffffffffffffffffffffffffffffffffff1673ffffffffffffffffffffffffffffffffffffffff1681526020019081526020015f205f9054906101000a900460ff161561065b576040517f08c379a000000000000000000000000000000000000000000000000000000000815260040161065290611e2f565b60405180910390fd5b8360035f8273ffffffffffffffffffffffffffffffffffffffff1673ffffffffffffffffffffffffffffffffffffffff1681526020019081526020015f205f9054906101000a900460ff16156106e6576040517f08c379a00000000000000000000000000000000000000000000000000000000081526004016106dd90611e2f565b60405180910390fd5b5f6106ef611093565b90506106fc878287611189565b61070787878761121c565b600193505050509392505050565b5f60075f9054906101000a900460ff16905090565b5f600854905090565b61073b6113e9565b60035f8373ffffffffffffffffffffffffffffffffffffffff1673ffffffffffffffffffffffffffffffffffffffff1681526020019081526020015f205f9054906101000a900460ff16156107c5576040517f08c379a00000000000000000000000000000000000000000000000000000000081526004016107bc90611ebd565b60405180910390fd5b6107cf8282611470565b5050565b5f60015f8373ffffffffffffffffffffffffffffffffffffffff1673ffffffffffffffffffffffffffffffffffffffff1681526020019081526020015f20549050919050565b6108216113e9565b61082a5f6115f3565b565b5f600954905090565b61083d6113e9565b5f60035f8373ffffffffffffffffffffffffffffffffffffffff1673ffffffffffffffffffffffffffffffffffffffff1681526020019081526020015f205f6101000a81548160ff0219169083151502179055508073ffffffffffffffffffffffffffffffffffffffff167f7534c63860313c46c473e4e98328f37017e9674e2162faf1a3ad7a96236c3b7b60405160405180910390a250565b6108df6113e9565b80600a5f6101000a81548173ffffffffffffffffffffffffffffffffffffffff021916908373ffffffffffffffffffffffffffffffffffffffff1602179055507f3ca9233bd3849737ab1049144180bc625db2d51ca2c5ce949e7209eb32faa3a28160405161094e9190611ade565b60405180910390a150565b5f805f9054906101000a900473ffffffffffffffffffffffffffffffffffffffff16905090565b60606006805461098f90611db5565b80601f01602080910402602001604051908101604052809291908181526020018280546109bb90611db5565b8015610a065780601f106109dd57610100808354040283529160200191610a06565b820191905f5260205f20905b8154815290600101906020018083116109e957829003601f168201915b5050505050905090565b5f3360035f8273ffffffffffffffffffffffffffffffffffffffff1673ffffffffffffffffffffffffffffffffffffffff1681526020019081526020015f205f9054906101000a900460ff1615610a9c576040517f08c379a0000000000000000000000000000000000000000000000000000000008152600401610a9390611e2f565b60405180910390fd5b8360035f8273ffffffffffffffffffffffffffffffffffffffff1673ffffffffffffffffffffffffffffffffffffffff1681526020019081526020015f205f9054906101000a900460ff1615610b27576040517f08c379a0000000000000000000000000000000000000000000000000000000008152600401610b1e90611e2f565b60405180910390fd5b5f610b30611093565b90505f61271060095487610b449190611f08565b610b4e9190611f76565b90505f8187610b5d9190611fa6565b90508660015f8573ffffffffffffffffffffffffffffffffffffffff1673ffffffffffffffffffffffffffffffffffffffff1681526020019081526020015f20541015610c22578260015f8573ffffffffffffffffffffffffffffffffffffffff1673ffffffffffffffffffffffffffffffffffffffff1681526020019081526020015f2054886040517fe450d38c000000000000000000000000000000000000000000000000000000008152600401610c1993929190611fd9565b60405180910390fd5b8660015f8573ffffffffffffffffffffffffffffffffffffffff1673ffffffffffffffffffffffffffffffffffffffff1681526020019081526020015f205f828254610c6e9190611fa6565b925050819055508060015f8a73ffffffffffffffffffffffffffffffffffffffff1673ffffffffffffffffffffffffffffffffffffffff1681526020019081526020015f205f828254610cc1919061200e565b925050819055505f73ffffffffffffffffffffffffffffffffffffffff16600a5f9054906101000a900473ffffffffffffffffffffffffffffffffffffffff1673ffffffffffffffffffffffffffffffffffffffff1614158015610d2457505f82115b15610e24578160015f600a5f9054906101000a900473ffffffffffffffffffffffffffffffffffffffff1673ffffffffffffffffffffffffffffffffffffffff1673ffffffffffffffffffffffffffffffffffffffff1681526020019081526020015f205f828254610d96919061200e565b92505081905550600a5f9054906101000a900473ffffffffffffffffffffffffffffffffffffffff1673ffffffffffffffffffffffffffffffffffffffff168373ffffffffffffffffffffffffffffffffffffffff167fddf252ad1be2c89b69c2b068fc378daa952ba7f163c4a11628f55a4df523b3ef84604051610e1b9190611c82565b60405180910390a35b8773ffffffffffffffffffffffffffffffffffffffff168373ffffffffffffffffffffffffffffffffffffffff167fddf252ad1be2c89b69c2b068fc378daa952ba7f163c4a11628f55a4df523b3ef83604051610e819190611c82565b60405180910390a360019550505050505092915050565b5f60025f8473ffffffffffffffffffffffffffffffffffffffff1673ffffffffffffffffffffffffffffffffffffffff1681526020019081526020015f205f8373ffffffffffffffffffffffffffffffffffffffff1673ffffffffffffffffffffffffffffffffffffffff1681526020019081526020015f2054905092915050565b610f226113e9565b5f73ffffffffffffffffffffffffffffffffffffffff168173ffffffffffffffffffffffffffffffffffffffff1603610f92575f6040517f1e4fbdf7000000000000000000000000000000000000000000000000000000008152600401610f899190611ade565b60405180910390fd5b610f9b816115f3565b50565b610fa66113e9565b600160035f8373ffffffffffffffffffffffffffffffffffffffff1673ffffffffffffffffffffffffffffffffffffffff1681526020019081526020015f205f6101000a81548160ff0219169083151502179055508073ffffffffffffffffffffffffffffffffffffffff167fffa4e6181777692565cf28528fc88fd1516ea86b56da075235fa575af6a4b85560405160405180910390a250565b5f60035f8373ffffffffffffffffffffffffffffffffffffffff1673ffffffffffffffffffffffffffffffffffffffff1681526020019081526020015f205f9054906101000a900460ff169050919050565b5f33905090565b60035f8473ffffffffffffffffffffffffffffffffffffffff1673ffffffffffffffffffffffffffffffffffffffff1681526020019081526020015f205f9054906101000a900460ff16158015611138575060035f8373ffffffffffffffffffffffffffffffffffffffff1673ffffffffffffffffffffffffffffffffffffffff1681526020019081526020015f205f9054906101000a900460ff16155b611177576040517f08c379a000000000000000000000000000000000000000000000000000000000815260040161116e906120b1565b60405180910390fd5b61118483838360016116b4565b505050565b5f6111948484610e98565b90507fffffffffffffffffffffffffffffffffffffffffffffffffffffffffffffffff8110156112165781811015611207578281836040517ffb8f41b20000000000000000000000000000000000000000000000000000000081526004016111fe93929190611fd9565b60405180910390fd5b61121584848484035f6116b4565b5b50505050565b60035f8473ffffffffffffffffffffffffffffffffffffffff1673ffffffffffffffffffffffffffffffffffffffff1681526020019081526020015f205f9054906101000a900460ff161580156112ba575060035f8373ffffffffffffffffffffffffffffffffffffffff1673ffffffffffffffffffffffffffffffffffffffff1681526020019081526020015f205f9054906101000a900460ff16155b6112f9576040517f08c379a00000000000000000000000000000000000000000000000000000000081526004016112f09061213f565b60405180910390fd5b5f73ffffffffffffffffffffffffffffffffffffffff168373ffffffffffffffffffffffffffffffffffffffff1603611369575f6040517f96c6fd1e0000000000000000000000000000000000000000000000000000000081526004016113609190611ade565b60405180910390fd5b5f73ffffffffffffffffffffffffffffffffffffffff168273ffffffffffffffffffffffffffffffffffffffff16036113d9575f6040517fec442f050000000000000000000000000000000000000000000000000000000081526004016113d09190611ade565b60405180910390fd5b6113e4838383611883565b505050565b6113f1611093565b73ffffffffffffffffffffffffffffffffffffffff1661140f610959565b73ffffffffffffffffffffffffffffffffffffffff161461146e57611432611093565b6040517f118cdaa70000000000000000000000000000000000000000000000000000000081526004016114659190611ade565b60405180910390fd5b565b60035f8373ffffffffffffffffffffffffffffffffffffffff1673ffffffffffffffffffffffffffffffffffffffff1681526020019081526020015f205f9054906101000a900460ff16156114fa576040517f08c379a00000000000000000000000000000000000000000000000000000000081526004016114f190611ebd565b60405180910390fd5b611502610715565b600a61150e919061228c565b61151661072a565b6115209190611f08565b816115296105c6565b611533919061200e565b1115611574576040517f08c379a000000000000000000000000000000000000000000000000000000000815260040161156b90612320565b60405180910390fd5b5f73ffffffffffffffffffffffffffffffffffffffff168273ffffffffffffffffffffffffffffffffffffffff16036115e4575f6040517fec442f050000000000000000000000000000000000000000000000000000000081526004016115db9190611ade565b60405180910390fd5b6115ef5f8383611883565b5050565b5f805f9054906101000a900473ffffffffffffffffffffffffffffffffffffffff169050815f806101000a81548173ffffffffffffffffffffffffffffffffffffffff021916908373ffffffffffffffffffffffffffffffffffffffff1602179055508173ffffffffffffffffffffffffffffffffffffffff168173ffffffffffffffffffffffffffffffffffffffff167f8be0079c531659141344cd1fd0a4f28419497f9722a3daafe3b4186f6b6457e060405160405180910390a35050565b5f73ffffffffffffffffffffffffffffffffffffffff168473ffffffffffffffffffffffffffffffffffffffff1603611724575f6040517fe602df0500000000000000000000000000000000000000000000000000000000815260040161171b9190611ade565b60405180910390fd5b5f73ffffffffffffffffffffffffffffffffffffffff168373ffffffffffffffffffffffffffffffffffffffff1603611794575f6040517f94280d6200000000000000000000000000000000000000000000000000000000815260040161178b9190611ade565b60405180910390fd5b8160025f8673ffffffffffffffffffffffffffffffffffffffff1673ffffffffffffffffffffffffffffffffffffffff1681526020019081526020015f205f8573ffffffffffffffffffffffffffffffffffffffff1673ffffffffffffffffffffffffffffffffffffffff1681526020019081526020015f2081905550801561187d578273ffffffffffffffffffffffffffffffffffffffff168473ffffffffffffffffffffffffffffffffffffffff167f8c5be1e5ebec7d5bd14f71427d1e84f3dd0314c0f7b2291e5b200ac8c7c3b925846040516118749190611c82565b60405180910390a35b50505050565b5f73ffffffffffffffffffffffffffffffffffffffff168373ffffffffffffffffffffffffffffffffffffffff16036118d3578060045f8282546118c7919061200e565b925050819055506119a3565b5f60015f8573ffffffffffffffffffffffffffffffffffffffff1673ffffffffffffffffffffffffffffffffffffffff1681526020019081526020015f205490508181101561195d578381836040517fe450d38c00000000000000000000000000000000000000000000000000000000815260040161195493929190611fd9565b60405180910390fd5b81810360015f8673ffffffffffffffffffffffffffffffffffffffff1673ffffffffffffffffffffffffffffffffffffffff1681526020019081526020015f2081905550505b5f73ffffffffffffffffffffffffffffffffffffffff168273ffffffffffffffffffffffffffffffffffffffff16036119ea578060045f8282540392505081905550611a35565b8060015f8473ffffffffffffffffffffffffffffffffffffffff1673ffffffffffffffffffffffffffffffffffffffff1681526020019081526020015f205f82825401925050819055505b8173ffffffffffffffffffffffffffffffffffffffff168373ffffffffffffffffffffffffffffffffffffffff167fddf252ad1be2c89b69c2b068fc378daa952ba7f163c4a11628f55a4df523b3ef83604051611a929190611c82565b60405180910390a3505050565b5f73ffffffffffffffffffffffffffffffffffffffff82169050919050565b5f611ac882611a9f565b9050919050565b611ad881611abe565b82525050565b5f602082019050611af15f830184611acf565b92915050565b5f81519050919050565b5f82825260208201905092915050565b5f5b83811015611b2e578082015181840152602081019050611b13565b5f8484015250505050565b5f601f19601f8301169050919050565b5f611b5382611af7565b611b5d8185611b01565b9350611b6d818560208601611b11565b611b7681611b39565b840191505092915050565b5f6020820190508181035f830152611b998184611b49565b905092915050565b5f80fd5b611bae81611abe565b8114611bb8575f80fd5b50565b5f81359050611bc981611ba5565b92915050565b5f819050919050565b611be181611bcf565b8114611beb575f80fd5b50565b5f81359050611bfc81611bd8565b92915050565b5f8060408385031215611c1857611c17611ba1565b5b5f611c2585828601611bbb565b9250506020611c3685828601611bee565b9150509250929050565b5f8115159050919050565b611c5481611c40565b82525050565b5f602082019050611c6d5f830184611c4b565b92915050565b611c7c81611bcf565b82525050565b5f602082019050611c955f830184611c73565b92915050565b5f805f60608486031215611cb257611cb1611ba1565b5b5f611cbf86828701611bbb565b9350506020611cd086828701611bbb565b9250506040611ce186828701611bee565b9150509250925092565b5f60ff82169050919050565b611d0081611ceb565b82525050565b5f602082019050611d195f830184611cf7565b92915050565b5f60208284031215611d3457611d33611ba1565b5b5f611d4184828501611bbb565b91505092915050565b5f8060408385031215611d6057611d5f611ba1565b5b5f611d6d85828601611bbb565b9250506020611d7e85828601611bbb565b9150509250929050565b7f4e487b71000000000000000000000000000000000000000000000000000000005f52602260045260245ffd5b5f6002820490506001821680611dcc57607f821691505b602082108103611ddf57611dde611d88565b5b50919050565b7f4164647265737320697320626c61636b6c6973746564000000000000000000005f82015250565b5f611e19601683611b01565b9150611e2482611de5565b602082019050919050565b5f6020820190508181035f830152611e4681611e0d565b9050919050565b7f426c61636b6c697374656420616464726573732063616e6e6f742072656365695f8201527f766520746f6b656e730000000000000000000000000000000000000000000000602082015250565b5f611ea7602983611b01565b9150611eb282611e4d565b604082019050919050565b5f6020820190508181035f830152611ed481611e9b565b9050919050565b7f4e487b71000000000000000000000000000000000000000000000000000000005f52601160045260245ffd5b5f611f1282611bcf565b9150611f1d83611bcf565b9250828202611f2b81611bcf565b91508282048414831517611f4257611f41611edb565b5b5092915050565b7f4e487b71000000000000000000000000000000000000000000000000000000005f52601260045260245ffd5b5f611f8082611bcf565b9150611f8b83611bcf565b925082611f9b57611f9a611f49565b5b828204905092915050565b5f611fb082611bcf565b9150611fbb83611bcf565b9250828203905081811115611fd357611fd2611edb565b5b92915050565b5f606082019050611fec5f830186611acf565b611ff96020830185611c73565b6120066040830184611c73565b949350505050565b5f61201882611bcf565b915061202383611bcf565b925082820190508082111561203b5761203a611edb565b5b92915050565b7f426c61636b6c697374656420616464726573732063616e6e6f7420617070726f5f8201527f7665000000000000000000000000000000000000000000000000000000000000602082015250565b5f61209b602283611b01565b91506120a682612041565b604082019050919050565b5f6020820190508181035f8301526120c88161208f565b9050919050565b7f426c61636b6c6973746564206164647265737320696e766f6c76656420696e205f8201527f7472616e73666572000000000000000000000000000000000000000000000000602082015250565b5f612129602883611b01565b9150612134826120cf565b604082019050919050565b5f6020820190508181035f8301526121568161211d565b9050919050565b5f8160011c9050919050565b5f808291508390505b60018511156121b25780860481111561218e5761218d611edb565b5b600185161561219d5780820291505b80810290506121ab8561215d565b9450612172565b94509492505050565b5f826121ca5760019050612285565b816121d7575f9050612285565b81600181146121ed57600281146121f757612226565b6001915050612285565b60ff84111561220957612208611edb565b5b8360020a9150848211156122205761221f611edb565b5b50612285565b5060208310610133831016604e8410600b841016171561225b5782820a90508381111561225657612255611edb565b5b612285565b6122688484846001612169565b9250905081840481111561227f5761227e611edb565b5b81810290505b9392505050565b5f61229682611bcf565b91506122a183611ceb565b92506122ce7fffffffffffffffffffffffffffffffffffffffffffffffffffffffffffffffff84846121bb565b905092915050565b7f45524332304361707065643a20636170206578636565646564000000000000005f82015250565b5f61230a601983611b01565b9150612315826122d6565b602082019050919050565b5f6020820190508181035f830152612337816122fe565b905091905056fea264697066735822122067aa03c5f661f6f82e25930ba32b12f8e903c7521fd5dcc9bf27484d65a9b7ac64736f6c63430008170033","linkReferences":{}},"methodIdentifiers":{"allowance(address,address)":"dd62ed3e","approve(address,uint256)":"095ea7b3","balanceOf(address)":"70a08231","blacklist(address)":"f9f92be4","cap()":"355274ea","decimals()":"313ce567","getTaxFeeRecipient()":"03073dfc","getTransferTaxBps()":"743bfe70","isBlacklisted(address)":"fe575a87","mint(address,uint256)":"40c10f19","name()":"06fdde03","owner()":"8da5cb5b","renounceOwnership()":"715018a6","symbol()":"95d89b41","totalSupply()":"18160ddd","transfer(address,uint256)":"a9059cbb","transferFrom(address,address,uint256)":"23b872dd","transferOwnership(address)":"f2fde38b","unblacklist(address)":"75e3661e","updateTaxFeeRecipient(address)":"8baace25"},"id":19}