{"abi":[{"type":"constructor","inputs":[{"name":"name_","type":"string","internalType":"string"},{"name":"symbol_","type":"string","internalType":"string"},{"name":"decimals_","type":"uint8","internalType":"uint8"},{"name":"totalSupply_","type":"uint256","internalType":"uint256"},{"name":"serviceFeeReceiver_","type":"address","internalType":"address"},{"name":"serviceFee_","type":"uint256","internalType":"uint256"},{"name":"transferTaxBps_","type":"uint256","internalType":"uint256"},{"name":"taxFeeRecipient_","type":"address","internalType":"address"}],"stateMutability":"payable"},{"type":"function","name":"allowance","inputs":[{"name":"owner","type":"address","internalType":"address"},{"name":"spender","type":"address","internalType":"address"}],"outputs":[{"name":"","type":"uint256","internalType":"uint256"}],"stateMutability":"view"},{"type":"function","name":"approve","inputs":[{"name":"spender","type":"address","internalType":"address"},{"name":"value","type":"uint256","internalType":"uint256"}],"outputs":[{"name":"","type":"bool","internalType":"bool"}],"stateMutability":"nonpayable"},{"type":"function","name":"balanceOf","inputs":[{"name":"account","type":"address","internalType":"address"}],"outputs":[{"name":"","type":"uint256","internalType":"uint256"}],"stateMutability":"view"},{"type":"function","name":"decimals","inputs":[],"outputs":[{"name":"","type":"uint8","internalType":"uint8"}],"stateMutability":"view"},{"type":"function","name":"getTaxFeeRecipient","inputs":[],"outputs":[{"name":"","type":"address","internalType":"address"}],"stateMutability":"view"},{"type":"function","name":"getTransferTaxBps","inputs":[],"outputs":[{"name":"","type":"uint256","internalType":"uint256"}],"stateMutability":"view"},{"type":"function","name":"name","inputs":[],"outputs":[{"name":"","type":"string","internalType":"string"}],"stateMutability":"view"},{"type":"function","name":"owner","inputs":[],"outputs":[{"name":"","type":"address","internalType":"address"}],"stateMutability":"view"},{"type":"function","name":"renounceOwnership","inputs":[],"outputs":[],"stateMutability":"nonpayable"},{"type":"function","name":"symbol","inputs":[],"outputs":[{"name":"","type":"string","internalType":"string"}],"stateMutability":"view"},{"type":"function","name":"totalSupply","inputs":[],"outputs":[{"name":"","type":"uint256","internalType":"uint256"}],"stateMutability":"view"},{"type":"function","name":"transfer","inputs":[{"name":"to","type":"address","internalType":"address"},{"name":"value","type":"uint256","internalType":"uint256"}],"outputs":[{"name":"","type":"bool","internalType":"bool"}],"stateMutability":"nonpayable"},{"type":"function","name":"transferFrom","inputs":[{"name":"from","type":"address","internalType":"address"},{"name":"to","type":"address","internalType":"address"},{"name":"value","type":"uint256","internalType":"uint256"}],"outputs":[{"name":"","type":"bool","internalType":"bool"}],"stateMutability":"nonpayable"},{"type":"function","name":"transferOwnership","inputs":[{"name":"newOwner","type":"address","internalType":"address"}],"outputs":[],"stateMutability":"nonpayable"},{"type":"function","name":"updateTaxFeeRecipient","inputs":[{"name":"newTaxFeeRecipient","type":"address","internalType":"address"}],"outputs":[],"stateMutability":"nonpayable"},{"type":"event","name":"Approval","inputs":[{"name":"owner","type":"address","indexed":true,"internalType":"address"},{"name":"spender","type":"address","indexed":true,"internalType":"address"},{"name":"value","type":"uint256","indexed":false,"internalType":"uint256"}],"anonymous":false},{"type":"event","name":"OwnershipTransferred","inputs":[{"name":"previousOwner","type":"address","indexed":true,"internalType":"address"},{"name":"newOwner","type":"address","indexed":true,"internalType":"address"}],"anonymous":false},{"type":"event","name":"TaxFeeRecipientUpdated","inputs":[{"name":"newTaxFeeRecipient","type":"address","indexed":false,"internalType":"address"}],"anonymous":false},{"type":"event","name":"Transfer","inputs":[{"name":"from","type":"address","indexed":true,"internalType":"address"},{"name":"to","type":"address","indexed":true,"internalType":"address"},{"name":"value","type":"uint256","indexed":false,"internalType":"uint256"}],"anonymous":false},{"type":"error","name":"ERC20InsufficientAllowance","inputs":[{"name":"spender","type":"address","internalType":"address"},{"name":"allowance","type":"uint256","internalType":"uint256"},{"name":"needed","type":"uint256","internalType":"uint256"}]},{"type":"error","name":"ERC20InsufficientBalance","inputs":[{"name":"sender","type":"address","internalType":"address"},{"name":"balance","type":"uint256","internalType":"uint256"},{"name":"needed","type":"uint256","internalType":"uint256"}]},{"type":"error","name":"ERC20InvalidApprover","inputs":[{"name":"approver","type":"address","internalType":"address"}]},{"type":"error","name":"ERC20InvalidReceiver","inputs":[{"name":"receiver","type":"address","internalType":"address"}]},{"type":"error","name":"ERC20InvalidSender","inputs":[{"name":"sender","type":"address","internalType":"address"}]},{"type":"error","name":"ERC20InvalidSpender","inputs":[{"name":"spender","type":"address","internalType":"address"}]},{"type":"error","name":"OwnableInvalidOwner","inputs":[{"name":"owner","type":"address","internalType":"address"}]},{"type":"error","name":"OwnableUnauthorizedAccount","inputs":[{"name":"account","type":"address","internalType":"address"}]}],"bytecode":{"object":"0x608060405260405162002778380380620027788339818101604052810190620000299190620008fb565b335f73ffffffffffffffffffffffffffffffffffffffff168173ffffffffffffffffffffffffffffffffffffffff16036200009d575f6040517f1e4fbdf700000000000000000000000000000000000000000000000000000000815260040162000094919062000a0e565b60405180910390fd5b620000ae81620002f460201b60201c565b508760049081620000c0919062000c57565b508660059081620000d2919062000c57565b508560065f6101000a81548160ff021916908360ff160217905550816007819055508060085f6101000a81548173ffffffffffffffffffffffffffffffffffffffff021916908373ffffffffffffffffffffffffffffffffffffffff160217905550823410156200017a576040517f08c379a0000000000000000000000000000000000000000000000000000000008152600401620001719062000d99565b60405180910390fd5b5f73ffffffffffffffffffffffffffffffffffffffff168473ffffffffffffffffffffffffffffffffffffffff1603620001eb576040517f08c379a0000000000000000000000000000000000000000000000000000000008152600401620001e29062000e07565b60405180910390fd5b5f8473ffffffffffffffffffffffffffffffffffffffff1684604051620002129062000e58565b5f6040518083038185875af1925050503d805f81146200024e576040519150601f19603f3d011682016040523d82523d5f602084013e62000253565b606091505b50509050806200029a576040517f08c379a0000000000000000000000000000000000000000000000000000000008152600401620002919062000ebc565b60405180910390fd5b620002e5620002ae620003b560201b60201c565b620002be620003dc60201b60201c565b600a620002cc919062001059565b88620002d99190620010a9565b620003f160201b60201c565b50505050505050505062001194565b5f805f9054906101000a900473ffffffffffffffffffffffffffffffffffffffff169050815f806101000a81548173ffffffffffffffffffffffffffffffffffffffff021916908373ffffffffffffffffffffffffffffffffffffffff1602179055508173ffffffffffffffffffffffffffffffffffffffff168173ffffffffffffffffffffffffffffffffffffffff167f8be0079c531659141344cd1fd0a4f28419497f9722a3daafe3b4186f6b6457e060405160405180910390a35050565b5f805f9054906101000a900473ffffffffffffffffffffffffffffffffffffffff16905090565b5f60065f9054906101000a900460ff16905090565b5f73ffffffffffffffffffffffffffffffffffffffff168273ffffffffffffffffffffffffffffffffffffffff160362000464575f6040517fec442f050000000000000000000000000000000000000000000000000000000081526004016200045b919062000a0e565b60405180910390fd5b620004775f83836200047b60201b60201c565b5050565b5f73ffffffffffffffffffffffffffffffffffffffff168373ffffffffffffffffffffffffffffffffffffffff1603620004cf578060035f828254620004c29190620010f3565b92505081905550620005a2565b5f60015f8573ffffffffffffffffffffffffffffffffffffffff1673ffffffffffffffffffffffffffffffffffffffff1681526020019081526020015f20549050818110156200055c578381836040517fe450d38c00000000000000000000000000000000000000000000000000000000815260040162000553939291906200113e565b60405180910390fd5b81810360015f8673ffffffffffffffffffffffffffffffffffffffff1673ffffffffffffffffffffffffffffffffffffffff1681526020019081526020015f2081905550505b5f73ffffffffffffffffffffffffffffffffffffffff168273ffffffffffffffffffffffffffffffffffffffff1603620005eb578060035f828254039250508190555062000636565b8060015f8473ffffffffffffffffffffffffffffffffffffffff1673ffffffffffffffffffffffffffffffffffffffff1681526020019081526020015f205f82825401925050819055505b8173ffffffffffffffffffffffffffffffffffffffff168373ffffffffffffffffffffffffffffffffffffffff167fddf252ad1be2c89b69c2b068fc378daa952ba7f163c4a11628f55a4df523b3ef8360405162000695919062001179565b60405180910390a3505050565b5f604051905090565b5f80fd5b5f80fd5b5f80fd5b5f80fd5b5f601f19601f8301169050919050565b7f4e487b71000000000000000000000000000000000000000000000000000000005f52604160045260245ffd5b6200070382620006bb565b810181811067ffffffffffffffff82111715620007255762000724620006cb565b5b80604052505050565b5f62000739620006a2565b9050620007478282620006f8565b919050565b5f67ffffffffffffffff821115620007695762000768620006cb565b5b6200077482620006bb565b9050602081019050919050565b5f5b83811015620007a057808201518184015260208101905062000783565b5f8484015250505050565b5f620007c1620007bb846200074c565b6200072e565b905082815260208101848484011115620007e057620007df620006b7565b5b620007ed84828562000781565b509392505050565b5f82601f8301126200080c576200080b620006b3565b5b81516200081e848260208601620007ab565b91505092915050565b5f60ff82169050919050565b6200083e8162000827565b811462000849575f80fd5b50565b5f815190506200085c8162000833565b92915050565b5f819050919050565b620008768162000862565b811462000881575f80fd5b50565b5f8151905062000894816200086b565b92915050565b5f73ffffffffffffffffffffffffffffffffffffffff82169050919050565b5f620008c5826200089a565b9050919050565b620008d781620008b9565b8114620008e2575f80fd5b50565b5f81519050620008f581620008cc565b92915050565b5f805f805f805f80610100898b0312156200091b576200091a620006ab565b5b5f89015167ffffffffffffffff8111156200093b576200093a620006af565b5b620009498b828c01620007f5565b985050602089015167ffffffffffffffff8111156200096d576200096c620006af565b5b6200097b8b828c01620007f5565b97505060406200098e8b828c016200084c565b9650506060620009a18b828c0162000884565b9550506080620009b48b828c01620008e5565b94505060a0620009c78b828c0162000884565b93505060c0620009da8b828c0162000884565b92505060e0620009ed8b828c01620008e5565b9150509295985092959890939650565b62000a0881620008b9565b82525050565b5f60208201905062000a235f830184620009fd565b92915050565b5f81519050919050565b7f4e487b71000000000000000000000000000000000000000000000000000000005f52602260045260245ffd5b5f600282049050600182168062000a7857607f821691505b60208210810362000a8e5762000a8d62000a33565b5b50919050565b5f819050815f5260205f209050919050565b5f6020601f8301049050919050565b5f82821b905092915050565b5f6008830262000af27fffffffffffffffffffffffffffffffffffffffffffffffffffffffffffffffff8262000ab5565b62000afe868362000ab5565b95508019841693508086168417925050509392505050565b5f819050919050565b5f62000b3f62000b3962000b338462000862565b62000b16565b62000862565b9050919050565b5f819050919050565b62000b5a8362000b1f565b62000b7262000b698262000b46565b84845462000ac1565b825550505050565b5f90565b62000b8862000b7a565b62000b9581848462000b4f565b505050565b5b8181101562000bbc5762000bb05f8262000b7e565b60018101905062000b9b565b5050565b601f82111562000c0b5762000bd58162000a94565b62000be08462000aa6565b8101602085101562000bf0578190505b62000c0862000bff8562000aa6565b83018262000b9a565b50505b505050565b5f82821c905092915050565b5f62000c2d5f198460080262000c10565b1980831691505092915050565b5f62000c47838362000c1c565b9150826002028217905092915050565b62000c628262000a29565b67ffffffffffffffff81111562000c7e5762000c7d620006cb565b5b62000c8a825462000a60565b62000c9782828562000bc0565b5f60209050601f83116001811462000ccd575f841562000cb8578287015190505b62000cc4858262000c3a565b86555062000d33565b601f19841662000cdd8662000a94565b5f5b8281101562000d065784890151825560018201915060208501945060208101905062000cdf565b8683101562000d26578489015162000d22601f89168262000c1c565b8355505b6001600288020188555050505b505050505050565b5f82825260208201905092915050565b7f496e73756666696369656e742066656520616d6f756e742073656e74000000005f82015250565b5f62000d81601c8362000d3b565b915062000d8e8262000d4b565b602082019050919050565b5f6020820190508181035f83015262000db28162000d73565b9050919050565b7f496e76616c6964206665652072656365697665722061646472657373000000005f82015250565b5f62000def601c8362000d3b565b915062000dfc8262000db9565b602082019050919050565b5f6020820190508181035f83015262000e208162000de1565b9050919050565b5f81905092915050565b50565b5f62000e415f8362000e27565b915062000e4e8262000e31565b5f82019050919050565b5f62000e648262000e34565b9150819050919050565b7f466565207472616e73666572206661696c6564000000000000000000000000005f82015250565b5f62000ea460138362000d3b565b915062000eb18262000e6e565b602082019050919050565b5f6020820190508181035f83015262000ed58162000e96565b9050919050565b7f4e487b71000000000000000000000000000000000000000000000000000000005f52601160045260245ffd5b5f8160011c9050919050565b5f808291508390505b600185111562000f665780860481111562000f3e5762000f3d62000edc565b5b600185161562000f4e5780820291505b808102905062000f5e8562000f09565b945062000f1e565b94509492505050565b5f8262000f80576001905062001052565b8162000f8f575f905062001052565b816001811462000fa8576002811462000fb35762000fe9565b600191505062001052565b60ff84111562000fc85762000fc762000edc565b5b8360020a91508482111562000fe25762000fe162000edc565b5b5062001052565b5060208310610133831016604e8410600b8410161715620010235782820a9050838111156200101d576200101c62000edc565b5b62001052565b62001032848484600162000f15565b925090508184048111156200104c576200104b62000edc565b5b81810290505b9392505050565b5f620010658262000862565b9150620010728362000827565b9250620010a17fffffffffffffffffffffffffffffffffffffffffffffffffffffffffffffffff848462000f6f565b905092915050565b5f620010b58262000862565b9150620010c28362000862565b9250828202620010d28162000862565b91508282048414831517620010ec57620010eb62000edc565b5b5092915050565b5f620010ff8262000862565b91506200110c8362000862565b925082820190508082111562001127576200112662000edc565b5b92915050565b620011388162000862565b82525050565b5f606082019050620011535f830186620009fd565b6200116260208301856200112d565b6200117160408301846200112d565b949350505050565b5f6020820190506200118e5f8301846200112d565b92915050565b6115d680620011a25f395ff3fe608060405234801561000f575f80fd5b50600436106100f3575f3560e01c8063715018a61161009557806395d89b411161006457806395d89b4114610261578063a9059cbb1461027f578063dd62ed3e146102af578063f2fde38b146102df576100f3565b8063715018a6146101ff578063743bfe70146102095780638baace25146102275780638da5cb5b14610243576100f3565b806318160ddd116100d157806318160ddd1461016357806323b872dd14610181578063313ce567146101b157806370a08231146101cf576100f3565b806303073dfc146100f757806306fdde0314610115578063095ea7b314610133575b5f80fd5b6100ff6102fb565b60405161010c9190611133565b60405180910390f35b61011d610323565b60405161012a91906111d6565b60405180910390f35b61014d60048036038101906101489190611257565b6103b3565b60405161015a91906112af565b60405180910390f35b61016b6103d5565b60405161017891906112d7565b60405180910390f35b61019b600480360381019061019691906112f0565b6103de565b6040516101a891906112af565b60405180910390f35b6101b961040c565b6040516101c6919061135b565b60405180910390f35b6101e960048036038101906101e49190611374565b610421565b6040516101f691906112d7565b60405180910390f35b610207610467565b005b61021161047a565b60405161021e91906112d7565b60405180910390f35b610241600480360381019061023c9190611374565b610483565b005b61024b610505565b6040516102589190611133565b60405180910390f35b61026961052c565b60405161027691906111d6565b60405180910390f35b61029960048036038101906102949190611257565b6105bc565b6040516102a691906112af565b60405180910390f35b6102c960048036038101906102c4919061139f565b61091f565b6040516102d691906112d7565b60405180910390f35b6102f960048036038101906102f49190611374565b6109a1565b005b5f60085f9054906101000a900473ffffffffffffffffffffffffffffffffffffffff16905090565b6060600480546103329061140a565b80601f016020809104026020016040519081016040528092919081815260200182805461035e9061140a565b80156103a95780601f10610380576101008083540402835291602001916103a9565b820191905f5260205f20905b81548152906001019060200180831161038c57829003601f168201915b5050505050905090565b5f806103bd610a25565b90506103ca818585610a2c565b600191505092915050565b5f600354905090565b5f806103e8610a25565b90506103f5858285610a3e565b610400858585610ad1565b60019150509392505050565b5f60065f9054906101000a900460ff16905090565b5f60015f8373ffffffffffffffffffffffffffffffffffffffff1673ffffffffffffffffffffffffffffffffffffffff1681526020019081526020015f20549050919050565b61046f610bc1565b6104785f610c48565b565b5f600754905090565b61048b610bc1565b8060085f6101000a81548173ffffffffffffffffffffffffffffffffffffffff021916908373ffffffffffffffffffffffffffffffffffffffff1602179055507f3ca9233bd3849737ab1049144180bc625db2d51ca2c5ce949e7209eb32faa3a2816040516104fa9190611133565b60405180910390a150565b5f805f9054906101000a900473ffffffffffffffffffffffffffffffffffffffff16905090565b60606005805461053b9061140a565b80601f01602080910402602001604051908101604052809291908181526020018280546105679061140a565b80156105b25780601f10610589576101008083540402835291602001916105b2565b820191905f5260205f20905b81548152906001019060200180831161059557829003601f168201915b5050505050905090565b5f806105c6610a25565b90505f612710600754856105da9190611467565b6105e491906114d5565b90505f81856105f39190611505565b90508460015f8573ffffffffffffffffffffffffffffffffffffffff1673ffffffffffffffffffffffffffffffffffffffff1681526020019081526020015f205410156106b8578260015f8573ffffffffffffffffffffffffffffffffffffffff1673ffffffffffffffffffffffffffffffffffffffff1681526020019081526020015f2054866040517fe450d38c0000000000000000000000000000000000000000000000000000000081526004016106af93929190611538565b60405180910390fd5b8460015f8573ffffffffffffffffffffffffffffffffffffffff1673ffffffffffffffffffffffffffffffffffffffff1681526020019081526020015f205f8282546107049190611505565b925050819055508060015f8873ffffffffffffffffffffffffffffffffffffffff1673ffffffffffffffffffffffffffffffffffffffff1681526020019081526020015f205f828254610757919061156d565b925050819055505f73ffffffffffffffffffffffffffffffffffffffff1660085f9054906101000a900473ffffffffffffffffffffffffffffffffffffffff1673ffffffffffffffffffffffffffffffffffffffff1614610827578160015f60085f9054906101000a900473ffffffffffffffffffffffffffffffffffffffff1673ffffffffffffffffffffffffffffffffffffffff1673ffffffffffffffffffffffffffffffffffffffff1681526020019081526020015f205f82825461081f919061156d565b925050819055505b8573ffffffffffffffffffffffffffffffffffffffff168373ffffffffffffffffffffffffffffffffffffffff167fddf252ad1be2c89b69c2b068fc378daa952ba7f163c4a11628f55a4df523b3ef8360405161088491906112d7565b60405180910390a360085f9054906101000a900473ffffffffffffffffffffffffffffffffffffffff1673ffffffffffffffffffffffffffffffffffffffff168373ffffffffffffffffffffffffffffffffffffffff167fddf252ad1be2c89b69c2b068fc378daa952ba7f163c4a11628f55a4df523b3ef8460405161090a91906112d7565b60405180910390a36001935050505092915050565b5f60025f8473ffffffffffffffffffffffffffffffffffffffff1673ffffffffffffffffffffffffffffffffffffffff1681526020019081526020015f205f8373ffffffffffffffffffffffffffffffffffffffff1673ffffffffffffffffffffffffffffffffffffffff1681526020019081526020015f2054905092915050565b6109a9610bc1565b5f73ffffffffffffffffffffffffffffffffffffffff168173ffffffffffffffffffffffffffffffffffffffff1603610a19575f6040517f1e4fbdf7000000000000000000000000000000000000000000000000000000008152600401610a109190611133565b60405180910390fd5b610a2281610c48565b50565b5f33905090565b610a398383836001610d09565b505050565b5f610a49848461091f565b90507fffffffffffffffffffffffffffffffffffffffffffffffffffffffffffffffff811015610acb5781811015610abc578281836040517ffb8f41b2000000000000000000000000000000000000000000000000000000008152600401610ab393929190611538565b60405180910390fd5b610aca84848484035f610d09565b5b50505050565b5f73ffffffffffffffffffffffffffffffffffffffff168373ffffffffffffffffffffffffffffffffffffffff1603610b41575f6040517f96c6fd1e000000000000000000000000000000000000000000000000000000008152600401610b389190611133565b60405180910390fd5b5f73ffffffffffffffffffffffffffffffffffffffff168273ffffffffffffffffffffffffffffffffffffffff1603610bb1575f6040517fec442f05000000000000000000000000000000000000000000000000000000008152600401610ba89190611133565b60405180910390fd5b610bbc838383610ed8565b505050565b610bc9610a25565b73ffffffffffffffffffffffffffffffffffffffff16610be7610505565b73ffffffffffffffffffffffffffffffffffffffff1614610c4657610c0a610a25565b6040517f118cdaa7000000000000000000000000000000000000000000000000000000008152600401610c3d9190611133565b60405180910390fd5b565b5f805f9054906101000a900473ffffffffffffffffffffffffffffffffffffffff169050815f806101000a81548173ffffffffffffffffffffffffffffffffffffffff021916908373ffffffffffffffffffffffffffffffffffffffff1602179055508173ffffffffffffffffffffffffffffffffffffffff168173ffffffffffffffffffffffffffffffffffffffff167f8be0079c531659141344cd1fd0a4f28419497f9722a3daafe3b4186f6b6457e060405160405180910390a35050565b5f73ffffffffffffffffffffffffffffffffffffffff168473ffffffffffffffffffffffffffffffffffffffff1603610d79575f6040517fe602df05000000000000000000000000000000000000000000000000000000008152600401610d709190611133565b60405180910390fd5b5f73ffffffffffffffffffffffffffffffffffffffff168373ffffffffffffffffffffffffffffffffffffffff1603610de9575f6040517f94280d62000000000000000000000000000000000000000000000000000000008152600401610de09190611133565b60405180910390fd5b8160025f8673ffffffffffffffffffffffffffffffffffffffff1673ffffffffffffffffffffffffffffffffffffffff1681526020019081526020015f205f8573ffffffffffffffffffffffffffffffffffffffff1673ffffffffffffffffffffffffffffffffffffffff1681526020019081526020015f20819055508015610ed2578273ffffffffffffffffffffffffffffffffffffffff168473ffffffffffffffffffffffffffffffffffffffff167f8c5be1e5ebec7d5bd14f71427d1e84f3dd0314c0f7b2291e5b200ac8c7c3b92584604051610ec991906112d7565b60405180910390a35b50505050565b5f73ffffffffffffffffffffffffffffffffffffffff168373ffffffffffffffffffffffffffffffffffffffff1603610f28578060035f828254610f1c919061156d565b92505081905550610ff8565b5f60015f8573ffffffffffffffffffffffffffffffffffffffff1673ffffffffffffffffffffffffffffffffffffffff1681526020019081526020015f2054905081811015610fb2578381836040517fe450d38c000000000000000000000000000000000000000000000000000000008152600401610fa993929190611538565b60405180910390fd5b81810360015f8673ffffffffffffffffffffffffffffffffffffffff1673ffffffffffffffffffffffffffffffffffffffff1681526020019081526020015f2081905550505b5f73ffffffffffffffffffffffffffffffffffffffff168273ffffffffffffffffffffffffffffffffffffffff160361103f578060035f828254039250508190555061108a565b8060015f8473ffffffffffffffffffffffffffffffffffffffff1673ffffffffffffffffffffffffffffffffffffffff1681526020019081526020015f205f82825401925050819055505b8173ffffffffffffffffffffffffffffffffffffffff168373ffffffffffffffffffffffffffffffffffffffff167fddf252ad1be2c89b69c2b068fc378daa952ba7f163c4a11628f55a4df523b3ef836040516110e791906112d7565b60405180910390a3505050565b5f73ffffffffffffffffffffffffffffffffffffffff82169050919050565b5f61111d826110f4565b9050919050565b61112d81611113565b82525050565b5f6020820190506111465f830184611124565b92915050565b5f81519050919050565b5f82825260208201905092915050565b5f5b83811015611183578082015181840152602081019050611168565b5f8484015250505050565b5f601f19601f8301169050919050565b5f6111a88261114c565b6111b28185611156565b93506111c2818560208601611166565b6111cb8161118e565b840191505092915050565b5f6020820190508181035f8301526111ee818461119e565b905092915050565b5f80fd5b61120381611113565b811461120d575f80fd5b50565b5f8135905061121e816111fa565b92915050565b5f819050919050565b61123681611224565b8114611240575f80fd5b50565b5f813590506112518161122d565b92915050565b5f806040838503121561126d5761126c6111f6565b5b5f61127a85828601611210565b925050602061128b85828601611243565b9150509250929050565b5f8115159050919050565b6112a981611295565b82525050565b5f6020820190506112c25f8301846112a0565b92915050565b6112d181611224565b82525050565b5f6020820190506112ea5f8301846112c8565b92915050565b5f805f60608486031215611307576113066111f6565b5b5f61131486828701611210565b935050602061132586828701611210565b925050604061133686828701611243565b9150509250925092565b5f60ff82169050919050565b61135581611340565b82525050565b5f60208201905061136e5f83018461134c565b92915050565b5f60208284031215611389576113886111f6565b5b5f61139684828501611210565b91505092915050565b5f80604083850312156113b5576113b46111f6565b5b5f6113c285828601611210565b92505060206113d385828601611210565b9150509250929050565b7f4e487b71000000000000000000000000000000000000000000000000000000005f52602260045260245ffd5b5f600282049050600182168061142157607f821691505b602082108103611434576114336113dd565b5b50919050565b7f4e487b71000000000000000000000000000000000000000000000000000000005f52601160045260245ffd5b5f61147182611224565b915061147c83611224565b925082820261148a81611224565b915082820484148315176114a1576114a061143a565b5b5092915050565b7f4e487b71000000000000000000000000000000000000000000000000000000005f52601260045260245ffd5b5f6114df82611224565b91506114ea83611224565b9250826114fa576114f96114a8565b5b828204905092915050565b5f61150f82611224565b915061151a83611224565b92508282039050818111156115325761153161143a565b5b92915050565b5f60608201905061154b5f830186611124565b61155860208301856112c8565b61156560408301846112c8565b949350505050565b5f61157782611224565b915061158283611224565b925082820190508082111561159a5761159961143a565b5b9291505056fea2646970667358221220eb321f33d6497df85ce718052f76e97c6fa3b2f1fff96aaba5c1699a5ee5015d64736f6c63430008170033","linkReferences":{}},"methodIdentifiers":{"allowance(address,address)":"dd62ed3e","approve(address,uint256)":"095ea7b3","balanceOf(address)":"70a08231","decimals()":"313ce567","getTaxFeeRecipient()":"03073dfc","getTransferTaxBps()":"743bfe70","name()":"06fdde03","owner()":"8da5cb5b","renounceOwnership()":"715018a6","symbol()":"95d89b41","totalSupply()":"18160ddd","transfer(address,uint256)":"a9059cbb","transferFrom(address,address,uint256)":"23b872dd","transferOwnership(address)":"f2fde38b","updateTaxFeeRecipient(address)":"8baace25"},"id":47}