{"abi":[{"type":"constructor","inputs":[{"name":"name_","type":"string","internalType":"string"},{"name":"symbol_","type":"string","internalType":"string"},{"name":"decimals_","type":"uint8","internalType":"uint8"},{"name":"totalSupply_","type":"uint256","internalType":"uint256"},{"name":"cap_","type":"uint256","internalType":"uint256"},{"name":"serviceFeeReceiver_","type":"address","internalType":"address"},{"name":"serviceFee_","type":"uint256","internalType":"uint256"}],"stateMutability":"payable"},{"type":"function","name":"allowance","inputs":[{"name":"owner","type":"address","internalType":"address"},{"name":"spender","type":"address","internalType":"address"}],"outputs":[{"name":"","type":"uint256","internalType":"uint256"}],"stateMutability":"view"},{"type":"function","name":"approve","inputs":[{"name":"spender","type":"address","internalType":"address"},{"name":"value","type":"uint256","internalType":"uint256"}],"outputs":[{"name":"","type":"bool","internalType":"bool"}],"stateMutability":"nonpayable"},{"type":"function","name":"balanceOf","inputs":[{"name":"account","type":"address","internalType":"address"}],"outputs":[{"name":"","type":"uint256","internalType":"uint256"}],"stateMutability":"view"},{"type":"function","name":"cap","inputs":[],"outputs":[{"name":"","type":"uint256","internalType":"uint256"}],"stateMutability":"view"},{"type":"function","name":"decimals","inputs":[],"outputs":[{"name":"","type":"uint8","internalType":"uint8"}],"stateMutability":"view"},{"type":"function","name":"mint","inputs":[{"name":"to","type":"address","internalType":"address"},{"name":"amount","type":"uint256","internalType":"uint256"}],"outputs":[],"stateMutability":"nonpayable"},{"type":"function","name":"name","inputs":[],"outputs":[{"name":"","type":"string","internalType":"string"}],"stateMutability":"view"},{"type":"function","name":"owner","inputs":[],"outputs":[{"name":"","type":"address","internalType":"address"}],"stateMutability":"view"},{"type":"function","name":"pause","inputs":[],"outputs":[],"stateMutability":"nonpayable"},{"type":"function","name":"paused","inputs":[],"outputs":[{"name":"","type":"bool","internalType":"bool"}],"stateMutability":"view"},{"type":"function","name":"renounceOwnership","inputs":[],"outputs":[],"stateMutability":"nonpayable"},{"type":"function","name":"symbol","inputs":[],"outputs":[{"name":"","type":"string","internalType":"string"}],"stateMutability":"view"},{"type":"function","name":"totalSupply","inputs":[],"outputs":[{"name":"","type":"uint256","internalType":"uint256"}],"stateMutability":"view"},{"type":"function","name":"transfer","inputs":[{"name":"to","type":"address","internalType":"address"},{"name":"value","type":"uint256","internalType":"uint256"}],"outputs":[{"name":"","type":"bool","internalType":"bool"}],"stateMutability":"nonpayable"},{"type":"function","name":"transferFrom","inputs":[{"name":"from","type":"address","internalType":"address"},{"name":"to","type":"address","internalType":"address"},{"name":"value","type":"uint256","internalType":"uint256"}],"outputs":[{"name":"","type":"bool","internalType":"bool"}],"stateMutability":"nonpayable"},{"type":"function","name":"transferOwnership","inputs":[{"name":"newOwner","type":"address","internalType":"address"}],"outputs":[],"stateMutability":"nonpayable"},{"type":"function","name":"unpause","inputs":[],"outputs":[],"stateMutability":"nonpayable"},{"type":"event","name":"Approval","inputs":[{"name":"owner","type":"address","indexed":true,"internalType":"address"},{"name":"spender","type":"address","indexed":true,"internalType":"address"},{"name":"value","type":"uint256","indexed":false,"internalType":"uint256"}],"anonymous":false},{"type":"event","name":"OwnershipTransferred","inputs":[{"name":"previousOwner","type":"address","indexed":true,"internalType":"address"},{"name":"newOwner","type":"address","indexed":true,"internalType":"address"}],"anonymous":false},{"type":"event","name":"Paused","inputs":[{"name":"account","type":"address","indexed":false,"internalType":"address"}],"anonymous":false},{"type":"event","name":"Transfer","inputs":[{"name":"from","type":"address","indexed":true,"internalType":"address"},{"name":"to","type":"address","indexed":true,"internalType":"address"},{"name":"value","type":"uint256","indexed":false,"internalType":"uint256"}],"anonymous":false},{"type":"event","name":"Unpaused","inputs":[{"name":"account","type":"address","indexed":false,"internalType":"address"}],"anonymous":false},{"type":"error","name":"ERC20InsufficientAllowance","inputs":[{"name":"spender","type":"address","internalType":"address"},{"name":"allowance","type":"uint256","internalType":"uint256"},{"name":"needed","type":"uint256","internalType":"uint256"}]},{"type":"error","name":"ERC20InsufficientBalance","inputs":[{"name":"sender","type":"address","internalType":"address"},{"name":"balance","type":"uint256","internalType":"uint256"},{"name":"needed","type":"uint256","internalType":"uint256"}]},{"type":"error","name":"ERC20InvalidApprover","inputs":[{"name":"approver","type":"address","internalType":"address"}]},{"type":"error","name":"ERC20InvalidReceiver","inputs":[{"name":"receiver","type":"address","internalType":"address"}]},{"type":"error","name":"ERC20InvalidSender","inputs":[{"name":"sender","type":"address","internalType":"address"}]},{"type":"error","name":"ERC20InvalidSpender","inputs":[{"name":"spender","type":"address","internalType":"address"}]},{"type":"error","name":"EnforcedPause","inputs":[]},{"type":"error","name":"ExpectedPause","inputs":[]},{"type":"error","name":"OwnableInvalidOwner","inputs":[{"name":"owner","type":"address","internalType":"address"}]},{"type":"error","name":"OwnableUnauthorizedAccount","inputs":[{"name":"account","type":"address","internalType":"address"}]}],"bytecode":{"object":"0x608060405260405162002a1a38038062002a1a833981810160405281019062000029919062000ab3565b335f73ffffffffffffffffffffffffffffffffffffffff168173ffffffffffffffffffffffffffffffffffffffff16036200009d575f6040517f1e4fbdf700000000000000000000000000000000000000000000000000000000815260040162000094919062000bb0565b60405180910390fd5b620000ae816200039060201b60201c565b505f8060146101000a81548160ff0219169083151502179055508660049081620000d9919062000df9565b508560059081620000eb919062000df9565b508460065f6101000a81548160ff021916908360ff1602179055505f83116200014b576040517f08c379a0000000000000000000000000000000000000000000000000000000008152600401620001429062000f3b565b60405180910390fd5b82600781905550620001626200045160201b60201c565b600a620001709190620010d8565b620001806200046660201b60201c565b6200018c919062001128565b841115620001d1576040517f08c379a0000000000000000000000000000000000000000000000000000000008152600401620001c890620011c0565b60405180910390fd5b8034101562000217576040517f08c379a00000000000000000000000000000000000000000000000000000000081526004016200020e906200122e565b60405180910390fd5b5f73ffffffffffffffffffffffffffffffffffffffff168273ffffffffffffffffffffffffffffffffffffffff160362000288576040517f08c379a00000000000000000000000000000000000000000000000000000000081526004016200027f906200129c565b60405180910390fd5b5f8273ffffffffffffffffffffffffffffffffffffffff1682604051620002af90620012ed565b5f6040518083038185875af1925050503d805f8114620002eb576040519150601f19603f3d011682016040523d82523d5f602084013e620002f0565b606091505b505090508062000337576040517f08c379a00000000000000000000000000000000000000000000000000000000081526004016200032e9062001351565b60405180910390fd5b620003826200034b6200046f60201b60201c565b6200035b6200045160201b60201c565b600a620003699190620010d8565b8762000376919062001128565b6200049660201b60201c565b505050505050505062001412565b5f805f9054906101000a900473ffffffffffffffffffffffffffffffffffffffff169050815f806101000a81548173ffffffffffffffffffffffffffffffffffffffff021916908373ffffffffffffffffffffffffffffffffffffffff1602179055508173ffffffffffffffffffffffffffffffffffffffff168173ffffffffffffffffffffffffffffffffffffffff167f8be0079c531659141344cd1fd0a4f28419497f9722a3daafe3b4186f6b6457e060405160405180910390a35050565b5f60065f9054906101000a900460ff16905090565b5f600754905090565b5f805f9054906101000a900473ffffffffffffffffffffffffffffffffffffffff16905090565b620004a66200045160201b60201c565b600a620004b49190620010d8565b620004c46200046660201b60201c565b620004d0919062001128565b81620004e1620005bb60201b60201c565b620004ed919062001371565b111562000531576040517f08c379a00000000000000000000000000000000000000000000000000000000081526004016200052890620011c0565b60405180910390fd5b5f73ffffffffffffffffffffffffffffffffffffffff168273ffffffffffffffffffffffffffffffffffffffff1603620005a4575f6040517fec442f050000000000000000000000000000000000000000000000000000000081526004016200059b919062000bb0565b60405180910390fd5b620005b75f8383620005c460201b60201c565b5050565b5f600354905090565b620005d4620007fb60201b60201c565b5f73ffffffffffffffffffffffffffffffffffffffff168373ffffffffffffffffffffffffffffffffffffffff160362000628578060035f8282546200061b919062001371565b92505081905550620006fb565b5f60015f8573ffffffffffffffffffffffffffffffffffffffff1673ffffffffffffffffffffffffffffffffffffffff1681526020019081526020015f2054905081811015620006b5578381836040517fe450d38c000000000000000000000000000000000000000000000000000000008152600401620006ac93929190620013bc565b60405180910390fd5b81810360015f8673ffffffffffffffffffffffffffffffffffffffff1673ffffffffffffffffffffffffffffffffffffffff1681526020019081526020015f2081905550505b5f73ffffffffffffffffffffffffffffffffffffffff168273ffffffffffffffffffffffffffffffffffffffff160362000744578060035f82825403925050819055506200078f565b8060015f8473ffffffffffffffffffffffffffffffffffffffff1673ffffffffffffffffffffffffffffffffffffffff1681526020019081526020015f205f82825401925050819055505b8173ffffffffffffffffffffffffffffffffffffffff168373ffffffffffffffffffffffffffffffffffffffff167fddf252ad1be2c89b69c2b068fc378daa952ba7f163c4a11628f55a4df523b3ef83604051620007ee9190620013f7565b60405180910390a3505050565b6200080b6200084560201b60201c565b1562000843576040517fd93c066500000000000000000000000000000000000000000000000000000000815260040160405180910390fd5b565b5f8060149054906101000a900460ff16905090565b5f604051905090565b5f80fd5b5f80fd5b5f80fd5b5f80fd5b5f601f19601f8301169050919050565b7f4e487b71000000000000000000000000000000000000000000000000000000005f52604160045260245ffd5b620008bb8262000873565b810181811067ffffffffffffffff82111715620008dd57620008dc62000883565b5b80604052505050565b5f620008f16200085a565b9050620008ff8282620008b0565b919050565b5f67ffffffffffffffff82111562000921576200092062000883565b5b6200092c8262000873565b9050602081019050919050565b5f5b83811015620009585780820151818401526020810190506200093b565b5f8484015250505050565b5f62000979620009738462000904565b620008e6565b9050828152602081018484840111156200099857620009976200086f565b5b620009a584828562000939565b509392505050565b5f82601f830112620009c457620009c36200086b565b5b8151620009d684826020860162000963565b91505092915050565b5f60ff82169050919050565b620009f681620009df565b811462000a01575f80fd5b50565b5f8151905062000a1481620009eb565b92915050565b5f819050919050565b62000a2e8162000a1a565b811462000a39575f80fd5b50565b5f8151905062000a4c8162000a23565b92915050565b5f73ffffffffffffffffffffffffffffffffffffffff82169050919050565b5f62000a7d8262000a52565b9050919050565b62000a8f8162000a71565b811462000a9a575f80fd5b50565b5f8151905062000aad8162000a84565b92915050565b5f805f805f805f60e0888a03121562000ad15762000ad062000863565b5b5f88015167ffffffffffffffff81111562000af15762000af062000867565b5b62000aff8a828b01620009ad565b975050602088015167ffffffffffffffff81111562000b235762000b2262000867565b5b62000b318a828b01620009ad565b965050604062000b448a828b0162000a04565b955050606062000b578a828b0162000a3c565b945050608062000b6a8a828b0162000a3c565b93505060a062000b7d8a828b0162000a9d565b92505060c062000b908a828b0162000a3c565b91505092959891949750929550565b62000baa8162000a71565b82525050565b5f60208201905062000bc55f83018462000b9f565b92915050565b5f81519050919050565b7f4e487b71000000000000000000000000000000000000000000000000000000005f52602260045260245ffd5b5f600282049050600182168062000c1a57607f821691505b60208210810362000c305762000c2f62000bd5565b5b50919050565b5f819050815f5260205f209050919050565b5f6020601f8301049050919050565b5f82821b905092915050565b5f6008830262000c947fffffffffffffffffffffffffffffffffffffffffffffffffffffffffffffffff8262000c57565b62000ca0868362000c57565b95508019841693508086168417925050509392505050565b5f819050919050565b5f62000ce162000cdb62000cd58462000a1a565b62000cb8565b62000a1a565b9050919050565b5f819050919050565b62000cfc8362000cc1565b62000d1462000d0b8262000ce8565b84845462000c63565b825550505050565b5f90565b62000d2a62000d1c565b62000d3781848462000cf1565b505050565b5b8181101562000d5e5762000d525f8262000d20565b60018101905062000d3d565b5050565b601f82111562000dad5762000d778162000c36565b62000d828462000c48565b8101602085101562000d92578190505b62000daa62000da18562000c48565b83018262000d3c565b50505b505050565b5f82821c905092915050565b5f62000dcf5f198460080262000db2565b1980831691505092915050565b5f62000de9838362000dbe565b9150826002028217905092915050565b62000e048262000bcb565b67ffffffffffffffff81111562000e205762000e1f62000883565b5b62000e2c825462000c02565b62000e3982828562000d62565b5f60209050601f83116001811462000e6f575f841562000e5a578287015190505b62000e66858262000ddc565b86555062000ed5565b601f19841662000e7f8662000c36565b5f5b8281101562000ea85784890151825560018201915060208501945060208101905062000e81565b8683101562000ec8578489015162000ec4601f89168262000dbe565b8355505b6001600288020188555050505b505050505050565b5f82825260208201905092915050565b7f4361702073686f756c642062652067726561746572207468616e2030000000005f82015250565b5f62000f23601c8362000edd565b915062000f308262000eed565b602082019050919050565b5f6020820190508181035f83015262000f548162000f15565b9050919050565b7f4e487b71000000000000000000000000000000000000000000000000000000005f52601160045260245ffd5b5f8160011c9050919050565b5f808291508390505b600185111562000fe55780860481111562000fbd5762000fbc62000f5b565b5b600185161562000fcd5780820291505b808102905062000fdd8562000f88565b945062000f9d565b94509492505050565b5f8262000fff5760019050620010d1565b816200100e575f9050620010d1565b8160018114620010275760028114620010325762001068565b6001915050620010d1565b60ff84111562001047576200104662000f5b565b5b8360020a91508482111562001061576200106062000f5b565b5b50620010d1565b5060208310610133831016604e8410600b8410161715620010a25782820a9050838111156200109c576200109b62000f5b565b5b620010d1565b620010b1848484600162000f94565b92509050818404811115620010cb57620010ca62000f5b565b5b81810290505b9392505050565b5f620010e48262000a1a565b9150620010f183620009df565b9250620011207fffffffffffffffffffffffffffffffffffffffffffffffffffffffffffffffff848462000fee565b905092915050565b5f620011348262000a1a565b9150620011418362000a1a565b9250828202620011518162000a1a565b915082820484148315176200116b576200116a62000f5b565b5b5092915050565b7f45524332304361707065643a20636170206578636565646564000000000000005f82015250565b5f620011a860198362000edd565b9150620011b58262001172565b602082019050919050565b5f6020820190508181035f830152620011d9816200119a565b9050919050565b7f496e73756666696369656e742066656520616d6f756e742073656e74000000005f82015250565b5f62001216601c8362000edd565b91506200122382620011e0565b602082019050919050565b5f6020820190508181035f830152620012478162001208565b9050919050565b7f496e76616c6964206665652072656365697665722061646472657373000000005f82015250565b5f62001284601c8362000edd565b915062001291826200124e565b602082019050919050565b5f6020820190508181035f830152620012b58162001276565b9050919050565b5f81905092915050565b50565b5f620012d65f83620012bc565b9150620012e382620012c6565b5f82019050919050565b5f620012f982620012c9565b9150819050919050565b7f466565207472616e73666572206661696c6564000000000000000000000000005f82015250565b5f6200133960138362000edd565b9150620013468262001303565b602082019050919050565b5f6020820190508181035f8301526200136a816200132b565b9050919050565b5f6200137d8262000a1a565b91506200138a8362000a1a565b9250828201905080821115620013a557620013a462000f5b565b5b92915050565b620013b68162000a1a565b82525050565b5f606082019050620013d15f83018662000b9f565b620013e06020830185620013ab565b620013ef6040830184620013ab565b949350505050565b5f6020820190506200140c5f830184620013ab565b92915050565b6115fa80620014205f395ff3fe608060405234801561000f575f80fd5b5060043610610109575f3560e01c80635c975abb116100a05780638da5cb5b1161006f5780638da5cb5b1461026d57806395d89b411461028b578063a9059cbb146102a9578063dd62ed3e146102d9578063f2fde38b1461030957610109565b80635c975abb1461020b57806370a0823114610229578063715018a6146102595780638456cb591461026357610109565b8063313ce567116100dc578063313ce567146101a9578063355274ea146101c75780633f4ba83a146101e557806340c10f19146101ef57610109565b806306fdde031461010d578063095ea7b31461012b57806318160ddd1461015b57806323b872dd14610179575b5f80fd5b610115610325565b6040516101229190611051565b60405180910390f35b61014560048036038101906101409190611102565b6103b5565b604051610152919061115a565b60405180910390f35b6101636103d7565b6040516101709190611182565b60405180910390f35b610193600480360381019061018e919061119b565b6103e0565b6040516101a0919061115a565b60405180910390f35b6101b161040e565b6040516101be9190611206565b60405180910390f35b6101cf610423565b6040516101dc9190611182565b60405180910390f35b6101ed61042c565b005b61020960048036038101906102049190611102565b61043e565b005b610213610454565b604051610220919061115a565b60405180910390f35b610243600480360381019061023e919061121f565b610469565b6040516102509190611182565b60405180910390f35b6102616104af565b005b61026b6104c2565b005b6102756104d4565b6040516102829190611259565b60405180910390f35b6102936104fb565b6040516102a09190611051565b60405180910390f35b6102c360048036038101906102be9190611102565b61058b565b6040516102d0919061115a565b60405180910390f35b6102f360048036038101906102ee9190611272565b6105ad565b6040516103009190611182565b60405180910390f35b610323600480360381019061031e919061121f565b61062f565b005b606060048054610334906112dd565b80601f0160208091040260200160405190810160405280929190818152602001828054610360906112dd565b80156103ab5780601f10610382576101008083540402835291602001916103ab565b820191905f5260205f20905b81548152906001019060200180831161038e57829003601f168201915b5050505050905090565b5f806103bf6106b3565b90506103cc8185856106ba565b600191505092915050565b5f600354905090565b5f806103ea6106b3565b90506103f78582856106cc565b61040285858561075f565b60019150509392505050565b5f60065f9054906101000a900460ff16905090565b5f600754905090565b61043461084f565b61043c6108d6565b565b61044661084f565b6104508282610937565b5050565b5f8060149054906101000a900460ff16905090565b5f60015f8373ffffffffffffffffffffffffffffffffffffffff1673ffffffffffffffffffffffffffffffffffffffff1681526020019081526020015f20549050919050565b6104b761084f565b6104c05f610a30565b565b6104ca61084f565b6104d2610af1565b565b5f805f9054906101000a900473ffffffffffffffffffffffffffffffffffffffff16905090565b60606005805461050a906112dd565b80601f0160208091040260200160405190810160405280929190818152602001828054610536906112dd565b80156105815780601f1061055857610100808354040283529160200191610581565b820191905f5260205f20905b81548152906001019060200180831161056457829003601f168201915b5050505050905090565b5f806105956106b3565b90506105a281858561075f565b600191505092915050565b5f60025f8473ffffffffffffffffffffffffffffffffffffffff1673ffffffffffffffffffffffffffffffffffffffff1681526020019081526020015f205f8373ffffffffffffffffffffffffffffffffffffffff1673ffffffffffffffffffffffffffffffffffffffff1681526020019081526020015f2054905092915050565b61063761084f565b5f73ffffffffffffffffffffffffffffffffffffffff168173ffffffffffffffffffffffffffffffffffffffff16036106a7575f6040517f1e4fbdf700000000000000000000000000000000000000000000000000000000815260040161069e9190611259565b60405180910390fd5b6106b081610a30565b50565b5f33905090565b6106c78383836001610b53565b505050565b5f6106d784846105ad565b90507fffffffffffffffffffffffffffffffffffffffffffffffffffffffffffffffff811015610759578181101561074a578281836040517ffb8f41b20000000000000000000000000000000000000000000000000000000081526004016107419392919061130d565b60405180910390fd5b61075884848484035f610b53565b5b50505050565b5f73ffffffffffffffffffffffffffffffffffffffff168373ffffffffffffffffffffffffffffffffffffffff16036107cf575f6040517f96c6fd1e0000000000000000000000000000000000000000000000000000000081526004016107c69190611259565b60405180910390fd5b5f73ffffffffffffffffffffffffffffffffffffffff168273ffffffffffffffffffffffffffffffffffffffff160361083f575f6040517fec442f050000000000000000000000000000000000000000000000000000000081526004016108369190611259565b60405180910390fd5b61084a838383610d22565b505050565b6108576106b3565b73ffffffffffffffffffffffffffffffffffffffff166108756104d4565b73ffffffffffffffffffffffffffffffffffffffff16146108d4576108986106b3565b6040517f118cdaa70000000000000000000000000000000000000000000000000000000081526004016108cb9190611259565b60405180910390fd5b565b6108de610f46565b5f8060146101000a81548160ff0219169083151502179055507f5db9ee0a495bf2e6ff9c91a7834c1ba4fdd244a5e8aa4e537bd38aeae4b073aa6109206106b3565b60405161092d9190611259565b60405180910390a1565b61093f61040e565b600a61094b919061149e565b610953610423565b61095d91906114e8565b816109666103d7565b6109709190611529565b11156109b1576040517f08c379a00000000000000000000000000000000000000000000000000000000081526004016109a8906115a6565b60405180910390fd5b5f73ffffffffffffffffffffffffffffffffffffffff168273ffffffffffffffffffffffffffffffffffffffff1603610a21575f6040517fec442f05000000000000000000000000000000000000000000000000000000008152600401610a189190611259565b60405180910390fd5b610a2c5f8383610d22565b5050565b5f805f9054906101000a900473ffffffffffffffffffffffffffffffffffffffff169050815f806101000a81548173ffffffffffffffffffffffffffffffffffffffff021916908373ffffffffffffffffffffffffffffffffffffffff1602179055508173ffffffffffffffffffffffffffffffffffffffff168173ffffffffffffffffffffffffffffffffffffffff167f8be0079c531659141344cd1fd0a4f28419497f9722a3daafe3b4186f6b6457e060405160405180910390a35050565b610af9610f86565b60015f60146101000a81548160ff0219169083151502179055507f62e78cea01bee320cd4e420270b5ea74000d11b0c9f74754ebdbfc544b05a258610b3c6106b3565b604051610b499190611259565b60405180910390a1565b5f73ffffffffffffffffffffffffffffffffffffffff168473ffffffffffffffffffffffffffffffffffffffff1603610bc3575f6040517fe602df05000000000000000000000000000000000000000000000000000000008152600401610bba9190611259565b60405180910390fd5b5f73ffffffffffffffffffffffffffffffffffffffff168373ffffffffffffffffffffffffffffffffffffffff1603610c33575f6040517f94280d62000000000000000000000000000000000000000000000000000000008152600401610c2a9190611259565b60405180910390fd5b8160025f8673ffffffffffffffffffffffffffffffffffffffff1673ffffffffffffffffffffffffffffffffffffffff1681526020019081526020015f205f8573ffffffffffffffffffffffffffffffffffffffff1673ffffffffffffffffffffffffffffffffffffffff1681526020019081526020015f20819055508015610d1c578273ffffffffffffffffffffffffffffffffffffffff168473ffffffffffffffffffffffffffffffffffffffff167f8c5be1e5ebec7d5bd14f71427d1e84f3dd0314c0f7b2291e5b200ac8c7c3b92584604051610d139190611182565b60405180910390a35b50505050565b610d2a610f86565b5f73ffffffffffffffffffffffffffffffffffffffff168373ffffffffffffffffffffffffffffffffffffffff1603610d7a578060035f828254610d6e9190611529565b92505081905550610e4a565b5f60015f8573ffffffffffffffffffffffffffffffffffffffff1673ffffffffffffffffffffffffffffffffffffffff1681526020019081526020015f2054905081811015610e04578381836040517fe450d38c000000000000000000000000000000000000000000000000000000008152600401610dfb9392919061130d565b60405180910390fd5b81810360015f8673ffffffffffffffffffffffffffffffffffffffff1673ffffffffffffffffffffffffffffffffffffffff1681526020019081526020015f2081905550505b5f73ffffffffffffffffffffffffffffffffffffffff168273ffffffffffffffffffffffffffffffffffffffff1603610e91578060035f8282540392505081905550610edc565b8060015f8473ffffffffffffffffffffffffffffffffffffffff1673ffffffffffffffffffffffffffffffffffffffff1681526020019081526020015f205f82825401925050819055505b8173ffffffffffffffffffffffffffffffffffffffff168373ffffffffffffffffffffffffffffffffffffffff167fddf252ad1be2c89b69c2b068fc378daa952ba7f163c4a11628f55a4df523b3ef83604051610f399190611182565b60405180910390a3505050565b610f4e610454565b610f84576040517f8dfc202b00000000000000000000000000000000000000000000000000000000815260040160405180910390fd5b565b610f8e610454565b15610fc5576040517fd93c066500000000000000000000000000000000000000000000000000000000815260040160405180910390fd5b565b5f81519050919050565b5f82825260208201905092915050565b5f5b83811015610ffe578082015181840152602081019050610fe3565b5f8484015250505050565b5f601f19601f8301169050919050565b5f61102382610fc7565b61102d8185610fd1565b935061103d818560208601610fe1565b61104681611009565b840191505092915050565b5f6020820190508181035f8301526110698184611019565b905092915050565b5f80fd5b5f73ffffffffffffffffffffffffffffffffffffffff82169050919050565b5f61109e82611075565b9050919050565b6110ae81611094565b81146110b8575f80fd5b50565b5f813590506110c9816110a5565b92915050565b5f819050919050565b6110e1816110cf565b81146110eb575f80fd5b50565b5f813590506110fc816110d8565b92915050565b5f806040838503121561111857611117611071565b5b5f611125858286016110bb565b9250506020611136858286016110ee565b9150509250929050565b5f8115159050919050565b61115481611140565b82525050565b5f60208201905061116d5f83018461114b565b92915050565b61117c816110cf565b82525050565b5f6020820190506111955f830184611173565b92915050565b5f805f606084860312156111b2576111b1611071565b5b5f6111bf868287016110bb565b93505060206111d0868287016110bb565b92505060406111e1868287016110ee565b9150509250925092565b5f60ff82169050919050565b611200816111eb565b82525050565b5f6020820190506112195f8301846111f7565b92915050565b5f6020828403121561123457611233611071565b5b5f611241848285016110bb565b91505092915050565b61125381611094565b82525050565b5f60208201905061126c5f83018461124a565b92915050565b5f806040838503121561128857611287611071565b5b5f611295858286016110bb565b92505060206112a6858286016110bb565b9150509250929050565b7f4e487b71000000000000000000000000000000000000000000000000000000005f52602260045260245ffd5b5f60028204905060018216806112f457607f821691505b602082108103611307576113066112b0565b5b50919050565b5f6060820190506113205f83018661124a565b61132d6020830185611173565b61133a6040830184611173565b949350505050565b7f4e487b71000000000000000000000000000000000000000000000000000000005f52601160045260245ffd5b5f8160011c9050919050565b5f808291508390505b60018511156113c4578086048111156113a05761139f611342565b5b60018516156113af5780820291505b80810290506113bd8561136f565b9450611384565b94509492505050565b5f826113dc5760019050611497565b816113e9575f9050611497565b81600181146113ff576002811461140957611438565b6001915050611497565b60ff84111561141b5761141a611342565b5b8360020a91508482111561143257611431611342565b5b50611497565b5060208310610133831016604e8410600b841016171561146d5782820a90508381111561146857611467611342565b5b611497565b61147a848484600161137b565b9250905081840481111561149157611490611342565b5b81810290505b9392505050565b5f6114a8826110cf565b91506114b3836111eb565b92506114e07fffffffffffffffffffffffffffffffffffffffffffffffffffffffffffffffff84846113cd565b905092915050565b5f6114f2826110cf565b91506114fd836110cf565b925082820261150b816110cf565b9150828204841483151761152257611521611342565b5b5092915050565b5f611533826110cf565b915061153e836110cf565b925082820190508082111561155657611555611342565b5b92915050565b7f45524332304361707065643a20636170206578636565646564000000000000005f82015250565b5f611590601983610fd1565b915061159b8261155c565b602082019050919050565b5f6020820190508181035f8301526115bd81611584565b905091905056fea2646970667358221220aedcbe4652210fe3062f2a59273fe37e599b711defba64515f7fbccd5c321bc464736f6c63430008170033","linkReferences":{}},"methodIdentifiers":{"allowance(address,address)":"dd62ed3e","approve(address,uint256)":"095ea7b3","balanceOf(address)":"70a08231","cap()":"355274ea","decimals()":"313ce567","mint(address,uint256)":"40c10f19","name()":"06fdde03","owner()":"8da5cb5b","pause()":"8456cb59","paused()":"5c975abb","renounceOwnership()":"715018a6","symbol()":"95d89b41","totalSupply()":"18160ddd","transfer(address,uint256)":"a9059cbb","transferFrom(address,address,uint256)":"23b872dd","transferOwnership(address)":"f2fde38b","unpause()":"3f4ba83a"},"id":40}