{"abi":[{"type":"constructor","inputs":[{"name":"name_","type":"string","internalType":"string"},{"name":"symbol_","type":"string","internalType":"string"},{"name":"decimals_","type":"uint8","internalType":"uint8"},{"name":"totalSupply_","type":"uint256","internalType":"uint256"},{"name":"cap_","type":"uint256","internalType":"uint256"},{"name":"serviceFeeReceiver_","type":"address","internalType":"address"},{"name":"serviceFee_","type":"uint256","internalType":"uint256"}],"stateMutability":"payable"},{"type":"function","name":"allowance","inputs":[{"name":"owner","type":"address","internalType":"address"},{"name":"spender","type":"address","internalType":"address"}],"outputs":[{"name":"","type":"uint256","internalType":"uint256"}],"stateMutability":"view"},{"type":"function","name":"approve","inputs":[{"name":"spender","type":"address","internalType":"address"},{"name":"value","type":"uint256","internalType":"uint256"}],"outputs":[{"name":"","type":"bool","internalType":"bool"}],"stateMutability":"nonpayable"},{"type":"function","name":"balanceOf","inputs":[{"name":"account","type":"address","internalType":"address"}],"outputs":[{"name":"","type":"uint256","internalType":"uint256"}],"stateMutability":"view"},{"type":"function","name":"cap","inputs":[],"outputs":[{"name":"","type":"uint256","internalType":"uint256"}],"stateMutability":"view"},{"type":"function","name":"decimals","inputs":[],"outputs":[{"name":"","type":"uint8","internalType":"uint8"}],"stateMutability":"view"},{"type":"function","name":"mint","inputs":[{"name":"to","type":"address","internalType":"address"},{"name":"amount","type":"uint256","internalType":"uint256"}],"outputs":[],"stateMutability":"nonpayable"},{"type":"function","name":"name","inputs":[],"outputs":[{"name":"","type":"string","internalType":"string"}],"stateMutability":"view"},{"type":"function","name":"owner","inputs":[],"outputs":[{"name":"","type":"address","internalType":"address"}],"stateMutability":"view"},{"type":"function","name":"pause","inputs":[],"outputs":[],"stateMutability":"nonpayable"},{"type":"function","name":"paused","inputs":[],"outputs":[{"name":"","type":"bool","internalType":"bool"}],"stateMutability":"view"},{"type":"function","name":"renounceOwnership","inputs":[],"outputs":[],"stateMutability":"nonpayable"},{"type":"function","name":"symbol","inputs":[],"outputs":[{"name":"","type":"string","internalType":"string"}],"stateMutability":"view"},{"type":"function","name":"totalSupply","inputs":[],"outputs":[{"name":"","type":"uint256","internalType":"uint256"}],"stateMutability":"view"},{"type":"function","name":"transfer","inputs":[{"name":"to","type":"address","internalType":"address"},{"name":"value","type":"uint256","internalType":"uint256"}],"outputs":[{"name":"","type":"bool","internalType":"bool"}],"stateMutability":"nonpayable"},{"type":"function","name":"transferFrom","inputs":[{"name":"from","type":"address","internalType":"address"},{"name":"to","type":"address","internalType":"address"},{"name":"value","type":"uint256","internalType":"uint256"}],"outputs":[{"name":"","type":"bool","internalType":"bool"}],"stateMutability":"nonpayable"},{"type":"function","name":"transferOwnership","inputs":[{"name":"newOwner","type":"address","internalType":"address"}],"outputs":[],"stateMutability":"nonpayable"},{"type":"function","name":"unpause","inputs":[],"outputs":[],"stateMutability":"nonpayable"},{"type":"event","name":"Approval","inputs":[{"name":"owner","type":"address","indexed":true,"internalType":"address"},{"name":"spender","type":"address","indexed":true,"internalType":"address"},{"name":"value","type":"uint256","indexed":false,"internalType":"uint256"}],"anonymous":false},{"type":"event","name":"OwnershipTransferred","inputs":[{"name":"previousOwner","type":"address","indexed":true,"internalType":"address"},{"name":"newOwner","type":"address","indexed":true,"internalType":"address"}],"anonymous":false},{"type":"event","name":"Paused","inputs":[{"name":"account","type":"address","indexed":false,"internalType":"address"}],"anonymous":false},{"type":"event","name":"Transfer","inputs":[{"name":"from","type":"address","indexed":true,"internalType":"address"},{"name":"to","type":"address","indexed":true,"internalType":"address"},{"name":"value","type":"uint256","indexed":false,"internalType":"uint256"}],"anonymous":false},{"type":"event","name":"Unpaused","inputs":[{"name":"account","type":"address","indexed":false,"internalType":"address"}],"anonymous":false},{"type":"error","name":"ERC20InsufficientAllowance","inputs":[{"name":"spender","type":"address","internalType":"address"},{"name":"allowance","type":"uint256","internalType":"uint256"},{"name":"needed","type":"uint256","internalType":"uint256"}]},{"type":"error","name":"ERC20InsufficientBalance","inputs":[{"name":"sender","type":"address","internalType":"address"},{"name":"balance","type":"uint256","internalType":"uint256"},{"name":"needed","type":"uint256","internalType":"uint256"}]},{"type":"error","name":"ERC20InvalidApprover","inputs":[{"name":"approver","type":"address","internalType":"address"}]},{"type":"error","name":"ERC20InvalidReceiver","inputs":[{"name":"receiver","type":"address","internalType":"address"}]},{"type":"error","name":"ERC20InvalidSender","inputs":[{"name":"sender","type":"address","internalType":"address"}]},{"type":"error","name":"ERC20InvalidSpender","inputs":[{"name":"spender","type":"address","internalType":"address"}]},{"type":"error","name":"EnforcedPause","inputs":[]},{"type":"error","name":"ExpectedPause","inputs":[]},{"type":"error","name":"OwnableInvalidOwner","inputs":[{"name":"owner","type":"address","internalType":"address"}]},{"type":"error","name":"OwnableUnauthorizedAccount","inputs":[{"name":"account","type":"address","internalType":"address"}]}],"bytecode":{"object":"0x60806040526040516128a33803806128a383398181016040528101906100259190610a13565b335f73ffffffffffffffffffffffffffffffffffffffff168173ffffffffffffffffffffffffffffffffffffffff1603610096575f6040517f1e4fbdf700000000000000000000000000000000000000000000000000000000815260040161008d9190610af7565b60405180910390fd5b6100a58161035d60201b60201c565b505f5f60146101000a81548160ff02191690831515021790555086600490816100ce9190610d17565b5085600590816100de9190610d17565b508460065f6101000a81548160ff021916908360ff1602179055505f831161013b576040517f08c379a000000000000000000000000000000000000000000000000000000000815260040161013290610e40565b60405180910390fd5b8260078190555061015061041e60201b60201c565b600a61015c9190610fba565b61016a61043360201b60201c565b6101749190611004565b8411156101b6576040517f08c379a00000000000000000000000000000000000000000000000000000000081526004016101ad9061108f565b60405180910390fd5b803410156101f9576040517f08c379a00000000000000000000000000000000000000000000000000000000081526004016101f0906110f7565b60405180910390fd5b5f73ffffffffffffffffffffffffffffffffffffffff168273ffffffffffffffffffffffffffffffffffffffff1603610267576040517f08c379a000000000000000000000000000000000000000000000000000000000815260040161025e9061115f565b60405180910390fd5b5f8273ffffffffffffffffffffffffffffffffffffffff168260405161028c906111aa565b5f6040518083038185875af1925050503d805f81146102c6576040519150601f19603f3d011682016040523d82523d5f602084013e6102cb565b606091505b505090508061030f576040517f08c379a000000000000000000000000000000000000000000000000000000000815260040161030690611208565b60405180910390fd5b61035061032061043c60201b60201c565b61032e61041e60201b60201c565b600a61033a9190610fba565b876103459190611004565b61046360201b60201c565b50505050505050506112b6565b5f5f5f9054906101000a900473ffffffffffffffffffffffffffffffffffffffff169050815f5f6101000a81548173ffffffffffffffffffffffffffffffffffffffff021916908373ffffffffffffffffffffffffffffffffffffffff1602179055508173ffffffffffffffffffffffffffffffffffffffff168173ffffffffffffffffffffffffffffffffffffffff167f8be0079c531659141344cd1fd0a4f28419497f9722a3daafe3b4186f6b6457e060405160405180910390a35050565b5f60065f9054906101000a900460ff16905090565b5f600754905090565b5f5f5f9054906101000a900473ffffffffffffffffffffffffffffffffffffffff16905090565b61047161041e60201b60201c565b600a61047d9190610fba565b61048b61043360201b60201c565b6104959190611004565b816104a461057460201b60201c565b6104ae9190611226565b11156104ef576040517f08c379a00000000000000000000000000000000000000000000000000000000081526004016104e69061108f565b60405180910390fd5b5f73ffffffffffffffffffffffffffffffffffffffff168273ffffffffffffffffffffffffffffffffffffffff160361055f575f6040517fec442f050000000000000000000000000000000000000000000000000000000081526004016105569190610af7565b60405180910390fd5b6105705f838361057d60201b60201c565b5050565b5f600354905090565b61058b6107a760201b60201c565b5f73ffffffffffffffffffffffffffffffffffffffff168373ffffffffffffffffffffffffffffffffffffffff16036105db578060035f8282546105cf9190611226565b925050819055506106ab565b5f60015f8573ffffffffffffffffffffffffffffffffffffffff1673ffffffffffffffffffffffffffffffffffffffff1681526020019081526020015f2054905081811015610665578381836040517fe450d38c00000000000000000000000000000000000000000000000000000000815260040161065c93929190611268565b60405180910390fd5b81810360015f8673ffffffffffffffffffffffffffffffffffffffff1673ffffffffffffffffffffffffffffffffffffffff1681526020019081526020015f2081905550505b5f73ffffffffffffffffffffffffffffffffffffffff168273ffffffffffffffffffffffffffffffffffffffff16036106f2578060035f828254039250508190555061073d565b8060015f8473ffffffffffffffffffffffffffffffffffffffff1673ffffffffffffffffffffffffffffffffffffffff1681526020019081526020015f205f82825401925050819055505b8173ffffffffffffffffffffffffffffffffffffffff168373ffffffffffffffffffffffffffffffffffffffff167fddf252ad1be2c89b69c2b068fc378daa952ba7f163c4a11628f55a4df523b3ef8360405161079a919061129d565b60405180910390a3505050565b6107b56107ee60201b60201c565b156107ec576040517fd93c066500000000000000000000000000000000000000000000000000000000815260040160405180910390fd5b565b5f5f60149054906101000a900460ff16905090565b5f604051905090565b5f5ffd5b5f5ffd5b5f5ffd5b5f5ffd5b5f601f19601f8301169050919050565b7f4e487b71000000000000000000000000000000000000000000000000000000005f52604160045260245ffd5b6108628261081c565b810181811067ffffffffffffffff821117156108815761088061082c565b5b80604052505050565b5f610893610803565b905061089f8282610859565b919050565b5f67ffffffffffffffff8211156108be576108bd61082c565b5b6108c78261081c565b9050602081019050919050565b8281835e5f83830152505050565b5f6108f46108ef846108a4565b61088a565b9050828152602081018484840111156109105761090f610818565b5b61091b8482856108d4565b509392505050565b5f82601f83011261093757610936610814565b5b81516109478482602086016108e2565b91505092915050565b5f60ff82169050919050565b61096581610950565b811461096f575f5ffd5b50565b5f815190506109808161095c565b92915050565b5f819050919050565b61099881610986565b81146109a2575f5ffd5b50565b5f815190506109b38161098f565b92915050565b5f73ffffffffffffffffffffffffffffffffffffffff82169050919050565b5f6109e2826109b9565b9050919050565b6109f2816109d8565b81146109fc575f5ffd5b50565b5f81519050610a0d816109e9565b92915050565b5f5f5f5f5f5f5f60e0888a031215610a2e57610a2d61080c565b5b5f88015167ffffffffffffffff811115610a4b57610a4a610810565b5b610a578a828b01610923565b975050602088015167ffffffffffffffff811115610a7857610a77610810565b5b610a848a828b01610923565b9650506040610a958a828b01610972565b9550506060610aa68a828b016109a5565b9450506080610ab78a828b016109a5565b93505060a0610ac88a828b016109ff565b92505060c0610ad98a828b016109a5565b91505092959891949750929550565b610af1816109d8565b82525050565b5f602082019050610b0a5f830184610ae8565b92915050565b5f81519050919050565b7f4e487b71000000000000000000000000000000000000000000000000000000005f52602260045260245ffd5b5f6002820490506001821680610b5e57607f821691505b602082108103610b7157610b70610b1a565b5b50919050565b5f819050815f5260205f209050919050565b5f6020601f8301049050919050565b5f82821b905092915050565b5f60088302610bd37fffffffffffffffffffffffffffffffffffffffffffffffffffffffffffffffff82610b98565b610bdd8683610b98565b95508019841693508086168417925050509392505050565b5f819050919050565b5f610c18610c13610c0e84610986565b610bf5565b610986565b9050919050565b5f819050919050565b610c3183610bfe565b610c45610c3d82610c1f565b848454610ba4565b825550505050565b5f5f905090565b610c5c610c4d565b610c67818484610c28565b505050565b5b81811015610c8a57610c7f5f82610c54565b600181019050610c6d565b5050565b601f821115610ccf57610ca081610b77565b610ca984610b89565b81016020851015610cb8578190505b610ccc610cc485610b89565b830182610c6c565b50505b505050565b5f82821c905092915050565b5f610cef5f1984600802610cd4565b1980831691505092915050565b5f610d078383610ce0565b9150826002028217905092915050565b610d2082610b10565b67ffffffffffffffff811115610d3957610d3861082c565b5b610d438254610b47565b610d4e828285610c8e565b5f60209050601f831160018114610d7f575f8415610d6d578287015190505b610d778582610cfc565b865550610dde565b601f198416610d8d86610b77565b5f5b82811015610db457848901518255600182019150602085019450602081019050610d8f565b86831015610dd15784890151610dcd601f891682610ce0565b8355505b6001600288020188555050505b505050505050565b5f82825260208201905092915050565b7f4361702073686f756c642062652067726561746572207468616e2030000000005f82015250565b5f610e2a601c83610de6565b9150610e3582610df6565b602082019050919050565b5f6020820190508181035f830152610e5781610e1e565b9050919050565b7f4e487b71000000000000000000000000000000000000000000000000000000005f52601160045260245ffd5b5f8160011c9050919050565b5f5f8291508390505b6001851115610ee057808604811115610ebc57610ebb610e5e565b5b6001851615610ecb5780820291505b8081029050610ed985610e8b565b9450610ea0565b94509492505050565b5f82610ef85760019050610fb3565b81610f05575f9050610fb3565b8160018114610f1b5760028114610f2557610f54565b6001915050610fb3565b60ff841115610f3757610f36610e5e565b5b8360020a915084821115610f4e57610f4d610e5e565b5b50610fb3565b5060208310610133831016604e8410600b8410161715610f895782820a905083811115610f8457610f83610e5e565b5b610fb3565b610f968484846001610e97565b92509050818404811115610fad57610fac610e5e565b5b81810290505b9392505050565b5f610fc482610986565b9150610fcf83610950565b9250610ffc7fffffffffffffffffffffffffffffffffffffffffffffffffffffffffffffffff8484610ee9565b905092915050565b5f61100e82610986565b915061101983610986565b925082820261102781610986565b9150828204841483151761103e5761103d610e5e565b5b5092915050565b7f45524332304361707065643a20636170206578636565646564000000000000005f82015250565b5f611079601983610de6565b915061108482611045565b602082019050919050565b5f6020820190508181035f8301526110a68161106d565b9050919050565b7f496e73756666696369656e742066656520616d6f756e742073656e74000000005f82015250565b5f6110e1601c83610de6565b91506110ec826110ad565b602082019050919050565b5f6020820190508181035f83015261110e816110d5565b9050919050565b7f496e76616c6964206665652072656365697665722061646472657373000000005f82015250565b5f611149601c83610de6565b915061115482611115565b602082019050919050565b5f6020820190508181035f8301526111768161113d565b9050919050565b5f81905092915050565b50565b5f6111955f8361117d565b91506111a082611187565b5f82019050919050565b5f6111b48261118a565b9150819050919050565b7f466565207472616e73666572206661696c6564000000000000000000000000005f82015250565b5f6111f2601383610de6565b91506111fd826111be565b602082019050919050565b5f6020820190508181035f83015261121f816111e6565b9050919050565b5f61123082610986565b915061123b83610986565b925082820190508082111561125357611252610e5e565b5b92915050565b61126281610986565b82525050565b5f60608201905061127b5f830186610ae8565b6112886020830185611259565b6112956040830184611259565b949350505050565b5f6020820190506112b05f830184611259565b92915050565b6115e0806112c35f395ff3fe608060405234801561000f575f5ffd5b5060043610610109575f3560e01c80635c975abb116100a05780638da5cb5b1161006f5780638da5cb5b1461026d57806395d89b411461028b578063a9059cbb146102a9578063dd62ed3e146102d9578063f2fde38b1461030957610109565b80635c975abb1461020b57806370a0823114610229578063715018a6146102595780638456cb591461026357610109565b8063313ce567116100dc578063313ce567146101a9578063355274ea146101c75780633f4ba83a146101e557806340c10f19146101ef57610109565b806306fdde031461010d578063095ea7b31461012b57806318160ddd1461015b57806323b872dd14610179575b5f5ffd5b610115610325565b6040516101229190611037565b60405180910390f35b610145600480360381019061014091906110e8565b6103b5565b6040516101529190611140565b60405180910390f35b6101636103d7565b6040516101709190611168565b60405180910390f35b610193600480360381019061018e9190611181565b6103e0565b6040516101a09190611140565b60405180910390f35b6101b161040e565b6040516101be91906111ec565b60405180910390f35b6101cf610423565b6040516101dc9190611168565b60405180910390f35b6101ed61042c565b005b610209600480360381019061020491906110e8565b61043e565b005b610213610454565b6040516102209190611140565b60405180910390f35b610243600480360381019061023e9190611205565b610469565b6040516102509190611168565b60405180910390f35b6102616104af565b005b61026b6104c2565b005b6102756104d4565b604051610282919061123f565b60405180910390f35b6102936104fb565b6040516102a09190611037565b60405180910390f35b6102c360048036038101906102be91906110e8565b61058b565b6040516102d09190611140565b60405180910390f35b6102f360048036038101906102ee9190611258565b6105ad565b6040516103009190611168565b60405180910390f35b610323600480360381019061031e9190611205565b61062f565b005b606060048054610334906112c3565b80601f0160208091040260200160405190810160405280929190818152602001828054610360906112c3565b80156103ab5780601f10610382576101008083540402835291602001916103ab565b820191905f5260205f20905b81548152906001019060200180831161038e57829003601f168201915b5050505050905090565b5f5f6103bf6106b3565b90506103cc8185856106ba565b600191505092915050565b5f600354905090565b5f5f6103ea6106b3565b90506103f78582856106cc565b61040285858561075f565b60019150509392505050565b5f60065f9054906101000a900460ff16905090565b5f600754905090565b61043461084f565b61043c6108d6565b565b61044661084f565b6104508282610937565b5050565b5f5f60149054906101000a900460ff16905090565b5f60015f8373ffffffffffffffffffffffffffffffffffffffff1673ffffffffffffffffffffffffffffffffffffffff1681526020019081526020015f20549050919050565b6104b761084f565b6104c05f610a30565b565b6104ca61084f565b6104d2610af1565b565b5f5f5f9054906101000a900473ffffffffffffffffffffffffffffffffffffffff16905090565b60606005805461050a906112c3565b80601f0160208091040260200160405190810160405280929190818152602001828054610536906112c3565b80156105815780601f1061055857610100808354040283529160200191610581565b820191905f5260205f20905b81548152906001019060200180831161056457829003601f168201915b5050505050905090565b5f5f6105956106b3565b90506105a281858561075f565b600191505092915050565b5f60025f8473ffffffffffffffffffffffffffffffffffffffff1673ffffffffffffffffffffffffffffffffffffffff1681526020019081526020015f205f8373ffffffffffffffffffffffffffffffffffffffff1673ffffffffffffffffffffffffffffffffffffffff1681526020019081526020015f2054905092915050565b61063761084f565b5f73ffffffffffffffffffffffffffffffffffffffff168173ffffffffffffffffffffffffffffffffffffffff16036106a7575f6040517f1e4fbdf700000000000000000000000000000000000000000000000000000000815260040161069e919061123f565b60405180910390fd5b6106b081610a30565b50565b5f33905090565b6106c78383836001610b53565b505050565b5f6106d784846105ad565b90507fffffffffffffffffffffffffffffffffffffffffffffffffffffffffffffffff811015610759578181101561074a578281836040517ffb8f41b2000000000000000000000000000000000000000000000000000000008152600401610741939291906112f3565b60405180910390fd5b61075884848484035f610b53565b5b50505050565b5f73ffffffffffffffffffffffffffffffffffffffff168373ffffffffffffffffffffffffffffffffffffffff16036107cf575f6040517f96c6fd1e0000000000000000000000000000000000000000000000000000000081526004016107c6919061123f565b60405180910390fd5b5f73ffffffffffffffffffffffffffffffffffffffff168273ffffffffffffffffffffffffffffffffffffffff160361083f575f6040517fec442f05000000000000000000000000000000000000000000000000000000008152600401610836919061123f565b60405180910390fd5b61084a838383610d22565b505050565b6108576106b3565b73ffffffffffffffffffffffffffffffffffffffff166108756104d4565b73ffffffffffffffffffffffffffffffffffffffff16146108d4576108986106b3565b6040517f118cdaa70000000000000000000000000000000000000000000000000000000081526004016108cb919061123f565b60405180910390fd5b565b6108de610f46565b5f5f60146101000a81548160ff0219169083151502179055507f5db9ee0a495bf2e6ff9c91a7834c1ba4fdd244a5e8aa4e537bd38aeae4b073aa6109206106b3565b60405161092d919061123f565b60405180910390a1565b61093f61040e565b600a61094b9190611484565b610953610423565b61095d91906114ce565b816109666103d7565b610970919061150f565b11156109b1576040517f08c379a00000000000000000000000000000000000000000000000000000000081526004016109a89061158c565b60405180910390fd5b5f73ffffffffffffffffffffffffffffffffffffffff168273ffffffffffffffffffffffffffffffffffffffff1603610a21575f6040517fec442f05000000000000000000000000000000000000000000000000000000008152600401610a18919061123f565b60405180910390fd5b610a2c5f8383610d22565b5050565b5f5f5f9054906101000a900473ffffffffffffffffffffffffffffffffffffffff169050815f5f6101000a81548173ffffffffffffffffffffffffffffffffffffffff021916908373ffffffffffffffffffffffffffffffffffffffff1602179055508173ffffffffffffffffffffffffffffffffffffffff168173ffffffffffffffffffffffffffffffffffffffff167f8be0079c531659141344cd1fd0a4f28419497f9722a3daafe3b4186f6b6457e060405160405180910390a35050565b610af9610f86565b60015f60146101000a81548160ff0219169083151502179055507f62e78cea01bee320cd4e420270b5ea74000d11b0c9f74754ebdbfc544b05a258610b3c6106b3565b604051610b49919061123f565b60405180910390a1565b5f73ffffffffffffffffffffffffffffffffffffffff168473ffffffffffffffffffffffffffffffffffffffff1603610bc3575f6040517fe602df05000000000000000000000000000000000000000000000000000000008152600401610bba919061123f565b60405180910390fd5b5f73ffffffffffffffffffffffffffffffffffffffff168373ffffffffffffffffffffffffffffffffffffffff1603610c33575f6040517f94280d62000000000000000000000000000000000000000000000000000000008152600401610c2a919061123f565b60405180910390fd5b8160025f8673ffffffffffffffffffffffffffffffffffffffff1673ffffffffffffffffffffffffffffffffffffffff1681526020019081526020015f205f8573ffffffffffffffffffffffffffffffffffffffff1673ffffffffffffffffffffffffffffffffffffffff1681526020019081526020015f20819055508015610d1c578273ffffffffffffffffffffffffffffffffffffffff168473ffffffffffffffffffffffffffffffffffffffff167f8c5be1e5ebec7d5bd14f71427d1e84f3dd0314c0f7b2291e5b200ac8c7c3b92584604051610d139190611168565b60405180910390a35b50505050565b610d2a610f86565b5f73ffffffffffffffffffffffffffffffffffffffff168373ffffffffffffffffffffffffffffffffffffffff1603610d7a578060035f828254610d6e919061150f565b92505081905550610e4a565b5f60015f8573ffffffffffffffffffffffffffffffffffffffff1673ffffffffffffffffffffffffffffffffffffffff1681526020019081526020015f2054905081811015610e04578381836040517fe450d38c000000000000000000000000000000000000000000000000000000008152600401610dfb939291906112f3565b60405180910390fd5b81810360015f8673ffffffffffffffffffffffffffffffffffffffff1673ffffffffffffffffffffffffffffffffffffffff1681526020019081526020015f2081905550505b5f73ffffffffffffffffffffffffffffffffffffffff168273ffffffffffffffffffffffffffffffffffffffff1603610e91578060035f8282540392505081905550610edc565b8060015f8473ffffffffffffffffffffffffffffffffffffffff1673ffffffffffffffffffffffffffffffffffffffff1681526020019081526020015f205f82825401925050819055505b8173ffffffffffffffffffffffffffffffffffffffff168373ffffffffffffffffffffffffffffffffffffffff167fddf252ad1be2c89b69c2b068fc378daa952ba7f163c4a11628f55a4df523b3ef83604051610f399190611168565b60405180910390a3505050565b610f4e610454565b610f84576040517f8dfc202b00000000000000000000000000000000000000000000000000000000815260040160405180910390fd5b565b610f8e610454565b15610fc5576040517fd93c066500000000000000000000000000000000000000000000000000000000815260040160405180910390fd5b565b5f81519050919050565b5f82825260208201905092915050565b8281835e5f83830152505050565b5f601f19601f8301169050919050565b5f61100982610fc7565b6110138185610fd1565b9350611023818560208601610fe1565b61102c81610fef565b840191505092915050565b5f6020820190508181035f83015261104f8184610fff565b905092915050565b5f5ffd5b5f73ffffffffffffffffffffffffffffffffffffffff82169050919050565b5f6110848261105b565b9050919050565b6110948161107a565b811461109e575f5ffd5b50565b5f813590506110af8161108b565b92915050565b5f819050919050565b6110c7816110b5565b81146110d1575f5ffd5b50565b5f813590506110e2816110be565b92915050565b5f5f604083850312156110fe576110fd611057565b5b5f61110b858286016110a1565b925050602061111c858286016110d4565b9150509250929050565b5f8115159050919050565b61113a81611126565b82525050565b5f6020820190506111535f830184611131565b92915050565b611162816110b5565b82525050565b5f60208201905061117b5f830184611159565b92915050565b5f5f5f6060848603121561119857611197611057565b5b5f6111a5868287016110a1565b93505060206111b6868287016110a1565b92505060406111c7868287016110d4565b9150509250925092565b5f60ff82169050919050565b6111e6816111d1565b82525050565b5f6020820190506111ff5f8301846111dd565b92915050565b5f6020828403121561121a57611219611057565b5b5f611227848285016110a1565b91505092915050565b6112398161107a565b82525050565b5f6020820190506112525f830184611230565b92915050565b5f5f6040838503121561126e5761126d611057565b5b5f61127b858286016110a1565b925050602061128c858286016110a1565b9150509250929050565b7f4e487b71000000000000000000000000000000000000000000000000000000005f52602260045260245ffd5b5f60028204905060018216806112da57607f821691505b6020821081036112ed576112ec611296565b5b50919050565b5f6060820190506113065f830186611230565b6113136020830185611159565b6113206040830184611159565b949350505050565b7f4e487b71000000000000000000000000000000000000000000000000000000005f52601160045260245ffd5b5f8160011c9050919050565b5f5f8291508390505b60018511156113aa5780860481111561138657611385611328565b5b60018516156113955780820291505b80810290506113a385611355565b945061136a565b94509492505050565b5f826113c2576001905061147d565b816113cf575f905061147d565b81600181146113e557600281146113ef5761141e565b600191505061147d565b60ff84111561140157611400611328565b5b8360020a91508482111561141857611417611328565b5b5061147d565b5060208310610133831016604e8410600b84101617156114535782820a90508381111561144e5761144d611328565b5b61147d565b6114608484846001611361565b9250905081840481111561147757611476611328565b5b81810290505b9392505050565b5f61148e826110b5565b9150611499836111d1565b92506114c67fffffffffffffffffffffffffffffffffffffffffffffffffffffffffffffffff84846113b3565b905092915050565b5f6114d8826110b5565b91506114e3836110b5565b92508282026114f1816110b5565b9150828204841483151761150857611507611328565b5b5092915050565b5f611519826110b5565b9150611524836110b5565b925082820190508082111561153c5761153b611328565b5b92915050565b7f45524332304361707065643a20636170206578636565646564000000000000005f82015250565b5f611576601983610fd1565b915061158182611542565b602082019050919050565b5f6020820190508181035f8301526115a38161156a565b905091905056fea264697066735822122023d0772b736560c3bffb087191ff46ca51f40ecf9947dd0958728f433224ea5964736f6c634300081c0033","linkReferences":{}},"methodIdentifiers":{"allowance(address,address)":"dd62ed3e","approve(address,uint256)":"095ea7b3","balanceOf(address)":"70a08231","cap()":"355274ea","decimals()":"313ce567","mint(address,uint256)":"40c10f19","name()":"06fdde03","owner()":"8da5cb5b","pause()":"8456cb59","paused()":"5c975abb","renounceOwnership()":"715018a6","symbol()":"95d89b41","totalSupply()":"18160ddd","transfer(address,uint256)":"a9059cbb","transferFrom(address,address,uint256)":"23b872dd","transferOwnership(address)":"f2fde38b","unpause()":"3f4ba83a"},"id":40}