{"abi":[{"type":"constructor","inputs":[{"name":"name_","type":"string","internalType":"string"},{"name":"symbol_","type":"string","internalType":"string"},{"name":"decimals_","type":"uint8","internalType":"uint8"},{"name":"totalSupply_","type":"uint256","internalType":"uint256"},{"name":"serviceFeeReceiver_","type":"address","internalType":"address"},{"name":"serviceFee_","type":"uint256","internalType":"uint256"}],"stateMutability":"payable"},{"type":"function","name":"allowance","inputs":[{"name":"owner","type":"address","internalType":"address"},{"name":"spender","type":"address","internalType":"address"}],"outputs":[{"name":"","type":"uint256","internalType":"uint256"}],"stateMutability":"view"},{"type":"function","name":"approve","inputs":[{"name":"spender","type":"address","internalType":"address"},{"name":"value","type":"uint256","internalType":"uint256"}],"outputs":[{"name":"","type":"bool","internalType":"bool"}],"stateMutability":"nonpayable"},{"type":"function","name":"balanceOf","inputs":[{"name":"account","type":"address","internalType":"address"}],"outputs":[{"name":"","type":"uint256","internalType":"uint256"}],"stateMutability":"view"},{"type":"function","name":"burn","inputs":[{"name":"value","type":"uint256","internalType":"uint256"}],"outputs":[],"stateMutability":"nonpayable"},{"type":"function","name":"burnFrom","inputs":[{"name":"account","type":"address","internalType":"address"},{"name":"value","type":"uint256","internalType":"uint256"}],"outputs":[],"stateMutability":"nonpayable"},{"type":"function","name":"decimals","inputs":[],"outputs":[{"name":"","type":"uint8","internalType":"uint8"}],"stateMutability":"view"},{"type":"function","name":"name","inputs":[],"outputs":[{"name":"","type":"string","internalType":"string"}],"stateMutability":"view"},{"type":"function","name":"owner","inputs":[],"outputs":[{"name":"","type":"address","internalType":"address"}],"stateMutability":"view"},{"type":"function","name":"pause","inputs":[],"outputs":[],"stateMutability":"nonpayable"},{"type":"function","name":"paused","inputs":[],"outputs":[{"name":"","type":"bool","internalType":"bool"}],"stateMutability":"view"},{"type":"function","name":"renounceOwnership","inputs":[],"outputs":[],"stateMutability":"nonpayable"},{"type":"function","name":"symbol","inputs":[],"outputs":[{"name":"","type":"string","internalType":"string"}],"stateMutability":"view"},{"type":"function","name":"totalSupply","inputs":[],"outputs":[{"name":"","type":"uint256","internalType":"uint256"}],"stateMutability":"view"},{"type":"function","name":"transfer","inputs":[{"name":"to","type":"address","internalType":"address"},{"name":"value","type":"uint256","internalType":"uint256"}],"outputs":[{"name":"","type":"bool","internalType":"bool"}],"stateMutability":"nonpayable"},{"type":"function","name":"transferFrom","inputs":[{"name":"from","type":"address","internalType":"address"},{"name":"to","type":"address","internalType":"address"},{"name":"value","type":"uint256","internalType":"uint256"}],"outputs":[{"name":"","type":"bool","internalType":"bool"}],"stateMutability":"nonpayable"},{"type":"function","name":"transferOwnership","inputs":[{"name":"newOwner","type":"address","internalType":"address"}],"outputs":[],"stateMutability":"nonpayable"},{"type":"function","name":"unpause","inputs":[],"outputs":[],"stateMutability":"nonpayable"},{"type":"event","name":"Approval","inputs":[{"name":"owner","type":"address","indexed":true,"internalType":"address"},{"name":"spender","type":"address","indexed":true,"internalType":"address"},{"name":"value","type":"uint256","indexed":false,"internalType":"uint256"}],"anonymous":false},{"type":"event","name":"OwnershipTransferred","inputs":[{"name":"previousOwner","type":"address","indexed":true,"internalType":"address"},{"name":"newOwner","type":"address","indexed":true,"internalType":"address"}],"anonymous":false},{"type":"event","name":"Paused","inputs":[{"name":"account","type":"address","indexed":false,"internalType":"address"}],"anonymous":false},{"type":"event","name":"Transfer","inputs":[{"name":"from","type":"address","indexed":true,"internalType":"address"},{"name":"to","type":"address","indexed":true,"internalType":"address"},{"name":"value","type":"uint256","indexed":false,"internalType":"uint256"}],"anonymous":false},{"type":"event","name":"Unpaused","inputs":[{"name":"account","type":"address","indexed":false,"internalType":"address"}],"anonymous":false},{"type":"error","name":"ERC20InsufficientAllowance","inputs":[{"name":"spender","type":"address","internalType":"address"},{"name":"allowance","type":"uint256","internalType":"uint256"},{"name":"needed","type":"uint256","internalType":"uint256"}]},{"type":"error","name":"ERC20InsufficientBalance","inputs":[{"name":"sender","type":"address","internalType":"address"},{"name":"balance","type":"uint256","internalType":"uint256"},{"name":"needed","type":"uint256","internalType":"uint256"}]},{"type":"error","name":"ERC20InvalidApprover","inputs":[{"name":"approver","type":"address","internalType":"address"}]},{"type":"error","name":"ERC20InvalidReceiver","inputs":[{"name":"receiver","type":"address","internalType":"address"}]},{"type":"error","name":"ERC20InvalidSender","inputs":[{"name":"sender","type":"address","internalType":"address"}]},{"type":"error","name":"ERC20InvalidSpender","inputs":[{"name":"spender","type":"address","internalType":"address"}]},{"type":"error","name":"EnforcedPause","inputs":[]},{"type":"error","name":"ExpectedPause","inputs":[]},{"type":"error","name":"OwnableInvalidOwner","inputs":[{"name":"owner","type":"address","internalType":"address"}]},{"type":"error","name":"OwnableUnauthorizedAccount","inputs":[{"name":"account","type":"address","internalType":"address"}]}],"bytecode":{"object":"0x6080604052604051612405380380612405833981810160405281019061002591906108b7565b335f73ffffffffffffffffffffffffffffffffffffffff168173ffffffffffffffffffffffffffffffffffffffff1603610096575f6040517f1e4fbdf700000000000000000000000000000000000000000000000000000000815260040161008d9190610987565b60405180910390fd5b6100a58161029f60201b60201c565b505f5f60146101000a81548160ff02191690831515021790555085600490816100ce9190610ba7565b5084600590816100de9190610ba7565b508360065f6101000a81548160ff021916908360ff1602179055508034101561013c576040517f08c379a000000000000000000000000000000000000000000000000000000000815260040161013390610cd0565b60405180910390fd5b5f73ffffffffffffffffffffffffffffffffffffffff168273ffffffffffffffffffffffffffffffffffffffff16036101aa576040517f08c379a00000000000000000000000000000000000000000000000000000000081526004016101a190610d38565b60405180910390fd5b5f8273ffffffffffffffffffffffffffffffffffffffff16826040516101cf90610d83565b5f6040518083038185875af1925050503d805f8114610209576040519150601f19603f3d011682016040523d82523d5f602084013e61020e565b606091505b5050905080610252576040517f08c379a000000000000000000000000000000000000000000000000000000000815260040161024990610de1565b60405180910390fd5b61029361026361036060201b60201c565b61027161038760201b60201c565b600a61027d9190610f5b565b866102889190610fa5565b61039c60201b60201c565b50505050505050611076565b5f5f5f9054906101000a900473ffffffffffffffffffffffffffffffffffffffff169050815f5f6101000a81548173ffffffffffffffffffffffffffffffffffffffff021916908373ffffffffffffffffffffffffffffffffffffffff1602179055508173ffffffffffffffffffffffffffffffffffffffff168173ffffffffffffffffffffffffffffffffffffffff167f8be0079c531659141344cd1fd0a4f28419497f9722a3daafe3b4186f6b6457e060405160405180910390a35050565b5f5f5f9054906101000a900473ffffffffffffffffffffffffffffffffffffffff16905090565b5f60065f9054906101000a900460ff16905090565b5f73ffffffffffffffffffffffffffffffffffffffff168273ffffffffffffffffffffffffffffffffffffffff160361040c575f6040517fec442f050000000000000000000000000000000000000000000000000000000081526004016104039190610987565b60405180910390fd5b61041d5f838361042160201b60201c565b5050565b61042f61064b60201b60201c565b5f73ffffffffffffffffffffffffffffffffffffffff168373ffffffffffffffffffffffffffffffffffffffff160361047f578060035f8282546104739190610fe6565b9250508190555061054f565b5f60015f8573ffffffffffffffffffffffffffffffffffffffff1673ffffffffffffffffffffffffffffffffffffffff1681526020019081526020015f2054905081811015610509578381836040517fe450d38c00000000000000000000000000000000000000000000000000000000815260040161050093929190611028565b60405180910390fd5b81810360015f8673ffffffffffffffffffffffffffffffffffffffff1673ffffffffffffffffffffffffffffffffffffffff1681526020019081526020015f2081905550505b5f73ffffffffffffffffffffffffffffffffffffffff168273ffffffffffffffffffffffffffffffffffffffff1603610596578060035f82825403925050819055506105e1565b8060015f8473ffffffffffffffffffffffffffffffffffffffff1673ffffffffffffffffffffffffffffffffffffffff1681526020019081526020015f205f82825401925050819055505b8173ffffffffffffffffffffffffffffffffffffffff168373ffffffffffffffffffffffffffffffffffffffff167fddf252ad1be2c89b69c2b068fc378daa952ba7f163c4a11628f55a4df523b3ef8360405161063e919061105d565b60405180910390a3505050565b61065961069260201b60201c565b15610690576040517fd93c066500000000000000000000000000000000000000000000000000000000815260040160405180910390fd5b565b5f5f60149054906101000a900460ff16905090565b5f604051905090565b5f5ffd5b5f5ffd5b5f5ffd5b5f5ffd5b5f601f19601f8301169050919050565b7f4e487b71000000000000000000000000000000000000000000000000000000005f52604160045260245ffd5b610706826106c0565b810181811067ffffffffffffffff82111715610725576107246106d0565b5b80604052505050565b5f6107376106a7565b905061074382826106fd565b919050565b5f67ffffffffffffffff821115610762576107616106d0565b5b61076b826106c0565b9050602081019050919050565b8281835e5f83830152505050565b5f61079861079384610748565b61072e565b9050828152602081018484840111156107b4576107b36106bc565b5b6107bf848285610778565b509392505050565b5f82601f8301126107db576107da6106b8565b5b81516107eb848260208601610786565b91505092915050565b5f60ff82169050919050565b610809816107f4565b8114610813575f5ffd5b50565b5f8151905061082481610800565b92915050565b5f819050919050565b61083c8161082a565b8114610846575f5ffd5b50565b5f8151905061085781610833565b92915050565b5f73ffffffffffffffffffffffffffffffffffffffff82169050919050565b5f6108868261085d565b9050919050565b6108968161087c565b81146108a0575f5ffd5b50565b5f815190506108b18161088d565b92915050565b5f5f5f5f5f5f60c087890312156108d1576108d06106b0565b5b5f87015167ffffffffffffffff8111156108ee576108ed6106b4565b5b6108fa89828a016107c7565b965050602087015167ffffffffffffffff81111561091b5761091a6106b4565b5b61092789828a016107c7565b955050604061093889828a01610816565b945050606061094989828a01610849565b935050608061095a89828a016108a3565b92505060a061096b89828a01610849565b9150509295509295509295565b6109818161087c565b82525050565b5f60208201905061099a5f830184610978565b92915050565b5f81519050919050565b7f4e487b71000000000000000000000000000000000000000000000000000000005f52602260045260245ffd5b5f60028204905060018216806109ee57607f821691505b602082108103610a0157610a006109aa565b5b50919050565b5f819050815f5260205f209050919050565b5f6020601f8301049050919050565b5f82821b905092915050565b5f60088302610a637fffffffffffffffffffffffffffffffffffffffffffffffffffffffffffffffff82610a28565b610a6d8683610a28565b95508019841693508086168417925050509392505050565b5f819050919050565b5f610aa8610aa3610a9e8461082a565b610a85565b61082a565b9050919050565b5f819050919050565b610ac183610a8e565b610ad5610acd82610aaf565b848454610a34565b825550505050565b5f5f905090565b610aec610add565b610af7818484610ab8565b505050565b5b81811015610b1a57610b0f5f82610ae4565b600181019050610afd565b5050565b601f821115610b5f57610b3081610a07565b610b3984610a19565b81016020851015610b48578190505b610b5c610b5485610a19565b830182610afc565b50505b505050565b5f82821c905092915050565b5f610b7f5f1984600802610b64565b1980831691505092915050565b5f610b978383610b70565b9150826002028217905092915050565b610bb0826109a0565b67ffffffffffffffff811115610bc957610bc86106d0565b5b610bd382546109d7565b610bde828285610b1e565b5f60209050601f831160018114610c0f575f8415610bfd578287015190505b610c078582610b8c565b865550610c6e565b601f198416610c1d86610a07565b5f5b82811015610c4457848901518255600182019150602085019450602081019050610c1f565b86831015610c615784890151610c5d601f891682610b70565b8355505b6001600288020188555050505b505050505050565b5f82825260208201905092915050565b7f496e73756666696369656e742066656520616d6f756e742073656e74000000005f82015250565b5f610cba601c83610c76565b9150610cc582610c86565b602082019050919050565b5f6020820190508181035f830152610ce781610cae565b9050919050565b7f496e76616c6964206665652072656365697665722061646472657373000000005f82015250565b5f610d22601c83610c76565b9150610d2d82610cee565b602082019050919050565b5f6020820190508181035f830152610d4f81610d16565b9050919050565b5f81905092915050565b50565b5f610d6e5f83610d56565b9150610d7982610d60565b5f82019050919050565b5f610d8d82610d63565b9150819050919050565b7f466565207472616e73666572206661696c6564000000000000000000000000005f82015250565b5f610dcb601383610c76565b9150610dd682610d97565b602082019050919050565b5f6020820190508181035f830152610df881610dbf565b9050919050565b7f4e487b71000000000000000000000000000000000000000000000000000000005f52601160045260245ffd5b5f8160011c9050919050565b5f5f8291508390505b6001851115610e8157808604811115610e5d57610e5c610dff565b5b6001851615610e6c5780820291505b8081029050610e7a85610e2c565b9450610e41565b94509492505050565b5f82610e995760019050610f54565b81610ea6575f9050610f54565b8160018114610ebc5760028114610ec657610ef5565b6001915050610f54565b60ff841115610ed857610ed7610dff565b5b8360020a915084821115610eef57610eee610dff565b5b50610f54565b5060208310610133831016604e8410600b8410161715610f2a5782820a905083811115610f2557610f24610dff565b5b610f54565b610f378484846001610e38565b92509050818404811115610f4e57610f4d610dff565b5b81810290505b9392505050565b5f610f658261082a565b9150610f70836107f4565b9250610f9d7fffffffffffffffffffffffffffffffffffffffffffffffffffffffffffffffff8484610e8a565b905092915050565b5f610faf8261082a565b9150610fba8361082a565b9250828202610fc88161082a565b91508282048414831517610fdf57610fde610dff565b5b5092915050565b5f610ff08261082a565b9150610ffb8361082a565b925082820190508082111561101357611012610dff565b5b92915050565b6110228161082a565b82525050565b5f60608201905061103b5f830186610978565b6110486020830185611019565b6110556040830184611019565b949350505050565b5f6020820190506110705f830184611019565b92915050565b611382806110835f395ff3fe608060405234801561000f575f5ffd5b5060043610610109575f3560e01c806370a08231116100a05780638da5cb5b1161006f5780638da5cb5b1461026b57806395d89b4114610289578063a9059cbb146102a7578063dd62ed3e146102d7578063f2fde38b1461030757610109565b806370a082311461020b578063715018a61461023b57806379cc6790146102455780638456cb591461026157610109565b8063313ce567116100dc578063313ce567146101a95780633f4ba83a146101c757806342966c68146101d15780635c975abb146101ed57610109565b806306fdde031461010d578063095ea7b31461012b57806318160ddd1461015b57806323b872dd14610179575b5f5ffd5b610115610323565b6040516101229190610fd0565b60405180910390f35b61014560048036038101906101409190611081565b6103b3565b60405161015291906110d9565b60405180910390f35b6101636103d5565b6040516101709190611101565b60405180910390f35b610193600480360381019061018e919061111a565b6103de565b6040516101a091906110d9565b60405180910390f35b6101b161040c565b6040516101be9190611185565b60405180910390f35b6101cf610421565b005b6101eb60048036038101906101e6919061119e565b610433565b005b6101f5610447565b60405161020291906110d9565b60405180910390f35b610225600480360381019061022091906111c9565b61045c565b6040516102329190611101565b60405180910390f35b6102436104a2565b005b61025f600480360381019061025a9190611081565b6104b5565b005b6102696104d5565b005b6102736104e7565b6040516102809190611203565b60405180910390f35b61029161050e565b60405161029e9190610fd0565b60405180910390f35b6102c160048036038101906102bc9190611081565b61059e565b6040516102ce91906110d9565b60405180910390f35b6102f160048036038101906102ec919061121c565b6105c0565b6040516102fe9190611101565b60405180910390f35b610321600480360381019061031c91906111c9565b610642565b005b60606004805461033290611287565b80601f016020809104026020016040519081016040528092919081815260200182805461035e90611287565b80156103a95780601f10610380576101008083540402835291602001916103a9565b820191905f5260205f20905b81548152906001019060200180831161038c57829003601f168201915b5050505050905090565b5f5f6103bd6106c6565b90506103ca8185856106cd565b600191505092915050565b5f600354905090565b5f5f6103e86106c6565b90506103f58582856106df565b610400858585610772565b60019150509392505050565b5f60065f9054906101000a900460ff16905090565b610429610862565b6104316108e9565b565b61044461043e6106c6565b8261094a565b50565b5f5f60149054906101000a900460ff16905090565b5f60015f8373ffffffffffffffffffffffffffffffffffffffff1673ffffffffffffffffffffffffffffffffffffffff1681526020019081526020015f20549050919050565b6104aa610862565b6104b35f6109c9565b565b6104c7826104c16106c6565b836106df565b6104d1828261094a565b5050565b6104dd610862565b6104e5610a8a565b565b5f5f5f9054906101000a900473ffffffffffffffffffffffffffffffffffffffff16905090565b60606005805461051d90611287565b80601f016020809104026020016040519081016040528092919081815260200182805461054990611287565b80156105945780601f1061056b57610100808354040283529160200191610594565b820191905f5260205f20905b81548152906001019060200180831161057757829003601f168201915b5050505050905090565b5f5f6105a86106c6565b90506105b5818585610772565b600191505092915050565b5f60025f8473ffffffffffffffffffffffffffffffffffffffff1673ffffffffffffffffffffffffffffffffffffffff1681526020019081526020015f205f8373ffffffffffffffffffffffffffffffffffffffff1673ffffffffffffffffffffffffffffffffffffffff1681526020019081526020015f2054905092915050565b61064a610862565b5f73ffffffffffffffffffffffffffffffffffffffff168173ffffffffffffffffffffffffffffffffffffffff16036106ba575f6040517f1e4fbdf70000000000000000000000000000000000000000000000000000000081526004016106b19190611203565b60405180910390fd5b6106c3816109c9565b50565b5f33905090565b6106da8383836001610aec565b505050565b5f6106ea84846105c0565b90507fffffffffffffffffffffffffffffffffffffffffffffffffffffffffffffffff81101561076c578181101561075d578281836040517ffb8f41b2000000000000000000000000000000000000000000000000000000008152600401610754939291906112b7565b60405180910390fd5b61076b84848484035f610aec565b5b50505050565b5f73ffffffffffffffffffffffffffffffffffffffff168373ffffffffffffffffffffffffffffffffffffffff16036107e2575f6040517f96c6fd1e0000000000000000000000000000000000000000000000000000000081526004016107d99190611203565b60405180910390fd5b5f73ffffffffffffffffffffffffffffffffffffffff168273ffffffffffffffffffffffffffffffffffffffff1603610852575f6040517fec442f050000000000000000000000000000000000000000000000000000000081526004016108499190611203565b60405180910390fd5b61085d838383610cbb565b505050565b61086a6106c6565b73ffffffffffffffffffffffffffffffffffffffff166108886104e7565b73ffffffffffffffffffffffffffffffffffffffff16146108e7576108ab6106c6565b6040517f118cdaa70000000000000000000000000000000000000000000000000000000081526004016108de9190611203565b60405180910390fd5b565b6108f1610edf565b5f5f60146101000a81548160ff0219169083151502179055507f5db9ee0a495bf2e6ff9c91a7834c1ba4fdd244a5e8aa4e537bd38aeae4b073aa6109336106c6565b6040516109409190611203565b60405180910390a1565b5f73ffffffffffffffffffffffffffffffffffffffff168273ffffffffffffffffffffffffffffffffffffffff16036109ba575f6040517f96c6fd1e0000000000000000000000000000000000000000000000000000000081526004016109b19190611203565b60405180910390fd5b6109c5825f83610cbb565b5050565b5f5f5f9054906101000a900473ffffffffffffffffffffffffffffffffffffffff169050815f5f6101000a81548173ffffffffffffffffffffffffffffffffffffffff021916908373ffffffffffffffffffffffffffffffffffffffff1602179055508173ffffffffffffffffffffffffffffffffffffffff168173ffffffffffffffffffffffffffffffffffffffff167f8be0079c531659141344cd1fd0a4f28419497f9722a3daafe3b4186f6b6457e060405160405180910390a35050565b610a92610f1f565b60015f60146101000a81548160ff0219169083151502179055507f62e78cea01bee320cd4e420270b5ea74000d11b0c9f74754ebdbfc544b05a258610ad56106c6565b604051610ae29190611203565b60405180910390a1565b5f73ffffffffffffffffffffffffffffffffffffffff168473ffffffffffffffffffffffffffffffffffffffff1603610b5c575f6040517fe602df05000000000000000000000000000000000000000000000000000000008152600401610b539190611203565b60405180910390fd5b5f73ffffffffffffffffffffffffffffffffffffffff168373ffffffffffffffffffffffffffffffffffffffff1603610bcc575f6040517f94280d62000000000000000000000000000000000000000000000000000000008152600401610bc39190611203565b60405180910390fd5b8160025f8673ffffffffffffffffffffffffffffffffffffffff1673ffffffffffffffffffffffffffffffffffffffff1681526020019081526020015f205f8573ffffffffffffffffffffffffffffffffffffffff1673ffffffffffffffffffffffffffffffffffffffff1681526020019081526020015f20819055508015610cb5578273ffffffffffffffffffffffffffffffffffffffff168473ffffffffffffffffffffffffffffffffffffffff167f8c5be1e5ebec7d5bd14f71427d1e84f3dd0314c0f7b2291e5b200ac8c7c3b92584604051610cac9190611101565b60405180910390a35b50505050565b610cc3610f1f565b5f73ffffffffffffffffffffffffffffffffffffffff168373ffffffffffffffffffffffffffffffffffffffff1603610d13578060035f828254610d079190611319565b92505081905550610de3565b5f60015f8573ffffffffffffffffffffffffffffffffffffffff1673ffffffffffffffffffffffffffffffffffffffff1681526020019081526020015f2054905081811015610d9d578381836040517fe450d38c000000000000000000000000000000000000000000000000000000008152600401610d94939291906112b7565b60405180910390fd5b81810360015f8673ffffffffffffffffffffffffffffffffffffffff1673ffffffffffffffffffffffffffffffffffffffff1681526020019081526020015f2081905550505b5f73ffffffffffffffffffffffffffffffffffffffff168273ffffffffffffffffffffffffffffffffffffffff1603610e2a578060035f8282540392505081905550610e75565b8060015f8473ffffffffffffffffffffffffffffffffffffffff1673ffffffffffffffffffffffffffffffffffffffff1681526020019081526020015f205f82825401925050819055505b8173ffffffffffffffffffffffffffffffffffffffff168373ffffffffffffffffffffffffffffffffffffffff167fddf252ad1be2c89b69c2b068fc378daa952ba7f163c4a11628f55a4df523b3ef83604051610ed29190611101565b60405180910390a3505050565b610ee7610447565b610f1d576040517f8dfc202b00000000000000000000000000000000000000000000000000000000815260040160405180910390fd5b565b610f27610447565b15610f5e576040517fd93c066500000000000000000000000000000000000000000000000000000000815260040160405180910390fd5b565b5f81519050919050565b5f82825260208201905092915050565b8281835e5f83830152505050565b5f601f19601f8301169050919050565b5f610fa282610f60565b610fac8185610f6a565b9350610fbc818560208601610f7a565b610fc581610f88565b840191505092915050565b5f6020820190508181035f830152610fe88184610f98565b905092915050565b5f5ffd5b5f73ffffffffffffffffffffffffffffffffffffffff82169050919050565b5f61101d82610ff4565b9050919050565b61102d81611013565b8114611037575f5ffd5b50565b5f8135905061104881611024565b92915050565b5f819050919050565b6110608161104e565b811461106a575f5ffd5b50565b5f8135905061107b81611057565b92915050565b5f5f6040838503121561109757611096610ff0565b5b5f6110a48582860161103a565b92505060206110b58582860161106d565b9150509250929050565b5f8115159050919050565b6110d3816110bf565b82525050565b5f6020820190506110ec5f8301846110ca565b92915050565b6110fb8161104e565b82525050565b5f6020820190506111145f8301846110f2565b92915050565b5f5f5f6060848603121561113157611130610ff0565b5b5f61113e8682870161103a565b935050602061114f8682870161103a565b92505060406111608682870161106d565b9150509250925092565b5f60ff82169050919050565b61117f8161116a565b82525050565b5f6020820190506111985f830184611176565b92915050565b5f602082840312156111b3576111b2610ff0565b5b5f6111c08482850161106d565b91505092915050565b5f602082840312156111de576111dd610ff0565b5b5f6111eb8482850161103a565b91505092915050565b6111fd81611013565b82525050565b5f6020820190506112165f8301846111f4565b92915050565b5f5f6040838503121561123257611231610ff0565b5b5f61123f8582860161103a565b92505060206112508582860161103a565b9150509250929050565b7f4e487b71000000000000000000000000000000000000000000000000000000005f52602260045260245ffd5b5f600282049050600182168061129e57607f821691505b6020821081036112b1576112b061125a565b5b50919050565b5f6060820190506112ca5f8301866111f4565b6112d760208301856110f2565b6112e460408301846110f2565b949350505050565b7f4e487b71000000000000000000000000000000000000000000000000000000005f52601160045260245ffd5b5f6113238261104e565b915061132e8361104e565b9250828201905080821115611346576113456112ec565b5b9291505056fea26469706673582212200752fa4be30058c2d2ab64985019ffd9ebfa919e3c9457dadf0e61296566fd3064736f6c634300081c0033","linkReferences":{}},"methodIdentifiers":{"allowance(address,address)":"dd62ed3e","approve(address,uint256)":"095ea7b3","balanceOf(address)":"70a08231","burn(uint256)":"42966c68","burnFrom(address,uint256)":"79cc6790","decimals()":"313ce567","name()":"06fdde03","owner()":"8da5cb5b","pause()":"8456cb59","paused()":"5c975abb","renounceOwnership()":"715018a6","symbol()":"95d89b41","totalSupply()":"18160ddd","transfer(address,uint256)":"a9059cbb","transferFrom(address,address,uint256)":"23b872dd","transferOwnership(address)":"f2fde38b","unpause()":"3f4ba83a"},"id":25}