{"abi":[{"type":"constructor","inputs":[{"name":"name_","type":"string","internalType":"string"},{"name":"symbol_","type":"string","internalType":"string"},{"name":"decimals_","type":"uint8","internalType":"uint8"},{"name":"totalSupply_","type":"uint256","internalType":"uint256"},{"name":"serviceFeeReceiver_","type":"address","internalType":"address"},{"name":"serviceFee_","type":"uint256","internalType":"uint256"}],"stateMutability":"payable"},{"type":"function","name":"allowance","inputs":[{"name":"owner","type":"address","internalType":"address"},{"name":"spender","type":"address","internalType":"address"}],"outputs":[{"name":"","type":"uint256","internalType":"uint256"}],"stateMutability":"view"},{"type":"function","name":"approve","inputs":[{"name":"spender","type":"address","internalType":"address"},{"name":"value","type":"uint256","internalType":"uint256"}],"outputs":[{"name":"","type":"bool","internalType":"bool"}],"stateMutability":"nonpayable"},{"type":"function","name":"balanceOf","inputs":[{"name":"account","type":"address","internalType":"address"}],"outputs":[{"name":"","type":"uint256","internalType":"uint256"}],"stateMutability":"view"},{"type":"function","name":"blacklist","inputs":[{"name":"account","type":"address","internalType":"address"}],"outputs":[],"stateMutability":"nonpayable"},{"type":"function","name":"burn","inputs":[{"name":"value","type":"uint256","internalType":"uint256"}],"outputs":[],"stateMutability":"nonpayable"},{"type":"function","name":"burnFrom","inputs":[{"name":"account","type":"address","internalType":"address"},{"name":"value","type":"uint256","internalType":"uint256"}],"outputs":[],"stateMutability":"nonpayable"},{"type":"function","name":"decimals","inputs":[],"outputs":[{"name":"","type":"uint8","internalType":"uint8"}],"stateMutability":"view"},{"type":"function","name":"isBlacklisted","inputs":[{"name":"account","type":"address","internalType":"address"}],"outputs":[{"name":"","type":"bool","internalType":"bool"}],"stateMutability":"view"},{"type":"function","name":"name","inputs":[],"outputs":[{"name":"","type":"string","internalType":"string"}],"stateMutability":"view"},{"type":"function","name":"owner","inputs":[],"outputs":[{"name":"","type":"address","internalType":"address"}],"stateMutability":"view"},{"type":"function","name":"renounceOwnership","inputs":[],"outputs":[],"stateMutability":"nonpayable"},{"type":"function","name":"symbol","inputs":[],"outputs":[{"name":"","type":"string","internalType":"string"}],"stateMutability":"view"},{"type":"function","name":"totalSupply","inputs":[],"outputs":[{"name":"","type":"uint256","internalType":"uint256"}],"stateMutability":"view"},{"type":"function","name":"transfer","inputs":[{"name":"to","type":"address","internalType":"address"},{"name":"value","type":"uint256","internalType":"uint256"}],"outputs":[{"name":"","type":"bool","internalType":"bool"}],"stateMutability":"nonpayable"},{"type":"function","name":"transferFrom","inputs":[{"name":"from","type":"address","internalType":"address"},{"name":"to","type":"address","internalType":"address"},{"name":"value","type":"uint256","internalType":"uint256"}],"outputs":[{"name":"","type":"bool","internalType":"bool"}],"stateMutability":"nonpayable"},{"type":"function","name":"transferOwnership","inputs":[{"name":"newOwner","type":"address","internalType":"address"}],"outputs":[],"stateMutability":"nonpayable"},{"type":"function","name":"unblacklist","inputs":[{"name":"account","type":"address","internalType":"address"}],"outputs":[],"stateMutability":"nonpayable"},{"type":"event","name":"Approval","inputs":[{"name":"owner","type":"address","indexed":true,"internalType":"address"},{"name":"spender","type":"address","indexed":true,"internalType":"address"},{"name":"value","type":"uint256","indexed":false,"internalType":"uint256"}],"anonymous":false},{"type":"event","name":"Blacklisted","inputs":[{"name":"account","type":"address","indexed":true,"internalType":"address"}],"anonymous":false},{"type":"event","name":"OwnershipTransferred","inputs":[{"name":"previousOwner","type":"address","indexed":true,"internalType":"address"},{"name":"newOwner","type":"address","indexed":true,"internalType":"address"}],"anonymous":false},{"type":"event","name":"Transfer","inputs":[{"name":"from","type":"address","indexed":true,"internalType":"address"},{"name":"to","type":"address","indexed":true,"internalType":"address"},{"name":"value","type":"uint256","indexed":false,"internalType":"uint256"}],"anonymous":false},{"type":"event","name":"Unblacklisted","inputs":[{"name":"account","type":"address","indexed":true,"internalType":"address"}],"anonymous":false},{"type":"error","name":"ERC20InsufficientAllowance","inputs":[{"name":"spender","type":"address","internalType":"address"},{"name":"allowance","type":"uint256","internalType":"uint256"},{"name":"needed","type":"uint256","internalType":"uint256"}]},{"type":"error","name":"ERC20InsufficientBalance","inputs":[{"name":"sender","type":"address","internalType":"address"},{"name":"balance","type":"uint256","internalType":"uint256"},{"name":"needed","type":"uint256","internalType":"uint256"}]},{"type":"error","name":"ERC20InvalidApprover","inputs":[{"name":"approver","type":"address","internalType":"address"}]},{"type":"error","name":"ERC20InvalidReceiver","inputs":[{"name":"receiver","type":"address","internalType":"address"}]},{"type":"error","name":"ERC20InvalidSender","inputs":[{"name":"sender","type":"address","internalType":"address"}]},{"type":"error","name":"ERC20InvalidSpender","inputs":[{"name":"spender","type":"address","internalType":"address"}]},{"type":"error","name":"OwnableInvalidOwner","inputs":[{"name":"owner","type":"address","internalType":"address"}]},{"type":"error","name":"OwnableUnauthorizedAccount","inputs":[{"name":"account","type":"address","internalType":"address"}]}],"bytecode":{"object":"0x60806040526040516129aa3803806129aa83398181016040528101906100259190610834565b335f73ffffffffffffffffffffffffffffffffffffffff168173ffffffffffffffffffffffffffffffffffffffff1603610096575f6040517f1e4fbdf700000000000000000000000000000000000000000000000000000000815260040161008d9190610904565b60405180910390fd5b6100a58161028660201b60201c565b5085600590816100b59190610b24565b5084600690816100c59190610b24565b508360075f6101000a81548160ff021916908360ff16021790555080341015610123576040517f08c379a000000000000000000000000000000000000000000000000000000000815260040161011a90610c4d565b60405180910390fd5b5f73ffffffffffffffffffffffffffffffffffffffff168273ffffffffffffffffffffffffffffffffffffffff1603610191576040517f08c379a000000000000000000000000000000000000000000000000000000000815260040161018890610cb5565b60405180910390fd5b5f8273ffffffffffffffffffffffffffffffffffffffff16826040516101b690610d00565b5f6040518083038185875af1925050503d805f81146101f0576040519150601f19603f3d011682016040523d82523d5f602084013e6101f5565b606091505b5050905080610239576040517f08c379a000000000000000000000000000000000000000000000000000000000815260040161023090610d5e565b60405180910390fd5b61027a61024a61034760201b60201c565b61025861036e60201b60201c565b600a6102649190610ed8565b8661026f9190610f22565b61038360201b60201c565b50505050505050610ff3565b5f5f5f9054906101000a900473ffffffffffffffffffffffffffffffffffffffff169050815f5f6101000a81548173ffffffffffffffffffffffffffffffffffffffff021916908373ffffffffffffffffffffffffffffffffffffffff1602179055508173ffffffffffffffffffffffffffffffffffffffff168173ffffffffffffffffffffffffffffffffffffffff167f8be0079c531659141344cd1fd0a4f28419497f9722a3daafe3b4186f6b6457e060405160405180910390a35050565b5f5f5f9054906101000a900473ffffffffffffffffffffffffffffffffffffffff16905090565b5f60075f9054906101000a900460ff16905090565b5f73ffffffffffffffffffffffffffffffffffffffff168273ffffffffffffffffffffffffffffffffffffffff16036103f3575f6040517fec442f050000000000000000000000000000000000000000000000000000000081526004016103ea9190610904565b60405180910390fd5b6104045f838361040860201b60201c565b5050565b5f73ffffffffffffffffffffffffffffffffffffffff168373ffffffffffffffffffffffffffffffffffffffff1603610458578060045f82825461044c9190610f63565b92505081905550610528565b5f60015f8573ffffffffffffffffffffffffffffffffffffffff1673ffffffffffffffffffffffffffffffffffffffff1681526020019081526020015f20549050818110156104e2578381836040517fe450d38c0000000000000000000000000000000000000000000000000000000081526004016104d993929190610fa5565b60405180910390fd5b81810360015f8673ffffffffffffffffffffffffffffffffffffffff1673ffffffffffffffffffffffffffffffffffffffff1681526020019081526020015f2081905550505b5f73ffffffffffffffffffffffffffffffffffffffff168273ffffffffffffffffffffffffffffffffffffffff160361056f578060045f82825403925050819055506105ba565b8060015f8473ffffffffffffffffffffffffffffffffffffffff1673ffffffffffffffffffffffffffffffffffffffff1681526020019081526020015f205f82825401925050819055505b8173ffffffffffffffffffffffffffffffffffffffff168373ffffffffffffffffffffffffffffffffffffffff167fddf252ad1be2c89b69c2b068fc378daa952ba7f163c4a11628f55a4df523b3ef836040516106179190610fda565b60405180910390a3505050565b5f604051905090565b5f5ffd5b5f5ffd5b5f5ffd5b5f5ffd5b5f601f19601f8301169050919050565b7f4e487b71000000000000000000000000000000000000000000000000000000005f52604160045260245ffd5b6106838261063d565b810181811067ffffffffffffffff821117156106a2576106a161064d565b5b80604052505050565b5f6106b4610624565b90506106c0828261067a565b919050565b5f67ffffffffffffffff8211156106df576106de61064d565b5b6106e88261063d565b9050602081019050919050565b8281835e5f83830152505050565b5f610715610710846106c5565b6106ab565b90508281526020810184848401111561073157610730610639565b5b61073c8482856106f5565b509392505050565b5f82601f83011261075857610757610635565b5b8151610768848260208601610703565b91505092915050565b5f60ff82169050919050565b61078681610771565b8114610790575f5ffd5b50565b5f815190506107a18161077d565b92915050565b5f819050919050565b6107b9816107a7565b81146107c3575f5ffd5b50565b5f815190506107d4816107b0565b92915050565b5f73ffffffffffffffffffffffffffffffffffffffff82169050919050565b5f610803826107da565b9050919050565b610813816107f9565b811461081d575f5ffd5b50565b5f8151905061082e8161080a565b92915050565b5f5f5f5f5f5f60c0878903121561084e5761084d61062d565b5b5f87015167ffffffffffffffff81111561086b5761086a610631565b5b61087789828a01610744565b965050602087015167ffffffffffffffff81111561089857610897610631565b5b6108a489828a01610744565b95505060406108b589828a01610793565b94505060606108c689828a016107c6565b93505060806108d789828a01610820565b92505060a06108e889828a016107c6565b9150509295509295509295565b6108fe816107f9565b82525050565b5f6020820190506109175f8301846108f5565b92915050565b5f81519050919050565b7f4e487b71000000000000000000000000000000000000000000000000000000005f52602260045260245ffd5b5f600282049050600182168061096b57607f821691505b60208210810361097e5761097d610927565b5b50919050565b5f819050815f5260205f209050919050565b5f6020601f8301049050919050565b5f82821b905092915050565b5f600883026109e07fffffffffffffffffffffffffffffffffffffffffffffffffffffffffffffffff826109a5565b6109ea86836109a5565b95508019841693508086168417925050509392505050565b5f819050919050565b5f610a25610a20610a1b846107a7565b610a02565b6107a7565b9050919050565b5f819050919050565b610a3e83610a0b565b610a52610a4a82610a2c565b8484546109b1565b825550505050565b5f5f905090565b610a69610a5a565b610a74818484610a35565b505050565b5b81811015610a9757610a8c5f82610a61565b600181019050610a7a565b5050565b601f821115610adc57610aad81610984565b610ab684610996565b81016020851015610ac5578190505b610ad9610ad185610996565b830182610a79565b50505b505050565b5f82821c905092915050565b5f610afc5f1984600802610ae1565b1980831691505092915050565b5f610b148383610aed565b9150826002028217905092915050565b610b2d8261091d565b67ffffffffffffffff811115610b4657610b4561064d565b5b610b508254610954565b610b5b828285610a9b565b5f60209050601f831160018114610b8c575f8415610b7a578287015190505b610b848582610b09565b865550610beb565b601f198416610b9a86610984565b5f5b82811015610bc157848901518255600182019150602085019450602081019050610b9c565b86831015610bde5784890151610bda601f891682610aed565b8355505b6001600288020188555050505b505050505050565b5f82825260208201905092915050565b7f496e73756666696369656e742066656520616d6f756e742073656e74000000005f82015250565b5f610c37601c83610bf3565b9150610c4282610c03565b602082019050919050565b5f6020820190508181035f830152610c6481610c2b565b9050919050565b7f496e76616c6964206665652072656365697665722061646472657373000000005f82015250565b5f610c9f601c83610bf3565b9150610caa82610c6b565b602082019050919050565b5f6020820190508181035f830152610ccc81610c93565b9050919050565b5f81905092915050565b50565b5f610ceb5f83610cd3565b9150610cf682610cdd565b5f82019050919050565b5f610d0a82610ce0565b9150819050919050565b7f466565207472616e73666572206661696c6564000000000000000000000000005f82015250565b5f610d48601383610bf3565b9150610d5382610d14565b602082019050919050565b5f6020820190508181035f830152610d7581610d3c565b9050919050565b7f4e487b71000000000000000000000000000000000000000000000000000000005f52601160045260245ffd5b5f8160011c9050919050565b5f5f8291508390505b6001851115610dfe57808604811115610dda57610dd9610d7c565b5b6001851615610de95780820291505b8081029050610df785610da9565b9450610dbe565b94509492505050565b5f82610e165760019050610ed1565b81610e23575f9050610ed1565b8160018114610e395760028114610e4357610e72565b6001915050610ed1565b60ff841115610e5557610e54610d7c565b5b8360020a915084821115610e6c57610e6b610d7c565b5b50610ed1565b5060208310610133831016604e8410600b8410161715610ea75782820a905083811115610ea257610ea1610d7c565b5b610ed1565b610eb48484846001610db5565b92509050818404811115610ecb57610eca610d7c565b5b81810290505b9392505050565b5f610ee2826107a7565b9150610eed83610771565b9250610f1a7fffffffffffffffffffffffffffffffffffffffffffffffffffffffffffffffff8484610e07565b905092915050565b5f610f2c826107a7565b9150610f37836107a7565b9250828202610f45816107a7565b91508282048414831517610f5c57610f5b610d7c565b5b5092915050565b5f610f6d826107a7565b9150610f78836107a7565b9250828201905080821115610f9057610f8f610d7c565b5b92915050565b610f9f816107a7565b82525050565b5f606082019050610fb85f8301866108f5565b610fc56020830185610f96565b610fd26040830184610f96565b949350505050565b5f602082019050610fed5f830184610f96565b92915050565b6119aa806110005f395ff3fe608060405234801561000f575f5ffd5b5060043610610109575f3560e01c806375e3661e116100a0578063a9059cbb1161006f578063a9059cbb14610291578063dd62ed3e146102c1578063f2fde38b146102f1578063f9f92be41461030d578063fe575a871461032957610109565b806375e3661e1461021d57806379cc6790146102395780638da5cb5b1461025557806395d89b411461027357610109565b8063313ce567116100dc578063313ce567146101a957806342966c68146101c757806370a08231146101e3578063715018a61461021357610109565b806306fdde031461010d578063095ea7b31461012b57806318160ddd1461015b57806323b872dd14610179575b5f5ffd5b610115610359565b6040516101229190611590565b60405180910390f35b61014560048036038101906101409190611641565b6103e9565b6040516101529190611699565b60405180910390f35b610163610523565b60405161017091906116c1565b60405180910390f35b610193600480360381019061018e91906116da565b61052c565b6040516101a09190611699565b60405180910390f35b6101b1610672565b6040516101be9190611745565b60405180910390f35b6101e160048036038101906101dc919061175e565b610687565b005b6101fd60048036038101906101f89190611789565b610727565b60405161020a91906116c1565b60405180910390f35b61021b61076d565b005b61023760048036038101906102329190611789565b610780565b005b610253600480360381019061024e9190611641565b610822565b005b61025d6108ce565b60405161026a91906117c3565b60405180910390f35b61027b6108f5565b6040516102889190611590565b60405180910390f35b6102ab60048036038101906102a69190611641565b610985565b6040516102b89190611699565b60405180910390f35b6102db60048036038101906102d691906117dc565b610abf565b6040516102e891906116c1565b60405180910390f35b61030b60048036038101906103069190611789565b610b41565b005b61032760048036038101906103229190611789565b610bc5565b005b610343600480360381019061033e9190611789565b610c68565b6040516103509190611699565b60405180910390f35b60606005805461036890611847565b80601f016020809104026020016040519081016040528092919081815260200182805461039490611847565b80156103df5780601f106103b6576101008083540402835291602001916103df565b820191905f5260205f20905b8154815290600101906020018083116103c257829003601f168201915b5050505050905090565b5f3360035f8273ffffffffffffffffffffffffffffffffffffffff1673ffffffffffffffffffffffffffffffffffffffff1681526020019081526020015f205f9054906101000a900460ff1615610475576040517f08c379a000000000000000000000000000000000000000000000000000000000815260040161046c906118c1565b60405180910390fd5b8360035f8273ffffffffffffffffffffffffffffffffffffffff1673ffffffffffffffffffffffffffffffffffffffff1681526020019081526020015f205f9054906101000a900460ff1615610500576040517f08c379a00000000000000000000000000000000000000000000000000000000081526004016104f7906118c1565b60405180910390fd5b5f610509610cba565b9050610516818787610cc1565b6001935050505092915050565b5f600454905090565b5f8360035f8273ffffffffffffffffffffffffffffffffffffffff1673ffffffffffffffffffffffffffffffffffffffff1681526020019081526020015f205f9054906101000a900460ff16156105b8576040517f08c379a00000000000000000000000000000000000000000000000000000000081526004016105af906118c1565b60405180910390fd5b8360035f8273ffffffffffffffffffffffffffffffffffffffff1673ffffffffffffffffffffffffffffffffffffffff1681526020019081526020015f205f9054906101000a900460ff1615610643576040517f08c379a000000000000000000000000000000000000000000000000000000000815260040161063a906118c1565b60405180910390fd5b5f61064c610cba565b9050610659878287610deb565b610664878787610e7e565b600193505050509392505050565b5f60075f9054906101000a900460ff16905090565b3360035f8273ffffffffffffffffffffffffffffffffffffffff1673ffffffffffffffffffffffffffffffffffffffff1681526020019081526020015f205f9054906101000a900460ff1615610712576040517f08c379a0000000000000000000000000000000000000000000000000000000008152600401610709906118c1565b60405180910390fd5b61072361071d610cba565b83610f6e565b5050565b5f60015f8373ffffffffffffffffffffffffffffffffffffffff1673ffffffffffffffffffffffffffffffffffffffff1681526020019081526020015f20549050919050565b610775610fed565b61077e5f611074565b565b610788610fed565b5f60035f8373ffffffffffffffffffffffffffffffffffffffff1673ffffffffffffffffffffffffffffffffffffffff1681526020019081526020015f205f6101000a81548160ff0219169083151502179055508073ffffffffffffffffffffffffffffffffffffffff167f7534c63860313c46c473e4e98328f37017e9674e2162faf1a3ad7a96236c3b7b60405160405180910390a250565b8160035f8273ffffffffffffffffffffffffffffffffffffffff1673ffffffffffffffffffffffffffffffffffffffff1681526020019081526020015f205f9054906101000a900460ff16156108ad576040517f08c379a00000000000000000000000000000000000000000000000000000000081526004016108a4906118c1565b60405180910390fd5b6108bf836108b9610cba565b84610deb565b6108c98383610f6e565b505050565b5f5f5f9054906101000a900473ffffffffffffffffffffffffffffffffffffffff16905090565b60606006805461090490611847565b80601f016020809104026020016040519081016040528092919081815260200182805461093090611847565b801561097b5780601f106109525761010080835404028352916020019161097b565b820191905f5260205f20905b81548152906001019060200180831161095e57829003601f168201915b5050505050905090565b5f3360035f8273ffffffffffffffffffffffffffffffffffffffff1673ffffffffffffffffffffffffffffffffffffffff1681526020019081526020015f205f9054906101000a900460ff1615610a11576040517f08c379a0000000000000000000000000000000000000000000000000000000008152600401610a08906118c1565b60405180910390fd5b8360035f8273ffffffffffffffffffffffffffffffffffffffff1673ffffffffffffffffffffffffffffffffffffffff1681526020019081526020015f205f9054906101000a900460ff1615610a9c576040517f08c379a0000000000000000000000000000000000000000000000000000000008152600401610a93906118c1565b60405180910390fd5b5f610aa5610cba565b9050610ab2818787610e7e565b6001935050505092915050565b5f60025f8473ffffffffffffffffffffffffffffffffffffffff1673ffffffffffffffffffffffffffffffffffffffff1681526020019081526020015f205f8373ffffffffffffffffffffffffffffffffffffffff1673ffffffffffffffffffffffffffffffffffffffff1681526020019081526020015f2054905092915050565b610b49610fed565b5f73ffffffffffffffffffffffffffffffffffffffff168173ffffffffffffffffffffffffffffffffffffffff1603610bb9575f6040517f1e4fbdf7000000000000000000000000000000000000000000000000000000008152600401610bb091906117c3565b60405180910390fd5b610bc281611074565b50565b610bcd610fed565b600160035f8373ffffffffffffffffffffffffffffffffffffffff1673ffffffffffffffffffffffffffffffffffffffff1681526020019081526020015f205f6101000a81548160ff0219169083151502179055508073ffffffffffffffffffffffffffffffffffffffff167fffa4e6181777692565cf28528fc88fd1516ea86b56da075235fa575af6a4b85560405160405180910390a250565b5f60035f8373ffffffffffffffffffffffffffffffffffffffff1673ffffffffffffffffffffffffffffffffffffffff1681526020019081526020015f205f9054906101000a900460ff169050919050565b5f33905090565b8260035f8273ffffffffffffffffffffffffffffffffffffffff1673ffffffffffffffffffffffffffffffffffffffff1681526020019081526020015f205f9054906101000a900460ff1615610d4c576040517f08c379a0000000000000000000000000000000000000000000000000000000008152600401610d43906118c1565b60405180910390fd5b8260035f8273ffffffffffffffffffffffffffffffffffffffff1673ffffffffffffffffffffffffffffffffffffffff1681526020019081526020015f205f9054906101000a900460ff1615610dd7576040517f08c379a0000000000000000000000000000000000000000000000000000000008152600401610dce906118c1565b60405180910390fd5b610de48585856001611135565b5050505050565b5f610df68484610abf565b90507fffffffffffffffffffffffffffffffffffffffffffffffffffffffffffffffff811015610e785781811015610e69578281836040517ffb8f41b2000000000000000000000000000000000000000000000000000000008152600401610e60939291906118df565b60405180910390fd5b610e7784848484035f611135565b5b50505050565b5f73ffffffffffffffffffffffffffffffffffffffff168373ffffffffffffffffffffffffffffffffffffffff1603610eee575f6040517f96c6fd1e000000000000000000000000000000000000000000000000000000008152600401610ee591906117c3565b60405180910390fd5b5f73ffffffffffffffffffffffffffffffffffffffff168273ffffffffffffffffffffffffffffffffffffffff1603610f5e575f6040517fec442f05000000000000000000000000000000000000000000000000000000008152600401610f5591906117c3565b60405180910390fd5b610f69838383611304565b505050565b5f73ffffffffffffffffffffffffffffffffffffffff168273ffffffffffffffffffffffffffffffffffffffff1603610fde575f6040517f96c6fd1e000000000000000000000000000000000000000000000000000000008152600401610fd591906117c3565b60405180910390fd5b610fe9825f83611304565b5050565b610ff5610cba565b73ffffffffffffffffffffffffffffffffffffffff166110136108ce565b73ffffffffffffffffffffffffffffffffffffffff161461107257611036610cba565b6040517f118cdaa700000000000000000000000000000000000000000000000000000000815260040161106991906117c3565b60405180910390fd5b565b5f5f5f9054906101000a900473ffffffffffffffffffffffffffffffffffffffff169050815f5f6101000a81548173ffffffffffffffffffffffffffffffffffffffff021916908373ffffffffffffffffffffffffffffffffffffffff1602179055508173ffffffffffffffffffffffffffffffffffffffff168173ffffffffffffffffffffffffffffffffffffffff167f8be0079c531659141344cd1fd0a4f28419497f9722a3daafe3b4186f6b6457e060405160405180910390a35050565b5f73ffffffffffffffffffffffffffffffffffffffff168473ffffffffffffffffffffffffffffffffffffffff16036111a5575f6040517fe602df0500000000000000000000000000000000000000000000000000000000815260040161119c91906117c3565b60405180910390fd5b5f73ffffffffffffffffffffffffffffffffffffffff168373ffffffffffffffffffffffffffffffffffffffff1603611215575f6040517f94280d6200000000000000000000000000000000000000000000000000000000815260040161120c91906117c3565b60405180910390fd5b8160025f8673ffffffffffffffffffffffffffffffffffffffff1673ffffffffffffffffffffffffffffffffffffffff1681526020019081526020015f205f8573ffffffffffffffffffffffffffffffffffffffff1673ffffffffffffffffffffffffffffffffffffffff1681526020019081526020015f208190555080156112fe578273ffffffffffffffffffffffffffffffffffffffff168473ffffffffffffffffffffffffffffffffffffffff167f8c5be1e5ebec7d5bd14f71427d1e84f3dd0314c0f7b2291e5b200ac8c7c3b925846040516112f591906116c1565b60405180910390a35b50505050565b5f73ffffffffffffffffffffffffffffffffffffffff168373ffffffffffffffffffffffffffffffffffffffff1603611354578060045f8282546113489190611941565b92505081905550611424565b5f60015f8573ffffffffffffffffffffffffffffffffffffffff1673ffffffffffffffffffffffffffffffffffffffff1681526020019081526020015f20549050818110156113de578381836040517fe450d38c0000000000000000000000000000000000000000000000000000000081526004016113d5939291906118df565b60405180910390fd5b81810360015f8673ffffffffffffffffffffffffffffffffffffffff1673ffffffffffffffffffffffffffffffffffffffff1681526020019081526020015f2081905550505b5f73ffffffffffffffffffffffffffffffffffffffff168273ffffffffffffffffffffffffffffffffffffffff160361146b578060045f82825403925050819055506114b6565b8060015f8473ffffffffffffffffffffffffffffffffffffffff1673ffffffffffffffffffffffffffffffffffffffff1681526020019081526020015f205f82825401925050819055505b8173ffffffffffffffffffffffffffffffffffffffff168373ffffffffffffffffffffffffffffffffffffffff167fddf252ad1be2c89b69c2b068fc378daa952ba7f163c4a11628f55a4df523b3ef8360405161151391906116c1565b60405180910390a3505050565b5f81519050919050565b5f82825260208201905092915050565b8281835e5f83830152505050565b5f601f19601f8301169050919050565b5f61156282611520565b61156c818561152a565b935061157c81856020860161153a565b61158581611548565b840191505092915050565b5f6020820190508181035f8301526115a88184611558565b905092915050565b5f5ffd5b5f73ffffffffffffffffffffffffffffffffffffffff82169050919050565b5f6115dd826115b4565b9050919050565b6115ed816115d3565b81146115f7575f5ffd5b50565b5f81359050611608816115e4565b92915050565b5f819050919050565b6116208161160e565b811461162a575f5ffd5b50565b5f8135905061163b81611617565b92915050565b5f5f60408385031215611657576116566115b0565b5b5f611664858286016115fa565b92505060206116758582860161162d565b9150509250929050565b5f8115159050919050565b6116938161167f565b82525050565b5f6020820190506116ac5f83018461168a565b92915050565b6116bb8161160e565b82525050565b5f6020820190506116d45f8301846116b2565b92915050565b5f5f5f606084860312156116f1576116f06115b0565b5b5f6116fe868287016115fa565b935050602061170f868287016115fa565b92505060406117208682870161162d565b9150509250925092565b5f60ff82169050919050565b61173f8161172a565b82525050565b5f6020820190506117585f830184611736565b92915050565b5f60208284031215611773576117726115b0565b5b5f6117808482850161162d565b91505092915050565b5f6020828403121561179e5761179d6115b0565b5b5f6117ab848285016115fa565b91505092915050565b6117bd816115d3565b82525050565b5f6020820190506117d65f8301846117b4565b92915050565b5f5f604083850312156117f2576117f16115b0565b5b5f6117ff858286016115fa565b9250506020611810858286016115fa565b9150509250929050565b7f4e487b71000000000000000000000000000000000000000000000000000000005f52602260045260245ffd5b5f600282049050600182168061185e57607f821691505b6020821081036118715761187061181a565b5b50919050565b7f4164647265737320697320626c61636b6c6973746564000000000000000000005f82015250565b5f6118ab60168361152a565b91506118b682611877565b602082019050919050565b5f6020820190508181035f8301526118d88161189f565b9050919050565b5f6060820190506118f25f8301866117b4565b6118ff60208301856116b2565b61190c60408301846116b2565b949350505050565b7f4e487b71000000000000000000000000000000000000000000000000000000005f52601160045260245ffd5b5f61194b8261160e565b91506119568361160e565b925082820190508082111561196e5761196d611914565b5b9291505056fea2646970667358221220a0a341fbbb22f3f8c5f7dff2b9cd8cb02e4c649fc64dfad6d7c5eed7cc53b61464736f6c634300081c0033","linkReferences":{}},"methodIdentifiers":{"allowance(address,address)":"dd62ed3e","approve(address,uint256)":"095ea7b3","balanceOf(address)":"70a08231","blacklist(address)":"f9f92be4","burn(uint256)":"42966c68","burnFrom(address,uint256)":"79cc6790","decimals()":"313ce567","isBlacklisted(address)":"fe575a87","name()":"06fdde03","owner()":"8da5cb5b","renounceOwnership()":"715018a6","symbol()":"95d89b41","totalSupply()":"18160ddd","transfer(address,uint256)":"a9059cbb","transferFrom(address,address,uint256)":"23b872dd","transferOwnership(address)":"f2fde38b","unblacklist(address)":"75e3661e"},"id":3}