{"abi":[{"type":"constructor","inputs":[{"name":"name_","type":"string","internalType":"string"},{"name":"symbol_","type":"string","internalType":"string"},{"name":"decimals_","type":"uint8","internalType":"uint8"},{"name":"totalSupply_","type":"uint256","internalType":"uint256"},{"name":"cap_","type":"uint256","internalType":"uint256"},{"name":"serviceFeeReceiver_","type":"address","internalType":"address"},{"name":"serviceFee_","type":"uint256","internalType":"uint256"}],"stateMutability":"payable"},{"type":"function","name":"allowance","inputs":[{"name":"owner","type":"address","internalType":"address"},{"name":"spender","type":"address","internalType":"address"}],"outputs":[{"name":"","type":"uint256","internalType":"uint256"}],"stateMutability":"view"},{"type":"function","name":"approve","inputs":[{"name":"spender","type":"address","internalType":"address"},{"name":"value","type":"uint256","internalType":"uint256"}],"outputs":[{"name":"","type":"bool","internalType":"bool"}],"stateMutability":"nonpayable"},{"type":"function","name":"balanceOf","inputs":[{"name":"account","type":"address","internalType":"address"}],"outputs":[{"name":"","type":"uint256","internalType":"uint256"}],"stateMutability":"view"},{"type":"function","name":"blacklistAddress","inputs":[{"name":"account","type":"address","internalType":"address"}],"outputs":[],"stateMutability":"nonpayable"},{"type":"function","name":"burn","inputs":[{"name":"value","type":"uint256","internalType":"uint256"}],"outputs":[],"stateMutability":"nonpayable"},{"type":"function","name":"burnFrom","inputs":[{"name":"account","type":"address","internalType":"address"},{"name":"value","type":"uint256","internalType":"uint256"}],"outputs":[],"stateMutability":"nonpayable"},{"type":"function","name":"cap","inputs":[],"outputs":[{"name":"","type":"uint256","internalType":"uint256"}],"stateMutability":"view"},{"type":"function","name":"decimals","inputs":[],"outputs":[{"name":"","type":"uint8","internalType":"uint8"}],"stateMutability":"view"},{"type":"function","name":"isBlacklisted","inputs":[{"name":"account","type":"address","internalType":"address"}],"outputs":[{"name":"","type":"bool","internalType":"bool"}],"stateMutability":"view"},{"type":"function","name":"mint","inputs":[{"name":"to","type":"address","internalType":"address"},{"name":"amount","type":"uint256","internalType":"uint256"}],"outputs":[],"stateMutability":"nonpayable"},{"type":"function","name":"name","inputs":[],"outputs":[{"name":"","type":"string","internalType":"string"}],"stateMutability":"view"},{"type":"function","name":"owner","inputs":[],"outputs":[{"name":"","type":"address","internalType":"address"}],"stateMutability":"view"},{"type":"function","name":"renounceOwnership","inputs":[],"outputs":[],"stateMutability":"nonpayable"},{"type":"function","name":"symbol","inputs":[],"outputs":[{"name":"","type":"string","internalType":"string"}],"stateMutability":"view"},{"type":"function","name":"totalSupply","inputs":[],"outputs":[{"name":"","type":"uint256","internalType":"uint256"}],"stateMutability":"view"},{"type":"function","name":"transfer","inputs":[{"name":"to","type":"address","internalType":"address"},{"name":"value","type":"uint256","internalType":"uint256"}],"outputs":[{"name":"","type":"bool","internalType":"bool"}],"stateMutability":"nonpayable"},{"type":"function","name":"transferFrom","inputs":[{"name":"from","type":"address","internalType":"address"},{"name":"to","type":"address","internalType":"address"},{"name":"value","type":"uint256","internalType":"uint256"}],"outputs":[{"name":"","type":"bool","internalType":"bool"}],"stateMutability":"nonpayable"},{"type":"function","name":"transferOwnership","inputs":[{"name":"newOwner","type":"address","internalType":"address"}],"outputs":[],"stateMutability":"nonpayable"},{"type":"function","name":"unblacklistAddress","inputs":[{"name":"account","type":"address","internalType":"address"}],"outputs":[],"stateMutability":"nonpayable"},{"type":"event","name":"Approval","inputs":[{"name":"owner","type":"address","indexed":true,"internalType":"address"},{"name":"spender","type":"address","indexed":true,"internalType":"address"},{"name":"value","type":"uint256","indexed":false,"internalType":"uint256"}],"anonymous":false},{"type":"event","name":"Blacklisted","inputs":[{"name":"account","type":"address","indexed":true,"internalType":"address"}],"anonymous":false},{"type":"event","name":"OwnershipTransferred","inputs":[{"name":"previousOwner","type":"address","indexed":true,"internalType":"address"},{"name":"newOwner","type":"address","indexed":true,"internalType":"address"}],"anonymous":false},{"type":"event","name":"Transfer","inputs":[{"name":"from","type":"address","indexed":true,"internalType":"address"},{"name":"to","type":"address","indexed":true,"internalType":"address"},{"name":"value","type":"uint256","indexed":false,"internalType":"uint256"}],"anonymous":false},{"type":"event","name":"Unblacklisted","inputs":[{"name":"account","type":"address","indexed":true,"internalType":"address"}],"anonymous":false},{"type":"error","name":"ERC20InsufficientAllowance","inputs":[{"name":"spender","type":"address","internalType":"address"},{"name":"allowance","type":"uint256","internalType":"uint256"},{"name":"needed","type":"uint256","internalType":"uint256"}]},{"type":"error","name":"ERC20InsufficientBalance","inputs":[{"name":"sender","type":"address","internalType":"address"},{"name":"balance","type":"uint256","internalType":"uint256"},{"name":"needed","type":"uint256","internalType":"uint256"}]},{"type":"error","name":"ERC20InvalidApprover","inputs":[{"name":"approver","type":"address","internalType":"address"}]},{"type":"error","name":"ERC20InvalidReceiver","inputs":[{"name":"receiver","type":"address","internalType":"address"}]},{"type":"error","name":"ERC20InvalidSender","inputs":[{"name":"sender","type":"address","internalType":"address"}]},{"type":"error","name":"ERC20InvalidSpender","inputs":[{"name":"spender","type":"address","internalType":"address"}]},{"type":"error","name":"OwnableInvalidOwner","inputs":[{"name":"owner","type":"address","internalType":"address"}]},{"type":"error","name":"OwnableUnauthorizedAccount","inputs":[{"name":"account","type":"address","internalType":"address"}]}],"bytecode":{"object":"0x60806040526040516200343238038062003432833981810160405281019062000029919062000ab8565b335f73ffffffffffffffffffffffffffffffffffffffff168173ffffffffffffffffffffffffffffffffffffffff16036200009d575f6040517f1e4fbdf700000000000000000000000000000000000000000000000000000000815260040162000094919062000bb5565b60405180910390fd5b620000ae816200037760201b60201c565b508660059081620000c0919062000dfe565b508560069081620000d2919062000dfe565b508460075f6101000a81548160ff021916908360ff1602179055505f831162000132576040517f08c379a0000000000000000000000000000000000000000000000000000000008152600401620001299062000f40565b60405180910390fd5b82600881905550620001496200043860201b60201c565b600a620001579190620010dd565b620001676200044d60201b60201c565b6200017391906200112d565b841115620001b8576040517f08c379a0000000000000000000000000000000000000000000000000000000008152600401620001af90620011c5565b60405180910390fd5b80341015620001fe576040517f08c379a0000000000000000000000000000000000000000000000000000000008152600401620001f59062001233565b60405180910390fd5b5f73ffffffffffffffffffffffffffffffffffffffff168273ffffffffffffffffffffffffffffffffffffffff16036200026f576040517f08c379a00000000000000000000000000000000000000000000000000000000081526004016200026690620012a1565b60405180910390fd5b5f8273ffffffffffffffffffffffffffffffffffffffff16826040516200029690620012f2565b5f6040518083038185875af1925050503d805f8114620002d2576040519150601f19603f3d011682016040523d82523d5f602084013e620002d7565b606091505b50509050806200031e576040517f08c379a0000000000000000000000000000000000000000000000000000000008152600401620003159062001356565b60405180910390fd5b62000369620003326200045660201b60201c565b620003426200043860201b60201c565b600a620003509190620010dd565b876200035d91906200112d565b6200047d60201b60201c565b5050505050505050620014ab565b5f805f9054906101000a900473ffffffffffffffffffffffffffffffffffffffff169050815f806101000a81548173ffffffffffffffffffffffffffffffffffffffff021916908373ffffffffffffffffffffffffffffffffffffffff1602179055508173ffffffffffffffffffffffffffffffffffffffff168173ffffffffffffffffffffffffffffffffffffffff167f8be0079c531659141344cd1fd0a4f28419497f9722a3daafe3b4186f6b6457e060405160405180910390a35050565b5f60075f9054906101000a900460ff16905090565b5f600854905090565b5f805f9054906101000a900473ffffffffffffffffffffffffffffffffffffffff16905090565b60035f8373ffffffffffffffffffffffffffffffffffffffff1673ffffffffffffffffffffffffffffffffffffffff1681526020019081526020015f205f9054906101000a900460ff16156200050a576040517f08c379a00000000000000000000000000000000000000000000000000000000081526004016200050190620013ea565b60405180910390fd5b6200051a6200043860201b60201c565b600a620005289190620010dd565b620005386200044d60201b60201c565b6200054491906200112d565b81620005556200062f60201b60201c565b6200056191906200140a565b1115620005a5576040517f08c379a00000000000000000000000000000000000000000000000000000000081526004016200059c90620011c5565b60405180910390fd5b5f73ffffffffffffffffffffffffffffffffffffffff168273ffffffffffffffffffffffffffffffffffffffff160362000618575f6040517fec442f050000000000000000000000000000000000000000000000000000000081526004016200060f919062000bb5565b60405180910390fd5b6200062b5f83836200063860201b60201c565b5050565b5f600454905090565b5f73ffffffffffffffffffffffffffffffffffffffff168373ffffffffffffffffffffffffffffffffffffffff16036200068c578060045f8282546200067f91906200140a565b925050819055506200075f565b5f60015f8573ffffffffffffffffffffffffffffffffffffffff1673ffffffffffffffffffffffffffffffffffffffff1681526020019081526020015f205490508181101562000719578381836040517fe450d38c000000000000000000000000000000000000000000000000000000008152600401620007109392919062001455565b60405180910390fd5b81810360015f8673ffffffffffffffffffffffffffffffffffffffff1673ffffffffffffffffffffffffffffffffffffffff1681526020019081526020015f2081905550505b5f73ffffffffffffffffffffffffffffffffffffffff168273ffffffffffffffffffffffffffffffffffffffff1603620007a8578060045f8282540392505081905550620007f3565b8060015f8473ffffffffffffffffffffffffffffffffffffffff1673ffffffffffffffffffffffffffffffffffffffff1681526020019081526020015f205f82825401925050819055505b8173ffffffffffffffffffffffffffffffffffffffff168373ffffffffffffffffffffffffffffffffffffffff167fddf252ad1be2c89b69c2b068fc378daa952ba7f163c4a11628f55a4df523b3ef8360405162000852919062001490565b60405180910390a3505050565b5f604051905090565b5f80fd5b5f80fd5b5f80fd5b5f80fd5b5f601f19601f8301169050919050565b7f4e487b71000000000000000000000000000000000000000000000000000000005f52604160045260245ffd5b620008c08262000878565b810181811067ffffffffffffffff82111715620008e257620008e162000888565b5b80604052505050565b5f620008f66200085f565b9050620009048282620008b5565b919050565b5f67ffffffffffffffff82111562000926576200092562000888565b5b620009318262000878565b9050602081019050919050565b5f5b838110156200095d57808201518184015260208101905062000940565b5f8484015250505050565b5f6200097e620009788462000909565b620008eb565b9050828152602081018484840111156200099d576200099c62000874565b5b620009aa8482856200093e565b509392505050565b5f82601f830112620009c957620009c862000870565b5b8151620009db84826020860162000968565b91505092915050565b5f60ff82169050919050565b620009fb81620009e4565b811462000a06575f80fd5b50565b5f8151905062000a1981620009f0565b92915050565b5f819050919050565b62000a338162000a1f565b811462000a3e575f80fd5b50565b5f8151905062000a518162000a28565b92915050565b5f73ffffffffffffffffffffffffffffffffffffffff82169050919050565b5f62000a828262000a57565b9050919050565b62000a948162000a76565b811462000a9f575f80fd5b50565b5f8151905062000ab28162000a89565b92915050565b5f805f805f805f60e0888a03121562000ad65762000ad562000868565b5b5f88015167ffffffffffffffff81111562000af65762000af56200086c565b5b62000b048a828b01620009b2565b975050602088015167ffffffffffffffff81111562000b285762000b276200086c565b5b62000b368a828b01620009b2565b965050604062000b498a828b0162000a09565b955050606062000b5c8a828b0162000a41565b945050608062000b6f8a828b0162000a41565b93505060a062000b828a828b0162000aa2565b92505060c062000b958a828b0162000a41565b91505092959891949750929550565b62000baf8162000a76565b82525050565b5f60208201905062000bca5f83018462000ba4565b92915050565b5f81519050919050565b7f4e487b71000000000000000000000000000000000000000000000000000000005f52602260045260245ffd5b5f600282049050600182168062000c1f57607f821691505b60208210810362000c355762000c3462000bda565b5b50919050565b5f819050815f5260205f209050919050565b5f6020601f8301049050919050565b5f82821b905092915050565b5f6008830262000c997fffffffffffffffffffffffffffffffffffffffffffffffffffffffffffffffff8262000c5c565b62000ca5868362000c5c565b95508019841693508086168417925050509392505050565b5f819050919050565b5f62000ce662000ce062000cda8462000a1f565b62000cbd565b62000a1f565b9050919050565b5f819050919050565b62000d018362000cc6565b62000d1962000d108262000ced565b84845462000c68565b825550505050565b5f90565b62000d2f62000d21565b62000d3c81848462000cf6565b505050565b5b8181101562000d635762000d575f8262000d25565b60018101905062000d42565b5050565b601f82111562000db25762000d7c8162000c3b565b62000d878462000c4d565b8101602085101562000d97578190505b62000daf62000da68562000c4d565b83018262000d41565b50505b505050565b5f82821c905092915050565b5f62000dd45f198460080262000db7565b1980831691505092915050565b5f62000dee838362000dc3565b9150826002028217905092915050565b62000e098262000bd0565b67ffffffffffffffff81111562000e255762000e2462000888565b5b62000e31825462000c07565b62000e3e82828562000d67565b5f60209050601f83116001811462000e74575f841562000e5f578287015190505b62000e6b858262000de1565b86555062000eda565b601f19841662000e848662000c3b565b5f5b8281101562000ead5784890151825560018201915060208501945060208101905062000e86565b8683101562000ecd578489015162000ec9601f89168262000dc3565b8355505b6001600288020188555050505b505050505050565b5f82825260208201905092915050565b7f4361702073686f756c642062652067726561746572207468616e2030000000005f82015250565b5f62000f28601c8362000ee2565b915062000f358262000ef2565b602082019050919050565b5f6020820190508181035f83015262000f598162000f1a565b9050919050565b7f4e487b71000000000000000000000000000000000000000000000000000000005f52601160045260245ffd5b5f8160011c9050919050565b5f808291508390505b600185111562000fea5780860481111562000fc25762000fc162000f60565b5b600185161562000fd25780820291505b808102905062000fe28562000f8d565b945062000fa2565b94509492505050565b5f82620010045760019050620010d6565b8162001013575f9050620010d6565b81600181146200102c576002811462001037576200106d565b6001915050620010d6565b60ff8411156200104c576200104b62000f60565b5b8360020a91508482111562001066576200106562000f60565b5b50620010d6565b5060208310610133831016604e8410600b8410161715620010a75782820a905083811115620010a157620010a062000f60565b5b620010d6565b620010b6848484600162000f99565b92509050818404811115620010d057620010cf62000f60565b5b81810290505b9392505050565b5f620010e98262000a1f565b9150620010f683620009e4565b9250620011257fffffffffffffffffffffffffffffffffffffffffffffffffffffffffffffffff848462000ff3565b905092915050565b5f620011398262000a1f565b9150620011468362000a1f565b9250828202620011568162000a1f565b9150828204841483151762001170576200116f62000f60565b5b5092915050565b7f45524332304361707065643a20636170206578636565646564000000000000005f82015250565b5f620011ad60198362000ee2565b9150620011ba8262001177565b602082019050919050565b5f6020820190508181035f830152620011de816200119f565b9050919050565b7f496e73756666696369656e742066656520616d6f756e742073656e74000000005f82015250565b5f6200121b601c8362000ee2565b91506200122882620011e5565b602082019050919050565b5f6020820190508181035f8301526200124c816200120d565b9050919050565b7f496e76616c6964206665652072656365697665722061646472657373000000005f82015250565b5f62001289601c8362000ee2565b9150620012968262001253565b602082019050919050565b5f6020820190508181035f830152620012ba816200127b565b9050919050565b5f81905092915050565b50565b5f620012db5f83620012c1565b9150620012e882620012cb565b5f82019050919050565b5f620012fe82620012ce565b9150819050919050565b7f466565207472616e73666572206661696c6564000000000000000000000000005f82015250565b5f6200133e60138362000ee2565b91506200134b8262001308565b602082019050919050565b5f6020820190508181035f8301526200136f8162001330565b9050919050565b7f426c61636b6c697374656420616464726573732063616e6e6f742072656365695f8201527f766520746f6b656e730000000000000000000000000000000000000000000000602082015250565b5f620013d260298362000ee2565b9150620013df8262001376565b604082019050919050565b5f6020820190508181035f8301526200140381620013c4565b9050919050565b5f620014168262000a1f565b9150620014238362000a1f565b92508282019050808211156200143e576200143d62000f60565b5b92915050565b6200144f8162000a1f565b82525050565b5f6060820190506200146a5f83018662000ba4565b62001479602083018562001444565b62001488604083018462001444565b949350505050565b5f602082019050620014a55f83018462001444565b92915050565b611f7980620014b95f395ff3fe608060405234801561000f575f80fd5b506004361061011f575f3560e01c806370a08231116100ab578063a9059cbb1161006f578063a9059cbb146102e1578063dd62ed3e14610311578063f2fde38b14610341578063f3290d751461035d578063fe575a87146103795761011f565b806370a082311461024f578063715018a61461027f57806379cc6790146102895780638da5cb5b146102a557806395d89b41146102c35761011f565b8063313ce567116100f2578063313ce567146101bf578063355274ea146101dd57806340c10f19146101fb57806342966c681461021757806345e34949146102335761011f565b806306fdde0314610123578063095ea7b31461014157806318160ddd1461017157806323b872dd1461018f575b5f80fd5b61012b6103a9565b60405161013891906117b9565b60405180910390f35b61015b6004803603810190610156919061186a565b610439565b60405161016891906118c2565b60405180910390f35b610179610567565b60405161018691906118ea565b60405180910390f35b6101a960048036038101906101a49190611903565b610570565b6040516101b691906118c2565b60405180910390f35b6101c76106aa565b6040516101d4919061196e565b60405180910390f35b6101e56106bf565b6040516101f291906118ea565b60405180910390f35b6102156004803603810190610210919061186a565b6106c8565b005b610231600480360381019061022c9190611987565b6106de565b005b61024d600480360381019061024891906119b2565b6106eb565b005b610269600480360381019061026491906119b2565b61078d565b60405161027691906118ea565b60405180910390f35b6102876107d3565b005b6102a3600480360381019061029e919061186a565b6107e6565b005b6102ad6107ff565b6040516102ba91906119ec565b60405180910390f35b6102cb610826565b6040516102d891906117b9565b60405180910390f35b6102fb60048036038101906102f6919061186a565b6108b6565b60405161030891906118c2565b60405180910390f35b61032b60048036038101906103269190611a05565b6109e4565b60405161033891906118ea565b60405180910390f35b61035b600480360381019061035691906119b2565b610a66565b005b610377600480360381019061037291906119b2565b610aea565b005b610393600480360381019061038e91906119b2565b610b8d565b6040516103a091906118c2565b60405180910390f35b6060600580546103b890611a70565b80601f01602080910402602001604051908101604052809291908181526020018280546103e490611a70565b801561042f5780601f106104065761010080835404028352916020019161042f565b820191905f5260205f20905b81548152906001019060200180831161041257829003601f168201915b5050505050905090565b5f3360035f8273ffffffffffffffffffffffffffffffffffffffff1673ffffffffffffffffffffffffffffffffffffffff1681526020019081526020015f205f9054906101000a900460ff16156104c5576040517f08c379a00000000000000000000000000000000000000000000000000000000081526004016104bc90611aea565b60405180910390fd5b8360035f8273ffffffffffffffffffffffffffffffffffffffff1673ffffffffffffffffffffffffffffffffffffffff1681526020019081526020015f205f9054906101000a900460ff1615610550576040517f08c379a000000000000000000000000000000000000000000000000000000000815260040161054790611aea565b60405180910390fd5b61055b338686610bdf565b60019250505092915050565b5f600454905090565b5f8360035f8273ffffffffffffffffffffffffffffffffffffffff1673ffffffffffffffffffffffffffffffffffffffff1681526020019081526020015f205f9054906101000a900460ff16156105fc576040517f08c379a00000000000000000000000000000000000000000000000000000000081526004016105f390611aea565b60405180910390fd5b8360035f8273ffffffffffffffffffffffffffffffffffffffff1673ffffffffffffffffffffffffffffffffffffffff1681526020019081526020015f205f9054906101000a900460ff1615610687576040517f08c379a000000000000000000000000000000000000000000000000000000000815260040161067e90611aea565b60405180910390fd5b610692863386610d09565b61069d868686610d9c565b6001925050509392505050565b5f60075f9054906101000a900460ff16905090565b5f600854905090565b6106d0610f69565b6106da8282610ff0565b5050565b6106e83382611173565b50565b6106f3610f69565b5f60035f8373ffffffffffffffffffffffffffffffffffffffff1673ffffffffffffffffffffffffffffffffffffffff1681526020019081526020015f205f6101000a81548160ff0219169083151502179055508073ffffffffffffffffffffffffffffffffffffffff167f7534c63860313c46c473e4e98328f37017e9674e2162faf1a3ad7a96236c3b7b60405160405180910390a250565b5f60015f8373ffffffffffffffffffffffffffffffffffffffff1673ffffffffffffffffffffffffffffffffffffffff1681526020019081526020015f20549050919050565b6107db610f69565b6107e45f61127c565b565b6107f1823383610d09565b6107fb8282611173565b5050565b5f805f9054906101000a900473ffffffffffffffffffffffffffffffffffffffff16905090565b60606006805461083590611a70565b80601f016020809104026020016040519081016040528092919081815260200182805461086190611a70565b80156108ac5780601f10610883576101008083540402835291602001916108ac565b820191905f5260205f20905b81548152906001019060200180831161088f57829003601f168201915b5050505050905090565b5f3360035f8273ffffffffffffffffffffffffffffffffffffffff1673ffffffffffffffffffffffffffffffffffffffff1681526020019081526020015f205f9054906101000a900460ff1615610942576040517f08c379a000000000000000000000000000000000000000000000000000000000815260040161093990611aea565b60405180910390fd5b8360035f8273ffffffffffffffffffffffffffffffffffffffff1673ffffffffffffffffffffffffffffffffffffffff1681526020019081526020015f205f9054906101000a900460ff16156109cd576040517f08c379a00000000000000000000000000000000000000000000000000000000081526004016109c490611aea565b60405180910390fd5b6109d8338686610d9c565b60019250505092915050565b5f60025f8473ffffffffffffffffffffffffffffffffffffffff1673ffffffffffffffffffffffffffffffffffffffff1681526020019081526020015f205f8373ffffffffffffffffffffffffffffffffffffffff1673ffffffffffffffffffffffffffffffffffffffff1681526020019081526020015f2054905092915050565b610a6e610f69565b5f73ffffffffffffffffffffffffffffffffffffffff168173ffffffffffffffffffffffffffffffffffffffff1603610ade575f6040517f1e4fbdf7000000000000000000000000000000000000000000000000000000008152600401610ad591906119ec565b60405180910390fd5b610ae78161127c565b50565b610af2610f69565b600160035f8373ffffffffffffffffffffffffffffffffffffffff1673ffffffffffffffffffffffffffffffffffffffff1681526020019081526020015f205f6101000a81548160ff0219169083151502179055508073ffffffffffffffffffffffffffffffffffffffff167fffa4e6181777692565cf28528fc88fd1516ea86b56da075235fa575af6a4b85560405160405180910390a250565b5f60035f8373ffffffffffffffffffffffffffffffffffffffff1673ffffffffffffffffffffffffffffffffffffffff1681526020019081526020015f205f9054906101000a900460ff169050919050565b8260035f8273ffffffffffffffffffffffffffffffffffffffff1673ffffffffffffffffffffffffffffffffffffffff1681526020019081526020015f205f9054906101000a900460ff1615610c6a576040517f08c379a0000000000000000000000000000000000000000000000000000000008152600401610c6190611aea565b60405180910390fd5b8260035f8273ffffffffffffffffffffffffffffffffffffffff1673ffffffffffffffffffffffffffffffffffffffff1681526020019081526020015f205f9054906101000a900460ff1615610cf5576040517f08c379a0000000000000000000000000000000000000000000000000000000008152600401610cec90611aea565b60405180910390fd5b610d02858585600161133d565b5050505050565b5f610d1484846109e4565b90507fffffffffffffffffffffffffffffffffffffffffffffffffffffffffffffffff811015610d965781811015610d87578281836040517ffb8f41b2000000000000000000000000000000000000000000000000000000008152600401610d7e93929190611b08565b60405180910390fd5b610d9584848484035f61133d565b5b50505050565b60035f8473ffffffffffffffffffffffffffffffffffffffff1673ffffffffffffffffffffffffffffffffffffffff1681526020019081526020015f205f9054906101000a900460ff16158015610e3a575060035f8373ffffffffffffffffffffffffffffffffffffffff1673ffffffffffffffffffffffffffffffffffffffff1681526020019081526020015f205f9054906101000a900460ff16155b610e79576040517f08c379a0000000000000000000000000000000000000000000000000000000008152600401610e7090611b87565b60405180910390fd5b5f73ffffffffffffffffffffffffffffffffffffffff168373ffffffffffffffffffffffffffffffffffffffff1603610ee9575f6040517f96c6fd1e000000000000000000000000000000000000000000000000000000008152600401610ee091906119ec565b60405180910390fd5b5f73ffffffffffffffffffffffffffffffffffffffff168273ffffffffffffffffffffffffffffffffffffffff1603610f59575f6040517fec442f05000000000000000000000000000000000000000000000000000000008152600401610f5091906119ec565b60405180910390fd5b610f6483838361150c565b505050565b610f71611728565b73ffffffffffffffffffffffffffffffffffffffff16610f8f6107ff565b73ffffffffffffffffffffffffffffffffffffffff1614610fee57610fb2611728565b6040517f118cdaa7000000000000000000000000000000000000000000000000000000008152600401610fe591906119ec565b60405180910390fd5b565b60035f8373ffffffffffffffffffffffffffffffffffffffff1673ffffffffffffffffffffffffffffffffffffffff1681526020019081526020015f205f9054906101000a900460ff161561107a576040517f08c379a000000000000000000000000000000000000000000000000000000000815260040161107190611c15565b60405180910390fd5b6110826106aa565b600a61108e9190611d8f565b6110966106bf565b6110a09190611dd9565b816110a9610567565b6110b39190611e1a565b11156110f4576040517f08c379a00000000000000000000000000000000000000000000000000000000081526004016110eb90611e97565b60405180910390fd5b5f73ffffffffffffffffffffffffffffffffffffffff168273ffffffffffffffffffffffffffffffffffffffff1603611164575f6040517fec442f0500000000000000000000000000000000000000000000000000000000815260040161115b91906119ec565b60405180910390fd5b61116f5f838361150c565b5050565b60035f8373ffffffffffffffffffffffffffffffffffffffff1673ffffffffffffffffffffffffffffffffffffffff1681526020019081526020015f205f9054906101000a900460ff16156111fd576040517f08c379a00000000000000000000000000000000000000000000000000000000081526004016111f490611f25565b60405180910390fd5b5f73ffffffffffffffffffffffffffffffffffffffff168273ffffffffffffffffffffffffffffffffffffffff160361126d575f6040517f96c6fd1e00000000000000000000000000000000000000000000000000000000815260040161126491906119ec565b60405180910390fd5b611278825f8361150c565b5050565b5f805f9054906101000a900473ffffffffffffffffffffffffffffffffffffffff169050815f806101000a81548173ffffffffffffffffffffffffffffffffffffffff021916908373ffffffffffffffffffffffffffffffffffffffff1602179055508173ffffffffffffffffffffffffffffffffffffffff168173ffffffffffffffffffffffffffffffffffffffff167f8be0079c531659141344cd1fd0a4f28419497f9722a3daafe3b4186f6b6457e060405160405180910390a35050565b5f73ffffffffffffffffffffffffffffffffffffffff168473ffffffffffffffffffffffffffffffffffffffff16036113ad575f6040517fe602df050000000000000000000000000000000000000000000000000000000081526004016113a491906119ec565b60405180910390fd5b5f73ffffffffffffffffffffffffffffffffffffffff168373ffffffffffffffffffffffffffffffffffffffff160361141d575f6040517f94280d6200000000000000000000000000000000000000000000000000000000815260040161141491906119ec565b60405180910390fd5b8160025f8673ffffffffffffffffffffffffffffffffffffffff1673ffffffffffffffffffffffffffffffffffffffff1681526020019081526020015f205f8573ffffffffffffffffffffffffffffffffffffffff1673ffffffffffffffffffffffffffffffffffffffff1681526020019081526020015f20819055508015611506578273ffffffffffffffffffffffffffffffffffffffff168473ffffffffffffffffffffffffffffffffffffffff167f8c5be1e5ebec7d5bd14f71427d1e84f3dd0314c0f7b2291e5b200ac8c7c3b925846040516114fd91906118ea565b60405180910390a35b50505050565b5f73ffffffffffffffffffffffffffffffffffffffff168373ffffffffffffffffffffffffffffffffffffffff160361155c578060045f8282546115509190611e1a565b9250508190555061162c565b5f60015f8573ffffffffffffffffffffffffffffffffffffffff1673ffffffffffffffffffffffffffffffffffffffff1681526020019081526020015f20549050818110156115e6578381836040517fe450d38c0000000000000000000000000000000000000000000000000000000081526004016115dd93929190611b08565b60405180910390fd5b81810360015f8673ffffffffffffffffffffffffffffffffffffffff1673ffffffffffffffffffffffffffffffffffffffff1681526020019081526020015f2081905550505b5f73ffffffffffffffffffffffffffffffffffffffff168273ffffffffffffffffffffffffffffffffffffffff1603611673578060045f82825403925050819055506116be565b8060015f8473ffffffffffffffffffffffffffffffffffffffff1673ffffffffffffffffffffffffffffffffffffffff1681526020019081526020015f205f82825401925050819055505b8173ffffffffffffffffffffffffffffffffffffffff168373ffffffffffffffffffffffffffffffffffffffff167fddf252ad1be2c89b69c2b068fc378daa952ba7f163c4a11628f55a4df523b3ef8360405161171b91906118ea565b60405180910390a3505050565b5f33905090565b5f81519050919050565b5f82825260208201905092915050565b5f5b8381101561176657808201518184015260208101905061174b565b5f8484015250505050565b5f601f19601f8301169050919050565b5f61178b8261172f565b6117958185611739565b93506117a5818560208601611749565b6117ae81611771565b840191505092915050565b5f6020820190508181035f8301526117d18184611781565b905092915050565b5f80fd5b5f73ffffffffffffffffffffffffffffffffffffffff82169050919050565b5f611806826117dd565b9050919050565b611816816117fc565b8114611820575f80fd5b50565b5f813590506118318161180d565b92915050565b5f819050919050565b61184981611837565b8114611853575f80fd5b50565b5f8135905061186481611840565b92915050565b5f80604083850312156118805761187f6117d9565b5b5f61188d85828601611823565b925050602061189e85828601611856565b9150509250929050565b5f8115159050919050565b6118bc816118a8565b82525050565b5f6020820190506118d55f8301846118b3565b92915050565b6118e481611837565b82525050565b5f6020820190506118fd5f8301846118db565b92915050565b5f805f6060848603121561191a576119196117d9565b5b5f61192786828701611823565b935050602061193886828701611823565b925050604061194986828701611856565b9150509250925092565b5f60ff82169050919050565b61196881611953565b82525050565b5f6020820190506119815f83018461195f565b92915050565b5f6020828403121561199c5761199b6117d9565b5b5f6119a984828501611856565b91505092915050565b5f602082840312156119c7576119c66117d9565b5b5f6119d484828501611823565b91505092915050565b6119e6816117fc565b82525050565b5f6020820190506119ff5f8301846119dd565b92915050565b5f8060408385031215611a1b57611a1a6117d9565b5b5f611a2885828601611823565b9250506020611a3985828601611823565b9150509250929050565b7f4e487b71000000000000000000000000000000000000000000000000000000005f52602260045260245ffd5b5f6002820490506001821680611a8757607f821691505b602082108103611a9a57611a99611a43565b5b50919050565b7f4164647265737320697320626c61636b6c6973746564000000000000000000005f82015250565b5f611ad4601683611739565b9150611adf82611aa0565b602082019050919050565b5f6020820190508181035f830152611b0181611ac8565b9050919050565b5f606082019050611b1b5f8301866119dd565b611b2860208301856118db565b611b3560408301846118db565b949350505050565b7f426c61636b6c6973746564206164647265737320696e766f6c766564000000005f82015250565b5f611b71601c83611739565b9150611b7c82611b3d565b602082019050919050565b5f6020820190508181035f830152611b9e81611b65565b9050919050565b7f426c61636b6c697374656420616464726573732063616e6e6f742072656365695f8201527f766520746f6b656e730000000000000000000000000000000000000000000000602082015250565b5f611bff602983611739565b9150611c0a82611ba5565b604082019050919050565b5f6020820190508181035f830152611c2c81611bf3565b9050919050565b7f4e487b71000000000000000000000000000000000000000000000000000000005f52601160045260245ffd5b5f8160011c9050919050565b5f808291508390505b6001851115611cb557808604811115611c9157611c90611c33565b5b6001851615611ca05780820291505b8081029050611cae85611c60565b9450611c75565b94509492505050565b5f82611ccd5760019050611d88565b81611cda575f9050611d88565b8160018114611cf05760028114611cfa57611d29565b6001915050611d88565b60ff841115611d0c57611d0b611c33565b5b8360020a915084821115611d2357611d22611c33565b5b50611d88565b5060208310610133831016604e8410600b8410161715611d5e5782820a905083811115611d5957611d58611c33565b5b611d88565b611d6b8484846001611c6c565b92509050818404811115611d8257611d81611c33565b5b81810290505b9392505050565b5f611d9982611837565b9150611da483611953565b9250611dd17fffffffffffffffffffffffffffffffffffffffffffffffffffffffffffffffff8484611cbe565b905092915050565b5f611de382611837565b9150611dee83611837565b9250828202611dfc81611837565b91508282048414831517611e1357611e12611c33565b5b5092915050565b5f611e2482611837565b9150611e2f83611837565b9250828201905080821115611e4757611e46611c33565b5b92915050565b7f45524332304361707065643a20636170206578636565646564000000000000005f82015250565b5f611e81601983611739565b9150611e8c82611e4d565b602082019050919050565b5f6020820190508181035f830152611eae81611e75565b9050919050565b7f426c61636b6c697374656420616464726573732063616e6e6f74206275726e205f8201527f746f6b656e730000000000000000000000000000000000000000000000000000602082015250565b5f611f0f602683611739565b9150611f1a82611eb5565b604082019050919050565b5f6020820190508181035f830152611f3c81611f03565b905091905056fea26469706673582212208190b3f51d33a17605309dbcab25b145cdf4fa849d0f01adafa9d5a6e4388eff64736f6c63430008170033","linkReferences":{}},"methodIdentifiers":{"allowance(address,address)":"dd62ed3e","approve(address,uint256)":"095ea7b3","balanceOf(address)":"70a08231","blacklistAddress(address)":"f3290d75","burn(uint256)":"42966c68","burnFrom(address,uint256)":"79cc6790","cap()":"355274ea","decimals()":"313ce567","isBlacklisted(address)":"fe575a87","mint(address,uint256)":"40c10f19","name()":"06fdde03","owner()":"8da5cb5b","renounceOwnership()":"715018a6","symbol()":"95d89b41","totalSupply()":"18160ddd","transfer(address,uint256)":"a9059cbb","transferFrom(address,address,uint256)":"23b872dd","transferOwnership(address)":"f2fde38b","unblacklistAddress(address)":"45e34949"},"id":9}