{"abi":[{"type":"constructor","inputs":[{"name":"name_","type":"string","internalType":"string"},{"name":"symbol_","type":"string","internalType":"string"},{"name":"decimals_","type":"uint8","internalType":"uint8"},{"name":"totalSupply_","type":"uint256","internalType":"uint256"},{"name":"serviceFeeReceiver_","type":"address","internalType":"address"},{"name":"serviceFee_","type":"uint256","internalType":"uint256"},{"name":"transferTaxBps_","type":"uint256","internalType":"uint256"},{"name":"taxFeeRecipient_","type":"address","internalType":"address"}],"stateMutability":"payable"},{"type":"function","name":"allowance","inputs":[{"name":"owner","type":"address","internalType":"address"},{"name":"spender","type":"address","internalType":"address"}],"outputs":[{"name":"","type":"uint256","internalType":"uint256"}],"stateMutability":"view"},{"type":"function","name":"approve","inputs":[{"name":"spender","type":"address","internalType":"address"},{"name":"value","type":"uint256","internalType":"uint256"}],"outputs":[{"name":"","type":"bool","internalType":"bool"}],"stateMutability":"nonpayable"},{"type":"function","name":"balanceOf","inputs":[{"name":"account","type":"address","internalType":"address"}],"outputs":[{"name":"","type":"uint256","internalType":"uint256"}],"stateMutability":"view"},{"type":"function","name":"blacklist","inputs":[{"name":"account","type":"address","internalType":"address"}],"outputs":[],"stateMutability":"nonpayable"},{"type":"function","name":"decimals","inputs":[],"outputs":[{"name":"","type":"uint8","internalType":"uint8"}],"stateMutability":"view"},{"type":"function","name":"isBlacklisted","inputs":[{"name":"account","type":"address","internalType":"address"}],"outputs":[{"name":"","type":"bool","internalType":"bool"}],"stateMutability":"view"},{"type":"function","name":"name","inputs":[],"outputs":[{"name":"","type":"string","internalType":"string"}],"stateMutability":"view"},{"type":"function","name":"owner","inputs":[],"outputs":[{"name":"","type":"address","internalType":"address"}],"stateMutability":"view"},{"type":"function","name":"renounceOwnership","inputs":[],"outputs":[],"stateMutability":"nonpayable"},{"type":"function","name":"symbol","inputs":[],"outputs":[{"name":"","type":"string","internalType":"string"}],"stateMutability":"view"},{"type":"function","name":"totalSupply","inputs":[],"outputs":[{"name":"","type":"uint256","internalType":"uint256"}],"stateMutability":"view"},{"type":"function","name":"transfer","inputs":[{"name":"to","type":"address","internalType":"address"},{"name":"value","type":"uint256","internalType":"uint256"}],"outputs":[{"name":"","type":"bool","internalType":"bool"}],"stateMutability":"nonpayable"},{"type":"function","name":"transferFrom","inputs":[{"name":"from","type":"address","internalType":"address"},{"name":"to","type":"address","internalType":"address"},{"name":"value","type":"uint256","internalType":"uint256"}],"outputs":[{"name":"","type":"bool","internalType":"bool"}],"stateMutability":"nonpayable"},{"type":"function","name":"transferOwnership","inputs":[{"name":"newOwner","type":"address","internalType":"address"}],"outputs":[],"stateMutability":"nonpayable"},{"type":"function","name":"unblacklist","inputs":[{"name":"account","type":"address","internalType":"address"}],"outputs":[],"stateMutability":"nonpayable"},{"type":"event","name":"Approval","inputs":[{"name":"owner","type":"address","indexed":true,"internalType":"address"},{"name":"spender","type":"address","indexed":true,"internalType":"address"},{"name":"value","type":"uint256","indexed":false,"internalType":"uint256"}],"anonymous":false},{"type":"event","name":"Blacklisted","inputs":[{"name":"account","type":"address","indexed":true,"internalType":"address"}],"anonymous":false},{"type":"event","name":"OwnershipTransferred","inputs":[{"name":"previousOwner","type":"address","indexed":true,"internalType":"address"},{"name":"newOwner","type":"address","indexed":true,"internalType":"address"}],"anonymous":false},{"type":"event","name":"TaxFeeRecipientUpdated","inputs":[{"name":"newTaxFeeRecipient","type":"address","indexed":false,"internalType":"address"}],"anonymous":false},{"type":"event","name":"Transfer","inputs":[{"name":"from","type":"address","indexed":true,"internalType":"address"},{"name":"to","type":"address","indexed":true,"internalType":"address"},{"name":"value","type":"uint256","indexed":false,"internalType":"uint256"}],"anonymous":false},{"type":"event","name":"Unblacklisted","inputs":[{"name":"account","type":"address","indexed":true,"internalType":"address"}],"anonymous":false},{"type":"error","name":"ERC20InsufficientAllowance","inputs":[{"name":"spender","type":"address","internalType":"address"},{"name":"allowance","type":"uint256","internalType":"uint256"},{"name":"needed","type":"uint256","internalType":"uint256"}]},{"type":"error","name":"ERC20InsufficientBalance","inputs":[{"name":"sender","type":"address","internalType":"address"},{"name":"balance","type":"uint256","internalType":"uint256"},{"name":"needed","type":"uint256","internalType":"uint256"}]},{"type":"error","name":"ERC20InvalidApprover","inputs":[{"name":"approver","type":"address","internalType":"address"}]},{"type":"error","name":"ERC20InvalidReceiver","inputs":[{"name":"receiver","type":"address","internalType":"address"}]},{"type":"error","name":"ERC20InvalidSender","inputs":[{"name":"sender","type":"address","internalType":"address"}]},{"type":"error","name":"ERC20InvalidSpender","inputs":[{"name":"spender","type":"address","internalType":"address"}]},{"type":"error","name":"OwnableInvalidOwner","inputs":[{"name":"owner","type":"address","internalType":"address"}]},{"type":"error","name":"OwnableUnauthorizedAccount","inputs":[{"name":"account","type":"address","internalType":"address"}]}],"bytecode":{"object":"0x6080604052604051612db8380380612db883398181016040528101906100259190610875565b335f73ffffffffffffffffffffffffffffffffffffffff168173ffffffffffffffffffffffffffffffffffffffff1603610096575f6040517f1e4fbdf700000000000000000000000000000000000000000000000000000000815260040161008d919061096d565b60405180910390fd5b6100a5816102cf60201b60201c565b5087600590816100b59190610b8d565b5086600690816100c59190610b8d565b508560075f6101000a81548160ff021916908360ff160217905550816008819055508060095f6101000a81548173ffffffffffffffffffffffffffffffffffffffff021916908373ffffffffffffffffffffffffffffffffffffffff1602179055508234101561016a576040517f08c379a000000000000000000000000000000000000000000000000000000000815260040161016190610cb6565b60405180910390fd5b5f73ffffffffffffffffffffffffffffffffffffffff168473ffffffffffffffffffffffffffffffffffffffff16036101d8576040517f08c379a00000000000000000000000000000000000000000000000000000000081526004016101cf90610d1e565b60405180910390fd5b5f8473ffffffffffffffffffffffffffffffffffffffff16846040516101fd90610d69565b5f6040518083038185875af1925050503d805f8114610237576040519150601f19603f3d011682016040523d82523d5f602084013e61023c565b606091505b5050905080610280576040517f08c379a000000000000000000000000000000000000000000000000000000000815260040161027790610dc7565b60405180910390fd5b6102c161029161039060201b60201c565b61029f6103b760201b60201c565b600a6102ab9190610f41565b886102b69190610f8b565b6103cc60201b60201c565b5050505050505050506110f7565b5f5f5f9054906101000a900473ffffffffffffffffffffffffffffffffffffffff169050815f5f6101000a81548173ffffffffffffffffffffffffffffffffffffffff021916908373ffffffffffffffffffffffffffffffffffffffff1602179055508173ffffffffffffffffffffffffffffffffffffffff168173ffffffffffffffffffffffffffffffffffffffff167f8be0079c531659141344cd1fd0a4f28419497f9722a3daafe3b4186f6b6457e060405160405180910390a35050565b5f5f5f9054906101000a900473ffffffffffffffffffffffffffffffffffffffff16905090565b5f60075f9054906101000a900460ff16905090565b5f73ffffffffffffffffffffffffffffffffffffffff168273ffffffffffffffffffffffffffffffffffffffff160361043a576040517f08c379a000000000000000000000000000000000000000000000000000000000815260040161043190611016565b60405180910390fd5b61044b5f838361044f60201b60201c565b5050565b5f73ffffffffffffffffffffffffffffffffffffffff168373ffffffffffffffffffffffffffffffffffffffff160361049f578060045f8282546104939190611034565b92505081905550610569565b5f60015f8573ffffffffffffffffffffffffffffffffffffffff1673ffffffffffffffffffffffffffffffffffffffff1681526020019081526020015f2054905081811015610523576040517f08c379a000000000000000000000000000000000000000000000000000000000815260040161051a906110b1565b60405180910390fd5b81810360015f8673ffffffffffffffffffffffffffffffffffffffff1673ffffffffffffffffffffffffffffffffffffffff1681526020019081526020015f2081905550505b5f73ffffffffffffffffffffffffffffffffffffffff168273ffffffffffffffffffffffffffffffffffffffff16036105b0578060045f82825403925050819055506105fb565b8060015f8473ffffffffffffffffffffffffffffffffffffffff1673ffffffffffffffffffffffffffffffffffffffff1681526020019081526020015f205f82825401925050819055505b8173ffffffffffffffffffffffffffffffffffffffff168373ffffffffffffffffffffffffffffffffffffffff167fddf252ad1be2c89b69c2b068fc378daa952ba7f163c4a11628f55a4df523b3ef8360405161065891906110de565b60405180910390a3505050565b5f604051905090565b5f5ffd5b5f5ffd5b5f5ffd5b5f5ffd5b5f601f19601f8301169050919050565b7f4e487b71000000000000000000000000000000000000000000000000000000005f52604160045260245ffd5b6106c48261067e565b810181811067ffffffffffffffff821117156106e3576106e261068e565b5b80604052505050565b5f6106f5610665565b905061070182826106bb565b919050565b5f67ffffffffffffffff8211156107205761071f61068e565b5b6107298261067e565b9050602081019050919050565b8281835e5f83830152505050565b5f61075661075184610706565b6106ec565b9050828152602081018484840111156107725761077161067a565b5b61077d848285610736565b509392505050565b5f82601f83011261079957610798610676565b5b81516107a9848260208601610744565b91505092915050565b5f60ff82169050919050565b6107c7816107b2565b81146107d1575f5ffd5b50565b5f815190506107e2816107be565b92915050565b5f819050919050565b6107fa816107e8565b8114610804575f5ffd5b50565b5f81519050610815816107f1565b92915050565b5f73ffffffffffffffffffffffffffffffffffffffff82169050919050565b5f6108448261081b565b9050919050565b6108548161083a565b811461085e575f5ffd5b50565b5f8151905061086f8161084b565b92915050565b5f5f5f5f5f5f5f5f610100898b0312156108925761089161066e565b5b5f89015167ffffffffffffffff8111156108af576108ae610672565b5b6108bb8b828c01610785565b985050602089015167ffffffffffffffff8111156108dc576108db610672565b5b6108e88b828c01610785565b97505060406108f98b828c016107d4565b965050606061090a8b828c01610807565b955050608061091b8b828c01610861565b94505060a061092c8b828c01610807565b93505060c061093d8b828c01610807565b92505060e061094e8b828c01610861565b9150509295985092959890939650565b6109678161083a565b82525050565b5f6020820190506109805f83018461095e565b92915050565b5f81519050919050565b7f4e487b71000000000000000000000000000000000000000000000000000000005f52602260045260245ffd5b5f60028204905060018216806109d457607f821691505b6020821081036109e7576109e6610990565b5b50919050565b5f819050815f5260205f209050919050565b5f6020601f8301049050919050565b5f82821b905092915050565b5f60088302610a497fffffffffffffffffffffffffffffffffffffffffffffffffffffffffffffffff82610a0e565b610a538683610a0e565b95508019841693508086168417925050509392505050565b5f819050919050565b5f610a8e610a89610a84846107e8565b610a6b565b6107e8565b9050919050565b5f819050919050565b610aa783610a74565b610abb610ab382610a95565b848454610a1a565b825550505050565b5f5f905090565b610ad2610ac3565b610add818484610a9e565b505050565b5b81811015610b0057610af55f82610aca565b600181019050610ae3565b5050565b601f821115610b4557610b16816109ed565b610b1f846109ff565b81016020851015610b2e578190505b610b42610b3a856109ff565b830182610ae2565b50505b505050565b5f82821c905092915050565b5f610b655f1984600802610b4a565b1980831691505092915050565b5f610b7d8383610b56565b9150826002028217905092915050565b610b9682610986565b67ffffffffffffffff811115610baf57610bae61068e565b5b610bb982546109bd565b610bc4828285610b04565b5f60209050601f831160018114610bf5575f8415610be3578287015190505b610bed8582610b72565b865550610c54565b601f198416610c03866109ed565b5f5b82811015610c2a57848901518255600182019150602085019450602081019050610c05565b86831015610c475784890151610c43601f891682610b56565b8355505b6001600288020188555050505b505050505050565b5f82825260208201905092915050565b7f496e73756666696369656e742066656520616d6f756e742073656e74000000005f82015250565b5f610ca0601c83610c5c565b9150610cab82610c6c565b602082019050919050565b5f6020820190508181035f830152610ccd81610c94565b9050919050565b7f496e76616c6964206665652072656365697665720000000000000000000000005f82015250565b5f610d08601483610c5c565b9150610d1382610cd4565b602082019050919050565b5f6020820190508181035f830152610d3581610cfc565b9050919050565b5f81905092915050565b50565b5f610d545f83610d3c565b9150610d5f82610d46565b5f82019050919050565b5f610d7382610d49565b9150819050919050565b7f466565207472616e73666572206661696c6564000000000000000000000000005f82015250565b5f610db1601383610c5c565b9150610dbc82610d7d565b602082019050919050565b5f6020820190508181035f830152610dde81610da5565b9050919050565b7f4e487b71000000000000000000000000000000000000000000000000000000005f52601160045260245ffd5b5f8160011c9050919050565b5f5f8291508390505b6001851115610e6757808604811115610e4357610e42610de5565b5b6001851615610e525780820291505b8081029050610e6085610e12565b9450610e27565b94509492505050565b5f82610e7f5760019050610f3a565b81610e8c575f9050610f3a565b8160018114610ea25760028114610eac57610edb565b6001915050610f3a565b60ff841115610ebe57610ebd610de5565b5b8360020a915084821115610ed557610ed4610de5565b5b50610f3a565b5060208310610133831016604e8410600b8410161715610f105782820a905083811115610f0b57610f0a610de5565b5b610f3a565b610f1d8484846001610e1e565b92509050818404811115610f3457610f33610de5565b5b81810290505b9392505050565b5f610f4b826107e8565b9150610f56836107b2565b9250610f837fffffffffffffffffffffffffffffffffffffffffffffffffffffffffffffffff8484610e70565b905092915050565b5f610f95826107e8565b9150610fa0836107e8565b9250828202610fae816107e8565b91508282048414831517610fc557610fc4610de5565b5b5092915050565b7f496e76616c6964206d696e7420616464726573730000000000000000000000005f82015250565b5f611000601483610c5c565b915061100b82610fcc565b602082019050919050565b5f6020820190508181035f83015261102d81610ff4565b9050919050565b5f61103e826107e8565b9150611049836107e8565b925082820190508082111561106157611060610de5565b5b92915050565b7f496e73756666696369656e742062616c616e63650000000000000000000000005f82015250565b5f61109b601483610c5c565b91506110a682611067565b602082019050919050565b5f6020820190508181035f8301526110c88161108f565b9050919050565b6110d8816107e8565b82525050565b5f6020820190506110f15f8301846110cf565b92915050565b611cb4806111045f395ff3fe608060405234801561000f575f5ffd5b50600436106100f3575f3560e01c806375e3661e11610095578063dd62ed3e11610064578063dd62ed3e14610273578063f2fde38b146102a3578063f9f92be4146102bf578063fe575a87146102db576100f3565b806375e3661e146101eb5780638da5cb5b1461020757806395d89b4114610225578063a9059cbb14610243576100f3565b806323b872dd116100d157806323b872dd14610163578063313ce5671461019357806370a08231146101b1578063715018a6146101e1576100f3565b806306fdde03146100f7578063095ea7b31461011557806318160ddd14610145575b5f5ffd5b6100ff61030b565b60405161010c9190611654565b60405180910390f35b61012f600480360381019061012a9190611705565b61039b565b60405161013c919061175d565b60405180910390f35b61014d6104c9565b60405161015a9190611785565b60405180910390f35b61017d6004803603810190610178919061179e565b6104d2565b60405161018a919061175d565b60405180910390f35b61019b61060c565b6040516101a89190611809565b60405180910390f35b6101cb60048036038101906101c69190611822565b610621565b6040516101d89190611785565b60405180910390f35b6101e9610667565b005b61020560048036038101906102009190611822565b61067a565b005b61020f61071c565b60405161021c919061185c565b60405180910390f35b61022d610743565b60405161023a9190611654565b60405180910390f35b61025d60048036038101906102589190611705565b6107d3565b60405161026a919061175d565b60405180910390f35b61028d60048036038101906102889190611875565b610c5b565b60405161029a9190611785565b60405180910390f35b6102bd60048036038101906102b89190611822565b610cdd565b005b6102d960048036038101906102d49190611822565b610d61565b005b6102f560048036038101906102f09190611822565b610e04565b604051610302919061175d565b60405180910390f35b60606005805461031a906118e0565b80601f0160208091040260200160405190810160405280929190818152602001828054610346906118e0565b80156103915780601f1061036857610100808354040283529160200191610391565b820191905f5260205f20905b81548152906001019060200180831161037457829003601f168201915b5050505050905090565b5f3360035f8273ffffffffffffffffffffffffffffffffffffffff1673ffffffffffffffffffffffffffffffffffffffff1681526020019081526020015f205f9054906101000a900460ff1615610427576040517f08c379a000000000000000000000000000000000000000000000000000000000815260040161041e9061195a565b60405180910390fd5b8360035f8273ffffffffffffffffffffffffffffffffffffffff1673ffffffffffffffffffffffffffffffffffffffff1681526020019081526020015f205f9054906101000a900460ff16156104b2576040517f08c379a00000000000000000000000000000000000000000000000000000000081526004016104a99061195a565b60405180910390fd5b6104bd338686610e56565b60019250505092915050565b5f600454905090565b5f8360035f8273ffffffffffffffffffffffffffffffffffffffff1673ffffffffffffffffffffffffffffffffffffffff1681526020019081526020015f205f9054906101000a900460ff161561055e576040517f08c379a00000000000000000000000000000000000000000000000000000000081526004016105559061195a565b60405180910390fd5b8360035f8273ffffffffffffffffffffffffffffffffffffffff1673ffffffffffffffffffffffffffffffffffffffff1681526020019081526020015f205f9054906101000a900460ff16156105e9576040517f08c379a00000000000000000000000000000000000000000000000000000000081526004016105e09061195a565b60405180910390fd5b6105f48633866110c1565b6105ff868686611124565b6001925050509392505050565b5f60075f9054906101000a900460ff16905090565b5f60015f8373ffffffffffffffffffffffffffffffffffffffff1673ffffffffffffffffffffffffffffffffffffffff1681526020019081526020015f20549050919050565b61066f61127f565b6106785f611306565b565b61068261127f565b5f60035f8373ffffffffffffffffffffffffffffffffffffffff1673ffffffffffffffffffffffffffffffffffffffff1681526020019081526020015f205f6101000a81548160ff0219169083151502179055508073ffffffffffffffffffffffffffffffffffffffff167f7534c63860313c46c473e4e98328f37017e9674e2162faf1a3ad7a96236c3b7b60405160405180910390a250565b5f5f5f9054906101000a900473ffffffffffffffffffffffffffffffffffffffff16905090565b606060068054610752906118e0565b80601f016020809104026020016040519081016040528092919081815260200182805461077e906118e0565b80156107c95780601f106107a0576101008083540402835291602001916107c9565b820191905f5260205f20905b8154815290600101906020018083116107ac57829003601f168201915b5050505050905090565b5f3360035f8273ffffffffffffffffffffffffffffffffffffffff1673ffffffffffffffffffffffffffffffffffffffff1681526020019081526020015f205f9054906101000a900460ff161561085f576040517f08c379a00000000000000000000000000000000000000000000000000000000081526004016108569061195a565b60405180910390fd5b8360035f8273ffffffffffffffffffffffffffffffffffffffff1673ffffffffffffffffffffffffffffffffffffffff1681526020019081526020015f205f9054906101000a900460ff16156108ea576040517f08c379a00000000000000000000000000000000000000000000000000000000081526004016108e19061195a565b60405180910390fd5b5f6108f36113c7565b90505f6127106008548761090791906119a5565b6109119190611a13565b90505f81876109209190611a43565b90508660015f8573ffffffffffffffffffffffffffffffffffffffff1673ffffffffffffffffffffffffffffffffffffffff1681526020019081526020015f205410156109e5578260015f8573ffffffffffffffffffffffffffffffffffffffff1673ffffffffffffffffffffffffffffffffffffffff1681526020019081526020015f2054886040517fe450d38c0000000000000000000000000000000000000000000000000000000081526004016109dc93929190611a76565b60405180910390fd5b8660015f8573ffffffffffffffffffffffffffffffffffffffff1673ffffffffffffffffffffffffffffffffffffffff1681526020019081526020015f205f828254610a319190611a43565b925050819055508060015f8a73ffffffffffffffffffffffffffffffffffffffff1673ffffffffffffffffffffffffffffffffffffffff1681526020019081526020015f205f828254610a849190611aab565b925050819055505f73ffffffffffffffffffffffffffffffffffffffff1660095f9054906101000a900473ffffffffffffffffffffffffffffffffffffffff1673ffffffffffffffffffffffffffffffffffffffff1614158015610ae757505f82115b15610be7578160015f60095f9054906101000a900473ffffffffffffffffffffffffffffffffffffffff1673ffffffffffffffffffffffffffffffffffffffff1673ffffffffffffffffffffffffffffffffffffffff1681526020019081526020015f205f828254610b599190611aab565b9250508190555060095f9054906101000a900473ffffffffffffffffffffffffffffffffffffffff1673ffffffffffffffffffffffffffffffffffffffff168373ffffffffffffffffffffffffffffffffffffffff167fddf252ad1be2c89b69c2b068fc378daa952ba7f163c4a11628f55a4df523b3ef84604051610bde9190611785565b60405180910390a35b8773ffffffffffffffffffffffffffffffffffffffff168373ffffffffffffffffffffffffffffffffffffffff167fddf252ad1be2c89b69c2b068fc378daa952ba7f163c4a11628f55a4df523b3ef83604051610c449190611785565b60405180910390a360019550505050505092915050565b5f60025f8473ffffffffffffffffffffffffffffffffffffffff1673ffffffffffffffffffffffffffffffffffffffff1681526020019081526020015f205f8373ffffffffffffffffffffffffffffffffffffffff1673ffffffffffffffffffffffffffffffffffffffff1681526020019081526020015f2054905092915050565b610ce561127f565b5f73ffffffffffffffffffffffffffffffffffffffff168173ffffffffffffffffffffffffffffffffffffffff1603610d55575f6040517f1e4fbdf7000000000000000000000000000000000000000000000000000000008152600401610d4c919061185c565b60405180910390fd5b610d5e81611306565b50565b610d6961127f565b600160035f8373ffffffffffffffffffffffffffffffffffffffff1673ffffffffffffffffffffffffffffffffffffffff1681526020019081526020015f205f6101000a81548160ff0219169083151502179055508073ffffffffffffffffffffffffffffffffffffffff167fffa4e6181777692565cf28528fc88fd1516ea86b56da075235fa575af6a4b85560405160405180910390a250565b5f60035f8373ffffffffffffffffffffffffffffffffffffffff1673ffffffffffffffffffffffffffffffffffffffff1681526020019081526020015f205f9054906101000a900460ff169050919050565b60035f8473ffffffffffffffffffffffffffffffffffffffff1673ffffffffffffffffffffffffffffffffffffffff1681526020019081526020015f205f9054906101000a900460ff16158015610ef4575060035f8373ffffffffffffffffffffffffffffffffffffffff1673ffffffffffffffffffffffffffffffffffffffff1681526020019081526020015f205f9054906101000a900460ff16155b610f33576040517f08c379a0000000000000000000000000000000000000000000000000000000008152600401610f2a9061195a565b60405180910390fd5b5f73ffffffffffffffffffffffffffffffffffffffff168373ffffffffffffffffffffffffffffffffffffffff1614158015610f9b57505f73ffffffffffffffffffffffffffffffffffffffff168273ffffffffffffffffffffffffffffffffffffffff1614155b610fda576040517f08c379a0000000000000000000000000000000000000000000000000000000008152600401610fd190611b28565b60405180910390fd5b8060025f8573ffffffffffffffffffffffffffffffffffffffff1673ffffffffffffffffffffffffffffffffffffffff1681526020019081526020015f205f8473ffffffffffffffffffffffffffffffffffffffff1673ffffffffffffffffffffffffffffffffffffffff1681526020019081526020015f20819055508173ffffffffffffffffffffffffffffffffffffffff168373ffffffffffffffffffffffffffffffffffffffff167f8c5be1e5ebec7d5bd14f71427d1e84f3dd0314c0f7b2291e5b200ac8c7c3b925836040516110b49190611785565b60405180910390a3505050565b5f6110cc8484610c5b565b905081811015611111576040517f08c379a000000000000000000000000000000000000000000000000000000000815260040161110890611b90565b60405180910390fd5b61111e8484848403610e56565b50505050565b60035f8473ffffffffffffffffffffffffffffffffffffffff1673ffffffffffffffffffffffffffffffffffffffff1681526020019081526020015f205f9054906101000a900460ff161580156111c2575060035f8373ffffffffffffffffffffffffffffffffffffffff1673ffffffffffffffffffffffffffffffffffffffff1681526020019081526020015f205f9054906101000a900460ff16155b611201576040517f08c379a00000000000000000000000000000000000000000000000000000000081526004016111f890611bf8565b60405180910390fd5b5f73ffffffffffffffffffffffffffffffffffffffff168373ffffffffffffffffffffffffffffffffffffffff1603611238575f5ffd5b5f73ffffffffffffffffffffffffffffffffffffffff168273ffffffffffffffffffffffffffffffffffffffff160361126f575f5ffd5b61127a8383836113ce565b505050565b6112876113c7565b73ffffffffffffffffffffffffffffffffffffffff166112a561071c565b73ffffffffffffffffffffffffffffffffffffffff1614611304576112c86113c7565b6040517f118cdaa70000000000000000000000000000000000000000000000000000000081526004016112fb919061185c565b60405180910390fd5b565b5f5f5f9054906101000a900473ffffffffffffffffffffffffffffffffffffffff169050815f5f6101000a81548173ffffffffffffffffffffffffffffffffffffffff021916908373ffffffffffffffffffffffffffffffffffffffff1602179055508173ffffffffffffffffffffffffffffffffffffffff168173ffffffffffffffffffffffffffffffffffffffff167f8be0079c531659141344cd1fd0a4f28419497f9722a3daafe3b4186f6b6457e060405160405180910390a35050565b5f33905090565b5f73ffffffffffffffffffffffffffffffffffffffff168373ffffffffffffffffffffffffffffffffffffffff160361141e578060045f8282546114129190611aab565b925050819055506114e8565b5f60015f8573ffffffffffffffffffffffffffffffffffffffff1673ffffffffffffffffffffffffffffffffffffffff1681526020019081526020015f20549050818110156114a2576040517f08c379a000000000000000000000000000000000000000000000000000000000815260040161149990611c60565b60405180910390fd5b81810360015f8673ffffffffffffffffffffffffffffffffffffffff1673ffffffffffffffffffffffffffffffffffffffff1681526020019081526020015f2081905550505b5f73ffffffffffffffffffffffffffffffffffffffff168273ffffffffffffffffffffffffffffffffffffffff160361152f578060045f828254039250508190555061157a565b8060015f8473ffffffffffffffffffffffffffffffffffffffff1673ffffffffffffffffffffffffffffffffffffffff1681526020019081526020015f205f82825401925050819055505b8173ffffffffffffffffffffffffffffffffffffffff168373ffffffffffffffffffffffffffffffffffffffff167fddf252ad1be2c89b69c2b068fc378daa952ba7f163c4a11628f55a4df523b3ef836040516115d79190611785565b60405180910390a3505050565b5f81519050919050565b5f82825260208201905092915050565b8281835e5f83830152505050565b5f601f19601f8301169050919050565b5f611626826115e4565b61163081856115ee565b93506116408185602086016115fe565b6116498161160c565b840191505092915050565b5f6020820190508181035f83015261166c818461161c565b905092915050565b5f5ffd5b5f73ffffffffffffffffffffffffffffffffffffffff82169050919050565b5f6116a182611678565b9050919050565b6116b181611697565b81146116bb575f5ffd5b50565b5f813590506116cc816116a8565b92915050565b5f819050919050565b6116e4816116d2565b81146116ee575f5ffd5b50565b5f813590506116ff816116db565b92915050565b5f5f6040838503121561171b5761171a611674565b5b5f611728858286016116be565b9250506020611739858286016116f1565b9150509250929050565b5f8115159050919050565b61175781611743565b82525050565b5f6020820190506117705f83018461174e565b92915050565b61177f816116d2565b82525050565b5f6020820190506117985f830184611776565b92915050565b5f5f5f606084860312156117b5576117b4611674565b5b5f6117c2868287016116be565b93505060206117d3868287016116be565b92505060406117e4868287016116f1565b9150509250925092565b5f60ff82169050919050565b611803816117ee565b82525050565b5f60208201905061181c5f8301846117fa565b92915050565b5f6020828403121561183757611836611674565b5b5f611844848285016116be565b91505092915050565b61185681611697565b82525050565b5f60208201905061186f5f83018461184d565b92915050565b5f5f6040838503121561188b5761188a611674565b5b5f611898858286016116be565b92505060206118a9858286016116be565b9150509250929050565b7f4e487b71000000000000000000000000000000000000000000000000000000005f52602260045260245ffd5b5f60028204905060018216806118f757607f821691505b60208210810361190a576119096118b3565b5b50919050565b7f426c61636b6c69737465642061646472657373000000000000000000000000005f82015250565b5f6119446013836115ee565b915061194f82611910565b602082019050919050565b5f6020820190508181035f83015261197181611938565b9050919050565b7f4e487b71000000000000000000000000000000000000000000000000000000005f52601160045260245ffd5b5f6119af826116d2565b91506119ba836116d2565b92508282026119c8816116d2565b915082820484148315176119df576119de611978565b5b5092915050565b7f4e487b71000000000000000000000000000000000000000000000000000000005f52601260045260245ffd5b5f611a1d826116d2565b9150611a28836116d2565b925082611a3857611a376119e6565b5b828204905092915050565b5f611a4d826116d2565b9150611a58836116d2565b9250828203905081811115611a7057611a6f611978565b5b92915050565b5f606082019050611a895f83018661184d565b611a966020830185611776565b611aa36040830184611776565b949350505050565b5f611ab5826116d2565b9150611ac0836116d2565b9250828201905080821115611ad857611ad7611978565b5b92915050565b7f496e76616c6964206164647265737300000000000000000000000000000000005f82015250565b5f611b12600f836115ee565b9150611b1d82611ade565b602082019050919050565b5f6020820190508181035f830152611b3f81611b06565b9050919050565b7f496e73756666696369656e7420616c6c6f77616e6365000000000000000000005f82015250565b5f611b7a6016836115ee565b9150611b8582611b46565b602082019050919050565b5f6020820190508181035f830152611ba781611b6e565b9050919050565b7f426c61636b6c6973746564206164647265737320696e766f6c766564000000005f82015250565b5f611be2601c836115ee565b9150611bed82611bae565b602082019050919050565b5f6020820190508181035f830152611c0f81611bd6565b9050919050565b7f496e73756666696369656e742062616c616e63650000000000000000000000005f82015250565b5f611c4a6014836115ee565b9150611c5582611c16565b602082019050919050565b5f6020820190508181035f830152611c7781611c3e565b905091905056fea26469706673582212200fcc5e0e6fd17fbe1fc1d515414c121c9bf9fa36ce162173861ee7a1ca617deb64736f6c634300081c0033","linkReferences":{}},"methodIdentifiers":{"allowance(address,address)":"dd62ed3e","approve(address,uint256)":"095ea7b3","balanceOf(address)":"70a08231","blacklist(address)":"f9f92be4","decimals()":"313ce567","isBlacklisted(address)":"fe575a87","name()":"06fdde03","owner()":"8da5cb5b","renounceOwnership()":"715018a6","symbol()":"95d89b41","totalSupply()":"18160ddd","transfer(address,uint256)":"a9059cbb","transferFrom(address,address,uint256)":"23b872dd","transferOwnership(address)":"f2fde38b","unblacklist(address)":"75e3661e"},"id":1}