{"abi":[{"type":"constructor","inputs":[{"name":"name_","type":"string","internalType":"string"},{"name":"symbol_","type":"string","internalType":"string"},{"name":"decimals_","type":"uint8","internalType":"uint8"},{"name":"totalSupply_","type":"uint256","internalType":"uint256"},{"name":"serviceFeeReceiver_","type":"address","internalType":"address"},{"name":"serviceFee_","type":"uint256","internalType":"uint256"},{"name":"transferTaxBps_","type":"uint256","internalType":"uint256"},{"name":"taxFeeRecipient_","type":"address","internalType":"address"}],"stateMutability":"payable"},{"type":"function","name":"allowance","inputs":[{"name":"owner","type":"address","internalType":"address"},{"name":"spender","type":"address","internalType":"address"}],"outputs":[{"name":"","type":"uint256","internalType":"uint256"}],"stateMutability":"view"},{"type":"function","name":"approve","inputs":[{"name":"spender","type":"address","internalType":"address"},{"name":"value","type":"uint256","internalType":"uint256"}],"outputs":[{"name":"","type":"bool","internalType":"bool"}],"stateMutability":"nonpayable"},{"type":"function","name":"balanceOf","inputs":[{"name":"account","type":"address","internalType":"address"}],"outputs":[{"name":"","type":"uint256","internalType":"uint256"}],"stateMutability":"view"},{"type":"function","name":"blacklist","inputs":[{"name":"account","type":"address","internalType":"address"}],"outputs":[],"stateMutability":"nonpayable"},{"type":"function","name":"burn","inputs":[{"name":"value","type":"uint256","internalType":"uint256"}],"outputs":[],"stateMutability":"nonpayable"},{"type":"function","name":"burnFrom","inputs":[{"name":"account","type":"address","internalType":"address"},{"name":"value","type":"uint256","internalType":"uint256"}],"outputs":[],"stateMutability":"nonpayable"},{"type":"function","name":"decimals","inputs":[],"outputs":[{"name":"","type":"uint8","internalType":"uint8"}],"stateMutability":"view"},{"type":"function","name":"isBlacklisted","inputs":[{"name":"account","type":"address","internalType":"address"}],"outputs":[{"name":"","type":"bool","internalType":"bool"}],"stateMutability":"view"},{"type":"function","name":"mint","inputs":[{"name":"to","type":"address","internalType":"address"},{"name":"amount","type":"uint256","internalType":"uint256"}],"outputs":[],"stateMutability":"nonpayable"},{"type":"function","name":"name","inputs":[],"outputs":[{"name":"","type":"string","internalType":"string"}],"stateMutability":"view"},{"type":"function","name":"owner","inputs":[],"outputs":[{"name":"","type":"address","internalType":"address"}],"stateMutability":"view"},{"type":"function","name":"renounceOwnership","inputs":[],"outputs":[],"stateMutability":"nonpayable"},{"type":"function","name":"symbol","inputs":[],"outputs":[{"name":"","type":"string","internalType":"string"}],"stateMutability":"view"},{"type":"function","name":"totalSupply","inputs":[],"outputs":[{"name":"","type":"uint256","internalType":"uint256"}],"stateMutability":"view"},{"type":"function","name":"transfer","inputs":[{"name":"to","type":"address","internalType":"address"},{"name":"value","type":"uint256","internalType":"uint256"}],"outputs":[{"name":"","type":"bool","internalType":"bool"}],"stateMutability":"nonpayable"},{"type":"function","name":"transferFrom","inputs":[{"name":"from","type":"address","internalType":"address"},{"name":"to","type":"address","internalType":"address"},{"name":"value","type":"uint256","internalType":"uint256"}],"outputs":[{"name":"","type":"bool","internalType":"bool"}],"stateMutability":"nonpayable"},{"type":"function","name":"transferOwnership","inputs":[{"name":"newOwner","type":"address","internalType":"address"}],"outputs":[],"stateMutability":"nonpayable"},{"type":"function","name":"unblacklist","inputs":[{"name":"account","type":"address","internalType":"address"}],"outputs":[],"stateMutability":"nonpayable"},{"type":"event","name":"Approval","inputs":[{"name":"owner","type":"address","indexed":true,"internalType":"address"},{"name":"spender","type":"address","indexed":true,"internalType":"address"},{"name":"value","type":"uint256","indexed":false,"internalType":"uint256"}],"anonymous":false},{"type":"event","name":"Blacklisted","inputs":[{"name":"account","type":"address","indexed":true,"internalType":"address"}],"anonymous":false},{"type":"event","name":"OwnershipTransferred","inputs":[{"name":"previousOwner","type":"address","indexed":true,"internalType":"address"},{"name":"newOwner","type":"address","indexed":true,"internalType":"address"}],"anonymous":false},{"type":"event","name":"TaxFeeRecipientUpdated","inputs":[{"name":"newTaxFeeRecipient","type":"address","indexed":false,"internalType":"address"}],"anonymous":false},{"type":"event","name":"Transfer","inputs":[{"name":"from","type":"address","indexed":true,"internalType":"address"},{"name":"to","type":"address","indexed":true,"internalType":"address"},{"name":"value","type":"uint256","indexed":false,"internalType":"uint256"}],"anonymous":false},{"type":"event","name":"Unblacklisted","inputs":[{"name":"account","type":"address","indexed":true,"internalType":"address"}],"anonymous":false},{"type":"error","name":"ERC20InsufficientAllowance","inputs":[{"name":"spender","type":"address","internalType":"address"},{"name":"allowance","type":"uint256","internalType":"uint256"},{"name":"needed","type":"uint256","internalType":"uint256"}]},{"type":"error","name":"ERC20InsufficientBalance","inputs":[{"name":"sender","type":"address","internalType":"address"},{"name":"balance","type":"uint256","internalType":"uint256"},{"name":"needed","type":"uint256","internalType":"uint256"}]},{"type":"error","name":"ERC20InvalidApprover","inputs":[{"name":"approver","type":"address","internalType":"address"}]},{"type":"error","name":"ERC20InvalidReceiver","inputs":[{"name":"receiver","type":"address","internalType":"address"}]},{"type":"error","name":"ERC20InvalidSender","inputs":[{"name":"sender","type":"address","internalType":"address"}]},{"type":"error","name":"ERC20InvalidSpender","inputs":[{"name":"spender","type":"address","internalType":"address"}]},{"type":"error","name":"OwnableInvalidOwner","inputs":[{"name":"owner","type":"address","internalType":"address"}]},{"type":"error","name":"OwnableUnauthorizedAccount","inputs":[{"name":"account","type":"address","internalType":"address"}]}],"bytecode":{"object":"0x6080604052604051612f21380380612f2183398181016040528101906100259190610875565b335f73ffffffffffffffffffffffffffffffffffffffff168173ffffffffffffffffffffffffffffffffffffffff1603610096575f6040517f1e4fbdf700000000000000000000000000000000000000000000000000000000815260040161008d919061096d565b60405180910390fd5b6100a5816102cf60201b60201c565b5087600590816100b59190610b8d565b5086600690816100c59190610b8d565b508560075f6101000a81548160ff021916908360ff160217905550816008819055508060095f6101000a81548173ffffffffffffffffffffffffffffffffffffffff021916908373ffffffffffffffffffffffffffffffffffffffff1602179055508234101561016a576040517f08c379a000000000000000000000000000000000000000000000000000000000815260040161016190610cb6565b60405180910390fd5b5f73ffffffffffffffffffffffffffffffffffffffff168473ffffffffffffffffffffffffffffffffffffffff16036101d8576040517f08c379a00000000000000000000000000000000000000000000000000000000081526004016101cf90610d1e565b60405180910390fd5b5f8473ffffffffffffffffffffffffffffffffffffffff16846040516101fd90610d69565b5f6040518083038185875af1925050503d805f8114610237576040519150601f19603f3d011682016040523d82523d5f602084013e61023c565b606091505b5050905080610280576040517f08c379a000000000000000000000000000000000000000000000000000000000815260040161027790610dc7565b60405180910390fd5b6102c161029161039060201b60201c565b61029f6103b760201b60201c565b600a6102ab9190610f41565b886102b69190610f8b565b6103cc60201b60201c565b5050505050505050506110f7565b5f5f5f9054906101000a900473ffffffffffffffffffffffffffffffffffffffff169050815f5f6101000a81548173ffffffffffffffffffffffffffffffffffffffff021916908373ffffffffffffffffffffffffffffffffffffffff1602179055508173ffffffffffffffffffffffffffffffffffffffff168173ffffffffffffffffffffffffffffffffffffffff167f8be0079c531659141344cd1fd0a4f28419497f9722a3daafe3b4186f6b6457e060405160405180910390a35050565b5f5f5f9054906101000a900473ffffffffffffffffffffffffffffffffffffffff16905090565b5f60075f9054906101000a900460ff16905090565b5f73ffffffffffffffffffffffffffffffffffffffff168273ffffffffffffffffffffffffffffffffffffffff160361043a576040517f08c379a000000000000000000000000000000000000000000000000000000000815260040161043190611016565b60405180910390fd5b61044b5f838361044f60201b60201c565b5050565b5f73ffffffffffffffffffffffffffffffffffffffff168373ffffffffffffffffffffffffffffffffffffffff160361049f578060045f8282546104939190611034565b92505081905550610569565b5f60015f8573ffffffffffffffffffffffffffffffffffffffff1673ffffffffffffffffffffffffffffffffffffffff1681526020019081526020015f2054905081811015610523576040517f08c379a000000000000000000000000000000000000000000000000000000000815260040161051a906110b1565b60405180910390fd5b81810360015f8673ffffffffffffffffffffffffffffffffffffffff1673ffffffffffffffffffffffffffffffffffffffff1681526020019081526020015f2081905550505b5f73ffffffffffffffffffffffffffffffffffffffff168273ffffffffffffffffffffffffffffffffffffffff16036105b0578060045f82825403925050819055506105fb565b8060015f8473ffffffffffffffffffffffffffffffffffffffff1673ffffffffffffffffffffffffffffffffffffffff1681526020019081526020015f205f82825401925050819055505b8173ffffffffffffffffffffffffffffffffffffffff168373ffffffffffffffffffffffffffffffffffffffff167fddf252ad1be2c89b69c2b068fc378daa952ba7f163c4a11628f55a4df523b3ef8360405161065891906110de565b60405180910390a3505050565b5f604051905090565b5f5ffd5b5f5ffd5b5f5ffd5b5f5ffd5b5f601f19601f8301169050919050565b7f4e487b71000000000000000000000000000000000000000000000000000000005f52604160045260245ffd5b6106c48261067e565b810181811067ffffffffffffffff821117156106e3576106e261068e565b5b80604052505050565b5f6106f5610665565b905061070182826106bb565b919050565b5f67ffffffffffffffff8211156107205761071f61068e565b5b6107298261067e565b9050602081019050919050565b8281835e5f83830152505050565b5f61075661075184610706565b6106ec565b9050828152602081018484840111156107725761077161067a565b5b61077d848285610736565b509392505050565b5f82601f83011261079957610798610676565b5b81516107a9848260208601610744565b91505092915050565b5f60ff82169050919050565b6107c7816107b2565b81146107d1575f5ffd5b50565b5f815190506107e2816107be565b92915050565b5f819050919050565b6107fa816107e8565b8114610804575f5ffd5b50565b5f81519050610815816107f1565b92915050565b5f73ffffffffffffffffffffffffffffffffffffffff82169050919050565b5f6108448261081b565b9050919050565b6108548161083a565b811461085e575f5ffd5b50565b5f8151905061086f8161084b565b92915050565b5f5f5f5f5f5f5f5f610100898b0312156108925761089161066e565b5b5f89015167ffffffffffffffff8111156108af576108ae610672565b5b6108bb8b828c01610785565b985050602089015167ffffffffffffffff8111156108dc576108db610672565b5b6108e88b828c01610785565b97505060406108f98b828c016107d4565b965050606061090a8b828c01610807565b955050608061091b8b828c01610861565b94505060a061092c8b828c01610807565b93505060c061093d8b828c01610807565b92505060e061094e8b828c01610861565b9150509295985092959890939650565b6109678161083a565b82525050565b5f6020820190506109805f83018461095e565b92915050565b5f81519050919050565b7f4e487b71000000000000000000000000000000000000000000000000000000005f52602260045260245ffd5b5f60028204905060018216806109d457607f821691505b6020821081036109e7576109e6610990565b5b50919050565b5f819050815f5260205f209050919050565b5f6020601f8301049050919050565b5f82821b905092915050565b5f60088302610a497fffffffffffffffffffffffffffffffffffffffffffffffffffffffffffffffff82610a0e565b610a538683610a0e565b95508019841693508086168417925050509392505050565b5f819050919050565b5f610a8e610a89610a84846107e8565b610a6b565b6107e8565b9050919050565b5f819050919050565b610aa783610a74565b610abb610ab382610a95565b848454610a1a565b825550505050565b5f5f905090565b610ad2610ac3565b610add818484610a9e565b505050565b5b81811015610b0057610af55f82610aca565b600181019050610ae3565b5050565b601f821115610b4557610b16816109ed565b610b1f846109ff565b81016020851015610b2e578190505b610b42610b3a856109ff565b830182610ae2565b50505b505050565b5f82821c905092915050565b5f610b655f1984600802610b4a565b1980831691505092915050565b5f610b7d8383610b56565b9150826002028217905092915050565b610b9682610986565b67ffffffffffffffff811115610baf57610bae61068e565b5b610bb982546109bd565b610bc4828285610b04565b5f60209050601f831160018114610bf5575f8415610be3578287015190505b610bed8582610b72565b865550610c54565b601f198416610c03866109ed565b5f5b82811015610c2a57848901518255600182019150602085019450602081019050610c05565b86831015610c475784890151610c43601f891682610b56565b8355505b6001600288020188555050505b505050505050565b5f82825260208201905092915050565b7f496e73756666696369656e742066656520616d6f756e742073656e74000000005f82015250565b5f610ca0601c83610c5c565b9150610cab82610c6c565b602082019050919050565b5f6020820190508181035f830152610ccd81610c94565b9050919050565b7f496e76616c6964206665652072656365697665722061646472657373000000005f82015250565b5f610d08601c83610c5c565b9150610d1382610cd4565b602082019050919050565b5f6020820190508181035f830152610d3581610cfc565b9050919050565b5f81905092915050565b50565b5f610d545f83610d3c565b9150610d5f82610d46565b5f82019050919050565b5f610d7382610d49565b9150819050919050565b7f466565207472616e73666572206661696c6564000000000000000000000000005f82015250565b5f610db1601383610c5c565b9150610dbc82610d7d565b602082019050919050565b5f6020820190508181035f830152610dde81610da5565b9050919050565b7f4e487b71000000000000000000000000000000000000000000000000000000005f52601160045260245ffd5b5f8160011c9050919050565b5f5f8291508390505b6001851115610e6757808604811115610e4357610e42610de5565b5b6001851615610e525780820291505b8081029050610e6085610e12565b9450610e27565b94509492505050565b5f82610e7f5760019050610f3a565b81610e8c575f9050610f3a565b8160018114610ea25760028114610eac57610edb565b6001915050610f3a565b60ff841115610ebe57610ebd610de5565b5b8360020a915084821115610ed557610ed4610de5565b5b50610f3a565b5060208310610133831016604e8410600b8410161715610f105782820a905083811115610f0b57610f0a610de5565b5b610f3a565b610f1d8484846001610e1e565b92509050818404811115610f3457610f33610de5565b5b81810290505b9392505050565b5f610f4b826107e8565b9150610f56836107b2565b9250610f837fffffffffffffffffffffffffffffffffffffffffffffffffffffffffffffffff8484610e70565b905092915050565b5f610f95826107e8565b9150610fa0836107e8565b9250828202610fae816107e8565b91508282048414831517610fc557610fc4610de5565b5b5092915050565b7f496e76616c6964207265636569766572206164647265737300000000000000005f82015250565b5f611000601883610c5c565b915061100b82610fcc565b602082019050919050565b5f6020820190508181035f83015261102d81610ff4565b9050919050565b5f61103e826107e8565b9150611049836107e8565b925082820190508082111561106157611060610de5565b5b92915050565b7f496e73756666696369656e742062616c616e63650000000000000000000000005f82015250565b5f61109b601483610c5c565b91506110a682611067565b602082019050919050565b5f6020820190508181035f8301526110c88161108f565b9050919050565b6110d8816107e8565b82525050565b5f6020820190506110f15f8301846110cf565b92915050565b611e1d806111045f395ff3fe608060405234801561000f575f5ffd5b5060043610610114575f3560e01c806375e3661e116100a0578063a9059cbb1161006f578063a9059cbb146102b8578063dd62ed3e146102e8578063f2fde38b14610318578063f9f92be414610334578063fe575a871461035057610114565b806375e3661e1461024457806379cc6790146102605780638da5cb5b1461027c57806395d89b411461029a57610114565b8063313ce567116100e7578063313ce567146101b457806340c10f19146101d257806342966c68146101ee57806370a082311461020a578063715018a61461023a57610114565b806306fdde0314610118578063095ea7b31461013657806318160ddd1461016657806323b872dd14610184575b5f5ffd5b610120610380565b60405161012d91906115f2565b60405180910390f35b610150600480360381019061014b91906116a3565b610410565b60405161015d91906116fb565b60405180910390f35b61016e610432565b60405161017b9190611723565b60405180910390f35b61019e6004803603810190610199919061173c565b61043b565b6040516101ab91906116fb565b60405180910390f35b6101bc610469565b6040516101c991906117a7565b60405180910390f35b6101ec60048036038101906101e791906116a3565b61047e565b005b610208600480360381019061020391906117c0565b610494565b005b610224600480360381019061021f91906117eb565b6104a8565b6040516102319190611723565b60405180910390f35b6102426104ee565b005b61025e600480360381019061025991906117eb565b610501565b005b61027a600480360381019061027591906116a3565b6105a3565b005b6102846105c3565b6040516102919190611825565b60405180910390f35b6102a26105ea565b6040516102af91906115f2565b60405180910390f35b6102d260048036038101906102cd91906116a3565b61067a565b6040516102df91906116fb565b60405180910390f35b61030260048036038101906102fd919061183e565b610b02565b60405161030f9190611723565b60405180910390f35b610332600480360381019061032d91906117eb565b610b84565b005b61034e600480360381019061034991906117eb565b610c08565b005b61036a600480360381019061036591906117eb565b610cab565b60405161037791906116fb565b60405180910390f35b60606005805461038f906118a9565b80601f01602080910402602001604051908101604052809291908181526020018280546103bb906118a9565b80156104065780601f106103dd57610100808354040283529160200191610406565b820191905f5260205f20905b8154815290600101906020018083116103e957829003601f168201915b5050505050905090565b5f5f61041a610cfd565b9050610427818585610d04565b600191505092915050565b5f600454905090565b5f5f610445610cfd565b9050610452858285610ec7565b61045d858585610f2a565b60019150509392505050565b5f60075f9054906101000a900460ff16905090565b61048661112a565b61049082826111b1565b5050565b6104a561049f610cfd565b8261122e565b50565b5f60015f8373ffffffffffffffffffffffffffffffffffffffff1673ffffffffffffffffffffffffffffffffffffffff1681526020019081526020015f20549050919050565b6104f661112a565b6104ff5f6112ab565b565b61050961112a565b5f60035f8373ffffffffffffffffffffffffffffffffffffffff1673ffffffffffffffffffffffffffffffffffffffff1681526020019081526020015f205f6101000a81548160ff0219169083151502179055508073ffffffffffffffffffffffffffffffffffffffff167f7534c63860313c46c473e4e98328f37017e9674e2162faf1a3ad7a96236c3b7b60405160405180910390a250565b6105b5826105af610cfd565b83610ec7565b6105bf828261122e565b5050565b5f5f5f9054906101000a900473ffffffffffffffffffffffffffffffffffffffff16905090565b6060600680546105f9906118a9565b80601f0160208091040260200160405190810160405280929190818152602001828054610625906118a9565b80156106705780601f1061064757610100808354040283529160200191610670565b820191905f5260205f20905b81548152906001019060200180831161065357829003601f168201915b5050505050905090565b5f3360035f8273ffffffffffffffffffffffffffffffffffffffff1673ffffffffffffffffffffffffffffffffffffffff1681526020019081526020015f205f9054906101000a900460ff1615610706576040517f08c379a00000000000000000000000000000000000000000000000000000000081526004016106fd90611923565b60405180910390fd5b8360035f8273ffffffffffffffffffffffffffffffffffffffff1673ffffffffffffffffffffffffffffffffffffffff1681526020019081526020015f205f9054906101000a900460ff1615610791576040517f08c379a000000000000000000000000000000000000000000000000000000000815260040161078890611923565b60405180910390fd5b5f61079a610cfd565b90505f612710600854876107ae919061196e565b6107b891906119dc565b90505f81876107c79190611a0c565b90508660015f8573ffffffffffffffffffffffffffffffffffffffff1673ffffffffffffffffffffffffffffffffffffffff1681526020019081526020015f2054101561088c578260015f8573ffffffffffffffffffffffffffffffffffffffff1673ffffffffffffffffffffffffffffffffffffffff1681526020019081526020015f2054886040517fe450d38c00000000000000000000000000000000000000000000000000000000815260040161088393929190611a3f565b60405180910390fd5b8660015f8573ffffffffffffffffffffffffffffffffffffffff1673ffffffffffffffffffffffffffffffffffffffff1681526020019081526020015f205f8282546108d89190611a0c565b925050819055508060015f8a73ffffffffffffffffffffffffffffffffffffffff1673ffffffffffffffffffffffffffffffffffffffff1681526020019081526020015f205f82825461092b9190611a74565b925050819055505f73ffffffffffffffffffffffffffffffffffffffff1660095f9054906101000a900473ffffffffffffffffffffffffffffffffffffffff1673ffffffffffffffffffffffffffffffffffffffff161415801561098e57505f82115b15610a8e578160015f60095f9054906101000a900473ffffffffffffffffffffffffffffffffffffffff1673ffffffffffffffffffffffffffffffffffffffff1673ffffffffffffffffffffffffffffffffffffffff1681526020019081526020015f205f828254610a009190611a74565b9250508190555060095f9054906101000a900473ffffffffffffffffffffffffffffffffffffffff1673ffffffffffffffffffffffffffffffffffffffff168373ffffffffffffffffffffffffffffffffffffffff167fddf252ad1be2c89b69c2b068fc378daa952ba7f163c4a11628f55a4df523b3ef84604051610a859190611723565b60405180910390a35b8773ffffffffffffffffffffffffffffffffffffffff168373ffffffffffffffffffffffffffffffffffffffff167fddf252ad1be2c89b69c2b068fc378daa952ba7f163c4a11628f55a4df523b3ef83604051610aeb9190611723565b60405180910390a360019550505050505092915050565b5f60025f8473ffffffffffffffffffffffffffffffffffffffff1673ffffffffffffffffffffffffffffffffffffffff1681526020019081526020015f205f8373ffffffffffffffffffffffffffffffffffffffff1673ffffffffffffffffffffffffffffffffffffffff1681526020019081526020015f2054905092915050565b610b8c61112a565b5f73ffffffffffffffffffffffffffffffffffffffff168173ffffffffffffffffffffffffffffffffffffffff1603610bfc575f6040517f1e4fbdf7000000000000000000000000000000000000000000000000000000008152600401610bf39190611825565b60405180910390fd5b610c05816112ab565b50565b610c1061112a565b600160035f8373ffffffffffffffffffffffffffffffffffffffff1673ffffffffffffffffffffffffffffffffffffffff1681526020019081526020015f205f6101000a81548160ff0219169083151502179055508073ffffffffffffffffffffffffffffffffffffffff167fffa4e6181777692565cf28528fc88fd1516ea86b56da075235fa575af6a4b85560405160405180910390a250565b5f60035f8373ffffffffffffffffffffffffffffffffffffffff1673ffffffffffffffffffffffffffffffffffffffff1681526020019081526020015f205f9054906101000a900460ff169050919050565b5f33905090565b5f73ffffffffffffffffffffffffffffffffffffffff168373ffffffffffffffffffffffffffffffffffffffff1603610d72576040517f08c379a0000000000000000000000000000000000000000000000000000000008152600401610d6990611af1565b60405180910390fd5b5f73ffffffffffffffffffffffffffffffffffffffff168273ffffffffffffffffffffffffffffffffffffffff1603610de0576040517f08c379a0000000000000000000000000000000000000000000000000000000008152600401610dd790611b59565b60405180910390fd5b8060025f8573ffffffffffffffffffffffffffffffffffffffff1673ffffffffffffffffffffffffffffffffffffffff1681526020019081526020015f205f8473ffffffffffffffffffffffffffffffffffffffff1673ffffffffffffffffffffffffffffffffffffffff1681526020019081526020015f20819055508173ffffffffffffffffffffffffffffffffffffffff168373ffffffffffffffffffffffffffffffffffffffff167f8c5be1e5ebec7d5bd14f71427d1e84f3dd0314c0f7b2291e5b200ac8c7c3b92583604051610eba9190611723565b60405180910390a3505050565b5f610ed28484610b02565b905081811015610f17576040517f08c379a0000000000000000000000000000000000000000000000000000000008152600401610f0e90611bc1565b60405180910390fd5b610f248484848403610d04565b50505050565b60035f8473ffffffffffffffffffffffffffffffffffffffff1673ffffffffffffffffffffffffffffffffffffffff1681526020019081526020015f205f9054906101000a900460ff1615610fb4576040517f08c379a0000000000000000000000000000000000000000000000000000000008152600401610fab90611c29565b60405180910390fd5b60035f8373ffffffffffffffffffffffffffffffffffffffff1673ffffffffffffffffffffffffffffffffffffffff1681526020019081526020015f205f9054906101000a900460ff161561103e576040517f08c379a000000000000000000000000000000000000000000000000000000000815260040161103590611c91565b60405180910390fd5b5f73ffffffffffffffffffffffffffffffffffffffff168373ffffffffffffffffffffffffffffffffffffffff16036110ac576040517f08c379a00000000000000000000000000000000000000000000000000000000081526004016110a390611cf9565b60405180910390fd5b5f73ffffffffffffffffffffffffffffffffffffffff168273ffffffffffffffffffffffffffffffffffffffff160361111a576040517f08c379a000000000000000000000000000000000000000000000000000000000815260040161111190611d61565b60405180910390fd5b61112583838361136c565b505050565b611132610cfd565b73ffffffffffffffffffffffffffffffffffffffff166111506105c3565b73ffffffffffffffffffffffffffffffffffffffff16146111af57611173610cfd565b6040517f118cdaa70000000000000000000000000000000000000000000000000000000081526004016111a69190611825565b60405180910390fd5b565b5f73ffffffffffffffffffffffffffffffffffffffff168273ffffffffffffffffffffffffffffffffffffffff160361121f576040517f08c379a000000000000000000000000000000000000000000000000000000000815260040161121690611d61565b60405180910390fd5b61122a5f838361136c565b5050565b5f73ffffffffffffffffffffffffffffffffffffffff168273ffffffffffffffffffffffffffffffffffffffff160361129c576040517f08c379a000000000000000000000000000000000000000000000000000000000815260040161129390611cf9565b60405180910390fd5b6112a7825f8361136c565b5050565b5f5f5f9054906101000a900473ffffffffffffffffffffffffffffffffffffffff169050815f5f6101000a81548173ffffffffffffffffffffffffffffffffffffffff021916908373ffffffffffffffffffffffffffffffffffffffff1602179055508173ffffffffffffffffffffffffffffffffffffffff168173ffffffffffffffffffffffffffffffffffffffff167f8be0079c531659141344cd1fd0a4f28419497f9722a3daafe3b4186f6b6457e060405160405180910390a35050565b5f73ffffffffffffffffffffffffffffffffffffffff168373ffffffffffffffffffffffffffffffffffffffff16036113bc578060045f8282546113b09190611a74565b92505081905550611486565b5f60015f8573ffffffffffffffffffffffffffffffffffffffff1673ffffffffffffffffffffffffffffffffffffffff1681526020019081526020015f2054905081811015611440576040517f08c379a000000000000000000000000000000000000000000000000000000000815260040161143790611dc9565b60405180910390fd5b81810360015f8673ffffffffffffffffffffffffffffffffffffffff1673ffffffffffffffffffffffffffffffffffffffff1681526020019081526020015f2081905550505b5f73ffffffffffffffffffffffffffffffffffffffff168273ffffffffffffffffffffffffffffffffffffffff16036114cd578060045f8282540392505081905550611518565b8060015f8473ffffffffffffffffffffffffffffffffffffffff1673ffffffffffffffffffffffffffffffffffffffff1681526020019081526020015f205f82825401925050819055505b8173ffffffffffffffffffffffffffffffffffffffff168373ffffffffffffffffffffffffffffffffffffffff167fddf252ad1be2c89b69c2b068fc378daa952ba7f163c4a11628f55a4df523b3ef836040516115759190611723565b60405180910390a3505050565b5f81519050919050565b5f82825260208201905092915050565b8281835e5f83830152505050565b5f601f19601f8301169050919050565b5f6115c482611582565b6115ce818561158c565b93506115de81856020860161159c565b6115e7816115aa565b840191505092915050565b5f6020820190508181035f83015261160a81846115ba565b905092915050565b5f5ffd5b5f73ffffffffffffffffffffffffffffffffffffffff82169050919050565b5f61163f82611616565b9050919050565b61164f81611635565b8114611659575f5ffd5b50565b5f8135905061166a81611646565b92915050565b5f819050919050565b61168281611670565b811461168c575f5ffd5b50565b5f8135905061169d81611679565b92915050565b5f5f604083850312156116b9576116b8611612565b5b5f6116c68582860161165c565b92505060206116d78582860161168f565b9150509250929050565b5f8115159050919050565b6116f5816116e1565b82525050565b5f60208201905061170e5f8301846116ec565b92915050565b61171d81611670565b82525050565b5f6020820190506117365f830184611714565b92915050565b5f5f5f6060848603121561175357611752611612565b5b5f6117608682870161165c565b93505060206117718682870161165c565b92505060406117828682870161168f565b9150509250925092565b5f60ff82169050919050565b6117a18161178c565b82525050565b5f6020820190506117ba5f830184611798565b92915050565b5f602082840312156117d5576117d4611612565b5b5f6117e28482850161168f565b91505092915050565b5f60208284031215611800576117ff611612565b5b5f61180d8482850161165c565b91505092915050565b61181f81611635565b82525050565b5f6020820190506118385f830184611816565b92915050565b5f5f6040838503121561185457611853611612565b5b5f6118618582860161165c565b92505060206118728582860161165c565b9150509250929050565b7f4e487b71000000000000000000000000000000000000000000000000000000005f52602260045260245ffd5b5f60028204905060018216806118c057607f821691505b6020821081036118d3576118d261187c565b5b50919050565b7f4164647265737320697320626c61636b6c6973746564000000000000000000005f82015250565b5f61190d60168361158c565b9150611918826118d9565b602082019050919050565b5f6020820190508181035f83015261193a81611901565b9050919050565b7f4e487b71000000000000000000000000000000000000000000000000000000005f52601160045260245ffd5b5f61197882611670565b915061198383611670565b925082820261199181611670565b915082820484148315176119a8576119a7611941565b5b5092915050565b7f4e487b71000000000000000000000000000000000000000000000000000000005f52601260045260245ffd5b5f6119e682611670565b91506119f183611670565b925082611a0157611a006119af565b5b828204905092915050565b5f611a1682611670565b9150611a2183611670565b9250828203905081811115611a3957611a38611941565b5b92915050565b5f606082019050611a525f830186611816565b611a5f6020830185611714565b611a6c6040830184611714565b949350505050565b5f611a7e82611670565b9150611a8983611670565b9250828201905080821115611aa157611aa0611941565b5b92915050565b7f496e76616c6964206f776e6572206164647265737300000000000000000000005f82015250565b5f611adb60158361158c565b9150611ae682611aa7565b602082019050919050565b5f6020820190508181035f830152611b0881611acf565b9050919050565b7f496e76616c6964207370656e64657220616464726573730000000000000000005f82015250565b5f611b4360178361158c565b9150611b4e82611b0f565b602082019050919050565b5f6020820190508181035f830152611b7081611b37565b9050919050565b7f496e73756666696369656e7420616c6c6f77616e6365000000000000000000005f82015250565b5f611bab60168361158c565b9150611bb682611b77565b602082019050919050565b5f6020820190508181035f830152611bd881611b9f565b9050919050565b7f53656e64657220697320626c61636b6c697374656400000000000000000000005f82015250565b5f611c1360158361158c565b9150611c1e82611bdf565b602082019050919050565b5f6020820190508181035f830152611c4081611c07565b9050919050565b7f526563656976657220697320626c61636b6c69737465640000000000000000005f82015250565b5f611c7b60178361158c565b9150611c8682611c47565b602082019050919050565b5f6020820190508181035f830152611ca881611c6f565b9050919050565b7f496e76616c69642073656e6465722061646472657373000000000000000000005f82015250565b5f611ce360168361158c565b9150611cee82611caf565b602082019050919050565b5f6020820190508181035f830152611d1081611cd7565b9050919050565b7f496e76616c6964207265636569766572206164647265737300000000000000005f82015250565b5f611d4b60188361158c565b9150611d5682611d17565b602082019050919050565b5f6020820190508181035f830152611d7881611d3f565b9050919050565b7f496e73756666696369656e742062616c616e63650000000000000000000000005f82015250565b5f611db360148361158c565b9150611dbe82611d7f565b602082019050919050565b5f6020820190508181035f830152611de081611da7565b905091905056fea2646970667358221220571fa990f04c187ce7fa2a342bc8a6ee3c06122073d8fd62fdafe4f5ff18d9d064736f6c634300081c0033","linkReferences":{}},"methodIdentifiers":{"allowance(address,address)":"dd62ed3e","approve(address,uint256)":"095ea7b3","balanceOf(address)":"70a08231","blacklist(address)":"f9f92be4","burn(uint256)":"42966c68","burnFrom(address,uint256)":"79cc6790","decimals()":"313ce567","isBlacklisted(address)":"fe575a87","mint(address,uint256)":"40c10f19","name()":"06fdde03","owner()":"8da5cb5b","renounceOwnership()":"715018a6","symbol()":"95d89b41","totalSupply()":"18160ddd","transfer(address,uint256)":"a9059cbb","transferFrom(address,address,uint256)":"23b872dd","transferOwnership(address)":"f2fde38b","unblacklist(address)":"75e3661e"},"id":7}