{"abi":[{"type":"constructor","inputs":[{"name":"name_","type":"string","internalType":"string"},{"name":"symbol_","type":"string","internalType":"string"},{"name":"decimals_","type":"uint8","internalType":"uint8"},{"name":"totalSupply_","type":"uint256","internalType":"uint256"},{"name":"serviceFeeReceiver_","type":"address","internalType":"address"},{"name":"serviceFee_","type":"uint256","internalType":"uint256"}],"stateMutability":"payable"},{"type":"function","name":"allowance","inputs":[{"name":"owner","type":"address","internalType":"address"},{"name":"spender","type":"address","internalType":"address"}],"outputs":[{"name":"","type":"uint256","internalType":"uint256"}],"stateMutability":"view"},{"type":"function","name":"approve","inputs":[{"name":"spender","type":"address","internalType":"address"},{"name":"value","type":"uint256","internalType":"uint256"}],"outputs":[{"name":"","type":"bool","internalType":"bool"}],"stateMutability":"nonpayable"},{"type":"function","name":"balanceOf","inputs":[{"name":"account","type":"address","internalType":"address"}],"outputs":[{"name":"","type":"uint256","internalType":"uint256"}],"stateMutability":"view"},{"type":"function","name":"blacklist","inputs":[{"name":"account","type":"address","internalType":"address"}],"outputs":[],"stateMutability":"nonpayable"},{"type":"function","name":"decimals","inputs":[],"outputs":[{"name":"","type":"uint8","internalType":"uint8"}],"stateMutability":"view"},{"type":"function","name":"isBlacklisted","inputs":[{"name":"account","type":"address","internalType":"address"}],"outputs":[{"name":"","type":"bool","internalType":"bool"}],"stateMutability":"view"},{"type":"function","name":"mint","inputs":[{"name":"to","type":"address","internalType":"address"},{"name":"amount","type":"uint256","internalType":"uint256"}],"outputs":[],"stateMutability":"nonpayable"},{"type":"function","name":"name","inputs":[],"outputs":[{"name":"","type":"string","internalType":"string"}],"stateMutability":"view"},{"type":"function","name":"owner","inputs":[],"outputs":[{"name":"","type":"address","internalType":"address"}],"stateMutability":"view"},{"type":"function","name":"pause","inputs":[],"outputs":[],"stateMutability":"nonpayable"},{"type":"function","name":"paused","inputs":[],"outputs":[{"name":"","type":"bool","internalType":"bool"}],"stateMutability":"view"},{"type":"function","name":"renounceOwnership","inputs":[],"outputs":[],"stateMutability":"nonpayable"},{"type":"function","name":"symbol","inputs":[],"outputs":[{"name":"","type":"string","internalType":"string"}],"stateMutability":"view"},{"type":"function","name":"totalSupply","inputs":[],"outputs":[{"name":"","type":"uint256","internalType":"uint256"}],"stateMutability":"view"},{"type":"function","name":"transfer","inputs":[{"name":"to","type":"address","internalType":"address"},{"name":"value","type":"uint256","internalType":"uint256"}],"outputs":[{"name":"","type":"bool","internalType":"bool"}],"stateMutability":"nonpayable"},{"type":"function","name":"transferFrom","inputs":[{"name":"from","type":"address","internalType":"address"},{"name":"to","type":"address","internalType":"address"},{"name":"value","type":"uint256","internalType":"uint256"}],"outputs":[{"name":"","type":"bool","internalType":"bool"}],"stateMutability":"nonpayable"},{"type":"function","name":"transferOwnership","inputs":[{"name":"newOwner","type":"address","internalType":"address"}],"outputs":[],"stateMutability":"nonpayable"},{"type":"function","name":"unblacklist","inputs":[{"name":"account","type":"address","internalType":"address"}],"outputs":[],"stateMutability":"nonpayable"},{"type":"function","name":"unpause","inputs":[],"outputs":[],"stateMutability":"nonpayable"},{"type":"event","name":"Approval","inputs":[{"name":"owner","type":"address","indexed":true,"internalType":"address"},{"name":"spender","type":"address","indexed":true,"internalType":"address"},{"name":"value","type":"uint256","indexed":false,"internalType":"uint256"}],"anonymous":false},{"type":"event","name":"Blacklisted","inputs":[{"name":"account","type":"address","indexed":true,"internalType":"address"}],"anonymous":false},{"type":"event","name":"OwnershipTransferred","inputs":[{"name":"previousOwner","type":"address","indexed":true,"internalType":"address"},{"name":"newOwner","type":"address","indexed":true,"internalType":"address"}],"anonymous":false},{"type":"event","name":"Paused","inputs":[{"name":"account","type":"address","indexed":false,"internalType":"address"}],"anonymous":false},{"type":"event","name":"Transfer","inputs":[{"name":"from","type":"address","indexed":true,"internalType":"address"},{"name":"to","type":"address","indexed":true,"internalType":"address"},{"name":"value","type":"uint256","indexed":false,"internalType":"uint256"}],"anonymous":false},{"type":"event","name":"Unblacklisted","inputs":[{"name":"account","type":"address","indexed":true,"internalType":"address"}],"anonymous":false},{"type":"event","name":"Unpaused","inputs":[{"name":"account","type":"address","indexed":false,"internalType":"address"}],"anonymous":false},{"type":"error","name":"ERC20InsufficientAllowance","inputs":[{"name":"spender","type":"address","internalType":"address"},{"name":"allowance","type":"uint256","internalType":"uint256"},{"name":"needed","type":"uint256","internalType":"uint256"}]},{"type":"error","name":"ERC20InsufficientBalance","inputs":[{"name":"sender","type":"address","internalType":"address"},{"name":"balance","type":"uint256","internalType":"uint256"},{"name":"needed","type":"uint256","internalType":"uint256"}]},{"type":"error","name":"ERC20InvalidApprover","inputs":[{"name":"approver","type":"address","internalType":"address"}]},{"type":"error","name":"ERC20InvalidReceiver","inputs":[{"name":"receiver","type":"address","internalType":"address"}]},{"type":"error","name":"ERC20InvalidSender","inputs":[{"name":"sender","type":"address","internalType":"address"}]},{"type":"error","name":"ERC20InvalidSpender","inputs":[{"name":"spender","type":"address","internalType":"address"}]},{"type":"error","name":"EnforcedPause","inputs":[]},{"type":"error","name":"ExpectedPause","inputs":[]},{"type":"error","name":"OwnableInvalidOwner","inputs":[{"name":"owner","type":"address","internalType":"address"}]},{"type":"error","name":"OwnableUnauthorizedAccount","inputs":[{"name":"account","type":"address","internalType":"address"}]}],"bytecode":{"object":"0x6080604052604051612c0b380380612c0b833981810160405281019061002591906109cf565b335f73ffffffffffffffffffffffffffffffffffffffff168173ffffffffffffffffffffffffffffffffffffffff1603610096575f6040517f1e4fbdf700000000000000000000000000000000000000000000000000000000815260040161008d9190610a9f565b60405180910390fd5b6100a58161029f60201b60201c565b505f5f60146101000a81548160ff02191690831515021790555085600590816100ce9190610cbf565b5084600690816100de9190610cbf565b508360075f6101000a81548160ff021916908360ff1602179055508034101561013c576040517f08c379a000000000000000000000000000000000000000000000000000000000815260040161013390610de8565b60405180910390fd5b5f73ffffffffffffffffffffffffffffffffffffffff168273ffffffffffffffffffffffffffffffffffffffff16036101aa576040517f08c379a00000000000000000000000000000000000000000000000000000000081526004016101a190610e50565b60405180910390fd5b5f8273ffffffffffffffffffffffffffffffffffffffff16826040516101cf90610e9b565b5f6040518083038185875af1925050503d805f8114610209576040519150601f19603f3d011682016040523d82523d5f602084013e61020e565b606091505b5050905080610252576040517f08c379a000000000000000000000000000000000000000000000000000000000815260040161024990610ef9565b60405180910390fd5b61029361026361036060201b60201c565b61027161038760201b60201c565b600a61027d9190611073565b8661028891906110bd565b61039c60201b60201c565b505050505050506111f6565b5f5f5f9054906101000a900473ffffffffffffffffffffffffffffffffffffffff169050815f5f6101000a81548173ffffffffffffffffffffffffffffffffffffffff021916908373ffffffffffffffffffffffffffffffffffffffff1602179055508173ffffffffffffffffffffffffffffffffffffffff168173ffffffffffffffffffffffffffffffffffffffff167f8be0079c531659141344cd1fd0a4f28419497f9722a3daafe3b4186f6b6457e060405160405180910390a35050565b5f5f5f9054906101000a900473ffffffffffffffffffffffffffffffffffffffff16905090565b5f60075f9054906101000a900460ff16905090565b5f73ffffffffffffffffffffffffffffffffffffffff168273ffffffffffffffffffffffffffffffffffffffff160361040c575f6040517fec442f050000000000000000000000000000000000000000000000000000000081526004016104039190610a9f565b60405180910390fd5b61041d5f838361042160201b60201c565b5050565b61042f61076360201b60201c565b8260035f8273ffffffffffffffffffffffffffffffffffffffff1673ffffffffffffffffffffffffffffffffffffffff1681526020019081526020015f205f9054906101000a900460ff16156104ba576040517f08c379a00000000000000000000000000000000000000000000000000000000081526004016104b190611148565b60405180910390fd5b8260035f8273ffffffffffffffffffffffffffffffffffffffff1673ffffffffffffffffffffffffffffffffffffffff1681526020019081526020015f205f9054906101000a900460ff1615610545576040517f08c379a000000000000000000000000000000000000000000000000000000000815260040161053c90611148565b60405180910390fd5b5f73ffffffffffffffffffffffffffffffffffffffff168573ffffffffffffffffffffffffffffffffffffffff1603610595578260045f8282546105899190611166565b92505081905550610665565b5f60015f8773ffffffffffffffffffffffffffffffffffffffff1673ffffffffffffffffffffffffffffffffffffffff1681526020019081526020015f205490508381101561061f578581856040517fe450d38c000000000000000000000000000000000000000000000000000000008152600401610616939291906111a8565b60405180910390fd5b83810360015f8873ffffffffffffffffffffffffffffffffffffffff1673ffffffffffffffffffffffffffffffffffffffff1681526020019081526020015f2081905550505b5f73ffffffffffffffffffffffffffffffffffffffff168473ffffffffffffffffffffffffffffffffffffffff16036106ac578260045f82825403925050819055506106f7565b8260015f8673ffffffffffffffffffffffffffffffffffffffff1673ffffffffffffffffffffffffffffffffffffffff1681526020019081526020015f205f82825401925050819055505b8373ffffffffffffffffffffffffffffffffffffffff168573ffffffffffffffffffffffffffffffffffffffff167fddf252ad1be2c89b69c2b068fc378daa952ba7f163c4a11628f55a4df523b3ef8560405161075491906111dd565b60405180910390a35050505050565b6107716107aa60201b60201c565b156107a8576040517fd93c066500000000000000000000000000000000000000000000000000000000815260040160405180910390fd5b565b5f5f60149054906101000a900460ff16905090565b5f604051905090565b5f5ffd5b5f5ffd5b5f5ffd5b5f5ffd5b5f601f19601f8301169050919050565b7f4e487b71000000000000000000000000000000000000000000000000000000005f52604160045260245ffd5b61081e826107d8565b810181811067ffffffffffffffff8211171561083d5761083c6107e8565b5b80604052505050565b5f61084f6107bf565b905061085b8282610815565b919050565b5f67ffffffffffffffff82111561087a576108796107e8565b5b610883826107d8565b9050602081019050919050565b8281835e5f83830152505050565b5f6108b06108ab84610860565b610846565b9050828152602081018484840111156108cc576108cb6107d4565b5b6108d7848285610890565b509392505050565b5f82601f8301126108f3576108f26107d0565b5b815161090384826020860161089e565b91505092915050565b5f60ff82169050919050565b6109218161090c565b811461092b575f5ffd5b50565b5f8151905061093c81610918565b92915050565b5f819050919050565b61095481610942565b811461095e575f5ffd5b50565b5f8151905061096f8161094b565b92915050565b5f73ffffffffffffffffffffffffffffffffffffffff82169050919050565b5f61099e82610975565b9050919050565b6109ae81610994565b81146109b8575f5ffd5b50565b5f815190506109c9816109a5565b92915050565b5f5f5f5f5f5f60c087890312156109e9576109e86107c8565b5b5f87015167ffffffffffffffff811115610a0657610a056107cc565b5b610a1289828a016108df565b965050602087015167ffffffffffffffff811115610a3357610a326107cc565b5b610a3f89828a016108df565b9550506040610a5089828a0161092e565b9450506060610a6189828a01610961565b9350506080610a7289828a016109bb565b92505060a0610a8389828a01610961565b9150509295509295509295565b610a9981610994565b82525050565b5f602082019050610ab25f830184610a90565b92915050565b5f81519050919050565b7f4e487b71000000000000000000000000000000000000000000000000000000005f52602260045260245ffd5b5f6002820490506001821680610b0657607f821691505b602082108103610b1957610b18610ac2565b5b50919050565b5f819050815f5260205f209050919050565b5f6020601f8301049050919050565b5f82821b905092915050565b5f60088302610b7b7fffffffffffffffffffffffffffffffffffffffffffffffffffffffffffffffff82610b40565b610b858683610b40565b95508019841693508086168417925050509392505050565b5f819050919050565b5f610bc0610bbb610bb684610942565b610b9d565b610942565b9050919050565b5f819050919050565b610bd983610ba6565b610bed610be582610bc7565b848454610b4c565b825550505050565b5f5f905090565b610c04610bf5565b610c0f818484610bd0565b505050565b5b81811015610c3257610c275f82610bfc565b600181019050610c15565b5050565b601f821115610c7757610c4881610b1f565b610c5184610b31565b81016020851015610c60578190505b610c74610c6c85610b31565b830182610c14565b50505b505050565b5f82821c905092915050565b5f610c975f1984600802610c7c565b1980831691505092915050565b5f610caf8383610c88565b9150826002028217905092915050565b610cc882610ab8565b67ffffffffffffffff811115610ce157610ce06107e8565b5b610ceb8254610aef565b610cf6828285610c36565b5f60209050601f831160018114610d27575f8415610d15578287015190505b610d1f8582610ca4565b865550610d86565b601f198416610d3586610b1f565b5f5b82811015610d5c57848901518255600182019150602085019450602081019050610d37565b86831015610d795784890151610d75601f891682610c88565b8355505b6001600288020188555050505b505050505050565b5f82825260208201905092915050565b7f496e73756666696369656e742066656520616d6f756e742073656e74000000005f82015250565b5f610dd2601c83610d8e565b9150610ddd82610d9e565b602082019050919050565b5f6020820190508181035f830152610dff81610dc6565b9050919050565b7f496e76616c6964206665652072656365697665722061646472657373000000005f82015250565b5f610e3a601c83610d8e565b9150610e4582610e06565b602082019050919050565b5f6020820190508181035f830152610e6781610e2e565b9050919050565b5f81905092915050565b50565b5f610e865f83610e6e565b9150610e9182610e78565b5f82019050919050565b5f610ea582610e7b565b9150819050919050565b7f466565207472616e73666572206661696c6564000000000000000000000000005f82015250565b5f610ee3601383610d8e565b9150610eee82610eaf565b602082019050919050565b5f6020820190508181035f830152610f1081610ed7565b9050919050565b7f4e487b71000000000000000000000000000000000000000000000000000000005f52601160045260245ffd5b5f8160011c9050919050565b5f5f8291508390505b6001851115610f9957808604811115610f7557610f74610f17565b5b6001851615610f845780820291505b8081029050610f9285610f44565b9450610f59565b94509492505050565b5f82610fb1576001905061106c565b81610fbe575f905061106c565b8160018114610fd45760028114610fde5761100d565b600191505061106c565b60ff841115610ff057610fef610f17565b5b8360020a91508482111561100757611006610f17565b5b5061106c565b5060208310610133831016604e8410600b84101617156110425782820a90508381111561103d5761103c610f17565b5b61106c565b61104f8484846001610f50565b9250905081840481111561106657611065610f17565b5b81810290505b9392505050565b5f61107d82610942565b91506110888361090c565b92506110b57fffffffffffffffffffffffffffffffffffffffffffffffffffffffffffffffff8484610fa2565b905092915050565b5f6110c782610942565b91506110d283610942565b92508282026110e081610942565b915082820484148315176110f7576110f6610f17565b5b5092915050565b7f4164647265737320697320626c61636b6c6973746564000000000000000000005f82015250565b5f611132601683610d8e565b915061113d826110fe565b602082019050919050565b5f6020820190508181035f83015261115f81611126565b9050919050565b5f61117082610942565b915061117b83610942565b925082820190508082111561119357611192610f17565b5b92915050565b6111a281610942565b82525050565b5f6060820190506111bb5f830186610a90565b6111c86020830185611199565b6111d56040830184611199565b949350505050565b5f6020820190506111f05f830184611199565b92915050565b611a08806112035f395ff3fe608060405234801561000f575f5ffd5b506004361061011f575f3560e01c8063715018a6116100ab578063a9059cbb1161006f578063a9059cbb146102bd578063dd62ed3e146102ed578063f2fde38b1461031d578063f9f92be414610339578063fe575a87146103555761011f565b8063715018a61461025157806375e3661e1461025b5780638456cb59146102775780638da5cb5b1461028157806395d89b411461029f5761011f565b8063313ce567116100f2578063313ce567146101bf5780633f4ba83a146101dd57806340c10f19146101e75780635c975abb1461020357806370a08231146102215761011f565b806306fdde0314610123578063095ea7b31461014157806318160ddd1461017157806323b872dd1461018f575b5f5ffd5b61012b610385565b6040516101389190611619565b60405180910390f35b61015b600480360381019061015691906116ca565b610415565b6040516101689190611722565b60405180910390f35b610179610556565b604051610186919061174a565b60405180910390f35b6101a960048036038101906101a49190611763565b61055f565b6040516101b69190611722565b60405180910390f35b6101c76106a5565b6040516101d491906117ce565b60405180910390f35b6101e56106ba565b005b61020160048036038101906101fc91906116ca565b6106cc565b005b61020b6106e2565b6040516102189190611722565b60405180910390f35b61023b600480360381019061023691906117e7565b6106f7565b604051610248919061174a565b60405180910390f35b61025961073d565b005b610275600480360381019061027091906117e7565b610750565b005b61027f6107f2565b005b610289610804565b6040516102969190611821565b60405180910390f35b6102a761082b565b6040516102b49190611619565b60405180910390f35b6102d760048036038101906102d291906116ca565b6108bb565b6040516102e49190611722565b60405180910390f35b6103076004803603810190610302919061183a565b6109fc565b604051610314919061174a565b60405180910390f35b610337600480360381019061033291906117e7565b610a7e565b005b610353600480360381019061034e91906117e7565b610b02565b005b61036f600480360381019061036a91906117e7565b610ba5565b60405161037c9190611722565b60405180910390f35b606060058054610394906118a5565b80601f01602080910402602001604051908101604052809291908181526020018280546103c0906118a5565b801561040b5780601f106103e25761010080835404028352916020019161040b565b820191905f5260205f20905b8154815290600101906020018083116103ee57829003601f168201915b5050505050905090565b5f61041e610bf7565b60035f8273ffffffffffffffffffffffffffffffffffffffff1673ffffffffffffffffffffffffffffffffffffffff1681526020019081526020015f205f9054906101000a900460ff16156104a8576040517f08c379a000000000000000000000000000000000000000000000000000000000815260040161049f9061191f565b60405180910390fd5b8360035f8273ffffffffffffffffffffffffffffffffffffffff1673ffffffffffffffffffffffffffffffffffffffff1681526020019081526020015f205f9054906101000a900460ff1615610533576040517f08c379a000000000000000000000000000000000000000000000000000000000815260040161052a9061191f565b60405180910390fd5b5f61053c610bf7565b9050610549818787610bfe565b6001935050505092915050565b5f600454905090565b5f8360035f8273ffffffffffffffffffffffffffffffffffffffff1673ffffffffffffffffffffffffffffffffffffffff1681526020019081526020015f205f9054906101000a900460ff16156105eb576040517f08c379a00000000000000000000000000000000000000000000000000000000081526004016105e29061191f565b60405180910390fd5b8360035f8273ffffffffffffffffffffffffffffffffffffffff1673ffffffffffffffffffffffffffffffffffffffff1681526020019081526020015f205f9054906101000a900460ff1615610676576040517f08c379a000000000000000000000000000000000000000000000000000000000815260040161066d9061191f565b60405180910390fd5b5f61067f610bf7565b905061068c878287610c10565b610697878787610ca3565b600193505050509392505050565b5f60075f9054906101000a900460ff16905090565b6106c2610d93565b6106ca610e1a565b565b6106d4610d93565b6106de8282610e7b565b5050565b5f5f60149054906101000a900460ff16905090565b5f60015f8373ffffffffffffffffffffffffffffffffffffffff1673ffffffffffffffffffffffffffffffffffffffff1681526020019081526020015f20549050919050565b610745610d93565b61074e5f610efa565b565b610758610d93565b5f60035f8373ffffffffffffffffffffffffffffffffffffffff1673ffffffffffffffffffffffffffffffffffffffff1681526020019081526020015f205f6101000a81548160ff0219169083151502179055508073ffffffffffffffffffffffffffffffffffffffff167f7534c63860313c46c473e4e98328f37017e9674e2162faf1a3ad7a96236c3b7b60405160405180910390a250565b6107fa610d93565b610802610fbb565b565b5f5f5f9054906101000a900473ffffffffffffffffffffffffffffffffffffffff16905090565b60606006805461083a906118a5565b80601f0160208091040260200160405190810160405280929190818152602001828054610866906118a5565b80156108b15780601f10610888576101008083540402835291602001916108b1565b820191905f5260205f20905b81548152906001019060200180831161089457829003601f168201915b5050505050905090565b5f6108c4610bf7565b60035f8273ffffffffffffffffffffffffffffffffffffffff1673ffffffffffffffffffffffffffffffffffffffff1681526020019081526020015f205f9054906101000a900460ff161561094e576040517f08c379a00000000000000000000000000000000000000000000000000000000081526004016109459061191f565b60405180910390fd5b8360035f8273ffffffffffffffffffffffffffffffffffffffff1673ffffffffffffffffffffffffffffffffffffffff1681526020019081526020015f205f9054906101000a900460ff16156109d9576040517f08c379a00000000000000000000000000000000000000000000000000000000081526004016109d09061191f565b60405180910390fd5b5f6109e2610bf7565b90506109ef818787610ca3565b6001935050505092915050565b5f60025f8473ffffffffffffffffffffffffffffffffffffffff1673ffffffffffffffffffffffffffffffffffffffff1681526020019081526020015f205f8373ffffffffffffffffffffffffffffffffffffffff1673ffffffffffffffffffffffffffffffffffffffff1681526020019081526020015f2054905092915050565b610a86610d93565b5f73ffffffffffffffffffffffffffffffffffffffff168173ffffffffffffffffffffffffffffffffffffffff1603610af6575f6040517f1e4fbdf7000000000000000000000000000000000000000000000000000000008152600401610aed9190611821565b60405180910390fd5b610aff81610efa565b50565b610b0a610d93565b600160035f8373ffffffffffffffffffffffffffffffffffffffff1673ffffffffffffffffffffffffffffffffffffffff1681526020019081526020015f205f6101000a81548160ff0219169083151502179055508073ffffffffffffffffffffffffffffffffffffffff167fffa4e6181777692565cf28528fc88fd1516ea86b56da075235fa575af6a4b85560405160405180910390a250565b5f60035f8373ffffffffffffffffffffffffffffffffffffffff1673ffffffffffffffffffffffffffffffffffffffff1681526020019081526020015f205f9054906101000a900460ff169050919050565b5f33905090565b610c0b838383600161101d565b505050565b5f610c1b84846109fc565b90507fffffffffffffffffffffffffffffffffffffffffffffffffffffffffffffffff811015610c9d5781811015610c8e578281836040517ffb8f41b2000000000000000000000000000000000000000000000000000000008152600401610c859392919061193d565b60405180910390fd5b610c9c84848484035f61101d565b5b50505050565b5f73ffffffffffffffffffffffffffffffffffffffff168373ffffffffffffffffffffffffffffffffffffffff1603610d13575f6040517f96c6fd1e000000000000000000000000000000000000000000000000000000008152600401610d0a9190611821565b60405180910390fd5b5f73ffffffffffffffffffffffffffffffffffffffff168273ffffffffffffffffffffffffffffffffffffffff1603610d83575f6040517fec442f05000000000000000000000000000000000000000000000000000000008152600401610d7a9190611821565b60405180910390fd5b610d8e8383836111ec565b505050565b610d9b610bf7565b73ffffffffffffffffffffffffffffffffffffffff16610db9610804565b73ffffffffffffffffffffffffffffffffffffffff1614610e1857610ddc610bf7565b6040517f118cdaa7000000000000000000000000000000000000000000000000000000008152600401610e0f9190611821565b60405180910390fd5b565b610e22611528565b5f5f60146101000a81548160ff0219169083151502179055507f5db9ee0a495bf2e6ff9c91a7834c1ba4fdd244a5e8aa4e537bd38aeae4b073aa610e64610bf7565b604051610e719190611821565b60405180910390a1565b5f73ffffffffffffffffffffffffffffffffffffffff168273ffffffffffffffffffffffffffffffffffffffff1603610eeb575f6040517fec442f05000000000000000000000000000000000000000000000000000000008152600401610ee29190611821565b60405180910390fd5b610ef65f83836111ec565b5050565b5f5f5f9054906101000a900473ffffffffffffffffffffffffffffffffffffffff169050815f5f6101000a81548173ffffffffffffffffffffffffffffffffffffffff021916908373ffffffffffffffffffffffffffffffffffffffff1602179055508173ffffffffffffffffffffffffffffffffffffffff168173ffffffffffffffffffffffffffffffffffffffff167f8be0079c531659141344cd1fd0a4f28419497f9722a3daafe3b4186f6b6457e060405160405180910390a35050565b610fc3611568565b60015f60146101000a81548160ff0219169083151502179055507f62e78cea01bee320cd4e420270b5ea74000d11b0c9f74754ebdbfc544b05a258611006610bf7565b6040516110139190611821565b60405180910390a1565b5f73ffffffffffffffffffffffffffffffffffffffff168473ffffffffffffffffffffffffffffffffffffffff160361108d575f6040517fe602df050000000000000000000000000000000000000000000000000000000081526004016110849190611821565b60405180910390fd5b5f73ffffffffffffffffffffffffffffffffffffffff168373ffffffffffffffffffffffffffffffffffffffff16036110fd575f6040517f94280d620000000000000000000000000000000000000000000000000000000081526004016110f49190611821565b60405180910390fd5b8160025f8673ffffffffffffffffffffffffffffffffffffffff1673ffffffffffffffffffffffffffffffffffffffff1681526020019081526020015f205f8573ffffffffffffffffffffffffffffffffffffffff1673ffffffffffffffffffffffffffffffffffffffff1681526020019081526020015f208190555080156111e6578273ffffffffffffffffffffffffffffffffffffffff168473ffffffffffffffffffffffffffffffffffffffff167f8c5be1e5ebec7d5bd14f71427d1e84f3dd0314c0f7b2291e5b200ac8c7c3b925846040516111dd919061174a565b60405180910390a35b50505050565b6111f4611568565b8260035f8273ffffffffffffffffffffffffffffffffffffffff1673ffffffffffffffffffffffffffffffffffffffff1681526020019081526020015f205f9054906101000a900460ff161561127f576040517f08c379a00000000000000000000000000000000000000000000000000000000081526004016112769061191f565b60405180910390fd5b8260035f8273ffffffffffffffffffffffffffffffffffffffff1673ffffffffffffffffffffffffffffffffffffffff1681526020019081526020015f205f9054906101000a900460ff161561130a576040517f08c379a00000000000000000000000000000000000000000000000000000000081526004016113019061191f565b60405180910390fd5b5f73ffffffffffffffffffffffffffffffffffffffff168573ffffffffffffffffffffffffffffffffffffffff160361135a578260045f82825461134e919061199f565b9250508190555061142a565b5f60015f8773ffffffffffffffffffffffffffffffffffffffff1673ffffffffffffffffffffffffffffffffffffffff1681526020019081526020015f20549050838110156113e4578581856040517fe450d38c0000000000000000000000000000000000000000000000000000000081526004016113db9392919061193d565b60405180910390fd5b83810360015f8873ffffffffffffffffffffffffffffffffffffffff1673ffffffffffffffffffffffffffffffffffffffff1681526020019081526020015f2081905550505b5f73ffffffffffffffffffffffffffffffffffffffff168473ffffffffffffffffffffffffffffffffffffffff1603611471578260045f82825403925050819055506114bc565b8260015f8673ffffffffffffffffffffffffffffffffffffffff1673ffffffffffffffffffffffffffffffffffffffff1681526020019081526020015f205f82825401925050819055505b8373ffffffffffffffffffffffffffffffffffffffff168573ffffffffffffffffffffffffffffffffffffffff167fddf252ad1be2c89b69c2b068fc378daa952ba7f163c4a11628f55a4df523b3ef85604051611519919061174a565b60405180910390a35050505050565b6115306106e2565b611566576040517f8dfc202b00000000000000000000000000000000000000000000000000000000815260040160405180910390fd5b565b6115706106e2565b156115a7576040517fd93c066500000000000000000000000000000000000000000000000000000000815260040160405180910390fd5b565b5f81519050919050565b5f82825260208201905092915050565b8281835e5f83830152505050565b5f601f19601f8301169050919050565b5f6115eb826115a9565b6115f581856115b3565b93506116058185602086016115c3565b61160e816115d1565b840191505092915050565b5f6020820190508181035f83015261163181846115e1565b905092915050565b5f5ffd5b5f73ffffffffffffffffffffffffffffffffffffffff82169050919050565b5f6116668261163d565b9050919050565b6116768161165c565b8114611680575f5ffd5b50565b5f813590506116918161166d565b92915050565b5f819050919050565b6116a981611697565b81146116b3575f5ffd5b50565b5f813590506116c4816116a0565b92915050565b5f5f604083850312156116e0576116df611639565b5b5f6116ed85828601611683565b92505060206116fe858286016116b6565b9150509250929050565b5f8115159050919050565b61171c81611708565b82525050565b5f6020820190506117355f830184611713565b92915050565b61174481611697565b82525050565b5f60208201905061175d5f83018461173b565b92915050565b5f5f5f6060848603121561177a57611779611639565b5b5f61178786828701611683565b935050602061179886828701611683565b92505060406117a9868287016116b6565b9150509250925092565b5f60ff82169050919050565b6117c8816117b3565b82525050565b5f6020820190506117e15f8301846117bf565b92915050565b5f602082840312156117fc576117fb611639565b5b5f61180984828501611683565b91505092915050565b61181b8161165c565b82525050565b5f6020820190506118345f830184611812565b92915050565b5f5f604083850312156118505761184f611639565b5b5f61185d85828601611683565b925050602061186e85828601611683565b9150509250929050565b7f4e487b71000000000000000000000000000000000000000000000000000000005f52602260045260245ffd5b5f60028204905060018216806118bc57607f821691505b6020821081036118cf576118ce611878565b5b50919050565b7f4164647265737320697320626c61636b6c6973746564000000000000000000005f82015250565b5f6119096016836115b3565b9150611914826118d5565b602082019050919050565b5f6020820190508181035f830152611936816118fd565b9050919050565b5f6060820190506119505f830186611812565b61195d602083018561173b565b61196a604083018461173b565b949350505050565b7f4e487b71000000000000000000000000000000000000000000000000000000005f52601160045260245ffd5b5f6119a982611697565b91506119b483611697565b92508282019050808211156119cc576119cb611972565b5b9291505056fea2646970667358221220a689526b3242c728a23aed7aac8412d74ec670908b15245e345b00eff506675864736f6c634300081c0033","linkReferences":{}},"methodIdentifiers":{"allowance(address,address)":"dd62ed3e","approve(address,uint256)":"095ea7b3","balanceOf(address)":"70a08231","blacklist(address)":"f9f92be4","decimals()":"313ce567","isBlacklisted(address)":"fe575a87","mint(address,uint256)":"40c10f19","name()":"06fdde03","owner()":"8da5cb5b","pause()":"8456cb59","paused()":"5c975abb","renounceOwnership()":"715018a6","symbol()":"95d89b41","totalSupply()":"18160ddd","transfer(address,uint256)":"a9059cbb","transferFrom(address,address,uint256)":"23b872dd","transferOwnership(address)":"f2fde38b","unblacklist(address)":"75e3661e","unpause()":"3f4ba83a"},"id":30}