{"abi":[{"type":"constructor","inputs":[{"name":"name_","type":"string","internalType":"string"},{"name":"symbol_","type":"string","internalType":"string"},{"name":"decimals_","type":"uint8","internalType":"uint8"},{"name":"totalSupply_","type":"uint256","internalType":"uint256"},{"name":"cap_","type":"uint256","internalType":"uint256"},{"name":"serviceFeeReceiver_","type":"address","internalType":"address"},{"name":"serviceFee_","type":"uint256","internalType":"uint256"}],"stateMutability":"payable"},{"type":"function","name":"allowance","inputs":[{"name":"owner","type":"address","internalType":"address"},{"name":"spender","type":"address","internalType":"address"}],"outputs":[{"name":"","type":"uint256","internalType":"uint256"}],"stateMutability":"view"},{"type":"function","name":"approve","inputs":[{"name":"spender","type":"address","internalType":"address"},{"name":"value","type":"uint256","internalType":"uint256"}],"outputs":[{"name":"","type":"bool","internalType":"bool"}],"stateMutability":"nonpayable"},{"type":"function","name":"balanceOf","inputs":[{"name":"account","type":"address","internalType":"address"}],"outputs":[{"name":"","type":"uint256","internalType":"uint256"}],"stateMutability":"view"},{"type":"function","name":"blacklistAddress","inputs":[{"name":"account","type":"address","internalType":"address"}],"outputs":[],"stateMutability":"nonpayable"},{"type":"function","name":"burn","inputs":[{"name":"value","type":"uint256","internalType":"uint256"}],"outputs":[],"stateMutability":"nonpayable"},{"type":"function","name":"burnFrom","inputs":[{"name":"account","type":"address","internalType":"address"},{"name":"value","type":"uint256","internalType":"uint256"}],"outputs":[],"stateMutability":"nonpayable"},{"type":"function","name":"cap","inputs":[],"outputs":[{"name":"","type":"uint256","internalType":"uint256"}],"stateMutability":"view"},{"type":"function","name":"decimals","inputs":[],"outputs":[{"name":"","type":"uint8","internalType":"uint8"}],"stateMutability":"view"},{"type":"function","name":"isBlacklisted","inputs":[{"name":"account","type":"address","internalType":"address"}],"outputs":[{"name":"","type":"bool","internalType":"bool"}],"stateMutability":"view"},{"type":"function","name":"mint","inputs":[{"name":"to","type":"address","internalType":"address"},{"name":"amount","type":"uint256","internalType":"uint256"}],"outputs":[],"stateMutability":"nonpayable"},{"type":"function","name":"name","inputs":[],"outputs":[{"name":"","type":"string","internalType":"string"}],"stateMutability":"view"},{"type":"function","name":"owner","inputs":[],"outputs":[{"name":"","type":"address","internalType":"address"}],"stateMutability":"view"},{"type":"function","name":"renounceOwnership","inputs":[],"outputs":[],"stateMutability":"nonpayable"},{"type":"function","name":"symbol","inputs":[],"outputs":[{"name":"","type":"string","internalType":"string"}],"stateMutability":"view"},{"type":"function","name":"totalSupply","inputs":[],"outputs":[{"name":"","type":"uint256","internalType":"uint256"}],"stateMutability":"view"},{"type":"function","name":"transfer","inputs":[{"name":"to","type":"address","internalType":"address"},{"name":"value","type":"uint256","internalType":"uint256"}],"outputs":[{"name":"","type":"bool","internalType":"bool"}],"stateMutability":"nonpayable"},{"type":"function","name":"transferFrom","inputs":[{"name":"from","type":"address","internalType":"address"},{"name":"to","type":"address","internalType":"address"},{"name":"value","type":"uint256","internalType":"uint256"}],"outputs":[{"name":"","type":"bool","internalType":"bool"}],"stateMutability":"nonpayable"},{"type":"function","name":"transferOwnership","inputs":[{"name":"newOwner","type":"address","internalType":"address"}],"outputs":[],"stateMutability":"nonpayable"},{"type":"function","name":"unblacklistAddress","inputs":[{"name":"account","type":"address","internalType":"address"}],"outputs":[],"stateMutability":"nonpayable"},{"type":"event","name":"Approval","inputs":[{"name":"owner","type":"address","indexed":true,"internalType":"address"},{"name":"spender","type":"address","indexed":true,"internalType":"address"},{"name":"value","type":"uint256","indexed":false,"internalType":"uint256"}],"anonymous":false},{"type":"event","name":"Blacklisted","inputs":[{"name":"account","type":"address","indexed":true,"internalType":"address"}],"anonymous":false},{"type":"event","name":"OwnershipTransferred","inputs":[{"name":"previousOwner","type":"address","indexed":true,"internalType":"address"},{"name":"newOwner","type":"address","indexed":true,"internalType":"address"}],"anonymous":false},{"type":"event","name":"Transfer","inputs":[{"name":"from","type":"address","indexed":true,"internalType":"address"},{"name":"to","type":"address","indexed":true,"internalType":"address"},{"name":"value","type":"uint256","indexed":false,"internalType":"uint256"}],"anonymous":false},{"type":"event","name":"Unblacklisted","inputs":[{"name":"account","type":"address","indexed":true,"internalType":"address"}],"anonymous":false},{"type":"error","name":"ERC20InsufficientAllowance","inputs":[{"name":"spender","type":"address","internalType":"address"},{"name":"allowance","type":"uint256","internalType":"uint256"},{"name":"needed","type":"uint256","internalType":"uint256"}]},{"type":"error","name":"ERC20InsufficientBalance","inputs":[{"name":"sender","type":"address","internalType":"address"},{"name":"balance","type":"uint256","internalType":"uint256"},{"name":"needed","type":"uint256","internalType":"uint256"}]},{"type":"error","name":"ERC20InvalidApprover","inputs":[{"name":"approver","type":"address","internalType":"address"}]},{"type":"error","name":"ERC20InvalidReceiver","inputs":[{"name":"receiver","type":"address","internalType":"address"}]},{"type":"error","name":"ERC20InvalidSender","inputs":[{"name":"sender","type":"address","internalType":"address"}]},{"type":"error","name":"ERC20InvalidSpender","inputs":[{"name":"spender","type":"address","internalType":"address"}]},{"type":"error","name":"OwnableInvalidOwner","inputs":[{"name":"owner","type":"address","internalType":"address"}]},{"type":"error","name":"OwnableUnauthorizedAccount","inputs":[{"name":"account","type":"address","internalType":"address"}]}],"bytecode":{"object":"0x60806040526040516132b73803806132b783398181016040528101906100259190610a1a565b335f73ffffffffffffffffffffffffffffffffffffffff168173ffffffffffffffffffffffffffffffffffffffff1603610096575f6040517f1e4fbdf700000000000000000000000000000000000000000000000000000000815260040161008d9190610afe565b60405180910390fd5b6100a58161034460201b60201c565b5086600590816100b59190610d1e565b5085600690816100c59190610d1e565b508460075f6101000a81548160ff021916908360ff1602179055505f8311610122576040517f08c379a000000000000000000000000000000000000000000000000000000000815260040161011990610e47565b60405180910390fd5b8260088190555061013761040560201b60201c565b600a6101439190610fc1565b61015161041a60201b60201c565b61015b919061100b565b84111561019d576040517f08c379a000000000000000000000000000000000000000000000000000000000815260040161019490611096565b60405180910390fd5b803410156101e0576040517f08c379a00000000000000000000000000000000000000000000000000000000081526004016101d7906110fe565b60405180910390fd5b5f73ffffffffffffffffffffffffffffffffffffffff168273ffffffffffffffffffffffffffffffffffffffff160361024e576040517f08c379a000000000000000000000000000000000000000000000000000000000815260040161024590611166565b60405180910390fd5b5f8273ffffffffffffffffffffffffffffffffffffffff1682604051610273906111b1565b5f6040518083038185875af1925050503d805f81146102ad576040519150601f19603f3d011682016040523d82523d5f602084013e6102b2565b606091505b50509050806102f6576040517f08c379a00000000000000000000000000000000000000000000000000000000081526004016102ed9061120f565b60405180910390fd5b61033761030761042360201b60201c565b61031561040560201b60201c565b600a6103219190610fc1565b8761032c919061100b565b61044a60201b60201c565b505050505050505061134b565b5f5f5f9054906101000a900473ffffffffffffffffffffffffffffffffffffffff169050815f5f6101000a81548173ffffffffffffffffffffffffffffffffffffffff021916908373ffffffffffffffffffffffffffffffffffffffff1602179055508173ffffffffffffffffffffffffffffffffffffffff168173ffffffffffffffffffffffffffffffffffffffff167f8be0079c531659141344cd1fd0a4f28419497f9722a3daafe3b4186f6b6457e060405160405180910390a35050565b5f60075f9054906101000a900460ff16905090565b5f600854905090565b5f5f5f9054906101000a900473ffffffffffffffffffffffffffffffffffffffff16905090565b60035f8373ffffffffffffffffffffffffffffffffffffffff1673ffffffffffffffffffffffffffffffffffffffff1681526020019081526020015f205f9054906101000a900460ff16156104d4576040517f08c379a00000000000000000000000000000000000000000000000000000000081526004016104cb9061129d565b60405180910390fd5b6104e261040560201b60201c565b600a6104ee9190610fc1565b6104fc61041a60201b60201c565b610506919061100b565b816105156105e560201b60201c565b61051f91906112bb565b1115610560576040517f08c379a000000000000000000000000000000000000000000000000000000000815260040161055790611096565b60405180910390fd5b5f73ffffffffffffffffffffffffffffffffffffffff168273ffffffffffffffffffffffffffffffffffffffff16036105d0575f6040517fec442f050000000000000000000000000000000000000000000000000000000081526004016105c79190610afe565b60405180910390fd5b6105e15f83836105ee60201b60201c565b5050565b5f600454905090565b5f73ffffffffffffffffffffffffffffffffffffffff168373ffffffffffffffffffffffffffffffffffffffff160361063e578060045f82825461063291906112bb565b9250508190555061070e565b5f60015f8573ffffffffffffffffffffffffffffffffffffffff1673ffffffffffffffffffffffffffffffffffffffff1681526020019081526020015f20549050818110156106c8578381836040517fe450d38c0000000000000000000000000000000000000000000000000000000081526004016106bf939291906112fd565b60405180910390fd5b81810360015f8673ffffffffffffffffffffffffffffffffffffffff1673ffffffffffffffffffffffffffffffffffffffff1681526020019081526020015f2081905550505b5f73ffffffffffffffffffffffffffffffffffffffff168273ffffffffffffffffffffffffffffffffffffffff1603610755578060045f82825403925050819055506107a0565b8060015f8473ffffffffffffffffffffffffffffffffffffffff1673ffffffffffffffffffffffffffffffffffffffff1681526020019081526020015f205f82825401925050819055505b8173ffffffffffffffffffffffffffffffffffffffff168373ffffffffffffffffffffffffffffffffffffffff167fddf252ad1be2c89b69c2b068fc378daa952ba7f163c4a11628f55a4df523b3ef836040516107fd9190611332565b60405180910390a3505050565b5f604051905090565b5f5ffd5b5f5ffd5b5f5ffd5b5f5ffd5b5f601f19601f8301169050919050565b7f4e487b71000000000000000000000000000000000000000000000000000000005f52604160045260245ffd5b61086982610823565b810181811067ffffffffffffffff8211171561088857610887610833565b5b80604052505050565b5f61089a61080a565b90506108a68282610860565b919050565b5f67ffffffffffffffff8211156108c5576108c4610833565b5b6108ce82610823565b9050602081019050919050565b8281835e5f83830152505050565b5f6108fb6108f6846108ab565b610891565b9050828152602081018484840111156109175761091661081f565b5b6109228482856108db565b509392505050565b5f82601f83011261093e5761093d61081b565b5b815161094e8482602086016108e9565b91505092915050565b5f60ff82169050919050565b61096c81610957565b8114610976575f5ffd5b50565b5f8151905061098781610963565b92915050565b5f819050919050565b61099f8161098d565b81146109a9575f5ffd5b50565b5f815190506109ba81610996565b92915050565b5f73ffffffffffffffffffffffffffffffffffffffff82169050919050565b5f6109e9826109c0565b9050919050565b6109f9816109df565b8114610a03575f5ffd5b50565b5f81519050610a14816109f0565b92915050565b5f5f5f5f5f5f5f60e0888a031215610a3557610a34610813565b5b5f88015167ffffffffffffffff811115610a5257610a51610817565b5b610a5e8a828b0161092a565b975050602088015167ffffffffffffffff811115610a7f57610a7e610817565b5b610a8b8a828b0161092a565b9650506040610a9c8a828b01610979565b9550506060610aad8a828b016109ac565b9450506080610abe8a828b016109ac565b93505060a0610acf8a828b01610a06565b92505060c0610ae08a828b016109ac565b91505092959891949750929550565b610af8816109df565b82525050565b5f602082019050610b115f830184610aef565b92915050565b5f81519050919050565b7f4e487b71000000000000000000000000000000000000000000000000000000005f52602260045260245ffd5b5f6002820490506001821680610b6557607f821691505b602082108103610b7857610b77610b21565b5b50919050565b5f819050815f5260205f209050919050565b5f6020601f8301049050919050565b5f82821b905092915050565b5f60088302610bda7fffffffffffffffffffffffffffffffffffffffffffffffffffffffffffffffff82610b9f565b610be48683610b9f565b95508019841693508086168417925050509392505050565b5f819050919050565b5f610c1f610c1a610c158461098d565b610bfc565b61098d565b9050919050565b5f819050919050565b610c3883610c05565b610c4c610c4482610c26565b848454610bab565b825550505050565b5f5f905090565b610c63610c54565b610c6e818484610c2f565b505050565b5b81811015610c9157610c865f82610c5b565b600181019050610c74565b5050565b601f821115610cd657610ca781610b7e565b610cb084610b90565b81016020851015610cbf578190505b610cd3610ccb85610b90565b830182610c73565b50505b505050565b5f82821c905092915050565b5f610cf65f1984600802610cdb565b1980831691505092915050565b5f610d0e8383610ce7565b9150826002028217905092915050565b610d2782610b17565b67ffffffffffffffff811115610d4057610d3f610833565b5b610d4a8254610b4e565b610d55828285610c95565b5f60209050601f831160018114610d86575f8415610d74578287015190505b610d7e8582610d03565b865550610de5565b601f198416610d9486610b7e565b5f5b82811015610dbb57848901518255600182019150602085019450602081019050610d96565b86831015610dd85784890151610dd4601f891682610ce7565b8355505b6001600288020188555050505b505050505050565b5f82825260208201905092915050565b7f4361702073686f756c642062652067726561746572207468616e2030000000005f82015250565b5f610e31601c83610ded565b9150610e3c82610dfd565b602082019050919050565b5f6020820190508181035f830152610e5e81610e25565b9050919050565b7f4e487b71000000000000000000000000000000000000000000000000000000005f52601160045260245ffd5b5f8160011c9050919050565b5f5f8291508390505b6001851115610ee757808604811115610ec357610ec2610e65565b5b6001851615610ed25780820291505b8081029050610ee085610e92565b9450610ea7565b94509492505050565b5f82610eff5760019050610fba565b81610f0c575f9050610fba565b8160018114610f225760028114610f2c57610f5b565b6001915050610fba565b60ff841115610f3e57610f3d610e65565b5b8360020a915084821115610f5557610f54610e65565b5b50610fba565b5060208310610133831016604e8410600b8410161715610f905782820a905083811115610f8b57610f8a610e65565b5b610fba565b610f9d8484846001610e9e565b92509050818404811115610fb457610fb3610e65565b5b81810290505b9392505050565b5f610fcb8261098d565b9150610fd683610957565b92506110037fffffffffffffffffffffffffffffffffffffffffffffffffffffffffffffffff8484610ef0565b905092915050565b5f6110158261098d565b91506110208361098d565b925082820261102e8161098d565b9150828204841483151761104557611044610e65565b5b5092915050565b7f45524332304361707065643a20636170206578636565646564000000000000005f82015250565b5f611080601983610ded565b915061108b8261104c565b602082019050919050565b5f6020820190508181035f8301526110ad81611074565b9050919050565b7f496e73756666696369656e742066656520616d6f756e742073656e74000000005f82015250565b5f6110e8601c83610ded565b91506110f3826110b4565b602082019050919050565b5f6020820190508181035f830152611115816110dc565b9050919050565b7f496e76616c6964206665652072656365697665722061646472657373000000005f82015250565b5f611150601c83610ded565b915061115b8261111c565b602082019050919050565b5f6020820190508181035f83015261117d81611144565b9050919050565b5f81905092915050565b50565b5f61119c5f83611184565b91506111a78261118e565b5f82019050919050565b5f6111bb82611191565b9150819050919050565b7f466565207472616e73666572206661696c6564000000000000000000000000005f82015250565b5f6111f9601383610ded565b9150611204826111c5565b602082019050919050565b5f6020820190508181035f830152611226816111ed565b9050919050565b7f426c61636b6c697374656420616464726573732063616e6e6f742072656365695f8201527f766520746f6b656e730000000000000000000000000000000000000000000000602082015250565b5f611287602983610ded565b91506112928261122d565b604082019050919050565b5f6020820190508181035f8301526112b48161127b565b9050919050565b5f6112c58261098d565b91506112d08361098d565b92508282019050808211156112e8576112e7610e65565b5b92915050565b6112f78161098d565b82525050565b5f6060820190506113105f830186610aef565b61131d60208301856112ee565b61132a60408301846112ee565b949350505050565b5f6020820190506113455f8301846112ee565b92915050565b611f5f806113585f395ff3fe608060405234801561000f575f5ffd5b506004361061011f575f3560e01c806370a08231116100ab578063a9059cbb1161006f578063a9059cbb146102e1578063dd62ed3e14610311578063f2fde38b14610341578063f3290d751461035d578063fe575a87146103795761011f565b806370a082311461024f578063715018a61461027f57806379cc6790146102895780638da5cb5b146102a557806395d89b41146102c35761011f565b8063313ce567116100f2578063313ce567146101bf578063355274ea146101dd57806340c10f19146101fb57806342966c681461021757806345e34949146102335761011f565b806306fdde0314610123578063095ea7b31461014157806318160ddd1461017157806323b872dd1461018f575b5f5ffd5b61012b6103a9565b604051610138919061179f565b60405180910390f35b61015b60048036038101906101569190611850565b610439565b60405161016891906118a8565b60405180910390f35b610179610567565b60405161018691906118d0565b60405180910390f35b6101a960048036038101906101a491906118e9565b610570565b6040516101b691906118a8565b60405180910390f35b6101c76106aa565b6040516101d49190611954565b60405180910390f35b6101e56106bf565b6040516101f291906118d0565b60405180910390f35b61021560048036038101906102109190611850565b6106c8565b005b610231600480360381019061022c919061196d565b6106de565b005b61024d60048036038101906102489190611998565b6106eb565b005b61026960048036038101906102649190611998565b61078d565b60405161027691906118d0565b60405180910390f35b6102876107d3565b005b6102a3600480360381019061029e9190611850565b6107e6565b005b6102ad6107ff565b6040516102ba91906119d2565b60405180910390f35b6102cb610826565b6040516102d8919061179f565b60405180910390f35b6102fb60048036038101906102f69190611850565b6108b6565b60405161030891906118a8565b60405180910390f35b61032b600480360381019061032691906119eb565b6109e4565b60405161033891906118d0565b60405180910390f35b61035b60048036038101906103569190611998565b610a66565b005b61037760048036038101906103729190611998565b610aea565b005b610393600480360381019061038e9190611998565b610b8d565b6040516103a091906118a8565b60405180910390f35b6060600580546103b890611a56565b80601f01602080910402602001604051908101604052809291908181526020018280546103e490611a56565b801561042f5780601f106104065761010080835404028352916020019161042f565b820191905f5260205f20905b81548152906001019060200180831161041257829003601f168201915b5050505050905090565b5f3360035f8273ffffffffffffffffffffffffffffffffffffffff1673ffffffffffffffffffffffffffffffffffffffff1681526020019081526020015f205f9054906101000a900460ff16156104c5576040517f08c379a00000000000000000000000000000000000000000000000000000000081526004016104bc90611ad0565b60405180910390fd5b8360035f8273ffffffffffffffffffffffffffffffffffffffff1673ffffffffffffffffffffffffffffffffffffffff1681526020019081526020015f205f9054906101000a900460ff1615610550576040517f08c379a000000000000000000000000000000000000000000000000000000000815260040161054790611ad0565b60405180910390fd5b61055b338686610bdf565b60019250505092915050565b5f600454905090565b5f8360035f8273ffffffffffffffffffffffffffffffffffffffff1673ffffffffffffffffffffffffffffffffffffffff1681526020019081526020015f205f9054906101000a900460ff16156105fc576040517f08c379a00000000000000000000000000000000000000000000000000000000081526004016105f390611ad0565b60405180910390fd5b8360035f8273ffffffffffffffffffffffffffffffffffffffff1673ffffffffffffffffffffffffffffffffffffffff1681526020019081526020015f205f9054906101000a900460ff1615610687576040517f08c379a000000000000000000000000000000000000000000000000000000000815260040161067e90611ad0565b60405180910390fd5b610692863386610d09565b61069d868686610d9c565b6001925050509392505050565b5f60075f9054906101000a900460ff16905090565b5f600854905090565b6106d0610f69565b6106da8282610ff0565b5050565b6106e83382611173565b50565b6106f3610f69565b5f60035f8373ffffffffffffffffffffffffffffffffffffffff1673ffffffffffffffffffffffffffffffffffffffff1681526020019081526020015f205f6101000a81548160ff0219169083151502179055508073ffffffffffffffffffffffffffffffffffffffff167f7534c63860313c46c473e4e98328f37017e9674e2162faf1a3ad7a96236c3b7b60405160405180910390a250565b5f60015f8373ffffffffffffffffffffffffffffffffffffffff1673ffffffffffffffffffffffffffffffffffffffff1681526020019081526020015f20549050919050565b6107db610f69565b6107e45f61127c565b565b6107f1823383610d09565b6107fb8282611173565b5050565b5f5f5f9054906101000a900473ffffffffffffffffffffffffffffffffffffffff16905090565b60606006805461083590611a56565b80601f016020809104026020016040519081016040528092919081815260200182805461086190611a56565b80156108ac5780601f10610883576101008083540402835291602001916108ac565b820191905f5260205f20905b81548152906001019060200180831161088f57829003601f168201915b5050505050905090565b5f3360035f8273ffffffffffffffffffffffffffffffffffffffff1673ffffffffffffffffffffffffffffffffffffffff1681526020019081526020015f205f9054906101000a900460ff1615610942576040517f08c379a000000000000000000000000000000000000000000000000000000000815260040161093990611ad0565b60405180910390fd5b8360035f8273ffffffffffffffffffffffffffffffffffffffff1673ffffffffffffffffffffffffffffffffffffffff1681526020019081526020015f205f9054906101000a900460ff16156109cd576040517f08c379a00000000000000000000000000000000000000000000000000000000081526004016109c490611ad0565b60405180910390fd5b6109d8338686610d9c565b60019250505092915050565b5f60025f8473ffffffffffffffffffffffffffffffffffffffff1673ffffffffffffffffffffffffffffffffffffffff1681526020019081526020015f205f8373ffffffffffffffffffffffffffffffffffffffff1673ffffffffffffffffffffffffffffffffffffffff1681526020019081526020015f2054905092915050565b610a6e610f69565b5f73ffffffffffffffffffffffffffffffffffffffff168173ffffffffffffffffffffffffffffffffffffffff1603610ade575f6040517f1e4fbdf7000000000000000000000000000000000000000000000000000000008152600401610ad591906119d2565b60405180910390fd5b610ae78161127c565b50565b610af2610f69565b600160035f8373ffffffffffffffffffffffffffffffffffffffff1673ffffffffffffffffffffffffffffffffffffffff1681526020019081526020015f205f6101000a81548160ff0219169083151502179055508073ffffffffffffffffffffffffffffffffffffffff167fffa4e6181777692565cf28528fc88fd1516ea86b56da075235fa575af6a4b85560405160405180910390a250565b5f60035f8373ffffffffffffffffffffffffffffffffffffffff1673ffffffffffffffffffffffffffffffffffffffff1681526020019081526020015f205f9054906101000a900460ff169050919050565b8260035f8273ffffffffffffffffffffffffffffffffffffffff1673ffffffffffffffffffffffffffffffffffffffff1681526020019081526020015f205f9054906101000a900460ff1615610c6a576040517f08c379a0000000000000000000000000000000000000000000000000000000008152600401610c6190611ad0565b60405180910390fd5b8260035f8273ffffffffffffffffffffffffffffffffffffffff1673ffffffffffffffffffffffffffffffffffffffff1681526020019081526020015f205f9054906101000a900460ff1615610cf5576040517f08c379a0000000000000000000000000000000000000000000000000000000008152600401610cec90611ad0565b60405180910390fd5b610d02858585600161133d565b5050505050565b5f610d1484846109e4565b90507fffffffffffffffffffffffffffffffffffffffffffffffffffffffffffffffff811015610d965781811015610d87578281836040517ffb8f41b2000000000000000000000000000000000000000000000000000000008152600401610d7e93929190611aee565b60405180910390fd5b610d9584848484035f61133d565b5b50505050565b60035f8473ffffffffffffffffffffffffffffffffffffffff1673ffffffffffffffffffffffffffffffffffffffff1681526020019081526020015f205f9054906101000a900460ff16158015610e3a575060035f8373ffffffffffffffffffffffffffffffffffffffff1673ffffffffffffffffffffffffffffffffffffffff1681526020019081526020015f205f9054906101000a900460ff16155b610e79576040517f08c379a0000000000000000000000000000000000000000000000000000000008152600401610e7090611b6d565b60405180910390fd5b5f73ffffffffffffffffffffffffffffffffffffffff168373ffffffffffffffffffffffffffffffffffffffff1603610ee9575f6040517f96c6fd1e000000000000000000000000000000000000000000000000000000008152600401610ee091906119d2565b60405180910390fd5b5f73ffffffffffffffffffffffffffffffffffffffff168273ffffffffffffffffffffffffffffffffffffffff1603610f59575f6040517fec442f05000000000000000000000000000000000000000000000000000000008152600401610f5091906119d2565b60405180910390fd5b610f6483838361150c565b505050565b610f71611728565b73ffffffffffffffffffffffffffffffffffffffff16610f8f6107ff565b73ffffffffffffffffffffffffffffffffffffffff1614610fee57610fb2611728565b6040517f118cdaa7000000000000000000000000000000000000000000000000000000008152600401610fe591906119d2565b60405180910390fd5b565b60035f8373ffffffffffffffffffffffffffffffffffffffff1673ffffffffffffffffffffffffffffffffffffffff1681526020019081526020015f205f9054906101000a900460ff161561107a576040517f08c379a000000000000000000000000000000000000000000000000000000000815260040161107190611bfb565b60405180910390fd5b6110826106aa565b600a61108e9190611d75565b6110966106bf565b6110a09190611dbf565b816110a9610567565b6110b39190611e00565b11156110f4576040517f08c379a00000000000000000000000000000000000000000000000000000000081526004016110eb90611e7d565b60405180910390fd5b5f73ffffffffffffffffffffffffffffffffffffffff168273ffffffffffffffffffffffffffffffffffffffff1603611164575f6040517fec442f0500000000000000000000000000000000000000000000000000000000815260040161115b91906119d2565b60405180910390fd5b61116f5f838361150c565b5050565b60035f8373ffffffffffffffffffffffffffffffffffffffff1673ffffffffffffffffffffffffffffffffffffffff1681526020019081526020015f205f9054906101000a900460ff16156111fd576040517f08c379a00000000000000000000000000000000000000000000000000000000081526004016111f490611f0b565b60405180910390fd5b5f73ffffffffffffffffffffffffffffffffffffffff168273ffffffffffffffffffffffffffffffffffffffff160361126d575f6040517f96c6fd1e00000000000000000000000000000000000000000000000000000000815260040161126491906119d2565b60405180910390fd5b611278825f8361150c565b5050565b5f5f5f9054906101000a900473ffffffffffffffffffffffffffffffffffffffff169050815f5f6101000a81548173ffffffffffffffffffffffffffffffffffffffff021916908373ffffffffffffffffffffffffffffffffffffffff1602179055508173ffffffffffffffffffffffffffffffffffffffff168173ffffffffffffffffffffffffffffffffffffffff167f8be0079c531659141344cd1fd0a4f28419497f9722a3daafe3b4186f6b6457e060405160405180910390a35050565b5f73ffffffffffffffffffffffffffffffffffffffff168473ffffffffffffffffffffffffffffffffffffffff16036113ad575f6040517fe602df050000000000000000000000000000000000000000000000000000000081526004016113a491906119d2565b60405180910390fd5b5f73ffffffffffffffffffffffffffffffffffffffff168373ffffffffffffffffffffffffffffffffffffffff160361141d575f6040517f94280d6200000000000000000000000000000000000000000000000000000000815260040161141491906119d2565b60405180910390fd5b8160025f8673ffffffffffffffffffffffffffffffffffffffff1673ffffffffffffffffffffffffffffffffffffffff1681526020019081526020015f205f8573ffffffffffffffffffffffffffffffffffffffff1673ffffffffffffffffffffffffffffffffffffffff1681526020019081526020015f20819055508015611506578273ffffffffffffffffffffffffffffffffffffffff168473ffffffffffffffffffffffffffffffffffffffff167f8c5be1e5ebec7d5bd14f71427d1e84f3dd0314c0f7b2291e5b200ac8c7c3b925846040516114fd91906118d0565b60405180910390a35b50505050565b5f73ffffffffffffffffffffffffffffffffffffffff168373ffffffffffffffffffffffffffffffffffffffff160361155c578060045f8282546115509190611e00565b9250508190555061162c565b5f60015f8573ffffffffffffffffffffffffffffffffffffffff1673ffffffffffffffffffffffffffffffffffffffff1681526020019081526020015f20549050818110156115e6578381836040517fe450d38c0000000000000000000000000000000000000000000000000000000081526004016115dd93929190611aee565b60405180910390fd5b81810360015f8673ffffffffffffffffffffffffffffffffffffffff1673ffffffffffffffffffffffffffffffffffffffff1681526020019081526020015f2081905550505b5f73ffffffffffffffffffffffffffffffffffffffff168273ffffffffffffffffffffffffffffffffffffffff1603611673578060045f82825403925050819055506116be565b8060015f8473ffffffffffffffffffffffffffffffffffffffff1673ffffffffffffffffffffffffffffffffffffffff1681526020019081526020015f205f82825401925050819055505b8173ffffffffffffffffffffffffffffffffffffffff168373ffffffffffffffffffffffffffffffffffffffff167fddf252ad1be2c89b69c2b068fc378daa952ba7f163c4a11628f55a4df523b3ef8360405161171b91906118d0565b60405180910390a3505050565b5f33905090565b5f81519050919050565b5f82825260208201905092915050565b8281835e5f83830152505050565b5f601f19601f8301169050919050565b5f6117718261172f565b61177b8185611739565b935061178b818560208601611749565b61179481611757565b840191505092915050565b5f6020820190508181035f8301526117b78184611767565b905092915050565b5f5ffd5b5f73ffffffffffffffffffffffffffffffffffffffff82169050919050565b5f6117ec826117c3565b9050919050565b6117fc816117e2565b8114611806575f5ffd5b50565b5f81359050611817816117f3565b92915050565b5f819050919050565b61182f8161181d565b8114611839575f5ffd5b50565b5f8135905061184a81611826565b92915050565b5f5f60408385031215611866576118656117bf565b5b5f61187385828601611809565b92505060206118848582860161183c565b9150509250929050565b5f8115159050919050565b6118a28161188e565b82525050565b5f6020820190506118bb5f830184611899565b92915050565b6118ca8161181d565b82525050565b5f6020820190506118e35f8301846118c1565b92915050565b5f5f5f60608486031215611900576118ff6117bf565b5b5f61190d86828701611809565b935050602061191e86828701611809565b925050604061192f8682870161183c565b9150509250925092565b5f60ff82169050919050565b61194e81611939565b82525050565b5f6020820190506119675f830184611945565b92915050565b5f60208284031215611982576119816117bf565b5b5f61198f8482850161183c565b91505092915050565b5f602082840312156119ad576119ac6117bf565b5b5f6119ba84828501611809565b91505092915050565b6119cc816117e2565b82525050565b5f6020820190506119e55f8301846119c3565b92915050565b5f5f60408385031215611a0157611a006117bf565b5b5f611a0e85828601611809565b9250506020611a1f85828601611809565b9150509250929050565b7f4e487b71000000000000000000000000000000000000000000000000000000005f52602260045260245ffd5b5f6002820490506001821680611a6d57607f821691505b602082108103611a8057611a7f611a29565b5b50919050565b7f4164647265737320697320626c61636b6c6973746564000000000000000000005f82015250565b5f611aba601683611739565b9150611ac582611a86565b602082019050919050565b5f6020820190508181035f830152611ae781611aae565b9050919050565b5f606082019050611b015f8301866119c3565b611b0e60208301856118c1565b611b1b60408301846118c1565b949350505050565b7f426c61636b6c6973746564206164647265737320696e766f6c766564000000005f82015250565b5f611b57601c83611739565b9150611b6282611b23565b602082019050919050565b5f6020820190508181035f830152611b8481611b4b565b9050919050565b7f426c61636b6c697374656420616464726573732063616e6e6f742072656365695f8201527f766520746f6b656e730000000000000000000000000000000000000000000000602082015250565b5f611be5602983611739565b9150611bf082611b8b565b604082019050919050565b5f6020820190508181035f830152611c1281611bd9565b9050919050565b7f4e487b71000000000000000000000000000000000000000000000000000000005f52601160045260245ffd5b5f8160011c9050919050565b5f5f8291508390505b6001851115611c9b57808604811115611c7757611c76611c19565b5b6001851615611c865780820291505b8081029050611c9485611c46565b9450611c5b565b94509492505050565b5f82611cb35760019050611d6e565b81611cc0575f9050611d6e565b8160018114611cd65760028114611ce057611d0f565b6001915050611d6e565b60ff841115611cf257611cf1611c19565b5b8360020a915084821115611d0957611d08611c19565b5b50611d6e565b5060208310610133831016604e8410600b8410161715611d445782820a905083811115611d3f57611d3e611c19565b5b611d6e565b611d518484846001611c52565b92509050818404811115611d6857611d67611c19565b5b81810290505b9392505050565b5f611d7f8261181d565b9150611d8a83611939565b9250611db77fffffffffffffffffffffffffffffffffffffffffffffffffffffffffffffffff8484611ca4565b905092915050565b5f611dc98261181d565b9150611dd48361181d565b9250828202611de28161181d565b91508282048414831517611df957611df8611c19565b5b5092915050565b5f611e0a8261181d565b9150611e158361181d565b9250828201905080821115611e2d57611e2c611c19565b5b92915050565b7f45524332304361707065643a20636170206578636565646564000000000000005f82015250565b5f611e67601983611739565b9150611e7282611e33565b602082019050919050565b5f6020820190508181035f830152611e9481611e5b565b9050919050565b7f426c61636b6c697374656420616464726573732063616e6e6f74206275726e205f8201527f746f6b656e730000000000000000000000000000000000000000000000000000602082015250565b5f611ef5602683611739565b9150611f0082611e9b565b604082019050919050565b5f6020820190508181035f830152611f2281611ee9565b905091905056fea264697066735822122003bf25a9351dfb73bec480c36a124818c1e1d8016f6d466182034d90d8afdc9564736f6c634300081c0033","linkReferences":{}},"methodIdentifiers":{"allowance(address,address)":"dd62ed3e","approve(address,uint256)":"095ea7b3","balanceOf(address)":"70a08231","blacklistAddress(address)":"f3290d75","burn(uint256)":"42966c68","burnFrom(address,uint256)":"79cc6790","cap()":"355274ea","decimals()":"313ce567","isBlacklisted(address)":"fe575a87","mint(address,uint256)":"40c10f19","name()":"06fdde03","owner()":"8da5cb5b","renounceOwnership()":"715018a6","symbol()":"95d89b41","totalSupply()":"18160ddd","transfer(address,uint256)":"a9059cbb","transferFrom(address,address,uint256)":"23b872dd","transferOwnership(address)":"f2fde38b","unblacklistAddress(address)":"45e34949"},"id":9}