{"abi":[{"type":"constructor","inputs":[{"name":"name_","type":"string","internalType":"string"},{"name":"symbol_","type":"string","internalType":"string"},{"name":"decimals_","type":"uint8","internalType":"uint8"},{"name":"totalSupply_","type":"uint256","internalType":"uint256"},{"name":"cap_","type":"uint256","internalType":"uint256"},{"name":"serviceFeeReceiver_","type":"address","internalType":"address"},{"name":"serviceFee_","type":"uint256","internalType":"uint256"},{"name":"transferTaxBps_","type":"uint256","internalType":"uint256"},{"name":"taxFeeRecipient_","type":"address","internalType":"address"}],"stateMutability":"payable"},{"type":"function","name":"allowance","inputs":[{"name":"owner","type":"address","internalType":"address"},{"name":"spender","type":"address","internalType":"address"}],"outputs":[{"name":"","type":"uint256","internalType":"uint256"}],"stateMutability":"view"},{"type":"function","name":"approve","inputs":[{"name":"spender","type":"address","internalType":"address"},{"name":"value","type":"uint256","internalType":"uint256"}],"outputs":[{"name":"","type":"bool","internalType":"bool"}],"stateMutability":"nonpayable"},{"type":"function","name":"balanceOf","inputs":[{"name":"account","type":"address","internalType":"address"}],"outputs":[{"name":"","type":"uint256","internalType":"uint256"}],"stateMutability":"view"},{"type":"function","name":"cap","inputs":[],"outputs":[{"name":"","type":"uint256","internalType":"uint256"}],"stateMutability":"view"},{"type":"function","name":"decimals","inputs":[],"outputs":[{"name":"","type":"uint8","internalType":"uint8"}],"stateMutability":"view"},{"type":"function","name":"getTaxFeeRecipient","inputs":[],"outputs":[{"name":"","type":"address","internalType":"address"}],"stateMutability":"view"},{"type":"function","name":"getTransferTaxBps","inputs":[],"outputs":[{"name":"","type":"uint256","internalType":"uint256"}],"stateMutability":"view"},{"type":"function","name":"mint","inputs":[{"name":"to","type":"address","internalType":"address"},{"name":"amount","type":"uint256","internalType":"uint256"}],"outputs":[],"stateMutability":"nonpayable"},{"type":"function","name":"name","inputs":[],"outputs":[{"name":"","type":"string","internalType":"string"}],"stateMutability":"view"},{"type":"function","name":"owner","inputs":[],"outputs":[{"name":"","type":"address","internalType":"address"}],"stateMutability":"view"},{"type":"function","name":"pause","inputs":[],"outputs":[],"stateMutability":"nonpayable"},{"type":"function","name":"paused","inputs":[],"outputs":[{"name":"","type":"bool","internalType":"bool"}],"stateMutability":"view"},{"type":"function","name":"renounceOwnership","inputs":[],"outputs":[],"stateMutability":"nonpayable"},{"type":"function","name":"symbol","inputs":[],"outputs":[{"name":"","type":"string","internalType":"string"}],"stateMutability":"view"},{"type":"function","name":"totalSupply","inputs":[],"outputs":[{"name":"","type":"uint256","internalType":"uint256"}],"stateMutability":"view"},{"type":"function","name":"transfer","inputs":[{"name":"to","type":"address","internalType":"address"},{"name":"value","type":"uint256","internalType":"uint256"}],"outputs":[{"name":"","type":"bool","internalType":"bool"}],"stateMutability":"nonpayable"},{"type":"function","name":"transferFrom","inputs":[{"name":"from","type":"address","internalType":"address"},{"name":"to","type":"address","internalType":"address"},{"name":"value","type":"uint256","internalType":"uint256"}],"outputs":[{"name":"","type":"bool","internalType":"bool"}],"stateMutability":"nonpayable"},{"type":"function","name":"transferOwnership","inputs":[{"name":"newOwner","type":"address","internalType":"address"}],"outputs":[],"stateMutability":"nonpayable"},{"type":"function","name":"unpause","inputs":[],"outputs":[],"stateMutability":"nonpayable"},{"type":"function","name":"updateTaxFeeRecipient","inputs":[{"name":"newTaxFeeRecipient","type":"address","internalType":"address"}],"outputs":[],"stateMutability":"nonpayable"},{"type":"event","name":"Approval","inputs":[{"name":"owner","type":"address","indexed":true,"internalType":"address"},{"name":"spender","type":"address","indexed":true,"internalType":"address"},{"name":"value","type":"uint256","indexed":false,"internalType":"uint256"}],"anonymous":false},{"type":"event","name":"OwnershipTransferred","inputs":[{"name":"previousOwner","type":"address","indexed":true,"internalType":"address"},{"name":"newOwner","type":"address","indexed":true,"internalType":"address"}],"anonymous":false},{"type":"event","name":"Paused","inputs":[{"name":"account","type":"address","indexed":false,"internalType":"address"}],"anonymous":false},{"type":"event","name":"TaxFeeRecipientUpdated","inputs":[{"name":"newTaxFeeRecipient","type":"address","indexed":false,"internalType":"address"}],"anonymous":false},{"type":"event","name":"Transfer","inputs":[{"name":"from","type":"address","indexed":true,"internalType":"address"},{"name":"to","type":"address","indexed":true,"internalType":"address"},{"name":"value","type":"uint256","indexed":false,"internalType":"uint256"}],"anonymous":false},{"type":"event","name":"Unpaused","inputs":[{"name":"account","type":"address","indexed":false,"internalType":"address"}],"anonymous":false},{"type":"error","name":"ERC20InsufficientAllowance","inputs":[{"name":"spender","type":"address","internalType":"address"},{"name":"allowance","type":"uint256","internalType":"uint256"},{"name":"needed","type":"uint256","internalType":"uint256"}]},{"type":"error","name":"ERC20InsufficientBalance","inputs":[{"name":"sender","type":"address","internalType":"address"},{"name":"balance","type":"uint256","internalType":"uint256"},{"name":"needed","type":"uint256","internalType":"uint256"}]},{"type":"error","name":"ERC20InvalidApprover","inputs":[{"name":"approver","type":"address","internalType":"address"}]},{"type":"error","name":"ERC20InvalidReceiver","inputs":[{"name":"receiver","type":"address","internalType":"address"}]},{"type":"error","name":"ERC20InvalidSender","inputs":[{"name":"sender","type":"address","internalType":"address"}]},{"type":"error","name":"ERC20InvalidSpender","inputs":[{"name":"spender","type":"address","internalType":"address"}]},{"type":"error","name":"EnforcedPause","inputs":[]},{"type":"error","name":"ExpectedPause","inputs":[]},{"type":"error","name":"OwnableInvalidOwner","inputs":[{"name":"owner","type":"address","internalType":"address"}]},{"type":"error","name":"OwnableUnauthorizedAccount","inputs":[{"name":"account","type":"address","internalType":"address"}]}],"bytecode":{"object":"0x6080604052604051612e10380380612e1083398181016040528101906100259190610a5c565b335f73ffffffffffffffffffffffffffffffffffffffff168173ffffffffffffffffffffffffffffffffffffffff1603610096575f6040517f1e4fbdf700000000000000000000000000000000000000000000000000000000815260040161008d9190610b67565b60405180910390fd5b6100a5816103a660201b60201c565b505f5f60146101000a81548160ff02191690831515021790555088600490816100ce9190610d87565b5087600590816100de9190610d87565b508660065f6101000a81548160ff021916908360ff160217905550816008819055508060095f6101000a81548173ffffffffffffffffffffffffffffffffffffffff021916908373ffffffffffffffffffffffffffffffffffffffff1602179055505f8511610182576040517f08c379a000000000000000000000000000000000000000000000000000000000815260040161017990610eb0565b60405180910390fd5b8460078190555061019761046760201b60201c565b600a6101a3919061102a565b6101b161047c60201b60201c565b6101bb9190611074565b8611156101fd576040517f08c379a00000000000000000000000000000000000000000000000000000000081526004016101f4906110ff565b60405180910390fd5b82341015610240576040517f08c379a000000000000000000000000000000000000000000000000000000000815260040161023790611167565b60405180910390fd5b5f73ffffffffffffffffffffffffffffffffffffffff168473ffffffffffffffffffffffffffffffffffffffff16036102ae576040517f08c379a00000000000000000000000000000000000000000000000000000000081526004016102a5906111cf565b60405180910390fd5b5f8473ffffffffffffffffffffffffffffffffffffffff16846040516102d39061121a565b5f6040518083038185875af1925050503d805f811461030d576040519150601f19603f3d011682016040523d82523d5f602084013e610312565b606091505b5050905080610356576040517f08c379a000000000000000000000000000000000000000000000000000000000815260040161034d90611278565b60405180910390fd5b61039761036761048560201b60201c565b61037561046760201b60201c565b600a610381919061102a565b8961038c9190611074565b6104ac60201b60201c565b50505050505050505050611326565b5f5f5f9054906101000a900473ffffffffffffffffffffffffffffffffffffffff169050815f5f6101000a81548173ffffffffffffffffffffffffffffffffffffffff021916908373ffffffffffffffffffffffffffffffffffffffff1602179055508173ffffffffffffffffffffffffffffffffffffffff168173ffffffffffffffffffffffffffffffffffffffff167f8be0079c531659141344cd1fd0a4f28419497f9722a3daafe3b4186f6b6457e060405160405180910390a35050565b5f60065f9054906101000a900460ff16905090565b5f600754905090565b5f5f5f9054906101000a900473ffffffffffffffffffffffffffffffffffffffff16905090565b6104ba61046760201b60201c565b600a6104c6919061102a565b6104d461047c60201b60201c565b6104de9190611074565b816104ed6105bd60201b60201c565b6104f79190611296565b1115610538576040517f08c379a000000000000000000000000000000000000000000000000000000000815260040161052f906110ff565b60405180910390fd5b5f73ffffffffffffffffffffffffffffffffffffffff168273ffffffffffffffffffffffffffffffffffffffff16036105a8575f6040517fec442f0500000000000000000000000000000000000000000000000000000000815260040161059f9190610b67565b60405180910390fd5b6105b95f83836105c660201b60201c565b5050565b5f600354905090565b6105d46107f060201b60201c565b5f73ffffffffffffffffffffffffffffffffffffffff168373ffffffffffffffffffffffffffffffffffffffff1603610624578060035f8282546106189190611296565b925050819055506106f4565b5f60015f8573ffffffffffffffffffffffffffffffffffffffff1673ffffffffffffffffffffffffffffffffffffffff1681526020019081526020015f20549050818110156106ae578381836040517fe450d38c0000000000000000000000000000000000000000000000000000000081526004016106a5939291906112d8565b60405180910390fd5b81810360015f8673ffffffffffffffffffffffffffffffffffffffff1673ffffffffffffffffffffffffffffffffffffffff1681526020019081526020015f2081905550505b5f73ffffffffffffffffffffffffffffffffffffffff168273ffffffffffffffffffffffffffffffffffffffff160361073b578060035f8282540392505081905550610786565b8060015f8473ffffffffffffffffffffffffffffffffffffffff1673ffffffffffffffffffffffffffffffffffffffff1681526020019081526020015f205f82825401925050819055505b8173ffffffffffffffffffffffffffffffffffffffff168373ffffffffffffffffffffffffffffffffffffffff167fddf252ad1be2c89b69c2b068fc378daa952ba7f163c4a11628f55a4df523b3ef836040516107e3919061130d565b60405180910390a3505050565b6107fe61083760201b60201c565b15610835576040517fd93c066500000000000000000000000000000000000000000000000000000000815260040160405180910390fd5b565b5f5f60149054906101000a900460ff16905090565b5f604051905090565b5f5ffd5b5f5ffd5b5f5ffd5b5f5ffd5b5f601f19601f8301169050919050565b7f4e487b71000000000000000000000000000000000000000000000000000000005f52604160045260245ffd5b6108ab82610865565b810181811067ffffffffffffffff821117156108ca576108c9610875565b5b80604052505050565b5f6108dc61084c565b90506108e882826108a2565b919050565b5f67ffffffffffffffff82111561090757610906610875565b5b61091082610865565b9050602081019050919050565b8281835e5f83830152505050565b5f61093d610938846108ed565b6108d3565b90508281526020810184848401111561095957610958610861565b5b61096484828561091d565b509392505050565b5f82601f8301126109805761097f61085d565b5b815161099084826020860161092b565b91505092915050565b5f60ff82169050919050565b6109ae81610999565b81146109b8575f5ffd5b50565b5f815190506109c9816109a5565b92915050565b5f819050919050565b6109e1816109cf565b81146109eb575f5ffd5b50565b5f815190506109fc816109d8565b92915050565b5f73ffffffffffffffffffffffffffffffffffffffff82169050919050565b5f610a2b82610a02565b9050919050565b610a3b81610a21565b8114610a45575f5ffd5b50565b5f81519050610a5681610a32565b92915050565b5f5f5f5f5f5f5f5f5f6101208a8c031215610a7a57610a79610855565b5b5f8a015167ffffffffffffffff811115610a9757610a96610859565b5b610aa38c828d0161096c565b99505060208a015167ffffffffffffffff811115610ac457610ac3610859565b5b610ad08c828d0161096c565b9850506040610ae18c828d016109bb565b9750506060610af28c828d016109ee565b9650506080610b038c828d016109ee565b95505060a0610b148c828d01610a48565b94505060c0610b258c828d016109ee565b93505060e0610b368c828d016109ee565b925050610100610b488c828d01610a48565b9150509295985092959850929598565b610b6181610a21565b82525050565b5f602082019050610b7a5f830184610b58565b92915050565b5f81519050919050565b7f4e487b71000000000000000000000000000000000000000000000000000000005f52602260045260245ffd5b5f6002820490506001821680610bce57607f821691505b602082108103610be157610be0610b8a565b5b50919050565b5f819050815f5260205f209050919050565b5f6020601f8301049050919050565b5f82821b905092915050565b5f60088302610c437fffffffffffffffffffffffffffffffffffffffffffffffffffffffffffffffff82610c08565b610c4d8683610c08565b95508019841693508086168417925050509392505050565b5f819050919050565b5f610c88610c83610c7e846109cf565b610c65565b6109cf565b9050919050565b5f819050919050565b610ca183610c6e565b610cb5610cad82610c8f565b848454610c14565b825550505050565b5f5f905090565b610ccc610cbd565b610cd7818484610c98565b505050565b5b81811015610cfa57610cef5f82610cc4565b600181019050610cdd565b5050565b601f821115610d3f57610d1081610be7565b610d1984610bf9565b81016020851015610d28578190505b610d3c610d3485610bf9565b830182610cdc565b50505b505050565b5f82821c905092915050565b5f610d5f5f1984600802610d44565b1980831691505092915050565b5f610d778383610d50565b9150826002028217905092915050565b610d9082610b80565b67ffffffffffffffff811115610da957610da8610875565b5b610db38254610bb7565b610dbe828285610cfe565b5f60209050601f831160018114610def575f8415610ddd578287015190505b610de78582610d6c565b865550610e4e565b601f198416610dfd86610be7565b5f5b82811015610e2457848901518255600182019150602085019450602081019050610dff565b86831015610e415784890151610e3d601f891682610d50565b8355505b6001600288020188555050505b505050505050565b5f82825260208201905092915050565b7f4361702073686f756c642062652067726561746572207468616e2030000000005f82015250565b5f610e9a601c83610e56565b9150610ea582610e66565b602082019050919050565b5f6020820190508181035f830152610ec781610e8e565b9050919050565b7f4e487b71000000000000000000000000000000000000000000000000000000005f52601160045260245ffd5b5f8160011c9050919050565b5f5f8291508390505b6001851115610f5057808604811115610f2c57610f2b610ece565b5b6001851615610f3b5780820291505b8081029050610f4985610efb565b9450610f10565b94509492505050565b5f82610f685760019050611023565b81610f75575f9050611023565b8160018114610f8b5760028114610f9557610fc4565b6001915050611023565b60ff841115610fa757610fa6610ece565b5b8360020a915084821115610fbe57610fbd610ece565b5b50611023565b5060208310610133831016604e8410600b8410161715610ff95782820a905083811115610ff457610ff3610ece565b5b611023565b6110068484846001610f07565b9250905081840481111561101d5761101c610ece565b5b81810290505b9392505050565b5f611034826109cf565b915061103f83610999565b925061106c7fffffffffffffffffffffffffffffffffffffffffffffffffffffffffffffffff8484610f59565b905092915050565b5f61107e826109cf565b9150611089836109cf565b9250828202611097816109cf565b915082820484148315176110ae576110ad610ece565b5b5092915050565b7f45524332304361707065643a20636170206578636565646564000000000000005f82015250565b5f6110e9601983610e56565b91506110f4826110b5565b602082019050919050565b5f6020820190508181035f830152611116816110dd565b9050919050565b7f496e73756666696369656e742066656520616d6f756e742073656e74000000005f82015250565b5f611151601c83610e56565b915061115c8261111d565b602082019050919050565b5f6020820190508181035f83015261117e81611145565b9050919050565b7f496e76616c6964206665652072656365697665722061646472657373000000005f82015250565b5f6111b9601c83610e56565b91506111c482611185565b602082019050919050565b5f6020820190508181035f8301526111e6816111ad565b9050919050565b5f81905092915050565b50565b5f6112055f836111ed565b9150611210826111f7565b5f82019050919050565b5f611224826111fa565b9150819050919050565b7f466565207472616e73666572206661696c6564000000000000000000000000005f82015250565b5f611262601383610e56565b915061126d8261122e565b602082019050919050565b5f6020820190508181035f83015261128f81611256565b9050919050565b5f6112a0826109cf565b91506112ab836109cf565b92508282019050808211156112c3576112c2610ece565b5b92915050565b6112d2816109cf565b82525050565b5f6060820190506112eb5f830186610b58565b6112f860208301856112c9565b61130560408301846112c9565b949350505050565b5f6020820190506113205f8301846112c9565b92915050565b611add806113335f395ff3fe608060405234801561000f575f5ffd5b506004361061012a575f3560e01c806370a08231116100ab5780638da5cb5b1161006f5780638da5cb5b146102e657806395d89b4114610304578063a9059cbb14610322578063dd62ed3e14610352578063f2fde38b146103825761012a565b806370a0823114610268578063715018a614610298578063743bfe70146102a25780638456cb59146102c05780638baace25146102ca5761012a565b8063313ce567116100f2578063313ce567146101e8578063355274ea146102065780633f4ba83a1461022457806340c10f191461022e5780635c975abb1461024a5761012a565b806303073dfc1461012e57806306fdde031461014c578063095ea7b31461016a57806318160ddd1461019a57806323b872dd146101b8575b5f5ffd5b61013661039e565b6040516101439190611473565b60405180910390f35b6101546103c6565b60405161016191906114fc565b60405180910390f35b610184600480360381019061017f919061157d565b610456565b60405161019191906115d5565b60405180910390f35b6101a2610478565b6040516101af91906115fd565b60405180910390f35b6101d260048036038101906101cd9190611616565b610481565b6040516101df91906115d5565b60405180910390f35b6101f06104af565b6040516101fd9190611681565b60405180910390f35b61020e6104c4565b60405161021b91906115fd565b60405180910390f35b61022c6104cd565b005b6102486004803603810190610243919061157d565b6104df565b005b6102526104f5565b60405161025f91906115d5565b60405180910390f35b610282600480360381019061027d919061169a565b61050a565b60405161028f91906115fd565b60405180910390f35b6102a0610550565b005b6102aa610563565b6040516102b791906115fd565b60405180910390f35b6102c861056c565b005b6102e460048036038101906102df919061169a565b61057e565b005b6102ee610600565b6040516102fb9190611473565b60405180910390f35b61030c610627565b60405161031991906114fc565b60405180910390f35b61033c6004803603810190610337919061157d565b6106b7565b60405161034991906115d5565b60405180910390f35b61036c600480360381019061036791906116c5565b610a1a565b60405161037991906115fd565b60405180910390f35b61039c6004803603810190610397919061169a565b610a9c565b005b5f60095f9054906101000a900473ffffffffffffffffffffffffffffffffffffffff16905090565b6060600480546103d590611730565b80601f016020809104026020016040519081016040528092919081815260200182805461040190611730565b801561044c5780601f106104235761010080835404028352916020019161044c565b820191905f5260205f20905b81548152906001019060200180831161042f57829003601f168201915b5050505050905090565b5f5f610460610b20565b905061046d818585610b27565b600191505092915050565b5f600354905090565b5f5f61048b610b20565b9050610498858285610b39565b6104a3858585610bcc565b60019150509392505050565b5f60065f9054906101000a900460ff16905090565b5f600754905090565b6104d5610cbc565b6104dd610d43565b565b6104e7610cbc565b6104f18282610da4565b5050565b5f5f60149054906101000a900460ff16905090565b5f60015f8373ffffffffffffffffffffffffffffffffffffffff1673ffffffffffffffffffffffffffffffffffffffff1681526020019081526020015f20549050919050565b610558610cbc565b6105615f610e9d565b565b5f600854905090565b610574610cbc565b61057c610f5e565b565b610586610cbc565b8060095f6101000a81548173ffffffffffffffffffffffffffffffffffffffff021916908373ffffffffffffffffffffffffffffffffffffffff1602179055507f3ca9233bd3849737ab1049144180bc625db2d51ca2c5ce949e7209eb32faa3a2816040516105f59190611473565b60405180910390a150565b5f5f5f9054906101000a900473ffffffffffffffffffffffffffffffffffffffff16905090565b60606005805461063690611730565b80601f016020809104026020016040519081016040528092919081815260200182805461066290611730565b80156106ad5780601f10610684576101008083540402835291602001916106ad565b820191905f5260205f20905b81548152906001019060200180831161069057829003601f168201915b5050505050905090565b5f5f6106c1610b20565b90505f612710600854856106d5919061178d565b6106df91906117fb565b90505f81856106ee919061182b565b90508460015f8573ffffffffffffffffffffffffffffffffffffffff1673ffffffffffffffffffffffffffffffffffffffff1681526020019081526020015f205410156107b3578260015f8573ffffffffffffffffffffffffffffffffffffffff1673ffffffffffffffffffffffffffffffffffffffff1681526020019081526020015f2054866040517fe450d38c0000000000000000000000000000000000000000000000000000000081526004016107aa9392919061185e565b60405180910390fd5b8460015f8573ffffffffffffffffffffffffffffffffffffffff1673ffffffffffffffffffffffffffffffffffffffff1681526020019081526020015f205f8282546107ff919061182b565b925050819055508060015f8873ffffffffffffffffffffffffffffffffffffffff1673ffffffffffffffffffffffffffffffffffffffff1681526020019081526020015f205f8282546108529190611893565b925050819055505f73ffffffffffffffffffffffffffffffffffffffff1660095f9054906101000a900473ffffffffffffffffffffffffffffffffffffffff1673ffffffffffffffffffffffffffffffffffffffff1614610922578160015f60095f9054906101000a900473ffffffffffffffffffffffffffffffffffffffff1673ffffffffffffffffffffffffffffffffffffffff1673ffffffffffffffffffffffffffffffffffffffff1681526020019081526020015f205f82825461091a9190611893565b925050819055505b8573ffffffffffffffffffffffffffffffffffffffff168373ffffffffffffffffffffffffffffffffffffffff167fddf252ad1be2c89b69c2b068fc378daa952ba7f163c4a11628f55a4df523b3ef8360405161097f91906115fd565b60405180910390a360095f9054906101000a900473ffffffffffffffffffffffffffffffffffffffff1673ffffffffffffffffffffffffffffffffffffffff168373ffffffffffffffffffffffffffffffffffffffff167fddf252ad1be2c89b69c2b068fc378daa952ba7f163c4a11628f55a4df523b3ef84604051610a0591906115fd565b60405180910390a36001935050505092915050565b5f60025f8473ffffffffffffffffffffffffffffffffffffffff1673ffffffffffffffffffffffffffffffffffffffff1681526020019081526020015f205f8373ffffffffffffffffffffffffffffffffffffffff1673ffffffffffffffffffffffffffffffffffffffff1681526020019081526020015f2054905092915050565b610aa4610cbc565b5f73ffffffffffffffffffffffffffffffffffffffff168173ffffffffffffffffffffffffffffffffffffffff1603610b14575f6040517f1e4fbdf7000000000000000000000000000000000000000000000000000000008152600401610b0b9190611473565b60405180910390fd5b610b1d81610e9d565b50565b5f33905090565b610b348383836001610fc0565b505050565b5f610b448484610a1a565b90507fffffffffffffffffffffffffffffffffffffffffffffffffffffffffffffffff811015610bc65781811015610bb7578281836040517ffb8f41b2000000000000000000000000000000000000000000000000000000008152600401610bae9392919061185e565b60405180910390fd5b610bc584848484035f610fc0565b5b50505050565b5f73ffffffffffffffffffffffffffffffffffffffff168373ffffffffffffffffffffffffffffffffffffffff1603610c3c575f6040517f96c6fd1e000000000000000000000000000000000000000000000000000000008152600401610c339190611473565b60405180910390fd5b5f73ffffffffffffffffffffffffffffffffffffffff168273ffffffffffffffffffffffffffffffffffffffff1603610cac575f6040517fec442f05000000000000000000000000000000000000000000000000000000008152600401610ca39190611473565b60405180910390fd5b610cb783838361118f565b505050565b610cc4610b20565b73ffffffffffffffffffffffffffffffffffffffff16610ce2610600565b73ffffffffffffffffffffffffffffffffffffffff1614610d4157610d05610b20565b6040517f118cdaa7000000000000000000000000000000000000000000000000000000008152600401610d389190611473565b60405180910390fd5b565b610d4b6113b3565b5f5f60146101000a81548160ff0219169083151502179055507f5db9ee0a495bf2e6ff9c91a7834c1ba4fdd244a5e8aa4e537bd38aeae4b073aa610d8d610b20565b604051610d9a9190611473565b60405180910390a1565b610dac6104af565b600a610db891906119f5565b610dc06104c4565b610dca919061178d565b81610dd3610478565b610ddd9190611893565b1115610e1e576040517f08c379a0000000000000000000000000000000000000000000000000000000008152600401610e1590611a89565b60405180910390fd5b5f73ffffffffffffffffffffffffffffffffffffffff168273ffffffffffffffffffffffffffffffffffffffff1603610e8e575f6040517fec442f05000000000000000000000000000000000000000000000000000000008152600401610e859190611473565b60405180910390fd5b610e995f838361118f565b5050565b5f5f5f9054906101000a900473ffffffffffffffffffffffffffffffffffffffff169050815f5f6101000a81548173ffffffffffffffffffffffffffffffffffffffff021916908373ffffffffffffffffffffffffffffffffffffffff1602179055508173ffffffffffffffffffffffffffffffffffffffff168173ffffffffffffffffffffffffffffffffffffffff167f8be0079c531659141344cd1fd0a4f28419497f9722a3daafe3b4186f6b6457e060405160405180910390a35050565b610f666113f3565b60015f60146101000a81548160ff0219169083151502179055507f62e78cea01bee320cd4e420270b5ea74000d11b0c9f74754ebdbfc544b05a258610fa9610b20565b604051610fb69190611473565b60405180910390a1565b5f73ffffffffffffffffffffffffffffffffffffffff168473ffffffffffffffffffffffffffffffffffffffff1603611030575f6040517fe602df050000000000000000000000000000000000000000000000000000000081526004016110279190611473565b60405180910390fd5b5f73ffffffffffffffffffffffffffffffffffffffff168373ffffffffffffffffffffffffffffffffffffffff16036110a0575f6040517f94280d620000000000000000000000000000000000000000000000000000000081526004016110979190611473565b60405180910390fd5b8160025f8673ffffffffffffffffffffffffffffffffffffffff1673ffffffffffffffffffffffffffffffffffffffff1681526020019081526020015f205f8573ffffffffffffffffffffffffffffffffffffffff1673ffffffffffffffffffffffffffffffffffffffff1681526020019081526020015f20819055508015611189578273ffffffffffffffffffffffffffffffffffffffff168473ffffffffffffffffffffffffffffffffffffffff167f8c5be1e5ebec7d5bd14f71427d1e84f3dd0314c0f7b2291e5b200ac8c7c3b9258460405161118091906115fd565b60405180910390a35b50505050565b6111976113f3565b5f73ffffffffffffffffffffffffffffffffffffffff168373ffffffffffffffffffffffffffffffffffffffff16036111e7578060035f8282546111db9190611893565b925050819055506112b7565b5f60015f8573ffffffffffffffffffffffffffffffffffffffff1673ffffffffffffffffffffffffffffffffffffffff1681526020019081526020015f2054905081811015611271578381836040517fe450d38c0000000000000000000000000000000000000000000000000000000081526004016112689392919061185e565b60405180910390fd5b81810360015f8673ffffffffffffffffffffffffffffffffffffffff1673ffffffffffffffffffffffffffffffffffffffff1681526020019081526020015f2081905550505b5f73ffffffffffffffffffffffffffffffffffffffff168273ffffffffffffffffffffffffffffffffffffffff16036112fe578060035f8282540392505081905550611349565b8060015f8473ffffffffffffffffffffffffffffffffffffffff1673ffffffffffffffffffffffffffffffffffffffff1681526020019081526020015f205f82825401925050819055505b8173ffffffffffffffffffffffffffffffffffffffff168373ffffffffffffffffffffffffffffffffffffffff167fddf252ad1be2c89b69c2b068fc378daa952ba7f163c4a11628f55a4df523b3ef836040516113a691906115fd565b60405180910390a3505050565b6113bb6104f5565b6113f1576040517f8dfc202b00000000000000000000000000000000000000000000000000000000815260040160405180910390fd5b565b6113fb6104f5565b15611432576040517fd93c066500000000000000000000000000000000000000000000000000000000815260040160405180910390fd5b565b5f73ffffffffffffffffffffffffffffffffffffffff82169050919050565b5f61145d82611434565b9050919050565b61146d81611453565b82525050565b5f6020820190506114865f830184611464565b92915050565b5f81519050919050565b5f82825260208201905092915050565b8281835e5f83830152505050565b5f601f19601f8301169050919050565b5f6114ce8261148c565b6114d88185611496565b93506114e88185602086016114a6565b6114f1816114b4565b840191505092915050565b5f6020820190508181035f83015261151481846114c4565b905092915050565b5f5ffd5b61152981611453565b8114611533575f5ffd5b50565b5f8135905061154481611520565b92915050565b5f819050919050565b61155c8161154a565b8114611566575f5ffd5b50565b5f8135905061157781611553565b92915050565b5f5f604083850312156115935761159261151c565b5b5f6115a085828601611536565b92505060206115b185828601611569565b9150509250929050565b5f8115159050919050565b6115cf816115bb565b82525050565b5f6020820190506115e85f8301846115c6565b92915050565b6115f78161154a565b82525050565b5f6020820190506116105f8301846115ee565b92915050565b5f5f5f6060848603121561162d5761162c61151c565b5b5f61163a86828701611536565b935050602061164b86828701611536565b925050604061165c86828701611569565b9150509250925092565b5f60ff82169050919050565b61167b81611666565b82525050565b5f6020820190506116945f830184611672565b92915050565b5f602082840312156116af576116ae61151c565b5b5f6116bc84828501611536565b91505092915050565b5f5f604083850312156116db576116da61151c565b5b5f6116e885828601611536565b92505060206116f985828601611536565b9150509250929050565b7f4e487b71000000000000000000000000000000000000000000000000000000005f52602260045260245ffd5b5f600282049050600182168061174757607f821691505b60208210810361175a57611759611703565b5b50919050565b7f4e487b71000000000000000000000000000000000000000000000000000000005f52601160045260245ffd5b5f6117978261154a565b91506117a28361154a565b92508282026117b08161154a565b915082820484148315176117c7576117c6611760565b5b5092915050565b7f4e487b71000000000000000000000000000000000000000000000000000000005f52601260045260245ffd5b5f6118058261154a565b91506118108361154a565b9250826118205761181f6117ce565b5b828204905092915050565b5f6118358261154a565b91506118408361154a565b925082820390508181111561185857611857611760565b5b92915050565b5f6060820190506118715f830186611464565b61187e60208301856115ee565b61188b60408301846115ee565b949350505050565b5f61189d8261154a565b91506118a88361154a565b92508282019050808211156118c0576118bf611760565b5b92915050565b5f8160011c9050919050565b5f5f8291508390505b600185111561191b578086048111156118f7576118f6611760565b5b60018516156119065780820291505b8081029050611914856118c6565b94506118db565b94509492505050565b5f8261193357600190506119ee565b81611940575f90506119ee565b816001811461195657600281146119605761198f565b60019150506119ee565b60ff84111561197257611971611760565b5b8360020a91508482111561198957611988611760565b5b506119ee565b5060208310610133831016604e8410600b84101617156119c45782820a9050838111156119bf576119be611760565b5b6119ee565b6119d184848460016118d2565b925090508184048111156119e8576119e7611760565b5b81810290505b9392505050565b5f6119ff8261154a565b9150611a0a83611666565b9250611a377fffffffffffffffffffffffffffffffffffffffffffffffffffffffffffffffff8484611924565b905092915050565b7f45524332304361707065643a20636170206578636565646564000000000000005f82015250565b5f611a73601983611496565b9150611a7e82611a3f565b602082019050919050565b5f6020820190508181035f830152611aa081611a67565b905091905056fea2646970667358221220e557a49ed846a6c3cf9298e95bf82747081c26be71d1eac2258d78ac0fd0a69a64736f6c634300081c0033","linkReferences":{}},"methodIdentifiers":{"allowance(address,address)":"dd62ed3e","approve(address,uint256)":"095ea7b3","balanceOf(address)":"70a08231","cap()":"355274ea","decimals()":"313ce567","getTaxFeeRecipient()":"03073dfc","getTransferTaxBps()":"743bfe70","mint(address,uint256)":"40c10f19","name()":"06fdde03","owner()":"8da5cb5b","pause()":"8456cb59","paused()":"5c975abb","renounceOwnership()":"715018a6","symbol()":"95d89b41","totalSupply()":"18160ddd","transfer(address,uint256)":"a9059cbb","transferFrom(address,address,uint256)":"23b872dd","transferOwnership(address)":"f2fde38b","unpause()":"3f4ba83a","updateTaxFeeRecipient(address)":"8baace25"},"id":43}