{"abi":[{"type":"constructor","inputs":[{"name":"name_","type":"string","internalType":"string"},{"name":"symbol_","type":"string","internalType":"string"},{"name":"decimals_","type":"uint8","internalType":"uint8"},{"name":"totalSupply_","type":"uint256","internalType":"uint256"},{"name":"cap_","type":"uint256","internalType":"uint256"},{"name":"serviceFeeReceiver_","type":"address","internalType":"address"},{"name":"serviceFee_","type":"uint256","internalType":"uint256"},{"name":"transferTaxBps_","type":"uint256","internalType":"uint256"},{"name":"taxFeeRecipient_","type":"address","internalType":"address"}],"stateMutability":"payable"},{"type":"function","name":"allowance","inputs":[{"name":"owner","type":"address","internalType":"address"},{"name":"spender","type":"address","internalType":"address"}],"outputs":[{"name":"","type":"uint256","internalType":"uint256"}],"stateMutability":"view"},{"type":"function","name":"approve","inputs":[{"name":"spender","type":"address","internalType":"address"},{"name":"value","type":"uint256","internalType":"uint256"}],"outputs":[{"name":"","type":"bool","internalType":"bool"}],"stateMutability":"nonpayable"},{"type":"function","name":"balanceOf","inputs":[{"name":"account","type":"address","internalType":"address"}],"outputs":[{"name":"","type":"uint256","internalType":"uint256"}],"stateMutability":"view"},{"type":"function","name":"cap","inputs":[],"outputs":[{"name":"","type":"uint256","internalType":"uint256"}],"stateMutability":"view"},{"type":"function","name":"decimals","inputs":[],"outputs":[{"name":"","type":"uint8","internalType":"uint8"}],"stateMutability":"view"},{"type":"function","name":"getTaxFeeRecipient","inputs":[],"outputs":[{"name":"","type":"address","internalType":"address"}],"stateMutability":"view"},{"type":"function","name":"getTransferTaxBps","inputs":[],"outputs":[{"name":"","type":"uint256","internalType":"uint256"}],"stateMutability":"view"},{"type":"function","name":"mint","inputs":[{"name":"to","type":"address","internalType":"address"},{"name":"amount","type":"uint256","internalType":"uint256"}],"outputs":[],"stateMutability":"nonpayable"},{"type":"function","name":"name","inputs":[],"outputs":[{"name":"","type":"string","internalType":"string"}],"stateMutability":"view"},{"type":"function","name":"owner","inputs":[],"outputs":[{"name":"","type":"address","internalType":"address"}],"stateMutability":"view"},{"type":"function","name":"renounceOwnership","inputs":[],"outputs":[],"stateMutability":"nonpayable"},{"type":"function","name":"symbol","inputs":[],"outputs":[{"name":"","type":"string","internalType":"string"}],"stateMutability":"view"},{"type":"function","name":"totalSupply","inputs":[],"outputs":[{"name":"","type":"uint256","internalType":"uint256"}],"stateMutability":"view"},{"type":"function","name":"transfer","inputs":[{"name":"to","type":"address","internalType":"address"},{"name":"value","type":"uint256","internalType":"uint256"}],"outputs":[{"name":"","type":"bool","internalType":"bool"}],"stateMutability":"nonpayable"},{"type":"function","name":"transferFrom","inputs":[{"name":"from","type":"address","internalType":"address"},{"name":"to","type":"address","internalType":"address"},{"name":"value","type":"uint256","internalType":"uint256"}],"outputs":[{"name":"","type":"bool","internalType":"bool"}],"stateMutability":"nonpayable"},{"type":"function","name":"transferOwnership","inputs":[{"name":"newOwner","type":"address","internalType":"address"}],"outputs":[],"stateMutability":"nonpayable"},{"type":"function","name":"updateTaxFeeRecipient","inputs":[{"name":"newTaxFeeRecipient","type":"address","internalType":"address"}],"outputs":[],"stateMutability":"nonpayable"},{"type":"event","name":"Approval","inputs":[{"name":"owner","type":"address","indexed":true,"internalType":"address"},{"name":"spender","type":"address","indexed":true,"internalType":"address"},{"name":"value","type":"uint256","indexed":false,"internalType":"uint256"}],"anonymous":false},{"type":"event","name":"OwnershipTransferred","inputs":[{"name":"previousOwner","type":"address","indexed":true,"internalType":"address"},{"name":"newOwner","type":"address","indexed":true,"internalType":"address"}],"anonymous":false},{"type":"event","name":"TaxFeeRecipientUpdated","inputs":[{"name":"newTaxFeeRecipient","type":"address","indexed":false,"internalType":"address"}],"anonymous":false},{"type":"event","name":"Transfer","inputs":[{"name":"from","type":"address","indexed":true,"internalType":"address"},{"name":"to","type":"address","indexed":true,"internalType":"address"},{"name":"value","type":"uint256","indexed":false,"internalType":"uint256"}],"anonymous":false},{"type":"error","name":"ERC20InsufficientAllowance","inputs":[{"name":"spender","type":"address","internalType":"address"},{"name":"allowance","type":"uint256","internalType":"uint256"},{"name":"needed","type":"uint256","internalType":"uint256"}]},{"type":"error","name":"ERC20InsufficientBalance","inputs":[{"name":"sender","type":"address","internalType":"address"},{"name":"balance","type":"uint256","internalType":"uint256"},{"name":"needed","type":"uint256","internalType":"uint256"}]},{"type":"error","name":"ERC20InvalidApprover","inputs":[{"name":"approver","type":"address","internalType":"address"}]},{"type":"error","name":"ERC20InvalidReceiver","inputs":[{"name":"receiver","type":"address","internalType":"address"}]},{"type":"error","name":"ERC20InvalidSender","inputs":[{"name":"sender","type":"address","internalType":"address"}]},{"type":"error","name":"ERC20InvalidSpender","inputs":[{"name":"spender","type":"address","internalType":"address"}]},{"type":"error","name":"OwnableInvalidOwner","inputs":[{"name":"owner","type":"address","internalType":"address"}]},{"type":"error","name":"OwnableUnauthorizedAccount","inputs":[{"name":"account","type":"address","internalType":"address"}]}],"bytecode":{"object":"0x6080604052604051612bb5380380612bb5833981810160405281019061002591906109d9565b335f73ffffffffffffffffffffffffffffffffffffffff168173ffffffffffffffffffffffffffffffffffffffff1603610096575f6040517f1e4fbdf700000000000000000000000000000000000000000000000000000000815260040161008d9190610ae4565b60405180910390fd5b6100a58161038d60201b60201c565b5088600490816100b59190610d04565b5087600590816100c59190610d04565b508660065f6101000a81548160ff021916908360ff1602179055505f8511610122576040517f08c379a000000000000000000000000000000000000000000000000000000000815260040161011990610e2d565b60405180910390fd5b84600781905550816008819055508060095f6101000a81548173ffffffffffffffffffffffffffffffffffffffff021916908373ffffffffffffffffffffffffffffffffffffffff16021790555061017e61044e60201b60201c565b600a61018a9190610fa7565b61019861046360201b60201c565b6101a29190610ff1565b8611156101e4576040517f08c379a00000000000000000000000000000000000000000000000000000000081526004016101db9061107c565b60405180910390fd5b82341015610227576040517f08c379a000000000000000000000000000000000000000000000000000000000815260040161021e906110e4565b60405180910390fd5b5f73ffffffffffffffffffffffffffffffffffffffff168473ffffffffffffffffffffffffffffffffffffffff1603610295576040517f08c379a000000000000000000000000000000000000000000000000000000000815260040161028c9061114c565b60405180910390fd5b5f8473ffffffffffffffffffffffffffffffffffffffff16846040516102ba90611197565b5f6040518083038185875af1925050503d805f81146102f4576040519150601f19603f3d011682016040523d82523d5f602084013e6102f9565b606091505b505090508061033d576040517f08c379a0000000000000000000000000000000000000000000000000000000008152600401610334906111f5565b60405180910390fd5b61037e61034e61046c60201b60201c565b61035c61044e60201b60201c565b600a6103689190610fa7565b896103739190610ff1565b61049360201b60201c565b505050505050505050506112a3565b5f5f5f9054906101000a900473ffffffffffffffffffffffffffffffffffffffff169050815f5f6101000a81548173ffffffffffffffffffffffffffffffffffffffff021916908373ffffffffffffffffffffffffffffffffffffffff1602179055508173ffffffffffffffffffffffffffffffffffffffff168173ffffffffffffffffffffffffffffffffffffffff167f8be0079c531659141344cd1fd0a4f28419497f9722a3daafe3b4186f6b6457e060405160405180910390a35050565b5f60065f9054906101000a900460ff16905090565b5f600754905090565b5f5f5f9054906101000a900473ffffffffffffffffffffffffffffffffffffffff16905090565b6104a161044e60201b60201c565b600a6104ad9190610fa7565b6104bb61046360201b60201c565b6104c59190610ff1565b816104d46105a460201b60201c565b6104de9190611213565b111561051f576040517f08c379a00000000000000000000000000000000000000000000000000000000081526004016105169061107c565b60405180910390fd5b5f73ffffffffffffffffffffffffffffffffffffffff168273ffffffffffffffffffffffffffffffffffffffff160361058f575f6040517fec442f050000000000000000000000000000000000000000000000000000000081526004016105869190610ae4565b60405180910390fd5b6105a05f83836105ad60201b60201c565b5050565b5f600354905090565b5f73ffffffffffffffffffffffffffffffffffffffff168373ffffffffffffffffffffffffffffffffffffffff16036105fd578060035f8282546105f19190611213565b925050819055506106cd565b5f60015f8573ffffffffffffffffffffffffffffffffffffffff1673ffffffffffffffffffffffffffffffffffffffff1681526020019081526020015f2054905081811015610687578381836040517fe450d38c00000000000000000000000000000000000000000000000000000000815260040161067e93929190611255565b60405180910390fd5b81810360015f8673ffffffffffffffffffffffffffffffffffffffff1673ffffffffffffffffffffffffffffffffffffffff1681526020019081526020015f2081905550505b5f73ffffffffffffffffffffffffffffffffffffffff168273ffffffffffffffffffffffffffffffffffffffff1603610714578060035f828254039250508190555061075f565b8060015f8473ffffffffffffffffffffffffffffffffffffffff1673ffffffffffffffffffffffffffffffffffffffff1681526020019081526020015f205f82825401925050819055505b8173ffffffffffffffffffffffffffffffffffffffff168373ffffffffffffffffffffffffffffffffffffffff167fddf252ad1be2c89b69c2b068fc378daa952ba7f163c4a11628f55a4df523b3ef836040516107bc919061128a565b60405180910390a3505050565b5f604051905090565b5f5ffd5b5f5ffd5b5f5ffd5b5f5ffd5b5f601f19601f8301169050919050565b7f4e487b71000000000000000000000000000000000000000000000000000000005f52604160045260245ffd5b610828826107e2565b810181811067ffffffffffffffff82111715610847576108466107f2565b5b80604052505050565b5f6108596107c9565b9050610865828261081f565b919050565b5f67ffffffffffffffff821115610884576108836107f2565b5b61088d826107e2565b9050602081019050919050565b8281835e5f83830152505050565b5f6108ba6108b58461086a565b610850565b9050828152602081018484840111156108d6576108d56107de565b5b6108e184828561089a565b509392505050565b5f82601f8301126108fd576108fc6107da565b5b815161090d8482602086016108a8565b91505092915050565b5f60ff82169050919050565b61092b81610916565b8114610935575f5ffd5b50565b5f8151905061094681610922565b92915050565b5f819050919050565b61095e8161094c565b8114610968575f5ffd5b50565b5f8151905061097981610955565b92915050565b5f73ffffffffffffffffffffffffffffffffffffffff82169050919050565b5f6109a88261097f565b9050919050565b6109b88161099e565b81146109c2575f5ffd5b50565b5f815190506109d3816109af565b92915050565b5f5f5f5f5f5f5f5f5f6101208a8c0312156109f7576109f66107d2565b5b5f8a015167ffffffffffffffff811115610a1457610a136107d6565b5b610a208c828d016108e9565b99505060208a015167ffffffffffffffff811115610a4157610a406107d6565b5b610a4d8c828d016108e9565b9850506040610a5e8c828d01610938565b9750506060610a6f8c828d0161096b565b9650506080610a808c828d0161096b565b95505060a0610a918c828d016109c5565b94505060c0610aa28c828d0161096b565b93505060e0610ab38c828d0161096b565b925050610100610ac58c828d016109c5565b9150509295985092959850929598565b610ade8161099e565b82525050565b5f602082019050610af75f830184610ad5565b92915050565b5f81519050919050565b7f4e487b71000000000000000000000000000000000000000000000000000000005f52602260045260245ffd5b5f6002820490506001821680610b4b57607f821691505b602082108103610b5e57610b5d610b07565b5b50919050565b5f819050815f5260205f209050919050565b5f6020601f8301049050919050565b5f82821b905092915050565b5f60088302610bc07fffffffffffffffffffffffffffffffffffffffffffffffffffffffffffffffff82610b85565b610bca8683610b85565b95508019841693508086168417925050509392505050565b5f819050919050565b5f610c05610c00610bfb8461094c565b610be2565b61094c565b9050919050565b5f819050919050565b610c1e83610beb565b610c32610c2a82610c0c565b848454610b91565b825550505050565b5f5f905090565b610c49610c3a565b610c54818484610c15565b505050565b5b81811015610c7757610c6c5f82610c41565b600181019050610c5a565b5050565b601f821115610cbc57610c8d81610b64565b610c9684610b76565b81016020851015610ca5578190505b610cb9610cb185610b76565b830182610c59565b50505b505050565b5f82821c905092915050565b5f610cdc5f1984600802610cc1565b1980831691505092915050565b5f610cf48383610ccd565b9150826002028217905092915050565b610d0d82610afd565b67ffffffffffffffff811115610d2657610d256107f2565b5b610d308254610b34565b610d3b828285610c7b565b5f60209050601f831160018114610d6c575f8415610d5a578287015190505b610d648582610ce9565b865550610dcb565b601f198416610d7a86610b64565b5f5b82811015610da157848901518255600182019150602085019450602081019050610d7c565b86831015610dbe5784890151610dba601f891682610ccd565b8355505b6001600288020188555050505b505050505050565b5f82825260208201905092915050565b7f4361702073686f756c642062652067726561746572207468616e2030000000005f82015250565b5f610e17601c83610dd3565b9150610e2282610de3565b602082019050919050565b5f6020820190508181035f830152610e4481610e0b565b9050919050565b7f4e487b71000000000000000000000000000000000000000000000000000000005f52601160045260245ffd5b5f8160011c9050919050565b5f5f8291508390505b6001851115610ecd57808604811115610ea957610ea8610e4b565b5b6001851615610eb85780820291505b8081029050610ec685610e78565b9450610e8d565b94509492505050565b5f82610ee55760019050610fa0565b81610ef2575f9050610fa0565b8160018114610f085760028114610f1257610f41565b6001915050610fa0565b60ff841115610f2457610f23610e4b565b5b8360020a915084821115610f3b57610f3a610e4b565b5b50610fa0565b5060208310610133831016604e8410600b8410161715610f765782820a905083811115610f7157610f70610e4b565b5b610fa0565b610f838484846001610e84565b92509050818404811115610f9a57610f99610e4b565b5b81810290505b9392505050565b5f610fb18261094c565b9150610fbc83610916565b9250610fe97fffffffffffffffffffffffffffffffffffffffffffffffffffffffffffffffff8484610ed6565b905092915050565b5f610ffb8261094c565b91506110068361094c565b92508282026110148161094c565b9150828204841483151761102b5761102a610e4b565b5b5092915050565b7f45524332304361707065643a20636170206578636565646564000000000000005f82015250565b5f611066601983610dd3565b915061107182611032565b602082019050919050565b5f6020820190508181035f8301526110938161105a565b9050919050565b7f496e73756666696369656e742066656520616d6f756e742073656e74000000005f82015250565b5f6110ce601c83610dd3565b91506110d98261109a565b602082019050919050565b5f6020820190508181035f8301526110fb816110c2565b9050919050565b7f496e76616c6964206665652072656365697665722061646472657373000000005f82015250565b5f611136601c83610dd3565b915061114182611102565b602082019050919050565b5f6020820190508181035f8301526111638161112a565b9050919050565b5f81905092915050565b50565b5f6111825f8361116a565b915061118d82611174565b5f82019050919050565b5f6111a182611177565b9150819050919050565b7f466565207472616e73666572206661696c6564000000000000000000000000005f82015250565b5f6111df601383610dd3565b91506111ea826111ab565b602082019050919050565b5f6020820190508181035f83015261120c816111d3565b9050919050565b5f61121d8261094c565b91506112288361094c565b92508282019050808211156112405761123f610e4b565b5b92915050565b61124f8161094c565b82525050565b5f6060820190506112685f830186610ad5565b6112756020830185611246565b6112826040830184611246565b949350505050565b5f60208201905061129d5f830184611246565b92915050565b611905806112b05f395ff3fe608060405234801561000f575f5ffd5b5060043610610109575f3560e01c806370a08231116100a05780638da5cb5b1161006f5780638da5cb5b1461029357806395d89b41146102b1578063a9059cbb146102cf578063dd62ed3e146102ff578063f2fde38b1461032f57610109565b806370a082311461021f578063715018a61461024f578063743bfe70146102595780638baace251461027757610109565b806323b872dd116100dc57806323b872dd14610197578063313ce567146101c7578063355274ea146101e557806340c10f191461020357610109565b806303073dfc1461010d57806306fdde031461012b578063095ea7b31461014957806318160ddd14610179575b5f5ffd5b61011561034b565b604051610122919061129b565b60405180910390f35b610133610373565b6040516101409190611324565b60405180910390f35b610163600480360381019061015e91906113a5565b610403565b60405161017091906113fd565b60405180910390f35b610181610425565b60405161018e9190611425565b60405180910390f35b6101b160048036038101906101ac919061143e565b61042e565b6040516101be91906113fd565b60405180910390f35b6101cf61045c565b6040516101dc91906114a9565b60405180910390f35b6101ed610471565b6040516101fa9190611425565b60405180910390f35b61021d600480360381019061021891906113a5565b61047a565b005b610239600480360381019061023491906114c2565b610490565b6040516102469190611425565b60405180910390f35b6102576104d6565b005b6102616104e9565b60405161026e9190611425565b60405180910390f35b610291600480360381019061028c91906114c2565b6104f2565b005b61029b610574565b6040516102a8919061129b565b60405180910390f35b6102b961059b565b6040516102c69190611324565b60405180910390f35b6102e960048036038101906102e491906113a5565b61062b565b6040516102f691906113fd565b60405180910390f35b610319600480360381019061031491906114ed565b61098e565b6040516103269190611425565b60405180910390f35b610349600480360381019061034491906114c2565b610a10565b005b5f60095f9054906101000a900473ffffffffffffffffffffffffffffffffffffffff16905090565b60606004805461038290611558565b80601f01602080910402602001604051908101604052809291908181526020018280546103ae90611558565b80156103f95780601f106103d0576101008083540402835291602001916103f9565b820191905f5260205f20905b8154815290600101906020018083116103dc57829003601f168201915b5050505050905090565b5f5f61040d610a94565b905061041a818585610a9b565b600191505092915050565b5f600354905090565b5f5f610438610a94565b9050610445858285610aad565b610450858585610b40565b60019150509392505050565b5f60065f9054906101000a900460ff16905090565b5f600754905090565b610482610c30565b61048c8282610cb7565b5050565b5f60015f8373ffffffffffffffffffffffffffffffffffffffff1673ffffffffffffffffffffffffffffffffffffffff1681526020019081526020015f20549050919050565b6104de610c30565b6104e75f610db0565b565b5f600854905090565b6104fa610c30565b8060095f6101000a81548173ffffffffffffffffffffffffffffffffffffffff021916908373ffffffffffffffffffffffffffffffffffffffff1602179055507f3ca9233bd3849737ab1049144180bc625db2d51ca2c5ce949e7209eb32faa3a281604051610569919061129b565b60405180910390a150565b5f5f5f9054906101000a900473ffffffffffffffffffffffffffffffffffffffff16905090565b6060600580546105aa90611558565b80601f01602080910402602001604051908101604052809291908181526020018280546105d690611558565b80156106215780601f106105f857610100808354040283529160200191610621565b820191905f5260205f20905b81548152906001019060200180831161060457829003601f168201915b5050505050905090565b5f5f610635610a94565b90505f6127106008548561064991906115b5565b6106539190611623565b90505f81856106629190611653565b90508460015f8573ffffffffffffffffffffffffffffffffffffffff1673ffffffffffffffffffffffffffffffffffffffff1681526020019081526020015f20541015610727578260015f8573ffffffffffffffffffffffffffffffffffffffff1673ffffffffffffffffffffffffffffffffffffffff1681526020019081526020015f2054866040517fe450d38c00000000000000000000000000000000000000000000000000000000815260040161071e93929190611686565b60405180910390fd5b8460015f8573ffffffffffffffffffffffffffffffffffffffff1673ffffffffffffffffffffffffffffffffffffffff1681526020019081526020015f205f8282546107739190611653565b925050819055508060015f8873ffffffffffffffffffffffffffffffffffffffff1673ffffffffffffffffffffffffffffffffffffffff1681526020019081526020015f205f8282546107c691906116bb565b925050819055505f73ffffffffffffffffffffffffffffffffffffffff1660095f9054906101000a900473ffffffffffffffffffffffffffffffffffffffff1673ffffffffffffffffffffffffffffffffffffffff1614610896578160015f60095f9054906101000a900473ffffffffffffffffffffffffffffffffffffffff1673ffffffffffffffffffffffffffffffffffffffff1673ffffffffffffffffffffffffffffffffffffffff1681526020019081526020015f205f82825461088e91906116bb565b925050819055505b8573ffffffffffffffffffffffffffffffffffffffff168373ffffffffffffffffffffffffffffffffffffffff167fddf252ad1be2c89b69c2b068fc378daa952ba7f163c4a11628f55a4df523b3ef836040516108f39190611425565b60405180910390a360095f9054906101000a900473ffffffffffffffffffffffffffffffffffffffff1673ffffffffffffffffffffffffffffffffffffffff168373ffffffffffffffffffffffffffffffffffffffff167fddf252ad1be2c89b69c2b068fc378daa952ba7f163c4a11628f55a4df523b3ef846040516109799190611425565b60405180910390a36001935050505092915050565b5f60025f8473ffffffffffffffffffffffffffffffffffffffff1673ffffffffffffffffffffffffffffffffffffffff1681526020019081526020015f205f8373ffffffffffffffffffffffffffffffffffffffff1673ffffffffffffffffffffffffffffffffffffffff1681526020019081526020015f2054905092915050565b610a18610c30565b5f73ffffffffffffffffffffffffffffffffffffffff168173ffffffffffffffffffffffffffffffffffffffff1603610a88575f6040517f1e4fbdf7000000000000000000000000000000000000000000000000000000008152600401610a7f919061129b565b60405180910390fd5b610a9181610db0565b50565b5f33905090565b610aa88383836001610e71565b505050565b5f610ab8848461098e565b90507fffffffffffffffffffffffffffffffffffffffffffffffffffffffffffffffff811015610b3a5781811015610b2b578281836040517ffb8f41b2000000000000000000000000000000000000000000000000000000008152600401610b2293929190611686565b60405180910390fd5b610b3984848484035f610e71565b5b50505050565b5f73ffffffffffffffffffffffffffffffffffffffff168373ffffffffffffffffffffffffffffffffffffffff1603610bb0575f6040517f96c6fd1e000000000000000000000000000000000000000000000000000000008152600401610ba7919061129b565b60405180910390fd5b5f73ffffffffffffffffffffffffffffffffffffffff168273ffffffffffffffffffffffffffffffffffffffff1603610c20575f6040517fec442f05000000000000000000000000000000000000000000000000000000008152600401610c17919061129b565b60405180910390fd5b610c2b838383611040565b505050565b610c38610a94565b73ffffffffffffffffffffffffffffffffffffffff16610c56610574565b73ffffffffffffffffffffffffffffffffffffffff1614610cb557610c79610a94565b6040517f118cdaa7000000000000000000000000000000000000000000000000000000008152600401610cac919061129b565b60405180910390fd5b565b610cbf61045c565b600a610ccb919061181d565b610cd3610471565b610cdd91906115b5565b81610ce6610425565b610cf091906116bb565b1115610d31576040517f08c379a0000000000000000000000000000000000000000000000000000000008152600401610d28906118b1565b60405180910390fd5b5f73ffffffffffffffffffffffffffffffffffffffff168273ffffffffffffffffffffffffffffffffffffffff1603610da1575f6040517fec442f05000000000000000000000000000000000000000000000000000000008152600401610d98919061129b565b60405180910390fd5b610dac5f8383611040565b5050565b5f5f5f9054906101000a900473ffffffffffffffffffffffffffffffffffffffff169050815f5f6101000a81548173ffffffffffffffffffffffffffffffffffffffff021916908373ffffffffffffffffffffffffffffffffffffffff1602179055508173ffffffffffffffffffffffffffffffffffffffff168173ffffffffffffffffffffffffffffffffffffffff167f8be0079c531659141344cd1fd0a4f28419497f9722a3daafe3b4186f6b6457e060405160405180910390a35050565b5f73ffffffffffffffffffffffffffffffffffffffff168473ffffffffffffffffffffffffffffffffffffffff1603610ee1575f6040517fe602df05000000000000000000000000000000000000000000000000000000008152600401610ed8919061129b565b60405180910390fd5b5f73ffffffffffffffffffffffffffffffffffffffff168373ffffffffffffffffffffffffffffffffffffffff1603610f51575f6040517f94280d62000000000000000000000000000000000000000000000000000000008152600401610f48919061129b565b60405180910390fd5b8160025f8673ffffffffffffffffffffffffffffffffffffffff1673ffffffffffffffffffffffffffffffffffffffff1681526020019081526020015f205f8573ffffffffffffffffffffffffffffffffffffffff1673ffffffffffffffffffffffffffffffffffffffff1681526020019081526020015f2081905550801561103a578273ffffffffffffffffffffffffffffffffffffffff168473ffffffffffffffffffffffffffffffffffffffff167f8c5be1e5ebec7d5bd14f71427d1e84f3dd0314c0f7b2291e5b200ac8c7c3b925846040516110319190611425565b60405180910390a35b50505050565b5f73ffffffffffffffffffffffffffffffffffffffff168373ffffffffffffffffffffffffffffffffffffffff1603611090578060035f82825461108491906116bb565b92505081905550611160565b5f60015f8573ffffffffffffffffffffffffffffffffffffffff1673ffffffffffffffffffffffffffffffffffffffff1681526020019081526020015f205490508181101561111a578381836040517fe450d38c00000000000000000000000000000000000000000000000000000000815260040161111193929190611686565b60405180910390fd5b81810360015f8673ffffffffffffffffffffffffffffffffffffffff1673ffffffffffffffffffffffffffffffffffffffff1681526020019081526020015f2081905550505b5f73ffffffffffffffffffffffffffffffffffffffff168273ffffffffffffffffffffffffffffffffffffffff16036111a7578060035f82825403925050819055506111f2565b8060015f8473ffffffffffffffffffffffffffffffffffffffff1673ffffffffffffffffffffffffffffffffffffffff1681526020019081526020015f205f82825401925050819055505b8173ffffffffffffffffffffffffffffffffffffffff168373ffffffffffffffffffffffffffffffffffffffff167fddf252ad1be2c89b69c2b068fc378daa952ba7f163c4a11628f55a4df523b3ef8360405161124f9190611425565b60405180910390a3505050565b5f73ffffffffffffffffffffffffffffffffffffffff82169050919050565b5f6112858261125c565b9050919050565b6112958161127b565b82525050565b5f6020820190506112ae5f83018461128c565b92915050565b5f81519050919050565b5f82825260208201905092915050565b8281835e5f83830152505050565b5f601f19601f8301169050919050565b5f6112f6826112b4565b61130081856112be565b93506113108185602086016112ce565b611319816112dc565b840191505092915050565b5f6020820190508181035f83015261133c81846112ec565b905092915050565b5f5ffd5b6113518161127b565b811461135b575f5ffd5b50565b5f8135905061136c81611348565b92915050565b5f819050919050565b61138481611372565b811461138e575f5ffd5b50565b5f8135905061139f8161137b565b92915050565b5f5f604083850312156113bb576113ba611344565b5b5f6113c88582860161135e565b92505060206113d985828601611391565b9150509250929050565b5f8115159050919050565b6113f7816113e3565b82525050565b5f6020820190506114105f8301846113ee565b92915050565b61141f81611372565b82525050565b5f6020820190506114385f830184611416565b92915050565b5f5f5f6060848603121561145557611454611344565b5b5f6114628682870161135e565b93505060206114738682870161135e565b925050604061148486828701611391565b9150509250925092565b5f60ff82169050919050565b6114a38161148e565b82525050565b5f6020820190506114bc5f83018461149a565b92915050565b5f602082840312156114d7576114d6611344565b5b5f6114e48482850161135e565b91505092915050565b5f5f6040838503121561150357611502611344565b5b5f6115108582860161135e565b92505060206115218582860161135e565b9150509250929050565b7f4e487b71000000000000000000000000000000000000000000000000000000005f52602260045260245ffd5b5f600282049050600182168061156f57607f821691505b6020821081036115825761158161152b565b5b50919050565b7f4e487b71000000000000000000000000000000000000000000000000000000005f52601160045260245ffd5b5f6115bf82611372565b91506115ca83611372565b92508282026115d881611372565b915082820484148315176115ef576115ee611588565b5b5092915050565b7f4e487b71000000000000000000000000000000000000000000000000000000005f52601260045260245ffd5b5f61162d82611372565b915061163883611372565b925082611648576116476115f6565b5b828204905092915050565b5f61165d82611372565b915061166883611372565b92508282039050818111156116805761167f611588565b5b92915050565b5f6060820190506116995f83018661128c565b6116a66020830185611416565b6116b36040830184611416565b949350505050565b5f6116c582611372565b91506116d083611372565b92508282019050808211156116e8576116e7611588565b5b92915050565b5f8160011c9050919050565b5f5f8291508390505b60018511156117435780860481111561171f5761171e611588565b5b600185161561172e5780820291505b808102905061173c856116ee565b9450611703565b94509492505050565b5f8261175b5760019050611816565b81611768575f9050611816565b816001811461177e5760028114611788576117b7565b6001915050611816565b60ff84111561179a57611799611588565b5b8360020a9150848211156117b1576117b0611588565b5b50611816565b5060208310610133831016604e8410600b84101617156117ec5782820a9050838111156117e7576117e6611588565b5b611816565b6117f984848460016116fa565b925090508184048111156118105761180f611588565b5b81810290505b9392505050565b5f61182782611372565b91506118328361148e565b925061185f7fffffffffffffffffffffffffffffffffffffffffffffffffffffffffffffffff848461174c565b905092915050565b7f45524332304361707065643a20636170206578636565646564000000000000005f82015250565b5f61189b6019836112be565b91506118a682611867565b602082019050919050565b5f6020820190508181035f8301526118c88161188f565b905091905056fea264697066735822122019c78bd099ae1b2f3ad9f6f8cb7e3d5c1a26b48dc20ef7a05a06849a6eb1e50464736f6c634300081c0033","linkReferences":{}},"methodIdentifiers":{"allowance(address,address)":"dd62ed3e","approve(address,uint256)":"095ea7b3","balanceOf(address)":"70a08231","cap()":"355274ea","decimals()":"313ce567","getTaxFeeRecipient()":"03073dfc","getTransferTaxBps()":"743bfe70","mint(address,uint256)":"40c10f19","name()":"06fdde03","owner()":"8da5cb5b","renounceOwnership()":"715018a6","symbol()":"95d89b41","totalSupply()":"18160ddd","transfer(address,uint256)":"a9059cbb","transferFrom(address,address,uint256)":"23b872dd","transferOwnership(address)":"f2fde38b","updateTaxFeeRecipient(address)":"8baace25"},"id":20}