{"abi":[{"type":"constructor","inputs":[{"name":"name_","type":"string","internalType":"string"},{"name":"symbol_","type":"string","internalType":"string"},{"name":"decimals_","type":"uint8","internalType":"uint8"},{"name":"totalSupply_","type":"uint256","internalType":"uint256"},{"name":"cap_","type":"uint256","internalType":"uint256"},{"name":"serviceFeeReceiver_","type":"address","internalType":"address"},{"name":"serviceFee_","type":"uint256","internalType":"uint256"},{"name":"transferTaxBps_","type":"uint256","internalType":"uint256"},{"name":"taxFeeRecipient_","type":"address","internalType":"address"}],"stateMutability":"payable"},{"type":"function","name":"allowance","inputs":[{"name":"owner","type":"address","internalType":"address"},{"name":"spender","type":"address","internalType":"address"}],"outputs":[{"name":"","type":"uint256","internalType":"uint256"}],"stateMutability":"view"},{"type":"function","name":"approve","inputs":[{"name":"spender","type":"address","internalType":"address"},{"name":"value","type":"uint256","internalType":"uint256"}],"outputs":[{"name":"","type":"bool","internalType":"bool"}],"stateMutability":"nonpayable"},{"type":"function","name":"balanceOf","inputs":[{"name":"account","type":"address","internalType":"address"}],"outputs":[{"name":"","type":"uint256","internalType":"uint256"}],"stateMutability":"view"},{"type":"function","name":"cap","inputs":[],"outputs":[{"name":"","type":"uint256","internalType":"uint256"}],"stateMutability":"view"},{"type":"function","name":"decimals","inputs":[],"outputs":[{"name":"","type":"uint8","internalType":"uint8"}],"stateMutability":"view"},{"type":"function","name":"getTaxFeeRecipient","inputs":[],"outputs":[{"name":"","type":"address","internalType":"address"}],"stateMutability":"view"},{"type":"function","name":"getTransferTaxBps","inputs":[],"outputs":[{"name":"","type":"uint256","internalType":"uint256"}],"stateMutability":"view"},{"type":"function","name":"mint","inputs":[{"name":"to","type":"address","internalType":"address"},{"name":"amount","type":"uint256","internalType":"uint256"}],"outputs":[],"stateMutability":"nonpayable"},{"type":"function","name":"name","inputs":[],"outputs":[{"name":"","type":"string","internalType":"string"}],"stateMutability":"view"},{"type":"function","name":"owner","inputs":[],"outputs":[{"name":"","type":"address","internalType":"address"}],"stateMutability":"view"},{"type":"function","name":"renounceOwnership","inputs":[],"outputs":[],"stateMutability":"nonpayable"},{"type":"function","name":"symbol","inputs":[],"outputs":[{"name":"","type":"string","internalType":"string"}],"stateMutability":"view"},{"type":"function","name":"totalSupply","inputs":[],"outputs":[{"name":"","type":"uint256","internalType":"uint256"}],"stateMutability":"view"},{"type":"function","name":"transfer","inputs":[{"name":"to","type":"address","internalType":"address"},{"name":"value","type":"uint256","internalType":"uint256"}],"outputs":[{"name":"","type":"bool","internalType":"bool"}],"stateMutability":"nonpayable"},{"type":"function","name":"transferFrom","inputs":[{"name":"from","type":"address","internalType":"address"},{"name":"to","type":"address","internalType":"address"},{"name":"value","type":"uint256","internalType":"uint256"}],"outputs":[{"name":"","type":"bool","internalType":"bool"}],"stateMutability":"nonpayable"},{"type":"function","name":"transferOwnership","inputs":[{"name":"newOwner","type":"address","internalType":"address"}],"outputs":[],"stateMutability":"nonpayable"},{"type":"function","name":"updateTaxFeeRecipient","inputs":[{"name":"newTaxFeeRecipient","type":"address","internalType":"address"}],"outputs":[],"stateMutability":"nonpayable"},{"type":"event","name":"Approval","inputs":[{"name":"owner","type":"address","indexed":true,"internalType":"address"},{"name":"spender","type":"address","indexed":true,"internalType":"address"},{"name":"value","type":"uint256","indexed":false,"internalType":"uint256"}],"anonymous":false},{"type":"event","name":"OwnershipTransferred","inputs":[{"name":"previousOwner","type":"address","indexed":true,"internalType":"address"},{"name":"newOwner","type":"address","indexed":true,"internalType":"address"}],"anonymous":false},{"type":"event","name":"TaxFeeRecipientUpdated","inputs":[{"name":"newTaxFeeRecipient","type":"address","indexed":false,"internalType":"address"}],"anonymous":false},{"type":"event","name":"Transfer","inputs":[{"name":"from","type":"address","indexed":true,"internalType":"address"},{"name":"to","type":"address","indexed":true,"internalType":"address"},{"name":"value","type":"uint256","indexed":false,"internalType":"uint256"}],"anonymous":false},{"type":"error","name":"ERC20InsufficientAllowance","inputs":[{"name":"spender","type":"address","internalType":"address"},{"name":"allowance","type":"uint256","internalType":"uint256"},{"name":"needed","type":"uint256","internalType":"uint256"}]},{"type":"error","name":"ERC20InsufficientBalance","inputs":[{"name":"sender","type":"address","internalType":"address"},{"name":"balance","type":"uint256","internalType":"uint256"},{"name":"needed","type":"uint256","internalType":"uint256"}]},{"type":"error","name":"ERC20InvalidApprover","inputs":[{"name":"approver","type":"address","internalType":"address"}]},{"type":"error","name":"ERC20InvalidReceiver","inputs":[{"name":"receiver","type":"address","internalType":"address"}]},{"type":"error","name":"ERC20InvalidSender","inputs":[{"name":"sender","type":"address","internalType":"address"}]},{"type":"error","name":"ERC20InvalidSpender","inputs":[{"name":"spender","type":"address","internalType":"address"}]},{"type":"error","name":"OwnableInvalidOwner","inputs":[{"name":"owner","type":"address","internalType":"address"}]},{"type":"error","name":"OwnableUnauthorizedAccount","inputs":[{"name":"account","type":"address","internalType":"address"}]}],"bytecode":{"object":"0x608060405260405162002d2b38038062002d2b833981810160405281019062000029919062000a74565b335f73ffffffffffffffffffffffffffffffffffffffff168173ffffffffffffffffffffffffffffffffffffffff16036200009d575f6040517f1e4fbdf700000000000000000000000000000000000000000000000000000000815260040162000094919062000b9c565b60405180910390fd5b620000ae81620003c060201b60201c565b508860049081620000c0919062000de5565b508760059081620000d2919062000de5565b508660065f6101000a81548160ff021916908360ff1602179055505f851162000132576040517f08c379a0000000000000000000000000000000000000000000000000000000008152600401620001299062000f27565b60405180910390fd5b84600781905550816008819055508060095f6101000a81548173ffffffffffffffffffffffffffffffffffffffff021916908373ffffffffffffffffffffffffffffffffffffffff160217905550620001906200048160201b60201c565b600a6200019e9190620010c4565b620001ae6200049660201b60201c565b620001ba919062001114565b861115620001ff576040517f08c379a0000000000000000000000000000000000000000000000000000000008152600401620001f690620011ac565b60405180910390fd5b8234101562000245576040517f08c379a00000000000000000000000000000000000000000000000000000000081526004016200023c906200121a565b60405180910390fd5b5f73ffffffffffffffffffffffffffffffffffffffff168473ffffffffffffffffffffffffffffffffffffffff1603620002b6576040517f08c379a0000000000000000000000000000000000000000000000000000000008152600401620002ad9062001288565b60405180910390fd5b5f8473ffffffffffffffffffffffffffffffffffffffff1684604051620002dd90620012d9565b5f6040518083038185875af1925050503d805f811462000319576040519150601f19603f3d011682016040523d82523d5f602084013e6200031e565b606091505b505090508062000365576040517f08c379a00000000000000000000000000000000000000000000000000000000081526004016200035c906200133d565b60405180910390fd5b620003b0620003796200049f60201b60201c565b620003896200048160201b60201c565b600a620003979190620010c4565b89620003a4919062001114565b620004c660201b60201c565b50505050505050505050620013fe565b5f805f9054906101000a900473ffffffffffffffffffffffffffffffffffffffff169050815f806101000a81548173ffffffffffffffffffffffffffffffffffffffff021916908373ffffffffffffffffffffffffffffffffffffffff1602179055508173ffffffffffffffffffffffffffffffffffffffff168173ffffffffffffffffffffffffffffffffffffffff167f8be0079c531659141344cd1fd0a4f28419497f9722a3daafe3b4186f6b6457e060405160405180910390a35050565b5f60065f9054906101000a900460ff16905090565b5f600754905090565b5f805f9054906101000a900473ffffffffffffffffffffffffffffffffffffffff16905090565b620004d66200048160201b60201c565b600a620004e49190620010c4565b620004f46200049660201b60201c565b62000500919062001114565b8162000511620005eb60201b60201c565b6200051d91906200135d565b111562000561576040517f08c379a00000000000000000000000000000000000000000000000000000000081526004016200055890620011ac565b60405180910390fd5b5f73ffffffffffffffffffffffffffffffffffffffff168273ffffffffffffffffffffffffffffffffffffffff1603620005d4575f6040517fec442f05000000000000000000000000000000000000000000000000000000008152600401620005cb919062000b9c565b60405180910390fd5b620005e75f8383620005f460201b60201c565b5050565b5f600354905090565b5f73ffffffffffffffffffffffffffffffffffffffff168373ffffffffffffffffffffffffffffffffffffffff160362000648578060035f8282546200063b91906200135d565b925050819055506200071b565b5f60015f8573ffffffffffffffffffffffffffffffffffffffff1673ffffffffffffffffffffffffffffffffffffffff1681526020019081526020015f2054905081811015620006d5578381836040517fe450d38c000000000000000000000000000000000000000000000000000000008152600401620006cc93929190620013a8565b60405180910390fd5b81810360015f8673ffffffffffffffffffffffffffffffffffffffff1673ffffffffffffffffffffffffffffffffffffffff1681526020019081526020015f2081905550505b5f73ffffffffffffffffffffffffffffffffffffffff168273ffffffffffffffffffffffffffffffffffffffff160362000764578060035f8282540392505081905550620007af565b8060015f8473ffffffffffffffffffffffffffffffffffffffff1673ffffffffffffffffffffffffffffffffffffffff1681526020019081526020015f205f82825401925050819055505b8173ffffffffffffffffffffffffffffffffffffffff168373ffffffffffffffffffffffffffffffffffffffff167fddf252ad1be2c89b69c2b068fc378daa952ba7f163c4a11628f55a4df523b3ef836040516200080e9190620013e3565b60405180910390a3505050565b5f604051905090565b5f80fd5b5f80fd5b5f80fd5b5f80fd5b5f601f19601f8301169050919050565b7f4e487b71000000000000000000000000000000000000000000000000000000005f52604160045260245ffd5b6200087c8262000834565b810181811067ffffffffffffffff821117156200089e576200089d62000844565b5b80604052505050565b5f620008b26200081b565b9050620008c0828262000871565b919050565b5f67ffffffffffffffff821115620008e257620008e162000844565b5b620008ed8262000834565b9050602081019050919050565b5f5b8381101562000919578082015181840152602081019050620008fc565b5f8484015250505050565b5f6200093a6200093484620008c5565b620008a7565b90508281526020810184848401111562000959576200095862000830565b5b62000966848285620008fa565b509392505050565b5f82601f8301126200098557620009846200082c565b5b81516200099784826020860162000924565b91505092915050565b5f60ff82169050919050565b620009b781620009a0565b8114620009c2575f80fd5b50565b5f81519050620009d581620009ac565b92915050565b5f819050919050565b620009ef81620009db565b8114620009fa575f80fd5b50565b5f8151905062000a0d81620009e4565b92915050565b5f73ffffffffffffffffffffffffffffffffffffffff82169050919050565b5f62000a3e8262000a13565b9050919050565b62000a508162000a32565b811462000a5b575f80fd5b50565b5f8151905062000a6e8162000a45565b92915050565b5f805f805f805f805f6101208a8c03121562000a955762000a9462000824565b5b5f8a015167ffffffffffffffff81111562000ab55762000ab462000828565b5b62000ac38c828d016200096e565b99505060208a015167ffffffffffffffff81111562000ae75762000ae662000828565b5b62000af58c828d016200096e565b985050604062000b088c828d01620009c5565b975050606062000b1b8c828d01620009fd565b965050608062000b2e8c828d01620009fd565b95505060a062000b418c828d0162000a5e565b94505060c062000b548c828d01620009fd565b93505060e062000b678c828d01620009fd565b92505061010062000b7b8c828d0162000a5e565b9150509295985092959850929598565b62000b968162000a32565b82525050565b5f60208201905062000bb15f83018462000b8b565b92915050565b5f81519050919050565b7f4e487b71000000000000000000000000000000000000000000000000000000005f52602260045260245ffd5b5f600282049050600182168062000c0657607f821691505b60208210810362000c1c5762000c1b62000bc1565b5b50919050565b5f819050815f5260205f209050919050565b5f6020601f8301049050919050565b5f82821b905092915050565b5f6008830262000c807fffffffffffffffffffffffffffffffffffffffffffffffffffffffffffffffff8262000c43565b62000c8c868362000c43565b95508019841693508086168417925050509392505050565b5f819050919050565b5f62000ccd62000cc762000cc184620009db565b62000ca4565b620009db565b9050919050565b5f819050919050565b62000ce88362000cad565b62000d0062000cf78262000cd4565b84845462000c4f565b825550505050565b5f90565b62000d1662000d08565b62000d2381848462000cdd565b505050565b5b8181101562000d4a5762000d3e5f8262000d0c565b60018101905062000d29565b5050565b601f82111562000d995762000d638162000c22565b62000d6e8462000c34565b8101602085101562000d7e578190505b62000d9662000d8d8562000c34565b83018262000d28565b50505b505050565b5f82821c905092915050565b5f62000dbb5f198460080262000d9e565b1980831691505092915050565b5f62000dd5838362000daa565b9150826002028217905092915050565b62000df08262000bb7565b67ffffffffffffffff81111562000e0c5762000e0b62000844565b5b62000e18825462000bee565b62000e2582828562000d4e565b5f60209050601f83116001811462000e5b575f841562000e46578287015190505b62000e52858262000dc8565b86555062000ec1565b601f19841662000e6b8662000c22565b5f5b8281101562000e945784890151825560018201915060208501945060208101905062000e6d565b8683101562000eb4578489015162000eb0601f89168262000daa565b8355505b6001600288020188555050505b505050505050565b5f82825260208201905092915050565b7f4361702073686f756c642062652067726561746572207468616e2030000000005f82015250565b5f62000f0f601c8362000ec9565b915062000f1c8262000ed9565b602082019050919050565b5f6020820190508181035f83015262000f408162000f01565b9050919050565b7f4e487b71000000000000000000000000000000000000000000000000000000005f52601160045260245ffd5b5f8160011c9050919050565b5f808291508390505b600185111562000fd15780860481111562000fa95762000fa862000f47565b5b600185161562000fb95780820291505b808102905062000fc98562000f74565b945062000f89565b94509492505050565b5f8262000feb5760019050620010bd565b8162000ffa575f9050620010bd565b81600181146200101357600281146200101e5762001054565b6001915050620010bd565b60ff84111562001033576200103262000f47565b5b8360020a9150848211156200104d576200104c62000f47565b5b50620010bd565b5060208310610133831016604e8410600b84101617156200108e5782820a90508381111562001088576200108762000f47565b5b620010bd565b6200109d848484600162000f80565b92509050818404811115620010b757620010b662000f47565b5b81810290505b9392505050565b5f620010d082620009db565b9150620010dd83620009a0565b92506200110c7fffffffffffffffffffffffffffffffffffffffffffffffffffffffffffffffff848462000fda565b905092915050565b5f6200112082620009db565b91506200112d83620009db565b92508282026200113d81620009db565b9150828204841483151762001157576200115662000f47565b5b5092915050565b7f45524332304361707065643a20636170206578636565646564000000000000005f82015250565b5f6200119460198362000ec9565b9150620011a1826200115e565b602082019050919050565b5f6020820190508181035f830152620011c58162001186565b9050919050565b7f496e73756666696369656e742066656520616d6f756e742073656e74000000005f82015250565b5f62001202601c8362000ec9565b91506200120f82620011cc565b602082019050919050565b5f6020820190508181035f8301526200123381620011f4565b9050919050565b7f496e76616c6964206665652072656365697665722061646472657373000000005f82015250565b5f62001270601c8362000ec9565b91506200127d826200123a565b602082019050919050565b5f6020820190508181035f830152620012a18162001262565b9050919050565b5f81905092915050565b50565b5f620012c25f83620012a8565b9150620012cf82620012b2565b5f82019050919050565b5f620012e582620012b5565b9150819050919050565b7f466565207472616e73666572206661696c6564000000000000000000000000005f82015250565b5f6200132560138362000ec9565b91506200133282620012ef565b602082019050919050565b5f6020820190508181035f830152620013568162001317565b9050919050565b5f6200136982620009db565b91506200137683620009db565b925082820190508082111562001391576200139062000f47565b5b92915050565b620013a281620009db565b82525050565b5f606082019050620013bd5f83018662000b8b565b620013cc602083018562001397565b620013db604083018462001397565b949350505050565b5f602082019050620013f85f83018462001397565b92915050565b61191f806200140c5f395ff3fe608060405234801561000f575f80fd5b5060043610610109575f3560e01c806370a08231116100a05780638da5cb5b1161006f5780638da5cb5b1461029357806395d89b41146102b1578063a9059cbb146102cf578063dd62ed3e146102ff578063f2fde38b1461032f57610109565b806370a082311461021f578063715018a61461024f578063743bfe70146102595780638baace251461027757610109565b806323b872dd116100dc57806323b872dd14610197578063313ce567146101c7578063355274ea146101e557806340c10f191461020357610109565b806303073dfc1461010d57806306fdde031461012b578063095ea7b31461014957806318160ddd14610179575b5f80fd5b61011561034b565b604051610122919061129b565b60405180910390f35b610133610373565b604051610140919061133e565b60405180910390f35b610163600480360381019061015e91906113bf565b610403565b6040516101709190611417565b60405180910390f35b610181610425565b60405161018e919061143f565b60405180910390f35b6101b160048036038101906101ac9190611458565b61042e565b6040516101be9190611417565b60405180910390f35b6101cf61045c565b6040516101dc91906114c3565b60405180910390f35b6101ed610471565b6040516101fa919061143f565b60405180910390f35b61021d600480360381019061021891906113bf565b61047a565b005b610239600480360381019061023491906114dc565b610490565b604051610246919061143f565b60405180910390f35b6102576104d6565b005b6102616104e9565b60405161026e919061143f565b60405180910390f35b610291600480360381019061028c91906114dc565b6104f2565b005b61029b610574565b6040516102a8919061129b565b60405180910390f35b6102b961059b565b6040516102c6919061133e565b60405180910390f35b6102e960048036038101906102e491906113bf565b61062b565b6040516102f69190611417565b60405180910390f35b61031960048036038101906103149190611507565b61098e565b604051610326919061143f565b60405180910390f35b610349600480360381019061034491906114dc565b610a10565b005b5f60095f9054906101000a900473ffffffffffffffffffffffffffffffffffffffff16905090565b60606004805461038290611572565b80601f01602080910402602001604051908101604052809291908181526020018280546103ae90611572565b80156103f95780601f106103d0576101008083540402835291602001916103f9565b820191905f5260205f20905b8154815290600101906020018083116103dc57829003601f168201915b5050505050905090565b5f8061040d610a94565b905061041a818585610a9b565b600191505092915050565b5f600354905090565b5f80610438610a94565b9050610445858285610aad565b610450858585610b40565b60019150509392505050565b5f60065f9054906101000a900460ff16905090565b5f600754905090565b610482610c30565b61048c8282610cb7565b5050565b5f60015f8373ffffffffffffffffffffffffffffffffffffffff1673ffffffffffffffffffffffffffffffffffffffff1681526020019081526020015f20549050919050565b6104de610c30565b6104e75f610db0565b565b5f600854905090565b6104fa610c30565b8060095f6101000a81548173ffffffffffffffffffffffffffffffffffffffff021916908373ffffffffffffffffffffffffffffffffffffffff1602179055507f3ca9233bd3849737ab1049144180bc625db2d51ca2c5ce949e7209eb32faa3a281604051610569919061129b565b60405180910390a150565b5f805f9054906101000a900473ffffffffffffffffffffffffffffffffffffffff16905090565b6060600580546105aa90611572565b80601f01602080910402602001604051908101604052809291908181526020018280546105d690611572565b80156106215780601f106105f857610100808354040283529160200191610621565b820191905f5260205f20905b81548152906001019060200180831161060457829003601f168201915b5050505050905090565b5f80610635610a94565b90505f6127106008548561064991906115cf565b610653919061163d565b90505f8185610662919061166d565b90508460015f8573ffffffffffffffffffffffffffffffffffffffff1673ffffffffffffffffffffffffffffffffffffffff1681526020019081526020015f20541015610727578260015f8573ffffffffffffffffffffffffffffffffffffffff1673ffffffffffffffffffffffffffffffffffffffff1681526020019081526020015f2054866040517fe450d38c00000000000000000000000000000000000000000000000000000000815260040161071e939291906116a0565b60405180910390fd5b8460015f8573ffffffffffffffffffffffffffffffffffffffff1673ffffffffffffffffffffffffffffffffffffffff1681526020019081526020015f205f828254610773919061166d565b925050819055508060015f8873ffffffffffffffffffffffffffffffffffffffff1673ffffffffffffffffffffffffffffffffffffffff1681526020019081526020015f205f8282546107c691906116d5565b925050819055505f73ffffffffffffffffffffffffffffffffffffffff1660095f9054906101000a900473ffffffffffffffffffffffffffffffffffffffff1673ffffffffffffffffffffffffffffffffffffffff1614610896578160015f60095f9054906101000a900473ffffffffffffffffffffffffffffffffffffffff1673ffffffffffffffffffffffffffffffffffffffff1673ffffffffffffffffffffffffffffffffffffffff1681526020019081526020015f205f82825461088e91906116d5565b925050819055505b8573ffffffffffffffffffffffffffffffffffffffff168373ffffffffffffffffffffffffffffffffffffffff167fddf252ad1be2c89b69c2b068fc378daa952ba7f163c4a11628f55a4df523b3ef836040516108f3919061143f565b60405180910390a360095f9054906101000a900473ffffffffffffffffffffffffffffffffffffffff1673ffffffffffffffffffffffffffffffffffffffff168373ffffffffffffffffffffffffffffffffffffffff167fddf252ad1be2c89b69c2b068fc378daa952ba7f163c4a11628f55a4df523b3ef84604051610979919061143f565b60405180910390a36001935050505092915050565b5f60025f8473ffffffffffffffffffffffffffffffffffffffff1673ffffffffffffffffffffffffffffffffffffffff1681526020019081526020015f205f8373ffffffffffffffffffffffffffffffffffffffff1673ffffffffffffffffffffffffffffffffffffffff1681526020019081526020015f2054905092915050565b610a18610c30565b5f73ffffffffffffffffffffffffffffffffffffffff168173ffffffffffffffffffffffffffffffffffffffff1603610a88575f6040517f1e4fbdf7000000000000000000000000000000000000000000000000000000008152600401610a7f919061129b565b60405180910390fd5b610a9181610db0565b50565b5f33905090565b610aa88383836001610e71565b505050565b5f610ab8848461098e565b90507fffffffffffffffffffffffffffffffffffffffffffffffffffffffffffffffff811015610b3a5781811015610b2b578281836040517ffb8f41b2000000000000000000000000000000000000000000000000000000008152600401610b22939291906116a0565b60405180910390fd5b610b3984848484035f610e71565b5b50505050565b5f73ffffffffffffffffffffffffffffffffffffffff168373ffffffffffffffffffffffffffffffffffffffff1603610bb0575f6040517f96c6fd1e000000000000000000000000000000000000000000000000000000008152600401610ba7919061129b565b60405180910390fd5b5f73ffffffffffffffffffffffffffffffffffffffff168273ffffffffffffffffffffffffffffffffffffffff1603610c20575f6040517fec442f05000000000000000000000000000000000000000000000000000000008152600401610c17919061129b565b60405180910390fd5b610c2b838383611040565b505050565b610c38610a94565b73ffffffffffffffffffffffffffffffffffffffff16610c56610574565b73ffffffffffffffffffffffffffffffffffffffff1614610cb557610c79610a94565b6040517f118cdaa7000000000000000000000000000000000000000000000000000000008152600401610cac919061129b565b60405180910390fd5b565b610cbf61045c565b600a610ccb9190611837565b610cd3610471565b610cdd91906115cf565b81610ce6610425565b610cf091906116d5565b1115610d31576040517f08c379a0000000000000000000000000000000000000000000000000000000008152600401610d28906118cb565b60405180910390fd5b5f73ffffffffffffffffffffffffffffffffffffffff168273ffffffffffffffffffffffffffffffffffffffff1603610da1575f6040517fec442f05000000000000000000000000000000000000000000000000000000008152600401610d98919061129b565b60405180910390fd5b610dac5f8383611040565b5050565b5f805f9054906101000a900473ffffffffffffffffffffffffffffffffffffffff169050815f806101000a81548173ffffffffffffffffffffffffffffffffffffffff021916908373ffffffffffffffffffffffffffffffffffffffff1602179055508173ffffffffffffffffffffffffffffffffffffffff168173ffffffffffffffffffffffffffffffffffffffff167f8be0079c531659141344cd1fd0a4f28419497f9722a3daafe3b4186f6b6457e060405160405180910390a35050565b5f73ffffffffffffffffffffffffffffffffffffffff168473ffffffffffffffffffffffffffffffffffffffff1603610ee1575f6040517fe602df05000000000000000000000000000000000000000000000000000000008152600401610ed8919061129b565b60405180910390fd5b5f73ffffffffffffffffffffffffffffffffffffffff168373ffffffffffffffffffffffffffffffffffffffff1603610f51575f6040517f94280d62000000000000000000000000000000000000000000000000000000008152600401610f48919061129b565b60405180910390fd5b8160025f8673ffffffffffffffffffffffffffffffffffffffff1673ffffffffffffffffffffffffffffffffffffffff1681526020019081526020015f205f8573ffffffffffffffffffffffffffffffffffffffff1673ffffffffffffffffffffffffffffffffffffffff1681526020019081526020015f2081905550801561103a578273ffffffffffffffffffffffffffffffffffffffff168473ffffffffffffffffffffffffffffffffffffffff167f8c5be1e5ebec7d5bd14f71427d1e84f3dd0314c0f7b2291e5b200ac8c7c3b92584604051611031919061143f565b60405180910390a35b50505050565b5f73ffffffffffffffffffffffffffffffffffffffff168373ffffffffffffffffffffffffffffffffffffffff1603611090578060035f82825461108491906116d5565b92505081905550611160565b5f60015f8573ffffffffffffffffffffffffffffffffffffffff1673ffffffffffffffffffffffffffffffffffffffff1681526020019081526020015f205490508181101561111a578381836040517fe450d38c000000000000000000000000000000000000000000000000000000008152600401611111939291906116a0565b60405180910390fd5b81810360015f8673ffffffffffffffffffffffffffffffffffffffff1673ffffffffffffffffffffffffffffffffffffffff1681526020019081526020015f2081905550505b5f73ffffffffffffffffffffffffffffffffffffffff168273ffffffffffffffffffffffffffffffffffffffff16036111a7578060035f82825403925050819055506111f2565b8060015f8473ffffffffffffffffffffffffffffffffffffffff1673ffffffffffffffffffffffffffffffffffffffff1681526020019081526020015f205f82825401925050819055505b8173ffffffffffffffffffffffffffffffffffffffff168373ffffffffffffffffffffffffffffffffffffffff167fddf252ad1be2c89b69c2b068fc378daa952ba7f163c4a11628f55a4df523b3ef8360405161124f919061143f565b60405180910390a3505050565b5f73ffffffffffffffffffffffffffffffffffffffff82169050919050565b5f6112858261125c565b9050919050565b6112958161127b565b82525050565b5f6020820190506112ae5f83018461128c565b92915050565b5f81519050919050565b5f82825260208201905092915050565b5f5b838110156112eb5780820151818401526020810190506112d0565b5f8484015250505050565b5f601f19601f8301169050919050565b5f611310826112b4565b61131a81856112be565b935061132a8185602086016112ce565b611333816112f6565b840191505092915050565b5f6020820190508181035f8301526113568184611306565b905092915050565b5f80fd5b61136b8161127b565b8114611375575f80fd5b50565b5f8135905061138681611362565b92915050565b5f819050919050565b61139e8161138c565b81146113a8575f80fd5b50565b5f813590506113b981611395565b92915050565b5f80604083850312156113d5576113d461135e565b5b5f6113e285828601611378565b92505060206113f3858286016113ab565b9150509250929050565b5f8115159050919050565b611411816113fd565b82525050565b5f60208201905061142a5f830184611408565b92915050565b6114398161138c565b82525050565b5f6020820190506114525f830184611430565b92915050565b5f805f6060848603121561146f5761146e61135e565b5b5f61147c86828701611378565b935050602061148d86828701611378565b925050604061149e868287016113ab565b9150509250925092565b5f60ff82169050919050565b6114bd816114a8565b82525050565b5f6020820190506114d65f8301846114b4565b92915050565b5f602082840312156114f1576114f061135e565b5b5f6114fe84828501611378565b91505092915050565b5f806040838503121561151d5761151c61135e565b5b5f61152a85828601611378565b925050602061153b85828601611378565b9150509250929050565b7f4e487b71000000000000000000000000000000000000000000000000000000005f52602260045260245ffd5b5f600282049050600182168061158957607f821691505b60208210810361159c5761159b611545565b5b50919050565b7f4e487b71000000000000000000000000000000000000000000000000000000005f52601160045260245ffd5b5f6115d98261138c565b91506115e48361138c565b92508282026115f28161138c565b91508282048414831517611609576116086115a2565b5b5092915050565b7f4e487b71000000000000000000000000000000000000000000000000000000005f52601260045260245ffd5b5f6116478261138c565b91506116528361138c565b92508261166257611661611610565b5b828204905092915050565b5f6116778261138c565b91506116828361138c565b925082820390508181111561169a576116996115a2565b5b92915050565b5f6060820190506116b35f83018661128c565b6116c06020830185611430565b6116cd6040830184611430565b949350505050565b5f6116df8261138c565b91506116ea8361138c565b9250828201905080821115611702576117016115a2565b5b92915050565b5f8160011c9050919050565b5f808291508390505b600185111561175d57808604811115611739576117386115a2565b5b60018516156117485780820291505b808102905061175685611708565b945061171d565b94509492505050565b5f826117755760019050611830565b81611782575f9050611830565b816001811461179857600281146117a2576117d1565b6001915050611830565b60ff8411156117b4576117b36115a2565b5b8360020a9150848211156117cb576117ca6115a2565b5b50611830565b5060208310610133831016604e8410600b84101617156118065782820a905083811115611801576118006115a2565b5b611830565b6118138484846001611714565b9250905081840481111561182a576118296115a2565b5b81810290505b9392505050565b5f6118418261138c565b915061184c836114a8565b92506118797fffffffffffffffffffffffffffffffffffffffffffffffffffffffffffffffff8484611766565b905092915050565b7f45524332304361707065643a20636170206578636565646564000000000000005f82015250565b5f6118b56019836112be565b91506118c082611881565b602082019050919050565b5f6020820190508181035f8301526118e2816118a9565b905091905056fea26469706673582212203a3173964d36d3abdefa523bc8e2adbd4df6650c831c9a8616b1b6eff87dd7e364736f6c63430008170033","linkReferences":{}},"methodIdentifiers":{"allowance(address,address)":"dd62ed3e","approve(address,uint256)":"095ea7b3","balanceOf(address)":"70a08231","cap()":"355274ea","decimals()":"313ce567","getTaxFeeRecipient()":"03073dfc","getTransferTaxBps()":"743bfe70","mint(address,uint256)":"40c10f19","name()":"06fdde03","owner()":"8da5cb5b","renounceOwnership()":"715018a6","symbol()":"95d89b41","totalSupply()":"18160ddd","transfer(address,uint256)":"a9059cbb","transferFrom(address,address,uint256)":"23b872dd","transferOwnership(address)":"f2fde38b","updateTaxFeeRecipient(address)":"8baace25"},"id":20}