{"abi":[{"type":"constructor","inputs":[{"name":"name_","type":"string","internalType":"string"},{"name":"symbol_","type":"string","internalType":"string"},{"name":"decimals_","type":"uint8","internalType":"uint8"},{"name":"totalSupply_","type":"uint256","internalType":"uint256"},{"name":"cap_","type":"uint256","internalType":"uint256"},{"name":"serviceFeeReceiver_","type":"address","internalType":"address"},{"name":"serviceFee_","type":"uint256","internalType":"uint256"}],"stateMutability":"payable"},{"type":"function","name":"allowance","inputs":[{"name":"owner","type":"address","internalType":"address"},{"name":"spender","type":"address","internalType":"address"}],"outputs":[{"name":"","type":"uint256","internalType":"uint256"}],"stateMutability":"view"},{"type":"function","name":"approve","inputs":[{"name":"spender","type":"address","internalType":"address"},{"name":"value","type":"uint256","internalType":"uint256"}],"outputs":[{"name":"","type":"bool","internalType":"bool"}],"stateMutability":"nonpayable"},{"type":"function","name":"balanceOf","inputs":[{"name":"account","type":"address","internalType":"address"}],"outputs":[{"name":"","type":"uint256","internalType":"uint256"}],"stateMutability":"view"},{"type":"function","name":"cap","inputs":[],"outputs":[{"name":"","type":"uint256","internalType":"uint256"}],"stateMutability":"view"},{"type":"function","name":"decimals","inputs":[],"outputs":[{"name":"","type":"uint8","internalType":"uint8"}],"stateMutability":"view"},{"type":"function","name":"mint","inputs":[{"name":"to","type":"address","internalType":"address"},{"name":"amount","type":"uint256","internalType":"uint256"}],"outputs":[],"stateMutability":"nonpayable"},{"type":"function","name":"name","inputs":[],"outputs":[{"name":"","type":"string","internalType":"string"}],"stateMutability":"view"},{"type":"function","name":"owner","inputs":[],"outputs":[{"name":"","type":"address","internalType":"address"}],"stateMutability":"view"},{"type":"function","name":"renounceOwnership","inputs":[],"outputs":[],"stateMutability":"nonpayable"},{"type":"function","name":"symbol","inputs":[],"outputs":[{"name":"","type":"string","internalType":"string"}],"stateMutability":"view"},{"type":"function","name":"totalSupply","inputs":[],"outputs":[{"name":"","type":"uint256","internalType":"uint256"}],"stateMutability":"view"},{"type":"function","name":"transfer","inputs":[{"name":"to","type":"address","internalType":"address"},{"name":"value","type":"uint256","internalType":"uint256"}],"outputs":[{"name":"","type":"bool","internalType":"bool"}],"stateMutability":"nonpayable"},{"type":"function","name":"transferFrom","inputs":[{"name":"from","type":"address","internalType":"address"},{"name":"to","type":"address","internalType":"address"},{"name":"value","type":"uint256","internalType":"uint256"}],"outputs":[{"name":"","type":"bool","internalType":"bool"}],"stateMutability":"nonpayable"},{"type":"function","name":"transferOwnership","inputs":[{"name":"newOwner","type":"address","internalType":"address"}],"outputs":[],"stateMutability":"nonpayable"},{"type":"event","name":"Approval","inputs":[{"name":"owner","type":"address","indexed":true,"internalType":"address"},{"name":"spender","type":"address","indexed":true,"internalType":"address"},{"name":"value","type":"uint256","indexed":false,"internalType":"uint256"}],"anonymous":false},{"type":"event","name":"OwnershipTransferred","inputs":[{"name":"previousOwner","type":"address","indexed":true,"internalType":"address"},{"name":"newOwner","type":"address","indexed":true,"internalType":"address"}],"anonymous":false},{"type":"event","name":"Transfer","inputs":[{"name":"from","type":"address","indexed":true,"internalType":"address"},{"name":"to","type":"address","indexed":true,"internalType":"address"},{"name":"value","type":"uint256","indexed":false,"internalType":"uint256"}],"anonymous":false},{"type":"error","name":"ERC20InsufficientAllowance","inputs":[{"name":"spender","type":"address","internalType":"address"},{"name":"allowance","type":"uint256","internalType":"uint256"},{"name":"needed","type":"uint256","internalType":"uint256"}]},{"type":"error","name":"ERC20InsufficientBalance","inputs":[{"name":"sender","type":"address","internalType":"address"},{"name":"balance","type":"uint256","internalType":"uint256"},{"name":"needed","type":"uint256","internalType":"uint256"}]},{"type":"error","name":"ERC20InvalidApprover","inputs":[{"name":"approver","type":"address","internalType":"address"}]},{"type":"error","name":"ERC20InvalidReceiver","inputs":[{"name":"receiver","type":"address","internalType":"address"}]},{"type":"error","name":"ERC20InvalidSender","inputs":[{"name":"sender","type":"address","internalType":"address"}]},{"type":"error","name":"ERC20InvalidSpender","inputs":[{"name":"spender","type":"address","internalType":"address"}]},{"type":"error","name":"OwnableInvalidOwner","inputs":[{"name":"owner","type":"address","internalType":"address"}]},{"type":"error","name":"OwnableUnauthorizedAccount","inputs":[{"name":"account","type":"address","internalType":"address"}]}],"bytecode":{"object":"0x608060405260405161264838038061264883398181016040528101906100259190610990565b335f73ffffffffffffffffffffffffffffffffffffffff168173ffffffffffffffffffffffffffffffffffffffff1603610096575f6040517f1e4fbdf700000000000000000000000000000000000000000000000000000000815260040161008d9190610a74565b60405180910390fd5b6100a58161034460201b60201c565b5086600490816100b59190610c94565b5085600590816100c59190610c94565b508460065f6101000a81548160ff021916908360ff1602179055505f8311610122576040517f08c379a000000000000000000000000000000000000000000000000000000000815260040161011990610dbd565b60405180910390fd5b8260078190555061013761040560201b60201c565b600a6101439190610f37565b61015161041a60201b60201c565b61015b9190610f81565b84111561019d576040517f08c379a00000000000000000000000000000000000000000000000000000000081526004016101949061100c565b60405180910390fd5b803410156101e0576040517f08c379a00000000000000000000000000000000000000000000000000000000081526004016101d790611074565b60405180910390fd5b5f73ffffffffffffffffffffffffffffffffffffffff168273ffffffffffffffffffffffffffffffffffffffff160361024e576040517f08c379a0000000000000000000000000000000000000000000000000000000008152600401610245906110dc565b60405180910390fd5b5f8273ffffffffffffffffffffffffffffffffffffffff168260405161027390611127565b5f6040518083038185875af1925050503d805f81146102ad576040519150601f19603f3d011682016040523d82523d5f602084013e6102b2565b606091505b50509050806102f6576040517f08c379a00000000000000000000000000000000000000000000000000000000081526004016102ed90611185565b60405180910390fd5b61033761030761042360201b60201c565b61031561040560201b60201c565b600a6103219190610f37565b8761032c9190610f81565b61044a60201b60201c565b5050505050505050611233565b5f5f5f9054906101000a900473ffffffffffffffffffffffffffffffffffffffff169050815f5f6101000a81548173ffffffffffffffffffffffffffffffffffffffff021916908373ffffffffffffffffffffffffffffffffffffffff1602179055508173ffffffffffffffffffffffffffffffffffffffff168173ffffffffffffffffffffffffffffffffffffffff167f8be0079c531659141344cd1fd0a4f28419497f9722a3daafe3b4186f6b6457e060405160405180910390a35050565b5f60065f9054906101000a900460ff16905090565b5f600754905090565b5f5f5f9054906101000a900473ffffffffffffffffffffffffffffffffffffffff16905090565b61045861040560201b60201c565b600a6104649190610f37565b61047261041a60201b60201c565b61047c9190610f81565b8161048b61055b60201b60201c565b61049591906111a3565b11156104d6576040517f08c379a00000000000000000000000000000000000000000000000000000000081526004016104cd9061100c565b60405180910390fd5b5f73ffffffffffffffffffffffffffffffffffffffff168273ffffffffffffffffffffffffffffffffffffffff1603610546575f6040517fec442f0500000000000000000000000000000000000000000000000000000000815260040161053d9190610a74565b60405180910390fd5b6105575f838361056460201b60201c565b5050565b5f600354905090565b5f73ffffffffffffffffffffffffffffffffffffffff168373ffffffffffffffffffffffffffffffffffffffff16036105b4578060035f8282546105a891906111a3565b92505081905550610684565b5f60015f8573ffffffffffffffffffffffffffffffffffffffff1673ffffffffffffffffffffffffffffffffffffffff1681526020019081526020015f205490508181101561063e578381836040517fe450d38c000000000000000000000000000000000000000000000000000000008152600401610635939291906111e5565b60405180910390fd5b81810360015f8673ffffffffffffffffffffffffffffffffffffffff1673ffffffffffffffffffffffffffffffffffffffff1681526020019081526020015f2081905550505b5f73ffffffffffffffffffffffffffffffffffffffff168273ffffffffffffffffffffffffffffffffffffffff16036106cb578060035f8282540392505081905550610716565b8060015f8473ffffffffffffffffffffffffffffffffffffffff1673ffffffffffffffffffffffffffffffffffffffff1681526020019081526020015f205f82825401925050819055505b8173ffffffffffffffffffffffffffffffffffffffff168373ffffffffffffffffffffffffffffffffffffffff167fddf252ad1be2c89b69c2b068fc378daa952ba7f163c4a11628f55a4df523b3ef83604051610773919061121a565b60405180910390a3505050565b5f604051905090565b5f5ffd5b5f5ffd5b5f5ffd5b5f5ffd5b5f601f19601f8301169050919050565b7f4e487b71000000000000000000000000000000000000000000000000000000005f52604160045260245ffd5b6107df82610799565b810181811067ffffffffffffffff821117156107fe576107fd6107a9565b5b80604052505050565b5f610810610780565b905061081c82826107d6565b919050565b5f67ffffffffffffffff82111561083b5761083a6107a9565b5b61084482610799565b9050602081019050919050565b8281835e5f83830152505050565b5f61087161086c84610821565b610807565b90508281526020810184848401111561088d5761088c610795565b5b610898848285610851565b509392505050565b5f82601f8301126108b4576108b3610791565b5b81516108c484826020860161085f565b91505092915050565b5f60ff82169050919050565b6108e2816108cd565b81146108ec575f5ffd5b50565b5f815190506108fd816108d9565b92915050565b5f819050919050565b61091581610903565b811461091f575f5ffd5b50565b5f815190506109308161090c565b92915050565b5f73ffffffffffffffffffffffffffffffffffffffff82169050919050565b5f61095f82610936565b9050919050565b61096f81610955565b8114610979575f5ffd5b50565b5f8151905061098a81610966565b92915050565b5f5f5f5f5f5f5f60e0888a0312156109ab576109aa610789565b5b5f88015167ffffffffffffffff8111156109c8576109c761078d565b5b6109d48a828b016108a0565b975050602088015167ffffffffffffffff8111156109f5576109f461078d565b5b610a018a828b016108a0565b9650506040610a128a828b016108ef565b9550506060610a238a828b01610922565b9450506080610a348a828b01610922565b93505060a0610a458a828b0161097c565b92505060c0610a568a828b01610922565b91505092959891949750929550565b610a6e81610955565b82525050565b5f602082019050610a875f830184610a65565b92915050565b5f81519050919050565b7f4e487b71000000000000000000000000000000000000000000000000000000005f52602260045260245ffd5b5f6002820490506001821680610adb57607f821691505b602082108103610aee57610aed610a97565b5b50919050565b5f819050815f5260205f209050919050565b5f6020601f8301049050919050565b5f82821b905092915050565b5f60088302610b507fffffffffffffffffffffffffffffffffffffffffffffffffffffffffffffffff82610b15565b610b5a8683610b15565b95508019841693508086168417925050509392505050565b5f819050919050565b5f610b95610b90610b8b84610903565b610b72565b610903565b9050919050565b5f819050919050565b610bae83610b7b565b610bc2610bba82610b9c565b848454610b21565b825550505050565b5f5f905090565b610bd9610bca565b610be4818484610ba5565b505050565b5b81811015610c0757610bfc5f82610bd1565b600181019050610bea565b5050565b601f821115610c4c57610c1d81610af4565b610c2684610b06565b81016020851015610c35578190505b610c49610c4185610b06565b830182610be9565b50505b505050565b5f82821c905092915050565b5f610c6c5f1984600802610c51565b1980831691505092915050565b5f610c848383610c5d565b9150826002028217905092915050565b610c9d82610a8d565b67ffffffffffffffff811115610cb657610cb56107a9565b5b610cc08254610ac4565b610ccb828285610c0b565b5f60209050601f831160018114610cfc575f8415610cea578287015190505b610cf48582610c79565b865550610d5b565b601f198416610d0a86610af4565b5f5b82811015610d3157848901518255600182019150602085019450602081019050610d0c565b86831015610d4e5784890151610d4a601f891682610c5d565b8355505b6001600288020188555050505b505050505050565b5f82825260208201905092915050565b7f4361702073686f756c642062652067726561746572207468616e2030000000005f82015250565b5f610da7601c83610d63565b9150610db282610d73565b602082019050919050565b5f6020820190508181035f830152610dd481610d9b565b9050919050565b7f4e487b71000000000000000000000000000000000000000000000000000000005f52601160045260245ffd5b5f8160011c9050919050565b5f5f8291508390505b6001851115610e5d57808604811115610e3957610e38610ddb565b5b6001851615610e485780820291505b8081029050610e5685610e08565b9450610e1d565b94509492505050565b5f82610e755760019050610f30565b81610e82575f9050610f30565b8160018114610e985760028114610ea257610ed1565b6001915050610f30565b60ff841115610eb457610eb3610ddb565b5b8360020a915084821115610ecb57610eca610ddb565b5b50610f30565b5060208310610133831016604e8410600b8410161715610f065782820a905083811115610f0157610f00610ddb565b5b610f30565b610f138484846001610e14565b92509050818404811115610f2a57610f29610ddb565b5b81810290505b9392505050565b5f610f4182610903565b9150610f4c836108cd565b9250610f797fffffffffffffffffffffffffffffffffffffffffffffffffffffffffffffffff8484610e66565b905092915050565b5f610f8b82610903565b9150610f9683610903565b9250828202610fa481610903565b91508282048414831517610fbb57610fba610ddb565b5b5092915050565b7f45524332304361707065643a20636170206578636565646564000000000000005f82015250565b5f610ff6601983610d63565b915061100182610fc2565b602082019050919050565b5f6020820190508181035f83015261102381610fea565b9050919050565b7f496e73756666696369656e742066656520616d6f756e742073656e74000000005f82015250565b5f61105e601c83610d63565b91506110698261102a565b602082019050919050565b5f6020820190508181035f83015261108b81611052565b9050919050565b7f496e76616c6964206665652072656365697665722061646472657373000000005f82015250565b5f6110c6601c83610d63565b91506110d182611092565b602082019050919050565b5f6020820190508181035f8301526110f3816110ba565b9050919050565b5f81905092915050565b50565b5f6111125f836110fa565b915061111d82611104565b5f82019050919050565b5f61113182611107565b9150819050919050565b7f466565207472616e73666572206661696c6564000000000000000000000000005f82015250565b5f61116f601383610d63565b915061117a8261113b565b602082019050919050565b5f6020820190508181035f83015261119c81611163565b9050919050565b5f6111ad82610903565b91506111b883610903565b92508282019050808211156111d0576111cf610ddb565b5b92915050565b6111df81610903565b82525050565b5f6060820190506111f85f830186610a65565b61120560208301856111d6565b61121260408301846111d6565b949350505050565b5f60208201905061122d5f8301846111d6565b92915050565b611408806112405f395ff3fe608060405234801561000f575f5ffd5b50600436106100e8575f3560e01c806370a082311161008a57806395d89b411161006457806395d89b4114610238578063a9059cbb14610256578063dd62ed3e14610286578063f2fde38b146102b6576100e8565b806370a08231146101e0578063715018a6146102105780638da5cb5b1461021a576100e8565b806323b872dd116100c657806323b872dd14610158578063313ce56714610188578063355274ea146101a657806340c10f19146101c4576100e8565b806306fdde03146100ec578063095ea7b31461010a57806318160ddd1461013a575b5f5ffd5b6100f46102d2565b6040516101019190610e5f565b60405180910390f35b610124600480360381019061011f9190610f10565b610362565b6040516101319190610f68565b60405180910390f35b610142610384565b60405161014f9190610f90565b60405180910390f35b610172600480360381019061016d9190610fa9565b61038d565b60405161017f9190610f68565b60405180910390f35b6101906103bb565b60405161019d9190611014565b60405180910390f35b6101ae6103d0565b6040516101bb9190610f90565b60405180910390f35b6101de60048036038101906101d99190610f10565b6103d9565b005b6101fa60048036038101906101f5919061102d565b6103ef565b6040516102079190610f90565b60405180910390f35b610218610435565b005b610222610448565b60405161022f9190611067565b60405180910390f35b61024061046f565b60405161024d9190610e5f565b60405180910390f35b610270600480360381019061026b9190610f10565b6104ff565b60405161027d9190610f68565b60405180910390f35b6102a0600480360381019061029b9190611080565b610521565b6040516102ad9190610f90565b60405180910390f35b6102d060048036038101906102cb919061102d565b6105a3565b005b6060600480546102e1906110eb565b80601f016020809104026020016040519081016040528092919081815260200182805461030d906110eb565b80156103585780601f1061032f57610100808354040283529160200191610358565b820191905f5260205f20905b81548152906001019060200180831161033b57829003601f168201915b5050505050905090565b5f5f61036c610627565b905061037981858561062e565b600191505092915050565b5f600354905090565b5f5f610397610627565b90506103a4858285610640565b6103af8585856106d3565b60019150509392505050565b5f60065f9054906101000a900460ff16905090565b5f600754905090565b6103e16107c3565b6103eb828261084a565b5050565b5f60015f8373ffffffffffffffffffffffffffffffffffffffff1673ffffffffffffffffffffffffffffffffffffffff1681526020019081526020015f20549050919050565b61043d6107c3565b6104465f610943565b565b5f5f5f9054906101000a900473ffffffffffffffffffffffffffffffffffffffff16905090565b60606005805461047e906110eb565b80601f01602080910402602001604051908101604052809291908181526020018280546104aa906110eb565b80156104f55780601f106104cc576101008083540402835291602001916104f5565b820191905f5260205f20905b8154815290600101906020018083116104d857829003601f168201915b5050505050905090565b5f5f610509610627565b90506105168185856106d3565b600191505092915050565b5f60025f8473ffffffffffffffffffffffffffffffffffffffff1673ffffffffffffffffffffffffffffffffffffffff1681526020019081526020015f205f8373ffffffffffffffffffffffffffffffffffffffff1673ffffffffffffffffffffffffffffffffffffffff1681526020019081526020015f2054905092915050565b6105ab6107c3565b5f73ffffffffffffffffffffffffffffffffffffffff168173ffffffffffffffffffffffffffffffffffffffff160361061b575f6040517f1e4fbdf70000000000000000000000000000000000000000000000000000000081526004016106129190611067565b60405180910390fd5b61062481610943565b50565b5f33905090565b61063b8383836001610a04565b505050565b5f61064b8484610521565b90507fffffffffffffffffffffffffffffffffffffffffffffffffffffffffffffffff8110156106cd57818110156106be578281836040517ffb8f41b20000000000000000000000000000000000000000000000000000000081526004016106b59392919061111b565b60405180910390fd5b6106cc84848484035f610a04565b5b50505050565b5f73ffffffffffffffffffffffffffffffffffffffff168373ffffffffffffffffffffffffffffffffffffffff1603610743575f6040517f96c6fd1e00000000000000000000000000000000000000000000000000000000815260040161073a9190611067565b60405180910390fd5b5f73ffffffffffffffffffffffffffffffffffffffff168273ffffffffffffffffffffffffffffffffffffffff16036107b3575f6040517fec442f050000000000000000000000000000000000000000000000000000000081526004016107aa9190611067565b60405180910390fd5b6107be838383610bd3565b505050565b6107cb610627565b73ffffffffffffffffffffffffffffffffffffffff166107e9610448565b73ffffffffffffffffffffffffffffffffffffffff16146108485761080c610627565b6040517f118cdaa700000000000000000000000000000000000000000000000000000000815260040161083f9190611067565b60405180910390fd5b565b6108526103bb565b600a61085e91906112ac565b6108666103d0565b61087091906112f6565b81610879610384565b6108839190611337565b11156108c4576040517f08c379a00000000000000000000000000000000000000000000000000000000081526004016108bb906113b4565b60405180910390fd5b5f73ffffffffffffffffffffffffffffffffffffffff168273ffffffffffffffffffffffffffffffffffffffff1603610934575f6040517fec442f0500000000000000000000000000000000000000000000000000000000815260040161092b9190611067565b60405180910390fd5b61093f5f8383610bd3565b5050565b5f5f5f9054906101000a900473ffffffffffffffffffffffffffffffffffffffff169050815f5f6101000a81548173ffffffffffffffffffffffffffffffffffffffff021916908373ffffffffffffffffffffffffffffffffffffffff1602179055508173ffffffffffffffffffffffffffffffffffffffff168173ffffffffffffffffffffffffffffffffffffffff167f8be0079c531659141344cd1fd0a4f28419497f9722a3daafe3b4186f6b6457e060405160405180910390a35050565b5f73ffffffffffffffffffffffffffffffffffffffff168473ffffffffffffffffffffffffffffffffffffffff1603610a74575f6040517fe602df05000000000000000000000000000000000000000000000000000000008152600401610a6b9190611067565b60405180910390fd5b5f73ffffffffffffffffffffffffffffffffffffffff168373ffffffffffffffffffffffffffffffffffffffff1603610ae4575f6040517f94280d62000000000000000000000000000000000000000000000000000000008152600401610adb9190611067565b60405180910390fd5b8160025f8673ffffffffffffffffffffffffffffffffffffffff1673ffffffffffffffffffffffffffffffffffffffff1681526020019081526020015f205f8573ffffffffffffffffffffffffffffffffffffffff1673ffffffffffffffffffffffffffffffffffffffff1681526020019081526020015f20819055508015610bcd578273ffffffffffffffffffffffffffffffffffffffff168473ffffffffffffffffffffffffffffffffffffffff167f8c5be1e5ebec7d5bd14f71427d1e84f3dd0314c0f7b2291e5b200ac8c7c3b92584604051610bc49190610f90565b60405180910390a35b50505050565b5f73ffffffffffffffffffffffffffffffffffffffff168373ffffffffffffffffffffffffffffffffffffffff1603610c23578060035f828254610c179190611337565b92505081905550610cf3565b5f60015f8573ffffffffffffffffffffffffffffffffffffffff1673ffffffffffffffffffffffffffffffffffffffff1681526020019081526020015f2054905081811015610cad578381836040517fe450d38c000000000000000000000000000000000000000000000000000000008152600401610ca49392919061111b565b60405180910390fd5b81810360015f8673ffffffffffffffffffffffffffffffffffffffff1673ffffffffffffffffffffffffffffffffffffffff1681526020019081526020015f2081905550505b5f73ffffffffffffffffffffffffffffffffffffffff168273ffffffffffffffffffffffffffffffffffffffff1603610d3a578060035f8282540392505081905550610d85565b8060015f8473ffffffffffffffffffffffffffffffffffffffff1673ffffffffffffffffffffffffffffffffffffffff1681526020019081526020015f205f82825401925050819055505b8173ffffffffffffffffffffffffffffffffffffffff168373ffffffffffffffffffffffffffffffffffffffff167fddf252ad1be2c89b69c2b068fc378daa952ba7f163c4a11628f55a4df523b3ef83604051610de29190610f90565b60405180910390a3505050565b5f81519050919050565b5f82825260208201905092915050565b8281835e5f83830152505050565b5f601f19601f8301169050919050565b5f610e3182610def565b610e3b8185610df9565b9350610e4b818560208601610e09565b610e5481610e17565b840191505092915050565b5f6020820190508181035f830152610e778184610e27565b905092915050565b5f5ffd5b5f73ffffffffffffffffffffffffffffffffffffffff82169050919050565b5f610eac82610e83565b9050919050565b610ebc81610ea2565b8114610ec6575f5ffd5b50565b5f81359050610ed781610eb3565b92915050565b5f819050919050565b610eef81610edd565b8114610ef9575f5ffd5b50565b5f81359050610f0a81610ee6565b92915050565b5f5f60408385031215610f2657610f25610e7f565b5b5f610f3385828601610ec9565b9250506020610f4485828601610efc565b9150509250929050565b5f8115159050919050565b610f6281610f4e565b82525050565b5f602082019050610f7b5f830184610f59565b92915050565b610f8a81610edd565b82525050565b5f602082019050610fa35f830184610f81565b92915050565b5f5f5f60608486031215610fc057610fbf610e7f565b5b5f610fcd86828701610ec9565b9350506020610fde86828701610ec9565b9250506040610fef86828701610efc565b9150509250925092565b5f60ff82169050919050565b61100e81610ff9565b82525050565b5f6020820190506110275f830184611005565b92915050565b5f6020828403121561104257611041610e7f565b5b5f61104f84828501610ec9565b91505092915050565b61106181610ea2565b82525050565b5f60208201905061107a5f830184611058565b92915050565b5f5f6040838503121561109657611095610e7f565b5b5f6110a385828601610ec9565b92505060206110b485828601610ec9565b9150509250929050565b7f4e487b71000000000000000000000000000000000000000000000000000000005f52602260045260245ffd5b5f600282049050600182168061110257607f821691505b602082108103611115576111146110be565b5b50919050565b5f60608201905061112e5f830186611058565b61113b6020830185610f81565b6111486040830184610f81565b949350505050565b7f4e487b71000000000000000000000000000000000000000000000000000000005f52601160045260245ffd5b5f8160011c9050919050565b5f5f8291508390505b60018511156111d2578086048111156111ae576111ad611150565b5b60018516156111bd5780820291505b80810290506111cb8561117d565b9450611192565b94509492505050565b5f826111ea57600190506112a5565b816111f7575f90506112a5565b816001811461120d576002811461121757611246565b60019150506112a5565b60ff84111561122957611228611150565b5b8360020a9150848211156112405761123f611150565b5b506112a5565b5060208310610133831016604e8410600b841016171561127b5782820a90508381111561127657611275611150565b5b6112a5565b6112888484846001611189565b9250905081840481111561129f5761129e611150565b5b81810290505b9392505050565b5f6112b682610edd565b91506112c183610ff9565b92506112ee7fffffffffffffffffffffffffffffffffffffffffffffffffffffffffffffffff84846111db565b905092915050565b5f61130082610edd565b915061130b83610edd565b925082820261131981610edd565b915082820484148315176113305761132f611150565b5b5092915050565b5f61134182610edd565b915061134c83610edd565b925082820190508082111561136457611363611150565b5b92915050565b7f45524332304361707065643a20636170206578636565646564000000000000005f82015250565b5f61139e601983610df9565b91506113a98261136a565b602082019050919050565b5f6020820190508181035f8301526113cb81611392565b905091905056fea2646970667358221220523fec971157fe04dc81a1144f0498d5fff42fefc8cc03b36b6b73d201a8afa264736f6c634300081c0033","linkReferences":{}},"methodIdentifiers":{"allowance(address,address)":"dd62ed3e","approve(address,uint256)":"095ea7b3","balanceOf(address)":"70a08231","cap()":"355274ea","decimals()":"313ce567","mint(address,uint256)":"40c10f19","name()":"06fdde03","owner()":"8da5cb5b","renounceOwnership()":"715018a6","symbol()":"95d89b41","totalSupply()":"18160ddd","transfer(address,uint256)":"a9059cbb","transferFrom(address,address,uint256)":"23b872dd","transferOwnership(address)":"f2fde38b"},"id":17}