{"abi":[{"type":"constructor","inputs":[{"name":"name_","type":"string","internalType":"string"},{"name":"symbol_","type":"string","internalType":"string"},{"name":"decimals_","type":"uint8","internalType":"uint8"},{"name":"totalSupply_","type":"uint256","internalType":"uint256"},{"name":"serviceFeeReceiver_","type":"address","internalType":"address"},{"name":"serviceFee_","type":"uint256","internalType":"uint256"}],"stateMutability":"payable"},{"type":"function","name":"allowance","inputs":[{"name":"owner","type":"address","internalType":"address"},{"name":"spender","type":"address","internalType":"address"}],"outputs":[{"name":"","type":"uint256","internalType":"uint256"}],"stateMutability":"view"},{"type":"function","name":"approve","inputs":[{"name":"spender","type":"address","internalType":"address"},{"name":"value","type":"uint256","internalType":"uint256"}],"outputs":[{"name":"","type":"bool","internalType":"bool"}],"stateMutability":"nonpayable"},{"type":"function","name":"balanceOf","inputs":[{"name":"account","type":"address","internalType":"address"}],"outputs":[{"name":"","type":"uint256","internalType":"uint256"}],"stateMutability":"view"},{"type":"function","name":"blacklist","inputs":[{"name":"account","type":"address","internalType":"address"}],"outputs":[],"stateMutability":"nonpayable"},{"type":"function","name":"decimals","inputs":[],"outputs":[{"name":"","type":"uint8","internalType":"uint8"}],"stateMutability":"view"},{"type":"function","name":"isBlacklisted","inputs":[{"name":"account","type":"address","internalType":"address"}],"outputs":[{"name":"","type":"bool","internalType":"bool"}],"stateMutability":"view"},{"type":"function","name":"name","inputs":[],"outputs":[{"name":"","type":"string","internalType":"string"}],"stateMutability":"view"},{"type":"function","name":"owner","inputs":[],"outputs":[{"name":"","type":"address","internalType":"address"}],"stateMutability":"view"},{"type":"function","name":"pause","inputs":[],"outputs":[],"stateMutability":"nonpayable"},{"type":"function","name":"paused","inputs":[],"outputs":[{"name":"","type":"bool","internalType":"bool"}],"stateMutability":"view"},{"type":"function","name":"renounceOwnership","inputs":[],"outputs":[],"stateMutability":"nonpayable"},{"type":"function","name":"symbol","inputs":[],"outputs":[{"name":"","type":"string","internalType":"string"}],"stateMutability":"view"},{"type":"function","name":"totalSupply","inputs":[],"outputs":[{"name":"","type":"uint256","internalType":"uint256"}],"stateMutability":"view"},{"type":"function","name":"transfer","inputs":[{"name":"to","type":"address","internalType":"address"},{"name":"value","type":"uint256","internalType":"uint256"}],"outputs":[{"name":"","type":"bool","internalType":"bool"}],"stateMutability":"nonpayable"},{"type":"function","name":"transferFrom","inputs":[{"name":"from","type":"address","internalType":"address"},{"name":"to","type":"address","internalType":"address"},{"name":"value","type":"uint256","internalType":"uint256"}],"outputs":[{"name":"","type":"bool","internalType":"bool"}],"stateMutability":"nonpayable"},{"type":"function","name":"transferOwnership","inputs":[{"name":"newOwner","type":"address","internalType":"address"}],"outputs":[],"stateMutability":"nonpayable"},{"type":"function","name":"unblacklist","inputs":[{"name":"account","type":"address","internalType":"address"}],"outputs":[],"stateMutability":"nonpayable"},{"type":"function","name":"unpause","inputs":[],"outputs":[],"stateMutability":"nonpayable"},{"type":"event","name":"Approval","inputs":[{"name":"owner","type":"address","indexed":true,"internalType":"address"},{"name":"spender","type":"address","indexed":true,"internalType":"address"},{"name":"value","type":"uint256","indexed":false,"internalType":"uint256"}],"anonymous":false},{"type":"event","name":"Blacklisted","inputs":[{"name":"account","type":"address","indexed":true,"internalType":"address"}],"anonymous":false},{"type":"event","name":"OwnershipTransferred","inputs":[{"name":"previousOwner","type":"address","indexed":true,"internalType":"address"},{"name":"newOwner","type":"address","indexed":true,"internalType":"address"}],"anonymous":false},{"type":"event","name":"Paused","inputs":[{"name":"account","type":"address","indexed":false,"internalType":"address"}],"anonymous":false},{"type":"event","name":"Transfer","inputs":[{"name":"from","type":"address","indexed":true,"internalType":"address"},{"name":"to","type":"address","indexed":true,"internalType":"address"},{"name":"value","type":"uint256","indexed":false,"internalType":"uint256"}],"anonymous":false},{"type":"event","name":"Unblacklisted","inputs":[{"name":"account","type":"address","indexed":true,"internalType":"address"}],"anonymous":false},{"type":"event","name":"Unpaused","inputs":[{"name":"account","type":"address","indexed":false,"internalType":"address"}],"anonymous":false},{"type":"error","name":"EnforcedPause","inputs":[]},{"type":"error","name":"ExpectedPause","inputs":[]},{"type":"error","name":"OwnableInvalidOwner","inputs":[{"name":"owner","type":"address","internalType":"address"}]},{"type":"error","name":"OwnableUnauthorizedAccount","inputs":[{"name":"account","type":"address","internalType":"address"}]}],"bytecode":{"object":"0x608060405260405162002d0f38038062002d0f833981810160405281019062000029919062000932565b335f73ffffffffffffffffffffffffffffffffffffffff168173ffffffffffffffffffffffffffffffffffffffff16036200009d575f6040517f1e4fbdf700000000000000000000000000000000000000000000000000000000815260040162000094919062000a19565b60405180910390fd5b620000ae81620002c460201b60201c565b505f8060146101000a81548160ff0219169083151502179055508560059081620000d9919062000c62565b508460069081620000eb919062000c62565b508360075f6101000a81548160ff021916908360ff160217905550803410156200014c576040517f08c379a0000000000000000000000000000000000000000000000000000000008152600401620001439062000da4565b60405180910390fd5b5f73ffffffffffffffffffffffffffffffffffffffff168273ffffffffffffffffffffffffffffffffffffffff1603620001bd576040517f08c379a0000000000000000000000000000000000000000000000000000000008152600401620001b49062000e12565b60405180910390fd5b5f8273ffffffffffffffffffffffffffffffffffffffff1682604051620001e49062000e63565b5f6040518083038185875af1925050503d805f811462000220576040519150601f19603f3d011682016040523d82523d5f602084013e62000225565b606091505b50509050806200026c576040517f08c379a0000000000000000000000000000000000000000000000000000000008152600401620002639062000ec7565b60405180910390fd5b620002b7620002806200038560201b60201c565b62000290620003ac60201b60201c565b600a6200029e919062001064565b86620002ab9190620010b4565b620003c160201b60201c565b5050505050505062001240565b5f805f9054906101000a900473ffffffffffffffffffffffffffffffffffffffff169050815f806101000a81548173ffffffffffffffffffffffffffffffffffffffff021916908373ffffffffffffffffffffffffffffffffffffffff1602179055508173ffffffffffffffffffffffffffffffffffffffff168173ffffffffffffffffffffffffffffffffffffffff167f8be0079c531659141344cd1fd0a4f28419497f9722a3daafe3b4186f6b6457e060405160405180910390a35050565b5f805f9054906101000a900473ffffffffffffffffffffffffffffffffffffffff16905090565b5f60075f9054906101000a900460ff16905090565b5f73ffffffffffffffffffffffffffffffffffffffff168273ffffffffffffffffffffffffffffffffffffffff160362000432576040517f08c379a000000000000000000000000000000000000000000000000000000000815260040162000429906200114c565b60405180910390fd5b620004455f83836200044960201b60201c565b5050565b620004596200067a60201b60201c565b5f73ffffffffffffffffffffffffffffffffffffffff168373ffffffffffffffffffffffffffffffffffffffff1603620004ad578060045f828254620004a091906200116c565b925050819055506200057a565b5f60015f8573ffffffffffffffffffffffffffffffffffffffff1673ffffffffffffffffffffffffffffffffffffffff1681526020019081526020015f205490508181101562000534576040517f08c379a00000000000000000000000000000000000000000000000000000000081526004016200052b90620011f4565b60405180910390fd5b81810360015f8673ffffffffffffffffffffffffffffffffffffffff1673ffffffffffffffffffffffffffffffffffffffff1681526020019081526020015f2081905550505b5f73ffffffffffffffffffffffffffffffffffffffff168273ffffffffffffffffffffffffffffffffffffffff1603620005c3578060045f82825403925050819055506200060e565b8060015f8473ffffffffffffffffffffffffffffffffffffffff1673ffffffffffffffffffffffffffffffffffffffff1681526020019081526020015f205f82825401925050819055505b8173ffffffffffffffffffffffffffffffffffffffff168373ffffffffffffffffffffffffffffffffffffffff167fddf252ad1be2c89b69c2b068fc378daa952ba7f163c4a11628f55a4df523b3ef836040516200066d919062001225565b60405180910390a3505050565b6200068a620006c460201b60201c565b15620006c2576040517fd93c066500000000000000000000000000000000000000000000000000000000815260040160405180910390fd5b565b5f8060149054906101000a900460ff16905090565b5f604051905090565b5f80fd5b5f80fd5b5f80fd5b5f80fd5b5f601f19601f8301169050919050565b7f4e487b71000000000000000000000000000000000000000000000000000000005f52604160045260245ffd5b6200073a82620006f2565b810181811067ffffffffffffffff821117156200075c576200075b62000702565b5b80604052505050565b5f62000770620006d9565b90506200077e82826200072f565b919050565b5f67ffffffffffffffff821115620007a0576200079f62000702565b5b620007ab82620006f2565b9050602081019050919050565b5f5b83811015620007d7578082015181840152602081019050620007ba565b5f8484015250505050565b5f620007f8620007f28462000783565b62000765565b905082815260208101848484011115620008175762000816620006ee565b5b62000824848285620007b8565b509392505050565b5f82601f830112620008435762000842620006ea565b5b815162000855848260208601620007e2565b91505092915050565b5f60ff82169050919050565b62000875816200085e565b811462000880575f80fd5b50565b5f8151905062000893816200086a565b92915050565b5f819050919050565b620008ad8162000899565b8114620008b8575f80fd5b50565b5f81519050620008cb81620008a2565b92915050565b5f73ffffffffffffffffffffffffffffffffffffffff82169050919050565b5f620008fc82620008d1565b9050919050565b6200090e81620008f0565b811462000919575f80fd5b50565b5f815190506200092c8162000903565b92915050565b5f805f805f8060c087890312156200094f576200094e620006e2565b5b5f87015167ffffffffffffffff8111156200096f576200096e620006e6565b5b6200097d89828a016200082c565b965050602087015167ffffffffffffffff811115620009a157620009a0620006e6565b5b620009af89828a016200082c565b9550506040620009c289828a0162000883565b9450506060620009d589828a01620008bb565b9350506080620009e889828a016200091c565b92505060a0620009fb89828a01620008bb565b9150509295509295509295565b62000a1381620008f0565b82525050565b5f60208201905062000a2e5f83018462000a08565b92915050565b5f81519050919050565b7f4e487b71000000000000000000000000000000000000000000000000000000005f52602260045260245ffd5b5f600282049050600182168062000a8357607f821691505b60208210810362000a995762000a9862000a3e565b5b50919050565b5f819050815f5260205f209050919050565b5f6020601f8301049050919050565b5f82821b905092915050565b5f6008830262000afd7fffffffffffffffffffffffffffffffffffffffffffffffffffffffffffffffff8262000ac0565b62000b09868362000ac0565b95508019841693508086168417925050509392505050565b5f819050919050565b5f62000b4a62000b4462000b3e8462000899565b62000b21565b62000899565b9050919050565b5f819050919050565b62000b658362000b2a565b62000b7d62000b748262000b51565b84845462000acc565b825550505050565b5f90565b62000b9362000b85565b62000ba081848462000b5a565b505050565b5b8181101562000bc75762000bbb5f8262000b89565b60018101905062000ba6565b5050565b601f82111562000c165762000be08162000a9f565b62000beb8462000ab1565b8101602085101562000bfb578190505b62000c1362000c0a8562000ab1565b83018262000ba5565b50505b505050565b5f82821c905092915050565b5f62000c385f198460080262000c1b565b1980831691505092915050565b5f62000c52838362000c27565b9150826002028217905092915050565b62000c6d8262000a34565b67ffffffffffffffff81111562000c895762000c8862000702565b5b62000c95825462000a6b565b62000ca282828562000bcb565b5f60209050601f83116001811462000cd8575f841562000cc3578287015190505b62000ccf858262000c45565b86555062000d3e565b601f19841662000ce88662000a9f565b5f5b8281101562000d115784890151825560018201915060208501945060208101905062000cea565b8683101562000d31578489015162000d2d601f89168262000c27565b8355505b6001600288020188555050505b505050505050565b5f82825260208201905092915050565b7f496e73756666696369656e742066656520616d6f756e742073656e74000000005f82015250565b5f62000d8c601c8362000d46565b915062000d998262000d56565b602082019050919050565b5f6020820190508181035f83015262000dbd8162000d7e565b9050919050565b7f496e76616c6964206665652072656365697665720000000000000000000000005f82015250565b5f62000dfa60148362000d46565b915062000e078262000dc4565b602082019050919050565b5f6020820190508181035f83015262000e2b8162000dec565b9050919050565b5f81905092915050565b50565b5f62000e4c5f8362000e32565b915062000e598262000e3c565b5f82019050919050565b5f62000e6f8262000e3f565b9150819050919050565b7f466565207472616e73666572206661696c6564000000000000000000000000005f82015250565b5f62000eaf60138362000d46565b915062000ebc8262000e79565b602082019050919050565b5f6020820190508181035f83015262000ee08162000ea1565b9050919050565b7f4e487b71000000000000000000000000000000000000000000000000000000005f52601160045260245ffd5b5f8160011c9050919050565b5f808291508390505b600185111562000f715780860481111562000f495762000f4862000ee7565b5b600185161562000f595780820291505b808102905062000f698562000f14565b945062000f29565b94509492505050565b5f8262000f8b57600190506200105d565b8162000f9a575f90506200105d565b816001811462000fb3576002811462000fbe5762000ff4565b60019150506200105d565b60ff84111562000fd35762000fd262000ee7565b5b8360020a91508482111562000fed5762000fec62000ee7565b5b506200105d565b5060208310610133831016604e8410600b84101617156200102e5782820a90508381111562001028576200102762000ee7565b5b6200105d565b6200103d848484600162000f20565b9250905081840481111562001057576200105662000ee7565b5b81810290505b9392505050565b5f620010708262000899565b91506200107d836200085e565b9250620010ac7fffffffffffffffffffffffffffffffffffffffffffffffffffffffffffffffff848462000f7a565b905092915050565b5f620010c08262000899565b9150620010cd8362000899565b9250828202620010dd8162000899565b91508282048414831517620010f757620010f662000ee7565b5b5092915050565b7f496e76616c6964207265636569766572000000000000000000000000000000005f82015250565b5f6200113460108362000d46565b91506200114182620010fe565b602082019050919050565b5f6020820190508181035f830152620011658162001126565b9050919050565b5f620011788262000899565b9150620011858362000899565b9250828201905080821115620011a0576200119f62000ee7565b5b92915050565b7f496e73756666696369656e742062616c616e63650000000000000000000000005f82015250565b5f620011dc60148362000d46565b9150620011e982620011a6565b602082019050919050565b5f6020820190508181035f8301526200120d81620011ce565b9050919050565b6200121f8162000899565b82525050565b5f6020820190506200123a5f83018462001214565b92915050565b611ac1806200124e5f395ff3fe608060405234801561000f575f80fd5b5060043610610114575f3560e01c806375e3661e116100a0578063a9059cbb1161006f578063a9059cbb14610296578063dd62ed3e146102c6578063f2fde38b146102f6578063f9f92be414610312578063fe575a871461032e57610114565b806375e3661e146102345780638456cb59146102505780638da5cb5b1461025a57806395d89b411461027857610114565b8063313ce567116100e7578063313ce567146101b45780633f4ba83a146101d25780635c975abb146101dc57806370a08231146101fa578063715018a61461022a57610114565b806306fdde0314610118578063095ea7b31461013657806318160ddd1461016657806323b872dd14610184575b5f80fd5b61012061035e565b60405161012d91906114ff565b60405180910390f35b610150600480360381019061014b91906115b0565b6103ee565b60405161015d9190611608565b60405180910390f35b61016e61052a565b60405161017b9190611630565b60405180910390f35b61019e60048036038101906101999190611649565b610533565b6040516101ab9190611608565b60405180910390f35b6101bc610674565b6040516101c991906116b4565b60405180910390f35b6101da610689565b005b6101e461069b565b6040516101f19190611608565b60405180910390f35b610214600480360381019061020f91906116cd565b6106b0565b6040516102219190611630565b60405180910390f35b6102326106f6565b005b61024e600480360381019061024991906116cd565b610709565b005b6102586107ab565b005b6102626107bd565b60405161026f9190611707565b60405180910390f35b6102806107e4565b60405161028d91906114ff565b60405180910390f35b6102b060048036038101906102ab91906115b0565b610874565b6040516102bd9190611608565b60405180910390f35b6102e060048036038101906102db9190611720565b6109b0565b6040516102ed9190611630565b60405180910390f35b610310600480360381019061030b91906116cd565b610a32565b005b61032c600480360381019061032791906116cd565b610ab6565b005b610348600480360381019061034391906116cd565b610b59565b6040516103559190611608565b60405180910390f35b60606005805461036d9061178b565b80601f01602080910402602001604051908101604052809291908181526020018280546103999061178b565b80156103e45780601f106103bb576101008083540402835291602001916103e4565b820191905f5260205f20905b8154815290600101906020018083116103c757829003601f168201915b5050505050905090565b5f6103f7610bab565b60035f8273ffffffffffffffffffffffffffffffffffffffff1673ffffffffffffffffffffffffffffffffffffffff1681526020019081526020015f205f9054906101000a900460ff1615610481576040517f08c379a000000000000000000000000000000000000000000000000000000000815260040161047890611805565b60405180910390fd5b8360035f8273ffffffffffffffffffffffffffffffffffffffff1673ffffffffffffffffffffffffffffffffffffffff1681526020019081526020015f205f9054906101000a900460ff161561050c576040517f08c379a000000000000000000000000000000000000000000000000000000000815260040161050390611805565b60405180910390fd5b61051e610517610bab565b8686610bb2565b60019250505092915050565b5f600454905090565b5f8360035f8273ffffffffffffffffffffffffffffffffffffffff1673ffffffffffffffffffffffffffffffffffffffff1681526020019081526020015f205f9054906101000a900460ff16156105bf576040517f08c379a00000000000000000000000000000000000000000000000000000000081526004016105b690611805565b60405180910390fd5b8360035f8273ffffffffffffffffffffffffffffffffffffffff1673ffffffffffffffffffffffffffffffffffffffff1681526020019081526020015f205f9054906101000a900460ff161561064a576040517f08c379a000000000000000000000000000000000000000000000000000000000815260040161064190611805565b60405180910390fd5b61065c86610656610bab565b86610d76565b610667868686610e02565b6001925050509392505050565b5f60075f9054906101000a900460ff16905090565b610691610fcb565b610699611052565b565b5f8060149054906101000a900460ff16905090565b5f60015f8373ffffffffffffffffffffffffffffffffffffffff1673ffffffffffffffffffffffffffffffffffffffff1681526020019081526020015f20549050919050565b6106fe610fcb565b6107075f6110b3565b565b610711610fcb565b5f60035f8373ffffffffffffffffffffffffffffffffffffffff1673ffffffffffffffffffffffffffffffffffffffff1681526020019081526020015f205f6101000a81548160ff0219169083151502179055508073ffffffffffffffffffffffffffffffffffffffff167f7534c63860313c46c473e4e98328f37017e9674e2162faf1a3ad7a96236c3b7b60405160405180910390a250565b6107b3610fcb565b6107bb611174565b565b5f805f9054906101000a900473ffffffffffffffffffffffffffffffffffffffff16905090565b6060600680546107f39061178b565b80601f016020809104026020016040519081016040528092919081815260200182805461081f9061178b565b801561086a5780601f106108415761010080835404028352916020019161086a565b820191905f5260205f20905b81548152906001019060200180831161084d57829003601f168201915b5050505050905090565b5f61087d610bab565b60035f8273ffffffffffffffffffffffffffffffffffffffff1673ffffffffffffffffffffffffffffffffffffffff1681526020019081526020015f205f9054906101000a900460ff1615610907576040517f08c379a00000000000000000000000000000000000000000000000000000000081526004016108fe90611805565b60405180910390fd5b8360035f8273ffffffffffffffffffffffffffffffffffffffff1673ffffffffffffffffffffffffffffffffffffffff1681526020019081526020015f205f9054906101000a900460ff1615610992576040517f08c379a000000000000000000000000000000000000000000000000000000000815260040161098990611805565b60405180910390fd5b6109a461099d610bab565b8686610e02565b60019250505092915050565b5f60025f8473ffffffffffffffffffffffffffffffffffffffff1673ffffffffffffffffffffffffffffffffffffffff1681526020019081526020015f205f8373ffffffffffffffffffffffffffffffffffffffff1673ffffffffffffffffffffffffffffffffffffffff1681526020019081526020015f2054905092915050565b610a3a610fcb565b5f73ffffffffffffffffffffffffffffffffffffffff168173ffffffffffffffffffffffffffffffffffffffff1603610aaa575f6040517f1e4fbdf7000000000000000000000000000000000000000000000000000000008152600401610aa19190611707565b60405180910390fd5b610ab3816110b3565b50565b610abe610fcb565b600160035f8373ffffffffffffffffffffffffffffffffffffffff1673ffffffffffffffffffffffffffffffffffffffff1681526020019081526020015f205f6101000a81548160ff0219169083151502179055508073ffffffffffffffffffffffffffffffffffffffff167fffa4e6181777692565cf28528fc88fd1516ea86b56da075235fa575af6a4b85560405160405180910390a250565b5f60035f8373ffffffffffffffffffffffffffffffffffffffff1673ffffffffffffffffffffffffffffffffffffffff1681526020019081526020015f205f9054906101000a900460ff169050919050565b5f33905090565b60035f8473ffffffffffffffffffffffffffffffffffffffff1673ffffffffffffffffffffffffffffffffffffffff1681526020019081526020015f205f9054906101000a900460ff16158015610c50575060035f8373ffffffffffffffffffffffffffffffffffffffff1673ffffffffffffffffffffffffffffffffffffffff1681526020019081526020015f205f9054906101000a900460ff16155b610c8f576040517f08c379a0000000000000000000000000000000000000000000000000000000008152600401610c869061186d565b60405180910390fd5b8060025f8573ffffffffffffffffffffffffffffffffffffffff1673ffffffffffffffffffffffffffffffffffffffff1681526020019081526020015f205f8473ffffffffffffffffffffffffffffffffffffffff1673ffffffffffffffffffffffffffffffffffffffff1681526020019081526020015f20819055508173ffffffffffffffffffffffffffffffffffffffff168373ffffffffffffffffffffffffffffffffffffffff167f8c5be1e5ebec7d5bd14f71427d1e84f3dd0314c0f7b2291e5b200ac8c7c3b92583604051610d699190611630565b60405180910390a3505050565b5f610d8184846109b0565b90507fffffffffffffffffffffffffffffffffffffffffffffffffffffffffffffffff811015610dfc5781811015610dee576040517f08c379a0000000000000000000000000000000000000000000000000000000008152600401610de5906118d5565b60405180910390fd5b610dfb8484848403610bb2565b5b50505050565b60035f8473ffffffffffffffffffffffffffffffffffffffff1673ffffffffffffffffffffffffffffffffffffffff1681526020019081526020015f205f9054906101000a900460ff16158015610ea0575060035f8373ffffffffffffffffffffffffffffffffffffffff1673ffffffffffffffffffffffffffffffffffffffff1681526020019081526020015f205f9054906101000a900460ff16155b610edf576040517f08c379a0000000000000000000000000000000000000000000000000000000008152600401610ed69061186d565b60405180910390fd5b5f73ffffffffffffffffffffffffffffffffffffffff168373ffffffffffffffffffffffffffffffffffffffff1603610f4d576040517f08c379a0000000000000000000000000000000000000000000000000000000008152600401610f449061193d565b60405180910390fd5b5f73ffffffffffffffffffffffffffffffffffffffff168273ffffffffffffffffffffffffffffffffffffffff1603610fbb576040517f08c379a0000000000000000000000000000000000000000000000000000000008152600401610fb2906119a5565b60405180910390fd5b610fc68383836111d6565b505050565b610fd3610bab565b73ffffffffffffffffffffffffffffffffffffffff16610ff16107bd565b73ffffffffffffffffffffffffffffffffffffffff161461105057611014610bab565b6040517f118cdaa70000000000000000000000000000000000000000000000000000000081526004016110479190611707565b60405180910390fd5b565b61105a6113f4565b5f8060146101000a81548160ff0219169083151502179055507f5db9ee0a495bf2e6ff9c91a7834c1ba4fdd244a5e8aa4e537bd38aeae4b073aa61109c610bab565b6040516110a99190611707565b60405180910390a1565b5f805f9054906101000a900473ffffffffffffffffffffffffffffffffffffffff169050815f806101000a81548173ffffffffffffffffffffffffffffffffffffffff021916908373ffffffffffffffffffffffffffffffffffffffff1602179055508173ffffffffffffffffffffffffffffffffffffffff168173ffffffffffffffffffffffffffffffffffffffff167f8be0079c531659141344cd1fd0a4f28419497f9722a3daafe3b4186f6b6457e060405160405180910390a35050565b61117c611434565b60015f60146101000a81548160ff0219169083151502179055507f62e78cea01bee320cd4e420270b5ea74000d11b0c9f74754ebdbfc544b05a2586111bf610bab565b6040516111cc9190611707565b60405180910390a1565b6111de611434565b5f73ffffffffffffffffffffffffffffffffffffffff168373ffffffffffffffffffffffffffffffffffffffff160361122e578060045f82825461122291906119f0565b925050819055506112f8565b5f60015f8573ffffffffffffffffffffffffffffffffffffffff1673ffffffffffffffffffffffffffffffffffffffff1681526020019081526020015f20549050818110156112b2576040517f08c379a00000000000000000000000000000000000000000000000000000000081526004016112a990611a6d565b60405180910390fd5b81810360015f8673ffffffffffffffffffffffffffffffffffffffff1673ffffffffffffffffffffffffffffffffffffffff1681526020019081526020015f2081905550505b5f73ffffffffffffffffffffffffffffffffffffffff168273ffffffffffffffffffffffffffffffffffffffff160361133f578060045f828254039250508190555061138a565b8060015f8473ffffffffffffffffffffffffffffffffffffffff1673ffffffffffffffffffffffffffffffffffffffff1681526020019081526020015f205f82825401925050819055505b8173ffffffffffffffffffffffffffffffffffffffff168373ffffffffffffffffffffffffffffffffffffffff167fddf252ad1be2c89b69c2b068fc378daa952ba7f163c4a11628f55a4df523b3ef836040516113e79190611630565b60405180910390a3505050565b6113fc61069b565b611432576040517f8dfc202b00000000000000000000000000000000000000000000000000000000815260040160405180910390fd5b565b61143c61069b565b15611473576040517fd93c066500000000000000000000000000000000000000000000000000000000815260040160405180910390fd5b565b5f81519050919050565b5f82825260208201905092915050565b5f5b838110156114ac578082015181840152602081019050611491565b5f8484015250505050565b5f601f19601f8301169050919050565b5f6114d182611475565b6114db818561147f565b93506114eb81856020860161148f565b6114f4816114b7565b840191505092915050565b5f6020820190508181035f83015261151781846114c7565b905092915050565b5f80fd5b5f73ffffffffffffffffffffffffffffffffffffffff82169050919050565b5f61154c82611523565b9050919050565b61155c81611542565b8114611566575f80fd5b50565b5f8135905061157781611553565b92915050565b5f819050919050565b61158f8161157d565b8114611599575f80fd5b50565b5f813590506115aa81611586565b92915050565b5f80604083850312156115c6576115c561151f565b5b5f6115d385828601611569565b92505060206115e48582860161159c565b9150509250929050565b5f8115159050919050565b611602816115ee565b82525050565b5f60208201905061161b5f8301846115f9565b92915050565b61162a8161157d565b82525050565b5f6020820190506116435f830184611621565b92915050565b5f805f606084860312156116605761165f61151f565b5b5f61166d86828701611569565b935050602061167e86828701611569565b925050604061168f8682870161159c565b9150509250925092565b5f60ff82169050919050565b6116ae81611699565b82525050565b5f6020820190506116c75f8301846116a5565b92915050565b5f602082840312156116e2576116e161151f565b5b5f6116ef84828501611569565b91505092915050565b61170181611542565b82525050565b5f60208201905061171a5f8301846116f8565b92915050565b5f80604083850312156117365761173561151f565b5b5f61174385828601611569565b925050602061175485828601611569565b9150509250929050565b7f4e487b71000000000000000000000000000000000000000000000000000000005f52602260045260245ffd5b5f60028204905060018216806117a257607f821691505b6020821081036117b5576117b461175e565b5b50919050565b7f4164647265737320697320626c61636b6c6973746564000000000000000000005f82015250565b5f6117ef60168361147f565b91506117fa826117bb565b602082019050919050565b5f6020820190508181035f83015261181c816117e3565b9050919050565b7f426c61636b6c69737465642061646472657373000000000000000000000000005f82015250565b5f61185760138361147f565b915061186282611823565b602082019050919050565b5f6020820190508181035f8301526118848161184b565b9050919050565b7f496e73756666696369656e7420616c6c6f77616e6365000000000000000000005f82015250565b5f6118bf60168361147f565b91506118ca8261188b565b602082019050919050565b5f6020820190508181035f8301526118ec816118b3565b9050919050565b7f496e76616c69642073656e6465720000000000000000000000000000000000005f82015250565b5f611927600e8361147f565b9150611932826118f3565b602082019050919050565b5f6020820190508181035f8301526119548161191b565b9050919050565b7f496e76616c6964207265636569766572000000000000000000000000000000005f82015250565b5f61198f60108361147f565b915061199a8261195b565b602082019050919050565b5f6020820190508181035f8301526119bc81611983565b9050919050565b7f4e487b71000000000000000000000000000000000000000000000000000000005f52601160045260245ffd5b5f6119fa8261157d565b9150611a058361157d565b9250828201905080821115611a1d57611a1c6119c3565b5b92915050565b7f496e73756666696369656e742062616c616e63650000000000000000000000005f82015250565b5f611a5760148361147f565b9150611a6282611a23565b602082019050919050565b5f6020820190508181035f830152611a8481611a4b565b905091905056fea2646970667358221220c78c500b847a78c832d98c954091888998a3627c2c75a45c34b8a7c9c6c394c764736f6c63430008170033","linkReferences":{}},"methodIdentifiers":{"allowance(address,address)":"dd62ed3e","approve(address,uint256)":"095ea7b3","balanceOf(address)":"70a08231","blacklist(address)":"f9f92be4","decimals()":"313ce567","isBlacklisted(address)":"fe575a87","name()":"06fdde03","owner()":"8da5cb5b","pause()":"8456cb59","paused()":"5c975abb","renounceOwnership()":"715018a6","symbol()":"95d89b41","totalSupply()":"18160ddd","transfer(address,uint256)":"a9059cbb","transferFrom(address,address,uint256)":"23b872dd","transferOwnership(address)":"f2fde38b","unblacklist(address)":"75e3661e","unpause()":"3f4ba83a"},"id":23}