{"abi":[{"type":"constructor","inputs":[{"name":"name_","type":"string","internalType":"string"},{"name":"symbol_","type":"string","internalType":"string"},{"name":"decimals_","type":"uint8","internalType":"uint8"},{"name":"totalSupply_","type":"uint256","internalType":"uint256"},{"name":"serviceFeeReceiver_","type":"address","internalType":"address"},{"name":"serviceFee_","type":"uint256","internalType":"uint256"}],"stateMutability":"payable"},{"type":"function","name":"allowance","inputs":[{"name":"owner","type":"address","internalType":"address"},{"name":"spender","type":"address","internalType":"address"}],"outputs":[{"name":"","type":"uint256","internalType":"uint256"}],"stateMutability":"view"},{"type":"function","name":"approve","inputs":[{"name":"spender","type":"address","internalType":"address"},{"name":"value","type":"uint256","internalType":"uint256"}],"outputs":[{"name":"","type":"bool","internalType":"bool"}],"stateMutability":"nonpayable"},{"type":"function","name":"balanceOf","inputs":[{"name":"account","type":"address","internalType":"address"}],"outputs":[{"name":"","type":"uint256","internalType":"uint256"}],"stateMutability":"view"},{"type":"function","name":"blacklist","inputs":[{"name":"account","type":"address","internalType":"address"}],"outputs":[],"stateMutability":"nonpayable"},{"type":"function","name":"decimals","inputs":[],"outputs":[{"name":"","type":"uint8","internalType":"uint8"}],"stateMutability":"view"},{"type":"function","name":"isBlacklisted","inputs":[{"name":"account","type":"address","internalType":"address"}],"outputs":[{"name":"","type":"bool","internalType":"bool"}],"stateMutability":"view"},{"type":"function","name":"name","inputs":[],"outputs":[{"name":"","type":"string","internalType":"string"}],"stateMutability":"view"},{"type":"function","name":"owner","inputs":[],"outputs":[{"name":"","type":"address","internalType":"address"}],"stateMutability":"view"},{"type":"function","name":"renounceOwnership","inputs":[],"outputs":[],"stateMutability":"nonpayable"},{"type":"function","name":"symbol","inputs":[],"outputs":[{"name":"","type":"string","internalType":"string"}],"stateMutability":"view"},{"type":"function","name":"totalSupply","inputs":[],"outputs":[{"name":"","type":"uint256","internalType":"uint256"}],"stateMutability":"view"},{"type":"function","name":"transfer","inputs":[{"name":"to","type":"address","internalType":"address"},{"name":"value","type":"uint256","internalType":"uint256"}],"outputs":[{"name":"","type":"bool","internalType":"bool"}],"stateMutability":"nonpayable"},{"type":"function","name":"transferFrom","inputs":[{"name":"from","type":"address","internalType":"address"},{"name":"to","type":"address","internalType":"address"},{"name":"value","type":"uint256","internalType":"uint256"}],"outputs":[{"name":"","type":"bool","internalType":"bool"}],"stateMutability":"nonpayable"},{"type":"function","name":"transferOwnership","inputs":[{"name":"newOwner","type":"address","internalType":"address"}],"outputs":[],"stateMutability":"nonpayable"},{"type":"function","name":"unblacklist","inputs":[{"name":"account","type":"address","internalType":"address"}],"outputs":[],"stateMutability":"nonpayable"},{"type":"event","name":"Approval","inputs":[{"name":"owner","type":"address","indexed":true,"internalType":"address"},{"name":"spender","type":"address","indexed":true,"internalType":"address"},{"name":"value","type":"uint256","indexed":false,"internalType":"uint256"}],"anonymous":false},{"type":"event","name":"Blacklisted","inputs":[{"name":"account","type":"address","indexed":true,"internalType":"address"}],"anonymous":false},{"type":"event","name":"OwnershipTransferred","inputs":[{"name":"previousOwner","type":"address","indexed":true,"internalType":"address"},{"name":"newOwner","type":"address","indexed":true,"internalType":"address"}],"anonymous":false},{"type":"event","name":"Transfer","inputs":[{"name":"from","type":"address","indexed":true,"internalType":"address"},{"name":"to","type":"address","indexed":true,"internalType":"address"},{"name":"value","type":"uint256","indexed":false,"internalType":"uint256"}],"anonymous":false},{"type":"event","name":"Unblacklisted","inputs":[{"name":"account","type":"address","indexed":true,"internalType":"address"}],"anonymous":false},{"type":"error","name":"OwnableInvalidOwner","inputs":[{"name":"owner","type":"address","internalType":"address"}]},{"type":"error","name":"OwnableUnauthorizedAccount","inputs":[{"name":"account","type":"address","internalType":"address"}]}],"bytecode":{"object":"0x608060405260405162002a3438038062002a348339818101604052810190620000299190620008aa565b335f73ffffffffffffffffffffffffffffffffffffffff168173ffffffffffffffffffffffffffffffffffffffff16036200009d575f6040517f1e4fbdf700000000000000000000000000000000000000000000000000000000815260040162000094919062000991565b60405180910390fd5b620000ae81620002ab60201b60201c565b508560059081620000c0919062000bda565b508460069081620000d2919062000bda565b508360075f6101000a81548160ff021916908360ff1602179055508034101562000133576040517f08c379a00000000000000000000000000000000000000000000000000000000081526004016200012a9062000d1c565b60405180910390fd5b5f73ffffffffffffffffffffffffffffffffffffffff168273ffffffffffffffffffffffffffffffffffffffff1603620001a4576040517f08c379a00000000000000000000000000000000000000000000000000000000081526004016200019b9062000d8a565b60405180910390fd5b5f8273ffffffffffffffffffffffffffffffffffffffff1682604051620001cb9062000ddb565b5f6040518083038185875af1925050503d805f811462000207576040519150601f19603f3d011682016040523d82523d5f602084013e6200020c565b606091505b505090508062000253576040517f08c379a00000000000000000000000000000000000000000000000000000000081526004016200024a9062000e3f565b60405180910390fd5b6200029e620002676200036c60201b60201c565b620002776200039360201b60201c565b600a62000285919062000fdc565b866200029291906200102c565b620003a860201b60201c565b50505050505050620011b8565b5f805f9054906101000a900473ffffffffffffffffffffffffffffffffffffffff169050815f806101000a81548173ffffffffffffffffffffffffffffffffffffffff021916908373ffffffffffffffffffffffffffffffffffffffff1602179055508173ffffffffffffffffffffffffffffffffffffffff168173ffffffffffffffffffffffffffffffffffffffff167f8be0079c531659141344cd1fd0a4f28419497f9722a3daafe3b4186f6b6457e060405160405180910390a35050565b5f805f9054906101000a900473ffffffffffffffffffffffffffffffffffffffff16905090565b5f60075f9054906101000a900460ff16905090565b5f73ffffffffffffffffffffffffffffffffffffffff168273ffffffffffffffffffffffffffffffffffffffff160362000419576040517f08c379a00000000000000000000000000000000000000000000000000000000081526004016200041090620010c4565b60405180910390fd5b6200042c5f83836200043060201b60201c565b5050565b5f73ffffffffffffffffffffffffffffffffffffffff168373ffffffffffffffffffffffffffffffffffffffff160362000484578060045f828254620004779190620010e4565b9250508190555062000551565b5f60015f8573ffffffffffffffffffffffffffffffffffffffff1673ffffffffffffffffffffffffffffffffffffffff1681526020019081526020015f20549050818110156200050b576040517f08c379a000000000000000000000000000000000000000000000000000000000815260040162000502906200116c565b60405180910390fd5b81810360015f8673ffffffffffffffffffffffffffffffffffffffff1673ffffffffffffffffffffffffffffffffffffffff1681526020019081526020015f2081905550505b5f73ffffffffffffffffffffffffffffffffffffffff168273ffffffffffffffffffffffffffffffffffffffff16036200059a578060045f8282540392505081905550620005e5565b8060015f8473ffffffffffffffffffffffffffffffffffffffff1673ffffffffffffffffffffffffffffffffffffffff1681526020019081526020015f205f82825401925050819055505b8173ffffffffffffffffffffffffffffffffffffffff168373ffffffffffffffffffffffffffffffffffffffff167fddf252ad1be2c89b69c2b068fc378daa952ba7f163c4a11628f55a4df523b3ef836040516200064491906200119d565b60405180910390a3505050565b5f604051905090565b5f80fd5b5f80fd5b5f80fd5b5f80fd5b5f601f19601f8301169050919050565b7f4e487b71000000000000000000000000000000000000000000000000000000005f52604160045260245ffd5b620006b2826200066a565b810181811067ffffffffffffffff82111715620006d457620006d36200067a565b5b80604052505050565b5f620006e862000651565b9050620006f68282620006a7565b919050565b5f67ffffffffffffffff8211156200071857620007176200067a565b5b62000723826200066a565b9050602081019050919050565b5f5b838110156200074f57808201518184015260208101905062000732565b5f8484015250505050565b5f620007706200076a84620006fb565b620006dd565b9050828152602081018484840111156200078f576200078e62000666565b5b6200079c84828562000730565b509392505050565b5f82601f830112620007bb57620007ba62000662565b5b8151620007cd8482602086016200075a565b91505092915050565b5f60ff82169050919050565b620007ed81620007d6565b8114620007f8575f80fd5b50565b5f815190506200080b81620007e2565b92915050565b5f819050919050565b620008258162000811565b811462000830575f80fd5b50565b5f8151905062000843816200081a565b92915050565b5f73ffffffffffffffffffffffffffffffffffffffff82169050919050565b5f620008748262000849565b9050919050565b620008868162000868565b811462000891575f80fd5b50565b5f81519050620008a4816200087b565b92915050565b5f805f805f8060c08789031215620008c757620008c66200065a565b5b5f87015167ffffffffffffffff811115620008e757620008e66200065e565b5b620008f589828a01620007a4565b965050602087015167ffffffffffffffff8111156200091957620009186200065e565b5b6200092789828a01620007a4565b95505060406200093a89828a01620007fb565b94505060606200094d89828a0162000833565b93505060806200096089828a0162000894565b92505060a06200097389828a0162000833565b9150509295509295509295565b6200098b8162000868565b82525050565b5f602082019050620009a65f83018462000980565b92915050565b5f81519050919050565b7f4e487b71000000000000000000000000000000000000000000000000000000005f52602260045260245ffd5b5f6002820490506001821680620009fb57607f821691505b60208210810362000a115762000a10620009b6565b5b50919050565b5f819050815f5260205f209050919050565b5f6020601f8301049050919050565b5f82821b905092915050565b5f6008830262000a757fffffffffffffffffffffffffffffffffffffffffffffffffffffffffffffffff8262000a38565b62000a81868362000a38565b95508019841693508086168417925050509392505050565b5f819050919050565b5f62000ac262000abc62000ab68462000811565b62000a99565b62000811565b9050919050565b5f819050919050565b62000add8362000aa2565b62000af562000aec8262000ac9565b84845462000a44565b825550505050565b5f90565b62000b0b62000afd565b62000b1881848462000ad2565b505050565b5b8181101562000b3f5762000b335f8262000b01565b60018101905062000b1e565b5050565b601f82111562000b8e5762000b588162000a17565b62000b638462000a29565b8101602085101562000b73578190505b62000b8b62000b828562000a29565b83018262000b1d565b50505b505050565b5f82821c905092915050565b5f62000bb05f198460080262000b93565b1980831691505092915050565b5f62000bca838362000b9f565b9150826002028217905092915050565b62000be582620009ac565b67ffffffffffffffff81111562000c015762000c006200067a565b5b62000c0d8254620009e3565b62000c1a82828562000b43565b5f60209050601f83116001811462000c50575f841562000c3b578287015190505b62000c47858262000bbd565b86555062000cb6565b601f19841662000c608662000a17565b5f5b8281101562000c895784890151825560018201915060208501945060208101905062000c62565b8683101562000ca9578489015162000ca5601f89168262000b9f565b8355505b6001600288020188555050505b505050505050565b5f82825260208201905092915050565b7f496e73756666696369656e742066656520616d6f756e742073656e74000000005f82015250565b5f62000d04601c8362000cbe565b915062000d118262000cce565b602082019050919050565b5f6020820190508181035f83015262000d358162000cf6565b9050919050565b7f496e76616c6964206665652072656365697665720000000000000000000000005f82015250565b5f62000d7260148362000cbe565b915062000d7f8262000d3c565b602082019050919050565b5f6020820190508181035f83015262000da38162000d64565b9050919050565b5f81905092915050565b50565b5f62000dc45f8362000daa565b915062000dd18262000db4565b5f82019050919050565b5f62000de78262000db7565b9150819050919050565b7f466565207472616e73666572206661696c6564000000000000000000000000005f82015250565b5f62000e2760138362000cbe565b915062000e348262000df1565b602082019050919050565b5f6020820190508181035f83015262000e588162000e19565b9050919050565b7f4e487b71000000000000000000000000000000000000000000000000000000005f52601160045260245ffd5b5f8160011c9050919050565b5f808291508390505b600185111562000ee95780860481111562000ec15762000ec062000e5f565b5b600185161562000ed15780820291505b808102905062000ee18562000e8c565b945062000ea1565b94509492505050565b5f8262000f03576001905062000fd5565b8162000f12575f905062000fd5565b816001811462000f2b576002811462000f365762000f6c565b600191505062000fd5565b60ff84111562000f4b5762000f4a62000e5f565b5b8360020a91508482111562000f655762000f6462000e5f565b5b5062000fd5565b5060208310610133831016604e8410600b841016171562000fa65782820a90508381111562000fa05762000f9f62000e5f565b5b62000fd5565b62000fb5848484600162000e98565b9250905081840481111562000fcf5762000fce62000e5f565b5b81810290505b9392505050565b5f62000fe88262000811565b915062000ff583620007d6565b9250620010247fffffffffffffffffffffffffffffffffffffffffffffffffffffffffffffffff848462000ef2565b905092915050565b5f620010388262000811565b9150620010458362000811565b9250828202620010558162000811565b915082820484148315176200106f576200106e62000e5f565b5b5092915050565b7f496e76616c6964206d696e7420616464726573730000000000000000000000005f82015250565b5f620010ac60148362000cbe565b9150620010b98262001076565b602082019050919050565b5f6020820190508181035f830152620010dd816200109e565b9050919050565b5f620010f08262000811565b9150620010fd8362000811565b925082820190508082111562001118576200111762000e5f565b5b92915050565b7f496e73756666696369656e742062616c616e63650000000000000000000000005f82015250565b5f6200115460148362000cbe565b915062001161826200111e565b602082019050919050565b5f6020820190508181035f830152620011858162001146565b9050919050565b620011978162000811565b82525050565b5f602082019050620011b25f8301846200118c565b92915050565b61186e80620011c65f395ff3fe608060405234801561000f575f80fd5b50600436106100f3575f3560e01c806375e3661e11610095578063dd62ed3e11610064578063dd62ed3e14610273578063f2fde38b146102a3578063f9f92be4146102bf578063fe575a87146102db576100f3565b806375e3661e146101eb5780638da5cb5b1461020757806395d89b4114610225578063a9059cbb14610243576100f3565b806323b872dd116100d157806323b872dd14610163578063313ce5671461019357806370a08231146101b1578063715018a6146101e1576100f3565b806306fdde03146100f7578063095ea7b31461011557806318160ddd14610145575b5f80fd5b6100ff61030b565b60405161010c9190611314565b60405180910390f35b61012f600480360381019061012a91906113c5565b61039b565b60405161013c919061141d565b60405180910390f35b61014d6104c9565b60405161015a9190611445565b60405180910390f35b61017d6004803603810190610178919061145e565b6104d2565b60405161018a919061141d565b60405180910390f35b61019b61060c565b6040516101a891906114c9565b60405180910390f35b6101cb60048036038101906101c691906114e2565b610621565b6040516101d89190611445565b60405180910390f35b6101e9610667565b005b610205600480360381019061020091906114e2565b61067a565b005b61020f61071c565b60405161021c919061151c565b60405180910390f35b61022d610743565b60405161023a9190611314565b60405180910390f35b61025d600480360381019061025891906113c5565b6107d3565b60405161026a919061141d565b60405180910390f35b61028d60048036038101906102889190611535565b610901565b60405161029a9190611445565b60405180910390f35b6102bd60048036038101906102b891906114e2565b610983565b005b6102d960048036038101906102d491906114e2565b610a07565b005b6102f560048036038101906102f091906114e2565b610aaa565b604051610302919061141d565b60405180910390f35b60606005805461031a906115a0565b80601f0160208091040260200160405190810160405280929190818152602001828054610346906115a0565b80156103915780601f1061036857610100808354040283529160200191610391565b820191905f5260205f20905b81548152906001019060200180831161037457829003601f168201915b5050505050905090565b5f3360035f8273ffffffffffffffffffffffffffffffffffffffff1673ffffffffffffffffffffffffffffffffffffffff1681526020019081526020015f205f9054906101000a900460ff1615610427576040517f08c379a000000000000000000000000000000000000000000000000000000000815260040161041e9061161a565b60405180910390fd5b8360035f8273ffffffffffffffffffffffffffffffffffffffff1673ffffffffffffffffffffffffffffffffffffffff1681526020019081526020015f205f9054906101000a900460ff16156104b2576040517f08c379a00000000000000000000000000000000000000000000000000000000081526004016104a99061161a565b60405180910390fd5b6104bd338686610afc565b60019250505092915050565b5f600454905090565b5f8360035f8273ffffffffffffffffffffffffffffffffffffffff1673ffffffffffffffffffffffffffffffffffffffff1681526020019081526020015f205f9054906101000a900460ff161561055e576040517f08c379a00000000000000000000000000000000000000000000000000000000081526004016105559061161a565b60405180910390fd5b8360035f8273ffffffffffffffffffffffffffffffffffffffff1673ffffffffffffffffffffffffffffffffffffffff1681526020019081526020015f205f9054906101000a900460ff16156105e9576040517f08c379a00000000000000000000000000000000000000000000000000000000081526004016105e09061161a565b60405180910390fd5b6105f4863386610d67565b6105ff868686610dca565b6001925050509392505050565b5f60075f9054906101000a900460ff16905090565b5f60015f8373ffffffffffffffffffffffffffffffffffffffff1673ffffffffffffffffffffffffffffffffffffffff1681526020019081526020015f20549050919050565b61066f610f25565b6106785f610fac565b565b610682610f25565b5f60035f8373ffffffffffffffffffffffffffffffffffffffff1673ffffffffffffffffffffffffffffffffffffffff1681526020019081526020015f205f6101000a81548160ff0219169083151502179055508073ffffffffffffffffffffffffffffffffffffffff167f7534c63860313c46c473e4e98328f37017e9674e2162faf1a3ad7a96236c3b7b60405160405180910390a250565b5f805f9054906101000a900473ffffffffffffffffffffffffffffffffffffffff16905090565b606060068054610752906115a0565b80601f016020809104026020016040519081016040528092919081815260200182805461077e906115a0565b80156107c95780601f106107a0576101008083540402835291602001916107c9565b820191905f5260205f20905b8154815290600101906020018083116107ac57829003601f168201915b5050505050905090565b5f3360035f8273ffffffffffffffffffffffffffffffffffffffff1673ffffffffffffffffffffffffffffffffffffffff1681526020019081526020015f205f9054906101000a900460ff161561085f576040517f08c379a00000000000000000000000000000000000000000000000000000000081526004016108569061161a565b60405180910390fd5b8360035f8273ffffffffffffffffffffffffffffffffffffffff1673ffffffffffffffffffffffffffffffffffffffff1681526020019081526020015f205f9054906101000a900460ff16156108ea576040517f08c379a00000000000000000000000000000000000000000000000000000000081526004016108e19061161a565b60405180910390fd5b6108f5338686610dca565b60019250505092915050565b5f60025f8473ffffffffffffffffffffffffffffffffffffffff1673ffffffffffffffffffffffffffffffffffffffff1681526020019081526020015f205f8373ffffffffffffffffffffffffffffffffffffffff1673ffffffffffffffffffffffffffffffffffffffff1681526020019081526020015f2054905092915050565b61098b610f25565b5f73ffffffffffffffffffffffffffffffffffffffff168173ffffffffffffffffffffffffffffffffffffffff16036109fb575f6040517f1e4fbdf70000000000000000000000000000000000000000000000000000000081526004016109f2919061151c565b60405180910390fd5b610a0481610fac565b50565b610a0f610f25565b600160035f8373ffffffffffffffffffffffffffffffffffffffff1673ffffffffffffffffffffffffffffffffffffffff1681526020019081526020015f205f6101000a81548160ff0219169083151502179055508073ffffffffffffffffffffffffffffffffffffffff167fffa4e6181777692565cf28528fc88fd1516ea86b56da075235fa575af6a4b85560405160405180910390a250565b5f60035f8373ffffffffffffffffffffffffffffffffffffffff1673ffffffffffffffffffffffffffffffffffffffff1681526020019081526020015f205f9054906101000a900460ff169050919050565b60035f8473ffffffffffffffffffffffffffffffffffffffff1673ffffffffffffffffffffffffffffffffffffffff1681526020019081526020015f205f9054906101000a900460ff16158015610b9a575060035f8373ffffffffffffffffffffffffffffffffffffffff1673ffffffffffffffffffffffffffffffffffffffff1681526020019081526020015f205f9054906101000a900460ff16155b610bd9576040517f08c379a0000000000000000000000000000000000000000000000000000000008152600401610bd09061161a565b60405180910390fd5b5f73ffffffffffffffffffffffffffffffffffffffff168373ffffffffffffffffffffffffffffffffffffffff1614158015610c4157505f73ffffffffffffffffffffffffffffffffffffffff168273ffffffffffffffffffffffffffffffffffffffff1614155b610c80576040517f08c379a0000000000000000000000000000000000000000000000000000000008152600401610c7790611682565b60405180910390fd5b8060025f8573ffffffffffffffffffffffffffffffffffffffff1673ffffffffffffffffffffffffffffffffffffffff1681526020019081526020015f205f8473ffffffffffffffffffffffffffffffffffffffff1673ffffffffffffffffffffffffffffffffffffffff1681526020019081526020015f20819055508173ffffffffffffffffffffffffffffffffffffffff168373ffffffffffffffffffffffffffffffffffffffff167f8c5be1e5ebec7d5bd14f71427d1e84f3dd0314c0f7b2291e5b200ac8c7c3b92583604051610d5a9190611445565b60405180910390a3505050565b5f610d728484610901565b905081811015610db7576040517f08c379a0000000000000000000000000000000000000000000000000000000008152600401610dae906116ea565b60405180910390fd5b610dc48484848403610afc565b50505050565b60035f8473ffffffffffffffffffffffffffffffffffffffff1673ffffffffffffffffffffffffffffffffffffffff1681526020019081526020015f205f9054906101000a900460ff16158015610e68575060035f8373ffffffffffffffffffffffffffffffffffffffff1673ffffffffffffffffffffffffffffffffffffffff1681526020019081526020015f205f9054906101000a900460ff16155b610ea7576040517f08c379a0000000000000000000000000000000000000000000000000000000008152600401610e9e90611752565b60405180910390fd5b5f73ffffffffffffffffffffffffffffffffffffffff168373ffffffffffffffffffffffffffffffffffffffff1603610ede575f80fd5b5f73ffffffffffffffffffffffffffffffffffffffff168273ffffffffffffffffffffffffffffffffffffffff1603610f15575f80fd5b610f2083838361106d565b505050565b610f2d611283565b73ffffffffffffffffffffffffffffffffffffffff16610f4b61071c565b73ffffffffffffffffffffffffffffffffffffffff1614610faa57610f6e611283565b6040517f118cdaa7000000000000000000000000000000000000000000000000000000008152600401610fa1919061151c565b60405180910390fd5b565b5f805f9054906101000a900473ffffffffffffffffffffffffffffffffffffffff169050815f806101000a81548173ffffffffffffffffffffffffffffffffffffffff021916908373ffffffffffffffffffffffffffffffffffffffff1602179055508173ffffffffffffffffffffffffffffffffffffffff168173ffffffffffffffffffffffffffffffffffffffff167f8be0079c531659141344cd1fd0a4f28419497f9722a3daafe3b4186f6b6457e060405160405180910390a35050565b5f73ffffffffffffffffffffffffffffffffffffffff168373ffffffffffffffffffffffffffffffffffffffff16036110bd578060045f8282546110b1919061179d565b92505081905550611187565b5f60015f8573ffffffffffffffffffffffffffffffffffffffff1673ffffffffffffffffffffffffffffffffffffffff1681526020019081526020015f2054905081811015611141576040517f08c379a00000000000000000000000000000000000000000000000000000000081526004016111389061181a565b60405180910390fd5b81810360015f8673ffffffffffffffffffffffffffffffffffffffff1673ffffffffffffffffffffffffffffffffffffffff1681526020019081526020015f2081905550505b5f73ffffffffffffffffffffffffffffffffffffffff168273ffffffffffffffffffffffffffffffffffffffff16036111ce578060045f8282540392505081905550611219565b8060015f8473ffffffffffffffffffffffffffffffffffffffff1673ffffffffffffffffffffffffffffffffffffffff1681526020019081526020015f205f82825401925050819055505b8173ffffffffffffffffffffffffffffffffffffffff168373ffffffffffffffffffffffffffffffffffffffff167fddf252ad1be2c89b69c2b068fc378daa952ba7f163c4a11628f55a4df523b3ef836040516112769190611445565b60405180910390a3505050565b5f33905090565b5f81519050919050565b5f82825260208201905092915050565b5f5b838110156112c15780820151818401526020810190506112a6565b5f8484015250505050565b5f601f19601f8301169050919050565b5f6112e68261128a565b6112f08185611294565b93506113008185602086016112a4565b611309816112cc565b840191505092915050565b5f6020820190508181035f83015261132c81846112dc565b905092915050565b5f80fd5b5f73ffffffffffffffffffffffffffffffffffffffff82169050919050565b5f61136182611338565b9050919050565b61137181611357565b811461137b575f80fd5b50565b5f8135905061138c81611368565b92915050565b5f819050919050565b6113a481611392565b81146113ae575f80fd5b50565b5f813590506113bf8161139b565b92915050565b5f80604083850312156113db576113da611334565b5b5f6113e88582860161137e565b92505060206113f9858286016113b1565b9150509250929050565b5f8115159050919050565b61141781611403565b82525050565b5f6020820190506114305f83018461140e565b92915050565b61143f81611392565b82525050565b5f6020820190506114585f830184611436565b92915050565b5f805f6060848603121561147557611474611334565b5b5f6114828682870161137e565b93505060206114938682870161137e565b92505060406114a4868287016113b1565b9150509250925092565b5f60ff82169050919050565b6114c3816114ae565b82525050565b5f6020820190506114dc5f8301846114ba565b92915050565b5f602082840312156114f7576114f6611334565b5b5f6115048482850161137e565b91505092915050565b61151681611357565b82525050565b5f60208201905061152f5f83018461150d565b92915050565b5f806040838503121561154b5761154a611334565b5b5f6115588582860161137e565b92505060206115698582860161137e565b9150509250929050565b7f4e487b71000000000000000000000000000000000000000000000000000000005f52602260045260245ffd5b5f60028204905060018216806115b757607f821691505b6020821081036115ca576115c9611573565b5b50919050565b7f426c61636b6c69737465642061646472657373000000000000000000000000005f82015250565b5f611604601383611294565b915061160f826115d0565b602082019050919050565b5f6020820190508181035f830152611631816115f8565b9050919050565b7f496e76616c6964206164647265737300000000000000000000000000000000005f82015250565b5f61166c600f83611294565b915061167782611638565b602082019050919050565b5f6020820190508181035f83015261169981611660565b9050919050565b7f496e73756666696369656e7420616c6c6f77616e6365000000000000000000005f82015250565b5f6116d4601683611294565b91506116df826116a0565b602082019050919050565b5f6020820190508181035f830152611701816116c8565b9050919050565b7f426c61636b6c6973746564206164647265737320696e766f6c766564000000005f82015250565b5f61173c601c83611294565b915061174782611708565b602082019050919050565b5f6020820190508181035f83015261176981611730565b9050919050565b7f4e487b71000000000000000000000000000000000000000000000000000000005f52601160045260245ffd5b5f6117a782611392565b91506117b283611392565b92508282019050808211156117ca576117c9611770565b5b92915050565b7f496e73756666696369656e742062616c616e63650000000000000000000000005f82015250565b5f611804601483611294565b915061180f826117d0565b602082019050919050565b5f6020820190508181035f830152611831816117f8565b905091905056fea264697066735822122013c38fa5f28fdd975990dbb38a6134f2260acde5cd5b371e63a3f377215dce0564736f6c63430008170033","linkReferences":{}},"methodIdentifiers":{"allowance(address,address)":"dd62ed3e","approve(address,uint256)":"095ea7b3","balanceOf(address)":"70a08231","blacklist(address)":"f9f92be4","decimals()":"313ce567","isBlacklisted(address)":"fe575a87","name()":"06fdde03","owner()":"8da5cb5b","renounceOwnership()":"715018a6","symbol()":"95d89b41","totalSupply()":"18160ddd","transfer(address,uint256)":"a9059cbb","transferFrom(address,address,uint256)":"23b872dd","transferOwnership(address)":"f2fde38b","unblacklist(address)":"75e3661e"},"id":0}