{"abi":[{"type":"constructor","inputs":[{"name":"name_","type":"string","internalType":"string"},{"name":"symbol_","type":"string","internalType":"string"},{"name":"decimals_","type":"uint8","internalType":"uint8"},{"name":"totalSupply_","type":"uint256","internalType":"uint256"},{"name":"cap_","type":"uint256","internalType":"uint256"},{"name":"serviceFeeReceiver_","type":"address","internalType":"address"},{"name":"serviceFee_","type":"uint256","internalType":"uint256"}],"stateMutability":"payable"},{"type":"function","name":"allowance","inputs":[{"name":"owner","type":"address","internalType":"address"},{"name":"spender","type":"address","internalType":"address"}],"outputs":[{"name":"","type":"uint256","internalType":"uint256"}],"stateMutability":"view"},{"type":"function","name":"approve","inputs":[{"name":"spender","type":"address","internalType":"address"},{"name":"value","type":"uint256","internalType":"uint256"}],"outputs":[{"name":"","type":"bool","internalType":"bool"}],"stateMutability":"nonpayable"},{"type":"function","name":"balanceOf","inputs":[{"name":"account","type":"address","internalType":"address"}],"outputs":[{"name":"","type":"uint256","internalType":"uint256"}],"stateMutability":"view"},{"type":"function","name":"blacklistAddress","inputs":[{"name":"account","type":"address","internalType":"address"}],"outputs":[],"stateMutability":"nonpayable"},{"type":"function","name":"burn","inputs":[{"name":"value","type":"uint256","internalType":"uint256"}],"outputs":[],"stateMutability":"nonpayable"},{"type":"function","name":"burnFrom","inputs":[{"name":"account","type":"address","internalType":"address"},{"name":"value","type":"uint256","internalType":"uint256"}],"outputs":[],"stateMutability":"nonpayable"},{"type":"function","name":"cap","inputs":[],"outputs":[{"name":"","type":"uint256","internalType":"uint256"}],"stateMutability":"view"},{"type":"function","name":"decimals","inputs":[],"outputs":[{"name":"","type":"uint8","internalType":"uint8"}],"stateMutability":"view"},{"type":"function","name":"isBlacklisted","inputs":[{"name":"account","type":"address","internalType":"address"}],"outputs":[{"name":"","type":"bool","internalType":"bool"}],"stateMutability":"view"},{"type":"function","name":"mint","inputs":[{"name":"to","type":"address","internalType":"address"},{"name":"amount","type":"uint256","internalType":"uint256"}],"outputs":[],"stateMutability":"nonpayable"},{"type":"function","name":"name","inputs":[],"outputs":[{"name":"","type":"string","internalType":"string"}],"stateMutability":"view"},{"type":"function","name":"owner","inputs":[],"outputs":[{"name":"","type":"address","internalType":"address"}],"stateMutability":"view"},{"type":"function","name":"pause","inputs":[],"outputs":[],"stateMutability":"nonpayable"},{"type":"function","name":"paused","inputs":[],"outputs":[{"name":"","type":"bool","internalType":"bool"}],"stateMutability":"view"},{"type":"function","name":"renounceOwnership","inputs":[],"outputs":[],"stateMutability":"nonpayable"},{"type":"function","name":"symbol","inputs":[],"outputs":[{"name":"","type":"string","internalType":"string"}],"stateMutability":"view"},{"type":"function","name":"totalSupply","inputs":[],"outputs":[{"name":"","type":"uint256","internalType":"uint256"}],"stateMutability":"view"},{"type":"function","name":"transfer","inputs":[{"name":"to","type":"address","internalType":"address"},{"name":"value","type":"uint256","internalType":"uint256"}],"outputs":[{"name":"","type":"bool","internalType":"bool"}],"stateMutability":"nonpayable"},{"type":"function","name":"transferFrom","inputs":[{"name":"from","type":"address","internalType":"address"},{"name":"to","type":"address","internalType":"address"},{"name":"value","type":"uint256","internalType":"uint256"}],"outputs":[{"name":"","type":"bool","internalType":"bool"}],"stateMutability":"nonpayable"},{"type":"function","name":"transferOwnership","inputs":[{"name":"newOwner","type":"address","internalType":"address"}],"outputs":[],"stateMutability":"nonpayable"},{"type":"function","name":"unblacklistAddress","inputs":[{"name":"account","type":"address","internalType":"address"}],"outputs":[],"stateMutability":"nonpayable"},{"type":"function","name":"unpause","inputs":[],"outputs":[],"stateMutability":"nonpayable"},{"type":"event","name":"Approval","inputs":[{"name":"owner","type":"address","indexed":true,"internalType":"address"},{"name":"spender","type":"address","indexed":true,"internalType":"address"},{"name":"value","type":"uint256","indexed":false,"internalType":"uint256"}],"anonymous":false},{"type":"event","name":"Blacklisted","inputs":[{"name":"account","type":"address","indexed":true,"internalType":"address"}],"anonymous":false},{"type":"event","name":"OwnershipTransferred","inputs":[{"name":"previousOwner","type":"address","indexed":true,"internalType":"address"},{"name":"newOwner","type":"address","indexed":true,"internalType":"address"}],"anonymous":false},{"type":"event","name":"Paused","inputs":[{"name":"account","type":"address","indexed":false,"internalType":"address"}],"anonymous":false},{"type":"event","name":"Transfer","inputs":[{"name":"from","type":"address","indexed":true,"internalType":"address"},{"name":"to","type":"address","indexed":true,"internalType":"address"},{"name":"value","type":"uint256","indexed":false,"internalType":"uint256"}],"anonymous":false},{"type":"event","name":"Unblacklisted","inputs":[{"name":"account","type":"address","indexed":true,"internalType":"address"}],"anonymous":false},{"type":"event","name":"Unpaused","inputs":[{"name":"account","type":"address","indexed":false,"internalType":"address"}],"anonymous":false},{"type":"error","name":"EnforcedPause","inputs":[]},{"type":"error","name":"ExpectedPause","inputs":[]},{"type":"error","name":"OwnableInvalidOwner","inputs":[{"name":"owner","type":"address","internalType":"address"}]},{"type":"error","name":"OwnableUnauthorizedAccount","inputs":[{"name":"account","type":"address","internalType":"address"}]}],"bytecode":{"object":"0x60806040526040516200378f3803806200378f833981810160405281019062000029919062000ab1565b335f73ffffffffffffffffffffffffffffffffffffffff168173ffffffffffffffffffffffffffffffffffffffff16036200009d575f6040517f1e4fbdf700000000000000000000000000000000000000000000000000000000815260040162000094919062000bae565b60405180910390fd5b620000ae816200039060201b60201c565b505f8060146101000a81548160ff0219169083151502179055508660059081620000d9919062000df7565b508560069081620000eb919062000df7565b508460075f6101000a81548160ff021916908360ff1602179055505f83116200014b576040517f08c379a0000000000000000000000000000000000000000000000000000000008152600401620001429062000f39565b60405180910390fd5b82600881905550620001626200045160201b60201c565b600a620001709190620010d6565b620001806200046660201b60201c565b6200018c919062001126565b841115620001d1576040517f08c379a0000000000000000000000000000000000000000000000000000000008152600401620001c890620011be565b60405180910390fd5b8034101562000217576040517f08c379a00000000000000000000000000000000000000000000000000000000081526004016200020e906200122c565b60405180910390fd5b5f73ffffffffffffffffffffffffffffffffffffffff168273ffffffffffffffffffffffffffffffffffffffff160362000288576040517f08c379a00000000000000000000000000000000000000000000000000000000081526004016200027f906200129a565b60405180910390fd5b5f8273ffffffffffffffffffffffffffffffffffffffff1682604051620002af90620012eb565b5f6040518083038185875af1925050503d805f8114620002eb576040519150601f19603f3d011682016040523d82523d5f602084013e620002f0565b606091505b505090508062000337576040517f08c379a00000000000000000000000000000000000000000000000000000000081526004016200032e906200134f565b60405180910390fd5b620003826200034b6200046f60201b60201c565b6200035b6200045160201b60201c565b600a620003699190620010d6565b8762000376919062001126565b6200049660201b60201c565b5050505050505050620014b1565b5f805f9054906101000a900473ffffffffffffffffffffffffffffffffffffffff169050815f806101000a81548173ffffffffffffffffffffffffffffffffffffffff021916908373ffffffffffffffffffffffffffffffffffffffff1602179055508173ffffffffffffffffffffffffffffffffffffffff168173ffffffffffffffffffffffffffffffffffffffff167f8be0079c531659141344cd1fd0a4f28419497f9722a3daafe3b4186f6b6457e060405160405180910390a35050565b5f60075f9054906101000a900460ff16905090565b5f600854905090565b5f805f9054906101000a900473ffffffffffffffffffffffffffffffffffffffff16905090565b620004a66200045160201b60201c565b600a620004b49190620010d6565b620004c46200046660201b60201c565b620004d0919062001126565b81620004e1620005b960201b60201c565b620004ed91906200136f565b111562000531576040517f08c379a00000000000000000000000000000000000000000000000000000000081526004016200052890620011be565b60405180910390fd5b5f73ffffffffffffffffffffffffffffffffffffffff168273ffffffffffffffffffffffffffffffffffffffff1603620005a2576040517f08c379a00000000000000000000000000000000000000000000000000000000081526004016200059990620013f7565b60405180910390fd5b620005b55f8383620005c260201b60201c565b5050565b5f600454905090565b620005d2620007f960201b60201c565b5f73ffffffffffffffffffffffffffffffffffffffff168373ffffffffffffffffffffffffffffffffffffffff160362000626578060045f8282546200061991906200136f565b92505081905550620006f9565b5f60015f8573ffffffffffffffffffffffffffffffffffffffff1673ffffffffffffffffffffffffffffffffffffffff1681526020019081526020015f2054905081811015620006ad576040517f08c379a0000000000000000000000000000000000000000000000000000000008152600401620006a49062001465565b60405180910390fd5b8160015f8673ffffffffffffffffffffffffffffffffffffffff1673ffffffffffffffffffffffffffffffffffffffff1681526020019081526020015f205f8282540392505081905550505b5f73ffffffffffffffffffffffffffffffffffffffff168273ffffffffffffffffffffffffffffffffffffffff160362000742578060045f82825403925050819055506200078d565b8060015f8473ffffffffffffffffffffffffffffffffffffffff1673ffffffffffffffffffffffffffffffffffffffff1681526020019081526020015f205f82825401925050819055505b8173ffffffffffffffffffffffffffffffffffffffff168373ffffffffffffffffffffffffffffffffffffffff167fddf252ad1be2c89b69c2b068fc378daa952ba7f163c4a11628f55a4df523b3ef83604051620007ec919062001496565b60405180910390a3505050565b620008096200084360201b60201c565b1562000841576040517fd93c066500000000000000000000000000000000000000000000000000000000815260040160405180910390fd5b565b5f8060149054906101000a900460ff16905090565b5f604051905090565b5f80fd5b5f80fd5b5f80fd5b5f80fd5b5f601f19601f8301169050919050565b7f4e487b71000000000000000000000000000000000000000000000000000000005f52604160045260245ffd5b620008b98262000871565b810181811067ffffffffffffffff82111715620008db57620008da62000881565b5b80604052505050565b5f620008ef62000858565b9050620008fd8282620008ae565b919050565b5f67ffffffffffffffff8211156200091f576200091e62000881565b5b6200092a8262000871565b9050602081019050919050565b5f5b838110156200095657808201518184015260208101905062000939565b5f8484015250505050565b5f62000977620009718462000902565b620008e4565b9050828152602081018484840111156200099657620009956200086d565b5b620009a384828562000937565b509392505050565b5f82601f830112620009c257620009c162000869565b5b8151620009d484826020860162000961565b91505092915050565b5f60ff82169050919050565b620009f481620009dd565b8114620009ff575f80fd5b50565b5f8151905062000a1281620009e9565b92915050565b5f819050919050565b62000a2c8162000a18565b811462000a37575f80fd5b50565b5f8151905062000a4a8162000a21565b92915050565b5f73ffffffffffffffffffffffffffffffffffffffff82169050919050565b5f62000a7b8262000a50565b9050919050565b62000a8d8162000a6f565b811462000a98575f80fd5b50565b5f8151905062000aab8162000a82565b92915050565b5f805f805f805f60e0888a03121562000acf5762000ace62000861565b5b5f88015167ffffffffffffffff81111562000aef5762000aee62000865565b5b62000afd8a828b01620009ab565b975050602088015167ffffffffffffffff81111562000b215762000b2062000865565b5b62000b2f8a828b01620009ab565b965050604062000b428a828b0162000a02565b955050606062000b558a828b0162000a3a565b945050608062000b688a828b0162000a3a565b93505060a062000b7b8a828b0162000a9b565b92505060c062000b8e8a828b0162000a3a565b91505092959891949750929550565b62000ba88162000a6f565b82525050565b5f60208201905062000bc35f83018462000b9d565b92915050565b5f81519050919050565b7f4e487b71000000000000000000000000000000000000000000000000000000005f52602260045260245ffd5b5f600282049050600182168062000c1857607f821691505b60208210810362000c2e5762000c2d62000bd3565b5b50919050565b5f819050815f5260205f209050919050565b5f6020601f8301049050919050565b5f82821b905092915050565b5f6008830262000c927fffffffffffffffffffffffffffffffffffffffffffffffffffffffffffffffff8262000c55565b62000c9e868362000c55565b95508019841693508086168417925050509392505050565b5f819050919050565b5f62000cdf62000cd962000cd38462000a18565b62000cb6565b62000a18565b9050919050565b5f819050919050565b62000cfa8362000cbf565b62000d1262000d098262000ce6565b84845462000c61565b825550505050565b5f90565b62000d2862000d1a565b62000d3581848462000cef565b505050565b5b8181101562000d5c5762000d505f8262000d1e565b60018101905062000d3b565b5050565b601f82111562000dab5762000d758162000c34565b62000d808462000c46565b8101602085101562000d90578190505b62000da862000d9f8562000c46565b83018262000d3a565b50505b505050565b5f82821c905092915050565b5f62000dcd5f198460080262000db0565b1980831691505092915050565b5f62000de7838362000dbc565b9150826002028217905092915050565b62000e028262000bc9565b67ffffffffffffffff81111562000e1e5762000e1d62000881565b5b62000e2a825462000c00565b62000e3782828562000d60565b5f60209050601f83116001811462000e6d575f841562000e58578287015190505b62000e64858262000dda565b86555062000ed3565b601f19841662000e7d8662000c34565b5f5b8281101562000ea65784890151825560018201915060208501945060208101905062000e7f565b8683101562000ec6578489015162000ec2601f89168262000dbc565b8355505b6001600288020188555050505b505050505050565b5f82825260208201905092915050565b7f4361702073686f756c642062652067726561746572207468616e2030000000005f82015250565b5f62000f21601c8362000edb565b915062000f2e8262000eeb565b602082019050919050565b5f6020820190508181035f83015262000f528162000f13565b9050919050565b7f4e487b71000000000000000000000000000000000000000000000000000000005f52601160045260245ffd5b5f8160011c9050919050565b5f808291508390505b600185111562000fe35780860481111562000fbb5762000fba62000f59565b5b600185161562000fcb5780820291505b808102905062000fdb8562000f86565b945062000f9b565b94509492505050565b5f8262000ffd5760019050620010cf565b816200100c575f9050620010cf565b8160018114620010255760028114620010305762001066565b6001915050620010cf565b60ff84111562001045576200104462000f59565b5b8360020a9150848211156200105f576200105e62000f59565b5b50620010cf565b5060208310610133831016604e8410600b8410161715620010a05782820a9050838111156200109a576200109962000f59565b5b620010cf565b620010af848484600162000f92565b92509050818404811115620010c957620010c862000f59565b5b81810290505b9392505050565b5f620010e28262000a18565b9150620010ef83620009dd565b92506200111e7fffffffffffffffffffffffffffffffffffffffffffffffffffffffffffffffff848462000fec565b905092915050565b5f620011328262000a18565b91506200113f8362000a18565b92508282026200114f8162000a18565b9150828204841483151762001169576200116862000f59565b5b5092915050565b7f45524332304361707065643a20636170206578636565646564000000000000005f82015250565b5f620011a660198362000edb565b9150620011b38262001170565b602082019050919050565b5f6020820190508181035f830152620011d78162001198565b9050919050565b7f496e73756666696369656e742066656520616d6f756e742073656e74000000005f82015250565b5f62001214601c8362000edb565b91506200122182620011de565b602082019050919050565b5f6020820190508181035f830152620012458162001206565b9050919050565b7f496e76616c6964206665652072656365697665722061646472657373000000005f82015250565b5f62001282601c8362000edb565b91506200128f826200124c565b602082019050919050565b5f6020820190508181035f830152620012b38162001274565b9050919050565b5f81905092915050565b50565b5f620012d45f83620012ba565b9150620012e182620012c4565b5f82019050919050565b5f620012f782620012c7565b9150819050919050565b7f466565207472616e73666572206661696c6564000000000000000000000000005f82015250565b5f6200133760138362000edb565b9150620013448262001301565b602082019050919050565b5f6020820190508181035f830152620013688162001329565b9050919050565b5f6200137b8262000a18565b9150620013888362000a18565b9250828201905080821115620013a357620013a262000f59565b5b92915050565b7f45524332303a206d696e7420746f207a65726f206164647265737300000000005f82015250565b5f620013df601b8362000edb565b9150620013ec82620013a9565b602082019050919050565b5f6020820190508181035f8301526200141081620013d1565b9050919050565b7f45524332303a20696e73756666696369656e742062616c616e636500000000005f82015250565b5f6200144d601b8362000edb565b91506200145a8262001417565b602082019050919050565b5f6020820190508181035f8301526200147e816200143f565b9050919050565b620014908162000a18565b82525050565b5f602082019050620014ab5f83018462001485565b92915050565b6122d080620014bf5f395ff3fe608060405234801561000f575f80fd5b5060043610610140575f3560e01c806370a08231116100b657806395d89b411161007a57806395d89b4114610316578063a9059cbb14610334578063dd62ed3e14610364578063f2fde38b14610394578063f3290d75146103b0578063fe575a87146103cc57610140565b806370a0823114610298578063715018a6146102c857806379cc6790146102d25780638456cb59146102ee5780638da5cb5b146102f857610140565b8063355274ea11610108578063355274ea146101fe5780633f4ba83a1461021c57806340c10f191461022657806342966c681461024257806345e349491461025e5780635c975abb1461027a57610140565b806306fdde0314610144578063095ea7b31461016257806318160ddd1461019257806323b872dd146101b0578063313ce567146101e0575b5f80fd5b61014c6103fc565b6040516101599190611847565b60405180910390f35b61017c600480360381019061017791906118f8565b61048c565b6040516101899190611950565b60405180910390f35b61019a6105c6565b6040516101a79190611978565b60405180910390f35b6101ca60048036038101906101c59190611991565b6105cf565b6040516101d79190611950565b60405180910390f35b6101e8610715565b6040516101f591906119fc565b60405180910390f35b61020661072a565b6040516102139190611978565b60405180910390f35b610224610733565b005b610240600480360381019061023b91906118f8565b610745565b005b61025c60048036038101906102579190611a15565b61075b565b005b61027860048036038101906102739190611a40565b61076f565b005b610282610811565b60405161028f9190611950565b60405180910390f35b6102b260048036038101906102ad9190611a40565b610826565b6040516102bf9190611978565b60405180910390f35b6102d061086c565b005b6102ec60048036038101906102e791906118f8565b61087f565b005b6102f661089f565b005b6103006108b1565b60405161030d9190611a7a565b60405180910390f35b61031e6108d8565b60405161032b9190611847565b60405180910390f35b61034e600480360381019061034991906118f8565b610968565b60405161035b9190611950565b60405180910390f35b61037e60048036038101906103799190611a93565b610aa2565b60405161038b9190611978565b60405180910390f35b6103ae60048036038101906103a99190611a40565b610b24565b005b6103ca60048036038101906103c59190611a40565b610ba8565b005b6103e660048036038101906103e19190611a40565b610c4b565b6040516103f39190611950565b60405180910390f35b60606005805461040b90611afe565b80601f016020809104026020016040519081016040528092919081815260200182805461043790611afe565b80156104825780601f1061045957610100808354040283529160200191610482565b820191905f5260205f20905b81548152906001019060200180831161046557829003601f168201915b5050505050905090565b5f3360035f8273ffffffffffffffffffffffffffffffffffffffff1673ffffffffffffffffffffffffffffffffffffffff1681526020019081526020015f205f9054906101000a900460ff1615610518576040517f08c379a000000000000000000000000000000000000000000000000000000000815260040161050f90611b78565b60405180910390fd5b8360035f8273ffffffffffffffffffffffffffffffffffffffff1673ffffffffffffffffffffffffffffffffffffffff1681526020019081526020015f205f9054906101000a900460ff16156105a3576040517f08c379a000000000000000000000000000000000000000000000000000000000815260040161059a90611b78565b60405180910390fd5b5f6105ac610c9d565b90506105b9818787610ca4565b6001935050505092915050565b5f600454905090565b5f8360035f8273ffffffffffffffffffffffffffffffffffffffff1673ffffffffffffffffffffffffffffffffffffffff1681526020019081526020015f205f9054906101000a900460ff161561065b576040517f08c379a000000000000000000000000000000000000000000000000000000000815260040161065290611b78565b60405180910390fd5b8360035f8273ffffffffffffffffffffffffffffffffffffffff1673ffffffffffffffffffffffffffffffffffffffff1681526020019081526020015f205f9054906101000a900460ff16156106e6576040517f08c379a00000000000000000000000000000000000000000000000000000000081526004016106dd90611b78565b60405180910390fd5b5f6106ef610c9d565b90506106fc878287610f44565b610707878787610fd0565b600193505050509392505050565b5f60075f9054906101000a900460ff16905090565b5f600854905090565b61073b611199565b610743611220565b565b61074d611199565b6107578282611281565b5050565b61076c610766610c9d565b82611378565b50565b610777611199565b5f60035f8373ffffffffffffffffffffffffffffffffffffffff1673ffffffffffffffffffffffffffffffffffffffff1681526020019081526020015f205f6101000a81548160ff0219169083151502179055508073ffffffffffffffffffffffffffffffffffffffff167f7534c63860313c46c473e4e98328f37017e9674e2162faf1a3ad7a96236c3b7b60405160405180910390a250565b5f8060149054906101000a900460ff16905090565b5f60015f8373ffffffffffffffffffffffffffffffffffffffff1673ffffffffffffffffffffffffffffffffffffffff1681526020019081526020015f20549050919050565b610874611199565b61087d5f6113f5565b565b6108918261088b610c9d565b83610f44565b61089b8282611378565b5050565b6108a7611199565b6108af6114b6565b565b5f805f9054906101000a900473ffffffffffffffffffffffffffffffffffffffff16905090565b6060600680546108e790611afe565b80601f016020809104026020016040519081016040528092919081815260200182805461091390611afe565b801561095e5780601f106109355761010080835404028352916020019161095e565b820191905f5260205f20905b81548152906001019060200180831161094157829003601f168201915b5050505050905090565b5f3360035f8273ffffffffffffffffffffffffffffffffffffffff1673ffffffffffffffffffffffffffffffffffffffff1681526020019081526020015f205f9054906101000a900460ff16156109f4576040517f08c379a00000000000000000000000000000000000000000000000000000000081526004016109eb90611b78565b60405180910390fd5b8360035f8273ffffffffffffffffffffffffffffffffffffffff1673ffffffffffffffffffffffffffffffffffffffff1681526020019081526020015f205f9054906101000a900460ff1615610a7f576040517f08c379a0000000000000000000000000000000000000000000000000000000008152600401610a7690611b78565b60405180910390fd5b5f610a88610c9d565b9050610a95818787610fd0565b6001935050505092915050565b5f60025f8473ffffffffffffffffffffffffffffffffffffffff1673ffffffffffffffffffffffffffffffffffffffff1681526020019081526020015f205f8373ffffffffffffffffffffffffffffffffffffffff1673ffffffffffffffffffffffffffffffffffffffff1681526020019081526020015f2054905092915050565b610b2c611199565b5f73ffffffffffffffffffffffffffffffffffffffff168173ffffffffffffffffffffffffffffffffffffffff1603610b9c575f6040517f1e4fbdf7000000000000000000000000000000000000000000000000000000008152600401610b939190611a7a565b60405180910390fd5b610ba5816113f5565b50565b610bb0611199565b600160035f8373ffffffffffffffffffffffffffffffffffffffff1673ffffffffffffffffffffffffffffffffffffffff1681526020019081526020015f205f6101000a81548160ff0219169083151502179055508073ffffffffffffffffffffffffffffffffffffffff167fffa4e6181777692565cf28528fc88fd1516ea86b56da075235fa575af6a4b85560405160405180910390a250565b5f60035f8373ffffffffffffffffffffffffffffffffffffffff1673ffffffffffffffffffffffffffffffffffffffff1681526020019081526020015f205f9054906101000a900460ff169050919050565b5f33905090565b60035f8473ffffffffffffffffffffffffffffffffffffffff1673ffffffffffffffffffffffffffffffffffffffff1681526020019081526020015f205f9054906101000a900460ff16158015610d42575060035f8373ffffffffffffffffffffffffffffffffffffffff1673ffffffffffffffffffffffffffffffffffffffff1681526020019081526020015f205f9054906101000a900460ff16155b610d81576040517f08c379a0000000000000000000000000000000000000000000000000000000008152600401610d7890611c06565b60405180910390fd5b5f73ffffffffffffffffffffffffffffffffffffffff168373ffffffffffffffffffffffffffffffffffffffff1603610def576040517f08c379a0000000000000000000000000000000000000000000000000000000008152600401610de690611c6e565b60405180910390fd5b5f73ffffffffffffffffffffffffffffffffffffffff168273ffffffffffffffffffffffffffffffffffffffff1603610e5d576040517f08c379a0000000000000000000000000000000000000000000000000000000008152600401610e5490611cd6565b60405180910390fd5b8060025f8573ffffffffffffffffffffffffffffffffffffffff1673ffffffffffffffffffffffffffffffffffffffff1681526020019081526020015f205f8473ffffffffffffffffffffffffffffffffffffffff1673ffffffffffffffffffffffffffffffffffffffff1681526020019081526020015f20819055508173ffffffffffffffffffffffffffffffffffffffff168373ffffffffffffffffffffffffffffffffffffffff167f8c5be1e5ebec7d5bd14f71427d1e84f3dd0314c0f7b2291e5b200ac8c7c3b92583604051610f379190611978565b60405180910390a3505050565b5f610f4f8484610aa2565b90507fffffffffffffffffffffffffffffffffffffffffffffffffffffffffffffffff811015610fca5781811015610fbc576040517f08c379a0000000000000000000000000000000000000000000000000000000008152600401610fb390611d3e565b60405180910390fd5b610fc98484848403610ca4565b5b50505050565b60035f8473ffffffffffffffffffffffffffffffffffffffff1673ffffffffffffffffffffffffffffffffffffffff1681526020019081526020015f205f9054906101000a900460ff1615801561106e575060035f8373ffffffffffffffffffffffffffffffffffffffff1673ffffffffffffffffffffffffffffffffffffffff1681526020019081526020015f205f9054906101000a900460ff16155b6110ad576040517f08c379a00000000000000000000000000000000000000000000000000000000081526004016110a490611dcc565b60405180910390fd5b5f73ffffffffffffffffffffffffffffffffffffffff168373ffffffffffffffffffffffffffffffffffffffff160361111b576040517f08c379a000000000000000000000000000000000000000000000000000000000815260040161111290611e5a565b60405180910390fd5b5f73ffffffffffffffffffffffffffffffffffffffff168273ffffffffffffffffffffffffffffffffffffffff1603611189576040517f08c379a000000000000000000000000000000000000000000000000000000000815260040161118090611ec2565b60405180910390fd5b611194838383611518565b505050565b6111a1610c9d565b73ffffffffffffffffffffffffffffffffffffffff166111bf6108b1565b73ffffffffffffffffffffffffffffffffffffffff161461121e576111e2610c9d565b6040517f118cdaa70000000000000000000000000000000000000000000000000000000081526004016112159190611a7a565b60405180910390fd5b565b61122861173c565b5f8060146101000a81548160ff0219169083151502179055507f5db9ee0a495bf2e6ff9c91a7834c1ba4fdd244a5e8aa4e537bd38aeae4b073aa61126a610c9d565b6040516112779190611a7a565b60405180910390a1565b611289610715565b600a611295919061203c565b61129d61072a565b6112a79190612086565b816112b06105c6565b6112ba91906120c7565b11156112fb576040517f08c379a00000000000000000000000000000000000000000000000000000000081526004016112f290612144565b60405180910390fd5b5f73ffffffffffffffffffffffffffffffffffffffff168273ffffffffffffffffffffffffffffffffffffffff1603611369576040517f08c379a0000000000000000000000000000000000000000000000000000000008152600401611360906121ac565b60405180910390fd5b6113745f8383611518565b5050565b5f73ffffffffffffffffffffffffffffffffffffffff168273ffffffffffffffffffffffffffffffffffffffff16036113e6576040517f08c379a00000000000000000000000000000000000000000000000000000000081526004016113dd90612214565b60405180910390fd5b6113f1825f83611518565b5050565b5f805f9054906101000a900473ffffffffffffffffffffffffffffffffffffffff169050815f806101000a81548173ffffffffffffffffffffffffffffffffffffffff021916908373ffffffffffffffffffffffffffffffffffffffff1602179055508173ffffffffffffffffffffffffffffffffffffffff168173ffffffffffffffffffffffffffffffffffffffff167f8be0079c531659141344cd1fd0a4f28419497f9722a3daafe3b4186f6b6457e060405160405180910390a35050565b6114be61177c565b60015f60146101000a81548160ff0219169083151502179055507f62e78cea01bee320cd4e420270b5ea74000d11b0c9f74754ebdbfc544b05a258611501610c9d565b60405161150e9190611a7a565b60405180910390a1565b61152061177c565b5f73ffffffffffffffffffffffffffffffffffffffff168373ffffffffffffffffffffffffffffffffffffffff1603611570578060045f82825461156491906120c7565b92505081905550611640565b5f60015f8573ffffffffffffffffffffffffffffffffffffffff1673ffffffffffffffffffffffffffffffffffffffff1681526020019081526020015f20549050818110156115f4576040517f08c379a00000000000000000000000000000000000000000000000000000000081526004016115eb9061227c565b60405180910390fd5b8160015f8673ffffffffffffffffffffffffffffffffffffffff1673ffffffffffffffffffffffffffffffffffffffff1681526020019081526020015f205f8282540392505081905550505b5f73ffffffffffffffffffffffffffffffffffffffff168273ffffffffffffffffffffffffffffffffffffffff1603611687578060045f82825403925050819055506116d2565b8060015f8473ffffffffffffffffffffffffffffffffffffffff1673ffffffffffffffffffffffffffffffffffffffff1681526020019081526020015f205f82825401925050819055505b8173ffffffffffffffffffffffffffffffffffffffff168373ffffffffffffffffffffffffffffffffffffffff167fddf252ad1be2c89b69c2b068fc378daa952ba7f163c4a11628f55a4df523b3ef8360405161172f9190611978565b60405180910390a3505050565b611744610811565b61177a576040517f8dfc202b00000000000000000000000000000000000000000000000000000000815260040160405180910390fd5b565b611784610811565b156117bb576040517fd93c066500000000000000000000000000000000000000000000000000000000815260040160405180910390fd5b565b5f81519050919050565b5f82825260208201905092915050565b5f5b838110156117f45780820151818401526020810190506117d9565b5f8484015250505050565b5f601f19601f8301169050919050565b5f611819826117bd565b61182381856117c7565b93506118338185602086016117d7565b61183c816117ff565b840191505092915050565b5f6020820190508181035f83015261185f818461180f565b905092915050565b5f80fd5b5f73ffffffffffffffffffffffffffffffffffffffff82169050919050565b5f6118948261186b565b9050919050565b6118a48161188a565b81146118ae575f80fd5b50565b5f813590506118bf8161189b565b92915050565b5f819050919050565b6118d7816118c5565b81146118e1575f80fd5b50565b5f813590506118f2816118ce565b92915050565b5f806040838503121561190e5761190d611867565b5b5f61191b858286016118b1565b925050602061192c858286016118e4565b9150509250929050565b5f8115159050919050565b61194a81611936565b82525050565b5f6020820190506119635f830184611941565b92915050565b611972816118c5565b82525050565b5f60208201905061198b5f830184611969565b92915050565b5f805f606084860312156119a8576119a7611867565b5b5f6119b5868287016118b1565b93505060206119c6868287016118b1565b92505060406119d7868287016118e4565b9150509250925092565b5f60ff82169050919050565b6119f6816119e1565b82525050565b5f602082019050611a0f5f8301846119ed565b92915050565b5f60208284031215611a2a57611a29611867565b5b5f611a37848285016118e4565b91505092915050565b5f60208284031215611a5557611a54611867565b5b5f611a62848285016118b1565b91505092915050565b611a748161188a565b82525050565b5f602082019050611a8d5f830184611a6b565b92915050565b5f8060408385031215611aa957611aa8611867565b5b5f611ab6858286016118b1565b9250506020611ac7858286016118b1565b9150509250929050565b7f4e487b71000000000000000000000000000000000000000000000000000000005f52602260045260245ffd5b5f6002820490506001821680611b1557607f821691505b602082108103611b2857611b27611ad1565b5b50919050565b7f426c61636b6c69737465642061646472657373000000000000000000000000005f82015250565b5f611b626013836117c7565b9150611b6d82611b2e565b602082019050919050565b5f6020820190508181035f830152611b8f81611b56565b9050919050565b7f417070726f76652066726f6d2f746f20626c61636b6c697374656420616464725f8201527f6573730000000000000000000000000000000000000000000000000000000000602082015250565b5f611bf06023836117c7565b9150611bfb82611b96565b604082019050919050565b5f6020820190508181035f830152611c1d81611be4565b9050919050565b7f45524332303a20617070726f76652066726f6d207a65726f20616464726573735f82015250565b5f611c586020836117c7565b9150611c6382611c24565b602082019050919050565b5f6020820190508181035f830152611c8581611c4c565b9050919050565b7f45524332303a20617070726f766520746f207a65726f206164647265737300005f82015250565b5f611cc0601e836117c7565b9150611ccb82611c8c565b602082019050919050565b5f6020820190508181035f830152611ced81611cb4565b9050919050565b7f45524332303a20696e73756666696369656e7420616c6c6f77616e63650000005f82015250565b5f611d28601d836117c7565b9150611d3382611cf4565b602082019050919050565b5f6020820190508181035f830152611d5581611d1c565b9050919050565b7f5472616e736665722066726f6d2f746f20626c61636b6c6973746564206164645f8201527f7265737300000000000000000000000000000000000000000000000000000000602082015250565b5f611db66024836117c7565b9150611dc182611d5c565b604082019050919050565b5f6020820190508181035f830152611de381611daa565b9050919050565b7f45524332303a207472616e736665722066726f6d207a65726f206164647265735f8201527f7300000000000000000000000000000000000000000000000000000000000000602082015250565b5f611e446021836117c7565b9150611e4f82611dea565b604082019050919050565b5f6020820190508181035f830152611e7181611e38565b9050919050565b7f45524332303a207472616e7366657220746f207a65726f2061646472657373005f82015250565b5f611eac601f836117c7565b9150611eb782611e78565b602082019050919050565b5f6020820190508181035f830152611ed981611ea0565b9050919050565b7f4e487b71000000000000000000000000000000000000000000000000000000005f52601160045260245ffd5b5f8160011c9050919050565b5f808291508390505b6001851115611f6257808604811115611f3e57611f3d611ee0565b5b6001851615611f4d5780820291505b8081029050611f5b85611f0d565b9450611f22565b94509492505050565b5f82611f7a5760019050612035565b81611f87575f9050612035565b8160018114611f9d5760028114611fa757611fd6565b6001915050612035565b60ff841115611fb957611fb8611ee0565b5b8360020a915084821115611fd057611fcf611ee0565b5b50612035565b5060208310610133831016604e8410600b841016171561200b5782820a90508381111561200657612005611ee0565b5b612035565b6120188484846001611f19565b9250905081840481111561202f5761202e611ee0565b5b81810290505b9392505050565b5f612046826118c5565b9150612051836119e1565b925061207e7fffffffffffffffffffffffffffffffffffffffffffffffffffffffffffffffff8484611f6b565b905092915050565b5f612090826118c5565b915061209b836118c5565b92508282026120a9816118c5565b915082820484148315176120c0576120bf611ee0565b5b5092915050565b5f6120d1826118c5565b91506120dc836118c5565b92508282019050808211156120f4576120f3611ee0565b5b92915050565b7f45524332304361707065643a20636170206578636565646564000000000000005f82015250565b5f61212e6019836117c7565b9150612139826120fa565b602082019050919050565b5f6020820190508181035f83015261215b81612122565b9050919050565b7f45524332303a206d696e7420746f207a65726f206164647265737300000000005f82015250565b5f612196601b836117c7565b91506121a182612162565b602082019050919050565b5f6020820190508181035f8301526121c38161218a565b9050919050565b7f45524332303a206275726e2066726f6d207a65726f20616464726573730000005f82015250565b5f6121fe601d836117c7565b9150612209826121ca565b602082019050919050565b5f6020820190508181035f83015261222b816121f2565b9050919050565b7f45524332303a20696e73756666696369656e742062616c616e636500000000005f82015250565b5f612266601b836117c7565b915061227182612232565b602082019050919050565b5f6020820190508181035f8301526122938161225a565b905091905056fea264697066735822122039253a3b21d9c65fc6ca82410c71d99e08bb57d0edc9f8296843431a7da326e664736f6c63430008170033","linkReferences":{}},"methodIdentifiers":{"allowance(address,address)":"dd62ed3e","approve(address,uint256)":"095ea7b3","balanceOf(address)":"70a08231","blacklistAddress(address)":"f3290d75","burn(uint256)":"42966c68","burnFrom(address,uint256)":"79cc6790","cap()":"355274ea","decimals()":"313ce567","isBlacklisted(address)":"fe575a87","mint(address,uint256)":"40c10f19","name()":"06fdde03","owner()":"8da5cb5b","pause()":"8456cb59","paused()":"5c975abb","renounceOwnership()":"715018a6","symbol()":"95d89b41","totalSupply()":"18160ddd","transfer(address,uint256)":"a9059cbb","transferFrom(address,address,uint256)":"23b872dd","transferOwnership(address)":"f2fde38b","unblacklistAddress(address)":"45e34949","unpause()":"3f4ba83a"},"id":36}