{"abi":[{"type":"constructor","inputs":[{"name":"name_","type":"string","internalType":"string"},{"name":"symbol_","type":"string","internalType":"string"},{"name":"decimals_","type":"uint8","internalType":"uint8"},{"name":"totalSupply_","type":"uint256","internalType":"uint256"},{"name":"cap_","type":"uint256","internalType":"uint256"},{"name":"serviceFeeReceiver_","type":"address","internalType":"address"},{"name":"serviceFee_","type":"uint256","internalType":"uint256"}],"stateMutability":"payable"},{"type":"function","name":"allowance","inputs":[{"name":"owner","type":"address","internalType":"address"},{"name":"spender","type":"address","internalType":"address"}],"outputs":[{"name":"","type":"uint256","internalType":"uint256"}],"stateMutability":"view"},{"type":"function","name":"approve","inputs":[{"name":"spender","type":"address","internalType":"address"},{"name":"value","type":"uint256","internalType":"uint256"}],"outputs":[{"name":"","type":"bool","internalType":"bool"}],"stateMutability":"nonpayable"},{"type":"function","name":"balanceOf","inputs":[{"name":"account","type":"address","internalType":"address"}],"outputs":[{"name":"","type":"uint256","internalType":"uint256"}],"stateMutability":"view"},{"type":"function","name":"blacklistAddress","inputs":[{"name":"account","type":"address","internalType":"address"}],"outputs":[],"stateMutability":"nonpayable"},{"type":"function","name":"burn","inputs":[{"name":"value","type":"uint256","internalType":"uint256"}],"outputs":[],"stateMutability":"nonpayable"},{"type":"function","name":"burnFrom","inputs":[{"name":"account","type":"address","internalType":"address"},{"name":"value","type":"uint256","internalType":"uint256"}],"outputs":[],"stateMutability":"nonpayable"},{"type":"function","name":"cap","inputs":[],"outputs":[{"name":"","type":"uint256","internalType":"uint256"}],"stateMutability":"view"},{"type":"function","name":"decimals","inputs":[],"outputs":[{"name":"","type":"uint8","internalType":"uint8"}],"stateMutability":"view"},{"type":"function","name":"isBlacklisted","inputs":[{"name":"account","type":"address","internalType":"address"}],"outputs":[{"name":"","type":"bool","internalType":"bool"}],"stateMutability":"view"},{"type":"function","name":"mint","inputs":[{"name":"to","type":"address","internalType":"address"},{"name":"amount","type":"uint256","internalType":"uint256"}],"outputs":[],"stateMutability":"nonpayable"},{"type":"function","name":"name","inputs":[],"outputs":[{"name":"","type":"string","internalType":"string"}],"stateMutability":"view"},{"type":"function","name":"owner","inputs":[],"outputs":[{"name":"","type":"address","internalType":"address"}],"stateMutability":"view"},{"type":"function","name":"pause","inputs":[],"outputs":[],"stateMutability":"nonpayable"},{"type":"function","name":"paused","inputs":[],"outputs":[{"name":"","type":"bool","internalType":"bool"}],"stateMutability":"view"},{"type":"function","name":"renounceOwnership","inputs":[],"outputs":[],"stateMutability":"nonpayable"},{"type":"function","name":"symbol","inputs":[],"outputs":[{"name":"","type":"string","internalType":"string"}],"stateMutability":"view"},{"type":"function","name":"totalSupply","inputs":[],"outputs":[{"name":"","type":"uint256","internalType":"uint256"}],"stateMutability":"view"},{"type":"function","name":"transfer","inputs":[{"name":"to","type":"address","internalType":"address"},{"name":"value","type":"uint256","internalType":"uint256"}],"outputs":[{"name":"","type":"bool","internalType":"bool"}],"stateMutability":"nonpayable"},{"type":"function","name":"transferFrom","inputs":[{"name":"from","type":"address","internalType":"address"},{"name":"to","type":"address","internalType":"address"},{"name":"value","type":"uint256","internalType":"uint256"}],"outputs":[{"name":"","type":"bool","internalType":"bool"}],"stateMutability":"nonpayable"},{"type":"function","name":"transferOwnership","inputs":[{"name":"newOwner","type":"address","internalType":"address"}],"outputs":[],"stateMutability":"nonpayable"},{"type":"function","name":"unblacklistAddress","inputs":[{"name":"account","type":"address","internalType":"address"}],"outputs":[],"stateMutability":"nonpayable"},{"type":"function","name":"unpause","inputs":[],"outputs":[],"stateMutability":"nonpayable"},{"type":"event","name":"Approval","inputs":[{"name":"owner","type":"address","indexed":true,"internalType":"address"},{"name":"spender","type":"address","indexed":true,"internalType":"address"},{"name":"value","type":"uint256","indexed":false,"internalType":"uint256"}],"anonymous":false},{"type":"event","name":"Blacklisted","inputs":[{"name":"account","type":"address","indexed":true,"internalType":"address"}],"anonymous":false},{"type":"event","name":"OwnershipTransferred","inputs":[{"name":"previousOwner","type":"address","indexed":true,"internalType":"address"},{"name":"newOwner","type":"address","indexed":true,"internalType":"address"}],"anonymous":false},{"type":"event","name":"Paused","inputs":[{"name":"account","type":"address","indexed":false,"internalType":"address"}],"anonymous":false},{"type":"event","name":"Transfer","inputs":[{"name":"from","type":"address","indexed":true,"internalType":"address"},{"name":"to","type":"address","indexed":true,"internalType":"address"},{"name":"value","type":"uint256","indexed":false,"internalType":"uint256"}],"anonymous":false},{"type":"event","name":"Unblacklisted","inputs":[{"name":"account","type":"address","indexed":true,"internalType":"address"}],"anonymous":false},{"type":"event","name":"Unpaused","inputs":[{"name":"account","type":"address","indexed":false,"internalType":"address"}],"anonymous":false},{"type":"error","name":"EnforcedPause","inputs":[]},{"type":"error","name":"ExpectedPause","inputs":[]},{"type":"error","name":"OwnableInvalidOwner","inputs":[{"name":"owner","type":"address","internalType":"address"}]},{"type":"error","name":"OwnableUnauthorizedAccount","inputs":[{"name":"account","type":"address","internalType":"address"}]}],"bytecode":{"object":"0x608060405260405161361238038061361283398181016040528101906100259190610a11565b335f73ffffffffffffffffffffffffffffffffffffffff168173ffffffffffffffffffffffffffffffffffffffff1603610096575f6040517f1e4fbdf700000000000000000000000000000000000000000000000000000000815260040161008d9190610af5565b60405180910390fd5b6100a58161035d60201b60201c565b505f5f60146101000a81548160ff02191690831515021790555086600590816100ce9190610d15565b5085600690816100de9190610d15565b508460075f6101000a81548160ff021916908360ff1602179055505f831161013b576040517f08c379a000000000000000000000000000000000000000000000000000000000815260040161013290610e3e565b60405180910390fd5b8260088190555061015061041e60201b60201c565b600a61015c9190610fb8565b61016a61043360201b60201c565b6101749190611002565b8411156101b6576040517f08c379a00000000000000000000000000000000000000000000000000000000081526004016101ad9061108d565b60405180910390fd5b803410156101f9576040517f08c379a00000000000000000000000000000000000000000000000000000000081526004016101f0906110f5565b60405180910390fd5b5f73ffffffffffffffffffffffffffffffffffffffff168273ffffffffffffffffffffffffffffffffffffffff1603610267576040517f08c379a000000000000000000000000000000000000000000000000000000000815260040161025e9061115d565b60405180910390fd5b5f8273ffffffffffffffffffffffffffffffffffffffff168260405161028c906111a8565b5f6040518083038185875af1925050503d805f81146102c6576040519150601f19603f3d011682016040523d82523d5f602084013e6102cb565b606091505b505090508061030f576040517f08c379a000000000000000000000000000000000000000000000000000000000815260040161030690611206565b60405180910390fd5b61035061032061043c60201b60201c565b61032e61041e60201b60201c565b600a61033a9190610fb8565b876103459190611002565b61046360201b60201c565b505050505050505061134f565b5f5f5f9054906101000a900473ffffffffffffffffffffffffffffffffffffffff169050815f5f6101000a81548173ffffffffffffffffffffffffffffffffffffffff021916908373ffffffffffffffffffffffffffffffffffffffff1602179055508173ffffffffffffffffffffffffffffffffffffffff168173ffffffffffffffffffffffffffffffffffffffff167f8be0079c531659141344cd1fd0a4f28419497f9722a3daafe3b4186f6b6457e060405160405180910390a35050565b5f60075f9054906101000a900460ff16905090565b5f600854905090565b5f5f5f9054906101000a900473ffffffffffffffffffffffffffffffffffffffff16905090565b61047161041e60201b60201c565b600a61047d9190610fb8565b61048b61043360201b60201c565b6104959190611002565b816104a461057260201b60201c565b6104ae9190611224565b11156104ef576040517f08c379a00000000000000000000000000000000000000000000000000000000081526004016104e69061108d565b60405180910390fd5b5f73ffffffffffffffffffffffffffffffffffffffff168273ffffffffffffffffffffffffffffffffffffffff160361055d576040517f08c379a0000000000000000000000000000000000000000000000000000000008152600401610554906112a1565b60405180910390fd5b61056e5f838361057b60201b60201c565b5050565b5f600454905090565b6105896107a560201b60201c565b5f73ffffffffffffffffffffffffffffffffffffffff168373ffffffffffffffffffffffffffffffffffffffff16036105d9578060045f8282546105cd9190611224565b925050819055506106a9565b5f60015f8573ffffffffffffffffffffffffffffffffffffffff1673ffffffffffffffffffffffffffffffffffffffff1681526020019081526020015f205490508181101561065d576040517f08c379a000000000000000000000000000000000000000000000000000000000815260040161065490611309565b60405180910390fd5b8160015f8673ffffffffffffffffffffffffffffffffffffffff1673ffffffffffffffffffffffffffffffffffffffff1681526020019081526020015f205f8282540392505081905550505b5f73ffffffffffffffffffffffffffffffffffffffff168273ffffffffffffffffffffffffffffffffffffffff16036106f0578060045f828254039250508190555061073b565b8060015f8473ffffffffffffffffffffffffffffffffffffffff1673ffffffffffffffffffffffffffffffffffffffff1681526020019081526020015f205f82825401925050819055505b8173ffffffffffffffffffffffffffffffffffffffff168373ffffffffffffffffffffffffffffffffffffffff167fddf252ad1be2c89b69c2b068fc378daa952ba7f163c4a11628f55a4df523b3ef836040516107989190611336565b60405180910390a3505050565b6107b36107ec60201b60201c565b156107ea576040517fd93c066500000000000000000000000000000000000000000000000000000000815260040160405180910390fd5b565b5f5f60149054906101000a900460ff16905090565b5f604051905090565b5f5ffd5b5f5ffd5b5f5ffd5b5f5ffd5b5f601f19601f8301169050919050565b7f4e487b71000000000000000000000000000000000000000000000000000000005f52604160045260245ffd5b6108608261081a565b810181811067ffffffffffffffff8211171561087f5761087e61082a565b5b80604052505050565b5f610891610801565b905061089d8282610857565b919050565b5f67ffffffffffffffff8211156108bc576108bb61082a565b5b6108c58261081a565b9050602081019050919050565b8281835e5f83830152505050565b5f6108f26108ed846108a2565b610888565b90508281526020810184848401111561090e5761090d610816565b5b6109198482856108d2565b509392505050565b5f82601f83011261093557610934610812565b5b81516109458482602086016108e0565b91505092915050565b5f60ff82169050919050565b6109638161094e565b811461096d575f5ffd5b50565b5f8151905061097e8161095a565b92915050565b5f819050919050565b61099681610984565b81146109a0575f5ffd5b50565b5f815190506109b18161098d565b92915050565b5f73ffffffffffffffffffffffffffffffffffffffff82169050919050565b5f6109e0826109b7565b9050919050565b6109f0816109d6565b81146109fa575f5ffd5b50565b5f81519050610a0b816109e7565b92915050565b5f5f5f5f5f5f5f60e0888a031215610a2c57610a2b61080a565b5b5f88015167ffffffffffffffff811115610a4957610a4861080e565b5b610a558a828b01610921565b975050602088015167ffffffffffffffff811115610a7657610a7561080e565b5b610a828a828b01610921565b9650506040610a938a828b01610970565b9550506060610aa48a828b016109a3565b9450506080610ab58a828b016109a3565b93505060a0610ac68a828b016109fd565b92505060c0610ad78a828b016109a3565b91505092959891949750929550565b610aef816109d6565b82525050565b5f602082019050610b085f830184610ae6565b92915050565b5f81519050919050565b7f4e487b71000000000000000000000000000000000000000000000000000000005f52602260045260245ffd5b5f6002820490506001821680610b5c57607f821691505b602082108103610b6f57610b6e610b18565b5b50919050565b5f819050815f5260205f209050919050565b5f6020601f8301049050919050565b5f82821b905092915050565b5f60088302610bd17fffffffffffffffffffffffffffffffffffffffffffffffffffffffffffffffff82610b96565b610bdb8683610b96565b95508019841693508086168417925050509392505050565b5f819050919050565b5f610c16610c11610c0c84610984565b610bf3565b610984565b9050919050565b5f819050919050565b610c2f83610bfc565b610c43610c3b82610c1d565b848454610ba2565b825550505050565b5f5f905090565b610c5a610c4b565b610c65818484610c26565b505050565b5b81811015610c8857610c7d5f82610c52565b600181019050610c6b565b5050565b601f821115610ccd57610c9e81610b75565b610ca784610b87565b81016020851015610cb6578190505b610cca610cc285610b87565b830182610c6a565b50505b505050565b5f82821c905092915050565b5f610ced5f1984600802610cd2565b1980831691505092915050565b5f610d058383610cde565b9150826002028217905092915050565b610d1e82610b0e565b67ffffffffffffffff811115610d3757610d3661082a565b5b610d418254610b45565b610d4c828285610c8c565b5f60209050601f831160018114610d7d575f8415610d6b578287015190505b610d758582610cfa565b865550610ddc565b601f198416610d8b86610b75565b5f5b82811015610db257848901518255600182019150602085019450602081019050610d8d565b86831015610dcf5784890151610dcb601f891682610cde565b8355505b6001600288020188555050505b505050505050565b5f82825260208201905092915050565b7f4361702073686f756c642062652067726561746572207468616e2030000000005f82015250565b5f610e28601c83610de4565b9150610e3382610df4565b602082019050919050565b5f6020820190508181035f830152610e5581610e1c565b9050919050565b7f4e487b71000000000000000000000000000000000000000000000000000000005f52601160045260245ffd5b5f8160011c9050919050565b5f5f8291508390505b6001851115610ede57808604811115610eba57610eb9610e5c565b5b6001851615610ec95780820291505b8081029050610ed785610e89565b9450610e9e565b94509492505050565b5f82610ef65760019050610fb1565b81610f03575f9050610fb1565b8160018114610f195760028114610f2357610f52565b6001915050610fb1565b60ff841115610f3557610f34610e5c565b5b8360020a915084821115610f4c57610f4b610e5c565b5b50610fb1565b5060208310610133831016604e8410600b8410161715610f875782820a905083811115610f8257610f81610e5c565b5b610fb1565b610f948484846001610e95565b92509050818404811115610fab57610faa610e5c565b5b81810290505b9392505050565b5f610fc282610984565b9150610fcd8361094e565b9250610ffa7fffffffffffffffffffffffffffffffffffffffffffffffffffffffffffffffff8484610ee7565b905092915050565b5f61100c82610984565b915061101783610984565b925082820261102581610984565b9150828204841483151761103c5761103b610e5c565b5b5092915050565b7f45524332304361707065643a20636170206578636565646564000000000000005f82015250565b5f611077601983610de4565b915061108282611043565b602082019050919050565b5f6020820190508181035f8301526110a48161106b565b9050919050565b7f496e73756666696369656e742066656520616d6f756e742073656e74000000005f82015250565b5f6110df601c83610de4565b91506110ea826110ab565b602082019050919050565b5f6020820190508181035f83015261110c816110d3565b9050919050565b7f496e76616c6964206665652072656365697665722061646472657373000000005f82015250565b5f611147601c83610de4565b915061115282611113565b602082019050919050565b5f6020820190508181035f8301526111748161113b565b9050919050565b5f81905092915050565b50565b5f6111935f8361117b565b915061119e82611185565b5f82019050919050565b5f6111b282611188565b9150819050919050565b7f466565207472616e73666572206661696c6564000000000000000000000000005f82015250565b5f6111f0601383610de4565b91506111fb826111bc565b602082019050919050565b5f6020820190508181035f83015261121d816111e4565b9050919050565b5f61122e82610984565b915061123983610984565b925082820190508082111561125157611250610e5c565b5b92915050565b7f45524332303a206d696e7420746f207a65726f206164647265737300000000005f82015250565b5f61128b601b83610de4565b915061129682611257565b602082019050919050565b5f6020820190508181035f8301526112b88161127f565b9050919050565b7f45524332303a20696e73756666696369656e742062616c616e636500000000005f82015250565b5f6112f3601b83610de4565b91506112fe826112bf565b602082019050919050565b5f6020820190508181035f830152611320816112e7565b9050919050565b61133081610984565b82525050565b5f6020820190506113495f830184611327565b92915050565b6122b68061135c5f395ff3fe608060405234801561000f575f5ffd5b5060043610610140575f3560e01c806370a08231116100b657806395d89b411161007a57806395d89b4114610316578063a9059cbb14610334578063dd62ed3e14610364578063f2fde38b14610394578063f3290d75146103b0578063fe575a87146103cc57610140565b806370a0823114610298578063715018a6146102c857806379cc6790146102d25780638456cb59146102ee5780638da5cb5b146102f857610140565b8063355274ea11610108578063355274ea146101fe5780633f4ba83a1461021c57806340c10f191461022657806342966c681461024257806345e349491461025e5780635c975abb1461027a57610140565b806306fdde0314610144578063095ea7b31461016257806318160ddd1461019257806323b872dd146101b0578063313ce567146101e0575b5f5ffd5b61014c6103fc565b604051610159919061182d565b60405180910390f35b61017c600480360381019061017791906118de565b61048c565b6040516101899190611936565b60405180910390f35b61019a6105c6565b6040516101a7919061195e565b60405180910390f35b6101ca60048036038101906101c59190611977565b6105cf565b6040516101d79190611936565b60405180910390f35b6101e8610715565b6040516101f591906119e2565b60405180910390f35b61020661072a565b604051610213919061195e565b60405180910390f35b610224610733565b005b610240600480360381019061023b91906118de565b610745565b005b61025c600480360381019061025791906119fb565b61075b565b005b61027860048036038101906102739190611a26565b61076f565b005b610282610811565b60405161028f9190611936565b60405180910390f35b6102b260048036038101906102ad9190611a26565b610826565b6040516102bf919061195e565b60405180910390f35b6102d061086c565b005b6102ec60048036038101906102e791906118de565b61087f565b005b6102f661089f565b005b6103006108b1565b60405161030d9190611a60565b60405180910390f35b61031e6108d8565b60405161032b919061182d565b60405180910390f35b61034e600480360381019061034991906118de565b610968565b60405161035b9190611936565b60405180910390f35b61037e60048036038101906103799190611a79565b610aa2565b60405161038b919061195e565b60405180910390f35b6103ae60048036038101906103a99190611a26565b610b24565b005b6103ca60048036038101906103c59190611a26565b610ba8565b005b6103e660048036038101906103e19190611a26565b610c4b565b6040516103f39190611936565b60405180910390f35b60606005805461040b90611ae4565b80601f016020809104026020016040519081016040528092919081815260200182805461043790611ae4565b80156104825780601f1061045957610100808354040283529160200191610482565b820191905f5260205f20905b81548152906001019060200180831161046557829003601f168201915b5050505050905090565b5f3360035f8273ffffffffffffffffffffffffffffffffffffffff1673ffffffffffffffffffffffffffffffffffffffff1681526020019081526020015f205f9054906101000a900460ff1615610518576040517f08c379a000000000000000000000000000000000000000000000000000000000815260040161050f90611b5e565b60405180910390fd5b8360035f8273ffffffffffffffffffffffffffffffffffffffff1673ffffffffffffffffffffffffffffffffffffffff1681526020019081526020015f205f9054906101000a900460ff16156105a3576040517f08c379a000000000000000000000000000000000000000000000000000000000815260040161059a90611b5e565b60405180910390fd5b5f6105ac610c9d565b90506105b9818787610ca4565b6001935050505092915050565b5f600454905090565b5f8360035f8273ffffffffffffffffffffffffffffffffffffffff1673ffffffffffffffffffffffffffffffffffffffff1681526020019081526020015f205f9054906101000a900460ff161561065b576040517f08c379a000000000000000000000000000000000000000000000000000000000815260040161065290611b5e565b60405180910390fd5b8360035f8273ffffffffffffffffffffffffffffffffffffffff1673ffffffffffffffffffffffffffffffffffffffff1681526020019081526020015f205f9054906101000a900460ff16156106e6576040517f08c379a00000000000000000000000000000000000000000000000000000000081526004016106dd90611b5e565b60405180910390fd5b5f6106ef610c9d565b90506106fc878287610f44565b610707878787610fd0565b600193505050509392505050565b5f60075f9054906101000a900460ff16905090565b5f600854905090565b61073b611199565b610743611220565b565b61074d611199565b6107578282611281565b5050565b61076c610766610c9d565b82611378565b50565b610777611199565b5f60035f8373ffffffffffffffffffffffffffffffffffffffff1673ffffffffffffffffffffffffffffffffffffffff1681526020019081526020015f205f6101000a81548160ff0219169083151502179055508073ffffffffffffffffffffffffffffffffffffffff167f7534c63860313c46c473e4e98328f37017e9674e2162faf1a3ad7a96236c3b7b60405160405180910390a250565b5f5f60149054906101000a900460ff16905090565b5f60015f8373ffffffffffffffffffffffffffffffffffffffff1673ffffffffffffffffffffffffffffffffffffffff1681526020019081526020015f20549050919050565b610874611199565b61087d5f6113f5565b565b6108918261088b610c9d565b83610f44565b61089b8282611378565b5050565b6108a7611199565b6108af6114b6565b565b5f5f5f9054906101000a900473ffffffffffffffffffffffffffffffffffffffff16905090565b6060600680546108e790611ae4565b80601f016020809104026020016040519081016040528092919081815260200182805461091390611ae4565b801561095e5780601f106109355761010080835404028352916020019161095e565b820191905f5260205f20905b81548152906001019060200180831161094157829003601f168201915b5050505050905090565b5f3360035f8273ffffffffffffffffffffffffffffffffffffffff1673ffffffffffffffffffffffffffffffffffffffff1681526020019081526020015f205f9054906101000a900460ff16156109f4576040517f08c379a00000000000000000000000000000000000000000000000000000000081526004016109eb90611b5e565b60405180910390fd5b8360035f8273ffffffffffffffffffffffffffffffffffffffff1673ffffffffffffffffffffffffffffffffffffffff1681526020019081526020015f205f9054906101000a900460ff1615610a7f576040517f08c379a0000000000000000000000000000000000000000000000000000000008152600401610a7690611b5e565b60405180910390fd5b5f610a88610c9d565b9050610a95818787610fd0565b6001935050505092915050565b5f60025f8473ffffffffffffffffffffffffffffffffffffffff1673ffffffffffffffffffffffffffffffffffffffff1681526020019081526020015f205f8373ffffffffffffffffffffffffffffffffffffffff1673ffffffffffffffffffffffffffffffffffffffff1681526020019081526020015f2054905092915050565b610b2c611199565b5f73ffffffffffffffffffffffffffffffffffffffff168173ffffffffffffffffffffffffffffffffffffffff1603610b9c575f6040517f1e4fbdf7000000000000000000000000000000000000000000000000000000008152600401610b939190611a60565b60405180910390fd5b610ba5816113f5565b50565b610bb0611199565b600160035f8373ffffffffffffffffffffffffffffffffffffffff1673ffffffffffffffffffffffffffffffffffffffff1681526020019081526020015f205f6101000a81548160ff0219169083151502179055508073ffffffffffffffffffffffffffffffffffffffff167fffa4e6181777692565cf28528fc88fd1516ea86b56da075235fa575af6a4b85560405160405180910390a250565b5f60035f8373ffffffffffffffffffffffffffffffffffffffff1673ffffffffffffffffffffffffffffffffffffffff1681526020019081526020015f205f9054906101000a900460ff169050919050565b5f33905090565b60035f8473ffffffffffffffffffffffffffffffffffffffff1673ffffffffffffffffffffffffffffffffffffffff1681526020019081526020015f205f9054906101000a900460ff16158015610d42575060035f8373ffffffffffffffffffffffffffffffffffffffff1673ffffffffffffffffffffffffffffffffffffffff1681526020019081526020015f205f9054906101000a900460ff16155b610d81576040517f08c379a0000000000000000000000000000000000000000000000000000000008152600401610d7890611bec565b60405180910390fd5b5f73ffffffffffffffffffffffffffffffffffffffff168373ffffffffffffffffffffffffffffffffffffffff1603610def576040517f08c379a0000000000000000000000000000000000000000000000000000000008152600401610de690611c54565b60405180910390fd5b5f73ffffffffffffffffffffffffffffffffffffffff168273ffffffffffffffffffffffffffffffffffffffff1603610e5d576040517f08c379a0000000000000000000000000000000000000000000000000000000008152600401610e5490611cbc565b60405180910390fd5b8060025f8573ffffffffffffffffffffffffffffffffffffffff1673ffffffffffffffffffffffffffffffffffffffff1681526020019081526020015f205f8473ffffffffffffffffffffffffffffffffffffffff1673ffffffffffffffffffffffffffffffffffffffff1681526020019081526020015f20819055508173ffffffffffffffffffffffffffffffffffffffff168373ffffffffffffffffffffffffffffffffffffffff167f8c5be1e5ebec7d5bd14f71427d1e84f3dd0314c0f7b2291e5b200ac8c7c3b92583604051610f37919061195e565b60405180910390a3505050565b5f610f4f8484610aa2565b90507fffffffffffffffffffffffffffffffffffffffffffffffffffffffffffffffff811015610fca5781811015610fbc576040517f08c379a0000000000000000000000000000000000000000000000000000000008152600401610fb390611d24565b60405180910390fd5b610fc98484848403610ca4565b5b50505050565b60035f8473ffffffffffffffffffffffffffffffffffffffff1673ffffffffffffffffffffffffffffffffffffffff1681526020019081526020015f205f9054906101000a900460ff1615801561106e575060035f8373ffffffffffffffffffffffffffffffffffffffff1673ffffffffffffffffffffffffffffffffffffffff1681526020019081526020015f205f9054906101000a900460ff16155b6110ad576040517f08c379a00000000000000000000000000000000000000000000000000000000081526004016110a490611db2565b60405180910390fd5b5f73ffffffffffffffffffffffffffffffffffffffff168373ffffffffffffffffffffffffffffffffffffffff160361111b576040517f08c379a000000000000000000000000000000000000000000000000000000000815260040161111290611e40565b60405180910390fd5b5f73ffffffffffffffffffffffffffffffffffffffff168273ffffffffffffffffffffffffffffffffffffffff1603611189576040517f08c379a000000000000000000000000000000000000000000000000000000000815260040161118090611ea8565b60405180910390fd5b611194838383611518565b505050565b6111a1610c9d565b73ffffffffffffffffffffffffffffffffffffffff166111bf6108b1565b73ffffffffffffffffffffffffffffffffffffffff161461121e576111e2610c9d565b6040517f118cdaa70000000000000000000000000000000000000000000000000000000081526004016112159190611a60565b60405180910390fd5b565b61122861173c565b5f5f60146101000a81548160ff0219169083151502179055507f5db9ee0a495bf2e6ff9c91a7834c1ba4fdd244a5e8aa4e537bd38aeae4b073aa61126a610c9d565b6040516112779190611a60565b60405180910390a1565b611289610715565b600a6112959190612022565b61129d61072a565b6112a7919061206c565b816112b06105c6565b6112ba91906120ad565b11156112fb576040517f08c379a00000000000000000000000000000000000000000000000000000000081526004016112f29061212a565b60405180910390fd5b5f73ffffffffffffffffffffffffffffffffffffffff168273ffffffffffffffffffffffffffffffffffffffff1603611369576040517f08c379a000000000000000000000000000000000000000000000000000000000815260040161136090612192565b60405180910390fd5b6113745f8383611518565b5050565b5f73ffffffffffffffffffffffffffffffffffffffff168273ffffffffffffffffffffffffffffffffffffffff16036113e6576040517f08c379a00000000000000000000000000000000000000000000000000000000081526004016113dd906121fa565b60405180910390fd5b6113f1825f83611518565b5050565b5f5f5f9054906101000a900473ffffffffffffffffffffffffffffffffffffffff169050815f5f6101000a81548173ffffffffffffffffffffffffffffffffffffffff021916908373ffffffffffffffffffffffffffffffffffffffff1602179055508173ffffffffffffffffffffffffffffffffffffffff168173ffffffffffffffffffffffffffffffffffffffff167f8be0079c531659141344cd1fd0a4f28419497f9722a3daafe3b4186f6b6457e060405160405180910390a35050565b6114be61177c565b60015f60146101000a81548160ff0219169083151502179055507f62e78cea01bee320cd4e420270b5ea74000d11b0c9f74754ebdbfc544b05a258611501610c9d565b60405161150e9190611a60565b60405180910390a1565b61152061177c565b5f73ffffffffffffffffffffffffffffffffffffffff168373ffffffffffffffffffffffffffffffffffffffff1603611570578060045f82825461156491906120ad565b92505081905550611640565b5f60015f8573ffffffffffffffffffffffffffffffffffffffff1673ffffffffffffffffffffffffffffffffffffffff1681526020019081526020015f20549050818110156115f4576040517f08c379a00000000000000000000000000000000000000000000000000000000081526004016115eb90612262565b60405180910390fd5b8160015f8673ffffffffffffffffffffffffffffffffffffffff1673ffffffffffffffffffffffffffffffffffffffff1681526020019081526020015f205f8282540392505081905550505b5f73ffffffffffffffffffffffffffffffffffffffff168273ffffffffffffffffffffffffffffffffffffffff1603611687578060045f82825403925050819055506116d2565b8060015f8473ffffffffffffffffffffffffffffffffffffffff1673ffffffffffffffffffffffffffffffffffffffff1681526020019081526020015f205f82825401925050819055505b8173ffffffffffffffffffffffffffffffffffffffff168373ffffffffffffffffffffffffffffffffffffffff167fddf252ad1be2c89b69c2b068fc378daa952ba7f163c4a11628f55a4df523b3ef8360405161172f919061195e565b60405180910390a3505050565b611744610811565b61177a576040517f8dfc202b00000000000000000000000000000000000000000000000000000000815260040160405180910390fd5b565b611784610811565b156117bb576040517fd93c066500000000000000000000000000000000000000000000000000000000815260040160405180910390fd5b565b5f81519050919050565b5f82825260208201905092915050565b8281835e5f83830152505050565b5f601f19601f8301169050919050565b5f6117ff826117bd565b61180981856117c7565b93506118198185602086016117d7565b611822816117e5565b840191505092915050565b5f6020820190508181035f83015261184581846117f5565b905092915050565b5f5ffd5b5f73ffffffffffffffffffffffffffffffffffffffff82169050919050565b5f61187a82611851565b9050919050565b61188a81611870565b8114611894575f5ffd5b50565b5f813590506118a581611881565b92915050565b5f819050919050565b6118bd816118ab565b81146118c7575f5ffd5b50565b5f813590506118d8816118b4565b92915050565b5f5f604083850312156118f4576118f361184d565b5b5f61190185828601611897565b9250506020611912858286016118ca565b9150509250929050565b5f8115159050919050565b6119308161191c565b82525050565b5f6020820190506119495f830184611927565b92915050565b611958816118ab565b82525050565b5f6020820190506119715f83018461194f565b92915050565b5f5f5f6060848603121561198e5761198d61184d565b5b5f61199b86828701611897565b93505060206119ac86828701611897565b92505060406119bd868287016118ca565b9150509250925092565b5f60ff82169050919050565b6119dc816119c7565b82525050565b5f6020820190506119f55f8301846119d3565b92915050565b5f60208284031215611a1057611a0f61184d565b5b5f611a1d848285016118ca565b91505092915050565b5f60208284031215611a3b57611a3a61184d565b5b5f611a4884828501611897565b91505092915050565b611a5a81611870565b82525050565b5f602082019050611a735f830184611a51565b92915050565b5f5f60408385031215611a8f57611a8e61184d565b5b5f611a9c85828601611897565b9250506020611aad85828601611897565b9150509250929050565b7f4e487b71000000000000000000000000000000000000000000000000000000005f52602260045260245ffd5b5f6002820490506001821680611afb57607f821691505b602082108103611b0e57611b0d611ab7565b5b50919050565b7f426c61636b6c69737465642061646472657373000000000000000000000000005f82015250565b5f611b486013836117c7565b9150611b5382611b14565b602082019050919050565b5f6020820190508181035f830152611b7581611b3c565b9050919050565b7f417070726f76652066726f6d2f746f20626c61636b6c697374656420616464725f8201527f6573730000000000000000000000000000000000000000000000000000000000602082015250565b5f611bd66023836117c7565b9150611be182611b7c565b604082019050919050565b5f6020820190508181035f830152611c0381611bca565b9050919050565b7f45524332303a20617070726f76652066726f6d207a65726f20616464726573735f82015250565b5f611c3e6020836117c7565b9150611c4982611c0a565b602082019050919050565b5f6020820190508181035f830152611c6b81611c32565b9050919050565b7f45524332303a20617070726f766520746f207a65726f206164647265737300005f82015250565b5f611ca6601e836117c7565b9150611cb182611c72565b602082019050919050565b5f6020820190508181035f830152611cd381611c9a565b9050919050565b7f45524332303a20696e73756666696369656e7420616c6c6f77616e63650000005f82015250565b5f611d0e601d836117c7565b9150611d1982611cda565b602082019050919050565b5f6020820190508181035f830152611d3b81611d02565b9050919050565b7f5472616e736665722066726f6d2f746f20626c61636b6c6973746564206164645f8201527f7265737300000000000000000000000000000000000000000000000000000000602082015250565b5f611d9c6024836117c7565b9150611da782611d42565b604082019050919050565b5f6020820190508181035f830152611dc981611d90565b9050919050565b7f45524332303a207472616e736665722066726f6d207a65726f206164647265735f8201527f7300000000000000000000000000000000000000000000000000000000000000602082015250565b5f611e2a6021836117c7565b9150611e3582611dd0565b604082019050919050565b5f6020820190508181035f830152611e5781611e1e565b9050919050565b7f45524332303a207472616e7366657220746f207a65726f2061646472657373005f82015250565b5f611e92601f836117c7565b9150611e9d82611e5e565b602082019050919050565b5f6020820190508181035f830152611ebf81611e86565b9050919050565b7f4e487b71000000000000000000000000000000000000000000000000000000005f52601160045260245ffd5b5f8160011c9050919050565b5f5f8291508390505b6001851115611f4857808604811115611f2457611f23611ec6565b5b6001851615611f335780820291505b8081029050611f4185611ef3565b9450611f08565b94509492505050565b5f82611f60576001905061201b565b81611f6d575f905061201b565b8160018114611f835760028114611f8d57611fbc565b600191505061201b565b60ff841115611f9f57611f9e611ec6565b5b8360020a915084821115611fb657611fb5611ec6565b5b5061201b565b5060208310610133831016604e8410600b8410161715611ff15782820a905083811115611fec57611feb611ec6565b5b61201b565b611ffe8484846001611eff565b9250905081840481111561201557612014611ec6565b5b81810290505b9392505050565b5f61202c826118ab565b9150612037836119c7565b92506120647fffffffffffffffffffffffffffffffffffffffffffffffffffffffffffffffff8484611f51565b905092915050565b5f612076826118ab565b9150612081836118ab565b925082820261208f816118ab565b915082820484148315176120a6576120a5611ec6565b5b5092915050565b5f6120b7826118ab565b91506120c2836118ab565b92508282019050808211156120da576120d9611ec6565b5b92915050565b7f45524332304361707065643a20636170206578636565646564000000000000005f82015250565b5f6121146019836117c7565b915061211f826120e0565b602082019050919050565b5f6020820190508181035f83015261214181612108565b9050919050565b7f45524332303a206d696e7420746f207a65726f206164647265737300000000005f82015250565b5f61217c601b836117c7565b915061218782612148565b602082019050919050565b5f6020820190508181035f8301526121a981612170565b9050919050565b7f45524332303a206275726e2066726f6d207a65726f20616464726573730000005f82015250565b5f6121e4601d836117c7565b91506121ef826121b0565b602082019050919050565b5f6020820190508181035f830152612211816121d8565b9050919050565b7f45524332303a20696e73756666696369656e742062616c616e636500000000005f82015250565b5f61224c601b836117c7565b915061225782612218565b602082019050919050565b5f6020820190508181035f83015261227981612240565b905091905056fea264697066735822122091949e06a0c65e296fb99c7f27517bd7d5f875d20c119128deb66fa07c9b5be464736f6c634300081c0033","linkReferences":{}},"methodIdentifiers":{"allowance(address,address)":"dd62ed3e","approve(address,uint256)":"095ea7b3","balanceOf(address)":"70a08231","blacklistAddress(address)":"f3290d75","burn(uint256)":"42966c68","burnFrom(address,uint256)":"79cc6790","cap()":"355274ea","decimals()":"313ce567","isBlacklisted(address)":"fe575a87","mint(address,uint256)":"40c10f19","name()":"06fdde03","owner()":"8da5cb5b","pause()":"8456cb59","paused()":"5c975abb","renounceOwnership()":"715018a6","symbol()":"95d89b41","totalSupply()":"18160ddd","transfer(address,uint256)":"a9059cbb","transferFrom(address,address,uint256)":"23b872dd","transferOwnership(address)":"f2fde38b","unblacklistAddress(address)":"45e34949","unpause()":"3f4ba83a"},"id":36}