{
    "abi": [
        {
            "inputs": [
                {
                    "internalType": "string",
                    "name": "name_",
                    "type": "string"
                },
                {
                    "internalType": "string",
                    "name": "symbol_",
                    "type": "string"
                },
                {
                    "internalType": "uint8",
                    "name": "decimals_",
                    "type": "uint8"
                },
                {
                    "internalType": "uint256",
                    "name": "totalSupply_",
                    "type": "uint256"
                },
                {
                    "internalType": "address",
                    "name": "serviceFeeReceiver_",
                    "type": "address"
                },
                {
                    "internalType": "uint256",
                    "name": "serviceFee_",
                    "type": "uint256"
                }
            ],
            "stateMutability": "payable",
            "type": "constructor"
        },
        {
            "inputs": [
                {
                    "internalType": "address",
                    "name": "spender",
                    "type": "address"
                },
                {
                    "internalType": "uint256",
                    "name": "allowance",
                    "type": "uint256"
                },
                {
                    "internalType": "uint256",
                    "name": "needed",
                    "type": "uint256"
                }
            ],
            "name": "ERC20InsufficientAllowance",
            "type": "error"
        },
        {
            "inputs": [
                {
                    "internalType": "address",
                    "name": "sender",
                    "type": "address"
                },
                {
                    "internalType": "uint256",
                    "name": "balance",
                    "type": "uint256"
                },
                {
                    "internalType": "uint256",
                    "name": "needed",
                    "type": "uint256"
                }
            ],
            "name": "ERC20InsufficientBalance",
            "type": "error"
        },
        {
            "inputs": [
                {
                    "internalType": "address",
                    "name": "approver",
                    "type": "address"
                }
            ],
            "name": "ERC20InvalidApprover",
            "type": "error"
        },
        {
            "inputs": [
                {
                    "internalType": "address",
                    "name": "receiver",
                    "type": "address"
                }
            ],
            "name": "ERC20InvalidReceiver",
            "type": "error"
        },
        {
            "inputs": [
                {
                    "internalType": "address",
                    "name": "sender",
                    "type": "address"
                }
            ],
            "name": "ERC20InvalidSender",
            "type": "error"
        },
        {
            "inputs": [
                {
                    "internalType": "address",
                    "name": "spender",
                    "type": "address"
                }
            ],
            "name": "ERC20InvalidSpender",
            "type": "error"
        },
        {
            "inputs": [],
            "name": "EnforcedPause",
            "type": "error"
        },
        {
            "inputs": [],
            "name": "ExpectedPause",
            "type": "error"
        },
        {
            "inputs": [
                {
                    "internalType": "address",
                    "name": "owner",
                    "type": "address"
                }
            ],
            "name": "OwnableInvalidOwner",
            "type": "error"
        },
        {
            "inputs": [
                {
                    "internalType": "address",
                    "name": "account",
                    "type": "address"
                }
            ],
            "name": "OwnableUnauthorizedAccount",
            "type": "error"
        },
        {
            "anonymous": false,
            "inputs": [
                {
                    "indexed": true,
                    "internalType": "address",
                    "name": "owner",
                    "type": "address"
                },
                {
                    "indexed": true,
                    "internalType": "address",
                    "name": "spender",
                    "type": "address"
                },
                {
                    "indexed": false,
                    "internalType": "uint256",
                    "name": "value",
                    "type": "uint256"
                }
            ],
            "name": "Approval",
            "type": "event"
        },
        {
            "anonymous": false,
            "inputs": [
                {
                    "indexed": true,
                    "internalType": "address",
                    "name": "previousOwner",
                    "type": "address"
                },
                {
                    "indexed": true,
                    "internalType": "address",
                    "name": "newOwner",
                    "type": "address"
                }
            ],
            "name": "OwnershipTransferred",
            "type": "event"
        },
        {
            "anonymous": false,
            "inputs": [
                {
                    "indexed": false,
                    "internalType": "address",
                    "name": "account",
                    "type": "address"
                }
            ],
            "name": "Paused",
            "type": "event"
        },
        {
            "anonymous": false,
            "inputs": [
                {
                    "indexed": true,
                    "internalType": "address",
                    "name": "from",
                    "type": "address"
                },
                {
                    "indexed": true,
                    "internalType": "address",
                    "name": "to",
                    "type": "address"
                },
                {
                    "indexed": false,
                    "internalType": "uint256",
                    "name": "value",
                    "type": "uint256"
                }
            ],
            "name": "Transfer",
            "type": "event"
        },
        {
            "anonymous": false,
            "inputs": [
                {
                    "indexed": false,
                    "internalType": "address",
                    "name": "account",
                    "type": "address"
                }
            ],
            "name": "Unpaused",
            "type": "event"
        },
        {
            "inputs": [
                {
                    "internalType": "address",
                    "name": "owner",
                    "type": "address"
                },
                {
                    "internalType": "address",
                    "name": "spender",
                    "type": "address"
                }
            ],
            "name": "allowance",
            "outputs": [
                {
                    "internalType": "uint256",
                    "name": "",
                    "type": "uint256"
                }
            ],
            "stateMutability": "view",
            "type": "function"
        },
        {
            "inputs": [
                {
                    "internalType": "address",
                    "name": "spender",
                    "type": "address"
                },
                {
                    "internalType": "uint256",
                    "name": "value",
                    "type": "uint256"
                }
            ],
            "name": "approve",
            "outputs": [
                {
                    "internalType": "bool",
                    "name": "",
                    "type": "bool"
                }
            ],
            "stateMutability": "nonpayable",
            "type": "function"
        },
        {
            "inputs": [
                {
                    "internalType": "address",
                    "name": "account",
                    "type": "address"
                }
            ],
            "name": "balanceOf",
            "outputs": [
                {
                    "internalType": "uint256",
                    "name": "",
                    "type": "uint256"
                }
            ],
            "stateMutability": "view",
            "type": "function"
        },
        {
            "inputs": [
                {
                    "internalType": "uint256",
                    "name": "value",
                    "type": "uint256"
                }
            ],
            "name": "burn",
            "outputs": [],
            "stateMutability": "nonpayable",
            "type": "function"
        },
        {
            "inputs": [
                {
                    "internalType": "address",
                    "name": "account",
                    "type": "address"
                },
                {
                    "internalType": "uint256",
                    "name": "value",
                    "type": "uint256"
                }
            ],
            "name": "burnFrom",
            "outputs": [],
            "stateMutability": "nonpayable",
            "type": "function"
        },
        {
            "inputs": [],
            "name": "decimals",
            "outputs": [
                {
                    "internalType": "uint8",
                    "name": "",
                    "type": "uint8"
                }
            ],
            "stateMutability": "view",
            "type": "function"
        },
        {
            "inputs": [],
            "name": "name",
            "outputs": [
                {
                    "internalType": "string",
                    "name": "",
                    "type": "string"
                }
            ],
            "stateMutability": "view",
            "type": "function"
        },
        {
            "inputs": [],
            "name": "owner",
            "outputs": [
                {
                    "internalType": "address",
                    "name": "",
                    "type": "address"
                }
            ],
            "stateMutability": "view",
            "type": "function"
        },
        {
            "inputs": [],
            "name": "pause",
            "outputs": [],
            "stateMutability": "nonpayable",
            "type": "function"
        },
        {
            "inputs": [],
            "name": "paused",
            "outputs": [
                {
                    "internalType": "bool",
                    "name": "",
                    "type": "bool"
                }
            ],
            "stateMutability": "view",
            "type": "function"
        },
        {
            "inputs": [],
            "name": "renounceOwnership",
            "outputs": [],
            "stateMutability": "nonpayable",
            "type": "function"
        },
        {
            "inputs": [],
            "name": "symbol",
            "outputs": [
                {
                    "internalType": "string",
                    "name": "",
                    "type": "string"
                }
            ],
            "stateMutability": "view",
            "type": "function"
        },
        {
            "inputs": [],
            "name": "totalSupply",
            "outputs": [
                {
                    "internalType": "uint256",
                    "name": "",
                    "type": "uint256"
                }
            ],
            "stateMutability": "view",
            "type": "function"
        },
        {
            "inputs": [
                {
                    "internalType": "address",
                    "name": "to",
                    "type": "address"
                },
                {
                    "internalType": "uint256",
                    "name": "value",
                    "type": "uint256"
                }
            ],
            "name": "transfer",
            "outputs": [
                {
                    "internalType": "bool",
                    "name": "",
                    "type": "bool"
                }
            ],
            "stateMutability": "nonpayable",
            "type": "function"
        },
        {
            "inputs": [
                {
                    "internalType": "address",
                    "name": "from",
                    "type": "address"
                },
                {
                    "internalType": "address",
                    "name": "to",
                    "type": "address"
                },
                {
                    "internalType": "uint256",
                    "name": "value",
                    "type": "uint256"
                }
            ],
            "name": "transferFrom",
            "outputs": [
                {
                    "internalType": "bool",
                    "name": "",
                    "type": "bool"
                }
            ],
            "stateMutability": "nonpayable",
            "type": "function"
        },
        {
            "inputs": [
                {
                    "internalType": "address",
                    "name": "newOwner",
                    "type": "address"
                }
            ],
            "name": "transferOwnership",
            "outputs": [],
            "stateMutability": "nonpayable",
            "type": "function"
        },
        {
            "inputs": [],
            "name": "unpause",
            "outputs": [],
            "stateMutability": "nonpayable",
            "type": "function"
        }
    ],
    "bytecode": {
        "object": "0x60806040526040516111eb3803806111eb83398101604081905261002291610490565b338061004857604051631e4fbdf760e01b81525f60048201526024015b60405180910390fd5b6100518161020c565b505f805460ff60a01b19169055600461006a87826105c4565b50600561007786826105c4565b506006805460ff191660ff8616179055348111156100d75760405162461bcd60e51b815260206004820152601c60248201527f496e73756666696369656e742066656520616d6f756e742073656e7400000000604482015260640161003f565b6001600160a01b03821661012d5760405162461bcd60e51b815260206004820152601c60248201527f496e76616c696420666565207265636569766572206164647265737300000000604482015260640161003f565b5f826001600160a01b0316826040515f6040518083038185875af1925050503d805f8114610176576040519150601f19603f3d011682016040523d82523d5f602084013e61017b565b606091505b50509050806101cc5760405162461bcd60e51b815260206004820152601360248201527f466565207472616e73666572206661696c656400000000000000000000000000604482015260640161003f565b6102006101e05f546001600160a01b031690565b60065460ff166101f190600a610777565b6101fb908761078c565b61025b565b505050505050506107b6565b5f80546001600160a01b038381166001600160a01b0319831681178455604051919092169283917f8be0079c531659141344cd1fd0a4f28419497f9722a3daafe3b4186f6b6457e09190a35050565b6001600160a01b0382166102845760405163ec442f0560e01b81525f600482015260240161003f565b61028f5f8383610293565b5050565b61029b6103c1565b6001600160a01b0383166102c5578060035f8282546102ba91906107a3565b909155506103359050565b6001600160a01b0383165f90815260016020526040902054818110156103175760405163391434e360e21b81526001600160a01b0385166004820152602481018290526044810183905260640161003f565b6001600160a01b0384165f9081526001602052604090209082900390555b6001600160a01b0382166103515760038054829003905561036f565b6001600160a01b0382165f9081526001602052604090208054820190555b816001600160a01b0316836001600160a01b03167fddf252ad1be2c89b69c2b068fc378daa952ba7f163c4a11628f55a4df523b3ef836040516103b491815260200190565b60405180910390a3505050565b6103d35f54600160a01b900460ff1690565b156103f15760405163d93c066560e01b815260040160405180910390fd5b565b634e487b7160e01b5f52604160045260245ffd5b5f82601f830112610416575f80fd5b81516001600160401b0381111561042f5761042f6103f3565b604051601f8201601f19908116603f011681016001600160401b038111828210171561045d5761045d6103f3565b604052818152838201602001851015610474575f80fd5b8160208501602083015e5f918101602001919091529392505050565b5f805f805f8060c087890312156104a5575f80fd5b86516001600160401b038111156104ba575f80fd5b6104c689828a01610407565b602089015190975090506001600160401b038111156104e3575f80fd5b6104ef89828a01610407565b955050604087015160ff81168114610505575f80fd5b6060880151608089015191955093506001600160a01b0381168114610528575f80fd5b60a09790970151959894975092959194919391925050565b600181811c9082168061055457607f821691505b60208210810361057257634e487b7160e01b5f52602260045260245ffd5b50919050565b601f8211156105bf57805f5260205f20601f840160051c8101602085101561059d5750805b601f840160051c820191505b818110156105bc575f81556001016105a9565b50505b505050565b81516001600160401b038111156105dd576105dd6103f3565b6105f1816105eb8454610540565b84610578565b6020601f821160018114610623575f831561060c5750848201515b5f19600385901b1c1916600184901b1784556105bc565b5f84815260208120601f198516915b828110156106525787850151825560209485019460019092019101610632565b508482101561066f57868401515f19600387901b60f8161c191681555b50505050600190811b01905550565b634e487b7160e01b5f52601160045260245ffd5b6001815b60018411156106cd578085048111156106b1576106b161067e565b60018416156106bf57908102905b60019390931c928002610696565b935093915050565b5f826106e357506001610771565b816106ef57505f610771565b8160018114610705576002811461070f5761072b565b6001915050610771565b60ff8411156107205761072061067e565b50506001821b610771565b5060208310610133831016604e8410600b841016171561074e575081810a610771565b61075a5f198484610692565b805f190482111561076d5761076d61067e565b0290505b92915050565b5f61078560ff8416836106d5565b9392505050565b80820281158282048414176107715761077161067e565b808201808211156107715761077161067e565b610a28806107c35f395ff3fe608060405234801561000f575f80fd5b5060043610610106575f3560e01c806370a082311161009e5780638da5cb5b1161006e5780638da5cb5b146101fe57806395d89b4114610218578063a9059cbb14610220578063dd62ed3e14610233578063f2fde38b1461026b575f80fd5b806370a08231146101b3578063715018a6146101db57806379cc6790146101e35780638456cb59146101f6575f80fd5b8063313ce567116100d9578063313ce567146101705780633f4ba83a1461018557806342966c681461018f5780635c975abb146101a2575f80fd5b806306fdde031461010a578063095ea7b31461012857806318160ddd1461014b57806323b872dd1461015d575b5f80fd5b61011261027e565b60405161011f9190610881565b60405180910390f35b61013b6101363660046108d1565b61030e565b604051901515815260200161011f565b6003545b60405190815260200161011f565b61013b61016b3660046108f9565b610327565b60065460405160ff909116815260200161011f565b61018d61034a565b005b61018d61019d366004610933565b61035c565b5f54600160a01b900460ff1661013b565b61014f6101c136600461094a565b6001600160a01b03165f9081526001602052604090205490565b61018d610369565b61018d6101f13660046108d1565b61037a565b61018d610393565b5f546040516001600160a01b03909116815260200161011f565b6101126103a3565b61013b61022e3660046108d1565b6103b2565b61014f61024136600461096a565b6001600160a01b039182165f90815260026020908152604080832093909416825291909152205490565b61018d61027936600461094a565b6103bf565b60606004805461028d9061099b565b80601f01602080910402602001604051908101604052809291908181526020018280546102b99061099b565b80156103045780601f106102db57610100808354040283529160200191610304565b820191905f5260205f20905b8154815290600101906020018083116102e757829003601f168201915b5050505050905090565b5f3361031b8185856103fe565b60019150505b92915050565b5f33610334858285610410565b61033f85858561048c565b506001949350505050565b6103526104e9565b61035a610515565b565b6103663382610569565b50565b6103716104e9565b61035a5f61059d565b610385823383610410565b61038f8282610569565b5050565b61039b6104e9565b61035a6105ec565b60606005805461028d9061099b565b5f3361031b81858561048c565b6103c76104e9565b6001600160a01b0381166103f557604051631e4fbdf760e01b81525f60048201526024015b60405180910390fd5b6103668161059d565b61040b838383600161062e565b505050565b6001600160a01b038381165f908152600260209081526040808320938616835292905220545f19811015610486578181101561047857604051637dc7a0d960e11b81526001600160a01b038416600482015260248101829052604481018390526064016103ec565b61048684848484035f61062e565b50505050565b6001600160a01b0383166104b557604051634b637e8f60e11b81525f60048201526024016103ec565b6001600160a01b0382166104de5760405163ec442f0560e01b81525f60048201526024016103ec565b61040b838383610700565b5f546001600160a01b0316331461035a5760405163118cdaa760e01b81523360048201526024016103ec565b61051d61082e565b5f805460ff60a01b191690557f5db9ee0a495bf2e6ff9c91a7834c1ba4fdd244a5e8aa4e537bd38aeae4b073aa335b6040516001600160a01b03909116815260200160405180910390a1565b6001600160a01b03821661059257604051634b637e8f60e11b81525f60048201526024016103ec565b61038f825f83610700565b5f80546001600160a01b038381166001600160a01b0319831681178455604051919092169283917f8be0079c531659141344cd1fd0a4f28419497f9722a3daafe3b4186f6b6457e09190a35050565b6105f4610857565b5f805460ff60a01b1916600160a01b1790557f62e78cea01bee320cd4e420270b5ea74000d11b0c9f74754ebdbfc544b05a25861054c3390565b6001600160a01b0384166106575760405163e602df0560e01b81525f60048201526024016103ec565b6001600160a01b03831661068057604051634a1406b160e11b81525f60048201526024016103ec565b6001600160a01b038085165f908152600260209081526040808320938716835292905220829055801561048657826001600160a01b0316846001600160a01b03167f8c5be1e5ebec7d5bd14f71427d1e84f3dd0314c0f7b2291e5b200ac8c7c3b925846040516106f291815260200190565b60405180910390a350505050565b610708610857565b6001600160a01b038316610732578060035f82825461072791906109d3565b909155506107a29050565b6001600160a01b0383165f90815260016020526040902054818110156107845760405163391434e360e21b81526001600160a01b038516600482015260248101829052604481018390526064016103ec565b6001600160a01b0384165f9081526001602052604090209082900390555b6001600160a01b0382166107be576003805482900390556107dc565b6001600160a01b0382165f9081526001602052604090208054820190555b816001600160a01b0316836001600160a01b03167fddf252ad1be2c89b69c2b068fc378daa952ba7f163c4a11628f55a4df523b3ef8360405161082191815260200190565b60405180910390a3505050565b5f54600160a01b900460ff1661035a57604051638dfc202b60e01b815260040160405180910390fd5b5f54600160a01b900460ff161561035a5760405163d93c066560e01b815260040160405180910390fd5b602081525f82518060208401528060208501604085015e5f604082850101526040601f19601f83011684010191505092915050565b80356001600160a01b03811681146108cc575f80fd5b919050565b5f80604083850312156108e2575f80fd5b6108eb836108b6565b946020939093013593505050565b5f805f6060848603121561090b575f80fd5b610914846108b6565b9250610922602085016108b6565b929592945050506040919091013590565b5f60208284031215610943575f80fd5b5035919050565b5f6020828403121561095a575f80fd5b610963826108b6565b9392505050565b5f806040838503121561097b575f80fd5b610984836108b6565b9150610992602084016108b6565b90509250929050565b600181811c908216806109af57607f821691505b6020821081036109cd57634e487b7160e01b5f52602260045260245ffd5b50919050565b8082018082111561032157634e487b7160e01b5f52601160045260245ffdfea264697066735822122009a21a5c37126156b2c1f6207a6202f4abc659b64482b6846b7bb54855358ac664736f6c634300081a0033",
        "linkReferences": {}
    },
    "deployedBytecode": {
        "object": "0x608060405234801561001057600080fd5b506004361061010b5760003560e01c806370a08231116100a25780638da5cb5b116100715780638da5cb5b1461020657806395d89b4114610221578063a9059cbb14610229578063dd62ed3e1461023c578063f2fde38b1461027557600080fd5b806370a08231146101ba578063715018a6146101e357806379cc6790146101eb5780638456cb59146101fe57600080fd5b8063313ce567116100de578063313ce567146101765780633f4ba83a1461018b57806342966c68146101955780635c975abb146101a857600080fd5b806306fdde0314610110578063095ea7b31461012e57806318160ddd1461015157806323b872dd14610163575b600080fd5b610118610288565b60405161012591906108a6565b60405180910390f35b61014161013c366004610911565b61031a565b6040519015158152602001610125565b6003545b604051908152602001610125565b61014161017136600461093b565b610334565b60065460405160ff9091168152602001610125565b610193610358565b005b6101936101a3366004610977565b61036a565b600054600160a01b900460ff16610141565b6101556101c8366004610990565b6001600160a01b031660009081526001602052604090205490565b610193610377565b6101936101f9366004610911565b610389565b6101936103a2565b6000546040516001600160a01b039091168152602001610125565b6101186103b2565b610141610237366004610911565b6103c1565b61015561024a3660046109b2565b6001600160a01b03918216600090815260026020908152604080832093909416825291909152205490565b610193610283366004610990565b6103cf565b606060048054610297906109e5565b80601f01602080910402602001604051908101604052809291908181526020018280546102c3906109e5565b80156103105780601f106102e557610100808354040283529160200191610310565b820191906000526020600020905b8154815290600101906020018083116102f357829003601f168201915b5050505050905090565b60003361032881858561040f565b60019150505b92915050565b600033610342858285610421565b61034d8585856104a0565b506001949350505050565b6103606104ff565b61036861052c565b565b6103743382610581565b50565b61037f6104ff565b61036860006105b7565b610394823383610421565b61039e8282610581565b5050565b6103aa6104ff565b610368610607565b606060058054610297906109e5565b6000336103288185856104a0565b6103d76104ff565b6001600160a01b03811661040657604051631e4fbdf760e01b8152600060048201526024015b60405180910390fd5b610374816105b7565b61041c838383600161064a565b505050565b6001600160a01b0383811660009081526002602090815260408083209386168352929052205460001981101561049a578181101561048b57604051637dc7a0d960e11b81526001600160a01b038416600482015260248101829052604481018390526064016103fd565b61049a8484848403600061064a565b50505050565b6001600160a01b0383166104ca57604051634b637e8f60e11b8152600060048201526024016103fd565b6001600160a01b0382166104f45760405163ec442f0560e01b8152600060048201526024016103fd565b61041c83838361071f565b6000546001600160a01b031633146103685760405163118cdaa760e01b81523360048201526024016103fd565b610534610851565b6000805460ff60a01b191690557f5db9ee0a495bf2e6ff9c91a7834c1ba4fdd244a5e8aa4e537bd38aeae4b073aa335b6040516001600160a01b03909116815260200160405180910390a1565b6001600160a01b0382166105ab57604051634b637e8f60e11b8152600060048201526024016103fd565b61039e8260008361071f565b600080546001600160a01b038381166001600160a01b0319831681178455604051919092169283917f8be0079c531659141344cd1fd0a4f28419497f9722a3daafe3b4186f6b6457e09190a35050565b61060f61087b565b6000805460ff60a01b1916600160a01b1790557f62e78cea01bee320cd4e420270b5ea74000d11b0c9f74754ebdbfc544b05a2586105643390565b6001600160a01b0384166106745760405163e602df0560e01b8152600060048201526024016103fd565b6001600160a01b03831661069e57604051634a1406b160e11b8152600060048201526024016103fd565b6001600160a01b038085166000908152600260209081526040808320938716835292905220829055801561049a57826001600160a01b0316846001600160a01b03167f8c5be1e5ebec7d5bd14f71427d1e84f3dd0314c0f7b2291e5b200ac8c7c3b9258460405161071191815260200190565b60405180910390a350505050565b61072761087b565b6001600160a01b0383166107525780600360008282546107479190610a1f565b909155506107c49050565b6001600160a01b038316600090815260016020526040902054818110156107a55760405163391434e360e21b81526001600160a01b038516600482015260248101829052604481018390526064016103fd565b6001600160a01b03841660009081526001602052604090209082900390555b6001600160a01b0382166107e0576003805482900390556107ff565b6001600160a01b03821660009081526001602052604090208054820190555b816001600160a01b0316836001600160a01b03167fddf252ad1be2c89b69c2b068fc378daa952ba7f163c4a11628f55a4df523b3ef8360405161084491815260200190565b60405180910390a3505050565b600054600160a01b900460ff1661036857604051638dfc202b60e01b815260040160405180910390fd5b600054600160a01b900460ff16156103685760405163d93c066560e01b815260040160405180910390fd5b60006020808352835180602085015260005b818110156108d4578581018301518582016040015282016108b8565b506000604082860101526040601f19601f8301168501019250505092915050565b80356001600160a01b038116811461090c57600080fd5b919050565b6000806040838503121561092457600080fd5b61092d836108f5565b946020939093013593505050565b60008060006060848603121561095057600080fd5b610959846108f5565b9250610967602085016108f5565b9150604084013590509250925092565b60006020828403121561098957600080fd5b5035919050565b6000602082840312156109a257600080fd5b6109ab826108f5565b9392505050565b600080604083850312156109c557600080fd5b6109ce836108f5565b91506109dc602084016108f5565b90509250929050565b600181811c908216806109f957607f821691505b602082108103610a1957634e487b7160e01b600052602260045260246000fd5b50919050565b8082018082111561032e57634e487b7160e01b600052601160045260246000fdfea264697066735822122035d72480f859355f0ed311d7815b0398280f3391d1769711dd13b0e45a2f36e964736f6c63430008170033",
        "linkReferences": {}
    },
    "methodIdentifiers": {
        "allowance(address,address)": "dd62ed3e",
        "approve(address,uint256)": "095ea7b3",
        "balanceOf(address)": "70a08231",
        "burn(uint256)": "42966c68",
        "burnFrom(address,uint256)": "79cc6790",
        "decimals()": "313ce567",
        "name()": "06fdde03",
        "owner()": "8da5cb5b",
        "pause()": "8456cb59",
        "paused()": "5c975abb",
        "renounceOwnership()": "715018a6",
        "symbol()": "95d89b41",
        "totalSupply()": "18160ddd",
        "transfer(address,uint256)": "a9059cbb",
        "transferFrom(address,address,uint256)": "23b872dd",
        "transferOwnership(address)": "f2fde38b",
        "unpause()": "3f4ba83a"
    },
    "id": 24
}