{"abi":[{"type":"constructor","inputs":[{"name":"name_","type":"string","internalType":"string"},{"name":"symbol_","type":"string","internalType":"string"},{"name":"decimals_","type":"uint8","internalType":"uint8"},{"name":"totalSupply_","type":"uint256","internalType":"uint256"},{"name":"cap_","type":"uint256","internalType":"uint256"},{"name":"serviceFeeReceiver_","type":"address","internalType":"address"},{"name":"serviceFee_","type":"uint256","internalType":"uint256"}],"stateMutability":"payable"},{"type":"function","name":"allowance","inputs":[{"name":"owner","type":"address","internalType":"address"},{"name":"spender","type":"address","internalType":"address"}],"outputs":[{"name":"","type":"uint256","internalType":"uint256"}],"stateMutability":"view"},{"type":"function","name":"approve","inputs":[{"name":"spender","type":"address","internalType":"address"},{"name":"value","type":"uint256","internalType":"uint256"}],"outputs":[{"name":"","type":"bool","internalType":"bool"}],"stateMutability":"nonpayable"},{"type":"function","name":"balanceOf","inputs":[{"name":"account","type":"address","internalType":"address"}],"outputs":[{"name":"","type":"uint256","internalType":"uint256"}],"stateMutability":"view"},{"type":"function","name":"burn","inputs":[{"name":"value","type":"uint256","internalType":"uint256"}],"outputs":[],"stateMutability":"nonpayable"},{"type":"function","name":"burnFrom","inputs":[{"name":"account","type":"address","internalType":"address"},{"name":"value","type":"uint256","internalType":"uint256"}],"outputs":[],"stateMutability":"nonpayable"},{"type":"function","name":"cap","inputs":[],"outputs":[{"name":"","type":"uint256","internalType":"uint256"}],"stateMutability":"view"},{"type":"function","name":"decimals","inputs":[],"outputs":[{"name":"","type":"uint8","internalType":"uint8"}],"stateMutability":"view"},{"type":"function","name":"mint","inputs":[{"name":"to","type":"address","internalType":"address"},{"name":"amount","type":"uint256","internalType":"uint256"}],"outputs":[],"stateMutability":"nonpayable"},{"type":"function","name":"name","inputs":[],"outputs":[{"name":"","type":"string","internalType":"string"}],"stateMutability":"view"},{"type":"function","name":"owner","inputs":[],"outputs":[{"name":"","type":"address","internalType":"address"}],"stateMutability":"view"},{"type":"function","name":"pause","inputs":[],"outputs":[],"stateMutability":"nonpayable"},{"type":"function","name":"paused","inputs":[],"outputs":[{"name":"","type":"bool","internalType":"bool"}],"stateMutability":"view"},{"type":"function","name":"renounceOwnership","inputs":[],"outputs":[],"stateMutability":"nonpayable"},{"type":"function","name":"symbol","inputs":[],"outputs":[{"name":"","type":"string","internalType":"string"}],"stateMutability":"view"},{"type":"function","name":"totalSupply","inputs":[],"outputs":[{"name":"","type":"uint256","internalType":"uint256"}],"stateMutability":"view"},{"type":"function","name":"transfer","inputs":[{"name":"to","type":"address","internalType":"address"},{"name":"value","type":"uint256","internalType":"uint256"}],"outputs":[{"name":"","type":"bool","internalType":"bool"}],"stateMutability":"nonpayable"},{"type":"function","name":"transferFrom","inputs":[{"name":"from","type":"address","internalType":"address"},{"name":"to","type":"address","internalType":"address"},{"name":"value","type":"uint256","internalType":"uint256"}],"outputs":[{"name":"","type":"bool","internalType":"bool"}],"stateMutability":"nonpayable"},{"type":"function","name":"transferOwnership","inputs":[{"name":"newOwner","type":"address","internalType":"address"}],"outputs":[],"stateMutability":"nonpayable"},{"type":"function","name":"unpause","inputs":[],"outputs":[],"stateMutability":"nonpayable"},{"type":"event","name":"Approval","inputs":[{"name":"owner","type":"address","indexed":true,"internalType":"address"},{"name":"spender","type":"address","indexed":true,"internalType":"address"},{"name":"value","type":"uint256","indexed":false,"internalType":"uint256"}],"anonymous":false},{"type":"event","name":"OwnershipTransferred","inputs":[{"name":"previousOwner","type":"address","indexed":true,"internalType":"address"},{"name":"newOwner","type":"address","indexed":true,"internalType":"address"}],"anonymous":false},{"type":"event","name":"Paused","inputs":[{"name":"account","type":"address","indexed":false,"internalType":"address"}],"anonymous":false},{"type":"event","name":"Transfer","inputs":[{"name":"from","type":"address","indexed":true,"internalType":"address"},{"name":"to","type":"address","indexed":true,"internalType":"address"},{"name":"value","type":"uint256","indexed":false,"internalType":"uint256"}],"anonymous":false},{"type":"event","name":"Unpaused","inputs":[{"name":"account","type":"address","indexed":false,"internalType":"address"}],"anonymous":false},{"type":"error","name":"ERC20InsufficientAllowance","inputs":[{"name":"spender","type":"address","internalType":"address"},{"name":"allowance","type":"uint256","internalType":"uint256"},{"name":"needed","type":"uint256","internalType":"uint256"}]},{"type":"error","name":"ERC20InsufficientBalance","inputs":[{"name":"sender","type":"address","internalType":"address"},{"name":"balance","type":"uint256","internalType":"uint256"},{"name":"needed","type":"uint256","internalType":"uint256"}]},{"type":"error","name":"ERC20InvalidApprover","inputs":[{"name":"approver","type":"address","internalType":"address"}]},{"type":"error","name":"ERC20InvalidReceiver","inputs":[{"name":"receiver","type":"address","internalType":"address"}]},{"type":"error","name":"ERC20InvalidSender","inputs":[{"name":"sender","type":"address","internalType":"address"}]},{"type":"error","name":"ERC20InvalidSpender","inputs":[{"name":"spender","type":"address","internalType":"address"}]},{"type":"error","name":"EnforcedPause","inputs":[]},{"type":"error","name":"ExpectedPause","inputs":[]},{"type":"error","name":"OwnableInvalidOwner","inputs":[{"name":"owner","type":"address","internalType":"address"}]},{"type":"error","name":"OwnableUnauthorizedAccount","inputs":[{"name":"account","type":"address","internalType":"address"}]}],"bytecode":{"object":"0x608060405260405162002b4638038062002b46833981810160405281019062000029919062000ab3565b335f73ffffffffffffffffffffffffffffffffffffffff168173ffffffffffffffffffffffffffffffffffffffff16036200009d575f6040517f1e4fbdf700000000000000000000000000000000000000000000000000000000815260040162000094919062000bb0565b60405180910390fd5b620000ae816200039060201b60201c565b505f8060146101000a81548160ff0219169083151502179055508660049081620000d9919062000df9565b508560059081620000eb919062000df9565b508460065f6101000a81548160ff021916908360ff1602179055505f83116200014b576040517f08c379a0000000000000000000000000000000000000000000000000000000008152600401620001429062000f3b565b60405180910390fd5b82600781905550620001626200045160201b60201c565b600a620001709190620010d8565b620001806200046660201b60201c565b6200018c919062001128565b841115620001d1576040517f08c379a0000000000000000000000000000000000000000000000000000000008152600401620001c890620011c0565b60405180910390fd5b8034101562000217576040517f08c379a00000000000000000000000000000000000000000000000000000000081526004016200020e906200122e565b60405180910390fd5b5f73ffffffffffffffffffffffffffffffffffffffff168273ffffffffffffffffffffffffffffffffffffffff160362000288576040517f08c379a00000000000000000000000000000000000000000000000000000000081526004016200027f906200129c565b60405180910390fd5b5f8273ffffffffffffffffffffffffffffffffffffffff1682604051620002af90620012ed565b5f6040518083038185875af1925050503d805f8114620002eb576040519150601f19603f3d011682016040523d82523d5f602084013e620002f0565b606091505b505090508062000337576040517f08c379a00000000000000000000000000000000000000000000000000000000081526004016200032e9062001351565b60405180910390fd5b620003826200034b6200046f60201b60201c565b6200035b6200045160201b60201c565b600a620003699190620010d8565b8762000376919062001128565b6200049660201b60201c565b505050505050505062001412565b5f805f9054906101000a900473ffffffffffffffffffffffffffffffffffffffff169050815f806101000a81548173ffffffffffffffffffffffffffffffffffffffff021916908373ffffffffffffffffffffffffffffffffffffffff1602179055508173ffffffffffffffffffffffffffffffffffffffff168173ffffffffffffffffffffffffffffffffffffffff167f8be0079c531659141344cd1fd0a4f28419497f9722a3daafe3b4186f6b6457e060405160405180910390a35050565b5f60065f9054906101000a900460ff16905090565b5f600754905090565b5f805f9054906101000a900473ffffffffffffffffffffffffffffffffffffffff16905090565b620004a66200045160201b60201c565b600a620004b49190620010d8565b620004c46200046660201b60201c565b620004d0919062001128565b81620004e1620005bb60201b60201c565b620004ed919062001371565b111562000531576040517f08c379a00000000000000000000000000000000000000000000000000000000081526004016200052890620011c0565b60405180910390fd5b5f73ffffffffffffffffffffffffffffffffffffffff168273ffffffffffffffffffffffffffffffffffffffff1603620005a4575f6040517fec442f050000000000000000000000000000000000000000000000000000000081526004016200059b919062000bb0565b60405180910390fd5b620005b75f8383620005c460201b60201c565b5050565b5f600354905090565b620005d4620007fb60201b60201c565b5f73ffffffffffffffffffffffffffffffffffffffff168373ffffffffffffffffffffffffffffffffffffffff160362000628578060035f8282546200061b919062001371565b92505081905550620006fb565b5f60015f8573ffffffffffffffffffffffffffffffffffffffff1673ffffffffffffffffffffffffffffffffffffffff1681526020019081526020015f2054905081811015620006b5578381836040517fe450d38c000000000000000000000000000000000000000000000000000000008152600401620006ac93929190620013bc565b60405180910390fd5b81810360015f8673ffffffffffffffffffffffffffffffffffffffff1673ffffffffffffffffffffffffffffffffffffffff1681526020019081526020015f2081905550505b5f73ffffffffffffffffffffffffffffffffffffffff168273ffffffffffffffffffffffffffffffffffffffff160362000744578060035f82825403925050819055506200078f565b8060015f8473ffffffffffffffffffffffffffffffffffffffff1673ffffffffffffffffffffffffffffffffffffffff1681526020019081526020015f205f82825401925050819055505b8173ffffffffffffffffffffffffffffffffffffffff168373ffffffffffffffffffffffffffffffffffffffff167fddf252ad1be2c89b69c2b068fc378daa952ba7f163c4a11628f55a4df523b3ef83604051620007ee9190620013f7565b60405180910390a3505050565b6200080b6200084560201b60201c565b1562000843576040517fd93c066500000000000000000000000000000000000000000000000000000000815260040160405180910390fd5b565b5f8060149054906101000a900460ff16905090565b5f604051905090565b5f80fd5b5f80fd5b5f80fd5b5f80fd5b5f601f19601f8301169050919050565b7f4e487b71000000000000000000000000000000000000000000000000000000005f52604160045260245ffd5b620008bb8262000873565b810181811067ffffffffffffffff82111715620008dd57620008dc62000883565b5b80604052505050565b5f620008f16200085a565b9050620008ff8282620008b0565b919050565b5f67ffffffffffffffff82111562000921576200092062000883565b5b6200092c8262000873565b9050602081019050919050565b5f5b83811015620009585780820151818401526020810190506200093b565b5f8484015250505050565b5f62000979620009738462000904565b620008e6565b9050828152602081018484840111156200099857620009976200086f565b5b620009a584828562000939565b509392505050565b5f82601f830112620009c457620009c36200086b565b5b8151620009d684826020860162000963565b91505092915050565b5f60ff82169050919050565b620009f681620009df565b811462000a01575f80fd5b50565b5f8151905062000a1481620009eb565b92915050565b5f819050919050565b62000a2e8162000a1a565b811462000a39575f80fd5b50565b5f8151905062000a4c8162000a23565b92915050565b5f73ffffffffffffffffffffffffffffffffffffffff82169050919050565b5f62000a7d8262000a52565b9050919050565b62000a8f8162000a71565b811462000a9a575f80fd5b50565b5f8151905062000aad8162000a84565b92915050565b5f805f805f805f60e0888a03121562000ad15762000ad062000863565b5b5f88015167ffffffffffffffff81111562000af15762000af062000867565b5b62000aff8a828b01620009ad565b975050602088015167ffffffffffffffff81111562000b235762000b2262000867565b5b62000b318a828b01620009ad565b965050604062000b448a828b0162000a04565b955050606062000b578a828b0162000a3c565b945050608062000b6a8a828b0162000a3c565b93505060a062000b7d8a828b0162000a9d565b92505060c062000b908a828b0162000a3c565b91505092959891949750929550565b62000baa8162000a71565b82525050565b5f60208201905062000bc55f83018462000b9f565b92915050565b5f81519050919050565b7f4e487b71000000000000000000000000000000000000000000000000000000005f52602260045260245ffd5b5f600282049050600182168062000c1a57607f821691505b60208210810362000c305762000c2f62000bd5565b5b50919050565b5f819050815f5260205f209050919050565b5f6020601f8301049050919050565b5f82821b905092915050565b5f6008830262000c947fffffffffffffffffffffffffffffffffffffffffffffffffffffffffffffffff8262000c57565b62000ca0868362000c57565b95508019841693508086168417925050509392505050565b5f819050919050565b5f62000ce162000cdb62000cd58462000a1a565b62000cb8565b62000a1a565b9050919050565b5f819050919050565b62000cfc8362000cc1565b62000d1462000d0b8262000ce8565b84845462000c63565b825550505050565b5f90565b62000d2a62000d1c565b62000d3781848462000cf1565b505050565b5b8181101562000d5e5762000d525f8262000d20565b60018101905062000d3d565b5050565b601f82111562000dad5762000d778162000c36565b62000d828462000c48565b8101602085101562000d92578190505b62000daa62000da18562000c48565b83018262000d3c565b50505b505050565b5f82821c905092915050565b5f62000dcf5f198460080262000db2565b1980831691505092915050565b5f62000de9838362000dbe565b9150826002028217905092915050565b62000e048262000bcb565b67ffffffffffffffff81111562000e205762000e1f62000883565b5b62000e2c825462000c02565b62000e3982828562000d62565b5f60209050601f83116001811462000e6f575f841562000e5a578287015190505b62000e66858262000ddc565b86555062000ed5565b601f19841662000e7f8662000c36565b5f5b8281101562000ea85784890151825560018201915060208501945060208101905062000e81565b8683101562000ec8578489015162000ec4601f89168262000dbe565b8355505b6001600288020188555050505b505050505050565b5f82825260208201905092915050565b7f4361702073686f756c642062652067726561746572207468616e2030000000005f82015250565b5f62000f23601c8362000edd565b915062000f308262000eed565b602082019050919050565b5f6020820190508181035f83015262000f548162000f15565b9050919050565b7f4e487b71000000000000000000000000000000000000000000000000000000005f52601160045260245ffd5b5f8160011c9050919050565b5f808291508390505b600185111562000fe55780860481111562000fbd5762000fbc62000f5b565b5b600185161562000fcd5780820291505b808102905062000fdd8562000f88565b945062000f9d565b94509492505050565b5f8262000fff5760019050620010d1565b816200100e575f9050620010d1565b8160018114620010275760028114620010325762001068565b6001915050620010d1565b60ff84111562001047576200104662000f5b565b5b8360020a91508482111562001061576200106062000f5b565b5b50620010d1565b5060208310610133831016604e8410600b8410161715620010a25782820a9050838111156200109c576200109b62000f5b565b5b620010d1565b620010b1848484600162000f94565b92509050818404811115620010cb57620010ca62000f5b565b5b81810290505b9392505050565b5f620010e48262000a1a565b9150620010f183620009df565b9250620011207fffffffffffffffffffffffffffffffffffffffffffffffffffffffffffffffff848462000fee565b905092915050565b5f620011348262000a1a565b9150620011418362000a1a565b9250828202620011518162000a1a565b915082820484148315176200116b576200116a62000f5b565b5b5092915050565b7f45524332304361707065643a20636170206578636565646564000000000000005f82015250565b5f620011a860198362000edd565b9150620011b58262001172565b602082019050919050565b5f6020820190508181035f830152620011d9816200119a565b9050919050565b7f496e73756666696369656e742066656520616d6f756e742073656e74000000005f82015250565b5f62001216601c8362000edd565b91506200122382620011e0565b602082019050919050565b5f6020820190508181035f830152620012478162001208565b9050919050565b7f496e76616c6964206665652072656365697665722061646472657373000000005f82015250565b5f62001284601c8362000edd565b915062001291826200124e565b602082019050919050565b5f6020820190508181035f830152620012b58162001276565b9050919050565b5f81905092915050565b50565b5f620012d65f83620012bc565b9150620012e382620012c6565b5f82019050919050565b5f620012f982620012c9565b9150819050919050565b7f466565207472616e73666572206661696c6564000000000000000000000000005f82015250565b5f6200133960138362000edd565b9150620013468262001303565b602082019050919050565b5f6020820190508181035f8301526200136a816200132b565b9050919050565b5f6200137d8262000a1a565b91506200138a8362000a1a565b9250828201905080821115620013a557620013a462000f5b565b5b92915050565b620013b68162000a1a565b82525050565b5f606082019050620013d15f83018662000b9f565b620013e06020830185620013ab565b620013ef6040830184620013ab565b949350505050565b5f6020820190506200140c5f830184620013ab565b92915050565b61172680620014205f395ff3fe608060405234801561000f575f80fd5b506004361061011f575f3560e01c80635c975abb116100ab5780638da5cb5b1161006f5780638da5cb5b146102bb57806395d89b41146102d9578063a9059cbb146102f7578063dd62ed3e14610327578063f2fde38b146103575761011f565b80635c975abb1461023d57806370a082311461025b578063715018a61461028b57806379cc6790146102955780638456cb59146102b15761011f565b8063313ce567116100f2578063313ce567146101bf578063355274ea146101dd5780633f4ba83a146101fb57806340c10f191461020557806342966c68146102215761011f565b806306fdde0314610123578063095ea7b31461014157806318160ddd1461017157806323b872dd1461018f575b5f80fd5b61012b610373565b6040516101389190611152565b60405180910390f35b61015b60048036038101906101569190611203565b610403565b604051610168919061125b565b60405180910390f35b610179610425565b6040516101869190611283565b60405180910390f35b6101a960048036038101906101a4919061129c565b61042e565b6040516101b6919061125b565b60405180910390f35b6101c761045c565b6040516101d49190611307565b60405180910390f35b6101e5610471565b6040516101f29190611283565b60405180910390f35b61020361047a565b005b61021f600480360381019061021a9190611203565b61048c565b005b61023b60048036038101906102369190611320565b6104a2565b005b6102456104b6565b604051610252919061125b565b60405180910390f35b6102756004803603810190610270919061134b565b6104cb565b6040516102829190611283565b60405180910390f35b610293610511565b005b6102af60048036038101906102aa9190611203565b610524565b005b6102b9610544565b005b6102c3610556565b6040516102d09190611385565b60405180910390f35b6102e161057d565b6040516102ee9190611152565b60405180910390f35b610311600480360381019061030c9190611203565b61060d565b60405161031e919061125b565b60405180910390f35b610341600480360381019061033c919061139e565b61062f565b60405161034e9190611283565b60405180910390f35b610371600480360381019061036c919061134b565b6106b1565b005b60606004805461038290611409565b80601f01602080910402602001604051908101604052809291908181526020018280546103ae90611409565b80156103f95780601f106103d0576101008083540402835291602001916103f9565b820191905f5260205f20905b8154815290600101906020018083116103dc57829003601f168201915b5050505050905090565b5f8061040d610735565b905061041a81858561073c565b600191505092915050565b5f600354905090565b5f80610438610735565b905061044585828561074e565b6104508585856107e1565b60019150509392505050565b5f60065f9054906101000a900460ff16905090565b5f600754905090565b6104826108d1565b61048a610958565b565b6104946108d1565b61049e82826109b9565b5050565b6104b36104ad610735565b82610ab2565b50565b5f8060149054906101000a900460ff16905090565b5f60015f8373ffffffffffffffffffffffffffffffffffffffff1673ffffffffffffffffffffffffffffffffffffffff1681526020019081526020015f20549050919050565b6105196108d1565b6105225f610b31565b565b61053682610530610735565b8361074e565b6105408282610ab2565b5050565b61054c6108d1565b610554610bf2565b565b5f805f9054906101000a900473ffffffffffffffffffffffffffffffffffffffff16905090565b60606005805461058c90611409565b80601f01602080910402602001604051908101604052809291908181526020018280546105b890611409565b80156106035780601f106105da57610100808354040283529160200191610603565b820191905f5260205f20905b8154815290600101906020018083116105e657829003601f168201915b5050505050905090565b5f80610617610735565b90506106248185856107e1565b600191505092915050565b5f60025f8473ffffffffffffffffffffffffffffffffffffffff1673ffffffffffffffffffffffffffffffffffffffff1681526020019081526020015f205f8373ffffffffffffffffffffffffffffffffffffffff1673ffffffffffffffffffffffffffffffffffffffff1681526020019081526020015f2054905092915050565b6106b96108d1565b5f73ffffffffffffffffffffffffffffffffffffffff168173ffffffffffffffffffffffffffffffffffffffff1603610729575f6040517f1e4fbdf70000000000000000000000000000000000000000000000000000000081526004016107209190611385565b60405180910390fd5b61073281610b31565b50565b5f33905090565b6107498383836001610c54565b505050565b5f610759848461062f565b90507fffffffffffffffffffffffffffffffffffffffffffffffffffffffffffffffff8110156107db57818110156107cc578281836040517ffb8f41b20000000000000000000000000000000000000000000000000000000081526004016107c393929190611439565b60405180910390fd5b6107da84848484035f610c54565b5b50505050565b5f73ffffffffffffffffffffffffffffffffffffffff168373ffffffffffffffffffffffffffffffffffffffff1603610851575f6040517f96c6fd1e0000000000000000000000000000000000000000000000000000000081526004016108489190611385565b60405180910390fd5b5f73ffffffffffffffffffffffffffffffffffffffff168273ffffffffffffffffffffffffffffffffffffffff16036108c1575f6040517fec442f050000000000000000000000000000000000000000000000000000000081526004016108b89190611385565b60405180910390fd5b6108cc838383610e23565b505050565b6108d9610735565b73ffffffffffffffffffffffffffffffffffffffff166108f7610556565b73ffffffffffffffffffffffffffffffffffffffff16146109565761091a610735565b6040517f118cdaa700000000000000000000000000000000000000000000000000000000815260040161094d9190611385565b60405180910390fd5b565b610960611047565b5f8060146101000a81548160ff0219169083151502179055507f5db9ee0a495bf2e6ff9c91a7834c1ba4fdd244a5e8aa4e537bd38aeae4b073aa6109a2610735565b6040516109af9190611385565b60405180910390a1565b6109c161045c565b600a6109cd91906115ca565b6109d5610471565b6109df9190611614565b816109e8610425565b6109f29190611655565b1115610a33576040517f08c379a0000000000000000000000000000000000000000000000000000000008152600401610a2a906116d2565b60405180910390fd5b5f73ffffffffffffffffffffffffffffffffffffffff168273ffffffffffffffffffffffffffffffffffffffff1603610aa3575f6040517fec442f05000000000000000000000000000000000000000000000000000000008152600401610a9a9190611385565b60405180910390fd5b610aae5f8383610e23565b5050565b5f73ffffffffffffffffffffffffffffffffffffffff168273ffffffffffffffffffffffffffffffffffffffff1603610b22575f6040517f96c6fd1e000000000000000000000000000000000000000000000000000000008152600401610b199190611385565b60405180910390fd5b610b2d825f83610e23565b5050565b5f805f9054906101000a900473ffffffffffffffffffffffffffffffffffffffff169050815f806101000a81548173ffffffffffffffffffffffffffffffffffffffff021916908373ffffffffffffffffffffffffffffffffffffffff1602179055508173ffffffffffffffffffffffffffffffffffffffff168173ffffffffffffffffffffffffffffffffffffffff167f8be0079c531659141344cd1fd0a4f28419497f9722a3daafe3b4186f6b6457e060405160405180910390a35050565b610bfa611087565b60015f60146101000a81548160ff0219169083151502179055507f62e78cea01bee320cd4e420270b5ea74000d11b0c9f74754ebdbfc544b05a258610c3d610735565b604051610c4a9190611385565b60405180910390a1565b5f73ffffffffffffffffffffffffffffffffffffffff168473ffffffffffffffffffffffffffffffffffffffff1603610cc4575f6040517fe602df05000000000000000000000000000000000000000000000000000000008152600401610cbb9190611385565b60405180910390fd5b5f73ffffffffffffffffffffffffffffffffffffffff168373ffffffffffffffffffffffffffffffffffffffff1603610d34575f6040517f94280d62000000000000000000000000000000000000000000000000000000008152600401610d2b9190611385565b60405180910390fd5b8160025f8673ffffffffffffffffffffffffffffffffffffffff1673ffffffffffffffffffffffffffffffffffffffff1681526020019081526020015f205f8573ffffffffffffffffffffffffffffffffffffffff1673ffffffffffffffffffffffffffffffffffffffff1681526020019081526020015f20819055508015610e1d578273ffffffffffffffffffffffffffffffffffffffff168473ffffffffffffffffffffffffffffffffffffffff167f8c5be1e5ebec7d5bd14f71427d1e84f3dd0314c0f7b2291e5b200ac8c7c3b92584604051610e149190611283565b60405180910390a35b50505050565b610e2b611087565b5f73ffffffffffffffffffffffffffffffffffffffff168373ffffffffffffffffffffffffffffffffffffffff1603610e7b578060035f828254610e6f9190611655565b92505081905550610f4b565b5f60015f8573ffffffffffffffffffffffffffffffffffffffff1673ffffffffffffffffffffffffffffffffffffffff1681526020019081526020015f2054905081811015610f05578381836040517fe450d38c000000000000000000000000000000000000000000000000000000008152600401610efc93929190611439565b60405180910390fd5b81810360015f8673ffffffffffffffffffffffffffffffffffffffff1673ffffffffffffffffffffffffffffffffffffffff1681526020019081526020015f2081905550505b5f73ffffffffffffffffffffffffffffffffffffffff168273ffffffffffffffffffffffffffffffffffffffff1603610f92578060035f8282540392505081905550610fdd565b8060015f8473ffffffffffffffffffffffffffffffffffffffff1673ffffffffffffffffffffffffffffffffffffffff1681526020019081526020015f205f82825401925050819055505b8173ffffffffffffffffffffffffffffffffffffffff168373ffffffffffffffffffffffffffffffffffffffff167fddf252ad1be2c89b69c2b068fc378daa952ba7f163c4a11628f55a4df523b3ef8360405161103a9190611283565b60405180910390a3505050565b61104f6104b6565b611085576040517f8dfc202b00000000000000000000000000000000000000000000000000000000815260040160405180910390fd5b565b61108f6104b6565b156110c6576040517fd93c066500000000000000000000000000000000000000000000000000000000815260040160405180910390fd5b565b5f81519050919050565b5f82825260208201905092915050565b5f5b838110156110ff5780820151818401526020810190506110e4565b5f8484015250505050565b5f601f19601f8301169050919050565b5f611124826110c8565b61112e81856110d2565b935061113e8185602086016110e2565b6111478161110a565b840191505092915050565b5f6020820190508181035f83015261116a818461111a565b905092915050565b5f80fd5b5f73ffffffffffffffffffffffffffffffffffffffff82169050919050565b5f61119f82611176565b9050919050565b6111af81611195565b81146111b9575f80fd5b50565b5f813590506111ca816111a6565b92915050565b5f819050919050565b6111e2816111d0565b81146111ec575f80fd5b50565b5f813590506111fd816111d9565b92915050565b5f806040838503121561121957611218611172565b5b5f611226858286016111bc565b9250506020611237858286016111ef565b9150509250929050565b5f8115159050919050565b61125581611241565b82525050565b5f60208201905061126e5f83018461124c565b92915050565b61127d816111d0565b82525050565b5f6020820190506112965f830184611274565b92915050565b5f805f606084860312156112b3576112b2611172565b5b5f6112c0868287016111bc565b93505060206112d1868287016111bc565b92505060406112e2868287016111ef565b9150509250925092565b5f60ff82169050919050565b611301816112ec565b82525050565b5f60208201905061131a5f8301846112f8565b92915050565b5f6020828403121561133557611334611172565b5b5f611342848285016111ef565b91505092915050565b5f602082840312156113605761135f611172565b5b5f61136d848285016111bc565b91505092915050565b61137f81611195565b82525050565b5f6020820190506113985f830184611376565b92915050565b5f80604083850312156113b4576113b3611172565b5b5f6113c1858286016111bc565b92505060206113d2858286016111bc565b9150509250929050565b7f4e487b71000000000000000000000000000000000000000000000000000000005f52602260045260245ffd5b5f600282049050600182168061142057607f821691505b602082108103611433576114326113dc565b5b50919050565b5f60608201905061144c5f830186611376565b6114596020830185611274565b6114666040830184611274565b949350505050565b7f4e487b71000000000000000000000000000000000000000000000000000000005f52601160045260245ffd5b5f8160011c9050919050565b5f808291508390505b60018511156114f0578086048111156114cc576114cb61146e565b5b60018516156114db5780820291505b80810290506114e98561149b565b94506114b0565b94509492505050565b5f8261150857600190506115c3565b81611515575f90506115c3565b816001811461152b576002811461153557611564565b60019150506115c3565b60ff8411156115475761154661146e565b5b8360020a91508482111561155e5761155d61146e565b5b506115c3565b5060208310610133831016604e8410600b84101617156115995782820a9050838111156115945761159361146e565b5b6115c3565b6115a684848460016114a7565b925090508184048111156115bd576115bc61146e565b5b81810290505b9392505050565b5f6115d4826111d0565b91506115df836112ec565b925061160c7fffffffffffffffffffffffffffffffffffffffffffffffffffffffffffffffff84846114f9565b905092915050565b5f61161e826111d0565b9150611629836111d0565b9250828202611637816111d0565b9150828204841483151761164e5761164d61146e565b5b5092915050565b5f61165f826111d0565b915061166a836111d0565b92508282019050808211156116825761168161146e565b5b92915050565b7f45524332304361707065643a20636170206578636565646564000000000000005f82015250565b5f6116bc6019836110d2565b91506116c782611688565b602082019050919050565b5f6020820190508181035f8301526116e9816116b0565b905091905056fea2646970667358221220c76f361882945d189bf638930c4c831b68a869f225b4e4537a489defc665c8e864736f6c63430008170033","linkReferences":{}},"methodIdentifiers":{"allowance(address,address)":"dd62ed3e","approve(address,uint256)":"095ea7b3","balanceOf(address)":"70a08231","burn(uint256)":"42966c68","burnFrom(address,uint256)":"79cc6790","cap()":"355274ea","decimals()":"313ce567","mint(address,uint256)":"40c10f19","name()":"06fdde03","owner()":"8da5cb5b","pause()":"8456cb59","paused()":"5c975abb","renounceOwnership()":"715018a6","symbol()":"95d89b41","totalSupply()":"18160ddd","transfer(address,uint256)":"a9059cbb","transferFrom(address,address,uint256)":"23b872dd","transferOwnership(address)":"f2fde38b","unpause()":"3f4ba83a"},"id":19}