{"abi":[{"type":"constructor","inputs":[{"name":"name_","type":"string","internalType":"string"},{"name":"symbol_","type":"string","internalType":"string"},{"name":"decimals_","type":"uint8","internalType":"uint8"},{"name":"totalSupply_","type":"uint256","internalType":"uint256"},{"name":"cap_","type":"uint256","internalType":"uint256"},{"name":"serviceFeeReceiver_","type":"address","internalType":"address"},{"name":"serviceFee_","type":"uint256","internalType":"uint256"},{"name":"transferTaxBps_","type":"uint256","internalType":"uint256"},{"name":"taxFeeRecipient_","type":"address","internalType":"address"}],"stateMutability":"payable"},{"type":"function","name":"allowance","inputs":[{"name":"owner","type":"address","internalType":"address"},{"name":"spender","type":"address","internalType":"address"}],"outputs":[{"name":"","type":"uint256","internalType":"uint256"}],"stateMutability":"view"},{"type":"function","name":"approve","inputs":[{"name":"spender","type":"address","internalType":"address"},{"name":"value","type":"uint256","internalType":"uint256"}],"outputs":[{"name":"","type":"bool","internalType":"bool"}],"stateMutability":"nonpayable"},{"type":"function","name":"balanceOf","inputs":[{"name":"account","type":"address","internalType":"address"}],"outputs":[{"name":"","type":"uint256","internalType":"uint256"}],"stateMutability":"view"},{"type":"function","name":"blacklistAddress","inputs":[{"name":"account","type":"address","internalType":"address"}],"outputs":[],"stateMutability":"nonpayable"},{"type":"function","name":"burn","inputs":[{"name":"value","type":"uint256","internalType":"uint256"}],"outputs":[],"stateMutability":"nonpayable"},{"type":"function","name":"burnFrom","inputs":[{"name":"account","type":"address","internalType":"address"},{"name":"value","type":"uint256","internalType":"uint256"}],"outputs":[],"stateMutability":"nonpayable"},{"type":"function","name":"cap","inputs":[],"outputs":[{"name":"","type":"uint256","internalType":"uint256"}],"stateMutability":"view"},{"type":"function","name":"decimals","inputs":[],"outputs":[{"name":"","type":"uint8","internalType":"uint8"}],"stateMutability":"view"},{"type":"function","name":"getTaxFeeRecipient","inputs":[],"outputs":[{"name":"","type":"address","internalType":"address"}],"stateMutability":"view"},{"type":"function","name":"getTransferTaxBps","inputs":[],"outputs":[{"name":"","type":"uint256","internalType":"uint256"}],"stateMutability":"view"},{"type":"function","name":"isBlacklisted","inputs":[{"name":"account","type":"address","internalType":"address"}],"outputs":[{"name":"","type":"bool","internalType":"bool"}],"stateMutability":"view"},{"type":"function","name":"mint","inputs":[{"name":"to","type":"address","internalType":"address"},{"name":"amount","type":"uint256","internalType":"uint256"}],"outputs":[],"stateMutability":"nonpayable"},{"type":"function","name":"name","inputs":[],"outputs":[{"name":"","type":"string","internalType":"string"}],"stateMutability":"view"},{"type":"function","name":"owner","inputs":[],"outputs":[{"name":"","type":"address","internalType":"address"}],"stateMutability":"view"},{"type":"function","name":"renounceOwnership","inputs":[],"outputs":[],"stateMutability":"nonpayable"},{"type":"function","name":"symbol","inputs":[],"outputs":[{"name":"","type":"string","internalType":"string"}],"stateMutability":"view"},{"type":"function","name":"totalSupply","inputs":[],"outputs":[{"name":"","type":"uint256","internalType":"uint256"}],"stateMutability":"view"},{"type":"function","name":"transfer","inputs":[{"name":"to","type":"address","internalType":"address"},{"name":"value","type":"uint256","internalType":"uint256"}],"outputs":[{"name":"","type":"bool","internalType":"bool"}],"stateMutability":"nonpayable"},{"type":"function","name":"transferFrom","inputs":[{"name":"from","type":"address","internalType":"address"},{"name":"to","type":"address","internalType":"address"},{"name":"value","type":"uint256","internalType":"uint256"}],"outputs":[{"name":"","type":"bool","internalType":"bool"}],"stateMutability":"nonpayable"},{"type":"function","name":"transferOwnership","inputs":[{"name":"newOwner","type":"address","internalType":"address"}],"outputs":[],"stateMutability":"nonpayable"},{"type":"function","name":"unblacklistAddress","inputs":[{"name":"account","type":"address","internalType":"address"}],"outputs":[],"stateMutability":"nonpayable"},{"type":"function","name":"updateTaxFeeRecipient","inputs":[{"name":"newTaxFeeRecipient","type":"address","internalType":"address"}],"outputs":[],"stateMutability":"nonpayable"},{"type":"event","name":"Approval","inputs":[{"name":"owner","type":"address","indexed":true,"internalType":"address"},{"name":"spender","type":"address","indexed":true,"internalType":"address"},{"name":"value","type":"uint256","indexed":false,"internalType":"uint256"}],"anonymous":false},{"type":"event","name":"Blacklisted","inputs":[{"name":"account","type":"address","indexed":true,"internalType":"address"}],"anonymous":false},{"type":"event","name":"OwnershipTransferred","inputs":[{"name":"previousOwner","type":"address","indexed":true,"internalType":"address"},{"name":"newOwner","type":"address","indexed":true,"internalType":"address"}],"anonymous":false},{"type":"event","name":"TaxFeeRecipientUpdated","inputs":[{"name":"newTaxFeeRecipient","type":"address","indexed":false,"internalType":"address"}],"anonymous":false},{"type":"event","name":"Transfer","inputs":[{"name":"from","type":"address","indexed":true,"internalType":"address"},{"name":"to","type":"address","indexed":true,"internalType":"address"},{"name":"value","type":"uint256","indexed":false,"internalType":"uint256"}],"anonymous":false},{"type":"event","name":"Unblacklisted","inputs":[{"name":"account","type":"address","indexed":true,"internalType":"address"}],"anonymous":false},{"type":"error","name":"ERC20InsufficientAllowance","inputs":[{"name":"spender","type":"address","internalType":"address"},{"name":"allowance","type":"uint256","internalType":"uint256"},{"name":"needed","type":"uint256","internalType":"uint256"}]},{"type":"error","name":"ERC20InsufficientBalance","inputs":[{"name":"sender","type":"address","internalType":"address"},{"name":"balance","type":"uint256","internalType":"uint256"},{"name":"needed","type":"uint256","internalType":"uint256"}]},{"type":"error","name":"ERC20InvalidApprover","inputs":[{"name":"approver","type":"address","internalType":"address"}]},{"type":"error","name":"ERC20InvalidReceiver","inputs":[{"name":"receiver","type":"address","internalType":"address"}]},{"type":"error","name":"ERC20InvalidSender","inputs":[{"name":"sender","type":"address","internalType":"address"}]},{"type":"error","name":"ERC20InvalidSpender","inputs":[{"name":"spender","type":"address","internalType":"address"}]},{"type":"error","name":"OwnableInvalidOwner","inputs":[{"name":"owner","type":"address","internalType":"address"}]},{"type":"error","name":"OwnableUnauthorizedAccount","inputs":[{"name":"account","type":"address","internalType":"address"}]}],"bytecode":{"object":"0x608060405260405161383d38038061383d83398181016040528101906100259190610a63565b335f73ffffffffffffffffffffffffffffffffffffffff168173ffffffffffffffffffffffffffffffffffffffff1603610096575f6040517f1e4fbdf700000000000000000000000000000000000000000000000000000000815260040161008d9190610b6e565b60405180910390fd5b6100a58161038d60201b60201c565b5088600590816100b59190610d8e565b5087600690816100c59190610d8e565b508660075f6101000a81548160ff021916908360ff1602179055505f8511610122576040517f08c379a000000000000000000000000000000000000000000000000000000000815260040161011990610eb7565b60405180910390fd5b846008819055508160098190555080600a5f6101000a81548173ffffffffffffffffffffffffffffffffffffffff021916908373ffffffffffffffffffffffffffffffffffffffff16021790555061017e61044e60201b60201c565b600a61018a9190611031565b61019861046360201b60201c565b6101a2919061107b565b8611156101e4576040517f08c379a00000000000000000000000000000000000000000000000000000000081526004016101db90611106565b60405180910390fd5b82341015610227576040517f08c379a000000000000000000000000000000000000000000000000000000000815260040161021e9061116e565b60405180910390fd5b5f73ffffffffffffffffffffffffffffffffffffffff168473ffffffffffffffffffffffffffffffffffffffff1603610295576040517f08c379a000000000000000000000000000000000000000000000000000000000815260040161028c906111d6565b60405180910390fd5b5f8473ffffffffffffffffffffffffffffffffffffffff16846040516102ba90611221565b5f6040518083038185875af1925050503d805f81146102f4576040519150601f19603f3d011682016040523d82523d5f602084013e6102f9565b606091505b505090508061033d576040517f08c379a00000000000000000000000000000000000000000000000000000000081526004016103349061127f565b60405180910390fd5b61037e61034e61046c60201b60201c565b61035c61044e60201b60201c565b600a6103689190611031565b89610373919061107b565b61049360201b60201c565b505050505050505050506113bb565b5f5f5f9054906101000a900473ffffffffffffffffffffffffffffffffffffffff169050815f5f6101000a81548173ffffffffffffffffffffffffffffffffffffffff021916908373ffffffffffffffffffffffffffffffffffffffff1602179055508173ffffffffffffffffffffffffffffffffffffffff168173ffffffffffffffffffffffffffffffffffffffff167f8be0079c531659141344cd1fd0a4f28419497f9722a3daafe3b4186f6b6457e060405160405180910390a35050565b5f60075f9054906101000a900460ff16905090565b5f600854905090565b5f5f5f9054906101000a900473ffffffffffffffffffffffffffffffffffffffff16905090565b60035f8373ffffffffffffffffffffffffffffffffffffffff1673ffffffffffffffffffffffffffffffffffffffff1681526020019081526020015f205f9054906101000a900460ff161561051d576040517f08c379a00000000000000000000000000000000000000000000000000000000081526004016105149061130d565b60405180910390fd5b61052b61044e60201b60201c565b600a6105379190611031565b61054561046360201b60201c565b61054f919061107b565b8161055e61062e60201b60201c565b610568919061132b565b11156105a9576040517f08c379a00000000000000000000000000000000000000000000000000000000081526004016105a090611106565b60405180910390fd5b5f73ffffffffffffffffffffffffffffffffffffffff168273ffffffffffffffffffffffffffffffffffffffff1603610619575f6040517fec442f050000000000000000000000000000000000000000000000000000000081526004016106109190610b6e565b60405180910390fd5b61062a5f838361063760201b60201c565b5050565b5f600454905090565b5f73ffffffffffffffffffffffffffffffffffffffff168373ffffffffffffffffffffffffffffffffffffffff1603610687578060045f82825461067b919061132b565b92505081905550610757565b5f60015f8573ffffffffffffffffffffffffffffffffffffffff1673ffffffffffffffffffffffffffffffffffffffff1681526020019081526020015f2054905081811015610711578381836040517fe450d38c0000000000000000000000000000000000000000000000000000000081526004016107089392919061136d565b60405180910390fd5b81810360015f8673ffffffffffffffffffffffffffffffffffffffff1673ffffffffffffffffffffffffffffffffffffffff1681526020019081526020015f2081905550505b5f73ffffffffffffffffffffffffffffffffffffffff168273ffffffffffffffffffffffffffffffffffffffff160361079e578060045f82825403925050819055506107e9565b8060015f8473ffffffffffffffffffffffffffffffffffffffff1673ffffffffffffffffffffffffffffffffffffffff1681526020019081526020015f205f82825401925050819055505b8173ffffffffffffffffffffffffffffffffffffffff168373ffffffffffffffffffffffffffffffffffffffff167fddf252ad1be2c89b69c2b068fc378daa952ba7f163c4a11628f55a4df523b3ef8360405161084691906113a2565b60405180910390a3505050565b5f604051905090565b5f5ffd5b5f5ffd5b5f5ffd5b5f5ffd5b5f601f19601f8301169050919050565b7f4e487b71000000000000000000000000000000000000000000000000000000005f52604160045260245ffd5b6108b28261086c565b810181811067ffffffffffffffff821117156108d1576108d061087c565b5b80604052505050565b5f6108e3610853565b90506108ef82826108a9565b919050565b5f67ffffffffffffffff82111561090e5761090d61087c565b5b6109178261086c565b9050602081019050919050565b8281835e5f83830152505050565b5f61094461093f846108f4565b6108da565b9050828152602081018484840111156109605761095f610868565b5b61096b848285610924565b509392505050565b5f82601f83011261098757610986610864565b5b8151610997848260208601610932565b91505092915050565b5f60ff82169050919050565b6109b5816109a0565b81146109bf575f5ffd5b50565b5f815190506109d0816109ac565b92915050565b5f819050919050565b6109e8816109d6565b81146109f2575f5ffd5b50565b5f81519050610a03816109df565b92915050565b5f73ffffffffffffffffffffffffffffffffffffffff82169050919050565b5f610a3282610a09565b9050919050565b610a4281610a28565b8114610a4c575f5ffd5b50565b5f81519050610a5d81610a39565b92915050565b5f5f5f5f5f5f5f5f5f6101208a8c031215610a8157610a8061085c565b5b5f8a015167ffffffffffffffff811115610a9e57610a9d610860565b5b610aaa8c828d01610973565b99505060208a015167ffffffffffffffff811115610acb57610aca610860565b5b610ad78c828d01610973565b9850506040610ae88c828d016109c2565b9750506060610af98c828d016109f5565b9650506080610b0a8c828d016109f5565b95505060a0610b1b8c828d01610a4f565b94505060c0610b2c8c828d016109f5565b93505060e0610b3d8c828d016109f5565b925050610100610b4f8c828d01610a4f565b9150509295985092959850929598565b610b6881610a28565b82525050565b5f602082019050610b815f830184610b5f565b92915050565b5f81519050919050565b7f4e487b71000000000000000000000000000000000000000000000000000000005f52602260045260245ffd5b5f6002820490506001821680610bd557607f821691505b602082108103610be857610be7610b91565b5b50919050565b5f819050815f5260205f209050919050565b5f6020601f8301049050919050565b5f82821b905092915050565b5f60088302610c4a7fffffffffffffffffffffffffffffffffffffffffffffffffffffffffffffffff82610c0f565b610c548683610c0f565b95508019841693508086168417925050509392505050565b5f819050919050565b5f610c8f610c8a610c85846109d6565b610c6c565b6109d6565b9050919050565b5f819050919050565b610ca883610c75565b610cbc610cb482610c96565b848454610c1b565b825550505050565b5f5f905090565b610cd3610cc4565b610cde818484610c9f565b505050565b5b81811015610d0157610cf65f82610ccb565b600181019050610ce4565b5050565b601f821115610d4657610d1781610bee565b610d2084610c00565b81016020851015610d2f578190505b610d43610d3b85610c00565b830182610ce3565b50505b505050565b5f82821c905092915050565b5f610d665f1984600802610d4b565b1980831691505092915050565b5f610d7e8383610d57565b9150826002028217905092915050565b610d9782610b87565b67ffffffffffffffff811115610db057610daf61087c565b5b610dba8254610bbe565b610dc5828285610d05565b5f60209050601f831160018114610df6575f8415610de4578287015190505b610dee8582610d73565b865550610e55565b601f198416610e0486610bee565b5f5b82811015610e2b57848901518255600182019150602085019450602081019050610e06565b86831015610e485784890151610e44601f891682610d57565b8355505b6001600288020188555050505b505050505050565b5f82825260208201905092915050565b7f4361702073686f756c642062652067726561746572207468616e2030000000005f82015250565b5f610ea1601c83610e5d565b9150610eac82610e6d565b602082019050919050565b5f6020820190508181035f830152610ece81610e95565b9050919050565b7f4e487b71000000000000000000000000000000000000000000000000000000005f52601160045260245ffd5b5f8160011c9050919050565b5f5f8291508390505b6001851115610f5757808604811115610f3357610f32610ed5565b5b6001851615610f425780820291505b8081029050610f5085610f02565b9450610f17565b94509492505050565b5f82610f6f576001905061102a565b81610f7c575f905061102a565b8160018114610f925760028114610f9c57610fcb565b600191505061102a565b60ff841115610fae57610fad610ed5565b5b8360020a915084821115610fc557610fc4610ed5565b5b5061102a565b5060208310610133831016604e8410600b84101617156110005782820a905083811115610ffb57610ffa610ed5565b5b61102a565b61100d8484846001610f0e565b9250905081840481111561102457611023610ed5565b5b81810290505b9392505050565b5f61103b826109d6565b9150611046836109a0565b92506110737fffffffffffffffffffffffffffffffffffffffffffffffffffffffffffffffff8484610f60565b905092915050565b5f611085826109d6565b9150611090836109d6565b925082820261109e816109d6565b915082820484148315176110b5576110b4610ed5565b5b5092915050565b7f45524332304361707065643a20636170206578636565646564000000000000005f82015250565b5f6110f0601983610e5d565b91506110fb826110bc565b602082019050919050565b5f6020820190508181035f83015261111d816110e4565b9050919050565b7f496e73756666696369656e742066656520616d6f756e742073656e74000000005f82015250565b5f611158601c83610e5d565b915061116382611124565b602082019050919050565b5f6020820190508181035f8301526111858161114c565b9050919050565b7f496e76616c6964206665652072656365697665722061646472657373000000005f82015250565b5f6111c0601c83610e5d565b91506111cb8261118c565b602082019050919050565b5f6020820190508181035f8301526111ed816111b4565b9050919050565b5f81905092915050565b50565b5f61120c5f836111f4565b9150611217826111fe565b5f82019050919050565b5f61122b82611201565b9150819050919050565b7f466565207472616e73666572206661696c6564000000000000000000000000005f82015250565b5f611269601383610e5d565b915061127482611235565b602082019050919050565b5f6020820190508181035f8301526112968161125d565b9050919050565b7f426c61636b6c697374656420616464726573732063616e6e6f742072656365695f8201527f766520746f6b656e730000000000000000000000000000000000000000000000602082015250565b5f6112f7602983610e5d565b91506113028261129d565b604082019050919050565b5f6020820190508181035f830152611324816112eb565b9050919050565b5f611335826109d6565b9150611340836109d6565b925082820190508082111561135857611357610ed5565b5b92915050565b611367816109d6565b82525050565b5f6060820190506113805f830186610b5f565b61138d602083018561135e565b61139a604083018461135e565b949350505050565b5f6020820190506113b55f83018461135e565b92915050565b612475806113c85f395ff3fe608060405234801561000f575f5ffd5b5060043610610140575f3560e01c8063715018a6116100b657806395d89b411161007a57806395d89b411461033c578063a9059cbb1461035a578063dd62ed3e1461038a578063f2fde38b146103ba578063f3290d75146103d6578063fe575a87146103f257610140565b8063715018a6146102be578063743bfe70146102c857806379cc6790146102e65780638baace25146103025780638da5cb5b1461031e57610140565b8063313ce56711610108578063313ce567146101fe578063355274ea1461021c57806340c10f191461023a57806342966c681461025657806345e349491461027257806370a082311461028e57610140565b806303073dfc1461014457806306fdde0314610162578063095ea7b31461018057806318160ddd146101b057806323b872dd146101ce575b5f5ffd5b61014c610422565b6040516101599190611bf4565b60405180910390f35b61016a61044a565b6040516101779190611c7d565b60405180910390f35b61019a60048036038101906101959190611cfe565b6104da565b6040516101a79190611d56565b60405180910390f35b6101b8610608565b6040516101c59190611d7e565b60405180910390f35b6101e860048036038101906101e39190611d97565b610611565b6040516101f59190611d56565b60405180910390f35b61020661074b565b6040516102139190611e02565b60405180910390f35b610224610760565b6040516102319190611d7e565b60405180910390f35b610254600480360381019061024f9190611cfe565b610769565b005b610270600480360381019061026b9190611e1b565b61077f565b005b61028c60048036038101906102879190611e46565b61078c565b005b6102a860048036038101906102a39190611e46565b61082e565b6040516102b59190611d7e565b60405180910390f35b6102c6610874565b005b6102d0610887565b6040516102dd9190611d7e565b60405180910390f35b61030060048036038101906102fb9190611cfe565b610890565b005b61031c60048036038101906103179190611e46565b6108a9565b005b61032661092b565b6040516103339190611bf4565b60405180910390f35b610344610952565b6040516103519190611c7d565b60405180910390f35b610374600480360381019061036f9190611cfe565b6109e2565b6040516103819190611d56565b60405180910390f35b6103a4600480360381019061039f9190611e71565b610e6a565b6040516103b19190611d7e565b60405180910390f35b6103d460048036038101906103cf9190611e46565b610eec565b005b6103f060048036038101906103eb9190611e46565b610f70565b005b61040c60048036038101906104079190611e46565b611013565b6040516104199190611d56565b60405180910390f35b5f600a5f9054906101000a900473ffffffffffffffffffffffffffffffffffffffff16905090565b60606005805461045990611edc565b80601f016020809104026020016040519081016040528092919081815260200182805461048590611edc565b80156104d05780601f106104a7576101008083540402835291602001916104d0565b820191905f5260205f20905b8154815290600101906020018083116104b357829003601f168201915b5050505050905090565b5f3360035f8273ffffffffffffffffffffffffffffffffffffffff1673ffffffffffffffffffffffffffffffffffffffff1681526020019081526020015f205f9054906101000a900460ff1615610566576040517f08c379a000000000000000000000000000000000000000000000000000000000815260040161055d90611f56565b60405180910390fd5b8360035f8273ffffffffffffffffffffffffffffffffffffffff1673ffffffffffffffffffffffffffffffffffffffff1681526020019081526020015f205f9054906101000a900460ff16156105f1576040517f08c379a00000000000000000000000000000000000000000000000000000000081526004016105e890611f56565b60405180910390fd5b6105fc338686611065565b60019250505092915050565b5f600454905090565b5f8360035f8273ffffffffffffffffffffffffffffffffffffffff1673ffffffffffffffffffffffffffffffffffffffff1681526020019081526020015f205f9054906101000a900460ff161561069d576040517f08c379a000000000000000000000000000000000000000000000000000000000815260040161069490611f56565b60405180910390fd5b8360035f8273ffffffffffffffffffffffffffffffffffffffff1673ffffffffffffffffffffffffffffffffffffffff1681526020019081526020015f205f9054906101000a900460ff1615610728576040517f08c379a000000000000000000000000000000000000000000000000000000000815260040161071f90611f56565b60405180910390fd5b61073386338661118f565b61073e868686611222565b6001925050509392505050565b5f60075f9054906101000a900460ff16905090565b5f600854905090565b6107716113ef565b61077b8282611476565b5050565b61078933826115f9565b50565b6107946113ef565b5f60035f8373ffffffffffffffffffffffffffffffffffffffff1673ffffffffffffffffffffffffffffffffffffffff1681526020019081526020015f205f6101000a81548160ff0219169083151502179055508073ffffffffffffffffffffffffffffffffffffffff167f7534c63860313c46c473e4e98328f37017e9674e2162faf1a3ad7a96236c3b7b60405160405180910390a250565b5f60015f8373ffffffffffffffffffffffffffffffffffffffff1673ffffffffffffffffffffffffffffffffffffffff1681526020019081526020015f20549050919050565b61087c6113ef565b6108855f611702565b565b5f600954905090565b61089b82338361118f565b6108a582826115f9565b5050565b6108b16113ef565b80600a5f6101000a81548173ffffffffffffffffffffffffffffffffffffffff021916908373ffffffffffffffffffffffffffffffffffffffff1602179055507f3ca9233bd3849737ab1049144180bc625db2d51ca2c5ce949e7209eb32faa3a2816040516109209190611bf4565b60405180910390a150565b5f5f5f9054906101000a900473ffffffffffffffffffffffffffffffffffffffff16905090565b60606006805461096190611edc565b80601f016020809104026020016040519081016040528092919081815260200182805461098d90611edc565b80156109d85780601f106109af576101008083540402835291602001916109d8565b820191905f5260205f20905b8154815290600101906020018083116109bb57829003601f168201915b5050505050905090565b5f3360035f8273ffffffffffffffffffffffffffffffffffffffff1673ffffffffffffffffffffffffffffffffffffffff1681526020019081526020015f205f9054906101000a900460ff1615610a6e576040517f08c379a0000000000000000000000000000000000000000000000000000000008152600401610a6590611f56565b60405180910390fd5b8360035f8273ffffffffffffffffffffffffffffffffffffffff1673ffffffffffffffffffffffffffffffffffffffff1681526020019081526020015f205f9054906101000a900460ff1615610af9576040517f08c379a0000000000000000000000000000000000000000000000000000000008152600401610af090611f56565b60405180910390fd5b5f610b026117c3565b90505f61271060095487610b169190611fa1565b610b20919061200f565b90505f8187610b2f919061203f565b90508660015f8573ffffffffffffffffffffffffffffffffffffffff1673ffffffffffffffffffffffffffffffffffffffff1681526020019081526020015f20541015610bf4578260015f8573ffffffffffffffffffffffffffffffffffffffff1673ffffffffffffffffffffffffffffffffffffffff1681526020019081526020015f2054886040517fe450d38c000000000000000000000000000000000000000000000000000000008152600401610beb93929190612072565b60405180910390fd5b8660015f8573ffffffffffffffffffffffffffffffffffffffff1673ffffffffffffffffffffffffffffffffffffffff1681526020019081526020015f205f828254610c40919061203f565b925050819055508060015f8a73ffffffffffffffffffffffffffffffffffffffff1673ffffffffffffffffffffffffffffffffffffffff1681526020019081526020015f205f828254610c9391906120a7565b925050819055505f73ffffffffffffffffffffffffffffffffffffffff16600a5f9054906101000a900473ffffffffffffffffffffffffffffffffffffffff1673ffffffffffffffffffffffffffffffffffffffff1614158015610cf657505f82115b15610df6578160015f600a5f9054906101000a900473ffffffffffffffffffffffffffffffffffffffff1673ffffffffffffffffffffffffffffffffffffffff1673ffffffffffffffffffffffffffffffffffffffff1681526020019081526020015f205f828254610d6891906120a7565b92505081905550600a5f9054906101000a900473ffffffffffffffffffffffffffffffffffffffff1673ffffffffffffffffffffffffffffffffffffffff168373ffffffffffffffffffffffffffffffffffffffff167fddf252ad1be2c89b69c2b068fc378daa952ba7f163c4a11628f55a4df523b3ef84604051610ded9190611d7e565b60405180910390a35b8773ffffffffffffffffffffffffffffffffffffffff168373ffffffffffffffffffffffffffffffffffffffff167fddf252ad1be2c89b69c2b068fc378daa952ba7f163c4a11628f55a4df523b3ef83604051610e539190611d7e565b60405180910390a360019550505050505092915050565b5f60025f8473ffffffffffffffffffffffffffffffffffffffff1673ffffffffffffffffffffffffffffffffffffffff1681526020019081526020015f205f8373ffffffffffffffffffffffffffffffffffffffff1673ffffffffffffffffffffffffffffffffffffffff1681526020019081526020015f2054905092915050565b610ef46113ef565b5f73ffffffffffffffffffffffffffffffffffffffff168173ffffffffffffffffffffffffffffffffffffffff1603610f64575f6040517f1e4fbdf7000000000000000000000000000000000000000000000000000000008152600401610f5b9190611bf4565b60405180910390fd5b610f6d81611702565b50565b610f786113ef565b600160035f8373ffffffffffffffffffffffffffffffffffffffff1673ffffffffffffffffffffffffffffffffffffffff1681526020019081526020015f205f6101000a81548160ff0219169083151502179055508073ffffffffffffffffffffffffffffffffffffffff167fffa4e6181777692565cf28528fc88fd1516ea86b56da075235fa575af6a4b85560405160405180910390a250565b5f60035f8373ffffffffffffffffffffffffffffffffffffffff1673ffffffffffffffffffffffffffffffffffffffff1681526020019081526020015f205f9054906101000a900460ff169050919050565b8260035f8273ffffffffffffffffffffffffffffffffffffffff1673ffffffffffffffffffffffffffffffffffffffff1681526020019081526020015f205f9054906101000a900460ff16156110f0576040517f08c379a00000000000000000000000000000000000000000000000000000000081526004016110e790611f56565b60405180910390fd5b8260035f8273ffffffffffffffffffffffffffffffffffffffff1673ffffffffffffffffffffffffffffffffffffffff1681526020019081526020015f205f9054906101000a900460ff161561117b576040517f08c379a000000000000000000000000000000000000000000000000000000000815260040161117290611f56565b60405180910390fd5b61118885858560016117ca565b5050505050565b5f61119a8484610e6a565b90507fffffffffffffffffffffffffffffffffffffffffffffffffffffffffffffffff81101561121c578181101561120d578281836040517ffb8f41b200000000000000000000000000000000000000000000000000000000815260040161120493929190612072565b60405180910390fd5b61121b84848484035f6117ca565b5b50505050565b60035f8473ffffffffffffffffffffffffffffffffffffffff1673ffffffffffffffffffffffffffffffffffffffff1681526020019081526020015f205f9054906101000a900460ff161580156112c0575060035f8373ffffffffffffffffffffffffffffffffffffffff1673ffffffffffffffffffffffffffffffffffffffff1681526020019081526020015f205f9054906101000a900460ff16155b6112ff576040517f08c379a00000000000000000000000000000000000000000000000000000000081526004016112f690612124565b60405180910390fd5b5f73ffffffffffffffffffffffffffffffffffffffff168373ffffffffffffffffffffffffffffffffffffffff160361136f575f6040517f96c6fd1e0000000000000000000000000000000000000000000000000000000081526004016113669190611bf4565b60405180910390fd5b5f73ffffffffffffffffffffffffffffffffffffffff168273ffffffffffffffffffffffffffffffffffffffff16036113df575f6040517fec442f050000000000000000000000000000000000000000000000000000000081526004016113d69190611bf4565b60405180910390fd5b6113ea838383611999565b505050565b6113f76117c3565b73ffffffffffffffffffffffffffffffffffffffff1661141561092b565b73ffffffffffffffffffffffffffffffffffffffff1614611474576114386117c3565b6040517f118cdaa700000000000000000000000000000000000000000000000000000000815260040161146b9190611bf4565b60405180910390fd5b565b60035f8373ffffffffffffffffffffffffffffffffffffffff1673ffffffffffffffffffffffffffffffffffffffff1681526020019081526020015f205f9054906101000a900460ff1615611500576040517f08c379a00000000000000000000000000000000000000000000000000000000081526004016114f7906121b2565b60405180910390fd5b61150861074b565b600a61151491906122ff565b61151c610760565b6115269190611fa1565b8161152f610608565b61153991906120a7565b111561157a576040517f08c379a000000000000000000000000000000000000000000000000000000000815260040161157190612393565b60405180910390fd5b5f73ffffffffffffffffffffffffffffffffffffffff168273ffffffffffffffffffffffffffffffffffffffff16036115ea575f6040517fec442f050000000000000000000000000000000000000000000000000000000081526004016115e19190611bf4565b60405180910390fd5b6115f55f8383611999565b5050565b60035f8373ffffffffffffffffffffffffffffffffffffffff1673ffffffffffffffffffffffffffffffffffffffff1681526020019081526020015f205f9054906101000a900460ff1615611683576040517f08c379a000000000000000000000000000000000000000000000000000000000815260040161167a90612421565b60405180910390fd5b5f73ffffffffffffffffffffffffffffffffffffffff168273ffffffffffffffffffffffffffffffffffffffff16036116f3575f6040517f96c6fd1e0000000000000000000000000000000000000000000000000000000081526004016116ea9190611bf4565b60405180910390fd5b6116fe825f83611999565b5050565b5f5f5f9054906101000a900473ffffffffffffffffffffffffffffffffffffffff169050815f5f6101000a81548173ffffffffffffffffffffffffffffffffffffffff021916908373ffffffffffffffffffffffffffffffffffffffff1602179055508173ffffffffffffffffffffffffffffffffffffffff168173ffffffffffffffffffffffffffffffffffffffff167f8be0079c531659141344cd1fd0a4f28419497f9722a3daafe3b4186f6b6457e060405160405180910390a35050565b5f33905090565b5f73ffffffffffffffffffffffffffffffffffffffff168473ffffffffffffffffffffffffffffffffffffffff160361183a575f6040517fe602df050000000000000000000000000000000000000000000000000000000081526004016118319190611bf4565b60405180910390fd5b5f73ffffffffffffffffffffffffffffffffffffffff168373ffffffffffffffffffffffffffffffffffffffff16036118aa575f6040517f94280d620000000000000000000000000000000000000000000000000000000081526004016118a19190611bf4565b60405180910390fd5b8160025f8673ffffffffffffffffffffffffffffffffffffffff1673ffffffffffffffffffffffffffffffffffffffff1681526020019081526020015f205f8573ffffffffffffffffffffffffffffffffffffffff1673ffffffffffffffffffffffffffffffffffffffff1681526020019081526020015f20819055508015611993578273ffffffffffffffffffffffffffffffffffffffff168473ffffffffffffffffffffffffffffffffffffffff167f8c5be1e5ebec7d5bd14f71427d1e84f3dd0314c0f7b2291e5b200ac8c7c3b9258460405161198a9190611d7e565b60405180910390a35b50505050565b5f73ffffffffffffffffffffffffffffffffffffffff168373ffffffffffffffffffffffffffffffffffffffff16036119e9578060045f8282546119dd91906120a7565b92505081905550611ab9565b5f60015f8573ffffffffffffffffffffffffffffffffffffffff1673ffffffffffffffffffffffffffffffffffffffff1681526020019081526020015f2054905081811015611a73578381836040517fe450d38c000000000000000000000000000000000000000000000000000000008152600401611a6a93929190612072565b60405180910390fd5b81810360015f8673ffffffffffffffffffffffffffffffffffffffff1673ffffffffffffffffffffffffffffffffffffffff1681526020019081526020015f2081905550505b5f73ffffffffffffffffffffffffffffffffffffffff168273ffffffffffffffffffffffffffffffffffffffff1603611b00578060045f8282540392505081905550611b4b565b8060015f8473ffffffffffffffffffffffffffffffffffffffff1673ffffffffffffffffffffffffffffffffffffffff1681526020019081526020015f205f82825401925050819055505b8173ffffffffffffffffffffffffffffffffffffffff168373ffffffffffffffffffffffffffffffffffffffff167fddf252ad1be2c89b69c2b068fc378daa952ba7f163c4a11628f55a4df523b3ef83604051611ba89190611d7e565b60405180910390a3505050565b5f73ffffffffffffffffffffffffffffffffffffffff82169050919050565b5f611bde82611bb5565b9050919050565b611bee81611bd4565b82525050565b5f602082019050611c075f830184611be5565b92915050565b5f81519050919050565b5f82825260208201905092915050565b8281835e5f83830152505050565b5f601f19601f8301169050919050565b5f611c4f82611c0d565b611c598185611c17565b9350611c69818560208601611c27565b611c7281611c35565b840191505092915050565b5f6020820190508181035f830152611c958184611c45565b905092915050565b5f5ffd5b611caa81611bd4565b8114611cb4575f5ffd5b50565b5f81359050611cc581611ca1565b92915050565b5f819050919050565b611cdd81611ccb565b8114611ce7575f5ffd5b50565b5f81359050611cf881611cd4565b92915050565b5f5f60408385031215611d1457611d13611c9d565b5b5f611d2185828601611cb7565b9250506020611d3285828601611cea565b9150509250929050565b5f8115159050919050565b611d5081611d3c565b82525050565b5f602082019050611d695f830184611d47565b92915050565b611d7881611ccb565b82525050565b5f602082019050611d915f830184611d6f565b92915050565b5f5f5f60608486031215611dae57611dad611c9d565b5b5f611dbb86828701611cb7565b9350506020611dcc86828701611cb7565b9250506040611ddd86828701611cea565b9150509250925092565b5f60ff82169050919050565b611dfc81611de7565b82525050565b5f602082019050611e155f830184611df3565b92915050565b5f60208284031215611e3057611e2f611c9d565b5b5f611e3d84828501611cea565b91505092915050565b5f60208284031215611e5b57611e5a611c9d565b5b5f611e6884828501611cb7565b91505092915050565b5f5f60408385031215611e8757611e86611c9d565b5b5f611e9485828601611cb7565b9250506020611ea585828601611cb7565b9150509250929050565b7f4e487b71000000000000000000000000000000000000000000000000000000005f52602260045260245ffd5b5f6002820490506001821680611ef357607f821691505b602082108103611f0657611f05611eaf565b5b50919050565b7f4164647265737320697320626c61636b6c6973746564000000000000000000005f82015250565b5f611f40601683611c17565b9150611f4b82611f0c565b602082019050919050565b5f6020820190508181035f830152611f6d81611f34565b9050919050565b7f4e487b71000000000000000000000000000000000000000000000000000000005f52601160045260245ffd5b5f611fab82611ccb565b9150611fb683611ccb565b9250828202611fc481611ccb565b91508282048414831517611fdb57611fda611f74565b5b5092915050565b7f4e487b71000000000000000000000000000000000000000000000000000000005f52601260045260245ffd5b5f61201982611ccb565b915061202483611ccb565b92508261203457612033611fe2565b5b828204905092915050565b5f61204982611ccb565b915061205483611ccb565b925082820390508181111561206c5761206b611f74565b5b92915050565b5f6060820190506120855f830186611be5565b6120926020830185611d6f565b61209f6040830184611d6f565b949350505050565b5f6120b182611ccb565b91506120bc83611ccb565b92508282019050808211156120d4576120d3611f74565b5b92915050565b7f426c61636b6c6973746564206164647265737320696e766f6c766564000000005f82015250565b5f61210e601c83611c17565b9150612119826120da565b602082019050919050565b5f6020820190508181035f83015261213b81612102565b9050919050565b7f426c61636b6c697374656420616464726573732063616e6e6f742072656365695f8201527f766520746f6b656e730000000000000000000000000000000000000000000000602082015250565b5f61219c602983611c17565b91506121a782612142565b604082019050919050565b5f6020820190508181035f8301526121c981612190565b9050919050565b5f8160011c9050919050565b5f5f8291508390505b60018511156122255780860481111561220157612200611f74565b5b60018516156122105780820291505b808102905061221e856121d0565b94506121e5565b94509492505050565b5f8261223d57600190506122f8565b8161224a575f90506122f8565b8160018114612260576002811461226a57612299565b60019150506122f8565b60ff84111561227c5761227b611f74565b5b8360020a91508482111561229357612292611f74565b5b506122f8565b5060208310610133831016604e8410600b84101617156122ce5782820a9050838111156122c9576122c8611f74565b5b6122f8565b6122db84848460016121dc565b925090508184048111156122f2576122f1611f74565b5b81810290505b9392505050565b5f61230982611ccb565b915061231483611de7565b92506123417fffffffffffffffffffffffffffffffffffffffffffffffffffffffffffffffff848461222e565b905092915050565b7f45524332304361707065643a20636170206578636565646564000000000000005f82015250565b5f61237d601983611c17565b915061238882612349565b602082019050919050565b5f6020820190508181035f8301526123aa81612371565b9050919050565b7f426c61636b6c697374656420616464726573732063616e6e6f74206275726e205f8201527f746f6b656e730000000000000000000000000000000000000000000000000000602082015250565b5f61240b602683611c17565b9150612416826123b1565b604082019050919050565b5f6020820190508181035f830152612438816123ff565b905091905056fea2646970667358221220b75dfe468aed4b6edcaeacfc1cddf29bc8a22d53aa6895b935ea8a7c5d7f84f664736f6c634300081c0033","linkReferences":{}},"methodIdentifiers":{"allowance(address,address)":"dd62ed3e","approve(address,uint256)":"095ea7b3","balanceOf(address)":"70a08231","blacklistAddress(address)":"f3290d75","burn(uint256)":"42966c68","burnFrom(address,uint256)":"79cc6790","cap()":"355274ea","decimals()":"313ce567","getTaxFeeRecipient()":"03073dfc","getTransferTaxBps()":"743bfe70","isBlacklisted(address)":"fe575a87","mint(address,uint256)":"40c10f19","name()":"06fdde03","owner()":"8da5cb5b","renounceOwnership()":"715018a6","symbol()":"95d89b41","totalSupply()":"18160ddd","transfer(address,uint256)":"a9059cbb","transferFrom(address,address,uint256)":"23b872dd","transferOwnership(address)":"f2fde38b","unblacklistAddress(address)":"45e34949","updateTaxFeeRecipient(address)":"8baace25"},"id":10}