{"abi":[{"type":"constructor","inputs":[{"name":"name_","type":"string","internalType":"string"},{"name":"symbol_","type":"string","internalType":"string"},{"name":"decimals_","type":"uint8","internalType":"uint8"},{"name":"totalSupply_","type":"uint256","internalType":"uint256"},{"name":"cap_","type":"uint256","internalType":"uint256"},{"name":"serviceFeeReceiver_","type":"address","internalType":"address"},{"name":"serviceFee_","type":"uint256","internalType":"uint256"},{"name":"transferTaxBps_","type":"uint256","internalType":"uint256"},{"name":"taxFeeRecipient_","type":"address","internalType":"address"}],"stateMutability":"payable"},{"type":"function","name":"allowance","inputs":[{"name":"owner","type":"address","internalType":"address"},{"name":"spender","type":"address","internalType":"address"}],"outputs":[{"name":"","type":"uint256","internalType":"uint256"}],"stateMutability":"view"},{"type":"function","name":"approve","inputs":[{"name":"spender","type":"address","internalType":"address"},{"name":"value","type":"uint256","internalType":"uint256"}],"outputs":[{"name":"","type":"bool","internalType":"bool"}],"stateMutability":"nonpayable"},{"type":"function","name":"balanceOf","inputs":[{"name":"account","type":"address","internalType":"address"}],"outputs":[{"name":"","type":"uint256","internalType":"uint256"}],"stateMutability":"view"},{"type":"function","name":"blacklistAddress","inputs":[{"name":"account","type":"address","internalType":"address"}],"outputs":[],"stateMutability":"nonpayable"},{"type":"function","name":"burn","inputs":[{"name":"value","type":"uint256","internalType":"uint256"}],"outputs":[],"stateMutability":"nonpayable"},{"type":"function","name":"burnFrom","inputs":[{"name":"account","type":"address","internalType":"address"},{"name":"value","type":"uint256","internalType":"uint256"}],"outputs":[],"stateMutability":"nonpayable"},{"type":"function","name":"cap","inputs":[],"outputs":[{"name":"","type":"uint256","internalType":"uint256"}],"stateMutability":"view"},{"type":"function","name":"decimals","inputs":[],"outputs":[{"name":"","type":"uint8","internalType":"uint8"}],"stateMutability":"view"},{"type":"function","name":"getTaxFeeRecipient","inputs":[],"outputs":[{"name":"","type":"address","internalType":"address"}],"stateMutability":"view"},{"type":"function","name":"getTransferTaxBps","inputs":[],"outputs":[{"name":"","type":"uint256","internalType":"uint256"}],"stateMutability":"view"},{"type":"function","name":"isBlacklisted","inputs":[{"name":"account","type":"address","internalType":"address"}],"outputs":[{"name":"","type":"bool","internalType":"bool"}],"stateMutability":"view"},{"type":"function","name":"mint","inputs":[{"name":"to","type":"address","internalType":"address"},{"name":"amount","type":"uint256","internalType":"uint256"}],"outputs":[],"stateMutability":"nonpayable"},{"type":"function","name":"name","inputs":[],"outputs":[{"name":"","type":"string","internalType":"string"}],"stateMutability":"view"},{"type":"function","name":"owner","inputs":[],"outputs":[{"name":"","type":"address","internalType":"address"}],"stateMutability":"view"},{"type":"function","name":"renounceOwnership","inputs":[],"outputs":[],"stateMutability":"nonpayable"},{"type":"function","name":"symbol","inputs":[],"outputs":[{"name":"","type":"string","internalType":"string"}],"stateMutability":"view"},{"type":"function","name":"totalSupply","inputs":[],"outputs":[{"name":"","type":"uint256","internalType":"uint256"}],"stateMutability":"view"},{"type":"function","name":"transfer","inputs":[{"name":"to","type":"address","internalType":"address"},{"name":"value","type":"uint256","internalType":"uint256"}],"outputs":[{"name":"","type":"bool","internalType":"bool"}],"stateMutability":"nonpayable"},{"type":"function","name":"transferFrom","inputs":[{"name":"from","type":"address","internalType":"address"},{"name":"to","type":"address","internalType":"address"},{"name":"value","type":"uint256","internalType":"uint256"}],"outputs":[{"name":"","type":"bool","internalType":"bool"}],"stateMutability":"nonpayable"},{"type":"function","name":"transferOwnership","inputs":[{"name":"newOwner","type":"address","internalType":"address"}],"outputs":[],"stateMutability":"nonpayable"},{"type":"function","name":"unblacklistAddress","inputs":[{"name":"account","type":"address","internalType":"address"}],"outputs":[],"stateMutability":"nonpayable"},{"type":"function","name":"updateTaxFeeRecipient","inputs":[{"name":"newTaxFeeRecipient","type":"address","internalType":"address"}],"outputs":[],"stateMutability":"nonpayable"},{"type":"event","name":"Approval","inputs":[{"name":"owner","type":"address","indexed":true,"internalType":"address"},{"name":"spender","type":"address","indexed":true,"internalType":"address"},{"name":"value","type":"uint256","indexed":false,"internalType":"uint256"}],"anonymous":false},{"type":"event","name":"Blacklisted","inputs":[{"name":"account","type":"address","indexed":true,"internalType":"address"}],"anonymous":false},{"type":"event","name":"OwnershipTransferred","inputs":[{"name":"previousOwner","type":"address","indexed":true,"internalType":"address"},{"name":"newOwner","type":"address","indexed":true,"internalType":"address"}],"anonymous":false},{"type":"event","name":"TaxFeeRecipientUpdated","inputs":[{"name":"newTaxFeeRecipient","type":"address","indexed":false,"internalType":"address"}],"anonymous":false},{"type":"event","name":"Transfer","inputs":[{"name":"from","type":"address","indexed":true,"internalType":"address"},{"name":"to","type":"address","indexed":true,"internalType":"address"},{"name":"value","type":"uint256","indexed":false,"internalType":"uint256"}],"anonymous":false},{"type":"event","name":"Unblacklisted","inputs":[{"name":"account","type":"address","indexed":true,"internalType":"address"}],"anonymous":false},{"type":"error","name":"ERC20InsufficientAllowance","inputs":[{"name":"spender","type":"address","internalType":"address"},{"name":"allowance","type":"uint256","internalType":"uint256"},{"name":"needed","type":"uint256","internalType":"uint256"}]},{"type":"error","name":"ERC20InsufficientBalance","inputs":[{"name":"sender","type":"address","internalType":"address"},{"name":"balance","type":"uint256","internalType":"uint256"},{"name":"needed","type":"uint256","internalType":"uint256"}]},{"type":"error","name":"ERC20InvalidApprover","inputs":[{"name":"approver","type":"address","internalType":"address"}]},{"type":"error","name":"ERC20InvalidReceiver","inputs":[{"name":"receiver","type":"address","internalType":"address"}]},{"type":"error","name":"ERC20InvalidSender","inputs":[{"name":"sender","type":"address","internalType":"address"}]},{"type":"error","name":"ERC20InvalidSpender","inputs":[{"name":"spender","type":"address","internalType":"address"}]},{"type":"error","name":"OwnableInvalidOwner","inputs":[{"name":"owner","type":"address","internalType":"address"}]},{"type":"error","name":"OwnableUnauthorizedAccount","inputs":[{"name":"account","type":"address","internalType":"address"}]}],"bytecode":{"object":"0x6080604052604051620039bc380380620039bc833981810160405281019062000029919062000b01565b335f73ffffffffffffffffffffffffffffffffffffffff168173ffffffffffffffffffffffffffffffffffffffff16036200009d575f6040517f1e4fbdf700000000000000000000000000000000000000000000000000000000815260040162000094919062000c29565b60405180910390fd5b620000ae81620003c060201b60201c565b508860059081620000c0919062000e72565b508760069081620000d2919062000e72565b508660075f6101000a81548160ff021916908360ff1602179055505f851162000132576040517f08c379a0000000000000000000000000000000000000000000000000000000008152600401620001299062000fb4565b60405180910390fd5b846008819055508160098190555080600a5f6101000a81548173ffffffffffffffffffffffffffffffffffffffff021916908373ffffffffffffffffffffffffffffffffffffffff160217905550620001906200048160201b60201c565b600a6200019e919062001151565b620001ae6200049660201b60201c565b620001ba9190620011a1565b861115620001ff576040517f08c379a0000000000000000000000000000000000000000000000000000000008152600401620001f69062001239565b60405180910390fd5b8234101562000245576040517f08c379a00000000000000000000000000000000000000000000000000000000081526004016200023c90620012a7565b60405180910390fd5b5f73ffffffffffffffffffffffffffffffffffffffff168473ffffffffffffffffffffffffffffffffffffffff1603620002b6576040517f08c379a0000000000000000000000000000000000000000000000000000000008152600401620002ad9062001315565b60405180910390fd5b5f8473ffffffffffffffffffffffffffffffffffffffff1684604051620002dd9062001366565b5f6040518083038185875af1925050503d805f811462000319576040519150601f19603f3d011682016040523d82523d5f602084013e6200031e565b606091505b505090508062000365576040517f08c379a00000000000000000000000000000000000000000000000000000000081526004016200035c90620013ca565b60405180910390fd5b620003b0620003796200049f60201b60201c565b620003896200048160201b60201c565b600a62000397919062001151565b89620003a49190620011a1565b620004c660201b60201c565b505050505050505050506200151f565b5f805f9054906101000a900473ffffffffffffffffffffffffffffffffffffffff169050815f806101000a81548173ffffffffffffffffffffffffffffffffffffffff021916908373ffffffffffffffffffffffffffffffffffffffff1602179055508173ffffffffffffffffffffffffffffffffffffffff168173ffffffffffffffffffffffffffffffffffffffff167f8be0079c531659141344cd1fd0a4f28419497f9722a3daafe3b4186f6b6457e060405160405180910390a35050565b5f60075f9054906101000a900460ff16905090565b5f600854905090565b5f805f9054906101000a900473ffffffffffffffffffffffffffffffffffffffff16905090565b60035f8373ffffffffffffffffffffffffffffffffffffffff1673ffffffffffffffffffffffffffffffffffffffff1681526020019081526020015f205f9054906101000a900460ff161562000553576040517f08c379a00000000000000000000000000000000000000000000000000000000081526004016200054a906200145e565b60405180910390fd5b620005636200048160201b60201c565b600a62000571919062001151565b620005816200049660201b60201c565b6200058d9190620011a1565b816200059e6200067860201b60201c565b620005aa91906200147e565b1115620005ee576040517f08c379a0000000000000000000000000000000000000000000000000000000008152600401620005e59062001239565b60405180910390fd5b5f73ffffffffffffffffffffffffffffffffffffffff168273ffffffffffffffffffffffffffffffffffffffff160362000661575f6040517fec442f0500000000000000000000000000000000000000000000000000000000815260040162000658919062000c29565b60405180910390fd5b620006745f83836200068160201b60201c565b5050565b5f600454905090565b5f73ffffffffffffffffffffffffffffffffffffffff168373ffffffffffffffffffffffffffffffffffffffff1603620006d5578060045f828254620006c891906200147e565b92505081905550620007a8565b5f60015f8573ffffffffffffffffffffffffffffffffffffffff1673ffffffffffffffffffffffffffffffffffffffff1681526020019081526020015f205490508181101562000762578381836040517fe450d38c0000000000000000000000000000000000000000000000000000000081526004016200075993929190620014c9565b60405180910390fd5b81810360015f8673ffffffffffffffffffffffffffffffffffffffff1673ffffffffffffffffffffffffffffffffffffffff1681526020019081526020015f2081905550505b5f73ffffffffffffffffffffffffffffffffffffffff168273ffffffffffffffffffffffffffffffffffffffff1603620007f1578060045f82825403925050819055506200083c565b8060015f8473ffffffffffffffffffffffffffffffffffffffff1673ffffffffffffffffffffffffffffffffffffffff1681526020019081526020015f205f82825401925050819055505b8173ffffffffffffffffffffffffffffffffffffffff168373ffffffffffffffffffffffffffffffffffffffff167fddf252ad1be2c89b69c2b068fc378daa952ba7f163c4a11628f55a4df523b3ef836040516200089b919062001504565b60405180910390a3505050565b5f604051905090565b5f80fd5b5f80fd5b5f80fd5b5f80fd5b5f601f19601f8301169050919050565b7f4e487b71000000000000000000000000000000000000000000000000000000005f52604160045260245ffd5b6200090982620008c1565b810181811067ffffffffffffffff821117156200092b576200092a620008d1565b5b80604052505050565b5f6200093f620008a8565b90506200094d8282620008fe565b919050565b5f67ffffffffffffffff8211156200096f576200096e620008d1565b5b6200097a82620008c1565b9050602081019050919050565b5f5b83811015620009a657808201518184015260208101905062000989565b5f8484015250505050565b5f620009c7620009c18462000952565b62000934565b905082815260208101848484011115620009e657620009e5620008bd565b5b620009f384828562000987565b509392505050565b5f82601f83011262000a125762000a11620008b9565b5b815162000a24848260208601620009b1565b91505092915050565b5f60ff82169050919050565b62000a448162000a2d565b811462000a4f575f80fd5b50565b5f8151905062000a628162000a39565b92915050565b5f819050919050565b62000a7c8162000a68565b811462000a87575f80fd5b50565b5f8151905062000a9a8162000a71565b92915050565b5f73ffffffffffffffffffffffffffffffffffffffff82169050919050565b5f62000acb8262000aa0565b9050919050565b62000add8162000abf565b811462000ae8575f80fd5b50565b5f8151905062000afb8162000ad2565b92915050565b5f805f805f805f805f6101208a8c03121562000b225762000b21620008b1565b5b5f8a015167ffffffffffffffff81111562000b425762000b41620008b5565b5b62000b508c828d01620009fb565b99505060208a015167ffffffffffffffff81111562000b745762000b73620008b5565b5b62000b828c828d01620009fb565b985050604062000b958c828d0162000a52565b975050606062000ba88c828d0162000a8a565b965050608062000bbb8c828d0162000a8a565b95505060a062000bce8c828d0162000aeb565b94505060c062000be18c828d0162000a8a565b93505060e062000bf48c828d0162000a8a565b92505061010062000c088c828d0162000aeb565b9150509295985092959850929598565b62000c238162000abf565b82525050565b5f60208201905062000c3e5f83018462000c18565b92915050565b5f81519050919050565b7f4e487b71000000000000000000000000000000000000000000000000000000005f52602260045260245ffd5b5f600282049050600182168062000c9357607f821691505b60208210810362000ca95762000ca862000c4e565b5b50919050565b5f819050815f5260205f209050919050565b5f6020601f8301049050919050565b5f82821b905092915050565b5f6008830262000d0d7fffffffffffffffffffffffffffffffffffffffffffffffffffffffffffffffff8262000cd0565b62000d19868362000cd0565b95508019841693508086168417925050509392505050565b5f819050919050565b5f62000d5a62000d5462000d4e8462000a68565b62000d31565b62000a68565b9050919050565b5f819050919050565b62000d758362000d3a565b62000d8d62000d848262000d61565b84845462000cdc565b825550505050565b5f90565b62000da362000d95565b62000db081848462000d6a565b505050565b5b8181101562000dd75762000dcb5f8262000d99565b60018101905062000db6565b5050565b601f82111562000e265762000df08162000caf565b62000dfb8462000cc1565b8101602085101562000e0b578190505b62000e2362000e1a8562000cc1565b83018262000db5565b50505b505050565b5f82821c905092915050565b5f62000e485f198460080262000e2b565b1980831691505092915050565b5f62000e62838362000e37565b9150826002028217905092915050565b62000e7d8262000c44565b67ffffffffffffffff81111562000e995762000e98620008d1565b5b62000ea5825462000c7b565b62000eb282828562000ddb565b5f60209050601f83116001811462000ee8575f841562000ed3578287015190505b62000edf858262000e55565b86555062000f4e565b601f19841662000ef88662000caf565b5f5b8281101562000f215784890151825560018201915060208501945060208101905062000efa565b8683101562000f41578489015162000f3d601f89168262000e37565b8355505b6001600288020188555050505b505050505050565b5f82825260208201905092915050565b7f4361702073686f756c642062652067726561746572207468616e2030000000005f82015250565b5f62000f9c601c8362000f56565b915062000fa98262000f66565b602082019050919050565b5f6020820190508181035f83015262000fcd8162000f8e565b9050919050565b7f4e487b71000000000000000000000000000000000000000000000000000000005f52601160045260245ffd5b5f8160011c9050919050565b5f808291508390505b60018511156200105e5780860481111562001036576200103562000fd4565b5b6001851615620010465780820291505b8081029050620010568562001001565b945062001016565b94509492505050565b5f826200107857600190506200114a565b8162001087575f90506200114a565b8160018114620010a05760028114620010ab57620010e1565b60019150506200114a565b60ff841115620010c057620010bf62000fd4565b5b8360020a915084821115620010da57620010d962000fd4565b5b506200114a565b5060208310610133831016604e8410600b84101617156200111b5782820a90508381111562001115576200111462000fd4565b5b6200114a565b6200112a84848460016200100d565b9250905081840481111562001144576200114362000fd4565b5b81810290505b9392505050565b5f6200115d8262000a68565b91506200116a8362000a2d565b9250620011997fffffffffffffffffffffffffffffffffffffffffffffffffffffffffffffffff848462001067565b905092915050565b5f620011ad8262000a68565b9150620011ba8362000a68565b9250828202620011ca8162000a68565b91508282048414831517620011e457620011e362000fd4565b5b5092915050565b7f45524332304361707065643a20636170206578636565646564000000000000005f82015250565b5f6200122160198362000f56565b91506200122e82620011eb565b602082019050919050565b5f6020820190508181035f830152620012528162001213565b9050919050565b7f496e73756666696369656e742066656520616d6f756e742073656e74000000005f82015250565b5f6200128f601c8362000f56565b91506200129c8262001259565b602082019050919050565b5f6020820190508181035f830152620012c08162001281565b9050919050565b7f496e76616c6964206665652072656365697665722061646472657373000000005f82015250565b5f620012fd601c8362000f56565b91506200130a82620012c7565b602082019050919050565b5f6020820190508181035f8301526200132e81620012ef565b9050919050565b5f81905092915050565b50565b5f6200134f5f8362001335565b91506200135c826200133f565b5f82019050919050565b5f620013728262001342565b9150819050919050565b7f466565207472616e73666572206661696c6564000000000000000000000000005f82015250565b5f620013b260138362000f56565b9150620013bf826200137c565b602082019050919050565b5f6020820190508181035f830152620013e381620013a4565b9050919050565b7f426c61636b6c697374656420616464726573732063616e6e6f742072656365695f8201527f766520746f6b656e730000000000000000000000000000000000000000000000602082015250565b5f6200144660298362000f56565b91506200145382620013ea565b604082019050919050565b5f6020820190508181035f830152620014778162001438565b9050919050565b5f6200148a8262000a68565b9150620014978362000a68565b9250828201905080821115620014b257620014b162000fd4565b5b92915050565b620014c38162000a68565b82525050565b5f606082019050620014de5f83018662000c18565b620014ed6020830185620014b8565b620014fc6040830184620014b8565b949350505050565b5f602082019050620015195f830184620014b8565b92915050565b61248f806200152d5f395ff3fe608060405234801561000f575f80fd5b5060043610610140575f3560e01c8063715018a6116100b657806395d89b411161007a57806395d89b411461033c578063a9059cbb1461035a578063dd62ed3e1461038a578063f2fde38b146103ba578063f3290d75146103d6578063fe575a87146103f257610140565b8063715018a6146102be578063743bfe70146102c857806379cc6790146102e65780638baace25146103025780638da5cb5b1461031e57610140565b8063313ce56711610108578063313ce567146101fe578063355274ea1461021c57806340c10f191461023a57806342966c681461025657806345e349491461027257806370a082311461028e57610140565b806303073dfc1461014457806306fdde0314610162578063095ea7b31461018057806318160ddd146101b057806323b872dd146101ce575b5f80fd5b61014c610422565b6040516101599190611bf4565b60405180910390f35b61016a61044a565b6040516101779190611c97565b60405180910390f35b61019a60048036038101906101959190611d18565b6104da565b6040516101a79190611d70565b60405180910390f35b6101b8610608565b6040516101c59190611d98565b60405180910390f35b6101e860048036038101906101e39190611db1565b610611565b6040516101f59190611d70565b60405180910390f35b61020661074b565b6040516102139190611e1c565b60405180910390f35b610224610760565b6040516102319190611d98565b60405180910390f35b610254600480360381019061024f9190611d18565b610769565b005b610270600480360381019061026b9190611e35565b61077f565b005b61028c60048036038101906102879190611e60565b61078c565b005b6102a860048036038101906102a39190611e60565b61082e565b6040516102b59190611d98565b60405180910390f35b6102c6610874565b005b6102d0610887565b6040516102dd9190611d98565b60405180910390f35b61030060048036038101906102fb9190611d18565b610890565b005b61031c60048036038101906103179190611e60565b6108a9565b005b61032661092b565b6040516103339190611bf4565b60405180910390f35b610344610952565b6040516103519190611c97565b60405180910390f35b610374600480360381019061036f9190611d18565b6109e2565b6040516103819190611d70565b60405180910390f35b6103a4600480360381019061039f9190611e8b565b610e6a565b6040516103b19190611d98565b60405180910390f35b6103d460048036038101906103cf9190611e60565b610eec565b005b6103f060048036038101906103eb9190611e60565b610f70565b005b61040c60048036038101906104079190611e60565b611013565b6040516104199190611d70565b60405180910390f35b5f600a5f9054906101000a900473ffffffffffffffffffffffffffffffffffffffff16905090565b60606005805461045990611ef6565b80601f016020809104026020016040519081016040528092919081815260200182805461048590611ef6565b80156104d05780601f106104a7576101008083540402835291602001916104d0565b820191905f5260205f20905b8154815290600101906020018083116104b357829003601f168201915b5050505050905090565b5f3360035f8273ffffffffffffffffffffffffffffffffffffffff1673ffffffffffffffffffffffffffffffffffffffff1681526020019081526020015f205f9054906101000a900460ff1615610566576040517f08c379a000000000000000000000000000000000000000000000000000000000815260040161055d90611f70565b60405180910390fd5b8360035f8273ffffffffffffffffffffffffffffffffffffffff1673ffffffffffffffffffffffffffffffffffffffff1681526020019081526020015f205f9054906101000a900460ff16156105f1576040517f08c379a00000000000000000000000000000000000000000000000000000000081526004016105e890611f70565b60405180910390fd5b6105fc338686611065565b60019250505092915050565b5f600454905090565b5f8360035f8273ffffffffffffffffffffffffffffffffffffffff1673ffffffffffffffffffffffffffffffffffffffff1681526020019081526020015f205f9054906101000a900460ff161561069d576040517f08c379a000000000000000000000000000000000000000000000000000000000815260040161069490611f70565b60405180910390fd5b8360035f8273ffffffffffffffffffffffffffffffffffffffff1673ffffffffffffffffffffffffffffffffffffffff1681526020019081526020015f205f9054906101000a900460ff1615610728576040517f08c379a000000000000000000000000000000000000000000000000000000000815260040161071f90611f70565b60405180910390fd5b61073386338661118f565b61073e868686611222565b6001925050509392505050565b5f60075f9054906101000a900460ff16905090565b5f600854905090565b6107716113ef565b61077b8282611476565b5050565b61078933826115f9565b50565b6107946113ef565b5f60035f8373ffffffffffffffffffffffffffffffffffffffff1673ffffffffffffffffffffffffffffffffffffffff1681526020019081526020015f205f6101000a81548160ff0219169083151502179055508073ffffffffffffffffffffffffffffffffffffffff167f7534c63860313c46c473e4e98328f37017e9674e2162faf1a3ad7a96236c3b7b60405160405180910390a250565b5f60015f8373ffffffffffffffffffffffffffffffffffffffff1673ffffffffffffffffffffffffffffffffffffffff1681526020019081526020015f20549050919050565b61087c6113ef565b6108855f611702565b565b5f600954905090565b61089b82338361118f565b6108a582826115f9565b5050565b6108b16113ef565b80600a5f6101000a81548173ffffffffffffffffffffffffffffffffffffffff021916908373ffffffffffffffffffffffffffffffffffffffff1602179055507f3ca9233bd3849737ab1049144180bc625db2d51ca2c5ce949e7209eb32faa3a2816040516109209190611bf4565b60405180910390a150565b5f805f9054906101000a900473ffffffffffffffffffffffffffffffffffffffff16905090565b60606006805461096190611ef6565b80601f016020809104026020016040519081016040528092919081815260200182805461098d90611ef6565b80156109d85780601f106109af576101008083540402835291602001916109d8565b820191905f5260205f20905b8154815290600101906020018083116109bb57829003601f168201915b5050505050905090565b5f3360035f8273ffffffffffffffffffffffffffffffffffffffff1673ffffffffffffffffffffffffffffffffffffffff1681526020019081526020015f205f9054906101000a900460ff1615610a6e576040517f08c379a0000000000000000000000000000000000000000000000000000000008152600401610a6590611f70565b60405180910390fd5b8360035f8273ffffffffffffffffffffffffffffffffffffffff1673ffffffffffffffffffffffffffffffffffffffff1681526020019081526020015f205f9054906101000a900460ff1615610af9576040517f08c379a0000000000000000000000000000000000000000000000000000000008152600401610af090611f70565b60405180910390fd5b5f610b026117c3565b90505f61271060095487610b169190611fbb565b610b209190612029565b90505f8187610b2f9190612059565b90508660015f8573ffffffffffffffffffffffffffffffffffffffff1673ffffffffffffffffffffffffffffffffffffffff1681526020019081526020015f20541015610bf4578260015f8573ffffffffffffffffffffffffffffffffffffffff1673ffffffffffffffffffffffffffffffffffffffff1681526020019081526020015f2054886040517fe450d38c000000000000000000000000000000000000000000000000000000008152600401610beb9392919061208c565b60405180910390fd5b8660015f8573ffffffffffffffffffffffffffffffffffffffff1673ffffffffffffffffffffffffffffffffffffffff1681526020019081526020015f205f828254610c409190612059565b925050819055508060015f8a73ffffffffffffffffffffffffffffffffffffffff1673ffffffffffffffffffffffffffffffffffffffff1681526020019081526020015f205f828254610c9391906120c1565b925050819055505f73ffffffffffffffffffffffffffffffffffffffff16600a5f9054906101000a900473ffffffffffffffffffffffffffffffffffffffff1673ffffffffffffffffffffffffffffffffffffffff1614158015610cf657505f82115b15610df6578160015f600a5f9054906101000a900473ffffffffffffffffffffffffffffffffffffffff1673ffffffffffffffffffffffffffffffffffffffff1673ffffffffffffffffffffffffffffffffffffffff1681526020019081526020015f205f828254610d6891906120c1565b92505081905550600a5f9054906101000a900473ffffffffffffffffffffffffffffffffffffffff1673ffffffffffffffffffffffffffffffffffffffff168373ffffffffffffffffffffffffffffffffffffffff167fddf252ad1be2c89b69c2b068fc378daa952ba7f163c4a11628f55a4df523b3ef84604051610ded9190611d98565b60405180910390a35b8773ffffffffffffffffffffffffffffffffffffffff168373ffffffffffffffffffffffffffffffffffffffff167fddf252ad1be2c89b69c2b068fc378daa952ba7f163c4a11628f55a4df523b3ef83604051610e539190611d98565b60405180910390a360019550505050505092915050565b5f60025f8473ffffffffffffffffffffffffffffffffffffffff1673ffffffffffffffffffffffffffffffffffffffff1681526020019081526020015f205f8373ffffffffffffffffffffffffffffffffffffffff1673ffffffffffffffffffffffffffffffffffffffff1681526020019081526020015f2054905092915050565b610ef46113ef565b5f73ffffffffffffffffffffffffffffffffffffffff168173ffffffffffffffffffffffffffffffffffffffff1603610f64575f6040517f1e4fbdf7000000000000000000000000000000000000000000000000000000008152600401610f5b9190611bf4565b60405180910390fd5b610f6d81611702565b50565b610f786113ef565b600160035f8373ffffffffffffffffffffffffffffffffffffffff1673ffffffffffffffffffffffffffffffffffffffff1681526020019081526020015f205f6101000a81548160ff0219169083151502179055508073ffffffffffffffffffffffffffffffffffffffff167fffa4e6181777692565cf28528fc88fd1516ea86b56da075235fa575af6a4b85560405160405180910390a250565b5f60035f8373ffffffffffffffffffffffffffffffffffffffff1673ffffffffffffffffffffffffffffffffffffffff1681526020019081526020015f205f9054906101000a900460ff169050919050565b8260035f8273ffffffffffffffffffffffffffffffffffffffff1673ffffffffffffffffffffffffffffffffffffffff1681526020019081526020015f205f9054906101000a900460ff16156110f0576040517f08c379a00000000000000000000000000000000000000000000000000000000081526004016110e790611f70565b60405180910390fd5b8260035f8273ffffffffffffffffffffffffffffffffffffffff1673ffffffffffffffffffffffffffffffffffffffff1681526020019081526020015f205f9054906101000a900460ff161561117b576040517f08c379a000000000000000000000000000000000000000000000000000000000815260040161117290611f70565b60405180910390fd5b61118885858560016117ca565b5050505050565b5f61119a8484610e6a565b90507fffffffffffffffffffffffffffffffffffffffffffffffffffffffffffffffff81101561121c578181101561120d578281836040517ffb8f41b20000000000000000000000000000000000000000000000000000000081526004016112049392919061208c565b60405180910390fd5b61121b84848484035f6117ca565b5b50505050565b60035f8473ffffffffffffffffffffffffffffffffffffffff1673ffffffffffffffffffffffffffffffffffffffff1681526020019081526020015f205f9054906101000a900460ff161580156112c0575060035f8373ffffffffffffffffffffffffffffffffffffffff1673ffffffffffffffffffffffffffffffffffffffff1681526020019081526020015f205f9054906101000a900460ff16155b6112ff576040517f08c379a00000000000000000000000000000000000000000000000000000000081526004016112f69061213e565b60405180910390fd5b5f73ffffffffffffffffffffffffffffffffffffffff168373ffffffffffffffffffffffffffffffffffffffff160361136f575f6040517f96c6fd1e0000000000000000000000000000000000000000000000000000000081526004016113669190611bf4565b60405180910390fd5b5f73ffffffffffffffffffffffffffffffffffffffff168273ffffffffffffffffffffffffffffffffffffffff16036113df575f6040517fec442f050000000000000000000000000000000000000000000000000000000081526004016113d69190611bf4565b60405180910390fd5b6113ea838383611999565b505050565b6113f76117c3565b73ffffffffffffffffffffffffffffffffffffffff1661141561092b565b73ffffffffffffffffffffffffffffffffffffffff1614611474576114386117c3565b6040517f118cdaa700000000000000000000000000000000000000000000000000000000815260040161146b9190611bf4565b60405180910390fd5b565b60035f8373ffffffffffffffffffffffffffffffffffffffff1673ffffffffffffffffffffffffffffffffffffffff1681526020019081526020015f205f9054906101000a900460ff1615611500576040517f08c379a00000000000000000000000000000000000000000000000000000000081526004016114f7906121cc565b60405180910390fd5b61150861074b565b600a6115149190612319565b61151c610760565b6115269190611fbb565b8161152f610608565b61153991906120c1565b111561157a576040517f08c379a0000000000000000000000000000000000000000000000000000000008152600401611571906123ad565b60405180910390fd5b5f73ffffffffffffffffffffffffffffffffffffffff168273ffffffffffffffffffffffffffffffffffffffff16036115ea575f6040517fec442f050000000000000000000000000000000000000000000000000000000081526004016115e19190611bf4565b60405180910390fd5b6115f55f8383611999565b5050565b60035f8373ffffffffffffffffffffffffffffffffffffffff1673ffffffffffffffffffffffffffffffffffffffff1681526020019081526020015f205f9054906101000a900460ff1615611683576040517f08c379a000000000000000000000000000000000000000000000000000000000815260040161167a9061243b565b60405180910390fd5b5f73ffffffffffffffffffffffffffffffffffffffff168273ffffffffffffffffffffffffffffffffffffffff16036116f3575f6040517f96c6fd1e0000000000000000000000000000000000000000000000000000000081526004016116ea9190611bf4565b60405180910390fd5b6116fe825f83611999565b5050565b5f805f9054906101000a900473ffffffffffffffffffffffffffffffffffffffff169050815f806101000a81548173ffffffffffffffffffffffffffffffffffffffff021916908373ffffffffffffffffffffffffffffffffffffffff1602179055508173ffffffffffffffffffffffffffffffffffffffff168173ffffffffffffffffffffffffffffffffffffffff167f8be0079c531659141344cd1fd0a4f28419497f9722a3daafe3b4186f6b6457e060405160405180910390a35050565b5f33905090565b5f73ffffffffffffffffffffffffffffffffffffffff168473ffffffffffffffffffffffffffffffffffffffff160361183a575f6040517fe602df050000000000000000000000000000000000000000000000000000000081526004016118319190611bf4565b60405180910390fd5b5f73ffffffffffffffffffffffffffffffffffffffff168373ffffffffffffffffffffffffffffffffffffffff16036118aa575f6040517f94280d620000000000000000000000000000000000000000000000000000000081526004016118a19190611bf4565b60405180910390fd5b8160025f8673ffffffffffffffffffffffffffffffffffffffff1673ffffffffffffffffffffffffffffffffffffffff1681526020019081526020015f205f8573ffffffffffffffffffffffffffffffffffffffff1673ffffffffffffffffffffffffffffffffffffffff1681526020019081526020015f20819055508015611993578273ffffffffffffffffffffffffffffffffffffffff168473ffffffffffffffffffffffffffffffffffffffff167f8c5be1e5ebec7d5bd14f71427d1e84f3dd0314c0f7b2291e5b200ac8c7c3b9258460405161198a9190611d98565b60405180910390a35b50505050565b5f73ffffffffffffffffffffffffffffffffffffffff168373ffffffffffffffffffffffffffffffffffffffff16036119e9578060045f8282546119dd91906120c1565b92505081905550611ab9565b5f60015f8573ffffffffffffffffffffffffffffffffffffffff1673ffffffffffffffffffffffffffffffffffffffff1681526020019081526020015f2054905081811015611a73578381836040517fe450d38c000000000000000000000000000000000000000000000000000000008152600401611a6a9392919061208c565b60405180910390fd5b81810360015f8673ffffffffffffffffffffffffffffffffffffffff1673ffffffffffffffffffffffffffffffffffffffff1681526020019081526020015f2081905550505b5f73ffffffffffffffffffffffffffffffffffffffff168273ffffffffffffffffffffffffffffffffffffffff1603611b00578060045f8282540392505081905550611b4b565b8060015f8473ffffffffffffffffffffffffffffffffffffffff1673ffffffffffffffffffffffffffffffffffffffff1681526020019081526020015f205f82825401925050819055505b8173ffffffffffffffffffffffffffffffffffffffff168373ffffffffffffffffffffffffffffffffffffffff167fddf252ad1be2c89b69c2b068fc378daa952ba7f163c4a11628f55a4df523b3ef83604051611ba89190611d98565b60405180910390a3505050565b5f73ffffffffffffffffffffffffffffffffffffffff82169050919050565b5f611bde82611bb5565b9050919050565b611bee81611bd4565b82525050565b5f602082019050611c075f830184611be5565b92915050565b5f81519050919050565b5f82825260208201905092915050565b5f5b83811015611c44578082015181840152602081019050611c29565b5f8484015250505050565b5f601f19601f8301169050919050565b5f611c6982611c0d565b611c738185611c17565b9350611c83818560208601611c27565b611c8c81611c4f565b840191505092915050565b5f6020820190508181035f830152611caf8184611c5f565b905092915050565b5f80fd5b611cc481611bd4565b8114611cce575f80fd5b50565b5f81359050611cdf81611cbb565b92915050565b5f819050919050565b611cf781611ce5565b8114611d01575f80fd5b50565b5f81359050611d1281611cee565b92915050565b5f8060408385031215611d2e57611d2d611cb7565b5b5f611d3b85828601611cd1565b9250506020611d4c85828601611d04565b9150509250929050565b5f8115159050919050565b611d6a81611d56565b82525050565b5f602082019050611d835f830184611d61565b92915050565b611d9281611ce5565b82525050565b5f602082019050611dab5f830184611d89565b92915050565b5f805f60608486031215611dc857611dc7611cb7565b5b5f611dd586828701611cd1565b9350506020611de686828701611cd1565b9250506040611df786828701611d04565b9150509250925092565b5f60ff82169050919050565b611e1681611e01565b82525050565b5f602082019050611e2f5f830184611e0d565b92915050565b5f60208284031215611e4a57611e49611cb7565b5b5f611e5784828501611d04565b91505092915050565b5f60208284031215611e7557611e74611cb7565b5b5f611e8284828501611cd1565b91505092915050565b5f8060408385031215611ea157611ea0611cb7565b5b5f611eae85828601611cd1565b9250506020611ebf85828601611cd1565b9150509250929050565b7f4e487b71000000000000000000000000000000000000000000000000000000005f52602260045260245ffd5b5f6002820490506001821680611f0d57607f821691505b602082108103611f2057611f1f611ec9565b5b50919050565b7f4164647265737320697320626c61636b6c6973746564000000000000000000005f82015250565b5f611f5a601683611c17565b9150611f6582611f26565b602082019050919050565b5f6020820190508181035f830152611f8781611f4e565b9050919050565b7f4e487b71000000000000000000000000000000000000000000000000000000005f52601160045260245ffd5b5f611fc582611ce5565b9150611fd083611ce5565b9250828202611fde81611ce5565b91508282048414831517611ff557611ff4611f8e565b5b5092915050565b7f4e487b71000000000000000000000000000000000000000000000000000000005f52601260045260245ffd5b5f61203382611ce5565b915061203e83611ce5565b92508261204e5761204d611ffc565b5b828204905092915050565b5f61206382611ce5565b915061206e83611ce5565b925082820390508181111561208657612085611f8e565b5b92915050565b5f60608201905061209f5f830186611be5565b6120ac6020830185611d89565b6120b96040830184611d89565b949350505050565b5f6120cb82611ce5565b91506120d683611ce5565b92508282019050808211156120ee576120ed611f8e565b5b92915050565b7f426c61636b6c6973746564206164647265737320696e766f6c766564000000005f82015250565b5f612128601c83611c17565b9150612133826120f4565b602082019050919050565b5f6020820190508181035f8301526121558161211c565b9050919050565b7f426c61636b6c697374656420616464726573732063616e6e6f742072656365695f8201527f766520746f6b656e730000000000000000000000000000000000000000000000602082015250565b5f6121b6602983611c17565b91506121c18261215c565b604082019050919050565b5f6020820190508181035f8301526121e3816121aa565b9050919050565b5f8160011c9050919050565b5f808291508390505b600185111561223f5780860481111561221b5761221a611f8e565b5b600185161561222a5780820291505b8081029050612238856121ea565b94506121ff565b94509492505050565b5f826122575760019050612312565b81612264575f9050612312565b816001811461227a5760028114612284576122b3565b6001915050612312565b60ff84111561229657612295611f8e565b5b8360020a9150848211156122ad576122ac611f8e565b5b50612312565b5060208310610133831016604e8410600b84101617156122e85782820a9050838111156122e3576122e2611f8e565b5b612312565b6122f584848460016121f6565b9250905081840481111561230c5761230b611f8e565b5b81810290505b9392505050565b5f61232382611ce5565b915061232e83611e01565b925061235b7fffffffffffffffffffffffffffffffffffffffffffffffffffffffffffffffff8484612248565b905092915050565b7f45524332304361707065643a20636170206578636565646564000000000000005f82015250565b5f612397601983611c17565b91506123a282612363565b602082019050919050565b5f6020820190508181035f8301526123c48161238b565b9050919050565b7f426c61636b6c697374656420616464726573732063616e6e6f74206275726e205f8201527f746f6b656e730000000000000000000000000000000000000000000000000000602082015250565b5f612425602683611c17565b9150612430826123cb565b604082019050919050565b5f6020820190508181035f83015261245281612419565b905091905056fea2646970667358221220c72ee64a82937bcd8e245cd1ad94604ba64edb886ef1cb42f07fd4614855935c64736f6c63430008170033","linkReferences":{}},"methodIdentifiers":{"allowance(address,address)":"dd62ed3e","approve(address,uint256)":"095ea7b3","balanceOf(address)":"70a08231","blacklistAddress(address)":"f3290d75","burn(uint256)":"42966c68","burnFrom(address,uint256)":"79cc6790","cap()":"355274ea","decimals()":"313ce567","getTaxFeeRecipient()":"03073dfc","getTransferTaxBps()":"743bfe70","isBlacklisted(address)":"fe575a87","mint(address,uint256)":"40c10f19","name()":"06fdde03","owner()":"8da5cb5b","renounceOwnership()":"715018a6","symbol()":"95d89b41","totalSupply()":"18160ddd","transfer(address,uint256)":"a9059cbb","transferFrom(address,address,uint256)":"23b872dd","transferOwnership(address)":"f2fde38b","unblacklistAddress(address)":"45e34949","updateTaxFeeRecipient(address)":"8baace25"},"id":10}