{"abi":[{"type":"constructor","inputs":[{"name":"name_","type":"string","internalType":"string"},{"name":"symbol_","type":"string","internalType":"string"},{"name":"decimals_","type":"uint8","internalType":"uint8"},{"name":"totalSupply_","type":"uint256","internalType":"uint256"},{"name":"serviceFeeReceiver_","type":"address","internalType":"address"},{"name":"serviceFee_","type":"uint256","internalType":"uint256"}],"stateMutability":"payable"},{"type":"function","name":"allowance","inputs":[{"name":"owner","type":"address","internalType":"address"},{"name":"spender","type":"address","internalType":"address"}],"outputs":[{"name":"","type":"uint256","internalType":"uint256"}],"stateMutability":"view"},{"type":"function","name":"approve","inputs":[{"name":"spender","type":"address","internalType":"address"},{"name":"value","type":"uint256","internalType":"uint256"}],"outputs":[{"name":"","type":"bool","internalType":"bool"}],"stateMutability":"nonpayable"},{"type":"function","name":"balanceOf","inputs":[{"name":"account","type":"address","internalType":"address"}],"outputs":[{"name":"","type":"uint256","internalType":"uint256"}],"stateMutability":"view"},{"type":"function","name":"decimals","inputs":[],"outputs":[{"name":"","type":"uint8","internalType":"uint8"}],"stateMutability":"view"},{"type":"function","name":"mint","inputs":[{"name":"to","type":"address","internalType":"address"},{"name":"amount","type":"uint256","internalType":"uint256"}],"outputs":[],"stateMutability":"nonpayable"},{"type":"function","name":"name","inputs":[],"outputs":[{"name":"","type":"string","internalType":"string"}],"stateMutability":"view"},{"type":"function","name":"owner","inputs":[],"outputs":[{"name":"","type":"address","internalType":"address"}],"stateMutability":"view"},{"type":"function","name":"pause","inputs":[],"outputs":[],"stateMutability":"nonpayable"},{"type":"function","name":"paused","inputs":[],"outputs":[{"name":"","type":"bool","internalType":"bool"}],"stateMutability":"view"},{"type":"function","name":"renounceOwnership","inputs":[],"outputs":[],"stateMutability":"nonpayable"},{"type":"function","name":"symbol","inputs":[],"outputs":[{"name":"","type":"string","internalType":"string"}],"stateMutability":"view"},{"type":"function","name":"totalSupply","inputs":[],"outputs":[{"name":"","type":"uint256","internalType":"uint256"}],"stateMutability":"view"},{"type":"function","name":"transfer","inputs":[{"name":"to","type":"address","internalType":"address"},{"name":"value","type":"uint256","internalType":"uint256"}],"outputs":[{"name":"","type":"bool","internalType":"bool"}],"stateMutability":"nonpayable"},{"type":"function","name":"transferFrom","inputs":[{"name":"from","type":"address","internalType":"address"},{"name":"to","type":"address","internalType":"address"},{"name":"value","type":"uint256","internalType":"uint256"}],"outputs":[{"name":"","type":"bool","internalType":"bool"}],"stateMutability":"nonpayable"},{"type":"function","name":"transferOwnership","inputs":[{"name":"newOwner","type":"address","internalType":"address"}],"outputs":[],"stateMutability":"nonpayable"},{"type":"function","name":"unpause","inputs":[],"outputs":[],"stateMutability":"nonpayable"},{"type":"event","name":"Approval","inputs":[{"name":"owner","type":"address","indexed":true,"internalType":"address"},{"name":"spender","type":"address","indexed":true,"internalType":"address"},{"name":"value","type":"uint256","indexed":false,"internalType":"uint256"}],"anonymous":false},{"type":"event","name":"OwnershipTransferred","inputs":[{"name":"previousOwner","type":"address","indexed":true,"internalType":"address"},{"name":"newOwner","type":"address","indexed":true,"internalType":"address"}],"anonymous":false},{"type":"event","name":"Paused","inputs":[{"name":"account","type":"address","indexed":false,"internalType":"address"}],"anonymous":false},{"type":"event","name":"Transfer","inputs":[{"name":"from","type":"address","indexed":true,"internalType":"address"},{"name":"to","type":"address","indexed":true,"internalType":"address"},{"name":"value","type":"uint256","indexed":false,"internalType":"uint256"}],"anonymous":false},{"type":"event","name":"Unpaused","inputs":[{"name":"account","type":"address","indexed":false,"internalType":"address"}],"anonymous":false},{"type":"error","name":"ERC20InsufficientAllowance","inputs":[{"name":"spender","type":"address","internalType":"address"},{"name":"allowance","type":"uint256","internalType":"uint256"},{"name":"needed","type":"uint256","internalType":"uint256"}]},{"type":"error","name":"ERC20InsufficientBalance","inputs":[{"name":"sender","type":"address","internalType":"address"},{"name":"balance","type":"uint256","internalType":"uint256"},{"name":"needed","type":"uint256","internalType":"uint256"}]},{"type":"error","name":"ERC20InvalidApprover","inputs":[{"name":"approver","type":"address","internalType":"address"}]},{"type":"error","name":"ERC20InvalidReceiver","inputs":[{"name":"receiver","type":"address","internalType":"address"}]},{"type":"error","name":"ERC20InvalidSender","inputs":[{"name":"sender","type":"address","internalType":"address"}]},{"type":"error","name":"ERC20InvalidSpender","inputs":[{"name":"spender","type":"address","internalType":"address"}]},{"type":"error","name":"EnforcedPause","inputs":[]},{"type":"error","name":"ExpectedPause","inputs":[]},{"type":"error","name":"OwnableInvalidOwner","inputs":[{"name":"owner","type":"address","internalType":"address"}]},{"type":"error","name":"OwnableUnauthorizedAccount","inputs":[{"name":"account","type":"address","internalType":"address"}]}],"bytecode":{"object":"0x6080604052604051620024e1380380620024e183398181016040528101906200002991906200093a565b335f73ffffffffffffffffffffffffffffffffffffffff168173ffffffffffffffffffffffffffffffffffffffff16036200009d575f6040517f1e4fbdf700000000000000000000000000000000000000000000000000000000815260040162000094919062000a21565b60405180910390fd5b620000ae81620002c460201b60201c565b505f8060146101000a81548160ff0219169083151502179055508560049081620000d9919062000c6a565b508460059081620000eb919062000c6a565b508360065f6101000a81548160ff021916908360ff160217905550803410156200014c576040517f08c379a0000000000000000000000000000000000000000000000000000000008152600401620001439062000dac565b60405180910390fd5b5f73ffffffffffffffffffffffffffffffffffffffff168273ffffffffffffffffffffffffffffffffffffffff1603620001bd576040517f08c379a0000000000000000000000000000000000000000000000000000000008152600401620001b49062000e1a565b60405180910390fd5b5f8273ffffffffffffffffffffffffffffffffffffffff1682604051620001e49062000e6b565b5f6040518083038185875af1925050503d805f811462000220576040519150601f19603f3d011682016040523d82523d5f602084013e62000225565b606091505b50509050806200026c576040517f08c379a0000000000000000000000000000000000000000000000000000000008152600401620002639062000ecf565b60405180910390fd5b620002b7620002806200038560201b60201c565b62000290620003ac60201b60201c565b600a6200029e91906200106c565b86620002ab9190620010bc565b620003c160201b60201c565b50505050505050620011a7565b5f805f9054906101000a900473ffffffffffffffffffffffffffffffffffffffff169050815f806101000a81548173ffffffffffffffffffffffffffffffffffffffff021916908373ffffffffffffffffffffffffffffffffffffffff1602179055508173ffffffffffffffffffffffffffffffffffffffff168173ffffffffffffffffffffffffffffffffffffffff167f8be0079c531659141344cd1fd0a4f28419497f9722a3daafe3b4186f6b6457e060405160405180910390a35050565b5f805f9054906101000a900473ffffffffffffffffffffffffffffffffffffffff16905090565b5f60065f9054906101000a900460ff16905090565b5f73ffffffffffffffffffffffffffffffffffffffff168273ffffffffffffffffffffffffffffffffffffffff160362000434575f6040517fec442f050000000000000000000000000000000000000000000000000000000081526004016200042b919062000a21565b60405180910390fd5b620004475f83836200044b60201b60201c565b5050565b6200045b6200068260201b60201c565b5f73ffffffffffffffffffffffffffffffffffffffff168373ffffffffffffffffffffffffffffffffffffffff1603620004af578060035f828254620004a2919062001106565b9250508190555062000582565b5f60015f8573ffffffffffffffffffffffffffffffffffffffff1673ffffffffffffffffffffffffffffffffffffffff1681526020019081526020015f20549050818110156200053c578381836040517fe450d38c000000000000000000000000000000000000000000000000000000008152600401620005339392919062001151565b60405180910390fd5b81810360015f8673ffffffffffffffffffffffffffffffffffffffff1673ffffffffffffffffffffffffffffffffffffffff1681526020019081526020015f2081905550505b5f73ffffffffffffffffffffffffffffffffffffffff168273ffffffffffffffffffffffffffffffffffffffff1603620005cb578060035f828254039250508190555062000616565b8060015f8473ffffffffffffffffffffffffffffffffffffffff1673ffffffffffffffffffffffffffffffffffffffff1681526020019081526020015f205f82825401925050819055505b8173ffffffffffffffffffffffffffffffffffffffff168373ffffffffffffffffffffffffffffffffffffffff167fddf252ad1be2c89b69c2b068fc378daa952ba7f163c4a11628f55a4df523b3ef836040516200067591906200118c565b60405180910390a3505050565b62000692620006cc60201b60201c565b15620006ca576040517fd93c066500000000000000000000000000000000000000000000000000000000815260040160405180910390fd5b565b5f8060149054906101000a900460ff16905090565b5f604051905090565b5f80fd5b5f80fd5b5f80fd5b5f80fd5b5f601f19601f8301169050919050565b7f4e487b71000000000000000000000000000000000000000000000000000000005f52604160045260245ffd5b6200074282620006fa565b810181811067ffffffffffffffff821117156200076457620007636200070a565b5b80604052505050565b5f62000778620006e1565b905062000786828262000737565b919050565b5f67ffffffffffffffff821115620007a857620007a76200070a565b5b620007b382620006fa565b9050602081019050919050565b5f5b83811015620007df578082015181840152602081019050620007c2565b5f8484015250505050565b5f62000800620007fa846200078b565b6200076d565b9050828152602081018484840111156200081f576200081e620006f6565b5b6200082c848285620007c0565b509392505050565b5f82601f8301126200084b576200084a620006f2565b5b81516200085d848260208601620007ea565b91505092915050565b5f60ff82169050919050565b6200087d8162000866565b811462000888575f80fd5b50565b5f815190506200089b8162000872565b92915050565b5f819050919050565b620008b581620008a1565b8114620008c0575f80fd5b50565b5f81519050620008d381620008aa565b92915050565b5f73ffffffffffffffffffffffffffffffffffffffff82169050919050565b5f6200090482620008d9565b9050919050565b6200091681620008f8565b811462000921575f80fd5b50565b5f8151905062000934816200090b565b92915050565b5f805f805f8060c08789031215620009575762000956620006ea565b5b5f87015167ffffffffffffffff811115620009775762000976620006ee565b5b6200098589828a0162000834565b965050602087015167ffffffffffffffff811115620009a957620009a8620006ee565b5b620009b789828a0162000834565b9550506040620009ca89828a016200088b565b9450506060620009dd89828a01620008c3565b9350506080620009f089828a0162000924565b92505060a062000a0389828a01620008c3565b9150509295509295509295565b62000a1b81620008f8565b82525050565b5f60208201905062000a365f83018462000a10565b92915050565b5f81519050919050565b7f4e487b71000000000000000000000000000000000000000000000000000000005f52602260045260245ffd5b5f600282049050600182168062000a8b57607f821691505b60208210810362000aa15762000aa062000a46565b5b50919050565b5f819050815f5260205f209050919050565b5f6020601f8301049050919050565b5f82821b905092915050565b5f6008830262000b057fffffffffffffffffffffffffffffffffffffffffffffffffffffffffffffffff8262000ac8565b62000b11868362000ac8565b95508019841693508086168417925050509392505050565b5f819050919050565b5f62000b5262000b4c62000b4684620008a1565b62000b29565b620008a1565b9050919050565b5f819050919050565b62000b6d8362000b32565b62000b8562000b7c8262000b59565b84845462000ad4565b825550505050565b5f90565b62000b9b62000b8d565b62000ba881848462000b62565b505050565b5b8181101562000bcf5762000bc35f8262000b91565b60018101905062000bae565b5050565b601f82111562000c1e5762000be88162000aa7565b62000bf38462000ab9565b8101602085101562000c03578190505b62000c1b62000c128562000ab9565b83018262000bad565b50505b505050565b5f82821c905092915050565b5f62000c405f198460080262000c23565b1980831691505092915050565b5f62000c5a838362000c2f565b9150826002028217905092915050565b62000c758262000a3c565b67ffffffffffffffff81111562000c915762000c906200070a565b5b62000c9d825462000a73565b62000caa82828562000bd3565b5f60209050601f83116001811462000ce0575f841562000ccb578287015190505b62000cd7858262000c4d565b86555062000d46565b601f19841662000cf08662000aa7565b5f5b8281101562000d195784890151825560018201915060208501945060208101905062000cf2565b8683101562000d39578489015162000d35601f89168262000c2f565b8355505b6001600288020188555050505b505050505050565b5f82825260208201905092915050565b7f496e73756666696369656e742066656520616d6f756e742073656e74000000005f82015250565b5f62000d94601c8362000d4e565b915062000da18262000d5e565b602082019050919050565b5f6020820190508181035f83015262000dc58162000d86565b9050919050565b7f496e76616c6964206665652072656365697665722061646472657373000000005f82015250565b5f62000e02601c8362000d4e565b915062000e0f8262000dcc565b602082019050919050565b5f6020820190508181035f83015262000e338162000df4565b9050919050565b5f81905092915050565b50565b5f62000e545f8362000e3a565b915062000e618262000e44565b5f82019050919050565b5f62000e778262000e47565b9150819050919050565b7f466565207472616e73666572206661696c6564000000000000000000000000005f82015250565b5f62000eb760138362000d4e565b915062000ec48262000e81565b602082019050919050565b5f6020820190508181035f83015262000ee88162000ea9565b9050919050565b7f4e487b71000000000000000000000000000000000000000000000000000000005f52601160045260245ffd5b5f8160011c9050919050565b5f808291508390505b600185111562000f795780860481111562000f515762000f5062000eef565b5b600185161562000f615780820291505b808102905062000f718562000f1c565b945062000f31565b94509492505050565b5f8262000f93576001905062001065565b8162000fa2575f905062001065565b816001811462000fbb576002811462000fc65762000ffc565b600191505062001065565b60ff84111562000fdb5762000fda62000eef565b5b8360020a91508482111562000ff55762000ff462000eef565b5b5062001065565b5060208310610133831016604e8410600b8410161715620010365782820a90508381111562001030576200102f62000eef565b5b62001065565b62001045848484600162000f28565b925090508184048111156200105f576200105e62000eef565b5b81810290505b9392505050565b5f6200107882620008a1565b9150620010858362000866565b9250620010b47fffffffffffffffffffffffffffffffffffffffffffffffffffffffffffffffff848462000f82565b905092915050565b5f620010c882620008a1565b9150620010d583620008a1565b9250828202620010e581620008a1565b91508282048414831517620010ff57620010fe62000eef565b5b5092915050565b5f6200111282620008a1565b91506200111f83620008a1565b92508282019050808211156200113a576200113962000eef565b5b92915050565b6200114b81620008a1565b82525050565b5f606082019050620011665f83018662000a10565b62001175602083018562001140565b62001184604083018462001140565b949350505050565b5f602082019050620011a15f83018462001140565b92915050565b61132c80620011b55f395ff3fe608060405234801561000f575f80fd5b50600436106100fe575f3560e01c806370a082311161009557806395d89b411161006457806395d89b4114610262578063a9059cbb14610280578063dd62ed3e146102b0578063f2fde38b146102e0576100fe565b806370a0823114610200578063715018a6146102305780638456cb591461023a5780638da5cb5b14610244576100fe565b8063313ce567116100d1578063313ce5671461019e5780633f4ba83a146101bc57806340c10f19146101c65780635c975abb146101e2576100fe565b806306fdde0314610102578063095ea7b31461012057806318160ddd1461015057806323b872dd1461016e575b5f80fd5b61010a6102fc565b6040516101179190610fa5565b60405180910390f35b61013a60048036038101906101359190611056565b61038c565b60405161014791906110ae565b60405180910390f35b6101586103ae565b60405161016591906110d6565b60405180910390f35b610188600480360381019061018391906110ef565b6103b7565b60405161019591906110ae565b60405180910390f35b6101a66103e5565b6040516101b3919061115a565b60405180910390f35b6101c46103fa565b005b6101e060048036038101906101db9190611056565b61040c565b005b6101ea610422565b6040516101f791906110ae565b60405180910390f35b61021a60048036038101906102159190611173565b610437565b60405161022791906110d6565b60405180910390f35b61023861047d565b005b610242610490565b005b61024c6104a2565b60405161025991906111ad565b60405180910390f35b61026a6104c9565b6040516102779190610fa5565b60405180910390f35b61029a60048036038101906102959190611056565b610559565b6040516102a791906110ae565b60405180910390f35b6102ca60048036038101906102c591906111c6565b61057b565b6040516102d791906110d6565b60405180910390f35b6102fa60048036038101906102f59190611173565b6105fd565b005b60606004805461030b90611231565b80601f016020809104026020016040519081016040528092919081815260200182805461033790611231565b80156103825780601f1061035957610100808354040283529160200191610382565b820191905f5260205f20905b81548152906001019060200180831161036557829003601f168201915b5050505050905090565b5f80610396610681565b90506103a3818585610688565b600191505092915050565b5f600354905090565b5f806103c1610681565b90506103ce85828561069a565b6103d985858561072d565b60019150509392505050565b5f60065f9054906101000a900460ff16905090565b61040261081d565b61040a6108a4565b565b61041461081d565b61041e8282610905565b5050565b5f8060149054906101000a900460ff16905090565b5f60015f8373ffffffffffffffffffffffffffffffffffffffff1673ffffffffffffffffffffffffffffffffffffffff1681526020019081526020015f20549050919050565b61048561081d565b61048e5f610984565b565b61049861081d565b6104a0610a45565b565b5f805f9054906101000a900473ffffffffffffffffffffffffffffffffffffffff16905090565b6060600580546104d890611231565b80601f016020809104026020016040519081016040528092919081815260200182805461050490611231565b801561054f5780601f106105265761010080835404028352916020019161054f565b820191905f5260205f20905b81548152906001019060200180831161053257829003601f168201915b5050505050905090565b5f80610563610681565b905061057081858561072d565b600191505092915050565b5f60025f8473ffffffffffffffffffffffffffffffffffffffff1673ffffffffffffffffffffffffffffffffffffffff1681526020019081526020015f205f8373ffffffffffffffffffffffffffffffffffffffff1673ffffffffffffffffffffffffffffffffffffffff1681526020019081526020015f2054905092915050565b61060561081d565b5f73ffffffffffffffffffffffffffffffffffffffff168173ffffffffffffffffffffffffffffffffffffffff1603610675575f6040517f1e4fbdf700000000000000000000000000000000000000000000000000000000815260040161066c91906111ad565b60405180910390fd5b61067e81610984565b50565b5f33905090565b6106958383836001610aa7565b505050565b5f6106a5848461057b565b90507fffffffffffffffffffffffffffffffffffffffffffffffffffffffffffffffff8110156107275781811015610718578281836040517ffb8f41b200000000000000000000000000000000000000000000000000000000815260040161070f93929190611261565b60405180910390fd5b61072684848484035f610aa7565b5b50505050565b5f73ffffffffffffffffffffffffffffffffffffffff168373ffffffffffffffffffffffffffffffffffffffff160361079d575f6040517f96c6fd1e00000000000000000000000000000000000000000000000000000000815260040161079491906111ad565b60405180910390fd5b5f73ffffffffffffffffffffffffffffffffffffffff168273ffffffffffffffffffffffffffffffffffffffff160361080d575f6040517fec442f0500000000000000000000000000000000000000000000000000000000815260040161080491906111ad565b60405180910390fd5b610818838383610c76565b505050565b610825610681565b73ffffffffffffffffffffffffffffffffffffffff166108436104a2565b73ffffffffffffffffffffffffffffffffffffffff16146108a257610866610681565b6040517f118cdaa700000000000000000000000000000000000000000000000000000000815260040161089991906111ad565b60405180910390fd5b565b6108ac610e9a565b5f8060146101000a81548160ff0219169083151502179055507f5db9ee0a495bf2e6ff9c91a7834c1ba4fdd244a5e8aa4e537bd38aeae4b073aa6108ee610681565b6040516108fb91906111ad565b60405180910390a1565b5f73ffffffffffffffffffffffffffffffffffffffff168273ffffffffffffffffffffffffffffffffffffffff1603610975575f6040517fec442f0500000000000000000000000000000000000000000000000000000000815260040161096c91906111ad565b60405180910390fd5b6109805f8383610c76565b5050565b5f805f9054906101000a900473ffffffffffffffffffffffffffffffffffffffff169050815f806101000a81548173ffffffffffffffffffffffffffffffffffffffff021916908373ffffffffffffffffffffffffffffffffffffffff1602179055508173ffffffffffffffffffffffffffffffffffffffff168173ffffffffffffffffffffffffffffffffffffffff167f8be0079c531659141344cd1fd0a4f28419497f9722a3daafe3b4186f6b6457e060405160405180910390a35050565b610a4d610eda565b60015f60146101000a81548160ff0219169083151502179055507f62e78cea01bee320cd4e420270b5ea74000d11b0c9f74754ebdbfc544b05a258610a90610681565b604051610a9d91906111ad565b60405180910390a1565b5f73ffffffffffffffffffffffffffffffffffffffff168473ffffffffffffffffffffffffffffffffffffffff1603610b17575f6040517fe602df05000000000000000000000000000000000000000000000000000000008152600401610b0e91906111ad565b60405180910390fd5b5f73ffffffffffffffffffffffffffffffffffffffff168373ffffffffffffffffffffffffffffffffffffffff1603610b87575f6040517f94280d62000000000000000000000000000000000000000000000000000000008152600401610b7e91906111ad565b60405180910390fd5b8160025f8673ffffffffffffffffffffffffffffffffffffffff1673ffffffffffffffffffffffffffffffffffffffff1681526020019081526020015f205f8573ffffffffffffffffffffffffffffffffffffffff1673ffffffffffffffffffffffffffffffffffffffff1681526020019081526020015f20819055508015610c70578273ffffffffffffffffffffffffffffffffffffffff168473ffffffffffffffffffffffffffffffffffffffff167f8c5be1e5ebec7d5bd14f71427d1e84f3dd0314c0f7b2291e5b200ac8c7c3b92584604051610c6791906110d6565b60405180910390a35b50505050565b610c7e610eda565b5f73ffffffffffffffffffffffffffffffffffffffff168373ffffffffffffffffffffffffffffffffffffffff1603610cce578060035f828254610cc291906112c3565b92505081905550610d9e565b5f60015f8573ffffffffffffffffffffffffffffffffffffffff1673ffffffffffffffffffffffffffffffffffffffff1681526020019081526020015f2054905081811015610d58578381836040517fe450d38c000000000000000000000000000000000000000000000000000000008152600401610d4f93929190611261565b60405180910390fd5b81810360015f8673ffffffffffffffffffffffffffffffffffffffff1673ffffffffffffffffffffffffffffffffffffffff1681526020019081526020015f2081905550505b5f73ffffffffffffffffffffffffffffffffffffffff168273ffffffffffffffffffffffffffffffffffffffff1603610de5578060035f8282540392505081905550610e30565b8060015f8473ffffffffffffffffffffffffffffffffffffffff1673ffffffffffffffffffffffffffffffffffffffff1681526020019081526020015f205f82825401925050819055505b8173ffffffffffffffffffffffffffffffffffffffff168373ffffffffffffffffffffffffffffffffffffffff167fddf252ad1be2c89b69c2b068fc378daa952ba7f163c4a11628f55a4df523b3ef83604051610e8d91906110d6565b60405180910390a3505050565b610ea2610422565b610ed8576040517f8dfc202b00000000000000000000000000000000000000000000000000000000815260040160405180910390fd5b565b610ee2610422565b15610f19576040517fd93c066500000000000000000000000000000000000000000000000000000000815260040160405180910390fd5b565b5f81519050919050565b5f82825260208201905092915050565b5f5b83811015610f52578082015181840152602081019050610f37565b5f8484015250505050565b5f601f19601f8301169050919050565b5f610f7782610f1b565b610f818185610f25565b9350610f91818560208601610f35565b610f9a81610f5d565b840191505092915050565b5f6020820190508181035f830152610fbd8184610f6d565b905092915050565b5f80fd5b5f73ffffffffffffffffffffffffffffffffffffffff82169050919050565b5f610ff282610fc9565b9050919050565b61100281610fe8565b811461100c575f80fd5b50565b5f8135905061101d81610ff9565b92915050565b5f819050919050565b61103581611023565b811461103f575f80fd5b50565b5f813590506110508161102c565b92915050565b5f806040838503121561106c5761106b610fc5565b5b5f6110798582860161100f565b925050602061108a85828601611042565b9150509250929050565b5f8115159050919050565b6110a881611094565b82525050565b5f6020820190506110c15f83018461109f565b92915050565b6110d081611023565b82525050565b5f6020820190506110e95f8301846110c7565b92915050565b5f805f6060848603121561110657611105610fc5565b5b5f6111138682870161100f565b93505060206111248682870161100f565b925050604061113586828701611042565b9150509250925092565b5f60ff82169050919050565b6111548161113f565b82525050565b5f60208201905061116d5f83018461114b565b92915050565b5f6020828403121561118857611187610fc5565b5b5f6111958482850161100f565b91505092915050565b6111a781610fe8565b82525050565b5f6020820190506111c05f83018461119e565b92915050565b5f80604083850312156111dc576111db610fc5565b5b5f6111e98582860161100f565b92505060206111fa8582860161100f565b9150509250929050565b7f4e487b71000000000000000000000000000000000000000000000000000000005f52602260045260245ffd5b5f600282049050600182168061124857607f821691505b60208210810361125b5761125a611204565b5b50919050565b5f6060820190506112745f83018661119e565b61128160208301856110c7565b61128e60408301846110c7565b949350505050565b7f4e487b71000000000000000000000000000000000000000000000000000000005f52601160045260245ffd5b5f6112cd82611023565b91506112d883611023565b92508282019050808211156112f0576112ef611296565b5b9291505056fea2646970667358221220f1f092451f06d51be9cc17770d7042cc9c3f418baeb945ab842d3a1cb7e1acaa64736f6c63430008170033","linkReferences":{}},"methodIdentifiers":{"allowance(address,address)":"dd62ed3e","approve(address,uint256)":"095ea7b3","balanceOf(address)":"70a08231","decimals()":"313ce567","mint(address,uint256)":"40c10f19","name()":"06fdde03","owner()":"8da5cb5b","pause()":"8456cb59","paused()":"5c975abb","renounceOwnership()":"715018a6","symbol()":"95d89b41","totalSupply()":"18160ddd","transfer(address,uint256)":"a9059cbb","transferFrom(address,address,uint256)":"23b872dd","transferOwnership(address)":"f2fde38b","unpause()":"3f4ba83a"},"id":29}