{"abi":[{"type":"constructor","inputs":[{"name":"name_","type":"string","internalType":"string"},{"name":"symbol_","type":"string","internalType":"string"},{"name":"decimals_","type":"uint8","internalType":"uint8"},{"name":"totalSupply_","type":"uint256","internalType":"uint256"},{"name":"serviceFeeReceiver_","type":"address","internalType":"address"},{"name":"serviceFee_","type":"uint256","internalType":"uint256"},{"name":"transferTaxBps_","type":"uint256","internalType":"uint256"},{"name":"taxFeeRecipient_","type":"address","internalType":"address"}],"stateMutability":"payable"},{"type":"function","name":"allowance","inputs":[{"name":"owner","type":"address","internalType":"address"},{"name":"spender","type":"address","internalType":"address"}],"outputs":[{"name":"","type":"uint256","internalType":"uint256"}],"stateMutability":"view"},{"type":"function","name":"approve","inputs":[{"name":"spender","type":"address","internalType":"address"},{"name":"value","type":"uint256","internalType":"uint256"}],"outputs":[{"name":"","type":"bool","internalType":"bool"}],"stateMutability":"nonpayable"},{"type":"function","name":"balanceOf","inputs":[{"name":"account","type":"address","internalType":"address"}],"outputs":[{"name":"","type":"uint256","internalType":"uint256"}],"stateMutability":"view"},{"type":"function","name":"blacklist","inputs":[{"name":"account","type":"address","internalType":"address"}],"outputs":[],"stateMutability":"nonpayable"},{"type":"function","name":"burn","inputs":[{"name":"value","type":"uint256","internalType":"uint256"}],"outputs":[],"stateMutability":"nonpayable"},{"type":"function","name":"burnFrom","inputs":[{"name":"account","type":"address","internalType":"address"},{"name":"value","type":"uint256","internalType":"uint256"}],"outputs":[],"stateMutability":"nonpayable"},{"type":"function","name":"decimals","inputs":[],"outputs":[{"name":"","type":"uint8","internalType":"uint8"}],"stateMutability":"view"},{"type":"function","name":"isBlacklisted","inputs":[{"name":"account","type":"address","internalType":"address"}],"outputs":[{"name":"","type":"bool","internalType":"bool"}],"stateMutability":"view"},{"type":"function","name":"name","inputs":[],"outputs":[{"name":"","type":"string","internalType":"string"}],"stateMutability":"view"},{"type":"function","name":"owner","inputs":[],"outputs":[{"name":"","type":"address","internalType":"address"}],"stateMutability":"view"},{"type":"function","name":"renounceOwnership","inputs":[],"outputs":[],"stateMutability":"nonpayable"},{"type":"function","name":"symbol","inputs":[],"outputs":[{"name":"","type":"string","internalType":"string"}],"stateMutability":"view"},{"type":"function","name":"totalSupply","inputs":[],"outputs":[{"name":"","type":"uint256","internalType":"uint256"}],"stateMutability":"view"},{"type":"function","name":"transfer","inputs":[{"name":"to","type":"address","internalType":"address"},{"name":"value","type":"uint256","internalType":"uint256"}],"outputs":[{"name":"","type":"bool","internalType":"bool"}],"stateMutability":"nonpayable"},{"type":"function","name":"transferFrom","inputs":[{"name":"from","type":"address","internalType":"address"},{"name":"to","type":"address","internalType":"address"},{"name":"value","type":"uint256","internalType":"uint256"}],"outputs":[{"name":"","type":"bool","internalType":"bool"}],"stateMutability":"nonpayable"},{"type":"function","name":"transferOwnership","inputs":[{"name":"newOwner","type":"address","internalType":"address"}],"outputs":[],"stateMutability":"nonpayable"},{"type":"function","name":"unblacklist","inputs":[{"name":"account","type":"address","internalType":"address"}],"outputs":[],"stateMutability":"nonpayable"},{"type":"event","name":"Approval","inputs":[{"name":"owner","type":"address","indexed":true,"internalType":"address"},{"name":"spender","type":"address","indexed":true,"internalType":"address"},{"name":"value","type":"uint256","indexed":false,"internalType":"uint256"}],"anonymous":false},{"type":"event","name":"Blacklisted","inputs":[{"name":"account","type":"address","indexed":true,"internalType":"address"}],"anonymous":false},{"type":"event","name":"OwnershipTransferred","inputs":[{"name":"previousOwner","type":"address","indexed":true,"internalType":"address"},{"name":"newOwner","type":"address","indexed":true,"internalType":"address"}],"anonymous":false},{"type":"event","name":"TaxFeeRecipientUpdated","inputs":[{"name":"newTaxFeeRecipient","type":"address","indexed":false,"internalType":"address"}],"anonymous":false},{"type":"event","name":"Transfer","inputs":[{"name":"from","type":"address","indexed":true,"internalType":"address"},{"name":"to","type":"address","indexed":true,"internalType":"address"},{"name":"value","type":"uint256","indexed":false,"internalType":"uint256"}],"anonymous":false},{"type":"event","name":"Unblacklisted","inputs":[{"name":"account","type":"address","indexed":true,"internalType":"address"}],"anonymous":false},{"type":"error","name":"ERC20InsufficientAllowance","inputs":[{"name":"spender","type":"address","internalType":"address"},{"name":"allowance","type":"uint256","internalType":"uint256"},{"name":"needed","type":"uint256","internalType":"uint256"}]},{"type":"error","name":"ERC20InsufficientBalance","inputs":[{"name":"sender","type":"address","internalType":"address"},{"name":"balance","type":"uint256","internalType":"uint256"},{"name":"needed","type":"uint256","internalType":"uint256"}]},{"type":"error","name":"ERC20InvalidApprover","inputs":[{"name":"approver","type":"address","internalType":"address"}]},{"type":"error","name":"ERC20InvalidReceiver","inputs":[{"name":"receiver","type":"address","internalType":"address"}]},{"type":"error","name":"ERC20InvalidSender","inputs":[{"name":"sender","type":"address","internalType":"address"}]},{"type":"error","name":"ERC20InvalidSpender","inputs":[{"name":"spender","type":"address","internalType":"address"}]},{"type":"error","name":"OwnableInvalidOwner","inputs":[{"name":"owner","type":"address","internalType":"address"}]},{"type":"error","name":"OwnableUnauthorizedAccount","inputs":[{"name":"account","type":"address","internalType":"address"}]}],"bytecode":{"object":"0x6080604052604051612e3a380380612e3a8339818101604052810190610025919061087d565b335f73ffffffffffffffffffffffffffffffffffffffff168173ffffffffffffffffffffffffffffffffffffffff1603610096575f6040517f1e4fbdf700000000000000000000000000000000000000000000000000000000815260040161008d9190610975565b60405180910390fd5b6100a5816102cf60201b60201c565b5087600590816100b59190610b95565b5086600690816100c59190610b95565b508560075f6101000a81548160ff021916908360ff160217905550816008819055508060095f6101000a81548173ffffffffffffffffffffffffffffffffffffffff021916908373ffffffffffffffffffffffffffffffffffffffff1602179055508234101561016a576040517f08c379a000000000000000000000000000000000000000000000000000000000815260040161016190610cbe565b60405180910390fd5b5f73ffffffffffffffffffffffffffffffffffffffff168473ffffffffffffffffffffffffffffffffffffffff16036101d8576040517f08c379a00000000000000000000000000000000000000000000000000000000081526004016101cf90610d26565b60405180910390fd5b5f8473ffffffffffffffffffffffffffffffffffffffff16846040516101fd90610d71565b5f6040518083038185875af1925050503d805f8114610237576040519150601f19603f3d011682016040523d82523d5f602084013e61023c565b606091505b5050905080610280576040517f08c379a000000000000000000000000000000000000000000000000000000000815260040161027790610dcf565b60405180910390fd5b6102c161029161039060201b60201c565b61029f6103b760201b60201c565b600a6102ab9190610f49565b886102b69190610f93565b6103cc60201b60201c565b505050505050505050611064565b5f5f5f9054906101000a900473ffffffffffffffffffffffffffffffffffffffff169050815f5f6101000a81548173ffffffffffffffffffffffffffffffffffffffff021916908373ffffffffffffffffffffffffffffffffffffffff1602179055508173ffffffffffffffffffffffffffffffffffffffff168173ffffffffffffffffffffffffffffffffffffffff167f8be0079c531659141344cd1fd0a4f28419497f9722a3daafe3b4186f6b6457e060405160405180910390a35050565b5f5f5f9054906101000a900473ffffffffffffffffffffffffffffffffffffffff16905090565b5f60075f9054906101000a900460ff16905090565b5f73ffffffffffffffffffffffffffffffffffffffff168273ffffffffffffffffffffffffffffffffffffffff160361043c575f6040517fec442f050000000000000000000000000000000000000000000000000000000081526004016104339190610975565b60405180910390fd5b61044d5f838361045160201b60201c565b5050565b5f73ffffffffffffffffffffffffffffffffffffffff168373ffffffffffffffffffffffffffffffffffffffff16036104a1578060045f8282546104959190610fd4565b92505081905550610571565b5f60015f8573ffffffffffffffffffffffffffffffffffffffff1673ffffffffffffffffffffffffffffffffffffffff1681526020019081526020015f205490508181101561052b578381836040517fe450d38c00000000000000000000000000000000000000000000000000000000815260040161052293929190611016565b60405180910390fd5b81810360015f8673ffffffffffffffffffffffffffffffffffffffff1673ffffffffffffffffffffffffffffffffffffffff1681526020019081526020015f2081905550505b5f73ffffffffffffffffffffffffffffffffffffffff168273ffffffffffffffffffffffffffffffffffffffff16036105b8578060045f8282540392505081905550610603565b8060015f8473ffffffffffffffffffffffffffffffffffffffff1673ffffffffffffffffffffffffffffffffffffffff1681526020019081526020015f205f82825401925050819055505b8173ffffffffffffffffffffffffffffffffffffffff168373ffffffffffffffffffffffffffffffffffffffff167fddf252ad1be2c89b69c2b068fc378daa952ba7f163c4a11628f55a4df523b3ef83604051610660919061104b565b60405180910390a3505050565b5f604051905090565b5f5ffd5b5f5ffd5b5f5ffd5b5f5ffd5b5f601f19601f8301169050919050565b7f4e487b71000000000000000000000000000000000000000000000000000000005f52604160045260245ffd5b6106cc82610686565b810181811067ffffffffffffffff821117156106eb576106ea610696565b5b80604052505050565b5f6106fd61066d565b905061070982826106c3565b919050565b5f67ffffffffffffffff82111561072857610727610696565b5b61073182610686565b9050602081019050919050565b8281835e5f83830152505050565b5f61075e6107598461070e565b6106f4565b90508281526020810184848401111561077a57610779610682565b5b61078584828561073e565b509392505050565b5f82601f8301126107a1576107a061067e565b5b81516107b184826020860161074c565b91505092915050565b5f60ff82169050919050565b6107cf816107ba565b81146107d9575f5ffd5b50565b5f815190506107ea816107c6565b92915050565b5f819050919050565b610802816107f0565b811461080c575f5ffd5b50565b5f8151905061081d816107f9565b92915050565b5f73ffffffffffffffffffffffffffffffffffffffff82169050919050565b5f61084c82610823565b9050919050565b61085c81610842565b8114610866575f5ffd5b50565b5f8151905061087781610853565b92915050565b5f5f5f5f5f5f5f5f610100898b03121561089a57610899610676565b5b5f89015167ffffffffffffffff8111156108b7576108b661067a565b5b6108c38b828c0161078d565b985050602089015167ffffffffffffffff8111156108e4576108e361067a565b5b6108f08b828c0161078d565b97505060406109018b828c016107dc565b96505060606109128b828c0161080f565b95505060806109238b828c01610869565b94505060a06109348b828c0161080f565b93505060c06109458b828c0161080f565b92505060e06109568b828c01610869565b9150509295985092959890939650565b61096f81610842565b82525050565b5f6020820190506109885f830184610966565b92915050565b5f81519050919050565b7f4e487b71000000000000000000000000000000000000000000000000000000005f52602260045260245ffd5b5f60028204905060018216806109dc57607f821691505b6020821081036109ef576109ee610998565b5b50919050565b5f819050815f5260205f209050919050565b5f6020601f8301049050919050565b5f82821b905092915050565b5f60088302610a517fffffffffffffffffffffffffffffffffffffffffffffffffffffffffffffffff82610a16565b610a5b8683610a16565b95508019841693508086168417925050509392505050565b5f819050919050565b5f610a96610a91610a8c846107f0565b610a73565b6107f0565b9050919050565b5f819050919050565b610aaf83610a7c565b610ac3610abb82610a9d565b848454610a22565b825550505050565b5f5f905090565b610ada610acb565b610ae5818484610aa6565b505050565b5b81811015610b0857610afd5f82610ad2565b600181019050610aeb565b5050565b601f821115610b4d57610b1e816109f5565b610b2784610a07565b81016020851015610b36578190505b610b4a610b4285610a07565b830182610aea565b50505b505050565b5f82821c905092915050565b5f610b6d5f1984600802610b52565b1980831691505092915050565b5f610b858383610b5e565b9150826002028217905092915050565b610b9e8261098e565b67ffffffffffffffff811115610bb757610bb6610696565b5b610bc182546109c5565b610bcc828285610b0c565b5f60209050601f831160018114610bfd575f8415610beb578287015190505b610bf58582610b7a565b865550610c5c565b601f198416610c0b866109f5565b5f5b82811015610c3257848901518255600182019150602085019450602081019050610c0d565b86831015610c4f5784890151610c4b601f891682610b5e565b8355505b6001600288020188555050505b505050505050565b5f82825260208201905092915050565b7f496e73756666696369656e742066656520616d6f756e742073656e74000000005f82015250565b5f610ca8601c83610c64565b9150610cb382610c74565b602082019050919050565b5f6020820190508181035f830152610cd581610c9c565b9050919050565b7f496e76616c6964206665652072656365697665722061646472657373000000005f82015250565b5f610d10601c83610c64565b9150610d1b82610cdc565b602082019050919050565b5f6020820190508181035f830152610d3d81610d04565b9050919050565b5f81905092915050565b50565b5f610d5c5f83610d44565b9150610d6782610d4e565b5f82019050919050565b5f610d7b82610d51565b9150819050919050565b7f466565207472616e73666572206661696c6564000000000000000000000000005f82015250565b5f610db9601383610c64565b9150610dc482610d85565b602082019050919050565b5f6020820190508181035f830152610de681610dad565b9050919050565b7f4e487b71000000000000000000000000000000000000000000000000000000005f52601160045260245ffd5b5f8160011c9050919050565b5f5f8291508390505b6001851115610e6f57808604811115610e4b57610e4a610ded565b5b6001851615610e5a5780820291505b8081029050610e6885610e1a565b9450610e2f565b94509492505050565b5f82610e875760019050610f42565b81610e94575f9050610f42565b8160018114610eaa5760028114610eb457610ee3565b6001915050610f42565b60ff841115610ec657610ec5610ded565b5b8360020a915084821115610edd57610edc610ded565b5b50610f42565b5060208310610133831016604e8410600b8410161715610f185782820a905083811115610f1357610f12610ded565b5b610f42565b610f258484846001610e26565b92509050818404811115610f3c57610f3b610ded565b5b81810290505b9392505050565b5f610f53826107f0565b9150610f5e836107ba565b9250610f8b7fffffffffffffffffffffffffffffffffffffffffffffffffffffffffffffffff8484610e78565b905092915050565b5f610f9d826107f0565b9150610fa8836107f0565b9250828202610fb6816107f0565b91508282048414831517610fcd57610fcc610ded565b5b5092915050565b5f610fde826107f0565b9150610fe9836107f0565b925082820190508082111561100157611000610ded565b5b92915050565b611010816107f0565b82525050565b5f6060820190506110295f830186610966565b6110366020830185611007565b6110436040830184611007565b949350505050565b5f60208201905061105e5f830184611007565b92915050565b611dc9806110715f395ff3fe608060405234801561000f575f5ffd5b5060043610610109575f3560e01c806375e3661e116100a0578063a9059cbb1161006f578063a9059cbb14610291578063dd62ed3e146102c1578063f2fde38b146102f1578063f9f92be41461030d578063fe575a871461032957610109565b806375e3661e1461021d57806379cc6790146102395780638da5cb5b1461025557806395d89b411461027357610109565b8063313ce567116100dc578063313ce567146101a957806342966c68146101c757806370a08231146101e3578063715018a61461021357610109565b806306fdde031461010d578063095ea7b31461012b57806318160ddd1461015b57806323b872dd14610179575b5f5ffd5b610115610359565b60405161012291906118de565b60405180910390f35b6101456004803603810190610140919061198f565b6103e9565b60405161015291906119e7565b60405180910390f35b610163610523565b6040516101709190611a0f565b60405180910390f35b610193600480360381019061018e9190611a28565b61052c565b6040516101a091906119e7565b60405180910390f35b6101b1610672565b6040516101be9190611a93565b60405180910390f35b6101e160048036038101906101dc9190611aac565b610687565b005b6101fd60048036038101906101f89190611ad7565b610727565b60405161020a9190611a0f565b60405180910390f35b61021b61076d565b005b61023760048036038101906102329190611ad7565b610780565b005b610253600480360381019061024e919061198f565b610822565b005b61025d6108ce565b60405161026a9190611b11565b60405180910390f35b61027b6108f5565b60405161028891906118de565b60405180910390f35b6102ab60048036038101906102a6919061198f565b610985565b6040516102b891906119e7565b60405180910390f35b6102db60048036038101906102d69190611b2a565b610e0d565b6040516102e89190611a0f565b60405180910390f35b61030b60048036038101906103069190611ad7565b610e8f565b005b61032760048036038101906103229190611ad7565b610f13565b005b610343600480360381019061033e9190611ad7565b610fb6565b60405161035091906119e7565b60405180910390f35b60606005805461036890611b95565b80601f016020809104026020016040519081016040528092919081815260200182805461039490611b95565b80156103df5780601f106103b6576101008083540402835291602001916103df565b820191905f5260205f20905b8154815290600101906020018083116103c257829003601f168201915b5050505050905090565b5f3360035f8273ffffffffffffffffffffffffffffffffffffffff1673ffffffffffffffffffffffffffffffffffffffff1681526020019081526020015f205f9054906101000a900460ff1615610475576040517f08c379a000000000000000000000000000000000000000000000000000000000815260040161046c90611c0f565b60405180910390fd5b8360035f8273ffffffffffffffffffffffffffffffffffffffff1673ffffffffffffffffffffffffffffffffffffffff1681526020019081526020015f205f9054906101000a900460ff1615610500576040517f08c379a00000000000000000000000000000000000000000000000000000000081526004016104f790611c0f565b60405180910390fd5b5f610509611008565b905061051681878761100f565b6001935050505092915050565b5f600454905090565b5f8360035f8273ffffffffffffffffffffffffffffffffffffffff1673ffffffffffffffffffffffffffffffffffffffff1681526020019081526020015f205f9054906101000a900460ff16156105b8576040517f08c379a00000000000000000000000000000000000000000000000000000000081526004016105af90611c0f565b60405180910390fd5b8360035f8273ffffffffffffffffffffffffffffffffffffffff1673ffffffffffffffffffffffffffffffffffffffff1681526020019081526020015f205f9054906101000a900460ff1615610643576040517f08c379a000000000000000000000000000000000000000000000000000000000815260040161063a90611c0f565b60405180910390fd5b5f61064c611008565b9050610659878287611139565b6106648787876111cc565b600193505050509392505050565b5f60075f9054906101000a900460ff16905090565b3360035f8273ffffffffffffffffffffffffffffffffffffffff1673ffffffffffffffffffffffffffffffffffffffff1681526020019081526020015f205f9054906101000a900460ff1615610712576040517f08c379a000000000000000000000000000000000000000000000000000000000815260040161070990611c0f565b60405180910390fd5b61072361071d611008565b836112bc565b5050565b5f60015f8373ffffffffffffffffffffffffffffffffffffffff1673ffffffffffffffffffffffffffffffffffffffff1681526020019081526020015f20549050919050565b61077561133b565b61077e5f6113c2565b565b61078861133b565b5f60035f8373ffffffffffffffffffffffffffffffffffffffff1673ffffffffffffffffffffffffffffffffffffffff1681526020019081526020015f205f6101000a81548160ff0219169083151502179055508073ffffffffffffffffffffffffffffffffffffffff167f7534c63860313c46c473e4e98328f37017e9674e2162faf1a3ad7a96236c3b7b60405160405180910390a250565b8160035f8273ffffffffffffffffffffffffffffffffffffffff1673ffffffffffffffffffffffffffffffffffffffff1681526020019081526020015f205f9054906101000a900460ff16156108ad576040517f08c379a00000000000000000000000000000000000000000000000000000000081526004016108a490611c0f565b60405180910390fd5b6108bf836108b9611008565b84611139565b6108c983836112bc565b505050565b5f5f5f9054906101000a900473ffffffffffffffffffffffffffffffffffffffff16905090565b60606006805461090490611b95565b80601f016020809104026020016040519081016040528092919081815260200182805461093090611b95565b801561097b5780601f106109525761010080835404028352916020019161097b565b820191905f5260205f20905b81548152906001019060200180831161095e57829003601f168201915b5050505050905090565b5f3360035f8273ffffffffffffffffffffffffffffffffffffffff1673ffffffffffffffffffffffffffffffffffffffff1681526020019081526020015f205f9054906101000a900460ff1615610a11576040517f08c379a0000000000000000000000000000000000000000000000000000000008152600401610a0890611c0f565b60405180910390fd5b8360035f8273ffffffffffffffffffffffffffffffffffffffff1673ffffffffffffffffffffffffffffffffffffffff1681526020019081526020015f205f9054906101000a900460ff1615610a9c576040517f08c379a0000000000000000000000000000000000000000000000000000000008152600401610a9390611c0f565b60405180910390fd5b5f610aa5611008565b90505f61271060085487610ab99190611c5a565b610ac39190611cc8565b90505f8187610ad29190611cf8565b90508660015f8573ffffffffffffffffffffffffffffffffffffffff1673ffffffffffffffffffffffffffffffffffffffff1681526020019081526020015f20541015610b97578260015f8573ffffffffffffffffffffffffffffffffffffffff1673ffffffffffffffffffffffffffffffffffffffff1681526020019081526020015f2054886040517fe450d38c000000000000000000000000000000000000000000000000000000008152600401610b8e93929190611d2b565b60405180910390fd5b8660015f8573ffffffffffffffffffffffffffffffffffffffff1673ffffffffffffffffffffffffffffffffffffffff1681526020019081526020015f205f828254610be39190611cf8565b925050819055508060015f8a73ffffffffffffffffffffffffffffffffffffffff1673ffffffffffffffffffffffffffffffffffffffff1681526020019081526020015f205f828254610c369190611d60565b925050819055505f73ffffffffffffffffffffffffffffffffffffffff1660095f9054906101000a900473ffffffffffffffffffffffffffffffffffffffff1673ffffffffffffffffffffffffffffffffffffffff1614158015610c9957505f82115b15610d99578160015f60095f9054906101000a900473ffffffffffffffffffffffffffffffffffffffff1673ffffffffffffffffffffffffffffffffffffffff1673ffffffffffffffffffffffffffffffffffffffff1681526020019081526020015f205f828254610d0b9190611d60565b9250508190555060095f9054906101000a900473ffffffffffffffffffffffffffffffffffffffff1673ffffffffffffffffffffffffffffffffffffffff168373ffffffffffffffffffffffffffffffffffffffff167fddf252ad1be2c89b69c2b068fc378daa952ba7f163c4a11628f55a4df523b3ef84604051610d909190611a0f565b60405180910390a35b8773ffffffffffffffffffffffffffffffffffffffff168373ffffffffffffffffffffffffffffffffffffffff167fddf252ad1be2c89b69c2b068fc378daa952ba7f163c4a11628f55a4df523b3ef83604051610df69190611a0f565b60405180910390a360019550505050505092915050565b5f60025f8473ffffffffffffffffffffffffffffffffffffffff1673ffffffffffffffffffffffffffffffffffffffff1681526020019081526020015f205f8373ffffffffffffffffffffffffffffffffffffffff1673ffffffffffffffffffffffffffffffffffffffff1681526020019081526020015f2054905092915050565b610e9761133b565b5f73ffffffffffffffffffffffffffffffffffffffff168173ffffffffffffffffffffffffffffffffffffffff1603610f07575f6040517f1e4fbdf7000000000000000000000000000000000000000000000000000000008152600401610efe9190611b11565b60405180910390fd5b610f10816113c2565b50565b610f1b61133b565b600160035f8373ffffffffffffffffffffffffffffffffffffffff1673ffffffffffffffffffffffffffffffffffffffff1681526020019081526020015f205f6101000a81548160ff0219169083151502179055508073ffffffffffffffffffffffffffffffffffffffff167fffa4e6181777692565cf28528fc88fd1516ea86b56da075235fa575af6a4b85560405160405180910390a250565b5f60035f8373ffffffffffffffffffffffffffffffffffffffff1673ffffffffffffffffffffffffffffffffffffffff1681526020019081526020015f205f9054906101000a900460ff169050919050565b5f33905090565b8260035f8273ffffffffffffffffffffffffffffffffffffffff1673ffffffffffffffffffffffffffffffffffffffff1681526020019081526020015f205f9054906101000a900460ff161561109a576040517f08c379a000000000000000000000000000000000000000000000000000000000815260040161109190611c0f565b60405180910390fd5b8260035f8273ffffffffffffffffffffffffffffffffffffffff1673ffffffffffffffffffffffffffffffffffffffff1681526020019081526020015f205f9054906101000a900460ff1615611125576040517f08c379a000000000000000000000000000000000000000000000000000000000815260040161111c90611c0f565b60405180910390fd5b6111328585856001611483565b5050505050565b5f6111448484610e0d565b90507fffffffffffffffffffffffffffffffffffffffffffffffffffffffffffffffff8110156111c657818110156111b7578281836040517ffb8f41b20000000000000000000000000000000000000000000000000000000081526004016111ae93929190611d2b565b60405180910390fd5b6111c584848484035f611483565b5b50505050565b5f73ffffffffffffffffffffffffffffffffffffffff168373ffffffffffffffffffffffffffffffffffffffff160361123c575f6040517f96c6fd1e0000000000000000000000000000000000000000000000000000000081526004016112339190611b11565b60405180910390fd5b5f73ffffffffffffffffffffffffffffffffffffffff168273ffffffffffffffffffffffffffffffffffffffff16036112ac575f6040517fec442f050000000000000000000000000000000000000000000000000000000081526004016112a39190611b11565b60405180910390fd5b6112b7838383611652565b505050565b5f73ffffffffffffffffffffffffffffffffffffffff168273ffffffffffffffffffffffffffffffffffffffff160361132c575f6040517f96c6fd1e0000000000000000000000000000000000000000000000000000000081526004016113239190611b11565b60405180910390fd5b611337825f83611652565b5050565b611343611008565b73ffffffffffffffffffffffffffffffffffffffff166113616108ce565b73ffffffffffffffffffffffffffffffffffffffff16146113c057611384611008565b6040517f118cdaa70000000000000000000000000000000000000000000000000000000081526004016113b79190611b11565b60405180910390fd5b565b5f5f5f9054906101000a900473ffffffffffffffffffffffffffffffffffffffff169050815f5f6101000a81548173ffffffffffffffffffffffffffffffffffffffff021916908373ffffffffffffffffffffffffffffffffffffffff1602179055508173ffffffffffffffffffffffffffffffffffffffff168173ffffffffffffffffffffffffffffffffffffffff167f8be0079c531659141344cd1fd0a4f28419497f9722a3daafe3b4186f6b6457e060405160405180910390a35050565b5f73ffffffffffffffffffffffffffffffffffffffff168473ffffffffffffffffffffffffffffffffffffffff16036114f3575f6040517fe602df050000000000000000000000000000000000000000000000000000000081526004016114ea9190611b11565b60405180910390fd5b5f73ffffffffffffffffffffffffffffffffffffffff168373ffffffffffffffffffffffffffffffffffffffff1603611563575f6040517f94280d6200000000000000000000000000000000000000000000000000000000815260040161155a9190611b11565b60405180910390fd5b8160025f8673ffffffffffffffffffffffffffffffffffffffff1673ffffffffffffffffffffffffffffffffffffffff1681526020019081526020015f205f8573ffffffffffffffffffffffffffffffffffffffff1673ffffffffffffffffffffffffffffffffffffffff1681526020019081526020015f2081905550801561164c578273ffffffffffffffffffffffffffffffffffffffff168473ffffffffffffffffffffffffffffffffffffffff167f8c5be1e5ebec7d5bd14f71427d1e84f3dd0314c0f7b2291e5b200ac8c7c3b925846040516116439190611a0f565b60405180910390a35b50505050565b5f73ffffffffffffffffffffffffffffffffffffffff168373ffffffffffffffffffffffffffffffffffffffff16036116a2578060045f8282546116969190611d60565b92505081905550611772565b5f60015f8573ffffffffffffffffffffffffffffffffffffffff1673ffffffffffffffffffffffffffffffffffffffff1681526020019081526020015f205490508181101561172c578381836040517fe450d38c00000000000000000000000000000000000000000000000000000000815260040161172393929190611d2b565b60405180910390fd5b81810360015f8673ffffffffffffffffffffffffffffffffffffffff1673ffffffffffffffffffffffffffffffffffffffff1681526020019081526020015f2081905550505b5f73ffffffffffffffffffffffffffffffffffffffff168273ffffffffffffffffffffffffffffffffffffffff16036117b9578060045f8282540392505081905550611804565b8060015f8473ffffffffffffffffffffffffffffffffffffffff1673ffffffffffffffffffffffffffffffffffffffff1681526020019081526020015f205f82825401925050819055505b8173ffffffffffffffffffffffffffffffffffffffff168373ffffffffffffffffffffffffffffffffffffffff167fddf252ad1be2c89b69c2b068fc378daa952ba7f163c4a11628f55a4df523b3ef836040516118619190611a0f565b60405180910390a3505050565b5f81519050919050565b5f82825260208201905092915050565b8281835e5f83830152505050565b5f601f19601f8301169050919050565b5f6118b08261186e565b6118ba8185611878565b93506118ca818560208601611888565b6118d381611896565b840191505092915050565b5f6020820190508181035f8301526118f681846118a6565b905092915050565b5f5ffd5b5f73ffffffffffffffffffffffffffffffffffffffff82169050919050565b5f61192b82611902565b9050919050565b61193b81611921565b8114611945575f5ffd5b50565b5f8135905061195681611932565b92915050565b5f819050919050565b61196e8161195c565b8114611978575f5ffd5b50565b5f8135905061198981611965565b92915050565b5f5f604083850312156119a5576119a46118fe565b5b5f6119b285828601611948565b92505060206119c38582860161197b565b9150509250929050565b5f8115159050919050565b6119e1816119cd565b82525050565b5f6020820190506119fa5f8301846119d8565b92915050565b611a098161195c565b82525050565b5f602082019050611a225f830184611a00565b92915050565b5f5f5f60608486031215611a3f57611a3e6118fe565b5b5f611a4c86828701611948565b9350506020611a5d86828701611948565b9250506040611a6e8682870161197b565b9150509250925092565b5f60ff82169050919050565b611a8d81611a78565b82525050565b5f602082019050611aa65f830184611a84565b92915050565b5f60208284031215611ac157611ac06118fe565b5b5f611ace8482850161197b565b91505092915050565b5f60208284031215611aec57611aeb6118fe565b5b5f611af984828501611948565b91505092915050565b611b0b81611921565b82525050565b5f602082019050611b245f830184611b02565b92915050565b5f5f60408385031215611b4057611b3f6118fe565b5b5f611b4d85828601611948565b9250506020611b5e85828601611948565b9150509250929050565b7f4e487b71000000000000000000000000000000000000000000000000000000005f52602260045260245ffd5b5f6002820490506001821680611bac57607f821691505b602082108103611bbf57611bbe611b68565b5b50919050565b7f4164647265737320697320626c61636b6c6973746564000000000000000000005f82015250565b5f611bf9601683611878565b9150611c0482611bc5565b602082019050919050565b5f6020820190508181035f830152611c2681611bed565b9050919050565b7f4e487b71000000000000000000000000000000000000000000000000000000005f52601160045260245ffd5b5f611c648261195c565b9150611c6f8361195c565b9250828202611c7d8161195c565b91508282048414831517611c9457611c93611c2d565b5b5092915050565b7f4e487b71000000000000000000000000000000000000000000000000000000005f52601260045260245ffd5b5f611cd28261195c565b9150611cdd8361195c565b925082611ced57611cec611c9b565b5b828204905092915050565b5f611d028261195c565b9150611d0d8361195c565b9250828203905081811115611d2557611d24611c2d565b5b92915050565b5f606082019050611d3e5f830186611b02565b611d4b6020830185611a00565b611d586040830184611a00565b949350505050565b5f611d6a8261195c565b9150611d758361195c565b9250828201905080821115611d8d57611d8c611c2d565b5b9291505056fea264697066735822122069d084cf09c0ea67aa0b80026efbdb9fb873166fe4a4485f89f3741ba78e3dc664736f6c634300081c0033","linkReferences":{}},"methodIdentifiers":{"allowance(address,address)":"dd62ed3e","approve(address,uint256)":"095ea7b3","balanceOf(address)":"70a08231","blacklist(address)":"f9f92be4","burn(uint256)":"42966c68","burnFrom(address,uint256)":"79cc6790","decimals()":"313ce567","isBlacklisted(address)":"fe575a87","name()":"06fdde03","owner()":"8da5cb5b","renounceOwnership()":"715018a6","symbol()":"95d89b41","totalSupply()":"18160ddd","transfer(address,uint256)":"a9059cbb","transferFrom(address,address,uint256)":"23b872dd","transferOwnership(address)":"f2fde38b","unblacklist(address)":"75e3661e"},"id":4}