{"abi":[{"type":"constructor","inputs":[{"name":"name_","type":"string","internalType":"string"},{"name":"symbol_","type":"string","internalType":"string"},{"name":"decimals_","type":"uint8","internalType":"uint8"},{"name":"totalSupply_","type":"uint256","internalType":"uint256"},{"name":"serviceFeeReceiver_","type":"address","internalType":"address"},{"name":"serviceFee_","type":"uint256","internalType":"uint256"},{"name":"transferTaxBps_","type":"uint256","internalType":"uint256"},{"name":"taxFeeRecipient_","type":"address","internalType":"address"}],"stateMutability":"payable"},{"type":"function","name":"allowance","inputs":[{"name":"owner","type":"address","internalType":"address"},{"name":"spender","type":"address","internalType":"address"}],"outputs":[{"name":"","type":"uint256","internalType":"uint256"}],"stateMutability":"view"},{"type":"function","name":"approve","inputs":[{"name":"spender","type":"address","internalType":"address"},{"name":"value","type":"uint256","internalType":"uint256"}],"outputs":[{"name":"","type":"bool","internalType":"bool"}],"stateMutability":"nonpayable"},{"type":"function","name":"balanceOf","inputs":[{"name":"account","type":"address","internalType":"address"}],"outputs":[{"name":"","type":"uint256","internalType":"uint256"}],"stateMutability":"view"},{"type":"function","name":"burn","inputs":[{"name":"value","type":"uint256","internalType":"uint256"}],"outputs":[],"stateMutability":"nonpayable"},{"type":"function","name":"burnFrom","inputs":[{"name":"account","type":"address","internalType":"address"},{"name":"value","type":"uint256","internalType":"uint256"}],"outputs":[],"stateMutability":"nonpayable"},{"type":"function","name":"decimals","inputs":[],"outputs":[{"name":"","type":"uint8","internalType":"uint8"}],"stateMutability":"view"},{"type":"function","name":"getTaxFeeRecipient","inputs":[],"outputs":[{"name":"","type":"address","internalType":"address"}],"stateMutability":"view"},{"type":"function","name":"getTransferTaxBps","inputs":[],"outputs":[{"name":"","type":"uint256","internalType":"uint256"}],"stateMutability":"view"},{"type":"function","name":"mint","inputs":[{"name":"to","type":"address","internalType":"address"},{"name":"amount","type":"uint256","internalType":"uint256"}],"outputs":[],"stateMutability":"nonpayable"},{"type":"function","name":"name","inputs":[],"outputs":[{"name":"","type":"string","internalType":"string"}],"stateMutability":"view"},{"type":"function","name":"owner","inputs":[],"outputs":[{"name":"","type":"address","internalType":"address"}],"stateMutability":"view"},{"type":"function","name":"pause","inputs":[],"outputs":[],"stateMutability":"nonpayable"},{"type":"function","name":"paused","inputs":[],"outputs":[{"name":"","type":"bool","internalType":"bool"}],"stateMutability":"view"},{"type":"function","name":"renounceOwnership","inputs":[],"outputs":[],"stateMutability":"nonpayable"},{"type":"function","name":"symbol","inputs":[],"outputs":[{"name":"","type":"string","internalType":"string"}],"stateMutability":"view"},{"type":"function","name":"totalSupply","inputs":[],"outputs":[{"name":"","type":"uint256","internalType":"uint256"}],"stateMutability":"view"},{"type":"function","name":"transfer","inputs":[{"name":"to","type":"address","internalType":"address"},{"name":"value","type":"uint256","internalType":"uint256"}],"outputs":[{"name":"","type":"bool","internalType":"bool"}],"stateMutability":"nonpayable"},{"type":"function","name":"transferFrom","inputs":[{"name":"from","type":"address","internalType":"address"},{"name":"to","type":"address","internalType":"address"},{"name":"value","type":"uint256","internalType":"uint256"}],"outputs":[{"name":"","type":"bool","internalType":"bool"}],"stateMutability":"nonpayable"},{"type":"function","name":"transferOwnership","inputs":[{"name":"newOwner","type":"address","internalType":"address"}],"outputs":[],"stateMutability":"nonpayable"},{"type":"function","name":"unpause","inputs":[],"outputs":[],"stateMutability":"nonpayable"},{"type":"function","name":"updateTaxFeeRecipient","inputs":[{"name":"newTaxFeeRecipient","type":"address","internalType":"address"}],"outputs":[],"stateMutability":"nonpayable"},{"type":"event","name":"Approval","inputs":[{"name":"owner","type":"address","indexed":true,"internalType":"address"},{"name":"spender","type":"address","indexed":true,"internalType":"address"},{"name":"value","type":"uint256","indexed":false,"internalType":"uint256"}],"anonymous":false},{"type":"event","name":"OwnershipTransferred","inputs":[{"name":"previousOwner","type":"address","indexed":true,"internalType":"address"},{"name":"newOwner","type":"address","indexed":true,"internalType":"address"}],"anonymous":false},{"type":"event","name":"Paused","inputs":[{"name":"account","type":"address","indexed":false,"internalType":"address"}],"anonymous":false},{"type":"event","name":"TaxFeeRecipientUpdated","inputs":[{"name":"newTaxFeeRecipient","type":"address","indexed":false,"internalType":"address"}],"anonymous":false},{"type":"event","name":"Transfer","inputs":[{"name":"from","type":"address","indexed":true,"internalType":"address"},{"name":"to","type":"address","indexed":true,"internalType":"address"},{"name":"value","type":"uint256","indexed":false,"internalType":"uint256"}],"anonymous":false},{"type":"event","name":"Unpaused","inputs":[{"name":"account","type":"address","indexed":false,"internalType":"address"}],"anonymous":false},{"type":"error","name":"ERC20InsufficientAllowance","inputs":[{"name":"spender","type":"address","internalType":"address"},{"name":"allowance","type":"uint256","internalType":"uint256"},{"name":"needed","type":"uint256","internalType":"uint256"}]},{"type":"error","name":"ERC20InsufficientBalance","inputs":[{"name":"sender","type":"address","internalType":"address"},{"name":"balance","type":"uint256","internalType":"uint256"},{"name":"needed","type":"uint256","internalType":"uint256"}]},{"type":"error","name":"ERC20InvalidApprover","inputs":[{"name":"approver","type":"address","internalType":"address"}]},{"type":"error","name":"ERC20InvalidReceiver","inputs":[{"name":"receiver","type":"address","internalType":"address"}]},{"type":"error","name":"ERC20InvalidSender","inputs":[{"name":"sender","type":"address","internalType":"address"}]},{"type":"error","name":"ERC20InvalidSpender","inputs":[{"name":"spender","type":"address","internalType":"address"}]},{"type":"error","name":"EnforcedPause","inputs":[]},{"type":"error","name":"ExpectedPause","inputs":[]},{"type":"error","name":"OwnableInvalidOwner","inputs":[{"name":"owner","type":"address","internalType":"address"}]},{"type":"error","name":"OwnableUnauthorizedAccount","inputs":[{"name":"account","type":"address","internalType":"address"}]}],"bytecode":{"object":"0x608060405260405162002bc038038062002bc0833981810160405281019062000029919062000983565b335f73ffffffffffffffffffffffffffffffffffffffff168173ffffffffffffffffffffffffffffffffffffffff16036200009d575f6040517f1e4fbdf700000000000000000000000000000000000000000000000000000000815260040162000094919062000a96565b60405180910390fd5b620000ae816200030d60201b60201c565b505f8060146101000a81548160ff0219169083151502179055508760049081620000d9919062000cdf565b508660059081620000eb919062000cdf565b508560065f6101000a81548160ff021916908360ff160217905550816007819055508060085f6101000a81548173ffffffffffffffffffffffffffffffffffffffff021916908373ffffffffffffffffffffffffffffffffffffffff1602179055508234101562000193576040517f08c379a00000000000000000000000000000000000000000000000000000000081526004016200018a9062000e21565b60405180910390fd5b5f73ffffffffffffffffffffffffffffffffffffffff168473ffffffffffffffffffffffffffffffffffffffff160362000204576040517f08c379a0000000000000000000000000000000000000000000000000000000008152600401620001fb9062000e8f565b60405180910390fd5b5f8473ffffffffffffffffffffffffffffffffffffffff16846040516200022b9062000ee0565b5f6040518083038185875af1925050503d805f811462000267576040519150601f19603f3d011682016040523d82523d5f602084013e6200026c565b606091505b5050905080620002b3576040517f08c379a0000000000000000000000000000000000000000000000000000000008152600401620002aa9062000f44565b60405180910390fd5b620002fe620002c7620003ce60201b60201c565b620002d7620003f560201b60201c565b600a620002e59190620010e1565b88620002f2919062001131565b6200040a60201b60201c565b5050505050505050506200121c565b5f805f9054906101000a900473ffffffffffffffffffffffffffffffffffffffff169050815f806101000a81548173ffffffffffffffffffffffffffffffffffffffff021916908373ffffffffffffffffffffffffffffffffffffffff1602179055508173ffffffffffffffffffffffffffffffffffffffff168173ffffffffffffffffffffffffffffffffffffffff167f8be0079c531659141344cd1fd0a4f28419497f9722a3daafe3b4186f6b6457e060405160405180910390a35050565b5f805f9054906101000a900473ffffffffffffffffffffffffffffffffffffffff16905090565b5f60065f9054906101000a900460ff16905090565b5f73ffffffffffffffffffffffffffffffffffffffff168273ffffffffffffffffffffffffffffffffffffffff16036200047d575f6040517fec442f0500000000000000000000000000000000000000000000000000000000815260040162000474919062000a96565b60405180910390fd5b620004905f83836200049460201b60201c565b5050565b620004a4620006cb60201b60201c565b5f73ffffffffffffffffffffffffffffffffffffffff168373ffffffffffffffffffffffffffffffffffffffff1603620004f8578060035f828254620004eb91906200117b565b92505081905550620005cb565b5f60015f8573ffffffffffffffffffffffffffffffffffffffff1673ffffffffffffffffffffffffffffffffffffffff1681526020019081526020015f205490508181101562000585578381836040517fe450d38c0000000000000000000000000000000000000000000000000000000081526004016200057c93929190620011c6565b60405180910390fd5b81810360015f8673ffffffffffffffffffffffffffffffffffffffff1673ffffffffffffffffffffffffffffffffffffffff1681526020019081526020015f2081905550505b5f73ffffffffffffffffffffffffffffffffffffffff168273ffffffffffffffffffffffffffffffffffffffff160362000614578060035f82825403925050819055506200065f565b8060015f8473ffffffffffffffffffffffffffffffffffffffff1673ffffffffffffffffffffffffffffffffffffffff1681526020019081526020015f205f82825401925050819055505b8173ffffffffffffffffffffffffffffffffffffffff168373ffffffffffffffffffffffffffffffffffffffff167fddf252ad1be2c89b69c2b068fc378daa952ba7f163c4a11628f55a4df523b3ef83604051620006be919062001201565b60405180910390a3505050565b620006db6200071560201b60201c565b1562000713576040517fd93c066500000000000000000000000000000000000000000000000000000000815260040160405180910390fd5b565b5f8060149054906101000a900460ff16905090565b5f604051905090565b5f80fd5b5f80fd5b5f80fd5b5f80fd5b5f601f19601f8301169050919050565b7f4e487b71000000000000000000000000000000000000000000000000000000005f52604160045260245ffd5b6200078b8262000743565b810181811067ffffffffffffffff82111715620007ad57620007ac62000753565b5b80604052505050565b5f620007c16200072a565b9050620007cf828262000780565b919050565b5f67ffffffffffffffff821115620007f157620007f062000753565b5b620007fc8262000743565b9050602081019050919050565b5f5b83811015620008285780820151818401526020810190506200080b565b5f8484015250505050565b5f620008496200084384620007d4565b620007b6565b9050828152602081018484840111156200086857620008676200073f565b5b6200087584828562000809565b509392505050565b5f82601f8301126200089457620008936200073b565b5b8151620008a684826020860162000833565b91505092915050565b5f60ff82169050919050565b620008c681620008af565b8114620008d1575f80fd5b50565b5f81519050620008e481620008bb565b92915050565b5f819050919050565b620008fe81620008ea565b811462000909575f80fd5b50565b5f815190506200091c81620008f3565b92915050565b5f73ffffffffffffffffffffffffffffffffffffffff82169050919050565b5f6200094d8262000922565b9050919050565b6200095f8162000941565b81146200096a575f80fd5b50565b5f815190506200097d8162000954565b92915050565b5f805f805f805f80610100898b031215620009a357620009a262000733565b5b5f89015167ffffffffffffffff811115620009c357620009c262000737565b5b620009d18b828c016200087d565b985050602089015167ffffffffffffffff811115620009f557620009f462000737565b5b62000a038b828c016200087d565b975050604062000a168b828c01620008d4565b965050606062000a298b828c016200090c565b955050608062000a3c8b828c016200096d565b94505060a062000a4f8b828c016200090c565b93505060c062000a628b828c016200090c565b92505060e062000a758b828c016200096d565b9150509295985092959890939650565b62000a908162000941565b82525050565b5f60208201905062000aab5f83018462000a85565b92915050565b5f81519050919050565b7f4e487b71000000000000000000000000000000000000000000000000000000005f52602260045260245ffd5b5f600282049050600182168062000b0057607f821691505b60208210810362000b165762000b1562000abb565b5b50919050565b5f819050815f5260205f209050919050565b5f6020601f8301049050919050565b5f82821b905092915050565b5f6008830262000b7a7fffffffffffffffffffffffffffffffffffffffffffffffffffffffffffffffff8262000b3d565b62000b86868362000b3d565b95508019841693508086168417925050509392505050565b5f819050919050565b5f62000bc762000bc162000bbb84620008ea565b62000b9e565b620008ea565b9050919050565b5f819050919050565b62000be28362000ba7565b62000bfa62000bf18262000bce565b84845462000b49565b825550505050565b5f90565b62000c1062000c02565b62000c1d81848462000bd7565b505050565b5b8181101562000c445762000c385f8262000c06565b60018101905062000c23565b5050565b601f82111562000c935762000c5d8162000b1c565b62000c688462000b2e565b8101602085101562000c78578190505b62000c9062000c878562000b2e565b83018262000c22565b50505b505050565b5f82821c905092915050565b5f62000cb55f198460080262000c98565b1980831691505092915050565b5f62000ccf838362000ca4565b9150826002028217905092915050565b62000cea8262000ab1565b67ffffffffffffffff81111562000d065762000d0562000753565b5b62000d12825462000ae8565b62000d1f82828562000c48565b5f60209050601f83116001811462000d55575f841562000d40578287015190505b62000d4c858262000cc2565b86555062000dbb565b601f19841662000d658662000b1c565b5f5b8281101562000d8e5784890151825560018201915060208501945060208101905062000d67565b8683101562000dae578489015162000daa601f89168262000ca4565b8355505b6001600288020188555050505b505050505050565b5f82825260208201905092915050565b7f496e73756666696369656e742066656520616d6f756e742073656e74000000005f82015250565b5f62000e09601c8362000dc3565b915062000e168262000dd3565b602082019050919050565b5f6020820190508181035f83015262000e3a8162000dfb565b9050919050565b7f496e76616c6964206665652072656365697665722061646472657373000000005f82015250565b5f62000e77601c8362000dc3565b915062000e848262000e41565b602082019050919050565b5f6020820190508181035f83015262000ea88162000e69565b9050919050565b5f81905092915050565b50565b5f62000ec95f8362000eaf565b915062000ed68262000eb9565b5f82019050919050565b5f62000eec8262000ebc565b9150819050919050565b7f466565207472616e73666572206661696c6564000000000000000000000000005f82015250565b5f62000f2c60138362000dc3565b915062000f398262000ef6565b602082019050919050565b5f6020820190508181035f83015262000f5d8162000f1e565b9050919050565b7f4e487b71000000000000000000000000000000000000000000000000000000005f52601160045260245ffd5b5f8160011c9050919050565b5f808291508390505b600185111562000fee5780860481111562000fc65762000fc562000f64565b5b600185161562000fd65780820291505b808102905062000fe68562000f91565b945062000fa6565b94509492505050565b5f82620010085760019050620010da565b8162001017575f9050620010da565b81600181146200103057600281146200103b5762001071565b6001915050620010da565b60ff84111562001050576200104f62000f64565b5b8360020a9150848211156200106a576200106962000f64565b5b50620010da565b5060208310610133831016604e8410600b8410161715620010ab5782820a905083811115620010a557620010a462000f64565b5b620010da565b620010ba848484600162000f9d565b92509050818404811115620010d457620010d362000f64565b5b81810290505b9392505050565b5f620010ed82620008ea565b9150620010fa83620008af565b9250620011297fffffffffffffffffffffffffffffffffffffffffffffffffffffffffffffffff848462000ff7565b905092915050565b5f6200113d82620008ea565b91506200114a83620008ea565b92508282026200115a81620008ea565b9150828204841483151762001174576200117362000f64565b5b5092915050565b5f6200118782620008ea565b91506200119483620008ea565b9250828201905080821115620011af57620011ae62000f64565b5b92915050565b620011c081620008ea565b82525050565b5f606082019050620011db5f83018662000a85565b620011ea6020830185620011b5565b620011f96040830184620011b5565b949350505050565b5f602082019050620012165f830184620011b5565b92915050565b611996806200122a5f395ff3fe608060405234801561000f575f80fd5b5060043610610135575f3560e01c806370a08231116100b65780638baace251161007a5780638baace25146102ef5780638da5cb5b1461030b57806395d89b4114610329578063a9059cbb14610347578063dd62ed3e14610377578063f2fde38b146103a757610135565b806370a0823114610271578063715018a6146102a1578063743bfe70146102ab57806379cc6790146102c95780638456cb59146102e557610135565b8063313ce567116100fd578063313ce567146101f35780633f4ba83a1461021157806340c10f191461021b57806342966c68146102375780635c975abb1461025357610135565b806303073dfc1461013957806306fdde0314610157578063095ea7b31461017557806318160ddd146101a557806323b872dd146101c3575b5f80fd5b6101416103c3565b60405161014e91906114c8565b60405180910390f35b61015f6103eb565b60405161016c919061156b565b60405180910390f35b61018f600480360381019061018a91906115ec565b61047b565b60405161019c9190611644565b60405180910390f35b6101ad61049d565b6040516101ba919061166c565b60405180910390f35b6101dd60048036038101906101d89190611685565b6104a6565b6040516101ea9190611644565b60405180910390f35b6101fb6104d4565b60405161020891906116f0565b60405180910390f35b6102196104e9565b005b610235600480360381019061023091906115ec565b6104fb565b005b610251600480360381019061024c9190611709565b610511565b005b61025b610525565b6040516102689190611644565b60405180910390f35b61028b60048036038101906102869190611734565b61053a565b604051610298919061166c565b60405180910390f35b6102a9610580565b005b6102b3610593565b6040516102c0919061166c565b60405180910390f35b6102e360048036038101906102de91906115ec565b61059c565b005b6102ed6105bc565b005b61030960048036038101906103049190611734565b6105ce565b005b610313610650565b60405161032091906114c8565b60405180910390f35b610331610677565b60405161033e919061156b565b60405180910390f35b610361600480360381019061035c91906115ec565b610707565b60405161036e9190611644565b60405180910390f35b610391600480360381019061038c919061175f565b610a6a565b60405161039e919061166c565b60405180910390f35b6103c160048036038101906103bc9190611734565b610aec565b005b5f60085f9054906101000a900473ffffffffffffffffffffffffffffffffffffffff16905090565b6060600480546103fa906117ca565b80601f0160208091040260200160405190810160405280929190818152602001828054610426906117ca565b80156104715780601f1061044857610100808354040283529160200191610471565b820191905f5260205f20905b81548152906001019060200180831161045457829003601f168201915b5050505050905090565b5f80610485610b70565b9050610492818585610b77565b600191505092915050565b5f600354905090565b5f806104b0610b70565b90506104bd858285610b89565b6104c8858585610c1c565b60019150509392505050565b5f60065f9054906101000a900460ff16905090565b6104f1610d0c565b6104f9610d93565b565b610503610d0c565b61050d8282610df4565b5050565b61052261051c610b70565b82610e73565b50565b5f8060149054906101000a900460ff16905090565b5f60015f8373ffffffffffffffffffffffffffffffffffffffff1673ffffffffffffffffffffffffffffffffffffffff1681526020019081526020015f20549050919050565b610588610d0c565b6105915f610ef2565b565b5f600754905090565b6105ae826105a8610b70565b83610b89565b6105b88282610e73565b5050565b6105c4610d0c565b6105cc610fb3565b565b6105d6610d0c565b8060085f6101000a81548173ffffffffffffffffffffffffffffffffffffffff021916908373ffffffffffffffffffffffffffffffffffffffff1602179055507f3ca9233bd3849737ab1049144180bc625db2d51ca2c5ce949e7209eb32faa3a28160405161064591906114c8565b60405180910390a150565b5f805f9054906101000a900473ffffffffffffffffffffffffffffffffffffffff16905090565b606060058054610686906117ca565b80601f01602080910402602001604051908101604052809291908181526020018280546106b2906117ca565b80156106fd5780601f106106d4576101008083540402835291602001916106fd565b820191905f5260205f20905b8154815290600101906020018083116106e057829003601f168201915b5050505050905090565b5f80610711610b70565b90505f612710600754856107259190611827565b61072f9190611895565b90505f818561073e91906118c5565b90508460015f8573ffffffffffffffffffffffffffffffffffffffff1673ffffffffffffffffffffffffffffffffffffffff1681526020019081526020015f20541015610803578260015f8573ffffffffffffffffffffffffffffffffffffffff1673ffffffffffffffffffffffffffffffffffffffff1681526020019081526020015f2054866040517fe450d38c0000000000000000000000000000000000000000000000000000000081526004016107fa939291906118f8565b60405180910390fd5b8460015f8573ffffffffffffffffffffffffffffffffffffffff1673ffffffffffffffffffffffffffffffffffffffff1681526020019081526020015f205f82825461084f91906118c5565b925050819055508060015f8873ffffffffffffffffffffffffffffffffffffffff1673ffffffffffffffffffffffffffffffffffffffff1681526020019081526020015f205f8282546108a2919061192d565b925050819055505f73ffffffffffffffffffffffffffffffffffffffff1660085f9054906101000a900473ffffffffffffffffffffffffffffffffffffffff1673ffffffffffffffffffffffffffffffffffffffff1614610972578160015f60085f9054906101000a900473ffffffffffffffffffffffffffffffffffffffff1673ffffffffffffffffffffffffffffffffffffffff1673ffffffffffffffffffffffffffffffffffffffff1681526020019081526020015f205f82825461096a919061192d565b925050819055505b8573ffffffffffffffffffffffffffffffffffffffff168373ffffffffffffffffffffffffffffffffffffffff167fddf252ad1be2c89b69c2b068fc378daa952ba7f163c4a11628f55a4df523b3ef836040516109cf919061166c565b60405180910390a360085f9054906101000a900473ffffffffffffffffffffffffffffffffffffffff1673ffffffffffffffffffffffffffffffffffffffff168373ffffffffffffffffffffffffffffffffffffffff167fddf252ad1be2c89b69c2b068fc378daa952ba7f163c4a11628f55a4df523b3ef84604051610a55919061166c565b60405180910390a36001935050505092915050565b5f60025f8473ffffffffffffffffffffffffffffffffffffffff1673ffffffffffffffffffffffffffffffffffffffff1681526020019081526020015f205f8373ffffffffffffffffffffffffffffffffffffffff1673ffffffffffffffffffffffffffffffffffffffff1681526020019081526020015f2054905092915050565b610af4610d0c565b5f73ffffffffffffffffffffffffffffffffffffffff168173ffffffffffffffffffffffffffffffffffffffff1603610b64575f6040517f1e4fbdf7000000000000000000000000000000000000000000000000000000008152600401610b5b91906114c8565b60405180910390fd5b610b6d81610ef2565b50565b5f33905090565b610b848383836001611015565b505050565b5f610b948484610a6a565b90507fffffffffffffffffffffffffffffffffffffffffffffffffffffffffffffffff811015610c165781811015610c07578281836040517ffb8f41b2000000000000000000000000000000000000000000000000000000008152600401610bfe939291906118f8565b60405180910390fd5b610c1584848484035f611015565b5b50505050565b5f73ffffffffffffffffffffffffffffffffffffffff168373ffffffffffffffffffffffffffffffffffffffff1603610c8c575f6040517f96c6fd1e000000000000000000000000000000000000000000000000000000008152600401610c8391906114c8565b60405180910390fd5b5f73ffffffffffffffffffffffffffffffffffffffff168273ffffffffffffffffffffffffffffffffffffffff1603610cfc575f6040517fec442f05000000000000000000000000000000000000000000000000000000008152600401610cf391906114c8565b60405180910390fd5b610d078383836111e4565b505050565b610d14610b70565b73ffffffffffffffffffffffffffffffffffffffff16610d32610650565b73ffffffffffffffffffffffffffffffffffffffff1614610d9157610d55610b70565b6040517f118cdaa7000000000000000000000000000000000000000000000000000000008152600401610d8891906114c8565b60405180910390fd5b565b610d9b611408565b5f8060146101000a81548160ff0219169083151502179055507f5db9ee0a495bf2e6ff9c91a7834c1ba4fdd244a5e8aa4e537bd38aeae4b073aa610ddd610b70565b604051610dea91906114c8565b60405180910390a1565b5f73ffffffffffffffffffffffffffffffffffffffff168273ffffffffffffffffffffffffffffffffffffffff1603610e64575f6040517fec442f05000000000000000000000000000000000000000000000000000000008152600401610e5b91906114c8565b60405180910390fd5b610e6f5f83836111e4565b5050565b5f73ffffffffffffffffffffffffffffffffffffffff168273ffffffffffffffffffffffffffffffffffffffff1603610ee3575f6040517f96c6fd1e000000000000000000000000000000000000000000000000000000008152600401610eda91906114c8565b60405180910390fd5b610eee825f836111e4565b5050565b5f805f9054906101000a900473ffffffffffffffffffffffffffffffffffffffff169050815f806101000a81548173ffffffffffffffffffffffffffffffffffffffff021916908373ffffffffffffffffffffffffffffffffffffffff1602179055508173ffffffffffffffffffffffffffffffffffffffff168173ffffffffffffffffffffffffffffffffffffffff167f8be0079c531659141344cd1fd0a4f28419497f9722a3daafe3b4186f6b6457e060405160405180910390a35050565b610fbb611448565b60015f60146101000a81548160ff0219169083151502179055507f62e78cea01bee320cd4e420270b5ea74000d11b0c9f74754ebdbfc544b05a258610ffe610b70565b60405161100b91906114c8565b60405180910390a1565b5f73ffffffffffffffffffffffffffffffffffffffff168473ffffffffffffffffffffffffffffffffffffffff1603611085575f6040517fe602df0500000000000000000000000000000000000000000000000000000000815260040161107c91906114c8565b60405180910390fd5b5f73ffffffffffffffffffffffffffffffffffffffff168373ffffffffffffffffffffffffffffffffffffffff16036110f5575f6040517f94280d620000000000000000000000000000000000000000000000000000000081526004016110ec91906114c8565b60405180910390fd5b8160025f8673ffffffffffffffffffffffffffffffffffffffff1673ffffffffffffffffffffffffffffffffffffffff1681526020019081526020015f205f8573ffffffffffffffffffffffffffffffffffffffff1673ffffffffffffffffffffffffffffffffffffffff1681526020019081526020015f208190555080156111de578273ffffffffffffffffffffffffffffffffffffffff168473ffffffffffffffffffffffffffffffffffffffff167f8c5be1e5ebec7d5bd14f71427d1e84f3dd0314c0f7b2291e5b200ac8c7c3b925846040516111d5919061166c565b60405180910390a35b50505050565b6111ec611448565b5f73ffffffffffffffffffffffffffffffffffffffff168373ffffffffffffffffffffffffffffffffffffffff160361123c578060035f828254611230919061192d565b9250508190555061130c565b5f60015f8573ffffffffffffffffffffffffffffffffffffffff1673ffffffffffffffffffffffffffffffffffffffff1681526020019081526020015f20549050818110156112c6578381836040517fe450d38c0000000000000000000000000000000000000000000000000000000081526004016112bd939291906118f8565b60405180910390fd5b81810360015f8673ffffffffffffffffffffffffffffffffffffffff1673ffffffffffffffffffffffffffffffffffffffff1681526020019081526020015f2081905550505b5f73ffffffffffffffffffffffffffffffffffffffff168273ffffffffffffffffffffffffffffffffffffffff1603611353578060035f828254039250508190555061139e565b8060015f8473ffffffffffffffffffffffffffffffffffffffff1673ffffffffffffffffffffffffffffffffffffffff1681526020019081526020015f205f82825401925050819055505b8173ffffffffffffffffffffffffffffffffffffffff168373ffffffffffffffffffffffffffffffffffffffff167fddf252ad1be2c89b69c2b068fc378daa952ba7f163c4a11628f55a4df523b3ef836040516113fb919061166c565b60405180910390a3505050565b611410610525565b611446576040517f8dfc202b00000000000000000000000000000000000000000000000000000000815260040160405180910390fd5b565b611450610525565b15611487576040517fd93c066500000000000000000000000000000000000000000000000000000000815260040160405180910390fd5b565b5f73ffffffffffffffffffffffffffffffffffffffff82169050919050565b5f6114b282611489565b9050919050565b6114c2816114a8565b82525050565b5f6020820190506114db5f8301846114b9565b92915050565b5f81519050919050565b5f82825260208201905092915050565b5f5b838110156115185780820151818401526020810190506114fd565b5f8484015250505050565b5f601f19601f8301169050919050565b5f61153d826114e1565b61154781856114eb565b93506115578185602086016114fb565b61156081611523565b840191505092915050565b5f6020820190508181035f8301526115838184611533565b905092915050565b5f80fd5b611598816114a8565b81146115a2575f80fd5b50565b5f813590506115b38161158f565b92915050565b5f819050919050565b6115cb816115b9565b81146115d5575f80fd5b50565b5f813590506115e6816115c2565b92915050565b5f80604083850312156116025761160161158b565b5b5f61160f858286016115a5565b9250506020611620858286016115d8565b9150509250929050565b5f8115159050919050565b61163e8161162a565b82525050565b5f6020820190506116575f830184611635565b92915050565b611666816115b9565b82525050565b5f60208201905061167f5f83018461165d565b92915050565b5f805f6060848603121561169c5761169b61158b565b5b5f6116a9868287016115a5565b93505060206116ba868287016115a5565b92505060406116cb868287016115d8565b9150509250925092565b5f60ff82169050919050565b6116ea816116d5565b82525050565b5f6020820190506117035f8301846116e1565b92915050565b5f6020828403121561171e5761171d61158b565b5b5f61172b848285016115d8565b91505092915050565b5f602082840312156117495761174861158b565b5b5f611756848285016115a5565b91505092915050565b5f80604083850312156117755761177461158b565b5b5f611782858286016115a5565b9250506020611793858286016115a5565b9150509250929050565b7f4e487b71000000000000000000000000000000000000000000000000000000005f52602260045260245ffd5b5f60028204905060018216806117e157607f821691505b6020821081036117f4576117f361179d565b5b50919050565b7f4e487b71000000000000000000000000000000000000000000000000000000005f52601160045260245ffd5b5f611831826115b9565b915061183c836115b9565b925082820261184a816115b9565b91508282048414831517611861576118606117fa565b5b5092915050565b7f4e487b71000000000000000000000000000000000000000000000000000000005f52601260045260245ffd5b5f61189f826115b9565b91506118aa836115b9565b9250826118ba576118b9611868565b5b828204905092915050565b5f6118cf826115b9565b91506118da836115b9565b92508282039050818111156118f2576118f16117fa565b5b92915050565b5f60608201905061190b5f8301866114b9565b611918602083018561165d565b611925604083018461165d565b949350505050565b5f611937826115b9565b9150611942836115b9565b925082820190508082111561195a576119596117fa565b5b9291505056fea2646970667358221220b41a869e5a47a5d6ae729287b906114201da795cafafc4464f026b9e7649045e64736f6c63430008170033","linkReferences":{}},"methodIdentifiers":{"allowance(address,address)":"dd62ed3e","approve(address,uint256)":"095ea7b3","balanceOf(address)":"70a08231","burn(uint256)":"42966c68","burnFrom(address,uint256)":"79cc6790","decimals()":"313ce567","getTaxFeeRecipient()":"03073dfc","getTransferTaxBps()":"743bfe70","mint(address,uint256)":"40c10f19","name()":"06fdde03","owner()":"8da5cb5b","pause()":"8456cb59","paused()":"5c975abb","renounceOwnership()":"715018a6","symbol()":"95d89b41","totalSupply()":"18160ddd","transfer(address,uint256)":"a9059cbb","transferFrom(address,address,uint256)":"23b872dd","transferOwnership(address)":"f2fde38b","unpause()":"3f4ba83a","updateTaxFeeRecipient(address)":"8baace25"},"id":39}