{"abi":[{"type":"constructor","inputs":[{"name":"name_","type":"string","internalType":"string"},{"name":"symbol_","type":"string","internalType":"string"},{"name":"decimals_","type":"uint8","internalType":"uint8"},{"name":"totalSupply_","type":"uint256","internalType":"uint256"},{"name":"cap_","type":"uint256","internalType":"uint256"},{"name":"serviceFeeReceiver_","type":"address","internalType":"address"},{"name":"serviceFee_","type":"uint256","internalType":"uint256"},{"name":"transferTaxBps_","type":"uint256","internalType":"uint256"},{"name":"taxFeeRecipient_","type":"address","internalType":"address"}],"stateMutability":"payable"},{"type":"function","name":"allowance","inputs":[{"name":"owner","type":"address","internalType":"address"},{"name":"spender","type":"address","internalType":"address"}],"outputs":[{"name":"","type":"uint256","internalType":"uint256"}],"stateMutability":"view"},{"type":"function","name":"approve","inputs":[{"name":"spender","type":"address","internalType":"address"},{"name":"value","type":"uint256","internalType":"uint256"}],"outputs":[{"name":"","type":"bool","internalType":"bool"}],"stateMutability":"nonpayable"},{"type":"function","name":"balanceOf","inputs":[{"name":"account","type":"address","internalType":"address"}],"outputs":[{"name":"","type":"uint256","internalType":"uint256"}],"stateMutability":"view"},{"type":"function","name":"cap","inputs":[],"outputs":[{"name":"","type":"uint256","internalType":"uint256"}],"stateMutability":"view"},{"type":"function","name":"decimals","inputs":[],"outputs":[{"name":"","type":"uint8","internalType":"uint8"}],"stateMutability":"view"},{"type":"function","name":"getTaxFeeRecipient","inputs":[],"outputs":[{"name":"","type":"address","internalType":"address"}],"stateMutability":"view"},{"type":"function","name":"getTransferTaxBps","inputs":[],"outputs":[{"name":"","type":"uint256","internalType":"uint256"}],"stateMutability":"view"},{"type":"function","name":"mint","inputs":[{"name":"to","type":"address","internalType":"address"},{"name":"amount","type":"uint256","internalType":"uint256"}],"outputs":[],"stateMutability":"nonpayable"},{"type":"function","name":"name","inputs":[],"outputs":[{"name":"","type":"string","internalType":"string"}],"stateMutability":"view"},{"type":"function","name":"owner","inputs":[],"outputs":[{"name":"","type":"address","internalType":"address"}],"stateMutability":"view"},{"type":"function","name":"pause","inputs":[],"outputs":[],"stateMutability":"nonpayable"},{"type":"function","name":"paused","inputs":[],"outputs":[{"name":"","type":"bool","internalType":"bool"}],"stateMutability":"view"},{"type":"function","name":"renounceOwnership","inputs":[],"outputs":[],"stateMutability":"nonpayable"},{"type":"function","name":"symbol","inputs":[],"outputs":[{"name":"","type":"string","internalType":"string"}],"stateMutability":"view"},{"type":"function","name":"totalSupply","inputs":[],"outputs":[{"name":"","type":"uint256","internalType":"uint256"}],"stateMutability":"view"},{"type":"function","name":"transfer","inputs":[{"name":"to","type":"address","internalType":"address"},{"name":"value","type":"uint256","internalType":"uint256"}],"outputs":[{"name":"","type":"bool","internalType":"bool"}],"stateMutability":"nonpayable"},{"type":"function","name":"transferFrom","inputs":[{"name":"from","type":"address","internalType":"address"},{"name":"to","type":"address","internalType":"address"},{"name":"value","type":"uint256","internalType":"uint256"}],"outputs":[{"name":"","type":"bool","internalType":"bool"}],"stateMutability":"nonpayable"},{"type":"function","name":"transferOwnership","inputs":[{"name":"newOwner","type":"address","internalType":"address"}],"outputs":[],"stateMutability":"nonpayable"},{"type":"function","name":"unpause","inputs":[],"outputs":[],"stateMutability":"nonpayable"},{"type":"function","name":"updateTaxFeeRecipient","inputs":[{"name":"newTaxFeeRecipient","type":"address","internalType":"address"}],"outputs":[],"stateMutability":"nonpayable"},{"type":"event","name":"Approval","inputs":[{"name":"owner","type":"address","indexed":true,"internalType":"address"},{"name":"spender","type":"address","indexed":true,"internalType":"address"},{"name":"value","type":"uint256","indexed":false,"internalType":"uint256"}],"anonymous":false},{"type":"event","name":"OwnershipTransferred","inputs":[{"name":"previousOwner","type":"address","indexed":true,"internalType":"address"},{"name":"newOwner","type":"address","indexed":true,"internalType":"address"}],"anonymous":false},{"type":"event","name":"Paused","inputs":[{"name":"account","type":"address","indexed":false,"internalType":"address"}],"anonymous":false},{"type":"event","name":"TaxFeeRecipientUpdated","inputs":[{"name":"newTaxFeeRecipient","type":"address","indexed":false,"internalType":"address"}],"anonymous":false},{"type":"event","name":"Transfer","inputs":[{"name":"from","type":"address","indexed":true,"internalType":"address"},{"name":"to","type":"address","indexed":true,"internalType":"address"},{"name":"value","type":"uint256","indexed":false,"internalType":"uint256"}],"anonymous":false},{"type":"event","name":"Unpaused","inputs":[{"name":"account","type":"address","indexed":false,"internalType":"address"}],"anonymous":false},{"type":"error","name":"ERC20InsufficientAllowance","inputs":[{"name":"spender","type":"address","internalType":"address"},{"name":"allowance","type":"uint256","internalType":"uint256"},{"name":"needed","type":"uint256","internalType":"uint256"}]},{"type":"error","name":"ERC20InsufficientBalance","inputs":[{"name":"sender","type":"address","internalType":"address"},{"name":"balance","type":"uint256","internalType":"uint256"},{"name":"needed","type":"uint256","internalType":"uint256"}]},{"type":"error","name":"ERC20InvalidApprover","inputs":[{"name":"approver","type":"address","internalType":"address"}]},{"type":"error","name":"ERC20InvalidReceiver","inputs":[{"name":"receiver","type":"address","internalType":"address"}]},{"type":"error","name":"ERC20InvalidSender","inputs":[{"name":"sender","type":"address","internalType":"address"}]},{"type":"error","name":"ERC20InvalidSpender","inputs":[{"name":"spender","type":"address","internalType":"address"}]},{"type":"error","name":"EnforcedPause","inputs":[]},{"type":"error","name":"ExpectedPause","inputs":[]},{"type":"error","name":"OwnableInvalidOwner","inputs":[{"name":"owner","type":"address","internalType":"address"}]},{"type":"error","name":"OwnableUnauthorizedAccount","inputs":[{"name":"account","type":"address","internalType":"address"}]}],"bytecode":{"object":"0x608060405260405162002f8b38038062002f8b833981810160405281019062000029919062000afc565b335f73ffffffffffffffffffffffffffffffffffffffff168173ffffffffffffffffffffffffffffffffffffffff16036200009d575f6040517f1e4fbdf700000000000000000000000000000000000000000000000000000000815260040162000094919062000c24565b60405180910390fd5b620000ae81620003d960201b60201c565b505f8060146101000a81548160ff0219169083151502179055508860049081620000d9919062000e6d565b508760059081620000eb919062000e6d565b508660065f6101000a81548160ff021916908360ff160217905550816008819055508060095f6101000a81548173ffffffffffffffffffffffffffffffffffffffff021916908373ffffffffffffffffffffffffffffffffffffffff1602179055505f851162000192576040517f08c379a0000000000000000000000000000000000000000000000000000000008152600401620001899062000faf565b60405180910390fd5b84600781905550620001a96200049a60201b60201c565b600a620001b791906200114c565b620001c7620004af60201b60201c565b620001d391906200119c565b86111562000218576040517f08c379a00000000000000000000000000000000000000000000000000000000081526004016200020f9062001234565b60405180910390fd5b823410156200025e576040517f08c379a00000000000000000000000000000000000000000000000000000000081526004016200025590620012a2565b60405180910390fd5b5f73ffffffffffffffffffffffffffffffffffffffff168473ffffffffffffffffffffffffffffffffffffffff1603620002cf576040517f08c379a0000000000000000000000000000000000000000000000000000000008152600401620002c69062001310565b60405180910390fd5b5f8473ffffffffffffffffffffffffffffffffffffffff1684604051620002f69062001361565b5f6040518083038185875af1925050503d805f811462000332576040519150601f19603f3d011682016040523d82523d5f602084013e62000337565b606091505b50509050806200037e576040517f08c379a00000000000000000000000000000000000000000000000000000000081526004016200037590620013c5565b60405180910390fd5b620003c962000392620004b860201b60201c565b620003a26200049a60201b60201c565b600a620003b091906200114c565b89620003bd91906200119c565b620004df60201b60201c565b5050505050505050505062001486565b5f805f9054906101000a900473ffffffffffffffffffffffffffffffffffffffff169050815f806101000a81548173ffffffffffffffffffffffffffffffffffffffff021916908373ffffffffffffffffffffffffffffffffffffffff1602179055508173ffffffffffffffffffffffffffffffffffffffff168173ffffffffffffffffffffffffffffffffffffffff167f8be0079c531659141344cd1fd0a4f28419497f9722a3daafe3b4186f6b6457e060405160405180910390a35050565b5f60065f9054906101000a900460ff16905090565b5f600754905090565b5f805f9054906101000a900473ffffffffffffffffffffffffffffffffffffffff16905090565b620004ef6200049a60201b60201c565b600a620004fd91906200114c565b6200050d620004af60201b60201c565b6200051991906200119c565b816200052a6200060460201b60201c565b620005369190620013e5565b11156200057a576040517f08c379a0000000000000000000000000000000000000000000000000000000008152600401620005719062001234565b60405180910390fd5b5f73ffffffffffffffffffffffffffffffffffffffff168273ffffffffffffffffffffffffffffffffffffffff1603620005ed575f6040517fec442f05000000000000000000000000000000000000000000000000000000008152600401620005e4919062000c24565b60405180910390fd5b620006005f83836200060d60201b60201c565b5050565b5f600354905090565b6200061d6200084460201b60201c565b5f73ffffffffffffffffffffffffffffffffffffffff168373ffffffffffffffffffffffffffffffffffffffff160362000671578060035f828254620006649190620013e5565b9250508190555062000744565b5f60015f8573ffffffffffffffffffffffffffffffffffffffff1673ffffffffffffffffffffffffffffffffffffffff1681526020019081526020015f2054905081811015620006fe578381836040517fe450d38c000000000000000000000000000000000000000000000000000000008152600401620006f59392919062001430565b60405180910390fd5b81810360015f8673ffffffffffffffffffffffffffffffffffffffff1673ffffffffffffffffffffffffffffffffffffffff1681526020019081526020015f2081905550505b5f73ffffffffffffffffffffffffffffffffffffffff168273ffffffffffffffffffffffffffffffffffffffff16036200078d578060035f8282540392505081905550620007d8565b8060015f8473ffffffffffffffffffffffffffffffffffffffff1673ffffffffffffffffffffffffffffffffffffffff1681526020019081526020015f205f82825401925050819055505b8173ffffffffffffffffffffffffffffffffffffffff168373ffffffffffffffffffffffffffffffffffffffff167fddf252ad1be2c89b69c2b068fc378daa952ba7f163c4a11628f55a4df523b3ef836040516200083791906200146b565b60405180910390a3505050565b620008546200088e60201b60201c565b156200088c576040517fd93c066500000000000000000000000000000000000000000000000000000000815260040160405180910390fd5b565b5f8060149054906101000a900460ff16905090565b5f604051905090565b5f80fd5b5f80fd5b5f80fd5b5f80fd5b5f601f19601f8301169050919050565b7f4e487b71000000000000000000000000000000000000000000000000000000005f52604160045260245ffd5b6200090482620008bc565b810181811067ffffffffffffffff82111715620009265762000925620008cc565b5b80604052505050565b5f6200093a620008a3565b9050620009488282620008f9565b919050565b5f67ffffffffffffffff8211156200096a5762000969620008cc565b5b6200097582620008bc565b9050602081019050919050565b5f5b83811015620009a157808201518184015260208101905062000984565b5f8484015250505050565b5f620009c2620009bc846200094d565b6200092f565b905082815260208101848484011115620009e157620009e0620008b8565b5b620009ee84828562000982565b509392505050565b5f82601f83011262000a0d5762000a0c620008b4565b5b815162000a1f848260208601620009ac565b91505092915050565b5f60ff82169050919050565b62000a3f8162000a28565b811462000a4a575f80fd5b50565b5f8151905062000a5d8162000a34565b92915050565b5f819050919050565b62000a778162000a63565b811462000a82575f80fd5b50565b5f8151905062000a958162000a6c565b92915050565b5f73ffffffffffffffffffffffffffffffffffffffff82169050919050565b5f62000ac68262000a9b565b9050919050565b62000ad88162000aba565b811462000ae3575f80fd5b50565b5f8151905062000af68162000acd565b92915050565b5f805f805f805f805f6101208a8c03121562000b1d5762000b1c620008ac565b5b5f8a015167ffffffffffffffff81111562000b3d5762000b3c620008b0565b5b62000b4b8c828d01620009f6565b99505060208a015167ffffffffffffffff81111562000b6f5762000b6e620008b0565b5b62000b7d8c828d01620009f6565b985050604062000b908c828d0162000a4d565b975050606062000ba38c828d0162000a85565b965050608062000bb68c828d0162000a85565b95505060a062000bc98c828d0162000ae6565b94505060c062000bdc8c828d0162000a85565b93505060e062000bef8c828d0162000a85565b92505061010062000c038c828d0162000ae6565b9150509295985092959850929598565b62000c1e8162000aba565b82525050565b5f60208201905062000c395f83018462000c13565b92915050565b5f81519050919050565b7f4e487b71000000000000000000000000000000000000000000000000000000005f52602260045260245ffd5b5f600282049050600182168062000c8e57607f821691505b60208210810362000ca45762000ca362000c49565b5b50919050565b5f819050815f5260205f209050919050565b5f6020601f8301049050919050565b5f82821b905092915050565b5f6008830262000d087fffffffffffffffffffffffffffffffffffffffffffffffffffffffffffffffff8262000ccb565b62000d14868362000ccb565b95508019841693508086168417925050509392505050565b5f819050919050565b5f62000d5562000d4f62000d498462000a63565b62000d2c565b62000a63565b9050919050565b5f819050919050565b62000d708362000d35565b62000d8862000d7f8262000d5c565b84845462000cd7565b825550505050565b5f90565b62000d9e62000d90565b62000dab81848462000d65565b505050565b5b8181101562000dd25762000dc65f8262000d94565b60018101905062000db1565b5050565b601f82111562000e215762000deb8162000caa565b62000df68462000cbc565b8101602085101562000e06578190505b62000e1e62000e158562000cbc565b83018262000db0565b50505b505050565b5f82821c905092915050565b5f62000e435f198460080262000e26565b1980831691505092915050565b5f62000e5d838362000e32565b9150826002028217905092915050565b62000e788262000c3f565b67ffffffffffffffff81111562000e945762000e93620008cc565b5b62000ea0825462000c76565b62000ead82828562000dd6565b5f60209050601f83116001811462000ee3575f841562000ece578287015190505b62000eda858262000e50565b86555062000f49565b601f19841662000ef38662000caa565b5f5b8281101562000f1c5784890151825560018201915060208501945060208101905062000ef5565b8683101562000f3c578489015162000f38601f89168262000e32565b8355505b6001600288020188555050505b505050505050565b5f82825260208201905092915050565b7f4361702073686f756c642062652067726561746572207468616e2030000000005f82015250565b5f62000f97601c8362000f51565b915062000fa48262000f61565b602082019050919050565b5f6020820190508181035f83015262000fc88162000f89565b9050919050565b7f4e487b71000000000000000000000000000000000000000000000000000000005f52601160045260245ffd5b5f8160011c9050919050565b5f808291508390505b6001851115620010595780860481111562001031576200103062000fcf565b5b6001851615620010415780820291505b8081029050620010518562000ffc565b945062001011565b94509492505050565b5f8262001073576001905062001145565b8162001082575f905062001145565b81600181146200109b5760028114620010a657620010dc565b600191505062001145565b60ff841115620010bb57620010ba62000fcf565b5b8360020a915084821115620010d557620010d462000fcf565b5b5062001145565b5060208310610133831016604e8410600b8410161715620011165782820a90508381111562001110576200110f62000fcf565b5b62001145565b62001125848484600162001008565b925090508184048111156200113f576200113e62000fcf565b5b81810290505b9392505050565b5f620011588262000a63565b9150620011658362000a28565b9250620011947fffffffffffffffffffffffffffffffffffffffffffffffffffffffffffffffff848462001062565b905092915050565b5f620011a88262000a63565b9150620011b58362000a63565b9250828202620011c58162000a63565b91508282048414831517620011df57620011de62000fcf565b5b5092915050565b7f45524332304361707065643a20636170206578636565646564000000000000005f82015250565b5f6200121c60198362000f51565b91506200122982620011e6565b602082019050919050565b5f6020820190508181035f8301526200124d816200120e565b9050919050565b7f496e73756666696369656e742066656520616d6f756e742073656e74000000005f82015250565b5f6200128a601c8362000f51565b9150620012978262001254565b602082019050919050565b5f6020820190508181035f830152620012bb816200127c565b9050919050565b7f496e76616c6964206665652072656365697665722061646472657373000000005f82015250565b5f620012f8601c8362000f51565b91506200130582620012c2565b602082019050919050565b5f6020820190508181035f8301526200132981620012ea565b9050919050565b5f81905092915050565b50565b5f6200134a5f8362001330565b915062001357826200133a565b5f82019050919050565b5f6200136d826200133d565b9150819050919050565b7f466565207472616e73666572206661696c6564000000000000000000000000005f82015250565b5f620013ad60138362000f51565b9150620013ba8262001377565b602082019050919050565b5f6020820190508181035f830152620013de816200139f565b9050919050565b5f620013f18262000a63565b9150620013fe8362000a63565b925082820190508082111562001419576200141862000fcf565b5b92915050565b6200142a8162000a63565b82525050565b5f606082019050620014455f83018662000c13565b6200145460208301856200141f565b6200146360408301846200141f565b949350505050565b5f602082019050620014805f8301846200141f565b92915050565b611af780620014945f395ff3fe608060405234801561000f575f80fd5b506004361061012a575f3560e01c806370a08231116100ab5780638da5cb5b1161006f5780638da5cb5b146102e657806395d89b4114610304578063a9059cbb14610322578063dd62ed3e14610352578063f2fde38b146103825761012a565b806370a0823114610268578063715018a614610298578063743bfe70146102a25780638456cb59146102c05780638baace25146102ca5761012a565b8063313ce567116100f2578063313ce567146101e8578063355274ea146102065780633f4ba83a1461022457806340c10f191461022e5780635c975abb1461024a5761012a565b806303073dfc1461012e57806306fdde031461014c578063095ea7b31461016a57806318160ddd1461019a57806323b872dd146101b8575b5f80fd5b61013661039e565b6040516101439190611473565b60405180910390f35b6101546103c6565b6040516101619190611516565b60405180910390f35b610184600480360381019061017f9190611597565b610456565b60405161019191906115ef565b60405180910390f35b6101a2610478565b6040516101af9190611617565b60405180910390f35b6101d260048036038101906101cd9190611630565b610481565b6040516101df91906115ef565b60405180910390f35b6101f06104af565b6040516101fd919061169b565b60405180910390f35b61020e6104c4565b60405161021b9190611617565b60405180910390f35b61022c6104cd565b005b61024860048036038101906102439190611597565b6104df565b005b6102526104f5565b60405161025f91906115ef565b60405180910390f35b610282600480360381019061027d91906116b4565b61050a565b60405161028f9190611617565b60405180910390f35b6102a0610550565b005b6102aa610563565b6040516102b79190611617565b60405180910390f35b6102c861056c565b005b6102e460048036038101906102df91906116b4565b61057e565b005b6102ee610600565b6040516102fb9190611473565b60405180910390f35b61030c610627565b6040516103199190611516565b60405180910390f35b61033c60048036038101906103379190611597565b6106b7565b60405161034991906115ef565b60405180910390f35b61036c600480360381019061036791906116df565b610a1a565b6040516103799190611617565b60405180910390f35b61039c600480360381019061039791906116b4565b610a9c565b005b5f60095f9054906101000a900473ffffffffffffffffffffffffffffffffffffffff16905090565b6060600480546103d59061174a565b80601f01602080910402602001604051908101604052809291908181526020018280546104019061174a565b801561044c5780601f106104235761010080835404028352916020019161044c565b820191905f5260205f20905b81548152906001019060200180831161042f57829003601f168201915b5050505050905090565b5f80610460610b20565b905061046d818585610b27565b600191505092915050565b5f600354905090565b5f8061048b610b20565b9050610498858285610b39565b6104a3858585610bcc565b60019150509392505050565b5f60065f9054906101000a900460ff16905090565b5f600754905090565b6104d5610cbc565b6104dd610d43565b565b6104e7610cbc565b6104f18282610da4565b5050565b5f8060149054906101000a900460ff16905090565b5f60015f8373ffffffffffffffffffffffffffffffffffffffff1673ffffffffffffffffffffffffffffffffffffffff1681526020019081526020015f20549050919050565b610558610cbc565b6105615f610e9d565b565b5f600854905090565b610574610cbc565b61057c610f5e565b565b610586610cbc565b8060095f6101000a81548173ffffffffffffffffffffffffffffffffffffffff021916908373ffffffffffffffffffffffffffffffffffffffff1602179055507f3ca9233bd3849737ab1049144180bc625db2d51ca2c5ce949e7209eb32faa3a2816040516105f59190611473565b60405180910390a150565b5f805f9054906101000a900473ffffffffffffffffffffffffffffffffffffffff16905090565b6060600580546106369061174a565b80601f01602080910402602001604051908101604052809291908181526020018280546106629061174a565b80156106ad5780601f10610684576101008083540402835291602001916106ad565b820191905f5260205f20905b81548152906001019060200180831161069057829003601f168201915b5050505050905090565b5f806106c1610b20565b90505f612710600854856106d591906117a7565b6106df9190611815565b90505f81856106ee9190611845565b90508460015f8573ffffffffffffffffffffffffffffffffffffffff1673ffffffffffffffffffffffffffffffffffffffff1681526020019081526020015f205410156107b3578260015f8573ffffffffffffffffffffffffffffffffffffffff1673ffffffffffffffffffffffffffffffffffffffff1681526020019081526020015f2054866040517fe450d38c0000000000000000000000000000000000000000000000000000000081526004016107aa93929190611878565b60405180910390fd5b8460015f8573ffffffffffffffffffffffffffffffffffffffff1673ffffffffffffffffffffffffffffffffffffffff1681526020019081526020015f205f8282546107ff9190611845565b925050819055508060015f8873ffffffffffffffffffffffffffffffffffffffff1673ffffffffffffffffffffffffffffffffffffffff1681526020019081526020015f205f82825461085291906118ad565b925050819055505f73ffffffffffffffffffffffffffffffffffffffff1660095f9054906101000a900473ffffffffffffffffffffffffffffffffffffffff1673ffffffffffffffffffffffffffffffffffffffff1614610922578160015f60095f9054906101000a900473ffffffffffffffffffffffffffffffffffffffff1673ffffffffffffffffffffffffffffffffffffffff1673ffffffffffffffffffffffffffffffffffffffff1681526020019081526020015f205f82825461091a91906118ad565b925050819055505b8573ffffffffffffffffffffffffffffffffffffffff168373ffffffffffffffffffffffffffffffffffffffff167fddf252ad1be2c89b69c2b068fc378daa952ba7f163c4a11628f55a4df523b3ef8360405161097f9190611617565b60405180910390a360095f9054906101000a900473ffffffffffffffffffffffffffffffffffffffff1673ffffffffffffffffffffffffffffffffffffffff168373ffffffffffffffffffffffffffffffffffffffff167fddf252ad1be2c89b69c2b068fc378daa952ba7f163c4a11628f55a4df523b3ef84604051610a059190611617565b60405180910390a36001935050505092915050565b5f60025f8473ffffffffffffffffffffffffffffffffffffffff1673ffffffffffffffffffffffffffffffffffffffff1681526020019081526020015f205f8373ffffffffffffffffffffffffffffffffffffffff1673ffffffffffffffffffffffffffffffffffffffff1681526020019081526020015f2054905092915050565b610aa4610cbc565b5f73ffffffffffffffffffffffffffffffffffffffff168173ffffffffffffffffffffffffffffffffffffffff1603610b14575f6040517f1e4fbdf7000000000000000000000000000000000000000000000000000000008152600401610b0b9190611473565b60405180910390fd5b610b1d81610e9d565b50565b5f33905090565b610b348383836001610fc0565b505050565b5f610b448484610a1a565b90507fffffffffffffffffffffffffffffffffffffffffffffffffffffffffffffffff811015610bc65781811015610bb7578281836040517ffb8f41b2000000000000000000000000000000000000000000000000000000008152600401610bae93929190611878565b60405180910390fd5b610bc584848484035f610fc0565b5b50505050565b5f73ffffffffffffffffffffffffffffffffffffffff168373ffffffffffffffffffffffffffffffffffffffff1603610c3c575f6040517f96c6fd1e000000000000000000000000000000000000000000000000000000008152600401610c339190611473565b60405180910390fd5b5f73ffffffffffffffffffffffffffffffffffffffff168273ffffffffffffffffffffffffffffffffffffffff1603610cac575f6040517fec442f05000000000000000000000000000000000000000000000000000000008152600401610ca39190611473565b60405180910390fd5b610cb783838361118f565b505050565b610cc4610b20565b73ffffffffffffffffffffffffffffffffffffffff16610ce2610600565b73ffffffffffffffffffffffffffffffffffffffff1614610d4157610d05610b20565b6040517f118cdaa7000000000000000000000000000000000000000000000000000000008152600401610d389190611473565b60405180910390fd5b565b610d4b6113b3565b5f8060146101000a81548160ff0219169083151502179055507f5db9ee0a495bf2e6ff9c91a7834c1ba4fdd244a5e8aa4e537bd38aeae4b073aa610d8d610b20565b604051610d9a9190611473565b60405180910390a1565b610dac6104af565b600a610db89190611a0f565b610dc06104c4565b610dca91906117a7565b81610dd3610478565b610ddd91906118ad565b1115610e1e576040517f08c379a0000000000000000000000000000000000000000000000000000000008152600401610e1590611aa3565b60405180910390fd5b5f73ffffffffffffffffffffffffffffffffffffffff168273ffffffffffffffffffffffffffffffffffffffff1603610e8e575f6040517fec442f05000000000000000000000000000000000000000000000000000000008152600401610e859190611473565b60405180910390fd5b610e995f838361118f565b5050565b5f805f9054906101000a900473ffffffffffffffffffffffffffffffffffffffff169050815f806101000a81548173ffffffffffffffffffffffffffffffffffffffff021916908373ffffffffffffffffffffffffffffffffffffffff1602179055508173ffffffffffffffffffffffffffffffffffffffff168173ffffffffffffffffffffffffffffffffffffffff167f8be0079c531659141344cd1fd0a4f28419497f9722a3daafe3b4186f6b6457e060405160405180910390a35050565b610f666113f3565b60015f60146101000a81548160ff0219169083151502179055507f62e78cea01bee320cd4e420270b5ea74000d11b0c9f74754ebdbfc544b05a258610fa9610b20565b604051610fb69190611473565b60405180910390a1565b5f73ffffffffffffffffffffffffffffffffffffffff168473ffffffffffffffffffffffffffffffffffffffff1603611030575f6040517fe602df050000000000000000000000000000000000000000000000000000000081526004016110279190611473565b60405180910390fd5b5f73ffffffffffffffffffffffffffffffffffffffff168373ffffffffffffffffffffffffffffffffffffffff16036110a0575f6040517f94280d620000000000000000000000000000000000000000000000000000000081526004016110979190611473565b60405180910390fd5b8160025f8673ffffffffffffffffffffffffffffffffffffffff1673ffffffffffffffffffffffffffffffffffffffff1681526020019081526020015f205f8573ffffffffffffffffffffffffffffffffffffffff1673ffffffffffffffffffffffffffffffffffffffff1681526020019081526020015f20819055508015611189578273ffffffffffffffffffffffffffffffffffffffff168473ffffffffffffffffffffffffffffffffffffffff167f8c5be1e5ebec7d5bd14f71427d1e84f3dd0314c0f7b2291e5b200ac8c7c3b925846040516111809190611617565b60405180910390a35b50505050565b6111976113f3565b5f73ffffffffffffffffffffffffffffffffffffffff168373ffffffffffffffffffffffffffffffffffffffff16036111e7578060035f8282546111db91906118ad565b925050819055506112b7565b5f60015f8573ffffffffffffffffffffffffffffffffffffffff1673ffffffffffffffffffffffffffffffffffffffff1681526020019081526020015f2054905081811015611271578381836040517fe450d38c00000000000000000000000000000000000000000000000000000000815260040161126893929190611878565b60405180910390fd5b81810360015f8673ffffffffffffffffffffffffffffffffffffffff1673ffffffffffffffffffffffffffffffffffffffff1681526020019081526020015f2081905550505b5f73ffffffffffffffffffffffffffffffffffffffff168273ffffffffffffffffffffffffffffffffffffffff16036112fe578060035f8282540392505081905550611349565b8060015f8473ffffffffffffffffffffffffffffffffffffffff1673ffffffffffffffffffffffffffffffffffffffff1681526020019081526020015f205f82825401925050819055505b8173ffffffffffffffffffffffffffffffffffffffff168373ffffffffffffffffffffffffffffffffffffffff167fddf252ad1be2c89b69c2b068fc378daa952ba7f163c4a11628f55a4df523b3ef836040516113a69190611617565b60405180910390a3505050565b6113bb6104f5565b6113f1576040517f8dfc202b00000000000000000000000000000000000000000000000000000000815260040160405180910390fd5b565b6113fb6104f5565b15611432576040517fd93c066500000000000000000000000000000000000000000000000000000000815260040160405180910390fd5b565b5f73ffffffffffffffffffffffffffffffffffffffff82169050919050565b5f61145d82611434565b9050919050565b61146d81611453565b82525050565b5f6020820190506114865f830184611464565b92915050565b5f81519050919050565b5f82825260208201905092915050565b5f5b838110156114c35780820151818401526020810190506114a8565b5f8484015250505050565b5f601f19601f8301169050919050565b5f6114e88261148c565b6114f28185611496565b93506115028185602086016114a6565b61150b816114ce565b840191505092915050565b5f6020820190508181035f83015261152e81846114de565b905092915050565b5f80fd5b61154381611453565b811461154d575f80fd5b50565b5f8135905061155e8161153a565b92915050565b5f819050919050565b61157681611564565b8114611580575f80fd5b50565b5f813590506115918161156d565b92915050565b5f80604083850312156115ad576115ac611536565b5b5f6115ba85828601611550565b92505060206115cb85828601611583565b9150509250929050565b5f8115159050919050565b6115e9816115d5565b82525050565b5f6020820190506116025f8301846115e0565b92915050565b61161181611564565b82525050565b5f60208201905061162a5f830184611608565b92915050565b5f805f6060848603121561164757611646611536565b5b5f61165486828701611550565b935050602061166586828701611550565b925050604061167686828701611583565b9150509250925092565b5f60ff82169050919050565b61169581611680565b82525050565b5f6020820190506116ae5f83018461168c565b92915050565b5f602082840312156116c9576116c8611536565b5b5f6116d684828501611550565b91505092915050565b5f80604083850312156116f5576116f4611536565b5b5f61170285828601611550565b925050602061171385828601611550565b9150509250929050565b7f4e487b71000000000000000000000000000000000000000000000000000000005f52602260045260245ffd5b5f600282049050600182168061176157607f821691505b6020821081036117745761177361171d565b5b50919050565b7f4e487b71000000000000000000000000000000000000000000000000000000005f52601160045260245ffd5b5f6117b182611564565b91506117bc83611564565b92508282026117ca81611564565b915082820484148315176117e1576117e061177a565b5b5092915050565b7f4e487b71000000000000000000000000000000000000000000000000000000005f52601260045260245ffd5b5f61181f82611564565b915061182a83611564565b92508261183a576118396117e8565b5b828204905092915050565b5f61184f82611564565b915061185a83611564565b92508282039050818111156118725761187161177a565b5b92915050565b5f60608201905061188b5f830186611464565b6118986020830185611608565b6118a56040830184611608565b949350505050565b5f6118b782611564565b91506118c283611564565b92508282019050808211156118da576118d961177a565b5b92915050565b5f8160011c9050919050565b5f808291508390505b6001851115611935578086048111156119115761191061177a565b5b60018516156119205780820291505b808102905061192e856118e0565b94506118f5565b94509492505050565b5f8261194d5760019050611a08565b8161195a575f9050611a08565b8160018114611970576002811461197a576119a9565b6001915050611a08565b60ff84111561198c5761198b61177a565b5b8360020a9150848211156119a3576119a261177a565b5b50611a08565b5060208310610133831016604e8410600b84101617156119de5782820a9050838111156119d9576119d861177a565b5b611a08565b6119eb84848460016118ec565b92509050818404811115611a0257611a0161177a565b5b81810290505b9392505050565b5f611a1982611564565b9150611a2483611680565b9250611a517fffffffffffffffffffffffffffffffffffffffffffffffffffffffffffffffff848461193e565b905092915050565b7f45524332304361707065643a20636170206578636565646564000000000000005f82015250565b5f611a8d601983611496565b9150611a9882611a59565b602082019050919050565b5f6020820190508181035f830152611aba81611a81565b905091905056fea2646970667358221220eada4e7e2e336f4ce85151a7ca0a1f71a3d618870b755d814bcf3aec49512cab64736f6c63430008170033","linkReferences":{}},"methodIdentifiers":{"allowance(address,address)":"dd62ed3e","approve(address,uint256)":"095ea7b3","balanceOf(address)":"70a08231","cap()":"355274ea","decimals()":"313ce567","getTaxFeeRecipient()":"03073dfc","getTransferTaxBps()":"743bfe70","mint(address,uint256)":"40c10f19","name()":"06fdde03","owner()":"8da5cb5b","pause()":"8456cb59","paused()":"5c975abb","renounceOwnership()":"715018a6","symbol()":"95d89b41","totalSupply()":"18160ddd","transfer(address,uint256)":"a9059cbb","transferFrom(address,address,uint256)":"23b872dd","transferOwnership(address)":"f2fde38b","unpause()":"3f4ba83a","updateTaxFeeRecipient(address)":"8baace25"},"id":43}