{"abi":[{"type":"constructor","inputs":[{"name":"name_","type":"string","internalType":"string"},{"name":"symbol_","type":"string","internalType":"string"},{"name":"decimals_","type":"uint8","internalType":"uint8"},{"name":"totalSupply_","type":"uint256","internalType":"uint256"},{"name":"serviceFeeReceiver_","type":"address","internalType":"address"},{"name":"serviceFee_","type":"uint256","internalType":"uint256"},{"name":"transferTaxBps_","type":"uint256","internalType":"uint256"},{"name":"taxFeeRecipient_","type":"address","internalType":"address"}],"stateMutability":"payable"},{"type":"function","name":"allowance","inputs":[{"name":"owner","type":"address","internalType":"address"},{"name":"spender","type":"address","internalType":"address"}],"outputs":[{"name":"","type":"uint256","internalType":"uint256"}],"stateMutability":"view"},{"type":"function","name":"approve","inputs":[{"name":"spender","type":"address","internalType":"address"},{"name":"value","type":"uint256","internalType":"uint256"}],"outputs":[{"name":"","type":"bool","internalType":"bool"}],"stateMutability":"nonpayable"},{"type":"function","name":"balanceOf","inputs":[{"name":"account","type":"address","internalType":"address"}],"outputs":[{"name":"","type":"uint256","internalType":"uint256"}],"stateMutability":"view"},{"type":"function","name":"blacklist","inputs":[{"name":"account","type":"address","internalType":"address"}],"outputs":[],"stateMutability":"nonpayable"},{"type":"function","name":"decimals","inputs":[],"outputs":[{"name":"","type":"uint8","internalType":"uint8"}],"stateMutability":"view"},{"type":"function","name":"getTaxFeeRecipient","inputs":[],"outputs":[{"name":"","type":"address","internalType":"address"}],"stateMutability":"view"},{"type":"function","name":"getTransferTaxBps","inputs":[],"outputs":[{"name":"","type":"uint256","internalType":"uint256"}],"stateMutability":"view"},{"type":"function","name":"isBlacklisted","inputs":[{"name":"account","type":"address","internalType":"address"}],"outputs":[{"name":"","type":"bool","internalType":"bool"}],"stateMutability":"view"},{"type":"function","name":"mint","inputs":[{"name":"to","type":"address","internalType":"address"},{"name":"amount","type":"uint256","internalType":"uint256"}],"outputs":[],"stateMutability":"nonpayable"},{"type":"function","name":"name","inputs":[],"outputs":[{"name":"","type":"string","internalType":"string"}],"stateMutability":"view"},{"type":"function","name":"owner","inputs":[],"outputs":[{"name":"","type":"address","internalType":"address"}],"stateMutability":"view"},{"type":"function","name":"pause","inputs":[],"outputs":[],"stateMutability":"nonpayable"},{"type":"function","name":"paused","inputs":[],"outputs":[{"name":"","type":"bool","internalType":"bool"}],"stateMutability":"view"},{"type":"function","name":"renounceOwnership","inputs":[],"outputs":[],"stateMutability":"nonpayable"},{"type":"function","name":"symbol","inputs":[],"outputs":[{"name":"","type":"string","internalType":"string"}],"stateMutability":"view"},{"type":"function","name":"totalSupply","inputs":[],"outputs":[{"name":"","type":"uint256","internalType":"uint256"}],"stateMutability":"view"},{"type":"function","name":"transfer","inputs":[{"name":"to","type":"address","internalType":"address"},{"name":"value","type":"uint256","internalType":"uint256"}],"outputs":[{"name":"","type":"bool","internalType":"bool"}],"stateMutability":"nonpayable"},{"type":"function","name":"transferFrom","inputs":[{"name":"from","type":"address","internalType":"address"},{"name":"to","type":"address","internalType":"address"},{"name":"value","type":"uint256","internalType":"uint256"}],"outputs":[{"name":"","type":"bool","internalType":"bool"}],"stateMutability":"nonpayable"},{"type":"function","name":"transferOwnership","inputs":[{"name":"newOwner","type":"address","internalType":"address"}],"outputs":[],"stateMutability":"nonpayable"},{"type":"function","name":"unblacklist","inputs":[{"name":"account","type":"address","internalType":"address"}],"outputs":[],"stateMutability":"nonpayable"},{"type":"function","name":"unpause","inputs":[],"outputs":[],"stateMutability":"nonpayable"},{"type":"function","name":"updateTaxFeeRecipient","inputs":[{"name":"newTaxFeeRecipient","type":"address","internalType":"address"}],"outputs":[],"stateMutability":"nonpayable"},{"type":"event","name":"Approval","inputs":[{"name":"owner","type":"address","indexed":true,"internalType":"address"},{"name":"spender","type":"address","indexed":true,"internalType":"address"},{"name":"value","type":"uint256","indexed":false,"internalType":"uint256"}],"anonymous":false},{"type":"event","name":"Blacklisted","inputs":[{"name":"account","type":"address","indexed":true,"internalType":"address"}],"anonymous":false},{"type":"event","name":"OwnershipTransferred","inputs":[{"name":"previousOwner","type":"address","indexed":true,"internalType":"address"},{"name":"newOwner","type":"address","indexed":true,"internalType":"address"}],"anonymous":false},{"type":"event","name":"Paused","inputs":[{"name":"account","type":"address","indexed":false,"internalType":"address"}],"anonymous":false},{"type":"event","name":"TaxFeeRecipientUpdated","inputs":[{"name":"newTaxFeeRecipient","type":"address","indexed":false,"internalType":"address"}],"anonymous":false},{"type":"event","name":"Transfer","inputs":[{"name":"from","type":"address","indexed":true,"internalType":"address"},{"name":"to","type":"address","indexed":true,"internalType":"address"},{"name":"value","type":"uint256","indexed":false,"internalType":"uint256"}],"anonymous":false},{"type":"event","name":"Unblacklisted","inputs":[{"name":"account","type":"address","indexed":true,"internalType":"address"}],"anonymous":false},{"type":"event","name":"Unpaused","inputs":[{"name":"account","type":"address","indexed":false,"internalType":"address"}],"anonymous":false},{"type":"error","name":"ERC20InsufficientAllowance","inputs":[{"name":"spender","type":"address","internalType":"address"},{"name":"allowance","type":"uint256","internalType":"uint256"},{"name":"needed","type":"uint256","internalType":"uint256"}]},{"type":"error","name":"ERC20InsufficientBalance","inputs":[{"name":"sender","type":"address","internalType":"address"},{"name":"balance","type":"uint256","internalType":"uint256"},{"name":"needed","type":"uint256","internalType":"uint256"}]},{"type":"error","name":"ERC20InvalidApprover","inputs":[{"name":"approver","type":"address","internalType":"address"}]},{"type":"error","name":"ERC20InvalidReceiver","inputs":[{"name":"receiver","type":"address","internalType":"address"}]},{"type":"error","name":"ERC20InvalidSender","inputs":[{"name":"sender","type":"address","internalType":"address"}]},{"type":"error","name":"ERC20InvalidSpender","inputs":[{"name":"spender","type":"address","internalType":"address"}]},{"type":"error","name":"EnforcedPause","inputs":[]},{"type":"error","name":"ExpectedPause","inputs":[]},{"type":"error","name":"OwnableInvalidOwner","inputs":[{"name":"owner","type":"address","internalType":"address"}]},{"type":"error","name":"OwnableUnauthorizedAccount","inputs":[{"name":"account","type":"address","internalType":"address"}]}],"bytecode":{"object":"0x60806040526040516200336338038062003363833981810160405281019062000029919062000ae8565b335f73ffffffffffffffffffffffffffffffffffffffff168173ffffffffffffffffffffffffffffffffffffffff16036200009d575f6040517f1e4fbdf700000000000000000000000000000000000000000000000000000000815260040162000094919062000bfb565b60405180910390fd5b620000ae816200035460201b60201c565b505f8060146101000a81548160ff0219169083151502179055508760059081620000d9919062000e44565b508660069081620000eb919062000e44565b508560075f6101000a81548160ff021916908360ff160217905550816008819055508060095f6101000a81548173ffffffffffffffffffffffffffffffffffffffff021916908373ffffffffffffffffffffffffffffffffffffffff160217905550816008819055508060095f6101000a81548173ffffffffffffffffffffffffffffffffffffffff021916908373ffffffffffffffffffffffffffffffffffffffff16021790555082341015620001da576040517f08c379a0000000000000000000000000000000000000000000000000000000008152600401620001d19062000f86565b60405180910390fd5b5f73ffffffffffffffffffffffffffffffffffffffff168473ffffffffffffffffffffffffffffffffffffffff16036200024b576040517f08c379a0000000000000000000000000000000000000000000000000000000008152600401620002429062000ff4565b60405180910390fd5b5f8473ffffffffffffffffffffffffffffffffffffffff1684604051620002729062001045565b5f6040518083038185875af1925050503d805f8114620002ae576040519150601f19603f3d011682016040523d82523d5f602084013e620002b3565b606091505b5050905080620002fa576040517f08c379a0000000000000000000000000000000000000000000000000000000008152600401620002f190620010a9565b60405180910390fd5b620003456200030e6200041560201b60201c565b6200031e6200043c60201b60201c565b600a6200032c919062001246565b8862000339919062001296565b6200045160201b60201c565b505050505050505050620013ef565b5f805f9054906101000a900473ffffffffffffffffffffffffffffffffffffffff169050815f806101000a81548173ffffffffffffffffffffffffffffffffffffffff021916908373ffffffffffffffffffffffffffffffffffffffff1602179055508173ffffffffffffffffffffffffffffffffffffffff168173ffffffffffffffffffffffffffffffffffffffff167f8be0079c531659141344cd1fd0a4f28419497f9722a3daafe3b4186f6b6457e060405160405180910390a35050565b5f805f9054906101000a900473ffffffffffffffffffffffffffffffffffffffff16905090565b5f60075f9054906101000a900460ff16905090565b5f73ffffffffffffffffffffffffffffffffffffffff168273ffffffffffffffffffffffffffffffffffffffff1603620004c4575f6040517fec442f05000000000000000000000000000000000000000000000000000000008152600401620004bb919062000bfb565b60405180910390fd5b620004d75f8383620004db60201b60201c565b5050565b620004eb6200083060201b60201c565b8260035f8273ffffffffffffffffffffffffffffffffffffffff1673ffffffffffffffffffffffffffffffffffffffff1681526020019081526020015f205f9054906101000a900460ff161562000579576040517f08c379a000000000000000000000000000000000000000000000000000000000815260040162000570906200132e565b60405180910390fd5b8260035f8273ffffffffffffffffffffffffffffffffffffffff1673ffffffffffffffffffffffffffffffffffffffff1681526020019081526020015f205f9054906101000a900460ff161562000607576040517f08c379a0000000000000000000000000000000000000000000000000000000008152600401620005fe906200132e565b60405180910390fd5b5f73ffffffffffffffffffffffffffffffffffffffff168573ffffffffffffffffffffffffffffffffffffffff16036200065b578260045f8282546200064e91906200134e565b925050819055506200072e565b5f60015f8773ffffffffffffffffffffffffffffffffffffffff1673ffffffffffffffffffffffffffffffffffffffff1681526020019081526020015f2054905083811015620006e8578581856040517fe450d38c000000000000000000000000000000000000000000000000000000008152600401620006df9392919062001399565b60405180910390fd5b83810360015f8873ffffffffffffffffffffffffffffffffffffffff1673ffffffffffffffffffffffffffffffffffffffff1681526020019081526020015f2081905550505b5f73ffffffffffffffffffffffffffffffffffffffff168473ffffffffffffffffffffffffffffffffffffffff160362000777578260045f8282540392505081905550620007c2565b8260015f8673ffffffffffffffffffffffffffffffffffffffff1673ffffffffffffffffffffffffffffffffffffffff1681526020019081526020015f205f82825401925050819055505b8373ffffffffffffffffffffffffffffffffffffffff168573ffffffffffffffffffffffffffffffffffffffff167fddf252ad1be2c89b69c2b068fc378daa952ba7f163c4a11628f55a4df523b3ef85604051620008219190620013d4565b60405180910390a35050505050565b620008406200087a60201b60201c565b1562000878576040517fd93c066500000000000000000000000000000000000000000000000000000000815260040160405180910390fd5b565b5f8060149054906101000a900460ff16905090565b5f604051905090565b5f80fd5b5f80fd5b5f80fd5b5f80fd5b5f601f19601f8301169050919050565b7f4e487b71000000000000000000000000000000000000000000000000000000005f52604160045260245ffd5b620008f082620008a8565b810181811067ffffffffffffffff82111715620009125762000911620008b8565b5b80604052505050565b5f620009266200088f565b9050620009348282620008e5565b919050565b5f67ffffffffffffffff821115620009565762000955620008b8565b5b6200096182620008a8565b9050602081019050919050565b5f5b838110156200098d57808201518184015260208101905062000970565b5f8484015250505050565b5f620009ae620009a88462000939565b6200091b565b905082815260208101848484011115620009cd57620009cc620008a4565b5b620009da8482856200096e565b509392505050565b5f82601f830112620009f957620009f8620008a0565b5b815162000a0b84826020860162000998565b91505092915050565b5f60ff82169050919050565b62000a2b8162000a14565b811462000a36575f80fd5b50565b5f8151905062000a498162000a20565b92915050565b5f819050919050565b62000a638162000a4f565b811462000a6e575f80fd5b50565b5f8151905062000a818162000a58565b92915050565b5f73ffffffffffffffffffffffffffffffffffffffff82169050919050565b5f62000ab28262000a87565b9050919050565b62000ac48162000aa6565b811462000acf575f80fd5b50565b5f8151905062000ae28162000ab9565b92915050565b5f805f805f805f80610100898b03121562000b085762000b0762000898565b5b5f89015167ffffffffffffffff81111562000b285762000b276200089c565b5b62000b368b828c01620009e2565b985050602089015167ffffffffffffffff81111562000b5a5762000b596200089c565b5b62000b688b828c01620009e2565b975050604062000b7b8b828c0162000a39565b965050606062000b8e8b828c0162000a71565b955050608062000ba18b828c0162000ad2565b94505060a062000bb48b828c0162000a71565b93505060c062000bc78b828c0162000a71565b92505060e062000bda8b828c0162000ad2565b9150509295985092959890939650565b62000bf58162000aa6565b82525050565b5f60208201905062000c105f83018462000bea565b92915050565b5f81519050919050565b7f4e487b71000000000000000000000000000000000000000000000000000000005f52602260045260245ffd5b5f600282049050600182168062000c6557607f821691505b60208210810362000c7b5762000c7a62000c20565b5b50919050565b5f819050815f5260205f209050919050565b5f6020601f8301049050919050565b5f82821b905092915050565b5f6008830262000cdf7fffffffffffffffffffffffffffffffffffffffffffffffffffffffffffffffff8262000ca2565b62000ceb868362000ca2565b95508019841693508086168417925050509392505050565b5f819050919050565b5f62000d2c62000d2662000d208462000a4f565b62000d03565b62000a4f565b9050919050565b5f819050919050565b62000d478362000d0c565b62000d5f62000d568262000d33565b84845462000cae565b825550505050565b5f90565b62000d7562000d67565b62000d8281848462000d3c565b505050565b5b8181101562000da95762000d9d5f8262000d6b565b60018101905062000d88565b5050565b601f82111562000df85762000dc28162000c81565b62000dcd8462000c93565b8101602085101562000ddd578190505b62000df562000dec8562000c93565b83018262000d87565b50505b505050565b5f82821c905092915050565b5f62000e1a5f198460080262000dfd565b1980831691505092915050565b5f62000e34838362000e09565b9150826002028217905092915050565b62000e4f8262000c16565b67ffffffffffffffff81111562000e6b5762000e6a620008b8565b5b62000e77825462000c4d565b62000e8482828562000dad565b5f60209050601f83116001811462000eba575f841562000ea5578287015190505b62000eb1858262000e27565b86555062000f20565b601f19841662000eca8662000c81565b5f5b8281101562000ef35784890151825560018201915060208501945060208101905062000ecc565b8683101562000f13578489015162000f0f601f89168262000e09565b8355505b6001600288020188555050505b505050505050565b5f82825260208201905092915050565b7f496e73756666696369656e742066656520616d6f756e742073656e74000000005f82015250565b5f62000f6e601c8362000f28565b915062000f7b8262000f38565b602082019050919050565b5f6020820190508181035f83015262000f9f8162000f60565b9050919050565b7f496e76616c6964206665652072656365697665722061646472657373000000005f82015250565b5f62000fdc601c8362000f28565b915062000fe98262000fa6565b602082019050919050565b5f6020820190508181035f8301526200100d8162000fce565b9050919050565b5f81905092915050565b50565b5f6200102e5f8362001014565b91506200103b826200101e565b5f82019050919050565b5f620010518262001021565b9150819050919050565b7f466565207472616e73666572206661696c6564000000000000000000000000005f82015250565b5f6200109160138362000f28565b91506200109e826200105b565b602082019050919050565b5f6020820190508181035f830152620010c28162001083565b9050919050565b7f4e487b71000000000000000000000000000000000000000000000000000000005f52601160045260245ffd5b5f8160011c9050919050565b5f808291508390505b600185111562001153578086048111156200112b576200112a620010c9565b5b60018516156200113b5780820291505b80810290506200114b85620010f6565b94506200110b565b94509492505050565b5f826200116d57600190506200123f565b816200117c575f90506200123f565b8160018114620011955760028114620011a057620011d6565b60019150506200123f565b60ff841115620011b557620011b4620010c9565b5b8360020a915084821115620011cf57620011ce620010c9565b5b506200123f565b5060208310610133831016604e8410600b8410161715620012105782820a9050838111156200120a5762001209620010c9565b5b6200123f565b6200121f848484600162001102565b92509050818404811115620012395762001238620010c9565b5b81810290505b9392505050565b5f620012528262000a4f565b91506200125f8362000a14565b92506200128e7fffffffffffffffffffffffffffffffffffffffffffffffffffffffffffffffff84846200115c565b905092915050565b5f620012a28262000a4f565b9150620012af8362000a4f565b9250828202620012bf8162000a4f565b91508282048414831517620012d957620012d8620010c9565b5b5092915050565b7f4164647265737320697320626c61636b6c6973746564000000000000000000005f82015250565b5f6200131660168362000f28565b91506200132382620012e0565b602082019050919050565b5f6020820190508181035f830152620013478162001308565b9050919050565b5f6200135a8262000a4f565b9150620013678362000a4f565b9250828201905080821115620013825762001381620010c9565b5b92915050565b620013938162000a4f565b82525050565b5f606082019050620013ae5f83018662000bea565b620013bd602083018562001388565b620013cc604083018462001388565b949350505050565b5f602082019050620013e95f83018462001388565b92915050565b611f6680620013fd5f395ff3fe608060405234801561000f575f80fd5b5060043610610140575f3560e01c8063743bfe70116100b657806395d89b411161007a57806395d89b4114610318578063a9059cbb14610336578063dd62ed3e14610366578063f2fde38b14610396578063f9f92be4146103b2578063fe575a87146103ce57610140565b8063743bfe701461029a57806375e3661e146102b85780638456cb59146102d45780638baace25146102de5780638da5cb5b146102fa57610140565b8063313ce56711610108578063313ce567146101fe5780633f4ba83a1461021c57806340c10f19146102265780635c975abb1461024257806370a0823114610260578063715018a61461029057610140565b806303073dfc1461014457806306fdde0314610162578063095ea7b31461018057806318160ddd146101b057806323b872dd146101ce575b5f80fd5b61014c6103fe565b6040516101599190611a5b565b60405180910390f35b61016a610426565b6040516101779190611afe565b60405180910390f35b61019a60048036038101906101959190611b7f565b6104b6565b6040516101a79190611bd7565b60405180910390f35b6101b86105f7565b6040516101c59190611bff565b60405180910390f35b6101e860048036038101906101e39190611c18565b610600565b6040516101f59190611bd7565b60405180910390f35b610206610746565b6040516102139190611c83565b60405180910390f35b61022461075b565b005b610240600480360381019061023b9190611b7f565b61076d565b005b61024a610783565b6040516102579190611bd7565b60405180910390f35b61027a60048036038101906102759190611c9c565b610798565b6040516102879190611bff565b60405180910390f35b6102986107de565b005b6102a26107f1565b6040516102af9190611bff565b60405180910390f35b6102d260048036038101906102cd9190611c9c565b6107fa565b005b6102dc61089c565b005b6102f860048036038101906102f39190611c9c565b6108ae565b005b610302610930565b60405161030f9190611a5b565b60405180910390f35b610320610957565b60405161032d9190611afe565b60405180910390f35b610350600480360381019061034b9190611b7f565b6109e7565b60405161035d9190611bd7565b60405180910390f35b610380600480360381019061037b9190611cc7565b610e6f565b60405161038d9190611bff565b60405180910390f35b6103b060048036038101906103ab9190611c9c565b610ef1565b005b6103cc60048036038101906103c79190611c9c565b610f75565b005b6103e860048036038101906103e39190611c9c565b611018565b6040516103f59190611bd7565b60405180910390f35b5f60095f9054906101000a900473ffffffffffffffffffffffffffffffffffffffff16905090565b60606005805461043590611d32565b80601f016020809104026020016040519081016040528092919081815260200182805461046190611d32565b80156104ac5780601f10610483576101008083540402835291602001916104ac565b820191905f5260205f20905b81548152906001019060200180831161048f57829003601f168201915b5050505050905090565b5f6104bf61106a565b60035f8273ffffffffffffffffffffffffffffffffffffffff1673ffffffffffffffffffffffffffffffffffffffff1681526020019081526020015f205f9054906101000a900460ff1615610549576040517f08c379a000000000000000000000000000000000000000000000000000000000815260040161054090611dac565b60405180910390fd5b8360035f8273ffffffffffffffffffffffffffffffffffffffff1673ffffffffffffffffffffffffffffffffffffffff1681526020019081526020015f205f9054906101000a900460ff16156105d4576040517f08c379a00000000000000000000000000000000000000000000000000000000081526004016105cb90611dac565b60405180910390fd5b5f6105dd61106a565b90506105ea818787611071565b6001935050505092915050565b5f600454905090565b5f8360035f8273ffffffffffffffffffffffffffffffffffffffff1673ffffffffffffffffffffffffffffffffffffffff1681526020019081526020015f205f9054906101000a900460ff161561068c576040517f08c379a000000000000000000000000000000000000000000000000000000000815260040161068390611dac565b60405180910390fd5b8360035f8273ffffffffffffffffffffffffffffffffffffffff1673ffffffffffffffffffffffffffffffffffffffff1681526020019081526020015f205f9054906101000a900460ff1615610717576040517f08c379a000000000000000000000000000000000000000000000000000000000815260040161070e90611dac565b60405180910390fd5b5f61072061106a565b905061072d878287611083565b610738878787611116565b600193505050509392505050565b5f60075f9054906101000a900460ff16905090565b610763611206565b61076b61128d565b565b610775611206565b61077f82826112ee565b5050565b5f8060149054906101000a900460ff16905090565b5f60015f8373ffffffffffffffffffffffffffffffffffffffff1673ffffffffffffffffffffffffffffffffffffffff1681526020019081526020015f20549050919050565b6107e6611206565b6107ef5f61136d565b565b5f600854905090565b610802611206565b5f60035f8373ffffffffffffffffffffffffffffffffffffffff1673ffffffffffffffffffffffffffffffffffffffff1681526020019081526020015f205f6101000a81548160ff0219169083151502179055508073ffffffffffffffffffffffffffffffffffffffff167f7534c63860313c46c473e4e98328f37017e9674e2162faf1a3ad7a96236c3b7b60405160405180910390a250565b6108a4611206565b6108ac61142e565b565b6108b6611206565b8060095f6101000a81548173ffffffffffffffffffffffffffffffffffffffff021916908373ffffffffffffffffffffffffffffffffffffffff1602179055507f3ca9233bd3849737ab1049144180bc625db2d51ca2c5ce949e7209eb32faa3a2816040516109259190611a5b565b60405180910390a150565b5f805f9054906101000a900473ffffffffffffffffffffffffffffffffffffffff16905090565b60606006805461096690611d32565b80601f016020809104026020016040519081016040528092919081815260200182805461099290611d32565b80156109dd5780601f106109b4576101008083540402835291602001916109dd565b820191905f5260205f20905b8154815290600101906020018083116109c057829003601f168201915b5050505050905090565b5f3360035f8273ffffffffffffffffffffffffffffffffffffffff1673ffffffffffffffffffffffffffffffffffffffff1681526020019081526020015f205f9054906101000a900460ff1615610a73576040517f08c379a0000000000000000000000000000000000000000000000000000000008152600401610a6a90611dac565b60405180910390fd5b8360035f8273ffffffffffffffffffffffffffffffffffffffff1673ffffffffffffffffffffffffffffffffffffffff1681526020019081526020015f205f9054906101000a900460ff1615610afe576040517f08c379a0000000000000000000000000000000000000000000000000000000008152600401610af590611dac565b60405180910390fd5b5f610b0761106a565b90505f61271060085487610b1b9190611df7565b610b259190611e65565b90505f8187610b349190611e95565b90508660015f8573ffffffffffffffffffffffffffffffffffffffff1673ffffffffffffffffffffffffffffffffffffffff1681526020019081526020015f20541015610bf9578260015f8573ffffffffffffffffffffffffffffffffffffffff1673ffffffffffffffffffffffffffffffffffffffff1681526020019081526020015f2054886040517fe450d38c000000000000000000000000000000000000000000000000000000008152600401610bf093929190611ec8565b60405180910390fd5b8660015f8573ffffffffffffffffffffffffffffffffffffffff1673ffffffffffffffffffffffffffffffffffffffff1681526020019081526020015f205f828254610c459190611e95565b925050819055508060015f8a73ffffffffffffffffffffffffffffffffffffffff1673ffffffffffffffffffffffffffffffffffffffff1681526020019081526020015f205f828254610c989190611efd565b925050819055505f73ffffffffffffffffffffffffffffffffffffffff1660095f9054906101000a900473ffffffffffffffffffffffffffffffffffffffff1673ffffffffffffffffffffffffffffffffffffffff1614158015610cfb57505f82115b15610dfb578160015f60095f9054906101000a900473ffffffffffffffffffffffffffffffffffffffff1673ffffffffffffffffffffffffffffffffffffffff1673ffffffffffffffffffffffffffffffffffffffff1681526020019081526020015f205f828254610d6d9190611efd565b9250508190555060095f9054906101000a900473ffffffffffffffffffffffffffffffffffffffff1673ffffffffffffffffffffffffffffffffffffffff168373ffffffffffffffffffffffffffffffffffffffff167fddf252ad1be2c89b69c2b068fc378daa952ba7f163c4a11628f55a4df523b3ef84604051610df29190611bff565b60405180910390a35b8773ffffffffffffffffffffffffffffffffffffffff168373ffffffffffffffffffffffffffffffffffffffff167fddf252ad1be2c89b69c2b068fc378daa952ba7f163c4a11628f55a4df523b3ef83604051610e589190611bff565b60405180910390a360019550505050505092915050565b5f60025f8473ffffffffffffffffffffffffffffffffffffffff1673ffffffffffffffffffffffffffffffffffffffff1681526020019081526020015f205f8373ffffffffffffffffffffffffffffffffffffffff1673ffffffffffffffffffffffffffffffffffffffff1681526020019081526020015f2054905092915050565b610ef9611206565b5f73ffffffffffffffffffffffffffffffffffffffff168173ffffffffffffffffffffffffffffffffffffffff1603610f69575f6040517f1e4fbdf7000000000000000000000000000000000000000000000000000000008152600401610f609190611a5b565b60405180910390fd5b610f728161136d565b50565b610f7d611206565b600160035f8373ffffffffffffffffffffffffffffffffffffffff1673ffffffffffffffffffffffffffffffffffffffff1681526020019081526020015f205f6101000a81548160ff0219169083151502179055508073ffffffffffffffffffffffffffffffffffffffff167fffa4e6181777692565cf28528fc88fd1516ea86b56da075235fa575af6a4b85560405160405180910390a250565b5f60035f8373ffffffffffffffffffffffffffffffffffffffff1673ffffffffffffffffffffffffffffffffffffffff1681526020019081526020015f205f9054906101000a900460ff169050919050565b5f33905090565b61107e8383836001611490565b505050565b5f61108e8484610e6f565b90507fffffffffffffffffffffffffffffffffffffffffffffffffffffffffffffffff8110156111105781811015611101578281836040517ffb8f41b20000000000000000000000000000000000000000000000000000000081526004016110f893929190611ec8565b60405180910390fd5b61110f84848484035f611490565b5b50505050565b5f73ffffffffffffffffffffffffffffffffffffffff168373ffffffffffffffffffffffffffffffffffffffff1603611186575f6040517f96c6fd1e00000000000000000000000000000000000000000000000000000000815260040161117d9190611a5b565b60405180910390fd5b5f73ffffffffffffffffffffffffffffffffffffffff168273ffffffffffffffffffffffffffffffffffffffff16036111f6575f6040517fec442f050000000000000000000000000000000000000000000000000000000081526004016111ed9190611a5b565b60405180910390fd5b61120183838361165f565b505050565b61120e61106a565b73ffffffffffffffffffffffffffffffffffffffff1661122c610930565b73ffffffffffffffffffffffffffffffffffffffff161461128b5761124f61106a565b6040517f118cdaa70000000000000000000000000000000000000000000000000000000081526004016112829190611a5b565b60405180910390fd5b565b61129561199b565b5f8060146101000a81548160ff0219169083151502179055507f5db9ee0a495bf2e6ff9c91a7834c1ba4fdd244a5e8aa4e537bd38aeae4b073aa6112d761106a565b6040516112e49190611a5b565b60405180910390a1565b5f73ffffffffffffffffffffffffffffffffffffffff168273ffffffffffffffffffffffffffffffffffffffff160361135e575f6040517fec442f050000000000000000000000000000000000000000000000000000000081526004016113559190611a5b565b60405180910390fd5b6113695f838361165f565b5050565b5f805f9054906101000a900473ffffffffffffffffffffffffffffffffffffffff169050815f806101000a81548173ffffffffffffffffffffffffffffffffffffffff021916908373ffffffffffffffffffffffffffffffffffffffff1602179055508173ffffffffffffffffffffffffffffffffffffffff168173ffffffffffffffffffffffffffffffffffffffff167f8be0079c531659141344cd1fd0a4f28419497f9722a3daafe3b4186f6b6457e060405160405180910390a35050565b6114366119db565b60015f60146101000a81548160ff0219169083151502179055507f62e78cea01bee320cd4e420270b5ea74000d11b0c9f74754ebdbfc544b05a25861147961106a565b6040516114869190611a5b565b60405180910390a1565b5f73ffffffffffffffffffffffffffffffffffffffff168473ffffffffffffffffffffffffffffffffffffffff1603611500575f6040517fe602df050000000000000000000000000000000000000000000000000000000081526004016114f79190611a5b565b60405180910390fd5b5f73ffffffffffffffffffffffffffffffffffffffff168373ffffffffffffffffffffffffffffffffffffffff1603611570575f6040517f94280d620000000000000000000000000000000000000000000000000000000081526004016115679190611a5b565b60405180910390fd5b8160025f8673ffffffffffffffffffffffffffffffffffffffff1673ffffffffffffffffffffffffffffffffffffffff1681526020019081526020015f205f8573ffffffffffffffffffffffffffffffffffffffff1673ffffffffffffffffffffffffffffffffffffffff1681526020019081526020015f20819055508015611659578273ffffffffffffffffffffffffffffffffffffffff168473ffffffffffffffffffffffffffffffffffffffff167f8c5be1e5ebec7d5bd14f71427d1e84f3dd0314c0f7b2291e5b200ac8c7c3b925846040516116509190611bff565b60405180910390a35b50505050565b6116676119db565b8260035f8273ffffffffffffffffffffffffffffffffffffffff1673ffffffffffffffffffffffffffffffffffffffff1681526020019081526020015f205f9054906101000a900460ff16156116f2576040517f08c379a00000000000000000000000000000000000000000000000000000000081526004016116e990611dac565b60405180910390fd5b8260035f8273ffffffffffffffffffffffffffffffffffffffff1673ffffffffffffffffffffffffffffffffffffffff1681526020019081526020015f205f9054906101000a900460ff161561177d576040517f08c379a000000000000000000000000000000000000000000000000000000000815260040161177490611dac565b60405180910390fd5b5f73ffffffffffffffffffffffffffffffffffffffff168573ffffffffffffffffffffffffffffffffffffffff16036117cd578260045f8282546117c19190611efd565b9250508190555061189d565b5f60015f8773ffffffffffffffffffffffffffffffffffffffff1673ffffffffffffffffffffffffffffffffffffffff1681526020019081526020015f2054905083811015611857578581856040517fe450d38c00000000000000000000000000000000000000000000000000000000815260040161184e93929190611ec8565b60405180910390fd5b83810360015f8873ffffffffffffffffffffffffffffffffffffffff1673ffffffffffffffffffffffffffffffffffffffff1681526020019081526020015f2081905550505b5f73ffffffffffffffffffffffffffffffffffffffff168473ffffffffffffffffffffffffffffffffffffffff16036118e4578260045f828254039250508190555061192f565b8260015f8673ffffffffffffffffffffffffffffffffffffffff1673ffffffffffffffffffffffffffffffffffffffff1681526020019081526020015f205f82825401925050819055505b8373ffffffffffffffffffffffffffffffffffffffff168573ffffffffffffffffffffffffffffffffffffffff167fddf252ad1be2c89b69c2b068fc378daa952ba7f163c4a11628f55a4df523b3ef8560405161198c9190611bff565b60405180910390a35050505050565b6119a3610783565b6119d9576040517f8dfc202b00000000000000000000000000000000000000000000000000000000815260040160405180910390fd5b565b6119e3610783565b15611a1a576040517fd93c066500000000000000000000000000000000000000000000000000000000815260040160405180910390fd5b565b5f73ffffffffffffffffffffffffffffffffffffffff82169050919050565b5f611a4582611a1c565b9050919050565b611a5581611a3b565b82525050565b5f602082019050611a6e5f830184611a4c565b92915050565b5f81519050919050565b5f82825260208201905092915050565b5f5b83811015611aab578082015181840152602081019050611a90565b5f8484015250505050565b5f601f19601f8301169050919050565b5f611ad082611a74565b611ada8185611a7e565b9350611aea818560208601611a8e565b611af381611ab6565b840191505092915050565b5f6020820190508181035f830152611b168184611ac6565b905092915050565b5f80fd5b611b2b81611a3b565b8114611b35575f80fd5b50565b5f81359050611b4681611b22565b92915050565b5f819050919050565b611b5e81611b4c565b8114611b68575f80fd5b50565b5f81359050611b7981611b55565b92915050565b5f8060408385031215611b9557611b94611b1e565b5b5f611ba285828601611b38565b9250506020611bb385828601611b6b565b9150509250929050565b5f8115159050919050565b611bd181611bbd565b82525050565b5f602082019050611bea5f830184611bc8565b92915050565b611bf981611b4c565b82525050565b5f602082019050611c125f830184611bf0565b92915050565b5f805f60608486031215611c2f57611c2e611b1e565b5b5f611c3c86828701611b38565b9350506020611c4d86828701611b38565b9250506040611c5e86828701611b6b565b9150509250925092565b5f60ff82169050919050565b611c7d81611c68565b82525050565b5f602082019050611c965f830184611c74565b92915050565b5f60208284031215611cb157611cb0611b1e565b5b5f611cbe84828501611b38565b91505092915050565b5f8060408385031215611cdd57611cdc611b1e565b5b5f611cea85828601611b38565b9250506020611cfb85828601611b38565b9150509250929050565b7f4e487b71000000000000000000000000000000000000000000000000000000005f52602260045260245ffd5b5f6002820490506001821680611d4957607f821691505b602082108103611d5c57611d5b611d05565b5b50919050565b7f4164647265737320697320626c61636b6c6973746564000000000000000000005f82015250565b5f611d96601683611a7e565b9150611da182611d62565b602082019050919050565b5f6020820190508181035f830152611dc381611d8a565b9050919050565b7f4e487b71000000000000000000000000000000000000000000000000000000005f52601160045260245ffd5b5f611e0182611b4c565b9150611e0c83611b4c565b9250828202611e1a81611b4c565b91508282048414831517611e3157611e30611dca565b5b5092915050565b7f4e487b71000000000000000000000000000000000000000000000000000000005f52601260045260245ffd5b5f611e6f82611b4c565b9150611e7a83611b4c565b925082611e8a57611e89611e38565b5b828204905092915050565b5f611e9f82611b4c565b9150611eaa83611b4c565b9250828203905081811115611ec257611ec1611dca565b5b92915050565b5f606082019050611edb5f830186611a4c565b611ee86020830185611bf0565b611ef56040830184611bf0565b949350505050565b5f611f0782611b4c565b9150611f1283611b4c565b9250828201905080821115611f2a57611f29611dca565b5b9291505056fea26469706673582212208a3eade9de4154ffd877380627c78cf3e140536fe6aee6891499130e04016afd64736f6c63430008170033","linkReferences":{}},"methodIdentifiers":{"allowance(address,address)":"dd62ed3e","approve(address,uint256)":"095ea7b3","balanceOf(address)":"70a08231","blacklist(address)":"f9f92be4","decimals()":"313ce567","getTaxFeeRecipient()":"03073dfc","getTransferTaxBps()":"743bfe70","isBlacklisted(address)":"fe575a87","mint(address,uint256)":"40c10f19","name()":"06fdde03","owner()":"8da5cb5b","pause()":"8456cb59","paused()":"5c975abb","renounceOwnership()":"715018a6","symbol()":"95d89b41","totalSupply()":"18160ddd","transfer(address,uint256)":"a9059cbb","transferFrom(address,address,uint256)":"23b872dd","transferOwnership(address)":"f2fde38b","unblacklist(address)":"75e3661e","unpause()":"3f4ba83a","updateTaxFeeRecipient(address)":"8baace25"},"id":31}