{"abi":[{"type":"constructor","inputs":[{"name":"name_","type":"string","internalType":"string"},{"name":"symbol_","type":"string","internalType":"string"},{"name":"decimals_","type":"uint8","internalType":"uint8"},{"name":"totalSupply_","type":"uint256","internalType":"uint256"},{"name":"serviceFeeReceiver_","type":"address","internalType":"address"},{"name":"serviceFee_","type":"uint256","internalType":"uint256"},{"name":"transferTaxBps_","type":"uint256","internalType":"uint256"},{"name":"taxFeeRecipient_","type":"address","internalType":"address"}],"stateMutability":"payable"},{"type":"function","name":"allowance","inputs":[{"name":"owner","type":"address","internalType":"address"},{"name":"spender","type":"address","internalType":"address"}],"outputs":[{"name":"","type":"uint256","internalType":"uint256"}],"stateMutability":"view"},{"type":"function","name":"approve","inputs":[{"name":"spender","type":"address","internalType":"address"},{"name":"value","type":"uint256","internalType":"uint256"}],"outputs":[{"name":"","type":"bool","internalType":"bool"}],"stateMutability":"nonpayable"},{"type":"function","name":"balanceOf","inputs":[{"name":"account","type":"address","internalType":"address"}],"outputs":[{"name":"","type":"uint256","internalType":"uint256"}],"stateMutability":"view"},{"type":"function","name":"burn","inputs":[{"name":"value","type":"uint256","internalType":"uint256"}],"outputs":[],"stateMutability":"nonpayable"},{"type":"function","name":"burnFrom","inputs":[{"name":"account","type":"address","internalType":"address"},{"name":"value","type":"uint256","internalType":"uint256"}],"outputs":[],"stateMutability":"nonpayable"},{"type":"function","name":"decimals","inputs":[],"outputs":[{"name":"","type":"uint8","internalType":"uint8"}],"stateMutability":"view"},{"type":"function","name":"name","inputs":[],"outputs":[{"name":"","type":"string","internalType":"string"}],"stateMutability":"view"},{"type":"function","name":"owner","inputs":[],"outputs":[{"name":"","type":"address","internalType":"address"}],"stateMutability":"view"},{"type":"function","name":"renounceOwnership","inputs":[],"outputs":[],"stateMutability":"nonpayable"},{"type":"function","name":"symbol","inputs":[],"outputs":[{"name":"","type":"string","internalType":"string"}],"stateMutability":"view"},{"type":"function","name":"totalSupply","inputs":[],"outputs":[{"name":"","type":"uint256","internalType":"uint256"}],"stateMutability":"view"},{"type":"function","name":"transfer","inputs":[{"name":"to","type":"address","internalType":"address"},{"name":"value","type":"uint256","internalType":"uint256"}],"outputs":[{"name":"","type":"bool","internalType":"bool"}],"stateMutability":"nonpayable"},{"type":"function","name":"transferFrom","inputs":[{"name":"from","type":"address","internalType":"address"},{"name":"to","type":"address","internalType":"address"},{"name":"value","type":"uint256","internalType":"uint256"}],"outputs":[{"name":"","type":"bool","internalType":"bool"}],"stateMutability":"nonpayable"},{"type":"function","name":"transferOwnership","inputs":[{"name":"newOwner","type":"address","internalType":"address"}],"outputs":[],"stateMutability":"nonpayable"},{"type":"event","name":"Approval","inputs":[{"name":"owner","type":"address","indexed":true,"internalType":"address"},{"name":"spender","type":"address","indexed":true,"internalType":"address"},{"name":"value","type":"uint256","indexed":false,"internalType":"uint256"}],"anonymous":false},{"type":"event","name":"OwnershipTransferred","inputs":[{"name":"previousOwner","type":"address","indexed":true,"internalType":"address"},{"name":"newOwner","type":"address","indexed":true,"internalType":"address"}],"anonymous":false},{"type":"event","name":"TaxFeeRecipientUpdated","inputs":[{"name":"newTaxFeeRecipient","type":"address","indexed":false,"internalType":"address"}],"anonymous":false},{"type":"event","name":"Transfer","inputs":[{"name":"from","type":"address","indexed":true,"internalType":"address"},{"name":"to","type":"address","indexed":true,"internalType":"address"},{"name":"value","type":"uint256","indexed":false,"internalType":"uint256"}],"anonymous":false},{"type":"error","name":"ERC20InsufficientAllowance","inputs":[{"name":"spender","type":"address","internalType":"address"},{"name":"allowance","type":"uint256","internalType":"uint256"},{"name":"needed","type":"uint256","internalType":"uint256"}]},{"type":"error","name":"ERC20InsufficientBalance","inputs":[{"name":"sender","type":"address","internalType":"address"},{"name":"balance","type":"uint256","internalType":"uint256"},{"name":"needed","type":"uint256","internalType":"uint256"}]},{"type":"error","name":"ERC20InvalidApprover","inputs":[{"name":"approver","type":"address","internalType":"address"}]},{"type":"error","name":"ERC20InvalidReceiver","inputs":[{"name":"receiver","type":"address","internalType":"address"}]},{"type":"error","name":"ERC20InvalidSender","inputs":[{"name":"sender","type":"address","internalType":"address"}]},{"type":"error","name":"ERC20InvalidSpender","inputs":[{"name":"spender","type":"address","internalType":"address"}]},{"type":"error","name":"OwnableInvalidOwner","inputs":[{"name":"owner","type":"address","internalType":"address"}]},{"type":"error","name":"OwnableUnauthorizedAccount","inputs":[{"name":"account","type":"address","internalType":"address"}]}],"bytecode":{"object":"0x608060405260405161262d38038061262d8339818101604052810190610025919061087d565b335f73ffffffffffffffffffffffffffffffffffffffff168173ffffffffffffffffffffffffffffffffffffffff1603610096575f6040517f1e4fbdf700000000000000000000000000000000000000000000000000000000815260040161008d9190610975565b60405180910390fd5b6100a5816102cf60201b60201c565b5087600490816100b59190610b95565b5086600590816100c59190610b95565b508560065f6101000a81548160ff021916908360ff160217905550816007819055508060085f6101000a81548173ffffffffffffffffffffffffffffffffffffffff021916908373ffffffffffffffffffffffffffffffffffffffff1602179055508234101561016a576040517f08c379a000000000000000000000000000000000000000000000000000000000815260040161016190610cbe565b60405180910390fd5b5f73ffffffffffffffffffffffffffffffffffffffff168473ffffffffffffffffffffffffffffffffffffffff16036101d8576040517f08c379a00000000000000000000000000000000000000000000000000000000081526004016101cf90610d26565b60405180910390fd5b5f8473ffffffffffffffffffffffffffffffffffffffff16846040516101fd90610d71565b5f6040518083038185875af1925050503d805f8114610237576040519150601f19603f3d011682016040523d82523d5f602084013e61023c565b606091505b5050905080610280576040517f08c379a000000000000000000000000000000000000000000000000000000000815260040161027790610dcf565b60405180910390fd5b6102c161029161039060201b60201c565b61029f6103b760201b60201c565b600a6102ab9190610f49565b886102b69190610f93565b6103cc60201b60201c565b505050505050505050611064565b5f5f5f9054906101000a900473ffffffffffffffffffffffffffffffffffffffff169050815f5f6101000a81548173ffffffffffffffffffffffffffffffffffffffff021916908373ffffffffffffffffffffffffffffffffffffffff1602179055508173ffffffffffffffffffffffffffffffffffffffff168173ffffffffffffffffffffffffffffffffffffffff167f8be0079c531659141344cd1fd0a4f28419497f9722a3daafe3b4186f6b6457e060405160405180910390a35050565b5f5f5f9054906101000a900473ffffffffffffffffffffffffffffffffffffffff16905090565b5f60065f9054906101000a900460ff16905090565b5f73ffffffffffffffffffffffffffffffffffffffff168273ffffffffffffffffffffffffffffffffffffffff160361043c575f6040517fec442f050000000000000000000000000000000000000000000000000000000081526004016104339190610975565b60405180910390fd5b61044d5f838361045160201b60201c565b5050565b5f73ffffffffffffffffffffffffffffffffffffffff168373ffffffffffffffffffffffffffffffffffffffff16036104a1578060035f8282546104959190610fd4565b92505081905550610571565b5f60015f8573ffffffffffffffffffffffffffffffffffffffff1673ffffffffffffffffffffffffffffffffffffffff1681526020019081526020015f205490508181101561052b578381836040517fe450d38c00000000000000000000000000000000000000000000000000000000815260040161052293929190611016565b60405180910390fd5b81810360015f8673ffffffffffffffffffffffffffffffffffffffff1673ffffffffffffffffffffffffffffffffffffffff1681526020019081526020015f2081905550505b5f73ffffffffffffffffffffffffffffffffffffffff168273ffffffffffffffffffffffffffffffffffffffff16036105b8578060035f8282540392505081905550610603565b8060015f8473ffffffffffffffffffffffffffffffffffffffff1673ffffffffffffffffffffffffffffffffffffffff1681526020019081526020015f205f82825401925050819055505b8173ffffffffffffffffffffffffffffffffffffffff168373ffffffffffffffffffffffffffffffffffffffff167fddf252ad1be2c89b69c2b068fc378daa952ba7f163c4a11628f55a4df523b3ef83604051610660919061104b565b60405180910390a3505050565b5f604051905090565b5f5ffd5b5f5ffd5b5f5ffd5b5f5ffd5b5f601f19601f8301169050919050565b7f4e487b71000000000000000000000000000000000000000000000000000000005f52604160045260245ffd5b6106cc82610686565b810181811067ffffffffffffffff821117156106eb576106ea610696565b5b80604052505050565b5f6106fd61066d565b905061070982826106c3565b919050565b5f67ffffffffffffffff82111561072857610727610696565b5b61073182610686565b9050602081019050919050565b8281835e5f83830152505050565b5f61075e6107598461070e565b6106f4565b90508281526020810184848401111561077a57610779610682565b5b61078584828561073e565b509392505050565b5f82601f8301126107a1576107a061067e565b5b81516107b184826020860161074c565b91505092915050565b5f60ff82169050919050565b6107cf816107ba565b81146107d9575f5ffd5b50565b5f815190506107ea816107c6565b92915050565b5f819050919050565b610802816107f0565b811461080c575f5ffd5b50565b5f8151905061081d816107f9565b92915050565b5f73ffffffffffffffffffffffffffffffffffffffff82169050919050565b5f61084c82610823565b9050919050565b61085c81610842565b8114610866575f5ffd5b50565b5f8151905061087781610853565b92915050565b5f5f5f5f5f5f5f5f610100898b03121561089a57610899610676565b5b5f89015167ffffffffffffffff8111156108b7576108b661067a565b5b6108c38b828c0161078d565b985050602089015167ffffffffffffffff8111156108e4576108e361067a565b5b6108f08b828c0161078d565b97505060406109018b828c016107dc565b96505060606109128b828c0161080f565b95505060806109238b828c01610869565b94505060a06109348b828c0161080f565b93505060c06109458b828c0161080f565b92505060e06109568b828c01610869565b9150509295985092959890939650565b61096f81610842565b82525050565b5f6020820190506109885f830184610966565b92915050565b5f81519050919050565b7f4e487b71000000000000000000000000000000000000000000000000000000005f52602260045260245ffd5b5f60028204905060018216806109dc57607f821691505b6020821081036109ef576109ee610998565b5b50919050565b5f819050815f5260205f209050919050565b5f6020601f8301049050919050565b5f82821b905092915050565b5f60088302610a517fffffffffffffffffffffffffffffffffffffffffffffffffffffffffffffffff82610a16565b610a5b8683610a16565b95508019841693508086168417925050509392505050565b5f819050919050565b5f610a96610a91610a8c846107f0565b610a73565b6107f0565b9050919050565b5f819050919050565b610aaf83610a7c565b610ac3610abb82610a9d565b848454610a22565b825550505050565b5f5f905090565b610ada610acb565b610ae5818484610aa6565b505050565b5b81811015610b0857610afd5f82610ad2565b600181019050610aeb565b5050565b601f821115610b4d57610b1e816109f5565b610b2784610a07565b81016020851015610b36578190505b610b4a610b4285610a07565b830182610aea565b50505b505050565b5f82821c905092915050565b5f610b6d5f1984600802610b52565b1980831691505092915050565b5f610b858383610b5e565b9150826002028217905092915050565b610b9e8261098e565b67ffffffffffffffff811115610bb757610bb6610696565b5b610bc182546109c5565b610bcc828285610b0c565b5f60209050601f831160018114610bfd575f8415610beb578287015190505b610bf58582610b7a565b865550610c5c565b601f198416610c0b866109f5565b5f5b82811015610c3257848901518255600182019150602085019450602081019050610c0d565b86831015610c4f5784890151610c4b601f891682610b5e565b8355505b6001600288020188555050505b505050505050565b5f82825260208201905092915050565b7f496e73756666696369656e742066656520616d6f756e742073656e74000000005f82015250565b5f610ca8601c83610c64565b9150610cb382610c74565b602082019050919050565b5f6020820190508181035f830152610cd581610c9c565b9050919050565b7f496e76616c6964206665652072656365697665722061646472657373000000005f82015250565b5f610d10601c83610c64565b9150610d1b82610cdc565b602082019050919050565b5f6020820190508181035f830152610d3d81610d04565b9050919050565b5f81905092915050565b50565b5f610d5c5f83610d44565b9150610d6782610d4e565b5f82019050919050565b5f610d7b82610d51565b9150819050919050565b7f466565207472616e73666572206661696c6564000000000000000000000000005f82015250565b5f610db9601383610c64565b9150610dc482610d85565b602082019050919050565b5f6020820190508181035f830152610de681610dad565b9050919050565b7f4e487b71000000000000000000000000000000000000000000000000000000005f52601160045260245ffd5b5f8160011c9050919050565b5f5f8291508390505b6001851115610e6f57808604811115610e4b57610e4a610ded565b5b6001851615610e5a5780820291505b8081029050610e6885610e1a565b9450610e2f565b94509492505050565b5f82610e875760019050610f42565b81610e94575f9050610f42565b8160018114610eaa5760028114610eb457610ee3565b6001915050610f42565b60ff841115610ec657610ec5610ded565b5b8360020a915084821115610edd57610edc610ded565b5b50610f42565b5060208310610133831016604e8410600b8410161715610f185782820a905083811115610f1357610f12610ded565b5b610f42565b610f258484846001610e26565b92509050818404811115610f3c57610f3b610ded565b5b81810290505b9392505050565b5f610f53826107f0565b9150610f5e836107ba565b9250610f8b7fffffffffffffffffffffffffffffffffffffffffffffffffffffffffffffffff8484610e78565b905092915050565b5f610f9d826107f0565b9150610fa8836107f0565b9250828202610fb6816107f0565b91508282048414831517610fcd57610fcc610ded565b5b5092915050565b5f610fde826107f0565b9150610fe9836107f0565b925082820190508082111561100157611000610ded565b5b92915050565b611010816107f0565b82525050565b5f6060820190506110295f830186610966565b6110366020830185611007565b6110436040830184611007565b949350505050565b5f60208201905061105e5f830184611007565b92915050565b6115bc806110715f395ff3fe608060405234801561000f575f5ffd5b50600436106100e8575f3560e01c8063715018a61161008a57806395d89b411161006457806395d89b4114610236578063a9059cbb14610254578063dd62ed3e14610284578063f2fde38b146102b4576100e8565b8063715018a6146101f257806379cc6790146101fc5780638da5cb5b14610218576100e8565b806323b872dd116100c657806323b872dd14610158578063313ce5671461018857806342966c68146101a657806370a08231146101c2576100e8565b806306fdde03146100ec578063095ea7b31461010a57806318160ddd1461013a575b5f5ffd5b6100f46102d0565b6040516101019190611139565b60405180910390f35b610124600480360381019061011f91906111ea565b610360565b6040516101319190611242565b60405180910390f35b610142610382565b60405161014f919061126a565b60405180910390f35b610172600480360381019061016d9190611283565b61038b565b60405161017f9190611242565b60405180910390f35b6101906103b9565b60405161019d91906112ee565b60405180910390f35b6101c060048036038101906101bb9190611307565b6103ce565b005b6101dc60048036038101906101d79190611332565b6103e2565b6040516101e9919061126a565b60405180910390f35b6101fa610428565b005b610216600480360381019061021191906111ea565b61043b565b005b61022061045b565b60405161022d919061136c565b60405180910390f35b61023e610482565b60405161024b9190611139565b60405180910390f35b61026e600480360381019061026991906111ea565b610512565b60405161027b9190611242565b60405180910390f35b61029e60048036038101906102999190611385565b610875565b6040516102ab919061126a565b60405180910390f35b6102ce60048036038101906102c99190611332565b6108f7565b005b6060600480546102df906113f0565b80601f016020809104026020016040519081016040528092919081815260200182805461030b906113f0565b80156103565780601f1061032d57610100808354040283529160200191610356565b820191905f5260205f20905b81548152906001019060200180831161033957829003601f168201915b5050505050905090565b5f5f61036a61097b565b9050610377818585610982565b600191505092915050565b5f600354905090565b5f5f61039561097b565b90506103a2858285610994565b6103ad858585610a27565b60019150509392505050565b5f60065f9054906101000a900460ff16905090565b6103df6103d961097b565b82610b17565b50565b5f60015f8373ffffffffffffffffffffffffffffffffffffffff1673ffffffffffffffffffffffffffffffffffffffff1681526020019081526020015f20549050919050565b610430610b96565b6104395f610c1d565b565b61044d8261044761097b565b83610994565b6104578282610b17565b5050565b5f5f5f9054906101000a900473ffffffffffffffffffffffffffffffffffffffff16905090565b606060058054610491906113f0565b80601f01602080910402602001604051908101604052809291908181526020018280546104bd906113f0565b80156105085780601f106104df57610100808354040283529160200191610508565b820191905f5260205f20905b8154815290600101906020018083116104eb57829003601f168201915b5050505050905090565b5f5f61051c61097b565b90505f61271060075485610530919061144d565b61053a91906114bb565b90505f818561054991906114eb565b90508460015f8573ffffffffffffffffffffffffffffffffffffffff1673ffffffffffffffffffffffffffffffffffffffff1681526020019081526020015f2054101561060e578260015f8573ffffffffffffffffffffffffffffffffffffffff1673ffffffffffffffffffffffffffffffffffffffff1681526020019081526020015f2054866040517fe450d38c0000000000000000000000000000000000000000000000000000000081526004016106059392919061151e565b60405180910390fd5b8460015f8573ffffffffffffffffffffffffffffffffffffffff1673ffffffffffffffffffffffffffffffffffffffff1681526020019081526020015f205f82825461065a91906114eb565b925050819055508060015f8873ffffffffffffffffffffffffffffffffffffffff1673ffffffffffffffffffffffffffffffffffffffff1681526020019081526020015f205f8282546106ad9190611553565b925050819055505f73ffffffffffffffffffffffffffffffffffffffff1660085f9054906101000a900473ffffffffffffffffffffffffffffffffffffffff1673ffffffffffffffffffffffffffffffffffffffff161461077d578160015f60085f9054906101000a900473ffffffffffffffffffffffffffffffffffffffff1673ffffffffffffffffffffffffffffffffffffffff1673ffffffffffffffffffffffffffffffffffffffff1681526020019081526020015f205f8282546107759190611553565b925050819055505b8573ffffffffffffffffffffffffffffffffffffffff168373ffffffffffffffffffffffffffffffffffffffff167fddf252ad1be2c89b69c2b068fc378daa952ba7f163c4a11628f55a4df523b3ef836040516107da919061126a565b60405180910390a360085f9054906101000a900473ffffffffffffffffffffffffffffffffffffffff1673ffffffffffffffffffffffffffffffffffffffff168373ffffffffffffffffffffffffffffffffffffffff167fddf252ad1be2c89b69c2b068fc378daa952ba7f163c4a11628f55a4df523b3ef84604051610860919061126a565b60405180910390a36001935050505092915050565b5f60025f8473ffffffffffffffffffffffffffffffffffffffff1673ffffffffffffffffffffffffffffffffffffffff1681526020019081526020015f205f8373ffffffffffffffffffffffffffffffffffffffff1673ffffffffffffffffffffffffffffffffffffffff1681526020019081526020015f2054905092915050565b6108ff610b96565b5f73ffffffffffffffffffffffffffffffffffffffff168173ffffffffffffffffffffffffffffffffffffffff160361096f575f6040517f1e4fbdf7000000000000000000000000000000000000000000000000000000008152600401610966919061136c565b60405180910390fd5b61097881610c1d565b50565b5f33905090565b61098f8383836001610cde565b505050565b5f61099f8484610875565b90507fffffffffffffffffffffffffffffffffffffffffffffffffffffffffffffffff811015610a215781811015610a12578281836040517ffb8f41b2000000000000000000000000000000000000000000000000000000008152600401610a099392919061151e565b60405180910390fd5b610a2084848484035f610cde565b5b50505050565b5f73ffffffffffffffffffffffffffffffffffffffff168373ffffffffffffffffffffffffffffffffffffffff1603610a97575f6040517f96c6fd1e000000000000000000000000000000000000000000000000000000008152600401610a8e919061136c565b60405180910390fd5b5f73ffffffffffffffffffffffffffffffffffffffff168273ffffffffffffffffffffffffffffffffffffffff1603610b07575f6040517fec442f05000000000000000000000000000000000000000000000000000000008152600401610afe919061136c565b60405180910390fd5b610b12838383610ead565b505050565b5f73ffffffffffffffffffffffffffffffffffffffff168273ffffffffffffffffffffffffffffffffffffffff1603610b87575f6040517f96c6fd1e000000000000000000000000000000000000000000000000000000008152600401610b7e919061136c565b60405180910390fd5b610b92825f83610ead565b5050565b610b9e61097b565b73ffffffffffffffffffffffffffffffffffffffff16610bbc61045b565b73ffffffffffffffffffffffffffffffffffffffff1614610c1b57610bdf61097b565b6040517f118cdaa7000000000000000000000000000000000000000000000000000000008152600401610c12919061136c565b60405180910390fd5b565b5f5f5f9054906101000a900473ffffffffffffffffffffffffffffffffffffffff169050815f5f6101000a81548173ffffffffffffffffffffffffffffffffffffffff021916908373ffffffffffffffffffffffffffffffffffffffff1602179055508173ffffffffffffffffffffffffffffffffffffffff168173ffffffffffffffffffffffffffffffffffffffff167f8be0079c531659141344cd1fd0a4f28419497f9722a3daafe3b4186f6b6457e060405160405180910390a35050565b5f73ffffffffffffffffffffffffffffffffffffffff168473ffffffffffffffffffffffffffffffffffffffff1603610d4e575f6040517fe602df05000000000000000000000000000000000000000000000000000000008152600401610d45919061136c565b60405180910390fd5b5f73ffffffffffffffffffffffffffffffffffffffff168373ffffffffffffffffffffffffffffffffffffffff1603610dbe575f6040517f94280d62000000000000000000000000000000000000000000000000000000008152600401610db5919061136c565b60405180910390fd5b8160025f8673ffffffffffffffffffffffffffffffffffffffff1673ffffffffffffffffffffffffffffffffffffffff1681526020019081526020015f205f8573ffffffffffffffffffffffffffffffffffffffff1673ffffffffffffffffffffffffffffffffffffffff1681526020019081526020015f20819055508015610ea7578273ffffffffffffffffffffffffffffffffffffffff168473ffffffffffffffffffffffffffffffffffffffff167f8c5be1e5ebec7d5bd14f71427d1e84f3dd0314c0f7b2291e5b200ac8c7c3b92584604051610e9e919061126a565b60405180910390a35b50505050565b5f73ffffffffffffffffffffffffffffffffffffffff168373ffffffffffffffffffffffffffffffffffffffff1603610efd578060035f828254610ef19190611553565b92505081905550610fcd565b5f60015f8573ffffffffffffffffffffffffffffffffffffffff1673ffffffffffffffffffffffffffffffffffffffff1681526020019081526020015f2054905081811015610f87578381836040517fe450d38c000000000000000000000000000000000000000000000000000000008152600401610f7e9392919061151e565b60405180910390fd5b81810360015f8673ffffffffffffffffffffffffffffffffffffffff1673ffffffffffffffffffffffffffffffffffffffff1681526020019081526020015f2081905550505b5f73ffffffffffffffffffffffffffffffffffffffff168273ffffffffffffffffffffffffffffffffffffffff1603611014578060035f828254039250508190555061105f565b8060015f8473ffffffffffffffffffffffffffffffffffffffff1673ffffffffffffffffffffffffffffffffffffffff1681526020019081526020015f205f82825401925050819055505b8173ffffffffffffffffffffffffffffffffffffffff168373ffffffffffffffffffffffffffffffffffffffff167fddf252ad1be2c89b69c2b068fc378daa952ba7f163c4a11628f55a4df523b3ef836040516110bc919061126a565b60405180910390a3505050565b5f81519050919050565b5f82825260208201905092915050565b8281835e5f83830152505050565b5f601f19601f8301169050919050565b5f61110b826110c9565b61111581856110d3565b93506111258185602086016110e3565b61112e816110f1565b840191505092915050565b5f6020820190508181035f8301526111518184611101565b905092915050565b5f5ffd5b5f73ffffffffffffffffffffffffffffffffffffffff82169050919050565b5f6111868261115d565b9050919050565b6111968161117c565b81146111a0575f5ffd5b50565b5f813590506111b18161118d565b92915050565b5f819050919050565b6111c9816111b7565b81146111d3575f5ffd5b50565b5f813590506111e4816111c0565b92915050565b5f5f60408385031215611200576111ff611159565b5b5f61120d858286016111a3565b925050602061121e858286016111d6565b9150509250929050565b5f8115159050919050565b61123c81611228565b82525050565b5f6020820190506112555f830184611233565b92915050565b611264816111b7565b82525050565b5f60208201905061127d5f83018461125b565b92915050565b5f5f5f6060848603121561129a57611299611159565b5b5f6112a7868287016111a3565b93505060206112b8868287016111a3565b92505060406112c9868287016111d6565b9150509250925092565b5f60ff82169050919050565b6112e8816112d3565b82525050565b5f6020820190506113015f8301846112df565b92915050565b5f6020828403121561131c5761131b611159565b5b5f611329848285016111d6565b91505092915050565b5f6020828403121561134757611346611159565b5b5f611354848285016111a3565b91505092915050565b6113668161117c565b82525050565b5f60208201905061137f5f83018461135d565b92915050565b5f5f6040838503121561139b5761139a611159565b5b5f6113a8858286016111a3565b92505060206113b9858286016111a3565b9150509250929050565b7f4e487b71000000000000000000000000000000000000000000000000000000005f52602260045260245ffd5b5f600282049050600182168061140757607f821691505b60208210810361141a576114196113c3565b5b50919050565b7f4e487b71000000000000000000000000000000000000000000000000000000005f52601160045260245ffd5b5f611457826111b7565b9150611462836111b7565b9250828202611470816111b7565b9150828204841483151761148757611486611420565b5b5092915050565b7f4e487b71000000000000000000000000000000000000000000000000000000005f52601260045260245ffd5b5f6114c5826111b7565b91506114d0836111b7565b9250826114e0576114df61148e565b5b828204905092915050565b5f6114f5826111b7565b9150611500836111b7565b925082820390508181111561151857611517611420565b5b92915050565b5f6060820190506115315f83018661135d565b61153e602083018561125b565b61154b604083018461125b565b949350505050565b5f61155d826111b7565b9150611568836111b7565b92508282019050808211156115805761157f611420565b5b9291505056fea2646970667358221220faba3d68d170cb3e47cfebc618a9778d3bad28d7f90e5f01d681713ccd0cb97964736f6c634300081c0033","linkReferences":{}},"methodIdentifiers":{"allowance(address,address)":"dd62ed3e","approve(address,uint256)":"095ea7b3","balanceOf(address)":"70a08231","burn(uint256)":"42966c68","burnFrom(address,uint256)":"79cc6790","decimals()":"313ce567","name()":"06fdde03","owner()":"8da5cb5b","renounceOwnership()":"715018a6","symbol()":"95d89b41","totalSupply()":"18160ddd","transfer(address,uint256)":"a9059cbb","transferFrom(address,address,uint256)":"23b872dd","transferOwnership(address)":"f2fde38b"},"id":13}