{
    "abi": [
        {
            "inputs": [
                {
                    "internalType": "string",
                    "name": "name_",
                    "type": "string"
                },
                {
                    "internalType": "string",
                    "name": "symbol_",
                    "type": "string"
                },
                {
                    "internalType": "uint8",
                    "name": "decimals_",
                    "type": "uint8"
                },
                {
                    "internalType": "uint256",
                    "name": "totalSupply_",
                    "type": "uint256"
                },
                {
                    "internalType": "uint256",
                    "name": "cap_",
                    "type": "uint256"
                },
                {
                    "internalType": "address",
                    "name": "serviceFeeReceiver_",
                    "type": "address"
                },
                {
                    "internalType": "uint256",
                    "name": "serviceFee_",
                    "type": "uint256"
                }
            ],
            "stateMutability": "payable",
            "type": "constructor"
        },
        {
            "inputs": [
                {
                    "internalType": "address",
                    "name": "spender",
                    "type": "address"
                },
                {
                    "internalType": "uint256",
                    "name": "allowance",
                    "type": "uint256"
                },
                {
                    "internalType": "uint256",
                    "name": "needed",
                    "type": "uint256"
                }
            ],
            "name": "ERC20InsufficientAllowance",
            "type": "error"
        },
        {
            "inputs": [
                {
                    "internalType": "address",
                    "name": "sender",
                    "type": "address"
                },
                {
                    "internalType": "uint256",
                    "name": "balance",
                    "type": "uint256"
                },
                {
                    "internalType": "uint256",
                    "name": "needed",
                    "type": "uint256"
                }
            ],
            "name": "ERC20InsufficientBalance",
            "type": "error"
        },
        {
            "inputs": [
                {
                    "internalType": "address",
                    "name": "approver",
                    "type": "address"
                }
            ],
            "name": "ERC20InvalidApprover",
            "type": "error"
        },
        {
            "inputs": [
                {
                    "internalType": "address",
                    "name": "receiver",
                    "type": "address"
                }
            ],
            "name": "ERC20InvalidReceiver",
            "type": "error"
        },
        {
            "inputs": [
                {
                    "internalType": "address",
                    "name": "sender",
                    "type": "address"
                }
            ],
            "name": "ERC20InvalidSender",
            "type": "error"
        },
        {
            "inputs": [
                {
                    "internalType": "address",
                    "name": "spender",
                    "type": "address"
                }
            ],
            "name": "ERC20InvalidSpender",
            "type": "error"
        },
        {
            "inputs": [
                {
                    "internalType": "address",
                    "name": "owner",
                    "type": "address"
                }
            ],
            "name": "OwnableInvalidOwner",
            "type": "error"
        },
        {
            "inputs": [
                {
                    "internalType": "address",
                    "name": "account",
                    "type": "address"
                }
            ],
            "name": "OwnableUnauthorizedAccount",
            "type": "error"
        },
        {
            "anonymous": false,
            "inputs": [
                {
                    "indexed": true,
                    "internalType": "address",
                    "name": "owner",
                    "type": "address"
                },
                {
                    "indexed": true,
                    "internalType": "address",
                    "name": "spender",
                    "type": "address"
                },
                {
                    "indexed": false,
                    "internalType": "uint256",
                    "name": "value",
                    "type": "uint256"
                }
            ],
            "name": "Approval",
            "type": "event"
        },
        {
            "anonymous": false,
            "inputs": [
                {
                    "indexed": true,
                    "internalType": "address",
                    "name": "previousOwner",
                    "type": "address"
                },
                {
                    "indexed": true,
                    "internalType": "address",
                    "name": "newOwner",
                    "type": "address"
                }
            ],
            "name": "OwnershipTransferred",
            "type": "event"
        },
        {
            "anonymous": false,
            "inputs": [
                {
                    "indexed": true,
                    "internalType": "address",
                    "name": "from",
                    "type": "address"
                },
                {
                    "indexed": true,
                    "internalType": "address",
                    "name": "to",
                    "type": "address"
                },
                {
                    "indexed": false,
                    "internalType": "uint256",
                    "name": "value",
                    "type": "uint256"
                }
            ],
            "name": "Transfer",
            "type": "event"
        },
        {
            "inputs": [
                {
                    "internalType": "address",
                    "name": "owner",
                    "type": "address"
                },
                {
                    "internalType": "address",
                    "name": "spender",
                    "type": "address"
                }
            ],
            "name": "allowance",
            "outputs": [
                {
                    "internalType": "uint256",
                    "name": "",
                    "type": "uint256"
                }
            ],
            "stateMutability": "view",
            "type": "function"
        },
        {
            "inputs": [
                {
                    "internalType": "address",
                    "name": "spender",
                    "type": "address"
                },
                {
                    "internalType": "uint256",
                    "name": "value",
                    "type": "uint256"
                }
            ],
            "name": "approve",
            "outputs": [
                {
                    "internalType": "bool",
                    "name": "",
                    "type": "bool"
                }
            ],
            "stateMutability": "nonpayable",
            "type": "function"
        },
        {
            "inputs": [
                {
                    "internalType": "address",
                    "name": "account",
                    "type": "address"
                }
            ],
            "name": "balanceOf",
            "outputs": [
                {
                    "internalType": "uint256",
                    "name": "",
                    "type": "uint256"
                }
            ],
            "stateMutability": "view",
            "type": "function"
        },
        {
            "inputs": [],
            "name": "cap",
            "outputs": [
                {
                    "internalType": "uint256",
                    "name": "",
                    "type": "uint256"
                }
            ],
            "stateMutability": "view",
            "type": "function"
        },
        {
            "inputs": [],
            "name": "decimals",
            "outputs": [
                {
                    "internalType": "uint8",
                    "name": "",
                    "type": "uint8"
                }
            ],
            "stateMutability": "view",
            "type": "function"
        },
        {
            "inputs": [
                {
                    "internalType": "address",
                    "name": "to",
                    "type": "address"
                },
                {
                    "internalType": "uint256",
                    "name": "amount",
                    "type": "uint256"
                }
            ],
            "name": "mint",
            "outputs": [],
            "stateMutability": "nonpayable",
            "type": "function"
        },
        {
            "inputs": [],
            "name": "name",
            "outputs": [
                {
                    "internalType": "string",
                    "name": "",
                    "type": "string"
                }
            ],
            "stateMutability": "view",
            "type": "function"
        },
        {
            "inputs": [],
            "name": "owner",
            "outputs": [
                {
                    "internalType": "address",
                    "name": "",
                    "type": "address"
                }
            ],
            "stateMutability": "view",
            "type": "function"
        },
        {
            "inputs": [],
            "name": "renounceOwnership",
            "outputs": [],
            "stateMutability": "nonpayable",
            "type": "function"
        },
        {
            "inputs": [],
            "name": "symbol",
            "outputs": [
                {
                    "internalType": "string",
                    "name": "",
                    "type": "string"
                }
            ],
            "stateMutability": "view",
            "type": "function"
        },
        {
            "inputs": [],
            "name": "totalSupply",
            "outputs": [
                {
                    "internalType": "uint256",
                    "name": "",
                    "type": "uint256"
                }
            ],
            "stateMutability": "view",
            "type": "function"
        },
        {
            "inputs": [
                {
                    "internalType": "address",
                    "name": "to",
                    "type": "address"
                },
                {
                    "internalType": "uint256",
                    "name": "value",
                    "type": "uint256"
                }
            ],
            "name": "transfer",
            "outputs": [
                {
                    "internalType": "bool",
                    "name": "",
                    "type": "bool"
                }
            ],
            "stateMutability": "nonpayable",
            "type": "function"
        },
        {
            "inputs": [
                {
                    "internalType": "address",
                    "name": "from",
                    "type": "address"
                },
                {
                    "internalType": "address",
                    "name": "to",
                    "type": "address"
                },
                {
                    "internalType": "uint256",
                    "name": "value",
                    "type": "uint256"
                }
            ],
            "name": "transferFrom",
            "outputs": [
                {
                    "internalType": "bool",
                    "name": "",
                    "type": "bool"
                }
            ],
            "stateMutability": "nonpayable",
            "type": "function"
        },
        {
            "inputs": [
                {
                    "internalType": "address",
                    "name": "newOwner",
                    "type": "address"
                }
            ],
            "name": "transferOwnership",
            "outputs": [],
            "stateMutability": "nonpayable",
            "type": "function"
        }
    ],
    "bytecode": {
        "object": "0x608060405260405161130b38038061130b833981016040819052610022916105a5565b338061004857604051631e4fbdf760e01b81525f60048201526024015b60405180910390fd5b610051816102c0565b50600461005e88826106d6565b50600561006b87826106d6565b506006805460ff191660ff8716179055826100c85760405162461bcd60e51b815260206004820152601c60248201527f4361702073686f756c642062652067726561746572207468616e203000000000604482015260640161003f565b600783905560065460ff166100de90600a610889565b6007546100eb919061089e565b84111561013a5760405162461bcd60e51b815260206004820152601960248201527f45524332304361707065643a2063617020657863656564656400000000000000604482015260640161003f565b8034101561018a5760405162461bcd60e51b815260206004820152601c60248201527f496e73756666696369656e742066656520616d6f756e742073656e7400000000604482015260640161003f565b6001600160a01b0382166101e05760405162461bcd60e51b815260206004820152601c60248201527f496e76616c696420666565207265636569766572206164647265737300000000604482015260640161003f565b5f826001600160a01b0316826040515f6040518083038185875af1925050503d805f8114610229576040519150601f19603f3d011682016040523d82523d5f602084013e61022e565b606091505b505090508061027f5760405162461bcd60e51b815260206004820152601360248201527f466565207472616e73666572206661696c656400000000000000000000000000604482015260640161003f565b6102b36102935f546001600160a01b031690565b60065460ff166102a490600a610889565b6102ae908861089e565b61030f565b50505050505050506108c8565b5f80546001600160a01b038381166001600160a01b0319831681178455604051919092169283917f8be0079c531659141344cd1fd0a4f28419497f9722a3daafe3b4186f6b6457e09190a35050565b60065460ff1661032090600a610889565b60075461032d919061089e565b8161033760035490565b61034191906108b5565b111561038f5760405162461bcd60e51b815260206004820152601960248201527f45524332304361707065643a2063617020657863656564656400000000000000604482015260640161003f565b6001600160a01b0382166103b85760405163ec442f0560e01b81525f600482015260240161003f565b6103c35f83836103c7565b5050565b6001600160a01b0383166103f1578060035f8282546103e691906108b5565b909155506104619050565b6001600160a01b0383165f90815260016020526040902054818110156104435760405163391434e360e21b81526001600160a01b0385166004820152602481018290526044810183905260640161003f565b6001600160a01b0384165f9081526001602052604090209082900390555b6001600160a01b03821661047d5760038054829003905561049b565b6001600160a01b0382165f9081526001602052604090208054820190555b816001600160a01b0316836001600160a01b03167fddf252ad1be2c89b69c2b068fc378daa952ba7f163c4a11628f55a4df523b3ef836040516104e091815260200190565b60405180910390a3505050565b634e487b7160e01b5f52604160045260245ffd5b5f82601f830112610510575f80fd5b81516001600160401b03811115610529576105296104ed565b604051601f8201601f19908116603f011681016001600160401b0381118282101715610557576105576104ed565b60405281815283820160200185101561056e575f80fd5b8160208501602083015e5f918101602001919091529392505050565b80516001600160a01b03811681146105a0575f80fd5b919050565b5f805f805f805f60e0888a0312156105bb575f80fd5b87516001600160401b038111156105d0575f80fd5b6105dc8a828b01610501565b60208a015190985090506001600160401b038111156105f9575f80fd5b6106058a828b01610501565b965050604088015160ff8116811461061b575f80fd5b606089015160808a01519196509450925061063860a0890161058a565b91505f60c089015190508091505092959891949750929550565b600181811c9082168061066657607f821691505b60208210810361068457634e487b7160e01b5f52602260045260245ffd5b50919050565b601f8211156106d157805f5260205f20601f840160051c810160208510156106af5750805b601f840160051c820191505b818110156106ce575f81556001016106bb565b50505b505050565b81516001600160401b038111156106ef576106ef6104ed565b610703816106fd8454610652565b8461068a565b6020601f821160018114610735575f831561071e5750848201515b5f19600385901b1c1916600184901b1784556106ce565b5f84815260208120601f198516915b828110156107645787850151825560209485019460019092019101610744565b508482101561078157868401515f19600387901b60f8161c191681555b50505050600190811b01905550565b634e487b7160e01b5f52601160045260245ffd5b6001815b60018411156107df578085048111156107c3576107c3610790565b60018416156107d157908102905b60019390931c9280026107a8565b935093915050565b5f826107f557506001610883565b8161080157505f610883565b816001811461081757600281146108215761083d565b6001915050610883565b60ff84111561083257610832610790565b50506001821b610883565b5060208310610133831016604e8410600b8410161715610860575081810a610883565b61086c5f1984846107a4565b805f190482111561087f5761087f610790565b0290505b92915050565b5f61089760ff8416836107e7565b9392505050565b808202811582820484141761088357610883610790565b8082018082111561088357610883610790565b610a36806108d55f395ff3fe608060405234801561000f575f80fd5b50600436106100e5575f3560e01c806370a082311161008857806395d89b411161006357806395d89b41146101cb578063a9059cbb146101d3578063dd62ed3e146101e6578063f2fde38b1461021e575f80fd5b806370a0823114610181578063715018a6146101a95780638da5cb5b146101b1575f80fd5b806323b872dd116100c357806323b872dd1461013c578063313ce5671461014f578063355274ea1461016457806340c10f191461016c575f80fd5b806306fdde03146100e9578063095ea7b31461010757806318160ddd1461012a575b5f80fd5b6100f1610231565b6040516100fe9190610796565b60405180910390f35b61011a6101153660046107e6565b6102c1565b60405190151581526020016100fe565b6003545b6040519081526020016100fe565b61011a61014a36600461080e565b6102da565b60065460405160ff90911681526020016100fe565b60075461012e565b61017f61017a3660046107e6565b6102fd565b005b61012e61018f366004610848565b6001600160a01b03165f9081526001602052604090205490565b61017f610313565b5f546040516001600160a01b0390911681526020016100fe565b6100f1610326565b61011a6101e13660046107e6565b610335565b61012e6101f4366004610868565b6001600160a01b039182165f90815260026020908152604080832093909416825291909152205490565b61017f61022c366004610848565b610342565b60606004805461024090610899565b80601f016020809104026020016040519081016040528092919081815260200182805461026c90610899565b80156102b75780601f1061028e576101008083540402835291602001916102b7565b820191905f5260205f20905b81548152906001019060200180831161029a57829003601f168201915b5050505050905090565b5f336102ce818585610384565b60019150505b92915050565b5f336102e7858285610396565b6102f2858585610412565b506001949350505050565b61030561046f565b61030f828261049b565b5050565b61031b61046f565b6103245f61054f565b565b60606005805461024090610899565b5f336102ce818585610412565b61034a61046f565b6001600160a01b03811661037857604051631e4fbdf760e01b81525f60048201526024015b60405180910390fd5b6103818161054f565b50565b610391838383600161059e565b505050565b6001600160a01b038381165f908152600260209081526040808320938616835292905220545f1981101561040c57818110156103fe57604051637dc7a0d960e11b81526001600160a01b0384166004820152602481018290526044810183905260640161036f565b61040c84848484035f61059e565b50505050565b6001600160a01b03831661043b57604051634b637e8f60e11b81525f600482015260240161036f565b6001600160a01b0382166104645760405163ec442f0560e01b81525f600482015260240161036f565b610391838383610670565b5f546001600160a01b031633146103245760405163118cdaa760e01b815233600482015260240161036f565b60065460ff166104ac90600a6109c8565b6007546104b991906109d6565b816104c360035490565b6104cd91906109ed565b111561051b5760405162461bcd60e51b815260206004820152601960248201527f45524332304361707065643a2063617020657863656564656400000000000000604482015260640161036f565b6001600160a01b0382166105445760405163ec442f0560e01b81525f600482015260240161036f565b61030f5f8383610670565b5f80546001600160a01b038381166001600160a01b0319831681178455604051919092169283917f8be0079c531659141344cd1fd0a4f28419497f9722a3daafe3b4186f6b6457e09190a35050565b6001600160a01b0384166105c75760405163e602df0560e01b81525f600482015260240161036f565b6001600160a01b0383166105f057604051634a1406b160e11b81525f600482015260240161036f565b6001600160a01b038085165f908152600260209081526040808320938716835292905220829055801561040c57826001600160a01b0316846001600160a01b03167f8c5be1e5ebec7d5bd14f71427d1e84f3dd0314c0f7b2291e5b200ac8c7c3b9258460405161066291815260200190565b60405180910390a350505050565b6001600160a01b03831661069a578060035f82825461068f91906109ed565b9091555061070a9050565b6001600160a01b0383165f90815260016020526040902054818110156106ec5760405163391434e360e21b81526001600160a01b0385166004820152602481018290526044810183905260640161036f565b6001600160a01b0384165f9081526001602052604090209082900390555b6001600160a01b03821661072657600380548290039055610744565b6001600160a01b0382165f9081526001602052604090208054820190555b816001600160a01b0316836001600160a01b03167fddf252ad1be2c89b69c2b068fc378daa952ba7f163c4a11628f55a4df523b3ef8360405161078991815260200190565b60405180910390a3505050565b602081525f82518060208401528060208501604085015e5f604082850101526040601f19601f83011684010191505092915050565b80356001600160a01b03811681146107e1575f80fd5b919050565b5f80604083850312156107f7575f80fd5b610800836107cb565b946020939093013593505050565b5f805f60608486031215610820575f80fd5b610829846107cb565b9250610837602085016107cb565b929592945050506040919091013590565b5f60208284031215610858575f80fd5b610861826107cb565b9392505050565b5f8060408385031215610879575f80fd5b610882836107cb565b9150610890602084016107cb565b90509250929050565b600181811c908216806108ad57607f821691505b6020821081036108cb57634e487b7160e01b5f52602260045260245ffd5b50919050565b634e487b7160e01b5f52601160045260245ffd5b6001815b600184111561092057808504811115610904576109046108d1565b600184161561091257908102905b60019390931c9280026108e9565b935093915050565b5f82610936575060016102d4565b8161094257505f6102d4565b816001811461095857600281146109625761097e565b60019150506102d4565b60ff841115610973576109736108d1565b50506001821b6102d4565b5060208310610133831016604e8410600b84101617156109a1575081810a6102d4565b6109ad5f1984846108e5565b805f19048211156109c0576109c06108d1565b029392505050565b5f61086160ff841683610928565b80820281158282048414176102d4576102d46108d1565b808201808211156102d4576102d46108d156fea2646970667358221220b9a8c39284d3c99f74d193825d4c3c98ac543e52e6045bdc8a4fae7a78fb1a0464736f6c634300081a0033",
        "linkReferences": {}
    },
    "deployedBytecode": {
        "object": "0x608060405234801561001057600080fd5b50600436106100ea5760003560e01c806370a082311161008c57806395d89b411161006657806395d89b41146101d3578063a9059cbb146101db578063dd62ed3e146101ee578063f2fde38b1461022757600080fd5b806370a0823114610187578063715018a6146101b05780638da5cb5b146101b857600080fd5b806323b872dd116100c857806323b872dd14610142578063313ce56714610155578063355274ea1461016a57806340c10f191461017257600080fd5b806306fdde03146100ef578063095ea7b31461010d57806318160ddd14610130575b600080fd5b6100f761023a565b60405161010491906107b6565b60405180910390f35b61012061011b366004610821565b6102cc565b6040519015158152602001610104565b6003545b604051908152602001610104565b61012061015036600461084b565b6102e6565b60065460405160ff9091168152602001610104565b600754610134565b610185610180366004610821565b61030a565b005b610134610195366004610887565b6001600160a01b031660009081526001602052604090205490565b610185610320565b6000546040516001600160a01b039091168152602001610104565b6100f7610334565b6101206101e9366004610821565b610343565b6101346101fc3660046108a9565b6001600160a01b03918216600090815260026020908152604080832093909416825291909152205490565b610185610235366004610887565b610351565b606060048054610249906108dc565b80601f0160208091040260200160405190810160405280929190818152602001828054610275906108dc565b80156102c25780601f10610297576101008083540402835291602001916102c2565b820191906000526020600020905b8154815290600101906020018083116102a557829003601f168201915b5050505050905090565b6000336102da818585610394565b60019150505b92915050565b6000336102f48582856103a6565b6102ff858585610425565b506001949350505050565b610312610484565b61031c82826104b1565b5050565b610328610484565b6103326000610567565b565b606060058054610249906108dc565b6000336102da818585610425565b610359610484565b6001600160a01b03811661038857604051631e4fbdf760e01b8152600060048201526024015b60405180910390fd5b61039181610567565b50565b6103a183838360016105b7565b505050565b6001600160a01b0383811660009081526002602090815260408083209386168352929052205460001981101561041f578181101561041057604051637dc7a0d960e11b81526001600160a01b0384166004820152602481018290526044810183905260640161037f565b61041f848484840360006105b7565b50505050565b6001600160a01b03831661044f57604051634b637e8f60e11b81526000600482015260240161037f565b6001600160a01b0382166104795760405163ec442f0560e01b81526000600482015260240161037f565b6103a183838361068c565b6000546001600160a01b031633146103325760405163118cdaa760e01b815233600482015260240161037f565b60065460ff166104c290600a610a10565b6007546104cf9190610a1f565b816104d960035490565b6104e39190610a36565b11156105315760405162461bcd60e51b815260206004820152601960248201527f45524332304361707065643a2063617020657863656564656400000000000000604482015260640161037f565b6001600160a01b03821661055b5760405163ec442f0560e01b81526000600482015260240161037f565b61031c6000838361068c565b600080546001600160a01b038381166001600160a01b0319831681178455604051919092169283917f8be0079c531659141344cd1fd0a4f28419497f9722a3daafe3b4186f6b6457e09190a35050565b6001600160a01b0384166105e15760405163e602df0560e01b81526000600482015260240161037f565b6001600160a01b03831661060b57604051634a1406b160e11b81526000600482015260240161037f565b6001600160a01b038085166000908152600260209081526040808320938716835292905220829055801561041f57826001600160a01b0316846001600160a01b03167f8c5be1e5ebec7d5bd14f71427d1e84f3dd0314c0f7b2291e5b200ac8c7c3b9258460405161067e91815260200190565b60405180910390a350505050565b6001600160a01b0383166106b75780600360008282546106ac9190610a36565b909155506107299050565b6001600160a01b0383166000908152600160205260409020548181101561070a5760405163391434e360e21b81526001600160a01b0385166004820152602481018290526044810183905260640161037f565b6001600160a01b03841660009081526001602052604090209082900390555b6001600160a01b03821661074557600380548290039055610764565b6001600160a01b03821660009081526001602052604090208054820190555b816001600160a01b0316836001600160a01b03167fddf252ad1be2c89b69c2b068fc378daa952ba7f163c4a11628f55a4df523b3ef836040516107a991815260200190565b60405180910390a3505050565b60006020808352835180602085015260005b818110156107e4578581018301518582016040015282016107c8565b506000604082860101526040601f19601f8301168501019250505092915050565b80356001600160a01b038116811461081c57600080fd5b919050565b6000806040838503121561083457600080fd5b61083d83610805565b946020939093013593505050565b60008060006060848603121561086057600080fd5b61086984610805565b925061087760208501610805565b9150604084013590509250925092565b60006020828403121561089957600080fd5b6108a282610805565b9392505050565b600080604083850312156108bc57600080fd5b6108c583610805565b91506108d360208401610805565b90509250929050565b600181811c908216806108f057607f821691505b60208210810361091057634e487b7160e01b600052602260045260246000fd5b50919050565b634e487b7160e01b600052601160045260246000fd5b600181815b8085111561096757816000190482111561094d5761094d610916565b8085161561095a57918102915b93841c9390800290610931565b509250929050565b60008261097e575060016102e0565b8161098b575060006102e0565b81600181146109a157600281146109ab576109c7565b60019150506102e0565b60ff8411156109bc576109bc610916565b50506001821b6102e0565b5060208310610133831016604e8410600b84101617156109ea575081810a6102e0565b6109f4838361092c565b8060001904821115610a0857610a08610916565b029392505050565b60006108a260ff84168361096f565b80820281158282048414176102e0576102e0610916565b808201808211156102e0576102e061091656fea2646970667358221220e897721b529e1401a4e2ecd19eaa3e0272760fb442eadc4e211503f11fb3619c64736f6c63430008170033",
        "linkReferences": {}
    },
    "methodIdentifiers": {
        "allowance(address,address)": "dd62ed3e",
        "approve(address,uint256)": "095ea7b3",
        "balanceOf(address)": "70a08231",
        "cap()": "355274ea",
        "decimals()": "313ce567",
        "mint(address,uint256)": "40c10f19",
        "name()": "06fdde03",
        "owner()": "8da5cb5b",
        "renounceOwnership()": "715018a6",
        "symbol()": "95d89b41",
        "totalSupply()": "18160ddd",
        "transfer(address,uint256)": "a9059cbb",
        "transferFrom(address,address,uint256)": "23b872dd",
        "transferOwnership(address)": "f2fde38b"
    },
    "id": 1
}