{"abi":[{"type":"constructor","inputs":[{"name":"name_","type":"string","internalType":"string"},{"name":"symbol_","type":"string","internalType":"string"},{"name":"decimals_","type":"uint8","internalType":"uint8"},{"name":"totalSupply_","type":"uint256","internalType":"uint256"},{"name":"serviceFeeReceiver_","type":"address","internalType":"address"},{"name":"serviceFee_","type":"uint256","internalType":"uint256"}],"stateMutability":"payable"},{"type":"function","name":"allowance","inputs":[{"name":"owner","type":"address","internalType":"address"},{"name":"spender","type":"address","internalType":"address"}],"outputs":[{"name":"","type":"uint256","internalType":"uint256"}],"stateMutability":"view"},{"type":"function","name":"approve","inputs":[{"name":"spender","type":"address","internalType":"address"},{"name":"value","type":"uint256","internalType":"uint256"}],"outputs":[{"name":"","type":"bool","internalType":"bool"}],"stateMutability":"nonpayable"},{"type":"function","name":"balanceOf","inputs":[{"name":"account","type":"address","internalType":"address"}],"outputs":[{"name":"","type":"uint256","internalType":"uint256"}],"stateMutability":"view"},{"type":"function","name":"burn","inputs":[{"name":"value","type":"uint256","internalType":"uint256"}],"outputs":[],"stateMutability":"nonpayable"},{"type":"function","name":"burnFrom","inputs":[{"name":"account","type":"address","internalType":"address"},{"name":"value","type":"uint256","internalType":"uint256"}],"outputs":[],"stateMutability":"nonpayable"},{"type":"function","name":"decimals","inputs":[],"outputs":[{"name":"","type":"uint8","internalType":"uint8"}],"stateMutability":"view"},{"type":"function","name":"mint","inputs":[{"name":"to","type":"address","internalType":"address"},{"name":"amount","type":"uint256","internalType":"uint256"}],"outputs":[],"stateMutability":"nonpayable"},{"type":"function","name":"name","inputs":[],"outputs":[{"name":"","type":"string","internalType":"string"}],"stateMutability":"view"},{"type":"function","name":"owner","inputs":[],"outputs":[{"name":"","type":"address","internalType":"address"}],"stateMutability":"view"},{"type":"function","name":"pause","inputs":[],"outputs":[],"stateMutability":"nonpayable"},{"type":"function","name":"paused","inputs":[],"outputs":[{"name":"","type":"bool","internalType":"bool"}],"stateMutability":"view"},{"type":"function","name":"renounceOwnership","inputs":[],"outputs":[],"stateMutability":"nonpayable"},{"type":"function","name":"symbol","inputs":[],"outputs":[{"name":"","type":"string","internalType":"string"}],"stateMutability":"view"},{"type":"function","name":"totalSupply","inputs":[],"outputs":[{"name":"","type":"uint256","internalType":"uint256"}],"stateMutability":"view"},{"type":"function","name":"transfer","inputs":[{"name":"to","type":"address","internalType":"address"},{"name":"value","type":"uint256","internalType":"uint256"}],"outputs":[{"name":"","type":"bool","internalType":"bool"}],"stateMutability":"nonpayable"},{"type":"function","name":"transferFrom","inputs":[{"name":"from","type":"address","internalType":"address"},{"name":"to","type":"address","internalType":"address"},{"name":"value","type":"uint256","internalType":"uint256"}],"outputs":[{"name":"","type":"bool","internalType":"bool"}],"stateMutability":"nonpayable"},{"type":"function","name":"transferOwnership","inputs":[{"name":"newOwner","type":"address","internalType":"address"}],"outputs":[],"stateMutability":"nonpayable"},{"type":"function","name":"unpause","inputs":[],"outputs":[],"stateMutability":"nonpayable"},{"type":"event","name":"Approval","inputs":[{"name":"owner","type":"address","indexed":true,"internalType":"address"},{"name":"spender","type":"address","indexed":true,"internalType":"address"},{"name":"value","type":"uint256","indexed":false,"internalType":"uint256"}],"anonymous":false},{"type":"event","name":"OwnershipTransferred","inputs":[{"name":"previousOwner","type":"address","indexed":true,"internalType":"address"},{"name":"newOwner","type":"address","indexed":true,"internalType":"address"}],"anonymous":false},{"type":"event","name":"Paused","inputs":[{"name":"account","type":"address","indexed":false,"internalType":"address"}],"anonymous":false},{"type":"event","name":"Transfer","inputs":[{"name":"from","type":"address","indexed":true,"internalType":"address"},{"name":"to","type":"address","indexed":true,"internalType":"address"},{"name":"value","type":"uint256","indexed":false,"internalType":"uint256"}],"anonymous":false},{"type":"event","name":"Unpaused","inputs":[{"name":"account","type":"address","indexed":false,"internalType":"address"}],"anonymous":false},{"type":"error","name":"ERC20InsufficientAllowance","inputs":[{"name":"spender","type":"address","internalType":"address"},{"name":"allowance","type":"uint256","internalType":"uint256"},{"name":"needed","type":"uint256","internalType":"uint256"}]},{"type":"error","name":"ERC20InsufficientBalance","inputs":[{"name":"sender","type":"address","internalType":"address"},{"name":"balance","type":"uint256","internalType":"uint256"},{"name":"needed","type":"uint256","internalType":"uint256"}]},{"type":"error","name":"ERC20InvalidApprover","inputs":[{"name":"approver","type":"address","internalType":"address"}]},{"type":"error","name":"ERC20InvalidReceiver","inputs":[{"name":"receiver","type":"address","internalType":"address"}]},{"type":"error","name":"ERC20InvalidSender","inputs":[{"name":"sender","type":"address","internalType":"address"}]},{"type":"error","name":"ERC20InvalidSpender","inputs":[{"name":"spender","type":"address","internalType":"address"}]},{"type":"error","name":"EnforcedPause","inputs":[]},{"type":"error","name":"ExpectedPause","inputs":[]},{"type":"error","name":"OwnableInvalidOwner","inputs":[{"name":"owner","type":"address","internalType":"address"}]},{"type":"error","name":"OwnableUnauthorizedAccount","inputs":[{"name":"account","type":"address","internalType":"address"}]}],"bytecode":{"object":"0x60806040526040516200260d3803806200260d83398181016040528101906200002991906200093a565b335f73ffffffffffffffffffffffffffffffffffffffff168173ffffffffffffffffffffffffffffffffffffffff16036200009d575f6040517f1e4fbdf700000000000000000000000000000000000000000000000000000000815260040162000094919062000a21565b60405180910390fd5b620000ae81620002c460201b60201c565b505f8060146101000a81548160ff0219169083151502179055508560049081620000d9919062000c6a565b508460059081620000eb919062000c6a565b508360065f6101000a81548160ff021916908360ff160217905550803410156200014c576040517f08c379a0000000000000000000000000000000000000000000000000000000008152600401620001439062000dac565b60405180910390fd5b5f73ffffffffffffffffffffffffffffffffffffffff168273ffffffffffffffffffffffffffffffffffffffff1603620001bd576040517f08c379a0000000000000000000000000000000000000000000000000000000008152600401620001b49062000e1a565b60405180910390fd5b5f8273ffffffffffffffffffffffffffffffffffffffff1682604051620001e49062000e6b565b5f6040518083038185875af1925050503d805f811462000220576040519150601f19603f3d011682016040523d82523d5f602084013e62000225565b606091505b50509050806200026c576040517f08c379a0000000000000000000000000000000000000000000000000000000008152600401620002639062000ecf565b60405180910390fd5b620002b7620002806200038560201b60201c565b62000290620003ac60201b60201c565b600a6200029e91906200106c565b86620002ab9190620010bc565b620003c160201b60201c565b50505050505050620011a7565b5f805f9054906101000a900473ffffffffffffffffffffffffffffffffffffffff169050815f806101000a81548173ffffffffffffffffffffffffffffffffffffffff021916908373ffffffffffffffffffffffffffffffffffffffff1602179055508173ffffffffffffffffffffffffffffffffffffffff168173ffffffffffffffffffffffffffffffffffffffff167f8be0079c531659141344cd1fd0a4f28419497f9722a3daafe3b4186f6b6457e060405160405180910390a35050565b5f805f9054906101000a900473ffffffffffffffffffffffffffffffffffffffff16905090565b5f60065f9054906101000a900460ff16905090565b5f73ffffffffffffffffffffffffffffffffffffffff168273ffffffffffffffffffffffffffffffffffffffff160362000434575f6040517fec442f050000000000000000000000000000000000000000000000000000000081526004016200042b919062000a21565b60405180910390fd5b620004475f83836200044b60201b60201c565b5050565b6200045b6200068260201b60201c565b5f73ffffffffffffffffffffffffffffffffffffffff168373ffffffffffffffffffffffffffffffffffffffff1603620004af578060035f828254620004a2919062001106565b9250508190555062000582565b5f60015f8573ffffffffffffffffffffffffffffffffffffffff1673ffffffffffffffffffffffffffffffffffffffff1681526020019081526020015f20549050818110156200053c578381836040517fe450d38c000000000000000000000000000000000000000000000000000000008152600401620005339392919062001151565b60405180910390fd5b81810360015f8673ffffffffffffffffffffffffffffffffffffffff1673ffffffffffffffffffffffffffffffffffffffff1681526020019081526020015f2081905550505b5f73ffffffffffffffffffffffffffffffffffffffff168273ffffffffffffffffffffffffffffffffffffffff1603620005cb578060035f828254039250508190555062000616565b8060015f8473ffffffffffffffffffffffffffffffffffffffff1673ffffffffffffffffffffffffffffffffffffffff1681526020019081526020015f205f82825401925050819055505b8173ffffffffffffffffffffffffffffffffffffffff168373ffffffffffffffffffffffffffffffffffffffff167fddf252ad1be2c89b69c2b068fc378daa952ba7f163c4a11628f55a4df523b3ef836040516200067591906200118c565b60405180910390a3505050565b62000692620006cc60201b60201c565b15620006ca576040517fd93c066500000000000000000000000000000000000000000000000000000000815260040160405180910390fd5b565b5f8060149054906101000a900460ff16905090565b5f604051905090565b5f80fd5b5f80fd5b5f80fd5b5f80fd5b5f601f19601f8301169050919050565b7f4e487b71000000000000000000000000000000000000000000000000000000005f52604160045260245ffd5b6200074282620006fa565b810181811067ffffffffffffffff821117156200076457620007636200070a565b5b80604052505050565b5f62000778620006e1565b905062000786828262000737565b919050565b5f67ffffffffffffffff821115620007a857620007a76200070a565b5b620007b382620006fa565b9050602081019050919050565b5f5b83811015620007df578082015181840152602081019050620007c2565b5f8484015250505050565b5f62000800620007fa846200078b565b6200076d565b9050828152602081018484840111156200081f576200081e620006f6565b5b6200082c848285620007c0565b509392505050565b5f82601f8301126200084b576200084a620006f2565b5b81516200085d848260208601620007ea565b91505092915050565b5f60ff82169050919050565b6200087d8162000866565b811462000888575f80fd5b50565b5f815190506200089b8162000872565b92915050565b5f819050919050565b620008b581620008a1565b8114620008c0575f80fd5b50565b5f81519050620008d381620008aa565b92915050565b5f73ffffffffffffffffffffffffffffffffffffffff82169050919050565b5f6200090482620008d9565b9050919050565b6200091681620008f8565b811462000921575f80fd5b50565b5f8151905062000934816200090b565b92915050565b5f805f805f8060c08789031215620009575762000956620006ea565b5b5f87015167ffffffffffffffff811115620009775762000976620006ee565b5b6200098589828a0162000834565b965050602087015167ffffffffffffffff811115620009a957620009a8620006ee565b5b620009b789828a0162000834565b9550506040620009ca89828a016200088b565b9450506060620009dd89828a01620008c3565b9350506080620009f089828a0162000924565b92505060a062000a0389828a01620008c3565b9150509295509295509295565b62000a1b81620008f8565b82525050565b5f60208201905062000a365f83018462000a10565b92915050565b5f81519050919050565b7f4e487b71000000000000000000000000000000000000000000000000000000005f52602260045260245ffd5b5f600282049050600182168062000a8b57607f821691505b60208210810362000aa15762000aa062000a46565b5b50919050565b5f819050815f5260205f209050919050565b5f6020601f8301049050919050565b5f82821b905092915050565b5f6008830262000b057fffffffffffffffffffffffffffffffffffffffffffffffffffffffffffffffff8262000ac8565b62000b11868362000ac8565b95508019841693508086168417925050509392505050565b5f819050919050565b5f62000b5262000b4c62000b4684620008a1565b62000b29565b620008a1565b9050919050565b5f819050919050565b62000b6d8362000b32565b62000b8562000b7c8262000b59565b84845462000ad4565b825550505050565b5f90565b62000b9b62000b8d565b62000ba881848462000b62565b505050565b5b8181101562000bcf5762000bc35f8262000b91565b60018101905062000bae565b5050565b601f82111562000c1e5762000be88162000aa7565b62000bf38462000ab9565b8101602085101562000c03578190505b62000c1b62000c128562000ab9565b83018262000bad565b50505b505050565b5f82821c905092915050565b5f62000c405f198460080262000c23565b1980831691505092915050565b5f62000c5a838362000c2f565b9150826002028217905092915050565b62000c758262000a3c565b67ffffffffffffffff81111562000c915762000c906200070a565b5b62000c9d825462000a73565b62000caa82828562000bd3565b5f60209050601f83116001811462000ce0575f841562000ccb578287015190505b62000cd7858262000c4d565b86555062000d46565b601f19841662000cf08662000aa7565b5f5b8281101562000d195784890151825560018201915060208501945060208101905062000cf2565b8683101562000d39578489015162000d35601f89168262000c2f565b8355505b6001600288020188555050505b505050505050565b5f82825260208201905092915050565b7f496e73756666696369656e742066656520616d6f756e742073656e74000000005f82015250565b5f62000d94601c8362000d4e565b915062000da18262000d5e565b602082019050919050565b5f6020820190508181035f83015262000dc58162000d86565b9050919050565b7f496e76616c6964206665652072656365697665722061646472657373000000005f82015250565b5f62000e02601c8362000d4e565b915062000e0f8262000dcc565b602082019050919050565b5f6020820190508181035f83015262000e338162000df4565b9050919050565b5f81905092915050565b50565b5f62000e545f8362000e3a565b915062000e618262000e44565b5f82019050919050565b5f62000e778262000e47565b9150819050919050565b7f466565207472616e73666572206661696c6564000000000000000000000000005f82015250565b5f62000eb760138362000d4e565b915062000ec48262000e81565b602082019050919050565b5f6020820190508181035f83015262000ee88162000ea9565b9050919050565b7f4e487b71000000000000000000000000000000000000000000000000000000005f52601160045260245ffd5b5f8160011c9050919050565b5f808291508390505b600185111562000f795780860481111562000f515762000f5062000eef565b5b600185161562000f615780820291505b808102905062000f718562000f1c565b945062000f31565b94509492505050565b5f8262000f93576001905062001065565b8162000fa2575f905062001065565b816001811462000fbb576002811462000fc65762000ffc565b600191505062001065565b60ff84111562000fdb5762000fda62000eef565b5b8360020a91508482111562000ff55762000ff462000eef565b5b5062001065565b5060208310610133831016604e8410600b8410161715620010365782820a90508381111562001030576200102f62000eef565b5b62001065565b62001045848484600162000f28565b925090508184048111156200105f576200105e62000eef565b5b81810290505b9392505050565b5f6200107882620008a1565b9150620010858362000866565b9250620010b47fffffffffffffffffffffffffffffffffffffffffffffffffffffffffffffffff848462000f82565b905092915050565b5f620010c882620008a1565b9150620010d583620008a1565b9250828202620010e581620008a1565b91508282048414831517620010ff57620010fe62000eef565b5b5092915050565b5f6200111282620008a1565b91506200111f83620008a1565b92508282019050808211156200113a576200113962000eef565b5b92915050565b6200114b81620008a1565b82525050565b5f606082019050620011665f83018662000a10565b62001175602083018562001140565b62001184604083018462001140565b949350505050565b5f602082019050620011a15f83018462001140565b92915050565b61145880620011b55f395ff3fe608060405234801561000f575f80fd5b5060043610610114575f3560e01c806370a08231116100a05780638da5cb5b1161006f5780638da5cb5b1461029257806395d89b41146102b0578063a9059cbb146102ce578063dd62ed3e146102fe578063f2fde38b1461032e57610114565b806370a0823114610232578063715018a61461026257806379cc67901461026c5780638456cb591461028857610114565b8063313ce567116100e7578063313ce567146101b45780633f4ba83a146101d257806340c10f19146101dc57806342966c68146101f85780635c975abb1461021457610114565b806306fdde0314610118578063095ea7b31461013657806318160ddd1461016657806323b872dd14610184575b5f80fd5b61012061034a565b60405161012d91906110a6565b60405180910390f35b610150600480360381019061014b9190611157565b6103da565b60405161015d91906111af565b60405180910390f35b61016e6103fc565b60405161017b91906111d7565b60405180910390f35b61019e600480360381019061019991906111f0565b610405565b6040516101ab91906111af565b60405180910390f35b6101bc610433565b6040516101c9919061125b565b60405180910390f35b6101da610448565b005b6101f660048036038101906101f19190611157565b61045a565b005b610212600480360381019061020d9190611274565b610470565b005b61021c610484565b60405161022991906111af565b60405180910390f35b61024c6004803603810190610247919061129f565b610499565b60405161025991906111d7565b60405180910390f35b61026a6104df565b005b61028660048036038101906102819190611157565b6104f2565b005b610290610512565b005b61029a610524565b6040516102a791906112d9565b60405180910390f35b6102b861054b565b6040516102c591906110a6565b60405180910390f35b6102e860048036038101906102e39190611157565b6105db565b6040516102f591906111af565b60405180910390f35b610318600480360381019061031391906112f2565b6105fd565b60405161032591906111d7565b60405180910390f35b6103486004803603810190610343919061129f565b61067f565b005b6060600480546103599061135d565b80601f01602080910402602001604051908101604052809291908181526020018280546103859061135d565b80156103d05780601f106103a7576101008083540402835291602001916103d0565b820191905f5260205f20905b8154815290600101906020018083116103b357829003601f168201915b5050505050905090565b5f806103e4610703565b90506103f181858561070a565b600191505092915050565b5f600354905090565b5f8061040f610703565b905061041c85828561071c565b6104278585856107af565b60019150509392505050565b5f60065f9054906101000a900460ff16905090565b61045061089f565b610458610926565b565b61046261089f565b61046c8282610987565b5050565b61048161047b610703565b82610a06565b50565b5f8060149054906101000a900460ff16905090565b5f60015f8373ffffffffffffffffffffffffffffffffffffffff1673ffffffffffffffffffffffffffffffffffffffff1681526020019081526020015f20549050919050565b6104e761089f565b6104f05f610a85565b565b610504826104fe610703565b8361071c565b61050e8282610a06565b5050565b61051a61089f565b610522610b46565b565b5f805f9054906101000a900473ffffffffffffffffffffffffffffffffffffffff16905090565b60606005805461055a9061135d565b80601f01602080910402602001604051908101604052809291908181526020018280546105869061135d565b80156105d15780601f106105a8576101008083540402835291602001916105d1565b820191905f5260205f20905b8154815290600101906020018083116105b457829003601f168201915b5050505050905090565b5f806105e5610703565b90506105f28185856107af565b600191505092915050565b5f60025f8473ffffffffffffffffffffffffffffffffffffffff1673ffffffffffffffffffffffffffffffffffffffff1681526020019081526020015f205f8373ffffffffffffffffffffffffffffffffffffffff1673ffffffffffffffffffffffffffffffffffffffff1681526020019081526020015f2054905092915050565b61068761089f565b5f73ffffffffffffffffffffffffffffffffffffffff168173ffffffffffffffffffffffffffffffffffffffff16036106f7575f6040517f1e4fbdf70000000000000000000000000000000000000000000000000000000081526004016106ee91906112d9565b60405180910390fd5b61070081610a85565b50565b5f33905090565b6107178383836001610ba8565b505050565b5f61072784846105fd565b90507fffffffffffffffffffffffffffffffffffffffffffffffffffffffffffffffff8110156107a9578181101561079a578281836040517ffb8f41b20000000000000000000000000000000000000000000000000000000081526004016107919392919061138d565b60405180910390fd5b6107a884848484035f610ba8565b5b50505050565b5f73ffffffffffffffffffffffffffffffffffffffff168373ffffffffffffffffffffffffffffffffffffffff160361081f575f6040517f96c6fd1e00000000000000000000000000000000000000000000000000000000815260040161081691906112d9565b60405180910390fd5b5f73ffffffffffffffffffffffffffffffffffffffff168273ffffffffffffffffffffffffffffffffffffffff160361088f575f6040517fec442f0500000000000000000000000000000000000000000000000000000000815260040161088691906112d9565b60405180910390fd5b61089a838383610d77565b505050565b6108a7610703565b73ffffffffffffffffffffffffffffffffffffffff166108c5610524565b73ffffffffffffffffffffffffffffffffffffffff1614610924576108e8610703565b6040517f118cdaa700000000000000000000000000000000000000000000000000000000815260040161091b91906112d9565b60405180910390fd5b565b61092e610f9b565b5f8060146101000a81548160ff0219169083151502179055507f5db9ee0a495bf2e6ff9c91a7834c1ba4fdd244a5e8aa4e537bd38aeae4b073aa610970610703565b60405161097d91906112d9565b60405180910390a1565b5f73ffffffffffffffffffffffffffffffffffffffff168273ffffffffffffffffffffffffffffffffffffffff16036109f7575f6040517fec442f050000000000000000000000000000000000000000000000000000000081526004016109ee91906112d9565b60405180910390fd5b610a025f8383610d77565b5050565b5f73ffffffffffffffffffffffffffffffffffffffff168273ffffffffffffffffffffffffffffffffffffffff1603610a76575f6040517f96c6fd1e000000000000000000000000000000000000000000000000000000008152600401610a6d91906112d9565b60405180910390fd5b610a81825f83610d77565b5050565b5f805f9054906101000a900473ffffffffffffffffffffffffffffffffffffffff169050815f806101000a81548173ffffffffffffffffffffffffffffffffffffffff021916908373ffffffffffffffffffffffffffffffffffffffff1602179055508173ffffffffffffffffffffffffffffffffffffffff168173ffffffffffffffffffffffffffffffffffffffff167f8be0079c531659141344cd1fd0a4f28419497f9722a3daafe3b4186f6b6457e060405160405180910390a35050565b610b4e610fdb565b60015f60146101000a81548160ff0219169083151502179055507f62e78cea01bee320cd4e420270b5ea74000d11b0c9f74754ebdbfc544b05a258610b91610703565b604051610b9e91906112d9565b60405180910390a1565b5f73ffffffffffffffffffffffffffffffffffffffff168473ffffffffffffffffffffffffffffffffffffffff1603610c18575f6040517fe602df05000000000000000000000000000000000000000000000000000000008152600401610c0f91906112d9565b60405180910390fd5b5f73ffffffffffffffffffffffffffffffffffffffff168373ffffffffffffffffffffffffffffffffffffffff1603610c88575f6040517f94280d62000000000000000000000000000000000000000000000000000000008152600401610c7f91906112d9565b60405180910390fd5b8160025f8673ffffffffffffffffffffffffffffffffffffffff1673ffffffffffffffffffffffffffffffffffffffff1681526020019081526020015f205f8573ffffffffffffffffffffffffffffffffffffffff1673ffffffffffffffffffffffffffffffffffffffff1681526020019081526020015f20819055508015610d71578273ffffffffffffffffffffffffffffffffffffffff168473ffffffffffffffffffffffffffffffffffffffff167f8c5be1e5ebec7d5bd14f71427d1e84f3dd0314c0f7b2291e5b200ac8c7c3b92584604051610d6891906111d7565b60405180910390a35b50505050565b610d7f610fdb565b5f73ffffffffffffffffffffffffffffffffffffffff168373ffffffffffffffffffffffffffffffffffffffff1603610dcf578060035f828254610dc391906113ef565b92505081905550610e9f565b5f60015f8573ffffffffffffffffffffffffffffffffffffffff1673ffffffffffffffffffffffffffffffffffffffff1681526020019081526020015f2054905081811015610e59578381836040517fe450d38c000000000000000000000000000000000000000000000000000000008152600401610e509392919061138d565b60405180910390fd5b81810360015f8673ffffffffffffffffffffffffffffffffffffffff1673ffffffffffffffffffffffffffffffffffffffff1681526020019081526020015f2081905550505b5f73ffffffffffffffffffffffffffffffffffffffff168273ffffffffffffffffffffffffffffffffffffffff1603610ee6578060035f8282540392505081905550610f31565b8060015f8473ffffffffffffffffffffffffffffffffffffffff1673ffffffffffffffffffffffffffffffffffffffff1681526020019081526020015f205f82825401925050819055505b8173ffffffffffffffffffffffffffffffffffffffff168373ffffffffffffffffffffffffffffffffffffffff167fddf252ad1be2c89b69c2b068fc378daa952ba7f163c4a11628f55a4df523b3ef83604051610f8e91906111d7565b60405180910390a3505050565b610fa3610484565b610fd9576040517f8dfc202b00000000000000000000000000000000000000000000000000000000815260040160405180910390fd5b565b610fe3610484565b1561101a576040517fd93c066500000000000000000000000000000000000000000000000000000000815260040160405180910390fd5b565b5f81519050919050565b5f82825260208201905092915050565b5f5b83811015611053578082015181840152602081019050611038565b5f8484015250505050565b5f601f19601f8301169050919050565b5f6110788261101c565b6110828185611026565b9350611092818560208601611036565b61109b8161105e565b840191505092915050565b5f6020820190508181035f8301526110be818461106e565b905092915050565b5f80fd5b5f73ffffffffffffffffffffffffffffffffffffffff82169050919050565b5f6110f3826110ca565b9050919050565b611103816110e9565b811461110d575f80fd5b50565b5f8135905061111e816110fa565b92915050565b5f819050919050565b61113681611124565b8114611140575f80fd5b50565b5f813590506111518161112d565b92915050565b5f806040838503121561116d5761116c6110c6565b5b5f61117a85828601611110565b925050602061118b85828601611143565b9150509250929050565b5f8115159050919050565b6111a981611195565b82525050565b5f6020820190506111c25f8301846111a0565b92915050565b6111d181611124565b82525050565b5f6020820190506111ea5f8301846111c8565b92915050565b5f805f60608486031215611207576112066110c6565b5b5f61121486828701611110565b935050602061122586828701611110565b925050604061123686828701611143565b9150509250925092565b5f60ff82169050919050565b61125581611240565b82525050565b5f60208201905061126e5f83018461124c565b92915050565b5f60208284031215611289576112886110c6565b5b5f61129684828501611143565b91505092915050565b5f602082840312156112b4576112b36110c6565b5b5f6112c184828501611110565b91505092915050565b6112d3816110e9565b82525050565b5f6020820190506112ec5f8301846112ca565b92915050565b5f8060408385031215611308576113076110c6565b5b5f61131585828601611110565b925050602061132685828601611110565b9150509250929050565b7f4e487b71000000000000000000000000000000000000000000000000000000005f52602260045260245ffd5b5f600282049050600182168061137457607f821691505b60208210810361138757611386611330565b5b50919050565b5f6060820190506113a05f8301866112ca565b6113ad60208301856111c8565b6113ba60408301846111c8565b949350505050565b7f4e487b71000000000000000000000000000000000000000000000000000000005f52601160045260245ffd5b5f6113f982611124565b915061140483611124565b925082820190508082111561141c5761141b6113c2565b5b9291505056fea26469706673582212206b177dddf1401a48417b24f5e2538754000986b000614cbdc837839099c0274864736f6c63430008170033","linkReferences":{}},"methodIdentifiers":{"allowance(address,address)":"dd62ed3e","approve(address,uint256)":"095ea7b3","balanceOf(address)":"70a08231","burn(uint256)":"42966c68","burnFrom(address,uint256)":"79cc6790","decimals()":"313ce567","mint(address,uint256)":"40c10f19","name()":"06fdde03","owner()":"8da5cb5b","pause()":"8456cb59","paused()":"5c975abb","renounceOwnership()":"715018a6","symbol()":"95d89b41","totalSupply()":"18160ddd","transfer(address,uint256)":"a9059cbb","transferFrom(address,address,uint256)":"23b872dd","transferOwnership(address)":"f2fde38b","unpause()":"3f4ba83a"},"id":17}