{"abi":[{"type":"constructor","inputs":[{"name":"name_","type":"string","internalType":"string"},{"name":"symbol_","type":"string","internalType":"string"},{"name":"decimals_","type":"uint8","internalType":"uint8"},{"name":"totalSupply_","type":"uint256","internalType":"uint256"},{"name":"serviceFeeReceiver_","type":"address","internalType":"address"},{"name":"serviceFee_","type":"uint256","internalType":"uint256"},{"name":"transferTaxBps_","type":"uint256","internalType":"uint256"},{"name":"taxFeeRecipient_","type":"address","internalType":"address"}],"stateMutability":"payable"},{"type":"function","name":"allowance","inputs":[{"name":"owner","type":"address","internalType":"address"},{"name":"spender","type":"address","internalType":"address"}],"outputs":[{"name":"","type":"uint256","internalType":"uint256"}],"stateMutability":"view"},{"type":"function","name":"approve","inputs":[{"name":"spender","type":"address","internalType":"address"},{"name":"value","type":"uint256","internalType":"uint256"}],"outputs":[{"name":"","type":"bool","internalType":"bool"}],"stateMutability":"nonpayable"},{"type":"function","name":"balanceOf","inputs":[{"name":"account","type":"address","internalType":"address"}],"outputs":[{"name":"","type":"uint256","internalType":"uint256"}],"stateMutability":"view"},{"type":"function","name":"blacklist","inputs":[{"name":"account","type":"address","internalType":"address"}],"outputs":[],"stateMutability":"nonpayable"},{"type":"function","name":"decimals","inputs":[],"outputs":[{"name":"","type":"uint8","internalType":"uint8"}],"stateMutability":"view"},{"type":"function","name":"getTaxFeeRecipient","inputs":[],"outputs":[{"name":"","type":"address","internalType":"address"}],"stateMutability":"view"},{"type":"function","name":"getTransferTaxBps","inputs":[],"outputs":[{"name":"","type":"uint256","internalType":"uint256"}],"stateMutability":"view"},{"type":"function","name":"isBlacklisted","inputs":[{"name":"account","type":"address","internalType":"address"}],"outputs":[{"name":"","type":"bool","internalType":"bool"}],"stateMutability":"view"},{"type":"function","name":"name","inputs":[],"outputs":[{"name":"","type":"string","internalType":"string"}],"stateMutability":"view"},{"type":"function","name":"owner","inputs":[],"outputs":[{"name":"","type":"address","internalType":"address"}],"stateMutability":"view"},{"type":"function","name":"pause","inputs":[],"outputs":[],"stateMutability":"nonpayable"},{"type":"function","name":"paused","inputs":[],"outputs":[{"name":"","type":"bool","internalType":"bool"}],"stateMutability":"view"},{"type":"function","name":"renounceOwnership","inputs":[],"outputs":[],"stateMutability":"nonpayable"},{"type":"function","name":"symbol","inputs":[],"outputs":[{"name":"","type":"string","internalType":"string"}],"stateMutability":"view"},{"type":"function","name":"totalSupply","inputs":[],"outputs":[{"name":"","type":"uint256","internalType":"uint256"}],"stateMutability":"view"},{"type":"function","name":"transfer","inputs":[{"name":"to","type":"address","internalType":"address"},{"name":"value","type":"uint256","internalType":"uint256"}],"outputs":[{"name":"","type":"bool","internalType":"bool"}],"stateMutability":"nonpayable"},{"type":"function","name":"transferFrom","inputs":[{"name":"from","type":"address","internalType":"address"},{"name":"to","type":"address","internalType":"address"},{"name":"value","type":"uint256","internalType":"uint256"}],"outputs":[{"name":"","type":"bool","internalType":"bool"}],"stateMutability":"nonpayable"},{"type":"function","name":"transferOwnership","inputs":[{"name":"newOwner","type":"address","internalType":"address"}],"outputs":[],"stateMutability":"nonpayable"},{"type":"function","name":"unblacklist","inputs":[{"name":"account","type":"address","internalType":"address"}],"outputs":[],"stateMutability":"nonpayable"},{"type":"function","name":"unpause","inputs":[],"outputs":[],"stateMutability":"nonpayable"},{"type":"function","name":"updateTaxFeeRecipient","inputs":[{"name":"newTaxFeeRecipient","type":"address","internalType":"address"}],"outputs":[],"stateMutability":"nonpayable"},{"type":"event","name":"Approval","inputs":[{"name":"owner","type":"address","indexed":true,"internalType":"address"},{"name":"spender","type":"address","indexed":true,"internalType":"address"},{"name":"value","type":"uint256","indexed":false,"internalType":"uint256"}],"anonymous":false},{"type":"event","name":"Blacklisted","inputs":[{"name":"account","type":"address","indexed":true,"internalType":"address"}],"anonymous":false},{"type":"event","name":"OwnershipTransferred","inputs":[{"name":"previousOwner","type":"address","indexed":true,"internalType":"address"},{"name":"newOwner","type":"address","indexed":true,"internalType":"address"}],"anonymous":false},{"type":"event","name":"Paused","inputs":[{"name":"account","type":"address","indexed":false,"internalType":"address"}],"anonymous":false},{"type":"event","name":"TaxFeeRecipientUpdated","inputs":[{"name":"newTaxFeeRecipient","type":"address","indexed":false,"internalType":"address"}],"anonymous":false},{"type":"event","name":"Transfer","inputs":[{"name":"from","type":"address","indexed":true,"internalType":"address"},{"name":"to","type":"address","indexed":true,"internalType":"address"},{"name":"value","type":"uint256","indexed":false,"internalType":"uint256"}],"anonymous":false},{"type":"event","name":"Unblacklisted","inputs":[{"name":"account","type":"address","indexed":true,"internalType":"address"}],"anonymous":false},{"type":"event","name":"Unpaused","inputs":[{"name":"account","type":"address","indexed":false,"internalType":"address"}],"anonymous":false},{"type":"error","name":"ERC20InsufficientAllowance","inputs":[{"name":"spender","type":"address","internalType":"address"},{"name":"allowance","type":"uint256","internalType":"uint256"},{"name":"needed","type":"uint256","internalType":"uint256"}]},{"type":"error","name":"ERC20InsufficientBalance","inputs":[{"name":"sender","type":"address","internalType":"address"},{"name":"balance","type":"uint256","internalType":"uint256"},{"name":"needed","type":"uint256","internalType":"uint256"}]},{"type":"error","name":"ERC20InvalidApprover","inputs":[{"name":"approver","type":"address","internalType":"address"}]},{"type":"error","name":"ERC20InvalidReceiver","inputs":[{"name":"receiver","type":"address","internalType":"address"}]},{"type":"error","name":"ERC20InvalidSender","inputs":[{"name":"sender","type":"address","internalType":"address"}]},{"type":"error","name":"ERC20InvalidSpender","inputs":[{"name":"spender","type":"address","internalType":"address"}]},{"type":"error","name":"EnforcedPause","inputs":[]},{"type":"error","name":"ExpectedPause","inputs":[]},{"type":"error","name":"OwnableInvalidOwner","inputs":[{"name":"owner","type":"address","internalType":"address"}]},{"type":"error","name":"OwnableUnauthorizedAccount","inputs":[{"name":"account","type":"address","internalType":"address"}]}],"bytecode":{"object":"0x60806040526040516131ac3803806131ac833981810160405281019061002591906108f8565b335f73ffffffffffffffffffffffffffffffffffffffff168173ffffffffffffffffffffffffffffffffffffffff1603610096575f6040517f1e4fbdf700000000000000000000000000000000000000000000000000000000815260040161008d91906109f0565b60405180910390fd5b6100a5816102e860201b60201c565b505f5f60146101000a81548160ff02191690831515021790555087600590816100ce9190610c10565b5086600690816100de9190610c10565b508560075f6101000a81548160ff021916908360ff160217905550816008819055508060095f6101000a81548173ffffffffffffffffffffffffffffffffffffffff021916908373ffffffffffffffffffffffffffffffffffffffff16021790555082341015610183576040517f08c379a000000000000000000000000000000000000000000000000000000000815260040161017a90610d39565b60405180910390fd5b5f73ffffffffffffffffffffffffffffffffffffffff168473ffffffffffffffffffffffffffffffffffffffff16036101f1576040517f08c379a00000000000000000000000000000000000000000000000000000000081526004016101e890610da1565b60405180910390fd5b5f8473ffffffffffffffffffffffffffffffffffffffff168460405161021690610dec565b5f6040518083038185875af1925050503d805f8114610250576040519150601f19603f3d011682016040523d82523d5f602084013e610255565b606091505b5050905080610299576040517f08c379a000000000000000000000000000000000000000000000000000000000815260040161029090610e4a565b60405180910390fd5b6102da6102aa6103a960201b60201c565b6102b86103d060201b60201c565b600a6102c49190610fc4565b886102cf919061100e565b6103e560201b60201c565b50505050505050505061117a565b5f5f5f9054906101000a900473ffffffffffffffffffffffffffffffffffffffff169050815f5f6101000a81548173ffffffffffffffffffffffffffffffffffffffff021916908373ffffffffffffffffffffffffffffffffffffffff1602179055508173ffffffffffffffffffffffffffffffffffffffff168173ffffffffffffffffffffffffffffffffffffffff167f8be0079c531659141344cd1fd0a4f28419497f9722a3daafe3b4186f6b6457e060405160405180910390a35050565b5f5f5f9054906101000a900473ffffffffffffffffffffffffffffffffffffffff16905090565b5f60075f9054906101000a900460ff16905090565b5f73ffffffffffffffffffffffffffffffffffffffff168273ffffffffffffffffffffffffffffffffffffffff1603610453576040517f08c379a000000000000000000000000000000000000000000000000000000000815260040161044a90611099565b60405180910390fd5b6104645f838361046860201b60201c565b5050565b61047661068c60201b60201c565b5f73ffffffffffffffffffffffffffffffffffffffff168373ffffffffffffffffffffffffffffffffffffffff16036104c6578060045f8282546104ba91906110b7565b92505081905550610590565b5f60015f8573ffffffffffffffffffffffffffffffffffffffff1673ffffffffffffffffffffffffffffffffffffffff1681526020019081526020015f205490508181101561054a576040517f08c379a000000000000000000000000000000000000000000000000000000000815260040161054190611134565b60405180910390fd5b81810360015f8673ffffffffffffffffffffffffffffffffffffffff1673ffffffffffffffffffffffffffffffffffffffff1681526020019081526020015f2081905550505b5f73ffffffffffffffffffffffffffffffffffffffff168273ffffffffffffffffffffffffffffffffffffffff16036105d7578060045f8282540392505081905550610622565b8060015f8473ffffffffffffffffffffffffffffffffffffffff1673ffffffffffffffffffffffffffffffffffffffff1681526020019081526020015f205f82825401925050819055505b8173ffffffffffffffffffffffffffffffffffffffff168373ffffffffffffffffffffffffffffffffffffffff167fddf252ad1be2c89b69c2b068fc378daa952ba7f163c4a11628f55a4df523b3ef8360405161067f9190611161565b60405180910390a3505050565b61069a6106d360201b60201c565b156106d1576040517fd93c066500000000000000000000000000000000000000000000000000000000815260040160405180910390fd5b565b5f5f60149054906101000a900460ff16905090565b5f604051905090565b5f5ffd5b5f5ffd5b5f5ffd5b5f5ffd5b5f601f19601f8301169050919050565b7f4e487b71000000000000000000000000000000000000000000000000000000005f52604160045260245ffd5b61074782610701565b810181811067ffffffffffffffff8211171561076657610765610711565b5b80604052505050565b5f6107786106e8565b9050610784828261073e565b919050565b5f67ffffffffffffffff8211156107a3576107a2610711565b5b6107ac82610701565b9050602081019050919050565b8281835e5f83830152505050565b5f6107d96107d484610789565b61076f565b9050828152602081018484840111156107f5576107f46106fd565b5b6108008482856107b9565b509392505050565b5f82601f83011261081c5761081b6106f9565b5b815161082c8482602086016107c7565b91505092915050565b5f60ff82169050919050565b61084a81610835565b8114610854575f5ffd5b50565b5f8151905061086581610841565b92915050565b5f819050919050565b61087d8161086b565b8114610887575f5ffd5b50565b5f8151905061089881610874565b92915050565b5f73ffffffffffffffffffffffffffffffffffffffff82169050919050565b5f6108c78261089e565b9050919050565b6108d7816108bd565b81146108e1575f5ffd5b50565b5f815190506108f2816108ce565b92915050565b5f5f5f5f5f5f5f5f610100898b031215610915576109146106f1565b5b5f89015167ffffffffffffffff811115610932576109316106f5565b5b61093e8b828c01610808565b985050602089015167ffffffffffffffff81111561095f5761095e6106f5565b5b61096b8b828c01610808565b975050604061097c8b828c01610857565b965050606061098d8b828c0161088a565b955050608061099e8b828c016108e4565b94505060a06109af8b828c0161088a565b93505060c06109c08b828c0161088a565b92505060e06109d18b828c016108e4565b9150509295985092959890939650565b6109ea816108bd565b82525050565b5f602082019050610a035f8301846109e1565b92915050565b5f81519050919050565b7f4e487b71000000000000000000000000000000000000000000000000000000005f52602260045260245ffd5b5f6002820490506001821680610a5757607f821691505b602082108103610a6a57610a69610a13565b5b50919050565b5f819050815f5260205f209050919050565b5f6020601f8301049050919050565b5f82821b905092915050565b5f60088302610acc7fffffffffffffffffffffffffffffffffffffffffffffffffffffffffffffffff82610a91565b610ad68683610a91565b95508019841693508086168417925050509392505050565b5f819050919050565b5f610b11610b0c610b078461086b565b610aee565b61086b565b9050919050565b5f819050919050565b610b2a83610af7565b610b3e610b3682610b18565b848454610a9d565b825550505050565b5f5f905090565b610b55610b46565b610b60818484610b21565b505050565b5b81811015610b8357610b785f82610b4d565b600181019050610b66565b5050565b601f821115610bc857610b9981610a70565b610ba284610a82565b81016020851015610bb1578190505b610bc5610bbd85610a82565b830182610b65565b50505b505050565b5f82821c905092915050565b5f610be85f1984600802610bcd565b1980831691505092915050565b5f610c008383610bd9565b9150826002028217905092915050565b610c1982610a09565b67ffffffffffffffff811115610c3257610c31610711565b5b610c3c8254610a40565b610c47828285610b87565b5f60209050601f831160018114610c78575f8415610c66578287015190505b610c708582610bf5565b865550610cd7565b601f198416610c8686610a70565b5f5b82811015610cad57848901518255600182019150602085019450602081019050610c88565b86831015610cca5784890151610cc6601f891682610bd9565b8355505b6001600288020188555050505b505050505050565b5f82825260208201905092915050565b7f496e73756666696369656e742066656520616d6f756e742073656e74000000005f82015250565b5f610d23601c83610cdf565b9150610d2e82610cef565b602082019050919050565b5f6020820190508181035f830152610d5081610d17565b9050919050565b7f496e76616c6964206665652072656365697665720000000000000000000000005f82015250565b5f610d8b601483610cdf565b9150610d9682610d57565b602082019050919050565b5f6020820190508181035f830152610db881610d7f565b9050919050565b5f81905092915050565b50565b5f610dd75f83610dbf565b9150610de282610dc9565b5f82019050919050565b5f610df682610dcc565b9150819050919050565b7f466565207472616e73666572206661696c6564000000000000000000000000005f82015250565b5f610e34601383610cdf565b9150610e3f82610e00565b602082019050919050565b5f6020820190508181035f830152610e6181610e28565b9050919050565b7f4e487b71000000000000000000000000000000000000000000000000000000005f52601160045260245ffd5b5f8160011c9050919050565b5f5f8291508390505b6001851115610eea57808604811115610ec657610ec5610e68565b5b6001851615610ed55780820291505b8081029050610ee385610e95565b9450610eaa565b94509492505050565b5f82610f025760019050610fbd565b81610f0f575f9050610fbd565b8160018114610f255760028114610f2f57610f5e565b6001915050610fbd565b60ff841115610f4157610f40610e68565b5b8360020a915084821115610f5857610f57610e68565b5b50610fbd565b5060208310610133831016604e8410600b8410161715610f935782820a905083811115610f8e57610f8d610e68565b5b610fbd565b610fa08484846001610ea1565b92509050818404811115610fb757610fb6610e68565b5b81810290505b9392505050565b5f610fce8261086b565b9150610fd983610835565b92506110067fffffffffffffffffffffffffffffffffffffffffffffffffffffffffffffffff8484610ef3565b905092915050565b5f6110188261086b565b91506110238361086b565b92508282026110318161086b565b9150828204841483151761104857611047610e68565b5b5092915050565b7f496e76616c6964207265636569766572000000000000000000000000000000005f82015250565b5f611083601083610cdf565b915061108e8261104f565b602082019050919050565b5f6020820190508181035f8301526110b081611077565b9050919050565b5f6110c18261086b565b91506110cc8361086b565b92508282019050808211156110e4576110e3610e68565b5b92915050565b7f496e73756666696369656e742062616c616e63650000000000000000000000005f82015250565b5f61111e601483610cdf565b9150611129826110ea565b602082019050919050565b5f6020820190508181035f83015261114b81611112565b9050919050565b61115b8161086b565b82525050565b5f6020820190506111745f830184611152565b92915050565b612025806111875f395ff3fe608060405234801561000f575f5ffd5b5060043610610135575f3560e01c8063743bfe70116100b657806395d89b411161007a57806395d89b41146102f1578063a9059cbb1461030f578063dd62ed3e1461033f578063f2fde38b1461036f578063f9f92be41461038b578063fe575a87146103a757610135565b8063743bfe701461027357806375e3661e146102915780638456cb59146102ad5780638baace25146102b75780638da5cb5b146102d357610135565b8063313ce567116100fd578063313ce567146101f35780633f4ba83a146102115780635c975abb1461021b57806370a0823114610239578063715018a61461026957610135565b806303073dfc1461013957806306fdde0314610157578063095ea7b31461017557806318160ddd146101a557806323b872dd146101c3575b5f5ffd5b6101416103d7565b60405161014e919061192c565b60405180910390f35b61015f6103ff565b60405161016c91906119b5565b60405180910390f35b61018f600480360381019061018a9190611a36565b61048f565b60405161019c9190611a8e565b60405180910390f35b6101ad6105cb565b6040516101ba9190611ab6565b60405180910390f35b6101dd60048036038101906101d89190611acf565b6105d4565b6040516101ea9190611a8e565b60405180910390f35b6101fb610715565b6040516102089190611b3a565b60405180910390f35b61021961072a565b005b61022361073c565b6040516102309190611a8e565b60405180910390f35b610253600480360381019061024e9190611b53565b610751565b6040516102609190611ab6565b60405180910390f35b610271610797565b005b61027b6107aa565b6040516102889190611ab6565b60405180910390f35b6102ab60048036038101906102a69190611b53565b6107b3565b005b6102b5610855565b005b6102d160048036038101906102cc9190611b53565b610867565b005b6102db6108e9565b6040516102e8919061192c565b60405180910390f35b6102f9610910565b60405161030691906119b5565b60405180910390f35b61032960048036038101906103249190611a36565b6109a0565b6040516103369190611a8e565b60405180910390f35b61035960048036038101906103549190611b7e565b610e28565b6040516103669190611ab6565b60405180910390f35b61038960048036038101906103849190611b53565b610eaa565b005b6103a560048036038101906103a09190611b53565b610f2e565b005b6103c160048036038101906103bc9190611b53565b610fd1565b6040516103ce9190611a8e565b60405180910390f35b5f60095f9054906101000a900473ffffffffffffffffffffffffffffffffffffffff16905090565b60606005805461040e90611be9565b80601f016020809104026020016040519081016040528092919081815260200182805461043a90611be9565b80156104855780601f1061045c57610100808354040283529160200191610485565b820191905f5260205f20905b81548152906001019060200180831161046857829003601f168201915b5050505050905090565b5f610498611023565b60035f8273ffffffffffffffffffffffffffffffffffffffff1673ffffffffffffffffffffffffffffffffffffffff1681526020019081526020015f205f9054906101000a900460ff1615610522576040517f08c379a000000000000000000000000000000000000000000000000000000000815260040161051990611c63565b60405180910390fd5b8360035f8273ffffffffffffffffffffffffffffffffffffffff1673ffffffffffffffffffffffffffffffffffffffff1681526020019081526020015f205f9054906101000a900460ff16156105ad576040517f08c379a00000000000000000000000000000000000000000000000000000000081526004016105a490611c63565b60405180910390fd5b6105bf6105b8611023565b868661102a565b60019250505092915050565b5f600454905090565b5f8360035f8273ffffffffffffffffffffffffffffffffffffffff1673ffffffffffffffffffffffffffffffffffffffff1681526020019081526020015f205f9054906101000a900460ff1615610660576040517f08c379a000000000000000000000000000000000000000000000000000000000815260040161065790611c63565b60405180910390fd5b8360035f8273ffffffffffffffffffffffffffffffffffffffff1673ffffffffffffffffffffffffffffffffffffffff1681526020019081526020015f205f9054906101000a900460ff16156106eb576040517f08c379a00000000000000000000000000000000000000000000000000000000081526004016106e290611c63565b60405180910390fd5b6106fd866106f7611023565b866111ee565b61070886868661127a565b6001925050509392505050565b5f60075f9054906101000a900460ff16905090565b610732611443565b61073a6114ca565b565b5f5f60149054906101000a900460ff16905090565b5f60015f8373ffffffffffffffffffffffffffffffffffffffff1673ffffffffffffffffffffffffffffffffffffffff1681526020019081526020015f20549050919050565b61079f611443565b6107a85f61152b565b565b5f600854905090565b6107bb611443565b5f60035f8373ffffffffffffffffffffffffffffffffffffffff1673ffffffffffffffffffffffffffffffffffffffff1681526020019081526020015f205f6101000a81548160ff0219169083151502179055508073ffffffffffffffffffffffffffffffffffffffff167f7534c63860313c46c473e4e98328f37017e9674e2162faf1a3ad7a96236c3b7b60405160405180910390a250565b61085d611443565b6108656115ec565b565b61086f611443565b8060095f6101000a81548173ffffffffffffffffffffffffffffffffffffffff021916908373ffffffffffffffffffffffffffffffffffffffff1602179055507f3ca9233bd3849737ab1049144180bc625db2d51ca2c5ce949e7209eb32faa3a2816040516108de919061192c565b60405180910390a150565b5f5f5f9054906101000a900473ffffffffffffffffffffffffffffffffffffffff16905090565b60606006805461091f90611be9565b80601f016020809104026020016040519081016040528092919081815260200182805461094b90611be9565b80156109965780601f1061096d57610100808354040283529160200191610996565b820191905f5260205f20905b81548152906001019060200180831161097957829003601f168201915b5050505050905090565b5f3360035f8273ffffffffffffffffffffffffffffffffffffffff1673ffffffffffffffffffffffffffffffffffffffff1681526020019081526020015f205f9054906101000a900460ff1615610a2c576040517f08c379a0000000000000000000000000000000000000000000000000000000008152600401610a2390611c63565b60405180910390fd5b8360035f8273ffffffffffffffffffffffffffffffffffffffff1673ffffffffffffffffffffffffffffffffffffffff1681526020019081526020015f205f9054906101000a900460ff1615610ab7576040517f08c379a0000000000000000000000000000000000000000000000000000000008152600401610aae90611c63565b60405180910390fd5b5f610ac0611023565b90505f61271060085487610ad49190611cae565b610ade9190611d1c565b90505f8187610aed9190611d4c565b90508660015f8573ffffffffffffffffffffffffffffffffffffffff1673ffffffffffffffffffffffffffffffffffffffff1681526020019081526020015f20541015610bb2578260015f8573ffffffffffffffffffffffffffffffffffffffff1673ffffffffffffffffffffffffffffffffffffffff1681526020019081526020015f2054886040517fe450d38c000000000000000000000000000000000000000000000000000000008152600401610ba993929190611d7f565b60405180910390fd5b8660015f8573ffffffffffffffffffffffffffffffffffffffff1673ffffffffffffffffffffffffffffffffffffffff1681526020019081526020015f205f828254610bfe9190611d4c565b925050819055508060015f8a73ffffffffffffffffffffffffffffffffffffffff1673ffffffffffffffffffffffffffffffffffffffff1681526020019081526020015f205f828254610c519190611db4565b925050819055505f73ffffffffffffffffffffffffffffffffffffffff1660095f9054906101000a900473ffffffffffffffffffffffffffffffffffffffff1673ffffffffffffffffffffffffffffffffffffffff1614158015610cb457505f82115b15610db4578160015f60095f9054906101000a900473ffffffffffffffffffffffffffffffffffffffff1673ffffffffffffffffffffffffffffffffffffffff1673ffffffffffffffffffffffffffffffffffffffff1681526020019081526020015f205f828254610d269190611db4565b9250508190555060095f9054906101000a900473ffffffffffffffffffffffffffffffffffffffff1673ffffffffffffffffffffffffffffffffffffffff168373ffffffffffffffffffffffffffffffffffffffff167fddf252ad1be2c89b69c2b068fc378daa952ba7f163c4a11628f55a4df523b3ef84604051610dab9190611ab6565b60405180910390a35b8773ffffffffffffffffffffffffffffffffffffffff168373ffffffffffffffffffffffffffffffffffffffff167fddf252ad1be2c89b69c2b068fc378daa952ba7f163c4a11628f55a4df523b3ef83604051610e119190611ab6565b60405180910390a360019550505050505092915050565b5f60025f8473ffffffffffffffffffffffffffffffffffffffff1673ffffffffffffffffffffffffffffffffffffffff1681526020019081526020015f205f8373ffffffffffffffffffffffffffffffffffffffff1673ffffffffffffffffffffffffffffffffffffffff1681526020019081526020015f2054905092915050565b610eb2611443565b5f73ffffffffffffffffffffffffffffffffffffffff168173ffffffffffffffffffffffffffffffffffffffff1603610f22575f6040517f1e4fbdf7000000000000000000000000000000000000000000000000000000008152600401610f19919061192c565b60405180910390fd5b610f2b8161152b565b50565b610f36611443565b600160035f8373ffffffffffffffffffffffffffffffffffffffff1673ffffffffffffffffffffffffffffffffffffffff1681526020019081526020015f205f6101000a81548160ff0219169083151502179055508073ffffffffffffffffffffffffffffffffffffffff167fffa4e6181777692565cf28528fc88fd1516ea86b56da075235fa575af6a4b85560405160405180910390a250565b5f60035f8373ffffffffffffffffffffffffffffffffffffffff1673ffffffffffffffffffffffffffffffffffffffff1681526020019081526020015f205f9054906101000a900460ff169050919050565b5f33905090565b60035f8473ffffffffffffffffffffffffffffffffffffffff1673ffffffffffffffffffffffffffffffffffffffff1681526020019081526020015f205f9054906101000a900460ff161580156110c8575060035f8373ffffffffffffffffffffffffffffffffffffffff1673ffffffffffffffffffffffffffffffffffffffff1681526020019081526020015f205f9054906101000a900460ff16155b611107576040517f08c379a00000000000000000000000000000000000000000000000000000000081526004016110fe90611e31565b60405180910390fd5b8060025f8573ffffffffffffffffffffffffffffffffffffffff1673ffffffffffffffffffffffffffffffffffffffff1681526020019081526020015f205f8473ffffffffffffffffffffffffffffffffffffffff1673ffffffffffffffffffffffffffffffffffffffff1681526020019081526020015f20819055508173ffffffffffffffffffffffffffffffffffffffff168373ffffffffffffffffffffffffffffffffffffffff167f8c5be1e5ebec7d5bd14f71427d1e84f3dd0314c0f7b2291e5b200ac8c7c3b925836040516111e19190611ab6565b60405180910390a3505050565b5f6111f98484610e28565b90507fffffffffffffffffffffffffffffffffffffffffffffffffffffffffffffffff8110156112745781811015611266576040517f08c379a000000000000000000000000000000000000000000000000000000000815260040161125d90611e99565b60405180910390fd5b611273848484840361102a565b5b50505050565b60035f8473ffffffffffffffffffffffffffffffffffffffff1673ffffffffffffffffffffffffffffffffffffffff1681526020019081526020015f205f9054906101000a900460ff16158015611318575060035f8373ffffffffffffffffffffffffffffffffffffffff1673ffffffffffffffffffffffffffffffffffffffff1681526020019081526020015f205f9054906101000a900460ff16155b611357576040517f08c379a000000000000000000000000000000000000000000000000000000000815260040161134e90611e31565b60405180910390fd5b5f73ffffffffffffffffffffffffffffffffffffffff168373ffffffffffffffffffffffffffffffffffffffff16036113c5576040517f08c379a00000000000000000000000000000000000000000000000000000000081526004016113bc90611f01565b60405180910390fd5b5f73ffffffffffffffffffffffffffffffffffffffff168273ffffffffffffffffffffffffffffffffffffffff1603611433576040517f08c379a000000000000000000000000000000000000000000000000000000000815260040161142a90611f69565b60405180910390fd5b61143e83838361164e565b505050565b61144b611023565b73ffffffffffffffffffffffffffffffffffffffff166114696108e9565b73ffffffffffffffffffffffffffffffffffffffff16146114c85761148c611023565b6040517f118cdaa70000000000000000000000000000000000000000000000000000000081526004016114bf919061192c565b60405180910390fd5b565b6114d261186c565b5f5f60146101000a81548160ff0219169083151502179055507f5db9ee0a495bf2e6ff9c91a7834c1ba4fdd244a5e8aa4e537bd38aeae4b073aa611514611023565b604051611521919061192c565b60405180910390a1565b5f5f5f9054906101000a900473ffffffffffffffffffffffffffffffffffffffff169050815f5f6101000a81548173ffffffffffffffffffffffffffffffffffffffff021916908373ffffffffffffffffffffffffffffffffffffffff1602179055508173ffffffffffffffffffffffffffffffffffffffff168173ffffffffffffffffffffffffffffffffffffffff167f8be0079c531659141344cd1fd0a4f28419497f9722a3daafe3b4186f6b6457e060405160405180910390a35050565b6115f46118ac565b60015f60146101000a81548160ff0219169083151502179055507f62e78cea01bee320cd4e420270b5ea74000d11b0c9f74754ebdbfc544b05a258611637611023565b604051611644919061192c565b60405180910390a1565b6116566118ac565b5f73ffffffffffffffffffffffffffffffffffffffff168373ffffffffffffffffffffffffffffffffffffffff16036116a6578060045f82825461169a9190611db4565b92505081905550611770565b5f60015f8573ffffffffffffffffffffffffffffffffffffffff1673ffffffffffffffffffffffffffffffffffffffff1681526020019081526020015f205490508181101561172a576040517f08c379a000000000000000000000000000000000000000000000000000000000815260040161172190611fd1565b60405180910390fd5b81810360015f8673ffffffffffffffffffffffffffffffffffffffff1673ffffffffffffffffffffffffffffffffffffffff1681526020019081526020015f2081905550505b5f73ffffffffffffffffffffffffffffffffffffffff168273ffffffffffffffffffffffffffffffffffffffff16036117b7578060045f8282540392505081905550611802565b8060015f8473ffffffffffffffffffffffffffffffffffffffff1673ffffffffffffffffffffffffffffffffffffffff1681526020019081526020015f205f82825401925050819055505b8173ffffffffffffffffffffffffffffffffffffffff168373ffffffffffffffffffffffffffffffffffffffff167fddf252ad1be2c89b69c2b068fc378daa952ba7f163c4a11628f55a4df523b3ef8360405161185f9190611ab6565b60405180910390a3505050565b61187461073c565b6118aa576040517f8dfc202b00000000000000000000000000000000000000000000000000000000815260040160405180910390fd5b565b6118b461073c565b156118eb576040517fd93c066500000000000000000000000000000000000000000000000000000000815260040160405180910390fd5b565b5f73ffffffffffffffffffffffffffffffffffffffff82169050919050565b5f611916826118ed565b9050919050565b6119268161190c565b82525050565b5f60208201905061193f5f83018461191d565b92915050565b5f81519050919050565b5f82825260208201905092915050565b8281835e5f83830152505050565b5f601f19601f8301169050919050565b5f61198782611945565b611991818561194f565b93506119a181856020860161195f565b6119aa8161196d565b840191505092915050565b5f6020820190508181035f8301526119cd818461197d565b905092915050565b5f5ffd5b6119e28161190c565b81146119ec575f5ffd5b50565b5f813590506119fd816119d9565b92915050565b5f819050919050565b611a1581611a03565b8114611a1f575f5ffd5b50565b5f81359050611a3081611a0c565b92915050565b5f5f60408385031215611a4c57611a4b6119d5565b5b5f611a59858286016119ef565b9250506020611a6a85828601611a22565b9150509250929050565b5f8115159050919050565b611a8881611a74565b82525050565b5f602082019050611aa15f830184611a7f565b92915050565b611ab081611a03565b82525050565b5f602082019050611ac95f830184611aa7565b92915050565b5f5f5f60608486031215611ae657611ae56119d5565b5b5f611af3868287016119ef565b9350506020611b04868287016119ef565b9250506040611b1586828701611a22565b9150509250925092565b5f60ff82169050919050565b611b3481611b1f565b82525050565b5f602082019050611b4d5f830184611b2b565b92915050565b5f60208284031215611b6857611b676119d5565b5b5f611b75848285016119ef565b91505092915050565b5f5f60408385031215611b9457611b936119d5565b5b5f611ba1858286016119ef565b9250506020611bb2858286016119ef565b9150509250929050565b7f4e487b71000000000000000000000000000000000000000000000000000000005f52602260045260245ffd5b5f6002820490506001821680611c0057607f821691505b602082108103611c1357611c12611bbc565b5b50919050565b7f4164647265737320697320626c61636b6c6973746564000000000000000000005f82015250565b5f611c4d60168361194f565b9150611c5882611c19565b602082019050919050565b5f6020820190508181035f830152611c7a81611c41565b9050919050565b7f4e487b71000000000000000000000000000000000000000000000000000000005f52601160045260245ffd5b5f611cb882611a03565b9150611cc383611a03565b9250828202611cd181611a03565b91508282048414831517611ce857611ce7611c81565b5b5092915050565b7f4e487b71000000000000000000000000000000000000000000000000000000005f52601260045260245ffd5b5f611d2682611a03565b9150611d3183611a03565b925082611d4157611d40611cef565b5b828204905092915050565b5f611d5682611a03565b9150611d6183611a03565b9250828203905081811115611d7957611d78611c81565b5b92915050565b5f606082019050611d925f83018661191d565b611d9f6020830185611aa7565b611dac6040830184611aa7565b949350505050565b5f611dbe82611a03565b9150611dc983611a03565b9250828201905080821115611de157611de0611c81565b5b92915050565b7f426c61636b6c69737465642061646472657373000000000000000000000000005f82015250565b5f611e1b60138361194f565b9150611e2682611de7565b602082019050919050565b5f6020820190508181035f830152611e4881611e0f565b9050919050565b7f496e73756666696369656e7420616c6c6f77616e6365000000000000000000005f82015250565b5f611e8360168361194f565b9150611e8e82611e4f565b602082019050919050565b5f6020820190508181035f830152611eb081611e77565b9050919050565b7f496e76616c69642073656e6465720000000000000000000000000000000000005f82015250565b5f611eeb600e8361194f565b9150611ef682611eb7565b602082019050919050565b5f6020820190508181035f830152611f1881611edf565b9050919050565b7f496e76616c6964207265636569766572000000000000000000000000000000005f82015250565b5f611f5360108361194f565b9150611f5e82611f1f565b602082019050919050565b5f6020820190508181035f830152611f8081611f47565b9050919050565b7f496e73756666696369656e742062616c616e63650000000000000000000000005f82015250565b5f611fbb60148361194f565b9150611fc682611f87565b602082019050919050565b5f6020820190508181035f830152611fe881611faf565b905091905056fea26469706673582212202e5ef6930311baee73ff2f228fe7302e575ce244c94d521258c711b8cda371d764736f6c634300081c0033","linkReferences":{}},"methodIdentifiers":{"allowance(address,address)":"dd62ed3e","approve(address,uint256)":"095ea7b3","balanceOf(address)":"70a08231","blacklist(address)":"f9f92be4","decimals()":"313ce567","getTaxFeeRecipient()":"03073dfc","getTransferTaxBps()":"743bfe70","isBlacklisted(address)":"fe575a87","name()":"06fdde03","owner()":"8da5cb5b","pause()":"8456cb59","paused()":"5c975abb","renounceOwnership()":"715018a6","symbol()":"95d89b41","totalSupply()":"18160ddd","transfer(address,uint256)":"a9059cbb","transferFrom(address,address,uint256)":"23b872dd","transferOwnership(address)":"f2fde38b","unblacklist(address)":"75e3661e","unpause()":"3f4ba83a","updateTaxFeeRecipient(address)":"8baace25"},"id":24}