{"abi":[{"type":"constructor","inputs":[{"name":"name_","type":"string","internalType":"string"},{"name":"symbol_","type":"string","internalType":"string"},{"name":"decimals_","type":"uint8","internalType":"uint8"},{"name":"totalSupply_","type":"uint256","internalType":"uint256"},{"name":"serviceFeeReceiver_","type":"address","internalType":"address"},{"name":"serviceFee_","type":"uint256","internalType":"uint256"},{"name":"transferTaxBps_","type":"uint256","internalType":"uint256"},{"name":"taxFeeRecipient_","type":"address","internalType":"address"}],"stateMutability":"payable"},{"type":"function","name":"allowance","inputs":[{"name":"owner","type":"address","internalType":"address"},{"name":"spender","type":"address","internalType":"address"}],"outputs":[{"name":"","type":"uint256","internalType":"uint256"}],"stateMutability":"view"},{"type":"function","name":"approve","inputs":[{"name":"spender","type":"address","internalType":"address"},{"name":"value","type":"uint256","internalType":"uint256"}],"outputs":[{"name":"","type":"bool","internalType":"bool"}],"stateMutability":"nonpayable"},{"type":"function","name":"balanceOf","inputs":[{"name":"account","type":"address","internalType":"address"}],"outputs":[{"name":"","type":"uint256","internalType":"uint256"}],"stateMutability":"view"},{"type":"function","name":"blacklist","inputs":[{"name":"account","type":"address","internalType":"address"}],"outputs":[],"stateMutability":"nonpayable"},{"type":"function","name":"decimals","inputs":[],"outputs":[{"name":"","type":"uint8","internalType":"uint8"}],"stateMutability":"view"},{"type":"function","name":"getTaxFeeRecipient","inputs":[],"outputs":[{"name":"","type":"address","internalType":"address"}],"stateMutability":"view"},{"type":"function","name":"getTransferTaxBps","inputs":[],"outputs":[{"name":"","type":"uint256","internalType":"uint256"}],"stateMutability":"view"},{"type":"function","name":"isBlacklisted","inputs":[{"name":"account","type":"address","internalType":"address"}],"outputs":[{"name":"","type":"bool","internalType":"bool"}],"stateMutability":"view"},{"type":"function","name":"mint","inputs":[{"name":"to","type":"address","internalType":"address"},{"name":"amount","type":"uint256","internalType":"uint256"}],"outputs":[],"stateMutability":"nonpayable"},{"type":"function","name":"name","inputs":[],"outputs":[{"name":"","type":"string","internalType":"string"}],"stateMutability":"view"},{"type":"function","name":"owner","inputs":[],"outputs":[{"name":"","type":"address","internalType":"address"}],"stateMutability":"view"},{"type":"function","name":"renounceOwnership","inputs":[],"outputs":[],"stateMutability":"nonpayable"},{"type":"function","name":"symbol","inputs":[],"outputs":[{"name":"","type":"string","internalType":"string"}],"stateMutability":"view"},{"type":"function","name":"totalSupply","inputs":[],"outputs":[{"name":"","type":"uint256","internalType":"uint256"}],"stateMutability":"view"},{"type":"function","name":"transfer","inputs":[{"name":"to","type":"address","internalType":"address"},{"name":"value","type":"uint256","internalType":"uint256"}],"outputs":[{"name":"","type":"bool","internalType":"bool"}],"stateMutability":"nonpayable"},{"type":"function","name":"transferFrom","inputs":[{"name":"from","type":"address","internalType":"address"},{"name":"to","type":"address","internalType":"address"},{"name":"value","type":"uint256","internalType":"uint256"}],"outputs":[{"name":"","type":"bool","internalType":"bool"}],"stateMutability":"nonpayable"},{"type":"function","name":"transferOwnership","inputs":[{"name":"newOwner","type":"address","internalType":"address"}],"outputs":[],"stateMutability":"nonpayable"},{"type":"function","name":"unblacklist","inputs":[{"name":"account","type":"address","internalType":"address"}],"outputs":[],"stateMutability":"nonpayable"},{"type":"function","name":"updateTaxFeeRecipient","inputs":[{"name":"newTaxFeeRecipient","type":"address","internalType":"address"}],"outputs":[],"stateMutability":"nonpayable"},{"type":"event","name":"Approval","inputs":[{"name":"owner","type":"address","indexed":true,"internalType":"address"},{"name":"spender","type":"address","indexed":true,"internalType":"address"},{"name":"value","type":"uint256","indexed":false,"internalType":"uint256"}],"anonymous":false},{"type":"event","name":"Blacklisted","inputs":[{"name":"account","type":"address","indexed":true,"internalType":"address"}],"anonymous":false},{"type":"event","name":"OwnershipTransferred","inputs":[{"name":"previousOwner","type":"address","indexed":true,"internalType":"address"},{"name":"newOwner","type":"address","indexed":true,"internalType":"address"}],"anonymous":false},{"type":"event","name":"TaxFeeRecipientUpdated","inputs":[{"name":"newTaxFeeRecipient","type":"address","indexed":false,"internalType":"address"}],"anonymous":false},{"type":"event","name":"Transfer","inputs":[{"name":"from","type":"address","indexed":true,"internalType":"address"},{"name":"to","type":"address","indexed":true,"internalType":"address"},{"name":"value","type":"uint256","indexed":false,"internalType":"uint256"}],"anonymous":false},{"type":"event","name":"Unblacklisted","inputs":[{"name":"account","type":"address","indexed":true,"internalType":"address"}],"anonymous":false},{"type":"error","name":"ERC20InsufficientAllowance","inputs":[{"name":"spender","type":"address","internalType":"address"},{"name":"allowance","type":"uint256","internalType":"uint256"},{"name":"needed","type":"uint256","internalType":"uint256"}]},{"type":"error","name":"ERC20InsufficientBalance","inputs":[{"name":"sender","type":"address","internalType":"address"},{"name":"balance","type":"uint256","internalType":"uint256"},{"name":"needed","type":"uint256","internalType":"uint256"}]},{"type":"error","name":"ERC20InvalidApprover","inputs":[{"name":"approver","type":"address","internalType":"address"}]},{"type":"error","name":"ERC20InvalidReceiver","inputs":[{"name":"receiver","type":"address","internalType":"address"}]},{"type":"error","name":"ERC20InvalidSender","inputs":[{"name":"sender","type":"address","internalType":"address"}]},{"type":"error","name":"ERC20InvalidSpender","inputs":[{"name":"spender","type":"address","internalType":"address"}]},{"type":"error","name":"OwnableInvalidOwner","inputs":[{"name":"owner","type":"address","internalType":"address"}]},{"type":"error","name":"OwnableUnauthorizedAccount","inputs":[{"name":"account","type":"address","internalType":"address"}]}],"bytecode":{"object":"0x608060405260405161314c38038061314c8339818101604052810190610025919061086f565b335f73ffffffffffffffffffffffffffffffffffffffff168173ffffffffffffffffffffffffffffffffffffffff1603610096575f6040517f1e4fbdf700000000000000000000000000000000000000000000000000000000815260040161008d9190610967565b60405180910390fd5b6100a5816102c260201b60201c565b5087600590816100b59190610b87565b5086600690816100c59190610b87565b508560075f6101000a81548160ff021916908360ff160217905550816008819055508060095f6101000a81548173ffffffffffffffffffffffffffffffffffffffff021916908373ffffffffffffffffffffffffffffffffffffffff1602179055508234101561016a576040517f08c379a000000000000000000000000000000000000000000000000000000000815260040161016190610cb0565b60405180910390fd5b5f73ffffffffffffffffffffffffffffffffffffffff168473ffffffffffffffffffffffffffffffffffffffff16036101d8576040517f08c379a00000000000000000000000000000000000000000000000000000000081526004016101cf90610d18565b60405180910390fd5b5f8473ffffffffffffffffffffffffffffffffffffffff16846040516101fd90610d63565b5f6040518083038185875af1925050503d805f8114610237576040519150601f19603f3d011682016040523d82523d5f602084013e61023c565b606091505b5050905080610280576040517f08c379a000000000000000000000000000000000000000000000000000000000815260040161027790610dc1565b60405180910390fd5b6102b461029161038360201b60201c565b88600a61029e9190610f3b565b886102a99190610f85565b6103aa60201b60201c565b505050505050505050611117565b5f5f5f9054906101000a900473ffffffffffffffffffffffffffffffffffffffff169050815f5f6101000a81548173ffffffffffffffffffffffffffffffffffffffff021916908373ffffffffffffffffffffffffffffffffffffffff1602179055508173ffffffffffffffffffffffffffffffffffffffff168173ffffffffffffffffffffffffffffffffffffffff167f8be0079c531659141344cd1fd0a4f28419497f9722a3daafe3b4186f6b6457e060405160405180910390a35050565b5f5f5f9054906101000a900473ffffffffffffffffffffffffffffffffffffffff16905090565b60035f8373ffffffffffffffffffffffffffffffffffffffff1673ffffffffffffffffffffffffffffffffffffffff1681526020019081526020015f205f9054906101000a900460ff1615610434576040517f08c379a000000000000000000000000000000000000000000000000000000000815260040161042b90611036565b60405180910390fd5b6104455f838361044960201b60201c565b5050565b5f73ffffffffffffffffffffffffffffffffffffffff168373ffffffffffffffffffffffffffffffffffffffff1603610499578060045f82825461048d9190611054565b92505081905550610563565b5f60015f8573ffffffffffffffffffffffffffffffffffffffff1673ffffffffffffffffffffffffffffffffffffffff1681526020019081526020015f205490508181101561051d576040517f08c379a0000000000000000000000000000000000000000000000000000000008152600401610514906110d1565b60405180910390fd5b81810360015f8673ffffffffffffffffffffffffffffffffffffffff1673ffffffffffffffffffffffffffffffffffffffff1681526020019081526020015f2081905550505b5f73ffffffffffffffffffffffffffffffffffffffff168273ffffffffffffffffffffffffffffffffffffffff16036105aa578060045f82825403925050819055506105f5565b8060015f8473ffffffffffffffffffffffffffffffffffffffff1673ffffffffffffffffffffffffffffffffffffffff1681526020019081526020015f205f82825401925050819055505b8173ffffffffffffffffffffffffffffffffffffffff168373ffffffffffffffffffffffffffffffffffffffff167fddf252ad1be2c89b69c2b068fc378daa952ba7f163c4a11628f55a4df523b3ef8360405161065291906110fe565b60405180910390a3505050565b5f604051905090565b5f5ffd5b5f5ffd5b5f5ffd5b5f5ffd5b5f601f19601f8301169050919050565b7f4e487b71000000000000000000000000000000000000000000000000000000005f52604160045260245ffd5b6106be82610678565b810181811067ffffffffffffffff821117156106dd576106dc610688565b5b80604052505050565b5f6106ef61065f565b90506106fb82826106b5565b919050565b5f67ffffffffffffffff82111561071a57610719610688565b5b61072382610678565b9050602081019050919050565b8281835e5f83830152505050565b5f61075061074b84610700565b6106e6565b90508281526020810184848401111561076c5761076b610674565b5b610777848285610730565b509392505050565b5f82601f83011261079357610792610670565b5b81516107a384826020860161073e565b91505092915050565b5f60ff82169050919050565b6107c1816107ac565b81146107cb575f5ffd5b50565b5f815190506107dc816107b8565b92915050565b5f819050919050565b6107f4816107e2565b81146107fe575f5ffd5b50565b5f8151905061080f816107eb565b92915050565b5f73ffffffffffffffffffffffffffffffffffffffff82169050919050565b5f61083e82610815565b9050919050565b61084e81610834565b8114610858575f5ffd5b50565b5f8151905061086981610845565b92915050565b5f5f5f5f5f5f5f5f610100898b03121561088c5761088b610668565b5b5f89015167ffffffffffffffff8111156108a9576108a861066c565b5b6108b58b828c0161077f565b985050602089015167ffffffffffffffff8111156108d6576108d561066c565b5b6108e28b828c0161077f565b97505060406108f38b828c016107ce565b96505060606109048b828c01610801565b95505060806109158b828c0161085b565b94505060a06109268b828c01610801565b93505060c06109378b828c01610801565b92505060e06109488b828c0161085b565b9150509295985092959890939650565b61096181610834565b82525050565b5f60208201905061097a5f830184610958565b92915050565b5f81519050919050565b7f4e487b71000000000000000000000000000000000000000000000000000000005f52602260045260245ffd5b5f60028204905060018216806109ce57607f821691505b6020821081036109e1576109e061098a565b5b50919050565b5f819050815f5260205f209050919050565b5f6020601f8301049050919050565b5f82821b905092915050565b5f60088302610a437fffffffffffffffffffffffffffffffffffffffffffffffffffffffffffffffff82610a08565b610a4d8683610a08565b95508019841693508086168417925050509392505050565b5f819050919050565b5f610a88610a83610a7e846107e2565b610a65565b6107e2565b9050919050565b5f819050919050565b610aa183610a6e565b610ab5610aad82610a8f565b848454610a14565b825550505050565b5f5f905090565b610acc610abd565b610ad7818484610a98565b505050565b5b81811015610afa57610aef5f82610ac4565b600181019050610add565b5050565b601f821115610b3f57610b10816109e7565b610b19846109f9565b81016020851015610b28578190505b610b3c610b34856109f9565b830182610adc565b50505b505050565b5f82821c905092915050565b5f610b5f5f1984600802610b44565b1980831691505092915050565b5f610b778383610b50565b9150826002028217905092915050565b610b9082610980565b67ffffffffffffffff811115610ba957610ba8610688565b5b610bb382546109b7565b610bbe828285610afe565b5f60209050601f831160018114610bef575f8415610bdd578287015190505b610be78582610b6c565b865550610c4e565b601f198416610bfd866109e7565b5f5b82811015610c2457848901518255600182019150602085019450602081019050610bff565b86831015610c415784890151610c3d601f891682610b50565b8355505b6001600288020188555050505b505050505050565b5f82825260208201905092915050565b7f496e73756666696369656e742066656520616d6f756e742073656e74000000005f82015250565b5f610c9a601c83610c56565b9150610ca582610c66565b602082019050919050565b5f6020820190508181035f830152610cc781610c8e565b9050919050565b7f496e76616c6964206665652072656365697665722061646472657373000000005f82015250565b5f610d02601c83610c56565b9150610d0d82610cce565b602082019050919050565b5f6020820190508181035f830152610d2f81610cf6565b9050919050565b5f81905092915050565b50565b5f610d4e5f83610d36565b9150610d5982610d40565b5f82019050919050565b5f610d6d82610d43565b9150819050919050565b7f466565207472616e73666572206661696c6564000000000000000000000000005f82015250565b5f610dab601383610c56565b9150610db682610d77565b602082019050919050565b5f6020820190508181035f830152610dd881610d9f565b9050919050565b7f4e487b71000000000000000000000000000000000000000000000000000000005f52601160045260245ffd5b5f8160011c9050919050565b5f5f8291508390505b6001851115610e6157808604811115610e3d57610e3c610ddf565b5b6001851615610e4c5780820291505b8081029050610e5a85610e0c565b9450610e21565b94509492505050565b5f82610e795760019050610f34565b81610e86575f9050610f34565b8160018114610e9c5760028114610ea657610ed5565b6001915050610f34565b60ff841115610eb857610eb7610ddf565b5b8360020a915084821115610ecf57610ece610ddf565b5b50610f34565b5060208310610133831016604e8410600b8410161715610f0a5782820a905083811115610f0557610f04610ddf565b5b610f34565b610f178484846001610e18565b92509050818404811115610f2e57610f2d610ddf565b5b81810290505b9392505050565b5f610f45826107e2565b9150610f50836107ac565b9250610f7d7fffffffffffffffffffffffffffffffffffffffffffffffffffffffffffffffff8484610e6a565b905092915050565b5f610f8f826107e2565b9150610f9a836107e2565b9250828202610fa8816107e2565b91508282048414831517610fbf57610fbe610ddf565b5b5092915050565b7f426c61636b6c697374656420616464726573732063616e6e6f742072656365695f8201527f766520746f6b656e730000000000000000000000000000000000000000000000602082015250565b5f611020602983610c56565b915061102b82610fc6565b604082019050919050565b5f6020820190508181035f83015261104d81611014565b9050919050565b5f61105e826107e2565b9150611069836107e2565b925082820190508082111561108157611080610ddf565b5b92915050565b7f496e73756666696369656e742062616c616e63650000000000000000000000005f82015250565b5f6110bb601483610c56565b91506110c682611087565b602082019050919050565b5f6020820190508181035f8301526110e8816110af565b9050919050565b6110f8816107e2565b82525050565b5f6020820190506111115f8301846110ef565b92915050565b612028806111245f395ff3fe608060405234801561000f575f5ffd5b506004361061011f575f3560e01c8063743bfe70116100ab578063a9059cbb1161006f578063a9059cbb146102e3578063dd62ed3e14610313578063f2fde38b14610343578063f9f92be41461035f578063fe575a871461037b5761011f565b8063743bfe701461025157806375e3661e1461026f5780638baace251461028b5780638da5cb5b146102a757806395d89b41146102c55761011f565b806323b872dd116100f257806323b872dd146101ad578063313ce567146101dd57806340c10f19146101fb57806370a0823114610217578063715018a6146102475761011f565b806303073dfc1461012357806306fdde0314610141578063095ea7b31461015f57806318160ddd1461018f575b5f5ffd5b61012b6103ab565b60405161013891906118a1565b60405180910390f35b6101496103d3565b604051610156919061192a565b60405180910390f35b610179600480360381019061017491906119ab565b610463565b6040516101869190611a03565b60405180910390f35b610197610591565b6040516101a49190611a2b565b60405180910390f35b6101c760048036038101906101c29190611a44565b61059a565b6040516101d49190611a03565b60405180910390f35b6101e56106d4565b6040516101f29190611aaf565b60405180910390f35b610215600480360381019061021091906119ab565b6106e9565b005b610231600480360381019061022c9190611ac8565b61078b565b60405161023e9190611a2b565b60405180910390f35b61024f6107d1565b005b6102596107e4565b6040516102669190611a2b565b60405180910390f35b61028960048036038101906102849190611ac8565b6107ed565b005b6102a560048036038101906102a09190611ac8565b61088f565b005b6102af610911565b6040516102bc91906118a1565b60405180910390f35b6102cd610938565b6040516102da919061192a565b60405180910390f35b6102fd60048036038101906102f891906119ab565b6109c8565b60405161030a9190611a03565b60405180910390f35b61032d60048036038101906103289190611af3565b610e50565b60405161033a9190611a2b565b60405180910390f35b61035d60048036038101906103589190611ac8565b610ed2565b005b61037960048036038101906103749190611ac8565b610f56565b005b61039560048036038101906103909190611ac8565b610ff9565b6040516103a29190611a03565b60405180910390f35b5f60095f9054906101000a900473ffffffffffffffffffffffffffffffffffffffff16905090565b6060600580546103e290611b5e565b80601f016020809104026020016040519081016040528092919081815260200182805461040e90611b5e565b80156104595780601f1061043057610100808354040283529160200191610459565b820191905f5260205f20905b81548152906001019060200180831161043c57829003601f168201915b5050505050905090565b5f3360035f8273ffffffffffffffffffffffffffffffffffffffff1673ffffffffffffffffffffffffffffffffffffffff1681526020019081526020015f205f9054906101000a900460ff16156104ef576040517f08c379a00000000000000000000000000000000000000000000000000000000081526004016104e690611bd8565b60405180910390fd5b8360035f8273ffffffffffffffffffffffffffffffffffffffff1673ffffffffffffffffffffffffffffffffffffffff1681526020019081526020015f205f9054906101000a900460ff161561057a576040517f08c379a000000000000000000000000000000000000000000000000000000000815260040161057190611bd8565b60405180910390fd5b61058533868661104b565b60019250505092915050565b5f600454905090565b5f8360035f8273ffffffffffffffffffffffffffffffffffffffff1673ffffffffffffffffffffffffffffffffffffffff1681526020019081526020015f205f9054906101000a900460ff1615610626576040517f08c379a000000000000000000000000000000000000000000000000000000000815260040161061d90611bd8565b60405180910390fd5b8360035f8273ffffffffffffffffffffffffffffffffffffffff1673ffffffffffffffffffffffffffffffffffffffff1681526020019081526020015f205f9054906101000a900460ff16156106b1576040517f08c379a00000000000000000000000000000000000000000000000000000000081526004016106a890611bd8565b60405180910390fd5b6106bc86338661120f565b6106c786868661129b565b6001925050509392505050565b5f60075f9054906101000a900460ff16905090565b6106f1611464565b8160035f8273ffffffffffffffffffffffffffffffffffffffff1673ffffffffffffffffffffffffffffffffffffffff1681526020019081526020015f205f9054906101000a900460ff161561077c576040517f08c379a000000000000000000000000000000000000000000000000000000000815260040161077390611bd8565b60405180910390fd5b61078683836114eb565b505050565b5f60015f8373ffffffffffffffffffffffffffffffffffffffff1673ffffffffffffffffffffffffffffffffffffffff1681526020019081526020015f20549050919050565b6107d9611464565b6107e25f611584565b565b5f600854905090565b6107f5611464565b5f60035f8373ffffffffffffffffffffffffffffffffffffffff1673ffffffffffffffffffffffffffffffffffffffff1681526020019081526020015f205f6101000a81548160ff0219169083151502179055508073ffffffffffffffffffffffffffffffffffffffff167f7534c63860313c46c473e4e98328f37017e9674e2162faf1a3ad7a96236c3b7b60405160405180910390a250565b610897611464565b8060095f6101000a81548173ffffffffffffffffffffffffffffffffffffffff021916908373ffffffffffffffffffffffffffffffffffffffff1602179055507f3ca9233bd3849737ab1049144180bc625db2d51ca2c5ce949e7209eb32faa3a28160405161090691906118a1565b60405180910390a150565b5f5f5f9054906101000a900473ffffffffffffffffffffffffffffffffffffffff16905090565b60606006805461094790611b5e565b80601f016020809104026020016040519081016040528092919081815260200182805461097390611b5e565b80156109be5780601f10610995576101008083540402835291602001916109be565b820191905f5260205f20905b8154815290600101906020018083116109a157829003601f168201915b5050505050905090565b5f3360035f8273ffffffffffffffffffffffffffffffffffffffff1673ffffffffffffffffffffffffffffffffffffffff1681526020019081526020015f205f9054906101000a900460ff1615610a54576040517f08c379a0000000000000000000000000000000000000000000000000000000008152600401610a4b90611bd8565b60405180910390fd5b8360035f8273ffffffffffffffffffffffffffffffffffffffff1673ffffffffffffffffffffffffffffffffffffffff1681526020019081526020015f205f9054906101000a900460ff1615610adf576040517f08c379a0000000000000000000000000000000000000000000000000000000008152600401610ad690611bd8565b60405180910390fd5b5f610ae8611645565b90505f61271060085487610afc9190611c23565b610b069190611c91565b90505f8187610b159190611cc1565b90508660015f8573ffffffffffffffffffffffffffffffffffffffff1673ffffffffffffffffffffffffffffffffffffffff1681526020019081526020015f20541015610bda578260015f8573ffffffffffffffffffffffffffffffffffffffff1673ffffffffffffffffffffffffffffffffffffffff1681526020019081526020015f2054886040517fe450d38c000000000000000000000000000000000000000000000000000000008152600401610bd193929190611cf4565b60405180910390fd5b8660015f8573ffffffffffffffffffffffffffffffffffffffff1673ffffffffffffffffffffffffffffffffffffffff1681526020019081526020015f205f828254610c269190611cc1565b925050819055508060015f8a73ffffffffffffffffffffffffffffffffffffffff1673ffffffffffffffffffffffffffffffffffffffff1681526020019081526020015f205f828254610c799190611d29565b925050819055505f73ffffffffffffffffffffffffffffffffffffffff1660095f9054906101000a900473ffffffffffffffffffffffffffffffffffffffff1673ffffffffffffffffffffffffffffffffffffffff1614158015610cdc57505f82115b15610ddc578160015f60095f9054906101000a900473ffffffffffffffffffffffffffffffffffffffff1673ffffffffffffffffffffffffffffffffffffffff1673ffffffffffffffffffffffffffffffffffffffff1681526020019081526020015f205f828254610d4e9190611d29565b9250508190555060095f9054906101000a900473ffffffffffffffffffffffffffffffffffffffff1673ffffffffffffffffffffffffffffffffffffffff168373ffffffffffffffffffffffffffffffffffffffff167fddf252ad1be2c89b69c2b068fc378daa952ba7f163c4a11628f55a4df523b3ef84604051610dd39190611a2b565b60405180910390a35b8773ffffffffffffffffffffffffffffffffffffffff168373ffffffffffffffffffffffffffffffffffffffff167fddf252ad1be2c89b69c2b068fc378daa952ba7f163c4a11628f55a4df523b3ef83604051610e399190611a2b565b60405180910390a360019550505050505092915050565b5f60025f8473ffffffffffffffffffffffffffffffffffffffff1673ffffffffffffffffffffffffffffffffffffffff1681526020019081526020015f205f8373ffffffffffffffffffffffffffffffffffffffff1673ffffffffffffffffffffffffffffffffffffffff1681526020019081526020015f2054905092915050565b610eda611464565b5f73ffffffffffffffffffffffffffffffffffffffff168173ffffffffffffffffffffffffffffffffffffffff1603610f4a575f6040517f1e4fbdf7000000000000000000000000000000000000000000000000000000008152600401610f4191906118a1565b60405180910390fd5b610f5381611584565b50565b610f5e611464565b600160035f8373ffffffffffffffffffffffffffffffffffffffff1673ffffffffffffffffffffffffffffffffffffffff1681526020019081526020015f205f6101000a81548160ff0219169083151502179055508073ffffffffffffffffffffffffffffffffffffffff167fffa4e6181777692565cf28528fc88fd1516ea86b56da075235fa575af6a4b85560405160405180910390a250565b5f60035f8373ffffffffffffffffffffffffffffffffffffffff1673ffffffffffffffffffffffffffffffffffffffff1681526020019081526020015f205f9054906101000a900460ff169050919050565b60035f8473ffffffffffffffffffffffffffffffffffffffff1673ffffffffffffffffffffffffffffffffffffffff1681526020019081526020015f205f9054906101000a900460ff161580156110e9575060035f8373ffffffffffffffffffffffffffffffffffffffff1673ffffffffffffffffffffffffffffffffffffffff1681526020019081526020015f205f9054906101000a900460ff16155b611128576040517f08c379a000000000000000000000000000000000000000000000000000000000815260040161111f90611da6565b60405180910390fd5b8060025f8573ffffffffffffffffffffffffffffffffffffffff1673ffffffffffffffffffffffffffffffffffffffff1681526020019081526020015f205f8473ffffffffffffffffffffffffffffffffffffffff1673ffffffffffffffffffffffffffffffffffffffff1681526020019081526020015f20819055508173ffffffffffffffffffffffffffffffffffffffff168373ffffffffffffffffffffffffffffffffffffffff167f8c5be1e5ebec7d5bd14f71427d1e84f3dd0314c0f7b2291e5b200ac8c7c3b925836040516112029190611a2b565b60405180910390a3505050565b5f61121a8484610e50565b90507fffffffffffffffffffffffffffffffffffffffffffffffffffffffffffffffff8110156112955781811015611287576040517f08c379a000000000000000000000000000000000000000000000000000000000815260040161127e90611e0e565b60405180910390fd5b611294848484840361104b565b5b50505050565b60035f8473ffffffffffffffffffffffffffffffffffffffff1673ffffffffffffffffffffffffffffffffffffffff1681526020019081526020015f205f9054906101000a900460ff16158015611339575060035f8373ffffffffffffffffffffffffffffffffffffffff1673ffffffffffffffffffffffffffffffffffffffff1681526020019081526020015f205f9054906101000a900460ff16155b611378576040517f08c379a000000000000000000000000000000000000000000000000000000000815260040161136f90611da6565b60405180910390fd5b5f73ffffffffffffffffffffffffffffffffffffffff168373ffffffffffffffffffffffffffffffffffffffff16036113e6576040517f08c379a00000000000000000000000000000000000000000000000000000000081526004016113dd90611e76565b60405180910390fd5b5f73ffffffffffffffffffffffffffffffffffffffff168273ffffffffffffffffffffffffffffffffffffffff1603611454576040517f08c379a000000000000000000000000000000000000000000000000000000000815260040161144b90611ede565b60405180910390fd5b61145f83838361164c565b505050565b61146c611645565b73ffffffffffffffffffffffffffffffffffffffff1661148a610911565b73ffffffffffffffffffffffffffffffffffffffff16146114e9576114ad611645565b6040517f118cdaa70000000000000000000000000000000000000000000000000000000081526004016114e091906118a1565b60405180910390fd5b565b60035f8373ffffffffffffffffffffffffffffffffffffffff1673ffffffffffffffffffffffffffffffffffffffff1681526020019081526020015f205f9054906101000a900460ff1615611575576040517f08c379a000000000000000000000000000000000000000000000000000000000815260040161156c90611f6c565b60405180910390fd5b6115805f838361164c565b5050565b5f5f5f9054906101000a900473ffffffffffffffffffffffffffffffffffffffff169050815f5f6101000a81548173ffffffffffffffffffffffffffffffffffffffff021916908373ffffffffffffffffffffffffffffffffffffffff1602179055508173ffffffffffffffffffffffffffffffffffffffff168173ffffffffffffffffffffffffffffffffffffffff167f8be0079c531659141344cd1fd0a4f28419497f9722a3daafe3b4186f6b6457e060405160405180910390a35050565b5f33905090565b5f73ffffffffffffffffffffffffffffffffffffffff168373ffffffffffffffffffffffffffffffffffffffff160361169c578060045f8282546116909190611d29565b92505081905550611766565b5f60015f8573ffffffffffffffffffffffffffffffffffffffff1673ffffffffffffffffffffffffffffffffffffffff1681526020019081526020015f2054905081811015611720576040517f08c379a000000000000000000000000000000000000000000000000000000000815260040161171790611fd4565b60405180910390fd5b81810360015f8673ffffffffffffffffffffffffffffffffffffffff1673ffffffffffffffffffffffffffffffffffffffff1681526020019081526020015f2081905550505b5f73ffffffffffffffffffffffffffffffffffffffff168273ffffffffffffffffffffffffffffffffffffffff16036117ad578060045f82825403925050819055506117f8565b8060015f8473ffffffffffffffffffffffffffffffffffffffff1673ffffffffffffffffffffffffffffffffffffffff1681526020019081526020015f205f82825401925050819055505b8173ffffffffffffffffffffffffffffffffffffffff168373ffffffffffffffffffffffffffffffffffffffff167fddf252ad1be2c89b69c2b068fc378daa952ba7f163c4a11628f55a4df523b3ef836040516118559190611a2b565b60405180910390a3505050565b5f73ffffffffffffffffffffffffffffffffffffffff82169050919050565b5f61188b82611862565b9050919050565b61189b81611881565b82525050565b5f6020820190506118b45f830184611892565b92915050565b5f81519050919050565b5f82825260208201905092915050565b8281835e5f83830152505050565b5f601f19601f8301169050919050565b5f6118fc826118ba565b61190681856118c4565b93506119168185602086016118d4565b61191f816118e2565b840191505092915050565b5f6020820190508181035f83015261194281846118f2565b905092915050565b5f5ffd5b61195781611881565b8114611961575f5ffd5b50565b5f813590506119728161194e565b92915050565b5f819050919050565b61198a81611978565b8114611994575f5ffd5b50565b5f813590506119a581611981565b92915050565b5f5f604083850312156119c1576119c061194a565b5b5f6119ce85828601611964565b92505060206119df85828601611997565b9150509250929050565b5f8115159050919050565b6119fd816119e9565b82525050565b5f602082019050611a165f8301846119f4565b92915050565b611a2581611978565b82525050565b5f602082019050611a3e5f830184611a1c565b92915050565b5f5f5f60608486031215611a5b57611a5a61194a565b5b5f611a6886828701611964565b9350506020611a7986828701611964565b9250506040611a8a86828701611997565b9150509250925092565b5f60ff82169050919050565b611aa981611a94565b82525050565b5f602082019050611ac25f830184611aa0565b92915050565b5f60208284031215611add57611adc61194a565b5b5f611aea84828501611964565b91505092915050565b5f5f60408385031215611b0957611b0861194a565b5b5f611b1685828601611964565b9250506020611b2785828601611964565b9150509250929050565b7f4e487b71000000000000000000000000000000000000000000000000000000005f52602260045260245ffd5b5f6002820490506001821680611b7557607f821691505b602082108103611b8857611b87611b31565b5b50919050565b7f4164647265737320697320626c61636b6c6973746564000000000000000000005f82015250565b5f611bc26016836118c4565b9150611bcd82611b8e565b602082019050919050565b5f6020820190508181035f830152611bef81611bb6565b9050919050565b7f4e487b71000000000000000000000000000000000000000000000000000000005f52601160045260245ffd5b5f611c2d82611978565b9150611c3883611978565b9250828202611c4681611978565b91508282048414831517611c5d57611c5c611bf6565b5b5092915050565b7f4e487b71000000000000000000000000000000000000000000000000000000005f52601260045260245ffd5b5f611c9b82611978565b9150611ca683611978565b925082611cb657611cb5611c64565b5b828204905092915050565b5f611ccb82611978565b9150611cd683611978565b9250828203905081811115611cee57611ced611bf6565b5b92915050565b5f606082019050611d075f830186611892565b611d146020830185611a1c565b611d216040830184611a1c565b949350505050565b5f611d3382611978565b9150611d3e83611978565b9250828201905080821115611d5657611d55611bf6565b5b92915050565b7f426c61636b6c6973746564206164647265737320696e766f6c766564000000005f82015250565b5f611d90601c836118c4565b9150611d9b82611d5c565b602082019050919050565b5f6020820190508181035f830152611dbd81611d84565b9050919050565b7f496e73756666696369656e7420616c6c6f77616e6365000000000000000000005f82015250565b5f611df86016836118c4565b9150611e0382611dc4565b602082019050919050565b5f6020820190508181035f830152611e2581611dec565b9050919050565b7f496e76616c69642073656e6465720000000000000000000000000000000000005f82015250565b5f611e60600e836118c4565b9150611e6b82611e2c565b602082019050919050565b5f6020820190508181035f830152611e8d81611e54565b9050919050565b7f496e76616c6964207265636569766572000000000000000000000000000000005f82015250565b5f611ec86010836118c4565b9150611ed382611e94565b602082019050919050565b5f6020820190508181035f830152611ef581611ebc565b9050919050565b7f426c61636b6c697374656420616464726573732063616e6e6f742072656365695f8201527f766520746f6b656e730000000000000000000000000000000000000000000000602082015250565b5f611f566029836118c4565b9150611f6182611efc565b604082019050919050565b5f6020820190508181035f830152611f8381611f4a565b9050919050565b7f496e73756666696369656e742062616c616e63650000000000000000000000005f82015250565b5f611fbe6014836118c4565b9150611fc982611f8a565b602082019050919050565b5f6020820190508181035f830152611feb81611fb2565b905091905056fea2646970667358221220cc4979dba060cbef818c442fffbd95c8486d96afd243679a1523e304b4a2d90164736f6c634300081c0033","linkReferences":{}},"methodIdentifiers":{"allowance(address,address)":"dd62ed3e","approve(address,uint256)":"095ea7b3","balanceOf(address)":"70a08231","blacklist(address)":"f9f92be4","decimals()":"313ce567","getTaxFeeRecipient()":"03073dfc","getTransferTaxBps()":"743bfe70","isBlacklisted(address)":"fe575a87","mint(address,uint256)":"40c10f19","name()":"06fdde03","owner()":"8da5cb5b","renounceOwnership()":"715018a6","symbol()":"95d89b41","totalSupply()":"18160ddd","transfer(address,uint256)":"a9059cbb","transferFrom(address,address,uint256)":"23b872dd","transferOwnership(address)":"f2fde38b","unblacklist(address)":"75e3661e","updateTaxFeeRecipient(address)":"8baace25"},"id":16}