{"abi":[{"type":"constructor","inputs":[{"name":"name_","type":"string","internalType":"string"},{"name":"symbol_","type":"string","internalType":"string"},{"name":"decimals_","type":"uint8","internalType":"uint8"},{"name":"totalSupply_","type":"uint256","internalType":"uint256"},{"name":"cap_","type":"uint256","internalType":"uint256"},{"name":"serviceFeeReceiver_","type":"address","internalType":"address"},{"name":"serviceFee_","type":"uint256","internalType":"uint256"},{"name":"transferTaxBps_","type":"uint256","internalType":"uint256"},{"name":"taxFeeRecipient_","type":"address","internalType":"address"}],"stateMutability":"payable"},{"type":"function","name":"allowance","inputs":[{"name":"owner","type":"address","internalType":"address"},{"name":"spender","type":"address","internalType":"address"}],"outputs":[{"name":"","type":"uint256","internalType":"uint256"}],"stateMutability":"view"},{"type":"function","name":"approve","inputs":[{"name":"spender","type":"address","internalType":"address"},{"name":"value","type":"uint256","internalType":"uint256"}],"outputs":[{"name":"","type":"bool","internalType":"bool"}],"stateMutability":"nonpayable"},{"type":"function","name":"balanceOf","inputs":[{"name":"account","type":"address","internalType":"address"}],"outputs":[{"name":"","type":"uint256","internalType":"uint256"}],"stateMutability":"view"},{"type":"function","name":"burn","inputs":[{"name":"value","type":"uint256","internalType":"uint256"}],"outputs":[],"stateMutability":"nonpayable"},{"type":"function","name":"burnFrom","inputs":[{"name":"account","type":"address","internalType":"address"},{"name":"value","type":"uint256","internalType":"uint256"}],"outputs":[],"stateMutability":"nonpayable"},{"type":"function","name":"cap","inputs":[],"outputs":[{"name":"","type":"uint256","internalType":"uint256"}],"stateMutability":"view"},{"type":"function","name":"decimals","inputs":[],"outputs":[{"name":"","type":"uint8","internalType":"uint8"}],"stateMutability":"view"},{"type":"function","name":"mint","inputs":[{"name":"to","type":"address","internalType":"address"},{"name":"amount","type":"uint256","internalType":"uint256"}],"outputs":[],"stateMutability":"nonpayable"},{"type":"function","name":"name","inputs":[],"outputs":[{"name":"","type":"string","internalType":"string"}],"stateMutability":"view"},{"type":"function","name":"owner","inputs":[],"outputs":[{"name":"","type":"address","internalType":"address"}],"stateMutability":"view"},{"type":"function","name":"renounceOwnership","inputs":[],"outputs":[],"stateMutability":"nonpayable"},{"type":"function","name":"symbol","inputs":[],"outputs":[{"name":"","type":"string","internalType":"string"}],"stateMutability":"view"},{"type":"function","name":"totalSupply","inputs":[],"outputs":[{"name":"","type":"uint256","internalType":"uint256"}],"stateMutability":"view"},{"type":"function","name":"transfer","inputs":[{"name":"to","type":"address","internalType":"address"},{"name":"value","type":"uint256","internalType":"uint256"}],"outputs":[{"name":"","type":"bool","internalType":"bool"}],"stateMutability":"nonpayable"},{"type":"function","name":"transferFrom","inputs":[{"name":"from","type":"address","internalType":"address"},{"name":"to","type":"address","internalType":"address"},{"name":"value","type":"uint256","internalType":"uint256"}],"outputs":[{"name":"","type":"bool","internalType":"bool"}],"stateMutability":"nonpayable"},{"type":"function","name":"transferOwnership","inputs":[{"name":"newOwner","type":"address","internalType":"address"}],"outputs":[],"stateMutability":"nonpayable"},{"type":"event","name":"Approval","inputs":[{"name":"owner","type":"address","indexed":true,"internalType":"address"},{"name":"spender","type":"address","indexed":true,"internalType":"address"},{"name":"value","type":"uint256","indexed":false,"internalType":"uint256"}],"anonymous":false},{"type":"event","name":"OwnershipTransferred","inputs":[{"name":"previousOwner","type":"address","indexed":true,"internalType":"address"},{"name":"newOwner","type":"address","indexed":true,"internalType":"address"}],"anonymous":false},{"type":"event","name":"TaxFeeRecipientUpdated","inputs":[{"name":"newTaxFeeRecipient","type":"address","indexed":false,"internalType":"address"}],"anonymous":false},{"type":"event","name":"Transfer","inputs":[{"name":"from","type":"address","indexed":true,"internalType":"address"},{"name":"to","type":"address","indexed":true,"internalType":"address"},{"name":"value","type":"uint256","indexed":false,"internalType":"uint256"}],"anonymous":false},{"type":"error","name":"ERC20InsufficientAllowance","inputs":[{"name":"spender","type":"address","internalType":"address"},{"name":"allowance","type":"uint256","internalType":"uint256"},{"name":"needed","type":"uint256","internalType":"uint256"}]},{"type":"error","name":"ERC20InsufficientBalance","inputs":[{"name":"sender","type":"address","internalType":"address"},{"name":"balance","type":"uint256","internalType":"uint256"},{"name":"needed","type":"uint256","internalType":"uint256"}]},{"type":"error","name":"ERC20InvalidApprover","inputs":[{"name":"approver","type":"address","internalType":"address"}]},{"type":"error","name":"ERC20InvalidReceiver","inputs":[{"name":"receiver","type":"address","internalType":"address"}]},{"type":"error","name":"ERC20InvalidSender","inputs":[{"name":"sender","type":"address","internalType":"address"}]},{"type":"error","name":"ERC20InvalidSpender","inputs":[{"name":"spender","type":"address","internalType":"address"}]},{"type":"error","name":"OwnableInvalidOwner","inputs":[{"name":"owner","type":"address","internalType":"address"}]},{"type":"error","name":"OwnableUnauthorizedAccount","inputs":[{"name":"account","type":"address","internalType":"address"}]}],"bytecode":{"object":"0x608060405260405162002d2b38038062002d2b833981810160405281019062000029919062000a74565b335f73ffffffffffffffffffffffffffffffffffffffff168173ffffffffffffffffffffffffffffffffffffffff16036200009d575f6040517f1e4fbdf700000000000000000000000000000000000000000000000000000000815260040162000094919062000b9c565b60405180910390fd5b620000ae81620003c060201b60201c565b508860049081620000c0919062000de5565b508760059081620000d2919062000de5565b508660065f6101000a81548160ff021916908360ff160217905550816008819055508060095f6101000a81548173ffffffffffffffffffffffffffffffffffffffff021916908373ffffffffffffffffffffffffffffffffffffffff1602179055505f851162000179576040517f08c379a0000000000000000000000000000000000000000000000000000000008152600401620001709062000f27565b60405180910390fd5b84600781905550620001906200048160201b60201c565b600a6200019e9190620010c4565b620001ae6200049660201b60201c565b620001ba919062001114565b861115620001ff576040517f08c379a0000000000000000000000000000000000000000000000000000000008152600401620001f690620011ac565b60405180910390fd5b8234101562000245576040517f08c379a00000000000000000000000000000000000000000000000000000000081526004016200023c906200121a565b60405180910390fd5b5f73ffffffffffffffffffffffffffffffffffffffff168473ffffffffffffffffffffffffffffffffffffffff1603620002b6576040517f08c379a0000000000000000000000000000000000000000000000000000000008152600401620002ad9062001288565b60405180910390fd5b5f8473ffffffffffffffffffffffffffffffffffffffff1684604051620002dd90620012d9565b5f6040518083038185875af1925050503d805f811462000319576040519150601f19603f3d011682016040523d82523d5f602084013e6200031e565b606091505b505090508062000365576040517f08c379a00000000000000000000000000000000000000000000000000000000081526004016200035c906200133d565b60405180910390fd5b620003b0620003796200049f60201b60201c565b620003896200048160201b60201c565b600a620003979190620010c4565b89620003a4919062001114565b620004c660201b60201c565b50505050505050505050620013fe565b5f805f9054906101000a900473ffffffffffffffffffffffffffffffffffffffff169050815f806101000a81548173ffffffffffffffffffffffffffffffffffffffff021916908373ffffffffffffffffffffffffffffffffffffffff1602179055508173ffffffffffffffffffffffffffffffffffffffff168173ffffffffffffffffffffffffffffffffffffffff167f8be0079c531659141344cd1fd0a4f28419497f9722a3daafe3b4186f6b6457e060405160405180910390a35050565b5f60065f9054906101000a900460ff16905090565b5f600754905090565b5f805f9054906101000a900473ffffffffffffffffffffffffffffffffffffffff16905090565b620004d66200048160201b60201c565b600a620004e49190620010c4565b620004f46200049660201b60201c565b62000500919062001114565b8162000511620005eb60201b60201c565b6200051d91906200135d565b111562000561576040517f08c379a00000000000000000000000000000000000000000000000000000000081526004016200055890620011ac565b60405180910390fd5b5f73ffffffffffffffffffffffffffffffffffffffff168273ffffffffffffffffffffffffffffffffffffffff1603620005d4575f6040517fec442f05000000000000000000000000000000000000000000000000000000008152600401620005cb919062000b9c565b60405180910390fd5b620005e75f8383620005f460201b60201c565b5050565b5f600354905090565b5f73ffffffffffffffffffffffffffffffffffffffff168373ffffffffffffffffffffffffffffffffffffffff160362000648578060035f8282546200063b91906200135d565b925050819055506200071b565b5f60015f8573ffffffffffffffffffffffffffffffffffffffff1673ffffffffffffffffffffffffffffffffffffffff1681526020019081526020015f2054905081811015620006d5578381836040517fe450d38c000000000000000000000000000000000000000000000000000000008152600401620006cc93929190620013a8565b60405180910390fd5b81810360015f8673ffffffffffffffffffffffffffffffffffffffff1673ffffffffffffffffffffffffffffffffffffffff1681526020019081526020015f2081905550505b5f73ffffffffffffffffffffffffffffffffffffffff168273ffffffffffffffffffffffffffffffffffffffff160362000764578060035f8282540392505081905550620007af565b8060015f8473ffffffffffffffffffffffffffffffffffffffff1673ffffffffffffffffffffffffffffffffffffffff1681526020019081526020015f205f82825401925050819055505b8173ffffffffffffffffffffffffffffffffffffffff168373ffffffffffffffffffffffffffffffffffffffff167fddf252ad1be2c89b69c2b068fc378daa952ba7f163c4a11628f55a4df523b3ef836040516200080e9190620013e3565b60405180910390a3505050565b5f604051905090565b5f80fd5b5f80fd5b5f80fd5b5f80fd5b5f601f19601f8301169050919050565b7f4e487b71000000000000000000000000000000000000000000000000000000005f52604160045260245ffd5b6200087c8262000834565b810181811067ffffffffffffffff821117156200089e576200089d62000844565b5b80604052505050565b5f620008b26200081b565b9050620008c0828262000871565b919050565b5f67ffffffffffffffff821115620008e257620008e162000844565b5b620008ed8262000834565b9050602081019050919050565b5f5b8381101562000919578082015181840152602081019050620008fc565b5f8484015250505050565b5f6200093a6200093484620008c5565b620008a7565b90508281526020810184848401111562000959576200095862000830565b5b62000966848285620008fa565b509392505050565b5f82601f8301126200098557620009846200082c565b5b81516200099784826020860162000924565b91505092915050565b5f60ff82169050919050565b620009b781620009a0565b8114620009c2575f80fd5b50565b5f81519050620009d581620009ac565b92915050565b5f819050919050565b620009ef81620009db565b8114620009fa575f80fd5b50565b5f8151905062000a0d81620009e4565b92915050565b5f73ffffffffffffffffffffffffffffffffffffffff82169050919050565b5f62000a3e8262000a13565b9050919050565b62000a508162000a32565b811462000a5b575f80fd5b50565b5f8151905062000a6e8162000a45565b92915050565b5f805f805f805f805f6101208a8c03121562000a955762000a9462000824565b5b5f8a015167ffffffffffffffff81111562000ab55762000ab462000828565b5b62000ac38c828d016200096e565b99505060208a015167ffffffffffffffff81111562000ae75762000ae662000828565b5b62000af58c828d016200096e565b985050604062000b088c828d01620009c5565b975050606062000b1b8c828d01620009fd565b965050608062000b2e8c828d01620009fd565b95505060a062000b418c828d0162000a5e565b94505060c062000b548c828d01620009fd565b93505060e062000b678c828d01620009fd565b92505061010062000b7b8c828d0162000a5e565b9150509295985092959850929598565b62000b968162000a32565b82525050565b5f60208201905062000bb15f83018462000b8b565b92915050565b5f81519050919050565b7f4e487b71000000000000000000000000000000000000000000000000000000005f52602260045260245ffd5b5f600282049050600182168062000c0657607f821691505b60208210810362000c1c5762000c1b62000bc1565b5b50919050565b5f819050815f5260205f209050919050565b5f6020601f8301049050919050565b5f82821b905092915050565b5f6008830262000c807fffffffffffffffffffffffffffffffffffffffffffffffffffffffffffffffff8262000c43565b62000c8c868362000c43565b95508019841693508086168417925050509392505050565b5f819050919050565b5f62000ccd62000cc762000cc184620009db565b62000ca4565b620009db565b9050919050565b5f819050919050565b62000ce88362000cad565b62000d0062000cf78262000cd4565b84845462000c4f565b825550505050565b5f90565b62000d1662000d08565b62000d2381848462000cdd565b505050565b5b8181101562000d4a5762000d3e5f8262000d0c565b60018101905062000d29565b5050565b601f82111562000d995762000d638162000c22565b62000d6e8462000c34565b8101602085101562000d7e578190505b62000d9662000d8d8562000c34565b83018262000d28565b50505b505050565b5f82821c905092915050565b5f62000dbb5f198460080262000d9e565b1980831691505092915050565b5f62000dd5838362000daa565b9150826002028217905092915050565b62000df08262000bb7565b67ffffffffffffffff81111562000e0c5762000e0b62000844565b5b62000e18825462000bee565b62000e2582828562000d4e565b5f60209050601f83116001811462000e5b575f841562000e46578287015190505b62000e52858262000dc8565b86555062000ec1565b601f19841662000e6b8662000c22565b5f5b8281101562000e945784890151825560018201915060208501945060208101905062000e6d565b8683101562000eb4578489015162000eb0601f89168262000daa565b8355505b6001600288020188555050505b505050505050565b5f82825260208201905092915050565b7f4361702073686f756c642062652067726561746572207468616e2030000000005f82015250565b5f62000f0f601c8362000ec9565b915062000f1c8262000ed9565b602082019050919050565b5f6020820190508181035f83015262000f408162000f01565b9050919050565b7f4e487b71000000000000000000000000000000000000000000000000000000005f52601160045260245ffd5b5f8160011c9050919050565b5f808291508390505b600185111562000fd15780860481111562000fa95762000fa862000f47565b5b600185161562000fb95780820291505b808102905062000fc98562000f74565b945062000f89565b94509492505050565b5f8262000feb5760019050620010bd565b8162000ffa575f9050620010bd565b81600181146200101357600281146200101e5762001054565b6001915050620010bd565b60ff84111562001033576200103262000f47565b5b8360020a9150848211156200104d576200104c62000f47565b5b50620010bd565b5060208310610133831016604e8410600b84101617156200108e5782820a90508381111562001088576200108762000f47565b5b620010bd565b6200109d848484600162000f80565b92509050818404811115620010b757620010b662000f47565b5b81810290505b9392505050565b5f620010d082620009db565b9150620010dd83620009a0565b92506200110c7fffffffffffffffffffffffffffffffffffffffffffffffffffffffffffffffff848462000fda565b905092915050565b5f6200112082620009db565b91506200112d83620009db565b92508282026200113d81620009db565b9150828204841483151762001157576200115662000f47565b5b5092915050565b7f45524332304361707065643a20636170206578636565646564000000000000005f82015250565b5f6200119460198362000ec9565b9150620011a1826200115e565b602082019050919050565b5f6020820190508181035f830152620011c58162001186565b9050919050565b7f496e73756666696369656e742066656520616d6f756e742073656e74000000005f82015250565b5f62001202601c8362000ec9565b91506200120f82620011cc565b602082019050919050565b5f6020820190508181035f8301526200123381620011f4565b9050919050565b7f496e76616c6964206665652072656365697665722061646472657373000000005f82015250565b5f62001270601c8362000ec9565b91506200127d826200123a565b602082019050919050565b5f6020820190508181035f830152620012a18162001262565b9050919050565b5f81905092915050565b50565b5f620012c25f83620012a8565b9150620012cf82620012b2565b5f82019050919050565b5f620012e582620012b5565b9150819050919050565b7f466565207472616e73666572206661696c6564000000000000000000000000005f82015250565b5f6200132560138362000ec9565b91506200133282620012ef565b602082019050919050565b5f6020820190508181035f830152620013568162001317565b9050919050565b5f6200136982620009db565b91506200137683620009db565b925082820190508082111562001391576200139062000f47565b5b92915050565b620013a281620009db565b82525050565b5f606082019050620013bd5f83018662000b8b565b620013cc602083018562001397565b620013db604083018462001397565b949350505050565b5f602082019050620013f85f83018462001397565b92915050565b61191f806200140c5f395ff3fe608060405234801561000f575f80fd5b50600436106100fe575f3560e01c806370a082311161009557806395d89b411161006457806395d89b4114610286578063a9059cbb146102a4578063dd62ed3e146102d4578063f2fde38b14610304576100fe565b806370a0823114610212578063715018a61461024257806379cc67901461024c5780638da5cb5b14610268576100fe565b8063313ce567116100d1578063313ce5671461019e578063355274ea146101bc57806340c10f19146101da57806342966c68146101f6576100fe565b806306fdde0314610102578063095ea7b31461012057806318160ddd1461015057806323b872dd1461016e575b5f80fd5b61010a610320565b60405161011791906112bb565b60405180910390f35b61013a6004803603810190610135919061136c565b6103b0565b60405161014791906113c4565b60405180910390f35b6101586103d2565b60405161016591906113ec565b60405180910390f35b61018860048036038101906101839190611405565b6103db565b60405161019591906113c4565b60405180910390f35b6101a6610409565b6040516101b39190611470565b60405180910390f35b6101c461041e565b6040516101d191906113ec565b60405180910390f35b6101f460048036038101906101ef919061136c565b610427565b005b610210600480360381019061020b9190611489565b61043d565b005b61022c600480360381019061022791906114b4565b610451565b60405161023991906113ec565b60405180910390f35b61024a610497565b005b6102666004803603810190610261919061136c565b6104aa565b005b6102706104ca565b60405161027d91906114ee565b60405180910390f35b61028e6104f1565b60405161029b91906112bb565b60405180910390f35b6102be60048036038101906102b9919061136c565b610581565b6040516102cb91906113c4565b60405180910390f35b6102ee60048036038101906102e99190611507565b6108e4565b6040516102fb91906113ec565b60405180910390f35b61031e600480360381019061031991906114b4565b610966565b005b60606004805461032f90611572565b80601f016020809104026020016040519081016040528092919081815260200182805461035b90611572565b80156103a65780601f1061037d576101008083540402835291602001916103a6565b820191905f5260205f20905b81548152906001019060200180831161038957829003601f168201915b5050505050905090565b5f806103ba6109ea565b90506103c78185856109f1565b600191505092915050565b5f600354905090565b5f806103e56109ea565b90506103f2858285610a03565b6103fd858585610a96565b60019150509392505050565b5f60065f9054906101000a900460ff16905090565b5f600754905090565b61042f610b86565b6104398282610c0d565b5050565b61044e6104486109ea565b82610d06565b50565b5f60015f8373ffffffffffffffffffffffffffffffffffffffff1673ffffffffffffffffffffffffffffffffffffffff1681526020019081526020015f20549050919050565b61049f610b86565b6104a85f610d85565b565b6104bc826104b66109ea565b83610a03565b6104c68282610d06565b5050565b5f805f9054906101000a900473ffffffffffffffffffffffffffffffffffffffff16905090565b60606005805461050090611572565b80601f016020809104026020016040519081016040528092919081815260200182805461052c90611572565b80156105775780601f1061054e57610100808354040283529160200191610577565b820191905f5260205f20905b81548152906001019060200180831161055a57829003601f168201915b5050505050905090565b5f8061058b6109ea565b90505f6127106008548561059f91906115cf565b6105a9919061163d565b90505f81856105b8919061166d565b90508460015f8573ffffffffffffffffffffffffffffffffffffffff1673ffffffffffffffffffffffffffffffffffffffff1681526020019081526020015f2054101561067d578260015f8573ffffffffffffffffffffffffffffffffffffffff1673ffffffffffffffffffffffffffffffffffffffff1681526020019081526020015f2054866040517fe450d38c000000000000000000000000000000000000000000000000000000008152600401610674939291906116a0565b60405180910390fd5b8460015f8573ffffffffffffffffffffffffffffffffffffffff1673ffffffffffffffffffffffffffffffffffffffff1681526020019081526020015f205f8282546106c9919061166d565b925050819055508060015f8873ffffffffffffffffffffffffffffffffffffffff1673ffffffffffffffffffffffffffffffffffffffff1681526020019081526020015f205f82825461071c91906116d5565b925050819055505f73ffffffffffffffffffffffffffffffffffffffff1660095f9054906101000a900473ffffffffffffffffffffffffffffffffffffffff1673ffffffffffffffffffffffffffffffffffffffff16146107ec578160015f60095f9054906101000a900473ffffffffffffffffffffffffffffffffffffffff1673ffffffffffffffffffffffffffffffffffffffff1673ffffffffffffffffffffffffffffffffffffffff1681526020019081526020015f205f8282546107e491906116d5565b925050819055505b8573ffffffffffffffffffffffffffffffffffffffff168373ffffffffffffffffffffffffffffffffffffffff167fddf252ad1be2c89b69c2b068fc378daa952ba7f163c4a11628f55a4df523b3ef8360405161084991906113ec565b60405180910390a360095f9054906101000a900473ffffffffffffffffffffffffffffffffffffffff1673ffffffffffffffffffffffffffffffffffffffff168373ffffffffffffffffffffffffffffffffffffffff167fddf252ad1be2c89b69c2b068fc378daa952ba7f163c4a11628f55a4df523b3ef846040516108cf91906113ec565b60405180910390a36001935050505092915050565b5f60025f8473ffffffffffffffffffffffffffffffffffffffff1673ffffffffffffffffffffffffffffffffffffffff1681526020019081526020015f205f8373ffffffffffffffffffffffffffffffffffffffff1673ffffffffffffffffffffffffffffffffffffffff1681526020019081526020015f2054905092915050565b61096e610b86565b5f73ffffffffffffffffffffffffffffffffffffffff168173ffffffffffffffffffffffffffffffffffffffff16036109de575f6040517f1e4fbdf70000000000000000000000000000000000000000000000000000000081526004016109d591906114ee565b60405180910390fd5b6109e781610d85565b50565b5f33905090565b6109fe8383836001610e46565b505050565b5f610a0e84846108e4565b90507fffffffffffffffffffffffffffffffffffffffffffffffffffffffffffffffff811015610a905781811015610a81578281836040517ffb8f41b2000000000000000000000000000000000000000000000000000000008152600401610a78939291906116a0565b60405180910390fd5b610a8f84848484035f610e46565b5b50505050565b5f73ffffffffffffffffffffffffffffffffffffffff168373ffffffffffffffffffffffffffffffffffffffff1603610b06575f6040517f96c6fd1e000000000000000000000000000000000000000000000000000000008152600401610afd91906114ee565b60405180910390fd5b5f73ffffffffffffffffffffffffffffffffffffffff168273ffffffffffffffffffffffffffffffffffffffff1603610b76575f6040517fec442f05000000000000000000000000000000000000000000000000000000008152600401610b6d91906114ee565b60405180910390fd5b610b81838383611015565b505050565b610b8e6109ea565b73ffffffffffffffffffffffffffffffffffffffff16610bac6104ca565b73ffffffffffffffffffffffffffffffffffffffff1614610c0b57610bcf6109ea565b6040517f118cdaa7000000000000000000000000000000000000000000000000000000008152600401610c0291906114ee565b60405180910390fd5b565b610c15610409565b600a610c219190611837565b610c2961041e565b610c3391906115cf565b81610c3c6103d2565b610c4691906116d5565b1115610c87576040517f08c379a0000000000000000000000000000000000000000000000000000000008152600401610c7e906118cb565b60405180910390fd5b5f73ffffffffffffffffffffffffffffffffffffffff168273ffffffffffffffffffffffffffffffffffffffff1603610cf7575f6040517fec442f05000000000000000000000000000000000000000000000000000000008152600401610cee91906114ee565b60405180910390fd5b610d025f8383611015565b5050565b5f73ffffffffffffffffffffffffffffffffffffffff168273ffffffffffffffffffffffffffffffffffffffff1603610d76575f6040517f96c6fd1e000000000000000000000000000000000000000000000000000000008152600401610d6d91906114ee565b60405180910390fd5b610d81825f83611015565b5050565b5f805f9054906101000a900473ffffffffffffffffffffffffffffffffffffffff169050815f806101000a81548173ffffffffffffffffffffffffffffffffffffffff021916908373ffffffffffffffffffffffffffffffffffffffff1602179055508173ffffffffffffffffffffffffffffffffffffffff168173ffffffffffffffffffffffffffffffffffffffff167f8be0079c531659141344cd1fd0a4f28419497f9722a3daafe3b4186f6b6457e060405160405180910390a35050565b5f73ffffffffffffffffffffffffffffffffffffffff168473ffffffffffffffffffffffffffffffffffffffff1603610eb6575f6040517fe602df05000000000000000000000000000000000000000000000000000000008152600401610ead91906114ee565b60405180910390fd5b5f73ffffffffffffffffffffffffffffffffffffffff168373ffffffffffffffffffffffffffffffffffffffff1603610f26575f6040517f94280d62000000000000000000000000000000000000000000000000000000008152600401610f1d91906114ee565b60405180910390fd5b8160025f8673ffffffffffffffffffffffffffffffffffffffff1673ffffffffffffffffffffffffffffffffffffffff1681526020019081526020015f205f8573ffffffffffffffffffffffffffffffffffffffff1673ffffffffffffffffffffffffffffffffffffffff1681526020019081526020015f2081905550801561100f578273ffffffffffffffffffffffffffffffffffffffff168473ffffffffffffffffffffffffffffffffffffffff167f8c5be1e5ebec7d5bd14f71427d1e84f3dd0314c0f7b2291e5b200ac8c7c3b9258460405161100691906113ec565b60405180910390a35b50505050565b5f73ffffffffffffffffffffffffffffffffffffffff168373ffffffffffffffffffffffffffffffffffffffff1603611065578060035f82825461105991906116d5565b92505081905550611135565b5f60015f8573ffffffffffffffffffffffffffffffffffffffff1673ffffffffffffffffffffffffffffffffffffffff1681526020019081526020015f20549050818110156110ef578381836040517fe450d38c0000000000000000000000000000000000000000000000000000000081526004016110e6939291906116a0565b60405180910390fd5b81810360015f8673ffffffffffffffffffffffffffffffffffffffff1673ffffffffffffffffffffffffffffffffffffffff1681526020019081526020015f2081905550505b5f73ffffffffffffffffffffffffffffffffffffffff168273ffffffffffffffffffffffffffffffffffffffff160361117c578060035f82825403925050819055506111c7565b8060015f8473ffffffffffffffffffffffffffffffffffffffff1673ffffffffffffffffffffffffffffffffffffffff1681526020019081526020015f205f82825401925050819055505b8173ffffffffffffffffffffffffffffffffffffffff168373ffffffffffffffffffffffffffffffffffffffff167fddf252ad1be2c89b69c2b068fc378daa952ba7f163c4a11628f55a4df523b3ef8360405161122491906113ec565b60405180910390a3505050565b5f81519050919050565b5f82825260208201905092915050565b5f5b8381101561126857808201518184015260208101905061124d565b5f8484015250505050565b5f601f19601f8301169050919050565b5f61128d82611231565b611297818561123b565b93506112a781856020860161124b565b6112b081611273565b840191505092915050565b5f6020820190508181035f8301526112d38184611283565b905092915050565b5f80fd5b5f73ffffffffffffffffffffffffffffffffffffffff82169050919050565b5f611308826112df565b9050919050565b611318816112fe565b8114611322575f80fd5b50565b5f813590506113338161130f565b92915050565b5f819050919050565b61134b81611339565b8114611355575f80fd5b50565b5f8135905061136681611342565b92915050565b5f8060408385031215611382576113816112db565b5b5f61138f85828601611325565b92505060206113a085828601611358565b9150509250929050565b5f8115159050919050565b6113be816113aa565b82525050565b5f6020820190506113d75f8301846113b5565b92915050565b6113e681611339565b82525050565b5f6020820190506113ff5f8301846113dd565b92915050565b5f805f6060848603121561141c5761141b6112db565b5b5f61142986828701611325565b935050602061143a86828701611325565b925050604061144b86828701611358565b9150509250925092565b5f60ff82169050919050565b61146a81611455565b82525050565b5f6020820190506114835f830184611461565b92915050565b5f6020828403121561149e5761149d6112db565b5b5f6114ab84828501611358565b91505092915050565b5f602082840312156114c9576114c86112db565b5b5f6114d684828501611325565b91505092915050565b6114e8816112fe565b82525050565b5f6020820190506115015f8301846114df565b92915050565b5f806040838503121561151d5761151c6112db565b5b5f61152a85828601611325565b925050602061153b85828601611325565b9150509250929050565b7f4e487b71000000000000000000000000000000000000000000000000000000005f52602260045260245ffd5b5f600282049050600182168061158957607f821691505b60208210810361159c5761159b611545565b5b50919050565b7f4e487b71000000000000000000000000000000000000000000000000000000005f52601160045260245ffd5b5f6115d982611339565b91506115e483611339565b92508282026115f281611339565b91508282048414831517611609576116086115a2565b5b5092915050565b7f4e487b71000000000000000000000000000000000000000000000000000000005f52601260045260245ffd5b5f61164782611339565b915061165283611339565b92508261166257611661611610565b5b828204905092915050565b5f61167782611339565b915061168283611339565b925082820390508181111561169a576116996115a2565b5b92915050565b5f6060820190506116b35f8301866114df565b6116c060208301856113dd565b6116cd60408301846113dd565b949350505050565b5f6116df82611339565b91506116ea83611339565b9250828201905080821115611702576117016115a2565b5b92915050565b5f8160011c9050919050565b5f808291508390505b600185111561175d57808604811115611739576117386115a2565b5b60018516156117485780820291505b808102905061175685611708565b945061171d565b94509492505050565b5f826117755760019050611830565b81611782575f9050611830565b816001811461179857600281146117a2576117d1565b6001915050611830565b60ff8411156117b4576117b36115a2565b5b8360020a9150848211156117cb576117ca6115a2565b5b50611830565b5060208310610133831016604e8410600b84101617156118065782820a905083811115611801576118006115a2565b5b611830565b6118138484846001611714565b9250905081840481111561182a576118296115a2565b5b81810290505b9392505050565b5f61184182611339565b915061184c83611455565b92506118797fffffffffffffffffffffffffffffffffffffffffffffffffffffffffffffffff8484611766565b905092915050565b7f45524332304361707065643a20636170206578636565646564000000000000005f82015250565b5f6118b560198361123b565b91506118c082611881565b602082019050919050565b5f6020820190508181035f8301526118e2816118a9565b905091905056fea2646970667358221220f430f1fe8259e4784816fc20a18b1ae6589b4f962cfaafe8223b9b236e6aee8164736f6c63430008170033","linkReferences":{}},"methodIdentifiers":{"allowance(address,address)":"dd62ed3e","approve(address,uint256)":"095ea7b3","balanceOf(address)":"70a08231","burn(uint256)":"42966c68","burnFrom(address,uint256)":"79cc6790","cap()":"355274ea","decimals()":"313ce567","mint(address,uint256)":"40c10f19","name()":"06fdde03","owner()":"8da5cb5b","renounceOwnership()":"715018a6","symbol()":"95d89b41","totalSupply()":"18160ddd","transfer(address,uint256)":"a9059cbb","transferFrom(address,address,uint256)":"23b872dd","transferOwnership(address)":"f2fde38b"},"id":11}