{"abi":[{"type":"constructor","inputs":[{"name":"name_","type":"string","internalType":"string"},{"name":"symbol_","type":"string","internalType":"string"},{"name":"decimals_","type":"uint8","internalType":"uint8"},{"name":"totalSupply_","type":"uint256","internalType":"uint256"},{"name":"serviceFeeReceiver_","type":"address","internalType":"address"},{"name":"serviceFee_","type":"uint256","internalType":"uint256"},{"name":"transferTaxBps_","type":"uint256","internalType":"uint256"},{"name":"taxFeeRecipient_","type":"address","internalType":"address"}],"stateMutability":"payable"},{"type":"function","name":"allowance","inputs":[{"name":"owner","type":"address","internalType":"address"},{"name":"spender","type":"address","internalType":"address"}],"outputs":[{"name":"","type":"uint256","internalType":"uint256"}],"stateMutability":"view"},{"type":"function","name":"approve","inputs":[{"name":"spender","type":"address","internalType":"address"},{"name":"value","type":"uint256","internalType":"uint256"}],"outputs":[{"name":"","type":"bool","internalType":"bool"}],"stateMutability":"nonpayable"},{"type":"function","name":"balanceOf","inputs":[{"name":"account","type":"address","internalType":"address"}],"outputs":[{"name":"","type":"uint256","internalType":"uint256"}],"stateMutability":"view"},{"type":"function","name":"blacklist","inputs":[{"name":"account","type":"address","internalType":"address"}],"outputs":[],"stateMutability":"nonpayable"},{"type":"function","name":"burn","inputs":[{"name":"value","type":"uint256","internalType":"uint256"}],"outputs":[],"stateMutability":"nonpayable"},{"type":"function","name":"burnFrom","inputs":[{"name":"account","type":"address","internalType":"address"},{"name":"value","type":"uint256","internalType":"uint256"}],"outputs":[],"stateMutability":"nonpayable"},{"type":"function","name":"decimals","inputs":[],"outputs":[{"name":"","type":"uint8","internalType":"uint8"}],"stateMutability":"view"},{"type":"function","name":"getTaxFeeRecipient","inputs":[],"outputs":[{"name":"","type":"address","internalType":"address"}],"stateMutability":"view"},{"type":"function","name":"getTransferTaxBps","inputs":[],"outputs":[{"name":"","type":"uint256","internalType":"uint256"}],"stateMutability":"view"},{"type":"function","name":"isBlacklisted","inputs":[{"name":"account","type":"address","internalType":"address"}],"outputs":[{"name":"","type":"bool","internalType":"bool"}],"stateMutability":"view"},{"type":"function","name":"mint","inputs":[{"name":"to","type":"address","internalType":"address"},{"name":"amount","type":"uint256","internalType":"uint256"}],"outputs":[],"stateMutability":"nonpayable"},{"type":"function","name":"name","inputs":[],"outputs":[{"name":"","type":"string","internalType":"string"}],"stateMutability":"view"},{"type":"function","name":"owner","inputs":[],"outputs":[{"name":"","type":"address","internalType":"address"}],"stateMutability":"view"},{"type":"function","name":"pause","inputs":[],"outputs":[],"stateMutability":"nonpayable"},{"type":"function","name":"paused","inputs":[],"outputs":[{"name":"","type":"bool","internalType":"bool"}],"stateMutability":"view"},{"type":"function","name":"renounceOwnership","inputs":[],"outputs":[],"stateMutability":"nonpayable"},{"type":"function","name":"symbol","inputs":[],"outputs":[{"name":"","type":"string","internalType":"string"}],"stateMutability":"view"},{"type":"function","name":"totalSupply","inputs":[],"outputs":[{"name":"","type":"uint256","internalType":"uint256"}],"stateMutability":"view"},{"type":"function","name":"transfer","inputs":[{"name":"to","type":"address","internalType":"address"},{"name":"value","type":"uint256","internalType":"uint256"}],"outputs":[{"name":"","type":"bool","internalType":"bool"}],"stateMutability":"nonpayable"},{"type":"function","name":"transferFrom","inputs":[{"name":"from","type":"address","internalType":"address"},{"name":"to","type":"address","internalType":"address"},{"name":"value","type":"uint256","internalType":"uint256"}],"outputs":[{"name":"","type":"bool","internalType":"bool"}],"stateMutability":"nonpayable"},{"type":"function","name":"transferOwnership","inputs":[{"name":"newOwner","type":"address","internalType":"address"}],"outputs":[],"stateMutability":"nonpayable"},{"type":"function","name":"unblacklist","inputs":[{"name":"account","type":"address","internalType":"address"}],"outputs":[],"stateMutability":"nonpayable"},{"type":"function","name":"unpause","inputs":[],"outputs":[],"stateMutability":"nonpayable"},{"type":"function","name":"updateTaxFeeRecipient","inputs":[{"name":"newTaxFeeRecipient","type":"address","internalType":"address"}],"outputs":[],"stateMutability":"nonpayable"},{"type":"event","name":"Approval","inputs":[{"name":"owner","type":"address","indexed":true,"internalType":"address"},{"name":"spender","type":"address","indexed":true,"internalType":"address"},{"name":"value","type":"uint256","indexed":false,"internalType":"uint256"}],"anonymous":false},{"type":"event","name":"Blacklisted","inputs":[{"name":"account","type":"address","indexed":true,"internalType":"address"}],"anonymous":false},{"type":"event","name":"OwnershipTransferred","inputs":[{"name":"previousOwner","type":"address","indexed":true,"internalType":"address"},{"name":"newOwner","type":"address","indexed":true,"internalType":"address"}],"anonymous":false},{"type":"event","name":"Paused","inputs":[{"name":"account","type":"address","indexed":false,"internalType":"address"}],"anonymous":false},{"type":"event","name":"TaxFeeRecipientUpdated","inputs":[{"name":"newTaxFeeRecipient","type":"address","indexed":false,"internalType":"address"}],"anonymous":false},{"type":"event","name":"Transfer","inputs":[{"name":"from","type":"address","indexed":true,"internalType":"address"},{"name":"to","type":"address","indexed":true,"internalType":"address"},{"name":"value","type":"uint256","indexed":false,"internalType":"uint256"}],"anonymous":false},{"type":"event","name":"Unblacklisted","inputs":[{"name":"account","type":"address","indexed":true,"internalType":"address"}],"anonymous":false},{"type":"event","name":"Unpaused","inputs":[{"name":"account","type":"address","indexed":false,"internalType":"address"}],"anonymous":false},{"type":"error","name":"ERC20InsufficientAllowance","inputs":[{"name":"spender","type":"address","internalType":"address"},{"name":"allowance","type":"uint256","internalType":"uint256"},{"name":"needed","type":"uint256","internalType":"uint256"}]},{"type":"error","name":"ERC20InsufficientBalance","inputs":[{"name":"sender","type":"address","internalType":"address"},{"name":"balance","type":"uint256","internalType":"uint256"},{"name":"needed","type":"uint256","internalType":"uint256"}]},{"type":"error","name":"ERC20InvalidApprover","inputs":[{"name":"approver","type":"address","internalType":"address"}]},{"type":"error","name":"ERC20InvalidReceiver","inputs":[{"name":"receiver","type":"address","internalType":"address"}]},{"type":"error","name":"ERC20InvalidSender","inputs":[{"name":"sender","type":"address","internalType":"address"}]},{"type":"error","name":"ERC20InvalidSpender","inputs":[{"name":"spender","type":"address","internalType":"address"}]},{"type":"error","name":"EnforcedPause","inputs":[]},{"type":"error","name":"ExpectedPause","inputs":[]},{"type":"error","name":"OwnableInvalidOwner","inputs":[{"name":"owner","type":"address","internalType":"address"}]},{"type":"error","name":"OwnableUnauthorizedAccount","inputs":[{"name":"account","type":"address","internalType":"address"}]}],"bytecode":{"object":"0x608060405260405161373338038061373383398181016040528101906100259190610984565b335f73ffffffffffffffffffffffffffffffffffffffff168173ffffffffffffffffffffffffffffffffffffffff1603610096575f6040517f1e4fbdf700000000000000000000000000000000000000000000000000000000815260040161008d9190610a7c565b60405180910390fd5b6100a5816102e860201b60201c565b505f5f60146101000a81548160ff02191690831515021790555087600590816100ce9190610c9c565b5086600690816100de9190610c9c565b508560075f6101000a81548160ff021916908360ff160217905550816008819055508060095f6101000a81548173ffffffffffffffffffffffffffffffffffffffff021916908373ffffffffffffffffffffffffffffffffffffffff16021790555082341015610183576040517f08c379a000000000000000000000000000000000000000000000000000000000815260040161017a90610dc5565b60405180910390fd5b5f73ffffffffffffffffffffffffffffffffffffffff168473ffffffffffffffffffffffffffffffffffffffff16036101f1576040517f08c379a00000000000000000000000000000000000000000000000000000000081526004016101e890610e2d565b60405180910390fd5b5f8473ffffffffffffffffffffffffffffffffffffffff168460405161021690610e78565b5f6040518083038185875af1925050503d805f8114610250576040519150601f19603f3d011682016040523d82523d5f602084013e610255565b606091505b5050905080610299576040517f08c379a000000000000000000000000000000000000000000000000000000000815260040161029090610ed6565b60405180910390fd5b6102da6102aa6103a960201b60201c565b6102b86103d060201b60201c565b600a6102c49190611050565b886102cf919061109a565b6103e560201b60201c565b50505050505050505061126e565b5f5f5f9054906101000a900473ffffffffffffffffffffffffffffffffffffffff169050815f5f6101000a81548173ffffffffffffffffffffffffffffffffffffffff021916908373ffffffffffffffffffffffffffffffffffffffff1602179055508173ffffffffffffffffffffffffffffffffffffffff168173ffffffffffffffffffffffffffffffffffffffff167f8be0079c531659141344cd1fd0a4f28419497f9722a3daafe3b4186f6b6457e060405160405180910390a35050565b5f5f5f9054906101000a900473ffffffffffffffffffffffffffffffffffffffff16905090565b5f60075f9054906101000a900460ff16905090565b8160035f8273ffffffffffffffffffffffffffffffffffffffff1673ffffffffffffffffffffffffffffffffffffffff1681526020019081526020015f205f9054906101000a900460ff1615610470576040517f08c379a000000000000000000000000000000000000000000000000000000000815260040161046790611125565b60405180910390fd5b5f73ffffffffffffffffffffffffffffffffffffffff168373ffffffffffffffffffffffffffffffffffffffff16036104de576040517f08c379a00000000000000000000000000000000000000000000000000000000081526004016104d59061118d565b60405180910390fd5b6104ef5f84846104f460201b60201c565b505050565b61050261071860201b60201c565b5f73ffffffffffffffffffffffffffffffffffffffff168373ffffffffffffffffffffffffffffffffffffffff1603610552578060045f82825461054691906111ab565b9250508190555061061c565b5f60015f8573ffffffffffffffffffffffffffffffffffffffff1673ffffffffffffffffffffffffffffffffffffffff1681526020019081526020015f20549050818110156105d6576040517f08c379a00000000000000000000000000000000000000000000000000000000081526004016105cd90611228565b60405180910390fd5b81810360015f8673ffffffffffffffffffffffffffffffffffffffff1673ffffffffffffffffffffffffffffffffffffffff1681526020019081526020015f2081905550505b5f73ffffffffffffffffffffffffffffffffffffffff168273ffffffffffffffffffffffffffffffffffffffff1603610663578060045f82825403925050819055506106ae565b8060015f8473ffffffffffffffffffffffffffffffffffffffff1673ffffffffffffffffffffffffffffffffffffffff1681526020019081526020015f205f82825401925050819055505b8173ffffffffffffffffffffffffffffffffffffffff168373ffffffffffffffffffffffffffffffffffffffff167fddf252ad1be2c89b69c2b068fc378daa952ba7f163c4a11628f55a4df523b3ef8360405161070b9190611255565b60405180910390a3505050565b61072661075f60201b60201c565b1561075d576040517fd93c066500000000000000000000000000000000000000000000000000000000815260040160405180910390fd5b565b5f5f60149054906101000a900460ff16905090565b5f604051905090565b5f5ffd5b5f5ffd5b5f5ffd5b5f5ffd5b5f601f19601f8301169050919050565b7f4e487b71000000000000000000000000000000000000000000000000000000005f52604160045260245ffd5b6107d38261078d565b810181811067ffffffffffffffff821117156107f2576107f161079d565b5b80604052505050565b5f610804610774565b905061081082826107ca565b919050565b5f67ffffffffffffffff82111561082f5761082e61079d565b5b6108388261078d565b9050602081019050919050565b8281835e5f83830152505050565b5f61086561086084610815565b6107fb565b90508281526020810184848401111561088157610880610789565b5b61088c848285610845565b509392505050565b5f82601f8301126108a8576108a7610785565b5b81516108b8848260208601610853565b91505092915050565b5f60ff82169050919050565b6108d6816108c1565b81146108e0575f5ffd5b50565b5f815190506108f1816108cd565b92915050565b5f819050919050565b610909816108f7565b8114610913575f5ffd5b50565b5f8151905061092481610900565b92915050565b5f73ffffffffffffffffffffffffffffffffffffffff82169050919050565b5f6109538261092a565b9050919050565b61096381610949565b811461096d575f5ffd5b50565b5f8151905061097e8161095a565b92915050565b5f5f5f5f5f5f5f5f610100898b0312156109a1576109a061077d565b5b5f89015167ffffffffffffffff8111156109be576109bd610781565b5b6109ca8b828c01610894565b985050602089015167ffffffffffffffff8111156109eb576109ea610781565b5b6109f78b828c01610894565b9750506040610a088b828c016108e3565b9650506060610a198b828c01610916565b9550506080610a2a8b828c01610970565b94505060a0610a3b8b828c01610916565b93505060c0610a4c8b828c01610916565b92505060e0610a5d8b828c01610970565b9150509295985092959890939650565b610a7681610949565b82525050565b5f602082019050610a8f5f830184610a6d565b92915050565b5f81519050919050565b7f4e487b71000000000000000000000000000000000000000000000000000000005f52602260045260245ffd5b5f6002820490506001821680610ae357607f821691505b602082108103610af657610af5610a9f565b5b50919050565b5f819050815f5260205f209050919050565b5f6020601f8301049050919050565b5f82821b905092915050565b5f60088302610b587fffffffffffffffffffffffffffffffffffffffffffffffffffffffffffffffff82610b1d565b610b628683610b1d565b95508019841693508086168417925050509392505050565b5f819050919050565b5f610b9d610b98610b93846108f7565b610b7a565b6108f7565b9050919050565b5f819050919050565b610bb683610b83565b610bca610bc282610ba4565b848454610b29565b825550505050565b5f5f905090565b610be1610bd2565b610bec818484610bad565b505050565b5b81811015610c0f57610c045f82610bd9565b600181019050610bf2565b5050565b601f821115610c5457610c2581610afc565b610c2e84610b0e565b81016020851015610c3d578190505b610c51610c4985610b0e565b830182610bf1565b50505b505050565b5f82821c905092915050565b5f610c745f1984600802610c59565b1980831691505092915050565b5f610c8c8383610c65565b9150826002028217905092915050565b610ca582610a95565b67ffffffffffffffff811115610cbe57610cbd61079d565b5b610cc88254610acc565b610cd3828285610c13565b5f60209050601f831160018114610d04575f8415610cf2578287015190505b610cfc8582610c81565b865550610d63565b601f198416610d1286610afc565b5f5b82811015610d3957848901518255600182019150602085019450602081019050610d14565b86831015610d565784890151610d52601f891682610c65565b8355505b6001600288020188555050505b505050505050565b5f82825260208201905092915050565b7f496e73756666696369656e742066656520616d6f756e742073656e74000000005f82015250565b5f610daf601c83610d6b565b9150610dba82610d7b565b602082019050919050565b5f6020820190508181035f830152610ddc81610da3565b9050919050565b7f496e76616c6964206665652072656365697665722061646472657373000000005f82015250565b5f610e17601c83610d6b565b9150610e2282610de3565b602082019050919050565b5f6020820190508181035f830152610e4481610e0b565b9050919050565b5f81905092915050565b50565b5f610e635f83610e4b565b9150610e6e82610e55565b5f82019050919050565b5f610e8282610e58565b9150819050919050565b7f466565207472616e73666572206661696c6564000000000000000000000000005f82015250565b5f610ec0601383610d6b565b9150610ecb82610e8c565b602082019050919050565b5f6020820190508181035f830152610eed81610eb4565b9050919050565b7f4e487b71000000000000000000000000000000000000000000000000000000005f52601160045260245ffd5b5f8160011c9050919050565b5f5f8291508390505b6001851115610f7657808604811115610f5257610f51610ef4565b5b6001851615610f615780820291505b8081029050610f6f85610f21565b9450610f36565b94509492505050565b5f82610f8e5760019050611049565b81610f9b575f9050611049565b8160018114610fb15760028114610fbb57610fea565b6001915050611049565b60ff841115610fcd57610fcc610ef4565b5b8360020a915084821115610fe457610fe3610ef4565b5b50611049565b5060208310610133831016604e8410600b841016171561101f5782820a90508381111561101a57611019610ef4565b5b611049565b61102c8484846001610f2d565b9250905081840481111561104357611042610ef4565b5b81810290505b9392505050565b5f61105a826108f7565b9150611065836108c1565b92506110927fffffffffffffffffffffffffffffffffffffffffffffffffffffffffffffffff8484610f7f565b905092915050565b5f6110a4826108f7565b91506110af836108f7565b92508282026110bd816108f7565b915082820484148315176110d4576110d3610ef4565b5b5092915050565b7f4164647265737320697320626c61636b6c6973746564000000000000000000005f82015250565b5f61110f601683610d6b565b915061111a826110db565b602082019050919050565b5f6020820190508181035f83015261113c81611103565b9050919050565b7f43616e6e6f74206d696e7420746f207a65726f206164647265737300000000005f82015250565b5f611177601b83610d6b565b915061118282611143565b602082019050919050565b5f6020820190508181035f8301526111a48161116b565b9050919050565b5f6111b5826108f7565b91506111c0836108f7565b92508282019050808211156111d8576111d7610ef4565b5b92915050565b7f496e73756666696369656e742062616c616e63650000000000000000000000005f82015250565b5f611212601483610d6b565b915061121d826111de565b602082019050919050565b5f6020820190508181035f83015261123f81611206565b9050919050565b61124f816108f7565b82525050565b5f6020820190506112685f830184611246565b92915050565b6124b88061127b5f395ff3fe608060405234801561000f575f5ffd5b5060043610610156575f3560e01c8063743bfe70116100c157806395d89b411161007a57806395d89b4114610366578063a9059cbb14610384578063dd62ed3e146103b4578063f2fde38b146103e4578063f9f92be414610400578063fe575a871461041c57610156565b8063743bfe70146102cc57806375e3661e146102ea57806379cc6790146103065780638456cb59146103225780638baace251461032c5780638da5cb5b1461034857610156565b80633f4ba83a116101135780633f4ba83a1461023257806340c10f191461023c57806342966c68146102585780635c975abb1461027457806370a0823114610292578063715018a6146102c257610156565b806303073dfc1461015a57806306fdde0314610178578063095ea7b31461019657806318160ddd146101c657806323b872dd146101e4578063313ce56714610214575b5f5ffd5b61016261044c565b60405161016f9190611bf4565b60405180910390f35b610180610474565b60405161018d9190611c7d565b60405180910390f35b6101b060048036038101906101ab9190611cfe565b610504565b6040516101bd9190611d56565b60405180910390f35b6101ce610632565b6040516101db9190611d7e565b60405180910390f35b6101fe60048036038101906101f99190611d97565b61063b565b60405161020b9190611d56565b60405180910390f35b61021c610775565b6040516102299190611e02565b60405180910390f35b61023a61078a565b005b61025660048036038101906102519190611cfe565b61079c565b005b610272600480360381019061026d9190611e1b565b6107b2565b005b61027c6107bf565b6040516102899190611d56565b60405180910390f35b6102ac60048036038101906102a79190611e46565b6107d4565b6040516102b99190611d7e565b60405180910390f35b6102ca61081a565b005b6102d461082d565b6040516102e19190611d7e565b60405180910390f35b61030460048036038101906102ff9190611e46565b610836565b005b610320600480360381019061031b9190611cfe565b6108d8565b005b61032a6108f1565b005b61034660048036038101906103419190611e46565b610903565b005b610350610985565b60405161035d9190611bf4565b60405180910390f35b61036e6109ac565b60405161037b9190611c7d565b60405180910390f35b61039e60048036038101906103999190611cfe565b610a3c565b6040516103ab9190611d56565b60405180910390f35b6103ce60048036038101906103c99190611e71565b610ec4565b6040516103db9190611d7e565b60405180910390f35b6103fe60048036038101906103f99190611e46565b610f46565b005b61041a60048036038101906104159190611e46565b610fca565b005b61043660048036038101906104319190611e46565b61106d565b6040516104439190611d56565b60405180910390f35b5f60095f9054906101000a900473ffffffffffffffffffffffffffffffffffffffff16905090565b60606005805461048390611edc565b80601f01602080910402602001604051908101604052809291908181526020018280546104af90611edc565b80156104fa5780601f106104d1576101008083540402835291602001916104fa565b820191905f5260205f20905b8154815290600101906020018083116104dd57829003601f168201915b5050505050905090565b5f3360035f8273ffffffffffffffffffffffffffffffffffffffff1673ffffffffffffffffffffffffffffffffffffffff1681526020019081526020015f205f9054906101000a900460ff1615610590576040517f08c379a000000000000000000000000000000000000000000000000000000000815260040161058790611f56565b60405180910390fd5b8360035f8273ffffffffffffffffffffffffffffffffffffffff1673ffffffffffffffffffffffffffffffffffffffff1681526020019081526020015f205f9054906101000a900460ff161561061b576040517f08c379a000000000000000000000000000000000000000000000000000000000815260040161061290611f56565b60405180910390fd5b6106263386866110bf565b60019250505092915050565b5f600454905090565b5f8360035f8273ffffffffffffffffffffffffffffffffffffffff1673ffffffffffffffffffffffffffffffffffffffff1681526020019081526020015f205f9054906101000a900460ff16156106c7576040517f08c379a00000000000000000000000000000000000000000000000000000000081526004016106be90611f56565b60405180910390fd5b8360035f8273ffffffffffffffffffffffffffffffffffffffff1673ffffffffffffffffffffffffffffffffffffffff1681526020019081526020015f205f9054906101000a900460ff1615610752576040517f08c379a000000000000000000000000000000000000000000000000000000000815260040161074990611f56565b60405180910390fd5b61075d8633866110d1565b61076886868661115e565b6001925050509392505050565b5f60075f9054906101000a900460ff16905090565b610792611327565b61079a6113ae565b565b6107a4611327565b6107ae828261140f565b5050565b6107bc3382611518565b50565b5f5f60149054906101000a900460ff16905090565b5f60015f8373ffffffffffffffffffffffffffffffffffffffff1673ffffffffffffffffffffffffffffffffffffffff1681526020019081526020015f20549050919050565b610822611327565b61082b5f611621565b565b5f600854905090565b61083e611327565b5f60035f8373ffffffffffffffffffffffffffffffffffffffff1673ffffffffffffffffffffffffffffffffffffffff1681526020019081526020015f205f6101000a81548160ff0219169083151502179055508073ffffffffffffffffffffffffffffffffffffffff167f7534c63860313c46c473e4e98328f37017e9674e2162faf1a3ad7a96236c3b7b60405160405180910390a250565b6108e38233836110d1565b6108ed8282611518565b5050565b6108f9611327565b6109016116e2565b565b61090b611327565b8060095f6101000a81548173ffffffffffffffffffffffffffffffffffffffff021916908373ffffffffffffffffffffffffffffffffffffffff1602179055507f3ca9233bd3849737ab1049144180bc625db2d51ca2c5ce949e7209eb32faa3a28160405161097a9190611bf4565b60405180910390a150565b5f5f5f9054906101000a900473ffffffffffffffffffffffffffffffffffffffff16905090565b6060600680546109bb90611edc565b80601f01602080910402602001604051908101604052809291908181526020018280546109e790611edc565b8015610a325780601f10610a0957610100808354040283529160200191610a32565b820191905f5260205f20905b815481529060010190602001808311610a1557829003601f168201915b5050505050905090565b5f3360035f8273ffffffffffffffffffffffffffffffffffffffff1673ffffffffffffffffffffffffffffffffffffffff1681526020019081526020015f205f9054906101000a900460ff1615610ac8576040517f08c379a0000000000000000000000000000000000000000000000000000000008152600401610abf90611f56565b60405180910390fd5b8360035f8273ffffffffffffffffffffffffffffffffffffffff1673ffffffffffffffffffffffffffffffffffffffff1681526020019081526020015f205f9054906101000a900460ff1615610b53576040517f08c379a0000000000000000000000000000000000000000000000000000000008152600401610b4a90611f56565b60405180910390fd5b5f610b5c611744565b90505f61271060085487610b709190611fa1565b610b7a919061200f565b90505f8187610b89919061203f565b90508660015f8573ffffffffffffffffffffffffffffffffffffffff1673ffffffffffffffffffffffffffffffffffffffff1681526020019081526020015f20541015610c4e578260015f8573ffffffffffffffffffffffffffffffffffffffff1673ffffffffffffffffffffffffffffffffffffffff1681526020019081526020015f2054886040517fe450d38c000000000000000000000000000000000000000000000000000000008152600401610c4593929190612072565b60405180910390fd5b8660015f8573ffffffffffffffffffffffffffffffffffffffff1673ffffffffffffffffffffffffffffffffffffffff1681526020019081526020015f205f828254610c9a919061203f565b925050819055508060015f8a73ffffffffffffffffffffffffffffffffffffffff1673ffffffffffffffffffffffffffffffffffffffff1681526020019081526020015f205f828254610ced91906120a7565b925050819055505f73ffffffffffffffffffffffffffffffffffffffff1660095f9054906101000a900473ffffffffffffffffffffffffffffffffffffffff1673ffffffffffffffffffffffffffffffffffffffff1614158015610d5057505f82115b15610e50578160015f60095f9054906101000a900473ffffffffffffffffffffffffffffffffffffffff1673ffffffffffffffffffffffffffffffffffffffff1673ffffffffffffffffffffffffffffffffffffffff1681526020019081526020015f205f828254610dc291906120a7565b9250508190555060095f9054906101000a900473ffffffffffffffffffffffffffffffffffffffff1673ffffffffffffffffffffffffffffffffffffffff168373ffffffffffffffffffffffffffffffffffffffff167fddf252ad1be2c89b69c2b068fc378daa952ba7f163c4a11628f55a4df523b3ef84604051610e479190611d7e565b60405180910390a35b8773ffffffffffffffffffffffffffffffffffffffff168373ffffffffffffffffffffffffffffffffffffffff167fddf252ad1be2c89b69c2b068fc378daa952ba7f163c4a11628f55a4df523b3ef83604051610ead9190611d7e565b60405180910390a360019550505050505092915050565b5f60025f8473ffffffffffffffffffffffffffffffffffffffff1673ffffffffffffffffffffffffffffffffffffffff1681526020019081526020015f205f8373ffffffffffffffffffffffffffffffffffffffff1673ffffffffffffffffffffffffffffffffffffffff1681526020019081526020015f2054905092915050565b610f4e611327565b5f73ffffffffffffffffffffffffffffffffffffffff168173ffffffffffffffffffffffffffffffffffffffff1603610fbe575f6040517f1e4fbdf7000000000000000000000000000000000000000000000000000000008152600401610fb59190611bf4565b60405180910390fd5b610fc781611621565b50565b610fd2611327565b600160035f8373ffffffffffffffffffffffffffffffffffffffff1673ffffffffffffffffffffffffffffffffffffffff1681526020019081526020015f205f6101000a81548160ff0219169083151502179055508073ffffffffffffffffffffffffffffffffffffffff167fffa4e6181777692565cf28528fc88fd1516ea86b56da075235fa575af6a4b85560405160405180910390a250565b5f60035f8373ffffffffffffffffffffffffffffffffffffffff1673ffffffffffffffffffffffffffffffffffffffff1681526020019081526020015f205f9054906101000a900460ff169050919050565b6110cc838383600161174b565b505050565b5f6110dc8484610ec4565b905081811015611121576040517f08c379a000000000000000000000000000000000000000000000000000000000815260040161111890612124565b60405180910390fd5b7fffffffffffffffffffffffffffffffffffffffffffffffffffffffffffffffff8110156111585761115784848484035f61174b565b5b50505050565b60035f8473ffffffffffffffffffffffffffffffffffffffff1673ffffffffffffffffffffffffffffffffffffffff1681526020019081526020015f205f9054906101000a900460ff161580156111fc575060035f8373ffffffffffffffffffffffffffffffffffffffff1673ffffffffffffffffffffffffffffffffffffffff1681526020019081526020015f205f9054906101000a900460ff16155b61123b576040517f08c379a00000000000000000000000000000000000000000000000000000000081526004016112329061218c565b60405180910390fd5b5f73ffffffffffffffffffffffffffffffffffffffff168373ffffffffffffffffffffffffffffffffffffffff16036112a9576040517f08c379a00000000000000000000000000000000000000000000000000000000081526004016112a0906121f4565b60405180910390fd5b5f73ffffffffffffffffffffffffffffffffffffffff168273ffffffffffffffffffffffffffffffffffffffff1603611317576040517f08c379a000000000000000000000000000000000000000000000000000000000815260040161130e9061225c565b60405180910390fd5b611322838383611916565b505050565b61132f611744565b73ffffffffffffffffffffffffffffffffffffffff1661134d610985565b73ffffffffffffffffffffffffffffffffffffffff16146113ac57611370611744565b6040517f118cdaa70000000000000000000000000000000000000000000000000000000081526004016113a39190611bf4565b60405180910390fd5b565b6113b6611b34565b5f5f60146101000a81548160ff0219169083151502179055507f5db9ee0a495bf2e6ff9c91a7834c1ba4fdd244a5e8aa4e537bd38aeae4b073aa6113f8611744565b6040516114059190611bf4565b60405180910390a1565b8160035f8273ffffffffffffffffffffffffffffffffffffffff1673ffffffffffffffffffffffffffffffffffffffff1681526020019081526020015f205f9054906101000a900460ff161561149a576040517f08c379a000000000000000000000000000000000000000000000000000000000815260040161149190611f56565b60405180910390fd5b5f73ffffffffffffffffffffffffffffffffffffffff168373ffffffffffffffffffffffffffffffffffffffff1603611508576040517f08c379a00000000000000000000000000000000000000000000000000000000081526004016114ff906122c4565b60405180910390fd5b6115135f8484611916565b505050565b8160035f8273ffffffffffffffffffffffffffffffffffffffff1673ffffffffffffffffffffffffffffffffffffffff1681526020019081526020015f205f9054906101000a900460ff16156115a3576040517f08c379a000000000000000000000000000000000000000000000000000000000815260040161159a90611f56565b60405180910390fd5b5f73ffffffffffffffffffffffffffffffffffffffff168373ffffffffffffffffffffffffffffffffffffffff1603611611576040517f08c379a00000000000000000000000000000000000000000000000000000000081526004016116089061232c565b60405180910390fd5b61161c835f84611916565b505050565b5f5f5f9054906101000a900473ffffffffffffffffffffffffffffffffffffffff169050815f5f6101000a81548173ffffffffffffffffffffffffffffffffffffffff021916908373ffffffffffffffffffffffffffffffffffffffff1602179055508173ffffffffffffffffffffffffffffffffffffffff168173ffffffffffffffffffffffffffffffffffffffff167f8be0079c531659141344cd1fd0a4f28419497f9722a3daafe3b4186f6b6457e060405160405180910390a35050565b6116ea611b74565b60015f60146101000a81548160ff0219169083151502179055507f62e78cea01bee320cd4e420270b5ea74000d11b0c9f74754ebdbfc544b05a25861172d611744565b60405161173a9190611bf4565b60405180910390a1565b5f33905090565b5f73ffffffffffffffffffffffffffffffffffffffff168473ffffffffffffffffffffffffffffffffffffffff16036117b9576040517f08c379a00000000000000000000000000000000000000000000000000000000081526004016117b090612394565b60405180910390fd5b5f73ffffffffffffffffffffffffffffffffffffffff168373ffffffffffffffffffffffffffffffffffffffff1603611827576040517f08c379a000000000000000000000000000000000000000000000000000000000815260040161181e906123fc565b60405180910390fd5b8160025f8673ffffffffffffffffffffffffffffffffffffffff1673ffffffffffffffffffffffffffffffffffffffff1681526020019081526020015f205f8573ffffffffffffffffffffffffffffffffffffffff1673ffffffffffffffffffffffffffffffffffffffff1681526020019081526020015f20819055508015611910578273ffffffffffffffffffffffffffffffffffffffff168473ffffffffffffffffffffffffffffffffffffffff167f8c5be1e5ebec7d5bd14f71427d1e84f3dd0314c0f7b2291e5b200ac8c7c3b925846040516119079190611d7e565b60405180910390a35b50505050565b61191e611b74565b5f73ffffffffffffffffffffffffffffffffffffffff168373ffffffffffffffffffffffffffffffffffffffff160361196e578060045f82825461196291906120a7565b92505081905550611a38565b5f60015f8573ffffffffffffffffffffffffffffffffffffffff1673ffffffffffffffffffffffffffffffffffffffff1681526020019081526020015f20549050818110156119f2576040517f08c379a00000000000000000000000000000000000000000000000000000000081526004016119e990612464565b60405180910390fd5b81810360015f8673ffffffffffffffffffffffffffffffffffffffff1673ffffffffffffffffffffffffffffffffffffffff1681526020019081526020015f2081905550505b5f73ffffffffffffffffffffffffffffffffffffffff168273ffffffffffffffffffffffffffffffffffffffff1603611a7f578060045f8282540392505081905550611aca565b8060015f8473ffffffffffffffffffffffffffffffffffffffff1673ffffffffffffffffffffffffffffffffffffffff1681526020019081526020015f205f82825401925050819055505b8173ffffffffffffffffffffffffffffffffffffffff168373ffffffffffffffffffffffffffffffffffffffff167fddf252ad1be2c89b69c2b068fc378daa952ba7f163c4a11628f55a4df523b3ef83604051611b279190611d7e565b60405180910390a3505050565b611b3c6107bf565b611b72576040517f8dfc202b00000000000000000000000000000000000000000000000000000000815260040160405180910390fd5b565b611b7c6107bf565b15611bb3576040517fd93c066500000000000000000000000000000000000000000000000000000000815260040160405180910390fd5b565b5f73ffffffffffffffffffffffffffffffffffffffff82169050919050565b5f611bde82611bb5565b9050919050565b611bee81611bd4565b82525050565b5f602082019050611c075f830184611be5565b92915050565b5f81519050919050565b5f82825260208201905092915050565b8281835e5f83830152505050565b5f601f19601f8301169050919050565b5f611c4f82611c0d565b611c598185611c17565b9350611c69818560208601611c27565b611c7281611c35565b840191505092915050565b5f6020820190508181035f830152611c958184611c45565b905092915050565b5f5ffd5b611caa81611bd4565b8114611cb4575f5ffd5b50565b5f81359050611cc581611ca1565b92915050565b5f819050919050565b611cdd81611ccb565b8114611ce7575f5ffd5b50565b5f81359050611cf881611cd4565b92915050565b5f5f60408385031215611d1457611d13611c9d565b5b5f611d2185828601611cb7565b9250506020611d3285828601611cea565b9150509250929050565b5f8115159050919050565b611d5081611d3c565b82525050565b5f602082019050611d695f830184611d47565b92915050565b611d7881611ccb565b82525050565b5f602082019050611d915f830184611d6f565b92915050565b5f5f5f60608486031215611dae57611dad611c9d565b5b5f611dbb86828701611cb7565b9350506020611dcc86828701611cb7565b9250506040611ddd86828701611cea565b9150509250925092565b5f60ff82169050919050565b611dfc81611de7565b82525050565b5f602082019050611e155f830184611df3565b92915050565b5f60208284031215611e3057611e2f611c9d565b5b5f611e3d84828501611cea565b91505092915050565b5f60208284031215611e5b57611e5a611c9d565b5b5f611e6884828501611cb7565b91505092915050565b5f5f60408385031215611e8757611e86611c9d565b5b5f611e9485828601611cb7565b9250506020611ea585828601611cb7565b9150509250929050565b7f4e487b71000000000000000000000000000000000000000000000000000000005f52602260045260245ffd5b5f6002820490506001821680611ef357607f821691505b602082108103611f0657611f05611eaf565b5b50919050565b7f4164647265737320697320626c61636b6c6973746564000000000000000000005f82015250565b5f611f40601683611c17565b9150611f4b82611f0c565b602082019050919050565b5f6020820190508181035f830152611f6d81611f34565b9050919050565b7f4e487b71000000000000000000000000000000000000000000000000000000005f52601160045260245ffd5b5f611fab82611ccb565b9150611fb683611ccb565b9250828202611fc481611ccb565b91508282048414831517611fdb57611fda611f74565b5b5092915050565b7f4e487b71000000000000000000000000000000000000000000000000000000005f52601260045260245ffd5b5f61201982611ccb565b915061202483611ccb565b92508261203457612033611fe2565b5b828204905092915050565b5f61204982611ccb565b915061205483611ccb565b925082820390508181111561206c5761206b611f74565b5b92915050565b5f6060820190506120855f830186611be5565b6120926020830185611d6f565b61209f6040830184611d6f565b949350505050565b5f6120b182611ccb565b91506120bc83611ccb565b92508282019050808211156120d4576120d3611f74565b5b92915050565b7f496e73756666696369656e7420616c6c6f77616e6365000000000000000000005f82015250565b5f61210e601683611c17565b9150612119826120da565b602082019050919050565b5f6020820190508181035f83015261213b81612102565b9050919050565b7f426c61636b6c6973746564206164647265737320696e766f6c766564000000005f82015250565b5f612176601c83611c17565b915061218182612142565b602082019050919050565b5f6020820190508181035f8301526121a38161216a565b9050919050565b7f496e76616c69642073656e6465723a207a65726f2061646472657373000000005f82015250565b5f6121de601c83611c17565b91506121e9826121aa565b602082019050919050565b5f6020820190508181035f83015261220b816121d2565b9050919050565b7f496e76616c69642072656365697665723a207a65726f206164647265737300005f82015250565b5f612246601e83611c17565b915061225182612212565b602082019050919050565b5f6020820190508181035f8301526122738161223a565b9050919050565b7f43616e6e6f74206d696e7420746f207a65726f206164647265737300000000005f82015250565b5f6122ae601b83611c17565b91506122b98261227a565b602082019050919050565b5f6020820190508181035f8301526122db816122a2565b9050919050565b7f43616e6e6f74206275726e2066726f6d207a65726f20616464726573730000005f82015250565b5f612316601d83611c17565b9150612321826122e2565b602082019050919050565b5f6020820190508181035f8301526123438161230a565b9050919050565b7f496e76616c696420617070726f766572000000000000000000000000000000005f82015250565b5f61237e601083611c17565b91506123898261234a565b602082019050919050565b5f6020820190508181035f8301526123ab81612372565b9050919050565b7f496e76616c6964207370656e64657200000000000000000000000000000000005f82015250565b5f6123e6600f83611c17565b91506123f1826123b2565b602082019050919050565b5f6020820190508181035f830152612413816123da565b9050919050565b7f496e73756666696369656e742062616c616e63650000000000000000000000005f82015250565b5f61244e601483611c17565b91506124598261241a565b602082019050919050565b5f6020820190508181035f83015261247b81612442565b905091905056fea264697066735822122089a3904f54cb6f9a584e177eadd5d7addf67cbb61095af9db08f14f69ce7d17264736f6c634300081c0033","linkReferences":{}},"methodIdentifiers":{"allowance(address,address)":"dd62ed3e","approve(address,uint256)":"095ea7b3","balanceOf(address)":"70a08231","blacklist(address)":"f9f92be4","burn(uint256)":"42966c68","burnFrom(address,uint256)":"79cc6790","decimals()":"313ce567","getTaxFeeRecipient()":"03073dfc","getTransferTaxBps()":"743bfe70","isBlacklisted(address)":"fe575a87","mint(address,uint256)":"40c10f19","name()":"06fdde03","owner()":"8da5cb5b","pause()":"8456cb59","paused()":"5c975abb","renounceOwnership()":"715018a6","symbol()":"95d89b41","totalSupply()":"18160ddd","transfer(address,uint256)":"a9059cbb","transferFrom(address,address,uint256)":"23b872dd","transferOwnership(address)":"f2fde38b","unblacklist(address)":"75e3661e","unpause()":"3f4ba83a","updateTaxFeeRecipient(address)":"8baace25"},"id":34}