{"abi":[{"type":"constructor","inputs":[{"name":"name_","type":"string","internalType":"string"},{"name":"symbol_","type":"string","internalType":"string"},{"name":"decimals_","type":"uint8","internalType":"uint8"},{"name":"totalSupply_","type":"uint256","internalType":"uint256"},{"name":"serviceFeeReceiver_","type":"address","internalType":"address"},{"name":"serviceFee_","type":"uint256","internalType":"uint256"},{"name":"transferTaxBps_","type":"uint256","internalType":"uint256"},{"name":"taxFeeRecipient_","type":"address","internalType":"address"}],"stateMutability":"payable"},{"type":"function","name":"allowance","inputs":[{"name":"owner","type":"address","internalType":"address"},{"name":"spender","type":"address","internalType":"address"}],"outputs":[{"name":"","type":"uint256","internalType":"uint256"}],"stateMutability":"view"},{"type":"function","name":"approve","inputs":[{"name":"spender","type":"address","internalType":"address"},{"name":"value","type":"uint256","internalType":"uint256"}],"outputs":[{"name":"","type":"bool","internalType":"bool"}],"stateMutability":"nonpayable"},{"type":"function","name":"balanceOf","inputs":[{"name":"account","type":"address","internalType":"address"}],"outputs":[{"name":"","type":"uint256","internalType":"uint256"}],"stateMutability":"view"},{"type":"function","name":"blacklist","inputs":[{"name":"account","type":"address","internalType":"address"}],"outputs":[],"stateMutability":"nonpayable"},{"type":"function","name":"burn","inputs":[{"name":"value","type":"uint256","internalType":"uint256"}],"outputs":[],"stateMutability":"nonpayable"},{"type":"function","name":"burnFrom","inputs":[{"name":"account","type":"address","internalType":"address"},{"name":"value","type":"uint256","internalType":"uint256"}],"outputs":[],"stateMutability":"nonpayable"},{"type":"function","name":"decimals","inputs":[],"outputs":[{"name":"","type":"uint8","internalType":"uint8"}],"stateMutability":"view"},{"type":"function","name":"getTaxFeeRecipient","inputs":[],"outputs":[{"name":"","type":"address","internalType":"address"}],"stateMutability":"view"},{"type":"function","name":"getTransferTaxBps","inputs":[],"outputs":[{"name":"","type":"uint256","internalType":"uint256"}],"stateMutability":"view"},{"type":"function","name":"isBlacklisted","inputs":[{"name":"account","type":"address","internalType":"address"}],"outputs":[{"name":"","type":"bool","internalType":"bool"}],"stateMutability":"view"},{"type":"function","name":"mint","inputs":[{"name":"to","type":"address","internalType":"address"},{"name":"amount","type":"uint256","internalType":"uint256"}],"outputs":[],"stateMutability":"nonpayable"},{"type":"function","name":"name","inputs":[],"outputs":[{"name":"","type":"string","internalType":"string"}],"stateMutability":"view"},{"type":"function","name":"owner","inputs":[],"outputs":[{"name":"","type":"address","internalType":"address"}],"stateMutability":"view"},{"type":"function","name":"pause","inputs":[],"outputs":[],"stateMutability":"nonpayable"},{"type":"function","name":"paused","inputs":[],"outputs":[{"name":"","type":"bool","internalType":"bool"}],"stateMutability":"view"},{"type":"function","name":"renounceOwnership","inputs":[],"outputs":[],"stateMutability":"nonpayable"},{"type":"function","name":"symbol","inputs":[],"outputs":[{"name":"","type":"string","internalType":"string"}],"stateMutability":"view"},{"type":"function","name":"totalSupply","inputs":[],"outputs":[{"name":"","type":"uint256","internalType":"uint256"}],"stateMutability":"view"},{"type":"function","name":"transfer","inputs":[{"name":"to","type":"address","internalType":"address"},{"name":"value","type":"uint256","internalType":"uint256"}],"outputs":[{"name":"","type":"bool","internalType":"bool"}],"stateMutability":"nonpayable"},{"type":"function","name":"transferFrom","inputs":[{"name":"from","type":"address","internalType":"address"},{"name":"to","type":"address","internalType":"address"},{"name":"value","type":"uint256","internalType":"uint256"}],"outputs":[{"name":"","type":"bool","internalType":"bool"}],"stateMutability":"nonpayable"},{"type":"function","name":"transferOwnership","inputs":[{"name":"newOwner","type":"address","internalType":"address"}],"outputs":[],"stateMutability":"nonpayable"},{"type":"function","name":"unblacklist","inputs":[{"name":"account","type":"address","internalType":"address"}],"outputs":[],"stateMutability":"nonpayable"},{"type":"function","name":"unpause","inputs":[],"outputs":[],"stateMutability":"nonpayable"},{"type":"function","name":"updateTaxFeeRecipient","inputs":[{"name":"newTaxFeeRecipient","type":"address","internalType":"address"}],"outputs":[],"stateMutability":"nonpayable"},{"type":"event","name":"Approval","inputs":[{"name":"owner","type":"address","indexed":true,"internalType":"address"},{"name":"spender","type":"address","indexed":true,"internalType":"address"},{"name":"value","type":"uint256","indexed":false,"internalType":"uint256"}],"anonymous":false},{"type":"event","name":"Blacklisted","inputs":[{"name":"account","type":"address","indexed":true,"internalType":"address"}],"anonymous":false},{"type":"event","name":"OwnershipTransferred","inputs":[{"name":"previousOwner","type":"address","indexed":true,"internalType":"address"},{"name":"newOwner","type":"address","indexed":true,"internalType":"address"}],"anonymous":false},{"type":"event","name":"Paused","inputs":[{"name":"account","type":"address","indexed":false,"internalType":"address"}],"anonymous":false},{"type":"event","name":"TaxFeeRecipientUpdated","inputs":[{"name":"newTaxFeeRecipient","type":"address","indexed":false,"internalType":"address"}],"anonymous":false},{"type":"event","name":"Transfer","inputs":[{"name":"from","type":"address","indexed":true,"internalType":"address"},{"name":"to","type":"address","indexed":true,"internalType":"address"},{"name":"value","type":"uint256","indexed":false,"internalType":"uint256"}],"anonymous":false},{"type":"event","name":"Unblacklisted","inputs":[{"name":"account","type":"address","indexed":true,"internalType":"address"}],"anonymous":false},{"type":"event","name":"Unpaused","inputs":[{"name":"account","type":"address","indexed":false,"internalType":"address"}],"anonymous":false},{"type":"error","name":"ERC20InsufficientAllowance","inputs":[{"name":"spender","type":"address","internalType":"address"},{"name":"allowance","type":"uint256","internalType":"uint256"},{"name":"needed","type":"uint256","internalType":"uint256"}]},{"type":"error","name":"ERC20InsufficientBalance","inputs":[{"name":"sender","type":"address","internalType":"address"},{"name":"balance","type":"uint256","internalType":"uint256"},{"name":"needed","type":"uint256","internalType":"uint256"}]},{"type":"error","name":"ERC20InvalidApprover","inputs":[{"name":"approver","type":"address","internalType":"address"}]},{"type":"error","name":"ERC20InvalidReceiver","inputs":[{"name":"receiver","type":"address","internalType":"address"}]},{"type":"error","name":"ERC20InvalidSender","inputs":[{"name":"sender","type":"address","internalType":"address"}]},{"type":"error","name":"ERC20InvalidSpender","inputs":[{"name":"spender","type":"address","internalType":"address"}]},{"type":"error","name":"EnforcedPause","inputs":[]},{"type":"error","name":"ExpectedPause","inputs":[]},{"type":"error","name":"OwnableInvalidOwner","inputs":[{"name":"owner","type":"address","internalType":"address"}]},{"type":"error","name":"OwnableUnauthorizedAccount","inputs":[{"name":"account","type":"address","internalType":"address"}]}],"bytecode":{"object":"0x60806040526040516200389238038062003892833981810160405281019062000029919062000a0a565b335f73ffffffffffffffffffffffffffffffffffffffff168173ffffffffffffffffffffffffffffffffffffffff16036200009d575f6040517f1e4fbdf700000000000000000000000000000000000000000000000000000000815260040162000094919062000b1d565b60405180910390fd5b620000ae816200030d60201b60201c565b505f8060146101000a81548160ff0219169083151502179055508760059081620000d9919062000d66565b508660069081620000eb919062000d66565b508560075f6101000a81548160ff021916908360ff160217905550816008819055508060095f6101000a81548173ffffffffffffffffffffffffffffffffffffffff021916908373ffffffffffffffffffffffffffffffffffffffff1602179055508234101562000193576040517f08c379a00000000000000000000000000000000000000000000000000000000081526004016200018a9062000ea8565b60405180910390fd5b5f73ffffffffffffffffffffffffffffffffffffffff168473ffffffffffffffffffffffffffffffffffffffff160362000204576040517f08c379a0000000000000000000000000000000000000000000000000000000008152600401620001fb9062000f16565b60405180910390fd5b5f8473ffffffffffffffffffffffffffffffffffffffff16846040516200022b9062000f67565b5f6040518083038185875af1925050503d805f811462000267576040519150601f19603f3d011682016040523d82523d5f602084013e6200026c565b606091505b5050905080620002b3576040517f08c379a0000000000000000000000000000000000000000000000000000000008152600401620002aa9062000fcb565b60405180910390fd5b620002fe620002c7620003ce60201b60201c565b620002d7620003f560201b60201c565b600a620002e5919062001168565b88620002f29190620011b8565b6200040a60201b60201c565b505050505050505050620013b2565b5f805f9054906101000a900473ffffffffffffffffffffffffffffffffffffffff169050815f806101000a81548173ffffffffffffffffffffffffffffffffffffffff021916908373ffffffffffffffffffffffffffffffffffffffff1602179055508173ffffffffffffffffffffffffffffffffffffffff168173ffffffffffffffffffffffffffffffffffffffff167f8be0079c531659141344cd1fd0a4f28419497f9722a3daafe3b4186f6b6457e060405160405180910390a35050565b5f805f9054906101000a900473ffffffffffffffffffffffffffffffffffffffff16905090565b5f60075f9054906101000a900460ff16905090565b8160035f8273ffffffffffffffffffffffffffffffffffffffff1673ffffffffffffffffffffffffffffffffffffffff1681526020019081526020015f205f9054906101000a900460ff161562000498576040517f08c379a00000000000000000000000000000000000000000000000000000000081526004016200048f9062001250565b60405180910390fd5b5f73ffffffffffffffffffffffffffffffffffffffff168373ffffffffffffffffffffffffffffffffffffffff160362000509576040517f08c379a00000000000000000000000000000000000000000000000000000000081526004016200050090620012be565b60405180910390fd5b6200051c5f84846200052160201b60201c565b505050565b620005316200075260201b60201c565b5f73ffffffffffffffffffffffffffffffffffffffff168373ffffffffffffffffffffffffffffffffffffffff160362000585578060045f828254620005789190620012de565b9250508190555062000652565b5f60015f8573ffffffffffffffffffffffffffffffffffffffff1673ffffffffffffffffffffffffffffffffffffffff1681526020019081526020015f20549050818110156200060c576040517f08c379a0000000000000000000000000000000000000000000000000000000008152600401620006039062001366565b60405180910390fd5b81810360015f8673ffffffffffffffffffffffffffffffffffffffff1673ffffffffffffffffffffffffffffffffffffffff1681526020019081526020015f2081905550505b5f73ffffffffffffffffffffffffffffffffffffffff168273ffffffffffffffffffffffffffffffffffffffff16036200069b578060045f8282540392505081905550620006e6565b8060015f8473ffffffffffffffffffffffffffffffffffffffff1673ffffffffffffffffffffffffffffffffffffffff1681526020019081526020015f205f82825401925050819055505b8173ffffffffffffffffffffffffffffffffffffffff168373ffffffffffffffffffffffffffffffffffffffff167fddf252ad1be2c89b69c2b068fc378daa952ba7f163c4a11628f55a4df523b3ef8360405162000745919062001397565b60405180910390a3505050565b620007626200079c60201b60201c565b156200079a576040517fd93c066500000000000000000000000000000000000000000000000000000000815260040160405180910390fd5b565b5f8060149054906101000a900460ff16905090565b5f604051905090565b5f80fd5b5f80fd5b5f80fd5b5f80fd5b5f601f19601f8301169050919050565b7f4e487b71000000000000000000000000000000000000000000000000000000005f52604160045260245ffd5b6200081282620007ca565b810181811067ffffffffffffffff82111715620008345762000833620007da565b5b80604052505050565b5f62000848620007b1565b905062000856828262000807565b919050565b5f67ffffffffffffffff821115620008785762000877620007da565b5b6200088382620007ca565b9050602081019050919050565b5f5b83811015620008af57808201518184015260208101905062000892565b5f8484015250505050565b5f620008d0620008ca846200085b565b6200083d565b905082815260208101848484011115620008ef57620008ee620007c6565b5b620008fc84828562000890565b509392505050565b5f82601f8301126200091b576200091a620007c2565b5b81516200092d848260208601620008ba565b91505092915050565b5f60ff82169050919050565b6200094d8162000936565b811462000958575f80fd5b50565b5f815190506200096b8162000942565b92915050565b5f819050919050565b620009858162000971565b811462000990575f80fd5b50565b5f81519050620009a3816200097a565b92915050565b5f73ffffffffffffffffffffffffffffffffffffffff82169050919050565b5f620009d482620009a9565b9050919050565b620009e681620009c8565b8114620009f1575f80fd5b50565b5f8151905062000a0481620009db565b92915050565b5f805f805f805f80610100898b03121562000a2a5762000a29620007ba565b5b5f89015167ffffffffffffffff81111562000a4a5762000a49620007be565b5b62000a588b828c0162000904565b985050602089015167ffffffffffffffff81111562000a7c5762000a7b620007be565b5b62000a8a8b828c0162000904565b975050604062000a9d8b828c016200095b565b965050606062000ab08b828c0162000993565b955050608062000ac38b828c01620009f4565b94505060a062000ad68b828c0162000993565b93505060c062000ae98b828c0162000993565b92505060e062000afc8b828c01620009f4565b9150509295985092959890939650565b62000b1781620009c8565b82525050565b5f60208201905062000b325f83018462000b0c565b92915050565b5f81519050919050565b7f4e487b71000000000000000000000000000000000000000000000000000000005f52602260045260245ffd5b5f600282049050600182168062000b8757607f821691505b60208210810362000b9d5762000b9c62000b42565b5b50919050565b5f819050815f5260205f209050919050565b5f6020601f8301049050919050565b5f82821b905092915050565b5f6008830262000c017fffffffffffffffffffffffffffffffffffffffffffffffffffffffffffffffff8262000bc4565b62000c0d868362000bc4565b95508019841693508086168417925050509392505050565b5f819050919050565b5f62000c4e62000c4862000c428462000971565b62000c25565b62000971565b9050919050565b5f819050919050565b62000c698362000c2e565b62000c8162000c788262000c55565b84845462000bd0565b825550505050565b5f90565b62000c9762000c89565b62000ca481848462000c5e565b505050565b5b8181101562000ccb5762000cbf5f8262000c8d565b60018101905062000caa565b5050565b601f82111562000d1a5762000ce48162000ba3565b62000cef8462000bb5565b8101602085101562000cff578190505b62000d1762000d0e8562000bb5565b83018262000ca9565b50505b505050565b5f82821c905092915050565b5f62000d3c5f198460080262000d1f565b1980831691505092915050565b5f62000d56838362000d2b565b9150826002028217905092915050565b62000d718262000b38565b67ffffffffffffffff81111562000d8d5762000d8c620007da565b5b62000d99825462000b6f565b62000da682828562000ccf565b5f60209050601f83116001811462000ddc575f841562000dc7578287015190505b62000dd3858262000d49565b86555062000e42565b601f19841662000dec8662000ba3565b5f5b8281101562000e155784890151825560018201915060208501945060208101905062000dee565b8683101562000e35578489015162000e31601f89168262000d2b565b8355505b6001600288020188555050505b505050505050565b5f82825260208201905092915050565b7f496e73756666696369656e742066656520616d6f756e742073656e74000000005f82015250565b5f62000e90601c8362000e4a565b915062000e9d8262000e5a565b602082019050919050565b5f6020820190508181035f83015262000ec18162000e82565b9050919050565b7f496e76616c6964206665652072656365697665722061646472657373000000005f82015250565b5f62000efe601c8362000e4a565b915062000f0b8262000ec8565b602082019050919050565b5f6020820190508181035f83015262000f2f8162000ef0565b9050919050565b5f81905092915050565b50565b5f62000f505f8362000f36565b915062000f5d8262000f40565b5f82019050919050565b5f62000f738262000f43565b9150819050919050565b7f466565207472616e73666572206661696c6564000000000000000000000000005f82015250565b5f62000fb360138362000e4a565b915062000fc08262000f7d565b602082019050919050565b5f6020820190508181035f83015262000fe48162000fa5565b9050919050565b7f4e487b71000000000000000000000000000000000000000000000000000000005f52601160045260245ffd5b5f8160011c9050919050565b5f808291508390505b600185111562001075578086048111156200104d576200104c62000feb565b5b60018516156200105d5780820291505b80810290506200106d8562001018565b94506200102d565b94509492505050565b5f826200108f576001905062001161565b816200109e575f905062001161565b8160018114620010b75760028114620010c257620010f8565b600191505062001161565b60ff841115620010d757620010d662000feb565b5b8360020a915084821115620010f157620010f062000feb565b5b5062001161565b5060208310610133831016604e8410600b8410161715620011325782820a9050838111156200112c576200112b62000feb565b5b62001161565b62001141848484600162001024565b925090508184048111156200115b576200115a62000feb565b5b81810290505b9392505050565b5f620011748262000971565b9150620011818362000936565b9250620011b07fffffffffffffffffffffffffffffffffffffffffffffffffffffffffffffffff84846200107e565b905092915050565b5f620011c48262000971565b9150620011d18362000971565b9250828202620011e18162000971565b91508282048414831517620011fb57620011fa62000feb565b5b5092915050565b7f4164647265737320697320626c61636b6c6973746564000000000000000000005f82015250565b5f6200123860168362000e4a565b9150620012458262001202565b602082019050919050565b5f6020820190508181035f83015262001269816200122a565b9050919050565b7f43616e6e6f74206d696e7420746f207a65726f206164647265737300000000005f82015250565b5f620012a6601b8362000e4a565b9150620012b38262001270565b602082019050919050565b5f6020820190508181035f830152620012d78162001298565b9050919050565b5f620012ea8262000971565b9150620012f78362000971565b925082820190508082111562001312576200131162000feb565b5b92915050565b7f496e73756666696369656e742062616c616e63650000000000000000000000005f82015250565b5f6200134e60148362000e4a565b91506200135b8262001318565b602082019050919050565b5f6020820190508181035f8301526200137f8162001340565b9050919050565b620013918162000971565b82525050565b5f602082019050620013ac5f83018462001386565b92915050565b6124d280620013c05f395ff3fe608060405234801561000f575f80fd5b5060043610610156575f3560e01c8063743bfe70116100c157806395d89b411161007a57806395d89b4114610366578063a9059cbb14610384578063dd62ed3e146103b4578063f2fde38b146103e4578063f9f92be414610400578063fe575a871461041c57610156565b8063743bfe70146102cc57806375e3661e146102ea57806379cc6790146103065780638456cb59146103225780638baace251461032c5780638da5cb5b1461034857610156565b80633f4ba83a116101135780633f4ba83a1461023257806340c10f191461023c57806342966c68146102585780635c975abb1461027457806370a0823114610292578063715018a6146102c257610156565b806303073dfc1461015a57806306fdde0314610178578063095ea7b31461019657806318160ddd146101c657806323b872dd146101e4578063313ce56714610214575b5f80fd5b61016261044c565b60405161016f9190611bf4565b60405180910390f35b610180610474565b60405161018d9190611c97565b60405180910390f35b6101b060048036038101906101ab9190611d18565b610504565b6040516101bd9190611d70565b60405180910390f35b6101ce610632565b6040516101db9190611d98565b60405180910390f35b6101fe60048036038101906101f99190611db1565b61063b565b60405161020b9190611d70565b60405180910390f35b61021c610775565b6040516102299190611e1c565b60405180910390f35b61023a61078a565b005b61025660048036038101906102519190611d18565b61079c565b005b610272600480360381019061026d9190611e35565b6107b2565b005b61027c6107bf565b6040516102899190611d70565b60405180910390f35b6102ac60048036038101906102a79190611e60565b6107d4565b6040516102b99190611d98565b60405180910390f35b6102ca61081a565b005b6102d461082d565b6040516102e19190611d98565b60405180910390f35b61030460048036038101906102ff9190611e60565b610836565b005b610320600480360381019061031b9190611d18565b6108d8565b005b61032a6108f1565b005b61034660048036038101906103419190611e60565b610903565b005b610350610985565b60405161035d9190611bf4565b60405180910390f35b61036e6109ac565b60405161037b9190611c97565b60405180910390f35b61039e60048036038101906103999190611d18565b610a3c565b6040516103ab9190611d70565b60405180910390f35b6103ce60048036038101906103c99190611e8b565b610ec4565b6040516103db9190611d98565b60405180910390f35b6103fe60048036038101906103f99190611e60565b610f46565b005b61041a60048036038101906104159190611e60565b610fca565b005b61043660048036038101906104319190611e60565b61106d565b6040516104439190611d70565b60405180910390f35b5f60095f9054906101000a900473ffffffffffffffffffffffffffffffffffffffff16905090565b60606005805461048390611ef6565b80601f01602080910402602001604051908101604052809291908181526020018280546104af90611ef6565b80156104fa5780601f106104d1576101008083540402835291602001916104fa565b820191905f5260205f20905b8154815290600101906020018083116104dd57829003601f168201915b5050505050905090565b5f3360035f8273ffffffffffffffffffffffffffffffffffffffff1673ffffffffffffffffffffffffffffffffffffffff1681526020019081526020015f205f9054906101000a900460ff1615610590576040517f08c379a000000000000000000000000000000000000000000000000000000000815260040161058790611f70565b60405180910390fd5b8360035f8273ffffffffffffffffffffffffffffffffffffffff1673ffffffffffffffffffffffffffffffffffffffff1681526020019081526020015f205f9054906101000a900460ff161561061b576040517f08c379a000000000000000000000000000000000000000000000000000000000815260040161061290611f70565b60405180910390fd5b6106263386866110bf565b60019250505092915050565b5f600454905090565b5f8360035f8273ffffffffffffffffffffffffffffffffffffffff1673ffffffffffffffffffffffffffffffffffffffff1681526020019081526020015f205f9054906101000a900460ff16156106c7576040517f08c379a00000000000000000000000000000000000000000000000000000000081526004016106be90611f70565b60405180910390fd5b8360035f8273ffffffffffffffffffffffffffffffffffffffff1673ffffffffffffffffffffffffffffffffffffffff1681526020019081526020015f205f9054906101000a900460ff1615610752576040517f08c379a000000000000000000000000000000000000000000000000000000000815260040161074990611f70565b60405180910390fd5b61075d8633866110d1565b61076886868661115e565b6001925050509392505050565b5f60075f9054906101000a900460ff16905090565b610792611327565b61079a6113ae565b565b6107a4611327565b6107ae828261140f565b5050565b6107bc3382611518565b50565b5f8060149054906101000a900460ff16905090565b5f60015f8373ffffffffffffffffffffffffffffffffffffffff1673ffffffffffffffffffffffffffffffffffffffff1681526020019081526020015f20549050919050565b610822611327565b61082b5f611621565b565b5f600854905090565b61083e611327565b5f60035f8373ffffffffffffffffffffffffffffffffffffffff1673ffffffffffffffffffffffffffffffffffffffff1681526020019081526020015f205f6101000a81548160ff0219169083151502179055508073ffffffffffffffffffffffffffffffffffffffff167f7534c63860313c46c473e4e98328f37017e9674e2162faf1a3ad7a96236c3b7b60405160405180910390a250565b6108e38233836110d1565b6108ed8282611518565b5050565b6108f9611327565b6109016116e2565b565b61090b611327565b8060095f6101000a81548173ffffffffffffffffffffffffffffffffffffffff021916908373ffffffffffffffffffffffffffffffffffffffff1602179055507f3ca9233bd3849737ab1049144180bc625db2d51ca2c5ce949e7209eb32faa3a28160405161097a9190611bf4565b60405180910390a150565b5f805f9054906101000a900473ffffffffffffffffffffffffffffffffffffffff16905090565b6060600680546109bb90611ef6565b80601f01602080910402602001604051908101604052809291908181526020018280546109e790611ef6565b8015610a325780601f10610a0957610100808354040283529160200191610a32565b820191905f5260205f20905b815481529060010190602001808311610a1557829003601f168201915b5050505050905090565b5f3360035f8273ffffffffffffffffffffffffffffffffffffffff1673ffffffffffffffffffffffffffffffffffffffff1681526020019081526020015f205f9054906101000a900460ff1615610ac8576040517f08c379a0000000000000000000000000000000000000000000000000000000008152600401610abf90611f70565b60405180910390fd5b8360035f8273ffffffffffffffffffffffffffffffffffffffff1673ffffffffffffffffffffffffffffffffffffffff1681526020019081526020015f205f9054906101000a900460ff1615610b53576040517f08c379a0000000000000000000000000000000000000000000000000000000008152600401610b4a90611f70565b60405180910390fd5b5f610b5c611744565b90505f61271060085487610b709190611fbb565b610b7a9190612029565b90505f8187610b899190612059565b90508660015f8573ffffffffffffffffffffffffffffffffffffffff1673ffffffffffffffffffffffffffffffffffffffff1681526020019081526020015f20541015610c4e578260015f8573ffffffffffffffffffffffffffffffffffffffff1673ffffffffffffffffffffffffffffffffffffffff1681526020019081526020015f2054886040517fe450d38c000000000000000000000000000000000000000000000000000000008152600401610c459392919061208c565b60405180910390fd5b8660015f8573ffffffffffffffffffffffffffffffffffffffff1673ffffffffffffffffffffffffffffffffffffffff1681526020019081526020015f205f828254610c9a9190612059565b925050819055508060015f8a73ffffffffffffffffffffffffffffffffffffffff1673ffffffffffffffffffffffffffffffffffffffff1681526020019081526020015f205f828254610ced91906120c1565b925050819055505f73ffffffffffffffffffffffffffffffffffffffff1660095f9054906101000a900473ffffffffffffffffffffffffffffffffffffffff1673ffffffffffffffffffffffffffffffffffffffff1614158015610d5057505f82115b15610e50578160015f60095f9054906101000a900473ffffffffffffffffffffffffffffffffffffffff1673ffffffffffffffffffffffffffffffffffffffff1673ffffffffffffffffffffffffffffffffffffffff1681526020019081526020015f205f828254610dc291906120c1565b9250508190555060095f9054906101000a900473ffffffffffffffffffffffffffffffffffffffff1673ffffffffffffffffffffffffffffffffffffffff168373ffffffffffffffffffffffffffffffffffffffff167fddf252ad1be2c89b69c2b068fc378daa952ba7f163c4a11628f55a4df523b3ef84604051610e479190611d98565b60405180910390a35b8773ffffffffffffffffffffffffffffffffffffffff168373ffffffffffffffffffffffffffffffffffffffff167fddf252ad1be2c89b69c2b068fc378daa952ba7f163c4a11628f55a4df523b3ef83604051610ead9190611d98565b60405180910390a360019550505050505092915050565b5f60025f8473ffffffffffffffffffffffffffffffffffffffff1673ffffffffffffffffffffffffffffffffffffffff1681526020019081526020015f205f8373ffffffffffffffffffffffffffffffffffffffff1673ffffffffffffffffffffffffffffffffffffffff1681526020019081526020015f2054905092915050565b610f4e611327565b5f73ffffffffffffffffffffffffffffffffffffffff168173ffffffffffffffffffffffffffffffffffffffff1603610fbe575f6040517f1e4fbdf7000000000000000000000000000000000000000000000000000000008152600401610fb59190611bf4565b60405180910390fd5b610fc781611621565b50565b610fd2611327565b600160035f8373ffffffffffffffffffffffffffffffffffffffff1673ffffffffffffffffffffffffffffffffffffffff1681526020019081526020015f205f6101000a81548160ff0219169083151502179055508073ffffffffffffffffffffffffffffffffffffffff167fffa4e6181777692565cf28528fc88fd1516ea86b56da075235fa575af6a4b85560405160405180910390a250565b5f60035f8373ffffffffffffffffffffffffffffffffffffffff1673ffffffffffffffffffffffffffffffffffffffff1681526020019081526020015f205f9054906101000a900460ff169050919050565b6110cc838383600161174b565b505050565b5f6110dc8484610ec4565b905081811015611121576040517f08c379a00000000000000000000000000000000000000000000000000000000081526004016111189061213e565b60405180910390fd5b7fffffffffffffffffffffffffffffffffffffffffffffffffffffffffffffffff8110156111585761115784848484035f61174b565b5b50505050565b60035f8473ffffffffffffffffffffffffffffffffffffffff1673ffffffffffffffffffffffffffffffffffffffff1681526020019081526020015f205f9054906101000a900460ff161580156111fc575060035f8373ffffffffffffffffffffffffffffffffffffffff1673ffffffffffffffffffffffffffffffffffffffff1681526020019081526020015f205f9054906101000a900460ff16155b61123b576040517f08c379a0000000000000000000000000000000000000000000000000000000008152600401611232906121a6565b60405180910390fd5b5f73ffffffffffffffffffffffffffffffffffffffff168373ffffffffffffffffffffffffffffffffffffffff16036112a9576040517f08c379a00000000000000000000000000000000000000000000000000000000081526004016112a09061220e565b60405180910390fd5b5f73ffffffffffffffffffffffffffffffffffffffff168273ffffffffffffffffffffffffffffffffffffffff1603611317576040517f08c379a000000000000000000000000000000000000000000000000000000000815260040161130e90612276565b60405180910390fd5b611322838383611916565b505050565b61132f611744565b73ffffffffffffffffffffffffffffffffffffffff1661134d610985565b73ffffffffffffffffffffffffffffffffffffffff16146113ac57611370611744565b6040517f118cdaa70000000000000000000000000000000000000000000000000000000081526004016113a39190611bf4565b60405180910390fd5b565b6113b6611b34565b5f8060146101000a81548160ff0219169083151502179055507f5db9ee0a495bf2e6ff9c91a7834c1ba4fdd244a5e8aa4e537bd38aeae4b073aa6113f8611744565b6040516114059190611bf4565b60405180910390a1565b8160035f8273ffffffffffffffffffffffffffffffffffffffff1673ffffffffffffffffffffffffffffffffffffffff1681526020019081526020015f205f9054906101000a900460ff161561149a576040517f08c379a000000000000000000000000000000000000000000000000000000000815260040161149190611f70565b60405180910390fd5b5f73ffffffffffffffffffffffffffffffffffffffff168373ffffffffffffffffffffffffffffffffffffffff1603611508576040517f08c379a00000000000000000000000000000000000000000000000000000000081526004016114ff906122de565b60405180910390fd5b6115135f8484611916565b505050565b8160035f8273ffffffffffffffffffffffffffffffffffffffff1673ffffffffffffffffffffffffffffffffffffffff1681526020019081526020015f205f9054906101000a900460ff16156115a3576040517f08c379a000000000000000000000000000000000000000000000000000000000815260040161159a90611f70565b60405180910390fd5b5f73ffffffffffffffffffffffffffffffffffffffff168373ffffffffffffffffffffffffffffffffffffffff1603611611576040517f08c379a000000000000000000000000000000000000000000000000000000000815260040161160890612346565b60405180910390fd5b61161c835f84611916565b505050565b5f805f9054906101000a900473ffffffffffffffffffffffffffffffffffffffff169050815f806101000a81548173ffffffffffffffffffffffffffffffffffffffff021916908373ffffffffffffffffffffffffffffffffffffffff1602179055508173ffffffffffffffffffffffffffffffffffffffff168173ffffffffffffffffffffffffffffffffffffffff167f8be0079c531659141344cd1fd0a4f28419497f9722a3daafe3b4186f6b6457e060405160405180910390a35050565b6116ea611b74565b60015f60146101000a81548160ff0219169083151502179055507f62e78cea01bee320cd4e420270b5ea74000d11b0c9f74754ebdbfc544b05a25861172d611744565b60405161173a9190611bf4565b60405180910390a1565b5f33905090565b5f73ffffffffffffffffffffffffffffffffffffffff168473ffffffffffffffffffffffffffffffffffffffff16036117b9576040517f08c379a00000000000000000000000000000000000000000000000000000000081526004016117b0906123ae565b60405180910390fd5b5f73ffffffffffffffffffffffffffffffffffffffff168373ffffffffffffffffffffffffffffffffffffffff1603611827576040517f08c379a000000000000000000000000000000000000000000000000000000000815260040161181e90612416565b60405180910390fd5b8160025f8673ffffffffffffffffffffffffffffffffffffffff1673ffffffffffffffffffffffffffffffffffffffff1681526020019081526020015f205f8573ffffffffffffffffffffffffffffffffffffffff1673ffffffffffffffffffffffffffffffffffffffff1681526020019081526020015f20819055508015611910578273ffffffffffffffffffffffffffffffffffffffff168473ffffffffffffffffffffffffffffffffffffffff167f8c5be1e5ebec7d5bd14f71427d1e84f3dd0314c0f7b2291e5b200ac8c7c3b925846040516119079190611d98565b60405180910390a35b50505050565b61191e611b74565b5f73ffffffffffffffffffffffffffffffffffffffff168373ffffffffffffffffffffffffffffffffffffffff160361196e578060045f82825461196291906120c1565b92505081905550611a38565b5f60015f8573ffffffffffffffffffffffffffffffffffffffff1673ffffffffffffffffffffffffffffffffffffffff1681526020019081526020015f20549050818110156119f2576040517f08c379a00000000000000000000000000000000000000000000000000000000081526004016119e99061247e565b60405180910390fd5b81810360015f8673ffffffffffffffffffffffffffffffffffffffff1673ffffffffffffffffffffffffffffffffffffffff1681526020019081526020015f2081905550505b5f73ffffffffffffffffffffffffffffffffffffffff168273ffffffffffffffffffffffffffffffffffffffff1603611a7f578060045f8282540392505081905550611aca565b8060015f8473ffffffffffffffffffffffffffffffffffffffff1673ffffffffffffffffffffffffffffffffffffffff1681526020019081526020015f205f82825401925050819055505b8173ffffffffffffffffffffffffffffffffffffffff168373ffffffffffffffffffffffffffffffffffffffff167fddf252ad1be2c89b69c2b068fc378daa952ba7f163c4a11628f55a4df523b3ef83604051611b279190611d98565b60405180910390a3505050565b611b3c6107bf565b611b72576040517f8dfc202b00000000000000000000000000000000000000000000000000000000815260040160405180910390fd5b565b611b7c6107bf565b15611bb3576040517fd93c066500000000000000000000000000000000000000000000000000000000815260040160405180910390fd5b565b5f73ffffffffffffffffffffffffffffffffffffffff82169050919050565b5f611bde82611bb5565b9050919050565b611bee81611bd4565b82525050565b5f602082019050611c075f830184611be5565b92915050565b5f81519050919050565b5f82825260208201905092915050565b5f5b83811015611c44578082015181840152602081019050611c29565b5f8484015250505050565b5f601f19601f8301169050919050565b5f611c6982611c0d565b611c738185611c17565b9350611c83818560208601611c27565b611c8c81611c4f565b840191505092915050565b5f6020820190508181035f830152611caf8184611c5f565b905092915050565b5f80fd5b611cc481611bd4565b8114611cce575f80fd5b50565b5f81359050611cdf81611cbb565b92915050565b5f819050919050565b611cf781611ce5565b8114611d01575f80fd5b50565b5f81359050611d1281611cee565b92915050565b5f8060408385031215611d2e57611d2d611cb7565b5b5f611d3b85828601611cd1565b9250506020611d4c85828601611d04565b9150509250929050565b5f8115159050919050565b611d6a81611d56565b82525050565b5f602082019050611d835f830184611d61565b92915050565b611d9281611ce5565b82525050565b5f602082019050611dab5f830184611d89565b92915050565b5f805f60608486031215611dc857611dc7611cb7565b5b5f611dd586828701611cd1565b9350506020611de686828701611cd1565b9250506040611df786828701611d04565b9150509250925092565b5f60ff82169050919050565b611e1681611e01565b82525050565b5f602082019050611e2f5f830184611e0d565b92915050565b5f60208284031215611e4a57611e49611cb7565b5b5f611e5784828501611d04565b91505092915050565b5f60208284031215611e7557611e74611cb7565b5b5f611e8284828501611cd1565b91505092915050565b5f8060408385031215611ea157611ea0611cb7565b5b5f611eae85828601611cd1565b9250506020611ebf85828601611cd1565b9150509250929050565b7f4e487b71000000000000000000000000000000000000000000000000000000005f52602260045260245ffd5b5f6002820490506001821680611f0d57607f821691505b602082108103611f2057611f1f611ec9565b5b50919050565b7f4164647265737320697320626c61636b6c6973746564000000000000000000005f82015250565b5f611f5a601683611c17565b9150611f6582611f26565b602082019050919050565b5f6020820190508181035f830152611f8781611f4e565b9050919050565b7f4e487b71000000000000000000000000000000000000000000000000000000005f52601160045260245ffd5b5f611fc582611ce5565b9150611fd083611ce5565b9250828202611fde81611ce5565b91508282048414831517611ff557611ff4611f8e565b5b5092915050565b7f4e487b71000000000000000000000000000000000000000000000000000000005f52601260045260245ffd5b5f61203382611ce5565b915061203e83611ce5565b92508261204e5761204d611ffc565b5b828204905092915050565b5f61206382611ce5565b915061206e83611ce5565b925082820390508181111561208657612085611f8e565b5b92915050565b5f60608201905061209f5f830186611be5565b6120ac6020830185611d89565b6120b96040830184611d89565b949350505050565b5f6120cb82611ce5565b91506120d683611ce5565b92508282019050808211156120ee576120ed611f8e565b5b92915050565b7f496e73756666696369656e7420616c6c6f77616e6365000000000000000000005f82015250565b5f612128601683611c17565b9150612133826120f4565b602082019050919050565b5f6020820190508181035f8301526121558161211c565b9050919050565b7f426c61636b6c6973746564206164647265737320696e766f6c766564000000005f82015250565b5f612190601c83611c17565b915061219b8261215c565b602082019050919050565b5f6020820190508181035f8301526121bd81612184565b9050919050565b7f496e76616c69642073656e6465723a207a65726f2061646472657373000000005f82015250565b5f6121f8601c83611c17565b9150612203826121c4565b602082019050919050565b5f6020820190508181035f830152612225816121ec565b9050919050565b7f496e76616c69642072656365697665723a207a65726f206164647265737300005f82015250565b5f612260601e83611c17565b915061226b8261222c565b602082019050919050565b5f6020820190508181035f83015261228d81612254565b9050919050565b7f43616e6e6f74206d696e7420746f207a65726f206164647265737300000000005f82015250565b5f6122c8601b83611c17565b91506122d382612294565b602082019050919050565b5f6020820190508181035f8301526122f5816122bc565b9050919050565b7f43616e6e6f74206275726e2066726f6d207a65726f20616464726573730000005f82015250565b5f612330601d83611c17565b915061233b826122fc565b602082019050919050565b5f6020820190508181035f83015261235d81612324565b9050919050565b7f496e76616c696420617070726f766572000000000000000000000000000000005f82015250565b5f612398601083611c17565b91506123a382612364565b602082019050919050565b5f6020820190508181035f8301526123c58161238c565b9050919050565b7f496e76616c6964207370656e64657200000000000000000000000000000000005f82015250565b5f612400600f83611c17565b915061240b826123cc565b602082019050919050565b5f6020820190508181035f83015261242d816123f4565b9050919050565b7f496e73756666696369656e742062616c616e63650000000000000000000000005f82015250565b5f612468601483611c17565b915061247382612434565b602082019050919050565b5f6020820190508181035f8301526124958161245c565b905091905056fea2646970667358221220a43117b1ddcff6944204714dee226dfcc9ac097d308b77dbac91f1f71009d61d64736f6c63430008170033","linkReferences":{}},"methodIdentifiers":{"allowance(address,address)":"dd62ed3e","approve(address,uint256)":"095ea7b3","balanceOf(address)":"70a08231","blacklist(address)":"f9f92be4","burn(uint256)":"42966c68","burnFrom(address,uint256)":"79cc6790","decimals()":"313ce567","getTaxFeeRecipient()":"03073dfc","getTransferTaxBps()":"743bfe70","isBlacklisted(address)":"fe575a87","mint(address,uint256)":"40c10f19","name()":"06fdde03","owner()":"8da5cb5b","pause()":"8456cb59","paused()":"5c975abb","renounceOwnership()":"715018a6","symbol()":"95d89b41","totalSupply()":"18160ddd","transfer(address,uint256)":"a9059cbb","transferFrom(address,address,uint256)":"23b872dd","transferOwnership(address)":"f2fde38b","unblacklist(address)":"75e3661e","unpause()":"3f4ba83a","updateTaxFeeRecipient(address)":"8baace25"},"id":34}