{"abi":[{"type":"constructor","inputs":[{"name":"name_","type":"string","internalType":"string"},{"name":"symbol_","type":"string","internalType":"string"},{"name":"decimals_","type":"uint8","internalType":"uint8"},{"name":"totalSupply_","type":"uint256","internalType":"uint256"},{"name":"serviceFeeReceiver_","type":"address","internalType":"address"},{"name":"serviceFee_","type":"uint256","internalType":"uint256"},{"name":"transferTaxBps_","type":"uint256","internalType":"uint256"},{"name":"taxFeeRecipient_","type":"address","internalType":"address"}],"stateMutability":"payable"},{"type":"function","name":"allowance","inputs":[{"name":"owner","type":"address","internalType":"address"},{"name":"spender","type":"address","internalType":"address"}],"outputs":[{"name":"","type":"uint256","internalType":"uint256"}],"stateMutability":"view"},{"type":"function","name":"approve","inputs":[{"name":"spender","type":"address","internalType":"address"},{"name":"value","type":"uint256","internalType":"uint256"}],"outputs":[{"name":"","type":"bool","internalType":"bool"}],"stateMutability":"nonpayable"},{"type":"function","name":"balanceOf","inputs":[{"name":"account","type":"address","internalType":"address"}],"outputs":[{"name":"","type":"uint256","internalType":"uint256"}],"stateMutability":"view"},{"type":"function","name":"blacklist","inputs":[{"name":"account","type":"address","internalType":"address"}],"outputs":[],"stateMutability":"nonpayable"},{"type":"function","name":"decimals","inputs":[],"outputs":[{"name":"","type":"uint8","internalType":"uint8"}],"stateMutability":"view"},{"type":"function","name":"getTaxFeeRecipient","inputs":[],"outputs":[{"name":"","type":"address","internalType":"address"}],"stateMutability":"view"},{"type":"function","name":"getTransferTaxBps","inputs":[],"outputs":[{"name":"","type":"uint256","internalType":"uint256"}],"stateMutability":"view"},{"type":"function","name":"isBlacklisted","inputs":[{"name":"account","type":"address","internalType":"address"}],"outputs":[{"name":"","type":"bool","internalType":"bool"}],"stateMutability":"view"},{"type":"function","name":"mint","inputs":[{"name":"to","type":"address","internalType":"address"},{"name":"amount","type":"uint256","internalType":"uint256"}],"outputs":[],"stateMutability":"nonpayable"},{"type":"function","name":"name","inputs":[],"outputs":[{"name":"","type":"string","internalType":"string"}],"stateMutability":"view"},{"type":"function","name":"owner","inputs":[],"outputs":[{"name":"","type":"address","internalType":"address"}],"stateMutability":"view"},{"type":"function","name":"renounceOwnership","inputs":[],"outputs":[],"stateMutability":"nonpayable"},{"type":"function","name":"symbol","inputs":[],"outputs":[{"name":"","type":"string","internalType":"string"}],"stateMutability":"view"},{"type":"function","name":"totalSupply","inputs":[],"outputs":[{"name":"","type":"uint256","internalType":"uint256"}],"stateMutability":"view"},{"type":"function","name":"transfer","inputs":[{"name":"to","type":"address","internalType":"address"},{"name":"value","type":"uint256","internalType":"uint256"}],"outputs":[{"name":"","type":"bool","internalType":"bool"}],"stateMutability":"nonpayable"},{"type":"function","name":"transferFrom","inputs":[{"name":"from","type":"address","internalType":"address"},{"name":"to","type":"address","internalType":"address"},{"name":"value","type":"uint256","internalType":"uint256"}],"outputs":[{"name":"","type":"bool","internalType":"bool"}],"stateMutability":"nonpayable"},{"type":"function","name":"transferOwnership","inputs":[{"name":"newOwner","type":"address","internalType":"address"}],"outputs":[],"stateMutability":"nonpayable"},{"type":"function","name":"unblacklist","inputs":[{"name":"account","type":"address","internalType":"address"}],"outputs":[],"stateMutability":"nonpayable"},{"type":"function","name":"updateTaxFeeRecipient","inputs":[{"name":"newTaxFeeRecipient","type":"address","internalType":"address"}],"outputs":[],"stateMutability":"nonpayable"},{"type":"event","name":"Approval","inputs":[{"name":"owner","type":"address","indexed":true,"internalType":"address"},{"name":"spender","type":"address","indexed":true,"internalType":"address"},{"name":"value","type":"uint256","indexed":false,"internalType":"uint256"}],"anonymous":false},{"type":"event","name":"Blacklisted","inputs":[{"name":"account","type":"address","indexed":true,"internalType":"address"}],"anonymous":false},{"type":"event","name":"OwnershipTransferred","inputs":[{"name":"previousOwner","type":"address","indexed":true,"internalType":"address"},{"name":"newOwner","type":"address","indexed":true,"internalType":"address"}],"anonymous":false},{"type":"event","name":"TaxFeeRecipientUpdated","inputs":[{"name":"newTaxFeeRecipient","type":"address","indexed":false,"internalType":"address"}],"anonymous":false},{"type":"event","name":"Transfer","inputs":[{"name":"from","type":"address","indexed":true,"internalType":"address"},{"name":"to","type":"address","indexed":true,"internalType":"address"},{"name":"value","type":"uint256","indexed":false,"internalType":"uint256"}],"anonymous":false},{"type":"event","name":"Unblacklisted","inputs":[{"name":"account","type":"address","indexed":true,"internalType":"address"}],"anonymous":false},{"type":"error","name":"ERC20InsufficientAllowance","inputs":[{"name":"spender","type":"address","internalType":"address"},{"name":"allowance","type":"uint256","internalType":"uint256"},{"name":"needed","type":"uint256","internalType":"uint256"}]},{"type":"error","name":"ERC20InsufficientBalance","inputs":[{"name":"sender","type":"address","internalType":"address"},{"name":"balance","type":"uint256","internalType":"uint256"},{"name":"needed","type":"uint256","internalType":"uint256"}]},{"type":"error","name":"ERC20InvalidApprover","inputs":[{"name":"approver","type":"address","internalType":"address"}]},{"type":"error","name":"ERC20InvalidReceiver","inputs":[{"name":"receiver","type":"address","internalType":"address"}]},{"type":"error","name":"ERC20InvalidSender","inputs":[{"name":"sender","type":"address","internalType":"address"}]},{"type":"error","name":"ERC20InvalidSpender","inputs":[{"name":"spender","type":"address","internalType":"address"}]},{"type":"error","name":"OwnableInvalidOwner","inputs":[{"name":"owner","type":"address","internalType":"address"}]},{"type":"error","name":"OwnableUnauthorizedAccount","inputs":[{"name":"account","type":"address","internalType":"address"}]}],"bytecode":{"object":"0x60806040526040516200329b3803806200329b8339818101604052810190620000299190620008eb565b335f73ffffffffffffffffffffffffffffffffffffffff168173ffffffffffffffffffffffffffffffffffffffff16036200009d575f6040517f1e4fbdf7000000000000000000000000000000000000000000000000000000008152600401620000949190620009fe565b60405180910390fd5b620000ae81620002e560201b60201c565b508760059081620000c0919062000c47565b508660069081620000d2919062000c47565b508560075f6101000a81548160ff021916908360ff160217905550816008819055508060095f6101000a81548173ffffffffffffffffffffffffffffffffffffffff021916908373ffffffffffffffffffffffffffffffffffffffff160217905550823410156200017a576040517f08c379a0000000000000000000000000000000000000000000000000000000008152600401620001719062000d89565b60405180910390fd5b5f73ffffffffffffffffffffffffffffffffffffffff168473ffffffffffffffffffffffffffffffffffffffff1603620001eb576040517f08c379a0000000000000000000000000000000000000000000000000000000008152600401620001e29062000df7565b60405180910390fd5b5f8473ffffffffffffffffffffffffffffffffffffffff1684604051620002129062000e48565b5f6040518083038185875af1925050503d805f81146200024e576040519150601f19603f3d011682016040523d82523d5f602084013e62000253565b606091505b50509050806200029a576040517f08c379a0000000000000000000000000000000000000000000000000000000008152600401620002919062000eac565b60405180910390fd5b620002d6620002ae620003a660201b60201c565b88600a620002bd919062001049565b88620002ca919062001099565b620003cd60201b60201c565b5050505050505050506200124b565b5f805f9054906101000a900473ffffffffffffffffffffffffffffffffffffffff169050815f806101000a81548173ffffffffffffffffffffffffffffffffffffffff021916908373ffffffffffffffffffffffffffffffffffffffff1602179055508173ffffffffffffffffffffffffffffffffffffffff168173ffffffffffffffffffffffffffffffffffffffff167f8be0079c531659141344cd1fd0a4f28419497f9722a3daafe3b4186f6b6457e060405160405180910390a35050565b5f805f9054906101000a900473ffffffffffffffffffffffffffffffffffffffff16905090565b60035f8373ffffffffffffffffffffffffffffffffffffffff1673ffffffffffffffffffffffffffffffffffffffff1681526020019081526020015f205f9054906101000a900460ff16156200045a576040517f08c379a0000000000000000000000000000000000000000000000000000000008152600401620004519062001157565b60405180910390fd5b6200046d5f83836200047160201b60201c565b5050565b5f73ffffffffffffffffffffffffffffffffffffffff168373ffffffffffffffffffffffffffffffffffffffff1603620004c5578060045f828254620004b8919062001177565b9250508190555062000592565b5f60015f8573ffffffffffffffffffffffffffffffffffffffff1673ffffffffffffffffffffffffffffffffffffffff1681526020019081526020015f20549050818110156200054c576040517f08c379a00000000000000000000000000000000000000000000000000000000081526004016200054390620011ff565b60405180910390fd5b81810360015f8673ffffffffffffffffffffffffffffffffffffffff1673ffffffffffffffffffffffffffffffffffffffff1681526020019081526020015f2081905550505b5f73ffffffffffffffffffffffffffffffffffffffff168273ffffffffffffffffffffffffffffffffffffffff1603620005db578060045f828254039250508190555062000626565b8060015f8473ffffffffffffffffffffffffffffffffffffffff1673ffffffffffffffffffffffffffffffffffffffff1681526020019081526020015f205f82825401925050819055505b8173ffffffffffffffffffffffffffffffffffffffff168373ffffffffffffffffffffffffffffffffffffffff167fddf252ad1be2c89b69c2b068fc378daa952ba7f163c4a11628f55a4df523b3ef8360405162000685919062001230565b60405180910390a3505050565b5f604051905090565b5f80fd5b5f80fd5b5f80fd5b5f80fd5b5f601f19601f8301169050919050565b7f4e487b71000000000000000000000000000000000000000000000000000000005f52604160045260245ffd5b620006f382620006ab565b810181811067ffffffffffffffff82111715620007155762000714620006bb565b5b80604052505050565b5f6200072962000692565b9050620007378282620006e8565b919050565b5f67ffffffffffffffff821115620007595762000758620006bb565b5b6200076482620006ab565b9050602081019050919050565b5f5b838110156200079057808201518184015260208101905062000773565b5f8484015250505050565b5f620007b1620007ab846200073c565b6200071e565b905082815260208101848484011115620007d057620007cf620006a7565b5b620007dd84828562000771565b509392505050565b5f82601f830112620007fc57620007fb620006a3565b5b81516200080e8482602086016200079b565b91505092915050565b5f60ff82169050919050565b6200082e8162000817565b811462000839575f80fd5b50565b5f815190506200084c8162000823565b92915050565b5f819050919050565b620008668162000852565b811462000871575f80fd5b50565b5f8151905062000884816200085b565b92915050565b5f73ffffffffffffffffffffffffffffffffffffffff82169050919050565b5f620008b5826200088a565b9050919050565b620008c781620008a9565b8114620008d2575f80fd5b50565b5f81519050620008e581620008bc565b92915050565b5f805f805f805f80610100898b0312156200090b576200090a6200069b565b5b5f89015167ffffffffffffffff8111156200092b576200092a6200069f565b5b620009398b828c01620007e5565b985050602089015167ffffffffffffffff8111156200095d576200095c6200069f565b5b6200096b8b828c01620007e5565b97505060406200097e8b828c016200083c565b9650506060620009918b828c0162000874565b9550506080620009a48b828c01620008d5565b94505060a0620009b78b828c0162000874565b93505060c0620009ca8b828c0162000874565b92505060e0620009dd8b828c01620008d5565b9150509295985092959890939650565b620009f881620008a9565b82525050565b5f60208201905062000a135f830184620009ed565b92915050565b5f81519050919050565b7f4e487b71000000000000000000000000000000000000000000000000000000005f52602260045260245ffd5b5f600282049050600182168062000a6857607f821691505b60208210810362000a7e5762000a7d62000a23565b5b50919050565b5f819050815f5260205f209050919050565b5f6020601f8301049050919050565b5f82821b905092915050565b5f6008830262000ae27fffffffffffffffffffffffffffffffffffffffffffffffffffffffffffffffff8262000aa5565b62000aee868362000aa5565b95508019841693508086168417925050509392505050565b5f819050919050565b5f62000b2f62000b2962000b238462000852565b62000b06565b62000852565b9050919050565b5f819050919050565b62000b4a8362000b0f565b62000b6262000b598262000b36565b84845462000ab1565b825550505050565b5f90565b62000b7862000b6a565b62000b8581848462000b3f565b505050565b5b8181101562000bac5762000ba05f8262000b6e565b60018101905062000b8b565b5050565b601f82111562000bfb5762000bc58162000a84565b62000bd08462000a96565b8101602085101562000be0578190505b62000bf862000bef8562000a96565b83018262000b8a565b50505b505050565b5f82821c905092915050565b5f62000c1d5f198460080262000c00565b1980831691505092915050565b5f62000c37838362000c0c565b9150826002028217905092915050565b62000c528262000a19565b67ffffffffffffffff81111562000c6e5762000c6d620006bb565b5b62000c7a825462000a50565b62000c8782828562000bb0565b5f60209050601f83116001811462000cbd575f841562000ca8578287015190505b62000cb4858262000c2a565b86555062000d23565b601f19841662000ccd8662000a84565b5f5b8281101562000cf65784890151825560018201915060208501945060208101905062000ccf565b8683101562000d16578489015162000d12601f89168262000c0c565b8355505b6001600288020188555050505b505050505050565b5f82825260208201905092915050565b7f496e73756666696369656e742066656520616d6f756e742073656e74000000005f82015250565b5f62000d71601c8362000d2b565b915062000d7e8262000d3b565b602082019050919050565b5f6020820190508181035f83015262000da28162000d63565b9050919050565b7f496e76616c6964206665652072656365697665722061646472657373000000005f82015250565b5f62000ddf601c8362000d2b565b915062000dec8262000da9565b602082019050919050565b5f6020820190508181035f83015262000e108162000dd1565b9050919050565b5f81905092915050565b50565b5f62000e315f8362000e17565b915062000e3e8262000e21565b5f82019050919050565b5f62000e548262000e24565b9150819050919050565b7f466565207472616e73666572206661696c6564000000000000000000000000005f82015250565b5f62000e9460138362000d2b565b915062000ea18262000e5e565b602082019050919050565b5f6020820190508181035f83015262000ec58162000e86565b9050919050565b7f4e487b71000000000000000000000000000000000000000000000000000000005f52601160045260245ffd5b5f8160011c9050919050565b5f808291508390505b600185111562000f565780860481111562000f2e5762000f2d62000ecc565b5b600185161562000f3e5780820291505b808102905062000f4e8562000ef9565b945062000f0e565b94509492505050565b5f8262000f70576001905062001042565b8162000f7f575f905062001042565b816001811462000f98576002811462000fa35762000fd9565b600191505062001042565b60ff84111562000fb85762000fb762000ecc565b5b8360020a91508482111562000fd25762000fd162000ecc565b5b5062001042565b5060208310610133831016604e8410600b8410161715620010135782820a9050838111156200100d576200100c62000ecc565b5b62001042565b62001022848484600162000f05565b925090508184048111156200103c576200103b62000ecc565b5b81810290505b9392505050565b5f620010558262000852565b9150620010628362000817565b9250620010917fffffffffffffffffffffffffffffffffffffffffffffffffffffffffffffffff848462000f5f565b905092915050565b5f620010a58262000852565b9150620010b28362000852565b9250828202620010c28162000852565b91508282048414831517620010dc57620010db62000ecc565b5b5092915050565b7f426c61636b6c697374656420616464726573732063616e6e6f742072656365695f8201527f766520746f6b656e730000000000000000000000000000000000000000000000602082015250565b5f6200113f60298362000d2b565b91506200114c82620010e3565b604082019050919050565b5f6020820190508181035f830152620011708162001131565b9050919050565b5f620011838262000852565b9150620011908362000852565b9250828201905080821115620011ab57620011aa62000ecc565b5b92915050565b7f496e73756666696369656e742062616c616e63650000000000000000000000005f82015250565b5f620011e760148362000d2b565b9150620011f482620011b1565b602082019050919050565b5f6020820190508181035f8301526200121881620011d9565b9050919050565b6200122a8162000852565b82525050565b5f602082019050620012455f8301846200121f565b92915050565b61204280620012595f395ff3fe608060405234801561000f575f80fd5b506004361061011f575f3560e01c8063743bfe70116100ab578063a9059cbb1161006f578063a9059cbb146102e3578063dd62ed3e14610313578063f2fde38b14610343578063f9f92be41461035f578063fe575a871461037b5761011f565b8063743bfe701461025157806375e3661e1461026f5780638baace251461028b5780638da5cb5b146102a757806395d89b41146102c55761011f565b806323b872dd116100f257806323b872dd146101ad578063313ce567146101dd57806340c10f19146101fb57806370a0823114610217578063715018a6146102475761011f565b806303073dfc1461012357806306fdde0314610141578063095ea7b31461015f57806318160ddd1461018f575b5f80fd5b61012b6103ab565b60405161013891906118a1565b60405180910390f35b6101496103d3565b6040516101569190611944565b60405180910390f35b610179600480360381019061017491906119c5565b610463565b6040516101869190611a1d565b60405180910390f35b610197610591565b6040516101a49190611a45565b60405180910390f35b6101c760048036038101906101c29190611a5e565b61059a565b6040516101d49190611a1d565b60405180910390f35b6101e56106d4565b6040516101f29190611ac9565b60405180910390f35b610215600480360381019061021091906119c5565b6106e9565b005b610231600480360381019061022c9190611ae2565b61078b565b60405161023e9190611a45565b60405180910390f35b61024f6107d1565b005b6102596107e4565b6040516102669190611a45565b60405180910390f35b61028960048036038101906102849190611ae2565b6107ed565b005b6102a560048036038101906102a09190611ae2565b61088f565b005b6102af610911565b6040516102bc91906118a1565b60405180910390f35b6102cd610938565b6040516102da9190611944565b60405180910390f35b6102fd60048036038101906102f891906119c5565b6109c8565b60405161030a9190611a1d565b60405180910390f35b61032d60048036038101906103289190611b0d565b610e50565b60405161033a9190611a45565b60405180910390f35b61035d60048036038101906103589190611ae2565b610ed2565b005b61037960048036038101906103749190611ae2565b610f56565b005b61039560048036038101906103909190611ae2565b610ff9565b6040516103a29190611a1d565b60405180910390f35b5f60095f9054906101000a900473ffffffffffffffffffffffffffffffffffffffff16905090565b6060600580546103e290611b78565b80601f016020809104026020016040519081016040528092919081815260200182805461040e90611b78565b80156104595780601f1061043057610100808354040283529160200191610459565b820191905f5260205f20905b81548152906001019060200180831161043c57829003601f168201915b5050505050905090565b5f3360035f8273ffffffffffffffffffffffffffffffffffffffff1673ffffffffffffffffffffffffffffffffffffffff1681526020019081526020015f205f9054906101000a900460ff16156104ef576040517f08c379a00000000000000000000000000000000000000000000000000000000081526004016104e690611bf2565b60405180910390fd5b8360035f8273ffffffffffffffffffffffffffffffffffffffff1673ffffffffffffffffffffffffffffffffffffffff1681526020019081526020015f205f9054906101000a900460ff161561057a576040517f08c379a000000000000000000000000000000000000000000000000000000000815260040161057190611bf2565b60405180910390fd5b61058533868661104b565b60019250505092915050565b5f600454905090565b5f8360035f8273ffffffffffffffffffffffffffffffffffffffff1673ffffffffffffffffffffffffffffffffffffffff1681526020019081526020015f205f9054906101000a900460ff1615610626576040517f08c379a000000000000000000000000000000000000000000000000000000000815260040161061d90611bf2565b60405180910390fd5b8360035f8273ffffffffffffffffffffffffffffffffffffffff1673ffffffffffffffffffffffffffffffffffffffff1681526020019081526020015f205f9054906101000a900460ff16156106b1576040517f08c379a00000000000000000000000000000000000000000000000000000000081526004016106a890611bf2565b60405180910390fd5b6106bc86338661120f565b6106c786868661129b565b6001925050509392505050565b5f60075f9054906101000a900460ff16905090565b6106f1611464565b8160035f8273ffffffffffffffffffffffffffffffffffffffff1673ffffffffffffffffffffffffffffffffffffffff1681526020019081526020015f205f9054906101000a900460ff161561077c576040517f08c379a000000000000000000000000000000000000000000000000000000000815260040161077390611bf2565b60405180910390fd5b61078683836114eb565b505050565b5f60015f8373ffffffffffffffffffffffffffffffffffffffff1673ffffffffffffffffffffffffffffffffffffffff1681526020019081526020015f20549050919050565b6107d9611464565b6107e25f611584565b565b5f600854905090565b6107f5611464565b5f60035f8373ffffffffffffffffffffffffffffffffffffffff1673ffffffffffffffffffffffffffffffffffffffff1681526020019081526020015f205f6101000a81548160ff0219169083151502179055508073ffffffffffffffffffffffffffffffffffffffff167f7534c63860313c46c473e4e98328f37017e9674e2162faf1a3ad7a96236c3b7b60405160405180910390a250565b610897611464565b8060095f6101000a81548173ffffffffffffffffffffffffffffffffffffffff021916908373ffffffffffffffffffffffffffffffffffffffff1602179055507f3ca9233bd3849737ab1049144180bc625db2d51ca2c5ce949e7209eb32faa3a28160405161090691906118a1565b60405180910390a150565b5f805f9054906101000a900473ffffffffffffffffffffffffffffffffffffffff16905090565b60606006805461094790611b78565b80601f016020809104026020016040519081016040528092919081815260200182805461097390611b78565b80156109be5780601f10610995576101008083540402835291602001916109be565b820191905f5260205f20905b8154815290600101906020018083116109a157829003601f168201915b5050505050905090565b5f3360035f8273ffffffffffffffffffffffffffffffffffffffff1673ffffffffffffffffffffffffffffffffffffffff1681526020019081526020015f205f9054906101000a900460ff1615610a54576040517f08c379a0000000000000000000000000000000000000000000000000000000008152600401610a4b90611bf2565b60405180910390fd5b8360035f8273ffffffffffffffffffffffffffffffffffffffff1673ffffffffffffffffffffffffffffffffffffffff1681526020019081526020015f205f9054906101000a900460ff1615610adf576040517f08c379a0000000000000000000000000000000000000000000000000000000008152600401610ad690611bf2565b60405180910390fd5b5f610ae8611645565b90505f61271060085487610afc9190611c3d565b610b069190611cab565b90505f8187610b159190611cdb565b90508660015f8573ffffffffffffffffffffffffffffffffffffffff1673ffffffffffffffffffffffffffffffffffffffff1681526020019081526020015f20541015610bda578260015f8573ffffffffffffffffffffffffffffffffffffffff1673ffffffffffffffffffffffffffffffffffffffff1681526020019081526020015f2054886040517fe450d38c000000000000000000000000000000000000000000000000000000008152600401610bd193929190611d0e565b60405180910390fd5b8660015f8573ffffffffffffffffffffffffffffffffffffffff1673ffffffffffffffffffffffffffffffffffffffff1681526020019081526020015f205f828254610c269190611cdb565b925050819055508060015f8a73ffffffffffffffffffffffffffffffffffffffff1673ffffffffffffffffffffffffffffffffffffffff1681526020019081526020015f205f828254610c799190611d43565b925050819055505f73ffffffffffffffffffffffffffffffffffffffff1660095f9054906101000a900473ffffffffffffffffffffffffffffffffffffffff1673ffffffffffffffffffffffffffffffffffffffff1614158015610cdc57505f82115b15610ddc578160015f60095f9054906101000a900473ffffffffffffffffffffffffffffffffffffffff1673ffffffffffffffffffffffffffffffffffffffff1673ffffffffffffffffffffffffffffffffffffffff1681526020019081526020015f205f828254610d4e9190611d43565b9250508190555060095f9054906101000a900473ffffffffffffffffffffffffffffffffffffffff1673ffffffffffffffffffffffffffffffffffffffff168373ffffffffffffffffffffffffffffffffffffffff167fddf252ad1be2c89b69c2b068fc378daa952ba7f163c4a11628f55a4df523b3ef84604051610dd39190611a45565b60405180910390a35b8773ffffffffffffffffffffffffffffffffffffffff168373ffffffffffffffffffffffffffffffffffffffff167fddf252ad1be2c89b69c2b068fc378daa952ba7f163c4a11628f55a4df523b3ef83604051610e399190611a45565b60405180910390a360019550505050505092915050565b5f60025f8473ffffffffffffffffffffffffffffffffffffffff1673ffffffffffffffffffffffffffffffffffffffff1681526020019081526020015f205f8373ffffffffffffffffffffffffffffffffffffffff1673ffffffffffffffffffffffffffffffffffffffff1681526020019081526020015f2054905092915050565b610eda611464565b5f73ffffffffffffffffffffffffffffffffffffffff168173ffffffffffffffffffffffffffffffffffffffff1603610f4a575f6040517f1e4fbdf7000000000000000000000000000000000000000000000000000000008152600401610f4191906118a1565b60405180910390fd5b610f5381611584565b50565b610f5e611464565b600160035f8373ffffffffffffffffffffffffffffffffffffffff1673ffffffffffffffffffffffffffffffffffffffff1681526020019081526020015f205f6101000a81548160ff0219169083151502179055508073ffffffffffffffffffffffffffffffffffffffff167fffa4e6181777692565cf28528fc88fd1516ea86b56da075235fa575af6a4b85560405160405180910390a250565b5f60035f8373ffffffffffffffffffffffffffffffffffffffff1673ffffffffffffffffffffffffffffffffffffffff1681526020019081526020015f205f9054906101000a900460ff169050919050565b60035f8473ffffffffffffffffffffffffffffffffffffffff1673ffffffffffffffffffffffffffffffffffffffff1681526020019081526020015f205f9054906101000a900460ff161580156110e9575060035f8373ffffffffffffffffffffffffffffffffffffffff1673ffffffffffffffffffffffffffffffffffffffff1681526020019081526020015f205f9054906101000a900460ff16155b611128576040517f08c379a000000000000000000000000000000000000000000000000000000000815260040161111f90611dc0565b60405180910390fd5b8060025f8573ffffffffffffffffffffffffffffffffffffffff1673ffffffffffffffffffffffffffffffffffffffff1681526020019081526020015f205f8473ffffffffffffffffffffffffffffffffffffffff1673ffffffffffffffffffffffffffffffffffffffff1681526020019081526020015f20819055508173ffffffffffffffffffffffffffffffffffffffff168373ffffffffffffffffffffffffffffffffffffffff167f8c5be1e5ebec7d5bd14f71427d1e84f3dd0314c0f7b2291e5b200ac8c7c3b925836040516112029190611a45565b60405180910390a3505050565b5f61121a8484610e50565b90507fffffffffffffffffffffffffffffffffffffffffffffffffffffffffffffffff8110156112955781811015611287576040517f08c379a000000000000000000000000000000000000000000000000000000000815260040161127e90611e28565b60405180910390fd5b611294848484840361104b565b5b50505050565b60035f8473ffffffffffffffffffffffffffffffffffffffff1673ffffffffffffffffffffffffffffffffffffffff1681526020019081526020015f205f9054906101000a900460ff16158015611339575060035f8373ffffffffffffffffffffffffffffffffffffffff1673ffffffffffffffffffffffffffffffffffffffff1681526020019081526020015f205f9054906101000a900460ff16155b611378576040517f08c379a000000000000000000000000000000000000000000000000000000000815260040161136f90611dc0565b60405180910390fd5b5f73ffffffffffffffffffffffffffffffffffffffff168373ffffffffffffffffffffffffffffffffffffffff16036113e6576040517f08c379a00000000000000000000000000000000000000000000000000000000081526004016113dd90611e90565b60405180910390fd5b5f73ffffffffffffffffffffffffffffffffffffffff168273ffffffffffffffffffffffffffffffffffffffff1603611454576040517f08c379a000000000000000000000000000000000000000000000000000000000815260040161144b90611ef8565b60405180910390fd5b61145f83838361164c565b505050565b61146c611645565b73ffffffffffffffffffffffffffffffffffffffff1661148a610911565b73ffffffffffffffffffffffffffffffffffffffff16146114e9576114ad611645565b6040517f118cdaa70000000000000000000000000000000000000000000000000000000081526004016114e091906118a1565b60405180910390fd5b565b60035f8373ffffffffffffffffffffffffffffffffffffffff1673ffffffffffffffffffffffffffffffffffffffff1681526020019081526020015f205f9054906101000a900460ff1615611575576040517f08c379a000000000000000000000000000000000000000000000000000000000815260040161156c90611f86565b60405180910390fd5b6115805f838361164c565b5050565b5f805f9054906101000a900473ffffffffffffffffffffffffffffffffffffffff169050815f806101000a81548173ffffffffffffffffffffffffffffffffffffffff021916908373ffffffffffffffffffffffffffffffffffffffff1602179055508173ffffffffffffffffffffffffffffffffffffffff168173ffffffffffffffffffffffffffffffffffffffff167f8be0079c531659141344cd1fd0a4f28419497f9722a3daafe3b4186f6b6457e060405160405180910390a35050565b5f33905090565b5f73ffffffffffffffffffffffffffffffffffffffff168373ffffffffffffffffffffffffffffffffffffffff160361169c578060045f8282546116909190611d43565b92505081905550611766565b5f60015f8573ffffffffffffffffffffffffffffffffffffffff1673ffffffffffffffffffffffffffffffffffffffff1681526020019081526020015f2054905081811015611720576040517f08c379a000000000000000000000000000000000000000000000000000000000815260040161171790611fee565b60405180910390fd5b81810360015f8673ffffffffffffffffffffffffffffffffffffffff1673ffffffffffffffffffffffffffffffffffffffff1681526020019081526020015f2081905550505b5f73ffffffffffffffffffffffffffffffffffffffff168273ffffffffffffffffffffffffffffffffffffffff16036117ad578060045f82825403925050819055506117f8565b8060015f8473ffffffffffffffffffffffffffffffffffffffff1673ffffffffffffffffffffffffffffffffffffffff1681526020019081526020015f205f82825401925050819055505b8173ffffffffffffffffffffffffffffffffffffffff168373ffffffffffffffffffffffffffffffffffffffff167fddf252ad1be2c89b69c2b068fc378daa952ba7f163c4a11628f55a4df523b3ef836040516118559190611a45565b60405180910390a3505050565b5f73ffffffffffffffffffffffffffffffffffffffff82169050919050565b5f61188b82611862565b9050919050565b61189b81611881565b82525050565b5f6020820190506118b45f830184611892565b92915050565b5f81519050919050565b5f82825260208201905092915050565b5f5b838110156118f15780820151818401526020810190506118d6565b5f8484015250505050565b5f601f19601f8301169050919050565b5f611916826118ba565b61192081856118c4565b93506119308185602086016118d4565b611939816118fc565b840191505092915050565b5f6020820190508181035f83015261195c818461190c565b905092915050565b5f80fd5b61197181611881565b811461197b575f80fd5b50565b5f8135905061198c81611968565b92915050565b5f819050919050565b6119a481611992565b81146119ae575f80fd5b50565b5f813590506119bf8161199b565b92915050565b5f80604083850312156119db576119da611964565b5b5f6119e88582860161197e565b92505060206119f9858286016119b1565b9150509250929050565b5f8115159050919050565b611a1781611a03565b82525050565b5f602082019050611a305f830184611a0e565b92915050565b611a3f81611992565b82525050565b5f602082019050611a585f830184611a36565b92915050565b5f805f60608486031215611a7557611a74611964565b5b5f611a828682870161197e565b9350506020611a938682870161197e565b9250506040611aa4868287016119b1565b9150509250925092565b5f60ff82169050919050565b611ac381611aae565b82525050565b5f602082019050611adc5f830184611aba565b92915050565b5f60208284031215611af757611af6611964565b5b5f611b048482850161197e565b91505092915050565b5f8060408385031215611b2357611b22611964565b5b5f611b308582860161197e565b9250506020611b418582860161197e565b9150509250929050565b7f4e487b71000000000000000000000000000000000000000000000000000000005f52602260045260245ffd5b5f6002820490506001821680611b8f57607f821691505b602082108103611ba257611ba1611b4b565b5b50919050565b7f4164647265737320697320626c61636b6c6973746564000000000000000000005f82015250565b5f611bdc6016836118c4565b9150611be782611ba8565b602082019050919050565b5f6020820190508181035f830152611c0981611bd0565b9050919050565b7f4e487b71000000000000000000000000000000000000000000000000000000005f52601160045260245ffd5b5f611c4782611992565b9150611c5283611992565b9250828202611c6081611992565b91508282048414831517611c7757611c76611c10565b5b5092915050565b7f4e487b71000000000000000000000000000000000000000000000000000000005f52601260045260245ffd5b5f611cb582611992565b9150611cc083611992565b925082611cd057611ccf611c7e565b5b828204905092915050565b5f611ce582611992565b9150611cf083611992565b9250828203905081811115611d0857611d07611c10565b5b92915050565b5f606082019050611d215f830186611892565b611d2e6020830185611a36565b611d3b6040830184611a36565b949350505050565b5f611d4d82611992565b9150611d5883611992565b9250828201905080821115611d7057611d6f611c10565b5b92915050565b7f426c61636b6c6973746564206164647265737320696e766f6c766564000000005f82015250565b5f611daa601c836118c4565b9150611db582611d76565b602082019050919050565b5f6020820190508181035f830152611dd781611d9e565b9050919050565b7f496e73756666696369656e7420616c6c6f77616e6365000000000000000000005f82015250565b5f611e126016836118c4565b9150611e1d82611dde565b602082019050919050565b5f6020820190508181035f830152611e3f81611e06565b9050919050565b7f496e76616c69642073656e6465720000000000000000000000000000000000005f82015250565b5f611e7a600e836118c4565b9150611e8582611e46565b602082019050919050565b5f6020820190508181035f830152611ea781611e6e565b9050919050565b7f496e76616c6964207265636569766572000000000000000000000000000000005f82015250565b5f611ee26010836118c4565b9150611eed82611eae565b602082019050919050565b5f6020820190508181035f830152611f0f81611ed6565b9050919050565b7f426c61636b6c697374656420616464726573732063616e6e6f742072656365695f8201527f766520746f6b656e730000000000000000000000000000000000000000000000602082015250565b5f611f706029836118c4565b9150611f7b82611f16565b604082019050919050565b5f6020820190508181035f830152611f9d81611f64565b9050919050565b7f496e73756666696369656e742062616c616e63650000000000000000000000005f82015250565b5f611fd86014836118c4565b9150611fe382611fa4565b602082019050919050565b5f6020820190508181035f83015261200581611fcc565b905091905056fea26469706673582212202f52c87920d5008b4a5c6e0129940f2e89fd60fd99b813cc6005e4f85f00d21864736f6c63430008170033","linkReferences":{}},"methodIdentifiers":{"allowance(address,address)":"dd62ed3e","approve(address,uint256)":"095ea7b3","balanceOf(address)":"70a08231","blacklist(address)":"f9f92be4","decimals()":"313ce567","getTaxFeeRecipient()":"03073dfc","getTransferTaxBps()":"743bfe70","isBlacklisted(address)":"fe575a87","mint(address,uint256)":"40c10f19","name()":"06fdde03","owner()":"8da5cb5b","renounceOwnership()":"715018a6","symbol()":"95d89b41","totalSupply()":"18160ddd","transfer(address,uint256)":"a9059cbb","transferFrom(address,address,uint256)":"23b872dd","transferOwnership(address)":"f2fde38b","unblacklist(address)":"75e3661e","updateTaxFeeRecipient(address)":"8baace25"},"id":16}