{"abi":[{"type":"constructor","inputs":[{"name":"name_","type":"string","internalType":"string"},{"name":"symbol_","type":"string","internalType":"string"},{"name":"decimals_","type":"uint8","internalType":"uint8"},{"name":"totalSupply_","type":"uint256","internalType":"uint256"},{"name":"serviceFeeReceiver_","type":"address","internalType":"address"},{"name":"serviceFee_","type":"uint256","internalType":"uint256"},{"name":"transferTaxBps_","type":"uint256","internalType":"uint256"},{"name":"taxFeeRecipient_","type":"address","internalType":"address"}],"stateMutability":"payable"},{"type":"function","name":"allowance","inputs":[{"name":"owner","type":"address","internalType":"address"},{"name":"spender","type":"address","internalType":"address"}],"outputs":[{"name":"","type":"uint256","internalType":"uint256"}],"stateMutability":"view"},{"type":"function","name":"approve","inputs":[{"name":"spender","type":"address","internalType":"address"},{"name":"value","type":"uint256","internalType":"uint256"}],"outputs":[{"name":"","type":"bool","internalType":"bool"}],"stateMutability":"nonpayable"},{"type":"function","name":"balanceOf","inputs":[{"name":"account","type":"address","internalType":"address"}],"outputs":[{"name":"","type":"uint256","internalType":"uint256"}],"stateMutability":"view"},{"type":"function","name":"blacklist","inputs":[{"name":"account","type":"address","internalType":"address"}],"outputs":[],"stateMutability":"nonpayable"},{"type":"function","name":"decimals","inputs":[],"outputs":[{"name":"","type":"uint8","internalType":"uint8"}],"stateMutability":"view"},{"type":"function","name":"getTaxFeeRecipient","inputs":[],"outputs":[{"name":"","type":"address","internalType":"address"}],"stateMutability":"view"},{"type":"function","name":"getTransferTaxBps","inputs":[],"outputs":[{"name":"","type":"uint256","internalType":"uint256"}],"stateMutability":"view"},{"type":"function","name":"isBlacklisted","inputs":[{"name":"account","type":"address","internalType":"address"}],"outputs":[{"name":"","type":"bool","internalType":"bool"}],"stateMutability":"view"},{"type":"function","name":"name","inputs":[],"outputs":[{"name":"","type":"string","internalType":"string"}],"stateMutability":"view"},{"type":"function","name":"owner","inputs":[],"outputs":[{"name":"","type":"address","internalType":"address"}],"stateMutability":"view"},{"type":"function","name":"pause","inputs":[],"outputs":[],"stateMutability":"nonpayable"},{"type":"function","name":"paused","inputs":[],"outputs":[{"name":"","type":"bool","internalType":"bool"}],"stateMutability":"view"},{"type":"function","name":"renounceOwnership","inputs":[],"outputs":[],"stateMutability":"nonpayable"},{"type":"function","name":"symbol","inputs":[],"outputs":[{"name":"","type":"string","internalType":"string"}],"stateMutability":"view"},{"type":"function","name":"totalSupply","inputs":[],"outputs":[{"name":"","type":"uint256","internalType":"uint256"}],"stateMutability":"view"},{"type":"function","name":"transfer","inputs":[{"name":"to","type":"address","internalType":"address"},{"name":"value","type":"uint256","internalType":"uint256"}],"outputs":[{"name":"","type":"bool","internalType":"bool"}],"stateMutability":"nonpayable"},{"type":"function","name":"transferFrom","inputs":[{"name":"from","type":"address","internalType":"address"},{"name":"to","type":"address","internalType":"address"},{"name":"value","type":"uint256","internalType":"uint256"}],"outputs":[{"name":"","type":"bool","internalType":"bool"}],"stateMutability":"nonpayable"},{"type":"function","name":"transferOwnership","inputs":[{"name":"newOwner","type":"address","internalType":"address"}],"outputs":[],"stateMutability":"nonpayable"},{"type":"function","name":"unblacklist","inputs":[{"name":"account","type":"address","internalType":"address"}],"outputs":[],"stateMutability":"nonpayable"},{"type":"function","name":"unpause","inputs":[],"outputs":[],"stateMutability":"nonpayable"},{"type":"function","name":"updateTaxFeeRecipient","inputs":[{"name":"newTaxFeeRecipient","type":"address","internalType":"address"}],"outputs":[],"stateMutability":"nonpayable"},{"type":"event","name":"Approval","inputs":[{"name":"owner","type":"address","indexed":true,"internalType":"address"},{"name":"spender","type":"address","indexed":true,"internalType":"address"},{"name":"value","type":"uint256","indexed":false,"internalType":"uint256"}],"anonymous":false},{"type":"event","name":"Blacklisted","inputs":[{"name":"account","type":"address","indexed":true,"internalType":"address"}],"anonymous":false},{"type":"event","name":"OwnershipTransferred","inputs":[{"name":"previousOwner","type":"address","indexed":true,"internalType":"address"},{"name":"newOwner","type":"address","indexed":true,"internalType":"address"}],"anonymous":false},{"type":"event","name":"Paused","inputs":[{"name":"account","type":"address","indexed":false,"internalType":"address"}],"anonymous":false},{"type":"event","name":"TaxFeeRecipientUpdated","inputs":[{"name":"newTaxFeeRecipient","type":"address","indexed":false,"internalType":"address"}],"anonymous":false},{"type":"event","name":"Transfer","inputs":[{"name":"from","type":"address","indexed":true,"internalType":"address"},{"name":"to","type":"address","indexed":true,"internalType":"address"},{"name":"value","type":"uint256","indexed":false,"internalType":"uint256"}],"anonymous":false},{"type":"event","name":"Unblacklisted","inputs":[{"name":"account","type":"address","indexed":true,"internalType":"address"}],"anonymous":false},{"type":"event","name":"Unpaused","inputs":[{"name":"account","type":"address","indexed":false,"internalType":"address"}],"anonymous":false},{"type":"error","name":"ERC20InsufficientAllowance","inputs":[{"name":"spender","type":"address","internalType":"address"},{"name":"allowance","type":"uint256","internalType":"uint256"},{"name":"needed","type":"uint256","internalType":"uint256"}]},{"type":"error","name":"ERC20InsufficientBalance","inputs":[{"name":"sender","type":"address","internalType":"address"},{"name":"balance","type":"uint256","internalType":"uint256"},{"name":"needed","type":"uint256","internalType":"uint256"}]},{"type":"error","name":"ERC20InvalidApprover","inputs":[{"name":"approver","type":"address","internalType":"address"}]},{"type":"error","name":"ERC20InvalidReceiver","inputs":[{"name":"receiver","type":"address","internalType":"address"}]},{"type":"error","name":"ERC20InvalidSender","inputs":[{"name":"sender","type":"address","internalType":"address"}]},{"type":"error","name":"ERC20InvalidSpender","inputs":[{"name":"spender","type":"address","internalType":"address"}]},{"type":"error","name":"EnforcedPause","inputs":[]},{"type":"error","name":"ExpectedPause","inputs":[]},{"type":"error","name":"OwnableInvalidOwner","inputs":[{"name":"owner","type":"address","internalType":"address"}]},{"type":"error","name":"OwnableUnauthorizedAccount","inputs":[{"name":"account","type":"address","internalType":"address"}]}],"bytecode":{"object":"0x6080604052604051620033023803806200330283398181016040528101906200002991906200097b565b335f73ffffffffffffffffffffffffffffffffffffffff168173ffffffffffffffffffffffffffffffffffffffff16036200009d575f6040517f1e4fbdf700000000000000000000000000000000000000000000000000000000815260040162000094919062000a8e565b60405180910390fd5b620000ae816200030d60201b60201c565b505f8060146101000a81548160ff0219169083151502179055508760059081620000d9919062000cd7565b508660069081620000eb919062000cd7565b508560075f6101000a81548160ff021916908360ff160217905550816008819055508060095f6101000a81548173ffffffffffffffffffffffffffffffffffffffff021916908373ffffffffffffffffffffffffffffffffffffffff1602179055508234101562000193576040517f08c379a00000000000000000000000000000000000000000000000000000000081526004016200018a9062000e19565b60405180910390fd5b5f73ffffffffffffffffffffffffffffffffffffffff168473ffffffffffffffffffffffffffffffffffffffff160362000204576040517f08c379a0000000000000000000000000000000000000000000000000000000008152600401620001fb9062000e87565b60405180910390fd5b5f8473ffffffffffffffffffffffffffffffffffffffff16846040516200022b9062000ed8565b5f6040518083038185875af1925050503d805f811462000267576040519150601f19603f3d011682016040523d82523d5f602084013e6200026c565b606091505b5050905080620002b3576040517f08c379a0000000000000000000000000000000000000000000000000000000008152600401620002aa9062000f3c565b60405180910390fd5b620002fe620002c7620003ce60201b60201c565b620002d7620003f560201b60201c565b600a620002e59190620010d9565b88620002f2919062001129565b6200040a60201b60201c565b505050505050505050620012b5565b5f805f9054906101000a900473ffffffffffffffffffffffffffffffffffffffff169050815f806101000a81548173ffffffffffffffffffffffffffffffffffffffff021916908373ffffffffffffffffffffffffffffffffffffffff1602179055508173ffffffffffffffffffffffffffffffffffffffff168173ffffffffffffffffffffffffffffffffffffffff167f8be0079c531659141344cd1fd0a4f28419497f9722a3daafe3b4186f6b6457e060405160405180910390a35050565b5f805f9054906101000a900473ffffffffffffffffffffffffffffffffffffffff16905090565b5f60075f9054906101000a900460ff16905090565b5f73ffffffffffffffffffffffffffffffffffffffff168273ffffffffffffffffffffffffffffffffffffffff16036200047b576040517f08c379a00000000000000000000000000000000000000000000000000000000081526004016200047290620011c1565b60405180910390fd5b6200048e5f83836200049260201b60201c565b5050565b620004a2620006c360201b60201c565b5f73ffffffffffffffffffffffffffffffffffffffff168373ffffffffffffffffffffffffffffffffffffffff1603620004f6578060045f828254620004e99190620011e1565b92505081905550620005c3565b5f60015f8573ffffffffffffffffffffffffffffffffffffffff1673ffffffffffffffffffffffffffffffffffffffff1681526020019081526020015f20549050818110156200057d576040517f08c379a0000000000000000000000000000000000000000000000000000000008152600401620005749062001269565b60405180910390fd5b81810360015f8673ffffffffffffffffffffffffffffffffffffffff1673ffffffffffffffffffffffffffffffffffffffff1681526020019081526020015f2081905550505b5f73ffffffffffffffffffffffffffffffffffffffff168273ffffffffffffffffffffffffffffffffffffffff16036200060c578060045f828254039250508190555062000657565b8060015f8473ffffffffffffffffffffffffffffffffffffffff1673ffffffffffffffffffffffffffffffffffffffff1681526020019081526020015f205f82825401925050819055505b8173ffffffffffffffffffffffffffffffffffffffff168373ffffffffffffffffffffffffffffffffffffffff167fddf252ad1be2c89b69c2b068fc378daa952ba7f163c4a11628f55a4df523b3ef83604051620006b691906200129a565b60405180910390a3505050565b620006d36200070d60201b60201c565b156200070b576040517fd93c066500000000000000000000000000000000000000000000000000000000815260040160405180910390fd5b565b5f8060149054906101000a900460ff16905090565b5f604051905090565b5f80fd5b5f80fd5b5f80fd5b5f80fd5b5f601f19601f8301169050919050565b7f4e487b71000000000000000000000000000000000000000000000000000000005f52604160045260245ffd5b62000783826200073b565b810181811067ffffffffffffffff82111715620007a557620007a46200074b565b5b80604052505050565b5f620007b962000722565b9050620007c7828262000778565b919050565b5f67ffffffffffffffff821115620007e957620007e86200074b565b5b620007f4826200073b565b9050602081019050919050565b5f5b838110156200082057808201518184015260208101905062000803565b5f8484015250505050565b5f620008416200083b84620007cc565b620007ae565b90508281526020810184848401111562000860576200085f62000737565b5b6200086d84828562000801565b509392505050565b5f82601f8301126200088c576200088b62000733565b5b81516200089e8482602086016200082b565b91505092915050565b5f60ff82169050919050565b620008be81620008a7565b8114620008c9575f80fd5b50565b5f81519050620008dc81620008b3565b92915050565b5f819050919050565b620008f681620008e2565b811462000901575f80fd5b50565b5f815190506200091481620008eb565b92915050565b5f73ffffffffffffffffffffffffffffffffffffffff82169050919050565b5f62000945826200091a565b9050919050565b620009578162000939565b811462000962575f80fd5b50565b5f8151905062000975816200094c565b92915050565b5f805f805f805f80610100898b0312156200099b576200099a6200072b565b5b5f89015167ffffffffffffffff811115620009bb57620009ba6200072f565b5b620009c98b828c0162000875565b985050602089015167ffffffffffffffff811115620009ed57620009ec6200072f565b5b620009fb8b828c0162000875565b975050604062000a0e8b828c01620008cc565b965050606062000a218b828c0162000904565b955050608062000a348b828c0162000965565b94505060a062000a478b828c0162000904565b93505060c062000a5a8b828c0162000904565b92505060e062000a6d8b828c0162000965565b9150509295985092959890939650565b62000a888162000939565b82525050565b5f60208201905062000aa35f83018462000a7d565b92915050565b5f81519050919050565b7f4e487b71000000000000000000000000000000000000000000000000000000005f52602260045260245ffd5b5f600282049050600182168062000af857607f821691505b60208210810362000b0e5762000b0d62000ab3565b5b50919050565b5f819050815f5260205f209050919050565b5f6020601f8301049050919050565b5f82821b905092915050565b5f6008830262000b727fffffffffffffffffffffffffffffffffffffffffffffffffffffffffffffffff8262000b35565b62000b7e868362000b35565b95508019841693508086168417925050509392505050565b5f819050919050565b5f62000bbf62000bb962000bb384620008e2565b62000b96565b620008e2565b9050919050565b5f819050919050565b62000bda8362000b9f565b62000bf262000be98262000bc6565b84845462000b41565b825550505050565b5f90565b62000c0862000bfa565b62000c1581848462000bcf565b505050565b5b8181101562000c3c5762000c305f8262000bfe565b60018101905062000c1b565b5050565b601f82111562000c8b5762000c558162000b14565b62000c608462000b26565b8101602085101562000c70578190505b62000c8862000c7f8562000b26565b83018262000c1a565b50505b505050565b5f82821c905092915050565b5f62000cad5f198460080262000c90565b1980831691505092915050565b5f62000cc7838362000c9c565b9150826002028217905092915050565b62000ce28262000aa9565b67ffffffffffffffff81111562000cfe5762000cfd6200074b565b5b62000d0a825462000ae0565b62000d1782828562000c40565b5f60209050601f83116001811462000d4d575f841562000d38578287015190505b62000d44858262000cba565b86555062000db3565b601f19841662000d5d8662000b14565b5f5b8281101562000d865784890151825560018201915060208501945060208101905062000d5f565b8683101562000da6578489015162000da2601f89168262000c9c565b8355505b6001600288020188555050505b505050505050565b5f82825260208201905092915050565b7f496e73756666696369656e742066656520616d6f756e742073656e74000000005f82015250565b5f62000e01601c8362000dbb565b915062000e0e8262000dcb565b602082019050919050565b5f6020820190508181035f83015262000e328162000df3565b9050919050565b7f496e76616c6964206665652072656365697665720000000000000000000000005f82015250565b5f62000e6f60148362000dbb565b915062000e7c8262000e39565b602082019050919050565b5f6020820190508181035f83015262000ea08162000e61565b9050919050565b5f81905092915050565b50565b5f62000ec15f8362000ea7565b915062000ece8262000eb1565b5f82019050919050565b5f62000ee48262000eb4565b9150819050919050565b7f466565207472616e73666572206661696c6564000000000000000000000000005f82015250565b5f62000f2460138362000dbb565b915062000f318262000eee565b602082019050919050565b5f6020820190508181035f83015262000f558162000f16565b9050919050565b7f4e487b71000000000000000000000000000000000000000000000000000000005f52601160045260245ffd5b5f8160011c9050919050565b5f808291508390505b600185111562000fe65780860481111562000fbe5762000fbd62000f5c565b5b600185161562000fce5780820291505b808102905062000fde8562000f89565b945062000f9e565b94509492505050565b5f82620010005760019050620010d2565b816200100f575f9050620010d2565b8160018114620010285760028114620010335762001069565b6001915050620010d2565b60ff84111562001048576200104762000f5c565b5b8360020a91508482111562001062576200106162000f5c565b5b50620010d2565b5060208310610133831016604e8410600b8410161715620010a35782820a9050838111156200109d576200109c62000f5c565b5b620010d2565b620010b2848484600162000f95565b92509050818404811115620010cc57620010cb62000f5c565b5b81810290505b9392505050565b5f620010e582620008e2565b9150620010f283620008a7565b9250620011217fffffffffffffffffffffffffffffffffffffffffffffffffffffffffffffffff848462000fef565b905092915050565b5f6200113582620008e2565b91506200114283620008e2565b92508282026200115281620008e2565b915082820484148315176200116c576200116b62000f5c565b5b5092915050565b7f496e76616c6964207265636569766572000000000000000000000000000000005f82015250565b5f620011a960108362000dbb565b9150620011b68262001173565b602082019050919050565b5f6020820190508181035f830152620011da816200119b565b9050919050565b5f620011ed82620008e2565b9150620011fa83620008e2565b925082820190508082111562001215576200121462000f5c565b5b92915050565b7f496e73756666696369656e742062616c616e63650000000000000000000000005f82015250565b5f6200125160148362000dbb565b91506200125e826200121b565b602082019050919050565b5f6020820190508181035f830152620012828162001243565b9050919050565b6200129481620008e2565b82525050565b5f602082019050620012af5f83018462001289565b92915050565b61203f80620012c35f395ff3fe608060405234801561000f575f80fd5b5060043610610135575f3560e01c8063743bfe70116100b657806395d89b411161007a57806395d89b41146102f1578063a9059cbb1461030f578063dd62ed3e1461033f578063f2fde38b1461036f578063f9f92be41461038b578063fe575a87146103a757610135565b8063743bfe701461027357806375e3661e146102915780638456cb59146102ad5780638baace25146102b75780638da5cb5b146102d357610135565b8063313ce567116100fd578063313ce567146101f35780633f4ba83a146102115780635c975abb1461021b57806370a0823114610239578063715018a61461026957610135565b806303073dfc1461013957806306fdde0314610157578063095ea7b31461017557806318160ddd146101a557806323b872dd146101c3575b5f80fd5b6101416103d7565b60405161014e919061192c565b60405180910390f35b61015f6103ff565b60405161016c91906119cf565b60405180910390f35b61018f600480360381019061018a9190611a50565b61048f565b60405161019c9190611aa8565b60405180910390f35b6101ad6105cb565b6040516101ba9190611ad0565b60405180910390f35b6101dd60048036038101906101d89190611ae9565b6105d4565b6040516101ea9190611aa8565b60405180910390f35b6101fb610715565b6040516102089190611b54565b60405180910390f35b61021961072a565b005b61022361073c565b6040516102309190611aa8565b60405180910390f35b610253600480360381019061024e9190611b6d565b610751565b6040516102609190611ad0565b60405180910390f35b610271610797565b005b61027b6107aa565b6040516102889190611ad0565b60405180910390f35b6102ab60048036038101906102a69190611b6d565b6107b3565b005b6102b5610855565b005b6102d160048036038101906102cc9190611b6d565b610867565b005b6102db6108e9565b6040516102e8919061192c565b60405180910390f35b6102f9610910565b60405161030691906119cf565b60405180910390f35b61032960048036038101906103249190611a50565b6109a0565b6040516103369190611aa8565b60405180910390f35b61035960048036038101906103549190611b98565b610e28565b6040516103669190611ad0565b60405180910390f35b61038960048036038101906103849190611b6d565b610eaa565b005b6103a560048036038101906103a09190611b6d565b610f2e565b005b6103c160048036038101906103bc9190611b6d565b610fd1565b6040516103ce9190611aa8565b60405180910390f35b5f60095f9054906101000a900473ffffffffffffffffffffffffffffffffffffffff16905090565b60606005805461040e90611c03565b80601f016020809104026020016040519081016040528092919081815260200182805461043a90611c03565b80156104855780601f1061045c57610100808354040283529160200191610485565b820191905f5260205f20905b81548152906001019060200180831161046857829003601f168201915b5050505050905090565b5f610498611023565b60035f8273ffffffffffffffffffffffffffffffffffffffff1673ffffffffffffffffffffffffffffffffffffffff1681526020019081526020015f205f9054906101000a900460ff1615610522576040517f08c379a000000000000000000000000000000000000000000000000000000000815260040161051990611c7d565b60405180910390fd5b8360035f8273ffffffffffffffffffffffffffffffffffffffff1673ffffffffffffffffffffffffffffffffffffffff1681526020019081526020015f205f9054906101000a900460ff16156105ad576040517f08c379a00000000000000000000000000000000000000000000000000000000081526004016105a490611c7d565b60405180910390fd5b6105bf6105b8611023565b868661102a565b60019250505092915050565b5f600454905090565b5f8360035f8273ffffffffffffffffffffffffffffffffffffffff1673ffffffffffffffffffffffffffffffffffffffff1681526020019081526020015f205f9054906101000a900460ff1615610660576040517f08c379a000000000000000000000000000000000000000000000000000000000815260040161065790611c7d565b60405180910390fd5b8360035f8273ffffffffffffffffffffffffffffffffffffffff1673ffffffffffffffffffffffffffffffffffffffff1681526020019081526020015f205f9054906101000a900460ff16156106eb576040517f08c379a00000000000000000000000000000000000000000000000000000000081526004016106e290611c7d565b60405180910390fd5b6106fd866106f7611023565b866111ee565b61070886868661127a565b6001925050509392505050565b5f60075f9054906101000a900460ff16905090565b610732611443565b61073a6114ca565b565b5f8060149054906101000a900460ff16905090565b5f60015f8373ffffffffffffffffffffffffffffffffffffffff1673ffffffffffffffffffffffffffffffffffffffff1681526020019081526020015f20549050919050565b61079f611443565b6107a85f61152b565b565b5f600854905090565b6107bb611443565b5f60035f8373ffffffffffffffffffffffffffffffffffffffff1673ffffffffffffffffffffffffffffffffffffffff1681526020019081526020015f205f6101000a81548160ff0219169083151502179055508073ffffffffffffffffffffffffffffffffffffffff167f7534c63860313c46c473e4e98328f37017e9674e2162faf1a3ad7a96236c3b7b60405160405180910390a250565b61085d611443565b6108656115ec565b565b61086f611443565b8060095f6101000a81548173ffffffffffffffffffffffffffffffffffffffff021916908373ffffffffffffffffffffffffffffffffffffffff1602179055507f3ca9233bd3849737ab1049144180bc625db2d51ca2c5ce949e7209eb32faa3a2816040516108de919061192c565b60405180910390a150565b5f805f9054906101000a900473ffffffffffffffffffffffffffffffffffffffff16905090565b60606006805461091f90611c03565b80601f016020809104026020016040519081016040528092919081815260200182805461094b90611c03565b80156109965780601f1061096d57610100808354040283529160200191610996565b820191905f5260205f20905b81548152906001019060200180831161097957829003601f168201915b5050505050905090565b5f3360035f8273ffffffffffffffffffffffffffffffffffffffff1673ffffffffffffffffffffffffffffffffffffffff1681526020019081526020015f205f9054906101000a900460ff1615610a2c576040517f08c379a0000000000000000000000000000000000000000000000000000000008152600401610a2390611c7d565b60405180910390fd5b8360035f8273ffffffffffffffffffffffffffffffffffffffff1673ffffffffffffffffffffffffffffffffffffffff1681526020019081526020015f205f9054906101000a900460ff1615610ab7576040517f08c379a0000000000000000000000000000000000000000000000000000000008152600401610aae90611c7d565b60405180910390fd5b5f610ac0611023565b90505f61271060085487610ad49190611cc8565b610ade9190611d36565b90505f8187610aed9190611d66565b90508660015f8573ffffffffffffffffffffffffffffffffffffffff1673ffffffffffffffffffffffffffffffffffffffff1681526020019081526020015f20541015610bb2578260015f8573ffffffffffffffffffffffffffffffffffffffff1673ffffffffffffffffffffffffffffffffffffffff1681526020019081526020015f2054886040517fe450d38c000000000000000000000000000000000000000000000000000000008152600401610ba993929190611d99565b60405180910390fd5b8660015f8573ffffffffffffffffffffffffffffffffffffffff1673ffffffffffffffffffffffffffffffffffffffff1681526020019081526020015f205f828254610bfe9190611d66565b925050819055508060015f8a73ffffffffffffffffffffffffffffffffffffffff1673ffffffffffffffffffffffffffffffffffffffff1681526020019081526020015f205f828254610c519190611dce565b925050819055505f73ffffffffffffffffffffffffffffffffffffffff1660095f9054906101000a900473ffffffffffffffffffffffffffffffffffffffff1673ffffffffffffffffffffffffffffffffffffffff1614158015610cb457505f82115b15610db4578160015f60095f9054906101000a900473ffffffffffffffffffffffffffffffffffffffff1673ffffffffffffffffffffffffffffffffffffffff1673ffffffffffffffffffffffffffffffffffffffff1681526020019081526020015f205f828254610d269190611dce565b9250508190555060095f9054906101000a900473ffffffffffffffffffffffffffffffffffffffff1673ffffffffffffffffffffffffffffffffffffffff168373ffffffffffffffffffffffffffffffffffffffff167fddf252ad1be2c89b69c2b068fc378daa952ba7f163c4a11628f55a4df523b3ef84604051610dab9190611ad0565b60405180910390a35b8773ffffffffffffffffffffffffffffffffffffffff168373ffffffffffffffffffffffffffffffffffffffff167fddf252ad1be2c89b69c2b068fc378daa952ba7f163c4a11628f55a4df523b3ef83604051610e119190611ad0565b60405180910390a360019550505050505092915050565b5f60025f8473ffffffffffffffffffffffffffffffffffffffff1673ffffffffffffffffffffffffffffffffffffffff1681526020019081526020015f205f8373ffffffffffffffffffffffffffffffffffffffff1673ffffffffffffffffffffffffffffffffffffffff1681526020019081526020015f2054905092915050565b610eb2611443565b5f73ffffffffffffffffffffffffffffffffffffffff168173ffffffffffffffffffffffffffffffffffffffff1603610f22575f6040517f1e4fbdf7000000000000000000000000000000000000000000000000000000008152600401610f19919061192c565b60405180910390fd5b610f2b8161152b565b50565b610f36611443565b600160035f8373ffffffffffffffffffffffffffffffffffffffff1673ffffffffffffffffffffffffffffffffffffffff1681526020019081526020015f205f6101000a81548160ff0219169083151502179055508073ffffffffffffffffffffffffffffffffffffffff167fffa4e6181777692565cf28528fc88fd1516ea86b56da075235fa575af6a4b85560405160405180910390a250565b5f60035f8373ffffffffffffffffffffffffffffffffffffffff1673ffffffffffffffffffffffffffffffffffffffff1681526020019081526020015f205f9054906101000a900460ff169050919050565b5f33905090565b60035f8473ffffffffffffffffffffffffffffffffffffffff1673ffffffffffffffffffffffffffffffffffffffff1681526020019081526020015f205f9054906101000a900460ff161580156110c8575060035f8373ffffffffffffffffffffffffffffffffffffffff1673ffffffffffffffffffffffffffffffffffffffff1681526020019081526020015f205f9054906101000a900460ff16155b611107576040517f08c379a00000000000000000000000000000000000000000000000000000000081526004016110fe90611e4b565b60405180910390fd5b8060025f8573ffffffffffffffffffffffffffffffffffffffff1673ffffffffffffffffffffffffffffffffffffffff1681526020019081526020015f205f8473ffffffffffffffffffffffffffffffffffffffff1673ffffffffffffffffffffffffffffffffffffffff1681526020019081526020015f20819055508173ffffffffffffffffffffffffffffffffffffffff168373ffffffffffffffffffffffffffffffffffffffff167f8c5be1e5ebec7d5bd14f71427d1e84f3dd0314c0f7b2291e5b200ac8c7c3b925836040516111e19190611ad0565b60405180910390a3505050565b5f6111f98484610e28565b90507fffffffffffffffffffffffffffffffffffffffffffffffffffffffffffffffff8110156112745781811015611266576040517f08c379a000000000000000000000000000000000000000000000000000000000815260040161125d90611eb3565b60405180910390fd5b611273848484840361102a565b5b50505050565b60035f8473ffffffffffffffffffffffffffffffffffffffff1673ffffffffffffffffffffffffffffffffffffffff1681526020019081526020015f205f9054906101000a900460ff16158015611318575060035f8373ffffffffffffffffffffffffffffffffffffffff1673ffffffffffffffffffffffffffffffffffffffff1681526020019081526020015f205f9054906101000a900460ff16155b611357576040517f08c379a000000000000000000000000000000000000000000000000000000000815260040161134e90611e4b565b60405180910390fd5b5f73ffffffffffffffffffffffffffffffffffffffff168373ffffffffffffffffffffffffffffffffffffffff16036113c5576040517f08c379a00000000000000000000000000000000000000000000000000000000081526004016113bc90611f1b565b60405180910390fd5b5f73ffffffffffffffffffffffffffffffffffffffff168273ffffffffffffffffffffffffffffffffffffffff1603611433576040517f08c379a000000000000000000000000000000000000000000000000000000000815260040161142a90611f83565b60405180910390fd5b61143e83838361164e565b505050565b61144b611023565b73ffffffffffffffffffffffffffffffffffffffff166114696108e9565b73ffffffffffffffffffffffffffffffffffffffff16146114c85761148c611023565b6040517f118cdaa70000000000000000000000000000000000000000000000000000000081526004016114bf919061192c565b60405180910390fd5b565b6114d261186c565b5f8060146101000a81548160ff0219169083151502179055507f5db9ee0a495bf2e6ff9c91a7834c1ba4fdd244a5e8aa4e537bd38aeae4b073aa611514611023565b604051611521919061192c565b60405180910390a1565b5f805f9054906101000a900473ffffffffffffffffffffffffffffffffffffffff169050815f806101000a81548173ffffffffffffffffffffffffffffffffffffffff021916908373ffffffffffffffffffffffffffffffffffffffff1602179055508173ffffffffffffffffffffffffffffffffffffffff168173ffffffffffffffffffffffffffffffffffffffff167f8be0079c531659141344cd1fd0a4f28419497f9722a3daafe3b4186f6b6457e060405160405180910390a35050565b6115f46118ac565b60015f60146101000a81548160ff0219169083151502179055507f62e78cea01bee320cd4e420270b5ea74000d11b0c9f74754ebdbfc544b05a258611637611023565b604051611644919061192c565b60405180910390a1565b6116566118ac565b5f73ffffffffffffffffffffffffffffffffffffffff168373ffffffffffffffffffffffffffffffffffffffff16036116a6578060045f82825461169a9190611dce565b92505081905550611770565b5f60015f8573ffffffffffffffffffffffffffffffffffffffff1673ffffffffffffffffffffffffffffffffffffffff1681526020019081526020015f205490508181101561172a576040517f08c379a000000000000000000000000000000000000000000000000000000000815260040161172190611feb565b60405180910390fd5b81810360015f8673ffffffffffffffffffffffffffffffffffffffff1673ffffffffffffffffffffffffffffffffffffffff1681526020019081526020015f2081905550505b5f73ffffffffffffffffffffffffffffffffffffffff168273ffffffffffffffffffffffffffffffffffffffff16036117b7578060045f8282540392505081905550611802565b8060015f8473ffffffffffffffffffffffffffffffffffffffff1673ffffffffffffffffffffffffffffffffffffffff1681526020019081526020015f205f82825401925050819055505b8173ffffffffffffffffffffffffffffffffffffffff168373ffffffffffffffffffffffffffffffffffffffff167fddf252ad1be2c89b69c2b068fc378daa952ba7f163c4a11628f55a4df523b3ef8360405161185f9190611ad0565b60405180910390a3505050565b61187461073c565b6118aa576040517f8dfc202b00000000000000000000000000000000000000000000000000000000815260040160405180910390fd5b565b6118b461073c565b156118eb576040517fd93c066500000000000000000000000000000000000000000000000000000000815260040160405180910390fd5b565b5f73ffffffffffffffffffffffffffffffffffffffff82169050919050565b5f611916826118ed565b9050919050565b6119268161190c565b82525050565b5f60208201905061193f5f83018461191d565b92915050565b5f81519050919050565b5f82825260208201905092915050565b5f5b8381101561197c578082015181840152602081019050611961565b5f8484015250505050565b5f601f19601f8301169050919050565b5f6119a182611945565b6119ab818561194f565b93506119bb81856020860161195f565b6119c481611987565b840191505092915050565b5f6020820190508181035f8301526119e78184611997565b905092915050565b5f80fd5b6119fc8161190c565b8114611a06575f80fd5b50565b5f81359050611a17816119f3565b92915050565b5f819050919050565b611a2f81611a1d565b8114611a39575f80fd5b50565b5f81359050611a4a81611a26565b92915050565b5f8060408385031215611a6657611a656119ef565b5b5f611a7385828601611a09565b9250506020611a8485828601611a3c565b9150509250929050565b5f8115159050919050565b611aa281611a8e565b82525050565b5f602082019050611abb5f830184611a99565b92915050565b611aca81611a1d565b82525050565b5f602082019050611ae35f830184611ac1565b92915050565b5f805f60608486031215611b0057611aff6119ef565b5b5f611b0d86828701611a09565b9350506020611b1e86828701611a09565b9250506040611b2f86828701611a3c565b9150509250925092565b5f60ff82169050919050565b611b4e81611b39565b82525050565b5f602082019050611b675f830184611b45565b92915050565b5f60208284031215611b8257611b816119ef565b5b5f611b8f84828501611a09565b91505092915050565b5f8060408385031215611bae57611bad6119ef565b5b5f611bbb85828601611a09565b9250506020611bcc85828601611a09565b9150509250929050565b7f4e487b71000000000000000000000000000000000000000000000000000000005f52602260045260245ffd5b5f6002820490506001821680611c1a57607f821691505b602082108103611c2d57611c2c611bd6565b5b50919050565b7f4164647265737320697320626c61636b6c6973746564000000000000000000005f82015250565b5f611c6760168361194f565b9150611c7282611c33565b602082019050919050565b5f6020820190508181035f830152611c9481611c5b565b9050919050565b7f4e487b71000000000000000000000000000000000000000000000000000000005f52601160045260245ffd5b5f611cd282611a1d565b9150611cdd83611a1d565b9250828202611ceb81611a1d565b91508282048414831517611d0257611d01611c9b565b5b5092915050565b7f4e487b71000000000000000000000000000000000000000000000000000000005f52601260045260245ffd5b5f611d4082611a1d565b9150611d4b83611a1d565b925082611d5b57611d5a611d09565b5b828204905092915050565b5f611d7082611a1d565b9150611d7b83611a1d565b9250828203905081811115611d9357611d92611c9b565b5b92915050565b5f606082019050611dac5f83018661191d565b611db96020830185611ac1565b611dc66040830184611ac1565b949350505050565b5f611dd882611a1d565b9150611de383611a1d565b9250828201905080821115611dfb57611dfa611c9b565b5b92915050565b7f426c61636b6c69737465642061646472657373000000000000000000000000005f82015250565b5f611e3560138361194f565b9150611e4082611e01565b602082019050919050565b5f6020820190508181035f830152611e6281611e29565b9050919050565b7f496e73756666696369656e7420616c6c6f77616e6365000000000000000000005f82015250565b5f611e9d60168361194f565b9150611ea882611e69565b602082019050919050565b5f6020820190508181035f830152611eca81611e91565b9050919050565b7f496e76616c69642073656e6465720000000000000000000000000000000000005f82015250565b5f611f05600e8361194f565b9150611f1082611ed1565b602082019050919050565b5f6020820190508181035f830152611f3281611ef9565b9050919050565b7f496e76616c6964207265636569766572000000000000000000000000000000005f82015250565b5f611f6d60108361194f565b9150611f7882611f39565b602082019050919050565b5f6020820190508181035f830152611f9a81611f61565b9050919050565b7f496e73756666696369656e742062616c616e63650000000000000000000000005f82015250565b5f611fd560148361194f565b9150611fe082611fa1565b602082019050919050565b5f6020820190508181035f83015261200281611fc9565b905091905056fea26469706673582212203a74f349ab5fae82a3f7a4c4ddcc51a4e2c9c9fd65a0d0b92303a1a86aefb14e64736f6c63430008170033","linkReferences":{}},"methodIdentifiers":{"allowance(address,address)":"dd62ed3e","approve(address,uint256)":"095ea7b3","balanceOf(address)":"70a08231","blacklist(address)":"f9f92be4","decimals()":"313ce567","getTaxFeeRecipient()":"03073dfc","getTransferTaxBps()":"743bfe70","isBlacklisted(address)":"fe575a87","name()":"06fdde03","owner()":"8da5cb5b","pause()":"8456cb59","paused()":"5c975abb","renounceOwnership()":"715018a6","symbol()":"95d89b41","totalSupply()":"18160ddd","transfer(address,uint256)":"a9059cbb","transferFrom(address,address,uint256)":"23b872dd","transferOwnership(address)":"f2fde38b","unblacklist(address)":"75e3661e","unpause()":"3f4ba83a","updateTaxFeeRecipient(address)":"8baace25"},"id":24}