{"abi":[{"type":"constructor","inputs":[{"name":"name_","type":"string","internalType":"string"},{"name":"symbol_","type":"string","internalType":"string"},{"name":"decimals_","type":"uint8","internalType":"uint8"},{"name":"totalSupply_","type":"uint256","internalType":"uint256"},{"name":"serviceFeeReceiver_","type":"address","internalType":"address"},{"name":"serviceFee_","type":"uint256","internalType":"uint256"}],"stateMutability":"payable"},{"type":"function","name":"allowance","inputs":[{"name":"owner","type":"address","internalType":"address"},{"name":"spender","type":"address","internalType":"address"}],"outputs":[{"name":"","type":"uint256","internalType":"uint256"}],"stateMutability":"view"},{"type":"function","name":"approve","inputs":[{"name":"spender","type":"address","internalType":"address"},{"name":"value","type":"uint256","internalType":"uint256"}],"outputs":[{"name":"","type":"bool","internalType":"bool"}],"stateMutability":"nonpayable"},{"type":"function","name":"balanceOf","inputs":[{"name":"account","type":"address","internalType":"address"}],"outputs":[{"name":"","type":"uint256","internalType":"uint256"}],"stateMutability":"view"},{"type":"function","name":"blacklist","inputs":[{"name":"account","type":"address","internalType":"address"}],"outputs":[],"stateMutability":"nonpayable"},{"type":"function","name":"decimals","inputs":[],"outputs":[{"name":"","type":"uint8","internalType":"uint8"}],"stateMutability":"view"},{"type":"function","name":"isBlacklisted","inputs":[{"name":"account","type":"address","internalType":"address"}],"outputs":[{"name":"","type":"bool","internalType":"bool"}],"stateMutability":"view"},{"type":"function","name":"mint","inputs":[{"name":"to","type":"address","internalType":"address"},{"name":"amount","type":"uint256","internalType":"uint256"}],"outputs":[],"stateMutability":"nonpayable"},{"type":"function","name":"name","inputs":[],"outputs":[{"name":"","type":"string","internalType":"string"}],"stateMutability":"view"},{"type":"function","name":"owner","inputs":[],"outputs":[{"name":"","type":"address","internalType":"address"}],"stateMutability":"view"},{"type":"function","name":"pause","inputs":[],"outputs":[],"stateMutability":"nonpayable"},{"type":"function","name":"paused","inputs":[],"outputs":[{"name":"","type":"bool","internalType":"bool"}],"stateMutability":"view"},{"type":"function","name":"renounceOwnership","inputs":[],"outputs":[],"stateMutability":"nonpayable"},{"type":"function","name":"symbol","inputs":[],"outputs":[{"name":"","type":"string","internalType":"string"}],"stateMutability":"view"},{"type":"function","name":"totalSupply","inputs":[],"outputs":[{"name":"","type":"uint256","internalType":"uint256"}],"stateMutability":"view"},{"type":"function","name":"transfer","inputs":[{"name":"to","type":"address","internalType":"address"},{"name":"value","type":"uint256","internalType":"uint256"}],"outputs":[{"name":"","type":"bool","internalType":"bool"}],"stateMutability":"nonpayable"},{"type":"function","name":"transferFrom","inputs":[{"name":"from","type":"address","internalType":"address"},{"name":"to","type":"address","internalType":"address"},{"name":"value","type":"uint256","internalType":"uint256"}],"outputs":[{"name":"","type":"bool","internalType":"bool"}],"stateMutability":"nonpayable"},{"type":"function","name":"transferOwnership","inputs":[{"name":"newOwner","type":"address","internalType":"address"}],"outputs":[],"stateMutability":"nonpayable"},{"type":"function","name":"unblacklist","inputs":[{"name":"account","type":"address","internalType":"address"}],"outputs":[],"stateMutability":"nonpayable"},{"type":"function","name":"unpause","inputs":[],"outputs":[],"stateMutability":"nonpayable"},{"type":"event","name":"Approval","inputs":[{"name":"owner","type":"address","indexed":true,"internalType":"address"},{"name":"spender","type":"address","indexed":true,"internalType":"address"},{"name":"value","type":"uint256","indexed":false,"internalType":"uint256"}],"anonymous":false},{"type":"event","name":"Blacklisted","inputs":[{"name":"account","type":"address","indexed":true,"internalType":"address"}],"anonymous":false},{"type":"event","name":"OwnershipTransferred","inputs":[{"name":"previousOwner","type":"address","indexed":true,"internalType":"address"},{"name":"newOwner","type":"address","indexed":true,"internalType":"address"}],"anonymous":false},{"type":"event","name":"Paused","inputs":[{"name":"account","type":"address","indexed":false,"internalType":"address"}],"anonymous":false},{"type":"event","name":"Transfer","inputs":[{"name":"from","type":"address","indexed":true,"internalType":"address"},{"name":"to","type":"address","indexed":true,"internalType":"address"},{"name":"value","type":"uint256","indexed":false,"internalType":"uint256"}],"anonymous":false},{"type":"event","name":"Unblacklisted","inputs":[{"name":"account","type":"address","indexed":true,"internalType":"address"}],"anonymous":false},{"type":"event","name":"Unpaused","inputs":[{"name":"account","type":"address","indexed":false,"internalType":"address"}],"anonymous":false},{"type":"error","name":"ERC20InsufficientAllowance","inputs":[{"name":"spender","type":"address","internalType":"address"},{"name":"allowance","type":"uint256","internalType":"uint256"},{"name":"needed","type":"uint256","internalType":"uint256"}]},{"type":"error","name":"ERC20InsufficientBalance","inputs":[{"name":"sender","type":"address","internalType":"address"},{"name":"balance","type":"uint256","internalType":"uint256"},{"name":"needed","type":"uint256","internalType":"uint256"}]},{"type":"error","name":"ERC20InvalidApprover","inputs":[{"name":"approver","type":"address","internalType":"address"}]},{"type":"error","name":"ERC20InvalidReceiver","inputs":[{"name":"receiver","type":"address","internalType":"address"}]},{"type":"error","name":"ERC20InvalidSender","inputs":[{"name":"sender","type":"address","internalType":"address"}]},{"type":"error","name":"ERC20InvalidSpender","inputs":[{"name":"spender","type":"address","internalType":"address"}]},{"type":"error","name":"EnforcedPause","inputs":[]},{"type":"error","name":"ExpectedPause","inputs":[]},{"type":"error","name":"OwnableInvalidOwner","inputs":[{"name":"owner","type":"address","internalType":"address"}]},{"type":"error","name":"OwnableUnauthorizedAccount","inputs":[{"name":"account","type":"address","internalType":"address"}]}],"bytecode":{"object":"0x608060405260405162002d6338038062002d63833981810160405281019062000029919062000a58565b335f73ffffffffffffffffffffffffffffffffffffffff168173ffffffffffffffffffffffffffffffffffffffff16036200009d575f6040517f1e4fbdf700000000000000000000000000000000000000000000000000000000815260040162000094919062000b3f565b60405180910390fd5b620000ae81620002c460201b60201c565b505f8060146101000a81548160ff0219169083151502179055508560059081620000d9919062000d88565b508460069081620000eb919062000d88565b508360075f6101000a81548160ff021916908360ff160217905550803410156200014c576040517f08c379a0000000000000000000000000000000000000000000000000000000008152600401620001439062000eca565b60405180910390fd5b5f73ffffffffffffffffffffffffffffffffffffffff168273ffffffffffffffffffffffffffffffffffffffff1603620001bd576040517f08c379a0000000000000000000000000000000000000000000000000000000008152600401620001b49062000f38565b60405180910390fd5b5f8273ffffffffffffffffffffffffffffffffffffffff1682604051620001e49062000f89565b5f6040518083038185875af1925050503d805f811462000220576040519150601f19603f3d011682016040523d82523d5f602084013e62000225565b606091505b50509050806200026c576040517f08c379a0000000000000000000000000000000000000000000000000000000008152600401620002639062000fed565b60405180910390fd5b620002b7620002806200038560201b60201c565b62000290620003ac60201b60201c565b600a6200029e91906200118a565b86620002ab9190620011da565b620003c160201b60201c565b5050505050505062001333565b5f805f9054906101000a900473ffffffffffffffffffffffffffffffffffffffff169050815f806101000a81548173ffffffffffffffffffffffffffffffffffffffff021916908373ffffffffffffffffffffffffffffffffffffffff1602179055508173ffffffffffffffffffffffffffffffffffffffff168173ffffffffffffffffffffffffffffffffffffffff167f8be0079c531659141344cd1fd0a4f28419497f9722a3daafe3b4186f6b6457e060405160405180910390a35050565b5f805f9054906101000a900473ffffffffffffffffffffffffffffffffffffffff16905090565b5f60075f9054906101000a900460ff16905090565b5f73ffffffffffffffffffffffffffffffffffffffff168273ffffffffffffffffffffffffffffffffffffffff160362000434575f6040517fec442f050000000000000000000000000000000000000000000000000000000081526004016200042b919062000b3f565b60405180910390fd5b620004475f83836200044b60201b60201c565b5050565b6200045b620007a060201b60201c565b8260035f8273ffffffffffffffffffffffffffffffffffffffff1673ffffffffffffffffffffffffffffffffffffffff1681526020019081526020015f205f9054906101000a900460ff1615620004e9576040517f08c379a0000000000000000000000000000000000000000000000000000000008152600401620004e09062001272565b60405180910390fd5b8260035f8273ffffffffffffffffffffffffffffffffffffffff1673ffffffffffffffffffffffffffffffffffffffff1681526020019081526020015f205f9054906101000a900460ff161562000577576040517f08c379a00000000000000000000000000000000000000000000000000000000081526004016200056e9062001272565b60405180910390fd5b5f73ffffffffffffffffffffffffffffffffffffffff168573ffffffffffffffffffffffffffffffffffffffff1603620005cb578260045f828254620005be919062001292565b925050819055506200069e565b5f60015f8773ffffffffffffffffffffffffffffffffffffffff1673ffffffffffffffffffffffffffffffffffffffff1681526020019081526020015f205490508381101562000658578581856040517fe450d38c0000000000000000000000000000000000000000000000000000000081526004016200064f93929190620012dd565b60405180910390fd5b83810360015f8873ffffffffffffffffffffffffffffffffffffffff1673ffffffffffffffffffffffffffffffffffffffff1681526020019081526020015f2081905550505b5f73ffffffffffffffffffffffffffffffffffffffff168473ffffffffffffffffffffffffffffffffffffffff1603620006e7578260045f828254039250508190555062000732565b8260015f8673ffffffffffffffffffffffffffffffffffffffff1673ffffffffffffffffffffffffffffffffffffffff1681526020019081526020015f205f82825401925050819055505b8373ffffffffffffffffffffffffffffffffffffffff168573ffffffffffffffffffffffffffffffffffffffff167fddf252ad1be2c89b69c2b068fc378daa952ba7f163c4a11628f55a4df523b3ef8560405162000791919062001318565b60405180910390a35050505050565b620007b0620007ea60201b60201c565b15620007e8576040517fd93c066500000000000000000000000000000000000000000000000000000000815260040160405180910390fd5b565b5f8060149054906101000a900460ff16905090565b5f604051905090565b5f80fd5b5f80fd5b5f80fd5b5f80fd5b5f601f19601f8301169050919050565b7f4e487b71000000000000000000000000000000000000000000000000000000005f52604160045260245ffd5b620008608262000818565b810181811067ffffffffffffffff8211171562000882576200088162000828565b5b80604052505050565b5f62000896620007ff565b9050620008a4828262000855565b919050565b5f67ffffffffffffffff821115620008c657620008c562000828565b5b620008d18262000818565b9050602081019050919050565b5f5b83811015620008fd578082015181840152602081019050620008e0565b5f8484015250505050565b5f6200091e6200091884620008a9565b6200088b565b9050828152602081018484840111156200093d576200093c62000814565b5b6200094a848285620008de565b509392505050565b5f82601f83011262000969576200096862000810565b5b81516200097b84826020860162000908565b91505092915050565b5f60ff82169050919050565b6200099b8162000984565b8114620009a6575f80fd5b50565b5f81519050620009b98162000990565b92915050565b5f819050919050565b620009d381620009bf565b8114620009de575f80fd5b50565b5f81519050620009f181620009c8565b92915050565b5f73ffffffffffffffffffffffffffffffffffffffff82169050919050565b5f62000a2282620009f7565b9050919050565b62000a348162000a16565b811462000a3f575f80fd5b50565b5f8151905062000a528162000a29565b92915050565b5f805f805f8060c0878903121562000a755762000a7462000808565b5b5f87015167ffffffffffffffff81111562000a955762000a946200080c565b5b62000aa389828a0162000952565b965050602087015167ffffffffffffffff81111562000ac75762000ac66200080c565b5b62000ad589828a0162000952565b955050604062000ae889828a01620009a9565b945050606062000afb89828a01620009e1565b935050608062000b0e89828a0162000a42565b92505060a062000b2189828a01620009e1565b9150509295509295509295565b62000b398162000a16565b82525050565b5f60208201905062000b545f83018462000b2e565b92915050565b5f81519050919050565b7f4e487b71000000000000000000000000000000000000000000000000000000005f52602260045260245ffd5b5f600282049050600182168062000ba957607f821691505b60208210810362000bbf5762000bbe62000b64565b5b50919050565b5f819050815f5260205f209050919050565b5f6020601f8301049050919050565b5f82821b905092915050565b5f6008830262000c237fffffffffffffffffffffffffffffffffffffffffffffffffffffffffffffffff8262000be6565b62000c2f868362000be6565b95508019841693508086168417925050509392505050565b5f819050919050565b5f62000c7062000c6a62000c6484620009bf565b62000c47565b620009bf565b9050919050565b5f819050919050565b62000c8b8362000c50565b62000ca362000c9a8262000c77565b84845462000bf2565b825550505050565b5f90565b62000cb962000cab565b62000cc681848462000c80565b505050565b5b8181101562000ced5762000ce15f8262000caf565b60018101905062000ccc565b5050565b601f82111562000d3c5762000d068162000bc5565b62000d118462000bd7565b8101602085101562000d21578190505b62000d3962000d308562000bd7565b83018262000ccb565b50505b505050565b5f82821c905092915050565b5f62000d5e5f198460080262000d41565b1980831691505092915050565b5f62000d78838362000d4d565b9150826002028217905092915050565b62000d938262000b5a565b67ffffffffffffffff81111562000daf5762000dae62000828565b5b62000dbb825462000b91565b62000dc882828562000cf1565b5f60209050601f83116001811462000dfe575f841562000de9578287015190505b62000df5858262000d6b565b86555062000e64565b601f19841662000e0e8662000bc5565b5f5b8281101562000e375784890151825560018201915060208501945060208101905062000e10565b8683101562000e57578489015162000e53601f89168262000d4d565b8355505b6001600288020188555050505b505050505050565b5f82825260208201905092915050565b7f496e73756666696369656e742066656520616d6f756e742073656e74000000005f82015250565b5f62000eb2601c8362000e6c565b915062000ebf8262000e7c565b602082019050919050565b5f6020820190508181035f83015262000ee38162000ea4565b9050919050565b7f496e76616c6964206665652072656365697665722061646472657373000000005f82015250565b5f62000f20601c8362000e6c565b915062000f2d8262000eea565b602082019050919050565b5f6020820190508181035f83015262000f518162000f12565b9050919050565b5f81905092915050565b50565b5f62000f725f8362000f58565b915062000f7f8262000f62565b5f82019050919050565b5f62000f958262000f65565b9150819050919050565b7f466565207472616e73666572206661696c6564000000000000000000000000005f82015250565b5f62000fd560138362000e6c565b915062000fe28262000f9f565b602082019050919050565b5f6020820190508181035f830152620010068162000fc7565b9050919050565b7f4e487b71000000000000000000000000000000000000000000000000000000005f52601160045260245ffd5b5f8160011c9050919050565b5f808291508390505b600185111562001097578086048111156200106f576200106e6200100d565b5b60018516156200107f5780820291505b80810290506200108f856200103a565b94506200104f565b94509492505050565b5f82620010b1576001905062001183565b81620010c0575f905062001183565b8160018114620010d95760028114620010e4576200111a565b600191505062001183565b60ff841115620010f957620010f86200100d565b5b8360020a9150848211156200111357620011126200100d565b5b5062001183565b5060208310610133831016604e8410600b8410161715620011545782820a9050838111156200114e576200114d6200100d565b5b62001183565b62001163848484600162001046565b925090508184048111156200117d576200117c6200100d565b5b81810290505b9392505050565b5f6200119682620009bf565b9150620011a38362000984565b9250620011d27fffffffffffffffffffffffffffffffffffffffffffffffffffffffffffffffff8484620010a0565b905092915050565b5f620011e682620009bf565b9150620011f383620009bf565b92508282026200120381620009bf565b915082820484148315176200121d576200121c6200100d565b5b5092915050565b7f4164647265737320697320626c61636b6c6973746564000000000000000000005f82015250565b5f6200125a60168362000e6c565b9150620012678262001224565b602082019050919050565b5f6020820190508181035f8301526200128b816200124c565b9050919050565b5f6200129e82620009bf565b9150620012ab83620009bf565b9250828201905080821115620012c657620012c56200100d565b5b92915050565b620012d781620009bf565b82525050565b5f606082019050620012f25f83018662000b2e565b620013016020830185620012cc565b620013106040830184620012cc565b949350505050565b5f6020820190506200132d5f830184620012cc565b92915050565b611a2280620013415f395ff3fe608060405234801561000f575f80fd5b506004361061011f575f3560e01c8063715018a6116100ab578063a9059cbb1161006f578063a9059cbb146102bd578063dd62ed3e146102ed578063f2fde38b1461031d578063f9f92be414610339578063fe575a87146103555761011f565b8063715018a61461025157806375e3661e1461025b5780638456cb59146102775780638da5cb5b1461028157806395d89b411461029f5761011f565b8063313ce567116100f2578063313ce567146101bf5780633f4ba83a146101dd57806340c10f19146101e75780635c975abb1461020357806370a08231146102215761011f565b806306fdde0314610123578063095ea7b31461014157806318160ddd1461017157806323b872dd1461018f575b5f80fd5b61012b610385565b6040516101389190611633565b60405180910390f35b61015b600480360381019061015691906116e4565b610415565b604051610168919061173c565b60405180910390f35b610179610556565b6040516101869190611764565b60405180910390f35b6101a960048036038101906101a4919061177d565b61055f565b6040516101b6919061173c565b60405180910390f35b6101c76106a5565b6040516101d491906117e8565b60405180910390f35b6101e56106ba565b005b61020160048036038101906101fc91906116e4565b6106cc565b005b61020b6106e2565b604051610218919061173c565b60405180910390f35b61023b60048036038101906102369190611801565b6106f7565b6040516102489190611764565b60405180910390f35b61025961073d565b005b61027560048036038101906102709190611801565b610750565b005b61027f6107f2565b005b610289610804565b604051610296919061183b565b60405180910390f35b6102a761082b565b6040516102b49190611633565b60405180910390f35b6102d760048036038101906102d291906116e4565b6108bb565b6040516102e4919061173c565b60405180910390f35b61030760048036038101906103029190611854565b6109fc565b6040516103149190611764565b60405180910390f35b61033760048036038101906103329190611801565b610a7e565b005b610353600480360381019061034e9190611801565b610b02565b005b61036f600480360381019061036a9190611801565b610ba5565b60405161037c919061173c565b60405180910390f35b606060058054610394906118bf565b80601f01602080910402602001604051908101604052809291908181526020018280546103c0906118bf565b801561040b5780601f106103e25761010080835404028352916020019161040b565b820191905f5260205f20905b8154815290600101906020018083116103ee57829003601f168201915b5050505050905090565b5f61041e610bf7565b60035f8273ffffffffffffffffffffffffffffffffffffffff1673ffffffffffffffffffffffffffffffffffffffff1681526020019081526020015f205f9054906101000a900460ff16156104a8576040517f08c379a000000000000000000000000000000000000000000000000000000000815260040161049f90611939565b60405180910390fd5b8360035f8273ffffffffffffffffffffffffffffffffffffffff1673ffffffffffffffffffffffffffffffffffffffff1681526020019081526020015f205f9054906101000a900460ff1615610533576040517f08c379a000000000000000000000000000000000000000000000000000000000815260040161052a90611939565b60405180910390fd5b5f61053c610bf7565b9050610549818787610bfe565b6001935050505092915050565b5f600454905090565b5f8360035f8273ffffffffffffffffffffffffffffffffffffffff1673ffffffffffffffffffffffffffffffffffffffff1681526020019081526020015f205f9054906101000a900460ff16156105eb576040517f08c379a00000000000000000000000000000000000000000000000000000000081526004016105e290611939565b60405180910390fd5b8360035f8273ffffffffffffffffffffffffffffffffffffffff1673ffffffffffffffffffffffffffffffffffffffff1681526020019081526020015f205f9054906101000a900460ff1615610676576040517f08c379a000000000000000000000000000000000000000000000000000000000815260040161066d90611939565b60405180910390fd5b5f61067f610bf7565b905061068c878287610c10565b610697878787610ca3565b600193505050509392505050565b5f60075f9054906101000a900460ff16905090565b6106c2610d93565b6106ca610e1a565b565b6106d4610d93565b6106de8282610e7b565b5050565b5f8060149054906101000a900460ff16905090565b5f60015f8373ffffffffffffffffffffffffffffffffffffffff1673ffffffffffffffffffffffffffffffffffffffff1681526020019081526020015f20549050919050565b610745610d93565b61074e5f610efa565b565b610758610d93565b5f60035f8373ffffffffffffffffffffffffffffffffffffffff1673ffffffffffffffffffffffffffffffffffffffff1681526020019081526020015f205f6101000a81548160ff0219169083151502179055508073ffffffffffffffffffffffffffffffffffffffff167f7534c63860313c46c473e4e98328f37017e9674e2162faf1a3ad7a96236c3b7b60405160405180910390a250565b6107fa610d93565b610802610fbb565b565b5f805f9054906101000a900473ffffffffffffffffffffffffffffffffffffffff16905090565b60606006805461083a906118bf565b80601f0160208091040260200160405190810160405280929190818152602001828054610866906118bf565b80156108b15780601f10610888576101008083540402835291602001916108b1565b820191905f5260205f20905b81548152906001019060200180831161089457829003601f168201915b5050505050905090565b5f6108c4610bf7565b60035f8273ffffffffffffffffffffffffffffffffffffffff1673ffffffffffffffffffffffffffffffffffffffff1681526020019081526020015f205f9054906101000a900460ff161561094e576040517f08c379a000000000000000000000000000000000000000000000000000000000815260040161094590611939565b60405180910390fd5b8360035f8273ffffffffffffffffffffffffffffffffffffffff1673ffffffffffffffffffffffffffffffffffffffff1681526020019081526020015f205f9054906101000a900460ff16156109d9576040517f08c379a00000000000000000000000000000000000000000000000000000000081526004016109d090611939565b60405180910390fd5b5f6109e2610bf7565b90506109ef818787610ca3565b6001935050505092915050565b5f60025f8473ffffffffffffffffffffffffffffffffffffffff1673ffffffffffffffffffffffffffffffffffffffff1681526020019081526020015f205f8373ffffffffffffffffffffffffffffffffffffffff1673ffffffffffffffffffffffffffffffffffffffff1681526020019081526020015f2054905092915050565b610a86610d93565b5f73ffffffffffffffffffffffffffffffffffffffff168173ffffffffffffffffffffffffffffffffffffffff1603610af6575f6040517f1e4fbdf7000000000000000000000000000000000000000000000000000000008152600401610aed919061183b565b60405180910390fd5b610aff81610efa565b50565b610b0a610d93565b600160035f8373ffffffffffffffffffffffffffffffffffffffff1673ffffffffffffffffffffffffffffffffffffffff1681526020019081526020015f205f6101000a81548160ff0219169083151502179055508073ffffffffffffffffffffffffffffffffffffffff167fffa4e6181777692565cf28528fc88fd1516ea86b56da075235fa575af6a4b85560405160405180910390a250565b5f60035f8373ffffffffffffffffffffffffffffffffffffffff1673ffffffffffffffffffffffffffffffffffffffff1681526020019081526020015f205f9054906101000a900460ff169050919050565b5f33905090565b610c0b838383600161101d565b505050565b5f610c1b84846109fc565b90507fffffffffffffffffffffffffffffffffffffffffffffffffffffffffffffffff811015610c9d5781811015610c8e578281836040517ffb8f41b2000000000000000000000000000000000000000000000000000000008152600401610c8593929190611957565b60405180910390fd5b610c9c84848484035f61101d565b5b50505050565b5f73ffffffffffffffffffffffffffffffffffffffff168373ffffffffffffffffffffffffffffffffffffffff1603610d13575f6040517f96c6fd1e000000000000000000000000000000000000000000000000000000008152600401610d0a919061183b565b60405180910390fd5b5f73ffffffffffffffffffffffffffffffffffffffff168273ffffffffffffffffffffffffffffffffffffffff1603610d83575f6040517fec442f05000000000000000000000000000000000000000000000000000000008152600401610d7a919061183b565b60405180910390fd5b610d8e8383836111ec565b505050565b610d9b610bf7565b73ffffffffffffffffffffffffffffffffffffffff16610db9610804565b73ffffffffffffffffffffffffffffffffffffffff1614610e1857610ddc610bf7565b6040517f118cdaa7000000000000000000000000000000000000000000000000000000008152600401610e0f919061183b565b60405180910390fd5b565b610e22611528565b5f8060146101000a81548160ff0219169083151502179055507f5db9ee0a495bf2e6ff9c91a7834c1ba4fdd244a5e8aa4e537bd38aeae4b073aa610e64610bf7565b604051610e71919061183b565b60405180910390a1565b5f73ffffffffffffffffffffffffffffffffffffffff168273ffffffffffffffffffffffffffffffffffffffff1603610eeb575f6040517fec442f05000000000000000000000000000000000000000000000000000000008152600401610ee2919061183b565b60405180910390fd5b610ef65f83836111ec565b5050565b5f805f9054906101000a900473ffffffffffffffffffffffffffffffffffffffff169050815f806101000a81548173ffffffffffffffffffffffffffffffffffffffff021916908373ffffffffffffffffffffffffffffffffffffffff1602179055508173ffffffffffffffffffffffffffffffffffffffff168173ffffffffffffffffffffffffffffffffffffffff167f8be0079c531659141344cd1fd0a4f28419497f9722a3daafe3b4186f6b6457e060405160405180910390a35050565b610fc3611568565b60015f60146101000a81548160ff0219169083151502179055507f62e78cea01bee320cd4e420270b5ea74000d11b0c9f74754ebdbfc544b05a258611006610bf7565b604051611013919061183b565b60405180910390a1565b5f73ffffffffffffffffffffffffffffffffffffffff168473ffffffffffffffffffffffffffffffffffffffff160361108d575f6040517fe602df05000000000000000000000000000000000000000000000000000000008152600401611084919061183b565b60405180910390fd5b5f73ffffffffffffffffffffffffffffffffffffffff168373ffffffffffffffffffffffffffffffffffffffff16036110fd575f6040517f94280d620000000000000000000000000000000000000000000000000000000081526004016110f4919061183b565b60405180910390fd5b8160025f8673ffffffffffffffffffffffffffffffffffffffff1673ffffffffffffffffffffffffffffffffffffffff1681526020019081526020015f205f8573ffffffffffffffffffffffffffffffffffffffff1673ffffffffffffffffffffffffffffffffffffffff1681526020019081526020015f208190555080156111e6578273ffffffffffffffffffffffffffffffffffffffff168473ffffffffffffffffffffffffffffffffffffffff167f8c5be1e5ebec7d5bd14f71427d1e84f3dd0314c0f7b2291e5b200ac8c7c3b925846040516111dd9190611764565b60405180910390a35b50505050565b6111f4611568565b8260035f8273ffffffffffffffffffffffffffffffffffffffff1673ffffffffffffffffffffffffffffffffffffffff1681526020019081526020015f205f9054906101000a900460ff161561127f576040517f08c379a000000000000000000000000000000000000000000000000000000000815260040161127690611939565b60405180910390fd5b8260035f8273ffffffffffffffffffffffffffffffffffffffff1673ffffffffffffffffffffffffffffffffffffffff1681526020019081526020015f205f9054906101000a900460ff161561130a576040517f08c379a000000000000000000000000000000000000000000000000000000000815260040161130190611939565b60405180910390fd5b5f73ffffffffffffffffffffffffffffffffffffffff168573ffffffffffffffffffffffffffffffffffffffff160361135a578260045f82825461134e91906119b9565b9250508190555061142a565b5f60015f8773ffffffffffffffffffffffffffffffffffffffff1673ffffffffffffffffffffffffffffffffffffffff1681526020019081526020015f20549050838110156113e4578581856040517fe450d38c0000000000000000000000000000000000000000000000000000000081526004016113db93929190611957565b60405180910390fd5b83810360015f8873ffffffffffffffffffffffffffffffffffffffff1673ffffffffffffffffffffffffffffffffffffffff1681526020019081526020015f2081905550505b5f73ffffffffffffffffffffffffffffffffffffffff168473ffffffffffffffffffffffffffffffffffffffff1603611471578260045f82825403925050819055506114bc565b8260015f8673ffffffffffffffffffffffffffffffffffffffff1673ffffffffffffffffffffffffffffffffffffffff1681526020019081526020015f205f82825401925050819055505b8373ffffffffffffffffffffffffffffffffffffffff168573ffffffffffffffffffffffffffffffffffffffff167fddf252ad1be2c89b69c2b068fc378daa952ba7f163c4a11628f55a4df523b3ef856040516115199190611764565b60405180910390a35050505050565b6115306106e2565b611566576040517f8dfc202b00000000000000000000000000000000000000000000000000000000815260040160405180910390fd5b565b6115706106e2565b156115a7576040517fd93c066500000000000000000000000000000000000000000000000000000000815260040160405180910390fd5b565b5f81519050919050565b5f82825260208201905092915050565b5f5b838110156115e05780820151818401526020810190506115c5565b5f8484015250505050565b5f601f19601f8301169050919050565b5f611605826115a9565b61160f81856115b3565b935061161f8185602086016115c3565b611628816115eb565b840191505092915050565b5f6020820190508181035f83015261164b81846115fb565b905092915050565b5f80fd5b5f73ffffffffffffffffffffffffffffffffffffffff82169050919050565b5f61168082611657565b9050919050565b61169081611676565b811461169a575f80fd5b50565b5f813590506116ab81611687565b92915050565b5f819050919050565b6116c3816116b1565b81146116cd575f80fd5b50565b5f813590506116de816116ba565b92915050565b5f80604083850312156116fa576116f9611653565b5b5f6117078582860161169d565b9250506020611718858286016116d0565b9150509250929050565b5f8115159050919050565b61173681611722565b82525050565b5f60208201905061174f5f83018461172d565b92915050565b61175e816116b1565b82525050565b5f6020820190506117775f830184611755565b92915050565b5f805f6060848603121561179457611793611653565b5b5f6117a18682870161169d565b93505060206117b28682870161169d565b92505060406117c3868287016116d0565b9150509250925092565b5f60ff82169050919050565b6117e2816117cd565b82525050565b5f6020820190506117fb5f8301846117d9565b92915050565b5f6020828403121561181657611815611653565b5b5f6118238482850161169d565b91505092915050565b61183581611676565b82525050565b5f60208201905061184e5f83018461182c565b92915050565b5f806040838503121561186a57611869611653565b5b5f6118778582860161169d565b92505060206118888582860161169d565b9150509250929050565b7f4e487b71000000000000000000000000000000000000000000000000000000005f52602260045260245ffd5b5f60028204905060018216806118d657607f821691505b6020821081036118e9576118e8611892565b5b50919050565b7f4164647265737320697320626c61636b6c6973746564000000000000000000005f82015250565b5f6119236016836115b3565b915061192e826118ef565b602082019050919050565b5f6020820190508181035f83015261195081611917565b9050919050565b5f60608201905061196a5f83018661182c565b6119776020830185611755565b6119846040830184611755565b949350505050565b7f4e487b71000000000000000000000000000000000000000000000000000000005f52601160045260245ffd5b5f6119c3826116b1565b91506119ce836116b1565b92508282019050808211156119e6576119e561198c565b5b9291505056fea2646970667358221220d0f93f9a06a52fb06678247a39400a9963562ca74147a9fa6309208c43fd528664736f6c63430008170033","linkReferences":{}},"methodIdentifiers":{"allowance(address,address)":"dd62ed3e","approve(address,uint256)":"095ea7b3","balanceOf(address)":"70a08231","blacklist(address)":"f9f92be4","decimals()":"313ce567","isBlacklisted(address)":"fe575a87","mint(address,uint256)":"40c10f19","name()":"06fdde03","owner()":"8da5cb5b","pause()":"8456cb59","paused()":"5c975abb","renounceOwnership()":"715018a6","symbol()":"95d89b41","totalSupply()":"18160ddd","transfer(address,uint256)":"a9059cbb","transferFrom(address,address,uint256)":"23b872dd","transferOwnership(address)":"f2fde38b","unblacklist(address)":"75e3661e","unpause()":"3f4ba83a"},"id":30}