{"abi":[{"type":"constructor","inputs":[{"name":"name_","type":"string","internalType":"string"},{"name":"symbol_","type":"string","internalType":"string"},{"name":"decimals_","type":"uint8","internalType":"uint8"},{"name":"totalSupply_","type":"uint256","internalType":"uint256"},{"name":"cap_","type":"uint256","internalType":"uint256"},{"name":"serviceFeeReceiver_","type":"address","internalType":"address"},{"name":"serviceFee_","type":"uint256","internalType":"uint256"},{"name":"transferTaxBps_","type":"uint256","internalType":"uint256"},{"name":"taxFeeRecipient_","type":"address","internalType":"address"}],"stateMutability":"payable"},{"type":"function","name":"allowance","inputs":[{"name":"owner","type":"address","internalType":"address"},{"name":"spender","type":"address","internalType":"address"}],"outputs":[{"name":"","type":"uint256","internalType":"uint256"}],"stateMutability":"view"},{"type":"function","name":"approve","inputs":[{"name":"spender","type":"address","internalType":"address"},{"name":"value","type":"uint256","internalType":"uint256"}],"outputs":[{"name":"","type":"bool","internalType":"bool"}],"stateMutability":"nonpayable"},{"type":"function","name":"balanceOf","inputs":[{"name":"account","type":"address","internalType":"address"}],"outputs":[{"name":"","type":"uint256","internalType":"uint256"}],"stateMutability":"view"},{"type":"function","name":"blacklistAddress","inputs":[{"name":"account","type":"address","internalType":"address"}],"outputs":[],"stateMutability":"nonpayable"},{"type":"function","name":"burn","inputs":[{"name":"value","type":"uint256","internalType":"uint256"}],"outputs":[],"stateMutability":"nonpayable"},{"type":"function","name":"burnFrom","inputs":[{"name":"account","type":"address","internalType":"address"},{"name":"value","type":"uint256","internalType":"uint256"}],"outputs":[],"stateMutability":"nonpayable"},{"type":"function","name":"cap","inputs":[],"outputs":[{"name":"","type":"uint256","internalType":"uint256"}],"stateMutability":"view"},{"type":"function","name":"decimals","inputs":[],"outputs":[{"name":"","type":"uint8","internalType":"uint8"}],"stateMutability":"view"},{"type":"function","name":"getTaxFeeRecipient","inputs":[],"outputs":[{"name":"","type":"address","internalType":"address"}],"stateMutability":"view"},{"type":"function","name":"getTransferTaxBps","inputs":[],"outputs":[{"name":"","type":"uint256","internalType":"uint256"}],"stateMutability":"view"},{"type":"function","name":"isBlacklisted","inputs":[{"name":"account","type":"address","internalType":"address"}],"outputs":[{"name":"","type":"bool","internalType":"bool"}],"stateMutability":"view"},{"type":"function","name":"mint","inputs":[{"name":"to","type":"address","internalType":"address"},{"name":"amount","type":"uint256","internalType":"uint256"}],"outputs":[],"stateMutability":"nonpayable"},{"type":"function","name":"name","inputs":[],"outputs":[{"name":"","type":"string","internalType":"string"}],"stateMutability":"view"},{"type":"function","name":"owner","inputs":[],"outputs":[{"name":"","type":"address","internalType":"address"}],"stateMutability":"view"},{"type":"function","name":"pause","inputs":[],"outputs":[],"stateMutability":"nonpayable"},{"type":"function","name":"paused","inputs":[],"outputs":[{"name":"","type":"bool","internalType":"bool"}],"stateMutability":"view"},{"type":"function","name":"renounceOwnership","inputs":[],"outputs":[],"stateMutability":"nonpayable"},{"type":"function","name":"symbol","inputs":[],"outputs":[{"name":"","type":"string","internalType":"string"}],"stateMutability":"view"},{"type":"function","name":"totalSupply","inputs":[],"outputs":[{"name":"","type":"uint256","internalType":"uint256"}],"stateMutability":"view"},{"type":"function","name":"transfer","inputs":[{"name":"to","type":"address","internalType":"address"},{"name":"value","type":"uint256","internalType":"uint256"}],"outputs":[{"name":"","type":"bool","internalType":"bool"}],"stateMutability":"nonpayable"},{"type":"function","name":"transferFrom","inputs":[{"name":"from","type":"address","internalType":"address"},{"name":"to","type":"address","internalType":"address"},{"name":"value","type":"uint256","internalType":"uint256"}],"outputs":[{"name":"","type":"bool","internalType":"bool"}],"stateMutability":"nonpayable"},{"type":"function","name":"transferOwnership","inputs":[{"name":"newOwner","type":"address","internalType":"address"}],"outputs":[],"stateMutability":"nonpayable"},{"type":"function","name":"unblacklistAddress","inputs":[{"name":"account","type":"address","internalType":"address"}],"outputs":[],"stateMutability":"nonpayable"},{"type":"function","name":"unpause","inputs":[],"outputs":[],"stateMutability":"nonpayable"},{"type":"function","name":"updateTaxFeeRecipient","inputs":[{"name":"newTaxFeeRecipient","type":"address","internalType":"address"}],"outputs":[],"stateMutability":"nonpayable"},{"type":"event","name":"Approval","inputs":[{"name":"owner","type":"address","indexed":true,"internalType":"address"},{"name":"spender","type":"address","indexed":true,"internalType":"address"},{"name":"value","type":"uint256","indexed":false,"internalType":"uint256"}],"anonymous":false},{"type":"event","name":"Blacklisted","inputs":[{"name":"account","type":"address","indexed":true,"internalType":"address"}],"anonymous":false},{"type":"event","name":"OwnershipTransferred","inputs":[{"name":"previousOwner","type":"address","indexed":true,"internalType":"address"},{"name":"newOwner","type":"address","indexed":true,"internalType":"address"}],"anonymous":false},{"type":"event","name":"Paused","inputs":[{"name":"account","type":"address","indexed":false,"internalType":"address"}],"anonymous":false},{"type":"event","name":"TaxFeeRecipientUpdated","inputs":[{"name":"newTaxFeeRecipient","type":"address","indexed":false,"internalType":"address"}],"anonymous":false},{"type":"event","name":"Transfer","inputs":[{"name":"from","type":"address","indexed":true,"internalType":"address"},{"name":"to","type":"address","indexed":true,"internalType":"address"},{"name":"value","type":"uint256","indexed":false,"internalType":"uint256"}],"anonymous":false},{"type":"event","name":"Unblacklisted","inputs":[{"name":"account","type":"address","indexed":true,"internalType":"address"}],"anonymous":false},{"type":"event","name":"Unpaused","inputs":[{"name":"account","type":"address","indexed":false,"internalType":"address"}],"anonymous":false},{"type":"error","name":"ERC20InsufficientAllowance","inputs":[{"name":"spender","type":"address","internalType":"address"},{"name":"allowance","type":"uint256","internalType":"uint256"},{"name":"needed","type":"uint256","internalType":"uint256"}]},{"type":"error","name":"ERC20InsufficientBalance","inputs":[{"name":"sender","type":"address","internalType":"address"},{"name":"balance","type":"uint256","internalType":"uint256"},{"name":"needed","type":"uint256","internalType":"uint256"}]},{"type":"error","name":"ERC20InvalidApprover","inputs":[{"name":"approver","type":"address","internalType":"address"}]},{"type":"error","name":"ERC20InvalidReceiver","inputs":[{"name":"receiver","type":"address","internalType":"address"}]},{"type":"error","name":"ERC20InvalidSender","inputs":[{"name":"sender","type":"address","internalType":"address"}]},{"type":"error","name":"ERC20InvalidSpender","inputs":[{"name":"spender","type":"address","internalType":"address"}]},{"type":"error","name":"EnforcedPause","inputs":[]},{"type":"error","name":"ExpectedPause","inputs":[]},{"type":"error","name":"OwnableInvalidOwner","inputs":[{"name":"owner","type":"address","internalType":"address"}]},{"type":"error","name":"OwnableUnauthorizedAccount","inputs":[{"name":"account","type":"address","internalType":"address"}]}],"bytecode":{"object":"0x6080604052604051613bd1380380613bd183398181016040528101906100259190610a5a565b335f73ffffffffffffffffffffffffffffffffffffffff168173ffffffffffffffffffffffffffffffffffffffff1603610096575f6040517f1e4fbdf700000000000000000000000000000000000000000000000000000000815260040161008d9190610b65565b60405180910390fd5b6100a5816103a660201b60201c565b505f5f60146101000a81548160ff02191690831515021790555088600590816100ce9190610d85565b5087600690816100de9190610d85565b508660075f6101000a81548160ff021916908360ff1602179055508160098190555080600a5f6101000a81548173ffffffffffffffffffffffffffffffffffffffff021916908373ffffffffffffffffffffffffffffffffffffffff1602179055505f8511610182576040517f08c379a000000000000000000000000000000000000000000000000000000000815260040161017990610eae565b60405180910390fd5b8460088190555061019761046760201b60201c565b600a6101a39190611028565b6101b161047c60201b60201c565b6101bb9190611072565b8611156101fd576040517f08c379a00000000000000000000000000000000000000000000000000000000081526004016101f4906110fd565b60405180910390fd5b82341015610240576040517f08c379a000000000000000000000000000000000000000000000000000000000815260040161023790611165565b60405180910390fd5b5f73ffffffffffffffffffffffffffffffffffffffff168473ffffffffffffffffffffffffffffffffffffffff16036102ae576040517f08c379a00000000000000000000000000000000000000000000000000000000081526004016102a5906111cd565b60405180910390fd5b5f8473ffffffffffffffffffffffffffffffffffffffff16846040516102d390611218565b5f6040518083038185875af1925050503d805f811461030d576040519150601f19603f3d011682016040523d82523d5f602084013e610312565b606091505b5050905080610356576040517f08c379a000000000000000000000000000000000000000000000000000000000815260040161034d90611276565b60405180910390fd5b61039761036761048560201b60201c565b61037561046760201b60201c565b600a6103819190611028565b8961038c9190611072565b6104ac60201b60201c565b505050505050505050506113bf565b5f5f5f9054906101000a900473ffffffffffffffffffffffffffffffffffffffff169050815f5f6101000a81548173ffffffffffffffffffffffffffffffffffffffff021916908373ffffffffffffffffffffffffffffffffffffffff1602179055508173ffffffffffffffffffffffffffffffffffffffff168173ffffffffffffffffffffffffffffffffffffffff167f8be0079c531659141344cd1fd0a4f28419497f9722a3daafe3b4186f6b6457e060405160405180910390a35050565b5f60075f9054906101000a900460ff16905090565b5f600854905090565b5f5f5f9054906101000a900473ffffffffffffffffffffffffffffffffffffffff16905090565b6104ba61046760201b60201c565b600a6104c69190611028565b6104d461047c60201b60201c565b6104de9190611072565b816104ed6105bb60201b60201c565b6104f79190611294565b1115610538576040517f08c379a000000000000000000000000000000000000000000000000000000000815260040161052f906110fd565b60405180910390fd5b5f73ffffffffffffffffffffffffffffffffffffffff168273ffffffffffffffffffffffffffffffffffffffff16036105a6576040517f08c379a000000000000000000000000000000000000000000000000000000000815260040161059d90611311565b60405180910390fd5b6105b75f83836105c460201b60201c565b5050565b5f600454905090565b6105d26107ee60201b60201c565b5f73ffffffffffffffffffffffffffffffffffffffff168373ffffffffffffffffffffffffffffffffffffffff1603610622578060045f8282546106169190611294565b925050819055506106f2565b5f60015f8573ffffffffffffffffffffffffffffffffffffffff1673ffffffffffffffffffffffffffffffffffffffff1681526020019081526020015f20549050818110156106a6576040517f08c379a000000000000000000000000000000000000000000000000000000000815260040161069d90611379565b60405180910390fd5b8160015f8673ffffffffffffffffffffffffffffffffffffffff1673ffffffffffffffffffffffffffffffffffffffff1681526020019081526020015f205f8282540392505081905550505b5f73ffffffffffffffffffffffffffffffffffffffff168273ffffffffffffffffffffffffffffffffffffffff1603610739578060045f8282540392505081905550610784565b8060015f8473ffffffffffffffffffffffffffffffffffffffff1673ffffffffffffffffffffffffffffffffffffffff1681526020019081526020015f205f82825401925050819055505b8173ffffffffffffffffffffffffffffffffffffffff168373ffffffffffffffffffffffffffffffffffffffff167fddf252ad1be2c89b69c2b068fc378daa952ba7f163c4a11628f55a4df523b3ef836040516107e191906113a6565b60405180910390a3505050565b6107fc61083560201b60201c565b15610833576040517fd93c066500000000000000000000000000000000000000000000000000000000815260040160405180910390fd5b565b5f5f60149054906101000a900460ff16905090565b5f604051905090565b5f5ffd5b5f5ffd5b5f5ffd5b5f5ffd5b5f601f19601f8301169050919050565b7f4e487b71000000000000000000000000000000000000000000000000000000005f52604160045260245ffd5b6108a982610863565b810181811067ffffffffffffffff821117156108c8576108c7610873565b5b80604052505050565b5f6108da61084a565b90506108e682826108a0565b919050565b5f67ffffffffffffffff82111561090557610904610873565b5b61090e82610863565b9050602081019050919050565b8281835e5f83830152505050565b5f61093b610936846108eb565b6108d1565b9050828152602081018484840111156109575761095661085f565b5b61096284828561091b565b509392505050565b5f82601f83011261097e5761097d61085b565b5b815161098e848260208601610929565b91505092915050565b5f60ff82169050919050565b6109ac81610997565b81146109b6575f5ffd5b50565b5f815190506109c7816109a3565b92915050565b5f819050919050565b6109df816109cd565b81146109e9575f5ffd5b50565b5f815190506109fa816109d6565b92915050565b5f73ffffffffffffffffffffffffffffffffffffffff82169050919050565b5f610a2982610a00565b9050919050565b610a3981610a1f565b8114610a43575f5ffd5b50565b5f81519050610a5481610a30565b92915050565b5f5f5f5f5f5f5f5f5f6101208a8c031215610a7857610a77610853565b5b5f8a015167ffffffffffffffff811115610a9557610a94610857565b5b610aa18c828d0161096a565b99505060208a015167ffffffffffffffff811115610ac257610ac1610857565b5b610ace8c828d0161096a565b9850506040610adf8c828d016109b9565b9750506060610af08c828d016109ec565b9650506080610b018c828d016109ec565b95505060a0610b128c828d01610a46565b94505060c0610b238c828d016109ec565b93505060e0610b348c828d016109ec565b925050610100610b468c828d01610a46565b9150509295985092959850929598565b610b5f81610a1f565b82525050565b5f602082019050610b785f830184610b56565b92915050565b5f81519050919050565b7f4e487b71000000000000000000000000000000000000000000000000000000005f52602260045260245ffd5b5f6002820490506001821680610bcc57607f821691505b602082108103610bdf57610bde610b88565b5b50919050565b5f819050815f5260205f209050919050565b5f6020601f8301049050919050565b5f82821b905092915050565b5f60088302610c417fffffffffffffffffffffffffffffffffffffffffffffffffffffffffffffffff82610c06565b610c4b8683610c06565b95508019841693508086168417925050509392505050565b5f819050919050565b5f610c86610c81610c7c846109cd565b610c63565b6109cd565b9050919050565b5f819050919050565b610c9f83610c6c565b610cb3610cab82610c8d565b848454610c12565b825550505050565b5f5f905090565b610cca610cbb565b610cd5818484610c96565b505050565b5b81811015610cf857610ced5f82610cc2565b600181019050610cdb565b5050565b601f821115610d3d57610d0e81610be5565b610d1784610bf7565b81016020851015610d26578190505b610d3a610d3285610bf7565b830182610cda565b50505b505050565b5f82821c905092915050565b5f610d5d5f1984600802610d42565b1980831691505092915050565b5f610d758383610d4e565b9150826002028217905092915050565b610d8e82610b7e565b67ffffffffffffffff811115610da757610da6610873565b5b610db18254610bb5565b610dbc828285610cfc565b5f60209050601f831160018114610ded575f8415610ddb578287015190505b610de58582610d6a565b865550610e4c565b601f198416610dfb86610be5565b5f5b82811015610e2257848901518255600182019150602085019450602081019050610dfd565b86831015610e3f5784890151610e3b601f891682610d4e565b8355505b6001600288020188555050505b505050505050565b5f82825260208201905092915050565b7f4361702073686f756c642062652067726561746572207468616e2030000000005f82015250565b5f610e98601c83610e54565b9150610ea382610e64565b602082019050919050565b5f6020820190508181035f830152610ec581610e8c565b9050919050565b7f4e487b71000000000000000000000000000000000000000000000000000000005f52601160045260245ffd5b5f8160011c9050919050565b5f5f8291508390505b6001851115610f4e57808604811115610f2a57610f29610ecc565b5b6001851615610f395780820291505b8081029050610f4785610ef9565b9450610f0e565b94509492505050565b5f82610f665760019050611021565b81610f73575f9050611021565b8160018114610f895760028114610f9357610fc2565b6001915050611021565b60ff841115610fa557610fa4610ecc565b5b8360020a915084821115610fbc57610fbb610ecc565b5b50611021565b5060208310610133831016604e8410600b8410161715610ff75782820a905083811115610ff257610ff1610ecc565b5b611021565b6110048484846001610f05565b9250905081840481111561101b5761101a610ecc565b5b81810290505b9392505050565b5f611032826109cd565b915061103d83610997565b925061106a7fffffffffffffffffffffffffffffffffffffffffffffffffffffffffffffffff8484610f57565b905092915050565b5f61107c826109cd565b9150611087836109cd565b9250828202611095816109cd565b915082820484148315176110ac576110ab610ecc565b5b5092915050565b7f45524332304361707065643a20636170206578636565646564000000000000005f82015250565b5f6110e7601983610e54565b91506110f2826110b3565b602082019050919050565b5f6020820190508181035f830152611114816110db565b9050919050565b7f496e73756666696369656e742066656520616d6f756e742073656e74000000005f82015250565b5f61114f601c83610e54565b915061115a8261111b565b602082019050919050565b5f6020820190508181035f83015261117c81611143565b9050919050565b7f496e76616c6964206665652072656365697665722061646472657373000000005f82015250565b5f6111b7601c83610e54565b91506111c282611183565b602082019050919050565b5f6020820190508181035f8301526111e4816111ab565b9050919050565b5f81905092915050565b50565b5f6112035f836111eb565b915061120e826111f5565b5f82019050919050565b5f611222826111f8565b9150819050919050565b7f466565207472616e73666572206661696c6564000000000000000000000000005f82015250565b5f611260601383610e54565b915061126b8261122c565b602082019050919050565b5f6020820190508181035f83015261128d81611254565b9050919050565b5f61129e826109cd565b91506112a9836109cd565b92508282019050808211156112c1576112c0610ecc565b5b92915050565b7f45524332303a206d696e7420746f207a65726f206164647265737300000000005f82015250565b5f6112fb601b83610e54565b9150611306826112c7565b602082019050919050565b5f6020820190508181035f830152611328816112ef565b9050919050565b7f45524332303a20696e73756666696369656e742062616c616e636500000000005f82015250565b5f611363601b83610e54565b915061136e8261132f565b602082019050919050565b5f6020820190508181035f83015261139081611357565b9050919050565b6113a0816109cd565b82525050565b5f6020820190506113b95f830184611397565b92915050565b612805806113cc5f395ff3fe608060405234801561000f575f5ffd5b5060043610610171575f3560e01c806370a08231116100dc5780638da5cb5b11610095578063dd62ed3e1161006f578063dd62ed3e146103ed578063f2fde38b1461041d578063f3290d7514610439578063fe575a871461045557610171565b80638da5cb5b1461038157806395d89b411461039f578063a9059cbb146103bd57610171565b806370a08231146102e7578063715018a614610317578063743bfe701461032157806379cc67901461033f5780638456cb591461035b5780638baace251461036557610171565b8063355274ea1161012e578063355274ea1461024d5780633f4ba83a1461026b57806340c10f191461027557806342966c681461029157806345e34949146102ad5780635c975abb146102c957610171565b806303073dfc1461017557806306fdde0314610193578063095ea7b3146101b157806318160ddd146101e157806323b872dd146101ff578063313ce5671461022f575b5f5ffd5b61017d610485565b60405161018a9190611c86565b60405180910390f35b61019b6104ad565b6040516101a89190611d0f565b60405180910390f35b6101cb60048036038101906101c69190611d90565b61053d565b6040516101d89190611de8565b60405180910390f35b6101e9610677565b6040516101f69190611e10565b60405180910390f35b61021960048036038101906102149190611e29565b610680565b6040516102269190611de8565b60405180910390f35b6102376107c6565b6040516102449190611e94565b60405180910390f35b6102556107db565b6040516102629190611e10565b60405180910390f35b6102736107e4565b005b61028f600480360381019061028a9190611d90565b6107f6565b005b6102ab60048036038101906102a69190611ead565b61080c565b005b6102c760048036038101906102c29190611ed8565b610820565b005b6102d16108c2565b6040516102de9190611de8565b60405180910390f35b61030160048036038101906102fc9190611ed8565b6108d7565b60405161030e9190611e10565b60405180910390f35b61031f61091d565b005b610329610930565b6040516103369190611e10565b60405180910390f35b61035960048036038101906103549190611d90565b610939565b005b610363610959565b005b61037f600480360381019061037a9190611ed8565b61096b565b005b6103896109ed565b6040516103969190611c86565b60405180910390f35b6103a7610a14565b6040516103b49190611d0f565b60405180910390f35b6103d760048036038101906103d29190611d90565b610aa4565b6040516103e49190611de8565b60405180910390f35b61040760048036038101906104029190611f03565b610f2c565b6040516104149190611e10565b60405180910390f35b61043760048036038101906104329190611ed8565b610fae565b005b610453600480360381019061044e9190611ed8565b611032565b005b61046f600480360381019061046a9190611ed8565b6110d5565b60405161047c9190611de8565b60405180910390f35b5f600a5f9054906101000a900473ffffffffffffffffffffffffffffffffffffffff16905090565b6060600580546104bc90611f6e565b80601f01602080910402602001604051908101604052809291908181526020018280546104e890611f6e565b80156105335780601f1061050a57610100808354040283529160200191610533565b820191905f5260205f20905b81548152906001019060200180831161051657829003601f168201915b5050505050905090565b5f3360035f8273ffffffffffffffffffffffffffffffffffffffff1673ffffffffffffffffffffffffffffffffffffffff1681526020019081526020015f205f9054906101000a900460ff16156105c9576040517f08c379a00000000000000000000000000000000000000000000000000000000081526004016105c090611fe8565b60405180910390fd5b8360035f8273ffffffffffffffffffffffffffffffffffffffff1673ffffffffffffffffffffffffffffffffffffffff1681526020019081526020015f205f9054906101000a900460ff1615610654576040517f08c379a000000000000000000000000000000000000000000000000000000000815260040161064b90611fe8565b60405180910390fd5b5f61065d611127565b905061066a81878761112e565b6001935050505092915050565b5f600454905090565b5f8360035f8273ffffffffffffffffffffffffffffffffffffffff1673ffffffffffffffffffffffffffffffffffffffff1681526020019081526020015f205f9054906101000a900460ff161561070c576040517f08c379a000000000000000000000000000000000000000000000000000000000815260040161070390611fe8565b60405180910390fd5b8360035f8273ffffffffffffffffffffffffffffffffffffffff1673ffffffffffffffffffffffffffffffffffffffff1681526020019081526020015f205f9054906101000a900460ff1615610797576040517f08c379a000000000000000000000000000000000000000000000000000000000815260040161078e90611fe8565b60405180910390fd5b5f6107a0611127565b90506107ad8782876113ce565b6107b887878761145a565b600193505050509392505050565b5f60075f9054906101000a900460ff16905090565b5f600854905090565b6107ec611623565b6107f46116aa565b565b6107fe611623565b610808828261170b565b5050565b61081d610817611127565b82611802565b50565b610828611623565b5f60035f8373ffffffffffffffffffffffffffffffffffffffff1673ffffffffffffffffffffffffffffffffffffffff1681526020019081526020015f205f6101000a81548160ff0219169083151502179055508073ffffffffffffffffffffffffffffffffffffffff167f7534c63860313c46c473e4e98328f37017e9674e2162faf1a3ad7a96236c3b7b60405160405180910390a250565b5f5f60149054906101000a900460ff16905090565b5f60015f8373ffffffffffffffffffffffffffffffffffffffff1673ffffffffffffffffffffffffffffffffffffffff1681526020019081526020015f20549050919050565b610925611623565b61092e5f61187f565b565b5f600954905090565b61094b82610945611127565b836113ce565b6109558282611802565b5050565b610961611623565b610969611940565b565b610973611623565b80600a5f6101000a81548173ffffffffffffffffffffffffffffffffffffffff021916908373ffffffffffffffffffffffffffffffffffffffff1602179055507f3ca9233bd3849737ab1049144180bc625db2d51ca2c5ce949e7209eb32faa3a2816040516109e29190611c86565b60405180910390a150565b5f5f5f9054906101000a900473ffffffffffffffffffffffffffffffffffffffff16905090565b606060068054610a2390611f6e565b80601f0160208091040260200160405190810160405280929190818152602001828054610a4f90611f6e565b8015610a9a5780601f10610a7157610100808354040283529160200191610a9a565b820191905f5260205f20905b815481529060010190602001808311610a7d57829003601f168201915b5050505050905090565b5f3360035f8273ffffffffffffffffffffffffffffffffffffffff1673ffffffffffffffffffffffffffffffffffffffff1681526020019081526020015f205f9054906101000a900460ff1615610b30576040517f08c379a0000000000000000000000000000000000000000000000000000000008152600401610b2790611fe8565b60405180910390fd5b8360035f8273ffffffffffffffffffffffffffffffffffffffff1673ffffffffffffffffffffffffffffffffffffffff1681526020019081526020015f205f9054906101000a900460ff1615610bbb576040517f08c379a0000000000000000000000000000000000000000000000000000000008152600401610bb290611fe8565b60405180910390fd5b5f610bc4611127565b90505f61271060095487610bd89190612033565b610be291906120a1565b90505f8187610bf191906120d1565b90508660015f8573ffffffffffffffffffffffffffffffffffffffff1673ffffffffffffffffffffffffffffffffffffffff1681526020019081526020015f20541015610cb6578260015f8573ffffffffffffffffffffffffffffffffffffffff1673ffffffffffffffffffffffffffffffffffffffff1681526020019081526020015f2054886040517fe450d38c000000000000000000000000000000000000000000000000000000008152600401610cad93929190612104565b60405180910390fd5b8660015f8573ffffffffffffffffffffffffffffffffffffffff1673ffffffffffffffffffffffffffffffffffffffff1681526020019081526020015f205f828254610d0291906120d1565b925050819055508060015f8a73ffffffffffffffffffffffffffffffffffffffff1673ffffffffffffffffffffffffffffffffffffffff1681526020019081526020015f205f828254610d559190612139565b925050819055505f73ffffffffffffffffffffffffffffffffffffffff16600a5f9054906101000a900473ffffffffffffffffffffffffffffffffffffffff1673ffffffffffffffffffffffffffffffffffffffff1614158015610db857505f82115b15610eb8578160015f600a5f9054906101000a900473ffffffffffffffffffffffffffffffffffffffff1673ffffffffffffffffffffffffffffffffffffffff1673ffffffffffffffffffffffffffffffffffffffff1681526020019081526020015f205f828254610e2a9190612139565b92505081905550600a5f9054906101000a900473ffffffffffffffffffffffffffffffffffffffff1673ffffffffffffffffffffffffffffffffffffffff168373ffffffffffffffffffffffffffffffffffffffff167fddf252ad1be2c89b69c2b068fc378daa952ba7f163c4a11628f55a4df523b3ef84604051610eaf9190611e10565b60405180910390a35b8773ffffffffffffffffffffffffffffffffffffffff168373ffffffffffffffffffffffffffffffffffffffff167fddf252ad1be2c89b69c2b068fc378daa952ba7f163c4a11628f55a4df523b3ef83604051610f159190611e10565b60405180910390a360019550505050505092915050565b5f60025f8473ffffffffffffffffffffffffffffffffffffffff1673ffffffffffffffffffffffffffffffffffffffff1681526020019081526020015f205f8373ffffffffffffffffffffffffffffffffffffffff1673ffffffffffffffffffffffffffffffffffffffff1681526020019081526020015f2054905092915050565b610fb6611623565b5f73ffffffffffffffffffffffffffffffffffffffff168173ffffffffffffffffffffffffffffffffffffffff1603611026575f6040517f1e4fbdf700000000000000000000000000000000000000000000000000000000815260040161101d9190611c86565b60405180910390fd5b61102f8161187f565b50565b61103a611623565b600160035f8373ffffffffffffffffffffffffffffffffffffffff1673ffffffffffffffffffffffffffffffffffffffff1681526020019081526020015f205f6101000a81548160ff0219169083151502179055508073ffffffffffffffffffffffffffffffffffffffff167fffa4e6181777692565cf28528fc88fd1516ea86b56da075235fa575af6a4b85560405160405180910390a250565b5f60035f8373ffffffffffffffffffffffffffffffffffffffff1673ffffffffffffffffffffffffffffffffffffffff1681526020019081526020015f205f9054906101000a900460ff169050919050565b5f33905090565b60035f8473ffffffffffffffffffffffffffffffffffffffff1673ffffffffffffffffffffffffffffffffffffffff1681526020019081526020015f205f9054906101000a900460ff161580156111cc575060035f8373ffffffffffffffffffffffffffffffffffffffff1673ffffffffffffffffffffffffffffffffffffffff1681526020019081526020015f205f9054906101000a900460ff16155b61120b576040517f08c379a0000000000000000000000000000000000000000000000000000000008152600401611202906121dc565b60405180910390fd5b5f73ffffffffffffffffffffffffffffffffffffffff168373ffffffffffffffffffffffffffffffffffffffff1603611279576040517f08c379a000000000000000000000000000000000000000000000000000000000815260040161127090612244565b60405180910390fd5b5f73ffffffffffffffffffffffffffffffffffffffff168273ffffffffffffffffffffffffffffffffffffffff16036112e7576040517f08c379a00000000000000000000000000000000000000000000000000000000081526004016112de906122ac565b60405180910390fd5b8060025f8573ffffffffffffffffffffffffffffffffffffffff1673ffffffffffffffffffffffffffffffffffffffff1681526020019081526020015f205f8473ffffffffffffffffffffffffffffffffffffffff1673ffffffffffffffffffffffffffffffffffffffff1681526020019081526020015f20819055508173ffffffffffffffffffffffffffffffffffffffff168373ffffffffffffffffffffffffffffffffffffffff167f8c5be1e5ebec7d5bd14f71427d1e84f3dd0314c0f7b2291e5b200ac8c7c3b925836040516113c19190611e10565b60405180910390a3505050565b5f6113d98484610f2c565b90507fffffffffffffffffffffffffffffffffffffffffffffffffffffffffffffffff8110156114545781811015611446576040517f08c379a000000000000000000000000000000000000000000000000000000000815260040161143d90612314565b60405180910390fd5b611453848484840361112e565b5b50505050565b60035f8473ffffffffffffffffffffffffffffffffffffffff1673ffffffffffffffffffffffffffffffffffffffff1681526020019081526020015f205f9054906101000a900460ff161580156114f8575060035f8373ffffffffffffffffffffffffffffffffffffffff1673ffffffffffffffffffffffffffffffffffffffff1681526020019081526020015f205f9054906101000a900460ff16155b611537576040517f08c379a000000000000000000000000000000000000000000000000000000000815260040161152e906123a2565b60405180910390fd5b5f73ffffffffffffffffffffffffffffffffffffffff168373ffffffffffffffffffffffffffffffffffffffff16036115a5576040517f08c379a000000000000000000000000000000000000000000000000000000000815260040161159c90612430565b60405180910390fd5b5f73ffffffffffffffffffffffffffffffffffffffff168273ffffffffffffffffffffffffffffffffffffffff1603611613576040517f08c379a000000000000000000000000000000000000000000000000000000000815260040161160a90612498565b60405180910390fd5b61161e8383836119a2565b505050565b61162b611127565b73ffffffffffffffffffffffffffffffffffffffff166116496109ed565b73ffffffffffffffffffffffffffffffffffffffff16146116a85761166c611127565b6040517f118cdaa700000000000000000000000000000000000000000000000000000000815260040161169f9190611c86565b60405180910390fd5b565b6116b2611bc6565b5f5f60146101000a81548160ff0219169083151502179055507f5db9ee0a495bf2e6ff9c91a7834c1ba4fdd244a5e8aa4e537bd38aeae4b073aa6116f4611127565b6040516117019190611c86565b60405180910390a1565b6117136107c6565b600a61171f91906125e5565b6117276107db565b6117319190612033565b8161173a610677565b6117449190612139565b1115611785576040517f08c379a000000000000000000000000000000000000000000000000000000000815260040161177c90612679565b60405180910390fd5b5f73ffffffffffffffffffffffffffffffffffffffff168273ffffffffffffffffffffffffffffffffffffffff16036117f3576040517f08c379a00000000000000000000000000000000000000000000000000000000081526004016117ea906126e1565b60405180910390fd5b6117fe5f83836119a2565b5050565b5f73ffffffffffffffffffffffffffffffffffffffff168273ffffffffffffffffffffffffffffffffffffffff1603611870576040517f08c379a000000000000000000000000000000000000000000000000000000000815260040161186790612749565b60405180910390fd5b61187b825f836119a2565b5050565b5f5f5f9054906101000a900473ffffffffffffffffffffffffffffffffffffffff169050815f5f6101000a81548173ffffffffffffffffffffffffffffffffffffffff021916908373ffffffffffffffffffffffffffffffffffffffff1602179055508173ffffffffffffffffffffffffffffffffffffffff168173ffffffffffffffffffffffffffffffffffffffff167f8be0079c531659141344cd1fd0a4f28419497f9722a3daafe3b4186f6b6457e060405160405180910390a35050565b611948611c06565b60015f60146101000a81548160ff0219169083151502179055507f62e78cea01bee320cd4e420270b5ea74000d11b0c9f74754ebdbfc544b05a25861198b611127565b6040516119989190611c86565b60405180910390a1565b6119aa611c06565b5f73ffffffffffffffffffffffffffffffffffffffff168373ffffffffffffffffffffffffffffffffffffffff16036119fa578060045f8282546119ee9190612139565b92505081905550611aca565b5f60015f8573ffffffffffffffffffffffffffffffffffffffff1673ffffffffffffffffffffffffffffffffffffffff1681526020019081526020015f2054905081811015611a7e576040517f08c379a0000000000000000000000000000000000000000000000000000000008152600401611a75906127b1565b60405180910390fd5b8160015f8673ffffffffffffffffffffffffffffffffffffffff1673ffffffffffffffffffffffffffffffffffffffff1681526020019081526020015f205f8282540392505081905550505b5f73ffffffffffffffffffffffffffffffffffffffff168273ffffffffffffffffffffffffffffffffffffffff1603611b11578060045f8282540392505081905550611b5c565b8060015f8473ffffffffffffffffffffffffffffffffffffffff1673ffffffffffffffffffffffffffffffffffffffff1681526020019081526020015f205f82825401925050819055505b8173ffffffffffffffffffffffffffffffffffffffff168373ffffffffffffffffffffffffffffffffffffffff167fddf252ad1be2c89b69c2b068fc378daa952ba7f163c4a11628f55a4df523b3ef83604051611bb99190611e10565b60405180910390a3505050565b611bce6108c2565b611c04576040517f8dfc202b00000000000000000000000000000000000000000000000000000000815260040160405180910390fd5b565b611c0e6108c2565b15611c45576040517fd93c066500000000000000000000000000000000000000000000000000000000815260040160405180910390fd5b565b5f73ffffffffffffffffffffffffffffffffffffffff82169050919050565b5f611c7082611c47565b9050919050565b611c8081611c66565b82525050565b5f602082019050611c995f830184611c77565b92915050565b5f81519050919050565b5f82825260208201905092915050565b8281835e5f83830152505050565b5f601f19601f8301169050919050565b5f611ce182611c9f565b611ceb8185611ca9565b9350611cfb818560208601611cb9565b611d0481611cc7565b840191505092915050565b5f6020820190508181035f830152611d278184611cd7565b905092915050565b5f5ffd5b611d3c81611c66565b8114611d46575f5ffd5b50565b5f81359050611d5781611d33565b92915050565b5f819050919050565b611d6f81611d5d565b8114611d79575f5ffd5b50565b5f81359050611d8a81611d66565b92915050565b5f5f60408385031215611da657611da5611d2f565b5b5f611db385828601611d49565b9250506020611dc485828601611d7c565b9150509250929050565b5f8115159050919050565b611de281611dce565b82525050565b5f602082019050611dfb5f830184611dd9565b92915050565b611e0a81611d5d565b82525050565b5f602082019050611e235f830184611e01565b92915050565b5f5f5f60608486031215611e4057611e3f611d2f565b5b5f611e4d86828701611d49565b9350506020611e5e86828701611d49565b9250506040611e6f86828701611d7c565b9150509250925092565b5f60ff82169050919050565b611e8e81611e79565b82525050565b5f602082019050611ea75f830184611e85565b92915050565b5f60208284031215611ec257611ec1611d2f565b5b5f611ecf84828501611d7c565b91505092915050565b5f60208284031215611eed57611eec611d2f565b5b5f611efa84828501611d49565b91505092915050565b5f5f60408385031215611f1957611f18611d2f565b5b5f611f2685828601611d49565b9250506020611f3785828601611d49565b9150509250929050565b7f4e487b71000000000000000000000000000000000000000000000000000000005f52602260045260245ffd5b5f6002820490506001821680611f8557607f821691505b602082108103611f9857611f97611f41565b5b50919050565b7f426c61636b6c69737465642061646472657373000000000000000000000000005f82015250565b5f611fd2601383611ca9565b9150611fdd82611f9e565b602082019050919050565b5f6020820190508181035f830152611fff81611fc6565b9050919050565b7f4e487b71000000000000000000000000000000000000000000000000000000005f52601160045260245ffd5b5f61203d82611d5d565b915061204883611d5d565b925082820261205681611d5d565b9150828204841483151761206d5761206c612006565b5b5092915050565b7f4e487b71000000000000000000000000000000000000000000000000000000005f52601260045260245ffd5b5f6120ab82611d5d565b91506120b683611d5d565b9250826120c6576120c5612074565b5b828204905092915050565b5f6120db82611d5d565b91506120e683611d5d565b92508282039050818111156120fe576120fd612006565b5b92915050565b5f6060820190506121175f830186611c77565b6121246020830185611e01565b6121316040830184611e01565b949350505050565b5f61214382611d5d565b915061214e83611d5d565b925082820190508082111561216657612165612006565b5b92915050565b7f417070726f76652066726f6d2f746f20626c61636b6c697374656420616464725f8201527f6573730000000000000000000000000000000000000000000000000000000000602082015250565b5f6121c6602383611ca9565b91506121d18261216c565b604082019050919050565b5f6020820190508181035f8301526121f3816121ba565b9050919050565b7f45524332303a20617070726f76652066726f6d207a65726f20616464726573735f82015250565b5f61222e602083611ca9565b9150612239826121fa565b602082019050919050565b5f6020820190508181035f83015261225b81612222565b9050919050565b7f45524332303a20617070726f766520746f207a65726f206164647265737300005f82015250565b5f612296601e83611ca9565b91506122a182612262565b602082019050919050565b5f6020820190508181035f8301526122c38161228a565b9050919050565b7f45524332303a20696e73756666696369656e7420616c6c6f77616e63650000005f82015250565b5f6122fe601d83611ca9565b9150612309826122ca565b602082019050919050565b5f6020820190508181035f83015261232b816122f2565b9050919050565b7f5472616e736665722066726f6d2f746f20626c61636b6c6973746564206164645f8201527f7265737300000000000000000000000000000000000000000000000000000000602082015250565b5f61238c602483611ca9565b915061239782612332565b604082019050919050565b5f6020820190508181035f8301526123b981612380565b9050919050565b7f45524332303a207472616e736665722066726f6d207a65726f206164647265735f8201527f7300000000000000000000000000000000000000000000000000000000000000602082015250565b5f61241a602183611ca9565b9150612425826123c0565b604082019050919050565b5f6020820190508181035f8301526124478161240e565b9050919050565b7f45524332303a207472616e7366657220746f207a65726f2061646472657373005f82015250565b5f612482601f83611ca9565b915061248d8261244e565b602082019050919050565b5f6020820190508181035f8301526124af81612476565b9050919050565b5f8160011c9050919050565b5f5f8291508390505b600185111561250b578086048111156124e7576124e6612006565b5b60018516156124f65780820291505b8081029050612504856124b6565b94506124cb565b94509492505050565b5f8261252357600190506125de565b81612530575f90506125de565b816001811461254657600281146125505761257f565b60019150506125de565b60ff84111561256257612561612006565b5b8360020a91508482111561257957612578612006565b5b506125de565b5060208310610133831016604e8410600b84101617156125b45782820a9050838111156125af576125ae612006565b5b6125de565b6125c184848460016124c2565b925090508184048111156125d8576125d7612006565b5b81810290505b9392505050565b5f6125ef82611d5d565b91506125fa83611e79565b92506126277fffffffffffffffffffffffffffffffffffffffffffffffffffffffffffffffff8484612514565b905092915050565b7f45524332304361707065643a20636170206578636565646564000000000000005f82015250565b5f612663601983611ca9565b915061266e8261262f565b602082019050919050565b5f6020820190508181035f83015261269081612657565b9050919050565b7f45524332303a206d696e7420746f207a65726f206164647265737300000000005f82015250565b5f6126cb601b83611ca9565b91506126d682612697565b602082019050919050565b5f6020820190508181035f8301526126f8816126bf565b9050919050565b7f45524332303a206275726e2066726f6d207a65726f20616464726573730000005f82015250565b5f612733601d83611ca9565b915061273e826126ff565b602082019050919050565b5f6020820190508181035f83015261276081612727565b9050919050565b7f45524332303a20696e73756666696369656e742062616c616e636500000000005f82015250565b5f61279b601b83611ca9565b91506127a682612767565b602082019050919050565b5f6020820190508181035f8301526127c88161278f565b905091905056fea26469706673582212203edd9fc59fc7f2f46804447b37c3d5208d72b2ccf55dc987d977062594cfd91064736f6c634300081c0033","linkReferences":{}},"methodIdentifiers":{"allowance(address,address)":"dd62ed3e","approve(address,uint256)":"095ea7b3","balanceOf(address)":"70a08231","blacklistAddress(address)":"f3290d75","burn(uint256)":"42966c68","burnFrom(address,uint256)":"79cc6790","cap()":"355274ea","decimals()":"313ce567","getTaxFeeRecipient()":"03073dfc","getTransferTaxBps()":"743bfe70","isBlacklisted(address)":"fe575a87","mint(address,uint256)":"40c10f19","name()":"06fdde03","owner()":"8da5cb5b","pause()":"8456cb59","paused()":"5c975abb","renounceOwnership()":"715018a6","symbol()":"95d89b41","totalSupply()":"18160ddd","transfer(address,uint256)":"a9059cbb","transferFrom(address,address,uint256)":"23b872dd","transferOwnership(address)":"f2fde38b","unblacklistAddress(address)":"45e34949","unpause()":"3f4ba83a","updateTaxFeeRecipient(address)":"8baace25"},"id":37}