{"abi":[{"type":"constructor","inputs":[{"name":"name_","type":"string","internalType":"string"},{"name":"symbol_","type":"string","internalType":"string"},{"name":"decimals_","type":"uint8","internalType":"uint8"},{"name":"totalSupply_","type":"uint256","internalType":"uint256"},{"name":"cap_","type":"uint256","internalType":"uint256"},{"name":"serviceFeeReceiver_","type":"address","internalType":"address"},{"name":"serviceFee_","type":"uint256","internalType":"uint256"},{"name":"transferTaxBps_","type":"uint256","internalType":"uint256"},{"name":"taxFeeRecipient_","type":"address","internalType":"address"}],"stateMutability":"payable"},{"type":"function","name":"allowance","inputs":[{"name":"owner","type":"address","internalType":"address"},{"name":"spender","type":"address","internalType":"address"}],"outputs":[{"name":"","type":"uint256","internalType":"uint256"}],"stateMutability":"view"},{"type":"function","name":"approve","inputs":[{"name":"spender","type":"address","internalType":"address"},{"name":"value","type":"uint256","internalType":"uint256"}],"outputs":[{"name":"","type":"bool","internalType":"bool"}],"stateMutability":"nonpayable"},{"type":"function","name":"balanceOf","inputs":[{"name":"account","type":"address","internalType":"address"}],"outputs":[{"name":"","type":"uint256","internalType":"uint256"}],"stateMutability":"view"},{"type":"function","name":"blacklistAddress","inputs":[{"name":"account","type":"address","internalType":"address"}],"outputs":[],"stateMutability":"nonpayable"},{"type":"function","name":"burn","inputs":[{"name":"value","type":"uint256","internalType":"uint256"}],"outputs":[],"stateMutability":"nonpayable"},{"type":"function","name":"burnFrom","inputs":[{"name":"account","type":"address","internalType":"address"},{"name":"value","type":"uint256","internalType":"uint256"}],"outputs":[],"stateMutability":"nonpayable"},{"type":"function","name":"cap","inputs":[],"outputs":[{"name":"","type":"uint256","internalType":"uint256"}],"stateMutability":"view"},{"type":"function","name":"decimals","inputs":[],"outputs":[{"name":"","type":"uint8","internalType":"uint8"}],"stateMutability":"view"},{"type":"function","name":"getTaxFeeRecipient","inputs":[],"outputs":[{"name":"","type":"address","internalType":"address"}],"stateMutability":"view"},{"type":"function","name":"getTransferTaxBps","inputs":[],"outputs":[{"name":"","type":"uint256","internalType":"uint256"}],"stateMutability":"view"},{"type":"function","name":"isBlacklisted","inputs":[{"name":"account","type":"address","internalType":"address"}],"outputs":[{"name":"","type":"bool","internalType":"bool"}],"stateMutability":"view"},{"type":"function","name":"mint","inputs":[{"name":"to","type":"address","internalType":"address"},{"name":"amount","type":"uint256","internalType":"uint256"}],"outputs":[],"stateMutability":"nonpayable"},{"type":"function","name":"name","inputs":[],"outputs":[{"name":"","type":"string","internalType":"string"}],"stateMutability":"view"},{"type":"function","name":"owner","inputs":[],"outputs":[{"name":"","type":"address","internalType":"address"}],"stateMutability":"view"},{"type":"function","name":"pause","inputs":[],"outputs":[],"stateMutability":"nonpayable"},{"type":"function","name":"paused","inputs":[],"outputs":[{"name":"","type":"bool","internalType":"bool"}],"stateMutability":"view"},{"type":"function","name":"renounceOwnership","inputs":[],"outputs":[],"stateMutability":"nonpayable"},{"type":"function","name":"symbol","inputs":[],"outputs":[{"name":"","type":"string","internalType":"string"}],"stateMutability":"view"},{"type":"function","name":"totalSupply","inputs":[],"outputs":[{"name":"","type":"uint256","internalType":"uint256"}],"stateMutability":"view"},{"type":"function","name":"transfer","inputs":[{"name":"to","type":"address","internalType":"address"},{"name":"value","type":"uint256","internalType":"uint256"}],"outputs":[{"name":"","type":"bool","internalType":"bool"}],"stateMutability":"nonpayable"},{"type":"function","name":"transferFrom","inputs":[{"name":"from","type":"address","internalType":"address"},{"name":"to","type":"address","internalType":"address"},{"name":"value","type":"uint256","internalType":"uint256"}],"outputs":[{"name":"","type":"bool","internalType":"bool"}],"stateMutability":"nonpayable"},{"type":"function","name":"transferOwnership","inputs":[{"name":"newOwner","type":"address","internalType":"address"}],"outputs":[],"stateMutability":"nonpayable"},{"type":"function","name":"unblacklistAddress","inputs":[{"name":"account","type":"address","internalType":"address"}],"outputs":[],"stateMutability":"nonpayable"},{"type":"function","name":"unpause","inputs":[],"outputs":[],"stateMutability":"nonpayable"},{"type":"function","name":"updateTaxFeeRecipient","inputs":[{"name":"newTaxFeeRecipient","type":"address","internalType":"address"}],"outputs":[],"stateMutability":"nonpayable"},{"type":"event","name":"Approval","inputs":[{"name":"owner","type":"address","indexed":true,"internalType":"address"},{"name":"spender","type":"address","indexed":true,"internalType":"address"},{"name":"value","type":"uint256","indexed":false,"internalType":"uint256"}],"anonymous":false},{"type":"event","name":"Blacklisted","inputs":[{"name":"account","type":"address","indexed":true,"internalType":"address"}],"anonymous":false},{"type":"event","name":"OwnershipTransferred","inputs":[{"name":"previousOwner","type":"address","indexed":true,"internalType":"address"},{"name":"newOwner","type":"address","indexed":true,"internalType":"address"}],"anonymous":false},{"type":"event","name":"Paused","inputs":[{"name":"account","type":"address","indexed":false,"internalType":"address"}],"anonymous":false},{"type":"event","name":"TaxFeeRecipientUpdated","inputs":[{"name":"newTaxFeeRecipient","type":"address","indexed":false,"internalType":"address"}],"anonymous":false},{"type":"event","name":"Transfer","inputs":[{"name":"from","type":"address","indexed":true,"internalType":"address"},{"name":"to","type":"address","indexed":true,"internalType":"address"},{"name":"value","type":"uint256","indexed":false,"internalType":"uint256"}],"anonymous":false},{"type":"event","name":"Unblacklisted","inputs":[{"name":"account","type":"address","indexed":true,"internalType":"address"}],"anonymous":false},{"type":"event","name":"Unpaused","inputs":[{"name":"account","type":"address","indexed":false,"internalType":"address"}],"anonymous":false},{"type":"error","name":"ERC20InsufficientAllowance","inputs":[{"name":"spender","type":"address","internalType":"address"},{"name":"allowance","type":"uint256","internalType":"uint256"},{"name":"needed","type":"uint256","internalType":"uint256"}]},{"type":"error","name":"ERC20InsufficientBalance","inputs":[{"name":"sender","type":"address","internalType":"address"},{"name":"balance","type":"uint256","internalType":"uint256"},{"name":"needed","type":"uint256","internalType":"uint256"}]},{"type":"error","name":"ERC20InvalidApprover","inputs":[{"name":"approver","type":"address","internalType":"address"}]},{"type":"error","name":"ERC20InvalidReceiver","inputs":[{"name":"receiver","type":"address","internalType":"address"}]},{"type":"error","name":"ERC20InvalidSender","inputs":[{"name":"sender","type":"address","internalType":"address"}]},{"type":"error","name":"ERC20InvalidSpender","inputs":[{"name":"spender","type":"address","internalType":"address"}]},{"type":"error","name":"EnforcedPause","inputs":[]},{"type":"error","name":"ExpectedPause","inputs":[]},{"type":"error","name":"OwnableInvalidOwner","inputs":[{"name":"owner","type":"address","internalType":"address"}]},{"type":"error","name":"OwnableUnauthorizedAccount","inputs":[{"name":"account","type":"address","internalType":"address"}]}],"bytecode":{"object":"0x608060405260405162003d5238038062003d52833981810160405281019062000029919062000afa565b335f73ffffffffffffffffffffffffffffffffffffffff168173ffffffffffffffffffffffffffffffffffffffff16036200009d575f6040517f1e4fbdf700000000000000000000000000000000000000000000000000000000815260040162000094919062000c22565b60405180910390fd5b620000ae81620003d960201b60201c565b505f8060146101000a81548160ff0219169083151502179055508860059081620000d9919062000e6b565b508760069081620000eb919062000e6b565b508660075f6101000a81548160ff021916908360ff1602179055508160098190555080600a5f6101000a81548173ffffffffffffffffffffffffffffffffffffffff021916908373ffffffffffffffffffffffffffffffffffffffff1602179055505f851162000192576040517f08c379a0000000000000000000000000000000000000000000000000000000008152600401620001899062000fad565b60405180910390fd5b84600881905550620001a96200049a60201b60201c565b600a620001b791906200114a565b620001c7620004af60201b60201c565b620001d391906200119a565b86111562000218576040517f08c379a00000000000000000000000000000000000000000000000000000000081526004016200020f9062001232565b60405180910390fd5b823410156200025e576040517f08c379a00000000000000000000000000000000000000000000000000000000081526004016200025590620012a0565b60405180910390fd5b5f73ffffffffffffffffffffffffffffffffffffffff168473ffffffffffffffffffffffffffffffffffffffff1603620002cf576040517f08c379a0000000000000000000000000000000000000000000000000000000008152600401620002c6906200130e565b60405180910390fd5b5f8473ffffffffffffffffffffffffffffffffffffffff1684604051620002f6906200135f565b5f6040518083038185875af1925050503d805f811462000332576040519150601f19603f3d011682016040523d82523d5f602084013e62000337565b606091505b50509050806200037e576040517f08c379a00000000000000000000000000000000000000000000000000000000081526004016200037590620013c3565b60405180910390fd5b620003c962000392620004b860201b60201c565b620003a26200049a60201b60201c565b600a620003b091906200114a565b89620003bd91906200119a565b620004df60201b60201c565b5050505050505050505062001525565b5f805f9054906101000a900473ffffffffffffffffffffffffffffffffffffffff169050815f806101000a81548173ffffffffffffffffffffffffffffffffffffffff021916908373ffffffffffffffffffffffffffffffffffffffff1602179055508173ffffffffffffffffffffffffffffffffffffffff168173ffffffffffffffffffffffffffffffffffffffff167f8be0079c531659141344cd1fd0a4f28419497f9722a3daafe3b4186f6b6457e060405160405180910390a35050565b5f60075f9054906101000a900460ff16905090565b5f600854905090565b5f805f9054906101000a900473ffffffffffffffffffffffffffffffffffffffff16905090565b620004ef6200049a60201b60201c565b600a620004fd91906200114a565b6200050d620004af60201b60201c565b6200051991906200119a565b816200052a6200060260201b60201c565b620005369190620013e3565b11156200057a576040517f08c379a0000000000000000000000000000000000000000000000000000000008152600401620005719062001232565b60405180910390fd5b5f73ffffffffffffffffffffffffffffffffffffffff168273ffffffffffffffffffffffffffffffffffffffff1603620005eb576040517f08c379a0000000000000000000000000000000000000000000000000000000008152600401620005e2906200146b565b60405180910390fd5b620005fe5f83836200060b60201b60201c565b5050565b5f600454905090565b6200061b6200084260201b60201c565b5f73ffffffffffffffffffffffffffffffffffffffff168373ffffffffffffffffffffffffffffffffffffffff16036200066f578060045f828254620006629190620013e3565b9250508190555062000742565b5f60015f8573ffffffffffffffffffffffffffffffffffffffff1673ffffffffffffffffffffffffffffffffffffffff1681526020019081526020015f2054905081811015620006f6576040517f08c379a0000000000000000000000000000000000000000000000000000000008152600401620006ed90620014d9565b60405180910390fd5b8160015f8673ffffffffffffffffffffffffffffffffffffffff1673ffffffffffffffffffffffffffffffffffffffff1681526020019081526020015f205f8282540392505081905550505b5f73ffffffffffffffffffffffffffffffffffffffff168273ffffffffffffffffffffffffffffffffffffffff16036200078b578060045f8282540392505081905550620007d6565b8060015f8473ffffffffffffffffffffffffffffffffffffffff1673ffffffffffffffffffffffffffffffffffffffff1681526020019081526020015f205f82825401925050819055505b8173ffffffffffffffffffffffffffffffffffffffff168373ffffffffffffffffffffffffffffffffffffffff167fddf252ad1be2c89b69c2b068fc378daa952ba7f163c4a11628f55a4df523b3ef836040516200083591906200150a565b60405180910390a3505050565b620008526200088c60201b60201c565b156200088a576040517fd93c066500000000000000000000000000000000000000000000000000000000815260040160405180910390fd5b565b5f8060149054906101000a900460ff16905090565b5f604051905090565b5f80fd5b5f80fd5b5f80fd5b5f80fd5b5f601f19601f8301169050919050565b7f4e487b71000000000000000000000000000000000000000000000000000000005f52604160045260245ffd5b6200090282620008ba565b810181811067ffffffffffffffff82111715620009245762000923620008ca565b5b80604052505050565b5f62000938620008a1565b9050620009468282620008f7565b919050565b5f67ffffffffffffffff821115620009685762000967620008ca565b5b6200097382620008ba565b9050602081019050919050565b5f5b838110156200099f57808201518184015260208101905062000982565b5f8484015250505050565b5f620009c0620009ba846200094b565b6200092d565b905082815260208101848484011115620009df57620009de620008b6565b5b620009ec84828562000980565b509392505050565b5f82601f83011262000a0b5762000a0a620008b2565b5b815162000a1d848260208601620009aa565b91505092915050565b5f60ff82169050919050565b62000a3d8162000a26565b811462000a48575f80fd5b50565b5f8151905062000a5b8162000a32565b92915050565b5f819050919050565b62000a758162000a61565b811462000a80575f80fd5b50565b5f8151905062000a938162000a6a565b92915050565b5f73ffffffffffffffffffffffffffffffffffffffff82169050919050565b5f62000ac48262000a99565b9050919050565b62000ad68162000ab8565b811462000ae1575f80fd5b50565b5f8151905062000af48162000acb565b92915050565b5f805f805f805f805f6101208a8c03121562000b1b5762000b1a620008aa565b5b5f8a015167ffffffffffffffff81111562000b3b5762000b3a620008ae565b5b62000b498c828d01620009f4565b99505060208a015167ffffffffffffffff81111562000b6d5762000b6c620008ae565b5b62000b7b8c828d01620009f4565b985050604062000b8e8c828d0162000a4b565b975050606062000ba18c828d0162000a83565b965050608062000bb48c828d0162000a83565b95505060a062000bc78c828d0162000ae4565b94505060c062000bda8c828d0162000a83565b93505060e062000bed8c828d0162000a83565b92505061010062000c018c828d0162000ae4565b9150509295985092959850929598565b62000c1c8162000ab8565b82525050565b5f60208201905062000c375f83018462000c11565b92915050565b5f81519050919050565b7f4e487b71000000000000000000000000000000000000000000000000000000005f52602260045260245ffd5b5f600282049050600182168062000c8c57607f821691505b60208210810362000ca25762000ca162000c47565b5b50919050565b5f819050815f5260205f209050919050565b5f6020601f8301049050919050565b5f82821b905092915050565b5f6008830262000d067fffffffffffffffffffffffffffffffffffffffffffffffffffffffffffffffff8262000cc9565b62000d12868362000cc9565b95508019841693508086168417925050509392505050565b5f819050919050565b5f62000d5362000d4d62000d478462000a61565b62000d2a565b62000a61565b9050919050565b5f819050919050565b62000d6e8362000d33565b62000d8662000d7d8262000d5a565b84845462000cd5565b825550505050565b5f90565b62000d9c62000d8e565b62000da981848462000d63565b505050565b5b8181101562000dd05762000dc45f8262000d92565b60018101905062000daf565b5050565b601f82111562000e1f5762000de98162000ca8565b62000df48462000cba565b8101602085101562000e04578190505b62000e1c62000e138562000cba565b83018262000dae565b50505b505050565b5f82821c905092915050565b5f62000e415f198460080262000e24565b1980831691505092915050565b5f62000e5b838362000e30565b9150826002028217905092915050565b62000e768262000c3d565b67ffffffffffffffff81111562000e925762000e91620008ca565b5b62000e9e825462000c74565b62000eab82828562000dd4565b5f60209050601f83116001811462000ee1575f841562000ecc578287015190505b62000ed8858262000e4e565b86555062000f47565b601f19841662000ef18662000ca8565b5f5b8281101562000f1a5784890151825560018201915060208501945060208101905062000ef3565b8683101562000f3a578489015162000f36601f89168262000e30565b8355505b6001600288020188555050505b505050505050565b5f82825260208201905092915050565b7f4361702073686f756c642062652067726561746572207468616e2030000000005f82015250565b5f62000f95601c8362000f4f565b915062000fa28262000f5f565b602082019050919050565b5f6020820190508181035f83015262000fc68162000f87565b9050919050565b7f4e487b71000000000000000000000000000000000000000000000000000000005f52601160045260245ffd5b5f8160011c9050919050565b5f808291508390505b600185111562001057578086048111156200102f576200102e62000fcd565b5b60018516156200103f5780820291505b80810290506200104f8562000ffa565b94506200100f565b94509492505050565b5f8262001071576001905062001143565b8162001080575f905062001143565b8160018114620010995760028114620010a457620010da565b600191505062001143565b60ff841115620010b957620010b862000fcd565b5b8360020a915084821115620010d357620010d262000fcd565b5b5062001143565b5060208310610133831016604e8410600b8410161715620011145782820a9050838111156200110e576200110d62000fcd565b5b62001143565b62001123848484600162001006565b925090508184048111156200113d576200113c62000fcd565b5b81810290505b9392505050565b5f620011568262000a61565b9150620011638362000a26565b9250620011927fffffffffffffffffffffffffffffffffffffffffffffffffffffffffffffffff848462001060565b905092915050565b5f620011a68262000a61565b9150620011b38362000a61565b9250828202620011c38162000a61565b91508282048414831517620011dd57620011dc62000fcd565b5b5092915050565b7f45524332304361707065643a20636170206578636565646564000000000000005f82015250565b5f6200121a60198362000f4f565b91506200122782620011e4565b602082019050919050565b5f6020820190508181035f8301526200124b816200120c565b9050919050565b7f496e73756666696369656e742066656520616d6f756e742073656e74000000005f82015250565b5f62001288601c8362000f4f565b9150620012958262001252565b602082019050919050565b5f6020820190508181035f830152620012b9816200127a565b9050919050565b7f496e76616c6964206665652072656365697665722061646472657373000000005f82015250565b5f620012f6601c8362000f4f565b91506200130382620012c0565b602082019050919050565b5f6020820190508181035f8301526200132781620012e8565b9050919050565b5f81905092915050565b50565b5f620013485f836200132e565b9150620013558262001338565b5f82019050919050565b5f6200136b826200133b565b9150819050919050565b7f466565207472616e73666572206661696c6564000000000000000000000000005f82015250565b5f620013ab60138362000f4f565b9150620013b88262001375565b602082019050919050565b5f6020820190508181035f830152620013dc816200139d565b9050919050565b5f620013ef8262000a61565b9150620013fc8362000a61565b925082820190508082111562001417576200141662000fcd565b5b92915050565b7f45524332303a206d696e7420746f207a65726f206164647265737300000000005f82015250565b5f62001453601b8362000f4f565b915062001460826200141d565b602082019050919050565b5f6020820190508181035f830152620014848162001445565b9050919050565b7f45524332303a20696e73756666696369656e742062616c616e636500000000005f82015250565b5f620014c1601b8362000f4f565b9150620014ce826200148b565b602082019050919050565b5f6020820190508181035f830152620014f281620014b3565b9050919050565b620015048162000a61565b82525050565b5f6020820190506200151f5f830184620014f9565b92915050565b61281f80620015335f395ff3fe608060405234801561000f575f80fd5b5060043610610171575f3560e01c806370a08231116100dc5780638da5cb5b11610095578063dd62ed3e1161006f578063dd62ed3e146103ed578063f2fde38b1461041d578063f3290d7514610439578063fe575a871461045557610171565b80638da5cb5b1461038157806395d89b411461039f578063a9059cbb146103bd57610171565b806370a08231146102e7578063715018a614610317578063743bfe701461032157806379cc67901461033f5780638456cb591461035b5780638baace251461036557610171565b8063355274ea1161012e578063355274ea1461024d5780633f4ba83a1461026b57806340c10f191461027557806342966c681461029157806345e34949146102ad5780635c975abb146102c957610171565b806303073dfc1461017557806306fdde0314610193578063095ea7b3146101b157806318160ddd146101e157806323b872dd146101ff578063313ce5671461022f575b5f80fd5b61017d610485565b60405161018a9190611c86565b60405180910390f35b61019b6104ad565b6040516101a89190611d29565b60405180910390f35b6101cb60048036038101906101c69190611daa565b61053d565b6040516101d89190611e02565b60405180910390f35b6101e9610677565b6040516101f69190611e2a565b60405180910390f35b61021960048036038101906102149190611e43565b610680565b6040516102269190611e02565b60405180910390f35b6102376107c6565b6040516102449190611eae565b60405180910390f35b6102556107db565b6040516102629190611e2a565b60405180910390f35b6102736107e4565b005b61028f600480360381019061028a9190611daa565b6107f6565b005b6102ab60048036038101906102a69190611ec7565b61080c565b005b6102c760048036038101906102c29190611ef2565b610820565b005b6102d16108c2565b6040516102de9190611e02565b60405180910390f35b61030160048036038101906102fc9190611ef2565b6108d7565b60405161030e9190611e2a565b60405180910390f35b61031f61091d565b005b610329610930565b6040516103369190611e2a565b60405180910390f35b61035960048036038101906103549190611daa565b610939565b005b610363610959565b005b61037f600480360381019061037a9190611ef2565b61096b565b005b6103896109ed565b6040516103969190611c86565b60405180910390f35b6103a7610a14565b6040516103b49190611d29565b60405180910390f35b6103d760048036038101906103d29190611daa565b610aa4565b6040516103e49190611e02565b60405180910390f35b61040760048036038101906104029190611f1d565b610f2c565b6040516104149190611e2a565b60405180910390f35b61043760048036038101906104329190611ef2565b610fae565b005b610453600480360381019061044e9190611ef2565b611032565b005b61046f600480360381019061046a9190611ef2565b6110d5565b60405161047c9190611e02565b60405180910390f35b5f600a5f9054906101000a900473ffffffffffffffffffffffffffffffffffffffff16905090565b6060600580546104bc90611f88565b80601f01602080910402602001604051908101604052809291908181526020018280546104e890611f88565b80156105335780601f1061050a57610100808354040283529160200191610533565b820191905f5260205f20905b81548152906001019060200180831161051657829003601f168201915b5050505050905090565b5f3360035f8273ffffffffffffffffffffffffffffffffffffffff1673ffffffffffffffffffffffffffffffffffffffff1681526020019081526020015f205f9054906101000a900460ff16156105c9576040517f08c379a00000000000000000000000000000000000000000000000000000000081526004016105c090612002565b60405180910390fd5b8360035f8273ffffffffffffffffffffffffffffffffffffffff1673ffffffffffffffffffffffffffffffffffffffff1681526020019081526020015f205f9054906101000a900460ff1615610654576040517f08c379a000000000000000000000000000000000000000000000000000000000815260040161064b90612002565b60405180910390fd5b5f61065d611127565b905061066a81878761112e565b6001935050505092915050565b5f600454905090565b5f8360035f8273ffffffffffffffffffffffffffffffffffffffff1673ffffffffffffffffffffffffffffffffffffffff1681526020019081526020015f205f9054906101000a900460ff161561070c576040517f08c379a000000000000000000000000000000000000000000000000000000000815260040161070390612002565b60405180910390fd5b8360035f8273ffffffffffffffffffffffffffffffffffffffff1673ffffffffffffffffffffffffffffffffffffffff1681526020019081526020015f205f9054906101000a900460ff1615610797576040517f08c379a000000000000000000000000000000000000000000000000000000000815260040161078e90612002565b60405180910390fd5b5f6107a0611127565b90506107ad8782876113ce565b6107b887878761145a565b600193505050509392505050565b5f60075f9054906101000a900460ff16905090565b5f600854905090565b6107ec611623565b6107f46116aa565b565b6107fe611623565b610808828261170b565b5050565b61081d610817611127565b82611802565b50565b610828611623565b5f60035f8373ffffffffffffffffffffffffffffffffffffffff1673ffffffffffffffffffffffffffffffffffffffff1681526020019081526020015f205f6101000a81548160ff0219169083151502179055508073ffffffffffffffffffffffffffffffffffffffff167f7534c63860313c46c473e4e98328f37017e9674e2162faf1a3ad7a96236c3b7b60405160405180910390a250565b5f8060149054906101000a900460ff16905090565b5f60015f8373ffffffffffffffffffffffffffffffffffffffff1673ffffffffffffffffffffffffffffffffffffffff1681526020019081526020015f20549050919050565b610925611623565b61092e5f61187f565b565b5f600954905090565b61094b82610945611127565b836113ce565b6109558282611802565b5050565b610961611623565b610969611940565b565b610973611623565b80600a5f6101000a81548173ffffffffffffffffffffffffffffffffffffffff021916908373ffffffffffffffffffffffffffffffffffffffff1602179055507f3ca9233bd3849737ab1049144180bc625db2d51ca2c5ce949e7209eb32faa3a2816040516109e29190611c86565b60405180910390a150565b5f805f9054906101000a900473ffffffffffffffffffffffffffffffffffffffff16905090565b606060068054610a2390611f88565b80601f0160208091040260200160405190810160405280929190818152602001828054610a4f90611f88565b8015610a9a5780601f10610a7157610100808354040283529160200191610a9a565b820191905f5260205f20905b815481529060010190602001808311610a7d57829003601f168201915b5050505050905090565b5f3360035f8273ffffffffffffffffffffffffffffffffffffffff1673ffffffffffffffffffffffffffffffffffffffff1681526020019081526020015f205f9054906101000a900460ff1615610b30576040517f08c379a0000000000000000000000000000000000000000000000000000000008152600401610b2790612002565b60405180910390fd5b8360035f8273ffffffffffffffffffffffffffffffffffffffff1673ffffffffffffffffffffffffffffffffffffffff1681526020019081526020015f205f9054906101000a900460ff1615610bbb576040517f08c379a0000000000000000000000000000000000000000000000000000000008152600401610bb290612002565b60405180910390fd5b5f610bc4611127565b90505f61271060095487610bd8919061204d565b610be291906120bb565b90505f8187610bf191906120eb565b90508660015f8573ffffffffffffffffffffffffffffffffffffffff1673ffffffffffffffffffffffffffffffffffffffff1681526020019081526020015f20541015610cb6578260015f8573ffffffffffffffffffffffffffffffffffffffff1673ffffffffffffffffffffffffffffffffffffffff1681526020019081526020015f2054886040517fe450d38c000000000000000000000000000000000000000000000000000000008152600401610cad9392919061211e565b60405180910390fd5b8660015f8573ffffffffffffffffffffffffffffffffffffffff1673ffffffffffffffffffffffffffffffffffffffff1681526020019081526020015f205f828254610d0291906120eb565b925050819055508060015f8a73ffffffffffffffffffffffffffffffffffffffff1673ffffffffffffffffffffffffffffffffffffffff1681526020019081526020015f205f828254610d559190612153565b925050819055505f73ffffffffffffffffffffffffffffffffffffffff16600a5f9054906101000a900473ffffffffffffffffffffffffffffffffffffffff1673ffffffffffffffffffffffffffffffffffffffff1614158015610db857505f82115b15610eb8578160015f600a5f9054906101000a900473ffffffffffffffffffffffffffffffffffffffff1673ffffffffffffffffffffffffffffffffffffffff1673ffffffffffffffffffffffffffffffffffffffff1681526020019081526020015f205f828254610e2a9190612153565b92505081905550600a5f9054906101000a900473ffffffffffffffffffffffffffffffffffffffff1673ffffffffffffffffffffffffffffffffffffffff168373ffffffffffffffffffffffffffffffffffffffff167fddf252ad1be2c89b69c2b068fc378daa952ba7f163c4a11628f55a4df523b3ef84604051610eaf9190611e2a565b60405180910390a35b8773ffffffffffffffffffffffffffffffffffffffff168373ffffffffffffffffffffffffffffffffffffffff167fddf252ad1be2c89b69c2b068fc378daa952ba7f163c4a11628f55a4df523b3ef83604051610f159190611e2a565b60405180910390a360019550505050505092915050565b5f60025f8473ffffffffffffffffffffffffffffffffffffffff1673ffffffffffffffffffffffffffffffffffffffff1681526020019081526020015f205f8373ffffffffffffffffffffffffffffffffffffffff1673ffffffffffffffffffffffffffffffffffffffff1681526020019081526020015f2054905092915050565b610fb6611623565b5f73ffffffffffffffffffffffffffffffffffffffff168173ffffffffffffffffffffffffffffffffffffffff1603611026575f6040517f1e4fbdf700000000000000000000000000000000000000000000000000000000815260040161101d9190611c86565b60405180910390fd5b61102f8161187f565b50565b61103a611623565b600160035f8373ffffffffffffffffffffffffffffffffffffffff1673ffffffffffffffffffffffffffffffffffffffff1681526020019081526020015f205f6101000a81548160ff0219169083151502179055508073ffffffffffffffffffffffffffffffffffffffff167fffa4e6181777692565cf28528fc88fd1516ea86b56da075235fa575af6a4b85560405160405180910390a250565b5f60035f8373ffffffffffffffffffffffffffffffffffffffff1673ffffffffffffffffffffffffffffffffffffffff1681526020019081526020015f205f9054906101000a900460ff169050919050565b5f33905090565b60035f8473ffffffffffffffffffffffffffffffffffffffff1673ffffffffffffffffffffffffffffffffffffffff1681526020019081526020015f205f9054906101000a900460ff161580156111cc575060035f8373ffffffffffffffffffffffffffffffffffffffff1673ffffffffffffffffffffffffffffffffffffffff1681526020019081526020015f205f9054906101000a900460ff16155b61120b576040517f08c379a0000000000000000000000000000000000000000000000000000000008152600401611202906121f6565b60405180910390fd5b5f73ffffffffffffffffffffffffffffffffffffffff168373ffffffffffffffffffffffffffffffffffffffff1603611279576040517f08c379a00000000000000000000000000000000000000000000000000000000081526004016112709061225e565b60405180910390fd5b5f73ffffffffffffffffffffffffffffffffffffffff168273ffffffffffffffffffffffffffffffffffffffff16036112e7576040517f08c379a00000000000000000000000000000000000000000000000000000000081526004016112de906122c6565b60405180910390fd5b8060025f8573ffffffffffffffffffffffffffffffffffffffff1673ffffffffffffffffffffffffffffffffffffffff1681526020019081526020015f205f8473ffffffffffffffffffffffffffffffffffffffff1673ffffffffffffffffffffffffffffffffffffffff1681526020019081526020015f20819055508173ffffffffffffffffffffffffffffffffffffffff168373ffffffffffffffffffffffffffffffffffffffff167f8c5be1e5ebec7d5bd14f71427d1e84f3dd0314c0f7b2291e5b200ac8c7c3b925836040516113c19190611e2a565b60405180910390a3505050565b5f6113d98484610f2c565b90507fffffffffffffffffffffffffffffffffffffffffffffffffffffffffffffffff8110156114545781811015611446576040517f08c379a000000000000000000000000000000000000000000000000000000000815260040161143d9061232e565b60405180910390fd5b611453848484840361112e565b5b50505050565b60035f8473ffffffffffffffffffffffffffffffffffffffff1673ffffffffffffffffffffffffffffffffffffffff1681526020019081526020015f205f9054906101000a900460ff161580156114f8575060035f8373ffffffffffffffffffffffffffffffffffffffff1673ffffffffffffffffffffffffffffffffffffffff1681526020019081526020015f205f9054906101000a900460ff16155b611537576040517f08c379a000000000000000000000000000000000000000000000000000000000815260040161152e906123bc565b60405180910390fd5b5f73ffffffffffffffffffffffffffffffffffffffff168373ffffffffffffffffffffffffffffffffffffffff16036115a5576040517f08c379a000000000000000000000000000000000000000000000000000000000815260040161159c9061244a565b60405180910390fd5b5f73ffffffffffffffffffffffffffffffffffffffff168273ffffffffffffffffffffffffffffffffffffffff1603611613576040517f08c379a000000000000000000000000000000000000000000000000000000000815260040161160a906124b2565b60405180910390fd5b61161e8383836119a2565b505050565b61162b611127565b73ffffffffffffffffffffffffffffffffffffffff166116496109ed565b73ffffffffffffffffffffffffffffffffffffffff16146116a85761166c611127565b6040517f118cdaa700000000000000000000000000000000000000000000000000000000815260040161169f9190611c86565b60405180910390fd5b565b6116b2611bc6565b5f8060146101000a81548160ff0219169083151502179055507f5db9ee0a495bf2e6ff9c91a7834c1ba4fdd244a5e8aa4e537bd38aeae4b073aa6116f4611127565b6040516117019190611c86565b60405180910390a1565b6117136107c6565b600a61171f91906125ff565b6117276107db565b611731919061204d565b8161173a610677565b6117449190612153565b1115611785576040517f08c379a000000000000000000000000000000000000000000000000000000000815260040161177c90612693565b60405180910390fd5b5f73ffffffffffffffffffffffffffffffffffffffff168273ffffffffffffffffffffffffffffffffffffffff16036117f3576040517f08c379a00000000000000000000000000000000000000000000000000000000081526004016117ea906126fb565b60405180910390fd5b6117fe5f83836119a2565b5050565b5f73ffffffffffffffffffffffffffffffffffffffff168273ffffffffffffffffffffffffffffffffffffffff1603611870576040517f08c379a000000000000000000000000000000000000000000000000000000000815260040161186790612763565b60405180910390fd5b61187b825f836119a2565b5050565b5f805f9054906101000a900473ffffffffffffffffffffffffffffffffffffffff169050815f806101000a81548173ffffffffffffffffffffffffffffffffffffffff021916908373ffffffffffffffffffffffffffffffffffffffff1602179055508173ffffffffffffffffffffffffffffffffffffffff168173ffffffffffffffffffffffffffffffffffffffff167f8be0079c531659141344cd1fd0a4f28419497f9722a3daafe3b4186f6b6457e060405160405180910390a35050565b611948611c06565b60015f60146101000a81548160ff0219169083151502179055507f62e78cea01bee320cd4e420270b5ea74000d11b0c9f74754ebdbfc544b05a25861198b611127565b6040516119989190611c86565b60405180910390a1565b6119aa611c06565b5f73ffffffffffffffffffffffffffffffffffffffff168373ffffffffffffffffffffffffffffffffffffffff16036119fa578060045f8282546119ee9190612153565b92505081905550611aca565b5f60015f8573ffffffffffffffffffffffffffffffffffffffff1673ffffffffffffffffffffffffffffffffffffffff1681526020019081526020015f2054905081811015611a7e576040517f08c379a0000000000000000000000000000000000000000000000000000000008152600401611a75906127cb565b60405180910390fd5b8160015f8673ffffffffffffffffffffffffffffffffffffffff1673ffffffffffffffffffffffffffffffffffffffff1681526020019081526020015f205f8282540392505081905550505b5f73ffffffffffffffffffffffffffffffffffffffff168273ffffffffffffffffffffffffffffffffffffffff1603611b11578060045f8282540392505081905550611b5c565b8060015f8473ffffffffffffffffffffffffffffffffffffffff1673ffffffffffffffffffffffffffffffffffffffff1681526020019081526020015f205f82825401925050819055505b8173ffffffffffffffffffffffffffffffffffffffff168373ffffffffffffffffffffffffffffffffffffffff167fddf252ad1be2c89b69c2b068fc378daa952ba7f163c4a11628f55a4df523b3ef83604051611bb99190611e2a565b60405180910390a3505050565b611bce6108c2565b611c04576040517f8dfc202b00000000000000000000000000000000000000000000000000000000815260040160405180910390fd5b565b611c0e6108c2565b15611c45576040517fd93c066500000000000000000000000000000000000000000000000000000000815260040160405180910390fd5b565b5f73ffffffffffffffffffffffffffffffffffffffff82169050919050565b5f611c7082611c47565b9050919050565b611c8081611c66565b82525050565b5f602082019050611c995f830184611c77565b92915050565b5f81519050919050565b5f82825260208201905092915050565b5f5b83811015611cd6578082015181840152602081019050611cbb565b5f8484015250505050565b5f601f19601f8301169050919050565b5f611cfb82611c9f565b611d058185611ca9565b9350611d15818560208601611cb9565b611d1e81611ce1565b840191505092915050565b5f6020820190508181035f830152611d418184611cf1565b905092915050565b5f80fd5b611d5681611c66565b8114611d60575f80fd5b50565b5f81359050611d7181611d4d565b92915050565b5f819050919050565b611d8981611d77565b8114611d93575f80fd5b50565b5f81359050611da481611d80565b92915050565b5f8060408385031215611dc057611dbf611d49565b5b5f611dcd85828601611d63565b9250506020611dde85828601611d96565b9150509250929050565b5f8115159050919050565b611dfc81611de8565b82525050565b5f602082019050611e155f830184611df3565b92915050565b611e2481611d77565b82525050565b5f602082019050611e3d5f830184611e1b565b92915050565b5f805f60608486031215611e5a57611e59611d49565b5b5f611e6786828701611d63565b9350506020611e7886828701611d63565b9250506040611e8986828701611d96565b9150509250925092565b5f60ff82169050919050565b611ea881611e93565b82525050565b5f602082019050611ec15f830184611e9f565b92915050565b5f60208284031215611edc57611edb611d49565b5b5f611ee984828501611d96565b91505092915050565b5f60208284031215611f0757611f06611d49565b5b5f611f1484828501611d63565b91505092915050565b5f8060408385031215611f3357611f32611d49565b5b5f611f4085828601611d63565b9250506020611f5185828601611d63565b9150509250929050565b7f4e487b71000000000000000000000000000000000000000000000000000000005f52602260045260245ffd5b5f6002820490506001821680611f9f57607f821691505b602082108103611fb257611fb1611f5b565b5b50919050565b7f426c61636b6c69737465642061646472657373000000000000000000000000005f82015250565b5f611fec601383611ca9565b9150611ff782611fb8565b602082019050919050565b5f6020820190508181035f83015261201981611fe0565b9050919050565b7f4e487b71000000000000000000000000000000000000000000000000000000005f52601160045260245ffd5b5f61205782611d77565b915061206283611d77565b925082820261207081611d77565b9150828204841483151761208757612086612020565b5b5092915050565b7f4e487b71000000000000000000000000000000000000000000000000000000005f52601260045260245ffd5b5f6120c582611d77565b91506120d083611d77565b9250826120e0576120df61208e565b5b828204905092915050565b5f6120f582611d77565b915061210083611d77565b925082820390508181111561211857612117612020565b5b92915050565b5f6060820190506121315f830186611c77565b61213e6020830185611e1b565b61214b6040830184611e1b565b949350505050565b5f61215d82611d77565b915061216883611d77565b92508282019050808211156121805761217f612020565b5b92915050565b7f417070726f76652066726f6d2f746f20626c61636b6c697374656420616464725f8201527f6573730000000000000000000000000000000000000000000000000000000000602082015250565b5f6121e0602383611ca9565b91506121eb82612186565b604082019050919050565b5f6020820190508181035f83015261220d816121d4565b9050919050565b7f45524332303a20617070726f76652066726f6d207a65726f20616464726573735f82015250565b5f612248602083611ca9565b915061225382612214565b602082019050919050565b5f6020820190508181035f8301526122758161223c565b9050919050565b7f45524332303a20617070726f766520746f207a65726f206164647265737300005f82015250565b5f6122b0601e83611ca9565b91506122bb8261227c565b602082019050919050565b5f6020820190508181035f8301526122dd816122a4565b9050919050565b7f45524332303a20696e73756666696369656e7420616c6c6f77616e63650000005f82015250565b5f612318601d83611ca9565b9150612323826122e4565b602082019050919050565b5f6020820190508181035f8301526123458161230c565b9050919050565b7f5472616e736665722066726f6d2f746f20626c61636b6c6973746564206164645f8201527f7265737300000000000000000000000000000000000000000000000000000000602082015250565b5f6123a6602483611ca9565b91506123b18261234c565b604082019050919050565b5f6020820190508181035f8301526123d38161239a565b9050919050565b7f45524332303a207472616e736665722066726f6d207a65726f206164647265735f8201527f7300000000000000000000000000000000000000000000000000000000000000602082015250565b5f612434602183611ca9565b915061243f826123da565b604082019050919050565b5f6020820190508181035f83015261246181612428565b9050919050565b7f45524332303a207472616e7366657220746f207a65726f2061646472657373005f82015250565b5f61249c601f83611ca9565b91506124a782612468565b602082019050919050565b5f6020820190508181035f8301526124c981612490565b9050919050565b5f8160011c9050919050565b5f808291508390505b60018511156125255780860481111561250157612500612020565b5b60018516156125105780820291505b808102905061251e856124d0565b94506124e5565b94509492505050565b5f8261253d57600190506125f8565b8161254a575f90506125f8565b8160018114612560576002811461256a57612599565b60019150506125f8565b60ff84111561257c5761257b612020565b5b8360020a91508482111561259357612592612020565b5b506125f8565b5060208310610133831016604e8410600b84101617156125ce5782820a9050838111156125c9576125c8612020565b5b6125f8565b6125db84848460016124dc565b925090508184048111156125f2576125f1612020565b5b81810290505b9392505050565b5f61260982611d77565b915061261483611e93565b92506126417fffffffffffffffffffffffffffffffffffffffffffffffffffffffffffffffff848461252e565b905092915050565b7f45524332304361707065643a20636170206578636565646564000000000000005f82015250565b5f61267d601983611ca9565b915061268882612649565b602082019050919050565b5f6020820190508181035f8301526126aa81612671565b9050919050565b7f45524332303a206d696e7420746f207a65726f206164647265737300000000005f82015250565b5f6126e5601b83611ca9565b91506126f0826126b1565b602082019050919050565b5f6020820190508181035f830152612712816126d9565b9050919050565b7f45524332303a206275726e2066726f6d207a65726f20616464726573730000005f82015250565b5f61274d601d83611ca9565b915061275882612719565b602082019050919050565b5f6020820190508181035f83015261277a81612741565b9050919050565b7f45524332303a20696e73756666696369656e742062616c616e636500000000005f82015250565b5f6127b5601b83611ca9565b91506127c082612781565b602082019050919050565b5f6020820190508181035f8301526127e2816127a9565b905091905056fea2646970667358221220f2b01b71c3304d3325d44f9e31efaa72a7dd18485f13337a5a5110509e669c6c64736f6c63430008170033","linkReferences":{}},"methodIdentifiers":{"allowance(address,address)":"dd62ed3e","approve(address,uint256)":"095ea7b3","balanceOf(address)":"70a08231","blacklistAddress(address)":"f3290d75","burn(uint256)":"42966c68","burnFrom(address,uint256)":"79cc6790","cap()":"355274ea","decimals()":"313ce567","getTaxFeeRecipient()":"03073dfc","getTransferTaxBps()":"743bfe70","isBlacklisted(address)":"fe575a87","mint(address,uint256)":"40c10f19","name()":"06fdde03","owner()":"8da5cb5b","pause()":"8456cb59","paused()":"5c975abb","renounceOwnership()":"715018a6","symbol()":"95d89b41","totalSupply()":"18160ddd","transfer(address,uint256)":"a9059cbb","transferFrom(address,address,uint256)":"23b872dd","transferOwnership(address)":"f2fde38b","unblacklistAddress(address)":"45e34949","unpause()":"3f4ba83a","updateTaxFeeRecipient(address)":"8baace25"},"id":37}