{"abi":[{"type":"constructor","inputs":[{"name":"name_","type":"string","internalType":"string"},{"name":"symbol_","type":"string","internalType":"string"},{"name":"decimals_","type":"uint8","internalType":"uint8"},{"name":"totalSupply_","type":"uint256","internalType":"uint256"},{"name":"cap_","type":"uint256","internalType":"uint256"},{"name":"serviceFeeReceiver_","type":"address","internalType":"address"},{"name":"serviceFee_","type":"uint256","internalType":"uint256"}],"stateMutability":"payable"},{"type":"function","name":"allowance","inputs":[{"name":"owner","type":"address","internalType":"address"},{"name":"spender","type":"address","internalType":"address"}],"outputs":[{"name":"","type":"uint256","internalType":"uint256"}],"stateMutability":"view"},{"type":"function","name":"approve","inputs":[{"name":"spender","type":"address","internalType":"address"},{"name":"value","type":"uint256","internalType":"uint256"}],"outputs":[{"name":"","type":"bool","internalType":"bool"}],"stateMutability":"nonpayable"},{"type":"function","name":"balanceOf","inputs":[{"name":"account","type":"address","internalType":"address"}],"outputs":[{"name":"","type":"uint256","internalType":"uint256"}],"stateMutability":"view"},{"type":"function","name":"blacklist","inputs":[{"name":"account","type":"address","internalType":"address"}],"outputs":[],"stateMutability":"nonpayable"},{"type":"function","name":"cap","inputs":[],"outputs":[{"name":"","type":"uint256","internalType":"uint256"}],"stateMutability":"view"},{"type":"function","name":"decimals","inputs":[],"outputs":[{"name":"","type":"uint8","internalType":"uint8"}],"stateMutability":"view"},{"type":"function","name":"isBlacklisted","inputs":[{"name":"account","type":"address","internalType":"address"}],"outputs":[{"name":"","type":"bool","internalType":"bool"}],"stateMutability":"view"},{"type":"function","name":"mint","inputs":[{"name":"to","type":"address","internalType":"address"},{"name":"amount","type":"uint256","internalType":"uint256"}],"outputs":[],"stateMutability":"nonpayable"},{"type":"function","name":"name","inputs":[],"outputs":[{"name":"","type":"string","internalType":"string"}],"stateMutability":"view"},{"type":"function","name":"owner","inputs":[],"outputs":[{"name":"","type":"address","internalType":"address"}],"stateMutability":"view"},{"type":"function","name":"renounceOwnership","inputs":[],"outputs":[],"stateMutability":"nonpayable"},{"type":"function","name":"symbol","inputs":[],"outputs":[{"name":"","type":"string","internalType":"string"}],"stateMutability":"view"},{"type":"function","name":"totalSupply","inputs":[],"outputs":[{"name":"","type":"uint256","internalType":"uint256"}],"stateMutability":"view"},{"type":"function","name":"transfer","inputs":[{"name":"to","type":"address","internalType":"address"},{"name":"value","type":"uint256","internalType":"uint256"}],"outputs":[{"name":"","type":"bool","internalType":"bool"}],"stateMutability":"nonpayable"},{"type":"function","name":"transferFrom","inputs":[{"name":"from","type":"address","internalType":"address"},{"name":"to","type":"address","internalType":"address"},{"name":"value","type":"uint256","internalType":"uint256"}],"outputs":[{"name":"","type":"bool","internalType":"bool"}],"stateMutability":"nonpayable"},{"type":"function","name":"transferOwnership","inputs":[{"name":"newOwner","type":"address","internalType":"address"}],"outputs":[],"stateMutability":"nonpayable"},{"type":"function","name":"unblacklist","inputs":[{"name":"account","type":"address","internalType":"address"}],"outputs":[],"stateMutability":"nonpayable"},{"type":"event","name":"Approval","inputs":[{"name":"owner","type":"address","indexed":true,"internalType":"address"},{"name":"spender","type":"address","indexed":true,"internalType":"address"},{"name":"value","type":"uint256","indexed":false,"internalType":"uint256"}],"anonymous":false},{"type":"event","name":"Blacklisted","inputs":[{"name":"account","type":"address","indexed":true,"internalType":"address"}],"anonymous":false},{"type":"event","name":"OwnershipTransferred","inputs":[{"name":"previousOwner","type":"address","indexed":true,"internalType":"address"},{"name":"newOwner","type":"address","indexed":true,"internalType":"address"}],"anonymous":false},{"type":"event","name":"Transfer","inputs":[{"name":"from","type":"address","indexed":true,"internalType":"address"},{"name":"to","type":"address","indexed":true,"internalType":"address"},{"name":"value","type":"uint256","indexed":false,"internalType":"uint256"}],"anonymous":false},{"type":"event","name":"Unblacklisted","inputs":[{"name":"account","type":"address","indexed":true,"internalType":"address"}],"anonymous":false},{"type":"error","name":"ERC20InsufficientAllowance","inputs":[{"name":"spender","type":"address","internalType":"address"},{"name":"allowance","type":"uint256","internalType":"uint256"},{"name":"needed","type":"uint256","internalType":"uint256"}]},{"type":"error","name":"ERC20InsufficientBalance","inputs":[{"name":"sender","type":"address","internalType":"address"},{"name":"balance","type":"uint256","internalType":"uint256"},{"name":"needed","type":"uint256","internalType":"uint256"}]},{"type":"error","name":"ERC20InvalidApprover","inputs":[{"name":"approver","type":"address","internalType":"address"}]},{"type":"error","name":"ERC20InvalidReceiver","inputs":[{"name":"receiver","type":"address","internalType":"address"}]},{"type":"error","name":"ERC20InvalidSender","inputs":[{"name":"sender","type":"address","internalType":"address"}]},{"type":"error","name":"ERC20InvalidSpender","inputs":[{"name":"spender","type":"address","internalType":"address"}]},{"type":"error","name":"OwnableInvalidOwner","inputs":[{"name":"owner","type":"address","internalType":"address"}]},{"type":"error","name":"OwnableUnauthorizedAccount","inputs":[{"name":"account","type":"address","internalType":"address"}]}],"bytecode":{"object":"0x60806040526040516131a83803806131a883398181016040528101906100259190610a1a565b335f73ffffffffffffffffffffffffffffffffffffffff168173ffffffffffffffffffffffffffffffffffffffff1603610096575f6040517f1e4fbdf700000000000000000000000000000000000000000000000000000000815260040161008d9190610afe565b60405180910390fd5b6100a58161034460201b60201c565b5086600590816100b59190610d1e565b5085600690816100c59190610d1e565b508460075f6101000a81548160ff021916908360ff1602179055505f8311610122576040517f08c379a000000000000000000000000000000000000000000000000000000000815260040161011990610e47565b60405180910390fd5b8260088190555061013761040560201b60201c565b600a6101439190610fc1565b61015161041a60201b60201c565b61015b919061100b565b84111561019d576040517f08c379a000000000000000000000000000000000000000000000000000000000815260040161019490611096565b60405180910390fd5b803410156101e0576040517f08c379a00000000000000000000000000000000000000000000000000000000081526004016101d7906110fe565b60405180910390fd5b5f73ffffffffffffffffffffffffffffffffffffffff168273ffffffffffffffffffffffffffffffffffffffff160361024e576040517f08c379a000000000000000000000000000000000000000000000000000000000815260040161024590611166565b60405180910390fd5b5f8273ffffffffffffffffffffffffffffffffffffffff1682604051610273906111b1565b5f6040518083038185875af1925050503d805f81146102ad576040519150601f19603f3d011682016040523d82523d5f602084013e6102b2565b606091505b50509050806102f6576040517f08c379a00000000000000000000000000000000000000000000000000000000081526004016102ed9061120f565b60405180910390fd5b61033761030761042360201b60201c565b61031561040560201b60201c565b600a6103219190610fc1565b8761032c919061100b565b61044a60201b60201c565b505050505050505061134b565b5f5f5f9054906101000a900473ffffffffffffffffffffffffffffffffffffffff169050815f5f6101000a81548173ffffffffffffffffffffffffffffffffffffffff021916908373ffffffffffffffffffffffffffffffffffffffff1602179055508173ffffffffffffffffffffffffffffffffffffffff168173ffffffffffffffffffffffffffffffffffffffff167f8be0079c531659141344cd1fd0a4f28419497f9722a3daafe3b4186f6b6457e060405160405180910390a35050565b5f60075f9054906101000a900460ff16905090565b5f600854905090565b5f5f5f9054906101000a900473ffffffffffffffffffffffffffffffffffffffff16905090565b60035f8373ffffffffffffffffffffffffffffffffffffffff1673ffffffffffffffffffffffffffffffffffffffff1681526020019081526020015f205f9054906101000a900460ff16156104d4576040517f08c379a00000000000000000000000000000000000000000000000000000000081526004016104cb9061129d565b60405180910390fd5b6104e261040560201b60201c565b600a6104ee9190610fc1565b6104fc61041a60201b60201c565b610506919061100b565b816105156105e560201b60201c565b61051f91906112bb565b1115610560576040517f08c379a000000000000000000000000000000000000000000000000000000000815260040161055790611096565b60405180910390fd5b5f73ffffffffffffffffffffffffffffffffffffffff168273ffffffffffffffffffffffffffffffffffffffff16036105d0575f6040517fec442f050000000000000000000000000000000000000000000000000000000081526004016105c79190610afe565b60405180910390fd5b6105e15f83836105ee60201b60201c565b5050565b5f600454905090565b5f73ffffffffffffffffffffffffffffffffffffffff168373ffffffffffffffffffffffffffffffffffffffff160361063e578060045f82825461063291906112bb565b9250508190555061070e565b5f60015f8573ffffffffffffffffffffffffffffffffffffffff1673ffffffffffffffffffffffffffffffffffffffff1681526020019081526020015f20549050818110156106c8578381836040517fe450d38c0000000000000000000000000000000000000000000000000000000081526004016106bf939291906112fd565b60405180910390fd5b81810360015f8673ffffffffffffffffffffffffffffffffffffffff1673ffffffffffffffffffffffffffffffffffffffff1681526020019081526020015f2081905550505b5f73ffffffffffffffffffffffffffffffffffffffff168273ffffffffffffffffffffffffffffffffffffffff1603610755578060045f82825403925050819055506107a0565b8060015f8473ffffffffffffffffffffffffffffffffffffffff1673ffffffffffffffffffffffffffffffffffffffff1681526020019081526020015f205f82825401925050819055505b8173ffffffffffffffffffffffffffffffffffffffff168373ffffffffffffffffffffffffffffffffffffffff167fddf252ad1be2c89b69c2b068fc378daa952ba7f163c4a11628f55a4df523b3ef836040516107fd9190611332565b60405180910390a3505050565b5f604051905090565b5f5ffd5b5f5ffd5b5f5ffd5b5f5ffd5b5f601f19601f8301169050919050565b7f4e487b71000000000000000000000000000000000000000000000000000000005f52604160045260245ffd5b61086982610823565b810181811067ffffffffffffffff8211171561088857610887610833565b5b80604052505050565b5f61089a61080a565b90506108a68282610860565b919050565b5f67ffffffffffffffff8211156108c5576108c4610833565b5b6108ce82610823565b9050602081019050919050565b8281835e5f83830152505050565b5f6108fb6108f6846108ab565b610891565b9050828152602081018484840111156109175761091661081f565b5b6109228482856108db565b509392505050565b5f82601f83011261093e5761093d61081b565b5b815161094e8482602086016108e9565b91505092915050565b5f60ff82169050919050565b61096c81610957565b8114610976575f5ffd5b50565b5f8151905061098781610963565b92915050565b5f819050919050565b61099f8161098d565b81146109a9575f5ffd5b50565b5f815190506109ba81610996565b92915050565b5f73ffffffffffffffffffffffffffffffffffffffff82169050919050565b5f6109e9826109c0565b9050919050565b6109f9816109df565b8114610a03575f5ffd5b50565b5f81519050610a14816109f0565b92915050565b5f5f5f5f5f5f5f60e0888a031215610a3557610a34610813565b5b5f88015167ffffffffffffffff811115610a5257610a51610817565b5b610a5e8a828b0161092a565b975050602088015167ffffffffffffffff811115610a7f57610a7e610817565b5b610a8b8a828b0161092a565b9650506040610a9c8a828b01610979565b9550506060610aad8a828b016109ac565b9450506080610abe8a828b016109ac565b93505060a0610acf8a828b01610a06565b92505060c0610ae08a828b016109ac565b91505092959891949750929550565b610af8816109df565b82525050565b5f602082019050610b115f830184610aef565b92915050565b5f81519050919050565b7f4e487b71000000000000000000000000000000000000000000000000000000005f52602260045260245ffd5b5f6002820490506001821680610b6557607f821691505b602082108103610b7857610b77610b21565b5b50919050565b5f819050815f5260205f209050919050565b5f6020601f8301049050919050565b5f82821b905092915050565b5f60088302610bda7fffffffffffffffffffffffffffffffffffffffffffffffffffffffffffffffff82610b9f565b610be48683610b9f565b95508019841693508086168417925050509392505050565b5f819050919050565b5f610c1f610c1a610c158461098d565b610bfc565b61098d565b9050919050565b5f819050919050565b610c3883610c05565b610c4c610c4482610c26565b848454610bab565b825550505050565b5f5f905090565b610c63610c54565b610c6e818484610c2f565b505050565b5b81811015610c9157610c865f82610c5b565b600181019050610c74565b5050565b601f821115610cd657610ca781610b7e565b610cb084610b90565b81016020851015610cbf578190505b610cd3610ccb85610b90565b830182610c73565b50505b505050565b5f82821c905092915050565b5f610cf65f1984600802610cdb565b1980831691505092915050565b5f610d0e8383610ce7565b9150826002028217905092915050565b610d2782610b17565b67ffffffffffffffff811115610d4057610d3f610833565b5b610d4a8254610b4e565b610d55828285610c95565b5f60209050601f831160018114610d86575f8415610d74578287015190505b610d7e8582610d03565b865550610de5565b601f198416610d9486610b7e565b5f5b82811015610dbb57848901518255600182019150602085019450602081019050610d96565b86831015610dd85784890151610dd4601f891682610ce7565b8355505b6001600288020188555050505b505050505050565b5f82825260208201905092915050565b7f4361702073686f756c642062652067726561746572207468616e2030000000005f82015250565b5f610e31601c83610ded565b9150610e3c82610dfd565b602082019050919050565b5f6020820190508181035f830152610e5e81610e25565b9050919050565b7f4e487b71000000000000000000000000000000000000000000000000000000005f52601160045260245ffd5b5f8160011c9050919050565b5f5f8291508390505b6001851115610ee757808604811115610ec357610ec2610e65565b5b6001851615610ed25780820291505b8081029050610ee085610e92565b9450610ea7565b94509492505050565b5f82610eff5760019050610fba565b81610f0c575f9050610fba565b8160018114610f225760028114610f2c57610f5b565b6001915050610fba565b60ff841115610f3e57610f3d610e65565b5b8360020a915084821115610f5557610f54610e65565b5b50610fba565b5060208310610133831016604e8410600b8410161715610f905782820a905083811115610f8b57610f8a610e65565b5b610fba565b610f9d8484846001610e9e565b92509050818404811115610fb457610fb3610e65565b5b81810290505b9392505050565b5f610fcb8261098d565b9150610fd683610957565b92506110037fffffffffffffffffffffffffffffffffffffffffffffffffffffffffffffffff8484610ef0565b905092915050565b5f6110158261098d565b91506110208361098d565b925082820261102e8161098d565b9150828204841483151761104557611044610e65565b5b5092915050565b7f45524332304361707065643a20636170206578636565646564000000000000005f82015250565b5f611080601983610ded565b915061108b8261104c565b602082019050919050565b5f6020820190508181035f8301526110ad81611074565b9050919050565b7f496e73756666696369656e742066656520616d6f756e742073656e74000000005f82015250565b5f6110e8601c83610ded565b91506110f3826110b4565b602082019050919050565b5f6020820190508181035f830152611115816110dc565b9050919050565b7f496e76616c6964206665652072656365697665722061646472657373000000005f82015250565b5f611150601c83610ded565b915061115b8261111c565b602082019050919050565b5f6020820190508181035f83015261117d81611144565b9050919050565b5f81905092915050565b50565b5f61119c5f83611184565b91506111a78261118e565b5f82019050919050565b5f6111bb82611191565b9150819050919050565b7f466565207472616e73666572206661696c6564000000000000000000000000005f82015250565b5f6111f9601383610ded565b9150611204826111c5565b602082019050919050565b5f6020820190508181035f830152611226816111ed565b9050919050565b7f426c61636b6c697374656420616464726573732063616e6e6f742072656365695f8201527f766520746f6b656e730000000000000000000000000000000000000000000000602082015250565b5f611287602983610ded565b91506112928261122d565b604082019050919050565b5f6020820190508181035f8301526112b48161127b565b9050919050565b5f6112c58261098d565b91506112d08361098d565b92508282019050808211156112e8576112e7610e65565b5b92915050565b6112f78161098d565b82525050565b5f6060820190506113105f830186610aef565b61131d60208301856112ee565b61132a60408301846112ee565b949350505050565b5f6020820190506113455f8301846112ee565b92915050565b611e50806113585f395ff3fe608060405234801561000f575f5ffd5b5060043610610109575f3560e01c8063715018a6116100a0578063a9059cbb1161006f578063a9059cbb14610293578063dd62ed3e146102c3578063f2fde38b146102f3578063f9f92be41461030f578063fe575a871461032b57610109565b8063715018a61461023157806375e3661e1461023b5780638da5cb5b1461025757806395d89b411461027557610109565b8063313ce567116100dc578063313ce567146101a9578063355274ea146101c757806340c10f19146101e557806370a082311461020157610109565b806306fdde031461010d578063095ea7b31461012b57806318160ddd1461015b57806323b872dd14610179575b5f5ffd5b61011561035b565b6040516101229190611695565b60405180910390f35b61014560048036038101906101409190611746565b6103eb565b604051610152919061179e565b60405180910390f35b610163610525565b60405161017091906117c6565b60405180910390f35b610193600480360381019061018e91906117df565b61052e565b6040516101a0919061179e565b60405180910390f35b6101b1610674565b6040516101be919061184a565b60405180910390f35b6101cf610689565b6040516101dc91906117c6565b60405180910390f35b6101ff60048036038101906101fa9190611746565b610692565b005b61021b60048036038101906102169190611863565b610732565b60405161022891906117c6565b60405180910390f35b610239610778565b005b61025560048036038101906102509190611863565b61078b565b005b61025f61082d565b60405161026c919061189d565b60405180910390f35b61027d610854565b60405161028a9190611695565b60405180910390f35b6102ad60048036038101906102a89190611746565b6108e4565b6040516102ba919061179e565b60405180910390f35b6102dd60048036038101906102d891906118b6565b610a1e565b6040516102ea91906117c6565b60405180910390f35b61030d60048036038101906103089190611863565b610aa0565b005b61032960048036038101906103249190611863565b610b24565b005b61034560048036038101906103409190611863565b610bc7565b604051610352919061179e565b60405180910390f35b60606005805461036a90611921565b80601f016020809104026020016040519081016040528092919081815260200182805461039690611921565b80156103e15780601f106103b8576101008083540402835291602001916103e1565b820191905f5260205f20905b8154815290600101906020018083116103c457829003601f168201915b5050505050905090565b5f3360035f8273ffffffffffffffffffffffffffffffffffffffff1673ffffffffffffffffffffffffffffffffffffffff1681526020019081526020015f205f9054906101000a900460ff1615610477576040517f08c379a000000000000000000000000000000000000000000000000000000000815260040161046e9061199b565b60405180910390fd5b8360035f8273ffffffffffffffffffffffffffffffffffffffff1673ffffffffffffffffffffffffffffffffffffffff1681526020019081526020015f205f9054906101000a900460ff1615610502576040517f08c379a00000000000000000000000000000000000000000000000000000000081526004016104f99061199b565b60405180910390fd5b5f61050b610c19565b9050610518818787610c20565b6001935050505092915050565b5f600454905090565b5f8360035f8273ffffffffffffffffffffffffffffffffffffffff1673ffffffffffffffffffffffffffffffffffffffff1681526020019081526020015f205f9054906101000a900460ff16156105ba576040517f08c379a00000000000000000000000000000000000000000000000000000000081526004016105b19061199b565b60405180910390fd5b8360035f8273ffffffffffffffffffffffffffffffffffffffff1673ffffffffffffffffffffffffffffffffffffffff1681526020019081526020015f205f9054906101000a900460ff1615610645576040517f08c379a000000000000000000000000000000000000000000000000000000000815260040161063c9061199b565b60405180910390fd5b5f61064e610c19565b905061065b878287610d0f565b610666878787610da2565b600193505050509392505050565b5f60075f9054906101000a900460ff16905090565b5f600854905090565b61069a610f6f565b60035f8373ffffffffffffffffffffffffffffffffffffffff1673ffffffffffffffffffffffffffffffffffffffff1681526020019081526020015f205f9054906101000a900460ff1615610724576040517f08c379a000000000000000000000000000000000000000000000000000000000815260040161071b90611a29565b60405180910390fd5b61072e8282610ff6565b5050565b5f60015f8373ffffffffffffffffffffffffffffffffffffffff1673ffffffffffffffffffffffffffffffffffffffff1681526020019081526020015f20549050919050565b610780610f6f565b6107895f611179565b565b610793610f6f565b5f60035f8373ffffffffffffffffffffffffffffffffffffffff1673ffffffffffffffffffffffffffffffffffffffff1681526020019081526020015f205f6101000a81548160ff0219169083151502179055508073ffffffffffffffffffffffffffffffffffffffff167f7534c63860313c46c473e4e98328f37017e9674e2162faf1a3ad7a96236c3b7b60405160405180910390a250565b5f5f5f9054906101000a900473ffffffffffffffffffffffffffffffffffffffff16905090565b60606006805461086390611921565b80601f016020809104026020016040519081016040528092919081815260200182805461088f90611921565b80156108da5780601f106108b1576101008083540402835291602001916108da565b820191905f5260205f20905b8154815290600101906020018083116108bd57829003601f168201915b5050505050905090565b5f3360035f8273ffffffffffffffffffffffffffffffffffffffff1673ffffffffffffffffffffffffffffffffffffffff1681526020019081526020015f205f9054906101000a900460ff1615610970576040517f08c379a00000000000000000000000000000000000000000000000000000000081526004016109679061199b565b60405180910390fd5b8360035f8273ffffffffffffffffffffffffffffffffffffffff1673ffffffffffffffffffffffffffffffffffffffff1681526020019081526020015f205f9054906101000a900460ff16156109fb576040517f08c379a00000000000000000000000000000000000000000000000000000000081526004016109f29061199b565b60405180910390fd5b5f610a04610c19565b9050610a11818787610da2565b6001935050505092915050565b5f60025f8473ffffffffffffffffffffffffffffffffffffffff1673ffffffffffffffffffffffffffffffffffffffff1681526020019081526020015f205f8373ffffffffffffffffffffffffffffffffffffffff1673ffffffffffffffffffffffffffffffffffffffff1681526020019081526020015f2054905092915050565b610aa8610f6f565b5f73ffffffffffffffffffffffffffffffffffffffff168173ffffffffffffffffffffffffffffffffffffffff1603610b18575f6040517f1e4fbdf7000000000000000000000000000000000000000000000000000000008152600401610b0f919061189d565b60405180910390fd5b610b2181611179565b50565b610b2c610f6f565b600160035f8373ffffffffffffffffffffffffffffffffffffffff1673ffffffffffffffffffffffffffffffffffffffff1681526020019081526020015f205f6101000a81548160ff0219169083151502179055508073ffffffffffffffffffffffffffffffffffffffff167fffa4e6181777692565cf28528fc88fd1516ea86b56da075235fa575af6a4b85560405160405180910390a250565b5f60035f8373ffffffffffffffffffffffffffffffffffffffff1673ffffffffffffffffffffffffffffffffffffffff1681526020019081526020015f205f9054906101000a900460ff169050919050565b5f33905090565b60035f8473ffffffffffffffffffffffffffffffffffffffff1673ffffffffffffffffffffffffffffffffffffffff1681526020019081526020015f205f9054906101000a900460ff16158015610cbe575060035f8373ffffffffffffffffffffffffffffffffffffffff1673ffffffffffffffffffffffffffffffffffffffff1681526020019081526020015f205f9054906101000a900460ff16155b610cfd576040517f08c379a0000000000000000000000000000000000000000000000000000000008152600401610cf490611ab7565b60405180910390fd5b610d0a838383600161123a565b505050565b5f610d1a8484610a1e565b90507fffffffffffffffffffffffffffffffffffffffffffffffffffffffffffffffff811015610d9c5781811015610d8d578281836040517ffb8f41b2000000000000000000000000000000000000000000000000000000008152600401610d8493929190611ad5565b60405180910390fd5b610d9b84848484035f61123a565b5b50505050565b60035f8473ffffffffffffffffffffffffffffffffffffffff1673ffffffffffffffffffffffffffffffffffffffff1681526020019081526020015f205f9054906101000a900460ff16158015610e40575060035f8373ffffffffffffffffffffffffffffffffffffffff1673ffffffffffffffffffffffffffffffffffffffff1681526020019081526020015f205f9054906101000a900460ff16155b610e7f576040517f08c379a0000000000000000000000000000000000000000000000000000000008152600401610e7690611b7a565b60405180910390fd5b5f73ffffffffffffffffffffffffffffffffffffffff168373ffffffffffffffffffffffffffffffffffffffff1603610eef575f6040517f96c6fd1e000000000000000000000000000000000000000000000000000000008152600401610ee6919061189d565b60405180910390fd5b5f73ffffffffffffffffffffffffffffffffffffffff168273ffffffffffffffffffffffffffffffffffffffff1603610f5f575f6040517fec442f05000000000000000000000000000000000000000000000000000000008152600401610f56919061189d565b60405180910390fd5b610f6a838383611409565b505050565b610f77610c19565b73ffffffffffffffffffffffffffffffffffffffff16610f9561082d565b73ffffffffffffffffffffffffffffffffffffffff1614610ff457610fb8610c19565b6040517f118cdaa7000000000000000000000000000000000000000000000000000000008152600401610feb919061189d565b60405180910390fd5b565b60035f8373ffffffffffffffffffffffffffffffffffffffff1673ffffffffffffffffffffffffffffffffffffffff1681526020019081526020015f205f9054906101000a900460ff1615611080576040517f08c379a000000000000000000000000000000000000000000000000000000000815260040161107790611a29565b60405180910390fd5b611088610674565b600a6110949190611cf4565b61109c610689565b6110a69190611d3e565b816110af610525565b6110b99190611d7f565b11156110fa576040517f08c379a00000000000000000000000000000000000000000000000000000000081526004016110f190611dfc565b60405180910390fd5b5f73ffffffffffffffffffffffffffffffffffffffff168273ffffffffffffffffffffffffffffffffffffffff160361116a575f6040517fec442f05000000000000000000000000000000000000000000000000000000008152600401611161919061189d565b60405180910390fd5b6111755f8383611409565b5050565b5f5f5f9054906101000a900473ffffffffffffffffffffffffffffffffffffffff169050815f5f6101000a81548173ffffffffffffffffffffffffffffffffffffffff021916908373ffffffffffffffffffffffffffffffffffffffff1602179055508173ffffffffffffffffffffffffffffffffffffffff168173ffffffffffffffffffffffffffffffffffffffff167f8be0079c531659141344cd1fd0a4f28419497f9722a3daafe3b4186f6b6457e060405160405180910390a35050565b5f73ffffffffffffffffffffffffffffffffffffffff168473ffffffffffffffffffffffffffffffffffffffff16036112aa575f6040517fe602df050000000000000000000000000000000000000000000000000000000081526004016112a1919061189d565b60405180910390fd5b5f73ffffffffffffffffffffffffffffffffffffffff168373ffffffffffffffffffffffffffffffffffffffff160361131a575f6040517f94280d62000000000000000000000000000000000000000000000000000000008152600401611311919061189d565b60405180910390fd5b8160025f8673ffffffffffffffffffffffffffffffffffffffff1673ffffffffffffffffffffffffffffffffffffffff1681526020019081526020015f205f8573ffffffffffffffffffffffffffffffffffffffff1673ffffffffffffffffffffffffffffffffffffffff1681526020019081526020015f20819055508015611403578273ffffffffffffffffffffffffffffffffffffffff168473ffffffffffffffffffffffffffffffffffffffff167f8c5be1e5ebec7d5bd14f71427d1e84f3dd0314c0f7b2291e5b200ac8c7c3b925846040516113fa91906117c6565b60405180910390a35b50505050565b5f73ffffffffffffffffffffffffffffffffffffffff168373ffffffffffffffffffffffffffffffffffffffff1603611459578060045f82825461144d9190611d7f565b92505081905550611529565b5f60015f8573ffffffffffffffffffffffffffffffffffffffff1673ffffffffffffffffffffffffffffffffffffffff1681526020019081526020015f20549050818110156114e3578381836040517fe450d38c0000000000000000000000000000000000000000000000000000000081526004016114da93929190611ad5565b60405180910390fd5b81810360015f8673ffffffffffffffffffffffffffffffffffffffff1673ffffffffffffffffffffffffffffffffffffffff1681526020019081526020015f2081905550505b5f73ffffffffffffffffffffffffffffffffffffffff168273ffffffffffffffffffffffffffffffffffffffff1603611570578060045f82825403925050819055506115bb565b8060015f8473ffffffffffffffffffffffffffffffffffffffff1673ffffffffffffffffffffffffffffffffffffffff1681526020019081526020015f205f82825401925050819055505b8173ffffffffffffffffffffffffffffffffffffffff168373ffffffffffffffffffffffffffffffffffffffff167fddf252ad1be2c89b69c2b068fc378daa952ba7f163c4a11628f55a4df523b3ef8360405161161891906117c6565b60405180910390a3505050565b5f81519050919050565b5f82825260208201905092915050565b8281835e5f83830152505050565b5f601f19601f8301169050919050565b5f61166782611625565b611671818561162f565b935061168181856020860161163f565b61168a8161164d565b840191505092915050565b5f6020820190508181035f8301526116ad818461165d565b905092915050565b5f5ffd5b5f73ffffffffffffffffffffffffffffffffffffffff82169050919050565b5f6116e2826116b9565b9050919050565b6116f2816116d8565b81146116fc575f5ffd5b50565b5f8135905061170d816116e9565b92915050565b5f819050919050565b61172581611713565b811461172f575f5ffd5b50565b5f813590506117408161171c565b92915050565b5f5f6040838503121561175c5761175b6116b5565b5b5f611769858286016116ff565b925050602061177a85828601611732565b9150509250929050565b5f8115159050919050565b61179881611784565b82525050565b5f6020820190506117b15f83018461178f565b92915050565b6117c081611713565b82525050565b5f6020820190506117d95f8301846117b7565b92915050565b5f5f5f606084860312156117f6576117f56116b5565b5b5f611803868287016116ff565b9350506020611814868287016116ff565b925050604061182586828701611732565b9150509250925092565b5f60ff82169050919050565b6118448161182f565b82525050565b5f60208201905061185d5f83018461183b565b92915050565b5f60208284031215611878576118776116b5565b5b5f611885848285016116ff565b91505092915050565b611897816116d8565b82525050565b5f6020820190506118b05f83018461188e565b92915050565b5f5f604083850312156118cc576118cb6116b5565b5b5f6118d9858286016116ff565b92505060206118ea858286016116ff565b9150509250929050565b7f4e487b71000000000000000000000000000000000000000000000000000000005f52602260045260245ffd5b5f600282049050600182168061193857607f821691505b60208210810361194b5761194a6118f4565b5b50919050565b7f4164647265737320697320626c61636b6c6973746564000000000000000000005f82015250565b5f61198560168361162f565b915061199082611951565b602082019050919050565b5f6020820190508181035f8301526119b281611979565b9050919050565b7f426c61636b6c697374656420616464726573732063616e6e6f742072656365695f8201527f766520746f6b656e730000000000000000000000000000000000000000000000602082015250565b5f611a1360298361162f565b9150611a1e826119b9565b604082019050919050565b5f6020820190508181035f830152611a4081611a07565b9050919050565b7f426c61636b6c697374656420616464726573732063616e6e6f7420617070726f5f8201527f7665000000000000000000000000000000000000000000000000000000000000602082015250565b5f611aa160228361162f565b9150611aac82611a47565b604082019050919050565b5f6020820190508181035f830152611ace81611a95565b9050919050565b5f606082019050611ae85f83018661188e565b611af560208301856117b7565b611b0260408301846117b7565b949350505050565b7f426c61636b6c6973746564206164647265737320696e766f6c76656420696e205f8201527f7472616e73666572000000000000000000000000000000000000000000000000602082015250565b5f611b6460288361162f565b9150611b6f82611b0a565b604082019050919050565b5f6020820190508181035f830152611b9181611b58565b9050919050565b7f4e487b71000000000000000000000000000000000000000000000000000000005f52601160045260245ffd5b5f8160011c9050919050565b5f5f8291508390505b6001851115611c1a57808604811115611bf657611bf5611b98565b5b6001851615611c055780820291505b8081029050611c1385611bc5565b9450611bda565b94509492505050565b5f82611c325760019050611ced565b81611c3f575f9050611ced565b8160018114611c555760028114611c5f57611c8e565b6001915050611ced565b60ff841115611c7157611c70611b98565b5b8360020a915084821115611c8857611c87611b98565b5b50611ced565b5060208310610133831016604e8410600b8410161715611cc35782820a905083811115611cbe57611cbd611b98565b5b611ced565b611cd08484846001611bd1565b92509050818404811115611ce757611ce6611b98565b5b81810290505b9392505050565b5f611cfe82611713565b9150611d098361182f565b9250611d367fffffffffffffffffffffffffffffffffffffffffffffffffffffffffffffffff8484611c23565b905092915050565b5f611d4882611713565b9150611d5383611713565b9250828202611d6181611713565b91508282048414831517611d7857611d77611b98565b5b5092915050565b5f611d8982611713565b9150611d9483611713565b9250828201905080821115611dac57611dab611b98565b5b92915050565b7f45524332304361707065643a20636170206578636565646564000000000000005f82015250565b5f611de660198361162f565b9150611df182611db2565b602082019050919050565b5f6020820190508181035f830152611e1381611dda565b905091905056fea2646970667358221220d5e225713cce7041f373ff16269b203a99dea049f09848c706f96b6f8667685064736f6c634300081c0033","linkReferences":{}},"methodIdentifiers":{"allowance(address,address)":"dd62ed3e","approve(address,uint256)":"095ea7b3","balanceOf(address)":"70a08231","blacklist(address)":"f9f92be4","cap()":"355274ea","decimals()":"313ce567","isBlacklisted(address)":"fe575a87","mint(address,uint256)":"40c10f19","name()":"06fdde03","owner()":"8da5cb5b","renounceOwnership()":"715018a6","symbol()":"95d89b41","totalSupply()":"18160ddd","transfer(address,uint256)":"a9059cbb","transferFrom(address,address,uint256)":"23b872dd","transferOwnership(address)":"f2fde38b","unblacklist(address)":"75e3661e"},"id":18}