{"abi":[{"type":"constructor","inputs":[{"name":"name_","type":"string","internalType":"string"},{"name":"symbol_","type":"string","internalType":"string"},{"name":"decimals_","type":"uint8","internalType":"uint8"},{"name":"totalSupply_","type":"uint256","internalType":"uint256"},{"name":"cap_","type":"uint256","internalType":"uint256"},{"name":"serviceFeeReceiver_","type":"address","internalType":"address"},{"name":"serviceFee_","type":"uint256","internalType":"uint256"}],"stateMutability":"payable"},{"type":"function","name":"allowance","inputs":[{"name":"owner","type":"address","internalType":"address"},{"name":"spender","type":"address","internalType":"address"}],"outputs":[{"name":"","type":"uint256","internalType":"uint256"}],"stateMutability":"view"},{"type":"function","name":"approve","inputs":[{"name":"spender","type":"address","internalType":"address"},{"name":"value","type":"uint256","internalType":"uint256"}],"outputs":[{"name":"","type":"bool","internalType":"bool"}],"stateMutability":"nonpayable"},{"type":"function","name":"balanceOf","inputs":[{"name":"account","type":"address","internalType":"address"}],"outputs":[{"name":"","type":"uint256","internalType":"uint256"}],"stateMutability":"view"},{"type":"function","name":"blacklist","inputs":[{"name":"account","type":"address","internalType":"address"}],"outputs":[],"stateMutability":"nonpayable"},{"type":"function","name":"cap","inputs":[],"outputs":[{"name":"","type":"uint256","internalType":"uint256"}],"stateMutability":"view"},{"type":"function","name":"decimals","inputs":[],"outputs":[{"name":"","type":"uint8","internalType":"uint8"}],"stateMutability":"view"},{"type":"function","name":"isBlacklisted","inputs":[{"name":"account","type":"address","internalType":"address"}],"outputs":[{"name":"","type":"bool","internalType":"bool"}],"stateMutability":"view"},{"type":"function","name":"mint","inputs":[{"name":"to","type":"address","internalType":"address"},{"name":"amount","type":"uint256","internalType":"uint256"}],"outputs":[],"stateMutability":"nonpayable"},{"type":"function","name":"name","inputs":[],"outputs":[{"name":"","type":"string","internalType":"string"}],"stateMutability":"view"},{"type":"function","name":"owner","inputs":[],"outputs":[{"name":"","type":"address","internalType":"address"}],"stateMutability":"view"},{"type":"function","name":"renounceOwnership","inputs":[],"outputs":[],"stateMutability":"nonpayable"},{"type":"function","name":"symbol","inputs":[],"outputs":[{"name":"","type":"string","internalType":"string"}],"stateMutability":"view"},{"type":"function","name":"totalSupply","inputs":[],"outputs":[{"name":"","type":"uint256","internalType":"uint256"}],"stateMutability":"view"},{"type":"function","name":"transfer","inputs":[{"name":"to","type":"address","internalType":"address"},{"name":"value","type":"uint256","internalType":"uint256"}],"outputs":[{"name":"","type":"bool","internalType":"bool"}],"stateMutability":"nonpayable"},{"type":"function","name":"transferFrom","inputs":[{"name":"from","type":"address","internalType":"address"},{"name":"to","type":"address","internalType":"address"},{"name":"value","type":"uint256","internalType":"uint256"}],"outputs":[{"name":"","type":"bool","internalType":"bool"}],"stateMutability":"nonpayable"},{"type":"function","name":"transferOwnership","inputs":[{"name":"newOwner","type":"address","internalType":"address"}],"outputs":[],"stateMutability":"nonpayable"},{"type":"function","name":"unblacklist","inputs":[{"name":"account","type":"address","internalType":"address"}],"outputs":[],"stateMutability":"nonpayable"},{"type":"event","name":"Approval","inputs":[{"name":"owner","type":"address","indexed":true,"internalType":"address"},{"name":"spender","type":"address","indexed":true,"internalType":"address"},{"name":"value","type":"uint256","indexed":false,"internalType":"uint256"}],"anonymous":false},{"type":"event","name":"Blacklisted","inputs":[{"name":"account","type":"address","indexed":true,"internalType":"address"}],"anonymous":false},{"type":"event","name":"OwnershipTransferred","inputs":[{"name":"previousOwner","type":"address","indexed":true,"internalType":"address"},{"name":"newOwner","type":"address","indexed":true,"internalType":"address"}],"anonymous":false},{"type":"event","name":"Transfer","inputs":[{"name":"from","type":"address","indexed":true,"internalType":"address"},{"name":"to","type":"address","indexed":true,"internalType":"address"},{"name":"value","type":"uint256","indexed":false,"internalType":"uint256"}],"anonymous":false},{"type":"event","name":"Unblacklisted","inputs":[{"name":"account","type":"address","indexed":true,"internalType":"address"}],"anonymous":false},{"type":"error","name":"ERC20InsufficientAllowance","inputs":[{"name":"spender","type":"address","internalType":"address"},{"name":"allowance","type":"uint256","internalType":"uint256"},{"name":"needed","type":"uint256","internalType":"uint256"}]},{"type":"error","name":"ERC20InsufficientBalance","inputs":[{"name":"sender","type":"address","internalType":"address"},{"name":"balance","type":"uint256","internalType":"uint256"},{"name":"needed","type":"uint256","internalType":"uint256"}]},{"type":"error","name":"ERC20InvalidApprover","inputs":[{"name":"approver","type":"address","internalType":"address"}]},{"type":"error","name":"ERC20InvalidReceiver","inputs":[{"name":"receiver","type":"address","internalType":"address"}]},{"type":"error","name":"ERC20InvalidSender","inputs":[{"name":"sender","type":"address","internalType":"address"}]},{"type":"error","name":"ERC20InvalidSpender","inputs":[{"name":"spender","type":"address","internalType":"address"}]},{"type":"error","name":"OwnableInvalidOwner","inputs":[{"name":"owner","type":"address","internalType":"address"}]},{"type":"error","name":"OwnableUnauthorizedAccount","inputs":[{"name":"account","type":"address","internalType":"address"}]}],"bytecode":{"object":"0x60806040526040516200332338038062003323833981810160405281019062000029919062000ab8565b335f73ffffffffffffffffffffffffffffffffffffffff168173ffffffffffffffffffffffffffffffffffffffff16036200009d575f6040517f1e4fbdf700000000000000000000000000000000000000000000000000000000815260040162000094919062000bb5565b60405180910390fd5b620000ae816200037760201b60201c565b508660059081620000c0919062000dfe565b508560069081620000d2919062000dfe565b508460075f6101000a81548160ff021916908360ff1602179055505f831162000132576040517f08c379a0000000000000000000000000000000000000000000000000000000008152600401620001299062000f40565b60405180910390fd5b82600881905550620001496200043860201b60201c565b600a620001579190620010dd565b620001676200044d60201b60201c565b6200017391906200112d565b841115620001b8576040517f08c379a0000000000000000000000000000000000000000000000000000000008152600401620001af90620011c5565b60405180910390fd5b80341015620001fe576040517f08c379a0000000000000000000000000000000000000000000000000000000008152600401620001f59062001233565b60405180910390fd5b5f73ffffffffffffffffffffffffffffffffffffffff168273ffffffffffffffffffffffffffffffffffffffff16036200026f576040517f08c379a00000000000000000000000000000000000000000000000000000000081526004016200026690620012a1565b60405180910390fd5b5f8273ffffffffffffffffffffffffffffffffffffffff16826040516200029690620012f2565b5f6040518083038185875af1925050503d805f8114620002d2576040519150601f19603f3d011682016040523d82523d5f602084013e620002d7565b606091505b50509050806200031e576040517f08c379a0000000000000000000000000000000000000000000000000000000008152600401620003159062001356565b60405180910390fd5b62000369620003326200045660201b60201c565b620003426200043860201b60201c565b600a620003509190620010dd565b876200035d91906200112d565b6200047d60201b60201c565b5050505050505050620014ab565b5f805f9054906101000a900473ffffffffffffffffffffffffffffffffffffffff169050815f806101000a81548173ffffffffffffffffffffffffffffffffffffffff021916908373ffffffffffffffffffffffffffffffffffffffff1602179055508173ffffffffffffffffffffffffffffffffffffffff168173ffffffffffffffffffffffffffffffffffffffff167f8be0079c531659141344cd1fd0a4f28419497f9722a3daafe3b4186f6b6457e060405160405180910390a35050565b5f60075f9054906101000a900460ff16905090565b5f600854905090565b5f805f9054906101000a900473ffffffffffffffffffffffffffffffffffffffff16905090565b60035f8373ffffffffffffffffffffffffffffffffffffffff1673ffffffffffffffffffffffffffffffffffffffff1681526020019081526020015f205f9054906101000a900460ff16156200050a576040517f08c379a00000000000000000000000000000000000000000000000000000000081526004016200050190620013ea565b60405180910390fd5b6200051a6200043860201b60201c565b600a620005289190620010dd565b620005386200044d60201b60201c565b6200054491906200112d565b81620005556200062f60201b60201c565b6200056191906200140a565b1115620005a5576040517f08c379a00000000000000000000000000000000000000000000000000000000081526004016200059c90620011c5565b60405180910390fd5b5f73ffffffffffffffffffffffffffffffffffffffff168273ffffffffffffffffffffffffffffffffffffffff160362000618575f6040517fec442f050000000000000000000000000000000000000000000000000000000081526004016200060f919062000bb5565b60405180910390fd5b6200062b5f83836200063860201b60201c565b5050565b5f600454905090565b5f73ffffffffffffffffffffffffffffffffffffffff168373ffffffffffffffffffffffffffffffffffffffff16036200068c578060045f8282546200067f91906200140a565b925050819055506200075f565b5f60015f8573ffffffffffffffffffffffffffffffffffffffff1673ffffffffffffffffffffffffffffffffffffffff1681526020019081526020015f205490508181101562000719578381836040517fe450d38c000000000000000000000000000000000000000000000000000000008152600401620007109392919062001455565b60405180910390fd5b81810360015f8673ffffffffffffffffffffffffffffffffffffffff1673ffffffffffffffffffffffffffffffffffffffff1681526020019081526020015f2081905550505b5f73ffffffffffffffffffffffffffffffffffffffff168273ffffffffffffffffffffffffffffffffffffffff1603620007a8578060045f8282540392505081905550620007f3565b8060015f8473ffffffffffffffffffffffffffffffffffffffff1673ffffffffffffffffffffffffffffffffffffffff1681526020019081526020015f205f82825401925050819055505b8173ffffffffffffffffffffffffffffffffffffffff168373ffffffffffffffffffffffffffffffffffffffff167fddf252ad1be2c89b69c2b068fc378daa952ba7f163c4a11628f55a4df523b3ef8360405162000852919062001490565b60405180910390a3505050565b5f604051905090565b5f80fd5b5f80fd5b5f80fd5b5f80fd5b5f601f19601f8301169050919050565b7f4e487b71000000000000000000000000000000000000000000000000000000005f52604160045260245ffd5b620008c08262000878565b810181811067ffffffffffffffff82111715620008e257620008e162000888565b5b80604052505050565b5f620008f66200085f565b9050620009048282620008b5565b919050565b5f67ffffffffffffffff82111562000926576200092562000888565b5b620009318262000878565b9050602081019050919050565b5f5b838110156200095d57808201518184015260208101905062000940565b5f8484015250505050565b5f6200097e620009788462000909565b620008eb565b9050828152602081018484840111156200099d576200099c62000874565b5b620009aa8482856200093e565b509392505050565b5f82601f830112620009c957620009c862000870565b5b8151620009db84826020860162000968565b91505092915050565b5f60ff82169050919050565b620009fb81620009e4565b811462000a06575f80fd5b50565b5f8151905062000a1981620009f0565b92915050565b5f819050919050565b62000a338162000a1f565b811462000a3e575f80fd5b50565b5f8151905062000a518162000a28565b92915050565b5f73ffffffffffffffffffffffffffffffffffffffff82169050919050565b5f62000a828262000a57565b9050919050565b62000a948162000a76565b811462000a9f575f80fd5b50565b5f8151905062000ab28162000a89565b92915050565b5f805f805f805f60e0888a03121562000ad65762000ad562000868565b5b5f88015167ffffffffffffffff81111562000af65762000af56200086c565b5b62000b048a828b01620009b2565b975050602088015167ffffffffffffffff81111562000b285762000b276200086c565b5b62000b368a828b01620009b2565b965050604062000b498a828b0162000a09565b955050606062000b5c8a828b0162000a41565b945050608062000b6f8a828b0162000a41565b93505060a062000b828a828b0162000aa2565b92505060c062000b958a828b0162000a41565b91505092959891949750929550565b62000baf8162000a76565b82525050565b5f60208201905062000bca5f83018462000ba4565b92915050565b5f81519050919050565b7f4e487b71000000000000000000000000000000000000000000000000000000005f52602260045260245ffd5b5f600282049050600182168062000c1f57607f821691505b60208210810362000c355762000c3462000bda565b5b50919050565b5f819050815f5260205f209050919050565b5f6020601f8301049050919050565b5f82821b905092915050565b5f6008830262000c997fffffffffffffffffffffffffffffffffffffffffffffffffffffffffffffffff8262000c5c565b62000ca5868362000c5c565b95508019841693508086168417925050509392505050565b5f819050919050565b5f62000ce662000ce062000cda8462000a1f565b62000cbd565b62000a1f565b9050919050565b5f819050919050565b62000d018362000cc6565b62000d1962000d108262000ced565b84845462000c68565b825550505050565b5f90565b62000d2f62000d21565b62000d3c81848462000cf6565b505050565b5b8181101562000d635762000d575f8262000d25565b60018101905062000d42565b5050565b601f82111562000db25762000d7c8162000c3b565b62000d878462000c4d565b8101602085101562000d97578190505b62000daf62000da68562000c4d565b83018262000d41565b50505b505050565b5f82821c905092915050565b5f62000dd45f198460080262000db7565b1980831691505092915050565b5f62000dee838362000dc3565b9150826002028217905092915050565b62000e098262000bd0565b67ffffffffffffffff81111562000e255762000e2462000888565b5b62000e31825462000c07565b62000e3e82828562000d67565b5f60209050601f83116001811462000e74575f841562000e5f578287015190505b62000e6b858262000de1565b86555062000eda565b601f19841662000e848662000c3b565b5f5b8281101562000ead5784890151825560018201915060208501945060208101905062000e86565b8683101562000ecd578489015162000ec9601f89168262000dc3565b8355505b6001600288020188555050505b505050505050565b5f82825260208201905092915050565b7f4361702073686f756c642062652067726561746572207468616e2030000000005f82015250565b5f62000f28601c8362000ee2565b915062000f358262000ef2565b602082019050919050565b5f6020820190508181035f83015262000f598162000f1a565b9050919050565b7f4e487b71000000000000000000000000000000000000000000000000000000005f52601160045260245ffd5b5f8160011c9050919050565b5f808291508390505b600185111562000fea5780860481111562000fc25762000fc162000f60565b5b600185161562000fd25780820291505b808102905062000fe28562000f8d565b945062000fa2565b94509492505050565b5f82620010045760019050620010d6565b8162001013575f9050620010d6565b81600181146200102c576002811462001037576200106d565b6001915050620010d6565b60ff8411156200104c576200104b62000f60565b5b8360020a91508482111562001066576200106562000f60565b5b50620010d6565b5060208310610133831016604e8410600b8410161715620010a75782820a905083811115620010a157620010a062000f60565b5b620010d6565b620010b6848484600162000f99565b92509050818404811115620010d057620010cf62000f60565b5b81810290505b9392505050565b5f620010e98262000a1f565b9150620010f683620009e4565b9250620011257fffffffffffffffffffffffffffffffffffffffffffffffffffffffffffffffff848462000ff3565b905092915050565b5f620011398262000a1f565b9150620011468362000a1f565b9250828202620011568162000a1f565b9150828204841483151762001170576200116f62000f60565b5b5092915050565b7f45524332304361707065643a20636170206578636565646564000000000000005f82015250565b5f620011ad60198362000ee2565b9150620011ba8262001177565b602082019050919050565b5f6020820190508181035f830152620011de816200119f565b9050919050565b7f496e73756666696369656e742066656520616d6f756e742073656e74000000005f82015250565b5f6200121b601c8362000ee2565b91506200122882620011e5565b602082019050919050565b5f6020820190508181035f8301526200124c816200120d565b9050919050565b7f496e76616c6964206665652072656365697665722061646472657373000000005f82015250565b5f62001289601c8362000ee2565b9150620012968262001253565b602082019050919050565b5f6020820190508181035f830152620012ba816200127b565b9050919050565b5f81905092915050565b50565b5f620012db5f83620012c1565b9150620012e882620012cb565b5f82019050919050565b5f620012fe82620012ce565b9150819050919050565b7f466565207472616e73666572206661696c6564000000000000000000000000005f82015250565b5f6200133e60138362000ee2565b91506200134b8262001308565b602082019050919050565b5f6020820190508181035f8301526200136f8162001330565b9050919050565b7f426c61636b6c697374656420616464726573732063616e6e6f742072656365695f8201527f766520746f6b656e730000000000000000000000000000000000000000000000602082015250565b5f620013d260298362000ee2565b9150620013df8262001376565b604082019050919050565b5f6020820190508181035f8301526200140381620013c4565b9050919050565b5f620014168262000a1f565b9150620014238362000a1f565b92508282019050808211156200143e576200143d62000f60565b5b92915050565b6200144f8162000a1f565b82525050565b5f6060820190506200146a5f83018662000ba4565b62001479602083018562001444565b62001488604083018462001444565b949350505050565b5f602082019050620014a55f83018462001444565b92915050565b611e6a80620014b95f395ff3fe608060405234801561000f575f80fd5b5060043610610109575f3560e01c8063715018a6116100a0578063a9059cbb1161006f578063a9059cbb14610293578063dd62ed3e146102c3578063f2fde38b146102f3578063f9f92be41461030f578063fe575a871461032b57610109565b8063715018a61461023157806375e3661e1461023b5780638da5cb5b1461025757806395d89b411461027557610109565b8063313ce567116100dc578063313ce567146101a9578063355274ea146101c757806340c10f19146101e557806370a082311461020157610109565b806306fdde031461010d578063095ea7b31461012b57806318160ddd1461015b57806323b872dd14610179575b5f80fd5b61011561035b565b60405161012291906116af565b60405180910390f35b61014560048036038101906101409190611760565b6103eb565b60405161015291906117b8565b60405180910390f35b610163610525565b60405161017091906117e0565b60405180910390f35b610193600480360381019061018e91906117f9565b61052e565b6040516101a091906117b8565b60405180910390f35b6101b1610674565b6040516101be9190611864565b60405180910390f35b6101cf610689565b6040516101dc91906117e0565b60405180910390f35b6101ff60048036038101906101fa9190611760565b610692565b005b61021b6004803603810190610216919061187d565b610732565b60405161022891906117e0565b60405180910390f35b610239610778565b005b6102556004803603810190610250919061187d565b61078b565b005b61025f61082d565b60405161026c91906118b7565b60405180910390f35b61027d610854565b60405161028a91906116af565b60405180910390f35b6102ad60048036038101906102a89190611760565b6108e4565b6040516102ba91906117b8565b60405180910390f35b6102dd60048036038101906102d891906118d0565b610a1e565b6040516102ea91906117e0565b60405180910390f35b61030d6004803603810190610308919061187d565b610aa0565b005b6103296004803603810190610324919061187d565b610b24565b005b6103456004803603810190610340919061187d565b610bc7565b60405161035291906117b8565b60405180910390f35b60606005805461036a9061193b565b80601f01602080910402602001604051908101604052809291908181526020018280546103969061193b565b80156103e15780601f106103b8576101008083540402835291602001916103e1565b820191905f5260205f20905b8154815290600101906020018083116103c457829003601f168201915b5050505050905090565b5f3360035f8273ffffffffffffffffffffffffffffffffffffffff1673ffffffffffffffffffffffffffffffffffffffff1681526020019081526020015f205f9054906101000a900460ff1615610477576040517f08c379a000000000000000000000000000000000000000000000000000000000815260040161046e906119b5565b60405180910390fd5b8360035f8273ffffffffffffffffffffffffffffffffffffffff1673ffffffffffffffffffffffffffffffffffffffff1681526020019081526020015f205f9054906101000a900460ff1615610502576040517f08c379a00000000000000000000000000000000000000000000000000000000081526004016104f9906119b5565b60405180910390fd5b5f61050b610c19565b9050610518818787610c20565b6001935050505092915050565b5f600454905090565b5f8360035f8273ffffffffffffffffffffffffffffffffffffffff1673ffffffffffffffffffffffffffffffffffffffff1681526020019081526020015f205f9054906101000a900460ff16156105ba576040517f08c379a00000000000000000000000000000000000000000000000000000000081526004016105b1906119b5565b60405180910390fd5b8360035f8273ffffffffffffffffffffffffffffffffffffffff1673ffffffffffffffffffffffffffffffffffffffff1681526020019081526020015f205f9054906101000a900460ff1615610645576040517f08c379a000000000000000000000000000000000000000000000000000000000815260040161063c906119b5565b60405180910390fd5b5f61064e610c19565b905061065b878287610d0f565b610666878787610da2565b600193505050509392505050565b5f60075f9054906101000a900460ff16905090565b5f600854905090565b61069a610f6f565b60035f8373ffffffffffffffffffffffffffffffffffffffff1673ffffffffffffffffffffffffffffffffffffffff1681526020019081526020015f205f9054906101000a900460ff1615610724576040517f08c379a000000000000000000000000000000000000000000000000000000000815260040161071b90611a43565b60405180910390fd5b61072e8282610ff6565b5050565b5f60015f8373ffffffffffffffffffffffffffffffffffffffff1673ffffffffffffffffffffffffffffffffffffffff1681526020019081526020015f20549050919050565b610780610f6f565b6107895f611179565b565b610793610f6f565b5f60035f8373ffffffffffffffffffffffffffffffffffffffff1673ffffffffffffffffffffffffffffffffffffffff1681526020019081526020015f205f6101000a81548160ff0219169083151502179055508073ffffffffffffffffffffffffffffffffffffffff167f7534c63860313c46c473e4e98328f37017e9674e2162faf1a3ad7a96236c3b7b60405160405180910390a250565b5f805f9054906101000a900473ffffffffffffffffffffffffffffffffffffffff16905090565b6060600680546108639061193b565b80601f016020809104026020016040519081016040528092919081815260200182805461088f9061193b565b80156108da5780601f106108b1576101008083540402835291602001916108da565b820191905f5260205f20905b8154815290600101906020018083116108bd57829003601f168201915b5050505050905090565b5f3360035f8273ffffffffffffffffffffffffffffffffffffffff1673ffffffffffffffffffffffffffffffffffffffff1681526020019081526020015f205f9054906101000a900460ff1615610970576040517f08c379a0000000000000000000000000000000000000000000000000000000008152600401610967906119b5565b60405180910390fd5b8360035f8273ffffffffffffffffffffffffffffffffffffffff1673ffffffffffffffffffffffffffffffffffffffff1681526020019081526020015f205f9054906101000a900460ff16156109fb576040517f08c379a00000000000000000000000000000000000000000000000000000000081526004016109f2906119b5565b60405180910390fd5b5f610a04610c19565b9050610a11818787610da2565b6001935050505092915050565b5f60025f8473ffffffffffffffffffffffffffffffffffffffff1673ffffffffffffffffffffffffffffffffffffffff1681526020019081526020015f205f8373ffffffffffffffffffffffffffffffffffffffff1673ffffffffffffffffffffffffffffffffffffffff1681526020019081526020015f2054905092915050565b610aa8610f6f565b5f73ffffffffffffffffffffffffffffffffffffffff168173ffffffffffffffffffffffffffffffffffffffff1603610b18575f6040517f1e4fbdf7000000000000000000000000000000000000000000000000000000008152600401610b0f91906118b7565b60405180910390fd5b610b2181611179565b50565b610b2c610f6f565b600160035f8373ffffffffffffffffffffffffffffffffffffffff1673ffffffffffffffffffffffffffffffffffffffff1681526020019081526020015f205f6101000a81548160ff0219169083151502179055508073ffffffffffffffffffffffffffffffffffffffff167fffa4e6181777692565cf28528fc88fd1516ea86b56da075235fa575af6a4b85560405160405180910390a250565b5f60035f8373ffffffffffffffffffffffffffffffffffffffff1673ffffffffffffffffffffffffffffffffffffffff1681526020019081526020015f205f9054906101000a900460ff169050919050565b5f33905090565b60035f8473ffffffffffffffffffffffffffffffffffffffff1673ffffffffffffffffffffffffffffffffffffffff1681526020019081526020015f205f9054906101000a900460ff16158015610cbe575060035f8373ffffffffffffffffffffffffffffffffffffffff1673ffffffffffffffffffffffffffffffffffffffff1681526020019081526020015f205f9054906101000a900460ff16155b610cfd576040517f08c379a0000000000000000000000000000000000000000000000000000000008152600401610cf490611ad1565b60405180910390fd5b610d0a838383600161123a565b505050565b5f610d1a8484610a1e565b90507fffffffffffffffffffffffffffffffffffffffffffffffffffffffffffffffff811015610d9c5781811015610d8d578281836040517ffb8f41b2000000000000000000000000000000000000000000000000000000008152600401610d8493929190611aef565b60405180910390fd5b610d9b84848484035f61123a565b5b50505050565b60035f8473ffffffffffffffffffffffffffffffffffffffff1673ffffffffffffffffffffffffffffffffffffffff1681526020019081526020015f205f9054906101000a900460ff16158015610e40575060035f8373ffffffffffffffffffffffffffffffffffffffff1673ffffffffffffffffffffffffffffffffffffffff1681526020019081526020015f205f9054906101000a900460ff16155b610e7f576040517f08c379a0000000000000000000000000000000000000000000000000000000008152600401610e7690611b94565b60405180910390fd5b5f73ffffffffffffffffffffffffffffffffffffffff168373ffffffffffffffffffffffffffffffffffffffff1603610eef575f6040517f96c6fd1e000000000000000000000000000000000000000000000000000000008152600401610ee691906118b7565b60405180910390fd5b5f73ffffffffffffffffffffffffffffffffffffffff168273ffffffffffffffffffffffffffffffffffffffff1603610f5f575f6040517fec442f05000000000000000000000000000000000000000000000000000000008152600401610f5691906118b7565b60405180910390fd5b610f6a838383611409565b505050565b610f77610c19565b73ffffffffffffffffffffffffffffffffffffffff16610f9561082d565b73ffffffffffffffffffffffffffffffffffffffff1614610ff457610fb8610c19565b6040517f118cdaa7000000000000000000000000000000000000000000000000000000008152600401610feb91906118b7565b60405180910390fd5b565b60035f8373ffffffffffffffffffffffffffffffffffffffff1673ffffffffffffffffffffffffffffffffffffffff1681526020019081526020015f205f9054906101000a900460ff1615611080576040517f08c379a000000000000000000000000000000000000000000000000000000000815260040161107790611a43565b60405180910390fd5b611088610674565b600a6110949190611d0e565b61109c610689565b6110a69190611d58565b816110af610525565b6110b99190611d99565b11156110fa576040517f08c379a00000000000000000000000000000000000000000000000000000000081526004016110f190611e16565b60405180910390fd5b5f73ffffffffffffffffffffffffffffffffffffffff168273ffffffffffffffffffffffffffffffffffffffff160361116a575f6040517fec442f0500000000000000000000000000000000000000000000000000000000815260040161116191906118b7565b60405180910390fd5b6111755f8383611409565b5050565b5f805f9054906101000a900473ffffffffffffffffffffffffffffffffffffffff169050815f806101000a81548173ffffffffffffffffffffffffffffffffffffffff021916908373ffffffffffffffffffffffffffffffffffffffff1602179055508173ffffffffffffffffffffffffffffffffffffffff168173ffffffffffffffffffffffffffffffffffffffff167f8be0079c531659141344cd1fd0a4f28419497f9722a3daafe3b4186f6b6457e060405160405180910390a35050565b5f73ffffffffffffffffffffffffffffffffffffffff168473ffffffffffffffffffffffffffffffffffffffff16036112aa575f6040517fe602df050000000000000000000000000000000000000000000000000000000081526004016112a191906118b7565b60405180910390fd5b5f73ffffffffffffffffffffffffffffffffffffffff168373ffffffffffffffffffffffffffffffffffffffff160361131a575f6040517f94280d6200000000000000000000000000000000000000000000000000000000815260040161131191906118b7565b60405180910390fd5b8160025f8673ffffffffffffffffffffffffffffffffffffffff1673ffffffffffffffffffffffffffffffffffffffff1681526020019081526020015f205f8573ffffffffffffffffffffffffffffffffffffffff1673ffffffffffffffffffffffffffffffffffffffff1681526020019081526020015f20819055508015611403578273ffffffffffffffffffffffffffffffffffffffff168473ffffffffffffffffffffffffffffffffffffffff167f8c5be1e5ebec7d5bd14f71427d1e84f3dd0314c0f7b2291e5b200ac8c7c3b925846040516113fa91906117e0565b60405180910390a35b50505050565b5f73ffffffffffffffffffffffffffffffffffffffff168373ffffffffffffffffffffffffffffffffffffffff1603611459578060045f82825461144d9190611d99565b92505081905550611529565b5f60015f8573ffffffffffffffffffffffffffffffffffffffff1673ffffffffffffffffffffffffffffffffffffffff1681526020019081526020015f20549050818110156114e3578381836040517fe450d38c0000000000000000000000000000000000000000000000000000000081526004016114da93929190611aef565b60405180910390fd5b81810360015f8673ffffffffffffffffffffffffffffffffffffffff1673ffffffffffffffffffffffffffffffffffffffff1681526020019081526020015f2081905550505b5f73ffffffffffffffffffffffffffffffffffffffff168273ffffffffffffffffffffffffffffffffffffffff1603611570578060045f82825403925050819055506115bb565b8060015f8473ffffffffffffffffffffffffffffffffffffffff1673ffffffffffffffffffffffffffffffffffffffff1681526020019081526020015f205f82825401925050819055505b8173ffffffffffffffffffffffffffffffffffffffff168373ffffffffffffffffffffffffffffffffffffffff167fddf252ad1be2c89b69c2b068fc378daa952ba7f163c4a11628f55a4df523b3ef8360405161161891906117e0565b60405180910390a3505050565b5f81519050919050565b5f82825260208201905092915050565b5f5b8381101561165c578082015181840152602081019050611641565b5f8484015250505050565b5f601f19601f8301169050919050565b5f61168182611625565b61168b818561162f565b935061169b81856020860161163f565b6116a481611667565b840191505092915050565b5f6020820190508181035f8301526116c78184611677565b905092915050565b5f80fd5b5f73ffffffffffffffffffffffffffffffffffffffff82169050919050565b5f6116fc826116d3565b9050919050565b61170c816116f2565b8114611716575f80fd5b50565b5f8135905061172781611703565b92915050565b5f819050919050565b61173f8161172d565b8114611749575f80fd5b50565b5f8135905061175a81611736565b92915050565b5f8060408385031215611776576117756116cf565b5b5f61178385828601611719565b92505060206117948582860161174c565b9150509250929050565b5f8115159050919050565b6117b28161179e565b82525050565b5f6020820190506117cb5f8301846117a9565b92915050565b6117da8161172d565b82525050565b5f6020820190506117f35f8301846117d1565b92915050565b5f805f606084860312156118105761180f6116cf565b5b5f61181d86828701611719565b935050602061182e86828701611719565b925050604061183f8682870161174c565b9150509250925092565b5f60ff82169050919050565b61185e81611849565b82525050565b5f6020820190506118775f830184611855565b92915050565b5f60208284031215611892576118916116cf565b5b5f61189f84828501611719565b91505092915050565b6118b1816116f2565b82525050565b5f6020820190506118ca5f8301846118a8565b92915050565b5f80604083850312156118e6576118e56116cf565b5b5f6118f385828601611719565b925050602061190485828601611719565b9150509250929050565b7f4e487b71000000000000000000000000000000000000000000000000000000005f52602260045260245ffd5b5f600282049050600182168061195257607f821691505b6020821081036119655761196461190e565b5b50919050565b7f4164647265737320697320626c61636b6c6973746564000000000000000000005f82015250565b5f61199f60168361162f565b91506119aa8261196b565b602082019050919050565b5f6020820190508181035f8301526119cc81611993565b9050919050565b7f426c61636b6c697374656420616464726573732063616e6e6f742072656365695f8201527f766520746f6b656e730000000000000000000000000000000000000000000000602082015250565b5f611a2d60298361162f565b9150611a38826119d3565b604082019050919050565b5f6020820190508181035f830152611a5a81611a21565b9050919050565b7f426c61636b6c697374656420616464726573732063616e6e6f7420617070726f5f8201527f7665000000000000000000000000000000000000000000000000000000000000602082015250565b5f611abb60228361162f565b9150611ac682611a61565b604082019050919050565b5f6020820190508181035f830152611ae881611aaf565b9050919050565b5f606082019050611b025f8301866118a8565b611b0f60208301856117d1565b611b1c60408301846117d1565b949350505050565b7f426c61636b6c6973746564206164647265737320696e766f6c76656420696e205f8201527f7472616e73666572000000000000000000000000000000000000000000000000602082015250565b5f611b7e60288361162f565b9150611b8982611b24565b604082019050919050565b5f6020820190508181035f830152611bab81611b72565b9050919050565b7f4e487b71000000000000000000000000000000000000000000000000000000005f52601160045260245ffd5b5f8160011c9050919050565b5f808291508390505b6001851115611c3457808604811115611c1057611c0f611bb2565b5b6001851615611c1f5780820291505b8081029050611c2d85611bdf565b9450611bf4565b94509492505050565b5f82611c4c5760019050611d07565b81611c59575f9050611d07565b8160018114611c6f5760028114611c7957611ca8565b6001915050611d07565b60ff841115611c8b57611c8a611bb2565b5b8360020a915084821115611ca257611ca1611bb2565b5b50611d07565b5060208310610133831016604e8410600b8410161715611cdd5782820a905083811115611cd857611cd7611bb2565b5b611d07565b611cea8484846001611beb565b92509050818404811115611d0157611d00611bb2565b5b81810290505b9392505050565b5f611d188261172d565b9150611d2383611849565b9250611d507fffffffffffffffffffffffffffffffffffffffffffffffffffffffffffffffff8484611c3d565b905092915050565b5f611d628261172d565b9150611d6d8361172d565b9250828202611d7b8161172d565b91508282048414831517611d9257611d91611bb2565b5b5092915050565b5f611da38261172d565b9150611dae8361172d565b9250828201905080821115611dc657611dc5611bb2565b5b92915050565b7f45524332304361707065643a20636170206578636565646564000000000000005f82015250565b5f611e0060198361162f565b9150611e0b82611dcc565b602082019050919050565b5f6020820190508181035f830152611e2d81611df4565b905091905056fea2646970667358221220587bbf26eef141b9c5227cf725b218de29d909f4e2fa0a7b056de2f1e84f0f2964736f6c63430008170033","linkReferences":{}},"methodIdentifiers":{"allowance(address,address)":"dd62ed3e","approve(address,uint256)":"095ea7b3","balanceOf(address)":"70a08231","blacklist(address)":"f9f92be4","cap()":"355274ea","decimals()":"313ce567","isBlacklisted(address)":"fe575a87","mint(address,uint256)":"40c10f19","name()":"06fdde03","owner()":"8da5cb5b","renounceOwnership()":"715018a6","symbol()":"95d89b41","totalSupply()":"18160ddd","transfer(address,uint256)":"a9059cbb","transferFrom(address,address,uint256)":"23b872dd","transferOwnership(address)":"f2fde38b","unblacklist(address)":"75e3661e"},"id":18}