{"abi":[{"type":"constructor","inputs":[{"name":"name_","type":"string","internalType":"string"},{"name":"symbol_","type":"string","internalType":"string"},{"name":"decimals_","type":"uint8","internalType":"uint8"},{"name":"totalSupply_","type":"uint256","internalType":"uint256"},{"name":"serviceFeeReceiver_","type":"address","internalType":"address"},{"name":"serviceFee_","type":"uint256","internalType":"uint256"},{"name":"transferTaxBps_","type":"uint256","internalType":"uint256"},{"name":"taxFeeRecipient_","type":"address","internalType":"address"}],"stateMutability":"payable"},{"type":"function","name":"allowance","inputs":[{"name":"owner","type":"address","internalType":"address"},{"name":"spender","type":"address","internalType":"address"}],"outputs":[{"name":"","type":"uint256","internalType":"uint256"}],"stateMutability":"view"},{"type":"function","name":"approve","inputs":[{"name":"spender","type":"address","internalType":"address"},{"name":"value","type":"uint256","internalType":"uint256"}],"outputs":[{"name":"","type":"bool","internalType":"bool"}],"stateMutability":"nonpayable"},{"type":"function","name":"balanceOf","inputs":[{"name":"account","type":"address","internalType":"address"}],"outputs":[{"name":"","type":"uint256","internalType":"uint256"}],"stateMutability":"view"},{"type":"function","name":"blacklist","inputs":[{"name":"account","type":"address","internalType":"address"}],"outputs":[],"stateMutability":"nonpayable"},{"type":"function","name":"burn","inputs":[{"name":"value","type":"uint256","internalType":"uint256"}],"outputs":[],"stateMutability":"nonpayable"},{"type":"function","name":"burnFrom","inputs":[{"name":"account","type":"address","internalType":"address"},{"name":"value","type":"uint256","internalType":"uint256"}],"outputs":[],"stateMutability":"nonpayable"},{"type":"function","name":"decimals","inputs":[],"outputs":[{"name":"","type":"uint8","internalType":"uint8"}],"stateMutability":"view"},{"type":"function","name":"getTaxFeeRecipient","inputs":[],"outputs":[{"name":"","type":"address","internalType":"address"}],"stateMutability":"view"},{"type":"function","name":"getTransferTaxBps","inputs":[],"outputs":[{"name":"","type":"uint256","internalType":"uint256"}],"stateMutability":"view"},{"type":"function","name":"isBlacklisted","inputs":[{"name":"account","type":"address","internalType":"address"}],"outputs":[{"name":"","type":"bool","internalType":"bool"}],"stateMutability":"view"},{"type":"function","name":"name","inputs":[],"outputs":[{"name":"","type":"string","internalType":"string"}],"stateMutability":"view"},{"type":"function","name":"owner","inputs":[],"outputs":[{"name":"","type":"address","internalType":"address"}],"stateMutability":"view"},{"type":"function","name":"pause","inputs":[],"outputs":[],"stateMutability":"nonpayable"},{"type":"function","name":"paused","inputs":[],"outputs":[{"name":"","type":"bool","internalType":"bool"}],"stateMutability":"view"},{"type":"function","name":"renounceOwnership","inputs":[],"outputs":[],"stateMutability":"nonpayable"},{"type":"function","name":"symbol","inputs":[],"outputs":[{"name":"","type":"string","internalType":"string"}],"stateMutability":"view"},{"type":"function","name":"totalSupply","inputs":[],"outputs":[{"name":"","type":"uint256","internalType":"uint256"}],"stateMutability":"view"},{"type":"function","name":"transfer","inputs":[{"name":"to","type":"address","internalType":"address"},{"name":"value","type":"uint256","internalType":"uint256"}],"outputs":[{"name":"","type":"bool","internalType":"bool"}],"stateMutability":"nonpayable"},{"type":"function","name":"transferFrom","inputs":[{"name":"from","type":"address","internalType":"address"},{"name":"to","type":"address","internalType":"address"},{"name":"value","type":"uint256","internalType":"uint256"}],"outputs":[{"name":"","type":"bool","internalType":"bool"}],"stateMutability":"nonpayable"},{"type":"function","name":"transferOwnership","inputs":[{"name":"newOwner","type":"address","internalType":"address"}],"outputs":[],"stateMutability":"nonpayable"},{"type":"function","name":"unblacklist","inputs":[{"name":"account","type":"address","internalType":"address"}],"outputs":[],"stateMutability":"nonpayable"},{"type":"function","name":"unpause","inputs":[],"outputs":[],"stateMutability":"nonpayable"},{"type":"function","name":"updateTaxFeeRecipient","inputs":[{"name":"newTaxFeeRecipient","type":"address","internalType":"address"}],"outputs":[],"stateMutability":"nonpayable"},{"type":"event","name":"Approval","inputs":[{"name":"owner","type":"address","indexed":true,"internalType":"address"},{"name":"spender","type":"address","indexed":true,"internalType":"address"},{"name":"value","type":"uint256","indexed":false,"internalType":"uint256"}],"anonymous":false},{"type":"event","name":"Blacklisted","inputs":[{"name":"account","type":"address","indexed":true,"internalType":"address"}],"anonymous":false},{"type":"event","name":"OwnershipTransferred","inputs":[{"name":"previousOwner","type":"address","indexed":true,"internalType":"address"},{"name":"newOwner","type":"address","indexed":true,"internalType":"address"}],"anonymous":false},{"type":"event","name":"Paused","inputs":[{"name":"account","type":"address","indexed":false,"internalType":"address"}],"anonymous":false},{"type":"event","name":"TaxFeeRecipientUpdated","inputs":[{"name":"newTaxFeeRecipient","type":"address","indexed":false,"internalType":"address"}],"anonymous":false},{"type":"event","name":"Transfer","inputs":[{"name":"from","type":"address","indexed":true,"internalType":"address"},{"name":"to","type":"address","indexed":true,"internalType":"address"},{"name":"value","type":"uint256","indexed":false,"internalType":"uint256"}],"anonymous":false},{"type":"event","name":"Unblacklisted","inputs":[{"name":"account","type":"address","indexed":true,"internalType":"address"}],"anonymous":false},{"type":"event","name":"Unpaused","inputs":[{"name":"account","type":"address","indexed":false,"internalType":"address"}],"anonymous":false},{"type":"error","name":"ERC20InsufficientAllowance","inputs":[{"name":"spender","type":"address","internalType":"address"},{"name":"allowance","type":"uint256","internalType":"uint256"},{"name":"needed","type":"uint256","internalType":"uint256"}]},{"type":"error","name":"ERC20InsufficientBalance","inputs":[{"name":"sender","type":"address","internalType":"address"},{"name":"balance","type":"uint256","internalType":"uint256"},{"name":"needed","type":"uint256","internalType":"uint256"}]},{"type":"error","name":"ERC20InvalidApprover","inputs":[{"name":"approver","type":"address","internalType":"address"}]},{"type":"error","name":"ERC20InvalidReceiver","inputs":[{"name":"receiver","type":"address","internalType":"address"}]},{"type":"error","name":"ERC20InvalidSender","inputs":[{"name":"sender","type":"address","internalType":"address"}]},{"type":"error","name":"ERC20InvalidSpender","inputs":[{"name":"spender","type":"address","internalType":"address"}]},{"type":"error","name":"EnforcedPause","inputs":[]},{"type":"error","name":"ExpectedPause","inputs":[]},{"type":"error","name":"OwnableInvalidOwner","inputs":[{"name":"owner","type":"address","internalType":"address"}]},{"type":"error","name":"OwnableUnauthorizedAccount","inputs":[{"name":"account","type":"address","internalType":"address"}]}],"bytecode":{"object":"0x608060405260405161323d38038061323d83398181016040528101906100259190610a14565b335f73ffffffffffffffffffffffffffffffffffffffff168173ffffffffffffffffffffffffffffffffffffffff1603610096575f6040517f1e4fbdf700000000000000000000000000000000000000000000000000000000815260040161008d9190610b0c565b60405180910390fd5b6100a5816102e860201b60201c565b505f5f60146101000a81548160ff02191690831515021790555087600590816100ce9190610d2c565b5086600690816100de9190610d2c565b508560075f6101000a81548160ff021916908360ff160217905550816008819055508060095f6101000a81548173ffffffffffffffffffffffffffffffffffffffff021916908373ffffffffffffffffffffffffffffffffffffffff16021790555082341015610183576040517f08c379a000000000000000000000000000000000000000000000000000000000815260040161017a90610e55565b60405180910390fd5b5f73ffffffffffffffffffffffffffffffffffffffff168473ffffffffffffffffffffffffffffffffffffffff16036101f1576040517f08c379a00000000000000000000000000000000000000000000000000000000081526004016101e890610ebd565b60405180910390fd5b5f8473ffffffffffffffffffffffffffffffffffffffff168460405161021690610f08565b5f6040518083038185875af1925050503d805f8114610250576040519150601f19603f3d011682016040523d82523d5f602084013e610255565b606091505b5050905080610299576040517f08c379a000000000000000000000000000000000000000000000000000000000815260040161029090610f66565b60405180910390fd5b6102da6102aa6103a960201b60201c565b6102b86103d060201b60201c565b600a6102c491906110e0565b886102cf919061112a565b6103e560201b60201c565b5050505050505050506112cb565b5f5f5f9054906101000a900473ffffffffffffffffffffffffffffffffffffffff169050815f5f6101000a81548173ffffffffffffffffffffffffffffffffffffffff021916908373ffffffffffffffffffffffffffffffffffffffff1602179055508173ffffffffffffffffffffffffffffffffffffffff168173ffffffffffffffffffffffffffffffffffffffff167f8be0079c531659141344cd1fd0a4f28419497f9722a3daafe3b4186f6b6457e060405160405180910390a35050565b5f5f5f9054906101000a900473ffffffffffffffffffffffffffffffffffffffff16905090565b5f60075f9054906101000a900460ff16905090565b5f73ffffffffffffffffffffffffffffffffffffffff168273ffffffffffffffffffffffffffffffffffffffff1603610455575f6040517fec442f0500000000000000000000000000000000000000000000000000000000815260040161044c9190610b0c565b60405180910390fd5b6104665f838361046a60201b60201c565b5050565b6104786107a860201b60201c565b60035f8473ffffffffffffffffffffffffffffffffffffffff1673ffffffffffffffffffffffffffffffffffffffff1681526020019081526020015f205f9054906101000a900460ff1615610502576040517f08c379a00000000000000000000000000000000000000000000000000000000081526004016104f9906111b5565b60405180910390fd5b60035f8373ffffffffffffffffffffffffffffffffffffffff1673ffffffffffffffffffffffffffffffffffffffff1681526020019081526020015f205f9054906101000a900460ff161561058c576040517f08c379a00000000000000000000000000000000000000000000000000000000081526004016105839061121d565b60405180910390fd5b5f73ffffffffffffffffffffffffffffffffffffffff168373ffffffffffffffffffffffffffffffffffffffff16036105dc578060045f8282546105d0919061123b565b925050819055506106ac565b5f60015f8573ffffffffffffffffffffffffffffffffffffffff1673ffffffffffffffffffffffffffffffffffffffff1681526020019081526020015f2054905081811015610666578381836040517fe450d38c00000000000000000000000000000000000000000000000000000000815260040161065d9392919061127d565b60405180910390fd5b81810360015f8673ffffffffffffffffffffffffffffffffffffffff1673ffffffffffffffffffffffffffffffffffffffff1681526020019081526020015f2081905550505b5f73ffffffffffffffffffffffffffffffffffffffff168273ffffffffffffffffffffffffffffffffffffffff16036106f3578060045f828254039250508190555061073e565b8060015f8473ffffffffffffffffffffffffffffffffffffffff1673ffffffffffffffffffffffffffffffffffffffff1681526020019081526020015f205f82825401925050819055505b8173ffffffffffffffffffffffffffffffffffffffff168373ffffffffffffffffffffffffffffffffffffffff167fddf252ad1be2c89b69c2b068fc378daa952ba7f163c4a11628f55a4df523b3ef8360405161079b91906112b2565b60405180910390a3505050565b6107b66107ef60201b60201c565b156107ed576040517fd93c066500000000000000000000000000000000000000000000000000000000815260040160405180910390fd5b565b5f5f60149054906101000a900460ff16905090565b5f604051905090565b5f5ffd5b5f5ffd5b5f5ffd5b5f5ffd5b5f601f19601f8301169050919050565b7f4e487b71000000000000000000000000000000000000000000000000000000005f52604160045260245ffd5b6108638261081d565b810181811067ffffffffffffffff821117156108825761088161082d565b5b80604052505050565b5f610894610804565b90506108a0828261085a565b919050565b5f67ffffffffffffffff8211156108bf576108be61082d565b5b6108c88261081d565b9050602081019050919050565b8281835e5f83830152505050565b5f6108f56108f0846108a5565b61088b565b90508281526020810184848401111561091157610910610819565b5b61091c8482856108d5565b509392505050565b5f82601f83011261093857610937610815565b5b81516109488482602086016108e3565b91505092915050565b5f60ff82169050919050565b61096681610951565b8114610970575f5ffd5b50565b5f815190506109818161095d565b92915050565b5f819050919050565b61099981610987565b81146109a3575f5ffd5b50565b5f815190506109b481610990565b92915050565b5f73ffffffffffffffffffffffffffffffffffffffff82169050919050565b5f6109e3826109ba565b9050919050565b6109f3816109d9565b81146109fd575f5ffd5b50565b5f81519050610a0e816109ea565b92915050565b5f5f5f5f5f5f5f5f610100898b031215610a3157610a3061080d565b5b5f89015167ffffffffffffffff811115610a4e57610a4d610811565b5b610a5a8b828c01610924565b985050602089015167ffffffffffffffff811115610a7b57610a7a610811565b5b610a878b828c01610924565b9750506040610a988b828c01610973565b9650506060610aa98b828c016109a6565b9550506080610aba8b828c01610a00565b94505060a0610acb8b828c016109a6565b93505060c0610adc8b828c016109a6565b92505060e0610aed8b828c01610a00565b9150509295985092959890939650565b610b06816109d9565b82525050565b5f602082019050610b1f5f830184610afd565b92915050565b5f81519050919050565b7f4e487b71000000000000000000000000000000000000000000000000000000005f52602260045260245ffd5b5f6002820490506001821680610b7357607f821691505b602082108103610b8657610b85610b2f565b5b50919050565b5f819050815f5260205f209050919050565b5f6020601f8301049050919050565b5f82821b905092915050565b5f60088302610be87fffffffffffffffffffffffffffffffffffffffffffffffffffffffffffffffff82610bad565b610bf28683610bad565b95508019841693508086168417925050509392505050565b5f819050919050565b5f610c2d610c28610c2384610987565b610c0a565b610987565b9050919050565b5f819050919050565b610c4683610c13565b610c5a610c5282610c34565b848454610bb9565b825550505050565b5f5f905090565b610c71610c62565b610c7c818484610c3d565b505050565b5b81811015610c9f57610c945f82610c69565b600181019050610c82565b5050565b601f821115610ce457610cb581610b8c565b610cbe84610b9e565b81016020851015610ccd578190505b610ce1610cd985610b9e565b830182610c81565b50505b505050565b5f82821c905092915050565b5f610d045f1984600802610ce9565b1980831691505092915050565b5f610d1c8383610cf5565b9150826002028217905092915050565b610d3582610b25565b67ffffffffffffffff811115610d4e57610d4d61082d565b5b610d588254610b5c565b610d63828285610ca3565b5f60209050601f831160018114610d94575f8415610d82578287015190505b610d8c8582610d11565b865550610df3565b601f198416610da286610b8c565b5f5b82811015610dc957848901518255600182019150602085019450602081019050610da4565b86831015610de65784890151610de2601f891682610cf5565b8355505b6001600288020188555050505b505050505050565b5f82825260208201905092915050565b7f496e73756666696369656e742066656520616d6f756e742073656e74000000005f82015250565b5f610e3f601c83610dfb565b9150610e4a82610e0b565b602082019050919050565b5f6020820190508181035f830152610e6c81610e33565b9050919050565b7f496e76616c6964206665652072656365697665722061646472657373000000005f82015250565b5f610ea7601c83610dfb565b9150610eb282610e73565b602082019050919050565b5f6020820190508181035f830152610ed481610e9b565b9050919050565b5f81905092915050565b50565b5f610ef35f83610edb565b9150610efe82610ee5565b5f82019050919050565b5f610f1282610ee8565b9150819050919050565b7f466565207472616e73666572206661696c6564000000000000000000000000005f82015250565b5f610f50601383610dfb565b9150610f5b82610f1c565b602082019050919050565b5f6020820190508181035f830152610f7d81610f44565b9050919050565b7f4e487b71000000000000000000000000000000000000000000000000000000005f52601160045260245ffd5b5f8160011c9050919050565b5f5f8291508390505b600185111561100657808604811115610fe257610fe1610f84565b5b6001851615610ff15780820291505b8081029050610fff85610fb1565b9450610fc6565b94509492505050565b5f8261101e57600190506110d9565b8161102b575f90506110d9565b8160018114611041576002811461104b5761107a565b60019150506110d9565b60ff84111561105d5761105c610f84565b5b8360020a91508482111561107457611073610f84565b5b506110d9565b5060208310610133831016604e8410600b84101617156110af5782820a9050838111156110aa576110a9610f84565b5b6110d9565b6110bc8484846001610fbd565b925090508184048111156110d3576110d2610f84565b5b81810290505b9392505050565b5f6110ea82610987565b91506110f583610951565b92506111227fffffffffffffffffffffffffffffffffffffffffffffffffffffffffffffffff848461100f565b905092915050565b5f61113482610987565b915061113f83610987565b925082820261114d81610987565b9150828204841483151761116457611163610f84565b5b5092915050565b7f53656e64657220697320626c61636b6c697374656400000000000000000000005f82015250565b5f61119f601583610dfb565b91506111aa8261116b565b602082019050919050565b5f6020820190508181035f8301526111cc81611193565b9050919050565b7f526563697069656e7420697320626c61636b6c697374656400000000000000005f82015250565b5f611207601883610dfb565b9150611212826111d3565b602082019050919050565b5f6020820190508181035f830152611234816111fb565b9050919050565b5f61124582610987565b915061125083610987565b925082820190508082111561126857611267610f84565b5b92915050565b61127781610987565b82525050565b5f6060820190506112905f830186610afd565b61129d602083018561126e565b6112aa604083018461126e565b949350505050565b5f6020820190506112c55f83018461126e565b92915050565b611f65806112d85f395ff3fe608060405234801561000f575f5ffd5b506004361061014b575f3560e01c8063743bfe70116100c157806395d89b411161007a57806395d89b411461033f578063a9059cbb1461035d578063dd62ed3e1461038d578063f2fde38b146103bd578063f9f92be4146103d9578063fe575a87146103f55761014b565b8063743bfe70146102a557806375e3661e146102c357806379cc6790146102df5780638456cb59146102fb5780638baace25146103055780638da5cb5b146103215761014b565b8063313ce56711610113578063313ce567146102095780633f4ba83a1461022757806342966c68146102315780635c975abb1461024d57806370a082311461026b578063715018a61461029b5761014b565b806303073dfc1461014f57806306fdde031461016d578063095ea7b31461018b57806318160ddd146101bb57806323b872dd146101d9575b5f5ffd5b610157610425565b6040516101649190611979565b60405180910390f35b61017561044d565b6040516101829190611a02565b60405180910390f35b6101a560048036038101906101a09190611a83565b6104dd565b6040516101b29190611adb565b60405180910390f35b6101c36104ff565b6040516101d09190611b03565b60405180910390f35b6101f360048036038101906101ee9190611b1c565b610508565b6040516102009190611adb565b60405180910390f35b610211610536565b60405161021e9190611b87565b60405180910390f35b61022f61054b565b005b61024b60048036038101906102469190611ba0565b61055d565b005b610255610571565b6040516102629190611adb565b60405180910390f35b61028560048036038101906102809190611bcb565b610586565b6040516102929190611b03565b60405180910390f35b6102a36105cc565b005b6102ad6105df565b6040516102ba9190611b03565b60405180910390f35b6102dd60048036038101906102d89190611bcb565b6105e8565b005b6102f960048036038101906102f49190611a83565b61068a565b005b6103036106aa565b005b61031f600480360381019061031a9190611bcb565b6106bc565b005b61032961073e565b6040516103369190611979565b60405180910390f35b610347610765565b6040516103549190611a02565b60405180910390f35b61037760048036038101906103729190611a83565b6107f5565b6040516103849190611adb565b60405180910390f35b6103a760048036038101906103a29190611bf6565b610c7d565b6040516103b49190611b03565b60405180910390f35b6103d760048036038101906103d29190611bcb565b610cff565b005b6103f360048036038101906103ee9190611bcb565b610d83565b005b61040f600480360381019061040a9190611bcb565b610e26565b60405161041c9190611adb565b60405180910390f35b5f60095f9054906101000a900473ffffffffffffffffffffffffffffffffffffffff16905090565b60606005805461045c90611c61565b80601f016020809104026020016040519081016040528092919081815260200182805461048890611c61565b80156104d35780601f106104aa576101008083540402835291602001916104d3565b820191905f5260205f20905b8154815290600101906020018083116104b657829003601f168201915b5050505050905090565b5f5f6104e7610e78565b90506104f4818585610e7f565b600191505092915050565b5f600454905090565b5f5f610512610e78565b905061051f858285610e91565b61052a858585610f24565b60019150509392505050565b5f60075f9054906101000a900460ff16905090565b610553611128565b61055b6111af565b565b61056e610568610e78565b82611210565b50565b5f5f60149054906101000a900460ff16905090565b5f60015f8373ffffffffffffffffffffffffffffffffffffffff1673ffffffffffffffffffffffffffffffffffffffff1681526020019081526020015f20549050919050565b6105d4611128565b6105dd5f61128f565b565b5f600854905090565b6105f0611128565b5f60035f8373ffffffffffffffffffffffffffffffffffffffff1673ffffffffffffffffffffffffffffffffffffffff1681526020019081526020015f205f6101000a81548160ff0219169083151502179055508073ffffffffffffffffffffffffffffffffffffffff167f7534c63860313c46c473e4e98328f37017e9674e2162faf1a3ad7a96236c3b7b60405160405180910390a250565b61069c82610696610e78565b83610e91565b6106a68282611210565b5050565b6106b2611128565b6106ba611350565b565b6106c4611128565b8060095f6101000a81548173ffffffffffffffffffffffffffffffffffffffff021916908373ffffffffffffffffffffffffffffffffffffffff1602179055507f3ca9233bd3849737ab1049144180bc625db2d51ca2c5ce949e7209eb32faa3a2816040516107339190611979565b60405180910390a150565b5f5f5f9054906101000a900473ffffffffffffffffffffffffffffffffffffffff16905090565b60606006805461077490611c61565b80601f01602080910402602001604051908101604052809291908181526020018280546107a090611c61565b80156107eb5780601f106107c2576101008083540402835291602001916107eb565b820191905f5260205f20905b8154815290600101906020018083116107ce57829003601f168201915b5050505050905090565b5f3360035f8273ffffffffffffffffffffffffffffffffffffffff1673ffffffffffffffffffffffffffffffffffffffff1681526020019081526020015f205f9054906101000a900460ff1615610881576040517f08c379a000000000000000000000000000000000000000000000000000000000815260040161087890611cdb565b60405180910390fd5b8360035f8273ffffffffffffffffffffffffffffffffffffffff1673ffffffffffffffffffffffffffffffffffffffff1681526020019081526020015f205f9054906101000a900460ff161561090c576040517f08c379a000000000000000000000000000000000000000000000000000000000815260040161090390611cdb565b60405180910390fd5b5f610915610e78565b90505f612710600854876109299190611d26565b6109339190611d94565b90505f81876109429190611dc4565b90508660015f8573ffffffffffffffffffffffffffffffffffffffff1673ffffffffffffffffffffffffffffffffffffffff1681526020019081526020015f20541015610a07578260015f8573ffffffffffffffffffffffffffffffffffffffff1673ffffffffffffffffffffffffffffffffffffffff1681526020019081526020015f2054886040517fe450d38c0000000000000000000000000000000000000000000000000000000081526004016109fe93929190611df7565b60405180910390fd5b8660015f8573ffffffffffffffffffffffffffffffffffffffff1673ffffffffffffffffffffffffffffffffffffffff1681526020019081526020015f205f828254610a539190611dc4565b925050819055508060015f8a73ffffffffffffffffffffffffffffffffffffffff1673ffffffffffffffffffffffffffffffffffffffff1681526020019081526020015f205f828254610aa69190611e2c565b925050819055505f73ffffffffffffffffffffffffffffffffffffffff1660095f9054906101000a900473ffffffffffffffffffffffffffffffffffffffff1673ffffffffffffffffffffffffffffffffffffffff1614158015610b0957505f82115b15610c09578160015f60095f9054906101000a900473ffffffffffffffffffffffffffffffffffffffff1673ffffffffffffffffffffffffffffffffffffffff1673ffffffffffffffffffffffffffffffffffffffff1681526020019081526020015f205f828254610b7b9190611e2c565b9250508190555060095f9054906101000a900473ffffffffffffffffffffffffffffffffffffffff1673ffffffffffffffffffffffffffffffffffffffff168373ffffffffffffffffffffffffffffffffffffffff167fddf252ad1be2c89b69c2b068fc378daa952ba7f163c4a11628f55a4df523b3ef84604051610c009190611b03565b60405180910390a35b8773ffffffffffffffffffffffffffffffffffffffff168373ffffffffffffffffffffffffffffffffffffffff167fddf252ad1be2c89b69c2b068fc378daa952ba7f163c4a11628f55a4df523b3ef83604051610c669190611b03565b60405180910390a360019550505050505092915050565b5f60025f8473ffffffffffffffffffffffffffffffffffffffff1673ffffffffffffffffffffffffffffffffffffffff1681526020019081526020015f205f8373ffffffffffffffffffffffffffffffffffffffff1673ffffffffffffffffffffffffffffffffffffffff1681526020019081526020015f2054905092915050565b610d07611128565b5f73ffffffffffffffffffffffffffffffffffffffff168173ffffffffffffffffffffffffffffffffffffffff1603610d77575f6040517f1e4fbdf7000000000000000000000000000000000000000000000000000000008152600401610d6e9190611979565b60405180910390fd5b610d808161128f565b50565b610d8b611128565b600160035f8373ffffffffffffffffffffffffffffffffffffffff1673ffffffffffffffffffffffffffffffffffffffff1681526020019081526020015f205f6101000a81548160ff0219169083151502179055508073ffffffffffffffffffffffffffffffffffffffff167fffa4e6181777692565cf28528fc88fd1516ea86b56da075235fa575af6a4b85560405160405180910390a250565b5f60035f8373ffffffffffffffffffffffffffffffffffffffff1673ffffffffffffffffffffffffffffffffffffffff1681526020019081526020015f205f9054906101000a900460ff169050919050565b5f33905090565b610e8c83838360016113b2565b505050565b5f610e9c8484610c7d565b90507fffffffffffffffffffffffffffffffffffffffffffffffffffffffffffffffff811015610f1e5781811015610f0f578281836040517ffb8f41b2000000000000000000000000000000000000000000000000000000008152600401610f0693929190611df7565b60405180910390fd5b610f1d84848484035f6113b2565b5b50505050565b60035f8473ffffffffffffffffffffffffffffffffffffffff1673ffffffffffffffffffffffffffffffffffffffff1681526020019081526020015f205f9054906101000a900460ff1615610fae576040517f08c379a0000000000000000000000000000000000000000000000000000000008152600401610fa590611ea9565b60405180910390fd5b60035f8373ffffffffffffffffffffffffffffffffffffffff1673ffffffffffffffffffffffffffffffffffffffff1681526020019081526020015f205f9054906101000a900460ff1615611038576040517f08c379a000000000000000000000000000000000000000000000000000000000815260040161102f90611f11565b60405180910390fd5b5f73ffffffffffffffffffffffffffffffffffffffff168373ffffffffffffffffffffffffffffffffffffffff16036110a8575f6040517f96c6fd1e00000000000000000000000000000000000000000000000000000000815260040161109f9190611979565b60405180910390fd5b5f73ffffffffffffffffffffffffffffffffffffffff168273ffffffffffffffffffffffffffffffffffffffff1603611118575f6040517fec442f0500000000000000000000000000000000000000000000000000000000815260040161110f9190611979565b60405180910390fd5b611123838383611581565b505050565b611130610e78565b73ffffffffffffffffffffffffffffffffffffffff1661114e61073e565b73ffffffffffffffffffffffffffffffffffffffff16146111ad57611171610e78565b6040517f118cdaa70000000000000000000000000000000000000000000000000000000081526004016111a49190611979565b60405180910390fd5b565b6111b76118b9565b5f5f60146101000a81548160ff0219169083151502179055507f5db9ee0a495bf2e6ff9c91a7834c1ba4fdd244a5e8aa4e537bd38aeae4b073aa6111f9610e78565b6040516112069190611979565b60405180910390a1565b5f73ffffffffffffffffffffffffffffffffffffffff168273ffffffffffffffffffffffffffffffffffffffff1603611280575f6040517f96c6fd1e0000000000000000000000000000000000000000000000000000000081526004016112779190611979565b60405180910390fd5b61128b825f83611581565b5050565b5f5f5f9054906101000a900473ffffffffffffffffffffffffffffffffffffffff169050815f5f6101000a81548173ffffffffffffffffffffffffffffffffffffffff021916908373ffffffffffffffffffffffffffffffffffffffff1602179055508173ffffffffffffffffffffffffffffffffffffffff168173ffffffffffffffffffffffffffffffffffffffff167f8be0079c531659141344cd1fd0a4f28419497f9722a3daafe3b4186f6b6457e060405160405180910390a35050565b6113586118f9565b60015f60146101000a81548160ff0219169083151502179055507f62e78cea01bee320cd4e420270b5ea74000d11b0c9f74754ebdbfc544b05a25861139b610e78565b6040516113a89190611979565b60405180910390a1565b5f73ffffffffffffffffffffffffffffffffffffffff168473ffffffffffffffffffffffffffffffffffffffff1603611422575f6040517fe602df050000000000000000000000000000000000000000000000000000000081526004016114199190611979565b60405180910390fd5b5f73ffffffffffffffffffffffffffffffffffffffff168373ffffffffffffffffffffffffffffffffffffffff1603611492575f6040517f94280d620000000000000000000000000000000000000000000000000000000081526004016114899190611979565b60405180910390fd5b8160025f8673ffffffffffffffffffffffffffffffffffffffff1673ffffffffffffffffffffffffffffffffffffffff1681526020019081526020015f205f8573ffffffffffffffffffffffffffffffffffffffff1673ffffffffffffffffffffffffffffffffffffffff1681526020019081526020015f2081905550801561157b578273ffffffffffffffffffffffffffffffffffffffff168473ffffffffffffffffffffffffffffffffffffffff167f8c5be1e5ebec7d5bd14f71427d1e84f3dd0314c0f7b2291e5b200ac8c7c3b925846040516115729190611b03565b60405180910390a35b50505050565b6115896118f9565b60035f8473ffffffffffffffffffffffffffffffffffffffff1673ffffffffffffffffffffffffffffffffffffffff1681526020019081526020015f205f9054906101000a900460ff1615611613576040517f08c379a000000000000000000000000000000000000000000000000000000000815260040161160a90611ea9565b60405180910390fd5b60035f8373ffffffffffffffffffffffffffffffffffffffff1673ffffffffffffffffffffffffffffffffffffffff1681526020019081526020015f205f9054906101000a900460ff161561169d576040517f08c379a000000000000000000000000000000000000000000000000000000000815260040161169490611f11565b60405180910390fd5b5f73ffffffffffffffffffffffffffffffffffffffff168373ffffffffffffffffffffffffffffffffffffffff16036116ed578060045f8282546116e19190611e2c565b925050819055506117bd565b5f60015f8573ffffffffffffffffffffffffffffffffffffffff1673ffffffffffffffffffffffffffffffffffffffff1681526020019081526020015f2054905081811015611777578381836040517fe450d38c00000000000000000000000000000000000000000000000000000000815260040161176e93929190611df7565b60405180910390fd5b81810360015f8673ffffffffffffffffffffffffffffffffffffffff1673ffffffffffffffffffffffffffffffffffffffff1681526020019081526020015f2081905550505b5f73ffffffffffffffffffffffffffffffffffffffff168273ffffffffffffffffffffffffffffffffffffffff1603611804578060045f828254039250508190555061184f565b8060015f8473ffffffffffffffffffffffffffffffffffffffff1673ffffffffffffffffffffffffffffffffffffffff1681526020019081526020015f205f82825401925050819055505b8173ffffffffffffffffffffffffffffffffffffffff168373ffffffffffffffffffffffffffffffffffffffff167fddf252ad1be2c89b69c2b068fc378daa952ba7f163c4a11628f55a4df523b3ef836040516118ac9190611b03565b60405180910390a3505050565b6118c1610571565b6118f7576040517f8dfc202b00000000000000000000000000000000000000000000000000000000815260040160405180910390fd5b565b611901610571565b15611938576040517fd93c066500000000000000000000000000000000000000000000000000000000815260040160405180910390fd5b565b5f73ffffffffffffffffffffffffffffffffffffffff82169050919050565b5f6119638261193a565b9050919050565b61197381611959565b82525050565b5f60208201905061198c5f83018461196a565b92915050565b5f81519050919050565b5f82825260208201905092915050565b8281835e5f83830152505050565b5f601f19601f8301169050919050565b5f6119d482611992565b6119de818561199c565b93506119ee8185602086016119ac565b6119f7816119ba565b840191505092915050565b5f6020820190508181035f830152611a1a81846119ca565b905092915050565b5f5ffd5b611a2f81611959565b8114611a39575f5ffd5b50565b5f81359050611a4a81611a26565b92915050565b5f819050919050565b611a6281611a50565b8114611a6c575f5ffd5b50565b5f81359050611a7d81611a59565b92915050565b5f5f60408385031215611a9957611a98611a22565b5b5f611aa685828601611a3c565b9250506020611ab785828601611a6f565b9150509250929050565b5f8115159050919050565b611ad581611ac1565b82525050565b5f602082019050611aee5f830184611acc565b92915050565b611afd81611a50565b82525050565b5f602082019050611b165f830184611af4565b92915050565b5f5f5f60608486031215611b3357611b32611a22565b5b5f611b4086828701611a3c565b9350506020611b5186828701611a3c565b9250506040611b6286828701611a6f565b9150509250925092565b5f60ff82169050919050565b611b8181611b6c565b82525050565b5f602082019050611b9a5f830184611b78565b92915050565b5f60208284031215611bb557611bb4611a22565b5b5f611bc284828501611a6f565b91505092915050565b5f60208284031215611be057611bdf611a22565b5b5f611bed84828501611a3c565b91505092915050565b5f5f60408385031215611c0c57611c0b611a22565b5b5f611c1985828601611a3c565b9250506020611c2a85828601611a3c565b9150509250929050565b7f4e487b71000000000000000000000000000000000000000000000000000000005f52602260045260245ffd5b5f6002820490506001821680611c7857607f821691505b602082108103611c8b57611c8a611c34565b5b50919050565b7f4164647265737320697320626c61636b6c6973746564000000000000000000005f82015250565b5f611cc560168361199c565b9150611cd082611c91565b602082019050919050565b5f6020820190508181035f830152611cf281611cb9565b9050919050565b7f4e487b71000000000000000000000000000000000000000000000000000000005f52601160045260245ffd5b5f611d3082611a50565b9150611d3b83611a50565b9250828202611d4981611a50565b91508282048414831517611d6057611d5f611cf9565b5b5092915050565b7f4e487b71000000000000000000000000000000000000000000000000000000005f52601260045260245ffd5b5f611d9e82611a50565b9150611da983611a50565b925082611db957611db8611d67565b5b828204905092915050565b5f611dce82611a50565b9150611dd983611a50565b9250828203905081811115611df157611df0611cf9565b5b92915050565b5f606082019050611e0a5f83018661196a565b611e176020830185611af4565b611e246040830184611af4565b949350505050565b5f611e3682611a50565b9150611e4183611a50565b9250828201905080821115611e5957611e58611cf9565b5b92915050565b7f53656e64657220697320626c61636b6c697374656400000000000000000000005f82015250565b5f611e9360158361199c565b9150611e9e82611e5f565b602082019050919050565b5f6020820190508181035f830152611ec081611e87565b9050919050565b7f526563697069656e7420697320626c61636b6c697374656400000000000000005f82015250565b5f611efb60188361199c565b9150611f0682611ec7565b602082019050919050565b5f6020820190508181035f830152611f2881611eef565b905091905056fea26469706673582212202bc507a444747e6ceac27eadbbf6a8ab6a03a35ae5be4b609f4c05844eefa57364736f6c634300081c0033","linkReferences":{}},"methodIdentifiers":{"allowance(address,address)":"dd62ed3e","approve(address,uint256)":"095ea7b3","balanceOf(address)":"70a08231","blacklist(address)":"f9f92be4","burn(uint256)":"42966c68","burnFrom(address,uint256)":"79cc6790","decimals()":"313ce567","getTaxFeeRecipient()":"03073dfc","getTransferTaxBps()":"743bfe70","isBlacklisted(address)":"fe575a87","name()":"06fdde03","owner()":"8da5cb5b","pause()":"8456cb59","paused()":"5c975abb","renounceOwnership()":"715018a6","symbol()":"95d89b41","totalSupply()":"18160ddd","transfer(address,uint256)":"a9059cbb","transferFrom(address,address,uint256)":"23b872dd","transferOwnership(address)":"f2fde38b","unblacklist(address)":"75e3661e","unpause()":"3f4ba83a","updateTaxFeeRecipient(address)":"8baace25"},"id":27}