{"abi":[{"type":"constructor","inputs":[{"name":"name_","type":"string","internalType":"string"},{"name":"symbol_","type":"string","internalType":"string"},{"name":"decimals_","type":"uint8","internalType":"uint8"},{"name":"totalSupply_","type":"uint256","internalType":"uint256"},{"name":"serviceFeeReceiver_","type":"address","internalType":"address"},{"name":"serviceFee_","type":"uint256","internalType":"uint256"},{"name":"transferTaxBps_","type":"uint256","internalType":"uint256"},{"name":"taxFeeRecipient_","type":"address","internalType":"address"}],"stateMutability":"payable"},{"type":"function","name":"allowance","inputs":[{"name":"owner","type":"address","internalType":"address"},{"name":"spender","type":"address","internalType":"address"}],"outputs":[{"name":"","type":"uint256","internalType":"uint256"}],"stateMutability":"view"},{"type":"function","name":"approve","inputs":[{"name":"spender","type":"address","internalType":"address"},{"name":"value","type":"uint256","internalType":"uint256"}],"outputs":[{"name":"","type":"bool","internalType":"bool"}],"stateMutability":"nonpayable"},{"type":"function","name":"balanceOf","inputs":[{"name":"account","type":"address","internalType":"address"}],"outputs":[{"name":"","type":"uint256","internalType":"uint256"}],"stateMutability":"view"},{"type":"function","name":"blacklist","inputs":[{"name":"account","type":"address","internalType":"address"}],"outputs":[],"stateMutability":"nonpayable"},{"type":"function","name":"burn","inputs":[{"name":"value","type":"uint256","internalType":"uint256"}],"outputs":[],"stateMutability":"nonpayable"},{"type":"function","name":"burnFrom","inputs":[{"name":"account","type":"address","internalType":"address"},{"name":"value","type":"uint256","internalType":"uint256"}],"outputs":[],"stateMutability":"nonpayable"},{"type":"function","name":"decimals","inputs":[],"outputs":[{"name":"","type":"uint8","internalType":"uint8"}],"stateMutability":"view"},{"type":"function","name":"getTaxFeeRecipient","inputs":[],"outputs":[{"name":"","type":"address","internalType":"address"}],"stateMutability":"view"},{"type":"function","name":"getTransferTaxBps","inputs":[],"outputs":[{"name":"","type":"uint256","internalType":"uint256"}],"stateMutability":"view"},{"type":"function","name":"isBlacklisted","inputs":[{"name":"account","type":"address","internalType":"address"}],"outputs":[{"name":"","type":"bool","internalType":"bool"}],"stateMutability":"view"},{"type":"function","name":"name","inputs":[],"outputs":[{"name":"","type":"string","internalType":"string"}],"stateMutability":"view"},{"type":"function","name":"owner","inputs":[],"outputs":[{"name":"","type":"address","internalType":"address"}],"stateMutability":"view"},{"type":"function","name":"pause","inputs":[],"outputs":[],"stateMutability":"nonpayable"},{"type":"function","name":"paused","inputs":[],"outputs":[{"name":"","type":"bool","internalType":"bool"}],"stateMutability":"view"},{"type":"function","name":"renounceOwnership","inputs":[],"outputs":[],"stateMutability":"nonpayable"},{"type":"function","name":"symbol","inputs":[],"outputs":[{"name":"","type":"string","internalType":"string"}],"stateMutability":"view"},{"type":"function","name":"totalSupply","inputs":[],"outputs":[{"name":"","type":"uint256","internalType":"uint256"}],"stateMutability":"view"},{"type":"function","name":"transfer","inputs":[{"name":"to","type":"address","internalType":"address"},{"name":"value","type":"uint256","internalType":"uint256"}],"outputs":[{"name":"","type":"bool","internalType":"bool"}],"stateMutability":"nonpayable"},{"type":"function","name":"transferFrom","inputs":[{"name":"from","type":"address","internalType":"address"},{"name":"to","type":"address","internalType":"address"},{"name":"value","type":"uint256","internalType":"uint256"}],"outputs":[{"name":"","type":"bool","internalType":"bool"}],"stateMutability":"nonpayable"},{"type":"function","name":"transferOwnership","inputs":[{"name":"newOwner","type":"address","internalType":"address"}],"outputs":[],"stateMutability":"nonpayable"},{"type":"function","name":"unblacklist","inputs":[{"name":"account","type":"address","internalType":"address"}],"outputs":[],"stateMutability":"nonpayable"},{"type":"function","name":"unpause","inputs":[],"outputs":[],"stateMutability":"nonpayable"},{"type":"function","name":"updateTaxFeeRecipient","inputs":[{"name":"newTaxFeeRecipient","type":"address","internalType":"address"}],"outputs":[],"stateMutability":"nonpayable"},{"type":"event","name":"Approval","inputs":[{"name":"owner","type":"address","indexed":true,"internalType":"address"},{"name":"spender","type":"address","indexed":true,"internalType":"address"},{"name":"value","type":"uint256","indexed":false,"internalType":"uint256"}],"anonymous":false},{"type":"event","name":"Blacklisted","inputs":[{"name":"account","type":"address","indexed":true,"internalType":"address"}],"anonymous":false},{"type":"event","name":"OwnershipTransferred","inputs":[{"name":"previousOwner","type":"address","indexed":true,"internalType":"address"},{"name":"newOwner","type":"address","indexed":true,"internalType":"address"}],"anonymous":false},{"type":"event","name":"Paused","inputs":[{"name":"account","type":"address","indexed":false,"internalType":"address"}],"anonymous":false},{"type":"event","name":"TaxFeeRecipientUpdated","inputs":[{"name":"newTaxFeeRecipient","type":"address","indexed":false,"internalType":"address"}],"anonymous":false},{"type":"event","name":"Transfer","inputs":[{"name":"from","type":"address","indexed":true,"internalType":"address"},{"name":"to","type":"address","indexed":true,"internalType":"address"},{"name":"value","type":"uint256","indexed":false,"internalType":"uint256"}],"anonymous":false},{"type":"event","name":"Unblacklisted","inputs":[{"name":"account","type":"address","indexed":true,"internalType":"address"}],"anonymous":false},{"type":"event","name":"Unpaused","inputs":[{"name":"account","type":"address","indexed":false,"internalType":"address"}],"anonymous":false},{"type":"error","name":"ERC20InsufficientAllowance","inputs":[{"name":"spender","type":"address","internalType":"address"},{"name":"allowance","type":"uint256","internalType":"uint256"},{"name":"needed","type":"uint256","internalType":"uint256"}]},{"type":"error","name":"ERC20InsufficientBalance","inputs":[{"name":"sender","type":"address","internalType":"address"},{"name":"balance","type":"uint256","internalType":"uint256"},{"name":"needed","type":"uint256","internalType":"uint256"}]},{"type":"error","name":"ERC20InvalidApprover","inputs":[{"name":"approver","type":"address","internalType":"address"}]},{"type":"error","name":"ERC20InvalidReceiver","inputs":[{"name":"receiver","type":"address","internalType":"address"}]},{"type":"error","name":"ERC20InvalidSender","inputs":[{"name":"sender","type":"address","internalType":"address"}]},{"type":"error","name":"ERC20InvalidSpender","inputs":[{"name":"spender","type":"address","internalType":"address"}]},{"type":"error","name":"EnforcedPause","inputs":[]},{"type":"error","name":"ExpectedPause","inputs":[]},{"type":"error","name":"OwnableInvalidOwner","inputs":[{"name":"owner","type":"address","internalType":"address"}]},{"type":"error","name":"OwnableUnauthorizedAccount","inputs":[{"name":"account","type":"address","internalType":"address"}]}],"bytecode":{"object":"0x60806040526040516200339f3803806200339f833981810160405281019062000029919062000a9d565b335f73ffffffffffffffffffffffffffffffffffffffff168173ffffffffffffffffffffffffffffffffffffffff16036200009d575f6040517f1e4fbdf700000000000000000000000000000000000000000000000000000000815260040162000094919062000bb0565b60405180910390fd5b620000ae816200030d60201b60201c565b505f8060146101000a81548160ff0219169083151502179055508760059081620000d9919062000df9565b508660069081620000eb919062000df9565b508560075f6101000a81548160ff021916908360ff160217905550816008819055508060095f6101000a81548173ffffffffffffffffffffffffffffffffffffffff021916908373ffffffffffffffffffffffffffffffffffffffff1602179055508234101562000193576040517f08c379a00000000000000000000000000000000000000000000000000000000081526004016200018a9062000f3b565b60405180910390fd5b5f73ffffffffffffffffffffffffffffffffffffffff168473ffffffffffffffffffffffffffffffffffffffff160362000204576040517f08c379a0000000000000000000000000000000000000000000000000000000008152600401620001fb9062000fa9565b60405180910390fd5b5f8473ffffffffffffffffffffffffffffffffffffffff16846040516200022b9062000ffa565b5f6040518083038185875af1925050503d805f811462000267576040519150601f19603f3d011682016040523d82523d5f602084013e6200026c565b606091505b5050905080620002b3576040517f08c379a0000000000000000000000000000000000000000000000000000000008152600401620002aa906200105e565b60405180910390fd5b620002fe620002c7620003ce60201b60201c565b620002d7620003f560201b60201c565b600a620002e59190620011fb565b88620002f291906200124b565b6200040a60201b60201c565b50505050505050505062001412565b5f805f9054906101000a900473ffffffffffffffffffffffffffffffffffffffff169050815f806101000a81548173ffffffffffffffffffffffffffffffffffffffff021916908373ffffffffffffffffffffffffffffffffffffffff1602179055508173ffffffffffffffffffffffffffffffffffffffff168173ffffffffffffffffffffffffffffffffffffffff167f8be0079c531659141344cd1fd0a4f28419497f9722a3daafe3b4186f6b6457e060405160405180910390a35050565b5f805f9054906101000a900473ffffffffffffffffffffffffffffffffffffffff16905090565b5f60075f9054906101000a900460ff16905090565b5f73ffffffffffffffffffffffffffffffffffffffff168273ffffffffffffffffffffffffffffffffffffffff16036200047d575f6040517fec442f0500000000000000000000000000000000000000000000000000000000815260040162000474919062000bb0565b60405180910390fd5b620004905f83836200049460201b60201c565b5050565b620004a4620007e560201b60201c565b60035f8473ffffffffffffffffffffffffffffffffffffffff1673ffffffffffffffffffffffffffffffffffffffff1681526020019081526020015f205f9054906101000a900460ff161562000531576040517f08c379a00000000000000000000000000000000000000000000000000000000081526004016200052890620012e3565b60405180910390fd5b60035f8373ffffffffffffffffffffffffffffffffffffffff1673ffffffffffffffffffffffffffffffffffffffff1681526020019081526020015f205f9054906101000a900460ff1615620005be576040517f08c379a0000000000000000000000000000000000000000000000000000000008152600401620005b59062001351565b60405180910390fd5b5f73ffffffffffffffffffffffffffffffffffffffff168373ffffffffffffffffffffffffffffffffffffffff160362000612578060045f82825462000605919062001371565b92505081905550620006e5565b5f60015f8573ffffffffffffffffffffffffffffffffffffffff1673ffffffffffffffffffffffffffffffffffffffff1681526020019081526020015f20549050818110156200069f578381836040517fe450d38c0000000000000000000000000000000000000000000000000000000081526004016200069693929190620013bc565b60405180910390fd5b81810360015f8673ffffffffffffffffffffffffffffffffffffffff1673ffffffffffffffffffffffffffffffffffffffff1681526020019081526020015f2081905550505b5f73ffffffffffffffffffffffffffffffffffffffff168273ffffffffffffffffffffffffffffffffffffffff16036200072e578060045f828254039250508190555062000779565b8060015f8473ffffffffffffffffffffffffffffffffffffffff1673ffffffffffffffffffffffffffffffffffffffff1681526020019081526020015f205f82825401925050819055505b8173ffffffffffffffffffffffffffffffffffffffff168373ffffffffffffffffffffffffffffffffffffffff167fddf252ad1be2c89b69c2b068fc378daa952ba7f163c4a11628f55a4df523b3ef83604051620007d89190620013f7565b60405180910390a3505050565b620007f56200082f60201b60201c565b156200082d576040517fd93c066500000000000000000000000000000000000000000000000000000000815260040160405180910390fd5b565b5f8060149054906101000a900460ff16905090565b5f604051905090565b5f80fd5b5f80fd5b5f80fd5b5f80fd5b5f601f19601f8301169050919050565b7f4e487b71000000000000000000000000000000000000000000000000000000005f52604160045260245ffd5b620008a5826200085d565b810181811067ffffffffffffffff82111715620008c757620008c66200086d565b5b80604052505050565b5f620008db62000844565b9050620008e982826200089a565b919050565b5f67ffffffffffffffff8211156200090b576200090a6200086d565b5b62000916826200085d565b9050602081019050919050565b5f5b838110156200094257808201518184015260208101905062000925565b5f8484015250505050565b5f620009636200095d84620008ee565b620008d0565b90508281526020810184848401111562000982576200098162000859565b5b6200098f84828562000923565b509392505050565b5f82601f830112620009ae57620009ad62000855565b5b8151620009c08482602086016200094d565b91505092915050565b5f60ff82169050919050565b620009e081620009c9565b8114620009eb575f80fd5b50565b5f81519050620009fe81620009d5565b92915050565b5f819050919050565b62000a188162000a04565b811462000a23575f80fd5b50565b5f8151905062000a368162000a0d565b92915050565b5f73ffffffffffffffffffffffffffffffffffffffff82169050919050565b5f62000a678262000a3c565b9050919050565b62000a798162000a5b565b811462000a84575f80fd5b50565b5f8151905062000a978162000a6e565b92915050565b5f805f805f805f80610100898b03121562000abd5762000abc6200084d565b5b5f89015167ffffffffffffffff81111562000add5762000adc62000851565b5b62000aeb8b828c0162000997565b985050602089015167ffffffffffffffff81111562000b0f5762000b0e62000851565b5b62000b1d8b828c0162000997565b975050604062000b308b828c01620009ee565b965050606062000b438b828c0162000a26565b955050608062000b568b828c0162000a87565b94505060a062000b698b828c0162000a26565b93505060c062000b7c8b828c0162000a26565b92505060e062000b8f8b828c0162000a87565b9150509295985092959890939650565b62000baa8162000a5b565b82525050565b5f60208201905062000bc55f83018462000b9f565b92915050565b5f81519050919050565b7f4e487b71000000000000000000000000000000000000000000000000000000005f52602260045260245ffd5b5f600282049050600182168062000c1a57607f821691505b60208210810362000c305762000c2f62000bd5565b5b50919050565b5f819050815f5260205f209050919050565b5f6020601f8301049050919050565b5f82821b905092915050565b5f6008830262000c947fffffffffffffffffffffffffffffffffffffffffffffffffffffffffffffffff8262000c57565b62000ca0868362000c57565b95508019841693508086168417925050509392505050565b5f819050919050565b5f62000ce162000cdb62000cd58462000a04565b62000cb8565b62000a04565b9050919050565b5f819050919050565b62000cfc8362000cc1565b62000d1462000d0b8262000ce8565b84845462000c63565b825550505050565b5f90565b62000d2a62000d1c565b62000d3781848462000cf1565b505050565b5b8181101562000d5e5762000d525f8262000d20565b60018101905062000d3d565b5050565b601f82111562000dad5762000d778162000c36565b62000d828462000c48565b8101602085101562000d92578190505b62000daa62000da18562000c48565b83018262000d3c565b50505b505050565b5f82821c905092915050565b5f62000dcf5f198460080262000db2565b1980831691505092915050565b5f62000de9838362000dbe565b9150826002028217905092915050565b62000e048262000bcb565b67ffffffffffffffff81111562000e205762000e1f6200086d565b5b62000e2c825462000c02565b62000e3982828562000d62565b5f60209050601f83116001811462000e6f575f841562000e5a578287015190505b62000e66858262000ddc565b86555062000ed5565b601f19841662000e7f8662000c36565b5f5b8281101562000ea85784890151825560018201915060208501945060208101905062000e81565b8683101562000ec8578489015162000ec4601f89168262000dbe565b8355505b6001600288020188555050505b505050505050565b5f82825260208201905092915050565b7f496e73756666696369656e742066656520616d6f756e742073656e74000000005f82015250565b5f62000f23601c8362000edd565b915062000f308262000eed565b602082019050919050565b5f6020820190508181035f83015262000f548162000f15565b9050919050565b7f496e76616c6964206665652072656365697665722061646472657373000000005f82015250565b5f62000f91601c8362000edd565b915062000f9e8262000f5b565b602082019050919050565b5f6020820190508181035f83015262000fc28162000f83565b9050919050565b5f81905092915050565b50565b5f62000fe35f8362000fc9565b915062000ff08262000fd3565b5f82019050919050565b5f620010068262000fd6565b9150819050919050565b7f466565207472616e73666572206661696c6564000000000000000000000000005f82015250565b5f6200104660138362000edd565b9150620010538262001010565b602082019050919050565b5f6020820190508181035f830152620010778162001038565b9050919050565b7f4e487b71000000000000000000000000000000000000000000000000000000005f52601160045260245ffd5b5f8160011c9050919050565b5f808291508390505b60018511156200110857808604811115620010e057620010df6200107e565b5b6001851615620010f05780820291505b80810290506200110085620010ab565b9450620010c0565b94509492505050565b5f82620011225760019050620011f4565b8162001131575f9050620011f4565b81600181146200114a576002811462001155576200118b565b6001915050620011f4565b60ff8411156200116a57620011696200107e565b5b8360020a9150848211156200118457620011836200107e565b5b50620011f4565b5060208310610133831016604e8410600b8410161715620011c55782820a905083811115620011bf57620011be6200107e565b5b620011f4565b620011d48484846001620010b7565b92509050818404811115620011ee57620011ed6200107e565b5b81810290505b9392505050565b5f620012078262000a04565b91506200121483620009c9565b9250620012437fffffffffffffffffffffffffffffffffffffffffffffffffffffffffffffffff848462001111565b905092915050565b5f620012578262000a04565b9150620012648362000a04565b9250828202620012748162000a04565b915082820484148315176200128e576200128d6200107e565b5b5092915050565b7f53656e64657220697320626c61636b6c697374656400000000000000000000005f82015250565b5f620012cb60158362000edd565b9150620012d88262001295565b602082019050919050565b5f6020820190508181035f830152620012fc81620012bd565b9050919050565b7f526563697069656e7420697320626c61636b6c697374656400000000000000005f82015250565b5f6200133960188362000edd565b9150620013468262001303565b602082019050919050565b5f6020820190508181035f8301526200136a816200132b565b9050919050565b5f6200137d8262000a04565b91506200138a8362000a04565b9250828201905080821115620013a557620013a46200107e565b5b92915050565b620013b68162000a04565b82525050565b5f606082019050620013d15f83018662000b9f565b620013e06020830185620013ab565b620013ef6040830184620013ab565b949350505050565b5f6020820190506200140c5f830184620013ab565b92915050565b611f7f80620014205f395ff3fe608060405234801561000f575f80fd5b506004361061014b575f3560e01c8063743bfe70116100c157806395d89b411161007a57806395d89b411461033f578063a9059cbb1461035d578063dd62ed3e1461038d578063f2fde38b146103bd578063f9f92be4146103d9578063fe575a87146103f55761014b565b8063743bfe70146102a557806375e3661e146102c357806379cc6790146102df5780638456cb59146102fb5780638baace25146103055780638da5cb5b146103215761014b565b8063313ce56711610113578063313ce567146102095780633f4ba83a1461022757806342966c68146102315780635c975abb1461024d57806370a082311461026b578063715018a61461029b5761014b565b806303073dfc1461014f57806306fdde031461016d578063095ea7b31461018b57806318160ddd146101bb57806323b872dd146101d9575b5f80fd5b610157610425565b6040516101649190611979565b60405180910390f35b61017561044d565b6040516101829190611a1c565b60405180910390f35b6101a560048036038101906101a09190611a9d565b6104dd565b6040516101b29190611af5565b60405180910390f35b6101c36104ff565b6040516101d09190611b1d565b60405180910390f35b6101f360048036038101906101ee9190611b36565b610508565b6040516102009190611af5565b60405180910390f35b610211610536565b60405161021e9190611ba1565b60405180910390f35b61022f61054b565b005b61024b60048036038101906102469190611bba565b61055d565b005b610255610571565b6040516102629190611af5565b60405180910390f35b61028560048036038101906102809190611be5565b610586565b6040516102929190611b1d565b60405180910390f35b6102a36105cc565b005b6102ad6105df565b6040516102ba9190611b1d565b60405180910390f35b6102dd60048036038101906102d89190611be5565b6105e8565b005b6102f960048036038101906102f49190611a9d565b61068a565b005b6103036106aa565b005b61031f600480360381019061031a9190611be5565b6106bc565b005b61032961073e565b6040516103369190611979565b60405180910390f35b610347610765565b6040516103549190611a1c565b60405180910390f35b61037760048036038101906103729190611a9d565b6107f5565b6040516103849190611af5565b60405180910390f35b6103a760048036038101906103a29190611c10565b610c7d565b6040516103b49190611b1d565b60405180910390f35b6103d760048036038101906103d29190611be5565b610cff565b005b6103f360048036038101906103ee9190611be5565b610d83565b005b61040f600480360381019061040a9190611be5565b610e26565b60405161041c9190611af5565b60405180910390f35b5f60095f9054906101000a900473ffffffffffffffffffffffffffffffffffffffff16905090565b60606005805461045c90611c7b565b80601f016020809104026020016040519081016040528092919081815260200182805461048890611c7b565b80156104d35780601f106104aa576101008083540402835291602001916104d3565b820191905f5260205f20905b8154815290600101906020018083116104b657829003601f168201915b5050505050905090565b5f806104e7610e78565b90506104f4818585610e7f565b600191505092915050565b5f600454905090565b5f80610512610e78565b905061051f858285610e91565b61052a858585610f24565b60019150509392505050565b5f60075f9054906101000a900460ff16905090565b610553611128565b61055b6111af565b565b61056e610568610e78565b82611210565b50565b5f8060149054906101000a900460ff16905090565b5f60015f8373ffffffffffffffffffffffffffffffffffffffff1673ffffffffffffffffffffffffffffffffffffffff1681526020019081526020015f20549050919050565b6105d4611128565b6105dd5f61128f565b565b5f600854905090565b6105f0611128565b5f60035f8373ffffffffffffffffffffffffffffffffffffffff1673ffffffffffffffffffffffffffffffffffffffff1681526020019081526020015f205f6101000a81548160ff0219169083151502179055508073ffffffffffffffffffffffffffffffffffffffff167f7534c63860313c46c473e4e98328f37017e9674e2162faf1a3ad7a96236c3b7b60405160405180910390a250565b61069c82610696610e78565b83610e91565b6106a68282611210565b5050565b6106b2611128565b6106ba611350565b565b6106c4611128565b8060095f6101000a81548173ffffffffffffffffffffffffffffffffffffffff021916908373ffffffffffffffffffffffffffffffffffffffff1602179055507f3ca9233bd3849737ab1049144180bc625db2d51ca2c5ce949e7209eb32faa3a2816040516107339190611979565b60405180910390a150565b5f805f9054906101000a900473ffffffffffffffffffffffffffffffffffffffff16905090565b60606006805461077490611c7b565b80601f01602080910402602001604051908101604052809291908181526020018280546107a090611c7b565b80156107eb5780601f106107c2576101008083540402835291602001916107eb565b820191905f5260205f20905b8154815290600101906020018083116107ce57829003601f168201915b5050505050905090565b5f3360035f8273ffffffffffffffffffffffffffffffffffffffff1673ffffffffffffffffffffffffffffffffffffffff1681526020019081526020015f205f9054906101000a900460ff1615610881576040517f08c379a000000000000000000000000000000000000000000000000000000000815260040161087890611cf5565b60405180910390fd5b8360035f8273ffffffffffffffffffffffffffffffffffffffff1673ffffffffffffffffffffffffffffffffffffffff1681526020019081526020015f205f9054906101000a900460ff161561090c576040517f08c379a000000000000000000000000000000000000000000000000000000000815260040161090390611cf5565b60405180910390fd5b5f610915610e78565b90505f612710600854876109299190611d40565b6109339190611dae565b90505f81876109429190611dde565b90508660015f8573ffffffffffffffffffffffffffffffffffffffff1673ffffffffffffffffffffffffffffffffffffffff1681526020019081526020015f20541015610a07578260015f8573ffffffffffffffffffffffffffffffffffffffff1673ffffffffffffffffffffffffffffffffffffffff1681526020019081526020015f2054886040517fe450d38c0000000000000000000000000000000000000000000000000000000081526004016109fe93929190611e11565b60405180910390fd5b8660015f8573ffffffffffffffffffffffffffffffffffffffff1673ffffffffffffffffffffffffffffffffffffffff1681526020019081526020015f205f828254610a539190611dde565b925050819055508060015f8a73ffffffffffffffffffffffffffffffffffffffff1673ffffffffffffffffffffffffffffffffffffffff1681526020019081526020015f205f828254610aa69190611e46565b925050819055505f73ffffffffffffffffffffffffffffffffffffffff1660095f9054906101000a900473ffffffffffffffffffffffffffffffffffffffff1673ffffffffffffffffffffffffffffffffffffffff1614158015610b0957505f82115b15610c09578160015f60095f9054906101000a900473ffffffffffffffffffffffffffffffffffffffff1673ffffffffffffffffffffffffffffffffffffffff1673ffffffffffffffffffffffffffffffffffffffff1681526020019081526020015f205f828254610b7b9190611e46565b9250508190555060095f9054906101000a900473ffffffffffffffffffffffffffffffffffffffff1673ffffffffffffffffffffffffffffffffffffffff168373ffffffffffffffffffffffffffffffffffffffff167fddf252ad1be2c89b69c2b068fc378daa952ba7f163c4a11628f55a4df523b3ef84604051610c009190611b1d565b60405180910390a35b8773ffffffffffffffffffffffffffffffffffffffff168373ffffffffffffffffffffffffffffffffffffffff167fddf252ad1be2c89b69c2b068fc378daa952ba7f163c4a11628f55a4df523b3ef83604051610c669190611b1d565b60405180910390a360019550505050505092915050565b5f60025f8473ffffffffffffffffffffffffffffffffffffffff1673ffffffffffffffffffffffffffffffffffffffff1681526020019081526020015f205f8373ffffffffffffffffffffffffffffffffffffffff1673ffffffffffffffffffffffffffffffffffffffff1681526020019081526020015f2054905092915050565b610d07611128565b5f73ffffffffffffffffffffffffffffffffffffffff168173ffffffffffffffffffffffffffffffffffffffff1603610d77575f6040517f1e4fbdf7000000000000000000000000000000000000000000000000000000008152600401610d6e9190611979565b60405180910390fd5b610d808161128f565b50565b610d8b611128565b600160035f8373ffffffffffffffffffffffffffffffffffffffff1673ffffffffffffffffffffffffffffffffffffffff1681526020019081526020015f205f6101000a81548160ff0219169083151502179055508073ffffffffffffffffffffffffffffffffffffffff167fffa4e6181777692565cf28528fc88fd1516ea86b56da075235fa575af6a4b85560405160405180910390a250565b5f60035f8373ffffffffffffffffffffffffffffffffffffffff1673ffffffffffffffffffffffffffffffffffffffff1681526020019081526020015f205f9054906101000a900460ff169050919050565b5f33905090565b610e8c83838360016113b2565b505050565b5f610e9c8484610c7d565b90507fffffffffffffffffffffffffffffffffffffffffffffffffffffffffffffffff811015610f1e5781811015610f0f578281836040517ffb8f41b2000000000000000000000000000000000000000000000000000000008152600401610f0693929190611e11565b60405180910390fd5b610f1d84848484035f6113b2565b5b50505050565b60035f8473ffffffffffffffffffffffffffffffffffffffff1673ffffffffffffffffffffffffffffffffffffffff1681526020019081526020015f205f9054906101000a900460ff1615610fae576040517f08c379a0000000000000000000000000000000000000000000000000000000008152600401610fa590611ec3565b60405180910390fd5b60035f8373ffffffffffffffffffffffffffffffffffffffff1673ffffffffffffffffffffffffffffffffffffffff1681526020019081526020015f205f9054906101000a900460ff1615611038576040517f08c379a000000000000000000000000000000000000000000000000000000000815260040161102f90611f2b565b60405180910390fd5b5f73ffffffffffffffffffffffffffffffffffffffff168373ffffffffffffffffffffffffffffffffffffffff16036110a8575f6040517f96c6fd1e00000000000000000000000000000000000000000000000000000000815260040161109f9190611979565b60405180910390fd5b5f73ffffffffffffffffffffffffffffffffffffffff168273ffffffffffffffffffffffffffffffffffffffff1603611118575f6040517fec442f0500000000000000000000000000000000000000000000000000000000815260040161110f9190611979565b60405180910390fd5b611123838383611581565b505050565b611130610e78565b73ffffffffffffffffffffffffffffffffffffffff1661114e61073e565b73ffffffffffffffffffffffffffffffffffffffff16146111ad57611171610e78565b6040517f118cdaa70000000000000000000000000000000000000000000000000000000081526004016111a49190611979565b60405180910390fd5b565b6111b76118b9565b5f8060146101000a81548160ff0219169083151502179055507f5db9ee0a495bf2e6ff9c91a7834c1ba4fdd244a5e8aa4e537bd38aeae4b073aa6111f9610e78565b6040516112069190611979565b60405180910390a1565b5f73ffffffffffffffffffffffffffffffffffffffff168273ffffffffffffffffffffffffffffffffffffffff1603611280575f6040517f96c6fd1e0000000000000000000000000000000000000000000000000000000081526004016112779190611979565b60405180910390fd5b61128b825f83611581565b5050565b5f805f9054906101000a900473ffffffffffffffffffffffffffffffffffffffff169050815f806101000a81548173ffffffffffffffffffffffffffffffffffffffff021916908373ffffffffffffffffffffffffffffffffffffffff1602179055508173ffffffffffffffffffffffffffffffffffffffff168173ffffffffffffffffffffffffffffffffffffffff167f8be0079c531659141344cd1fd0a4f28419497f9722a3daafe3b4186f6b6457e060405160405180910390a35050565b6113586118f9565b60015f60146101000a81548160ff0219169083151502179055507f62e78cea01bee320cd4e420270b5ea74000d11b0c9f74754ebdbfc544b05a25861139b610e78565b6040516113a89190611979565b60405180910390a1565b5f73ffffffffffffffffffffffffffffffffffffffff168473ffffffffffffffffffffffffffffffffffffffff1603611422575f6040517fe602df050000000000000000000000000000000000000000000000000000000081526004016114199190611979565b60405180910390fd5b5f73ffffffffffffffffffffffffffffffffffffffff168373ffffffffffffffffffffffffffffffffffffffff1603611492575f6040517f94280d620000000000000000000000000000000000000000000000000000000081526004016114899190611979565b60405180910390fd5b8160025f8673ffffffffffffffffffffffffffffffffffffffff1673ffffffffffffffffffffffffffffffffffffffff1681526020019081526020015f205f8573ffffffffffffffffffffffffffffffffffffffff1673ffffffffffffffffffffffffffffffffffffffff1681526020019081526020015f2081905550801561157b578273ffffffffffffffffffffffffffffffffffffffff168473ffffffffffffffffffffffffffffffffffffffff167f8c5be1e5ebec7d5bd14f71427d1e84f3dd0314c0f7b2291e5b200ac8c7c3b925846040516115729190611b1d565b60405180910390a35b50505050565b6115896118f9565b60035f8473ffffffffffffffffffffffffffffffffffffffff1673ffffffffffffffffffffffffffffffffffffffff1681526020019081526020015f205f9054906101000a900460ff1615611613576040517f08c379a000000000000000000000000000000000000000000000000000000000815260040161160a90611ec3565b60405180910390fd5b60035f8373ffffffffffffffffffffffffffffffffffffffff1673ffffffffffffffffffffffffffffffffffffffff1681526020019081526020015f205f9054906101000a900460ff161561169d576040517f08c379a000000000000000000000000000000000000000000000000000000000815260040161169490611f2b565b60405180910390fd5b5f73ffffffffffffffffffffffffffffffffffffffff168373ffffffffffffffffffffffffffffffffffffffff16036116ed578060045f8282546116e19190611e46565b925050819055506117bd565b5f60015f8573ffffffffffffffffffffffffffffffffffffffff1673ffffffffffffffffffffffffffffffffffffffff1681526020019081526020015f2054905081811015611777578381836040517fe450d38c00000000000000000000000000000000000000000000000000000000815260040161176e93929190611e11565b60405180910390fd5b81810360015f8673ffffffffffffffffffffffffffffffffffffffff1673ffffffffffffffffffffffffffffffffffffffff1681526020019081526020015f2081905550505b5f73ffffffffffffffffffffffffffffffffffffffff168273ffffffffffffffffffffffffffffffffffffffff1603611804578060045f828254039250508190555061184f565b8060015f8473ffffffffffffffffffffffffffffffffffffffff1673ffffffffffffffffffffffffffffffffffffffff1681526020019081526020015f205f82825401925050819055505b8173ffffffffffffffffffffffffffffffffffffffff168373ffffffffffffffffffffffffffffffffffffffff167fddf252ad1be2c89b69c2b068fc378daa952ba7f163c4a11628f55a4df523b3ef836040516118ac9190611b1d565b60405180910390a3505050565b6118c1610571565b6118f7576040517f8dfc202b00000000000000000000000000000000000000000000000000000000815260040160405180910390fd5b565b611901610571565b15611938576040517fd93c066500000000000000000000000000000000000000000000000000000000815260040160405180910390fd5b565b5f73ffffffffffffffffffffffffffffffffffffffff82169050919050565b5f6119638261193a565b9050919050565b61197381611959565b82525050565b5f60208201905061198c5f83018461196a565b92915050565b5f81519050919050565b5f82825260208201905092915050565b5f5b838110156119c95780820151818401526020810190506119ae565b5f8484015250505050565b5f601f19601f8301169050919050565b5f6119ee82611992565b6119f8818561199c565b9350611a088185602086016119ac565b611a11816119d4565b840191505092915050565b5f6020820190508181035f830152611a3481846119e4565b905092915050565b5f80fd5b611a4981611959565b8114611a53575f80fd5b50565b5f81359050611a6481611a40565b92915050565b5f819050919050565b611a7c81611a6a565b8114611a86575f80fd5b50565b5f81359050611a9781611a73565b92915050565b5f8060408385031215611ab357611ab2611a3c565b5b5f611ac085828601611a56565b9250506020611ad185828601611a89565b9150509250929050565b5f8115159050919050565b611aef81611adb565b82525050565b5f602082019050611b085f830184611ae6565b92915050565b611b1781611a6a565b82525050565b5f602082019050611b305f830184611b0e565b92915050565b5f805f60608486031215611b4d57611b4c611a3c565b5b5f611b5a86828701611a56565b9350506020611b6b86828701611a56565b9250506040611b7c86828701611a89565b9150509250925092565b5f60ff82169050919050565b611b9b81611b86565b82525050565b5f602082019050611bb45f830184611b92565b92915050565b5f60208284031215611bcf57611bce611a3c565b5b5f611bdc84828501611a89565b91505092915050565b5f60208284031215611bfa57611bf9611a3c565b5b5f611c0784828501611a56565b91505092915050565b5f8060408385031215611c2657611c25611a3c565b5b5f611c3385828601611a56565b9250506020611c4485828601611a56565b9150509250929050565b7f4e487b71000000000000000000000000000000000000000000000000000000005f52602260045260245ffd5b5f6002820490506001821680611c9257607f821691505b602082108103611ca557611ca4611c4e565b5b50919050565b7f4164647265737320697320626c61636b6c6973746564000000000000000000005f82015250565b5f611cdf60168361199c565b9150611cea82611cab565b602082019050919050565b5f6020820190508181035f830152611d0c81611cd3565b9050919050565b7f4e487b71000000000000000000000000000000000000000000000000000000005f52601160045260245ffd5b5f611d4a82611a6a565b9150611d5583611a6a565b9250828202611d6381611a6a565b91508282048414831517611d7a57611d79611d13565b5b5092915050565b7f4e487b71000000000000000000000000000000000000000000000000000000005f52601260045260245ffd5b5f611db882611a6a565b9150611dc383611a6a565b925082611dd357611dd2611d81565b5b828204905092915050565b5f611de882611a6a565b9150611df383611a6a565b9250828203905081811115611e0b57611e0a611d13565b5b92915050565b5f606082019050611e245f83018661196a565b611e316020830185611b0e565b611e3e6040830184611b0e565b949350505050565b5f611e5082611a6a565b9150611e5b83611a6a565b9250828201905080821115611e7357611e72611d13565b5b92915050565b7f53656e64657220697320626c61636b6c697374656400000000000000000000005f82015250565b5f611ead60158361199c565b9150611eb882611e79565b602082019050919050565b5f6020820190508181035f830152611eda81611ea1565b9050919050565b7f526563697069656e7420697320626c61636b6c697374656400000000000000005f82015250565b5f611f1560188361199c565b9150611f2082611ee1565b602082019050919050565b5f6020820190508181035f830152611f4281611f09565b905091905056fea26469706673582212209e48f7e6f068d2518ced91e8e08f446e4ba31edc64c3088d1f7a050bd8ed804864736f6c63430008170033","linkReferences":{}},"methodIdentifiers":{"allowance(address,address)":"dd62ed3e","approve(address,uint256)":"095ea7b3","balanceOf(address)":"70a08231","blacklist(address)":"f9f92be4","burn(uint256)":"42966c68","burnFrom(address,uint256)":"79cc6790","decimals()":"313ce567","getTaxFeeRecipient()":"03073dfc","getTransferTaxBps()":"743bfe70","isBlacklisted(address)":"fe575a87","name()":"06fdde03","owner()":"8da5cb5b","pause()":"8456cb59","paused()":"5c975abb","renounceOwnership()":"715018a6","symbol()":"95d89b41","totalSupply()":"18160ddd","transfer(address,uint256)":"a9059cbb","transferFrom(address,address,uint256)":"23b872dd","transferOwnership(address)":"f2fde38b","unblacklist(address)":"75e3661e","unpause()":"3f4ba83a","updateTaxFeeRecipient(address)":"8baace25"},"id":27}