{"abi":[{"type":"constructor","inputs":[{"name":"name_","type":"string","internalType":"string"},{"name":"symbol_","type":"string","internalType":"string"},{"name":"decimals_","type":"uint8","internalType":"uint8"},{"name":"totalSupply_","type":"uint256","internalType":"uint256"},{"name":"serviceFeeReceiver_","type":"address","internalType":"address"},{"name":"serviceFee_","type":"uint256","internalType":"uint256"}],"stateMutability":"payable"},{"type":"function","name":"allowance","inputs":[{"name":"owner","type":"address","internalType":"address"},{"name":"spender","type":"address","internalType":"address"}],"outputs":[{"name":"","type":"uint256","internalType":"uint256"}],"stateMutability":"view"},{"type":"function","name":"approve","inputs":[{"name":"spender","type":"address","internalType":"address"},{"name":"value","type":"uint256","internalType":"uint256"}],"outputs":[{"name":"","type":"bool","internalType":"bool"}],"stateMutability":"nonpayable"},{"type":"function","name":"balanceOf","inputs":[{"name":"account","type":"address","internalType":"address"}],"outputs":[{"name":"","type":"uint256","internalType":"uint256"}],"stateMutability":"view"},{"type":"function","name":"blacklist","inputs":[{"name":"account","type":"address","internalType":"address"}],"outputs":[],"stateMutability":"nonpayable"},{"type":"function","name":"burn","inputs":[{"name":"value","type":"uint256","internalType":"uint256"}],"outputs":[],"stateMutability":"nonpayable"},{"type":"function","name":"burnFrom","inputs":[{"name":"account","type":"address","internalType":"address"},{"name":"value","type":"uint256","internalType":"uint256"}],"outputs":[],"stateMutability":"nonpayable"},{"type":"function","name":"decimals","inputs":[],"outputs":[{"name":"","type":"uint8","internalType":"uint8"}],"stateMutability":"view"},{"type":"function","name":"isBlacklisted","inputs":[{"name":"account","type":"address","internalType":"address"}],"outputs":[{"name":"","type":"bool","internalType":"bool"}],"stateMutability":"view"},{"type":"function","name":"name","inputs":[],"outputs":[{"name":"","type":"string","internalType":"string"}],"stateMutability":"view"},{"type":"function","name":"owner","inputs":[],"outputs":[{"name":"","type":"address","internalType":"address"}],"stateMutability":"view"},{"type":"function","name":"pause","inputs":[],"outputs":[],"stateMutability":"nonpayable"},{"type":"function","name":"paused","inputs":[],"outputs":[{"name":"","type":"bool","internalType":"bool"}],"stateMutability":"view"},{"type":"function","name":"renounceOwnership","inputs":[],"outputs":[],"stateMutability":"nonpayable"},{"type":"function","name":"symbol","inputs":[],"outputs":[{"name":"","type":"string","internalType":"string"}],"stateMutability":"view"},{"type":"function","name":"totalSupply","inputs":[],"outputs":[{"name":"","type":"uint256","internalType":"uint256"}],"stateMutability":"view"},{"type":"function","name":"transfer","inputs":[{"name":"to","type":"address","internalType":"address"},{"name":"value","type":"uint256","internalType":"uint256"}],"outputs":[{"name":"","type":"bool","internalType":"bool"}],"stateMutability":"nonpayable"},{"type":"function","name":"transferFrom","inputs":[{"name":"from","type":"address","internalType":"address"},{"name":"to","type":"address","internalType":"address"},{"name":"value","type":"uint256","internalType":"uint256"}],"outputs":[{"name":"","type":"bool","internalType":"bool"}],"stateMutability":"nonpayable"},{"type":"function","name":"transferOwnership","inputs":[{"name":"newOwner","type":"address","internalType":"address"}],"outputs":[],"stateMutability":"nonpayable"},{"type":"function","name":"unblacklist","inputs":[{"name":"account","type":"address","internalType":"address"}],"outputs":[],"stateMutability":"nonpayable"},{"type":"function","name":"unpause","inputs":[],"outputs":[],"stateMutability":"nonpayable"},{"type":"event","name":"Approval","inputs":[{"name":"owner","type":"address","indexed":true,"internalType":"address"},{"name":"spender","type":"address","indexed":true,"internalType":"address"},{"name":"value","type":"uint256","indexed":false,"internalType":"uint256"}],"anonymous":false},{"type":"event","name":"Blacklisted","inputs":[{"name":"account","type":"address","indexed":true,"internalType":"address"}],"anonymous":false},{"type":"event","name":"OwnershipTransferred","inputs":[{"name":"previousOwner","type":"address","indexed":true,"internalType":"address"},{"name":"newOwner","type":"address","indexed":true,"internalType":"address"}],"anonymous":false},{"type":"event","name":"Paused","inputs":[{"name":"account","type":"address","indexed":false,"internalType":"address"}],"anonymous":false},{"type":"event","name":"Transfer","inputs":[{"name":"from","type":"address","indexed":true,"internalType":"address"},{"name":"to","type":"address","indexed":true,"internalType":"address"},{"name":"value","type":"uint256","indexed":false,"internalType":"uint256"}],"anonymous":false},{"type":"event","name":"Unblacklisted","inputs":[{"name":"account","type":"address","indexed":true,"internalType":"address"}],"anonymous":false},{"type":"event","name":"Unpaused","inputs":[{"name":"account","type":"address","indexed":false,"internalType":"address"}],"anonymous":false},{"type":"error","name":"ERC20InsufficientAllowance","inputs":[{"name":"spender","type":"address","internalType":"address"},{"name":"allowance","type":"uint256","internalType":"uint256"},{"name":"needed","type":"uint256","internalType":"uint256"}]},{"type":"error","name":"ERC20InsufficientBalance","inputs":[{"name":"sender","type":"address","internalType":"address"},{"name":"balance","type":"uint256","internalType":"uint256"},{"name":"needed","type":"uint256","internalType":"uint256"}]},{"type":"error","name":"ERC20InvalidApprover","inputs":[{"name":"approver","type":"address","internalType":"address"}]},{"type":"error","name":"ERC20InvalidReceiver","inputs":[{"name":"receiver","type":"address","internalType":"address"}]},{"type":"error","name":"ERC20InvalidSender","inputs":[{"name":"sender","type":"address","internalType":"address"}]},{"type":"error","name":"ERC20InvalidSpender","inputs":[{"name":"spender","type":"address","internalType":"address"}]},{"type":"error","name":"EnforcedPause","inputs":[]},{"type":"error","name":"ExpectedPause","inputs":[]},{"type":"error","name":"OwnableInvalidOwner","inputs":[{"name":"owner","type":"address","internalType":"address"}]},{"type":"error","name":"OwnableUnauthorizedAccount","inputs":[{"name":"account","type":"address","internalType":"address"}]}],"bytecode":{"object":"0x6080604052604051612b01380380612b01833981810160405281019061002591906109cb565b335f73ffffffffffffffffffffffffffffffffffffffff168173ffffffffffffffffffffffffffffffffffffffff1603610096575f6040517f1e4fbdf700000000000000000000000000000000000000000000000000000000815260040161008d9190610a9b565b60405180910390fd5b6100a58161029f60201b60201c565b505f5f60146101000a81548160ff02191690831515021790555085600590816100ce9190610cbb565b5084600690816100de9190610cbb565b508360075f6101000a81548160ff021916908360ff1602179055508034101561013c576040517f08c379a000000000000000000000000000000000000000000000000000000000815260040161013390610de4565b60405180910390fd5b5f73ffffffffffffffffffffffffffffffffffffffff168273ffffffffffffffffffffffffffffffffffffffff16036101aa576040517f08c379a00000000000000000000000000000000000000000000000000000000081526004016101a190610e4c565b60405180910390fd5b5f8273ffffffffffffffffffffffffffffffffffffffff16826040516101cf90610e97565b5f6040518083038185875af1925050503d805f8114610209576040519150601f19603f3d011682016040523d82523d5f602084013e61020e565b606091505b5050905080610252576040517f08c379a000000000000000000000000000000000000000000000000000000000815260040161024990610ef5565b60405180910390fd5b61029361026361036060201b60201c565b61027161038760201b60201c565b600a61027d919061106f565b8661028891906110b9565b61039c60201b60201c565b5050505050505061125a565b5f5f5f9054906101000a900473ffffffffffffffffffffffffffffffffffffffff169050815f5f6101000a81548173ffffffffffffffffffffffffffffffffffffffff021916908373ffffffffffffffffffffffffffffffffffffffff1602179055508173ffffffffffffffffffffffffffffffffffffffff168173ffffffffffffffffffffffffffffffffffffffff167f8be0079c531659141344cd1fd0a4f28419497f9722a3daafe3b4186f6b6457e060405160405180910390a35050565b5f5f5f9054906101000a900473ffffffffffffffffffffffffffffffffffffffff16905090565b5f60075f9054906101000a900460ff16905090565b5f73ffffffffffffffffffffffffffffffffffffffff168273ffffffffffffffffffffffffffffffffffffffff160361040c575f6040517fec442f050000000000000000000000000000000000000000000000000000000081526004016104039190610a9b565b60405180910390fd5b61041d5f838361042160201b60201c565b5050565b61042f61075f60201b60201c565b60035f8473ffffffffffffffffffffffffffffffffffffffff1673ffffffffffffffffffffffffffffffffffffffff1681526020019081526020015f205f9054906101000a900460ff16156104b9576040517f08c379a00000000000000000000000000000000000000000000000000000000081526004016104b090611144565b60405180910390fd5b60035f8373ffffffffffffffffffffffffffffffffffffffff1673ffffffffffffffffffffffffffffffffffffffff1681526020019081526020015f205f9054906101000a900460ff1615610543576040517f08c379a000000000000000000000000000000000000000000000000000000000815260040161053a906111ac565b60405180910390fd5b5f73ffffffffffffffffffffffffffffffffffffffff168373ffffffffffffffffffffffffffffffffffffffff1603610593578060045f82825461058791906111ca565b92505081905550610663565b5f60015f8573ffffffffffffffffffffffffffffffffffffffff1673ffffffffffffffffffffffffffffffffffffffff1681526020019081526020015f205490508181101561061d578381836040517fe450d38c0000000000000000000000000000000000000000000000000000000081526004016106149392919061120c565b60405180910390fd5b81810360015f8673ffffffffffffffffffffffffffffffffffffffff1673ffffffffffffffffffffffffffffffffffffffff1681526020019081526020015f2081905550505b5f73ffffffffffffffffffffffffffffffffffffffff168273ffffffffffffffffffffffffffffffffffffffff16036106aa578060045f82825403925050819055506106f5565b8060015f8473ffffffffffffffffffffffffffffffffffffffff1673ffffffffffffffffffffffffffffffffffffffff1681526020019081526020015f205f82825401925050819055505b8173ffffffffffffffffffffffffffffffffffffffff168373ffffffffffffffffffffffffffffffffffffffff167fddf252ad1be2c89b69c2b068fc378daa952ba7f163c4a11628f55a4df523b3ef836040516107529190611241565b60405180910390a3505050565b61076d6107a660201b60201c565b156107a4576040517fd93c066500000000000000000000000000000000000000000000000000000000815260040160405180910390fd5b565b5f5f60149054906101000a900460ff16905090565b5f604051905090565b5f5ffd5b5f5ffd5b5f5ffd5b5f5ffd5b5f601f19601f8301169050919050565b7f4e487b71000000000000000000000000000000000000000000000000000000005f52604160045260245ffd5b61081a826107d4565b810181811067ffffffffffffffff82111715610839576108386107e4565b5b80604052505050565b5f61084b6107bb565b90506108578282610811565b919050565b5f67ffffffffffffffff821115610876576108756107e4565b5b61087f826107d4565b9050602081019050919050565b8281835e5f83830152505050565b5f6108ac6108a78461085c565b610842565b9050828152602081018484840111156108c8576108c76107d0565b5b6108d384828561088c565b509392505050565b5f82601f8301126108ef576108ee6107cc565b5b81516108ff84826020860161089a565b91505092915050565b5f60ff82169050919050565b61091d81610908565b8114610927575f5ffd5b50565b5f8151905061093881610914565b92915050565b5f819050919050565b6109508161093e565b811461095a575f5ffd5b50565b5f8151905061096b81610947565b92915050565b5f73ffffffffffffffffffffffffffffffffffffffff82169050919050565b5f61099a82610971565b9050919050565b6109aa81610990565b81146109b4575f5ffd5b50565b5f815190506109c5816109a1565b92915050565b5f5f5f5f5f5f60c087890312156109e5576109e46107c4565b5b5f87015167ffffffffffffffff811115610a0257610a016107c8565b5b610a0e89828a016108db565b965050602087015167ffffffffffffffff811115610a2f57610a2e6107c8565b5b610a3b89828a016108db565b9550506040610a4c89828a0161092a565b9450506060610a5d89828a0161095d565b9350506080610a6e89828a016109b7565b92505060a0610a7f89828a0161095d565b9150509295509295509295565b610a9581610990565b82525050565b5f602082019050610aae5f830184610a8c565b92915050565b5f81519050919050565b7f4e487b71000000000000000000000000000000000000000000000000000000005f52602260045260245ffd5b5f6002820490506001821680610b0257607f821691505b602082108103610b1557610b14610abe565b5b50919050565b5f819050815f5260205f209050919050565b5f6020601f8301049050919050565b5f82821b905092915050565b5f60088302610b777fffffffffffffffffffffffffffffffffffffffffffffffffffffffffffffffff82610b3c565b610b818683610b3c565b95508019841693508086168417925050509392505050565b5f819050919050565b5f610bbc610bb7610bb28461093e565b610b99565b61093e565b9050919050565b5f819050919050565b610bd583610ba2565b610be9610be182610bc3565b848454610b48565b825550505050565b5f5f905090565b610c00610bf1565b610c0b818484610bcc565b505050565b5b81811015610c2e57610c235f82610bf8565b600181019050610c11565b5050565b601f821115610c7357610c4481610b1b565b610c4d84610b2d565b81016020851015610c5c578190505b610c70610c6885610b2d565b830182610c10565b50505b505050565b5f82821c905092915050565b5f610c935f1984600802610c78565b1980831691505092915050565b5f610cab8383610c84565b9150826002028217905092915050565b610cc482610ab4565b67ffffffffffffffff811115610cdd57610cdc6107e4565b5b610ce78254610aeb565b610cf2828285610c32565b5f60209050601f831160018114610d23575f8415610d11578287015190505b610d1b8582610ca0565b865550610d82565b601f198416610d3186610b1b565b5f5b82811015610d5857848901518255600182019150602085019450602081019050610d33565b86831015610d755784890151610d71601f891682610c84565b8355505b6001600288020188555050505b505050505050565b5f82825260208201905092915050565b7f496e73756666696369656e742066656520616d6f756e742073656e74000000005f82015250565b5f610dce601c83610d8a565b9150610dd982610d9a565b602082019050919050565b5f6020820190508181035f830152610dfb81610dc2565b9050919050565b7f496e76616c6964206665652072656365697665722061646472657373000000005f82015250565b5f610e36601c83610d8a565b9150610e4182610e02565b602082019050919050565b5f6020820190508181035f830152610e6381610e2a565b9050919050565b5f81905092915050565b50565b5f610e825f83610e6a565b9150610e8d82610e74565b5f82019050919050565b5f610ea182610e77565b9150819050919050565b7f466565207472616e73666572206661696c6564000000000000000000000000005f82015250565b5f610edf601383610d8a565b9150610eea82610eab565b602082019050919050565b5f6020820190508181035f830152610f0c81610ed3565b9050919050565b7f4e487b71000000000000000000000000000000000000000000000000000000005f52601160045260245ffd5b5f8160011c9050919050565b5f5f8291508390505b6001851115610f9557808604811115610f7157610f70610f13565b5b6001851615610f805780820291505b8081029050610f8e85610f40565b9450610f55565b94509492505050565b5f82610fad5760019050611068565b81610fba575f9050611068565b8160018114610fd05760028114610fda57611009565b6001915050611068565b60ff841115610fec57610feb610f13565b5b8360020a91508482111561100357611002610f13565b5b50611068565b5060208310610133831016604e8410600b841016171561103e5782820a90508381111561103957611038610f13565b5b611068565b61104b8484846001610f4c565b9250905081840481111561106257611061610f13565b5b81810290505b9392505050565b5f6110798261093e565b915061108483610908565b92506110b17fffffffffffffffffffffffffffffffffffffffffffffffffffffffffffffffff8484610f9e565b905092915050565b5f6110c38261093e565b91506110ce8361093e565b92508282026110dc8161093e565b915082820484148315176110f3576110f2610f13565b5b5092915050565b7f53656e64657220697320626c61636b6c697374656400000000000000000000005f82015250565b5f61112e601583610d8a565b9150611139826110fa565b602082019050919050565b5f6020820190508181035f83015261115b81611122565b9050919050565b7f526563697069656e7420697320626c61636b6c697374656400000000000000005f82015250565b5f611196601883610d8a565b91506111a182611162565b602082019050919050565b5f6020820190508181035f8301526111c38161118a565b9050919050565b5f6111d48261093e565b91506111df8361093e565b92508282019050808211156111f7576111f6610f13565b5b92915050565b6112068161093e565b82525050565b5f60608201905061121f5f830186610a8c565b61122c60208301856111fd565b61123960408301846111fd565b949350505050565b5f6020820190506112545f8301846111fd565b92915050565b61189a806112675f395ff3fe608060405234801561000f575f5ffd5b506004361061012a575f3560e01c806375e3661e116100ab578063a9059cbb1161006f578063a9059cbb146102e4578063dd62ed3e14610314578063f2fde38b14610344578063f9f92be414610360578063fe575a871461037c5761012a565b806375e3661e1461026657806379cc6790146102825780638456cb591461029e5780638da5cb5b146102a857806395d89b41146102c65761012a565b80633f4ba83a116100f25780633f4ba83a146101e857806342966c68146101f25780635c975abb1461020e57806370a082311461022c578063715018a61461025c5761012a565b806306fdde031461012e578063095ea7b31461014c57806318160ddd1461017c57806323b872dd1461019a578063313ce567146101ca575b5f5ffd5b6101366103ac565b6040516101439190611418565b60405180910390f35b610166600480360381019061016191906114c9565b61043c565b6040516101739190611521565b60405180910390f35b61018461045e565b6040516101919190611549565b60405180910390f35b6101b460048036038101906101af9190611562565b610467565b6040516101c19190611521565b60405180910390f35b6101d2610495565b6040516101df91906115cd565b60405180910390f35b6101f06104aa565b005b61020c600480360381019061020791906115e6565b6104bc565b005b6102166104d0565b6040516102239190611521565b60405180910390f35b61024660048036038101906102419190611611565b6104e5565b6040516102539190611549565b60405180910390f35b61026461052b565b005b610280600480360381019061027b9190611611565b61053e565b005b61029c600480360381019061029791906114c9565b6105e0565b005b6102a6610600565b005b6102b0610612565b6040516102bd919061164b565b60405180910390f35b6102ce610639565b6040516102db9190611418565b60405180910390f35b6102fe60048036038101906102f991906114c9565b6106c9565b60405161030b9190611521565b60405180910390f35b61032e60048036038101906103299190611664565b6106eb565b60405161033b9190611549565b60405180910390f35b61035e60048036038101906103599190611611565b61076d565b005b61037a60048036038101906103759190611611565b6107f1565b005b61039660048036038101906103919190611611565b610894565b6040516103a39190611521565b60405180910390f35b6060600580546103bb906116cf565b80601f01602080910402602001604051908101604052809291908181526020018280546103e7906116cf565b80156104325780601f1061040957610100808354040283529160200191610432565b820191905f5260205f20905b81548152906001019060200180831161041557829003601f168201915b5050505050905090565b5f5f6104466108e6565b90506104538185856108ed565b600191505092915050565b5f600454905090565b5f5f6104716108e6565b905061047e8582856108ff565b610489858585610992565b60019150509392505050565b5f60075f9054906101000a900460ff16905090565b6104b2610b96565b6104ba610c1d565b565b6104cd6104c76108e6565b82610c7e565b50565b5f5f60149054906101000a900460ff16905090565b5f60015f8373ffffffffffffffffffffffffffffffffffffffff1673ffffffffffffffffffffffffffffffffffffffff1681526020019081526020015f20549050919050565b610533610b96565b61053c5f610cfd565b565b610546610b96565b5f60035f8373ffffffffffffffffffffffffffffffffffffffff1673ffffffffffffffffffffffffffffffffffffffff1681526020019081526020015f205f6101000a81548160ff0219169083151502179055508073ffffffffffffffffffffffffffffffffffffffff167f7534c63860313c46c473e4e98328f37017e9674e2162faf1a3ad7a96236c3b7b60405160405180910390a250565b6105f2826105ec6108e6565b836108ff565b6105fc8282610c7e565b5050565b610608610b96565b610610610dbe565b565b5f5f5f9054906101000a900473ffffffffffffffffffffffffffffffffffffffff16905090565b606060068054610648906116cf565b80601f0160208091040260200160405190810160405280929190818152602001828054610674906116cf565b80156106bf5780601f10610696576101008083540402835291602001916106bf565b820191905f5260205f20905b8154815290600101906020018083116106a257829003601f168201915b5050505050905090565b5f5f6106d36108e6565b90506106e0818585610992565b600191505092915050565b5f60025f8473ffffffffffffffffffffffffffffffffffffffff1673ffffffffffffffffffffffffffffffffffffffff1681526020019081526020015f205f8373ffffffffffffffffffffffffffffffffffffffff1673ffffffffffffffffffffffffffffffffffffffff1681526020019081526020015f2054905092915050565b610775610b96565b5f73ffffffffffffffffffffffffffffffffffffffff168173ffffffffffffffffffffffffffffffffffffffff16036107e5575f6040517f1e4fbdf70000000000000000000000000000000000000000000000000000000081526004016107dc919061164b565b60405180910390fd5b6107ee81610cfd565b50565b6107f9610b96565b600160035f8373ffffffffffffffffffffffffffffffffffffffff1673ffffffffffffffffffffffffffffffffffffffff1681526020019081526020015f205f6101000a81548160ff0219169083151502179055508073ffffffffffffffffffffffffffffffffffffffff167fffa4e6181777692565cf28528fc88fd1516ea86b56da075235fa575af6a4b85560405160405180910390a250565b5f60035f8373ffffffffffffffffffffffffffffffffffffffff1673ffffffffffffffffffffffffffffffffffffffff1681526020019081526020015f205f9054906101000a900460ff169050919050565b5f33905090565b6108fa8383836001610e20565b505050565b5f61090a84846106eb565b90507fffffffffffffffffffffffffffffffffffffffffffffffffffffffffffffffff81101561098c578181101561097d578281836040517ffb8f41b2000000000000000000000000000000000000000000000000000000008152600401610974939291906116ff565b60405180910390fd5b61098b84848484035f610e20565b5b50505050565b60035f8473ffffffffffffffffffffffffffffffffffffffff1673ffffffffffffffffffffffffffffffffffffffff1681526020019081526020015f205f9054906101000a900460ff1615610a1c576040517f08c379a0000000000000000000000000000000000000000000000000000000008152600401610a139061177e565b60405180910390fd5b60035f8373ffffffffffffffffffffffffffffffffffffffff1673ffffffffffffffffffffffffffffffffffffffff1681526020019081526020015f205f9054906101000a900460ff1615610aa6576040517f08c379a0000000000000000000000000000000000000000000000000000000008152600401610a9d906117e6565b60405180910390fd5b5f73ffffffffffffffffffffffffffffffffffffffff168373ffffffffffffffffffffffffffffffffffffffff1603610b16575f6040517f96c6fd1e000000000000000000000000000000000000000000000000000000008152600401610b0d919061164b565b60405180910390fd5b5f73ffffffffffffffffffffffffffffffffffffffff168273ffffffffffffffffffffffffffffffffffffffff1603610b86575f6040517fec442f05000000000000000000000000000000000000000000000000000000008152600401610b7d919061164b565b60405180910390fd5b610b91838383610fef565b505050565b610b9e6108e6565b73ffffffffffffffffffffffffffffffffffffffff16610bbc610612565b73ffffffffffffffffffffffffffffffffffffffff1614610c1b57610bdf6108e6565b6040517f118cdaa7000000000000000000000000000000000000000000000000000000008152600401610c12919061164b565b60405180910390fd5b565b610c25611327565b5f5f60146101000a81548160ff0219169083151502179055507f5db9ee0a495bf2e6ff9c91a7834c1ba4fdd244a5e8aa4e537bd38aeae4b073aa610c676108e6565b604051610c74919061164b565b60405180910390a1565b5f73ffffffffffffffffffffffffffffffffffffffff168273ffffffffffffffffffffffffffffffffffffffff1603610cee575f6040517f96c6fd1e000000000000000000000000000000000000000000000000000000008152600401610ce5919061164b565b60405180910390fd5b610cf9825f83610fef565b5050565b5f5f5f9054906101000a900473ffffffffffffffffffffffffffffffffffffffff169050815f5f6101000a81548173ffffffffffffffffffffffffffffffffffffffff021916908373ffffffffffffffffffffffffffffffffffffffff1602179055508173ffffffffffffffffffffffffffffffffffffffff168173ffffffffffffffffffffffffffffffffffffffff167f8be0079c531659141344cd1fd0a4f28419497f9722a3daafe3b4186f6b6457e060405160405180910390a35050565b610dc6611367565b60015f60146101000a81548160ff0219169083151502179055507f62e78cea01bee320cd4e420270b5ea74000d11b0c9f74754ebdbfc544b05a258610e096108e6565b604051610e16919061164b565b60405180910390a1565b5f73ffffffffffffffffffffffffffffffffffffffff168473ffffffffffffffffffffffffffffffffffffffff1603610e90575f6040517fe602df05000000000000000000000000000000000000000000000000000000008152600401610e87919061164b565b60405180910390fd5b5f73ffffffffffffffffffffffffffffffffffffffff168373ffffffffffffffffffffffffffffffffffffffff1603610f00575f6040517f94280d62000000000000000000000000000000000000000000000000000000008152600401610ef7919061164b565b60405180910390fd5b8160025f8673ffffffffffffffffffffffffffffffffffffffff1673ffffffffffffffffffffffffffffffffffffffff1681526020019081526020015f205f8573ffffffffffffffffffffffffffffffffffffffff1673ffffffffffffffffffffffffffffffffffffffff1681526020019081526020015f20819055508015610fe9578273ffffffffffffffffffffffffffffffffffffffff168473ffffffffffffffffffffffffffffffffffffffff167f8c5be1e5ebec7d5bd14f71427d1e84f3dd0314c0f7b2291e5b200ac8c7c3b92584604051610fe09190611549565b60405180910390a35b50505050565b610ff7611367565b60035f8473ffffffffffffffffffffffffffffffffffffffff1673ffffffffffffffffffffffffffffffffffffffff1681526020019081526020015f205f9054906101000a900460ff1615611081576040517f08c379a00000000000000000000000000000000000000000000000000000000081526004016110789061177e565b60405180910390fd5b60035f8373ffffffffffffffffffffffffffffffffffffffff1673ffffffffffffffffffffffffffffffffffffffff1681526020019081526020015f205f9054906101000a900460ff161561110b576040517f08c379a0000000000000000000000000000000000000000000000000000000008152600401611102906117e6565b60405180910390fd5b5f73ffffffffffffffffffffffffffffffffffffffff168373ffffffffffffffffffffffffffffffffffffffff160361115b578060045f82825461114f9190611831565b9250508190555061122b565b5f60015f8573ffffffffffffffffffffffffffffffffffffffff1673ffffffffffffffffffffffffffffffffffffffff1681526020019081526020015f20549050818110156111e5578381836040517fe450d38c0000000000000000000000000000000000000000000000000000000081526004016111dc939291906116ff565b60405180910390fd5b81810360015f8673ffffffffffffffffffffffffffffffffffffffff1673ffffffffffffffffffffffffffffffffffffffff1681526020019081526020015f2081905550505b5f73ffffffffffffffffffffffffffffffffffffffff168273ffffffffffffffffffffffffffffffffffffffff1603611272578060045f82825403925050819055506112bd565b8060015f8473ffffffffffffffffffffffffffffffffffffffff1673ffffffffffffffffffffffffffffffffffffffff1681526020019081526020015f205f82825401925050819055505b8173ffffffffffffffffffffffffffffffffffffffff168373ffffffffffffffffffffffffffffffffffffffff167fddf252ad1be2c89b69c2b068fc378daa952ba7f163c4a11628f55a4df523b3ef8360405161131a9190611549565b60405180910390a3505050565b61132f6104d0565b611365576040517f8dfc202b00000000000000000000000000000000000000000000000000000000815260040160405180910390fd5b565b61136f6104d0565b156113a6576040517fd93c066500000000000000000000000000000000000000000000000000000000815260040160405180910390fd5b565b5f81519050919050565b5f82825260208201905092915050565b8281835e5f83830152505050565b5f601f19601f8301169050919050565b5f6113ea826113a8565b6113f481856113b2565b93506114048185602086016113c2565b61140d816113d0565b840191505092915050565b5f6020820190508181035f83015261143081846113e0565b905092915050565b5f5ffd5b5f73ffffffffffffffffffffffffffffffffffffffff82169050919050565b5f6114658261143c565b9050919050565b6114758161145b565b811461147f575f5ffd5b50565b5f813590506114908161146c565b92915050565b5f819050919050565b6114a881611496565b81146114b2575f5ffd5b50565b5f813590506114c38161149f565b92915050565b5f5f604083850312156114df576114de611438565b5b5f6114ec85828601611482565b92505060206114fd858286016114b5565b9150509250929050565b5f8115159050919050565b61151b81611507565b82525050565b5f6020820190506115345f830184611512565b92915050565b61154381611496565b82525050565b5f60208201905061155c5f83018461153a565b92915050565b5f5f5f6060848603121561157957611578611438565b5b5f61158686828701611482565b935050602061159786828701611482565b92505060406115a8868287016114b5565b9150509250925092565b5f60ff82169050919050565b6115c7816115b2565b82525050565b5f6020820190506115e05f8301846115be565b92915050565b5f602082840312156115fb576115fa611438565b5b5f611608848285016114b5565b91505092915050565b5f6020828403121561162657611625611438565b5b5f61163384828501611482565b91505092915050565b6116458161145b565b82525050565b5f60208201905061165e5f83018461163c565b92915050565b5f5f6040838503121561167a57611679611438565b5b5f61168785828601611482565b925050602061169885828601611482565b9150509250929050565b7f4e487b71000000000000000000000000000000000000000000000000000000005f52602260045260245ffd5b5f60028204905060018216806116e657607f821691505b6020821081036116f9576116f86116a2565b5b50919050565b5f6060820190506117125f83018661163c565b61171f602083018561153a565b61172c604083018461153a565b949350505050565b7f53656e64657220697320626c61636b6c697374656400000000000000000000005f82015250565b5f6117686015836113b2565b915061177382611734565b602082019050919050565b5f6020820190508181035f8301526117958161175c565b9050919050565b7f526563697069656e7420697320626c61636b6c697374656400000000000000005f82015250565b5f6117d06018836113b2565b91506117db8261179c565b602082019050919050565b5f6020820190508181035f8301526117fd816117c4565b9050919050565b7f4e487b71000000000000000000000000000000000000000000000000000000005f52601160045260245ffd5b5f61183b82611496565b915061184683611496565b925082820190508082111561185e5761185d611804565b5b9291505056fea2646970667358221220b1ffaf7729da7b653c13747212f7e176f7a00feac269f3a371d45da6b03d5fc264736f6c634300081c0033","linkReferences":{}},"methodIdentifiers":{"allowance(address,address)":"dd62ed3e","approve(address,uint256)":"095ea7b3","balanceOf(address)":"70a08231","blacklist(address)":"f9f92be4","burn(uint256)":"42966c68","burnFrom(address,uint256)":"79cc6790","decimals()":"313ce567","isBlacklisted(address)":"fe575a87","name()":"06fdde03","owner()":"8da5cb5b","pause()":"8456cb59","paused()":"5c975abb","renounceOwnership()":"715018a6","symbol()":"95d89b41","totalSupply()":"18160ddd","transfer(address,uint256)":"a9059cbb","transferFrom(address,address,uint256)":"23b872dd","transferOwnership(address)":"f2fde38b","unblacklist(address)":"75e3661e","unpause()":"3f4ba83a"},"id":26}