{"abi":[{"type":"constructor","inputs":[{"name":"name_","type":"string","internalType":"string"},{"name":"symbol_","type":"string","internalType":"string"},{"name":"decimals_","type":"uint8","internalType":"uint8"},{"name":"totalSupply_","type":"uint256","internalType":"uint256"},{"name":"serviceFeeReceiver_","type":"address","internalType":"address"},{"name":"serviceFee_","type":"uint256","internalType":"uint256"}],"stateMutability":"payable"},{"type":"function","name":"allowance","inputs":[{"name":"owner","type":"address","internalType":"address"},{"name":"spender","type":"address","internalType":"address"}],"outputs":[{"name":"","type":"uint256","internalType":"uint256"}],"stateMutability":"view"},{"type":"function","name":"approve","inputs":[{"name":"spender","type":"address","internalType":"address"},{"name":"value","type":"uint256","internalType":"uint256"}],"outputs":[{"name":"","type":"bool","internalType":"bool"}],"stateMutability":"nonpayable"},{"type":"function","name":"balanceOf","inputs":[{"name":"account","type":"address","internalType":"address"}],"outputs":[{"name":"","type":"uint256","internalType":"uint256"}],"stateMutability":"view"},{"type":"function","name":"blacklist","inputs":[{"name":"account","type":"address","internalType":"address"}],"outputs":[],"stateMutability":"nonpayable"},{"type":"function","name":"burn","inputs":[{"name":"value","type":"uint256","internalType":"uint256"}],"outputs":[],"stateMutability":"nonpayable"},{"type":"function","name":"burnFrom","inputs":[{"name":"account","type":"address","internalType":"address"},{"name":"value","type":"uint256","internalType":"uint256"}],"outputs":[],"stateMutability":"nonpayable"},{"type":"function","name":"decimals","inputs":[],"outputs":[{"name":"","type":"uint8","internalType":"uint8"}],"stateMutability":"view"},{"type":"function","name":"isBlacklisted","inputs":[{"name":"account","type":"address","internalType":"address"}],"outputs":[{"name":"","type":"bool","internalType":"bool"}],"stateMutability":"view"},{"type":"function","name":"name","inputs":[],"outputs":[{"name":"","type":"string","internalType":"string"}],"stateMutability":"view"},{"type":"function","name":"owner","inputs":[],"outputs":[{"name":"","type":"address","internalType":"address"}],"stateMutability":"view"},{"type":"function","name":"pause","inputs":[],"outputs":[],"stateMutability":"nonpayable"},{"type":"function","name":"paused","inputs":[],"outputs":[{"name":"","type":"bool","internalType":"bool"}],"stateMutability":"view"},{"type":"function","name":"renounceOwnership","inputs":[],"outputs":[],"stateMutability":"nonpayable"},{"type":"function","name":"symbol","inputs":[],"outputs":[{"name":"","type":"string","internalType":"string"}],"stateMutability":"view"},{"type":"function","name":"totalSupply","inputs":[],"outputs":[{"name":"","type":"uint256","internalType":"uint256"}],"stateMutability":"view"},{"type":"function","name":"transfer","inputs":[{"name":"to","type":"address","internalType":"address"},{"name":"value","type":"uint256","internalType":"uint256"}],"outputs":[{"name":"","type":"bool","internalType":"bool"}],"stateMutability":"nonpayable"},{"type":"function","name":"transferFrom","inputs":[{"name":"from","type":"address","internalType":"address"},{"name":"to","type":"address","internalType":"address"},{"name":"value","type":"uint256","internalType":"uint256"}],"outputs":[{"name":"","type":"bool","internalType":"bool"}],"stateMutability":"nonpayable"},{"type":"function","name":"transferOwnership","inputs":[{"name":"newOwner","type":"address","internalType":"address"}],"outputs":[],"stateMutability":"nonpayable"},{"type":"function","name":"unblacklist","inputs":[{"name":"account","type":"address","internalType":"address"}],"outputs":[],"stateMutability":"nonpayable"},{"type":"function","name":"unpause","inputs":[],"outputs":[],"stateMutability":"nonpayable"},{"type":"event","name":"Approval","inputs":[{"name":"owner","type":"address","indexed":true,"internalType":"address"},{"name":"spender","type":"address","indexed":true,"internalType":"address"},{"name":"value","type":"uint256","indexed":false,"internalType":"uint256"}],"anonymous":false},{"type":"event","name":"Blacklisted","inputs":[{"name":"account","type":"address","indexed":true,"internalType":"address"}],"anonymous":false},{"type":"event","name":"OwnershipTransferred","inputs":[{"name":"previousOwner","type":"address","indexed":true,"internalType":"address"},{"name":"newOwner","type":"address","indexed":true,"internalType":"address"}],"anonymous":false},{"type":"event","name":"Paused","inputs":[{"name":"account","type":"address","indexed":false,"internalType":"address"}],"anonymous":false},{"type":"event","name":"Transfer","inputs":[{"name":"from","type":"address","indexed":true,"internalType":"address"},{"name":"to","type":"address","indexed":true,"internalType":"address"},{"name":"value","type":"uint256","indexed":false,"internalType":"uint256"}],"anonymous":false},{"type":"event","name":"Unblacklisted","inputs":[{"name":"account","type":"address","indexed":true,"internalType":"address"}],"anonymous":false},{"type":"event","name":"Unpaused","inputs":[{"name":"account","type":"address","indexed":false,"internalType":"address"}],"anonymous":false},{"type":"error","name":"ERC20InsufficientAllowance","inputs":[{"name":"spender","type":"address","internalType":"address"},{"name":"allowance","type":"uint256","internalType":"uint256"},{"name":"needed","type":"uint256","internalType":"uint256"}]},{"type":"error","name":"ERC20InsufficientBalance","inputs":[{"name":"sender","type":"address","internalType":"address"},{"name":"balance","type":"uint256","internalType":"uint256"},{"name":"needed","type":"uint256","internalType":"uint256"}]},{"type":"error","name":"ERC20InvalidApprover","inputs":[{"name":"approver","type":"address","internalType":"address"}]},{"type":"error","name":"ERC20InvalidReceiver","inputs":[{"name":"receiver","type":"address","internalType":"address"}]},{"type":"error","name":"ERC20InvalidSender","inputs":[{"name":"sender","type":"address","internalType":"address"}]},{"type":"error","name":"ERC20InvalidSpender","inputs":[{"name":"spender","type":"address","internalType":"address"}]},{"type":"error","name":"EnforcedPause","inputs":[]},{"type":"error","name":"ExpectedPause","inputs":[]},{"type":"error","name":"OwnableInvalidOwner","inputs":[{"name":"owner","type":"address","internalType":"address"}]},{"type":"error","name":"OwnableUnauthorizedAccount","inputs":[{"name":"account","type":"address","internalType":"address"}]}],"bytecode":{"object":"0x608060405260405162002c5f38038062002c5f833981810160405281019062000029919062000a54565b335f73ffffffffffffffffffffffffffffffffffffffff168173ffffffffffffffffffffffffffffffffffffffff16036200009d575f6040517f1e4fbdf700000000000000000000000000000000000000000000000000000000815260040162000094919062000b3b565b60405180910390fd5b620000ae81620002c460201b60201c565b505f8060146101000a81548160ff0219169083151502179055508560059081620000d9919062000d84565b508460069081620000eb919062000d84565b508360075f6101000a81548160ff021916908360ff160217905550803410156200014c576040517f08c379a0000000000000000000000000000000000000000000000000000000008152600401620001439062000ec6565b60405180910390fd5b5f73ffffffffffffffffffffffffffffffffffffffff168273ffffffffffffffffffffffffffffffffffffffff1603620001bd576040517f08c379a0000000000000000000000000000000000000000000000000000000008152600401620001b49062000f34565b60405180910390fd5b5f8273ffffffffffffffffffffffffffffffffffffffff1682604051620001e49062000f85565b5f6040518083038185875af1925050503d805f811462000220576040519150601f19603f3d011682016040523d82523d5f602084013e62000225565b606091505b50509050806200026c576040517f08c379a0000000000000000000000000000000000000000000000000000000008152600401620002639062000fe9565b60405180910390fd5b620002b7620002806200038560201b60201c565b62000290620003ac60201b60201c565b600a6200029e919062001186565b86620002ab9190620011d6565b620003c160201b60201c565b505050505050506200139d565b5f805f9054906101000a900473ffffffffffffffffffffffffffffffffffffffff169050815f806101000a81548173ffffffffffffffffffffffffffffffffffffffff021916908373ffffffffffffffffffffffffffffffffffffffff1602179055508173ffffffffffffffffffffffffffffffffffffffff168173ffffffffffffffffffffffffffffffffffffffff167f8be0079c531659141344cd1fd0a4f28419497f9722a3daafe3b4186f6b6457e060405160405180910390a35050565b5f805f9054906101000a900473ffffffffffffffffffffffffffffffffffffffff16905090565b5f60075f9054906101000a900460ff16905090565b5f73ffffffffffffffffffffffffffffffffffffffff168273ffffffffffffffffffffffffffffffffffffffff160362000434575f6040517fec442f050000000000000000000000000000000000000000000000000000000081526004016200042b919062000b3b565b60405180910390fd5b620004475f83836200044b60201b60201c565b5050565b6200045b6200079c60201b60201c565b60035f8473ffffffffffffffffffffffffffffffffffffffff1673ffffffffffffffffffffffffffffffffffffffff1681526020019081526020015f205f9054906101000a900460ff1615620004e8576040517f08c379a0000000000000000000000000000000000000000000000000000000008152600401620004df906200126e565b60405180910390fd5b60035f8373ffffffffffffffffffffffffffffffffffffffff1673ffffffffffffffffffffffffffffffffffffffff1681526020019081526020015f205f9054906101000a900460ff161562000575576040517f08c379a00000000000000000000000000000000000000000000000000000000081526004016200056c90620012dc565b60405180910390fd5b5f73ffffffffffffffffffffffffffffffffffffffff168373ffffffffffffffffffffffffffffffffffffffff1603620005c9578060045f828254620005bc9190620012fc565b925050819055506200069c565b5f60015f8573ffffffffffffffffffffffffffffffffffffffff1673ffffffffffffffffffffffffffffffffffffffff1681526020019081526020015f205490508181101562000656578381836040517fe450d38c0000000000000000000000000000000000000000000000000000000081526004016200064d9392919062001347565b60405180910390fd5b81810360015f8673ffffffffffffffffffffffffffffffffffffffff1673ffffffffffffffffffffffffffffffffffffffff1681526020019081526020015f2081905550505b5f73ffffffffffffffffffffffffffffffffffffffff168273ffffffffffffffffffffffffffffffffffffffff1603620006e5578060045f828254039250508190555062000730565b8060015f8473ffffffffffffffffffffffffffffffffffffffff1673ffffffffffffffffffffffffffffffffffffffff1681526020019081526020015f205f82825401925050819055505b8173ffffffffffffffffffffffffffffffffffffffff168373ffffffffffffffffffffffffffffffffffffffff167fddf252ad1be2c89b69c2b068fc378daa952ba7f163c4a11628f55a4df523b3ef836040516200078f919062001382565b60405180910390a3505050565b620007ac620007e660201b60201c565b15620007e4576040517fd93c066500000000000000000000000000000000000000000000000000000000815260040160405180910390fd5b565b5f8060149054906101000a900460ff16905090565b5f604051905090565b5f80fd5b5f80fd5b5f80fd5b5f80fd5b5f601f19601f8301169050919050565b7f4e487b71000000000000000000000000000000000000000000000000000000005f52604160045260245ffd5b6200085c8262000814565b810181811067ffffffffffffffff821117156200087e576200087d62000824565b5b80604052505050565b5f62000892620007fb565b9050620008a0828262000851565b919050565b5f67ffffffffffffffff821115620008c257620008c162000824565b5b620008cd8262000814565b9050602081019050919050565b5f5b83811015620008f9578082015181840152602081019050620008dc565b5f8484015250505050565b5f6200091a6200091484620008a5565b62000887565b90508281526020810184848401111562000939576200093862000810565b5b62000946848285620008da565b509392505050565b5f82601f8301126200096557620009646200080c565b5b81516200097784826020860162000904565b91505092915050565b5f60ff82169050919050565b620009978162000980565b8114620009a2575f80fd5b50565b5f81519050620009b5816200098c565b92915050565b5f819050919050565b620009cf81620009bb565b8114620009da575f80fd5b50565b5f81519050620009ed81620009c4565b92915050565b5f73ffffffffffffffffffffffffffffffffffffffff82169050919050565b5f62000a1e82620009f3565b9050919050565b62000a308162000a12565b811462000a3b575f80fd5b50565b5f8151905062000a4e8162000a25565b92915050565b5f805f805f8060c0878903121562000a715762000a7062000804565b5b5f87015167ffffffffffffffff81111562000a915762000a9062000808565b5b62000a9f89828a016200094e565b965050602087015167ffffffffffffffff81111562000ac35762000ac262000808565b5b62000ad189828a016200094e565b955050604062000ae489828a01620009a5565b945050606062000af789828a01620009dd565b935050608062000b0a89828a0162000a3e565b92505060a062000b1d89828a01620009dd565b9150509295509295509295565b62000b358162000a12565b82525050565b5f60208201905062000b505f83018462000b2a565b92915050565b5f81519050919050565b7f4e487b71000000000000000000000000000000000000000000000000000000005f52602260045260245ffd5b5f600282049050600182168062000ba557607f821691505b60208210810362000bbb5762000bba62000b60565b5b50919050565b5f819050815f5260205f209050919050565b5f6020601f8301049050919050565b5f82821b905092915050565b5f6008830262000c1f7fffffffffffffffffffffffffffffffffffffffffffffffffffffffffffffffff8262000be2565b62000c2b868362000be2565b95508019841693508086168417925050509392505050565b5f819050919050565b5f62000c6c62000c6662000c6084620009bb565b62000c43565b620009bb565b9050919050565b5f819050919050565b62000c878362000c4c565b62000c9f62000c968262000c73565b84845462000bee565b825550505050565b5f90565b62000cb562000ca7565b62000cc281848462000c7c565b505050565b5b8181101562000ce95762000cdd5f8262000cab565b60018101905062000cc8565b5050565b601f82111562000d385762000d028162000bc1565b62000d0d8462000bd3565b8101602085101562000d1d578190505b62000d3562000d2c8562000bd3565b83018262000cc7565b50505b505050565b5f82821c905092915050565b5f62000d5a5f198460080262000d3d565b1980831691505092915050565b5f62000d74838362000d49565b9150826002028217905092915050565b62000d8f8262000b56565b67ffffffffffffffff81111562000dab5762000daa62000824565b5b62000db7825462000b8d565b62000dc482828562000ced565b5f60209050601f83116001811462000dfa575f841562000de5578287015190505b62000df1858262000d67565b86555062000e60565b601f19841662000e0a8662000bc1565b5f5b8281101562000e335784890151825560018201915060208501945060208101905062000e0c565b8683101562000e53578489015162000e4f601f89168262000d49565b8355505b6001600288020188555050505b505050505050565b5f82825260208201905092915050565b7f496e73756666696369656e742066656520616d6f756e742073656e74000000005f82015250565b5f62000eae601c8362000e68565b915062000ebb8262000e78565b602082019050919050565b5f6020820190508181035f83015262000edf8162000ea0565b9050919050565b7f496e76616c6964206665652072656365697665722061646472657373000000005f82015250565b5f62000f1c601c8362000e68565b915062000f298262000ee6565b602082019050919050565b5f6020820190508181035f83015262000f4d8162000f0e565b9050919050565b5f81905092915050565b50565b5f62000f6e5f8362000f54565b915062000f7b8262000f5e565b5f82019050919050565b5f62000f918262000f61565b9150819050919050565b7f466565207472616e73666572206661696c6564000000000000000000000000005f82015250565b5f62000fd160138362000e68565b915062000fde8262000f9b565b602082019050919050565b5f6020820190508181035f830152620010028162000fc3565b9050919050565b7f4e487b71000000000000000000000000000000000000000000000000000000005f52601160045260245ffd5b5f8160011c9050919050565b5f808291508390505b600185111562001093578086048111156200106b576200106a62001009565b5b60018516156200107b5780820291505b80810290506200108b8562001036565b94506200104b565b94509492505050565b5f82620010ad57600190506200117f565b81620010bc575f90506200117f565b8160018114620010d55760028114620010e05762001116565b60019150506200117f565b60ff841115620010f557620010f462001009565b5b8360020a9150848211156200110f576200110e62001009565b5b506200117f565b5060208310610133831016604e8410600b8410161715620011505782820a9050838111156200114a576200114962001009565b5b6200117f565b6200115f848484600162001042565b9250905081840481111562001179576200117862001009565b5b81810290505b9392505050565b5f6200119282620009bb565b91506200119f8362000980565b9250620011ce7fffffffffffffffffffffffffffffffffffffffffffffffffffffffffffffffff84846200109c565b905092915050565b5f620011e282620009bb565b9150620011ef83620009bb565b9250828202620011ff81620009bb565b9150828204841483151762001219576200121862001009565b5b5092915050565b7f53656e64657220697320626c61636b6c697374656400000000000000000000005f82015250565b5f6200125660158362000e68565b9150620012638262001220565b602082019050919050565b5f6020820190508181035f830152620012878162001248565b9050919050565b7f526563697069656e7420697320626c61636b6c697374656400000000000000005f82015250565b5f620012c460188362000e68565b9150620012d1826200128e565b602082019050919050565b5f6020820190508181035f830152620012f581620012b6565b9050919050565b5f6200130882620009bb565b91506200131583620009bb565b925082820190508082111562001330576200132f62001009565b5b92915050565b6200134181620009bb565b82525050565b5f6060820190506200135c5f83018662000b2a565b6200136b602083018562001336565b6200137a604083018462001336565b949350505050565b5f602082019050620013975f83018462001336565b92915050565b6118b480620013ab5f395ff3fe608060405234801561000f575f80fd5b506004361061012a575f3560e01c806375e3661e116100ab578063a9059cbb1161006f578063a9059cbb146102e4578063dd62ed3e14610314578063f2fde38b14610344578063f9f92be414610360578063fe575a871461037c5761012a565b806375e3661e1461026657806379cc6790146102825780638456cb591461029e5780638da5cb5b146102a857806395d89b41146102c65761012a565b80633f4ba83a116100f25780633f4ba83a146101e857806342966c68146101f25780635c975abb1461020e57806370a082311461022c578063715018a61461025c5761012a565b806306fdde031461012e578063095ea7b31461014c57806318160ddd1461017c57806323b872dd1461019a578063313ce567146101ca575b5f80fd5b6101366103ac565b6040516101439190611432565b60405180910390f35b610166600480360381019061016191906114e3565b61043c565b604051610173919061153b565b60405180910390f35b61018461045e565b6040516101919190611563565b60405180910390f35b6101b460048036038101906101af919061157c565b610467565b6040516101c1919061153b565b60405180910390f35b6101d2610495565b6040516101df91906115e7565b60405180910390f35b6101f06104aa565b005b61020c60048036038101906102079190611600565b6104bc565b005b6102166104d0565b604051610223919061153b565b60405180910390f35b6102466004803603810190610241919061162b565b6104e5565b6040516102539190611563565b60405180910390f35b61026461052b565b005b610280600480360381019061027b919061162b565b61053e565b005b61029c600480360381019061029791906114e3565b6105e0565b005b6102a6610600565b005b6102b0610612565b6040516102bd9190611665565b60405180910390f35b6102ce610639565b6040516102db9190611432565b60405180910390f35b6102fe60048036038101906102f991906114e3565b6106c9565b60405161030b919061153b565b60405180910390f35b61032e6004803603810190610329919061167e565b6106eb565b60405161033b9190611563565b60405180910390f35b61035e6004803603810190610359919061162b565b61076d565b005b61037a6004803603810190610375919061162b565b6107f1565b005b6103966004803603810190610391919061162b565b610894565b6040516103a3919061153b565b60405180910390f35b6060600580546103bb906116e9565b80601f01602080910402602001604051908101604052809291908181526020018280546103e7906116e9565b80156104325780601f1061040957610100808354040283529160200191610432565b820191905f5260205f20905b81548152906001019060200180831161041557829003601f168201915b5050505050905090565b5f806104466108e6565b90506104538185856108ed565b600191505092915050565b5f600454905090565b5f806104716108e6565b905061047e8582856108ff565b610489858585610992565b60019150509392505050565b5f60075f9054906101000a900460ff16905090565b6104b2610b96565b6104ba610c1d565b565b6104cd6104c76108e6565b82610c7e565b50565b5f8060149054906101000a900460ff16905090565b5f60015f8373ffffffffffffffffffffffffffffffffffffffff1673ffffffffffffffffffffffffffffffffffffffff1681526020019081526020015f20549050919050565b610533610b96565b61053c5f610cfd565b565b610546610b96565b5f60035f8373ffffffffffffffffffffffffffffffffffffffff1673ffffffffffffffffffffffffffffffffffffffff1681526020019081526020015f205f6101000a81548160ff0219169083151502179055508073ffffffffffffffffffffffffffffffffffffffff167f7534c63860313c46c473e4e98328f37017e9674e2162faf1a3ad7a96236c3b7b60405160405180910390a250565b6105f2826105ec6108e6565b836108ff565b6105fc8282610c7e565b5050565b610608610b96565b610610610dbe565b565b5f805f9054906101000a900473ffffffffffffffffffffffffffffffffffffffff16905090565b606060068054610648906116e9565b80601f0160208091040260200160405190810160405280929190818152602001828054610674906116e9565b80156106bf5780601f10610696576101008083540402835291602001916106bf565b820191905f5260205f20905b8154815290600101906020018083116106a257829003601f168201915b5050505050905090565b5f806106d36108e6565b90506106e0818585610992565b600191505092915050565b5f60025f8473ffffffffffffffffffffffffffffffffffffffff1673ffffffffffffffffffffffffffffffffffffffff1681526020019081526020015f205f8373ffffffffffffffffffffffffffffffffffffffff1673ffffffffffffffffffffffffffffffffffffffff1681526020019081526020015f2054905092915050565b610775610b96565b5f73ffffffffffffffffffffffffffffffffffffffff168173ffffffffffffffffffffffffffffffffffffffff16036107e5575f6040517f1e4fbdf70000000000000000000000000000000000000000000000000000000081526004016107dc9190611665565b60405180910390fd5b6107ee81610cfd565b50565b6107f9610b96565b600160035f8373ffffffffffffffffffffffffffffffffffffffff1673ffffffffffffffffffffffffffffffffffffffff1681526020019081526020015f205f6101000a81548160ff0219169083151502179055508073ffffffffffffffffffffffffffffffffffffffff167fffa4e6181777692565cf28528fc88fd1516ea86b56da075235fa575af6a4b85560405160405180910390a250565b5f60035f8373ffffffffffffffffffffffffffffffffffffffff1673ffffffffffffffffffffffffffffffffffffffff1681526020019081526020015f205f9054906101000a900460ff169050919050565b5f33905090565b6108fa8383836001610e20565b505050565b5f61090a84846106eb565b90507fffffffffffffffffffffffffffffffffffffffffffffffffffffffffffffffff81101561098c578181101561097d578281836040517ffb8f41b200000000000000000000000000000000000000000000000000000000815260040161097493929190611719565b60405180910390fd5b61098b84848484035f610e20565b5b50505050565b60035f8473ffffffffffffffffffffffffffffffffffffffff1673ffffffffffffffffffffffffffffffffffffffff1681526020019081526020015f205f9054906101000a900460ff1615610a1c576040517f08c379a0000000000000000000000000000000000000000000000000000000008152600401610a1390611798565b60405180910390fd5b60035f8373ffffffffffffffffffffffffffffffffffffffff1673ffffffffffffffffffffffffffffffffffffffff1681526020019081526020015f205f9054906101000a900460ff1615610aa6576040517f08c379a0000000000000000000000000000000000000000000000000000000008152600401610a9d90611800565b60405180910390fd5b5f73ffffffffffffffffffffffffffffffffffffffff168373ffffffffffffffffffffffffffffffffffffffff1603610b16575f6040517f96c6fd1e000000000000000000000000000000000000000000000000000000008152600401610b0d9190611665565b60405180910390fd5b5f73ffffffffffffffffffffffffffffffffffffffff168273ffffffffffffffffffffffffffffffffffffffff1603610b86575f6040517fec442f05000000000000000000000000000000000000000000000000000000008152600401610b7d9190611665565b60405180910390fd5b610b91838383610fef565b505050565b610b9e6108e6565b73ffffffffffffffffffffffffffffffffffffffff16610bbc610612565b73ffffffffffffffffffffffffffffffffffffffff1614610c1b57610bdf6108e6565b6040517f118cdaa7000000000000000000000000000000000000000000000000000000008152600401610c129190611665565b60405180910390fd5b565b610c25611327565b5f8060146101000a81548160ff0219169083151502179055507f5db9ee0a495bf2e6ff9c91a7834c1ba4fdd244a5e8aa4e537bd38aeae4b073aa610c676108e6565b604051610c749190611665565b60405180910390a1565b5f73ffffffffffffffffffffffffffffffffffffffff168273ffffffffffffffffffffffffffffffffffffffff1603610cee575f6040517f96c6fd1e000000000000000000000000000000000000000000000000000000008152600401610ce59190611665565b60405180910390fd5b610cf9825f83610fef565b5050565b5f805f9054906101000a900473ffffffffffffffffffffffffffffffffffffffff169050815f806101000a81548173ffffffffffffffffffffffffffffffffffffffff021916908373ffffffffffffffffffffffffffffffffffffffff1602179055508173ffffffffffffffffffffffffffffffffffffffff168173ffffffffffffffffffffffffffffffffffffffff167f8be0079c531659141344cd1fd0a4f28419497f9722a3daafe3b4186f6b6457e060405160405180910390a35050565b610dc6611367565b60015f60146101000a81548160ff0219169083151502179055507f62e78cea01bee320cd4e420270b5ea74000d11b0c9f74754ebdbfc544b05a258610e096108e6565b604051610e169190611665565b60405180910390a1565b5f73ffffffffffffffffffffffffffffffffffffffff168473ffffffffffffffffffffffffffffffffffffffff1603610e90575f6040517fe602df05000000000000000000000000000000000000000000000000000000008152600401610e879190611665565b60405180910390fd5b5f73ffffffffffffffffffffffffffffffffffffffff168373ffffffffffffffffffffffffffffffffffffffff1603610f00575f6040517f94280d62000000000000000000000000000000000000000000000000000000008152600401610ef79190611665565b60405180910390fd5b8160025f8673ffffffffffffffffffffffffffffffffffffffff1673ffffffffffffffffffffffffffffffffffffffff1681526020019081526020015f205f8573ffffffffffffffffffffffffffffffffffffffff1673ffffffffffffffffffffffffffffffffffffffff1681526020019081526020015f20819055508015610fe9578273ffffffffffffffffffffffffffffffffffffffff168473ffffffffffffffffffffffffffffffffffffffff167f8c5be1e5ebec7d5bd14f71427d1e84f3dd0314c0f7b2291e5b200ac8c7c3b92584604051610fe09190611563565b60405180910390a35b50505050565b610ff7611367565b60035f8473ffffffffffffffffffffffffffffffffffffffff1673ffffffffffffffffffffffffffffffffffffffff1681526020019081526020015f205f9054906101000a900460ff1615611081576040517f08c379a000000000000000000000000000000000000000000000000000000000815260040161107890611798565b60405180910390fd5b60035f8373ffffffffffffffffffffffffffffffffffffffff1673ffffffffffffffffffffffffffffffffffffffff1681526020019081526020015f205f9054906101000a900460ff161561110b576040517f08c379a000000000000000000000000000000000000000000000000000000000815260040161110290611800565b60405180910390fd5b5f73ffffffffffffffffffffffffffffffffffffffff168373ffffffffffffffffffffffffffffffffffffffff160361115b578060045f82825461114f919061184b565b9250508190555061122b565b5f60015f8573ffffffffffffffffffffffffffffffffffffffff1673ffffffffffffffffffffffffffffffffffffffff1681526020019081526020015f20549050818110156111e5578381836040517fe450d38c0000000000000000000000000000000000000000000000000000000081526004016111dc93929190611719565b60405180910390fd5b81810360015f8673ffffffffffffffffffffffffffffffffffffffff1673ffffffffffffffffffffffffffffffffffffffff1681526020019081526020015f2081905550505b5f73ffffffffffffffffffffffffffffffffffffffff168273ffffffffffffffffffffffffffffffffffffffff1603611272578060045f82825403925050819055506112bd565b8060015f8473ffffffffffffffffffffffffffffffffffffffff1673ffffffffffffffffffffffffffffffffffffffff1681526020019081526020015f205f82825401925050819055505b8173ffffffffffffffffffffffffffffffffffffffff168373ffffffffffffffffffffffffffffffffffffffff167fddf252ad1be2c89b69c2b068fc378daa952ba7f163c4a11628f55a4df523b3ef8360405161131a9190611563565b60405180910390a3505050565b61132f6104d0565b611365576040517f8dfc202b00000000000000000000000000000000000000000000000000000000815260040160405180910390fd5b565b61136f6104d0565b156113a6576040517fd93c066500000000000000000000000000000000000000000000000000000000815260040160405180910390fd5b565b5f81519050919050565b5f82825260208201905092915050565b5f5b838110156113df5780820151818401526020810190506113c4565b5f8484015250505050565b5f601f19601f8301169050919050565b5f611404826113a8565b61140e81856113b2565b935061141e8185602086016113c2565b611427816113ea565b840191505092915050565b5f6020820190508181035f83015261144a81846113fa565b905092915050565b5f80fd5b5f73ffffffffffffffffffffffffffffffffffffffff82169050919050565b5f61147f82611456565b9050919050565b61148f81611475565b8114611499575f80fd5b50565b5f813590506114aa81611486565b92915050565b5f819050919050565b6114c2816114b0565b81146114cc575f80fd5b50565b5f813590506114dd816114b9565b92915050565b5f80604083850312156114f9576114f8611452565b5b5f6115068582860161149c565b9250506020611517858286016114cf565b9150509250929050565b5f8115159050919050565b61153581611521565b82525050565b5f60208201905061154e5f83018461152c565b92915050565b61155d816114b0565b82525050565b5f6020820190506115765f830184611554565b92915050565b5f805f6060848603121561159357611592611452565b5b5f6115a08682870161149c565b93505060206115b18682870161149c565b92505060406115c2868287016114cf565b9150509250925092565b5f60ff82169050919050565b6115e1816115cc565b82525050565b5f6020820190506115fa5f8301846115d8565b92915050565b5f6020828403121561161557611614611452565b5b5f611622848285016114cf565b91505092915050565b5f602082840312156116405761163f611452565b5b5f61164d8482850161149c565b91505092915050565b61165f81611475565b82525050565b5f6020820190506116785f830184611656565b92915050565b5f806040838503121561169457611693611452565b5b5f6116a18582860161149c565b92505060206116b28582860161149c565b9150509250929050565b7f4e487b71000000000000000000000000000000000000000000000000000000005f52602260045260245ffd5b5f600282049050600182168061170057607f821691505b602082108103611713576117126116bc565b5b50919050565b5f60608201905061172c5f830186611656565b6117396020830185611554565b6117466040830184611554565b949350505050565b7f53656e64657220697320626c61636b6c697374656400000000000000000000005f82015250565b5f6117826015836113b2565b915061178d8261174e565b602082019050919050565b5f6020820190508181035f8301526117af81611776565b9050919050565b7f526563697069656e7420697320626c61636b6c697374656400000000000000005f82015250565b5f6117ea6018836113b2565b91506117f5826117b6565b602082019050919050565b5f6020820190508181035f830152611817816117de565b9050919050565b7f4e487b71000000000000000000000000000000000000000000000000000000005f52601160045260245ffd5b5f611855826114b0565b9150611860836114b0565b92508282019050808211156118785761187761181e565b5b9291505056fea2646970667358221220d575687a45a318ca69253c891b5fb27215ba18225eeae038130fc8f05e76d08564736f6c63430008170033","linkReferences":{}},"methodIdentifiers":{"allowance(address,address)":"dd62ed3e","approve(address,uint256)":"095ea7b3","balanceOf(address)":"70a08231","blacklist(address)":"f9f92be4","burn(uint256)":"42966c68","burnFrom(address,uint256)":"79cc6790","decimals()":"313ce567","isBlacklisted(address)":"fe575a87","name()":"06fdde03","owner()":"8da5cb5b","pause()":"8456cb59","paused()":"5c975abb","renounceOwnership()":"715018a6","symbol()":"95d89b41","totalSupply()":"18160ddd","transfer(address,uint256)":"a9059cbb","transferFrom(address,address,uint256)":"23b872dd","transferOwnership(address)":"f2fde38b","unblacklist(address)":"75e3661e","unpause()":"3f4ba83a"},"id":14}