{"abi":[{"type":"constructor","inputs":[{"name":"name_","type":"string","internalType":"string"},{"name":"symbol_","type":"string","internalType":"string"},{"name":"decimals_","type":"uint8","internalType":"uint8"},{"name":"totalSupply_","type":"uint256","internalType":"uint256"},{"name":"serviceFeeReceiver_","type":"address","internalType":"address"},{"name":"serviceFee_","type":"uint256","internalType":"uint256"}],"stateMutability":"payable"},{"type":"function","name":"allowance","inputs":[{"name":"owner","type":"address","internalType":"address"},{"name":"spender","type":"address","internalType":"address"}],"outputs":[{"name":"","type":"uint256","internalType":"uint256"}],"stateMutability":"view"},{"type":"function","name":"approve","inputs":[{"name":"spender","type":"address","internalType":"address"},{"name":"value","type":"uint256","internalType":"uint256"}],"outputs":[{"name":"","type":"bool","internalType":"bool"}],"stateMutability":"nonpayable"},{"type":"function","name":"balanceOf","inputs":[{"name":"account","type":"address","internalType":"address"}],"outputs":[{"name":"","type":"uint256","internalType":"uint256"}],"stateMutability":"view"},{"type":"function","name":"blacklist","inputs":[{"name":"account","type":"address","internalType":"address"}],"outputs":[],"stateMutability":"nonpayable"},{"type":"function","name":"burn","inputs":[{"name":"value","type":"uint256","internalType":"uint256"}],"outputs":[],"stateMutability":"nonpayable"},{"type":"function","name":"burnFrom","inputs":[{"name":"account","type":"address","internalType":"address"},{"name":"value","type":"uint256","internalType":"uint256"}],"outputs":[],"stateMutability":"nonpayable"},{"type":"function","name":"decimals","inputs":[],"outputs":[{"name":"","type":"uint8","internalType":"uint8"}],"stateMutability":"view"},{"type":"function","name":"isBlacklisted","inputs":[{"name":"account","type":"address","internalType":"address"}],"outputs":[{"name":"","type":"bool","internalType":"bool"}],"stateMutability":"view"},{"type":"function","name":"mint","inputs":[{"name":"to","type":"address","internalType":"address"},{"name":"amount","type":"uint256","internalType":"uint256"}],"outputs":[],"stateMutability":"nonpayable"},{"type":"function","name":"name","inputs":[],"outputs":[{"name":"","type":"string","internalType":"string"}],"stateMutability":"view"},{"type":"function","name":"owner","inputs":[],"outputs":[{"name":"","type":"address","internalType":"address"}],"stateMutability":"view"},{"type":"function","name":"renounceOwnership","inputs":[],"outputs":[],"stateMutability":"nonpayable"},{"type":"function","name":"symbol","inputs":[],"outputs":[{"name":"","type":"string","internalType":"string"}],"stateMutability":"view"},{"type":"function","name":"totalSupply","inputs":[],"outputs":[{"name":"","type":"uint256","internalType":"uint256"}],"stateMutability":"view"},{"type":"function","name":"transfer","inputs":[{"name":"to","type":"address","internalType":"address"},{"name":"value","type":"uint256","internalType":"uint256"}],"outputs":[{"name":"","type":"bool","internalType":"bool"}],"stateMutability":"nonpayable"},{"type":"function","name":"transferFrom","inputs":[{"name":"from","type":"address","internalType":"address"},{"name":"to","type":"address","internalType":"address"},{"name":"value","type":"uint256","internalType":"uint256"}],"outputs":[{"name":"","type":"bool","internalType":"bool"}],"stateMutability":"nonpayable"},{"type":"function","name":"transferOwnership","inputs":[{"name":"newOwner","type":"address","internalType":"address"}],"outputs":[],"stateMutability":"nonpayable"},{"type":"function","name":"unblacklist","inputs":[{"name":"account","type":"address","internalType":"address"}],"outputs":[],"stateMutability":"nonpayable"},{"type":"event","name":"Approval","inputs":[{"name":"owner","type":"address","indexed":true,"internalType":"address"},{"name":"spender","type":"address","indexed":true,"internalType":"address"},{"name":"value","type":"uint256","indexed":false,"internalType":"uint256"}],"anonymous":false},{"type":"event","name":"Blacklisted","inputs":[{"name":"account","type":"address","indexed":true,"internalType":"address"}],"anonymous":false},{"type":"event","name":"OwnershipTransferred","inputs":[{"name":"previousOwner","type":"address","indexed":true,"internalType":"address"},{"name":"newOwner","type":"address","indexed":true,"internalType":"address"}],"anonymous":false},{"type":"event","name":"Transfer","inputs":[{"name":"from","type":"address","indexed":true,"internalType":"address"},{"name":"to","type":"address","indexed":true,"internalType":"address"},{"name":"value","type":"uint256","indexed":false,"internalType":"uint256"}],"anonymous":false},{"type":"event","name":"Unblacklisted","inputs":[{"name":"account","type":"address","indexed":true,"internalType":"address"}],"anonymous":false},{"type":"error","name":"OwnableInvalidOwner","inputs":[{"name":"owner","type":"address","internalType":"address"}]},{"type":"error","name":"OwnableUnauthorizedAccount","inputs":[{"name":"account","type":"address","internalType":"address"}]}],"bytecode":{"object":"0x608060405260405162002a2938038062002a298339818101604052810190620000299190620008aa565b335f73ffffffffffffffffffffffffffffffffffffffff168173ffffffffffffffffffffffffffffffffffffffff16036200009d575f6040517f1e4fbdf700000000000000000000000000000000000000000000000000000000815260040162000094919062000991565b60405180910390fd5b620000ae81620002ab60201b60201c565b508560059081620000c0919062000bda565b508460069081620000d2919062000bda565b508360075f6101000a81548160ff021916908360ff1602179055508034101562000133576040517f08c379a00000000000000000000000000000000000000000000000000000000081526004016200012a9062000d1c565b60405180910390fd5b5f73ffffffffffffffffffffffffffffffffffffffff168273ffffffffffffffffffffffffffffffffffffffff1603620001a4576040517f08c379a00000000000000000000000000000000000000000000000000000000081526004016200019b9062000d8a565b60405180910390fd5b5f8273ffffffffffffffffffffffffffffffffffffffff1682604051620001cb9062000ddb565b5f6040518083038185875af1925050503d805f811462000207576040519150601f19603f3d011682016040523d82523d5f602084013e6200020c565b606091505b505090508062000253576040517f08c379a00000000000000000000000000000000000000000000000000000000081526004016200024a9062000e3f565b60405180910390fd5b6200029e620002676200036c60201b60201c565b620002776200039360201b60201c565b600a62000285919062000fdc565b866200029291906200102c565b620003a860201b60201c565b50505050505050620011b8565b5f805f9054906101000a900473ffffffffffffffffffffffffffffffffffffffff169050815f806101000a81548173ffffffffffffffffffffffffffffffffffffffff021916908373ffffffffffffffffffffffffffffffffffffffff1602179055508173ffffffffffffffffffffffffffffffffffffffff168173ffffffffffffffffffffffffffffffffffffffff167f8be0079c531659141344cd1fd0a4f28419497f9722a3daafe3b4186f6b6457e060405160405180910390a35050565b5f805f9054906101000a900473ffffffffffffffffffffffffffffffffffffffff16905090565b5f60075f9054906101000a900460ff16905090565b5f73ffffffffffffffffffffffffffffffffffffffff168273ffffffffffffffffffffffffffffffffffffffff160362000419576040517f08c379a00000000000000000000000000000000000000000000000000000000081526004016200041090620010c4565b60405180910390fd5b6200042c5f83836200043060201b60201c565b5050565b5f73ffffffffffffffffffffffffffffffffffffffff168373ffffffffffffffffffffffffffffffffffffffff160362000484578060045f828254620004779190620010e4565b9250508190555062000551565b5f60015f8573ffffffffffffffffffffffffffffffffffffffff1673ffffffffffffffffffffffffffffffffffffffff1681526020019081526020015f20549050818110156200050b576040517f08c379a000000000000000000000000000000000000000000000000000000000815260040162000502906200116c565b60405180910390fd5b81810360015f8673ffffffffffffffffffffffffffffffffffffffff1673ffffffffffffffffffffffffffffffffffffffff1681526020019081526020015f2081905550505b5f73ffffffffffffffffffffffffffffffffffffffff168273ffffffffffffffffffffffffffffffffffffffff16036200059a578060045f8282540392505081905550620005e5565b8060015f8473ffffffffffffffffffffffffffffffffffffffff1673ffffffffffffffffffffffffffffffffffffffff1681526020019081526020015f205f82825401925050819055505b8173ffffffffffffffffffffffffffffffffffffffff168373ffffffffffffffffffffffffffffffffffffffff167fddf252ad1be2c89b69c2b068fc378daa952ba7f163c4a11628f55a4df523b3ef836040516200064491906200119d565b60405180910390a3505050565b5f604051905090565b5f80fd5b5f80fd5b5f80fd5b5f80fd5b5f601f19601f8301169050919050565b7f4e487b71000000000000000000000000000000000000000000000000000000005f52604160045260245ffd5b620006b2826200066a565b810181811067ffffffffffffffff82111715620006d457620006d36200067a565b5b80604052505050565b5f620006e862000651565b9050620006f68282620006a7565b919050565b5f67ffffffffffffffff8211156200071857620007176200067a565b5b62000723826200066a565b9050602081019050919050565b5f5b838110156200074f57808201518184015260208101905062000732565b5f8484015250505050565b5f620007706200076a84620006fb565b620006dd565b9050828152602081018484840111156200078f576200078e62000666565b5b6200079c84828562000730565b509392505050565b5f82601f830112620007bb57620007ba62000662565b5b8151620007cd8482602086016200075a565b91505092915050565b5f60ff82169050919050565b620007ed81620007d6565b8114620007f8575f80fd5b50565b5f815190506200080b81620007e2565b92915050565b5f819050919050565b620008258162000811565b811462000830575f80fd5b50565b5f8151905062000843816200081a565b92915050565b5f73ffffffffffffffffffffffffffffffffffffffff82169050919050565b5f620008748262000849565b9050919050565b620008868162000868565b811462000891575f80fd5b50565b5f81519050620008a4816200087b565b92915050565b5f805f805f8060c08789031215620008c757620008c66200065a565b5b5f87015167ffffffffffffffff811115620008e757620008e66200065e565b5b620008f589828a01620007a4565b965050602087015167ffffffffffffffff8111156200091957620009186200065e565b5b6200092789828a01620007a4565b95505060406200093a89828a01620007fb565b94505060606200094d89828a0162000833565b93505060806200096089828a0162000894565b92505060a06200097389828a0162000833565b9150509295509295509295565b6200098b8162000868565b82525050565b5f602082019050620009a65f83018462000980565b92915050565b5f81519050919050565b7f4e487b71000000000000000000000000000000000000000000000000000000005f52602260045260245ffd5b5f6002820490506001821680620009fb57607f821691505b60208210810362000a115762000a10620009b6565b5b50919050565b5f819050815f5260205f209050919050565b5f6020601f8301049050919050565b5f82821b905092915050565b5f6008830262000a757fffffffffffffffffffffffffffffffffffffffffffffffffffffffffffffffff8262000a38565b62000a81868362000a38565b95508019841693508086168417925050509392505050565b5f819050919050565b5f62000ac262000abc62000ab68462000811565b62000a99565b62000811565b9050919050565b5f819050919050565b62000add8362000aa2565b62000af562000aec8262000ac9565b84845462000a44565b825550505050565b5f90565b62000b0b62000afd565b62000b1881848462000ad2565b505050565b5b8181101562000b3f5762000b335f8262000b01565b60018101905062000b1e565b5050565b601f82111562000b8e5762000b588162000a17565b62000b638462000a29565b8101602085101562000b73578190505b62000b8b62000b828562000a29565b83018262000b1d565b50505b505050565b5f82821c905092915050565b5f62000bb05f198460080262000b93565b1980831691505092915050565b5f62000bca838362000b9f565b9150826002028217905092915050565b62000be582620009ac565b67ffffffffffffffff81111562000c015762000c006200067a565b5b62000c0d8254620009e3565b62000c1a82828562000b43565b5f60209050601f83116001811462000c50575f841562000c3b578287015190505b62000c47858262000bbd565b86555062000cb6565b601f19841662000c608662000a17565b5f5b8281101562000c895784890151825560018201915060208501945060208101905062000c62565b8683101562000ca9578489015162000ca5601f89168262000b9f565b8355505b6001600288020188555050505b505050505050565b5f82825260208201905092915050565b7f496e73756666696369656e742066656520616d6f756e742073656e74000000005f82015250565b5f62000d04601c8362000cbe565b915062000d118262000cce565b602082019050919050565b5f6020820190508181035f83015262000d358162000cf6565b9050919050565b7f496e76616c6964206665652072656365697665722061646472657373000000005f82015250565b5f62000d72601c8362000cbe565b915062000d7f8262000d3c565b602082019050919050565b5f6020820190508181035f83015262000da38162000d64565b9050919050565b5f81905092915050565b50565b5f62000dc45f8362000daa565b915062000dd18262000db4565b5f82019050919050565b5f62000de78262000db7565b9150819050919050565b7f466565207472616e73666572206661696c6564000000000000000000000000005f82015250565b5f62000e2760138362000cbe565b915062000e348262000df1565b602082019050919050565b5f6020820190508181035f83015262000e588162000e19565b9050919050565b7f4e487b71000000000000000000000000000000000000000000000000000000005f52601160045260245ffd5b5f8160011c9050919050565b5f808291508390505b600185111562000ee95780860481111562000ec15762000ec062000e5f565b5b600185161562000ed15780820291505b808102905062000ee18562000e8c565b945062000ea1565b94509492505050565b5f8262000f03576001905062000fd5565b8162000f12575f905062000fd5565b816001811462000f2b576002811462000f365762000f6c565b600191505062000fd5565b60ff84111562000f4b5762000f4a62000e5f565b5b8360020a91508482111562000f655762000f6462000e5f565b5b5062000fd5565b5060208310610133831016604e8410600b841016171562000fa65782820a90508381111562000fa05762000f9f62000e5f565b5b62000fd5565b62000fb5848484600162000e98565b9250905081840481111562000fcf5762000fce62000e5f565b5b81810290505b9392505050565b5f62000fe88262000811565b915062000ff583620007d6565b9250620010247fffffffffffffffffffffffffffffffffffffffffffffffffffffffffffffffff848462000ef2565b905092915050565b5f620010388262000811565b9150620010458362000811565b9250828202620010558162000811565b915082820484148315176200106f576200106e62000e5f565b5b5092915050565b7f496e76616c6964207265636569766572206164647265737300000000000000005f82015250565b5f620010ac60188362000cbe565b9150620010b98262001076565b602082019050919050565b5f6020820190508181035f830152620010dd816200109e565b9050919050565b5f620010f08262000811565b9150620010fd8362000811565b925082820190508082111562001118576200111762000e5f565b5b92915050565b7f496e73756666696369656e742062616c616e63650000000000000000000000005f82015250565b5f6200115460148362000cbe565b915062001161826200111e565b602082019050919050565b5f6020820190508181035f830152620011858162001146565b9050919050565b620011978162000811565b82525050565b5f602082019050620011b25f8301846200118c565b92915050565b61186380620011c65f395ff3fe608060405234801561000f575f80fd5b5060043610610114575f3560e01c806375e3661e116100a0578063a9059cbb1161006f578063a9059cbb146102b8578063dd62ed3e146102e8578063f2fde38b14610318578063f9f92be414610334578063fe575a871461035057610114565b806375e3661e1461024457806379cc6790146102605780638da5cb5b1461027c57806395d89b411461029a57610114565b8063313ce567116100e7578063313ce567146101b457806340c10f19146101d257806342966c68146101ee57806370a082311461020a578063715018a61461023a57610114565b806306fdde0314610118578063095ea7b31461013657806318160ddd1461016657806323b872dd14610184575b5f80fd5b610120610380565b60405161012d91906111a6565b60405180910390f35b610150600480360381019061014b9190611257565b610410565b60405161015d91906112af565b60405180910390f35b61016e610432565b60405161017b91906112d7565b60405180910390f35b61019e600480360381019061019991906112f0565b61043b565b6040516101ab91906112af565b60405180910390f35b6101bc610469565b6040516101c9919061135b565b60405180910390f35b6101ec60048036038101906101e79190611257565b61047e565b005b61020860048036038101906102039190611374565b610494565b005b610224600480360381019061021f919061139f565b6104a8565b60405161023191906112d7565b60405180910390f35b6102426104ee565b005b61025e6004803603810190610259919061139f565b610501565b005b61027a60048036038101906102759190611257565b6105a3565b005b6102846105c3565b60405161029191906113d9565b60405180910390f35b6102a26105ea565b6040516102af91906111a6565b60405180910390f35b6102d260048036038101906102cd9190611257565b61067a565b6040516102df91906112af565b60405180910390f35b61030260048036038101906102fd91906113f2565b61069c565b60405161030f91906112d7565b60405180910390f35b610332600480360381019061032d919061139f565b61071e565b005b61034e6004803603810190610349919061139f565b6107a2565b005b61036a6004803603810190610365919061139f565b610845565b60405161037791906112af565b60405180910390f35b60606005805461038f9061145d565b80601f01602080910402602001604051908101604052809291908181526020018280546103bb9061145d565b80156104065780601f106103dd57610100808354040283529160200191610406565b820191905f5260205f20905b8154815290600101906020018083116103e957829003601f168201915b5050505050905090565b5f8061041a610897565b905061042781858561089e565b600191505092915050565b5f600454905090565b5f80610445610897565b9050610452858285610a61565b61045d858585610ac4565b60019150509392505050565b5f60075f9054906101000a900460ff16905090565b610486610cc4565b6104908282610d4b565b5050565b6104a561049f610897565b82610dc8565b50565b5f60015f8373ffffffffffffffffffffffffffffffffffffffff1673ffffffffffffffffffffffffffffffffffffffff1681526020019081526020015f20549050919050565b6104f6610cc4565b6104ff5f610e45565b565b610509610cc4565b5f60035f8373ffffffffffffffffffffffffffffffffffffffff1673ffffffffffffffffffffffffffffffffffffffff1681526020019081526020015f205f6101000a81548160ff0219169083151502179055508073ffffffffffffffffffffffffffffffffffffffff167f7534c63860313c46c473e4e98328f37017e9674e2162faf1a3ad7a96236c3b7b60405160405180910390a250565b6105b5826105af610897565b83610a61565b6105bf8282610dc8565b5050565b5f805f9054906101000a900473ffffffffffffffffffffffffffffffffffffffff16905090565b6060600680546105f99061145d565b80601f01602080910402602001604051908101604052809291908181526020018280546106259061145d565b80156106705780601f1061064757610100808354040283529160200191610670565b820191905f5260205f20905b81548152906001019060200180831161065357829003601f168201915b5050505050905090565b5f80610684610897565b9050610691818585610ac4565b600191505092915050565b5f60025f8473ffffffffffffffffffffffffffffffffffffffff1673ffffffffffffffffffffffffffffffffffffffff1681526020019081526020015f205f8373ffffffffffffffffffffffffffffffffffffffff1673ffffffffffffffffffffffffffffffffffffffff1681526020019081526020015f2054905092915050565b610726610cc4565b5f73ffffffffffffffffffffffffffffffffffffffff168173ffffffffffffffffffffffffffffffffffffffff1603610796575f6040517f1e4fbdf700000000000000000000000000000000000000000000000000000000815260040161078d91906113d9565b60405180910390fd5b61079f81610e45565b50565b6107aa610cc4565b600160035f8373ffffffffffffffffffffffffffffffffffffffff1673ffffffffffffffffffffffffffffffffffffffff1681526020019081526020015f205f6101000a81548160ff0219169083151502179055508073ffffffffffffffffffffffffffffffffffffffff167fffa4e6181777692565cf28528fc88fd1516ea86b56da075235fa575af6a4b85560405160405180910390a250565b5f60035f8373ffffffffffffffffffffffffffffffffffffffff1673ffffffffffffffffffffffffffffffffffffffff1681526020019081526020015f205f9054906101000a900460ff169050919050565b5f33905090565b5f73ffffffffffffffffffffffffffffffffffffffff168373ffffffffffffffffffffffffffffffffffffffff160361090c576040517f08c379a0000000000000000000000000000000000000000000000000000000008152600401610903906114d7565b60405180910390fd5b5f73ffffffffffffffffffffffffffffffffffffffff168273ffffffffffffffffffffffffffffffffffffffff160361097a576040517f08c379a00000000000000000000000000000000000000000000000000000000081526004016109719061153f565b60405180910390fd5b8060025f8573ffffffffffffffffffffffffffffffffffffffff1673ffffffffffffffffffffffffffffffffffffffff1681526020019081526020015f205f8473ffffffffffffffffffffffffffffffffffffffff1673ffffffffffffffffffffffffffffffffffffffff1681526020019081526020015f20819055508173ffffffffffffffffffffffffffffffffffffffff168373ffffffffffffffffffffffffffffffffffffffff167f8c5be1e5ebec7d5bd14f71427d1e84f3dd0314c0f7b2291e5b200ac8c7c3b92583604051610a5491906112d7565b60405180910390a3505050565b5f610a6c848461069c565b905081811015610ab1576040517f08c379a0000000000000000000000000000000000000000000000000000000008152600401610aa8906115a7565b60405180910390fd5b610abe848484840361089e565b50505050565b60035f8473ffffffffffffffffffffffffffffffffffffffff1673ffffffffffffffffffffffffffffffffffffffff1681526020019081526020015f205f9054906101000a900460ff1615610b4e576040517f08c379a0000000000000000000000000000000000000000000000000000000008152600401610b459061160f565b60405180910390fd5b60035f8373ffffffffffffffffffffffffffffffffffffffff1673ffffffffffffffffffffffffffffffffffffffff1681526020019081526020015f205f9054906101000a900460ff1615610bd8576040517f08c379a0000000000000000000000000000000000000000000000000000000008152600401610bcf90611677565b60405180910390fd5b5f73ffffffffffffffffffffffffffffffffffffffff168373ffffffffffffffffffffffffffffffffffffffff1603610c46576040517f08c379a0000000000000000000000000000000000000000000000000000000008152600401610c3d906116df565b60405180910390fd5b5f73ffffffffffffffffffffffffffffffffffffffff168273ffffffffffffffffffffffffffffffffffffffff1603610cb4576040517f08c379a0000000000000000000000000000000000000000000000000000000008152600401610cab90611747565b60405180910390fd5b610cbf838383610f06565b505050565b610ccc610897565b73ffffffffffffffffffffffffffffffffffffffff16610cea6105c3565b73ffffffffffffffffffffffffffffffffffffffff1614610d4957610d0d610897565b6040517f118cdaa7000000000000000000000000000000000000000000000000000000008152600401610d4091906113d9565b60405180910390fd5b565b5f73ffffffffffffffffffffffffffffffffffffffff168273ffffffffffffffffffffffffffffffffffffffff1603610db9576040517f08c379a0000000000000000000000000000000000000000000000000000000008152600401610db090611747565b60405180910390fd5b610dc45f8383610f06565b5050565b5f73ffffffffffffffffffffffffffffffffffffffff168273ffffffffffffffffffffffffffffffffffffffff1603610e36576040517f08c379a0000000000000000000000000000000000000000000000000000000008152600401610e2d906116df565b60405180910390fd5b610e41825f83610f06565b5050565b5f805f9054906101000a900473ffffffffffffffffffffffffffffffffffffffff169050815f806101000a81548173ffffffffffffffffffffffffffffffffffffffff021916908373ffffffffffffffffffffffffffffffffffffffff1602179055508173ffffffffffffffffffffffffffffffffffffffff168173ffffffffffffffffffffffffffffffffffffffff167f8be0079c531659141344cd1fd0a4f28419497f9722a3daafe3b4186f6b6457e060405160405180910390a35050565b5f73ffffffffffffffffffffffffffffffffffffffff168373ffffffffffffffffffffffffffffffffffffffff1603610f56578060045f828254610f4a9190611792565b92505081905550611020565b5f60015f8573ffffffffffffffffffffffffffffffffffffffff1673ffffffffffffffffffffffffffffffffffffffff1681526020019081526020015f2054905081811015610fda576040517f08c379a0000000000000000000000000000000000000000000000000000000008152600401610fd19061180f565b60405180910390fd5b81810360015f8673ffffffffffffffffffffffffffffffffffffffff1673ffffffffffffffffffffffffffffffffffffffff1681526020019081526020015f2081905550505b5f73ffffffffffffffffffffffffffffffffffffffff168273ffffffffffffffffffffffffffffffffffffffff1603611067578060045f82825403925050819055506110b2565b8060015f8473ffffffffffffffffffffffffffffffffffffffff1673ffffffffffffffffffffffffffffffffffffffff1681526020019081526020015f205f82825401925050819055505b8173ffffffffffffffffffffffffffffffffffffffff168373ffffffffffffffffffffffffffffffffffffffff167fddf252ad1be2c89b69c2b068fc378daa952ba7f163c4a11628f55a4df523b3ef8360405161110f91906112d7565b60405180910390a3505050565b5f81519050919050565b5f82825260208201905092915050565b5f5b83811015611153578082015181840152602081019050611138565b5f8484015250505050565b5f601f19601f8301169050919050565b5f6111788261111c565b6111828185611126565b9350611192818560208601611136565b61119b8161115e565b840191505092915050565b5f6020820190508181035f8301526111be818461116e565b905092915050565b5f80fd5b5f73ffffffffffffffffffffffffffffffffffffffff82169050919050565b5f6111f3826111ca565b9050919050565b611203816111e9565b811461120d575f80fd5b50565b5f8135905061121e816111fa565b92915050565b5f819050919050565b61123681611224565b8114611240575f80fd5b50565b5f813590506112518161122d565b92915050565b5f806040838503121561126d5761126c6111c6565b5b5f61127a85828601611210565b925050602061128b85828601611243565b9150509250929050565b5f8115159050919050565b6112a981611295565b82525050565b5f6020820190506112c25f8301846112a0565b92915050565b6112d181611224565b82525050565b5f6020820190506112ea5f8301846112c8565b92915050565b5f805f60608486031215611307576113066111c6565b5b5f61131486828701611210565b935050602061132586828701611210565b925050604061133686828701611243565b9150509250925092565b5f60ff82169050919050565b61135581611340565b82525050565b5f60208201905061136e5f83018461134c565b92915050565b5f60208284031215611389576113886111c6565b5b5f61139684828501611243565b91505092915050565b5f602082840312156113b4576113b36111c6565b5b5f6113c184828501611210565b91505092915050565b6113d3816111e9565b82525050565b5f6020820190506113ec5f8301846113ca565b92915050565b5f8060408385031215611408576114076111c6565b5b5f61141585828601611210565b925050602061142685828601611210565b9150509250929050565b7f4e487b71000000000000000000000000000000000000000000000000000000005f52602260045260245ffd5b5f600282049050600182168061147457607f821691505b60208210810361148757611486611430565b5b50919050565b7f496e76616c6964206f776e6572206164647265737300000000000000000000005f82015250565b5f6114c1601583611126565b91506114cc8261148d565b602082019050919050565b5f6020820190508181035f8301526114ee816114b5565b9050919050565b7f496e76616c6964207370656e64657220616464726573730000000000000000005f82015250565b5f611529601783611126565b9150611534826114f5565b602082019050919050565b5f6020820190508181035f8301526115568161151d565b9050919050565b7f496e73756666696369656e7420616c6c6f77616e6365000000000000000000005f82015250565b5f611591601683611126565b915061159c8261155d565b602082019050919050565b5f6020820190508181035f8301526115be81611585565b9050919050565b7f53656e64657220697320626c61636b6c697374656400000000000000000000005f82015250565b5f6115f9601583611126565b9150611604826115c5565b602082019050919050565b5f6020820190508181035f830152611626816115ed565b9050919050565b7f526563656976657220697320626c61636b6c69737465640000000000000000005f82015250565b5f611661601783611126565b915061166c8261162d565b602082019050919050565b5f6020820190508181035f83015261168e81611655565b9050919050565b7f496e76616c69642073656e6465722061646472657373000000000000000000005f82015250565b5f6116c9601683611126565b91506116d482611695565b602082019050919050565b5f6020820190508181035f8301526116f6816116bd565b9050919050565b7f496e76616c6964207265636569766572206164647265737300000000000000005f82015250565b5f611731601883611126565b915061173c826116fd565b602082019050919050565b5f6020820190508181035f83015261175e81611725565b9050919050565b7f4e487b71000000000000000000000000000000000000000000000000000000005f52601160045260245ffd5b5f61179c82611224565b91506117a783611224565b92508282019050808211156117bf576117be611765565b5b92915050565b7f496e73756666696369656e742062616c616e63650000000000000000000000005f82015250565b5f6117f9601483611126565b9150611804826117c5565b602082019050919050565b5f6020820190508181035f830152611826816117ed565b905091905056fea2646970667358221220897eb352f622fdceab81291fcdd740ab9fda00d519c30e01da0c6d43d50f629864736f6c63430008170033","linkReferences":{}},"methodIdentifiers":{"allowance(address,address)":"dd62ed3e","approve(address,uint256)":"095ea7b3","balanceOf(address)":"70a08231","blacklist(address)":"f9f92be4","burn(uint256)":"42966c68","burnFrom(address,uint256)":"79cc6790","decimals()":"313ce567","isBlacklisted(address)":"fe575a87","mint(address,uint256)":"40c10f19","name()":"06fdde03","owner()":"8da5cb5b","renounceOwnership()":"715018a6","symbol()":"95d89b41","totalSupply()":"18160ddd","transfer(address,uint256)":"a9059cbb","transferFrom(address,address,uint256)":"23b872dd","transferOwnership(address)":"f2fde38b","unblacklist(address)":"75e3661e"},"id":4}