{"abi":[{"type":"constructor","inputs":[{"name":"name_","type":"string","internalType":"string"},{"name":"symbol_","type":"string","internalType":"string"},{"name":"decimals_","type":"uint8","internalType":"uint8"},{"name":"totalSupply_","type":"uint256","internalType":"uint256"},{"name":"serviceFeeReceiver_","type":"address","internalType":"address"},{"name":"serviceFee_","type":"uint256","internalType":"uint256"},{"name":"transferTaxBps_","type":"uint256","internalType":"uint256"},{"name":"taxFeeRecipient_","type":"address","internalType":"address"}],"stateMutability":"payable"},{"type":"function","name":"allowance","inputs":[{"name":"owner","type":"address","internalType":"address"},{"name":"spender","type":"address","internalType":"address"}],"outputs":[{"name":"","type":"uint256","internalType":"uint256"}],"stateMutability":"view"},{"type":"function","name":"approve","inputs":[{"name":"spender","type":"address","internalType":"address"},{"name":"value","type":"uint256","internalType":"uint256"}],"outputs":[{"name":"","type":"bool","internalType":"bool"}],"stateMutability":"nonpayable"},{"type":"function","name":"balanceOf","inputs":[{"name":"account","type":"address","internalType":"address"}],"outputs":[{"name":"","type":"uint256","internalType":"uint256"}],"stateMutability":"view"},{"type":"function","name":"decimals","inputs":[],"outputs":[{"name":"","type":"uint8","internalType":"uint8"}],"stateMutability":"view"},{"type":"function","name":"getTaxFeeRecipient","inputs":[],"outputs":[{"name":"","type":"address","internalType":"address"}],"stateMutability":"view"},{"type":"function","name":"getTransferTaxBps","inputs":[],"outputs":[{"name":"","type":"uint256","internalType":"uint256"}],"stateMutability":"view"},{"type":"function","name":"name","inputs":[],"outputs":[{"name":"","type":"string","internalType":"string"}],"stateMutability":"view"},{"type":"function","name":"owner","inputs":[],"outputs":[{"name":"","type":"address","internalType":"address"}],"stateMutability":"view"},{"type":"function","name":"pause","inputs":[],"outputs":[],"stateMutability":"nonpayable"},{"type":"function","name":"paused","inputs":[],"outputs":[{"name":"","type":"bool","internalType":"bool"}],"stateMutability":"view"},{"type":"function","name":"renounceOwnership","inputs":[],"outputs":[],"stateMutability":"nonpayable"},{"type":"function","name":"symbol","inputs":[],"outputs":[{"name":"","type":"string","internalType":"string"}],"stateMutability":"view"},{"type":"function","name":"totalSupply","inputs":[],"outputs":[{"name":"","type":"uint256","internalType":"uint256"}],"stateMutability":"view"},{"type":"function","name":"transfer","inputs":[{"name":"to","type":"address","internalType":"address"},{"name":"value","type":"uint256","internalType":"uint256"}],"outputs":[{"name":"","type":"bool","internalType":"bool"}],"stateMutability":"nonpayable"},{"type":"function","name":"transferFrom","inputs":[{"name":"from","type":"address","internalType":"address"},{"name":"to","type":"address","internalType":"address"},{"name":"value","type":"uint256","internalType":"uint256"}],"outputs":[{"name":"","type":"bool","internalType":"bool"}],"stateMutability":"nonpayable"},{"type":"function","name":"transferOwnership","inputs":[{"name":"newOwner","type":"address","internalType":"address"}],"outputs":[],"stateMutability":"nonpayable"},{"type":"function","name":"unpause","inputs":[],"outputs":[],"stateMutability":"nonpayable"},{"type":"function","name":"updateTaxFeeRecipient","inputs":[{"name":"newTaxFeeRecipient","type":"address","internalType":"address"}],"outputs":[],"stateMutability":"nonpayable"},{"type":"event","name":"Approval","inputs":[{"name":"owner","type":"address","indexed":true,"internalType":"address"},{"name":"spender","type":"address","indexed":true,"internalType":"address"},{"name":"value","type":"uint256","indexed":false,"internalType":"uint256"}],"anonymous":false},{"type":"event","name":"OwnershipTransferred","inputs":[{"name":"previousOwner","type":"address","indexed":true,"internalType":"address"},{"name":"newOwner","type":"address","indexed":true,"internalType":"address"}],"anonymous":false},{"type":"event","name":"Paused","inputs":[{"name":"account","type":"address","indexed":false,"internalType":"address"}],"anonymous":false},{"type":"event","name":"TaxFeeRecipientUpdated","inputs":[{"name":"newTaxFeeRecipient","type":"address","indexed":false,"internalType":"address"}],"anonymous":false},{"type":"event","name":"Transfer","inputs":[{"name":"from","type":"address","indexed":true,"internalType":"address"},{"name":"to","type":"address","indexed":true,"internalType":"address"},{"name":"value","type":"uint256","indexed":false,"internalType":"uint256"}],"anonymous":false},{"type":"event","name":"Unpaused","inputs":[{"name":"account","type":"address","indexed":false,"internalType":"address"}],"anonymous":false},{"type":"error","name":"ERC20InsufficientAllowance","inputs":[{"name":"spender","type":"address","internalType":"address"},{"name":"allowance","type":"uint256","internalType":"uint256"},{"name":"needed","type":"uint256","internalType":"uint256"}]},{"type":"error","name":"ERC20InsufficientBalance","inputs":[{"name":"sender","type":"address","internalType":"address"},{"name":"balance","type":"uint256","internalType":"uint256"},{"name":"needed","type":"uint256","internalType":"uint256"}]},{"type":"error","name":"ERC20InvalidApprover","inputs":[{"name":"approver","type":"address","internalType":"address"}]},{"type":"error","name":"ERC20InvalidReceiver","inputs":[{"name":"receiver","type":"address","internalType":"address"}]},{"type":"error","name":"ERC20InvalidSender","inputs":[{"name":"sender","type":"address","internalType":"address"}]},{"type":"error","name":"ERC20InvalidSpender","inputs":[{"name":"spender","type":"address","internalType":"address"}]},{"type":"error","name":"EnforcedPause","inputs":[]},{"type":"error","name":"ExpectedPause","inputs":[]},{"type":"error","name":"OwnableInvalidOwner","inputs":[{"name":"owner","type":"address","internalType":"address"}]},{"type":"error","name":"OwnableUnauthorizedAccount","inputs":[{"name":"account","type":"address","internalType":"address"}]}],"bytecode":{"object":"0x608060405260405161288838038061288883398181016040528101906100259190610900565b335f73ffffffffffffffffffffffffffffffffffffffff168173ffffffffffffffffffffffffffffffffffffffff1603610096575f6040517f1e4fbdf700000000000000000000000000000000000000000000000000000000815260040161008d91906109f8565b60405180910390fd5b6100a5816102e860201b60201c565b505f5f60146101000a81548160ff02191690831515021790555087600490816100ce9190610c18565b5086600590816100de9190610c18565b508560065f6101000a81548160ff021916908360ff160217905550816007819055508060085f6101000a81548173ffffffffffffffffffffffffffffffffffffffff021916908373ffffffffffffffffffffffffffffffffffffffff16021790555082341015610183576040517f08c379a000000000000000000000000000000000000000000000000000000000815260040161017a90610d41565b60405180910390fd5b5f73ffffffffffffffffffffffffffffffffffffffff168473ffffffffffffffffffffffffffffffffffffffff16036101f1576040517f08c379a00000000000000000000000000000000000000000000000000000000081526004016101e890610da9565b60405180910390fd5b5f8473ffffffffffffffffffffffffffffffffffffffff168460405161021690610df4565b5f6040518083038185875af1925050503d805f8114610250576040519150601f19603f3d011682016040523d82523d5f602084013e610255565b606091505b5050905080610299576040517f08c379a000000000000000000000000000000000000000000000000000000000815260040161029090610e52565b60405180910390fd5b6102da6102aa6103a960201b60201c565b6102b86103d060201b60201c565b600a6102c49190610fcc565b886102cf9190611016565b6103e560201b60201c565b5050505050505050506110e7565b5f5f5f9054906101000a900473ffffffffffffffffffffffffffffffffffffffff169050815f5f6101000a81548173ffffffffffffffffffffffffffffffffffffffff021916908373ffffffffffffffffffffffffffffffffffffffff1602179055508173ffffffffffffffffffffffffffffffffffffffff168173ffffffffffffffffffffffffffffffffffffffff167f8be0079c531659141344cd1fd0a4f28419497f9722a3daafe3b4186f6b6457e060405160405180910390a35050565b5f5f5f9054906101000a900473ffffffffffffffffffffffffffffffffffffffff16905090565b5f60065f9054906101000a900460ff16905090565b5f73ffffffffffffffffffffffffffffffffffffffff168273ffffffffffffffffffffffffffffffffffffffff1603610455575f6040517fec442f0500000000000000000000000000000000000000000000000000000000815260040161044c91906109f8565b60405180910390fd5b6104665f838361046a60201b60201c565b5050565b61047861069460201b60201c565b5f73ffffffffffffffffffffffffffffffffffffffff168373ffffffffffffffffffffffffffffffffffffffff16036104c8578060035f8282546104bc9190611057565b92505081905550610598565b5f60015f8573ffffffffffffffffffffffffffffffffffffffff1673ffffffffffffffffffffffffffffffffffffffff1681526020019081526020015f2054905081811015610552578381836040517fe450d38c00000000000000000000000000000000000000000000000000000000815260040161054993929190611099565b60405180910390fd5b81810360015f8673ffffffffffffffffffffffffffffffffffffffff1673ffffffffffffffffffffffffffffffffffffffff1681526020019081526020015f2081905550505b5f73ffffffffffffffffffffffffffffffffffffffff168273ffffffffffffffffffffffffffffffffffffffff16036105df578060035f828254039250508190555061062a565b8060015f8473ffffffffffffffffffffffffffffffffffffffff1673ffffffffffffffffffffffffffffffffffffffff1681526020019081526020015f205f82825401925050819055505b8173ffffffffffffffffffffffffffffffffffffffff168373ffffffffffffffffffffffffffffffffffffffff167fddf252ad1be2c89b69c2b068fc378daa952ba7f163c4a11628f55a4df523b3ef8360405161068791906110ce565b60405180910390a3505050565b6106a26106db60201b60201c565b156106d9576040517fd93c066500000000000000000000000000000000000000000000000000000000815260040160405180910390fd5b565b5f5f60149054906101000a900460ff16905090565b5f604051905090565b5f5ffd5b5f5ffd5b5f5ffd5b5f5ffd5b5f601f19601f8301169050919050565b7f4e487b71000000000000000000000000000000000000000000000000000000005f52604160045260245ffd5b61074f82610709565b810181811067ffffffffffffffff8211171561076e5761076d610719565b5b80604052505050565b5f6107806106f0565b905061078c8282610746565b919050565b5f67ffffffffffffffff8211156107ab576107aa610719565b5b6107b482610709565b9050602081019050919050565b8281835e5f83830152505050565b5f6107e16107dc84610791565b610777565b9050828152602081018484840111156107fd576107fc610705565b5b6108088482856107c1565b509392505050565b5f82601f83011261082457610823610701565b5b81516108348482602086016107cf565b91505092915050565b5f60ff82169050919050565b6108528161083d565b811461085c575f5ffd5b50565b5f8151905061086d81610849565b92915050565b5f819050919050565b61088581610873565b811461088f575f5ffd5b50565b5f815190506108a08161087c565b92915050565b5f73ffffffffffffffffffffffffffffffffffffffff82169050919050565b5f6108cf826108a6565b9050919050565b6108df816108c5565b81146108e9575f5ffd5b50565b5f815190506108fa816108d6565b92915050565b5f5f5f5f5f5f5f5f610100898b03121561091d5761091c6106f9565b5b5f89015167ffffffffffffffff81111561093a576109396106fd565b5b6109468b828c01610810565b985050602089015167ffffffffffffffff811115610967576109666106fd565b5b6109738b828c01610810565b97505060406109848b828c0161085f565b96505060606109958b828c01610892565b95505060806109a68b828c016108ec565b94505060a06109b78b828c01610892565b93505060c06109c88b828c01610892565b92505060e06109d98b828c016108ec565b9150509295985092959890939650565b6109f2816108c5565b82525050565b5f602082019050610a0b5f8301846109e9565b92915050565b5f81519050919050565b7f4e487b71000000000000000000000000000000000000000000000000000000005f52602260045260245ffd5b5f6002820490506001821680610a5f57607f821691505b602082108103610a7257610a71610a1b565b5b50919050565b5f819050815f5260205f209050919050565b5f6020601f8301049050919050565b5f82821b905092915050565b5f60088302610ad47fffffffffffffffffffffffffffffffffffffffffffffffffffffffffffffffff82610a99565b610ade8683610a99565b95508019841693508086168417925050509392505050565b5f819050919050565b5f610b19610b14610b0f84610873565b610af6565b610873565b9050919050565b5f819050919050565b610b3283610aff565b610b46610b3e82610b20565b848454610aa5565b825550505050565b5f5f905090565b610b5d610b4e565b610b68818484610b29565b505050565b5b81811015610b8b57610b805f82610b55565b600181019050610b6e565b5050565b601f821115610bd057610ba181610a78565b610baa84610a8a565b81016020851015610bb9578190505b610bcd610bc585610a8a565b830182610b6d565b50505b505050565b5f82821c905092915050565b5f610bf05f1984600802610bd5565b1980831691505092915050565b5f610c088383610be1565b9150826002028217905092915050565b610c2182610a11565b67ffffffffffffffff811115610c3a57610c39610719565b5b610c448254610a48565b610c4f828285610b8f565b5f60209050601f831160018114610c80575f8415610c6e578287015190505b610c788582610bfd565b865550610cdf565b601f198416610c8e86610a78565b5f5b82811015610cb557848901518255600182019150602085019450602081019050610c90565b86831015610cd25784890151610cce601f891682610be1565b8355505b6001600288020188555050505b505050505050565b5f82825260208201905092915050565b7f496e73756666696369656e742066656520616d6f756e742073656e74000000005f82015250565b5f610d2b601c83610ce7565b9150610d3682610cf7565b602082019050919050565b5f6020820190508181035f830152610d5881610d1f565b9050919050565b7f496e76616c6964206665652072656365697665722061646472657373000000005f82015250565b5f610d93601c83610ce7565b9150610d9e82610d5f565b602082019050919050565b5f6020820190508181035f830152610dc081610d87565b9050919050565b5f81905092915050565b50565b5f610ddf5f83610dc7565b9150610dea82610dd1565b5f82019050919050565b5f610dfe82610dd4565b9150819050919050565b7f466565207472616e73666572206661696c6564000000000000000000000000005f82015250565b5f610e3c601383610ce7565b9150610e4782610e08565b602082019050919050565b5f6020820190508181035f830152610e6981610e30565b9050919050565b7f4e487b71000000000000000000000000000000000000000000000000000000005f52601160045260245ffd5b5f8160011c9050919050565b5f5f8291508390505b6001851115610ef257808604811115610ece57610ecd610e70565b5b6001851615610edd5780820291505b8081029050610eeb85610e9d565b9450610eb2565b94509492505050565b5f82610f0a5760019050610fc5565b81610f17575f9050610fc5565b8160018114610f2d5760028114610f3757610f66565b6001915050610fc5565b60ff841115610f4957610f48610e70565b5b8360020a915084821115610f6057610f5f610e70565b5b50610fc5565b5060208310610133831016604e8410600b8410161715610f9b5782820a905083811115610f9657610f95610e70565b5b610fc5565b610fa88484846001610ea9565b92509050818404811115610fbf57610fbe610e70565b5b81810290505b9392505050565b5f610fd682610873565b9150610fe18361083d565b925061100e7fffffffffffffffffffffffffffffffffffffffffffffffffffffffffffffffff8484610efb565b905092915050565b5f61102082610873565b915061102b83610873565b925082820261103981610873565b915082820484148315176110505761104f610e70565b5b5092915050565b5f61106182610873565b915061106c83610873565b925082820190508082111561108457611083610e70565b5b92915050565b61109381610873565b82525050565b5f6060820190506110ac5f8301866109e9565b6110b9602083018561108a565b6110c6604083018461108a565b949350505050565b5f6020820190506110e15f83018461108a565b92915050565b611794806110f45f395ff3fe608060405234801561000f575f5ffd5b5060043610610114575f3560e01c8063715018a6116100a05780638da5cb5b1161006f5780638da5cb5b1461029657806395d89b41146102b4578063a9059cbb146102d2578063dd62ed3e14610302578063f2fde38b1461033257610114565b8063715018a614610248578063743bfe70146102525780638456cb59146102705780638baace251461027a57610114565b806323b872dd116100e757806323b872dd146101a2578063313ce567146101d25780633f4ba83a146101f05780635c975abb146101fa57806370a082311461021857610114565b806303073dfc1461011857806306fdde0314610136578063095ea7b31461015457806318160ddd14610184575b5f5ffd5b61012061034e565b60405161012d919061130b565b60405180910390f35b61013e610376565b60405161014b9190611394565b60405180910390f35b61016e60048036038101906101699190611415565b610406565b60405161017b919061146d565b60405180910390f35b61018c610428565b6040516101999190611495565b60405180910390f35b6101bc60048036038101906101b791906114ae565b610431565b6040516101c9919061146d565b60405180910390f35b6101da61045f565b6040516101e79190611519565b60405180910390f35b6101f8610474565b005b610202610486565b60405161020f919061146d565b60405180910390f35b610232600480360381019061022d9190611532565b61049b565b60405161023f9190611495565b60405180910390f35b6102506104e1565b005b61025a6104f4565b6040516102679190611495565b60405180910390f35b6102786104fd565b005b610294600480360381019061028f9190611532565b61050f565b005b61029e610591565b6040516102ab919061130b565b60405180910390f35b6102bc6105b8565b6040516102c99190611394565b60405180910390f35b6102ec60048036038101906102e79190611415565b610648565b6040516102f9919061146d565b60405180910390f35b61031c6004803603810190610317919061155d565b6109ab565b6040516103299190611495565b60405180910390f35b61034c60048036038101906103479190611532565b610a2d565b005b5f60085f9054906101000a900473ffffffffffffffffffffffffffffffffffffffff16905090565b606060048054610385906115c8565b80601f01602080910402602001604051908101604052809291908181526020018280546103b1906115c8565b80156103fc5780601f106103d3576101008083540402835291602001916103fc565b820191905f5260205f20905b8154815290600101906020018083116103df57829003601f168201915b5050505050905090565b5f5f610410610ab1565b905061041d818585610ab8565b600191505092915050565b5f600354905090565b5f5f61043b610ab1565b9050610448858285610aca565b610453858585610b5d565b60019150509392505050565b5f60065f9054906101000a900460ff16905090565b61047c610c4d565b610484610cd4565b565b5f5f60149054906101000a900460ff16905090565b5f60015f8373ffffffffffffffffffffffffffffffffffffffff1673ffffffffffffffffffffffffffffffffffffffff1681526020019081526020015f20549050919050565b6104e9610c4d565b6104f25f610d35565b565b5f600754905090565b610505610c4d565b61050d610df6565b565b610517610c4d565b8060085f6101000a81548173ffffffffffffffffffffffffffffffffffffffff021916908373ffffffffffffffffffffffffffffffffffffffff1602179055507f3ca9233bd3849737ab1049144180bc625db2d51ca2c5ce949e7209eb32faa3a281604051610586919061130b565b60405180910390a150565b5f5f5f9054906101000a900473ffffffffffffffffffffffffffffffffffffffff16905090565b6060600580546105c7906115c8565b80601f01602080910402602001604051908101604052809291908181526020018280546105f3906115c8565b801561063e5780601f106106155761010080835404028352916020019161063e565b820191905f5260205f20905b81548152906001019060200180831161062157829003601f168201915b5050505050905090565b5f5f610652610ab1565b90505f612710600754856106669190611625565b6106709190611693565b90505f818561067f91906116c3565b90508460015f8573ffffffffffffffffffffffffffffffffffffffff1673ffffffffffffffffffffffffffffffffffffffff1681526020019081526020015f20541015610744578260015f8573ffffffffffffffffffffffffffffffffffffffff1673ffffffffffffffffffffffffffffffffffffffff1681526020019081526020015f2054866040517fe450d38c00000000000000000000000000000000000000000000000000000000815260040161073b939291906116f6565b60405180910390fd5b8460015f8573ffffffffffffffffffffffffffffffffffffffff1673ffffffffffffffffffffffffffffffffffffffff1681526020019081526020015f205f82825461079091906116c3565b925050819055508060015f8873ffffffffffffffffffffffffffffffffffffffff1673ffffffffffffffffffffffffffffffffffffffff1681526020019081526020015f205f8282546107e3919061172b565b925050819055505f73ffffffffffffffffffffffffffffffffffffffff1660085f9054906101000a900473ffffffffffffffffffffffffffffffffffffffff1673ffffffffffffffffffffffffffffffffffffffff16146108b3578160015f60085f9054906101000a900473ffffffffffffffffffffffffffffffffffffffff1673ffffffffffffffffffffffffffffffffffffffff1673ffffffffffffffffffffffffffffffffffffffff1681526020019081526020015f205f8282546108ab919061172b565b925050819055505b8573ffffffffffffffffffffffffffffffffffffffff168373ffffffffffffffffffffffffffffffffffffffff167fddf252ad1be2c89b69c2b068fc378daa952ba7f163c4a11628f55a4df523b3ef836040516109109190611495565b60405180910390a360085f9054906101000a900473ffffffffffffffffffffffffffffffffffffffff1673ffffffffffffffffffffffffffffffffffffffff168373ffffffffffffffffffffffffffffffffffffffff167fddf252ad1be2c89b69c2b068fc378daa952ba7f163c4a11628f55a4df523b3ef846040516109969190611495565b60405180910390a36001935050505092915050565b5f60025f8473ffffffffffffffffffffffffffffffffffffffff1673ffffffffffffffffffffffffffffffffffffffff1681526020019081526020015f205f8373ffffffffffffffffffffffffffffffffffffffff1673ffffffffffffffffffffffffffffffffffffffff1681526020019081526020015f2054905092915050565b610a35610c4d565b5f73ffffffffffffffffffffffffffffffffffffffff168173ffffffffffffffffffffffffffffffffffffffff1603610aa5575f6040517f1e4fbdf7000000000000000000000000000000000000000000000000000000008152600401610a9c919061130b565b60405180910390fd5b610aae81610d35565b50565b5f33905090565b610ac58383836001610e58565b505050565b5f610ad584846109ab565b90507fffffffffffffffffffffffffffffffffffffffffffffffffffffffffffffffff811015610b575781811015610b48578281836040517ffb8f41b2000000000000000000000000000000000000000000000000000000008152600401610b3f939291906116f6565b60405180910390fd5b610b5684848484035f610e58565b5b50505050565b5f73ffffffffffffffffffffffffffffffffffffffff168373ffffffffffffffffffffffffffffffffffffffff1603610bcd575f6040517f96c6fd1e000000000000000000000000000000000000000000000000000000008152600401610bc4919061130b565b60405180910390fd5b5f73ffffffffffffffffffffffffffffffffffffffff168273ffffffffffffffffffffffffffffffffffffffff1603610c3d575f6040517fec442f05000000000000000000000000000000000000000000000000000000008152600401610c34919061130b565b60405180910390fd5b610c48838383611027565b505050565b610c55610ab1565b73ffffffffffffffffffffffffffffffffffffffff16610c73610591565b73ffffffffffffffffffffffffffffffffffffffff1614610cd257610c96610ab1565b6040517f118cdaa7000000000000000000000000000000000000000000000000000000008152600401610cc9919061130b565b60405180910390fd5b565b610cdc61124b565b5f5f60146101000a81548160ff0219169083151502179055507f5db9ee0a495bf2e6ff9c91a7834c1ba4fdd244a5e8aa4e537bd38aeae4b073aa610d1e610ab1565b604051610d2b919061130b565b60405180910390a1565b5f5f5f9054906101000a900473ffffffffffffffffffffffffffffffffffffffff169050815f5f6101000a81548173ffffffffffffffffffffffffffffffffffffffff021916908373ffffffffffffffffffffffffffffffffffffffff1602179055508173ffffffffffffffffffffffffffffffffffffffff168173ffffffffffffffffffffffffffffffffffffffff167f8be0079c531659141344cd1fd0a4f28419497f9722a3daafe3b4186f6b6457e060405160405180910390a35050565b610dfe61128b565b60015f60146101000a81548160ff0219169083151502179055507f62e78cea01bee320cd4e420270b5ea74000d11b0c9f74754ebdbfc544b05a258610e41610ab1565b604051610e4e919061130b565b60405180910390a1565b5f73ffffffffffffffffffffffffffffffffffffffff168473ffffffffffffffffffffffffffffffffffffffff1603610ec8575f6040517fe602df05000000000000000000000000000000000000000000000000000000008152600401610ebf919061130b565b60405180910390fd5b5f73ffffffffffffffffffffffffffffffffffffffff168373ffffffffffffffffffffffffffffffffffffffff1603610f38575f6040517f94280d62000000000000000000000000000000000000000000000000000000008152600401610f2f919061130b565b60405180910390fd5b8160025f8673ffffffffffffffffffffffffffffffffffffffff1673ffffffffffffffffffffffffffffffffffffffff1681526020019081526020015f205f8573ffffffffffffffffffffffffffffffffffffffff1673ffffffffffffffffffffffffffffffffffffffff1681526020019081526020015f20819055508015611021578273ffffffffffffffffffffffffffffffffffffffff168473ffffffffffffffffffffffffffffffffffffffff167f8c5be1e5ebec7d5bd14f71427d1e84f3dd0314c0f7b2291e5b200ac8c7c3b925846040516110189190611495565b60405180910390a35b50505050565b61102f61128b565b5f73ffffffffffffffffffffffffffffffffffffffff168373ffffffffffffffffffffffffffffffffffffffff160361107f578060035f828254611073919061172b565b9250508190555061114f565b5f60015f8573ffffffffffffffffffffffffffffffffffffffff1673ffffffffffffffffffffffffffffffffffffffff1681526020019081526020015f2054905081811015611109578381836040517fe450d38c000000000000000000000000000000000000000000000000000000008152600401611100939291906116f6565b60405180910390fd5b81810360015f8673ffffffffffffffffffffffffffffffffffffffff1673ffffffffffffffffffffffffffffffffffffffff1681526020019081526020015f2081905550505b5f73ffffffffffffffffffffffffffffffffffffffff168273ffffffffffffffffffffffffffffffffffffffff1603611196578060035f82825403925050819055506111e1565b8060015f8473ffffffffffffffffffffffffffffffffffffffff1673ffffffffffffffffffffffffffffffffffffffff1681526020019081526020015f205f82825401925050819055505b8173ffffffffffffffffffffffffffffffffffffffff168373ffffffffffffffffffffffffffffffffffffffff167fddf252ad1be2c89b69c2b068fc378daa952ba7f163c4a11628f55a4df523b3ef8360405161123e9190611495565b60405180910390a3505050565b611253610486565b611289576040517f8dfc202b00000000000000000000000000000000000000000000000000000000815260040160405180910390fd5b565b611293610486565b156112ca576040517fd93c066500000000000000000000000000000000000000000000000000000000815260040160405180910390fd5b565b5f73ffffffffffffffffffffffffffffffffffffffff82169050919050565b5f6112f5826112cc565b9050919050565b611305816112eb565b82525050565b5f60208201905061131e5f8301846112fc565b92915050565b5f81519050919050565b5f82825260208201905092915050565b8281835e5f83830152505050565b5f601f19601f8301169050919050565b5f61136682611324565b611370818561132e565b935061138081856020860161133e565b6113898161134c565b840191505092915050565b5f6020820190508181035f8301526113ac818461135c565b905092915050565b5f5ffd5b6113c1816112eb565b81146113cb575f5ffd5b50565b5f813590506113dc816113b8565b92915050565b5f819050919050565b6113f4816113e2565b81146113fe575f5ffd5b50565b5f8135905061140f816113eb565b92915050565b5f5f6040838503121561142b5761142a6113b4565b5b5f611438858286016113ce565b925050602061144985828601611401565b9150509250929050565b5f8115159050919050565b61146781611453565b82525050565b5f6020820190506114805f83018461145e565b92915050565b61148f816113e2565b82525050565b5f6020820190506114a85f830184611486565b92915050565b5f5f5f606084860312156114c5576114c46113b4565b5b5f6114d2868287016113ce565b93505060206114e3868287016113ce565b92505060406114f486828701611401565b9150509250925092565b5f60ff82169050919050565b611513816114fe565b82525050565b5f60208201905061152c5f83018461150a565b92915050565b5f60208284031215611547576115466113b4565b5b5f611554848285016113ce565b91505092915050565b5f5f60408385031215611573576115726113b4565b5b5f611580858286016113ce565b9250506020611591858286016113ce565b9150509250929050565b7f4e487b71000000000000000000000000000000000000000000000000000000005f52602260045260245ffd5b5f60028204905060018216806115df57607f821691505b6020821081036115f2576115f161159b565b5b50919050565b7f4e487b71000000000000000000000000000000000000000000000000000000005f52601160045260245ffd5b5f61162f826113e2565b915061163a836113e2565b9250828202611648816113e2565b9150828204841483151761165f5761165e6115f8565b5b5092915050565b7f4e487b71000000000000000000000000000000000000000000000000000000005f52601260045260245ffd5b5f61169d826113e2565b91506116a8836113e2565b9250826116b8576116b7611666565b5b828204905092915050565b5f6116cd826113e2565b91506116d8836113e2565b92508282039050818111156116f0576116ef6115f8565b5b92915050565b5f6060820190506117095f8301866112fc565b6117166020830185611486565b6117236040830184611486565b949350505050565b5f611735826113e2565b9150611740836113e2565b9250828201905080821115611758576117576115f8565b5b9291505056fea26469706673582212206f7cf701c3e6d30295568e4146675795765fd30471b1f8cb4823603d1df0ed5e64736f6c634300081c0033","linkReferences":{}},"methodIdentifiers":{"allowance(address,address)":"dd62ed3e","approve(address,uint256)":"095ea7b3","balanceOf(address)":"70a08231","decimals()":"313ce567","getTaxFeeRecipient()":"03073dfc","getTransferTaxBps()":"743bfe70","name()":"06fdde03","owner()":"8da5cb5b","pause()":"8456cb59","paused()":"5c975abb","renounceOwnership()":"715018a6","symbol()":"95d89b41","totalSupply()":"18160ddd","transfer(address,uint256)":"a9059cbb","transferFrom(address,address,uint256)":"23b872dd","transferOwnership(address)":"f2fde38b","unpause()":"3f4ba83a","updateTaxFeeRecipient(address)":"8baace25"},"id":45}