{"abi":[{"type":"constructor","inputs":[{"name":"name_","type":"string","internalType":"string"},{"name":"symbol_","type":"string","internalType":"string"},{"name":"decimals_","type":"uint8","internalType":"uint8"},{"name":"totalSupply_","type":"uint256","internalType":"uint256"},{"name":"serviceFeeReceiver_","type":"address","internalType":"address"},{"name":"serviceFee_","type":"uint256","internalType":"uint256"},{"name":"transferTaxBps_","type":"uint256","internalType":"uint256"},{"name":"taxFeeRecipient_","type":"address","internalType":"address"}],"stateMutability":"payable"},{"type":"function","name":"allowance","inputs":[{"name":"owner","type":"address","internalType":"address"},{"name":"spender","type":"address","internalType":"address"}],"outputs":[{"name":"","type":"uint256","internalType":"uint256"}],"stateMutability":"view"},{"type":"function","name":"approve","inputs":[{"name":"spender","type":"address","internalType":"address"},{"name":"value","type":"uint256","internalType":"uint256"}],"outputs":[{"name":"","type":"bool","internalType":"bool"}],"stateMutability":"nonpayable"},{"type":"function","name":"balanceOf","inputs":[{"name":"account","type":"address","internalType":"address"}],"outputs":[{"name":"","type":"uint256","internalType":"uint256"}],"stateMutability":"view"},{"type":"function","name":"decimals","inputs":[],"outputs":[{"name":"","type":"uint8","internalType":"uint8"}],"stateMutability":"view"},{"type":"function","name":"getTaxFeeRecipient","inputs":[],"outputs":[{"name":"","type":"address","internalType":"address"}],"stateMutability":"view"},{"type":"function","name":"getTransferTaxBps","inputs":[],"outputs":[{"name":"","type":"uint256","internalType":"uint256"}],"stateMutability":"view"},{"type":"function","name":"name","inputs":[],"outputs":[{"name":"","type":"string","internalType":"string"}],"stateMutability":"view"},{"type":"function","name":"owner","inputs":[],"outputs":[{"name":"","type":"address","internalType":"address"}],"stateMutability":"view"},{"type":"function","name":"pause","inputs":[],"outputs":[],"stateMutability":"nonpayable"},{"type":"function","name":"paused","inputs":[],"outputs":[{"name":"","type":"bool","internalType":"bool"}],"stateMutability":"view"},{"type":"function","name":"renounceOwnership","inputs":[],"outputs":[],"stateMutability":"nonpayable"},{"type":"function","name":"symbol","inputs":[],"outputs":[{"name":"","type":"string","internalType":"string"}],"stateMutability":"view"},{"type":"function","name":"totalSupply","inputs":[],"outputs":[{"name":"","type":"uint256","internalType":"uint256"}],"stateMutability":"view"},{"type":"function","name":"transfer","inputs":[{"name":"to","type":"address","internalType":"address"},{"name":"value","type":"uint256","internalType":"uint256"}],"outputs":[{"name":"","type":"bool","internalType":"bool"}],"stateMutability":"nonpayable"},{"type":"function","name":"transferFrom","inputs":[{"name":"from","type":"address","internalType":"address"},{"name":"to","type":"address","internalType":"address"},{"name":"value","type":"uint256","internalType":"uint256"}],"outputs":[{"name":"","type":"bool","internalType":"bool"}],"stateMutability":"nonpayable"},{"type":"function","name":"transferOwnership","inputs":[{"name":"newOwner","type":"address","internalType":"address"}],"outputs":[],"stateMutability":"nonpayable"},{"type":"function","name":"unpause","inputs":[],"outputs":[],"stateMutability":"nonpayable"},{"type":"function","name":"updateTaxFeeRecipient","inputs":[{"name":"newTaxFeeRecipient","type":"address","internalType":"address"}],"outputs":[],"stateMutability":"nonpayable"},{"type":"event","name":"Approval","inputs":[{"name":"owner","type":"address","indexed":true,"internalType":"address"},{"name":"spender","type":"address","indexed":true,"internalType":"address"},{"name":"value","type":"uint256","indexed":false,"internalType":"uint256"}],"anonymous":false},{"type":"event","name":"OwnershipTransferred","inputs":[{"name":"previousOwner","type":"address","indexed":true,"internalType":"address"},{"name":"newOwner","type":"address","indexed":true,"internalType":"address"}],"anonymous":false},{"type":"event","name":"Paused","inputs":[{"name":"account","type":"address","indexed":false,"internalType":"address"}],"anonymous":false},{"type":"event","name":"TaxFeeRecipientUpdated","inputs":[{"name":"newTaxFeeRecipient","type":"address","indexed":false,"internalType":"address"}],"anonymous":false},{"type":"event","name":"Transfer","inputs":[{"name":"from","type":"address","indexed":true,"internalType":"address"},{"name":"to","type":"address","indexed":true,"internalType":"address"},{"name":"value","type":"uint256","indexed":false,"internalType":"uint256"}],"anonymous":false},{"type":"event","name":"Unpaused","inputs":[{"name":"account","type":"address","indexed":false,"internalType":"address"}],"anonymous":false},{"type":"error","name":"ERC20InsufficientAllowance","inputs":[{"name":"spender","type":"address","internalType":"address"},{"name":"allowance","type":"uint256","internalType":"uint256"},{"name":"needed","type":"uint256","internalType":"uint256"}]},{"type":"error","name":"ERC20InsufficientBalance","inputs":[{"name":"sender","type":"address","internalType":"address"},{"name":"balance","type":"uint256","internalType":"uint256"},{"name":"needed","type":"uint256","internalType":"uint256"}]},{"type":"error","name":"ERC20InvalidApprover","inputs":[{"name":"approver","type":"address","internalType":"address"}]},{"type":"error","name":"ERC20InvalidReceiver","inputs":[{"name":"receiver","type":"address","internalType":"address"}]},{"type":"error","name":"ERC20InvalidSender","inputs":[{"name":"sender","type":"address","internalType":"address"}]},{"type":"error","name":"ERC20InvalidSpender","inputs":[{"name":"spender","type":"address","internalType":"address"}]},{"type":"error","name":"EnforcedPause","inputs":[]},{"type":"error","name":"ExpectedPause","inputs":[]},{"type":"error","name":"OwnableInvalidOwner","inputs":[{"name":"owner","type":"address","internalType":"address"}]},{"type":"error","name":"OwnableUnauthorizedAccount","inputs":[{"name":"account","type":"address","internalType":"address"}]}],"bytecode":{"object":"0x6080604052604051620029d8380380620029d8833981810160405281019062000029919062000983565b335f73ffffffffffffffffffffffffffffffffffffffff168173ffffffffffffffffffffffffffffffffffffffff16036200009d575f6040517f1e4fbdf700000000000000000000000000000000000000000000000000000000815260040162000094919062000a96565b60405180910390fd5b620000ae816200030d60201b60201c565b505f8060146101000a81548160ff0219169083151502179055508760049081620000d9919062000cdf565b508660059081620000eb919062000cdf565b508560065f6101000a81548160ff021916908360ff160217905550816007819055508060085f6101000a81548173ffffffffffffffffffffffffffffffffffffffff021916908373ffffffffffffffffffffffffffffffffffffffff1602179055508234101562000193576040517f08c379a00000000000000000000000000000000000000000000000000000000081526004016200018a9062000e21565b60405180910390fd5b5f73ffffffffffffffffffffffffffffffffffffffff168473ffffffffffffffffffffffffffffffffffffffff160362000204576040517f08c379a0000000000000000000000000000000000000000000000000000000008152600401620001fb9062000e8f565b60405180910390fd5b5f8473ffffffffffffffffffffffffffffffffffffffff16846040516200022b9062000ee0565b5f6040518083038185875af1925050503d805f811462000267576040519150601f19603f3d011682016040523d82523d5f602084013e6200026c565b606091505b5050905080620002b3576040517f08c379a0000000000000000000000000000000000000000000000000000000008152600401620002aa9062000f44565b60405180910390fd5b620002fe620002c7620003ce60201b60201c565b620002d7620003f560201b60201c565b600a620002e59190620010e1565b88620002f2919062001131565b6200040a60201b60201c565b5050505050505050506200121c565b5f805f9054906101000a900473ffffffffffffffffffffffffffffffffffffffff169050815f806101000a81548173ffffffffffffffffffffffffffffffffffffffff021916908373ffffffffffffffffffffffffffffffffffffffff1602179055508173ffffffffffffffffffffffffffffffffffffffff168173ffffffffffffffffffffffffffffffffffffffff167f8be0079c531659141344cd1fd0a4f28419497f9722a3daafe3b4186f6b6457e060405160405180910390a35050565b5f805f9054906101000a900473ffffffffffffffffffffffffffffffffffffffff16905090565b5f60065f9054906101000a900460ff16905090565b5f73ffffffffffffffffffffffffffffffffffffffff168273ffffffffffffffffffffffffffffffffffffffff16036200047d575f6040517fec442f0500000000000000000000000000000000000000000000000000000000815260040162000474919062000a96565b60405180910390fd5b620004905f83836200049460201b60201c565b5050565b620004a4620006cb60201b60201c565b5f73ffffffffffffffffffffffffffffffffffffffff168373ffffffffffffffffffffffffffffffffffffffff1603620004f8578060035f828254620004eb91906200117b565b92505081905550620005cb565b5f60015f8573ffffffffffffffffffffffffffffffffffffffff1673ffffffffffffffffffffffffffffffffffffffff1681526020019081526020015f205490508181101562000585578381836040517fe450d38c0000000000000000000000000000000000000000000000000000000081526004016200057c93929190620011c6565b60405180910390fd5b81810360015f8673ffffffffffffffffffffffffffffffffffffffff1673ffffffffffffffffffffffffffffffffffffffff1681526020019081526020015f2081905550505b5f73ffffffffffffffffffffffffffffffffffffffff168273ffffffffffffffffffffffffffffffffffffffff160362000614578060035f82825403925050819055506200065f565b8060015f8473ffffffffffffffffffffffffffffffffffffffff1673ffffffffffffffffffffffffffffffffffffffff1681526020019081526020015f205f82825401925050819055505b8173ffffffffffffffffffffffffffffffffffffffff168373ffffffffffffffffffffffffffffffffffffffff167fddf252ad1be2c89b69c2b068fc378daa952ba7f163c4a11628f55a4df523b3ef83604051620006be919062001201565b60405180910390a3505050565b620006db6200071560201b60201c565b1562000713576040517fd93c066500000000000000000000000000000000000000000000000000000000815260040160405180910390fd5b565b5f8060149054906101000a900460ff16905090565b5f604051905090565b5f80fd5b5f80fd5b5f80fd5b5f80fd5b5f601f19601f8301169050919050565b7f4e487b71000000000000000000000000000000000000000000000000000000005f52604160045260245ffd5b6200078b8262000743565b810181811067ffffffffffffffff82111715620007ad57620007ac62000753565b5b80604052505050565b5f620007c16200072a565b9050620007cf828262000780565b919050565b5f67ffffffffffffffff821115620007f157620007f062000753565b5b620007fc8262000743565b9050602081019050919050565b5f5b83811015620008285780820151818401526020810190506200080b565b5f8484015250505050565b5f620008496200084384620007d4565b620007b6565b9050828152602081018484840111156200086857620008676200073f565b5b6200087584828562000809565b509392505050565b5f82601f8301126200089457620008936200073b565b5b8151620008a684826020860162000833565b91505092915050565b5f60ff82169050919050565b620008c681620008af565b8114620008d1575f80fd5b50565b5f81519050620008e481620008bb565b92915050565b5f819050919050565b620008fe81620008ea565b811462000909575f80fd5b50565b5f815190506200091c81620008f3565b92915050565b5f73ffffffffffffffffffffffffffffffffffffffff82169050919050565b5f6200094d8262000922565b9050919050565b6200095f8162000941565b81146200096a575f80fd5b50565b5f815190506200097d8162000954565b92915050565b5f805f805f805f80610100898b031215620009a357620009a262000733565b5b5f89015167ffffffffffffffff811115620009c357620009c262000737565b5b620009d18b828c016200087d565b985050602089015167ffffffffffffffff811115620009f557620009f462000737565b5b62000a038b828c016200087d565b975050604062000a168b828c01620008d4565b965050606062000a298b828c016200090c565b955050608062000a3c8b828c016200096d565b94505060a062000a4f8b828c016200090c565b93505060c062000a628b828c016200090c565b92505060e062000a758b828c016200096d565b9150509295985092959890939650565b62000a908162000941565b82525050565b5f60208201905062000aab5f83018462000a85565b92915050565b5f81519050919050565b7f4e487b71000000000000000000000000000000000000000000000000000000005f52602260045260245ffd5b5f600282049050600182168062000b0057607f821691505b60208210810362000b165762000b1562000abb565b5b50919050565b5f819050815f5260205f209050919050565b5f6020601f8301049050919050565b5f82821b905092915050565b5f6008830262000b7a7fffffffffffffffffffffffffffffffffffffffffffffffffffffffffffffffff8262000b3d565b62000b86868362000b3d565b95508019841693508086168417925050509392505050565b5f819050919050565b5f62000bc762000bc162000bbb84620008ea565b62000b9e565b620008ea565b9050919050565b5f819050919050565b62000be28362000ba7565b62000bfa62000bf18262000bce565b84845462000b49565b825550505050565b5f90565b62000c1062000c02565b62000c1d81848462000bd7565b505050565b5b8181101562000c445762000c385f8262000c06565b60018101905062000c23565b5050565b601f82111562000c935762000c5d8162000b1c565b62000c688462000b2e565b8101602085101562000c78578190505b62000c9062000c878562000b2e565b83018262000c22565b50505b505050565b5f82821c905092915050565b5f62000cb55f198460080262000c98565b1980831691505092915050565b5f62000ccf838362000ca4565b9150826002028217905092915050565b62000cea8262000ab1565b67ffffffffffffffff81111562000d065762000d0562000753565b5b62000d12825462000ae8565b62000d1f82828562000c48565b5f60209050601f83116001811462000d55575f841562000d40578287015190505b62000d4c858262000cc2565b86555062000dbb565b601f19841662000d658662000b1c565b5f5b8281101562000d8e5784890151825560018201915060208501945060208101905062000d67565b8683101562000dae578489015162000daa601f89168262000ca4565b8355505b6001600288020188555050505b505050505050565b5f82825260208201905092915050565b7f496e73756666696369656e742066656520616d6f756e742073656e74000000005f82015250565b5f62000e09601c8362000dc3565b915062000e168262000dd3565b602082019050919050565b5f6020820190508181035f83015262000e3a8162000dfb565b9050919050565b7f496e76616c6964206665652072656365697665722061646472657373000000005f82015250565b5f62000e77601c8362000dc3565b915062000e848262000e41565b602082019050919050565b5f6020820190508181035f83015262000ea88162000e69565b9050919050565b5f81905092915050565b50565b5f62000ec95f8362000eaf565b915062000ed68262000eb9565b5f82019050919050565b5f62000eec8262000ebc565b9150819050919050565b7f466565207472616e73666572206661696c6564000000000000000000000000005f82015250565b5f62000f2c60138362000dc3565b915062000f398262000ef6565b602082019050919050565b5f6020820190508181035f83015262000f5d8162000f1e565b9050919050565b7f4e487b71000000000000000000000000000000000000000000000000000000005f52601160045260245ffd5b5f8160011c9050919050565b5f808291508390505b600185111562000fee5780860481111562000fc65762000fc562000f64565b5b600185161562000fd65780820291505b808102905062000fe68562000f91565b945062000fa6565b94509492505050565b5f82620010085760019050620010da565b8162001017575f9050620010da565b81600181146200103057600281146200103b5762001071565b6001915050620010da565b60ff84111562001050576200104f62000f64565b5b8360020a9150848211156200106a576200106962000f64565b5b50620010da565b5060208310610133831016604e8410600b8410161715620010ab5782820a905083811115620010a557620010a462000f64565b5b620010da565b620010ba848484600162000f9d565b92509050818404811115620010d457620010d362000f64565b5b81810290505b9392505050565b5f620010ed82620008ea565b9150620010fa83620008af565b9250620011297fffffffffffffffffffffffffffffffffffffffffffffffffffffffffffffffff848462000ff7565b905092915050565b5f6200113d82620008ea565b91506200114a83620008ea565b92508282026200115a81620008ea565b9150828204841483151762001174576200117362000f64565b5b5092915050565b5f6200118782620008ea565b91506200119483620008ea565b9250828201905080821115620011af57620011ae62000f64565b5b92915050565b620011c081620008ea565b82525050565b5f606082019050620011db5f83018662000a85565b620011ea6020830185620011b5565b620011f96040830184620011b5565b949350505050565b5f602082019050620012165f830184620011b5565b92915050565b6117ae806200122a5f395ff3fe608060405234801561000f575f80fd5b5060043610610114575f3560e01c8063715018a6116100a05780638da5cb5b1161006f5780638da5cb5b1461029657806395d89b41146102b4578063a9059cbb146102d2578063dd62ed3e14610302578063f2fde38b1461033257610114565b8063715018a614610248578063743bfe70146102525780638456cb59146102705780638baace251461027a57610114565b806323b872dd116100e757806323b872dd146101a2578063313ce567146101d25780633f4ba83a146101f05780635c975abb146101fa57806370a082311461021857610114565b806303073dfc1461011857806306fdde0314610136578063095ea7b31461015457806318160ddd14610184575b5f80fd5b61012061034e565b60405161012d919061130b565b60405180910390f35b61013e610376565b60405161014b91906113ae565b60405180910390f35b61016e6004803603810190610169919061142f565b610406565b60405161017b9190611487565b60405180910390f35b61018c610428565b60405161019991906114af565b60405180910390f35b6101bc60048036038101906101b791906114c8565b610431565b6040516101c99190611487565b60405180910390f35b6101da61045f565b6040516101e79190611533565b60405180910390f35b6101f8610474565b005b610202610486565b60405161020f9190611487565b60405180910390f35b610232600480360381019061022d919061154c565b61049b565b60405161023f91906114af565b60405180910390f35b6102506104e1565b005b61025a6104f4565b60405161026791906114af565b60405180910390f35b6102786104fd565b005b610294600480360381019061028f919061154c565b61050f565b005b61029e610591565b6040516102ab919061130b565b60405180910390f35b6102bc6105b8565b6040516102c991906113ae565b60405180910390f35b6102ec60048036038101906102e7919061142f565b610648565b6040516102f99190611487565b60405180910390f35b61031c60048036038101906103179190611577565b6109ab565b60405161032991906114af565b60405180910390f35b61034c6004803603810190610347919061154c565b610a2d565b005b5f60085f9054906101000a900473ffffffffffffffffffffffffffffffffffffffff16905090565b606060048054610385906115e2565b80601f01602080910402602001604051908101604052809291908181526020018280546103b1906115e2565b80156103fc5780601f106103d3576101008083540402835291602001916103fc565b820191905f5260205f20905b8154815290600101906020018083116103df57829003601f168201915b5050505050905090565b5f80610410610ab1565b905061041d818585610ab8565b600191505092915050565b5f600354905090565b5f8061043b610ab1565b9050610448858285610aca565b610453858585610b5d565b60019150509392505050565b5f60065f9054906101000a900460ff16905090565b61047c610c4d565b610484610cd4565b565b5f8060149054906101000a900460ff16905090565b5f60015f8373ffffffffffffffffffffffffffffffffffffffff1673ffffffffffffffffffffffffffffffffffffffff1681526020019081526020015f20549050919050565b6104e9610c4d565b6104f25f610d35565b565b5f600754905090565b610505610c4d565b61050d610df6565b565b610517610c4d565b8060085f6101000a81548173ffffffffffffffffffffffffffffffffffffffff021916908373ffffffffffffffffffffffffffffffffffffffff1602179055507f3ca9233bd3849737ab1049144180bc625db2d51ca2c5ce949e7209eb32faa3a281604051610586919061130b565b60405180910390a150565b5f805f9054906101000a900473ffffffffffffffffffffffffffffffffffffffff16905090565b6060600580546105c7906115e2565b80601f01602080910402602001604051908101604052809291908181526020018280546105f3906115e2565b801561063e5780601f106106155761010080835404028352916020019161063e565b820191905f5260205f20905b81548152906001019060200180831161062157829003601f168201915b5050505050905090565b5f80610652610ab1565b90505f61271060075485610666919061163f565b61067091906116ad565b90505f818561067f91906116dd565b90508460015f8573ffffffffffffffffffffffffffffffffffffffff1673ffffffffffffffffffffffffffffffffffffffff1681526020019081526020015f20541015610744578260015f8573ffffffffffffffffffffffffffffffffffffffff1673ffffffffffffffffffffffffffffffffffffffff1681526020019081526020015f2054866040517fe450d38c00000000000000000000000000000000000000000000000000000000815260040161073b93929190611710565b60405180910390fd5b8460015f8573ffffffffffffffffffffffffffffffffffffffff1673ffffffffffffffffffffffffffffffffffffffff1681526020019081526020015f205f82825461079091906116dd565b925050819055508060015f8873ffffffffffffffffffffffffffffffffffffffff1673ffffffffffffffffffffffffffffffffffffffff1681526020019081526020015f205f8282546107e39190611745565b925050819055505f73ffffffffffffffffffffffffffffffffffffffff1660085f9054906101000a900473ffffffffffffffffffffffffffffffffffffffff1673ffffffffffffffffffffffffffffffffffffffff16146108b3578160015f60085f9054906101000a900473ffffffffffffffffffffffffffffffffffffffff1673ffffffffffffffffffffffffffffffffffffffff1673ffffffffffffffffffffffffffffffffffffffff1681526020019081526020015f205f8282546108ab9190611745565b925050819055505b8573ffffffffffffffffffffffffffffffffffffffff168373ffffffffffffffffffffffffffffffffffffffff167fddf252ad1be2c89b69c2b068fc378daa952ba7f163c4a11628f55a4df523b3ef8360405161091091906114af565b60405180910390a360085f9054906101000a900473ffffffffffffffffffffffffffffffffffffffff1673ffffffffffffffffffffffffffffffffffffffff168373ffffffffffffffffffffffffffffffffffffffff167fddf252ad1be2c89b69c2b068fc378daa952ba7f163c4a11628f55a4df523b3ef8460405161099691906114af565b60405180910390a36001935050505092915050565b5f60025f8473ffffffffffffffffffffffffffffffffffffffff1673ffffffffffffffffffffffffffffffffffffffff1681526020019081526020015f205f8373ffffffffffffffffffffffffffffffffffffffff1673ffffffffffffffffffffffffffffffffffffffff1681526020019081526020015f2054905092915050565b610a35610c4d565b5f73ffffffffffffffffffffffffffffffffffffffff168173ffffffffffffffffffffffffffffffffffffffff1603610aa5575f6040517f1e4fbdf7000000000000000000000000000000000000000000000000000000008152600401610a9c919061130b565b60405180910390fd5b610aae81610d35565b50565b5f33905090565b610ac58383836001610e58565b505050565b5f610ad584846109ab565b90507fffffffffffffffffffffffffffffffffffffffffffffffffffffffffffffffff811015610b575781811015610b48578281836040517ffb8f41b2000000000000000000000000000000000000000000000000000000008152600401610b3f93929190611710565b60405180910390fd5b610b5684848484035f610e58565b5b50505050565b5f73ffffffffffffffffffffffffffffffffffffffff168373ffffffffffffffffffffffffffffffffffffffff1603610bcd575f6040517f96c6fd1e000000000000000000000000000000000000000000000000000000008152600401610bc4919061130b565b60405180910390fd5b5f73ffffffffffffffffffffffffffffffffffffffff168273ffffffffffffffffffffffffffffffffffffffff1603610c3d575f6040517fec442f05000000000000000000000000000000000000000000000000000000008152600401610c34919061130b565b60405180910390fd5b610c48838383611027565b505050565b610c55610ab1565b73ffffffffffffffffffffffffffffffffffffffff16610c73610591565b73ffffffffffffffffffffffffffffffffffffffff1614610cd257610c96610ab1565b6040517f118cdaa7000000000000000000000000000000000000000000000000000000008152600401610cc9919061130b565b60405180910390fd5b565b610cdc61124b565b5f8060146101000a81548160ff0219169083151502179055507f5db9ee0a495bf2e6ff9c91a7834c1ba4fdd244a5e8aa4e537bd38aeae4b073aa610d1e610ab1565b604051610d2b919061130b565b60405180910390a1565b5f805f9054906101000a900473ffffffffffffffffffffffffffffffffffffffff169050815f806101000a81548173ffffffffffffffffffffffffffffffffffffffff021916908373ffffffffffffffffffffffffffffffffffffffff1602179055508173ffffffffffffffffffffffffffffffffffffffff168173ffffffffffffffffffffffffffffffffffffffff167f8be0079c531659141344cd1fd0a4f28419497f9722a3daafe3b4186f6b6457e060405160405180910390a35050565b610dfe61128b565b60015f60146101000a81548160ff0219169083151502179055507f62e78cea01bee320cd4e420270b5ea74000d11b0c9f74754ebdbfc544b05a258610e41610ab1565b604051610e4e919061130b565b60405180910390a1565b5f73ffffffffffffffffffffffffffffffffffffffff168473ffffffffffffffffffffffffffffffffffffffff1603610ec8575f6040517fe602df05000000000000000000000000000000000000000000000000000000008152600401610ebf919061130b565b60405180910390fd5b5f73ffffffffffffffffffffffffffffffffffffffff168373ffffffffffffffffffffffffffffffffffffffff1603610f38575f6040517f94280d62000000000000000000000000000000000000000000000000000000008152600401610f2f919061130b565b60405180910390fd5b8160025f8673ffffffffffffffffffffffffffffffffffffffff1673ffffffffffffffffffffffffffffffffffffffff1681526020019081526020015f205f8573ffffffffffffffffffffffffffffffffffffffff1673ffffffffffffffffffffffffffffffffffffffff1681526020019081526020015f20819055508015611021578273ffffffffffffffffffffffffffffffffffffffff168473ffffffffffffffffffffffffffffffffffffffff167f8c5be1e5ebec7d5bd14f71427d1e84f3dd0314c0f7b2291e5b200ac8c7c3b9258460405161101891906114af565b60405180910390a35b50505050565b61102f61128b565b5f73ffffffffffffffffffffffffffffffffffffffff168373ffffffffffffffffffffffffffffffffffffffff160361107f578060035f8282546110739190611745565b9250508190555061114f565b5f60015f8573ffffffffffffffffffffffffffffffffffffffff1673ffffffffffffffffffffffffffffffffffffffff1681526020019081526020015f2054905081811015611109578381836040517fe450d38c00000000000000000000000000000000000000000000000000000000815260040161110093929190611710565b60405180910390fd5b81810360015f8673ffffffffffffffffffffffffffffffffffffffff1673ffffffffffffffffffffffffffffffffffffffff1681526020019081526020015f2081905550505b5f73ffffffffffffffffffffffffffffffffffffffff168273ffffffffffffffffffffffffffffffffffffffff1603611196578060035f82825403925050819055506111e1565b8060015f8473ffffffffffffffffffffffffffffffffffffffff1673ffffffffffffffffffffffffffffffffffffffff1681526020019081526020015f205f82825401925050819055505b8173ffffffffffffffffffffffffffffffffffffffff168373ffffffffffffffffffffffffffffffffffffffff167fddf252ad1be2c89b69c2b068fc378daa952ba7f163c4a11628f55a4df523b3ef8360405161123e91906114af565b60405180910390a3505050565b611253610486565b611289576040517f8dfc202b00000000000000000000000000000000000000000000000000000000815260040160405180910390fd5b565b611293610486565b156112ca576040517fd93c066500000000000000000000000000000000000000000000000000000000815260040160405180910390fd5b565b5f73ffffffffffffffffffffffffffffffffffffffff82169050919050565b5f6112f5826112cc565b9050919050565b611305816112eb565b82525050565b5f60208201905061131e5f8301846112fc565b92915050565b5f81519050919050565b5f82825260208201905092915050565b5f5b8381101561135b578082015181840152602081019050611340565b5f8484015250505050565b5f601f19601f8301169050919050565b5f61138082611324565b61138a818561132e565b935061139a81856020860161133e565b6113a381611366565b840191505092915050565b5f6020820190508181035f8301526113c68184611376565b905092915050565b5f80fd5b6113db816112eb565b81146113e5575f80fd5b50565b5f813590506113f6816113d2565b92915050565b5f819050919050565b61140e816113fc565b8114611418575f80fd5b50565b5f8135905061142981611405565b92915050565b5f8060408385031215611445576114446113ce565b5b5f611452858286016113e8565b92505060206114638582860161141b565b9150509250929050565b5f8115159050919050565b6114818161146d565b82525050565b5f60208201905061149a5f830184611478565b92915050565b6114a9816113fc565b82525050565b5f6020820190506114c25f8301846114a0565b92915050565b5f805f606084860312156114df576114de6113ce565b5b5f6114ec868287016113e8565b93505060206114fd868287016113e8565b925050604061150e8682870161141b565b9150509250925092565b5f60ff82169050919050565b61152d81611518565b82525050565b5f6020820190506115465f830184611524565b92915050565b5f60208284031215611561576115606113ce565b5b5f61156e848285016113e8565b91505092915050565b5f806040838503121561158d5761158c6113ce565b5b5f61159a858286016113e8565b92505060206115ab858286016113e8565b9150509250929050565b7f4e487b71000000000000000000000000000000000000000000000000000000005f52602260045260245ffd5b5f60028204905060018216806115f957607f821691505b60208210810361160c5761160b6115b5565b5b50919050565b7f4e487b71000000000000000000000000000000000000000000000000000000005f52601160045260245ffd5b5f611649826113fc565b9150611654836113fc565b9250828202611662816113fc565b9150828204841483151761167957611678611612565b5b5092915050565b7f4e487b71000000000000000000000000000000000000000000000000000000005f52601260045260245ffd5b5f6116b7826113fc565b91506116c2836113fc565b9250826116d2576116d1611680565b5b828204905092915050565b5f6116e7826113fc565b91506116f2836113fc565b925082820390508181111561170a57611709611612565b5b92915050565b5f6060820190506117235f8301866112fc565b61173060208301856114a0565b61173d60408301846114a0565b949350505050565b5f61174f826113fc565b915061175a836113fc565b925082820190508082111561177257611771611612565b5b9291505056fea2646970667358221220d19ef22b55f5c921e00e4c75bf4f41e78733a44f68ea3b77d5ab6a4f72b58c1e64736f6c63430008170033","linkReferences":{}},"methodIdentifiers":{"allowance(address,address)":"dd62ed3e","approve(address,uint256)":"095ea7b3","balanceOf(address)":"70a08231","decimals()":"313ce567","getTaxFeeRecipient()":"03073dfc","getTransferTaxBps()":"743bfe70","name()":"06fdde03","owner()":"8da5cb5b","pause()":"8456cb59","paused()":"5c975abb","renounceOwnership()":"715018a6","symbol()":"95d89b41","totalSupply()":"18160ddd","transfer(address,uint256)":"a9059cbb","transferFrom(address,address,uint256)":"23b872dd","transferOwnership(address)":"f2fde38b","unpause()":"3f4ba83a","updateTaxFeeRecipient(address)":"8baace25"},"id":45}