{"abi":[{"type":"constructor","inputs":[{"name":"name_","type":"string","internalType":"string"},{"name":"symbol_","type":"string","internalType":"string"},{"name":"decimals_","type":"uint8","internalType":"uint8"},{"name":"totalSupply_","type":"uint256","internalType":"uint256"},{"name":"cap_","type":"uint256","internalType":"uint256"},{"name":"serviceFeeReceiver_","type":"address","internalType":"address"},{"name":"serviceFee_","type":"uint256","internalType":"uint256"}],"stateMutability":"payable"},{"type":"function","name":"allowance","inputs":[{"name":"owner","type":"address","internalType":"address"},{"name":"spender","type":"address","internalType":"address"}],"outputs":[{"name":"","type":"uint256","internalType":"uint256"}],"stateMutability":"view"},{"type":"function","name":"approve","inputs":[{"name":"spender","type":"address","internalType":"address"},{"name":"value","type":"uint256","internalType":"uint256"}],"outputs":[{"name":"","type":"bool","internalType":"bool"}],"stateMutability":"nonpayable"},{"type":"function","name":"balanceOf","inputs":[{"name":"account","type":"address","internalType":"address"}],"outputs":[{"name":"","type":"uint256","internalType":"uint256"}],"stateMutability":"view"},{"type":"function","name":"blacklist","inputs":[{"name":"account","type":"address","internalType":"address"}],"outputs":[],"stateMutability":"nonpayable"},{"type":"function","name":"cap","inputs":[],"outputs":[{"name":"","type":"uint256","internalType":"uint256"}],"stateMutability":"view"},{"type":"function","name":"decimals","inputs":[],"outputs":[{"name":"","type":"uint8","internalType":"uint8"}],"stateMutability":"view"},{"type":"function","name":"isBlacklisted","inputs":[{"name":"account","type":"address","internalType":"address"}],"outputs":[{"name":"","type":"bool","internalType":"bool"}],"stateMutability":"view"},{"type":"function","name":"mint","inputs":[{"name":"to","type":"address","internalType":"address"},{"name":"amount","type":"uint256","internalType":"uint256"}],"outputs":[],"stateMutability":"nonpayable"},{"type":"function","name":"name","inputs":[],"outputs":[{"name":"","type":"string","internalType":"string"}],"stateMutability":"view"},{"type":"function","name":"owner","inputs":[],"outputs":[{"name":"","type":"address","internalType":"address"}],"stateMutability":"view"},{"type":"function","name":"pause","inputs":[],"outputs":[],"stateMutability":"nonpayable"},{"type":"function","name":"paused","inputs":[],"outputs":[{"name":"","type":"bool","internalType":"bool"}],"stateMutability":"view"},{"type":"function","name":"renounceOwnership","inputs":[],"outputs":[],"stateMutability":"nonpayable"},{"type":"function","name":"symbol","inputs":[],"outputs":[{"name":"","type":"string","internalType":"string"}],"stateMutability":"view"},{"type":"function","name":"totalSupply","inputs":[],"outputs":[{"name":"","type":"uint256","internalType":"uint256"}],"stateMutability":"view"},{"type":"function","name":"transfer","inputs":[{"name":"to","type":"address","internalType":"address"},{"name":"value","type":"uint256","internalType":"uint256"}],"outputs":[{"name":"","type":"bool","internalType":"bool"}],"stateMutability":"nonpayable"},{"type":"function","name":"transferFrom","inputs":[{"name":"from","type":"address","internalType":"address"},{"name":"to","type":"address","internalType":"address"},{"name":"value","type":"uint256","internalType":"uint256"}],"outputs":[{"name":"","type":"bool","internalType":"bool"}],"stateMutability":"nonpayable"},{"type":"function","name":"transferOwnership","inputs":[{"name":"newOwner","type":"address","internalType":"address"}],"outputs":[],"stateMutability":"nonpayable"},{"type":"function","name":"unblacklist","inputs":[{"name":"account","type":"address","internalType":"address"}],"outputs":[],"stateMutability":"nonpayable"},{"type":"function","name":"unpause","inputs":[],"outputs":[],"stateMutability":"nonpayable"},{"type":"event","name":"Approval","inputs":[{"name":"owner","type":"address","indexed":true,"internalType":"address"},{"name":"spender","type":"address","indexed":true,"internalType":"address"},{"name":"value","type":"uint256","indexed":false,"internalType":"uint256"}],"anonymous":false},{"type":"event","name":"Blacklisted","inputs":[{"name":"account","type":"address","indexed":true,"internalType":"address"}],"anonymous":false},{"type":"event","name":"OwnershipTransferred","inputs":[{"name":"previousOwner","type":"address","indexed":true,"internalType":"address"},{"name":"newOwner","type":"address","indexed":true,"internalType":"address"}],"anonymous":false},{"type":"event","name":"Paused","inputs":[{"name":"account","type":"address","indexed":false,"internalType":"address"}],"anonymous":false},{"type":"event","name":"Transfer","inputs":[{"name":"from","type":"address","indexed":true,"internalType":"address"},{"name":"to","type":"address","indexed":true,"internalType":"address"},{"name":"value","type":"uint256","indexed":false,"internalType":"uint256"}],"anonymous":false},{"type":"event","name":"Unblacklisted","inputs":[{"name":"account","type":"address","indexed":true,"internalType":"address"}],"anonymous":false},{"type":"event","name":"Unpaused","inputs":[{"name":"account","type":"address","indexed":false,"internalType":"address"}],"anonymous":false},{"type":"error","name":"ERC20InsufficientAllowance","inputs":[{"name":"spender","type":"address","internalType":"address"},{"name":"allowance","type":"uint256","internalType":"uint256"},{"name":"needed","type":"uint256","internalType":"uint256"}]},{"type":"error","name":"ERC20InsufficientBalance","inputs":[{"name":"sender","type":"address","internalType":"address"},{"name":"balance","type":"uint256","internalType":"uint256"},{"name":"needed","type":"uint256","internalType":"uint256"}]},{"type":"error","name":"ERC20InvalidApprover","inputs":[{"name":"approver","type":"address","internalType":"address"}]},{"type":"error","name":"ERC20InvalidReceiver","inputs":[{"name":"receiver","type":"address","internalType":"address"}]},{"type":"error","name":"ERC20InvalidSender","inputs":[{"name":"sender","type":"address","internalType":"address"}]},{"type":"error","name":"ERC20InvalidSpender","inputs":[{"name":"spender","type":"address","internalType":"address"}]},{"type":"error","name":"EnforcedPause","inputs":[]},{"type":"error","name":"ExpectedPause","inputs":[]},{"type":"error","name":"OwnableInvalidOwner","inputs":[{"name":"owner","type":"address","internalType":"address"}]},{"type":"error","name":"OwnableUnauthorizedAccount","inputs":[{"name":"account","type":"address","internalType":"address"}]}],"bytecode":{"object":"0x608060405260405161305638038061305683398181016040528101906100259190610a13565b335f73ffffffffffffffffffffffffffffffffffffffff168173ffffffffffffffffffffffffffffffffffffffff1603610096575f6040517f1e4fbdf700000000000000000000000000000000000000000000000000000000815260040161008d9190610af7565b60405180910390fd5b6100a58161035d60201b60201c565b505f5f60146101000a81548160ff02191690831515021790555086600590816100ce9190610d17565b5085600690816100de9190610d17565b508460075f6101000a81548160ff021916908360ff1602179055505f831161013b576040517f08c379a000000000000000000000000000000000000000000000000000000000815260040161013290610e40565b60405180910390fd5b8260088190555061015061041e60201b60201c565b600a61015c9190610fba565b61016a61043360201b60201c565b6101749190611004565b8411156101b6576040517f08c379a00000000000000000000000000000000000000000000000000000000081526004016101ad9061108f565b60405180910390fd5b803410156101f9576040517f08c379a00000000000000000000000000000000000000000000000000000000081526004016101f0906110f7565b60405180910390fd5b5f73ffffffffffffffffffffffffffffffffffffffff168273ffffffffffffffffffffffffffffffffffffffff1603610267576040517f08c379a000000000000000000000000000000000000000000000000000000000815260040161025e9061115f565b60405180910390fd5b5f8273ffffffffffffffffffffffffffffffffffffffff168260405161028c906111aa565b5f6040518083038185875af1925050503d805f81146102c6576040519150601f19603f3d011682016040523d82523d5f602084013e6102cb565b606091505b505090508061030f576040517f08c379a000000000000000000000000000000000000000000000000000000000815260040161030690611208565b60405180910390fd5b61035061032061043c60201b60201c565b61032e61041e60201b60201c565b600a61033a9190610fba565b876103459190611004565b61046360201b60201c565b50505050505050506112b6565b5f5f5f9054906101000a900473ffffffffffffffffffffffffffffffffffffffff169050815f5f6101000a81548173ffffffffffffffffffffffffffffffffffffffff021916908373ffffffffffffffffffffffffffffffffffffffff1602179055508173ffffffffffffffffffffffffffffffffffffffff168173ffffffffffffffffffffffffffffffffffffffff167f8be0079c531659141344cd1fd0a4f28419497f9722a3daafe3b4186f6b6457e060405160405180910390a35050565b5f60075f9054906101000a900460ff16905090565b5f600854905090565b5f5f5f9054906101000a900473ffffffffffffffffffffffffffffffffffffffff16905090565b61047161041e60201b60201c565b600a61047d9190610fba565b61048b61043360201b60201c565b6104959190611004565b816104a461057460201b60201c565b6104ae9190611226565b11156104ef576040517f08c379a00000000000000000000000000000000000000000000000000000000081526004016104e69061108f565b60405180910390fd5b5f73ffffffffffffffffffffffffffffffffffffffff168273ffffffffffffffffffffffffffffffffffffffff160361055f575f6040517fec442f050000000000000000000000000000000000000000000000000000000081526004016105569190610af7565b60405180910390fd5b6105705f838361057d60201b60201c565b5050565b5f600454905090565b61058b6107a760201b60201c565b5f73ffffffffffffffffffffffffffffffffffffffff168373ffffffffffffffffffffffffffffffffffffffff16036105db578060045f8282546105cf9190611226565b925050819055506106ab565b5f60015f8573ffffffffffffffffffffffffffffffffffffffff1673ffffffffffffffffffffffffffffffffffffffff1681526020019081526020015f2054905081811015610665578381836040517fe450d38c00000000000000000000000000000000000000000000000000000000815260040161065c93929190611268565b60405180910390fd5b81810360015f8673ffffffffffffffffffffffffffffffffffffffff1673ffffffffffffffffffffffffffffffffffffffff1681526020019081526020015f2081905550505b5f73ffffffffffffffffffffffffffffffffffffffff168273ffffffffffffffffffffffffffffffffffffffff16036106f2578060045f828254039250508190555061073d565b8060015f8473ffffffffffffffffffffffffffffffffffffffff1673ffffffffffffffffffffffffffffffffffffffff1681526020019081526020015f205f82825401925050819055505b8173ffffffffffffffffffffffffffffffffffffffff168373ffffffffffffffffffffffffffffffffffffffff167fddf252ad1be2c89b69c2b068fc378daa952ba7f163c4a11628f55a4df523b3ef8360405161079a919061129d565b60405180910390a3505050565b6107b56107ee60201b60201c565b156107ec576040517fd93c066500000000000000000000000000000000000000000000000000000000815260040160405180910390fd5b565b5f5f60149054906101000a900460ff16905090565b5f604051905090565b5f5ffd5b5f5ffd5b5f5ffd5b5f5ffd5b5f601f19601f8301169050919050565b7f4e487b71000000000000000000000000000000000000000000000000000000005f52604160045260245ffd5b6108628261081c565b810181811067ffffffffffffffff821117156108815761088061082c565b5b80604052505050565b5f610893610803565b905061089f8282610859565b919050565b5f67ffffffffffffffff8211156108be576108bd61082c565b5b6108c78261081c565b9050602081019050919050565b8281835e5f83830152505050565b5f6108f46108ef846108a4565b61088a565b9050828152602081018484840111156109105761090f610818565b5b61091b8482856108d4565b509392505050565b5f82601f83011261093757610936610814565b5b81516109478482602086016108e2565b91505092915050565b5f60ff82169050919050565b61096581610950565b811461096f575f5ffd5b50565b5f815190506109808161095c565b92915050565b5f819050919050565b61099881610986565b81146109a2575f5ffd5b50565b5f815190506109b38161098f565b92915050565b5f73ffffffffffffffffffffffffffffffffffffffff82169050919050565b5f6109e2826109b9565b9050919050565b6109f2816109d8565b81146109fc575f5ffd5b50565b5f81519050610a0d816109e9565b92915050565b5f5f5f5f5f5f5f60e0888a031215610a2e57610a2d61080c565b5b5f88015167ffffffffffffffff811115610a4b57610a4a610810565b5b610a578a828b01610923565b975050602088015167ffffffffffffffff811115610a7857610a77610810565b5b610a848a828b01610923565b9650506040610a958a828b01610972565b9550506060610aa68a828b016109a5565b9450506080610ab78a828b016109a5565b93505060a0610ac88a828b016109ff565b92505060c0610ad98a828b016109a5565b91505092959891949750929550565b610af1816109d8565b82525050565b5f602082019050610b0a5f830184610ae8565b92915050565b5f81519050919050565b7f4e487b71000000000000000000000000000000000000000000000000000000005f52602260045260245ffd5b5f6002820490506001821680610b5e57607f821691505b602082108103610b7157610b70610b1a565b5b50919050565b5f819050815f5260205f209050919050565b5f6020601f8301049050919050565b5f82821b905092915050565b5f60088302610bd37fffffffffffffffffffffffffffffffffffffffffffffffffffffffffffffffff82610b98565b610bdd8683610b98565b95508019841693508086168417925050509392505050565b5f819050919050565b5f610c18610c13610c0e84610986565b610bf5565b610986565b9050919050565b5f819050919050565b610c3183610bfe565b610c45610c3d82610c1f565b848454610ba4565b825550505050565b5f5f905090565b610c5c610c4d565b610c67818484610c28565b505050565b5b81811015610c8a57610c7f5f82610c54565b600181019050610c6d565b5050565b601f821115610ccf57610ca081610b77565b610ca984610b89565b81016020851015610cb8578190505b610ccc610cc485610b89565b830182610c6c565b50505b505050565b5f82821c905092915050565b5f610cef5f1984600802610cd4565b1980831691505092915050565b5f610d078383610ce0565b9150826002028217905092915050565b610d2082610b10565b67ffffffffffffffff811115610d3957610d3861082c565b5b610d438254610b47565b610d4e828285610c8e565b5f60209050601f831160018114610d7f575f8415610d6d578287015190505b610d778582610cfc565b865550610dde565b601f198416610d8d86610b77565b5f5b82811015610db457848901518255600182019150602085019450602081019050610d8f565b86831015610dd15784890151610dcd601f891682610ce0565b8355505b6001600288020188555050505b505050505050565b5f82825260208201905092915050565b7f4361702073686f756c642062652067726561746572207468616e2030000000005f82015250565b5f610e2a601c83610de6565b9150610e3582610df6565b602082019050919050565b5f6020820190508181035f830152610e5781610e1e565b9050919050565b7f4e487b71000000000000000000000000000000000000000000000000000000005f52601160045260245ffd5b5f8160011c9050919050565b5f5f8291508390505b6001851115610ee057808604811115610ebc57610ebb610e5e565b5b6001851615610ecb5780820291505b8081029050610ed985610e8b565b9450610ea0565b94509492505050565b5f82610ef85760019050610fb3565b81610f05575f9050610fb3565b8160018114610f1b5760028114610f2557610f54565b6001915050610fb3565b60ff841115610f3757610f36610e5e565b5b8360020a915084821115610f4e57610f4d610e5e565b5b50610fb3565b5060208310610133831016604e8410600b8410161715610f895782820a905083811115610f8457610f83610e5e565b5b610fb3565b610f968484846001610e97565b92509050818404811115610fad57610fac610e5e565b5b81810290505b9392505050565b5f610fc482610986565b9150610fcf83610950565b9250610ffc7fffffffffffffffffffffffffffffffffffffffffffffffffffffffffffffffff8484610ee9565b905092915050565b5f61100e82610986565b915061101983610986565b925082820261102781610986565b9150828204841483151761103e5761103d610e5e565b5b5092915050565b7f45524332304361707065643a20636170206578636565646564000000000000005f82015250565b5f611079601983610de6565b915061108482611045565b602082019050919050565b5f6020820190508181035f8301526110a68161106d565b9050919050565b7f496e73756666696369656e742066656520616d6f756e742073656e74000000005f82015250565b5f6110e1601c83610de6565b91506110ec826110ad565b602082019050919050565b5f6020820190508181035f83015261110e816110d5565b9050919050565b7f496e76616c6964206665652072656365697665722061646472657373000000005f82015250565b5f611149601c83610de6565b915061115482611115565b602082019050919050565b5f6020820190508181035f8301526111768161113d565b9050919050565b5f81905092915050565b50565b5f6111955f8361117d565b91506111a082611187565b5f82019050919050565b5f6111b48261118a565b9150819050919050565b7f466565207472616e73666572206661696c6564000000000000000000000000005f82015250565b5f6111f2601383610de6565b91506111fd826111be565b602082019050919050565b5f6020820190508181035f83015261121f816111e6565b9050919050565b5f61123082610986565b915061123b83610986565b925082820190508082111561125357611252610e5e565b5b92915050565b61126281610986565b82525050565b5f60608201905061127b5f830186610ae8565b6112886020830185611259565b6112956040830184611259565b949350505050565b5f6020820190506112b05f830184611259565b92915050565b611d93806112c35f395ff3fe608060405234801561000f575f5ffd5b506004361061012a575f3560e01c8063715018a6116100ab578063a9059cbb1161006f578063a9059cbb146102e6578063dd62ed3e14610316578063f2fde38b14610346578063f9f92be414610362578063fe575a871461037e5761012a565b8063715018a61461027a57806375e3661e146102845780638456cb59146102a05780638da5cb5b146102aa57806395d89b41146102c85761012a565b8063355274ea116100f2578063355274ea146101e85780633f4ba83a1461020657806340c10f19146102105780635c975abb1461022c57806370a082311461024a5761012a565b806306fdde031461012e578063095ea7b31461014c57806318160ddd1461017c57806323b872dd1461019a578063313ce567146101ca575b5f5ffd5b6101366103ae565b60405161014391906116b2565b60405180910390f35b61016660048036038101906101619190611763565b61043e565b60405161017391906117bb565b60405180910390f35b610184610578565b60405161019191906117e3565b60405180910390f35b6101b460048036038101906101af91906117fc565b610581565b6040516101c191906117bb565b60405180910390f35b6101d26106c7565b6040516101df9190611867565b60405180910390f35b6101f06106dc565b6040516101fd91906117e3565b60405180910390f35b61020e6106e5565b005b61022a60048036038101906102259190611763565b6106f7565b005b61023461070d565b60405161024191906117bb565b60405180910390f35b610264600480360381019061025f9190611880565b610722565b60405161027191906117e3565b60405180910390f35b610282610768565b005b61029e60048036038101906102999190611880565b61077b565b005b6102a86108a6565b005b6102b26108b8565b6040516102bf91906118ba565b60405180910390f35b6102d06108df565b6040516102dd91906116b2565b60405180910390f35b61030060048036038101906102fb9190611763565b61096f565b60405161030d91906117bb565b60405180910390f35b610330600480360381019061032b91906118d3565b610aa9565b60405161033d91906117e3565b60405180910390f35b610360600480360381019061035b9190611880565b610b2b565b005b61037c60048036038101906103779190611880565b610baf565b005b61039860048036038101906103939190611880565b610cdc565b6040516103a591906117bb565b60405180910390f35b6060600580546103bd9061193e565b80601f01602080910402602001604051908101604052809291908181526020018280546103e99061193e565b80156104345780601f1061040b57610100808354040283529160200191610434565b820191905f5260205f20905b81548152906001019060200180831161041757829003601f168201915b5050505050905090565b5f3360035f8273ffffffffffffffffffffffffffffffffffffffff1673ffffffffffffffffffffffffffffffffffffffff1681526020019081526020015f205f9054906101000a900460ff16156104ca576040517f08c379a00000000000000000000000000000000000000000000000000000000081526004016104c1906119b8565b60405180910390fd5b8360035f8273ffffffffffffffffffffffffffffffffffffffff1673ffffffffffffffffffffffffffffffffffffffff1681526020019081526020015f205f9054906101000a900460ff1615610555576040517f08c379a000000000000000000000000000000000000000000000000000000000815260040161054c906119b8565b60405180910390fd5b5f61055e610d2e565b905061056b818787610d35565b6001935050505092915050565b5f600454905090565b5f8360035f8273ffffffffffffffffffffffffffffffffffffffff1673ffffffffffffffffffffffffffffffffffffffff1681526020019081526020015f205f9054906101000a900460ff161561060d576040517f08c379a0000000000000000000000000000000000000000000000000000000008152600401610604906119b8565b60405180910390fd5b8360035f8273ffffffffffffffffffffffffffffffffffffffff1673ffffffffffffffffffffffffffffffffffffffff1681526020019081526020015f205f9054906101000a900460ff1615610698576040517f08c379a000000000000000000000000000000000000000000000000000000000815260040161068f906119b8565b60405180910390fd5b5f6106a1610d2e565b90506106ae878287610d47565b6106b9878787610dda565b600193505050509392505050565b5f60075f9054906101000a900460ff16905090565b5f600854905090565b6106ed610eca565b6106f5610f51565b565b6106ff610eca565b6107098282610fb2565b5050565b5f5f60149054906101000a900460ff16905090565b5f60015f8373ffffffffffffffffffffffffffffffffffffffff1673ffffffffffffffffffffffffffffffffffffffff1681526020019081526020015f20549050919050565b610770610eca565b6107795f6110ab565b565b610783610eca565b60035f8273ffffffffffffffffffffffffffffffffffffffff1673ffffffffffffffffffffffffffffffffffffffff1681526020019081526020015f205f9054906101000a900460ff1661080c576040517f08c379a000000000000000000000000000000000000000000000000000000000815260040161080390611a20565b60405180910390fd5b5f60035f8373ffffffffffffffffffffffffffffffffffffffff1673ffffffffffffffffffffffffffffffffffffffff1681526020019081526020015f205f6101000a81548160ff0219169083151502179055508073ffffffffffffffffffffffffffffffffffffffff167f7534c63860313c46c473e4e98328f37017e9674e2162faf1a3ad7a96236c3b7b60405160405180910390a250565b6108ae610eca565b6108b661116c565b565b5f5f5f9054906101000a900473ffffffffffffffffffffffffffffffffffffffff16905090565b6060600680546108ee9061193e565b80601f016020809104026020016040519081016040528092919081815260200182805461091a9061193e565b80156109655780601f1061093c57610100808354040283529160200191610965565b820191905f5260205f20905b81548152906001019060200180831161094857829003601f168201915b5050505050905090565b5f3360035f8273ffffffffffffffffffffffffffffffffffffffff1673ffffffffffffffffffffffffffffffffffffffff1681526020019081526020015f205f9054906101000a900460ff16156109fb576040517f08c379a00000000000000000000000000000000000000000000000000000000081526004016109f2906119b8565b60405180910390fd5b8360035f8273ffffffffffffffffffffffffffffffffffffffff1673ffffffffffffffffffffffffffffffffffffffff1681526020019081526020015f205f9054906101000a900460ff1615610a86576040517f08c379a0000000000000000000000000000000000000000000000000000000008152600401610a7d906119b8565b60405180910390fd5b5f610a8f610d2e565b9050610a9c818787610dda565b6001935050505092915050565b5f60025f8473ffffffffffffffffffffffffffffffffffffffff1673ffffffffffffffffffffffffffffffffffffffff1681526020019081526020015f205f8373ffffffffffffffffffffffffffffffffffffffff1673ffffffffffffffffffffffffffffffffffffffff1681526020019081526020015f2054905092915050565b610b33610eca565b5f73ffffffffffffffffffffffffffffffffffffffff168173ffffffffffffffffffffffffffffffffffffffff1603610ba3575f6040517f1e4fbdf7000000000000000000000000000000000000000000000000000000008152600401610b9a91906118ba565b60405180910390fd5b610bac816110ab565b50565b610bb7610eca565b60035f8273ffffffffffffffffffffffffffffffffffffffff1673ffffffffffffffffffffffffffffffffffffffff1681526020019081526020015f205f9054906101000a900460ff1615610c41576040517f08c379a0000000000000000000000000000000000000000000000000000000008152600401610c3890611a88565b60405180910390fd5b600160035f8373ffffffffffffffffffffffffffffffffffffffff1673ffffffffffffffffffffffffffffffffffffffff1681526020019081526020015f205f6101000a81548160ff0219169083151502179055508073ffffffffffffffffffffffffffffffffffffffff167fffa4e6181777692565cf28528fc88fd1516ea86b56da075235fa575af6a4b85560405160405180910390a250565b5f60035f8373ffffffffffffffffffffffffffffffffffffffff1673ffffffffffffffffffffffffffffffffffffffff1681526020019081526020015f205f9054906101000a900460ff169050919050565b5f33905090565b610d4283838360016111ce565b505050565b5f610d528484610aa9565b90507fffffffffffffffffffffffffffffffffffffffffffffffffffffffffffffffff811015610dd45781811015610dc5578281836040517ffb8f41b2000000000000000000000000000000000000000000000000000000008152600401610dbc93929190611aa6565b60405180910390fd5b610dd384848484035f6111ce565b5b50505050565b5f73ffffffffffffffffffffffffffffffffffffffff168373ffffffffffffffffffffffffffffffffffffffff1603610e4a575f6040517f96c6fd1e000000000000000000000000000000000000000000000000000000008152600401610e4191906118ba565b60405180910390fd5b5f73ffffffffffffffffffffffffffffffffffffffff168273ffffffffffffffffffffffffffffffffffffffff1603610eba575f6040517fec442f05000000000000000000000000000000000000000000000000000000008152600401610eb191906118ba565b60405180910390fd5b610ec583838361139d565b505050565b610ed2610d2e565b73ffffffffffffffffffffffffffffffffffffffff16610ef06108b8565b73ffffffffffffffffffffffffffffffffffffffff1614610f4f57610f13610d2e565b6040517f118cdaa7000000000000000000000000000000000000000000000000000000008152600401610f4691906118ba565b60405180910390fd5b565b610f596115c1565b5f5f60146101000a81548160ff0219169083151502179055507f5db9ee0a495bf2e6ff9c91a7834c1ba4fdd244a5e8aa4e537bd38aeae4b073aa610f9b610d2e565b604051610fa891906118ba565b60405180910390a1565b610fba6106c7565b600a610fc69190611c37565b610fce6106dc565b610fd89190611c81565b81610fe1610578565b610feb9190611cc2565b111561102c576040517f08c379a000000000000000000000000000000000000000000000000000000000815260040161102390611d3f565b60405180910390fd5b5f73ffffffffffffffffffffffffffffffffffffffff168273ffffffffffffffffffffffffffffffffffffffff160361109c575f6040517fec442f0500000000000000000000000000000000000000000000000000000000815260040161109391906118ba565b60405180910390fd5b6110a75f838361139d565b5050565b5f5f5f9054906101000a900473ffffffffffffffffffffffffffffffffffffffff169050815f5f6101000a81548173ffffffffffffffffffffffffffffffffffffffff021916908373ffffffffffffffffffffffffffffffffffffffff1602179055508173ffffffffffffffffffffffffffffffffffffffff168173ffffffffffffffffffffffffffffffffffffffff167f8be0079c531659141344cd1fd0a4f28419497f9722a3daafe3b4186f6b6457e060405160405180910390a35050565b611174611601565b60015f60146101000a81548160ff0219169083151502179055507f62e78cea01bee320cd4e420270b5ea74000d11b0c9f74754ebdbfc544b05a2586111b7610d2e565b6040516111c491906118ba565b60405180910390a1565b5f73ffffffffffffffffffffffffffffffffffffffff168473ffffffffffffffffffffffffffffffffffffffff160361123e575f6040517fe602df0500000000000000000000000000000000000000000000000000000000815260040161123591906118ba565b60405180910390fd5b5f73ffffffffffffffffffffffffffffffffffffffff168373ffffffffffffffffffffffffffffffffffffffff16036112ae575f6040517f94280d620000000000000000000000000000000000000000000000000000000081526004016112a591906118ba565b60405180910390fd5b8160025f8673ffffffffffffffffffffffffffffffffffffffff1673ffffffffffffffffffffffffffffffffffffffff1681526020019081526020015f205f8573ffffffffffffffffffffffffffffffffffffffff1673ffffffffffffffffffffffffffffffffffffffff1681526020019081526020015f20819055508015611397578273ffffffffffffffffffffffffffffffffffffffff168473ffffffffffffffffffffffffffffffffffffffff167f8c5be1e5ebec7d5bd14f71427d1e84f3dd0314c0f7b2291e5b200ac8c7c3b9258460405161138e91906117e3565b60405180910390a35b50505050565b6113a5611601565b5f73ffffffffffffffffffffffffffffffffffffffff168373ffffffffffffffffffffffffffffffffffffffff16036113f5578060045f8282546113e99190611cc2565b925050819055506114c5565b5f60015f8573ffffffffffffffffffffffffffffffffffffffff1673ffffffffffffffffffffffffffffffffffffffff1681526020019081526020015f205490508181101561147f578381836040517fe450d38c00000000000000000000000000000000000000000000000000000000815260040161147693929190611aa6565b60405180910390fd5b81810360015f8673ffffffffffffffffffffffffffffffffffffffff1673ffffffffffffffffffffffffffffffffffffffff1681526020019081526020015f2081905550505b5f73ffffffffffffffffffffffffffffffffffffffff168273ffffffffffffffffffffffffffffffffffffffff160361150c578060045f8282540392505081905550611557565b8060015f8473ffffffffffffffffffffffffffffffffffffffff1673ffffffffffffffffffffffffffffffffffffffff1681526020019081526020015f205f82825401925050819055505b8173ffffffffffffffffffffffffffffffffffffffff168373ffffffffffffffffffffffffffffffffffffffff167fddf252ad1be2c89b69c2b068fc378daa952ba7f163c4a11628f55a4df523b3ef836040516115b491906117e3565b60405180910390a3505050565b6115c961070d565b6115ff576040517f8dfc202b00000000000000000000000000000000000000000000000000000000815260040160405180910390fd5b565b61160961070d565b15611640576040517fd93c066500000000000000000000000000000000000000000000000000000000815260040160405180910390fd5b565b5f81519050919050565b5f82825260208201905092915050565b8281835e5f83830152505050565b5f601f19601f8301169050919050565b5f61168482611642565b61168e818561164c565b935061169e81856020860161165c565b6116a78161166a565b840191505092915050565b5f6020820190508181035f8301526116ca818461167a565b905092915050565b5f5ffd5b5f73ffffffffffffffffffffffffffffffffffffffff82169050919050565b5f6116ff826116d6565b9050919050565b61170f816116f5565b8114611719575f5ffd5b50565b5f8135905061172a81611706565b92915050565b5f819050919050565b61174281611730565b811461174c575f5ffd5b50565b5f8135905061175d81611739565b92915050565b5f5f60408385031215611779576117786116d2565b5b5f6117868582860161171c565b92505060206117978582860161174f565b9150509250929050565b5f8115159050919050565b6117b5816117a1565b82525050565b5f6020820190506117ce5f8301846117ac565b92915050565b6117dd81611730565b82525050565b5f6020820190506117f65f8301846117d4565b92915050565b5f5f5f60608486031215611813576118126116d2565b5b5f6118208682870161171c565b93505060206118318682870161171c565b92505060406118428682870161174f565b9150509250925092565b5f60ff82169050919050565b6118618161184c565b82525050565b5f60208201905061187a5f830184611858565b92915050565b5f60208284031215611895576118946116d2565b5b5f6118a28482850161171c565b91505092915050565b6118b4816116f5565b82525050565b5f6020820190506118cd5f8301846118ab565b92915050565b5f5f604083850312156118e9576118e86116d2565b5b5f6118f68582860161171c565b92505060206119078582860161171c565b9150509250929050565b7f4e487b71000000000000000000000000000000000000000000000000000000005f52602260045260245ffd5b5f600282049050600182168061195557607f821691505b60208210810361196857611967611911565b5b50919050565b7f4164647265737320697320626c61636b6c6973746564000000000000000000005f82015250565b5f6119a260168361164c565b91506119ad8261196e565b602082019050919050565b5f6020820190508181035f8301526119cf81611996565b9050919050565b7f41646472657373206973206e6f7420626c61636b6c69737465640000000000005f82015250565b5f611a0a601a8361164c565b9150611a15826119d6565b602082019050919050565b5f6020820190508181035f830152611a37816119fe565b9050919050565b7f4164647265737320697320616c726561647920626c61636b6c697374656400005f82015250565b5f611a72601e8361164c565b9150611a7d82611a3e565b602082019050919050565b5f6020820190508181035f830152611a9f81611a66565b9050919050565b5f606082019050611ab95f8301866118ab565b611ac660208301856117d4565b611ad360408301846117d4565b949350505050565b7f4e487b71000000000000000000000000000000000000000000000000000000005f52601160045260245ffd5b5f8160011c9050919050565b5f5f8291508390505b6001851115611b5d57808604811115611b3957611b38611adb565b5b6001851615611b485780820291505b8081029050611b5685611b08565b9450611b1d565b94509492505050565b5f82611b755760019050611c30565b81611b82575f9050611c30565b8160018114611b985760028114611ba257611bd1565b6001915050611c30565b60ff841115611bb457611bb3611adb565b5b8360020a915084821115611bcb57611bca611adb565b5b50611c30565b5060208310610133831016604e8410600b8410161715611c065782820a905083811115611c0157611c00611adb565b5b611c30565b611c138484846001611b14565b92509050818404811115611c2a57611c29611adb565b5b81810290505b9392505050565b5f611c4182611730565b9150611c4c8361184c565b9250611c797fffffffffffffffffffffffffffffffffffffffffffffffffffffffffffffffff8484611b66565b905092915050565b5f611c8b82611730565b9150611c9683611730565b9250828202611ca481611730565b91508282048414831517611cbb57611cba611adb565b5b5092915050565b5f611ccc82611730565b9150611cd783611730565b9250828201905080821115611cef57611cee611adb565b5b92915050565b7f45524332304361707065643a20636170206578636565646564000000000000005f82015250565b5f611d2960198361164c565b9150611d3482611cf5565b602082019050919050565b5f6020820190508181035f830152611d5681611d1d565b905091905056fea26469706673582212201a2e0cdc67dffdd181f2704e5733c6ab4d9f8248bc3e2fb7f228f789a49c7ec664736f6c634300081c0033","linkReferences":{}},"methodIdentifiers":{"allowance(address,address)":"dd62ed3e","approve(address,uint256)":"095ea7b3","balanceOf(address)":"70a08231","blacklist(address)":"f9f92be4","cap()":"355274ea","decimals()":"313ce567","isBlacklisted(address)":"fe575a87","mint(address,uint256)":"40c10f19","name()":"06fdde03","owner()":"8da5cb5b","pause()":"8456cb59","paused()":"5c975abb","renounceOwnership()":"715018a6","symbol()":"95d89b41","totalSupply()":"18160ddd","transfer(address,uint256)":"a9059cbb","transferFrom(address,address,uint256)":"23b872dd","transferOwnership(address)":"f2fde38b","unblacklist(address)":"75e3661e","unpause()":"3f4ba83a"},"id":41}