{"abi":[{"type":"constructor","inputs":[{"name":"name_","type":"string","internalType":"string"},{"name":"symbol_","type":"string","internalType":"string"},{"name":"decimals_","type":"uint8","internalType":"uint8"},{"name":"totalSupply_","type":"uint256","internalType":"uint256"},{"name":"cap_","type":"uint256","internalType":"uint256"},{"name":"serviceFeeReceiver_","type":"address","internalType":"address"},{"name":"serviceFee_","type":"uint256","internalType":"uint256"}],"stateMutability":"payable"},{"type":"function","name":"allowance","inputs":[{"name":"owner","type":"address","internalType":"address"},{"name":"spender","type":"address","internalType":"address"}],"outputs":[{"name":"","type":"uint256","internalType":"uint256"}],"stateMutability":"view"},{"type":"function","name":"approve","inputs":[{"name":"spender","type":"address","internalType":"address"},{"name":"value","type":"uint256","internalType":"uint256"}],"outputs":[{"name":"","type":"bool","internalType":"bool"}],"stateMutability":"nonpayable"},{"type":"function","name":"balanceOf","inputs":[{"name":"account","type":"address","internalType":"address"}],"outputs":[{"name":"","type":"uint256","internalType":"uint256"}],"stateMutability":"view"},{"type":"function","name":"blacklist","inputs":[{"name":"account","type":"address","internalType":"address"}],"outputs":[],"stateMutability":"nonpayable"},{"type":"function","name":"cap","inputs":[],"outputs":[{"name":"","type":"uint256","internalType":"uint256"}],"stateMutability":"view"},{"type":"function","name":"decimals","inputs":[],"outputs":[{"name":"","type":"uint8","internalType":"uint8"}],"stateMutability":"view"},{"type":"function","name":"isBlacklisted","inputs":[{"name":"account","type":"address","internalType":"address"}],"outputs":[{"name":"","type":"bool","internalType":"bool"}],"stateMutability":"view"},{"type":"function","name":"mint","inputs":[{"name":"to","type":"address","internalType":"address"},{"name":"amount","type":"uint256","internalType":"uint256"}],"outputs":[],"stateMutability":"nonpayable"},{"type":"function","name":"name","inputs":[],"outputs":[{"name":"","type":"string","internalType":"string"}],"stateMutability":"view"},{"type":"function","name":"owner","inputs":[],"outputs":[{"name":"","type":"address","internalType":"address"}],"stateMutability":"view"},{"type":"function","name":"pause","inputs":[],"outputs":[],"stateMutability":"nonpayable"},{"type":"function","name":"paused","inputs":[],"outputs":[{"name":"","type":"bool","internalType":"bool"}],"stateMutability":"view"},{"type":"function","name":"renounceOwnership","inputs":[],"outputs":[],"stateMutability":"nonpayable"},{"type":"function","name":"symbol","inputs":[],"outputs":[{"name":"","type":"string","internalType":"string"}],"stateMutability":"view"},{"type":"function","name":"totalSupply","inputs":[],"outputs":[{"name":"","type":"uint256","internalType":"uint256"}],"stateMutability":"view"},{"type":"function","name":"transfer","inputs":[{"name":"to","type":"address","internalType":"address"},{"name":"value","type":"uint256","internalType":"uint256"}],"outputs":[{"name":"","type":"bool","internalType":"bool"}],"stateMutability":"nonpayable"},{"type":"function","name":"transferFrom","inputs":[{"name":"from","type":"address","internalType":"address"},{"name":"to","type":"address","internalType":"address"},{"name":"value","type":"uint256","internalType":"uint256"}],"outputs":[{"name":"","type":"bool","internalType":"bool"}],"stateMutability":"nonpayable"},{"type":"function","name":"transferOwnership","inputs":[{"name":"newOwner","type":"address","internalType":"address"}],"outputs":[],"stateMutability":"nonpayable"},{"type":"function","name":"unblacklist","inputs":[{"name":"account","type":"address","internalType":"address"}],"outputs":[],"stateMutability":"nonpayable"},{"type":"function","name":"unpause","inputs":[],"outputs":[],"stateMutability":"nonpayable"},{"type":"event","name":"Approval","inputs":[{"name":"owner","type":"address","indexed":true,"internalType":"address"},{"name":"spender","type":"address","indexed":true,"internalType":"address"},{"name":"value","type":"uint256","indexed":false,"internalType":"uint256"}],"anonymous":false},{"type":"event","name":"Blacklisted","inputs":[{"name":"account","type":"address","indexed":true,"internalType":"address"}],"anonymous":false},{"type":"event","name":"OwnershipTransferred","inputs":[{"name":"previousOwner","type":"address","indexed":true,"internalType":"address"},{"name":"newOwner","type":"address","indexed":true,"internalType":"address"}],"anonymous":false},{"type":"event","name":"Paused","inputs":[{"name":"account","type":"address","indexed":false,"internalType":"address"}],"anonymous":false},{"type":"event","name":"Transfer","inputs":[{"name":"from","type":"address","indexed":true,"internalType":"address"},{"name":"to","type":"address","indexed":true,"internalType":"address"},{"name":"value","type":"uint256","indexed":false,"internalType":"uint256"}],"anonymous":false},{"type":"event","name":"Unblacklisted","inputs":[{"name":"account","type":"address","indexed":true,"internalType":"address"}],"anonymous":false},{"type":"event","name":"Unpaused","inputs":[{"name":"account","type":"address","indexed":false,"internalType":"address"}],"anonymous":false},{"type":"error","name":"ERC20InsufficientAllowance","inputs":[{"name":"spender","type":"address","internalType":"address"},{"name":"allowance","type":"uint256","internalType":"uint256"},{"name":"needed","type":"uint256","internalType":"uint256"}]},{"type":"error","name":"ERC20InsufficientBalance","inputs":[{"name":"sender","type":"address","internalType":"address"},{"name":"balance","type":"uint256","internalType":"uint256"},{"name":"needed","type":"uint256","internalType":"uint256"}]},{"type":"error","name":"ERC20InvalidApprover","inputs":[{"name":"approver","type":"address","internalType":"address"}]},{"type":"error","name":"ERC20InvalidReceiver","inputs":[{"name":"receiver","type":"address","internalType":"address"}]},{"type":"error","name":"ERC20InvalidSender","inputs":[{"name":"sender","type":"address","internalType":"address"}]},{"type":"error","name":"ERC20InvalidSpender","inputs":[{"name":"spender","type":"address","internalType":"address"}]},{"type":"error","name":"EnforcedPause","inputs":[]},{"type":"error","name":"ExpectedPause","inputs":[]},{"type":"error","name":"OwnableInvalidOwner","inputs":[{"name":"owner","type":"address","internalType":"address"}]},{"type":"error","name":"OwnableUnauthorizedAccount","inputs":[{"name":"account","type":"address","internalType":"address"}]}],"bytecode":{"object":"0x6080604052604051620031cd380380620031cd833981810160405281019062000029919062000ab3565b335f73ffffffffffffffffffffffffffffffffffffffff168173ffffffffffffffffffffffffffffffffffffffff16036200009d575f6040517f1e4fbdf700000000000000000000000000000000000000000000000000000000815260040162000094919062000bb0565b60405180910390fd5b620000ae816200039060201b60201c565b505f8060146101000a81548160ff0219169083151502179055508660059081620000d9919062000df9565b508560069081620000eb919062000df9565b508460075f6101000a81548160ff021916908360ff1602179055505f83116200014b576040517f08c379a0000000000000000000000000000000000000000000000000000000008152600401620001429062000f3b565b60405180910390fd5b82600881905550620001626200045160201b60201c565b600a620001709190620010d8565b620001806200046660201b60201c565b6200018c919062001128565b841115620001d1576040517f08c379a0000000000000000000000000000000000000000000000000000000008152600401620001c890620011c0565b60405180910390fd5b8034101562000217576040517f08c379a00000000000000000000000000000000000000000000000000000000081526004016200020e906200122e565b60405180910390fd5b5f73ffffffffffffffffffffffffffffffffffffffff168273ffffffffffffffffffffffffffffffffffffffff160362000288576040517f08c379a00000000000000000000000000000000000000000000000000000000081526004016200027f906200129c565b60405180910390fd5b5f8273ffffffffffffffffffffffffffffffffffffffff1682604051620002af90620012ed565b5f6040518083038185875af1925050503d805f8114620002eb576040519150601f19603f3d011682016040523d82523d5f602084013e620002f0565b606091505b505090508062000337576040517f08c379a00000000000000000000000000000000000000000000000000000000081526004016200032e9062001351565b60405180910390fd5b620003826200034b6200046f60201b60201c565b6200035b6200045160201b60201c565b600a620003699190620010d8565b8762000376919062001128565b6200049660201b60201c565b505050505050505062001412565b5f805f9054906101000a900473ffffffffffffffffffffffffffffffffffffffff169050815f806101000a81548173ffffffffffffffffffffffffffffffffffffffff021916908373ffffffffffffffffffffffffffffffffffffffff1602179055508173ffffffffffffffffffffffffffffffffffffffff168173ffffffffffffffffffffffffffffffffffffffff167f8be0079c531659141344cd1fd0a4f28419497f9722a3daafe3b4186f6b6457e060405160405180910390a35050565b5f60075f9054906101000a900460ff16905090565b5f600854905090565b5f805f9054906101000a900473ffffffffffffffffffffffffffffffffffffffff16905090565b620004a66200045160201b60201c565b600a620004b49190620010d8565b620004c46200046660201b60201c565b620004d0919062001128565b81620004e1620005bb60201b60201c565b620004ed919062001371565b111562000531576040517f08c379a00000000000000000000000000000000000000000000000000000000081526004016200052890620011c0565b60405180910390fd5b5f73ffffffffffffffffffffffffffffffffffffffff168273ffffffffffffffffffffffffffffffffffffffff1603620005a4575f6040517fec442f050000000000000000000000000000000000000000000000000000000081526004016200059b919062000bb0565b60405180910390fd5b620005b75f8383620005c460201b60201c565b5050565b5f600454905090565b620005d4620007fb60201b60201c565b5f73ffffffffffffffffffffffffffffffffffffffff168373ffffffffffffffffffffffffffffffffffffffff160362000628578060045f8282546200061b919062001371565b92505081905550620006fb565b5f60015f8573ffffffffffffffffffffffffffffffffffffffff1673ffffffffffffffffffffffffffffffffffffffff1681526020019081526020015f2054905081811015620006b5578381836040517fe450d38c000000000000000000000000000000000000000000000000000000008152600401620006ac93929190620013bc565b60405180910390fd5b81810360015f8673ffffffffffffffffffffffffffffffffffffffff1673ffffffffffffffffffffffffffffffffffffffff1681526020019081526020015f2081905550505b5f73ffffffffffffffffffffffffffffffffffffffff168273ffffffffffffffffffffffffffffffffffffffff160362000744578060045f82825403925050819055506200078f565b8060015f8473ffffffffffffffffffffffffffffffffffffffff1673ffffffffffffffffffffffffffffffffffffffff1681526020019081526020015f205f82825401925050819055505b8173ffffffffffffffffffffffffffffffffffffffff168373ffffffffffffffffffffffffffffffffffffffff167fddf252ad1be2c89b69c2b068fc378daa952ba7f163c4a11628f55a4df523b3ef83604051620007ee9190620013f7565b60405180910390a3505050565b6200080b6200084560201b60201c565b1562000843576040517fd93c066500000000000000000000000000000000000000000000000000000000815260040160405180910390fd5b565b5f8060149054906101000a900460ff16905090565b5f604051905090565b5f80fd5b5f80fd5b5f80fd5b5f80fd5b5f601f19601f8301169050919050565b7f4e487b71000000000000000000000000000000000000000000000000000000005f52604160045260245ffd5b620008bb8262000873565b810181811067ffffffffffffffff82111715620008dd57620008dc62000883565b5b80604052505050565b5f620008f16200085a565b9050620008ff8282620008b0565b919050565b5f67ffffffffffffffff82111562000921576200092062000883565b5b6200092c8262000873565b9050602081019050919050565b5f5b83811015620009585780820151818401526020810190506200093b565b5f8484015250505050565b5f62000979620009738462000904565b620008e6565b9050828152602081018484840111156200099857620009976200086f565b5b620009a584828562000939565b509392505050565b5f82601f830112620009c457620009c36200086b565b5b8151620009d684826020860162000963565b91505092915050565b5f60ff82169050919050565b620009f681620009df565b811462000a01575f80fd5b50565b5f8151905062000a1481620009eb565b92915050565b5f819050919050565b62000a2e8162000a1a565b811462000a39575f80fd5b50565b5f8151905062000a4c8162000a23565b92915050565b5f73ffffffffffffffffffffffffffffffffffffffff82169050919050565b5f62000a7d8262000a52565b9050919050565b62000a8f8162000a71565b811462000a9a575f80fd5b50565b5f8151905062000aad8162000a84565b92915050565b5f805f805f805f60e0888a03121562000ad15762000ad062000863565b5b5f88015167ffffffffffffffff81111562000af15762000af062000867565b5b62000aff8a828b01620009ad565b975050602088015167ffffffffffffffff81111562000b235762000b2262000867565b5b62000b318a828b01620009ad565b965050604062000b448a828b0162000a04565b955050606062000b578a828b0162000a3c565b945050608062000b6a8a828b0162000a3c565b93505060a062000b7d8a828b0162000a9d565b92505060c062000b908a828b0162000a3c565b91505092959891949750929550565b62000baa8162000a71565b82525050565b5f60208201905062000bc55f83018462000b9f565b92915050565b5f81519050919050565b7f4e487b71000000000000000000000000000000000000000000000000000000005f52602260045260245ffd5b5f600282049050600182168062000c1a57607f821691505b60208210810362000c305762000c2f62000bd5565b5b50919050565b5f819050815f5260205f209050919050565b5f6020601f8301049050919050565b5f82821b905092915050565b5f6008830262000c947fffffffffffffffffffffffffffffffffffffffffffffffffffffffffffffffff8262000c57565b62000ca0868362000c57565b95508019841693508086168417925050509392505050565b5f819050919050565b5f62000ce162000cdb62000cd58462000a1a565b62000cb8565b62000a1a565b9050919050565b5f819050919050565b62000cfc8362000cc1565b62000d1462000d0b8262000ce8565b84845462000c63565b825550505050565b5f90565b62000d2a62000d1c565b62000d3781848462000cf1565b505050565b5b8181101562000d5e5762000d525f8262000d20565b60018101905062000d3d565b5050565b601f82111562000dad5762000d778162000c36565b62000d828462000c48565b8101602085101562000d92578190505b62000daa62000da18562000c48565b83018262000d3c565b50505b505050565b5f82821c905092915050565b5f62000dcf5f198460080262000db2565b1980831691505092915050565b5f62000de9838362000dbe565b9150826002028217905092915050565b62000e048262000bcb565b67ffffffffffffffff81111562000e205762000e1f62000883565b5b62000e2c825462000c02565b62000e3982828562000d62565b5f60209050601f83116001811462000e6f575f841562000e5a578287015190505b62000e66858262000ddc565b86555062000ed5565b601f19841662000e7f8662000c36565b5f5b8281101562000ea85784890151825560018201915060208501945060208101905062000e81565b8683101562000ec8578489015162000ec4601f89168262000dbe565b8355505b6001600288020188555050505b505050505050565b5f82825260208201905092915050565b7f4361702073686f756c642062652067726561746572207468616e2030000000005f82015250565b5f62000f23601c8362000edd565b915062000f308262000eed565b602082019050919050565b5f6020820190508181035f83015262000f548162000f15565b9050919050565b7f4e487b71000000000000000000000000000000000000000000000000000000005f52601160045260245ffd5b5f8160011c9050919050565b5f808291508390505b600185111562000fe55780860481111562000fbd5762000fbc62000f5b565b5b600185161562000fcd5780820291505b808102905062000fdd8562000f88565b945062000f9d565b94509492505050565b5f8262000fff5760019050620010d1565b816200100e575f9050620010d1565b8160018114620010275760028114620010325762001068565b6001915050620010d1565b60ff84111562001047576200104662000f5b565b5b8360020a91508482111562001061576200106062000f5b565b5b50620010d1565b5060208310610133831016604e8410600b8410161715620010a25782820a9050838111156200109c576200109b62000f5b565b5b620010d1565b620010b1848484600162000f94565b92509050818404811115620010cb57620010ca62000f5b565b5b81810290505b9392505050565b5f620010e48262000a1a565b9150620010f183620009df565b9250620011207fffffffffffffffffffffffffffffffffffffffffffffffffffffffffffffffff848462000fee565b905092915050565b5f620011348262000a1a565b9150620011418362000a1a565b9250828202620011518162000a1a565b915082820484148315176200116b576200116a62000f5b565b5b5092915050565b7f45524332304361707065643a20636170206578636565646564000000000000005f82015250565b5f620011a860198362000edd565b9150620011b58262001172565b602082019050919050565b5f6020820190508181035f830152620011d9816200119a565b9050919050565b7f496e73756666696369656e742066656520616d6f756e742073656e74000000005f82015250565b5f62001216601c8362000edd565b91506200122382620011e0565b602082019050919050565b5f6020820190508181035f830152620012478162001208565b9050919050565b7f496e76616c6964206665652072656365697665722061646472657373000000005f82015250565b5f62001284601c8362000edd565b915062001291826200124e565b602082019050919050565b5f6020820190508181035f830152620012b58162001276565b9050919050565b5f81905092915050565b50565b5f620012d65f83620012bc565b9150620012e382620012c6565b5f82019050919050565b5f620012f982620012c9565b9150819050919050565b7f466565207472616e73666572206661696c6564000000000000000000000000005f82015250565b5f6200133960138362000edd565b9150620013468262001303565b602082019050919050565b5f6020820190508181035f8301526200136a816200132b565b9050919050565b5f6200137d8262000a1a565b91506200138a8362000a1a565b9250828201905080821115620013a557620013a462000f5b565b5b92915050565b620013b68162000a1a565b82525050565b5f606082019050620013d15f83018662000b9f565b620013e06020830185620013ab565b620013ef6040830184620013ab565b949350505050565b5f6020820190506200140c5f830184620013ab565b92915050565b611dad80620014205f395ff3fe608060405234801561000f575f80fd5b506004361061012a575f3560e01c8063715018a6116100ab578063a9059cbb1161006f578063a9059cbb146102e6578063dd62ed3e14610316578063f2fde38b14610346578063f9f92be414610362578063fe575a871461037e5761012a565b8063715018a61461027a57806375e3661e146102845780638456cb59146102a05780638da5cb5b146102aa57806395d89b41146102c85761012a565b8063355274ea116100f2578063355274ea146101e85780633f4ba83a1461020657806340c10f19146102105780635c975abb1461022c57806370a082311461024a5761012a565b806306fdde031461012e578063095ea7b31461014c57806318160ddd1461017c57806323b872dd1461019a578063313ce567146101ca575b5f80fd5b6101366103ae565b60405161014391906116cc565b60405180910390f35b6101666004803603810190610161919061177d565b61043e565b60405161017391906117d5565b60405180910390f35b610184610578565b60405161019191906117fd565b60405180910390f35b6101b460048036038101906101af9190611816565b610581565b6040516101c191906117d5565b60405180910390f35b6101d26106c7565b6040516101df9190611881565b60405180910390f35b6101f06106dc565b6040516101fd91906117fd565b60405180910390f35b61020e6106e5565b005b61022a6004803603810190610225919061177d565b6106f7565b005b61023461070d565b60405161024191906117d5565b60405180910390f35b610264600480360381019061025f919061189a565b610722565b60405161027191906117fd565b60405180910390f35b610282610768565b005b61029e6004803603810190610299919061189a565b61077b565b005b6102a86108a6565b005b6102b26108b8565b6040516102bf91906118d4565b60405180910390f35b6102d06108df565b6040516102dd91906116cc565b60405180910390f35b61030060048036038101906102fb919061177d565b61096f565b60405161030d91906117d5565b60405180910390f35b610330600480360381019061032b91906118ed565b610aa9565b60405161033d91906117fd565b60405180910390f35b610360600480360381019061035b919061189a565b610b2b565b005b61037c6004803603810190610377919061189a565b610baf565b005b6103986004803603810190610393919061189a565b610cdc565b6040516103a591906117d5565b60405180910390f35b6060600580546103bd90611958565b80601f01602080910402602001604051908101604052809291908181526020018280546103e990611958565b80156104345780601f1061040b57610100808354040283529160200191610434565b820191905f5260205f20905b81548152906001019060200180831161041757829003601f168201915b5050505050905090565b5f3360035f8273ffffffffffffffffffffffffffffffffffffffff1673ffffffffffffffffffffffffffffffffffffffff1681526020019081526020015f205f9054906101000a900460ff16156104ca576040517f08c379a00000000000000000000000000000000000000000000000000000000081526004016104c1906119d2565b60405180910390fd5b8360035f8273ffffffffffffffffffffffffffffffffffffffff1673ffffffffffffffffffffffffffffffffffffffff1681526020019081526020015f205f9054906101000a900460ff1615610555576040517f08c379a000000000000000000000000000000000000000000000000000000000815260040161054c906119d2565b60405180910390fd5b5f61055e610d2e565b905061056b818787610d35565b6001935050505092915050565b5f600454905090565b5f8360035f8273ffffffffffffffffffffffffffffffffffffffff1673ffffffffffffffffffffffffffffffffffffffff1681526020019081526020015f205f9054906101000a900460ff161561060d576040517f08c379a0000000000000000000000000000000000000000000000000000000008152600401610604906119d2565b60405180910390fd5b8360035f8273ffffffffffffffffffffffffffffffffffffffff1673ffffffffffffffffffffffffffffffffffffffff1681526020019081526020015f205f9054906101000a900460ff1615610698576040517f08c379a000000000000000000000000000000000000000000000000000000000815260040161068f906119d2565b60405180910390fd5b5f6106a1610d2e565b90506106ae878287610d47565b6106b9878787610dda565b600193505050509392505050565b5f60075f9054906101000a900460ff16905090565b5f600854905090565b6106ed610eca565b6106f5610f51565b565b6106ff610eca565b6107098282610fb2565b5050565b5f8060149054906101000a900460ff16905090565b5f60015f8373ffffffffffffffffffffffffffffffffffffffff1673ffffffffffffffffffffffffffffffffffffffff1681526020019081526020015f20549050919050565b610770610eca565b6107795f6110ab565b565b610783610eca565b60035f8273ffffffffffffffffffffffffffffffffffffffff1673ffffffffffffffffffffffffffffffffffffffff1681526020019081526020015f205f9054906101000a900460ff1661080c576040517f08c379a000000000000000000000000000000000000000000000000000000000815260040161080390611a3a565b60405180910390fd5b5f60035f8373ffffffffffffffffffffffffffffffffffffffff1673ffffffffffffffffffffffffffffffffffffffff1681526020019081526020015f205f6101000a81548160ff0219169083151502179055508073ffffffffffffffffffffffffffffffffffffffff167f7534c63860313c46c473e4e98328f37017e9674e2162faf1a3ad7a96236c3b7b60405160405180910390a250565b6108ae610eca565b6108b661116c565b565b5f805f9054906101000a900473ffffffffffffffffffffffffffffffffffffffff16905090565b6060600680546108ee90611958565b80601f016020809104026020016040519081016040528092919081815260200182805461091a90611958565b80156109655780601f1061093c57610100808354040283529160200191610965565b820191905f5260205f20905b81548152906001019060200180831161094857829003601f168201915b5050505050905090565b5f3360035f8273ffffffffffffffffffffffffffffffffffffffff1673ffffffffffffffffffffffffffffffffffffffff1681526020019081526020015f205f9054906101000a900460ff16156109fb576040517f08c379a00000000000000000000000000000000000000000000000000000000081526004016109f2906119d2565b60405180910390fd5b8360035f8273ffffffffffffffffffffffffffffffffffffffff1673ffffffffffffffffffffffffffffffffffffffff1681526020019081526020015f205f9054906101000a900460ff1615610a86576040517f08c379a0000000000000000000000000000000000000000000000000000000008152600401610a7d906119d2565b60405180910390fd5b5f610a8f610d2e565b9050610a9c818787610dda565b6001935050505092915050565b5f60025f8473ffffffffffffffffffffffffffffffffffffffff1673ffffffffffffffffffffffffffffffffffffffff1681526020019081526020015f205f8373ffffffffffffffffffffffffffffffffffffffff1673ffffffffffffffffffffffffffffffffffffffff1681526020019081526020015f2054905092915050565b610b33610eca565b5f73ffffffffffffffffffffffffffffffffffffffff168173ffffffffffffffffffffffffffffffffffffffff1603610ba3575f6040517f1e4fbdf7000000000000000000000000000000000000000000000000000000008152600401610b9a91906118d4565b60405180910390fd5b610bac816110ab565b50565b610bb7610eca565b60035f8273ffffffffffffffffffffffffffffffffffffffff1673ffffffffffffffffffffffffffffffffffffffff1681526020019081526020015f205f9054906101000a900460ff1615610c41576040517f08c379a0000000000000000000000000000000000000000000000000000000008152600401610c3890611aa2565b60405180910390fd5b600160035f8373ffffffffffffffffffffffffffffffffffffffff1673ffffffffffffffffffffffffffffffffffffffff1681526020019081526020015f205f6101000a81548160ff0219169083151502179055508073ffffffffffffffffffffffffffffffffffffffff167fffa4e6181777692565cf28528fc88fd1516ea86b56da075235fa575af6a4b85560405160405180910390a250565b5f60035f8373ffffffffffffffffffffffffffffffffffffffff1673ffffffffffffffffffffffffffffffffffffffff1681526020019081526020015f205f9054906101000a900460ff169050919050565b5f33905090565b610d4283838360016111ce565b505050565b5f610d528484610aa9565b90507fffffffffffffffffffffffffffffffffffffffffffffffffffffffffffffffff811015610dd45781811015610dc5578281836040517ffb8f41b2000000000000000000000000000000000000000000000000000000008152600401610dbc93929190611ac0565b60405180910390fd5b610dd384848484035f6111ce565b5b50505050565b5f73ffffffffffffffffffffffffffffffffffffffff168373ffffffffffffffffffffffffffffffffffffffff1603610e4a575f6040517f96c6fd1e000000000000000000000000000000000000000000000000000000008152600401610e4191906118d4565b60405180910390fd5b5f73ffffffffffffffffffffffffffffffffffffffff168273ffffffffffffffffffffffffffffffffffffffff1603610eba575f6040517fec442f05000000000000000000000000000000000000000000000000000000008152600401610eb191906118d4565b60405180910390fd5b610ec583838361139d565b505050565b610ed2610d2e565b73ffffffffffffffffffffffffffffffffffffffff16610ef06108b8565b73ffffffffffffffffffffffffffffffffffffffff1614610f4f57610f13610d2e565b6040517f118cdaa7000000000000000000000000000000000000000000000000000000008152600401610f4691906118d4565b60405180910390fd5b565b610f596115c1565b5f8060146101000a81548160ff0219169083151502179055507f5db9ee0a495bf2e6ff9c91a7834c1ba4fdd244a5e8aa4e537bd38aeae4b073aa610f9b610d2e565b604051610fa891906118d4565b60405180910390a1565b610fba6106c7565b600a610fc69190611c51565b610fce6106dc565b610fd89190611c9b565b81610fe1610578565b610feb9190611cdc565b111561102c576040517f08c379a000000000000000000000000000000000000000000000000000000000815260040161102390611d59565b60405180910390fd5b5f73ffffffffffffffffffffffffffffffffffffffff168273ffffffffffffffffffffffffffffffffffffffff160361109c575f6040517fec442f0500000000000000000000000000000000000000000000000000000000815260040161109391906118d4565b60405180910390fd5b6110a75f838361139d565b5050565b5f805f9054906101000a900473ffffffffffffffffffffffffffffffffffffffff169050815f806101000a81548173ffffffffffffffffffffffffffffffffffffffff021916908373ffffffffffffffffffffffffffffffffffffffff1602179055508173ffffffffffffffffffffffffffffffffffffffff168173ffffffffffffffffffffffffffffffffffffffff167f8be0079c531659141344cd1fd0a4f28419497f9722a3daafe3b4186f6b6457e060405160405180910390a35050565b611174611601565b60015f60146101000a81548160ff0219169083151502179055507f62e78cea01bee320cd4e420270b5ea74000d11b0c9f74754ebdbfc544b05a2586111b7610d2e565b6040516111c491906118d4565b60405180910390a1565b5f73ffffffffffffffffffffffffffffffffffffffff168473ffffffffffffffffffffffffffffffffffffffff160361123e575f6040517fe602df0500000000000000000000000000000000000000000000000000000000815260040161123591906118d4565b60405180910390fd5b5f73ffffffffffffffffffffffffffffffffffffffff168373ffffffffffffffffffffffffffffffffffffffff16036112ae575f6040517f94280d620000000000000000000000000000000000000000000000000000000081526004016112a591906118d4565b60405180910390fd5b8160025f8673ffffffffffffffffffffffffffffffffffffffff1673ffffffffffffffffffffffffffffffffffffffff1681526020019081526020015f205f8573ffffffffffffffffffffffffffffffffffffffff1673ffffffffffffffffffffffffffffffffffffffff1681526020019081526020015f20819055508015611397578273ffffffffffffffffffffffffffffffffffffffff168473ffffffffffffffffffffffffffffffffffffffff167f8c5be1e5ebec7d5bd14f71427d1e84f3dd0314c0f7b2291e5b200ac8c7c3b9258460405161138e91906117fd565b60405180910390a35b50505050565b6113a5611601565b5f73ffffffffffffffffffffffffffffffffffffffff168373ffffffffffffffffffffffffffffffffffffffff16036113f5578060045f8282546113e99190611cdc565b925050819055506114c5565b5f60015f8573ffffffffffffffffffffffffffffffffffffffff1673ffffffffffffffffffffffffffffffffffffffff1681526020019081526020015f205490508181101561147f578381836040517fe450d38c00000000000000000000000000000000000000000000000000000000815260040161147693929190611ac0565b60405180910390fd5b81810360015f8673ffffffffffffffffffffffffffffffffffffffff1673ffffffffffffffffffffffffffffffffffffffff1681526020019081526020015f2081905550505b5f73ffffffffffffffffffffffffffffffffffffffff168273ffffffffffffffffffffffffffffffffffffffff160361150c578060045f8282540392505081905550611557565b8060015f8473ffffffffffffffffffffffffffffffffffffffff1673ffffffffffffffffffffffffffffffffffffffff1681526020019081526020015f205f82825401925050819055505b8173ffffffffffffffffffffffffffffffffffffffff168373ffffffffffffffffffffffffffffffffffffffff167fddf252ad1be2c89b69c2b068fc378daa952ba7f163c4a11628f55a4df523b3ef836040516115b491906117fd565b60405180910390a3505050565b6115c961070d565b6115ff576040517f8dfc202b00000000000000000000000000000000000000000000000000000000815260040160405180910390fd5b565b61160961070d565b15611640576040517fd93c066500000000000000000000000000000000000000000000000000000000815260040160405180910390fd5b565b5f81519050919050565b5f82825260208201905092915050565b5f5b8381101561167957808201518184015260208101905061165e565b5f8484015250505050565b5f601f19601f8301169050919050565b5f61169e82611642565b6116a8818561164c565b93506116b881856020860161165c565b6116c181611684565b840191505092915050565b5f6020820190508181035f8301526116e48184611694565b905092915050565b5f80fd5b5f73ffffffffffffffffffffffffffffffffffffffff82169050919050565b5f611719826116f0565b9050919050565b6117298161170f565b8114611733575f80fd5b50565b5f8135905061174481611720565b92915050565b5f819050919050565b61175c8161174a565b8114611766575f80fd5b50565b5f8135905061177781611753565b92915050565b5f8060408385031215611793576117926116ec565b5b5f6117a085828601611736565b92505060206117b185828601611769565b9150509250929050565b5f8115159050919050565b6117cf816117bb565b82525050565b5f6020820190506117e85f8301846117c6565b92915050565b6117f78161174a565b82525050565b5f6020820190506118105f8301846117ee565b92915050565b5f805f6060848603121561182d5761182c6116ec565b5b5f61183a86828701611736565b935050602061184b86828701611736565b925050604061185c86828701611769565b9150509250925092565b5f60ff82169050919050565b61187b81611866565b82525050565b5f6020820190506118945f830184611872565b92915050565b5f602082840312156118af576118ae6116ec565b5b5f6118bc84828501611736565b91505092915050565b6118ce8161170f565b82525050565b5f6020820190506118e75f8301846118c5565b92915050565b5f8060408385031215611903576119026116ec565b5b5f61191085828601611736565b925050602061192185828601611736565b9150509250929050565b7f4e487b71000000000000000000000000000000000000000000000000000000005f52602260045260245ffd5b5f600282049050600182168061196f57607f821691505b6020821081036119825761198161192b565b5b50919050565b7f4164647265737320697320626c61636b6c6973746564000000000000000000005f82015250565b5f6119bc60168361164c565b91506119c782611988565b602082019050919050565b5f6020820190508181035f8301526119e9816119b0565b9050919050565b7f41646472657373206973206e6f7420626c61636b6c69737465640000000000005f82015250565b5f611a24601a8361164c565b9150611a2f826119f0565b602082019050919050565b5f6020820190508181035f830152611a5181611a18565b9050919050565b7f4164647265737320697320616c726561647920626c61636b6c697374656400005f82015250565b5f611a8c601e8361164c565b9150611a9782611a58565b602082019050919050565b5f6020820190508181035f830152611ab981611a80565b9050919050565b5f606082019050611ad35f8301866118c5565b611ae060208301856117ee565b611aed60408301846117ee565b949350505050565b7f4e487b71000000000000000000000000000000000000000000000000000000005f52601160045260245ffd5b5f8160011c9050919050565b5f808291508390505b6001851115611b7757808604811115611b5357611b52611af5565b5b6001851615611b625780820291505b8081029050611b7085611b22565b9450611b37565b94509492505050565b5f82611b8f5760019050611c4a565b81611b9c575f9050611c4a565b8160018114611bb25760028114611bbc57611beb565b6001915050611c4a565b60ff841115611bce57611bcd611af5565b5b8360020a915084821115611be557611be4611af5565b5b50611c4a565b5060208310610133831016604e8410600b8410161715611c205782820a905083811115611c1b57611c1a611af5565b5b611c4a565b611c2d8484846001611b2e565b92509050818404811115611c4457611c43611af5565b5b81810290505b9392505050565b5f611c5b8261174a565b9150611c6683611866565b9250611c937fffffffffffffffffffffffffffffffffffffffffffffffffffffffffffffffff8484611b80565b905092915050565b5f611ca58261174a565b9150611cb08361174a565b9250828202611cbe8161174a565b91508282048414831517611cd557611cd4611af5565b5b5092915050565b5f611ce68261174a565b9150611cf18361174a565b9250828201905080821115611d0957611d08611af5565b5b92915050565b7f45524332304361707065643a20636170206578636565646564000000000000005f82015250565b5f611d4360198361164c565b9150611d4e82611d0f565b602082019050919050565b5f6020820190508181035f830152611d7081611d37565b905091905056fea26469706673582212205ea185eab13af6a3e43539c7abb3b122c075b3652bfc84e003495e8fb9e9594464736f6c63430008170033","linkReferences":{}},"methodIdentifiers":{"allowance(address,address)":"dd62ed3e","approve(address,uint256)":"095ea7b3","balanceOf(address)":"70a08231","blacklist(address)":"f9f92be4","cap()":"355274ea","decimals()":"313ce567","isBlacklisted(address)":"fe575a87","mint(address,uint256)":"40c10f19","name()":"06fdde03","owner()":"8da5cb5b","pause()":"8456cb59","paused()":"5c975abb","renounceOwnership()":"715018a6","symbol()":"95d89b41","totalSupply()":"18160ddd","transfer(address,uint256)":"a9059cbb","transferFrom(address,address,uint256)":"23b872dd","transferOwnership(address)":"f2fde38b","unblacklist(address)":"75e3661e","unpause()":"3f4ba83a"},"id":41}